{
  "address": "0xBa8F4AA73C9209e5841076eb774eA91F15072fE4",
  "abi": [
    {
      "anonymous": false,
      "inputs": [
        {
          "indexed": true,
          "internalType": "address",
          "name": "owner",
          "type": "address"
        },
        {
          "indexed": true,
          "internalType": "address",
          "name": "spender",
          "type": "address"
        },
        {
          "indexed": false,
          "internalType": "uint256",
          "name": "value",
          "type": "uint256"
        }
      ],
      "name": "Approval",
      "type": "event"
    },
    {
      "anonymous": false,
      "inputs": [
        {
          "indexed": true,
          "internalType": "contract IERC20Upgradeable",
          "name": "token",
          "type": "address"
        },
        {
          "indexed": false,
          "internalType": "address",
          "name": "to",
          "type": "address"
        },
        {
          "indexed": false,
          "internalType": "uint256",
          "name": "amount",
          "type": "uint256"
        }
      ],
      "name": "ERC20PaymentReleased",
      "type": "event"
    },
    {
      "anonymous": false,
      "inputs": [
        {
          "indexed": true,
          "internalType": "address",
          "name": "previousOwner",
          "type": "address"
        },
        {
          "indexed": true,
          "internalType": "address",
          "name": "newOwner",
          "type": "address"
        }
      ],
      "name": "OwnershipTransferred",
      "type": "event"
    },
    {
      "anonymous": false,
      "inputs": [
        {
          "indexed": false,
          "internalType": "address",
          "name": "account",
          "type": "address"
        },
        {
          "indexed": false,
          "internalType": "uint256",
          "name": "shares",
          "type": "uint256"
        }
      ],
      "name": "PayeeAdded",
      "type": "event"
    },
    {
      "anonymous": false,
      "inputs": [
        {
          "indexed": false,
          "internalType": "address",
          "name": "from",
          "type": "address"
        },
        {
          "indexed": false,
          "internalType": "uint256",
          "name": "amount",
          "type": "uint256"
        }
      ],
      "name": "PaymentReceived",
      "type": "event"
    },
    {
      "anonymous": false,
      "inputs": [
        {
          "indexed": false,
          "internalType": "address",
          "name": "to",
          "type": "address"
        },
        {
          "indexed": false,
          "internalType": "uint256",
          "name": "amount",
          "type": "uint256"
        }
      ],
      "name": "PaymentReleased",
      "type": "event"
    },
    {
      "anonymous": false,
      "inputs": [
        {
          "indexed": true,
          "internalType": "address",
          "name": "from",
          "type": "address"
        },
        {
          "indexed": true,
          "internalType": "address",
          "name": "to",
          "type": "address"
        },
        {
          "indexed": false,
          "internalType": "uint256",
          "name": "value",
          "type": "uint256"
        }
      ],
      "name": "Transfer",
      "type": "event"
    },
    {
      "inputs": [
        {
          "internalType": "address",
          "name": "",
          "type": "address"
        }
      ],
      "name": "_isBlacklisted",
      "outputs": [
        {
          "internalType": "bool",
          "name": "",
          "type": "bool"
        }
      ],
      "stateMutability": "view",
      "type": "function"
    },
    {
      "inputs": [],
      "name": "_nrm",
      "outputs": [
        {
          "internalType": "contract NODERewardManagement",
          "name": "",
          "type": "address"
        }
      ],
      "stateMutability": "view",
      "type": "function"
    },
    {
      "inputs": [
        {
          "internalType": "address",
          "name": "owner",
          "type": "address"
        },
        {
          "internalType": "address",
          "name": "spender",
          "type": "address"
        }
      ],
      "name": "allowance",
      "outputs": [
        {
          "internalType": "uint256",
          "name": "",
          "type": "uint256"
        }
      ],
      "stateMutability": "view",
      "type": "function"
    },
    {
      "inputs": [
        {
          "internalType": "address",
          "name": "spender",
          "type": "address"
        },
        {
          "internalType": "uint256",
          "name": "amount",
          "type": "uint256"
        }
      ],
      "name": "approve",
      "outputs": [
        {
          "internalType": "bool",
          "name": "",
          "type": "bool"
        }
      ],
      "stateMutability": "nonpayable",
      "type": "function"
    },
    {
      "inputs": [
        {
          "internalType": "address",
          "name": "",
          "type": "address"
        }
      ],
      "name": "automatedMarketMakerPairs",
      "outputs": [
        {
          "internalType": "bool",
          "name": "",
          "type": "bool"
        }
      ],
      "stateMutability": "view",
      "type": "function"
    },
    {
      "inputs": [
        {
          "internalType": "address",
          "name": "account",
          "type": "address"
        }
      ],
      "name": "balanceOf",
      "outputs": [
        {
          "internalType": "uint256",
          "name": "",
          "type": "uint256"
        }
      ],
      "stateMutability": "view",
      "type": "function"
    },
    {
      "inputs": [],
      "name": "cashoutAll",
      "outputs": [],
      "stateMutability": "nonpayable",
      "type": "function"
    },
    {
      "inputs": [],
      "name": "cashoutFee",
      "outputs": [
        {
          "internalType": "uint256",
          "name": "",
          "type": "uint256"
        }
      ],
      "stateMutability": "view",
      "type": "function"
    },
    {
      "inputs": [
        {
          "internalType": "uint256",
          "name": "_nodeIndex",
          "type": "uint256"
        }
      ],
      "name": "cashoutReward",
      "outputs": [],
      "stateMutability": "nonpayable",
      "type": "function"
    },
    {
      "inputs": [
        {
          "internalType": "uint256",
          "name": "newTime",
          "type": "uint256"
        }
      ],
      "name": "changeCashoutTimeout",
      "outputs": [],
      "stateMutability": "nonpayable",
      "type": "function"
    },
    {
      "inputs": [
        {
          "internalType": "bool",
          "name": "newVal",
          "type": "bool"
        }
      ],
      "name": "changeEnableAutoSwapDevFund",
      "outputs": [],
      "stateMutability": "nonpayable",
      "type": "function"
    },
    {
      "inputs": [
        {
          "internalType": "bool",
          "name": "newVal",
          "type": "bool"
        }
      ],
      "name": "changeEnableAutoSwapTreasury",
      "outputs": [],
      "stateMutability": "nonpayable",
      "type": "function"
    },
    {
      "inputs": [
        {
          "internalType": "enum ContractType",
          "name": "_cType",
          "type": "uint8"
        },
        {
          "internalType": "uint256",
          "name": "newPrice",
          "type": "uint256"
        }
      ],
      "name": "changeNodePrice",
      "outputs": [],
      "stateMutability": "nonpayable",
      "type": "function"
    },
    {
      "inputs": [
        {
          "internalType": "enum ContractType",
          "name": "_cType",
          "type": "uint8"
        },
        {
          "internalType": "int256",
          "name": "deductPcent",
          "type": "int256"
        }
      ],
      "name": "changeRewardAPRPerNode",
      "outputs": [],
      "stateMutability": "nonpayable",
      "type": "function"
    },
    {
      "inputs": [],
      "name": "decimals",
      "outputs": [
        {
          "internalType": "uint8",
          "name": "",
          "type": "uint8"
        }
      ],
      "stateMutability": "view",
      "type": "function"
    },
    {
      "inputs": [
        {
          "internalType": "address",
          "name": "spender",
          "type": "address"
        },
        {
          "internalType": "uint256",
          "name": "subtractedValue",
          "type": "uint256"
        }
      ],
      "name": "decreaseAllowance",
      "outputs": [
        {
          "internalType": "bool",
          "name": "",
          "type": "bool"
        }
      ],
      "stateMutability": "nonpayable",
      "type": "function"
    },
    {
      "inputs": [],
      "name": "developmentFee",
      "outputs": [
        {
          "internalType": "uint256",
          "name": "",
          "type": "uint256"
        }
      ],
      "stateMutability": "view",
      "type": "function"
    },
    {
      "inputs": [],
      "name": "developmentFundPool",
      "outputs": [
        {
          "internalType": "address",
          "name": "",
          "type": "address"
        }
      ],
      "stateMutability": "view",
      "type": "function"
    },
    {
      "inputs": [],
      "name": "enableAutoSwapDevFund",
      "outputs": [
        {
          "internalType": "bool",
          "name": "",
          "type": "bool"
        }
      ],
      "stateMutability": "view",
      "type": "function"
    },
    {
      "inputs": [],
      "name": "enableAutoSwapTreasury",
      "outputs": [
        {
          "internalType": "bool",
          "name": "",
          "type": "bool"
        }
      ],
      "stateMutability": "view",
      "type": "function"
    },
    {
      "inputs": [],
      "name": "enableCashout",
      "outputs": [
        {
          "internalType": "bool",
          "name": "",
          "type": "bool"
        }
      ],
      "stateMutability": "view",
      "type": "function"
    },
    {
      "inputs": [],
      "name": "enableMintNodes",
      "outputs": [
        {
          "internalType": "bool",
          "name": "",
          "type": "bool"
        }
      ],
      "stateMutability": "view",
      "type": "function"
    },
    {
      "inputs": [],
      "name": "getCashoutTimeout",
      "outputs": [
        {
          "internalType": "uint256",
          "name": "",
          "type": "uint256"
        }
      ],
      "stateMutability": "view",
      "type": "function"
    },
    {
      "inputs": [
        {
          "internalType": "enum ContractType",
          "name": "_cType",
          "type": "uint8"
        }
      ],
      "name": "getNodePrice",
      "outputs": [
        {
          "internalType": "uint256",
          "name": "",
          "type": "uint256"
        }
      ],
      "stateMutability": "view",
      "type": "function"
    },
    {
      "inputs": [],
      "name": "getNodesCreationTime",
      "outputs": [
        {
          "internalType": "string",
          "name": "",
          "type": "string"
        }
      ],
      "stateMutability": "view",
      "type": "function"
    },
    {
      "inputs": [],
      "name": "getNodesCurrentAPR",
      "outputs": [
        {
          "internalType": "string",
          "name": "",
          "type": "string"
        }
      ],
      "stateMutability": "view",
      "type": "function"
    },
    {
      "inputs": [],
      "name": "getNodesInitialAPR",
      "outputs": [
        {
          "internalType": "string",
          "name": "",
          "type": "string"
        }
      ],
      "stateMutability": "view",
      "type": "function"
    },
    {
      "inputs": [],
      "name": "getNodesLastCashoutTime",
      "outputs": [
        {
          "internalType": "string",
          "name": "",
          "type": "string"
        }
      ],
      "stateMutability": "view",
      "type": "function"
    },
    {
      "inputs": [],
      "name": "getNodesNames",
      "outputs": [
        {
          "internalType": "string",
          "name": "",
          "type": "string"
        }
      ],
      "stateMutability": "view",
      "type": "function"
    },
    {
      "inputs": [],
      "name": "getNodesRewards",
      "outputs": [
        {
          "internalType": "string",
          "name": "",
          "type": "string"
        }
      ],
      "stateMutability": "view",
      "type": "function"
    },
    {
      "inputs": [],
      "name": "getNodesTypes",
      "outputs": [
        {
          "internalType": "string",
          "name": "",
          "type": "string"
        }
      ],
      "stateMutability": "view",
      "type": "function"
    },
    {
      "inputs": [
        {
          "internalType": "enum ContractType",
          "name": "_cType",
          "type": "uint8"
        }
      ],
      "name": "getRewardAPRPerNode",
      "outputs": [
        {
          "internalType": "uint256",
          "name": "",
          "type": "uint256"
        }
      ],
      "stateMutability": "view",
      "type": "function"
    },
    {
      "inputs": [],
      "name": "getRewardAmount",
      "outputs": [
        {
          "internalType": "uint256",
          "name": "",
          "type": "uint256"
        }
      ],
      "stateMutability": "view",
      "type": "function"
    },
    {
      "inputs": [
        {
          "internalType": "address",
          "name": "account",
          "type": "address"
        }
      ],
      "name": "getRewardAmountOf",
      "outputs": [
        {
          "internalType": "uint256",
          "name": "",
          "type": "uint256"
        }
      ],
      "stateMutability": "view",
      "type": "function"
    },
    {
      "inputs": [],
      "name": "getTotalNodes",
      "outputs": [
        {
          "internalType": "uint256",
          "name": "",
          "type": "uint256"
        }
      ],
      "stateMutability": "view",
      "type": "function"
    },
    {
      "inputs": [
        {
          "internalType": "enum ContractType",
          "name": "__cType",
          "type": "uint8"
        }
      ],
      "name": "getTotalNodesPerContractType",
      "outputs": [
        {
          "internalType": "uint256",
          "name": "",
          "type": "uint256"
        }
      ],
      "stateMutability": "view",
      "type": "function"
    },
    {
      "inputs": [
        {
          "internalType": "address",
          "name": "spender",
          "type": "address"
        },
        {
          "internalType": "uint256",
          "name": "addedValue",
          "type": "uint256"
        }
      ],
      "name": "increaseAllowance",
      "outputs": [
        {
          "internalType": "bool",
          "name": "",
          "type": "bool"
        }
      ],
      "stateMutability": "nonpayable",
      "type": "function"
    },
    {
      "inputs": [
        {
          "internalType": "address[]",
          "name": "payees",
          "type": "address[]"
        },
        {
          "internalType": "uint256[]",
          "name": "shares",
          "type": "uint256[]"
        },
        {
          "internalType": "address[]",
          "name": "addresses",
          "type": "address[]"
        },
        {
          "internalType": "uint256[]",
          "name": "balances",
          "type": "uint256[]"
        },
        {
          "internalType": "uint256[]",
          "name": "fees",
          "type": "uint256[]"
        },
        {
          "internalType": "address",
          "name": "uniV2Router",
          "type": "address"
        },
        {
          "internalType": "address",
          "name": "usdcAddr",
          "type": "address"
        }
      ],
      "name": "initialize",
      "outputs": [],
      "stateMutability": "nonpayable",
      "type": "function"
    },
    {
      "inputs": [],
      "name": "liquidityPool",
      "outputs": [
        {
          "internalType": "address",
          "name": "",
          "type": "address"
        }
      ],
      "stateMutability": "view",
      "type": "function"
    },
    {
      "inputs": [],
      "name": "liquidityPoolFee",
      "outputs": [
        {
          "internalType": "uint256",
          "name": "",
          "type": "uint256"
        }
      ],
      "stateMutability": "view",
      "type": "function"
    },
    {
      "inputs": [
        {
          "internalType": "string[]",
          "name": "names",
          "type": "string[]"
        },
        {
          "internalType": "enum ContractType",
          "name": "_cType",
          "type": "uint8"
        }
      ],
      "name": "mintNodes",
      "outputs": [],
      "stateMutability": "nonpayable",
      "type": "function"
    },
    {
      "inputs": [],
      "name": "name",
      "outputs": [
        {
          "internalType": "string",
          "name": "",
          "type": "string"
        }
      ],
      "stateMutability": "view",
      "type": "function"
    },
    {
      "inputs": [],
      "name": "ownedNodesLimit",
      "outputs": [
        {
          "internalType": "uint256",
          "name": "",
          "type": "uint256"
        }
      ],
      "stateMutability": "view",
      "type": "function"
    },
    {
      "inputs": [],
      "name": "owner",
      "outputs": [
        {
          "internalType": "address",
          "name": "",
          "type": "address"
        }
      ],
      "stateMutability": "view",
      "type": "function"
    },
    {
      "inputs": [
        {
          "internalType": "uint256",
          "name": "index",
          "type": "uint256"
        }
      ],
      "name": "payee",
      "outputs": [
        {
          "internalType": "address",
          "name": "",
          "type": "address"
        }
      ],
      "stateMutability": "view",
      "type": "function"
    },
    {
      "inputs": [
        {
          "internalType": "address payable",
          "name": "account",
          "type": "address"
        }
      ],
      "name": "release",
      "outputs": [],
      "stateMutability": "nonpayable",
      "type": "function"
    },
    {
      "inputs": [
        {
          "internalType": "contract IERC20Upgradeable",
          "name": "token",
          "type": "address"
        },
        {
          "internalType": "address",
          "name": "account",
          "type": "address"
        }
      ],
      "name": "release",
      "outputs": [],
      "stateMutability": "nonpayable",
      "type": "function"
    },
    {
      "inputs": [
        {
          "internalType": "contract IERC20Upgradeable",
          "name": "token",
          "type": "address"
        },
        {
          "internalType": "address",
          "name": "account",
          "type": "address"
        }
      ],
      "name": "released",
      "outputs": [
        {
          "internalType": "uint256",
          "name": "",
          "type": "uint256"
        }
      ],
      "stateMutability": "view",
      "type": "function"
    },
    {
      "inputs": [
        {
          "internalType": "address",
          "name": "account",
          "type": "address"
        }
      ],
      "name": "released",
      "outputs": [
        {
          "internalType": "uint256",
          "name": "",
          "type": "uint256"
        }
      ],
      "stateMutability": "view",
      "type": "function"
    },
    {
      "inputs": [],
      "name": "renounceOwnership",
      "outputs": [],
      "stateMutability": "nonpayable",
      "type": "function"
    },
    {
      "inputs": [],
      "name": "rewardsFee",
      "outputs": [
        {
          "internalType": "uint256",
          "name": "",
          "type": "uint256"
        }
      ],
      "stateMutability": "view",
      "type": "function"
    },
    {
      "inputs": [],
      "name": "rewardsPool",
      "outputs": [
        {
          "internalType": "address",
          "name": "",
          "type": "address"
        }
      ],
      "stateMutability": "view",
      "type": "function"
    },
    {
      "inputs": [
        {
          "internalType": "address",
          "name": "pair",
          "type": "address"
        },
        {
          "internalType": "bool",
          "name": "value",
          "type": "bool"
        }
      ],
      "name": "setAutomatedMarketMakerPair",
      "outputs": [],
      "stateMutability": "nonpayable",
      "type": "function"
    },
    {
      "inputs": [
        {
          "internalType": "address",
          "name": "account",
          "type": "address"
        },
        {
          "internalType": "bool",
          "name": "value",
          "type": "bool"
        }
      ],
      "name": "setBlacklistStatus",
      "outputs": [],
      "stateMutability": "nonpayable",
      "type": "function"
    },
    {
      "inputs": [
        {
          "internalType": "bool",
          "name": "_enableCashout",
          "type": "bool"
        }
      ],
      "name": "setEnableCashout",
      "outputs": [],
      "stateMutability": "nonpayable",
      "type": "function"
    },
    {
      "inputs": [
        {
          "internalType": "bool",
          "name": "value",
          "type": "bool"
        }
      ],
      "name": "setEnableMintNodes",
      "outputs": [],
      "stateMutability": "nonpayable",
      "type": "function"
    },
    {
      "inputs": [
        {
          "internalType": "address",
          "name": "nrm",
          "type": "address"
        }
      ],
      "name": "setNodeManagement",
      "outputs": [],
      "stateMutability": "nonpayable",
      "type": "function"
    },
    {
      "inputs": [
        {
          "internalType": "address",
          "name": "account",
          "type": "address"
        }
      ],
      "name": "shares",
      "outputs": [
        {
          "internalType": "uint256",
          "name": "",
          "type": "uint256"
        }
      ],
      "stateMutability": "view",
      "type": "function"
    },
    {
      "inputs": [],
      "name": "swapTokensAmount",
      "outputs": [
        {
          "internalType": "uint256",
          "name": "",
          "type": "uint256"
        }
      ],
      "stateMutability": "view",
      "type": "function"
    },
    {
      "inputs": [],
      "name": "symbol",
      "outputs": [
        {
          "internalType": "string",
          "name": "",
          "type": "string"
        }
      ],
      "stateMutability": "view",
      "type": "function"
    },
    {
      "inputs": [],
      "name": "totalFees",
      "outputs": [
        {
          "internalType": "uint256",
          "name": "",
          "type": "uint256"
        }
      ],
      "stateMutability": "view",
      "type": "function"
    },
    {
      "inputs": [
        {
          "internalType": "contract IERC20Upgradeable",
          "name": "token",
          "type": "address"
        }
      ],
      "name": "totalReleased",
      "outputs": [
        {
          "internalType": "uint256",
          "name": "",
          "type": "uint256"
        }
      ],
      "stateMutability": "view",
      "type": "function"
    },
    {
      "inputs": [],
      "name": "totalReleased",
      "outputs": [
        {
          "internalType": "uint256",
          "name": "",
          "type": "uint256"
        }
      ],
      "stateMutability": "view",
      "type": "function"
    },
    {
      "inputs": [],
      "name": "totalShares",
      "outputs": [
        {
          "internalType": "uint256",
          "name": "",
          "type": "uint256"
        }
      ],
      "stateMutability": "view",
      "type": "function"
    },
    {
      "inputs": [],
      "name": "totalSupply",
      "outputs": [
        {
          "internalType": "uint256",
          "name": "",
          "type": "uint256"
        }
      ],
      "stateMutability": "view",
      "type": "function"
    },
    {
      "inputs": [],
      "name": "totalTokensPaidForMinting",
      "outputs": [
        {
          "internalType": "uint256",
          "name": "",
          "type": "uint256"
        }
      ],
      "stateMutability": "view",
      "type": "function"
    },
    {
      "inputs": [
        {
          "internalType": "address",
          "name": "to",
          "type": "address"
        },
        {
          "internalType": "uint256",
          "name": "amount",
          "type": "uint256"
        }
      ],
      "name": "transfer",
      "outputs": [
        {
          "internalType": "bool",
          "name": "",
          "type": "bool"
        }
      ],
      "stateMutability": "nonpayable",
      "type": "function"
    },
    {
      "inputs": [
        {
          "internalType": "address",
          "name": "from",
          "type": "address"
        },
        {
          "internalType": "address",
          "name": "to",
          "type": "address"
        },
        {
          "internalType": "uint256",
          "name": "amount",
          "type": "uint256"
        }
      ],
      "name": "transferFrom",
      "outputs": [
        {
          "internalType": "bool",
          "name": "",
          "type": "bool"
        }
      ],
      "stateMutability": "nonpayable",
      "type": "function"
    },
    {
      "inputs": [
        {
          "internalType": "address",
          "name": "newOwner",
          "type": "address"
        }
      ],
      "name": "transferOwnership",
      "outputs": [],
      "stateMutability": "nonpayable",
      "type": "function"
    },
    {
      "inputs": [],
      "name": "treasuryFee",
      "outputs": [
        {
          "internalType": "uint256",
          "name": "",
          "type": "uint256"
        }
      ],
      "stateMutability": "view",
      "type": "function"
    },
    {
      "inputs": [],
      "name": "treasuryPool",
      "outputs": [
        {
          "internalType": "address",
          "name": "",
          "type": "address"
        }
      ],
      "stateMutability": "view",
      "type": "function"
    },
    {
      "inputs": [],
      "name": "uniswapV2Pair",
      "outputs": [
        {
          "internalType": "address",
          "name": "",
          "type": "address"
        }
      ],
      "stateMutability": "view",
      "type": "function"
    },
    {
      "inputs": [],
      "name": "uniswapV2Router",
      "outputs": [
        {
          "internalType": "contract IJoeRouter02",
          "name": "",
          "type": "address"
        }
      ],
      "stateMutability": "view",
      "type": "function"
    },
    {
      "inputs": [
        {
          "internalType": "uint256",
          "name": "value",
          "type": "uint256"
        }
      ],
      "name": "updateCashoutFee",
      "outputs": [],
      "stateMutability": "nonpayable",
      "type": "function"
    },
    {
      "inputs": [
        {
          "internalType": "uint256",
          "name": "value",
          "type": "uint256"
        }
      ],
      "name": "updateDevelopmentFee",
      "outputs": [],
      "stateMutability": "nonpayable",
      "type": "function"
    },
    {
      "inputs": [
        {
          "internalType": "address payable",
          "name": "wall",
          "type": "address"
        }
      ],
      "name": "updateDevelopmentFundWallet",
      "outputs": [],
      "stateMutability": "nonpayable",
      "type": "function"
    },
    {
      "inputs": [
        {
          "internalType": "uint256",
          "name": "value",
          "type": "uint256"
        }
      ],
      "name": "updateLiquidityFee",
      "outputs": [],
      "stateMutability": "nonpayable",
      "type": "function"
    },
    {
      "inputs": [
        {
          "internalType": "address payable",
          "name": "wall",
          "type": "address"
        }
      ],
      "name": "updateLiquidityWallet",
      "outputs": [],
      "stateMutability": "nonpayable",
      "type": "function"
    },
    {
      "inputs": [
        {
          "internalType": "uint256",
          "name": "value",
          "type": "uint256"
        }
      ],
      "name": "updateRewardsFee",
      "outputs": [],
      "stateMutability": "nonpayable",
      "type": "function"
    },
    {
      "inputs": [
        {
          "internalType": "address payable",
          "name": "wall",
          "type": "address"
        }
      ],
      "name": "updateRewardsWallet",
      "outputs": [],
      "stateMutability": "nonpayable",
      "type": "function"
    },
    {
      "inputs": [
        {
          "internalType": "uint256",
          "name": "newVal",
          "type": "uint256"
        }
      ],
      "name": "updateSwapTokensAmount",
      "outputs": [],
      "stateMutability": "nonpayable",
      "type": "function"
    },
    {
      "inputs": [
        {
          "internalType": "uint256",
          "name": "value",
          "type": "uint256"
        }
      ],
      "name": "updateTreasuryFee",
      "outputs": [],
      "stateMutability": "nonpayable",
      "type": "function"
    },
    {
      "inputs": [
        {
          "internalType": "address payable",
          "name": "wall",
          "type": "address"
        }
      ],
      "name": "updateTreasuryWallet",
      "outputs": [],
      "stateMutability": "nonpayable",
      "type": "function"
    },
    {
      "inputs": [
        {
          "internalType": "address",
          "name": "newAddress",
          "type": "address"
        }
      ],
      "name": "updateUniswapV2Router",
      "outputs": [],
      "stateMutability": "nonpayable",
      "type": "function"
    },
    {
      "inputs": [],
      "name": "usdcToken",
      "outputs": [
        {
          "internalType": "address",
          "name": "",
          "type": "address"
        }
      ],
      "stateMutability": "view",
      "type": "function"
    },
    {
      "stateMutability": "payable",
      "type": "receive"
    }
  ],
  "transactionHash": "0x60e6adbbc41c8282ab69c82725b34d62e6a01a25dcf3c7e0aa865a2564b4cdf2",
  "args": [],
  "numDeployments": 3,
  "solcInputHash": "20a088813ef5440ad37f929344a777c1",
  "bytecode": "0x608060405260de805461ffff191661010117905534801561001f57600080fd5b50615abe80620000306000396000f3fe6080604052600436106104ae5760003560e01c8063665a11ca1161026b578063a457c2d71161014f578063ce7c2ac2116100c1578063e0583ec011610085578063e0583ec014610ed2578063e33b7de314610eec578063e37ba8f914610f01578063f2fde38b14610f21578063f78d5c5514610f41578063fb0a749414610f6157600080fd5b8063ce7c2ac214610deb578063cfad607514610e21578063cfc0d02414610e36578063d79779b214610e56578063dd62ed3e14610e8c57600080fd5b8063b47bef5011610113578063b47bef5014610d35578063b62496f514610d4b578063b96392c114610d7b578063b9bd393314610d9b578063c3491b4914610db5578063cc32d17614610dd557600080fd5b8063a457c2d714610c9f578063a5f3d00314610cbf578063a79ebbcd14610cd5578063a9059cbb14610cf5578063b3328aae14610d1557600080fd5b8063810be66d116101e857806393a93355116101ac57806393a9335514610bd457806395d89b4114610bf45780639723283014610c095780639852595c14610c295780639a7a23d614610c5f5780639dc73a4914610c7f57600080fd5b8063810be66d14610b36578063839df91914610b565780638b83209b14610b765780638da5cb5b14610b965780638e67566314610bb457600080fd5b8063713540491161022f5780637135404914610ab7578063715018a614610ad75780637650e15114610aec57806378045b4d14610b01578063809d458d14610b1657600080fd5b8063665a11ca14610a0b5780636770474b14610a2b5780636815a91c14610a4b5780636d9ae0be14610a6b57806370a0823114610a8157600080fd5b8063313ce567116103925780634be8f7321161030f5780635b0d4674116102d35780635b0d46741461096b5780635d516efc146109805780635f1c3182146109a057806363584ecd146109b657806365b8dbc0146109cb57806365bfe430146109eb57600080fd5b80634be8f732146108eb5780634d356c2f1461090b578063545579731461092057806354f12f1f14610935578063559bf3021461094b57600080fd5b8063406072a911610356578063406072a91461082557806341bc03121461086b57806348b750441461088b57806348df5829146108ab57806349bd5a5e146108cb57600080fd5b8063313ce567146107a957806335292548146107c557806339306140146107da57806339509351146107f05780633a98ef391461081057600080fd5b806311eac8551161042b57806318160ddd116103ef57806318160ddd146106ee57806319165587146107035780631cdd3be31461072357806323b872dd146107535780632939a0a6146107735780632bb14e1d1461079357600080fd5b806311eac8551461066e57806313114a9d1461068e578063138a634a146106a45780631694505e146106b9578063177a33ac146106d957600080fd5b8063084a6bff11610472578063084a6bff146105bd578063095ea7b3146105dd57806309a69f571461060d5780630dae667b146106305780630f1978fb1461064f57600080fd5b80630359fea9146104fc57806303d29d281461053957806305060bd51461055b57806306fdde031461057b578063080310121461059d57600080fd5b366104f7577f6ef95f06320e7a25a04a175ca677b7052bdd97131872c2192525a629f51be77033604080516001600160a01b0390921682523460208301520160405180910390a1005b600080fd5b34801561050857600080fd5b5060d15461051c906001600160a01b031681565b6040516001600160a01b0390911681526020015b60405180910390f35b34801561054557600080fd5b5061055961055436600461524c565b610f81565b005b34801561056757600080fd5b5060c95461051c906001600160a01b031681565b34801561058757600080fd5b50610590610fdf565b60405161053091906156c5565b3480156105a957600080fd5b506105596105b83660046152a6565b611071565b3480156105c957600080fd5b506105596105d8366004615586565b611864565b3480156105e957600080fd5b506105fd6105f836600461527a565b6118e6565b6040519015158152602001610530565b34801561061957600080fd5b50610622611900565b604051908152602001610530565b34801561063c57600080fd5b5060de546105fd90610100900460ff1681565b34801561065b57600080fd5b5060d9546105fd90610100900460ff1681565b34801561067a57600080fd5b5060db5461051c906001600160a01b031681565b34801561069a57600080fd5b5061062260d75481565b3480156106b057600080fd5b50610590611a52565b3480156106c557600080fd5b5060ca5461051c906001600160a01b031681565b3480156106e557600080fd5b50610590611ba4565b3480156106fa57600080fd5b50603554610622565b34801561070f57600080fd5b5061055961071e366004615198565b611c7f565b34801561072f57600080fd5b506105fd61073e366004615198565b60dc6020526000908152604090205460ff1681565b34801561075f57600080fd5b506105fd61076e36600461520b565b611dad565b34801561077f57600080fd5b5061055961078e36600461549e565b611dd3565b34801561079f57600080fd5b5061062260d35481565b3480156107b557600080fd5b5060405160128152602001610530565b3480156107d157600080fd5b50610590611e17565b3480156107e657600080fd5b5061062260ce5481565b3480156107fc57600080fd5b506105fd61080b36600461527a565b611ef2565b34801561081c57600080fd5b50609754610622565b34801561083157600080fd5b506106226108403660046151d2565b6001600160a01b039182166000908152609d6020908152604080832093909416825291909152205490565b34801561087757600080fd5b506106226108863660046154d8565b611f31565b34801561089757600080fd5b506105596108a63660046151d2565b611fb2565b3480156108b757600080fd5b5060d05461051c906001600160a01b031681565b3480156108d757600080fd5b5060cd5461051c906001600160a01b031681565b3480156108f757600080fd5b50610559610906366004615399565b61219a565b34801561091757600080fd5b5061059061280e565b34801561092c57600080fd5b506105596128e9565b34801561094157600080fd5b5061062260d55481565b34801561095757600080fd5b50610559610966366004615198565b612c6b565b34801561097757600080fd5b50610590612cb7565b34801561098c57600080fd5b5061055961099b3660046154f3565b612d92565b3480156109ac57600080fd5b5061062260da5481565b3480156109c257600080fd5b50610622612e24565b3480156109d757600080fd5b506105596109e6366004615198565b612e69565b3480156109f757600080fd5b50610559610a06366004615586565b6130ca565b348015610a1757600080fd5b5060d25461051c906001600160a01b031681565b348015610a3757600080fd5b50610559610a46366004615586565b6134a3565b348015610a5757600080fd5b50610559610a66366004615586565b6134d2565b348015610a7757600080fd5b5061062260d85481565b348015610a8d57600080fd5b50610622610a9c366004615198565b6001600160a01b031660009081526033602052604090205490565b348015610ac357600080fd5b50610559610ad23660046154f3565b613552565b348015610ae357600080fd5b50610559613612565b348015610af857600080fd5b50610590613648565b348015610b0d57600080fd5b50610622613723565b348015610b2257600080fd5b50610559610b31366004615198565b613768565b348015610b4257600080fd5b5060cf5461051c906001600160a01b031681565b348015610b6257600080fd5b50610559610b7136600461549e565b6137b4565b348015610b8257600080fd5b5061051c610b91366004615586565b6137f8565b348015610ba257600080fd5b506065546001600160a01b031661051c565b348015610bc057600080fd5b50610559610bcf366004615586565b613828565b348015610be057600080fd5b50610622610bef3660046154d8565b6138aa565b348015610c0057600080fd5b506105906138db565b348015610c1557600080fd5b50610559610c24366004615586565b6138ea565b348015610c3557600080fd5b50610622610c44366004615198565b6001600160a01b03166000908152609a602052604090205490565b348015610c6b57600080fd5b50610559610c7a36600461524c565b61396c565b348015610c8b57600080fd5b50610559610c9a36600461549e565b613a16565b348015610cab57600080fd5b506105fd610cba36600461527a565b613a53565b348015610ccb57600080fd5b5061062260d65481565b348015610ce157600080fd5b50610622610cf03660046154d8565b613af0565b348015610d0157600080fd5b506105fd610d1036600461527a565b613b21565b348015610d2157600080fd5b50610559610d3036600461549e565b613b2f565b348015610d4157600080fd5b5061062260cb5481565b348015610d5757600080fd5b506105fd610d66366004615198565b60dd6020526000908152604090205460ff1681565b348015610d8757600080fd5b50610622610d96366004615198565b613b6c565b348015610da757600080fd5b5060de546105fd9060ff1681565b348015610dc157600080fd5b50610559610dd0366004615586565b613bd0565b348015610de157600080fd5b5061062260d45481565b348015610df757600080fd5b50610622610e06366004615198565b6001600160a01b031660009081526099602052604090205490565b348015610e2d57600080fd5b50610590613c54565b348015610e4257600080fd5b50610559610e51366004615198565b613d2f565b348015610e6257600080fd5b50610622610e71366004615198565b6001600160a01b03166000908152609c602052604090205490565b348015610e9857600080fd5b50610622610ea73660046151d2565b6001600160a01b03918216600090815260346020908152604080832093909416825291909152205490565b348015610ede57600080fd5b5060d9546105fd9060ff1681565b348015610ef857600080fd5b50609854610622565b348015610f0d57600080fd5b50610559610f1c366004615198565b613d7b565b348015610f2d57600080fd5b50610559610f3c366004615198565b613dc7565b348015610f4d57600080fd5b50610559610f5c366004615586565b613e62565b348015610f6d57600080fd5b50610559610f7c366004615198565b613ee4565b6065546001600160a01b03163314610fb45760405162461bcd60e51b8152600401610fab90615790565b60405180910390fd5b6001600160a01b0391909116600090815260dc60205260409020805460ff1916911515919091179055565b606060368054610fee906159f6565b80601f016020809104026020016040519081016040528092919081815260200182805461101a906159f6565b80156110675780601f1061103c57610100808354040283529160200191611067565b820191906000526020600020905b81548152906001019060200180831161104a57829003601f168201915b5050505050905090565b600054610100900460ff1661108c5760005460ff1615611090565b303b155b6110f35760405162461bcd60e51b815260206004820152602e60248201527f496e697469616c697a61626c653a20636f6e747261637420697320616c72656160448201526d191e481a5b9a5d1a585b1a5e995960921b6064820152608401610fab565b600054610100900460ff16158015611115576000805461ffff19166101011790555b60008651118015611127575060008551115b61116a5760405162461bcd60e51b815260206004820152601460248201527320a222291013102120a620a721a29022a92927a960611b6044820152606401610fab565b611172613f30565b6111ba6040518060400160405280600b81526020016a3078426c6f636b7320763160a81b81525060405180604001604052806003815260200162182c2160e91b815250613f5f565b6111c48888613f90565b856001815181106111d7576111d7615a62565b602002602001015160cf60006101000a8154816001600160a01b0302191690836001600160a01b031602179055508560028151811061121857611218615a62565b602002602001015160d260006101000a8154816001600160a01b0302191690836001600160a01b031602179055508560038151811061125957611259615a62565b602002602001015160d060006101000a8154816001600160a01b0302191690836001600160a01b031602179055508560048151811061129a5761129a615a62565b602090810291909101015160d180546001600160a01b0319166001600160a01b0392831617905560cf5416158015906112dd575060d2546001600160a01b031615155b80156112f3575060d0546001600160a01b031615155b8015611309575060d1546001600160a01b031615155b6113475760405162461bcd60e51b815260206004820152600f60248201526e1413d3d30816915493c81193d55391608a1b6044820152606401610fab565b6001600160a01b03831661138b5760405162461bcd60e51b815260206004820152600b60248201526a524f55544552205a45524f60a81b6044820152606401610fab565b60008390506000816001600160a01b031663c45a01556040518163ffffffff1660e01b815260040160206040518083038186803b1580156113cb57600080fd5b505afa1580156113df573d6000803e3d6000fd5b505050506040513d601f19601f8201168201806040525081019061140391906151b5565b6001600160a01b031663c9c6539630846001600160a01b03166373b295c26040518163ffffffff1660e01b815260040160206040518083038186803b15801561144b57600080fd5b505afa15801561145f573d6000803e3d6000fd5b505050506040513d601f19601f8201168201806040525081019061148391906151b5565b6040516001600160e01b031960e085901b1681526001600160a01b03928316600482015291166024820152604401602060405180830381600087803b1580156114cb57600080fd5b505af11580156114df573d6000803e3d6000fd5b505050506040513d601f19601f8201168201806040525081019061150391906151b5565b60ca80546001600160a01b038086166001600160a01b03199283161790925560cd8054928416929091169190911790559050611540816001613fc1565b60008660008151811061155557611555615a62565b6020026020010151118015611584575060008660018151811061157a5761157a615a62565b6020026020010151115b80156115aa57506000866002815181106115a0576115a0615a62565b6020026020010151115b80156115d057506000866003815181106115c6576115c6615a62565b6020026020010151115b80156115f657506000866004815181106115ec576115ec615a62565b6020026020010151115b6116325760405162461bcd60e51b815260206004820152600d60248201526c0c094811915154c81193d55391609a1b6044820152606401610fab565b8560008151811061164557611645615a62565b602002602001015160d6819055508560018151811061166657611666615a62565b602002602001015160d4819055508560028151811061168757611687615a62565b602002602001015160d381905550856003815181106116a8576116a8615a62565b602002602001015160d581905550856004815181106116c9576116c9615a62565b602002602001015160d88190555060d45460d65460d55460d3546116ed919061595a565b6116f7919061595a565b611701919061595a565b60d755865188511461174c5760405162461bcd60e51b815260206004820152601460248201527320a222291013102120a620a721a29022a92927a960611b6044820152606401610fab565b60005b88518110156117b9576117a789828151811061176d5761176d615a62565b602002602001015189838151811061178757611787615a62565b6020026020010151670de0b6b3a76400006117a29190615994565b614081565b806117b181615a31565b91505061174f565b5060355469d65f55192a50a64400001461180d5760405162461bcd60e51b81526020600482015260156024820152741515130814d5541413164811125191880c48135253605a1b6044820152606401610fab565b505060db80546001600160a01b0319166001600160a01b038416179055606460cb55600a60cc5560d9805461ffff1916610101179055600060da55801561185a576000805461ff00191690555b5050505050505050565b6065546001600160a01b0316331461188e5760405162461bcd60e51b8152600401610fab90615790565b60008160d45460d65460d5546118a4919061595a565b6118ae919061595a565b6118b8919061595a565b905060648111156118db5760405162461bcd60e51b8152600401610fab906157ea565b60d39190915560d755565b6000336118f4818585614160565b60019150505b92915050565b60003361191f5760405162461bcd60e51b8152600401610fab906157c5565b60c9546001600160a01b03166341ac82b0336040516001600160e01b031960e084901b1681526001600160a01b03909116600482015260240160206040518083038186803b15801561197057600080fd5b505afa158015611984573d6000803e3d6000fd5b505050506040513d601f19601f820116820180604052508101906119a891906154bb565b6119c45760405162461bcd60e51b8152600401610fab906156d8565b60c9546001600160a01b031663619a635e336040516001600160e01b031960e084901b1681526001600160a01b03909116600482015260240160206040518083038186803b158015611a1557600080fd5b505afa158015611a29573d6000803e3d6000fd5b505050506040513d601f19601f82011682018060405250810190611a4d919061559f565b905090565b606033611a715760405162461bcd60e51b8152600401610fab906157c5565b60c9546001600160a01b03166341ac82b0336040516001600160e01b031960e084901b1681526001600160a01b03909116600482015260240160206040518083038186803b158015611ac257600080fd5b505afa158015611ad6573d6000803e3d6000fd5b505050506040513d601f19601f82011682018060405250810190611afa91906154bb565b611b165760405162461bcd60e51b8152600401610fab906156d8565b60c9546001600160a01b031663334de3a2335b6040516001600160e01b031960e084901b1681526001600160a01b03909116600482015260240160006040518083038186803b158015611b6857600080fd5b505afa158015611b7c573d6000803e3d6000fd5b505050506040513d6000823e601f3d908101601f19168201604052611a4d919081019061550f565b606033611bc35760405162461bcd60e51b8152600401610fab906157c5565b60c9546001600160a01b03166341ac82b0336040516001600160e01b031960e084901b1681526001600160a01b03909116600482015260240160206040518083038186803b158015611c1457600080fd5b505afa158015611c28573d6000803e3d6000fd5b505050506040513d601f19601f82011682018060405250810190611c4c91906154bb565b611c685760405162461bcd60e51b8152600401610fab906156d8565b60c9546001600160a01b0316636b4da10233611b29565b6001600160a01b038116600090815260996020526040902054611cb45760405162461bcd60e51b8152600401610fab906156ff565b6000611cbf60985490565b611cc9904761595a565b90506000611cf68383611cf1866001600160a01b03166000908152609a602052604090205490565b614284565b905080611d155760405162461bcd60e51b8152600401610fab90615745565b6001600160a01b0383166000908152609a602052604081208054839290611d3d90849061595a565b925050819055508060986000828254611d56919061595a565b90915550611d66905083826142ca565b604080516001600160a01b0385168152602081018390527fdf20fd1e76bc69d672e4814fafb2c449bba3a5369d8359adf9e05e6fde87b056910160405180910390a1505050565b600033611dbb8582856143e8565b611dc6858585614474565b60019150505b9392505050565b6065546001600160a01b03163314611dfd5760405162461bcd60e51b8152600401610fab90615790565b60de80549115156101000261ff0019909216919091179055565b606033611e365760405162461bcd60e51b8152600401610fab906157c5565b60c9546001600160a01b03166341ac82b0336040516001600160e01b031960e084901b1681526001600160a01b03909116600482015260240160206040518083038186803b158015611e8757600080fd5b505afa158015611e9b573d6000803e3d6000fd5b505050506040513d601f19601f82011682018060405250810190611ebf91906154bb565b611edb5760405162461bcd60e51b8152600401610fab906156d8565b60c9546001600160a01b031663aa57be3033611b29565b3360008181526034602090815260408083206001600160a01b03871684529091528120549091906118f49082908690611f2c90879061595a565b614160565b60c954604051631f7bcc4b60e01b81526000916001600160a01b031690631f7bcc4b90611f6290859060040161569c565b60206040518083038186803b158015611f7a57600080fd5b505afa158015611f8e573d6000803e3d6000fd5b505050506040513d601f19601f820116820180604052508101906118fa919061559f565b6001600160a01b038116600090815260996020526040902054611fe75760405162461bcd60e51b8152600401610fab906156ff565b6001600160a01b0382166000908152609c60205260408120546040516370a0823160e01b81523060048201526001600160a01b038516906370a082319060240160206040518083038186803b15801561203f57600080fd5b505afa158015612053573d6000803e3d6000fd5b505050506040513d601f19601f82011682018060405250810190612077919061559f565b612081919061595a565b905060006120ba8383611cf187876001600160a01b039182166000908152609d6020908152604080832093909416825291909152205490565b9050806120d95760405162461bcd60e51b8152600401610fab90615745565b6001600160a01b038085166000908152609d602090815260408083209387168352929052908120805483929061211090849061595a565b90915550506001600160a01b0384166000908152609c60205260408120805483929061213d90849061595a565b9091555061214e905084848361450d565b604080516001600160a01b038581168252602082018490528616917f3be5b7a71e84ed12875d241991c70855ac5817d847039e17a9d895c1ceb0f18a910160405180910390a250505050565b60de54610100900460ff166121f15760405162461bcd60e51b815260206004820152601d60248201527f4e4f44454d494e543a206d696e74206e6f6465732064697361626c65640000006044820152606401610fab565b60cc54825111156122445760405162461bcd60e51b815260206004820152601860248201527f4e4f44454d494e543a20746f6f206d616e79206e6f64657300000000000000006044820152606401610fab565b60005b82518110156122fd57600383828151811061226457612264615a62565b6020026020010151511180156122945750602183828151811061228957612289615a62565b602002602001015151105b6122eb5760405162461bcd60e51b815260206004820152602260248201527f4e4f44454d494e543a20696d70726f7065722063686172616374657220636f756044820152611b9d60f21b6064820152608401610fab565b806122f581615a31565b915050612247565b5033806123455760405162461bcd60e51b81526020600482015260166024820152754e4f44454d494e543a207a65726f206164647265737360501b6044820152606401610fab565b6001600160a01b038116600090815260dc602052604090205460ff16156123ae5760405162461bcd60e51b815260206004820152601d60248201527f4e4f44454d494e543a20626c61636b6c697374656420616464726573730000006044820152606401610fab565b60cf546001600160a01b038281169116148015906123da575060d1546001600160a01b03828116911614155b80156123f4575060d0546001600160a01b03828116911614155b61244b5760405162461bcd60e51b815260206004820152602260248201527f4e4f44454d494e543a20706f6f6c732063616e6e6f7420637265617465206e6f604482015261646560f01b6064820152608401610fab565b60006124568261455f565b905060cb54845182612468919061595a565b11156124b65760405162461bcd60e51b815260206004820152601c60248201527f4e4f44454d494e543a2072656163686564206d696e74206c696d6974000000006044820152606401610fab565b835160c954604051631f7bcc4b60e01b8152600092916001600160a01b031690631f7bcc4b906124ea90889060040161569c565b60206040518083038186803b15801561250257600080fd5b505afa158015612516573d6000803e3d6000fd5b505050506040513d601f19601f8201168201806040525081019061253a919061559f565b6125449190615994565b90508060ce6000828254612558919061595a565b90915550506001600160a01b0383166000908152603360205260409020548111156125d55760405162461bcd60e51b815260206004820152602760248201527f4e4f44454d494e543a2042616c616e636520746f6f206c6f7720666f7220637260448201526632b0ba34b7b71760c91b6064820152608401610fab565b6000606460d654836125e79190615994565b6125f19190615972565b60d954909150610100900460ff161561262a5761260f843083614592565b60cf54612625906001600160a01b031682614760565b612642565b60cf546126429085906001600160a01b031683614592565b6000606460d354846126549190615994565b61265e9190615972565b60d1549091506126799086906001600160a01b031683614592565b6000606460d4548561268b9190615994565b6126959190615972565b60d95490915060ff16156126c9576126ae863083614592565b60d0546126c4906001600160a01b031682614760565b6126e1565b60d0546126e19087906001600160a01b031683614592565b6000606460d554866126f39190615994565b6126fd9190615972565b60d25490915061272c9088906001600160a01b031661271d600285615972565b61272790856159b3565b614592565b61273c8730612727600285615972565b60d25461275c906001600160a01b0316612757600284615972565b6148fd565b600081838561276b888a6159b3565b61277591906159b3565b61277f91906159b3565b61278991906159b3565b9050801561279c5761279c883083614592565b60c954604051637b358d0560e01b81526001600160a01b0390911690637b358d05906127d0908b908e908e90600401615622565b600060405180830381600087803b1580156127ea57600080fd5b505af11580156127fe573d6000803e3d6000fd5b5050505050505050505050505050565b60603361282d5760405162461bcd60e51b8152600401610fab906157c5565b60c9546001600160a01b03166341ac82b0336040516001600160e01b031960e084901b1681526001600160a01b03909116600482015260240160206040518083038186803b15801561287e57600080fd5b505afa158015612892573d6000803e3d6000fd5b505050506040513d601f19601f820116820180604052508101906128b691906154bb565b6128d25760405162461bcd60e51b8152600401610fab906156d8565b60c9546001600160a01b031663fd8db54633611b29565b60de54339060ff1615156001146129425760405162461bcd60e51b815260206004820152601960248201527f43534854414c4c3a20636173686f75742064697361626c6564000000000000006044820152606401610fab565b6001600160a01b0381166129905760405162461bcd60e51b815260206004820152601560248201527443534854414c4c3a207a65726f206164647265737360581b6044820152606401610fab565b6001600160a01b038116600090815260dc602052604090205460ff16156129f95760405162461bcd60e51b815260206004820152601c60248201527f43534854414c4c3a20626c61636b6c69737465642061646472657373000000006044820152606401610fab565b60cf546001600160a01b03828116911614801590612a25575060d1546001600160a01b03828116911614155b612a715760405162461bcd60e51b815260206004820152601d60248201527f43534854414c4c3a20706f6f6c732063616e6e6f7420636173686f75740000006044820152606401610fab565b60c9546040516330cd31af60e11b81526001600160a01b038381166004830152600092169063619a635e9060240160206040518083038186803b158015612ab757600080fd5b505afa158015612acb573d6000803e3d6000fd5b505050506040513d601f19601f82011682018060405250810190612aef919061559f565b905060008111612b415760405162461bcd60e51b815260206004820152601960248201527f43534854414c4c3a20726577617264206e6f74207265616479000000000000006044820152606401610fab565b60d85460009015612bc257606460d85483612b5c9190615994565b612b669190615972565b60d15460d254919250612b8b916001600160a01b03918216911661271d600285615972565b60d154612ba7906001600160a01b031630612727600285615972565b60d254612bc2906001600160a01b0316612757600284615972565b612bcc81836159b3565b60d154909250612be6906001600160a01b03168484614592565b60c95460405163170a62c760e21b81526001600160a01b03858116600483015290911690635c298b1c90602401602060405180830381600087803b158015612c2d57600080fd5b505af1158015612c41573d6000803e3d6000fd5b505050506040513d601f19601f82011682018060405250810190612c65919061559f565b50505050565b6065546001600160a01b03163314612c955760405162461bcd60e51b8152600401610fab90615790565b60cf80546001600160a01b0319166001600160a01b0392909216919091179055565b606033612cd65760405162461bcd60e51b8152600401610fab906157c5565b60c9546001600160a01b03166341ac82b0336040516001600160e01b031960e084901b1681526001600160a01b03909116600482015260240160206040518083038186803b158015612d2757600080fd5b505afa158015612d3b573d6000803e3d6000fd5b505050506040513d601f19601f82011682018060405250810190612d5f91906154bb565b612d7b5760405162461bcd60e51b8152600401610fab906156d8565b60c9546001600160a01b0316634a389fae33611b29565b6065546001600160a01b03163314612dbc5760405162461bcd60e51b8152600401610fab90615790565b60c9546040516353f63f7f60e01b81526001600160a01b03909116906353f63f7f90612dee90859085906004016156aa565b600060405180830381600087803b158015612e0857600080fd5b505af1158015612e1c573d6000803e3d6000fd5b505050505050565b60c9546040805163b8527aef60e01b815290516000926001600160a01b03169163b8527aef916004808301926020929190829003018186803b158015611a1557600080fd5b6065546001600160a01b03163314612e935760405162461bcd60e51b8152600401610fab90615790565b60ca546001600160a01b0382811691161415612f025760405162461bcd60e51b815260206004820152602860248201527f544b4e3a2054686520726f7574657220616c7265616479206861732074686174604482015267206164647265737360c01b6064820152608401610fab565b60ca80546001600160a01b0319166001600160a01b0383169081179091556040805163c45a015560e01b815290516000929163c45a0155916004808301926020929190829003018186803b158015612f5957600080fd5b505afa158015612f6d573d6000803e3d6000fd5b505050506040513d601f19601f82011682018060405250810190612f9191906151b5565b6001600160a01b031663c9c653963060ca60009054906101000a90046001600160a01b03166001600160a01b03166373b295c26040518163ffffffff1660e01b815260040160206040518083038186803b158015612fee57600080fd5b505afa158015613002573d6000803e3d6000fd5b505050506040513d601f19601f8201168201806040525081019061302691906151b5565b6040516001600160e01b031960e085901b1681526001600160a01b03928316600482015291166024820152604401602060405180830381600087803b15801561306e57600080fd5b505af1158015613082573d6000803e3d6000fd5b505050506040513d601f19601f820116820180604052508101906130a691906151b5565b60cd80546001600160a01b0319166001600160a01b03929092169190911790555050565b60de54339060ff16151560011461311c5760405162461bcd60e51b815260206004820152601660248201527510d4d2150e8810d85cda1bdd5d08111a5cd8589b195960521b6044820152606401610fab565b6001600160a01b0381166131675760405162461bcd60e51b8152602060048201526012602482015271435348543a207a65726f206164647265737360701b6044820152606401610fab565b6001600160a01b038116600090815260dc602052604090205460ff16156131e05760405162461bcd60e51b815260206004820152602760248201527f435348543a2074686973206164647265737320686173206265656e20626c61636044820152661adb1a5cdd195960ca1b6064820152608401610fab565b60cf546001600160a01b0382811691161480159061320c575060d1546001600160a01b03828116911614155b8015613226575060d0546001600160a01b03828116911614155b61328f5760405162461bcd60e51b815260206004820152603460248201527f435348543a2066757475726520616e642072657761726420706f6f6c732063616044820152736e6e6f7420636173686f7574207265776172647360601b6064820152608401610fab565b60c9546040516329b8573160e21b81526001600160a01b03838116600483015260248201859052600092169063a6e15cc49060440160206040518083038186803b1580156132dc57600080fd5b505afa1580156132f0573d6000803e3d6000fd5b505050506040513d601f19601f82011682018060405250810190613314919061559f565b9050600081116133715760405162461bcd60e51b815260206004820152602260248201527f435348543a20796f757220726577617264206973206e6f742072656164792079604482015261195d60f21b6064820152608401610fab565b60d854600090156133f257606460d8548361338c9190615994565b6133969190615972565b60d15460d2549192506133bb916001600160a01b03918216911661271d600285615972565b60d1546133d7906001600160a01b031630612727600285615972565b60d2546133f2906001600160a01b0316612757600284615972565b6133fc81836159b3565b60d154909250613416906001600160a01b03168484614592565b60c95460405163376db80160e11b81526001600160a01b0385811660048301526024820187905290911690636edb700290604401602060405180830381600087803b15801561346457600080fd5b505af1158015613478573d6000803e3d6000fd5b505050506040513d601f19601f8201168201806040525081019061349c919061559f565b5050505050565b6065546001600160a01b031633146134cd5760405162461bcd60e51b8152600401610fab90615790565b60da55565b6065546001600160a01b031633146134fc5760405162461bcd60e51b8152600401610fab90615790565b606481111561354d5760405162461bcd60e51b815260206004820152601c60248201527f464545533a20636173686f757420657863656564696e672031303025000000006044820152606401610fab565b60d855565b6065546001600160a01b0316331461357c5760405162461bcd60e51b8152600401610fab90615790565b6305f5e10081126135e05760405162461bcd60e51b815260206004820152602860248201527f5245445543455f5257443a20646f206e6f7420726564756365206d6f7265207460448201526768616e203130302560c01b6064820152608401610fab565b60c9546040516303f63ee760e01b81526001600160a01b03909116906303f63ee790612dee90859085906004016156aa565b6065546001600160a01b0316331461363c5760405162461bcd60e51b8152600401610fab90615790565b6136466000614a30565b565b6060336136675760405162461bcd60e51b8152600401610fab906157c5565b60c9546001600160a01b03166341ac82b0336040516001600160e01b031960e084901b1681526001600160a01b03909116600482015260240160206040518083038186803b1580156136b857600080fd5b505afa1580156136cc573d6000803e3d6000fd5b505050506040513d601f19601f820116820180604052508101906136f091906154bb565b61370c5760405162461bcd60e51b8152600401610fab906156d8565b60c9546001600160a01b031663c92819ce33611b29565b60c9546040805163055a757d60e41b815290516000926001600160a01b0316916355a757d0916004808301926020929190829003018186803b158015611a1557600080fd5b6065546001600160a01b031633146137925760405162461bcd60e51b8152600401610fab90615790565b60d080546001600160a01b0319166001600160a01b0392909216919091179055565b6065546001600160a01b031633146137de5760405162461bcd60e51b8152600401610fab90615790565b60d980549115156101000261ff0019909216919091179055565b6000609b828154811061380d5761380d615a62565b6000918252602090912001546001600160a01b031692915050565b6065546001600160a01b031633146138525760405162461bcd60e51b8152600401610fab90615790565b60008160d45460d65460d354613868919061595a565b613872919061595a565b61387c919061595a565b9050606481111561389f5760405162461bcd60e51b8152600401610fab906157ea565b60d59190915560d755565b60c95460405163a3479b3360e01b81526000916001600160a01b03169063a3479b3390611f6290859060040161569c565b606060378054610fee906159f6565b6065546001600160a01b031633146139145760405162461bcd60e51b8152600401610fab90615790565b60008160d65460d55460d35461392a919061595a565b613934919061595a565b61393e919061595a565b905060648111156139615760405162461bcd60e51b8152600401610fab906157ea565b60d49190915560d755565b6065546001600160a01b031633146139965760405162461bcd60e51b8152600401610fab90615790565b60cd546001600160a01b0383811691161415613a085760405162461bcd60e51b815260206004820152602b60248201527f544b4e3a205468652050616e63616b655377617020706169722063616e6e6f7460448201526a081899481c995b5bdd995960aa1b6064820152608401610fab565b613a128282613fc1565b5050565b6065546001600160a01b03163314613a405760405162461bcd60e51b8152600401610fab90615790565b60d9805460ff1916911515919091179055565b3360008181526034602090815260408083206001600160a01b038716845290915281205490919083811015613ad85760405162461bcd60e51b815260206004820152602560248201527f45524332303a2064656372656173656420616c6c6f77616e63652062656c6f77604482015264207a65726f60d81b6064820152608401610fab565b613ae58286868403614160565b506001949350505050565b60c954604051630ea9537d60e31b81526000916001600160a01b03169063754a9be890611f6290859060040161569c565b6000336118f4818585614474565b6065546001600160a01b03163314613b595760405162461bcd60e51b8152600401610fab90615790565b60de805460ff1916911515919091179055565b6065546000906001600160a01b03163314613b995760405162461bcd60e51b8152600401610fab90615790565b60c9546040516330cd31af60e11b81526001600160a01b0384811660048301529091169063619a635e90602401611f62565b919050565b6065546001600160a01b03163314613bfa5760405162461bcd60e51b8152600401610fab90615790565b60c954604051631c864c8f60e11b8152600481018390526001600160a01b039091169063390c991e90602401600060405180830381600087803b158015613c4057600080fd5b505af115801561349c573d6000803e3d6000fd5b606033613c735760405162461bcd60e51b8152600401610fab906157c5565b60c9546001600160a01b03166341ac82b0336040516001600160e01b031960e084901b1681526001600160a01b03909116600482015260240160206040518083038186803b158015613cc457600080fd5b505afa158015613cd8573d6000803e3d6000fd5b505050506040513d601f19601f82011682018060405250810190613cfc91906154bb565b613d185760405162461bcd60e51b8152600401610fab906156d8565b60c9546001600160a01b0316635b53f6fc33611b29565b6065546001600160a01b03163314613d595760405162461bcd60e51b8152600401610fab90615790565b60d180546001600160a01b0319166001600160a01b0392909216919091179055565b6065546001600160a01b03163314613da55760405162461bcd60e51b8152600401610fab90615790565b60d280546001600160a01b0319166001600160a01b0392909216919091179055565b6065546001600160a01b03163314613df15760405162461bcd60e51b8152600401610fab90615790565b6001600160a01b038116613e565760405162461bcd60e51b815260206004820152602660248201527f4f776e61626c653a206e6577206f776e657220697320746865207a65726f206160448201526564647265737360d01b6064820152608401610fab565b613e5f81614a30565b50565b6065546001600160a01b03163314613e8c5760405162461bcd60e51b8152600401610fab90615790565b60008160d45460d55460d354613ea2919061595a565b613eac919061595a565b613eb6919061595a565b90506064811115613ed95760405162461bcd60e51b8152600401610fab906157ea565b60d69190915560d755565b6065546001600160a01b03163314613f0e5760405162461bcd60e51b8152600401610fab90615790565b60c980546001600160a01b0319166001600160a01b0392909216919091179055565b600054610100900460ff16613f575760405162461bcd60e51b8152600401610fab90615821565b613646614a82565b600054610100900460ff16613f865760405162461bcd60e51b8152600401610fab90615821565b613a128282614ab2565b600054610100900460ff16613fb75760405162461bcd60e51b8152600401610fab90615821565b613a128282614b00565b6001600160a01b038216600090815260dd602052604090205460ff16151581151514156140565760405162461bcd60e51b815260206004820152603d60248201527f544b4e3a204175746f6d61746564206d61726b6574206d616b6572207061697260448201527f20697320616c72656164792073657420746f20746861742076616c75650000006064820152608401610fab565b6001600160a01b0391909116600090815260dd60205260409020805460ff1916911515919091179055565b6001600160a01b0382166140d75760405162461bcd60e51b815260206004820152601f60248201527f45524332303a206d696e7420746f20746865207a65726f2061646472657373006044820152606401610fab565b80603560008282546140e9919061595a565b90915550506001600160a01b0382166000908152603360205260408120805483929061411690849061595a565b90915550506040518181526001600160a01b038316906000907fddf252ad1be2c89b69c2b068fc378daa952ba7f163c4a11628f55a4df523b3ef9060200160405180910390a35050565b6001600160a01b0383166141c25760405162461bcd60e51b8152602060048201526024808201527f45524332303a20617070726f76652066726f6d20746865207a65726f206164646044820152637265737360e01b6064820152608401610fab565b6001600160a01b0382166142235760405162461bcd60e51b815260206004820152602260248201527f45524332303a20617070726f766520746f20746865207a65726f206164647265604482015261737360f01b6064820152608401610fab565b6001600160a01b0383811660008181526034602090815260408083209487168084529482529182902085905590518481527f8c5be1e5ebec7d5bd14f71427d1e84f3dd0314c0f7b2291e5b200ac8c7c3b925910160405180910390a3505050565b6097546001600160a01b038416600090815260996020526040812054909183916142ae9086615994565b6142b89190615972565b6142c291906159b3565b949350505050565b8047101561431a5760405162461bcd60e51b815260206004820152601d60248201527f416464726573733a20696e73756666696369656e742062616c616e63650000006044820152606401610fab565b6000826001600160a01b03168260405160006040518083038185875af1925050503d8060008114614367576040519150601f19603f3d011682016040523d82523d6000602084013e61436c565b606091505b50509050806143e35760405162461bcd60e51b815260206004820152603a60248201527f416464726573733a20756e61626c6520746f2073656e642076616c75652c207260448201527f6563697069656e74206d617920686176652072657665727465640000000000006064820152608401610fab565b505050565b6001600160a01b038381166000908152603460209081526040808320938616835292905220546000198114612c6557818110156144675760405162461bcd60e51b815260206004820152601d60248201527f45524332303a20696e73756666696369656e7420616c6c6f77616e63650000006044820152606401610fab565b612c658484848403614160565b6001600160a01b038316600090815260dc602052604090205460ff161580156144b657506001600160a01b038216600090815260dc602052604090205460ff16155b6145025760405162461bcd60e51b815260206004820152601a60248201527f45524332303a20426c61636b6c697374656420616464726573730000000000006044820152606401610fab565b6143e3838383614592565b604080516001600160a01b038416602482015260448082018490528251808303909101815260649091019091526020810180516001600160e01b031663a9059cbb60e01b1790526143e3908490614c3e565b60c95460405163112469f960e21b81526001600160a01b0383811660048301526000921690634491a7e490602401611f62565b6001600160a01b0383166145f65760405162461bcd60e51b815260206004820152602560248201527f45524332303a207472616e736665722066726f6d20746865207a65726f206164604482015264647265737360d81b6064820152608401610fab565b6001600160a01b0382166146585760405162461bcd60e51b815260206004820152602360248201527f45524332303a207472616e7366657220746f20746865207a65726f206164647260448201526265737360e81b6064820152608401610fab565b6001600160a01b038316600090815260336020526040902054818110156146d05760405162461bcd60e51b815260206004820152602660248201527f45524332303a207472616e7366657220616d6f756e7420657863656564732062604482015265616c616e636560d01b6064820152608401610fab565b6001600160a01b0380851660009081526033602052604080822085850390559185168152908120805484929061470790849061595a565b92505081905550826001600160a01b0316846001600160a01b03167fddf252ad1be2c89b69c2b068fc378daa952ba7f163c4a11628f55a4df523b3ef8460405161475391815260200190565b60405180910390a3612c65565b6040805160038082526080820190925260009160208201606080368337019050509050308160008151811061479757614797615a62565b6001600160a01b0392831660209182029290920181019190915260ca54604080516339d94ae160e11b8152905191909316926373b295c2926004808301939192829003018186803b1580156147eb57600080fd5b505afa1580156147ff573d6000803e3d6000fd5b505050506040513d601f19601f8201168201806040525081019061482391906151b5565b8160018151811061483657614836615a62565b6001600160a01b03928316602091820292909201015260db5482519116908290600290811061486757614867615a62565b6001600160a01b03928316602091820292909201015260ca5461488d9130911684614160565b60ca54604051635c11d79560e01b81526001600160a01b0390911690635c11d795906148c690859060009086908990429060040161586c565b600060405180830381600087803b1580156148e057600080fd5b505af11580156148f4573d6000803e3d6000fd5b50505050505050565b604080516002808252606082018352600092602083019080368337019050509050308160008151811061493257614932615a62565b6001600160a01b0392831660209182029290920181019190915260ca54604080516339d94ae160e11b8152905191909316926373b295c2926004808301939192829003018186803b15801561498657600080fd5b505afa15801561499a573d6000803e3d6000fd5b505050506040513d601f19601f820116820180604052508101906149be91906151b5565b816001815181106149d1576149d1615a62565b6001600160a01b03928316602091820292909201015260ca546149f79130911684614160565b60ca54604051633b158ab160e11b81526001600160a01b039091169063762b1562906148c690859060009086908990429060040161586c565b606580546001600160a01b038381166001600160a01b0319831681179093556040519116919082907f8be0079c531659141344cd1fd0a4f28419497f9722a3daafe3b4186f6b6457e090600090a35050565b600054610100900460ff16614aa95760405162461bcd60e51b8152600401610fab90615821565b61364633614a30565b600054610100900460ff16614ad95760405162461bcd60e51b8152600401610fab90615821565b8151614aec90603690602085019061500a565b5080516143e390603790602084019061500a565b600054610100900460ff16614b275760405162461bcd60e51b8152600401610fab90615821565b8051825114614b935760405162461bcd60e51b815260206004820152603260248201527f5061796d656e7453706c69747465723a2070617965657320616e6420736861726044820152710cae640d8cadccee8d040dad2e6dac2e8c6d60731b6064820152608401610fab565b6000825111614be45760405162461bcd60e51b815260206004820152601a60248201527f5061796d656e7453706c69747465723a206e6f207061796565730000000000006044820152606401610fab565b60005b82518110156143e357614c2c838281518110614c0557614c05615a62565b6020026020010151838381518110614c1f57614c1f615a62565b6020026020010151614d10565b80614c3681615a31565b915050614be7565b6000614c93826040518060400160405280602081526020017f5361666545524332303a206c6f772d6c6576656c2063616c6c206661696c6564815250856001600160a01b0316614ef69092919063ffffffff16565b8051909150156143e35780806020019051810190614cb191906154bb565b6143e35760405162461bcd60e51b815260206004820152602a60248201527f5361666545524332303a204552433230206f7065726174696f6e20646964206e6044820152691bdd081cdd58d8d9595960b21b6064820152608401610fab565b6001600160a01b038216614d7b5760405162461bcd60e51b815260206004820152602c60248201527f5061796d656e7453706c69747465723a206163636f756e74206973207468652060448201526b7a65726f206164647265737360a01b6064820152608401610fab565b60008111614dcb5760405162461bcd60e51b815260206004820152601d60248201527f5061796d656e7453706c69747465723a207368617265732061726520300000006044820152606401610fab565b6001600160a01b03821660009081526099602052604090205415614e455760405162461bcd60e51b815260206004820152602b60248201527f5061796d656e7453706c69747465723a206163636f756e7420616c726561647960448201526a206861732073686172657360a81b6064820152608401610fab565b609b8054600181019091557fbba9db4cdbea0a37c207bbb83e20f828cd4441c49891101dc94fd20dc8efc3490180546001600160a01b0319166001600160a01b0384169081179091556000908152609960205260409020819055609754614ead90829061595a565b609755604080516001600160a01b0384168152602081018390527f40c340f65e17194d14ddddb073d3c9f888e3cb52b5aae0c6c7706b4fbc905fac910160405180910390a15050565b60606142c28484600085856001600160a01b0385163b614f585760405162461bcd60e51b815260206004820152601d60248201527f416464726573733a2063616c6c20746f206e6f6e2d636f6e74726163740000006044820152606401610fab565b600080866001600160a01b03168587604051614f749190615606565b60006040518083038185875af1925050503d8060008114614fb1576040519150601f19603f3d011682016040523d82523d6000602084013e614fb6565b606091505b5091509150614fc6828286614fd1565b979650505050505050565b60608315614fe0575081611dcc565b825115614ff05782518084602001fd5b8160405162461bcd60e51b8152600401610fab91906156c5565b828054615016906159f6565b90600052602060002090601f016020900481019282615038576000855561507e565b82601f1061505157805160ff191683800117855561507e565b8280016001018555821561507e579182015b8281111561507e578251825591602001919060010190615063565b5061508a92915061508e565b5090565b5b8082111561508a576000815560010161508f565b8035613bcb81615a8e565b600082601f8301126150bf57600080fd5b813560206150d46150cf8361590e565b6158dd565b80838252828201915082860187848660051b89010111156150f457600080fd5b60005b8581101561511c57813561510a81615a8e565b845292840192908401906001016150f7565b5090979650505050505050565b600082601f83011261513a57600080fd5b8135602061514a6150cf8361590e565b80838252828201915082860187848660051b890101111561516a57600080fd5b60005b8581101561511c5781358452928401929084019060010161516d565b803560038110613bcb57600080fd5b6000602082840312156151aa57600080fd5b8135611dcc81615a8e565b6000602082840312156151c757600080fd5b8151611dcc81615a8e565b600080604083850312156151e557600080fd5b82356151f081615a8e565b9150602083013561520081615a8e565b809150509250929050565b60008060006060848603121561522057600080fd5b833561522b81615a8e565b9250602084013561523b81615a8e565b929592945050506040919091013590565b6000806040838503121561525f57600080fd5b823561526a81615a8e565b9150602083013561520081615aa3565b6000806040838503121561528d57600080fd5b823561529881615a8e565b946020939093013593505050565b600080600080600080600060e0888a0312156152c157600080fd5b873567ffffffffffffffff808211156152d957600080fd5b6152e58b838c016150ae565b985060208a01359150808211156152fb57600080fd5b6153078b838c01615129565b975060408a013591508082111561531d57600080fd5b6153298b838c016150ae565b965060608a013591508082111561533f57600080fd5b61534b8b838c01615129565b955060808a013591508082111561536157600080fd5b5061536e8a828b01615129565b93505061537d60a089016150a3565b915061538b60c089016150a3565b905092959891949750929550565b60008060408084860312156153ad57600080fd5b833567ffffffffffffffff808211156153c557600080fd5b818601915086601f8301126153d957600080fd5b813560206153e96150cf8361590e565b8083825282820191508286018b848660051b890101111561540957600080fd5b60005b8581101561547e5781358781111561542357600080fd5b8801603f81018e1361543457600080fd5b858101356154446150cf82615932565b8181528f8c83850101111561545857600080fd5b818c8401898301376000918101880191909152855250928401929084019060010161540c565b50508098505050615490818901615189565b955050505050509250929050565b6000602082840312156154b057600080fd5b8135611dcc81615aa3565b6000602082840312156154cd57600080fd5b8151611dcc81615aa3565b6000602082840312156154ea57600080fd5b611dcc82615189565b6000806040838503121561550657600080fd5b61529883615189565b60006020828403121561552157600080fd5b815167ffffffffffffffff81111561553857600080fd5b8201601f8101841361554957600080fd5b80516155576150cf82615932565b81815285602083850101111561556c57600080fd5b61557d8260208301602086016159ca565b95945050505050565b60006020828403121561559857600080fd5b5035919050565b6000602082840312156155b157600080fd5b5051919050565b600381106155d657634e487b7160e01b600052602160045260246000fd5b9052565b600081518084526155f28160208601602086016159ca565b601f01601f19169290920160200192915050565b600082516156188184602087016159ca565b9190910192915050565b60006060820160018060a01b0386168352602060608185015281865180845260808601915060808160051b870101935082880160005b8281101561568657607f198887030184526156748683516155da565b95509284019290840190600101615658565b5050505050809150506142c260408301846155b8565b602081016118fa82846155b8565b604081016156b882856155b8565b8260208301529392505050565b602081526000611dcc60208301846155da565b6020808252600d908201526c2727902727a2229027aba722a960991b604082015260600190565b60208082526026908201527f5061796d656e7453706c69747465723a206163636f756e7420686173206e6f2060408201526573686172657360d01b606082015260800190565b6020808252602b908201527f5061796d656e7453706c69747465723a206163636f756e74206973206e6f742060408201526a191d59481c185e5b595b9d60aa1b606082015260800190565b6020808252818101527f4f776e61626c653a2063616c6c6572206973206e6f7420746865206f776e6572604082015260600190565b6020808252600b908201526a053454e44455220495320360ac1b604082015260600190565b6020808252601a908201527f464545533a20746f74616c20657863656564696e672031303025000000000000604082015260600190565b6020808252602b908201527f496e697469616c697a61626c653a20636f6e7472616374206973206e6f74206960408201526a6e697469616c697a696e6760a81b606082015260800190565b600060a082018783526020878185015260a0604085015281875180845260c086019150828901935060005b818110156158bc5784516001600160a01b031683529383019391830191600101615897565b50506001600160a01b03969096166060850152505050608001529392505050565b604051601f8201601f1916810167ffffffffffffffff8111828210171561590657615906615a78565b604052919050565b600067ffffffffffffffff82111561592857615928615a78565b5060051b60200190565b600067ffffffffffffffff82111561594c5761594c615a78565b50601f01601f191660200190565b6000821982111561596d5761596d615a4c565b500190565b60008261598f57634e487b7160e01b600052601260045260246000fd5b500490565b60008160001904831182151516156159ae576159ae615a4c565b500290565b6000828210156159c5576159c5615a4c565b500390565b60005b838110156159e55781810151838201526020016159cd565b83811115612c655750506000910152565b600181811c90821680615a0a57607f821691505b60208210811415615a2b57634e487b7160e01b600052602260045260246000fd5b50919050565b6000600019821415615a4557615a45615a4c565b5060010190565b634e487b7160e01b600052601160045260246000fd5b634e487b7160e01b600052603260045260246000fd5b634e487b7160e01b600052604160045260246000fd5b6001600160a01b0381168114613e5f57600080fd5b8015158114613e5f57600080fdfea164736f6c6343000807000a",
  "devdoc": {
    "kind": "dev",
    "methods": {
      "allowance(address,address)": {
        "details": "See {IERC20-allowance}."
      },
      "approve(address,uint256)": {
        "details": "See {IERC20-approve}. NOTE: If `amount` is the maximum `uint256`, the allowance is not updated on `transferFrom`. This is semantically equivalent to an infinite approval. Requirements: - `spender` cannot be the zero address."
      },
      "balanceOf(address)": {
        "details": "See {IERC20-balanceOf}."
      },
      "decimals()": {
        "details": "Returns the number of decimals used to get its user representation. For example, if `decimals` equals `2`, a balance of `505` tokens should be displayed to a user as `5.05` (`505 / 10 ** 2`). Tokens usually opt for a value of 18, imitating the relationship between Ether and Wei. This is the value {ERC20} uses, unless this function is overridden; NOTE: This information is only used for _display_ purposes: it in no way affects any of the arithmetic of the contract, including {IERC20-balanceOf} and {IERC20-transfer}."
      },
      "decreaseAllowance(address,uint256)": {
        "details": "Atomically decreases the allowance granted to `spender` by the caller. This is an alternative to {approve} that can be used as a mitigation for problems described in {IERC20-approve}. Emits an {Approval} event indicating the updated allowance. Requirements: - `spender` cannot be the zero address. - `spender` must have allowance for the caller of at least `subtractedValue`."
      },
      "increaseAllowance(address,uint256)": {
        "details": "Atomically increases the allowance granted to `spender` by the caller. This is an alternative to {approve} that can be used as a mitigation for problems described in {IERC20-approve}. Emits an {Approval} event indicating the updated allowance. Requirements: - `spender` cannot be the zero address."
      },
      "name()": {
        "details": "Returns the name of the token."
      },
      "owner()": {
        "details": "Returns the address of the current owner."
      },
      "payee(uint256)": {
        "details": "Getter for the address of the payee number `index`."
      },
      "release(address)": {
        "details": "Triggers a transfer to `account` of the amount of Ether they are owed, according to their percentage of the total shares and their previous withdrawals."
      },
      "release(address,address)": {
        "details": "Triggers a transfer to `account` of the amount of `token` tokens they are owed, according to their percentage of the total shares and their previous withdrawals. `token` must be the address of an IERC20 contract."
      },
      "released(address)": {
        "details": "Getter for the amount of Ether already released to a payee."
      },
      "released(address,address)": {
        "details": "Getter for the amount of `token` tokens already released to a payee. `token` should be the address of an IERC20 contract."
      },
      "renounceOwnership()": {
        "details": "Leaves the contract without owner. It will not be possible to call `onlyOwner` functions anymore. Can only be called by the current owner. NOTE: Renouncing ownership will leave the contract without an owner, thereby removing any functionality that is only available to the owner."
      },
      "shares(address)": {
        "details": "Getter for the amount of shares held by an account."
      },
      "symbol()": {
        "details": "Returns the symbol of the token, usually a shorter version of the name."
      },
      "totalReleased()": {
        "details": "Getter for the total amount of Ether already released."
      },
      "totalReleased(address)": {
        "details": "Getter for the total amount of `token` already released. `token` should be the address of an IERC20 contract."
      },
      "totalShares()": {
        "details": "Getter for the total shares held by payees."
      },
      "totalSupply()": {
        "details": "See {IERC20-totalSupply}."
      },
      "transfer(address,uint256)": {
        "details": "See {IERC20-transfer}. Requirements: - `to` cannot be the zero address. - the caller must have a balance of at least `amount`."
      },
      "transferFrom(address,address,uint256)": {
        "details": "See {IERC20-transferFrom}. Emits an {Approval} event indicating the updated allowance. This is not required by the EIP. See the note at the beginning of {ERC20}. NOTE: Does not update the allowance if the current allowance is the maximum `uint256`. Requirements: - `from` and `to` cannot be the zero address. - `from` must have a balance of at least `amount`. - the caller must have allowance for ``from``'s tokens of at least `amount`."
      },
      "transferOwnership(address)": {
        "details": "Transfers ownership of the contract to a new account (`newOwner`). Can only be called by the current owner."
      }
    },
    "version": 1
  },
  "userdoc": {
    "kind": "user",
    "methods": {},
    "version": 1
  },
  "storageLayout": {
    "storage": [
      {
        "astId": 598,
        "contract": "contracts/ZeroXBlocksV1.sol:ZeroXBlocksV1",
        "label": "_initialized",
        "offset": 0,
        "slot": "0",
        "type": "t_bool"
      },
      {
        "astId": 601,
        "contract": "contracts/ZeroXBlocksV1.sol:ZeroXBlocksV1",
        "label": "_initializing",
        "offset": 1,
        "slot": "0",
        "type": "t_bool"
      },
      {
        "astId": 1889,
        "contract": "contracts/ZeroXBlocksV1.sol:ZeroXBlocksV1",
        "label": "__gap",
        "offset": 0,
        "slot": "1",
        "type": "t_array(t_uint256)50_storage"
      },
      {
        "astId": 684,
        "contract": "contracts/ZeroXBlocksV1.sol:ZeroXBlocksV1",
        "label": "_balances",
        "offset": 0,
        "slot": "51",
        "type": "t_mapping(t_address,t_uint256)"
      },
      {
        "astId": 690,
        "contract": "contracts/ZeroXBlocksV1.sol:ZeroXBlocksV1",
        "label": "_allowances",
        "offset": 0,
        "slot": "52",
        "type": "t_mapping(t_address,t_mapping(t_address,t_uint256))"
      },
      {
        "astId": 692,
        "contract": "contracts/ZeroXBlocksV1.sol:ZeroXBlocksV1",
        "label": "_totalSupply",
        "offset": 0,
        "slot": "53",
        "type": "t_uint256"
      },
      {
        "astId": 694,
        "contract": "contracts/ZeroXBlocksV1.sol:ZeroXBlocksV1",
        "label": "_name",
        "offset": 0,
        "slot": "54",
        "type": "t_string_storage"
      },
      {
        "astId": 696,
        "contract": "contracts/ZeroXBlocksV1.sol:ZeroXBlocksV1",
        "label": "_symbol",
        "offset": 0,
        "slot": "55",
        "type": "t_string_storage"
      },
      {
        "astId": 1277,
        "contract": "contracts/ZeroXBlocksV1.sol:ZeroXBlocksV1",
        "label": "__gap",
        "offset": 0,
        "slot": "56",
        "type": "t_array(t_uint256)45_storage"
      },
      {
        "astId": 10,
        "contract": "contracts/ZeroXBlocksV1.sol:ZeroXBlocksV1",
        "label": "_owner",
        "offset": 0,
        "slot": "101",
        "type": "t_address"
      },
      {
        "astId": 122,
        "contract": "contracts/ZeroXBlocksV1.sol:ZeroXBlocksV1",
        "label": "__gap",
        "offset": 0,
        "slot": "102",
        "type": "t_array(t_uint256)49_storage"
      },
      {
        "astId": 163,
        "contract": "contracts/ZeroXBlocksV1.sol:ZeroXBlocksV1",
        "label": "_totalShares",
        "offset": 0,
        "slot": "151",
        "type": "t_uint256"
      },
      {
        "astId": 165,
        "contract": "contracts/ZeroXBlocksV1.sol:ZeroXBlocksV1",
        "label": "_totalReleased",
        "offset": 0,
        "slot": "152",
        "type": "t_uint256"
      },
      {
        "astId": 169,
        "contract": "contracts/ZeroXBlocksV1.sol:ZeroXBlocksV1",
        "label": "_shares",
        "offset": 0,
        "slot": "153",
        "type": "t_mapping(t_address,t_uint256)"
      },
      {
        "astId": 173,
        "contract": "contracts/ZeroXBlocksV1.sol:ZeroXBlocksV1",
        "label": "_released",
        "offset": 0,
        "slot": "154",
        "type": "t_mapping(t_address,t_uint256)"
      },
      {
        "astId": 176,
        "contract": "contracts/ZeroXBlocksV1.sol:ZeroXBlocksV1",
        "label": "_payees",
        "offset": 0,
        "slot": "155",
        "type": "t_array(t_address)dyn_storage"
      },
      {
        "astId": 181,
        "contract": "contracts/ZeroXBlocksV1.sol:ZeroXBlocksV1",
        "label": "_erc20TotalReleased",
        "offset": 0,
        "slot": "156",
        "type": "t_mapping(t_contract(IERC20Upgradeable)1356,t_uint256)"
      },
      {
        "astId": 188,
        "contract": "contracts/ZeroXBlocksV1.sol:ZeroXBlocksV1",
        "label": "_erc20Released",
        "offset": 0,
        "slot": "157",
        "type": "t_mapping(t_contract(IERC20Upgradeable)1356,t_mapping(t_address,t_uint256))"
      },
      {
        "astId": 590,
        "contract": "contracts/ZeroXBlocksV1.sol:ZeroXBlocksV1",
        "label": "__gap",
        "offset": 0,
        "slot": "158",
        "type": "t_array(t_uint256)43_storage"
      },
      {
        "astId": 1910,
        "contract": "contracts/ZeroXBlocksV1.sol:ZeroXBlocksV1",
        "label": "_nrm",
        "offset": 0,
        "slot": "201",
        "type": "t_contract(NODERewardManagement)5753"
      },
      {
        "astId": 1913,
        "contract": "contracts/ZeroXBlocksV1.sol:ZeroXBlocksV1",
        "label": "uniswapV2Router",
        "offset": 0,
        "slot": "202",
        "type": "t_contract(IJoeRouter02)6222"
      },
      {
        "astId": 1918,
        "contract": "contracts/ZeroXBlocksV1.sol:ZeroXBlocksV1",
        "label": "ownedNodesLimit",
        "offset": 0,
        "slot": "203",
        "type": "t_uint256"
      },
      {
        "astId": 1920,
        "contract": "contracts/ZeroXBlocksV1.sol:ZeroXBlocksV1",
        "label": "mintNodeLimit",
        "offset": 0,
        "slot": "204",
        "type": "t_uint256"
      },
      {
        "astId": 1922,
        "contract": "contracts/ZeroXBlocksV1.sol:ZeroXBlocksV1",
        "label": "uniswapV2Pair",
        "offset": 0,
        "slot": "205",
        "type": "t_address"
      },
      {
        "astId": 1924,
        "contract": "contracts/ZeroXBlocksV1.sol:ZeroXBlocksV1",
        "label": "totalTokensPaidForMinting",
        "offset": 0,
        "slot": "206",
        "type": "t_uint256"
      },
      {
        "astId": 1926,
        "contract": "contracts/ZeroXBlocksV1.sol:ZeroXBlocksV1",
        "label": "developmentFundPool",
        "offset": 0,
        "slot": "207",
        "type": "t_address"
      },
      {
        "astId": 1928,
        "contract": "contracts/ZeroXBlocksV1.sol:ZeroXBlocksV1",
        "label": "treasuryPool",
        "offset": 0,
        "slot": "208",
        "type": "t_address"
      },
      {
        "astId": 1930,
        "contract": "contracts/ZeroXBlocksV1.sol:ZeroXBlocksV1",
        "label": "rewardsPool",
        "offset": 0,
        "slot": "209",
        "type": "t_address"
      },
      {
        "astId": 1932,
        "contract": "contracts/ZeroXBlocksV1.sol:ZeroXBlocksV1",
        "label": "liquidityPool",
        "offset": 0,
        "slot": "210",
        "type": "t_address"
      },
      {
        "astId": 1934,
        "contract": "contracts/ZeroXBlocksV1.sol:ZeroXBlocksV1",
        "label": "rewardsFee",
        "offset": 0,
        "slot": "211",
        "type": "t_uint256"
      },
      {
        "astId": 1936,
        "contract": "contracts/ZeroXBlocksV1.sol:ZeroXBlocksV1",
        "label": "treasuryFee",
        "offset": 0,
        "slot": "212",
        "type": "t_uint256"
      },
      {
        "astId": 1938,
        "contract": "contracts/ZeroXBlocksV1.sol:ZeroXBlocksV1",
        "label": "liquidityPoolFee",
        "offset": 0,
        "slot": "213",
        "type": "t_uint256"
      },
      {
        "astId": 1940,
        "contract": "contracts/ZeroXBlocksV1.sol:ZeroXBlocksV1",
        "label": "developmentFee",
        "offset": 0,
        "slot": "214",
        "type": "t_uint256"
      },
      {
        "astId": 1942,
        "contract": "contracts/ZeroXBlocksV1.sol:ZeroXBlocksV1",
        "label": "totalFees",
        "offset": 0,
        "slot": "215",
        "type": "t_uint256"
      },
      {
        "astId": 1944,
        "contract": "contracts/ZeroXBlocksV1.sol:ZeroXBlocksV1",
        "label": "cashoutFee",
        "offset": 0,
        "slot": "216",
        "type": "t_uint256"
      },
      {
        "astId": 1946,
        "contract": "contracts/ZeroXBlocksV1.sol:ZeroXBlocksV1",
        "label": "enableAutoSwapTreasury",
        "offset": 0,
        "slot": "217",
        "type": "t_bool"
      },
      {
        "astId": 1948,
        "contract": "contracts/ZeroXBlocksV1.sol:ZeroXBlocksV1",
        "label": "enableAutoSwapDevFund",
        "offset": 1,
        "slot": "217",
        "type": "t_bool"
      },
      {
        "astId": 1950,
        "contract": "contracts/ZeroXBlocksV1.sol:ZeroXBlocksV1",
        "label": "swapTokensAmount",
        "offset": 0,
        "slot": "218",
        "type": "t_uint256"
      },
      {
        "astId": 1952,
        "contract": "contracts/ZeroXBlocksV1.sol:ZeroXBlocksV1",
        "label": "usdcToken",
        "offset": 0,
        "slot": "219",
        "type": "t_address"
      },
      {
        "astId": 1956,
        "contract": "contracts/ZeroXBlocksV1.sol:ZeroXBlocksV1",
        "label": "_isBlacklisted",
        "offset": 0,
        "slot": "220",
        "type": "t_mapping(t_address,t_bool)"
      },
      {
        "astId": 1960,
        "contract": "contracts/ZeroXBlocksV1.sol:ZeroXBlocksV1",
        "label": "automatedMarketMakerPairs",
        "offset": 0,
        "slot": "221",
        "type": "t_mapping(t_address,t_bool)"
      },
      {
        "astId": 1963,
        "contract": "contracts/ZeroXBlocksV1.sol:ZeroXBlocksV1",
        "label": "enableCashout",
        "offset": 0,
        "slot": "222",
        "type": "t_bool"
      },
      {
        "astId": 1966,
        "contract": "contracts/ZeroXBlocksV1.sol:ZeroXBlocksV1",
        "label": "enableMintNodes",
        "offset": 1,
        "slot": "222",
        "type": "t_bool"
      }
    ],
    "types": {
      "t_address": {
        "encoding": "inplace",
        "label": "address",
        "numberOfBytes": "20"
      },
      "t_array(t_address)dyn_storage": {
        "base": "t_address",
        "encoding": "dynamic_array",
        "label": "address[]",
        "numberOfBytes": "32"
      },
      "t_array(t_uint256)43_storage": {
        "base": "t_uint256",
        "encoding": "inplace",
        "label": "uint256[43]",
        "numberOfBytes": "1376"
      },
      "t_array(t_uint256)45_storage": {
        "base": "t_uint256",
        "encoding": "inplace",
        "label": "uint256[45]",
        "numberOfBytes": "1440"
      },
      "t_array(t_uint256)49_storage": {
        "base": "t_uint256",
        "encoding": "inplace",
        "label": "uint256[49]",
        "numberOfBytes": "1568"
      },
      "t_array(t_uint256)50_storage": {
        "base": "t_uint256",
        "encoding": "inplace",
        "label": "uint256[50]",
        "numberOfBytes": "1600"
      },
      "t_bool": {
        "encoding": "inplace",
        "label": "bool",
        "numberOfBytes": "1"
      },
      "t_contract(IERC20Upgradeable)1356": {
        "encoding": "inplace",
        "label": "contract IERC20Upgradeable",
        "numberOfBytes": "20"
      },
      "t_contract(IJoeRouter02)6222": {
        "encoding": "inplace",
        "label": "contract IJoeRouter02",
        "numberOfBytes": "20"
      },
      "t_contract(NODERewardManagement)5753": {
        "encoding": "inplace",
        "label": "contract NODERewardManagement",
        "numberOfBytes": "20"
      },
      "t_mapping(t_address,t_bool)": {
        "encoding": "mapping",
        "key": "t_address",
        "label": "mapping(address => bool)",
        "numberOfBytes": "32",
        "value": "t_bool"
      },
      "t_mapping(t_address,t_mapping(t_address,t_uint256))": {
        "encoding": "mapping",
        "key": "t_address",
        "label": "mapping(address => mapping(address => uint256))",
        "numberOfBytes": "32",
        "value": "t_mapping(t_address,t_uint256)"
      },
      "t_mapping(t_address,t_uint256)": {
        "encoding": "mapping",
        "key": "t_address",
        "label": "mapping(address => uint256)",
        "numberOfBytes": "32",
        "value": "t_uint256"
      },
      "t_mapping(t_contract(IERC20Upgradeable)1356,t_mapping(t_address,t_uint256))": {
        "encoding": "mapping",
        "key": "t_contract(IERC20Upgradeable)1356",
        "label": "mapping(contract IERC20Upgradeable => mapping(address => uint256))",
        "numberOfBytes": "32",
        "value": "t_mapping(t_address,t_uint256)"
      },
      "t_mapping(t_contract(IERC20Upgradeable)1356,t_uint256)": {
        "encoding": "mapping",
        "key": "t_contract(IERC20Upgradeable)1356",
        "label": "mapping(contract IERC20Upgradeable => uint256)",
        "numberOfBytes": "32",
        "value": "t_uint256"
      },
      "t_string_storage": {
        "encoding": "bytes",
        "label": "string",
        "numberOfBytes": "32"
      },
      "t_uint256": {
        "encoding": "inplace",
        "label": "uint256",
        "numberOfBytes": "32"
      }
    }
  }
}