{
  "address": "0x60d0a459F2E7BF014CF039CC4eccEF65A219240c",
  "abi": [
    {
      "anonymous": false,
      "inputs": [
        {
          "indexed": true,
          "internalType": "address",
          "name": "owner",
          "type": "address"
        },
        {
          "indexed": true,
          "internalType": "address",
          "name": "spender",
          "type": "address"
        },
        {
          "indexed": false,
          "internalType": "uint256",
          "name": "value",
          "type": "uint256"
        }
      ],
      "name": "Approval",
      "type": "event"
    },
    {
      "anonymous": false,
      "inputs": [
        {
          "indexed": true,
          "internalType": "contract IERC20Upgradeable",
          "name": "token",
          "type": "address"
        },
        {
          "indexed": false,
          "internalType": "address",
          "name": "to",
          "type": "address"
        },
        {
          "indexed": false,
          "internalType": "uint256",
          "name": "amount",
          "type": "uint256"
        }
      ],
      "name": "ERC20PaymentReleased",
      "type": "event"
    },
    {
      "anonymous": false,
      "inputs": [
        {
          "indexed": true,
          "internalType": "address",
          "name": "previousOwner",
          "type": "address"
        },
        {
          "indexed": true,
          "internalType": "address",
          "name": "newOwner",
          "type": "address"
        }
      ],
      "name": "OwnershipTransferred",
      "type": "event"
    },
    {
      "anonymous": false,
      "inputs": [
        {
          "indexed": false,
          "internalType": "address",
          "name": "account",
          "type": "address"
        },
        {
          "indexed": false,
          "internalType": "uint256",
          "name": "shares",
          "type": "uint256"
        }
      ],
      "name": "PayeeAdded",
      "type": "event"
    },
    {
      "anonymous": false,
      "inputs": [
        {
          "indexed": false,
          "internalType": "address",
          "name": "from",
          "type": "address"
        },
        {
          "indexed": false,
          "internalType": "uint256",
          "name": "amount",
          "type": "uint256"
        }
      ],
      "name": "PaymentReceived",
      "type": "event"
    },
    {
      "anonymous": false,
      "inputs": [
        {
          "indexed": false,
          "internalType": "address",
          "name": "to",
          "type": "address"
        },
        {
          "indexed": false,
          "internalType": "uint256",
          "name": "amount",
          "type": "uint256"
        }
      ],
      "name": "PaymentReleased",
      "type": "event"
    },
    {
      "anonymous": false,
      "inputs": [
        {
          "indexed": true,
          "internalType": "address",
          "name": "from",
          "type": "address"
        },
        {
          "indexed": true,
          "internalType": "address",
          "name": "to",
          "type": "address"
        },
        {
          "indexed": false,
          "internalType": "uint256",
          "name": "value",
          "type": "uint256"
        }
      ],
      "name": "Transfer",
      "type": "event"
    },
    {
      "inputs": [],
      "name": "_crm",
      "outputs": [
        {
          "internalType": "contract CONTRewardManagement",
          "name": "",
          "type": "address"
        }
      ],
      "stateMutability": "view",
      "type": "function"
    },
    {
      "inputs": [
        {
          "internalType": "address",
          "name": "",
          "type": "address"
        }
      ],
      "name": "_isBlacklisted",
      "outputs": [
        {
          "internalType": "bool",
          "name": "",
          "type": "bool"
        }
      ],
      "stateMutability": "view",
      "type": "function"
    },
    {
      "inputs": [
        {
          "internalType": "address",
          "name": "owner",
          "type": "address"
        },
        {
          "internalType": "address",
          "name": "spender",
          "type": "address"
        }
      ],
      "name": "allowance",
      "outputs": [
        {
          "internalType": "uint256",
          "name": "",
          "type": "uint256"
        }
      ],
      "stateMutability": "view",
      "type": "function"
    },
    {
      "inputs": [
        {
          "internalType": "address",
          "name": "spender",
          "type": "address"
        },
        {
          "internalType": "uint256",
          "name": "amount",
          "type": "uint256"
        }
      ],
      "name": "approve",
      "outputs": [
        {
          "internalType": "bool",
          "name": "",
          "type": "bool"
        }
      ],
      "stateMutability": "nonpayable",
      "type": "function"
    },
    {
      "inputs": [
        {
          "internalType": "address",
          "name": "",
          "type": "address"
        }
      ],
      "name": "automatedMarketMakerPairs",
      "outputs": [
        {
          "internalType": "bool",
          "name": "",
          "type": "bool"
        }
      ],
      "stateMutability": "view",
      "type": "function"
    },
    {
      "inputs": [
        {
          "internalType": "address",
          "name": "account",
          "type": "address"
        }
      ],
      "name": "balanceOf",
      "outputs": [
        {
          "internalType": "uint256",
          "name": "",
          "type": "uint256"
        }
      ],
      "stateMutability": "view",
      "type": "function"
    },
    {
      "inputs": [],
      "name": "cashoutAll",
      "outputs": [],
      "stateMutability": "nonpayable",
      "type": "function"
    },
    {
      "inputs": [],
      "name": "cashoutFee",
      "outputs": [
        {
          "internalType": "uint256",
          "name": "",
          "type": "uint256"
        }
      ],
      "stateMutability": "view",
      "type": "function"
    },
    {
      "inputs": [
        {
          "internalType": "uint256",
          "name": "_contIndex",
          "type": "uint256"
        }
      ],
      "name": "cashoutReward",
      "outputs": [],
      "stateMutability": "nonpayable",
      "type": "function"
    },
    {
      "inputs": [
        {
          "internalType": "uint256",
          "name": "newTime",
          "type": "uint256"
        }
      ],
      "name": "changeCashoutTimeout",
      "outputs": [],
      "stateMutability": "nonpayable",
      "type": "function"
    },
    {
      "inputs": [
        {
          "internalType": "enum ContType",
          "name": "_cType",
          "type": "uint8"
        },
        {
          "internalType": "uint256",
          "name": "newPrice",
          "type": "uint256"
        }
      ],
      "name": "changeContPrice",
      "outputs": [],
      "stateMutability": "nonpayable",
      "type": "function"
    },
    {
      "inputs": [
        {
          "internalType": "bool",
          "name": "newVal",
          "type": "bool"
        }
      ],
      "name": "changeEnableAutoSwapDevFund",
      "outputs": [],
      "stateMutability": "nonpayable",
      "type": "function"
    },
    {
      "inputs": [
        {
          "internalType": "bool",
          "name": "newVal",
          "type": "bool"
        }
      ],
      "name": "changeEnableAutoSwapTreasury",
      "outputs": [],
      "stateMutability": "nonpayable",
      "type": "function"
    },
    {
      "inputs": [
        {
          "internalType": "enum ContType",
          "name": "_cType",
          "type": "uint8"
        },
        {
          "internalType": "int256",
          "name": "deductPcent",
          "type": "int256"
        }
      ],
      "name": "changeRewardAPRPerCont",
      "outputs": [],
      "stateMutability": "nonpayable",
      "type": "function"
    },
    {
      "inputs": [],
      "name": "decimals",
      "outputs": [
        {
          "internalType": "uint8",
          "name": "",
          "type": "uint8"
        }
      ],
      "stateMutability": "view",
      "type": "function"
    },
    {
      "inputs": [
        {
          "internalType": "address",
          "name": "spender",
          "type": "address"
        },
        {
          "internalType": "uint256",
          "name": "subtractedValue",
          "type": "uint256"
        }
      ],
      "name": "decreaseAllowance",
      "outputs": [
        {
          "internalType": "bool",
          "name": "",
          "type": "bool"
        }
      ],
      "stateMutability": "nonpayable",
      "type": "function"
    },
    {
      "inputs": [],
      "name": "developmentFee",
      "outputs": [
        {
          "internalType": "uint256",
          "name": "",
          "type": "uint256"
        }
      ],
      "stateMutability": "view",
      "type": "function"
    },
    {
      "inputs": [],
      "name": "developmentFundPool",
      "outputs": [
        {
          "internalType": "address",
          "name": "",
          "type": "address"
        }
      ],
      "stateMutability": "view",
      "type": "function"
    },
    {
      "inputs": [],
      "name": "enableAutoSwapDevFund",
      "outputs": [
        {
          "internalType": "bool",
          "name": "",
          "type": "bool"
        }
      ],
      "stateMutability": "view",
      "type": "function"
    },
    {
      "inputs": [],
      "name": "enableAutoSwapTreasury",
      "outputs": [
        {
          "internalType": "bool",
          "name": "",
          "type": "bool"
        }
      ],
      "stateMutability": "view",
      "type": "function"
    },
    {
      "inputs": [],
      "name": "enableCashout",
      "outputs": [
        {
          "internalType": "bool",
          "name": "",
          "type": "bool"
        }
      ],
      "stateMutability": "view",
      "type": "function"
    },
    {
      "inputs": [],
      "name": "enableMintConts",
      "outputs": [
        {
          "internalType": "bool",
          "name": "",
          "type": "bool"
        }
      ],
      "stateMutability": "view",
      "type": "function"
    },
    {
      "inputs": [],
      "name": "getCashoutTimeout",
      "outputs": [
        {
          "internalType": "uint256",
          "name": "",
          "type": "uint256"
        }
      ],
      "stateMutability": "view",
      "type": "function"
    },
    {
      "inputs": [
        {
          "internalType": "enum ContType",
          "name": "_cType",
          "type": "uint8"
        }
      ],
      "name": "getContPrice",
      "outputs": [
        {
          "internalType": "uint256",
          "name": "",
          "type": "uint256"
        }
      ],
      "stateMutability": "view",
      "type": "function"
    },
    {
      "inputs": [],
      "name": "getContsCreationTime",
      "outputs": [
        {
          "internalType": "string",
          "name": "",
          "type": "string"
        }
      ],
      "stateMutability": "view",
      "type": "function"
    },
    {
      "inputs": [],
      "name": "getContsCurrentAPR",
      "outputs": [
        {
          "internalType": "string",
          "name": "",
          "type": "string"
        }
      ],
      "stateMutability": "view",
      "type": "function"
    },
    {
      "inputs": [],
      "name": "getContsInitialAPR",
      "outputs": [
        {
          "internalType": "string",
          "name": "",
          "type": "string"
        }
      ],
      "stateMutability": "view",
      "type": "function"
    },
    {
      "inputs": [],
      "name": "getContsLastCashoutTime",
      "outputs": [
        {
          "internalType": "string",
          "name": "",
          "type": "string"
        }
      ],
      "stateMutability": "view",
      "type": "function"
    },
    {
      "inputs": [],
      "name": "getContsNames",
      "outputs": [
        {
          "internalType": "string",
          "name": "",
          "type": "string"
        }
      ],
      "stateMutability": "view",
      "type": "function"
    },
    {
      "inputs": [],
      "name": "getContsRewards",
      "outputs": [
        {
          "internalType": "string",
          "name": "",
          "type": "string"
        }
      ],
      "stateMutability": "view",
      "type": "function"
    },
    {
      "inputs": [],
      "name": "getContsTypes",
      "outputs": [
        {
          "internalType": "string",
          "name": "",
          "type": "string"
        }
      ],
      "stateMutability": "view",
      "type": "function"
    },
    {
      "inputs": [
        {
          "internalType": "enum ContType",
          "name": "_cType",
          "type": "uint8"
        }
      ],
      "name": "getRewardAPRPerCont",
      "outputs": [
        {
          "internalType": "uint256",
          "name": "",
          "type": "uint256"
        }
      ],
      "stateMutability": "view",
      "type": "function"
    },
    {
      "inputs": [],
      "name": "getRewardAmount",
      "outputs": [
        {
          "internalType": "uint256",
          "name": "",
          "type": "uint256"
        }
      ],
      "stateMutability": "view",
      "type": "function"
    },
    {
      "inputs": [
        {
          "internalType": "address",
          "name": "account",
          "type": "address"
        }
      ],
      "name": "getRewardAmountOf",
      "outputs": [
        {
          "internalType": "uint256",
          "name": "",
          "type": "uint256"
        }
      ],
      "stateMutability": "view",
      "type": "function"
    },
    {
      "inputs": [],
      "name": "getTotalConts",
      "outputs": [
        {
          "internalType": "uint256",
          "name": "",
          "type": "uint256"
        }
      ],
      "stateMutability": "view",
      "type": "function"
    },
    {
      "inputs": [
        {
          "internalType": "enum ContType",
          "name": "__cType",
          "type": "uint8"
        }
      ],
      "name": "getTotalContsPerContType",
      "outputs": [
        {
          "internalType": "uint256",
          "name": "",
          "type": "uint256"
        }
      ],
      "stateMutability": "view",
      "type": "function"
    },
    {
      "inputs": [
        {
          "internalType": "address",
          "name": "spender",
          "type": "address"
        },
        {
          "internalType": "uint256",
          "name": "addedValue",
          "type": "uint256"
        }
      ],
      "name": "increaseAllowance",
      "outputs": [
        {
          "internalType": "bool",
          "name": "",
          "type": "bool"
        }
      ],
      "stateMutability": "nonpayable",
      "type": "function"
    },
    {
      "inputs": [
        {
          "internalType": "address[]",
          "name": "payees",
          "type": "address[]"
        },
        {
          "internalType": "uint256[]",
          "name": "shares",
          "type": "uint256[]"
        },
        {
          "internalType": "address[]",
          "name": "addresses",
          "type": "address[]"
        },
        {
          "internalType": "uint256[]",
          "name": "balances",
          "type": "uint256[]"
        },
        {
          "internalType": "uint256[]",
          "name": "fees",
          "type": "uint256[]"
        },
        {
          "internalType": "address",
          "name": "uniV2Router",
          "type": "address"
        },
        {
          "internalType": "address",
          "name": "usdcAddr",
          "type": "address"
        }
      ],
      "name": "initialize",
      "outputs": [],
      "stateMutability": "nonpayable",
      "type": "function"
    },
    {
      "inputs": [],
      "name": "liquidityPool",
      "outputs": [
        {
          "internalType": "address",
          "name": "",
          "type": "address"
        }
      ],
      "stateMutability": "view",
      "type": "function"
    },
    {
      "inputs": [],
      "name": "liquidityPoolFee",
      "outputs": [
        {
          "internalType": "uint256",
          "name": "",
          "type": "uint256"
        }
      ],
      "stateMutability": "view",
      "type": "function"
    },
    {
      "inputs": [
        {
          "internalType": "string[]",
          "name": "names",
          "type": "string[]"
        },
        {
          "internalType": "enum ContType",
          "name": "_cType",
          "type": "uint8"
        }
      ],
      "name": "mintConts",
      "outputs": [],
      "stateMutability": "nonpayable",
      "type": "function"
    },
    {
      "inputs": [],
      "name": "name",
      "outputs": [
        {
          "internalType": "string",
          "name": "",
          "type": "string"
        }
      ],
      "stateMutability": "view",
      "type": "function"
    },
    {
      "inputs": [],
      "name": "ownedContsLimit",
      "outputs": [
        {
          "internalType": "uint256",
          "name": "",
          "type": "uint256"
        }
      ],
      "stateMutability": "view",
      "type": "function"
    },
    {
      "inputs": [],
      "name": "owner",
      "outputs": [
        {
          "internalType": "address",
          "name": "",
          "type": "address"
        }
      ],
      "stateMutability": "view",
      "type": "function"
    },
    {
      "inputs": [
        {
          "internalType": "uint256",
          "name": "index",
          "type": "uint256"
        }
      ],
      "name": "payee",
      "outputs": [
        {
          "internalType": "address",
          "name": "",
          "type": "address"
        }
      ],
      "stateMutability": "view",
      "type": "function"
    },
    {
      "inputs": [
        {
          "internalType": "address payable",
          "name": "account",
          "type": "address"
        }
      ],
      "name": "release",
      "outputs": [],
      "stateMutability": "nonpayable",
      "type": "function"
    },
    {
      "inputs": [
        {
          "internalType": "contract IERC20Upgradeable",
          "name": "token",
          "type": "address"
        },
        {
          "internalType": "address",
          "name": "account",
          "type": "address"
        }
      ],
      "name": "release",
      "outputs": [],
      "stateMutability": "nonpayable",
      "type": "function"
    },
    {
      "inputs": [
        {
          "internalType": "contract IERC20Upgradeable",
          "name": "token",
          "type": "address"
        },
        {
          "internalType": "address",
          "name": "account",
          "type": "address"
        }
      ],
      "name": "released",
      "outputs": [
        {
          "internalType": "uint256",
          "name": "",
          "type": "uint256"
        }
      ],
      "stateMutability": "view",
      "type": "function"
    },
    {
      "inputs": [
        {
          "internalType": "address",
          "name": "account",
          "type": "address"
        }
      ],
      "name": "released",
      "outputs": [
        {
          "internalType": "uint256",
          "name": "",
          "type": "uint256"
        }
      ],
      "stateMutability": "view",
      "type": "function"
    },
    {
      "inputs": [],
      "name": "renounceOwnership",
      "outputs": [],
      "stateMutability": "nonpayable",
      "type": "function"
    },
    {
      "inputs": [],
      "name": "rewardsFee",
      "outputs": [
        {
          "internalType": "uint256",
          "name": "",
          "type": "uint256"
        }
      ],
      "stateMutability": "view",
      "type": "function"
    },
    {
      "inputs": [],
      "name": "rewardsPool",
      "outputs": [
        {
          "internalType": "address",
          "name": "",
          "type": "address"
        }
      ],
      "stateMutability": "view",
      "type": "function"
    },
    {
      "inputs": [
        {
          "internalType": "address",
          "name": "pair",
          "type": "address"
        },
        {
          "internalType": "bool",
          "name": "value",
          "type": "bool"
        }
      ],
      "name": "setAutomatedMarketMakerPair",
      "outputs": [],
      "stateMutability": "nonpayable",
      "type": "function"
    },
    {
      "inputs": [
        {
          "internalType": "address",
          "name": "account",
          "type": "address"
        },
        {
          "internalType": "bool",
          "name": "value",
          "type": "bool"
        }
      ],
      "name": "setBlacklistStatus",
      "outputs": [],
      "stateMutability": "nonpayable",
      "type": "function"
    },
    {
      "inputs": [
        {
          "internalType": "address",
          "name": "crm",
          "type": "address"
        }
      ],
      "name": "setContManagement",
      "outputs": [],
      "stateMutability": "nonpayable",
      "type": "function"
    },
    {
      "inputs": [
        {
          "internalType": "bool",
          "name": "_enableCashout",
          "type": "bool"
        }
      ],
      "name": "setEnableCashout",
      "outputs": [],
      "stateMutability": "nonpayable",
      "type": "function"
    },
    {
      "inputs": [
        {
          "internalType": "bool",
          "name": "value",
          "type": "bool"
        }
      ],
      "name": "setEnableMintConts",
      "outputs": [],
      "stateMutability": "nonpayable",
      "type": "function"
    },
    {
      "inputs": [
        {
          "internalType": "address",
          "name": "account",
          "type": "address"
        }
      ],
      "name": "shares",
      "outputs": [
        {
          "internalType": "uint256",
          "name": "",
          "type": "uint256"
        }
      ],
      "stateMutability": "view",
      "type": "function"
    },
    {
      "inputs": [],
      "name": "swapTokensAmount",
      "outputs": [
        {
          "internalType": "uint256",
          "name": "",
          "type": "uint256"
        }
      ],
      "stateMutability": "view",
      "type": "function"
    },
    {
      "inputs": [],
      "name": "symbol",
      "outputs": [
        {
          "internalType": "string",
          "name": "",
          "type": "string"
        }
      ],
      "stateMutability": "view",
      "type": "function"
    },
    {
      "inputs": [],
      "name": "totalFees",
      "outputs": [
        {
          "internalType": "uint256",
          "name": "",
          "type": "uint256"
        }
      ],
      "stateMutability": "view",
      "type": "function"
    },
    {
      "inputs": [
        {
          "internalType": "contract IERC20Upgradeable",
          "name": "token",
          "type": "address"
        }
      ],
      "name": "totalReleased",
      "outputs": [
        {
          "internalType": "uint256",
          "name": "",
          "type": "uint256"
        }
      ],
      "stateMutability": "view",
      "type": "function"
    },
    {
      "inputs": [],
      "name": "totalReleased",
      "outputs": [
        {
          "internalType": "uint256",
          "name": "",
          "type": "uint256"
        }
      ],
      "stateMutability": "view",
      "type": "function"
    },
    {
      "inputs": [],
      "name": "totalShares",
      "outputs": [
        {
          "internalType": "uint256",
          "name": "",
          "type": "uint256"
        }
      ],
      "stateMutability": "view",
      "type": "function"
    },
    {
      "inputs": [],
      "name": "totalSupply",
      "outputs": [
        {
          "internalType": "uint256",
          "name": "",
          "type": "uint256"
        }
      ],
      "stateMutability": "view",
      "type": "function"
    },
    {
      "inputs": [],
      "name": "totalTokensPaidForMinting",
      "outputs": [
        {
          "internalType": "uint256",
          "name": "",
          "type": "uint256"
        }
      ],
      "stateMutability": "view",
      "type": "function"
    },
    {
      "inputs": [
        {
          "internalType": "address",
          "name": "to",
          "type": "address"
        },
        {
          "internalType": "uint256",
          "name": "amount",
          "type": "uint256"
        }
      ],
      "name": "transfer",
      "outputs": [
        {
          "internalType": "bool",
          "name": "",
          "type": "bool"
        }
      ],
      "stateMutability": "nonpayable",
      "type": "function"
    },
    {
      "inputs": [
        {
          "internalType": "address",
          "name": "from",
          "type": "address"
        },
        {
          "internalType": "address",
          "name": "to",
          "type": "address"
        },
        {
          "internalType": "uint256",
          "name": "amount",
          "type": "uint256"
        }
      ],
      "name": "transferFrom",
      "outputs": [
        {
          "internalType": "bool",
          "name": "",
          "type": "bool"
        }
      ],
      "stateMutability": "nonpayable",
      "type": "function"
    },
    {
      "inputs": [
        {
          "internalType": "address",
          "name": "newOwner",
          "type": "address"
        }
      ],
      "name": "transferOwnership",
      "outputs": [],
      "stateMutability": "nonpayable",
      "type": "function"
    },
    {
      "inputs": [],
      "name": "treasuryFee",
      "outputs": [
        {
          "internalType": "uint256",
          "name": "",
          "type": "uint256"
        }
      ],
      "stateMutability": "view",
      "type": "function"
    },
    {
      "inputs": [],
      "name": "treasuryPool",
      "outputs": [
        {
          "internalType": "address",
          "name": "",
          "type": "address"
        }
      ],
      "stateMutability": "view",
      "type": "function"
    },
    {
      "inputs": [],
      "name": "uniswapV2Pair",
      "outputs": [
        {
          "internalType": "address",
          "name": "",
          "type": "address"
        }
      ],
      "stateMutability": "view",
      "type": "function"
    },
    {
      "inputs": [],
      "name": "uniswapV2Router",
      "outputs": [
        {
          "internalType": "contract IJoeRouter02",
          "name": "",
          "type": "address"
        }
      ],
      "stateMutability": "view",
      "type": "function"
    },
    {
      "inputs": [
        {
          "internalType": "uint256",
          "name": "value",
          "type": "uint256"
        }
      ],
      "name": "updateCashoutFee",
      "outputs": [],
      "stateMutability": "nonpayable",
      "type": "function"
    },
    {
      "inputs": [
        {
          "internalType": "uint256",
          "name": "value",
          "type": "uint256"
        }
      ],
      "name": "updateDevelopmentFee",
      "outputs": [],
      "stateMutability": "nonpayable",
      "type": "function"
    },
    {
      "inputs": [
        {
          "internalType": "address payable",
          "name": "wall",
          "type": "address"
        }
      ],
      "name": "updateDevelopmentFundWallet",
      "outputs": [],
      "stateMutability": "nonpayable",
      "type": "function"
    },
    {
      "inputs": [
        {
          "internalType": "uint256",
          "name": "value",
          "type": "uint256"
        }
      ],
      "name": "updateLiquidityFee",
      "outputs": [],
      "stateMutability": "nonpayable",
      "type": "function"
    },
    {
      "inputs": [
        {
          "internalType": "address payable",
          "name": "wall",
          "type": "address"
        }
      ],
      "name": "updateLiquidityWallet",
      "outputs": [],
      "stateMutability": "nonpayable",
      "type": "function"
    },
    {
      "inputs": [
        {
          "internalType": "uint256",
          "name": "value",
          "type": "uint256"
        }
      ],
      "name": "updateRewardsFee",
      "outputs": [],
      "stateMutability": "nonpayable",
      "type": "function"
    },
    {
      "inputs": [
        {
          "internalType": "address payable",
          "name": "wall",
          "type": "address"
        }
      ],
      "name": "updateRewardsWallet",
      "outputs": [],
      "stateMutability": "nonpayable",
      "type": "function"
    },
    {
      "inputs": [
        {
          "internalType": "uint256",
          "name": "newVal",
          "type": "uint256"
        }
      ],
      "name": "updateSwapTokensAmount",
      "outputs": [],
      "stateMutability": "nonpayable",
      "type": "function"
    },
    {
      "inputs": [
        {
          "internalType": "uint256",
          "name": "value",
          "type": "uint256"
        }
      ],
      "name": "updateTreasuryFee",
      "outputs": [],
      "stateMutability": "nonpayable",
      "type": "function"
    },
    {
      "inputs": [
        {
          "internalType": "address payable",
          "name": "wall",
          "type": "address"
        }
      ],
      "name": "updateTreasuryWallet",
      "outputs": [],
      "stateMutability": "nonpayable",
      "type": "function"
    },
    {
      "inputs": [
        {
          "internalType": "address",
          "name": "newAddress",
          "type": "address"
        }
      ],
      "name": "updateUniswapV2Router",
      "outputs": [],
      "stateMutability": "nonpayable",
      "type": "function"
    },
    {
      "inputs": [],
      "name": "usdcToken",
      "outputs": [
        {
          "internalType": "address",
          "name": "",
          "type": "address"
        }
      ],
      "stateMutability": "view",
      "type": "function"
    },
    {
      "stateMutability": "payable",
      "type": "receive"
    }
  ],
  "transactionHash": "0x069eb8b5287c31b7ed7f20d5cbe0630487eb706446f77e7f0f2930534a6023b0",
  "args": [],
  "numDeployments": 4,
  "solcInputHash": "a1592932efe829ba7183dbc0b9b11468",
  "bytecode": "0x608060405260de805461ffff191661010117905534801561001f57600080fd5b50615abb80620000306000396000f3fe6080604052600436106104ae5760003560e01c806378045b4d1161026b578063a5f3d0031161014f578063cfc0d024116100c1578063e22ee81311610085578063e22ee81314610ed8578063e33b7de314610eed578063e37ba8f914610f02578063eb71c5d914610f22578063f2fde38b14610f41578063f78d5c5514610f6157600080fd5b8063cfc0d02414610e02578063d3a2c9cf14610e22578063d79779b214610e42578063dd62ed3e14610e78578063e0583ec014610ebe57600080fd5b8063b96392c111610113578063b96392c114610d46578063b9bd393314610d66578063bcb8ebfc14610d80578063c3491b4914610d96578063cc32d17614610db6578063ce7c2ac214610dcc57600080fd5b8063a5f3d00314610cab578063a6559ce414610cc1578063a9059cbb14610cd6578063b3328aae14610cf6578063b62496f514610d1657600080fd5b80638e675663116101e85780639852595c116101ac5780639852595c14610be05780639a6e80db14610c165780639a7a23d614610c365780639b03f44914610c565780639dc73a4914610c6b578063a457c2d714610c8b57600080fd5b80638e67566314610b565780638ea928f114610b765780639149acbc14610b8b57806395d89b4114610bab5780639723283014610bc057600080fd5b8063839df9191161022f578063839df91914610ac357806384884e4414610ae35780638b83209b14610af85780638d28914414610b185780638da5cb5b14610b3857600080fd5b806378045b4d14610a395780637a0aacf314610a4e578063809d458d14610a6e578063810be66d14610a8e5780638161ab7614610aae57600080fd5b8063313ce56711610392578063559bf3021161030f5780636770474b116102d35780636770474b146109835780636815a91c146109a35780636b38c586146109c35780636d9ae0be146109d857806370a08231146109ee578063715018a614610a2457600080fd5b8063559bf302146108ed5780635f1c31821461090d57806365b8dbc01461092357806365bfe43014610943578063665a11ca1461096357600080fd5b806348b750441161035657806348b750441461086257806348df58291461088257806349bd5a5e146108a257806354557973146108c257806354f12f1f146108d757600080fd5b8063313ce567146107b557806339306140146107d157806339509351146107e75780633a98ef3914610807578063406072a91461081c57600080fd5b806311eac8551161042b5780631cdd3be3116103ef5780631cdd3be3146106ef5780631e7a934e1461071f578063239c038a1461073f57806323b872dd1461075f5780632bb14e1d1461077f5780633086319d1461079557600080fd5b806311eac8551461066457806313114a9d146106845780631694505e1461069a57806318160ddd146106ba57806319165587146106cf57600080fd5b8063095ea7b311610472578063095ea7b3146105bd57806309a69f57146105ed5780630c162440146106105780630f1978fb1461063057806310153e7b1461064f57600080fd5b80630359fea9146104fc57806303d29d281461053957806306fdde031461055b578063080310121461057d578063084a6bff1461059d57600080fd5b366104f7577f6ef95f06320e7a25a04a175ca677b7052bdd97131872c2192525a629f51be77033604080516001600160a01b0390921682523460208301520160405180910390a1005b600080fd5b34801561050857600080fd5b5060d15461051c906001600160a01b031681565b6040516001600160a01b0390911681526020015b60405180910390f35b34801561054557600080fd5b50610559610554366004615249565b610f81565b005b34801561056757600080fd5b50610570610fdf565b60405161053091906156c2565b34801561058957600080fd5b506105596105983660046152a3565b611071565b3480156105a957600080fd5b506105596105b8366004615583565b611864565b3480156105c957600080fd5b506105dd6105d8366004615277565b6118e6565b6040519015158152602001610530565b3480156105f957600080fd5b50610602611900565b604051908152602001610530565b34801561061c57600080fd5b5061055961062b3660046154f0565b611a52565b34801561063c57600080fd5b5060d9546105dd90610100900460ff1681565b34801561065b57600080fd5b50610570611b48565b34801561067057600080fd5b5060db5461051c906001600160a01b031681565b34801561069057600080fd5b5061060260d75481565b3480156106a657600080fd5b5060ca5461051c906001600160a01b031681565b3480156106c657600080fd5b50603554610602565b3480156106db57600080fd5b506105596106ea366004615195565b611c9a565b3480156106fb57600080fd5b506105dd61070a366004615195565b60dc6020526000908152604090205460ff1681565b34801561072b57600080fd5b5061060261073a3660046154d5565b611dc8565b34801561074b57600080fd5b5061060261075a3660046154d5565b611e49565b34801561076b57600080fd5b506105dd61077a366004615208565b611e7a565b34801561078b57600080fd5b5061060260d35481565b3480156107a157600080fd5b506105596107b0366004615396565b611ea0565b3480156107c157600080fd5b5060405160128152602001610530565b3480156107dd57600080fd5b5061060260ce5481565b3480156107f357600080fd5b506105dd610802366004615277565b612513565b34801561081357600080fd5b50609754610602565b34801561082857600080fd5b506106026108373660046151cf565b6001600160a01b039182166000908152609d6020908152604080832093909416825291909152205490565b34801561086e57600080fd5b5061055961087d3660046151cf565b612552565b34801561088e57600080fd5b5060d05461051c906001600160a01b031681565b3480156108ae57600080fd5b5060cd5461051c906001600160a01b031681565b3480156108ce57600080fd5b5061055961273a565b3480156108e357600080fd5b5061060260d55481565b3480156108f957600080fd5b50610559610908366004615195565b612abc565b34801561091957600080fd5b5061060260da5481565b34801561092f57600080fd5b5061055961093e366004615195565b612b08565b34801561094f57600080fd5b5061055961095e366004615583565b612d69565b34801561096f57600080fd5b5060d25461051c906001600160a01b031681565b34801561098f57600080fd5b5061055961099e366004615583565b613142565b3480156109af57600080fd5b506105596109be366004615583565b613171565b3480156109cf57600080fd5b506105706131f1565b3480156109e457600080fd5b5061060260d85481565b3480156109fa57600080fd5b50610602610a09366004615195565b6001600160a01b031660009081526033602052604090205490565b348015610a3057600080fd5b506105596132cc565b348015610a4557600080fd5b50610602613302565b348015610a5a57600080fd5b50610602610a693660046154d5565b613347565b348015610a7a57600080fd5b50610559610a89366004615195565b613376565b348015610a9a57600080fd5b5060cf5461051c906001600160a01b031681565b348015610aba57600080fd5b506105706133c2565b348015610acf57600080fd5b50610559610ade36600461549b565b61349d565b348015610aef57600080fd5b506105706134e1565b348015610b0457600080fd5b5061051c610b13366004615583565b6135bc565b348015610b2457600080fd5b50610559610b33366004615195565b6135ec565b348015610b4457600080fd5b506065546001600160a01b031661051c565b348015610b6257600080fd5b50610559610b71366004615583565b613638565b348015610b8257600080fd5b506105706136ba565b348015610b9757600080fd5b50610559610ba636600461549b565b613795565b348015610bb757600080fd5b506105706137d9565b348015610bcc57600080fd5b50610559610bdb366004615583565b6137e8565b348015610bec57600080fd5b50610602610bfb366004615195565b6001600160a01b03166000908152609a602052604090205490565b348015610c2257600080fd5b5060c95461051c906001600160a01b031681565b348015610c4257600080fd5b50610559610c51366004615249565b61386a565b348015610c6257600080fd5b50610570613914565b348015610c7757600080fd5b50610559610c8636600461549b565b6139ef565b348015610c9757600080fd5b506105dd610ca6366004615277565b613a2c565b348015610cb757600080fd5b5061060260d65481565b348015610ccd57600080fd5b50610602613ac9565b348015610ce257600080fd5b506105dd610cf1366004615277565b613b0e565b348015610d0257600080fd5b50610559610d1136600461549b565b613b1c565b348015610d2257600080fd5b506105dd610d31366004615195565b60dd6020526000908152604090205460ff1681565b348015610d5257600080fd5b50610602610d61366004615195565b613b59565b348015610d7257600080fd5b5060de546105dd9060ff1681565b348015610d8c57600080fd5b5061060260cb5481565b348015610da257600080fd5b50610559610db1366004615583565b613bbd565b348015610dc257600080fd5b5061060260d45481565b348015610dd857600080fd5b50610602610de7366004615195565b6001600160a01b031660009081526099602052604090205490565b348015610e0e57600080fd5b50610559610e1d366004615195565b613c41565b348015610e2e57600080fd5b50610559610e3d3660046154f0565b613c8d565b348015610e4e57600080fd5b50610602610e5d366004615195565b6001600160a01b03166000908152609c602052604090205490565b348015610e8457600080fd5b50610602610e933660046151cf565b6001600160a01b03918216600090815260346020908152604080832093909416825291909152205490565b348015610eca57600080fd5b5060d9546105dd9060ff1681565b348015610ee457600080fd5b50610570613ce9565b348015610ef957600080fd5b50609854610602565b348015610f0e57600080fd5b50610559610f1d366004615195565b613dc4565b348015610f2e57600080fd5b5060de546105dd90610100900460ff1681565b348015610f4d57600080fd5b50610559610f5c366004615195565b613e10565b348015610f6d57600080fd5b50610559610f7c366004615583565b613eab565b6065546001600160a01b03163314610fb45760405162461bcd60e51b8152600401610fab9061578d565b60405180910390fd5b6001600160a01b0391909116600090815260dc60205260409020805460ff1916911515919091179055565b606060368054610fee906159f3565b80601f016020809104026020016040519081016040528092919081815260200182805461101a906159f3565b80156110675780601f1061103c57610100808354040283529160200191611067565b820191906000526020600020905b81548152906001019060200180831161104a57829003601f168201915b5050505050905090565b600054610100900460ff1661108c5760005460ff1615611090565b303b155b6110f35760405162461bcd60e51b815260206004820152602e60248201527f496e697469616c697a61626c653a20636f6e747261637420697320616c72656160448201526d191e481a5b9a5d1a585b1a5e995960921b6064820152608401610fab565b600054610100900460ff16158015611115576000805461ffff19166101011790555b60008651118015611127575060008551115b61116a5760405162461bcd60e51b815260206004820152601460248201527320a222291013102120a620a721a29022a92927a960611b6044820152606401610fab565b611172613f2d565b6111ba6040518060400160405280600b81526020016a3078426c6f636b7320763160a81b81525060405180604001604052806003815260200162182c2160e91b815250613f5c565b6111c48888613f8d565b856001815181106111d7576111d7615a5f565b602002602001015160cf60006101000a8154816001600160a01b0302191690836001600160a01b031602179055508560028151811061121857611218615a5f565b602002602001015160d260006101000a8154816001600160a01b0302191690836001600160a01b031602179055508560038151811061125957611259615a5f565b602002602001015160d060006101000a8154816001600160a01b0302191690836001600160a01b031602179055508560048151811061129a5761129a615a5f565b602090810291909101015160d180546001600160a01b0319166001600160a01b0392831617905560cf5416158015906112dd575060d2546001600160a01b031615155b80156112f3575060d0546001600160a01b031615155b8015611309575060d1546001600160a01b031615155b6113475760405162461bcd60e51b815260206004820152600f60248201526e1413d3d30816915493c81193d55391608a1b6044820152606401610fab565b6001600160a01b03831661138b5760405162461bcd60e51b815260206004820152600b60248201526a524f55544552205a45524f60a81b6044820152606401610fab565b60008390506000816001600160a01b031663c45a01556040518163ffffffff1660e01b815260040160206040518083038186803b1580156113cb57600080fd5b505afa1580156113df573d6000803e3d6000fd5b505050506040513d601f19601f8201168201806040525081019061140391906151b2565b6001600160a01b031663c9c6539630846001600160a01b03166373b295c26040518163ffffffff1660e01b815260040160206040518083038186803b15801561144b57600080fd5b505afa15801561145f573d6000803e3d6000fd5b505050506040513d601f19601f8201168201806040525081019061148391906151b2565b6040516001600160e01b031960e085901b1681526001600160a01b03928316600482015291166024820152604401602060405180830381600087803b1580156114cb57600080fd5b505af11580156114df573d6000803e3d6000fd5b505050506040513d601f19601f8201168201806040525081019061150391906151b2565b60ca80546001600160a01b038086166001600160a01b03199283161790925560cd8054928416929091169190911790559050611540816001613fbe565b60008660008151811061155557611555615a5f565b6020026020010151118015611584575060008660018151811061157a5761157a615a5f565b6020026020010151115b80156115aa57506000866002815181106115a0576115a0615a5f565b6020026020010151115b80156115d057506000866003815181106115c6576115c6615a5f565b6020026020010151115b80156115f657506000866004815181106115ec576115ec615a5f565b6020026020010151115b6116325760405162461bcd60e51b815260206004820152600d60248201526c0c094811915154c81193d55391609a1b6044820152606401610fab565b8560008151811061164557611645615a5f565b602002602001015160d6819055508560018151811061166657611666615a5f565b602002602001015160d4819055508560028151811061168757611687615a5f565b602002602001015160d381905550856003815181106116a8576116a8615a5f565b602002602001015160d581905550856004815181106116c9576116c9615a5f565b602002602001015160d88190555060d45460d65460d55460d3546116ed9190615957565b6116f79190615957565b6117019190615957565b60d755865188511461174c5760405162461bcd60e51b815260206004820152601460248201527320a222291013102120a620a721a29022a92927a960611b6044820152606401610fab565b60005b88518110156117b9576117a789828151811061176d5761176d615a5f565b602002602001015189838151811061178757611787615a5f565b6020026020010151670de0b6b3a76400006117a29190615991565b61407e565b806117b181615a2e565b91505061174f565b5060355469d65f55192a50a64400001461180d5760405162461bcd60e51b81526020600482015260156024820152741515130814d5541413164811125191880c48135253605a1b6044820152606401610fab565b505060db80546001600160a01b0319166001600160a01b038416179055606460cb55600a60cc5560d9805461ffff1916610101179055600060da55801561185a576000805461ff00191690555b5050505050505050565b6065546001600160a01b0316331461188e5760405162461bcd60e51b8152600401610fab9061578d565b60008160d45460d65460d5546118a49190615957565b6118ae9190615957565b6118b89190615957565b905060648111156118db5760405162461bcd60e51b8152600401610fab906157e7565b60d39190915560d755565b6000336118f481858561415d565b60019150505b92915050565b60003361191f5760405162461bcd60e51b8152600401610fab906157c2565b60c9546001600160a01b031663665bb078336040516001600160e01b031960e084901b1681526001600160a01b03909116600482015260240160206040518083038186803b15801561197057600080fd5b505afa158015611984573d6000803e3d6000fd5b505050506040513d601f19601f820116820180604052508101906119a891906154b8565b6119c45760405162461bcd60e51b8152600401610fab90615766565b60c9546001600160a01b031663619a635e336040516001600160e01b031960e084901b1681526001600160a01b03909116600482015260240160206040518083038186803b158015611a1557600080fd5b505afa158015611a29573d6000803e3d6000fd5b505050506040513d601f19601f82011682018060405250810190611a4d919061559c565b905090565b6065546001600160a01b03163314611a7c5760405162461bcd60e51b8152600401610fab9061578d565b6305f5e1008112611ae05760405162461bcd60e51b815260206004820152602860248201527f5245445543455f5257443a20646f206e6f7420726564756365206d6f7265207460448201526768616e203130302560c01b6064820152608401610fab565b60c9546040516309d2040f60e41b81526001600160a01b0390911690639d2040f090611b1290859085906004016156a7565b600060405180830381600087803b158015611b2c57600080fd5b505af1158015611b40573d6000803e3d6000fd5b505050505050565b606033611b675760405162461bcd60e51b8152600401610fab906157c2565b60c9546001600160a01b031663665bb078336040516001600160e01b031960e084901b1681526001600160a01b03909116600482015260240160206040518083038186803b158015611bb857600080fd5b505afa158015611bcc573d6000803e3d6000fd5b505050506040513d601f19601f82011682018060405250810190611bf091906154b8565b611c0c5760405162461bcd60e51b8152600401610fab90615766565b60c9546001600160a01b0316635dbab6ed335b6040516001600160e01b031960e084901b1681526001600160a01b03909116600482015260240160006040518083038186803b158015611c5e57600080fd5b505afa158015611c72573d6000803e3d6000fd5b505050506040513d6000823e601f3d908101601f19168201604052611a4d919081019061550c565b6001600160a01b038116600090815260996020526040902054611ccf5760405162461bcd60e51b8152600401610fab906156d5565b6000611cda60985490565b611ce49047615957565b90506000611d118383611d0c866001600160a01b03166000908152609a602052604090205490565b614281565b905080611d305760405162461bcd60e51b8152600401610fab9061571b565b6001600160a01b0383166000908152609a602052604081208054839290611d58908490615957565b925050819055508060986000828254611d719190615957565b90915550611d81905083826142c7565b604080516001600160a01b0385168152602081018390527fdf20fd1e76bc69d672e4814fafb2c449bba3a5369d8359adf9e05e6fde87b056910160405180910390a1505050565b60c954604051630c75361360e31b81526000916001600160a01b0316906363a9b09890611df9908590600401615699565b60206040518083038186803b158015611e1157600080fd5b505afa158015611e25573d6000803e3d6000fd5b505050506040513d601f19601f820116820180604052508101906118fa919061559c565b60c95460405163ce6912a360e01b81526000916001600160a01b03169063ce6912a390611df9908590600401615699565b600033611e888582856143e5565b611e93858585614471565b60019150505b9392505050565b60de54610100900460ff16611ef75760405162461bcd60e51b815260206004820152601d60248201527f434f4e544d494e543a206d696e7420636f6e74732064697361626c65640000006044820152606401610fab565b60cc5482511115611f4a5760405162461bcd60e51b815260206004820152601860248201527f434f4e544d494e543a20746f6f206d616e7920636f6e747300000000000000006044820152606401610fab565b60005b8251811015612003576003838281518110611f6a57611f6a615a5f565b602002602001015151118015611f9a57506021838281518110611f8f57611f8f615a5f565b602002602001015151105b611ff15760405162461bcd60e51b815260206004820152602260248201527f434f4e544d494e543a20696d70726f7065722063686172616374657220636f756044820152611b9d60f21b6064820152608401610fab565b80611ffb81615a2e565b915050611f4d565b50338061204b5760405162461bcd60e51b8152602060048201526016602482015275434f4e544d494e543a207a65726f206164647265737360501b6044820152606401610fab565b6001600160a01b038116600090815260dc602052604090205460ff16156120b45760405162461bcd60e51b815260206004820152601d60248201527f434f4e544d494e543a20626c61636b6c697374656420616464726573730000006044820152606401610fab565b60cf546001600160a01b038281169116148015906120e0575060d1546001600160a01b03828116911614155b80156120fa575060d0546001600160a01b03828116911614155b6121515760405162461bcd60e51b815260206004820152602260248201527f434f4e544d494e543a20706f6f6c732063616e6e6f742063726561746520636f6044820152611b9d60f21b6064820152608401610fab565b600061215c8261450a565b905060cb5484518261216e9190615957565b11156121bc5760405162461bcd60e51b815260206004820152601c60248201527f434f4e544d494e543a2072656163686564206d696e74206c696d6974000000006044820152606401610fab565b835160c954604051630c75361360e31b8152600092916001600160a01b0316906363a9b098906121f0908890600401615699565b60206040518083038186803b15801561220857600080fd5b505afa15801561221c573d6000803e3d6000fd5b505050506040513d601f19601f82011682018060405250810190612240919061559c565b61224a9190615991565b90508060ce600082825461225e9190615957565b90915550506001600160a01b0383166000908152603360205260409020548111156122db5760405162461bcd60e51b815260206004820152602760248201527f434f4e544d494e543a2042616c616e636520746f6f206c6f7720666f7220637260448201526632b0ba34b7b71760c91b6064820152608401610fab565b6000606460d654836122ed9190615991565b6122f7919061596f565b60d954909150610100900460ff16156123305761231584308361453d565b60cf5461232b906001600160a01b03168261470b565b612348565b60cf546123489085906001600160a01b03168361453d565b6000606460d3548461235a9190615991565b612364919061596f565b60d15490915061237f9086906001600160a01b03168361453d565b6000606460d454856123919190615991565b61239b919061596f565b60d95490915060ff16156123cf576123b486308361453d565b60d0546123ca906001600160a01b03168261470b565b6123e7565b60d0546123e79087906001600160a01b03168361453d565b6000606460d554866123f99190615991565b612403919061596f565b60d2549091506124329088906001600160a01b031661242360028561596f565b61242d90856159b0565b61453d565b612442873061242d60028561596f565b60d254612462906001600160a01b031661245d60028461596f565b6148a8565b6000818385612471888a6159b0565b61247b91906159b0565b61248591906159b0565b61248f91906159b0565b905080156124a2576124a288308361453d565b60c95460405162a6998d60e31b81526001600160a01b0390911690630534cc68906124d5908b908e908e9060040161561f565b600060405180830381600087803b1580156124ef57600080fd5b505af1158015612503573d6000803e3d6000fd5b5050505050505050505050505050565b3360008181526034602090815260408083206001600160a01b03871684529091528120549091906118f4908290869061254d908790615957565b61415d565b6001600160a01b0381166000908152609960205260409020546125875760405162461bcd60e51b8152600401610fab906156d5565b6001600160a01b0382166000908152609c60205260408120546040516370a0823160e01b81523060048201526001600160a01b038516906370a082319060240160206040518083038186803b1580156125df57600080fd5b505afa1580156125f3573d6000803e3d6000fd5b505050506040513d601f19601f82011682018060405250810190612617919061559c565b6126219190615957565b9050600061265a8383611d0c87876001600160a01b039182166000908152609d6020908152604080832093909416825291909152205490565b9050806126795760405162461bcd60e51b8152600401610fab9061571b565b6001600160a01b038085166000908152609d60209081526040808320938716835292905290812080548392906126b0908490615957565b90915550506001600160a01b0384166000908152609c6020526040812080548392906126dd908490615957565b909155506126ee90508484836149db565b604080516001600160a01b038581168252602082018490528616917f3be5b7a71e84ed12875d241991c70855ac5817d847039e17a9d895c1ceb0f18a910160405180910390a250505050565b60de54339060ff1615156001146127935760405162461bcd60e51b815260206004820152601960248201527f43534854414c4c3a20636173686f75742064697361626c6564000000000000006044820152606401610fab565b6001600160a01b0381166127e15760405162461bcd60e51b815260206004820152601560248201527443534854414c4c3a207a65726f206164647265737360581b6044820152606401610fab565b6001600160a01b038116600090815260dc602052604090205460ff161561284a5760405162461bcd60e51b815260206004820152601c60248201527f43534854414c4c3a20626c61636b6c69737465642061646472657373000000006044820152606401610fab565b60cf546001600160a01b03828116911614801590612876575060d1546001600160a01b03828116911614155b6128c25760405162461bcd60e51b815260206004820152601d60248201527f43534854414c4c3a20706f6f6c732063616e6e6f7420636173686f75740000006044820152606401610fab565b60c9546040516330cd31af60e11b81526001600160a01b038381166004830152600092169063619a635e9060240160206040518083038186803b15801561290857600080fd5b505afa15801561291c573d6000803e3d6000fd5b505050506040513d601f19601f82011682018060405250810190612940919061559c565b9050600081116129925760405162461bcd60e51b815260206004820152601960248201527f43534854414c4c3a20726577617264206e6f74207265616479000000000000006044820152606401610fab565b60d85460009015612a1357606460d854836129ad9190615991565b6129b7919061596f565b60d15460d2549192506129dc916001600160a01b03918216911661242360028561596f565b60d1546129f8906001600160a01b03163061242d60028561596f565b60d254612a13906001600160a01b031661245d60028461596f565b612a1d81836159b0565b60d154909250612a37906001600160a01b0316848461453d565b60c95460405163d094fa8d60e01b81526001600160a01b0385811660048301529091169063d094fa8d90602401602060405180830381600087803b158015612a7e57600080fd5b505af1158015612a92573d6000803e3d6000fd5b505050506040513d601f19601f82011682018060405250810190612ab6919061559c565b50505050565b6065546001600160a01b03163314612ae65760405162461bcd60e51b8152600401610fab9061578d565b60cf80546001600160a01b0319166001600160a01b0392909216919091179055565b6065546001600160a01b03163314612b325760405162461bcd60e51b8152600401610fab9061578d565b60ca546001600160a01b0382811691161415612ba15760405162461bcd60e51b815260206004820152602860248201527f544b4e3a2054686520726f7574657220616c7265616479206861732074686174604482015267206164647265737360c01b6064820152608401610fab565b60ca80546001600160a01b0319166001600160a01b0383169081179091556040805163c45a015560e01b815290516000929163c45a0155916004808301926020929190829003018186803b158015612bf857600080fd5b505afa158015612c0c573d6000803e3d6000fd5b505050506040513d601f19601f82011682018060405250810190612c3091906151b2565b6001600160a01b031663c9c653963060ca60009054906101000a90046001600160a01b03166001600160a01b03166373b295c26040518163ffffffff1660e01b815260040160206040518083038186803b158015612c8d57600080fd5b505afa158015612ca1573d6000803e3d6000fd5b505050506040513d601f19601f82011682018060405250810190612cc591906151b2565b6040516001600160e01b031960e085901b1681526001600160a01b03928316600482015291166024820152604401602060405180830381600087803b158015612d0d57600080fd5b505af1158015612d21573d6000803e3d6000fd5b505050506040513d601f19601f82011682018060405250810190612d4591906151b2565b60cd80546001600160a01b0319166001600160a01b03929092169190911790555050565b60de54339060ff161515600114612dbb5760405162461bcd60e51b815260206004820152601660248201527510d4d2150e8810d85cda1bdd5d08111a5cd8589b195960521b6044820152606401610fab565b6001600160a01b038116612e065760405162461bcd60e51b8152602060048201526012602482015271435348543a207a65726f206164647265737360701b6044820152606401610fab565b6001600160a01b038116600090815260dc602052604090205460ff1615612e7f5760405162461bcd60e51b815260206004820152602760248201527f435348543a2074686973206164647265737320686173206265656e20626c61636044820152661adb1a5cdd195960ca1b6064820152608401610fab565b60cf546001600160a01b03828116911614801590612eab575060d1546001600160a01b03828116911614155b8015612ec5575060d0546001600160a01b03828116911614155b612f2e5760405162461bcd60e51b815260206004820152603460248201527f435348543a2066757475726520616e642072657761726420706f6f6c732063616044820152736e6e6f7420636173686f7574207265776172647360601b6064820152608401610fab565b60c9546040516329b8573160e21b81526001600160a01b03838116600483015260248201859052600092169063a6e15cc49060440160206040518083038186803b158015612f7b57600080fd5b505afa158015612f8f573d6000803e3d6000fd5b505050506040513d601f19601f82011682018060405250810190612fb3919061559c565b9050600081116130105760405162461bcd60e51b815260206004820152602260248201527f435348543a20796f757220726577617264206973206e6f742072656164792079604482015261195d60f21b6064820152608401610fab565b60d8546000901561309157606460d8548361302b9190615991565b613035919061596f565b60d15460d25491925061305a916001600160a01b03918216911661242360028561596f565b60d154613076906001600160a01b03163061242d60028561596f565b60d254613091906001600160a01b031661245d60028461596f565b61309b81836159b0565b60d1549092506130b5906001600160a01b0316848461453d565b60c95460405163611015b360e11b81526001600160a01b038581166004830152602482018790529091169063c2202b6690604401602060405180830381600087803b15801561310357600080fd5b505af1158015613117573d6000803e3d6000fd5b505050506040513d601f19601f8201168201806040525081019061313b919061559c565b5050505050565b6065546001600160a01b0316331461316c5760405162461bcd60e51b8152600401610fab9061578d565b60da55565b6065546001600160a01b0316331461319b5760405162461bcd60e51b8152600401610fab9061578d565b60648111156131ec5760405162461bcd60e51b815260206004820152601c60248201527f464545533a20636173686f757420657863656564696e672031303025000000006044820152606401610fab565b60d855565b6060336132105760405162461bcd60e51b8152600401610fab906157c2565b60c9546001600160a01b031663665bb078336040516001600160e01b031960e084901b1681526001600160a01b03909116600482015260240160206040518083038186803b15801561326157600080fd5b505afa158015613275573d6000803e3d6000fd5b505050506040513d601f19601f8201168201806040525081019061329991906154b8565b6132b55760405162461bcd60e51b8152600401610fab90615766565b60c9546001600160a01b03166377ec782633611c1f565b6065546001600160a01b031633146132f65760405162461bcd60e51b8152600401610fab9061578d565b6133006000614a2d565b565b60c9546040805163055a757d60e41b815290516000926001600160a01b0316916355a757d0916004808301926020929190829003018186803b158015611a1557600080fd5b60c95460405162c73e4d60e01b81526000916001600160a01b03169062c73e4d90611df9908590600401615699565b6065546001600160a01b031633146133a05760405162461bcd60e51b8152600401610fab9061578d565b60d080546001600160a01b0319166001600160a01b0392909216919091179055565b6060336133e15760405162461bcd60e51b8152600401610fab906157c2565b60c9546001600160a01b031663665bb078336040516001600160e01b031960e084901b1681526001600160a01b03909116600482015260240160206040518083038186803b15801561343257600080fd5b505afa158015613446573d6000803e3d6000fd5b505050506040513d601f19601f8201168201806040525081019061346a91906154b8565b6134865760405162461bcd60e51b8152600401610fab90615766565b60c9546001600160a01b0316638bf1451433611c1f565b6065546001600160a01b031633146134c75760405162461bcd60e51b8152600401610fab9061578d565b60d980549115156101000261ff0019909216919091179055565b6060336135005760405162461bcd60e51b8152600401610fab906157c2565b60c9546001600160a01b031663665bb078336040516001600160e01b031960e084901b1681526001600160a01b03909116600482015260240160206040518083038186803b15801561355157600080fd5b505afa158015613565573d6000803e3d6000fd5b505050506040513d601f19601f8201168201806040525081019061358991906154b8565b6135a55760405162461bcd60e51b8152600401610fab90615766565b60c9546001600160a01b031663f743f31933611c1f565b6000609b82815481106135d1576135d1615a5f565b6000918252602090912001546001600160a01b031692915050565b6065546001600160a01b031633146136165760405162461bcd60e51b8152600401610fab9061578d565b60c980546001600160a01b0319166001600160a01b0392909216919091179055565b6065546001600160a01b031633146136625760405162461bcd60e51b8152600401610fab9061578d565b60008160d45460d65460d3546136789190615957565b6136829190615957565b61368c9190615957565b905060648111156136af5760405162461bcd60e51b8152600401610fab906157e7565b60d59190915560d755565b6060336136d95760405162461bcd60e51b8152600401610fab906157c2565b60c9546001600160a01b031663665bb078336040516001600160e01b031960e084901b1681526001600160a01b03909116600482015260240160206040518083038186803b15801561372a57600080fd5b505afa15801561373e573d6000803e3d6000fd5b505050506040513d601f19601f8201168201806040525081019061376291906154b8565b61377e5760405162461bcd60e51b8152600401610fab90615766565b60c9546001600160a01b03166351bf120c33611c1f565b6065546001600160a01b031633146137bf5760405162461bcd60e51b8152600401610fab9061578d565b60de80549115156101000261ff0019909216919091179055565b606060378054610fee906159f3565b6065546001600160a01b031633146138125760405162461bcd60e51b8152600401610fab9061578d565b60008160d65460d55460d3546138289190615957565b6138329190615957565b61383c9190615957565b9050606481111561385f5760405162461bcd60e51b8152600401610fab906157e7565b60d49190915560d755565b6065546001600160a01b031633146138945760405162461bcd60e51b8152600401610fab9061578d565b60cd546001600160a01b03838116911614156139065760405162461bcd60e51b815260206004820152602b60248201527f544b4e3a205468652050616e63616b655377617020706169722063616e6e6f7460448201526a081899481c995b5bdd995960aa1b6064820152608401610fab565b6139108282613fbe565b5050565b6060336139335760405162461bcd60e51b8152600401610fab906157c2565b60c9546001600160a01b031663665bb078336040516001600160e01b031960e084901b1681526001600160a01b03909116600482015260240160206040518083038186803b15801561398457600080fd5b505afa158015613998573d6000803e3d6000fd5b505050506040513d601f19601f820116820180604052508101906139bc91906154b8565b6139d85760405162461bcd60e51b8152600401610fab90615766565b60c9546001600160a01b031663367fd07433611c1f565b6065546001600160a01b03163314613a195760405162461bcd60e51b8152600401610fab9061578d565b60d9805460ff1916911515919091179055565b3360008181526034602090815260408083206001600160a01b038716845290915281205490919083811015613ab15760405162461bcd60e51b815260206004820152602560248201527f45524332303a2064656372656173656420616c6c6f77616e63652062656c6f77604482015264207a65726f60d81b6064820152608401610fab565b613abe828686840361415d565b506001949350505050565b60c9546040805163e18f03ad60e01b815290516000926001600160a01b03169163e18f03ad916004808301926020929190829003018186803b158015611a1557600080fd5b6000336118f4818585614471565b6065546001600160a01b03163314613b465760405162461bcd60e51b8152600401610fab9061578d565b60de805460ff1916911515919091179055565b6065546000906001600160a01b03163314613b865760405162461bcd60e51b8152600401610fab9061578d565b60c9546040516330cd31af60e11b81526001600160a01b0384811660048301529091169063619a635e90602401611df9565b919050565b6065546001600160a01b03163314613be75760405162461bcd60e51b8152600401610fab9061578d565b60c954604051631c864c8f60e11b8152600481018390526001600160a01b039091169063390c991e90602401600060405180830381600087803b158015613c2d57600080fd5b505af115801561313b573d6000803e3d6000fd5b6065546001600160a01b03163314613c6b5760405162461bcd60e51b8152600401610fab9061578d565b60d180546001600160a01b0319166001600160a01b0392909216919091179055565b6065546001600160a01b03163314613cb75760405162461bcd60e51b8152600401610fab9061578d565b60c954604051631d5a173160e01b81526001600160a01b0390911690631d5a173190611b1290859085906004016156a7565b606033613d085760405162461bcd60e51b8152600401610fab906157c2565b60c9546001600160a01b031663665bb078336040516001600160e01b031960e084901b1681526001600160a01b03909116600482015260240160206040518083038186803b158015613d5957600080fd5b505afa158015613d6d573d6000803e3d6000fd5b505050506040513d601f19601f82011682018060405250810190613d9191906154b8565b613dad5760405162461bcd60e51b8152600401610fab90615766565b60c9546001600160a01b03166328cceb2433611c1f565b6065546001600160a01b03163314613dee5760405162461bcd60e51b8152600401610fab9061578d565b60d280546001600160a01b0319166001600160a01b0392909216919091179055565b6065546001600160a01b03163314613e3a5760405162461bcd60e51b8152600401610fab9061578d565b6001600160a01b038116613e9f5760405162461bcd60e51b815260206004820152602660248201527f4f776e61626c653a206e6577206f776e657220697320746865207a65726f206160448201526564647265737360d01b6064820152608401610fab565b613ea881614a2d565b50565b6065546001600160a01b03163314613ed55760405162461bcd60e51b8152600401610fab9061578d565b60008160d45460d55460d354613eeb9190615957565b613ef59190615957565b613eff9190615957565b90506064811115613f225760405162461bcd60e51b8152600401610fab906157e7565b60d69190915560d755565b600054610100900460ff16613f545760405162461bcd60e51b8152600401610fab9061581e565b613300614a7f565b600054610100900460ff16613f835760405162461bcd60e51b8152600401610fab9061581e565b6139108282614aaf565b600054610100900460ff16613fb45760405162461bcd60e51b8152600401610fab9061581e565b6139108282614afd565b6001600160a01b038216600090815260dd602052604090205460ff16151581151514156140535760405162461bcd60e51b815260206004820152603d60248201527f544b4e3a204175746f6d61746564206d61726b6574206d616b6572207061697260448201527f20697320616c72656164792073657420746f20746861742076616c75650000006064820152608401610fab565b6001600160a01b0391909116600090815260dd60205260409020805460ff1916911515919091179055565b6001600160a01b0382166140d45760405162461bcd60e51b815260206004820152601f60248201527f45524332303a206d696e7420746f20746865207a65726f2061646472657373006044820152606401610fab565b80603560008282546140e69190615957565b90915550506001600160a01b03821660009081526033602052604081208054839290614113908490615957565b90915550506040518181526001600160a01b038316906000907fddf252ad1be2c89b69c2b068fc378daa952ba7f163c4a11628f55a4df523b3ef9060200160405180910390a35050565b6001600160a01b0383166141bf5760405162461bcd60e51b8152602060048201526024808201527f45524332303a20617070726f76652066726f6d20746865207a65726f206164646044820152637265737360e01b6064820152608401610fab565b6001600160a01b0382166142205760405162461bcd60e51b815260206004820152602260248201527f45524332303a20617070726f766520746f20746865207a65726f206164647265604482015261737360f01b6064820152608401610fab565b6001600160a01b0383811660008181526034602090815260408083209487168084529482529182902085905590518481527f8c5be1e5ebec7d5bd14f71427d1e84f3dd0314c0f7b2291e5b200ac8c7c3b925910160405180910390a3505050565b6097546001600160a01b038416600090815260996020526040812054909183916142ab9086615991565b6142b5919061596f565b6142bf91906159b0565b949350505050565b804710156143175760405162461bcd60e51b815260206004820152601d60248201527f416464726573733a20696e73756666696369656e742062616c616e63650000006044820152606401610fab565b6000826001600160a01b03168260405160006040518083038185875af1925050503d8060008114614364576040519150601f19603f3d011682016040523d82523d6000602084013e614369565b606091505b50509050806143e05760405162461bcd60e51b815260206004820152603a60248201527f416464726573733a20756e61626c6520746f2073656e642076616c75652c207260448201527f6563697069656e74206d617920686176652072657665727465640000000000006064820152608401610fab565b505050565b6001600160a01b038381166000908152603460209081526040808320938616835292905220546000198114612ab657818110156144645760405162461bcd60e51b815260206004820152601d60248201527f45524332303a20696e73756666696369656e7420616c6c6f77616e63650000006044820152606401610fab565b612ab6848484840361415d565b6001600160a01b038316600090815260dc602052604090205460ff161580156144b357506001600160a01b038216600090815260dc602052604090205460ff16155b6144ff5760405162461bcd60e51b815260206004820152601a60248201527f45524332303a20426c61636b6c697374656420616464726573730000000000006044820152606401610fab565b6143e083838361453d565b60c9546040516344fea1b960e01b81526001600160a01b03838116600483015260009216906344fea1b990602401611df9565b6001600160a01b0383166145a15760405162461bcd60e51b815260206004820152602560248201527f45524332303a207472616e736665722066726f6d20746865207a65726f206164604482015264647265737360d81b6064820152608401610fab565b6001600160a01b0382166146035760405162461bcd60e51b815260206004820152602360248201527f45524332303a207472616e7366657220746f20746865207a65726f206164647260448201526265737360e81b6064820152608401610fab565b6001600160a01b0383166000908152603360205260409020548181101561467b5760405162461bcd60e51b815260206004820152602660248201527f45524332303a207472616e7366657220616d6f756e7420657863656564732062604482015265616c616e636560d01b6064820152608401610fab565b6001600160a01b038085166000908152603360205260408082208585039055918516815290812080548492906146b2908490615957565b92505081905550826001600160a01b0316846001600160a01b03167fddf252ad1be2c89b69c2b068fc378daa952ba7f163c4a11628f55a4df523b3ef846040516146fe91815260200190565b60405180910390a3612ab6565b6040805160038082526080820190925260009160208201606080368337019050509050308160008151811061474257614742615a5f565b6001600160a01b0392831660209182029290920181019190915260ca54604080516339d94ae160e11b8152905191909316926373b295c2926004808301939192829003018186803b15801561479657600080fd5b505afa1580156147aa573d6000803e3d6000fd5b505050506040513d601f19601f820116820180604052508101906147ce91906151b2565b816001815181106147e1576147e1615a5f565b6001600160a01b03928316602091820292909201015260db5482519116908290600290811061481257614812615a5f565b6001600160a01b03928316602091820292909201015260ca54614838913091168461415d565b60ca54604051635c11d79560e01b81526001600160a01b0390911690635c11d79590614871908590600090869089904290600401615869565b600060405180830381600087803b15801561488b57600080fd5b505af115801561489f573d6000803e3d6000fd5b50505050505050565b60408051600280825260608201835260009260208301908036833701905050905030816000815181106148dd576148dd615a5f565b6001600160a01b0392831660209182029290920181019190915260ca54604080516339d94ae160e11b8152905191909316926373b295c2926004808301939192829003018186803b15801561493157600080fd5b505afa158015614945573d6000803e3d6000fd5b505050506040513d601f19601f8201168201806040525081019061496991906151b2565b8160018151811061497c5761497c615a5f565b6001600160a01b03928316602091820292909201015260ca546149a2913091168461415d565b60ca54604051633b158ab160e11b81526001600160a01b039091169063762b156290614871908590600090869089904290600401615869565b604080516001600160a01b038416602482015260448082018490528251808303909101815260649091019091526020810180516001600160e01b031663a9059cbb60e01b1790526143e0908490614c3b565b606580546001600160a01b038381166001600160a01b0319831681179093556040519116919082907f8be0079c531659141344cd1fd0a4f28419497f9722a3daafe3b4186f6b6457e090600090a35050565b600054610100900460ff16614aa65760405162461bcd60e51b8152600401610fab9061581e565b61330033614a2d565b600054610100900460ff16614ad65760405162461bcd60e51b8152600401610fab9061581e565b8151614ae9906036906020850190615007565b5080516143e0906037906020840190615007565b600054610100900460ff16614b245760405162461bcd60e51b8152600401610fab9061581e565b8051825114614b905760405162461bcd60e51b815260206004820152603260248201527f5061796d656e7453706c69747465723a2070617965657320616e6420736861726044820152710cae640d8cadccee8d040dad2e6dac2e8c6d60731b6064820152608401610fab565b6000825111614be15760405162461bcd60e51b815260206004820152601a60248201527f5061796d656e7453706c69747465723a206e6f207061796565730000000000006044820152606401610fab565b60005b82518110156143e057614c29838281518110614c0257614c02615a5f565b6020026020010151838381518110614c1c57614c1c615a5f565b6020026020010151614d0d565b80614c3381615a2e565b915050614be4565b6000614c90826040518060400160405280602081526020017f5361666545524332303a206c6f772d6c6576656c2063616c6c206661696c6564815250856001600160a01b0316614ef39092919063ffffffff16565b8051909150156143e05780806020019051810190614cae91906154b8565b6143e05760405162461bcd60e51b815260206004820152602a60248201527f5361666545524332303a204552433230206f7065726174696f6e20646964206e6044820152691bdd081cdd58d8d9595960b21b6064820152608401610fab565b6001600160a01b038216614d785760405162461bcd60e51b815260206004820152602c60248201527f5061796d656e7453706c69747465723a206163636f756e74206973207468652060448201526b7a65726f206164647265737360a01b6064820152608401610fab565b60008111614dc85760405162461bcd60e51b815260206004820152601d60248201527f5061796d656e7453706c69747465723a207368617265732061726520300000006044820152606401610fab565b6001600160a01b03821660009081526099602052604090205415614e425760405162461bcd60e51b815260206004820152602b60248201527f5061796d656e7453706c69747465723a206163636f756e7420616c726561647960448201526a206861732073686172657360a81b6064820152608401610fab565b609b8054600181019091557fbba9db4cdbea0a37c207bbb83e20f828cd4441c49891101dc94fd20dc8efc3490180546001600160a01b0319166001600160a01b0384169081179091556000908152609960205260409020819055609754614eaa908290615957565b609755604080516001600160a01b0384168152602081018390527f40c340f65e17194d14ddddb073d3c9f888e3cb52b5aae0c6c7706b4fbc905fac910160405180910390a15050565b60606142bf8484600085856001600160a01b0385163b614f555760405162461bcd60e51b815260206004820152601d60248201527f416464726573733a2063616c6c20746f206e6f6e2d636f6e74726163740000006044820152606401610fab565b600080866001600160a01b03168587604051614f719190615603565b60006040518083038185875af1925050503d8060008114614fae576040519150601f19603f3d011682016040523d82523d6000602084013e614fb3565b606091505b5091509150614fc3828286614fce565b979650505050505050565b60608315614fdd575081611e99565b825115614fed5782518084602001fd5b8160405162461bcd60e51b8152600401610fab91906156c2565b828054615013906159f3565b90600052602060002090601f016020900481019282615035576000855561507b565b82601f1061504e57805160ff191683800117855561507b565b8280016001018555821561507b579182015b8281111561507b578251825591602001919060010190615060565b5061508792915061508b565b5090565b5b80821115615087576000815560010161508c565b8035613bb881615a8b565b600082601f8301126150bc57600080fd5b813560206150d16150cc8361590b565b6158da565b80838252828201915082860187848660051b89010111156150f157600080fd5b60005b8581101561511957813561510781615a8b565b845292840192908401906001016150f4565b5090979650505050505050565b600082601f83011261513757600080fd5b813560206151476150cc8361590b565b80838252828201915082860187848660051b890101111561516757600080fd5b60005b858110156151195781358452928401929084019060010161516a565b803560038110613bb857600080fd5b6000602082840312156151a757600080fd5b8135611e9981615a8b565b6000602082840312156151c457600080fd5b8151611e9981615a8b565b600080604083850312156151e257600080fd5b82356151ed81615a8b565b915060208301356151fd81615a8b565b809150509250929050565b60008060006060848603121561521d57600080fd5b833561522881615a8b565b9250602084013561523881615a8b565b929592945050506040919091013590565b6000806040838503121561525c57600080fd5b823561526781615a8b565b915060208301356151fd81615aa0565b6000806040838503121561528a57600080fd5b823561529581615a8b565b946020939093013593505050565b600080600080600080600060e0888a0312156152be57600080fd5b873567ffffffffffffffff808211156152d657600080fd5b6152e28b838c016150ab565b985060208a01359150808211156152f857600080fd5b6153048b838c01615126565b975060408a013591508082111561531a57600080fd5b6153268b838c016150ab565b965060608a013591508082111561533c57600080fd5b6153488b838c01615126565b955060808a013591508082111561535e57600080fd5b5061536b8a828b01615126565b93505061537a60a089016150a0565b915061538860c089016150a0565b905092959891949750929550565b60008060408084860312156153aa57600080fd5b833567ffffffffffffffff808211156153c257600080fd5b818601915086601f8301126153d657600080fd5b813560206153e66150cc8361590b565b8083825282820191508286018b848660051b890101111561540657600080fd5b60005b8581101561547b5781358781111561542057600080fd5b8801603f81018e1361543157600080fd5b858101356154416150cc8261592f565b8181528f8c83850101111561545557600080fd5b818c84018983013760009181018801919091528552509284019290840190600101615409565b5050809850505061548d818901615186565b955050505050509250929050565b6000602082840312156154ad57600080fd5b8135611e9981615aa0565b6000602082840312156154ca57600080fd5b8151611e9981615aa0565b6000602082840312156154e757600080fd5b611e9982615186565b6000806040838503121561550357600080fd5b61529583615186565b60006020828403121561551e57600080fd5b815167ffffffffffffffff81111561553557600080fd5b8201601f8101841361554657600080fd5b80516155546150cc8261592f565b81815285602083850101111561556957600080fd5b61557a8260208301602086016159c7565b95945050505050565b60006020828403121561559557600080fd5b5035919050565b6000602082840312156155ae57600080fd5b5051919050565b600381106155d357634e487b7160e01b600052602160045260246000fd5b9052565b600081518084526155ef8160208601602086016159c7565b601f01601f19169290920160200192915050565b600082516156158184602087016159c7565b9190910192915050565b60006060820160018060a01b0386168352602060608185015281865180845260808601915060808160051b870101935082880160005b8281101561568357607f198887030184526156718683516155d7565b95509284019290840190600101615655565b5050505050809150506142bf60408301846155b5565b602081016118fa82846155b5565b604081016156b582856155b5565b8260208301529392505050565b602081526000611e9960208301846155d7565b60208082526026908201527f5061796d656e7453706c69747465723a206163636f756e7420686173206e6f2060408201526573686172657360d01b606082015260800190565b6020808252602b908201527f5061796d656e7453706c69747465723a206163636f756e74206973206e6f742060408201526a191d59481c185e5b595b9d60aa1b606082015260800190565b6020808252600d908201526c27279021a7a72a1027aba722a960991b604082015260600190565b6020808252818101527f4f776e61626c653a2063616c6c6572206973206e6f7420746865206f776e6572604082015260600190565b6020808252600b908201526a053454e44455220495320360ac1b604082015260600190565b6020808252601a908201527f464545533a20746f74616c20657863656564696e672031303025000000000000604082015260600190565b6020808252602b908201527f496e697469616c697a61626c653a20636f6e7472616374206973206e6f74206960408201526a6e697469616c697a696e6760a81b606082015260800190565b600060a082018783526020878185015260a0604085015281875180845260c086019150828901935060005b818110156158b95784516001600160a01b031683529383019391830191600101615894565b50506001600160a01b03969096166060850152505050608001529392505050565b604051601f8201601f1916810167ffffffffffffffff8111828210171561590357615903615a75565b604052919050565b600067ffffffffffffffff82111561592557615925615a75565b5060051b60200190565b600067ffffffffffffffff82111561594957615949615a75565b50601f01601f191660200190565b6000821982111561596a5761596a615a49565b500190565b60008261598c57634e487b7160e01b600052601260045260246000fd5b500490565b60008160001904831182151516156159ab576159ab615a49565b500290565b6000828210156159c2576159c2615a49565b500390565b60005b838110156159e25781810151838201526020016159ca565b83811115612ab65750506000910152565b600181811c90821680615a0757607f821691505b60208210811415615a2857634e487b7160e01b600052602260045260246000fd5b50919050565b6000600019821415615a4257615a42615a49565b5060010190565b634e487b7160e01b600052601160045260246000fd5b634e487b7160e01b600052603260045260246000fd5b634e487b7160e01b600052604160045260246000fd5b6001600160a01b0381168114613ea857600080fd5b8015158114613ea857600080fdfea164736f6c6343000807000a",
  "devdoc": {
    "kind": "dev",
    "methods": {
      "allowance(address,address)": {
        "details": "See {IERC20-allowance}."
      },
      "approve(address,uint256)": {
        "details": "See {IERC20-approve}. NOTE: If `amount` is the maximum `uint256`, the allowance is not updated on `transferFrom`. This is semantically equivalent to an infinite approval. Requirements: - `spender` cannot be the zero address."
      },
      "balanceOf(address)": {
        "details": "See {IERC20-balanceOf}."
      },
      "decimals()": {
        "details": "Returns the number of decimals used to get its user representation. For example, if `decimals` equals `2`, a balance of `505` tokens should be displayed to a user as `5.05` (`505 / 10 ** 2`). Tokens usually opt for a value of 18, imitating the relationship between Ether and Wei. This is the value {ERC20} uses, unless this function is overridden; NOTE: This information is only used for _display_ purposes: it in no way affects any of the arithmetic of the contract, including {IERC20-balanceOf} and {IERC20-transfer}."
      },
      "decreaseAllowance(address,uint256)": {
        "details": "Atomically decreases the allowance granted to `spender` by the caller. This is an alternative to {approve} that can be used as a mitigation for problems described in {IERC20-approve}. Emits an {Approval} event indicating the updated allowance. Requirements: - `spender` cannot be the zero address. - `spender` must have allowance for the caller of at least `subtractedValue`."
      },
      "increaseAllowance(address,uint256)": {
        "details": "Atomically increases the allowance granted to `spender` by the caller. This is an alternative to {approve} that can be used as a mitigation for problems described in {IERC20-approve}. Emits an {Approval} event indicating the updated allowance. Requirements: - `spender` cannot be the zero address."
      },
      "name()": {
        "details": "Returns the name of the token."
      },
      "owner()": {
        "details": "Returns the address of the current owner."
      },
      "payee(uint256)": {
        "details": "Getter for the address of the payee number `index`."
      },
      "release(address)": {
        "details": "Triggers a transfer to `account` of the amount of Ether they are owed, according to their percentage of the total shares and their previous withdrawals."
      },
      "release(address,address)": {
        "details": "Triggers a transfer to `account` of the amount of `token` tokens they are owed, according to their percentage of the total shares and their previous withdrawals. `token` must be the address of an IERC20 contract."
      },
      "released(address)": {
        "details": "Getter for the amount of Ether already released to a payee."
      },
      "released(address,address)": {
        "details": "Getter for the amount of `token` tokens already released to a payee. `token` should be the address of an IERC20 contract."
      },
      "renounceOwnership()": {
        "details": "Leaves the contract without owner. It will not be possible to call `onlyOwner` functions anymore. Can only be called by the current owner. NOTE: Renouncing ownership will leave the contract without an owner, thereby removing any functionality that is only available to the owner."
      },
      "shares(address)": {
        "details": "Getter for the amount of shares held by an account."
      },
      "symbol()": {
        "details": "Returns the symbol of the token, usually a shorter version of the name."
      },
      "totalReleased()": {
        "details": "Getter for the total amount of Ether already released."
      },
      "totalReleased(address)": {
        "details": "Getter for the total amount of `token` already released. `token` should be the address of an IERC20 contract."
      },
      "totalShares()": {
        "details": "Getter for the total shares held by payees."
      },
      "totalSupply()": {
        "details": "See {IERC20-totalSupply}."
      },
      "transfer(address,uint256)": {
        "details": "See {IERC20-transfer}. Requirements: - `to` cannot be the zero address. - the caller must have a balance of at least `amount`."
      },
      "transferFrom(address,address,uint256)": {
        "details": "See {IERC20-transferFrom}. Emits an {Approval} event indicating the updated allowance. This is not required by the EIP. See the note at the beginning of {ERC20}. NOTE: Does not update the allowance if the current allowance is the maximum `uint256`. Requirements: - `from` and `to` cannot be the zero address. - `from` must have a balance of at least `amount`. - the caller must have allowance for ``from``'s tokens of at least `amount`."
      },
      "transferOwnership(address)": {
        "details": "Transfers ownership of the contract to a new account (`newOwner`). Can only be called by the current owner."
      }
    },
    "version": 1
  },
  "userdoc": {
    "kind": "user",
    "methods": {},
    "version": 1
  },
  "storageLayout": {
    "storage": [
      {
        "astId": 598,
        "contract": "contracts/ZeroXBlocksV1.sol:ZeroXBlocksV1",
        "label": "_initialized",
        "offset": 0,
        "slot": "0",
        "type": "t_bool"
      },
      {
        "astId": 601,
        "contract": "contracts/ZeroXBlocksV1.sol:ZeroXBlocksV1",
        "label": "_initializing",
        "offset": 1,
        "slot": "0",
        "type": "t_bool"
      },
      {
        "astId": 1889,
        "contract": "contracts/ZeroXBlocksV1.sol:ZeroXBlocksV1",
        "label": "__gap",
        "offset": 0,
        "slot": "1",
        "type": "t_array(t_uint256)50_storage"
      },
      {
        "astId": 684,
        "contract": "contracts/ZeroXBlocksV1.sol:ZeroXBlocksV1",
        "label": "_balances",
        "offset": 0,
        "slot": "51",
        "type": "t_mapping(t_address,t_uint256)"
      },
      {
        "astId": 690,
        "contract": "contracts/ZeroXBlocksV1.sol:ZeroXBlocksV1",
        "label": "_allowances",
        "offset": 0,
        "slot": "52",
        "type": "t_mapping(t_address,t_mapping(t_address,t_uint256))"
      },
      {
        "astId": 692,
        "contract": "contracts/ZeroXBlocksV1.sol:ZeroXBlocksV1",
        "label": "_totalSupply",
        "offset": 0,
        "slot": "53",
        "type": "t_uint256"
      },
      {
        "astId": 694,
        "contract": "contracts/ZeroXBlocksV1.sol:ZeroXBlocksV1",
        "label": "_name",
        "offset": 0,
        "slot": "54",
        "type": "t_string_storage"
      },
      {
        "astId": 696,
        "contract": "contracts/ZeroXBlocksV1.sol:ZeroXBlocksV1",
        "label": "_symbol",
        "offset": 0,
        "slot": "55",
        "type": "t_string_storage"
      },
      {
        "astId": 1277,
        "contract": "contracts/ZeroXBlocksV1.sol:ZeroXBlocksV1",
        "label": "__gap",
        "offset": 0,
        "slot": "56",
        "type": "t_array(t_uint256)45_storage"
      },
      {
        "astId": 10,
        "contract": "contracts/ZeroXBlocksV1.sol:ZeroXBlocksV1",
        "label": "_owner",
        "offset": 0,
        "slot": "101",
        "type": "t_address"
      },
      {
        "astId": 122,
        "contract": "contracts/ZeroXBlocksV1.sol:ZeroXBlocksV1",
        "label": "__gap",
        "offset": 0,
        "slot": "102",
        "type": "t_array(t_uint256)49_storage"
      },
      {
        "astId": 163,
        "contract": "contracts/ZeroXBlocksV1.sol:ZeroXBlocksV1",
        "label": "_totalShares",
        "offset": 0,
        "slot": "151",
        "type": "t_uint256"
      },
      {
        "astId": 165,
        "contract": "contracts/ZeroXBlocksV1.sol:ZeroXBlocksV1",
        "label": "_totalReleased",
        "offset": 0,
        "slot": "152",
        "type": "t_uint256"
      },
      {
        "astId": 169,
        "contract": "contracts/ZeroXBlocksV1.sol:ZeroXBlocksV1",
        "label": "_shares",
        "offset": 0,
        "slot": "153",
        "type": "t_mapping(t_address,t_uint256)"
      },
      {
        "astId": 173,
        "contract": "contracts/ZeroXBlocksV1.sol:ZeroXBlocksV1",
        "label": "_released",
        "offset": 0,
        "slot": "154",
        "type": "t_mapping(t_address,t_uint256)"
      },
      {
        "astId": 176,
        "contract": "contracts/ZeroXBlocksV1.sol:ZeroXBlocksV1",
        "label": "_payees",
        "offset": 0,
        "slot": "155",
        "type": "t_array(t_address)dyn_storage"
      },
      {
        "astId": 181,
        "contract": "contracts/ZeroXBlocksV1.sol:ZeroXBlocksV1",
        "label": "_erc20TotalReleased",
        "offset": 0,
        "slot": "156",
        "type": "t_mapping(t_contract(IERC20Upgradeable)1356,t_uint256)"
      },
      {
        "astId": 188,
        "contract": "contracts/ZeroXBlocksV1.sol:ZeroXBlocksV1",
        "label": "_erc20Released",
        "offset": 0,
        "slot": "157",
        "type": "t_mapping(t_contract(IERC20Upgradeable)1356,t_mapping(t_address,t_uint256))"
      },
      {
        "astId": 590,
        "contract": "contracts/ZeroXBlocksV1.sol:ZeroXBlocksV1",
        "label": "__gap",
        "offset": 0,
        "slot": "158",
        "type": "t_array(t_uint256)43_storage"
      },
      {
        "astId": 1910,
        "contract": "contracts/ZeroXBlocksV1.sol:ZeroXBlocksV1",
        "label": "_crm",
        "offset": 0,
        "slot": "201",
        "type": "t_contract(CONTRewardManagement)5794"
      },
      {
        "astId": 1913,
        "contract": "contracts/ZeroXBlocksV1.sol:ZeroXBlocksV1",
        "label": "uniswapV2Router",
        "offset": 0,
        "slot": "202",
        "type": "t_contract(IJoeRouter02)6263"
      },
      {
        "astId": 1918,
        "contract": "contracts/ZeroXBlocksV1.sol:ZeroXBlocksV1",
        "label": "ownedContsLimit",
        "offset": 0,
        "slot": "203",
        "type": "t_uint256"
      },
      {
        "astId": 1920,
        "contract": "contracts/ZeroXBlocksV1.sol:ZeroXBlocksV1",
        "label": "mintContLimit",
        "offset": 0,
        "slot": "204",
        "type": "t_uint256"
      },
      {
        "astId": 1922,
        "contract": "contracts/ZeroXBlocksV1.sol:ZeroXBlocksV1",
        "label": "uniswapV2Pair",
        "offset": 0,
        "slot": "205",
        "type": "t_address"
      },
      {
        "astId": 1924,
        "contract": "contracts/ZeroXBlocksV1.sol:ZeroXBlocksV1",
        "label": "totalTokensPaidForMinting",
        "offset": 0,
        "slot": "206",
        "type": "t_uint256"
      },
      {
        "astId": 1926,
        "contract": "contracts/ZeroXBlocksV1.sol:ZeroXBlocksV1",
        "label": "developmentFundPool",
        "offset": 0,
        "slot": "207",
        "type": "t_address"
      },
      {
        "astId": 1928,
        "contract": "contracts/ZeroXBlocksV1.sol:ZeroXBlocksV1",
        "label": "treasuryPool",
        "offset": 0,
        "slot": "208",
        "type": "t_address"
      },
      {
        "astId": 1930,
        "contract": "contracts/ZeroXBlocksV1.sol:ZeroXBlocksV1",
        "label": "rewardsPool",
        "offset": 0,
        "slot": "209",
        "type": "t_address"
      },
      {
        "astId": 1932,
        "contract": "contracts/ZeroXBlocksV1.sol:ZeroXBlocksV1",
        "label": "liquidityPool",
        "offset": 0,
        "slot": "210",
        "type": "t_address"
      },
      {
        "astId": 1934,
        "contract": "contracts/ZeroXBlocksV1.sol:ZeroXBlocksV1",
        "label": "rewardsFee",
        "offset": 0,
        "slot": "211",
        "type": "t_uint256"
      },
      {
        "astId": 1936,
        "contract": "contracts/ZeroXBlocksV1.sol:ZeroXBlocksV1",
        "label": "treasuryFee",
        "offset": 0,
        "slot": "212",
        "type": "t_uint256"
      },
      {
        "astId": 1938,
        "contract": "contracts/ZeroXBlocksV1.sol:ZeroXBlocksV1",
        "label": "liquidityPoolFee",
        "offset": 0,
        "slot": "213",
        "type": "t_uint256"
      },
      {
        "astId": 1940,
        "contract": "contracts/ZeroXBlocksV1.sol:ZeroXBlocksV1",
        "label": "developmentFee",
        "offset": 0,
        "slot": "214",
        "type": "t_uint256"
      },
      {
        "astId": 1942,
        "contract": "contracts/ZeroXBlocksV1.sol:ZeroXBlocksV1",
        "label": "totalFees",
        "offset": 0,
        "slot": "215",
        "type": "t_uint256"
      },
      {
        "astId": 1944,
        "contract": "contracts/ZeroXBlocksV1.sol:ZeroXBlocksV1",
        "label": "cashoutFee",
        "offset": 0,
        "slot": "216",
        "type": "t_uint256"
      },
      {
        "astId": 1946,
        "contract": "contracts/ZeroXBlocksV1.sol:ZeroXBlocksV1",
        "label": "enableAutoSwapTreasury",
        "offset": 0,
        "slot": "217",
        "type": "t_bool"
      },
      {
        "astId": 1948,
        "contract": "contracts/ZeroXBlocksV1.sol:ZeroXBlocksV1",
        "label": "enableAutoSwapDevFund",
        "offset": 1,
        "slot": "217",
        "type": "t_bool"
      },
      {
        "astId": 1950,
        "contract": "contracts/ZeroXBlocksV1.sol:ZeroXBlocksV1",
        "label": "swapTokensAmount",
        "offset": 0,
        "slot": "218",
        "type": "t_uint256"
      },
      {
        "astId": 1952,
        "contract": "contracts/ZeroXBlocksV1.sol:ZeroXBlocksV1",
        "label": "usdcToken",
        "offset": 0,
        "slot": "219",
        "type": "t_address"
      },
      {
        "astId": 1956,
        "contract": "contracts/ZeroXBlocksV1.sol:ZeroXBlocksV1",
        "label": "_isBlacklisted",
        "offset": 0,
        "slot": "220",
        "type": "t_mapping(t_address,t_bool)"
      },
      {
        "astId": 1960,
        "contract": "contracts/ZeroXBlocksV1.sol:ZeroXBlocksV1",
        "label": "automatedMarketMakerPairs",
        "offset": 0,
        "slot": "221",
        "type": "t_mapping(t_address,t_bool)"
      },
      {
        "astId": 1963,
        "contract": "contracts/ZeroXBlocksV1.sol:ZeroXBlocksV1",
        "label": "enableCashout",
        "offset": 0,
        "slot": "222",
        "type": "t_bool"
      },
      {
        "astId": 1966,
        "contract": "contracts/ZeroXBlocksV1.sol:ZeroXBlocksV1",
        "label": "enableMintConts",
        "offset": 1,
        "slot": "222",
        "type": "t_bool"
      }
    ],
    "types": {
      "t_address": {
        "encoding": "inplace",
        "label": "address",
        "numberOfBytes": "20"
      },
      "t_array(t_address)dyn_storage": {
        "base": "t_address",
        "encoding": "dynamic_array",
        "label": "address[]",
        "numberOfBytes": "32"
      },
      "t_array(t_uint256)43_storage": {
        "base": "t_uint256",
        "encoding": "inplace",
        "label": "uint256[43]",
        "numberOfBytes": "1376"
      },
      "t_array(t_uint256)45_storage": {
        "base": "t_uint256",
        "encoding": "inplace",
        "label": "uint256[45]",
        "numberOfBytes": "1440"
      },
      "t_array(t_uint256)49_storage": {
        "base": "t_uint256",
        "encoding": "inplace",
        "label": "uint256[49]",
        "numberOfBytes": "1568"
      },
      "t_array(t_uint256)50_storage": {
        "base": "t_uint256",
        "encoding": "inplace",
        "label": "uint256[50]",
        "numberOfBytes": "1600"
      },
      "t_bool": {
        "encoding": "inplace",
        "label": "bool",
        "numberOfBytes": "1"
      },
      "t_contract(CONTRewardManagement)5794": {
        "encoding": "inplace",
        "label": "contract CONTRewardManagement",
        "numberOfBytes": "20"
      },
      "t_contract(IERC20Upgradeable)1356": {
        "encoding": "inplace",
        "label": "contract IERC20Upgradeable",
        "numberOfBytes": "20"
      },
      "t_contract(IJoeRouter02)6263": {
        "encoding": "inplace",
        "label": "contract IJoeRouter02",
        "numberOfBytes": "20"
      },
      "t_mapping(t_address,t_bool)": {
        "encoding": "mapping",
        "key": "t_address",
        "label": "mapping(address => bool)",
        "numberOfBytes": "32",
        "value": "t_bool"
      },
      "t_mapping(t_address,t_mapping(t_address,t_uint256))": {
        "encoding": "mapping",
        "key": "t_address",
        "label": "mapping(address => mapping(address => uint256))",
        "numberOfBytes": "32",
        "value": "t_mapping(t_address,t_uint256)"
      },
      "t_mapping(t_address,t_uint256)": {
        "encoding": "mapping",
        "key": "t_address",
        "label": "mapping(address => uint256)",
        "numberOfBytes": "32",
        "value": "t_uint256"
      },
      "t_mapping(t_contract(IERC20Upgradeable)1356,t_mapping(t_address,t_uint256))": {
        "encoding": "mapping",
        "key": "t_contract(IERC20Upgradeable)1356",
        "label": "mapping(contract IERC20Upgradeable => mapping(address => uint256))",
        "numberOfBytes": "32",
        "value": "t_mapping(t_address,t_uint256)"
      },
      "t_mapping(t_contract(IERC20Upgradeable)1356,t_uint256)": {
        "encoding": "mapping",
        "key": "t_contract(IERC20Upgradeable)1356",
        "label": "mapping(contract IERC20Upgradeable => uint256)",
        "numberOfBytes": "32",
        "value": "t_uint256"
      },
      "t_string_storage": {
        "encoding": "bytes",
        "label": "string",
        "numberOfBytes": "32"
      },
      "t_uint256": {
        "encoding": "inplace",
        "label": "uint256",
        "numberOfBytes": "32"
      }
    }
  }
}