{
  "address": "0x6eEDa766291Af7da645A42958Ce0D9E526a0Cd59",
  "abi": [
    {
      "anonymous": false,
      "inputs": [
        {
          "indexed": true,
          "internalType": "address",
          "name": "owner",
          "type": "address"
        },
        {
          "indexed": true,
          "internalType": "address",
          "name": "spender",
          "type": "address"
        },
        {
          "indexed": false,
          "internalType": "uint256",
          "name": "value",
          "type": "uint256"
        }
      ],
      "name": "Approval",
      "type": "event"
    },
    {
      "anonymous": false,
      "inputs": [
        {
          "indexed": false,
          "internalType": "address",
          "name": "sender",
          "type": "address"
        }
      ],
      "name": "ContsMinted",
      "type": "event"
    },
    {
      "anonymous": false,
      "inputs": [
        {
          "indexed": true,
          "internalType": "contract IERC20Upgradeable",
          "name": "token",
          "type": "address"
        },
        {
          "indexed": false,
          "internalType": "address",
          "name": "to",
          "type": "address"
        },
        {
          "indexed": false,
          "internalType": "uint256",
          "name": "amount",
          "type": "uint256"
        }
      ],
      "name": "ERC20PaymentReleased",
      "type": "event"
    },
    {
      "anonymous": false,
      "inputs": [
        {
          "indexed": true,
          "internalType": "address",
          "name": "previousOwner",
          "type": "address"
        },
        {
          "indexed": true,
          "internalType": "address",
          "name": "newOwner",
          "type": "address"
        }
      ],
      "name": "OwnershipTransferred",
      "type": "event"
    },
    {
      "anonymous": false,
      "inputs": [
        {
          "indexed": false,
          "internalType": "address",
          "name": "account",
          "type": "address"
        },
        {
          "indexed": false,
          "internalType": "uint256",
          "name": "shares",
          "type": "uint256"
        }
      ],
      "name": "PayeeAdded",
      "type": "event"
    },
    {
      "anonymous": false,
      "inputs": [
        {
          "indexed": false,
          "internalType": "address",
          "name": "from",
          "type": "address"
        },
        {
          "indexed": false,
          "internalType": "uint256",
          "name": "amount",
          "type": "uint256"
        }
      ],
      "name": "PaymentReceived",
      "type": "event"
    },
    {
      "anonymous": false,
      "inputs": [
        {
          "indexed": false,
          "internalType": "address",
          "name": "to",
          "type": "address"
        },
        {
          "indexed": false,
          "internalType": "uint256",
          "name": "amount",
          "type": "uint256"
        }
      ],
      "name": "PaymentReleased",
      "type": "event"
    },
    {
      "anonymous": false,
      "inputs": [
        {
          "indexed": false,
          "internalType": "address",
          "name": "sender",
          "type": "address"
        }
      ],
      "name": "RewardCashoutAll",
      "type": "event"
    },
    {
      "anonymous": false,
      "inputs": [
        {
          "indexed": false,
          "internalType": "address",
          "name": "sender",
          "type": "address"
        },
        {
          "indexed": false,
          "internalType": "uint256",
          "name": "index",
          "type": "uint256"
        }
      ],
      "name": "RewardCashoutOne",
      "type": "event"
    },
    {
      "anonymous": false,
      "inputs": [
        {
          "indexed": true,
          "internalType": "address",
          "name": "from",
          "type": "address"
        },
        {
          "indexed": true,
          "internalType": "address",
          "name": "to",
          "type": "address"
        },
        {
          "indexed": false,
          "internalType": "uint256",
          "name": "value",
          "type": "uint256"
        }
      ],
      "name": "Transfer",
      "type": "event"
    },
    {
      "inputs": [],
      "name": "_crm",
      "outputs": [
        {
          "internalType": "contract CONTRewardManagement",
          "name": "",
          "type": "address"
        }
      ],
      "stateMutability": "view",
      "type": "function"
    },
    {
      "inputs": [
        {
          "internalType": "address",
          "name": "",
          "type": "address"
        }
      ],
      "name": "_isBlacklisted",
      "outputs": [
        {
          "internalType": "bool",
          "name": "",
          "type": "bool"
        }
      ],
      "stateMutability": "view",
      "type": "function"
    },
    {
      "inputs": [
        {
          "internalType": "address",
          "name": "owner",
          "type": "address"
        },
        {
          "internalType": "address",
          "name": "spender",
          "type": "address"
        }
      ],
      "name": "allowance",
      "outputs": [
        {
          "internalType": "uint256",
          "name": "",
          "type": "uint256"
        }
      ],
      "stateMutability": "view",
      "type": "function"
    },
    {
      "inputs": [
        {
          "internalType": "address",
          "name": "spender",
          "type": "address"
        },
        {
          "internalType": "uint256",
          "name": "amount",
          "type": "uint256"
        }
      ],
      "name": "approve",
      "outputs": [
        {
          "internalType": "bool",
          "name": "",
          "type": "bool"
        }
      ],
      "stateMutability": "nonpayable",
      "type": "function"
    },
    {
      "inputs": [
        {
          "internalType": "address",
          "name": "",
          "type": "address"
        }
      ],
      "name": "automatedMarketMakerPairs",
      "outputs": [
        {
          "internalType": "bool",
          "name": "",
          "type": "bool"
        }
      ],
      "stateMutability": "view",
      "type": "function"
    },
    {
      "inputs": [
        {
          "internalType": "address",
          "name": "account",
          "type": "address"
        }
      ],
      "name": "balanceOf",
      "outputs": [
        {
          "internalType": "uint256",
          "name": "",
          "type": "uint256"
        }
      ],
      "stateMutability": "view",
      "type": "function"
    },
    {
      "inputs": [],
      "name": "cashoutAll",
      "outputs": [],
      "stateMutability": "nonpayable",
      "type": "function"
    },
    {
      "inputs": [],
      "name": "cashoutFee",
      "outputs": [
        {
          "internalType": "uint256",
          "name": "",
          "type": "uint256"
        }
      ],
      "stateMutability": "view",
      "type": "function"
    },
    {
      "inputs": [
        {
          "internalType": "uint256",
          "name": "_contIndex",
          "type": "uint256"
        }
      ],
      "name": "cashoutReward",
      "outputs": [],
      "stateMutability": "nonpayable",
      "type": "function"
    },
    {
      "inputs": [
        {
          "internalType": "uint256",
          "name": "newTime",
          "type": "uint256"
        }
      ],
      "name": "changeCashoutTimeout",
      "outputs": [],
      "stateMutability": "nonpayable",
      "type": "function"
    },
    {
      "inputs": [
        {
          "internalType": "enum ContType",
          "name": "_cType",
          "type": "uint8"
        },
        {
          "internalType": "uint256",
          "name": "newPrice",
          "type": "uint256"
        }
      ],
      "name": "changeContPrice",
      "outputs": [],
      "stateMutability": "nonpayable",
      "type": "function"
    },
    {
      "inputs": [
        {
          "internalType": "bool",
          "name": "newVal",
          "type": "bool"
        }
      ],
      "name": "changeEnableAutoSwapDevFund",
      "outputs": [],
      "stateMutability": "nonpayable",
      "type": "function"
    },
    {
      "inputs": [
        {
          "internalType": "bool",
          "name": "newVal",
          "type": "bool"
        }
      ],
      "name": "changeEnableAutoSwapTreasury",
      "outputs": [],
      "stateMutability": "nonpayable",
      "type": "function"
    },
    {
      "inputs": [
        {
          "internalType": "enum ContType",
          "name": "_cType",
          "type": "uint8"
        },
        {
          "internalType": "int256",
          "name": "deductPcent",
          "type": "int256"
        }
      ],
      "name": "changeRewardAPRPerCont",
      "outputs": [],
      "stateMutability": "nonpayable",
      "type": "function"
    },
    {
      "inputs": [],
      "name": "decimals",
      "outputs": [
        {
          "internalType": "uint8",
          "name": "",
          "type": "uint8"
        }
      ],
      "stateMutability": "view",
      "type": "function"
    },
    {
      "inputs": [
        {
          "internalType": "address",
          "name": "spender",
          "type": "address"
        },
        {
          "internalType": "uint256",
          "name": "subtractedValue",
          "type": "uint256"
        }
      ],
      "name": "decreaseAllowance",
      "outputs": [
        {
          "internalType": "bool",
          "name": "",
          "type": "bool"
        }
      ],
      "stateMutability": "nonpayable",
      "type": "function"
    },
    {
      "inputs": [],
      "name": "developmentFee",
      "outputs": [
        {
          "internalType": "uint256",
          "name": "",
          "type": "uint256"
        }
      ],
      "stateMutability": "view",
      "type": "function"
    },
    {
      "inputs": [],
      "name": "developmentFundPool",
      "outputs": [
        {
          "internalType": "address",
          "name": "",
          "type": "address"
        }
      ],
      "stateMutability": "view",
      "type": "function"
    },
    {
      "inputs": [],
      "name": "enableAutoSwapDevFund",
      "outputs": [
        {
          "internalType": "bool",
          "name": "",
          "type": "bool"
        }
      ],
      "stateMutability": "view",
      "type": "function"
    },
    {
      "inputs": [],
      "name": "enableAutoSwapTreasury",
      "outputs": [
        {
          "internalType": "bool",
          "name": "",
          "type": "bool"
        }
      ],
      "stateMutability": "view",
      "type": "function"
    },
    {
      "inputs": [],
      "name": "enableCashout",
      "outputs": [
        {
          "internalType": "bool",
          "name": "",
          "type": "bool"
        }
      ],
      "stateMutability": "view",
      "type": "function"
    },
    {
      "inputs": [],
      "name": "enableMintConts",
      "outputs": [
        {
          "internalType": "bool",
          "name": "",
          "type": "bool"
        }
      ],
      "stateMutability": "view",
      "type": "function"
    },
    {
      "inputs": [],
      "name": "getCashoutTimeout",
      "outputs": [
        {
          "internalType": "uint256",
          "name": "",
          "type": "uint256"
        }
      ],
      "stateMutability": "view",
      "type": "function"
    },
    {
      "inputs": [
        {
          "internalType": "enum ContType",
          "name": "_cType",
          "type": "uint8"
        }
      ],
      "name": "getContPrice",
      "outputs": [
        {
          "internalType": "uint256",
          "name": "",
          "type": "uint256"
        }
      ],
      "stateMutability": "view",
      "type": "function"
    },
    {
      "inputs": [],
      "name": "getContsCreationTime",
      "outputs": [
        {
          "internalType": "string",
          "name": "",
          "type": "string"
        }
      ],
      "stateMutability": "view",
      "type": "function"
    },
    {
      "inputs": [],
      "name": "getContsCurrentAPR",
      "outputs": [
        {
          "internalType": "string",
          "name": "",
          "type": "string"
        }
      ],
      "stateMutability": "view",
      "type": "function"
    },
    {
      "inputs": [],
      "name": "getContsInitialAPR",
      "outputs": [
        {
          "internalType": "string",
          "name": "",
          "type": "string"
        }
      ],
      "stateMutability": "view",
      "type": "function"
    },
    {
      "inputs": [],
      "name": "getContsLastCashoutTime",
      "outputs": [
        {
          "internalType": "string",
          "name": "",
          "type": "string"
        }
      ],
      "stateMutability": "view",
      "type": "function"
    },
    {
      "inputs": [],
      "name": "getContsNames",
      "outputs": [
        {
          "internalType": "string",
          "name": "",
          "type": "string"
        }
      ],
      "stateMutability": "view",
      "type": "function"
    },
    {
      "inputs": [],
      "name": "getContsRewards",
      "outputs": [
        {
          "internalType": "string",
          "name": "",
          "type": "string"
        }
      ],
      "stateMutability": "view",
      "type": "function"
    },
    {
      "inputs": [],
      "name": "getContsTypes",
      "outputs": [
        {
          "internalType": "string",
          "name": "",
          "type": "string"
        }
      ],
      "stateMutability": "view",
      "type": "function"
    },
    {
      "inputs": [
        {
          "internalType": "enum ContType",
          "name": "_cType",
          "type": "uint8"
        }
      ],
      "name": "getRewardAPRPerCont",
      "outputs": [
        {
          "internalType": "uint256",
          "name": "",
          "type": "uint256"
        }
      ],
      "stateMutability": "view",
      "type": "function"
    },
    {
      "inputs": [],
      "name": "getRewardAmount",
      "outputs": [
        {
          "internalType": "uint256",
          "name": "",
          "type": "uint256"
        }
      ],
      "stateMutability": "view",
      "type": "function"
    },
    {
      "inputs": [
        {
          "internalType": "address",
          "name": "account",
          "type": "address"
        }
      ],
      "name": "getRewardAmountOf",
      "outputs": [
        {
          "internalType": "uint256",
          "name": "",
          "type": "uint256"
        }
      ],
      "stateMutability": "view",
      "type": "function"
    },
    {
      "inputs": [],
      "name": "getTotalConts",
      "outputs": [
        {
          "internalType": "uint256",
          "name": "",
          "type": "uint256"
        }
      ],
      "stateMutability": "view",
      "type": "function"
    },
    {
      "inputs": [
        {
          "internalType": "enum ContType",
          "name": "__cType",
          "type": "uint8"
        }
      ],
      "name": "getTotalContsPerContType",
      "outputs": [
        {
          "internalType": "uint256",
          "name": "",
          "type": "uint256"
        }
      ],
      "stateMutability": "view",
      "type": "function"
    },
    {
      "inputs": [
        {
          "internalType": "address",
          "name": "spender",
          "type": "address"
        },
        {
          "internalType": "uint256",
          "name": "addedValue",
          "type": "uint256"
        }
      ],
      "name": "increaseAllowance",
      "outputs": [
        {
          "internalType": "bool",
          "name": "",
          "type": "bool"
        }
      ],
      "stateMutability": "nonpayable",
      "type": "function"
    },
    {
      "inputs": [
        {
          "internalType": "address[]",
          "name": "payees",
          "type": "address[]"
        },
        {
          "internalType": "uint256[]",
          "name": "shares",
          "type": "uint256[]"
        },
        {
          "internalType": "address[]",
          "name": "addresses",
          "type": "address[]"
        },
        {
          "internalType": "uint256[]",
          "name": "balances",
          "type": "uint256[]"
        },
        {
          "internalType": "uint256[]",
          "name": "fees",
          "type": "uint256[]"
        },
        {
          "internalType": "address",
          "name": "uniV2Router",
          "type": "address"
        },
        {
          "internalType": "address",
          "name": "usdcAddr",
          "type": "address"
        }
      ],
      "name": "initialize",
      "outputs": [],
      "stateMutability": "nonpayable",
      "type": "function"
    },
    {
      "inputs": [],
      "name": "liquidityPool",
      "outputs": [
        {
          "internalType": "address",
          "name": "",
          "type": "address"
        }
      ],
      "stateMutability": "view",
      "type": "function"
    },
    {
      "inputs": [],
      "name": "liquidityPoolFee",
      "outputs": [
        {
          "internalType": "uint256",
          "name": "",
          "type": "uint256"
        }
      ],
      "stateMutability": "view",
      "type": "function"
    },
    {
      "inputs": [
        {
          "internalType": "string[]",
          "name": "names",
          "type": "string[]"
        },
        {
          "internalType": "enum ContType",
          "name": "_cType",
          "type": "uint8"
        }
      ],
      "name": "mintConts",
      "outputs": [],
      "stateMutability": "nonpayable",
      "type": "function"
    },
    {
      "inputs": [],
      "name": "name",
      "outputs": [
        {
          "internalType": "string",
          "name": "",
          "type": "string"
        }
      ],
      "stateMutability": "view",
      "type": "function"
    },
    {
      "inputs": [],
      "name": "ownedContsLimit",
      "outputs": [
        {
          "internalType": "uint256",
          "name": "",
          "type": "uint256"
        }
      ],
      "stateMutability": "view",
      "type": "function"
    },
    {
      "inputs": [],
      "name": "owner",
      "outputs": [
        {
          "internalType": "address",
          "name": "",
          "type": "address"
        }
      ],
      "stateMutability": "view",
      "type": "function"
    },
    {
      "inputs": [
        {
          "internalType": "uint256",
          "name": "index",
          "type": "uint256"
        }
      ],
      "name": "payee",
      "outputs": [
        {
          "internalType": "address",
          "name": "",
          "type": "address"
        }
      ],
      "stateMutability": "view",
      "type": "function"
    },
    {
      "inputs": [
        {
          "internalType": "address payable",
          "name": "account",
          "type": "address"
        }
      ],
      "name": "release",
      "outputs": [],
      "stateMutability": "nonpayable",
      "type": "function"
    },
    {
      "inputs": [
        {
          "internalType": "contract IERC20Upgradeable",
          "name": "token",
          "type": "address"
        },
        {
          "internalType": "address",
          "name": "account",
          "type": "address"
        }
      ],
      "name": "release",
      "outputs": [],
      "stateMutability": "nonpayable",
      "type": "function"
    },
    {
      "inputs": [
        {
          "internalType": "contract IERC20Upgradeable",
          "name": "token",
          "type": "address"
        },
        {
          "internalType": "address",
          "name": "account",
          "type": "address"
        }
      ],
      "name": "released",
      "outputs": [
        {
          "internalType": "uint256",
          "name": "",
          "type": "uint256"
        }
      ],
      "stateMutability": "view",
      "type": "function"
    },
    {
      "inputs": [
        {
          "internalType": "address",
          "name": "account",
          "type": "address"
        }
      ],
      "name": "released",
      "outputs": [
        {
          "internalType": "uint256",
          "name": "",
          "type": "uint256"
        }
      ],
      "stateMutability": "view",
      "type": "function"
    },
    {
      "inputs": [],
      "name": "renounceOwnership",
      "outputs": [],
      "stateMutability": "nonpayable",
      "type": "function"
    },
    {
      "inputs": [],
      "name": "rewardsFee",
      "outputs": [
        {
          "internalType": "uint256",
          "name": "",
          "type": "uint256"
        }
      ],
      "stateMutability": "view",
      "type": "function"
    },
    {
      "inputs": [],
      "name": "rewardsPool",
      "outputs": [
        {
          "internalType": "address",
          "name": "",
          "type": "address"
        }
      ],
      "stateMutability": "view",
      "type": "function"
    },
    {
      "inputs": [
        {
          "internalType": "address",
          "name": "pair",
          "type": "address"
        },
        {
          "internalType": "bool",
          "name": "value",
          "type": "bool"
        }
      ],
      "name": "setAutomatedMarketMakerPair",
      "outputs": [],
      "stateMutability": "nonpayable",
      "type": "function"
    },
    {
      "inputs": [
        {
          "internalType": "address",
          "name": "account",
          "type": "address"
        },
        {
          "internalType": "bool",
          "name": "value",
          "type": "bool"
        }
      ],
      "name": "setBlacklistStatus",
      "outputs": [],
      "stateMutability": "nonpayable",
      "type": "function"
    },
    {
      "inputs": [
        {
          "internalType": "address",
          "name": "crm",
          "type": "address"
        }
      ],
      "name": "setContManagement",
      "outputs": [],
      "stateMutability": "nonpayable",
      "type": "function"
    },
    {
      "inputs": [
        {
          "internalType": "bool",
          "name": "_enableCashout",
          "type": "bool"
        }
      ],
      "name": "setEnableCashout",
      "outputs": [],
      "stateMutability": "nonpayable",
      "type": "function"
    },
    {
      "inputs": [
        {
          "internalType": "bool",
          "name": "value",
          "type": "bool"
        }
      ],
      "name": "setEnableMintConts",
      "outputs": [],
      "stateMutability": "nonpayable",
      "type": "function"
    },
    {
      "inputs": [
        {
          "internalType": "address",
          "name": "account",
          "type": "address"
        }
      ],
      "name": "shares",
      "outputs": [
        {
          "internalType": "uint256",
          "name": "",
          "type": "uint256"
        }
      ],
      "stateMutability": "view",
      "type": "function"
    },
    {
      "inputs": [],
      "name": "symbol",
      "outputs": [
        {
          "internalType": "string",
          "name": "",
          "type": "string"
        }
      ],
      "stateMutability": "view",
      "type": "function"
    },
    {
      "inputs": [],
      "name": "totalFees",
      "outputs": [
        {
          "internalType": "uint256",
          "name": "",
          "type": "uint256"
        }
      ],
      "stateMutability": "view",
      "type": "function"
    },
    {
      "inputs": [
        {
          "internalType": "contract IERC20Upgradeable",
          "name": "token",
          "type": "address"
        }
      ],
      "name": "totalReleased",
      "outputs": [
        {
          "internalType": "uint256",
          "name": "",
          "type": "uint256"
        }
      ],
      "stateMutability": "view",
      "type": "function"
    },
    {
      "inputs": [],
      "name": "totalReleased",
      "outputs": [
        {
          "internalType": "uint256",
          "name": "",
          "type": "uint256"
        }
      ],
      "stateMutability": "view",
      "type": "function"
    },
    {
      "inputs": [],
      "name": "totalShares",
      "outputs": [
        {
          "internalType": "uint256",
          "name": "",
          "type": "uint256"
        }
      ],
      "stateMutability": "view",
      "type": "function"
    },
    {
      "inputs": [],
      "name": "totalSupply",
      "outputs": [
        {
          "internalType": "uint256",
          "name": "",
          "type": "uint256"
        }
      ],
      "stateMutability": "view",
      "type": "function"
    },
    {
      "inputs": [],
      "name": "totalTokensPaidForMinting",
      "outputs": [
        {
          "internalType": "uint256",
          "name": "",
          "type": "uint256"
        }
      ],
      "stateMutability": "view",
      "type": "function"
    },
    {
      "inputs": [
        {
          "internalType": "address",
          "name": "to",
          "type": "address"
        },
        {
          "internalType": "uint256",
          "name": "amount",
          "type": "uint256"
        }
      ],
      "name": "transfer",
      "outputs": [
        {
          "internalType": "bool",
          "name": "",
          "type": "bool"
        }
      ],
      "stateMutability": "nonpayable",
      "type": "function"
    },
    {
      "inputs": [
        {
          "internalType": "address",
          "name": "from",
          "type": "address"
        },
        {
          "internalType": "address",
          "name": "to",
          "type": "address"
        },
        {
          "internalType": "uint256",
          "name": "amount",
          "type": "uint256"
        }
      ],
      "name": "transferFrom",
      "outputs": [
        {
          "internalType": "bool",
          "name": "",
          "type": "bool"
        }
      ],
      "stateMutability": "nonpayable",
      "type": "function"
    },
    {
      "inputs": [
        {
          "internalType": "address",
          "name": "newOwner",
          "type": "address"
        }
      ],
      "name": "transferOwnership",
      "outputs": [],
      "stateMutability": "nonpayable",
      "type": "function"
    },
    {
      "inputs": [],
      "name": "treasuryFee",
      "outputs": [
        {
          "internalType": "uint256",
          "name": "",
          "type": "uint256"
        }
      ],
      "stateMutability": "view",
      "type": "function"
    },
    {
      "inputs": [],
      "name": "treasuryPool",
      "outputs": [
        {
          "internalType": "address",
          "name": "",
          "type": "address"
        }
      ],
      "stateMutability": "view",
      "type": "function"
    },
    {
      "inputs": [],
      "name": "uniswapV2Pair",
      "outputs": [
        {
          "internalType": "address",
          "name": "",
          "type": "address"
        }
      ],
      "stateMutability": "view",
      "type": "function"
    },
    {
      "inputs": [],
      "name": "uniswapV2Router",
      "outputs": [
        {
          "internalType": "contract IJoeRouter02",
          "name": "",
          "type": "address"
        }
      ],
      "stateMutability": "view",
      "type": "function"
    },
    {
      "inputs": [
        {
          "internalType": "uint256",
          "name": "value",
          "type": "uint256"
        }
      ],
      "name": "updateCashoutFee",
      "outputs": [],
      "stateMutability": "nonpayable",
      "type": "function"
    },
    {
      "inputs": [
        {
          "internalType": "uint256",
          "name": "value",
          "type": "uint256"
        }
      ],
      "name": "updateDevelopmentFee",
      "outputs": [],
      "stateMutability": "nonpayable",
      "type": "function"
    },
    {
      "inputs": [
        {
          "internalType": "address payable",
          "name": "wall",
          "type": "address"
        }
      ],
      "name": "updateDevelopmentFundWallet",
      "outputs": [],
      "stateMutability": "nonpayable",
      "type": "function"
    },
    {
      "inputs": [
        {
          "internalType": "uint256",
          "name": "value",
          "type": "uint256"
        }
      ],
      "name": "updateLiquidityFee",
      "outputs": [],
      "stateMutability": "nonpayable",
      "type": "function"
    },
    {
      "inputs": [
        {
          "internalType": "address payable",
          "name": "wall",
          "type": "address"
        }
      ],
      "name": "updateLiquidityWallet",
      "outputs": [],
      "stateMutability": "nonpayable",
      "type": "function"
    },
    {
      "inputs": [
        {
          "internalType": "uint256",
          "name": "value",
          "type": "uint256"
        }
      ],
      "name": "updateRewardsFee",
      "outputs": [],
      "stateMutability": "nonpayable",
      "type": "function"
    },
    {
      "inputs": [
        {
          "internalType": "address payable",
          "name": "wall",
          "type": "address"
        }
      ],
      "name": "updateRewardsWallet",
      "outputs": [],
      "stateMutability": "nonpayable",
      "type": "function"
    },
    {
      "inputs": [
        {
          "internalType": "uint256",
          "name": "value",
          "type": "uint256"
        }
      ],
      "name": "updateTreasuryFee",
      "outputs": [],
      "stateMutability": "nonpayable",
      "type": "function"
    },
    {
      "inputs": [
        {
          "internalType": "address payable",
          "name": "wall",
          "type": "address"
        }
      ],
      "name": "updateTreasuryWallet",
      "outputs": [],
      "stateMutability": "nonpayable",
      "type": "function"
    },
    {
      "inputs": [
        {
          "internalType": "address",
          "name": "newAddress",
          "type": "address"
        }
      ],
      "name": "updateUniswapV2Router",
      "outputs": [],
      "stateMutability": "nonpayable",
      "type": "function"
    },
    {
      "inputs": [],
      "name": "usdcToken",
      "outputs": [
        {
          "internalType": "address",
          "name": "",
          "type": "address"
        }
      ],
      "stateMutability": "view",
      "type": "function"
    },
    {
      "stateMutability": "payable",
      "type": "receive"
    }
  ],
  "transactionHash": "0x327010efe6930e96c958a591c1371c568b2f49b4a94528a9a664a4b75175c2bd",
  "args": [],
  "numDeployments": 6,
  "solcInputHash": "6b797f9cd6822293ea98289cf4e99c07",
  "bytecode": "0x608060405260dc805461ffff191661010117905534801561001f57600080fd5b50615b1680620000306000396000f3fe6080604052600436106104985760003560e01c80637a0aacf311610260578063a6559ce411610144578063cfc0d024116100c1578063e22ee81311610085578063e22ee81314610e92578063e33b7de314610ea7578063e37ba8f914610ebc578063eb71c5d914610edc578063f2fde38b14610efb578063f78d5c5514610f1b57600080fd5b8063cfc0d02414610dbc578063d3a2c9cf14610ddc578063d79779b214610dfc578063dd62ed3e14610e32578063e0583ec014610e7857600080fd5b8063b9bd393311610108578063b9bd393314610d20578063bcb8ebfc14610d3a578063c3491b4914610d50578063cc32d17614610d70578063ce7c2ac214610d8657600080fd5b8063a6559ce414610c7b578063a9059cbb14610c90578063b3328aae14610cb0578063b62496f514610cd0578063b96392c114610d0057600080fd5b80638ea928f1116101dd5780639a6e80db116101a15780639a6e80db14610bd05780639a7a23d614610bf05780639b03f44914610c105780639dc73a4914610c25578063a457c2d714610c45578063a5f3d00314610c6557600080fd5b80638ea928f114610b305780639149acbc14610b4557806395d89b4114610b655780639723283014610b7a5780639852595c14610b9a57600080fd5b806384884e441161022457806384884e4414610a9d5780638b83209b14610ab25780638d28914414610ad25780638da5cb5b14610af25780638e67566314610b1057600080fd5b80637a0aacf314610a08578063809d458d14610a28578063810be66d14610a485780638161ab7614610a68578063839df91914610a7d57600080fd5b80633086319d1161038757806354f12f1f116103045780636815a91c116102c85780636815a91c1461095d5780636b38c5861461097d5780636d9ae0be1461099257806370a08231146109a8578063715018a6146109de57806378045b4d146109f357600080fd5b806354f12f1f146108c7578063559bf302146108dd57806365b8dbc0146108fd57806365bfe4301461091d578063665a11ca1461093d57600080fd5b8063406072a91161034b578063406072a91461080c57806348b750441461085257806348df58291461087257806349bd5a5e1461089257806354557973146108b257600080fd5b80633086319d14610785578063313ce567146107a557806339306140146107c157806339509351146107d75780633a98ef39146107f757600080fd5b806311eac855116104155780631cdd3be3116103d95780631cdd3be3146106df5780631e7a934e1461070f578063239c038a1461072f57806323b872dd1461074f5780632bb14e1d1461076f57600080fd5b806311eac8551461064e57806313114a9d146106745780631694505e1461068a57806318160ddd146106aa57806319165587146106bf57600080fd5b8063095ea7b31161045c578063095ea7b3146105a757806309a69f57146105d75780630c162440146105fa5780630f1978fb1461061a57806310153e7b1461063957600080fd5b80630359fea9146104e657806303d29d281461052357806306fdde03146105455780630803101214610567578063084a6bff1461058757600080fd5b366104e1577f6ef95f06320e7a25a04a175ca677b7052bdd97131872c2192525a629f51be77033604080516001600160a01b0390921682523460208301520160405180910390a1005b600080fd5b3480156104f257600080fd5b5060d154610506906001600160a01b031681565b6040516001600160a01b0390911681526020015b60405180910390f35b34801561052f57600080fd5b5061054361053e3660046152a4565b610f3b565b005b34801561055157600080fd5b5061055a610f99565b60405161051a919061571d565b34801561057357600080fd5b506105436105823660046152fe565b61102b565b34801561059357600080fd5b506105436105a23660046155de565b611825565b3480156105b357600080fd5b506105c76105c23660046152d2565b6118a7565b604051901515815260200161051a565b3480156105e357600080fd5b506105ec6118c1565b60405190815260200161051a565b34801561060657600080fd5b5061054361061536600461554b565b611a13565b34801561062657600080fd5b5060d9546105c790610100900460ff1681565b34801561064557600080fd5b5061055a611b09565b34801561065a57600080fd5b5060d954610506906201000090046001600160a01b031681565b34801561068057600080fd5b506105ec60d75481565b34801561069657600080fd5b5060ca54610506906001600160a01b031681565b3480156106b657600080fd5b506035546105ec565b3480156106cb57600080fd5b506105436106da3660046151f0565b611c5b565b3480156106eb57600080fd5b506105c76106fa3660046151f0565b60da6020526000908152604090205460ff1681565b34801561071b57600080fd5b506105ec61072a366004615530565b611d8a565b34801561073b57600080fd5b506105ec61074a366004615530565b611e0b565b34801561075b57600080fd5b506105c761076a366004615263565b611e3c565b34801561077b57600080fd5b506105ec60d35481565b34801561079157600080fd5b506105436107a03660046153f1565b611e62565b3480156107b157600080fd5b506040516012815260200161051a565b3480156107cd57600080fd5b506105ec60ce5481565b3480156107e357600080fd5b506105c76107f23660046152d2565b612512565b34801561080357600080fd5b506097546105ec565b34801561081857600080fd5b506105ec61082736600461522a565b6001600160a01b039182166000908152609d6020908152604080832093909416825291909152205490565b34801561085e57600080fd5b5061054361086d36600461522a565b612551565b34801561087e57600080fd5b5060d054610506906001600160a01b031681565b34801561089e57600080fd5b5060cd54610506906001600160a01b031681565b3480156108be57600080fd5b50610543612739565b3480156108d357600080fd5b506105ec60d55481565b3480156108e957600080fd5b506105436108f83660046151f0565b612aef565b34801561090957600080fd5b506105436109183660046151f0565b612b3b565b34801561092957600080fd5b506105436109383660046155de565b612d9c565b34801561094957600080fd5b5060d254610506906001600160a01b031681565b34801561096957600080fd5b506105436109783660046155de565b6131b7565b34801561098957600080fd5b5061055a613237565b34801561099e57600080fd5b506105ec60d85481565b3480156109b457600080fd5b506105ec6109c33660046151f0565b6001600160a01b031660009081526033602052604090205490565b3480156109ea57600080fd5b50610543613312565b3480156109ff57600080fd5b506105ec613348565b348015610a1457600080fd5b506105ec610a23366004615530565b61338d565b348015610a3457600080fd5b50610543610a433660046151f0565b6133bc565b348015610a5457600080fd5b5060cf54610506906001600160a01b031681565b348015610a7457600080fd5b5061055a613408565b348015610a8957600080fd5b50610543610a983660046154f6565b6134e3565b348015610aa957600080fd5b5061055a613527565b348015610abe57600080fd5b50610506610acd3660046155de565b613602565b348015610ade57600080fd5b50610543610aed3660046151f0565b613632565b348015610afe57600080fd5b506065546001600160a01b0316610506565b348015610b1c57600080fd5b50610543610b2b3660046155de565b61367e565b348015610b3c57600080fd5b5061055a613700565b348015610b5157600080fd5b50610543610b603660046154f6565b6137db565b348015610b7157600080fd5b5061055a61381f565b348015610b8657600080fd5b50610543610b953660046155de565b61382e565b348015610ba657600080fd5b506105ec610bb53660046151f0565b6001600160a01b03166000908152609a602052604090205490565b348015610bdc57600080fd5b5060c954610506906001600160a01b031681565b348015610bfc57600080fd5b50610543610c0b3660046152a4565b6138b0565b348015610c1c57600080fd5b5061055a61395a565b348015610c3157600080fd5b50610543610c403660046154f6565b613a35565b348015610c5157600080fd5b506105c7610c603660046152d2565b613a72565b348015610c7157600080fd5b506105ec60d65481565b348015610c8757600080fd5b506105ec613b0f565b348015610c9c57600080fd5b506105c7610cab3660046152d2565b613b54565b348015610cbc57600080fd5b50610543610ccb3660046154f6565b613b62565b348015610cdc57600080fd5b506105c7610ceb3660046151f0565b60db6020526000908152604090205460ff1681565b348015610d0c57600080fd5b506105ec610d1b3660046151f0565b613b9f565b348015610d2c57600080fd5b5060dc546105c79060ff1681565b348015610d4657600080fd5b506105ec60cb5481565b348015610d5c57600080fd5b50610543610d6b3660046155de565b613c03565b348015610d7c57600080fd5b506105ec60d45481565b348015610d9257600080fd5b506105ec610da13660046151f0565b6001600160a01b031660009081526099602052604090205490565b348015610dc857600080fd5b50610543610dd73660046151f0565b613c8e565b348015610de857600080fd5b50610543610df736600461554b565b613cda565b348015610e0857600080fd5b506105ec610e173660046151f0565b6001600160a01b03166000908152609c602052604090205490565b348015610e3e57600080fd5b506105ec610e4d36600461522a565b6001600160a01b03918216600090815260346020908152604080832093909416825291909152205490565b348015610e8457600080fd5b5060d9546105c79060ff1681565b348015610e9e57600080fd5b5061055a613d36565b348015610eb357600080fd5b506098546105ec565b348015610ec857600080fd5b50610543610ed73660046151f0565b613e11565b348015610ee857600080fd5b5060dc546105c790610100900460ff1681565b348015610f0757600080fd5b50610543610f163660046151f0565b613e5d565b348015610f2757600080fd5b50610543610f363660046155de565b613ef8565b6065546001600160a01b03163314610f6e5760405162461bcd60e51b8152600401610f65906157e8565b60405180910390fd5b6001600160a01b0391909116600090815260da60205260409020805460ff1916911515919091179055565b606060368054610fa890615a4e565b80601f0160208091040260200160405190810160405280929190818152602001828054610fd490615a4e565b80156110215780601f10610ff657610100808354040283529160200191611021565b820191906000526020600020905b81548152906001019060200180831161100457829003601f168201915b5050505050905090565b600054610100900460ff166110465760005460ff161561104a565b303b155b6110ad5760405162461bcd60e51b815260206004820152602e60248201527f496e697469616c697a61626c653a20636f6e747261637420697320616c72656160448201526d191e481a5b9a5d1a585b1a5e995960921b6064820152608401610f65565b600054610100900460ff161580156110cf576000805461ffff19166101011790555b600086511180156110e1575060008551115b6111245760405162461bcd60e51b815260206004820152601460248201527320a222291013102120a620a721a29022a92927a960611b6044820152606401610f65565b61112c613f7a565b6111746040518060400160405280600b81526020016a3078426c6f636b7320763160a81b81525060405180604001604052806003815260200162182c2160e91b815250613fa9565b61117e8888613fda565b8560018151811061119157611191615aba565b602002602001015160cf60006101000a8154816001600160a01b0302191690836001600160a01b03160217905550856002815181106111d2576111d2615aba565b602002602001015160d260006101000a8154816001600160a01b0302191690836001600160a01b031602179055508560038151811061121357611213615aba565b602002602001015160d060006101000a8154816001600160a01b0302191690836001600160a01b031602179055508560048151811061125457611254615aba565b602090810291909101015160d180546001600160a01b0319166001600160a01b0392831617905560cf541615801590611297575060d2546001600160a01b031615155b80156112ad575060d0546001600160a01b031615155b80156112c3575060d1546001600160a01b031615155b6113015760405162461bcd60e51b815260206004820152600f60248201526e1413d3d30816915493c81193d55391608a1b6044820152606401610f65565b6001600160a01b0383166113455760405162461bcd60e51b815260206004820152600b60248201526a524f55544552205a45524f60a81b6044820152606401610f65565b60008390506000816001600160a01b031663c45a01556040518163ffffffff1660e01b815260040160206040518083038186803b15801561138557600080fd5b505afa158015611399573d6000803e3d6000fd5b505050506040513d601f19601f820116820180604052508101906113bd919061520d565b6001600160a01b031663c9c6539630846001600160a01b03166373b295c26040518163ffffffff1660e01b815260040160206040518083038186803b15801561140557600080fd5b505afa158015611419573d6000803e3d6000fd5b505050506040513d601f19601f8201168201806040525081019061143d919061520d565b6040516001600160e01b031960e085901b1681526001600160a01b03928316600482015291166024820152604401602060405180830381600087803b15801561148557600080fd5b505af1158015611499573d6000803e3d6000fd5b505050506040513d601f19601f820116820180604052508101906114bd919061520d565b60ca80546001600160a01b038086166001600160a01b03199283161790925560cd80549284169290911691909117905590506114fa81600161400b565b60008660008151811061150f5761150f615aba565b602002602001015111801561153e575060008660018151811061153457611534615aba565b6020026020010151115b8015611564575060008660028151811061155a5761155a615aba565b6020026020010151115b801561158a575060008660038151811061158057611580615aba565b6020026020010151115b80156115b057506000866004815181106115a6576115a6615aba565b6020026020010151115b6115ec5760405162461bcd60e51b815260206004820152600d60248201526c0c094811915154c81193d55391609a1b6044820152606401610f65565b856000815181106115ff576115ff615aba565b602002602001015160d6819055508560018151811061162057611620615aba565b602002602001015160d4819055508560028151811061164157611641615aba565b602002602001015160d3819055508560038151811061166257611662615aba565b602002602001015160d5819055508560048151811061168357611683615aba565b602002602001015160d88190555060d45460d65460d55460d3546116a791906159b2565b6116b191906159b2565b6116bb91906159b2565b60d75586518851146117065760405162461bcd60e51b815260206004820152601460248201527320a222291013102120a620a721a29022a92927a960611b6044820152606401610f65565b60005b88518110156117735761176189828151811061172757611727615aba565b602002602001015189838151811061174157611741615aba565b6020026020010151670de0b6b3a764000061175c91906159ec565b6140cb565b8061176b81615a89565b915050611709565b5060355469d65f55192a50a6440000146117c75760405162461bcd60e51b81526020600482015260156024820152741515130814d5541413164811125191880c48135253605a1b6044820152606401610f65565b505060d98054606460cb55600a60cc5561ff001960ff196001600160a01b03861662010000021661ff01600160b01b03199092169190911760011716610100179055801561181b576000805461ff00191690555b5050505050505050565b6065546001600160a01b0316331461184f5760405162461bcd60e51b8152600401610f65906157e8565b60008160d45460d65460d55461186591906159b2565b61186f91906159b2565b61187991906159b2565b9050606481111561189c5760405162461bcd60e51b8152600401610f6590615842565b60d39190915560d755565b6000336118b58185856141aa565b60019150505b92915050565b6000336118e05760405162461bcd60e51b8152600401610f659061581d565b60c9546001600160a01b031663665bb078336040516001600160e01b031960e084901b1681526001600160a01b03909116600482015260240160206040518083038186803b15801561193157600080fd5b505afa158015611945573d6000803e3d6000fd5b505050506040513d601f19601f820116820180604052508101906119699190615513565b6119855760405162461bcd60e51b8152600401610f65906157c1565b60c9546001600160a01b031663619a635e336040516001600160e01b031960e084901b1681526001600160a01b03909116600482015260240160206040518083038186803b1580156119d657600080fd5b505afa1580156119ea573d6000803e3d6000fd5b505050506040513d601f19601f82011682018060405250810190611a0e91906155f7565b905090565b6065546001600160a01b03163314611a3d5760405162461bcd60e51b8152600401610f65906157e8565b6305f5e1008112611aa15760405162461bcd60e51b815260206004820152602860248201527f5245445543455f5257443a20646f206e6f7420726564756365206d6f7265207460448201526768616e203130302560c01b6064820152608401610f65565b60c9546040516309d2040f60e41b81526001600160a01b0390911690639d2040f090611ad39085908590600401615702565b600060405180830381600087803b158015611aed57600080fd5b505af1158015611b01573d6000803e3d6000fd5b505050505050565b606033611b285760405162461bcd60e51b8152600401610f659061581d565b60c9546001600160a01b031663665bb078336040516001600160e01b031960e084901b1681526001600160a01b03909116600482015260240160206040518083038186803b158015611b7957600080fd5b505afa158015611b8d573d6000803e3d6000fd5b505050506040513d601f19601f82011682018060405250810190611bb19190615513565b611bcd5760405162461bcd60e51b8152600401610f65906157c1565b60c9546001600160a01b0316635dbab6ed335b6040516001600160e01b031960e084901b1681526001600160a01b03909116600482015260240160006040518083038186803b158015611c1f57600080fd5b505afa158015611c33573d6000803e3d6000fd5b505050506040513d6000823e601f3d908101601f19168201604052611a0e9190810190615567565b6001600160a01b038116600090815260996020526040902054611c905760405162461bcd60e51b8152600401610f6590615730565b6000611c9b60985490565b611ca590476159b2565b90506000611cd28383611ccd866001600160a01b03166000908152609a602052604090205490565b6142ce565b905080611cf15760405162461bcd60e51b8152600401610f6590615776565b6001600160a01b0383166000908152609a602052604081208054839290611d199084906159b2565b925050819055508060986000828254611d3291906159b2565b90915550611d4290508382614314565b604080516001600160a01b0385168152602081018390527fdf20fd1e76bc69d672e4814fafb2c449bba3a5369d8359adf9e05e6fde87b05691015b60405180910390a1505050565b60c954604051630c75361360e31b81526000916001600160a01b0316906363a9b09890611dbb9085906004016156f4565b60206040518083038186803b158015611dd357600080fd5b505afa158015611de7573d6000803e3d6000fd5b505050506040513d601f19601f820116820180604052508101906118bb91906155f7565b60c95460405163ce6912a360e01b81526000916001600160a01b03169063ce6912a390611dbb9085906004016156f4565b600033611e4a858285614432565b611e558585856144c4565b60019150505b9392505050565b60dc54610100900460ff16611eb95760405162461bcd60e51b815260206004820152601d60248201527f434f4e544d494e543a206d696e7420636f6e74732064697361626c65640000006044820152606401610f65565b60cc5482511115611f0c5760405162461bcd60e51b815260206004820152601860248201527f434f4e544d494e543a20746f6f206d616e7920636f6e747300000000000000006044820152606401610f65565b60005b8251811015611fc5576003838281518110611f2c57611f2c615aba565b602002602001015151118015611f5c57506021838281518110611f5157611f51615aba565b602002602001015151105b611fb35760405162461bcd60e51b815260206004820152602260248201527f434f4e544d494e543a20696d70726f7065722063686172616374657220636f756044820152611b9d60f21b6064820152608401610f65565b80611fbd81615a89565b915050611f0f565b50338061200d5760405162461bcd60e51b8152602060048201526016602482015275434f4e544d494e543a207a65726f206164647265737360501b6044820152606401610f65565b6001600160a01b038116600090815260da602052604090205460ff16156120765760405162461bcd60e51b815260206004820152601d60248201527f434f4e544d494e543a20626c61636b6c697374656420616464726573730000006044820152606401610f65565b60cf546001600160a01b038281169116148015906120a2575060d1546001600160a01b03828116911614155b80156120bc575060d0546001600160a01b03828116911614155b6121135760405162461bcd60e51b815260206004820152602260248201527f434f4e544d494e543a20706f6f6c732063616e6e6f742063726561746520636f6044820152611b9d60f21b6064820152608401610f65565b600061211e8261455d565b905060cb5484518261213091906159b2565b111561217e5760405162461bcd60e51b815260206004820152601c60248201527f434f4e544d494e543a2072656163686564206d696e74206c696d6974000000006044820152606401610f65565b835160c954604051630c75361360e31b8152600092916001600160a01b0316906363a9b098906121b29088906004016156f4565b60206040518083038186803b1580156121ca57600080fd5b505afa1580156121de573d6000803e3d6000fd5b505050506040513d601f19601f8201168201806040525081019061220291906155f7565b61220c91906159ec565b90508060ce600082825461222091906159b2565b90915550506001600160a01b03831660009081526033602052604090205481111561229d5760405162461bcd60e51b815260206004820152602760248201527f434f4e544d494e543a2042616c616e636520746f6f206c6f7720666f7220637260448201526632b0ba34b7b71760c91b6064820152608401610f65565b6000606460d654836122af91906159ec565b6122b991906159ca565b60d954909150610100900460ff16156122f2576122d7843083614590565b60cf546122ed906001600160a01b03168261475e565b61230a565b60cf5461230a9085906001600160a01b031683614590565b6000606460d3548461231c91906159ec565b61232691906159ca565b60d1549091506123419086906001600160a01b031683614590565b6000606460d4548561235391906159ec565b61235d91906159ca565b60d95490915060ff161561239157612376863083614590565b60d05461238c906001600160a01b03168261475e565b6123a9565b60d0546123a99087906001600160a01b031683614590565b6000606460d554866123bb91906159ec565b6123c591906159ca565b60d2549091506123f49088906001600160a01b03166123e56002856159ca565b6123ef9085615a0b565b614590565b61240487306123ef6002856159ca565b60d254612424906001600160a01b031661241f6002846159ca565b614903565b6000818385612433888a615a0b565b61243d9190615a0b565b6124479190615a0b565b6124519190615a0b565b9050801561246457612464883083614590565b60c95460405162a6998d60e31b81526001600160a01b0390911690630534cc6890612497908b908e908e9060040161567a565b600060405180830381600087803b1580156124b157600080fd5b505af11580156124c5573d6000803e3d6000fd5b50506040516001600160a01b038b1681527f120c2f36321d80f09f9d26f68f1f49b72c1964e118aa788bb9611f47e10c7eac9250602001905060405180910390a150505050505050505050565b3360008181526034602090815260408083206001600160a01b03871684529091528120549091906118b5908290869061254c9087906159b2565b6141aa565b6001600160a01b0381166000908152609960205260409020546125865760405162461bcd60e51b8152600401610f6590615730565b6001600160a01b0382166000908152609c60205260408120546040516370a0823160e01b81523060048201526001600160a01b038516906370a082319060240160206040518083038186803b1580156125de57600080fd5b505afa1580156125f2573d6000803e3d6000fd5b505050506040513d601f19601f8201168201806040525081019061261691906155f7565b61262091906159b2565b905060006126598383611ccd87876001600160a01b039182166000908152609d6020908152604080832093909416825291909152205490565b9050806126785760405162461bcd60e51b8152600401610f6590615776565b6001600160a01b038085166000908152609d60209081526040808320938716835292905290812080548392906126af9084906159b2565b90915550506001600160a01b0384166000908152609c6020526040812080548392906126dc9084906159b2565b909155506126ed9050848483614a36565b604080516001600160a01b038581168252602082018490528616917f3be5b7a71e84ed12875d241991c70855ac5817d847039e17a9d895c1ceb0f18a910160405180910390a250505050565b60dc54339060ff1615156001146127925760405162461bcd60e51b815260206004820152601960248201527f43534854414c4c3a20636173686f75742064697361626c6564000000000000006044820152606401610f65565b6001600160a01b0381166127e05760405162461bcd60e51b815260206004820152601560248201527443534854414c4c3a207a65726f206164647265737360581b6044820152606401610f65565b6001600160a01b038116600090815260da602052604090205460ff16156128495760405162461bcd60e51b815260206004820152601c60248201527f43534854414c4c3a20626c61636b6c69737465642061646472657373000000006044820152606401610f65565b60cf546001600160a01b03828116911614801590612875575060d1546001600160a01b03828116911614155b6128c15760405162461bcd60e51b815260206004820152601d60248201527f43534854414c4c3a20706f6f6c732063616e6e6f7420636173686f75740000006044820152606401610f65565b60c9546040516330cd31af60e11b81526001600160a01b038381166004830152600092169063619a635e9060240160206040518083038186803b15801561290757600080fd5b505afa15801561291b573d6000803e3d6000fd5b505050506040513d601f19601f8201168201806040525081019061293f91906155f7565b9050600081116129915760405162461bcd60e51b815260206004820152601960248201527f43534854414c4c3a20726577617264206e6f74207265616479000000000000006044820152606401610f65565b60d85460009015612a1257606460d854836129ac91906159ec565b6129b691906159ca565b60d15460d2549192506129db916001600160a01b0391821691166123e56002856159ca565b60d1546129f7906001600160a01b0316306123ef6002856159ca565b60d254612a12906001600160a01b031661241f6002846159ca565b612a1c8183615a0b565b60d154909250612a36906001600160a01b03168484614590565b60c95460405163d094fa8d60e01b81526001600160a01b0385811660048301529091169063d094fa8d90602401602060405180830381600087803b158015612a7d57600080fd5b505af1158015612a91573d6000803e3d6000fd5b505050506040513d601f19601f82011682018060405250810190612ab591906155f7565b506040516001600160a01b03841681527f564112c0ad2fbcae1bed83c58ed5d830128565d634cdc875bb02b065ad24234390602001611d7d565b6065546001600160a01b03163314612b195760405162461bcd60e51b8152600401610f65906157e8565b60cf80546001600160a01b0319166001600160a01b0392909216919091179055565b6065546001600160a01b03163314612b655760405162461bcd60e51b8152600401610f65906157e8565b60ca546001600160a01b0382811691161415612bd45760405162461bcd60e51b815260206004820152602860248201527f544b4e3a2054686520726f7574657220616c7265616479206861732074686174604482015267206164647265737360c01b6064820152608401610f65565b60ca80546001600160a01b0319166001600160a01b0383169081179091556040805163c45a015560e01b815290516000929163c45a0155916004808301926020929190829003018186803b158015612c2b57600080fd5b505afa158015612c3f573d6000803e3d6000fd5b505050506040513d601f19601f82011682018060405250810190612c63919061520d565b6001600160a01b031663c9c653963060ca60009054906101000a90046001600160a01b03166001600160a01b03166373b295c26040518163ffffffff1660e01b815260040160206040518083038186803b158015612cc057600080fd5b505afa158015612cd4573d6000803e3d6000fd5b505050506040513d601f19601f82011682018060405250810190612cf8919061520d565b6040516001600160e01b031960e085901b1681526001600160a01b03928316600482015291166024820152604401602060405180830381600087803b158015612d4057600080fd5b505af1158015612d54573d6000803e3d6000fd5b505050506040513d601f19601f82011682018060405250810190612d78919061520d565b60cd80546001600160a01b0319166001600160a01b03929092169190911790555050565b60dc54339060ff161515600114612dee5760405162461bcd60e51b815260206004820152601660248201527510d4d2150e8810d85cda1bdd5d08111a5cd8589b195960521b6044820152606401610f65565b6001600160a01b038116612e395760405162461bcd60e51b8152602060048201526012602482015271435348543a207a65726f206164647265737360701b6044820152606401610f65565b6001600160a01b038116600090815260da602052604090205460ff1615612eb25760405162461bcd60e51b815260206004820152602760248201527f435348543a2074686973206164647265737320686173206265656e20626c61636044820152661adb1a5cdd195960ca1b6064820152608401610f65565b60cf546001600160a01b03828116911614801590612ede575060d1546001600160a01b03828116911614155b8015612ef8575060d0546001600160a01b03828116911614155b612f615760405162461bcd60e51b815260206004820152603460248201527f435348543a2066757475726520616e642072657761726420706f6f6c732063616044820152736e6e6f7420636173686f7574207265776172647360601b6064820152608401610f65565b60c9546040516329b8573160e21b81526001600160a01b03838116600483015260248201859052600092169063a6e15cc49060440160206040518083038186803b158015612fae57600080fd5b505afa158015612fc2573d6000803e3d6000fd5b505050506040513d601f19601f82011682018060405250810190612fe691906155f7565b9050600081116130435760405162461bcd60e51b815260206004820152602260248201527f435348543a20796f757220726577617264206973206e6f742072656164792079604482015261195d60f21b6064820152608401610f65565b60d854600090156130c457606460d8548361305e91906159ec565b61306891906159ca565b60d15460d25491925061308d916001600160a01b0391821691166123e56002856159ca565b60d1546130a9906001600160a01b0316306123ef6002856159ca565b60d2546130c4906001600160a01b031661241f6002846159ca565b6130ce8183615a0b565b60d1549092506130e8906001600160a01b03168484614590565b60c95460405163611015b360e11b81526001600160a01b038581166004830152602482018790529091169063c2202b6690604401602060405180830381600087803b15801561313657600080fd5b505af115801561314a573d6000803e3d6000fd5b505050506040513d601f19601f8201168201806040525081019061316e91906155f7565b50604080516001600160a01b0385168152602081018690527f39f6d68d140e552a327d43ef814649947d78e76743e169e4f00d61b14f2f846d910160405180910390a150505050565b6065546001600160a01b031633146131e15760405162461bcd60e51b8152600401610f65906157e8565b60648111156132325760405162461bcd60e51b815260206004820152601c60248201527f464545533a20636173686f757420657863656564696e672031303025000000006044820152606401610f65565b60d855565b6060336132565760405162461bcd60e51b8152600401610f659061581d565b60c9546001600160a01b031663665bb078336040516001600160e01b031960e084901b1681526001600160a01b03909116600482015260240160206040518083038186803b1580156132a757600080fd5b505afa1580156132bb573d6000803e3d6000fd5b505050506040513d601f19601f820116820180604052508101906132df9190615513565b6132fb5760405162461bcd60e51b8152600401610f65906157c1565b60c9546001600160a01b03166377ec782633611be0565b6065546001600160a01b0316331461333c5760405162461bcd60e51b8152600401610f65906157e8565b6133466000614a88565b565b60c9546040805163055a757d60e41b815290516000926001600160a01b0316916355a757d0916004808301926020929190829003018186803b1580156119d657600080fd5b60c95460405162c73e4d60e01b81526000916001600160a01b03169062c73e4d90611dbb9085906004016156f4565b6065546001600160a01b031633146133e65760405162461bcd60e51b8152600401610f65906157e8565b60d080546001600160a01b0319166001600160a01b0392909216919091179055565b6060336134275760405162461bcd60e51b8152600401610f659061581d565b60c9546001600160a01b031663665bb078336040516001600160e01b031960e084901b1681526001600160a01b03909116600482015260240160206040518083038186803b15801561347857600080fd5b505afa15801561348c573d6000803e3d6000fd5b505050506040513d601f19601f820116820180604052508101906134b09190615513565b6134cc5760405162461bcd60e51b8152600401610f65906157c1565b60c9546001600160a01b0316638bf1451433611be0565b6065546001600160a01b0316331461350d5760405162461bcd60e51b8152600401610f65906157e8565b60d980549115156101000261ff0019909216919091179055565b6060336135465760405162461bcd60e51b8152600401610f659061581d565b60c9546001600160a01b031663665bb078336040516001600160e01b031960e084901b1681526001600160a01b03909116600482015260240160206040518083038186803b15801561359757600080fd5b505afa1580156135ab573d6000803e3d6000fd5b505050506040513d601f19601f820116820180604052508101906135cf9190615513565b6135eb5760405162461bcd60e51b8152600401610f65906157c1565b60c9546001600160a01b031663f743f31933611be0565b6000609b828154811061361757613617615aba565b6000918252602090912001546001600160a01b031692915050565b6065546001600160a01b0316331461365c5760405162461bcd60e51b8152600401610f65906157e8565b60c980546001600160a01b0319166001600160a01b0392909216919091179055565b6065546001600160a01b031633146136a85760405162461bcd60e51b8152600401610f65906157e8565b60008160d45460d65460d3546136be91906159b2565b6136c891906159b2565b6136d291906159b2565b905060648111156136f55760405162461bcd60e51b8152600401610f6590615842565b60d59190915560d755565b60603361371f5760405162461bcd60e51b8152600401610f659061581d565b60c9546001600160a01b031663665bb078336040516001600160e01b031960e084901b1681526001600160a01b03909116600482015260240160206040518083038186803b15801561377057600080fd5b505afa158015613784573d6000803e3d6000fd5b505050506040513d601f19601f820116820180604052508101906137a89190615513565b6137c45760405162461bcd60e51b8152600401610f65906157c1565b60c9546001600160a01b03166351bf120c33611be0565b6065546001600160a01b031633146138055760405162461bcd60e51b8152600401610f65906157e8565b60dc80549115156101000261ff0019909216919091179055565b606060378054610fa890615a4e565b6065546001600160a01b031633146138585760405162461bcd60e51b8152600401610f65906157e8565b60008160d65460d55460d35461386e91906159b2565b61387891906159b2565b61388291906159b2565b905060648111156138a55760405162461bcd60e51b8152600401610f6590615842565b60d49190915560d755565b6065546001600160a01b031633146138da5760405162461bcd60e51b8152600401610f65906157e8565b60cd546001600160a01b038381169116141561394c5760405162461bcd60e51b815260206004820152602b60248201527f544b4e3a205468652050616e63616b655377617020706169722063616e6e6f7460448201526a081899481c995b5bdd995960aa1b6064820152608401610f65565b613956828261400b565b5050565b6060336139795760405162461bcd60e51b8152600401610f659061581d565b60c9546001600160a01b031663665bb078336040516001600160e01b031960e084901b1681526001600160a01b03909116600482015260240160206040518083038186803b1580156139ca57600080fd5b505afa1580156139de573d6000803e3d6000fd5b505050506040513d601f19601f82011682018060405250810190613a029190615513565b613a1e5760405162461bcd60e51b8152600401610f65906157c1565b60c9546001600160a01b031663367fd07433611be0565b6065546001600160a01b03163314613a5f5760405162461bcd60e51b8152600401610f65906157e8565b60d9805460ff1916911515919091179055565b3360008181526034602090815260408083206001600160a01b038716845290915281205490919083811015613af75760405162461bcd60e51b815260206004820152602560248201527f45524332303a2064656372656173656420616c6c6f77616e63652062656c6f77604482015264207a65726f60d81b6064820152608401610f65565b613b0482868684036141aa565b506001949350505050565b60c9546040805163e18f03ad60e01b815290516000926001600160a01b03169163e18f03ad916004808301926020929190829003018186803b1580156119d657600080fd5b6000336118b58185856144c4565b6065546001600160a01b03163314613b8c5760405162461bcd60e51b8152600401610f65906157e8565b60dc805460ff1916911515919091179055565b6065546000906001600160a01b03163314613bcc5760405162461bcd60e51b8152600401610f65906157e8565b60c9546040516330cd31af60e11b81526001600160a01b0384811660048301529091169063619a635e90602401611dbb565b919050565b6065546001600160a01b03163314613c2d5760405162461bcd60e51b8152600401610f65906157e8565b60c954604051631c864c8f60e11b8152600481018390526001600160a01b039091169063390c991e90602401600060405180830381600087803b158015613c7357600080fd5b505af1158015613c87573d6000803e3d6000fd5b5050505050565b6065546001600160a01b03163314613cb85760405162461bcd60e51b8152600401610f65906157e8565b60d180546001600160a01b0319166001600160a01b0392909216919091179055565b6065546001600160a01b03163314613d045760405162461bcd60e51b8152600401610f65906157e8565b60c954604051631d5a173160e01b81526001600160a01b0390911690631d5a173190611ad39085908590600401615702565b606033613d555760405162461bcd60e51b8152600401610f659061581d565b60c9546001600160a01b031663665bb078336040516001600160e01b031960e084901b1681526001600160a01b03909116600482015260240160206040518083038186803b158015613da657600080fd5b505afa158015613dba573d6000803e3d6000fd5b505050506040513d601f19601f82011682018060405250810190613dde9190615513565b613dfa5760405162461bcd60e51b8152600401610f65906157c1565b60c9546001600160a01b03166328cceb2433611be0565b6065546001600160a01b03163314613e3b5760405162461bcd60e51b8152600401610f65906157e8565b60d280546001600160a01b0319166001600160a01b0392909216919091179055565b6065546001600160a01b03163314613e875760405162461bcd60e51b8152600401610f65906157e8565b6001600160a01b038116613eec5760405162461bcd60e51b815260206004820152602660248201527f4f776e61626c653a206e6577206f776e657220697320746865207a65726f206160448201526564647265737360d01b6064820152608401610f65565b613ef581614a88565b50565b6065546001600160a01b03163314613f225760405162461bcd60e51b8152600401610f65906157e8565b60008160d45460d55460d354613f3891906159b2565b613f4291906159b2565b613f4c91906159b2565b90506064811115613f6f5760405162461bcd60e51b8152600401610f6590615842565b60d69190915560d755565b600054610100900460ff16613fa15760405162461bcd60e51b8152600401610f6590615879565b613346614ada565b600054610100900460ff16613fd05760405162461bcd60e51b8152600401610f6590615879565b6139568282614b0a565b600054610100900460ff166140015760405162461bcd60e51b8152600401610f6590615879565b6139568282614b58565b6001600160a01b038216600090815260db602052604090205460ff16151581151514156140a05760405162461bcd60e51b815260206004820152603d60248201527f544b4e3a204175746f6d61746564206d61726b6574206d616b6572207061697260448201527f20697320616c72656164792073657420746f20746861742076616c75650000006064820152608401610f65565b6001600160a01b0391909116600090815260db60205260409020805460ff1916911515919091179055565b6001600160a01b0382166141215760405162461bcd60e51b815260206004820152601f60248201527f45524332303a206d696e7420746f20746865207a65726f2061646472657373006044820152606401610f65565b806035600082825461413391906159b2565b90915550506001600160a01b038216600090815260336020526040812080548392906141609084906159b2565b90915550506040518181526001600160a01b038316906000907fddf252ad1be2c89b69c2b068fc378daa952ba7f163c4a11628f55a4df523b3ef9060200160405180910390a35050565b6001600160a01b03831661420c5760405162461bcd60e51b8152602060048201526024808201527f45524332303a20617070726f76652066726f6d20746865207a65726f206164646044820152637265737360e01b6064820152608401610f65565b6001600160a01b03821661426d5760405162461bcd60e51b815260206004820152602260248201527f45524332303a20617070726f766520746f20746865207a65726f206164647265604482015261737360f01b6064820152608401610f65565b6001600160a01b0383811660008181526034602090815260408083209487168084529482529182902085905590518481527f8c5be1e5ebec7d5bd14f71427d1e84f3dd0314c0f7b2291e5b200ac8c7c3b925910160405180910390a3505050565b6097546001600160a01b038416600090815260996020526040812054909183916142f890866159ec565b61430291906159ca565b61430c9190615a0b565b949350505050565b804710156143645760405162461bcd60e51b815260206004820152601d60248201527f416464726573733a20696e73756666696369656e742062616c616e63650000006044820152606401610f65565b6000826001600160a01b03168260405160006040518083038185875af1925050503d80600081146143b1576040519150601f19603f3d011682016040523d82523d6000602084013e6143b6565b606091505b505090508061442d5760405162461bcd60e51b815260206004820152603a60248201527f416464726573733a20756e61626c6520746f2073656e642076616c75652c207260448201527f6563697069656e74206d617920686176652072657665727465640000000000006064820152608401610f65565b505050565b6001600160a01b0383811660009081526034602090815260408083209386168352929052205460001981146144be57818110156144b15760405162461bcd60e51b815260206004820152601d60248201527f45524332303a20696e73756666696369656e7420616c6c6f77616e63650000006044820152606401610f65565b6144be84848484036141aa565b50505050565b6001600160a01b038316600090815260da602052604090205460ff1615801561450657506001600160a01b038216600090815260da602052604090205460ff16155b6145525760405162461bcd60e51b815260206004820152601a60248201527f45524332303a20426c61636b6c697374656420616464726573730000000000006044820152606401610f65565b61442d838383614590565b60c9546040516344fea1b960e01b81526001600160a01b03838116600483015260009216906344fea1b990602401611dbb565b6001600160a01b0383166145f45760405162461bcd60e51b815260206004820152602560248201527f45524332303a207472616e736665722066726f6d20746865207a65726f206164604482015264647265737360d81b6064820152608401610f65565b6001600160a01b0382166146565760405162461bcd60e51b815260206004820152602360248201527f45524332303a207472616e7366657220746f20746865207a65726f206164647260448201526265737360e81b6064820152608401610f65565b6001600160a01b038316600090815260336020526040902054818110156146ce5760405162461bcd60e51b815260206004820152602660248201527f45524332303a207472616e7366657220616d6f756e7420657863656564732062604482015265616c616e636560d01b6064820152608401610f65565b6001600160a01b038085166000908152603360205260408082208585039055918516815290812080548492906147059084906159b2565b92505081905550826001600160a01b0316846001600160a01b03167fddf252ad1be2c89b69c2b068fc378daa952ba7f163c4a11628f55a4df523b3ef8460405161475191815260200190565b60405180910390a36144be565b6040805160038082526080820190925260009160208201606080368337019050509050308160008151811061479557614795615aba565b6001600160a01b0392831660209182029290920181019190915260ca54604080516339d94ae160e11b8152905191909316926373b295c2926004808301939192829003018186803b1580156147e957600080fd5b505afa1580156147fd573d6000803e3d6000fd5b505050506040513d601f19601f82011682018060405250810190614821919061520d565b8160018151811061483457614834615aba565b6001600160a01b03928316602091820292909201015260d954825162010000909104909116908290600290811061486d5761486d615aba565b6001600160a01b03928316602091820292909201015260ca5461489391309116846141aa565b60ca54604051635c11d79560e01b81526001600160a01b0390911690635c11d795906148cc9085906000908690899042906004016158c4565b600060405180830381600087803b1580156148e657600080fd5b505af11580156148fa573d6000803e3d6000fd5b50505050505050565b604080516002808252606082018352600092602083019080368337019050509050308160008151811061493857614938615aba565b6001600160a01b0392831660209182029290920181019190915260ca54604080516339d94ae160e11b8152905191909316926373b295c2926004808301939192829003018186803b15801561498c57600080fd5b505afa1580156149a0573d6000803e3d6000fd5b505050506040513d601f19601f820116820180604052508101906149c4919061520d565b816001815181106149d7576149d7615aba565b6001600160a01b03928316602091820292909201015260ca546149fd91309116846141aa565b60ca54604051633b158ab160e11b81526001600160a01b039091169063762b1562906148cc9085906000908690899042906004016158c4565b604080516001600160a01b038416602482015260448082018490528251808303909101815260649091019091526020810180516001600160e01b031663a9059cbb60e01b17905261442d908490614c96565b606580546001600160a01b038381166001600160a01b0319831681179093556040519116919082907f8be0079c531659141344cd1fd0a4f28419497f9722a3daafe3b4186f6b6457e090600090a35050565b600054610100900460ff16614b015760405162461bcd60e51b8152600401610f6590615879565b61334633614a88565b600054610100900460ff16614b315760405162461bcd60e51b8152600401610f6590615879565b8151614b44906036906020850190615062565b50805161442d906037906020840190615062565b600054610100900460ff16614b7f5760405162461bcd60e51b8152600401610f6590615879565b8051825114614beb5760405162461bcd60e51b815260206004820152603260248201527f5061796d656e7453706c69747465723a2070617965657320616e6420736861726044820152710cae640d8cadccee8d040dad2e6dac2e8c6d60731b6064820152608401610f65565b6000825111614c3c5760405162461bcd60e51b815260206004820152601a60248201527f5061796d656e7453706c69747465723a206e6f207061796565730000000000006044820152606401610f65565b60005b825181101561442d57614c84838281518110614c5d57614c5d615aba565b6020026020010151838381518110614c7757614c77615aba565b6020026020010151614d68565b80614c8e81615a89565b915050614c3f565b6000614ceb826040518060400160405280602081526020017f5361666545524332303a206c6f772d6c6576656c2063616c6c206661696c6564815250856001600160a01b0316614f4e9092919063ffffffff16565b80519091501561442d5780806020019051810190614d099190615513565b61442d5760405162461bcd60e51b815260206004820152602a60248201527f5361666545524332303a204552433230206f7065726174696f6e20646964206e6044820152691bdd081cdd58d8d9595960b21b6064820152608401610f65565b6001600160a01b038216614dd35760405162461bcd60e51b815260206004820152602c60248201527f5061796d656e7453706c69747465723a206163636f756e74206973207468652060448201526b7a65726f206164647265737360a01b6064820152608401610f65565b60008111614e235760405162461bcd60e51b815260206004820152601d60248201527f5061796d656e7453706c69747465723a207368617265732061726520300000006044820152606401610f65565b6001600160a01b03821660009081526099602052604090205415614e9d5760405162461bcd60e51b815260206004820152602b60248201527f5061796d656e7453706c69747465723a206163636f756e7420616c726561647960448201526a206861732073686172657360a81b6064820152608401610f65565b609b8054600181019091557fbba9db4cdbea0a37c207bbb83e20f828cd4441c49891101dc94fd20dc8efc3490180546001600160a01b0319166001600160a01b0384169081179091556000908152609960205260409020819055609754614f059082906159b2565b609755604080516001600160a01b0384168152602081018390527f40c340f65e17194d14ddddb073d3c9f888e3cb52b5aae0c6c7706b4fbc905fac910160405180910390a15050565b606061430c8484600085856001600160a01b0385163b614fb05760405162461bcd60e51b815260206004820152601d60248201527f416464726573733a2063616c6c20746f206e6f6e2d636f6e74726163740000006044820152606401610f65565b600080866001600160a01b03168587604051614fcc919061565e565b60006040518083038185875af1925050503d8060008114615009576040519150601f19603f3d011682016040523d82523d6000602084013e61500e565b606091505b509150915061501e828286615029565b979650505050505050565b60608315615038575081611e5b565b8251156150485782518084602001fd5b8160405162461bcd60e51b8152600401610f65919061571d565b82805461506e90615a4e565b90600052602060002090601f01602090048101928261509057600085556150d6565b82601f106150a957805160ff19168380011785556150d6565b828001600101855582156150d6579182015b828111156150d65782518255916020019190600101906150bb565b506150e29291506150e6565b5090565b5b808211156150e257600081556001016150e7565b8035613bfe81615ae6565b600082601f83011261511757600080fd5b8135602061512c61512783615966565b615935565b80838252828201915082860187848660051b890101111561514c57600080fd5b60005b8581101561517457813561516281615ae6565b8452928401929084019060010161514f565b5090979650505050505050565b600082601f83011261519257600080fd5b813560206151a261512783615966565b80838252828201915082860187848660051b89010111156151c257600080fd5b60005b85811015615174578135845292840192908401906001016151c5565b803560038110613bfe57600080fd5b60006020828403121561520257600080fd5b8135611e5b81615ae6565b60006020828403121561521f57600080fd5b8151611e5b81615ae6565b6000806040838503121561523d57600080fd5b823561524881615ae6565b9150602083013561525881615ae6565b809150509250929050565b60008060006060848603121561527857600080fd5b833561528381615ae6565b9250602084013561529381615ae6565b929592945050506040919091013590565b600080604083850312156152b757600080fd5b82356152c281615ae6565b9150602083013561525881615afb565b600080604083850312156152e557600080fd5b82356152f081615ae6565b946020939093013593505050565b600080600080600080600060e0888a03121561531957600080fd5b873567ffffffffffffffff8082111561533157600080fd5b61533d8b838c01615106565b985060208a013591508082111561535357600080fd5b61535f8b838c01615181565b975060408a013591508082111561537557600080fd5b6153818b838c01615106565b965060608a013591508082111561539757600080fd5b6153a38b838c01615181565b955060808a01359150808211156153b957600080fd5b506153c68a828b01615181565b9350506153d560a089016150fb565b91506153e360c089016150fb565b905092959891949750929550565b600080604080848603121561540557600080fd5b833567ffffffffffffffff8082111561541d57600080fd5b818601915086601f83011261543157600080fd5b8135602061544161512783615966565b8083825282820191508286018b848660051b890101111561546157600080fd5b60005b858110156154d65781358781111561547b57600080fd5b8801603f81018e1361548c57600080fd5b8581013561549c6151278261598a565b8181528f8c8385010111156154b057600080fd5b818c84018983013760009181018801919091528552509284019290840190600101615464565b505080985050506154e88189016151e1565b955050505050509250929050565b60006020828403121561550857600080fd5b8135611e5b81615afb565b60006020828403121561552557600080fd5b8151611e5b81615afb565b60006020828403121561554257600080fd5b611e5b826151e1565b6000806040838503121561555e57600080fd5b6152f0836151e1565b60006020828403121561557957600080fd5b815167ffffffffffffffff81111561559057600080fd5b8201601f810184136155a157600080fd5b80516155af6151278261598a565b8181528560208385010111156155c457600080fd5b6155d5826020830160208601615a22565b95945050505050565b6000602082840312156155f057600080fd5b5035919050565b60006020828403121561560957600080fd5b5051919050565b6003811061562e57634e487b7160e01b600052602160045260246000fd5b9052565b6000815180845261564a816020860160208601615a22565b601f01601f19169290920160200192915050565b60008251615670818460208701615a22565b9190910192915050565b60006060820160018060a01b0386168352602060608185015281865180845260808601915060808160051b870101935082880160005b828110156156de57607f198887030184526156cc868351615632565b955092840192908401906001016156b0565b50505050508091505061430c6040830184615610565b602081016118bb8284615610565b604081016157108285615610565b8260208301529392505050565b602081526000611e5b6020830184615632565b60208082526026908201527f5061796d656e7453706c69747465723a206163636f756e7420686173206e6f2060408201526573686172657360d01b606082015260800190565b6020808252602b908201527f5061796d656e7453706c69747465723a206163636f756e74206973206e6f742060408201526a191d59481c185e5b595b9d60aa1b606082015260800190565b6020808252600d908201526c27279021a7a72a1027aba722a960991b604082015260600190565b6020808252818101527f4f776e61626c653a2063616c6c6572206973206e6f7420746865206f776e6572604082015260600190565b6020808252600b908201526a053454e44455220495320360ac1b604082015260600190565b6020808252601a908201527f464545533a20746f74616c20657863656564696e672031303025000000000000604082015260600190565b6020808252602b908201527f496e697469616c697a61626c653a20636f6e7472616374206973206e6f74206960408201526a6e697469616c697a696e6760a81b606082015260800190565b600060a082018783526020878185015260a0604085015281875180845260c086019150828901935060005b818110156159145784516001600160a01b0316835293830193918301916001016158ef565b50506001600160a01b03969096166060850152505050608001529392505050565b604051601f8201601f1916810167ffffffffffffffff8111828210171561595e5761595e615ad0565b604052919050565b600067ffffffffffffffff82111561598057615980615ad0565b5060051b60200190565b600067ffffffffffffffff8211156159a4576159a4615ad0565b50601f01601f191660200190565b600082198211156159c5576159c5615aa4565b500190565b6000826159e757634e487b7160e01b600052601260045260246000fd5b500490565b6000816000190483118215151615615a0657615a06615aa4565b500290565b600082821015615a1d57615a1d615aa4565b500390565b60005b83811015615a3d578181015183820152602001615a25565b838111156144be5750506000910152565b600181811c90821680615a6257607f821691505b60208210811415615a8357634e487b7160e01b600052602260045260246000fd5b50919050565b6000600019821415615a9d57615a9d615aa4565b5060010190565b634e487b7160e01b600052601160045260246000fd5b634e487b7160e01b600052603260045260246000fd5b634e487b7160e01b600052604160045260246000fd5b6001600160a01b0381168114613ef557600080fd5b8015158114613ef557600080fdfea164736f6c6343000807000a",
  "devdoc": {
    "kind": "dev",
    "methods": {
      "allowance(address,address)": {
        "details": "See {IERC20-allowance}."
      },
      "approve(address,uint256)": {
        "details": "See {IERC20-approve}. NOTE: If `amount` is the maximum `uint256`, the allowance is not updated on `transferFrom`. This is semantically equivalent to an infinite approval. Requirements: - `spender` cannot be the zero address."
      },
      "balanceOf(address)": {
        "details": "See {IERC20-balanceOf}."
      },
      "decimals()": {
        "details": "Returns the number of decimals used to get its user representation. For example, if `decimals` equals `2`, a balance of `505` tokens should be displayed to a user as `5.05` (`505 / 10 ** 2`). Tokens usually opt for a value of 18, imitating the relationship between Ether and Wei. This is the value {ERC20} uses, unless this function is overridden; NOTE: This information is only used for _display_ purposes: it in no way affects any of the arithmetic of the contract, including {IERC20-balanceOf} and {IERC20-transfer}."
      },
      "decreaseAllowance(address,uint256)": {
        "details": "Atomically decreases the allowance granted to `spender` by the caller. This is an alternative to {approve} that can be used as a mitigation for problems described in {IERC20-approve}. Emits an {Approval} event indicating the updated allowance. Requirements: - `spender` cannot be the zero address. - `spender` must have allowance for the caller of at least `subtractedValue`."
      },
      "increaseAllowance(address,uint256)": {
        "details": "Atomically increases the allowance granted to `spender` by the caller. This is an alternative to {approve} that can be used as a mitigation for problems described in {IERC20-approve}. Emits an {Approval} event indicating the updated allowance. Requirements: - `spender` cannot be the zero address."
      },
      "name()": {
        "details": "Returns the name of the token."
      },
      "owner()": {
        "details": "Returns the address of the current owner."
      },
      "payee(uint256)": {
        "details": "Getter for the address of the payee number `index`."
      },
      "release(address)": {
        "details": "Triggers a transfer to `account` of the amount of Ether they are owed, according to their percentage of the total shares and their previous withdrawals."
      },
      "release(address,address)": {
        "details": "Triggers a transfer to `account` of the amount of `token` tokens they are owed, according to their percentage of the total shares and their previous withdrawals. `token` must be the address of an IERC20 contract."
      },
      "released(address)": {
        "details": "Getter for the amount of Ether already released to a payee."
      },
      "released(address,address)": {
        "details": "Getter for the amount of `token` tokens already released to a payee. `token` should be the address of an IERC20 contract."
      },
      "renounceOwnership()": {
        "details": "Leaves the contract without owner. It will not be possible to call `onlyOwner` functions anymore. Can only be called by the current owner. NOTE: Renouncing ownership will leave the contract without an owner, thereby removing any functionality that is only available to the owner."
      },
      "shares(address)": {
        "details": "Getter for the amount of shares held by an account."
      },
      "symbol()": {
        "details": "Returns the symbol of the token, usually a shorter version of the name."
      },
      "totalReleased()": {
        "details": "Getter for the total amount of Ether already released."
      },
      "totalReleased(address)": {
        "details": "Getter for the total amount of `token` already released. `token` should be the address of an IERC20 contract."
      },
      "totalShares()": {
        "details": "Getter for the total shares held by payees."
      },
      "totalSupply()": {
        "details": "See {IERC20-totalSupply}."
      },
      "transfer(address,uint256)": {
        "details": "See {IERC20-transfer}. Requirements: - `to` cannot be the zero address. - the caller must have a balance of at least `amount`."
      },
      "transferFrom(address,address,uint256)": {
        "details": "See {IERC20-transferFrom}. Emits an {Approval} event indicating the updated allowance. This is not required by the EIP. See the note at the beginning of {ERC20}. NOTE: Does not update the allowance if the current allowance is the maximum `uint256`. Requirements: - `from` and `to` cannot be the zero address. - `from` must have a balance of at least `amount`. - the caller must have allowance for ``from``'s tokens of at least `amount`."
      },
      "transferOwnership(address)": {
        "details": "Transfers ownership of the contract to a new account (`newOwner`). Can only be called by the current owner."
      }
    },
    "version": 1
  },
  "userdoc": {
    "kind": "user",
    "methods": {},
    "version": 1
  },
  "storageLayout": {
    "storage": [
      {
        "astId": 598,
        "contract": "contracts/ZeroXBlocksV1.sol:ZeroXBlocksV1",
        "label": "_initialized",
        "offset": 0,
        "slot": "0",
        "type": "t_bool"
      },
      {
        "astId": 601,
        "contract": "contracts/ZeroXBlocksV1.sol:ZeroXBlocksV1",
        "label": "_initializing",
        "offset": 1,
        "slot": "0",
        "type": "t_bool"
      },
      {
        "astId": 1889,
        "contract": "contracts/ZeroXBlocksV1.sol:ZeroXBlocksV1",
        "label": "__gap",
        "offset": 0,
        "slot": "1",
        "type": "t_array(t_uint256)50_storage"
      },
      {
        "astId": 684,
        "contract": "contracts/ZeroXBlocksV1.sol:ZeroXBlocksV1",
        "label": "_balances",
        "offset": 0,
        "slot": "51",
        "type": "t_mapping(t_address,t_uint256)"
      },
      {
        "astId": 690,
        "contract": "contracts/ZeroXBlocksV1.sol:ZeroXBlocksV1",
        "label": "_allowances",
        "offset": 0,
        "slot": "52",
        "type": "t_mapping(t_address,t_mapping(t_address,t_uint256))"
      },
      {
        "astId": 692,
        "contract": "contracts/ZeroXBlocksV1.sol:ZeroXBlocksV1",
        "label": "_totalSupply",
        "offset": 0,
        "slot": "53",
        "type": "t_uint256"
      },
      {
        "astId": 694,
        "contract": "contracts/ZeroXBlocksV1.sol:ZeroXBlocksV1",
        "label": "_name",
        "offset": 0,
        "slot": "54",
        "type": "t_string_storage"
      },
      {
        "astId": 696,
        "contract": "contracts/ZeroXBlocksV1.sol:ZeroXBlocksV1",
        "label": "_symbol",
        "offset": 0,
        "slot": "55",
        "type": "t_string_storage"
      },
      {
        "astId": 1277,
        "contract": "contracts/ZeroXBlocksV1.sol:ZeroXBlocksV1",
        "label": "__gap",
        "offset": 0,
        "slot": "56",
        "type": "t_array(t_uint256)45_storage"
      },
      {
        "astId": 10,
        "contract": "contracts/ZeroXBlocksV1.sol:ZeroXBlocksV1",
        "label": "_owner",
        "offset": 0,
        "slot": "101",
        "type": "t_address"
      },
      {
        "astId": 122,
        "contract": "contracts/ZeroXBlocksV1.sol:ZeroXBlocksV1",
        "label": "__gap",
        "offset": 0,
        "slot": "102",
        "type": "t_array(t_uint256)49_storage"
      },
      {
        "astId": 163,
        "contract": "contracts/ZeroXBlocksV1.sol:ZeroXBlocksV1",
        "label": "_totalShares",
        "offset": 0,
        "slot": "151",
        "type": "t_uint256"
      },
      {
        "astId": 165,
        "contract": "contracts/ZeroXBlocksV1.sol:ZeroXBlocksV1",
        "label": "_totalReleased",
        "offset": 0,
        "slot": "152",
        "type": "t_uint256"
      },
      {
        "astId": 169,
        "contract": "contracts/ZeroXBlocksV1.sol:ZeroXBlocksV1",
        "label": "_shares",
        "offset": 0,
        "slot": "153",
        "type": "t_mapping(t_address,t_uint256)"
      },
      {
        "astId": 173,
        "contract": "contracts/ZeroXBlocksV1.sol:ZeroXBlocksV1",
        "label": "_released",
        "offset": 0,
        "slot": "154",
        "type": "t_mapping(t_address,t_uint256)"
      },
      {
        "astId": 176,
        "contract": "contracts/ZeroXBlocksV1.sol:ZeroXBlocksV1",
        "label": "_payees",
        "offset": 0,
        "slot": "155",
        "type": "t_array(t_address)dyn_storage"
      },
      {
        "astId": 181,
        "contract": "contracts/ZeroXBlocksV1.sol:ZeroXBlocksV1",
        "label": "_erc20TotalReleased",
        "offset": 0,
        "slot": "156",
        "type": "t_mapping(t_contract(IERC20Upgradeable)1356,t_uint256)"
      },
      {
        "astId": 188,
        "contract": "contracts/ZeroXBlocksV1.sol:ZeroXBlocksV1",
        "label": "_erc20Released",
        "offset": 0,
        "slot": "157",
        "type": "t_mapping(t_contract(IERC20Upgradeable)1356,t_mapping(t_address,t_uint256))"
      },
      {
        "astId": 590,
        "contract": "contracts/ZeroXBlocksV1.sol:ZeroXBlocksV1",
        "label": "__gap",
        "offset": 0,
        "slot": "158",
        "type": "t_array(t_uint256)43_storage"
      },
      {
        "astId": 1910,
        "contract": "contracts/ZeroXBlocksV1.sol:ZeroXBlocksV1",
        "label": "_crm",
        "offset": 0,
        "slot": "201",
        "type": "t_contract(CONTRewardManagement)5803"
      },
      {
        "astId": 1913,
        "contract": "contracts/ZeroXBlocksV1.sol:ZeroXBlocksV1",
        "label": "uniswapV2Router",
        "offset": 0,
        "slot": "202",
        "type": "t_contract(IJoeRouter02)6272"
      },
      {
        "astId": 1918,
        "contract": "contracts/ZeroXBlocksV1.sol:ZeroXBlocksV1",
        "label": "ownedContsLimit",
        "offset": 0,
        "slot": "203",
        "type": "t_uint256"
      },
      {
        "astId": 1920,
        "contract": "contracts/ZeroXBlocksV1.sol:ZeroXBlocksV1",
        "label": "mintContLimit",
        "offset": 0,
        "slot": "204",
        "type": "t_uint256"
      },
      {
        "astId": 1922,
        "contract": "contracts/ZeroXBlocksV1.sol:ZeroXBlocksV1",
        "label": "uniswapV2Pair",
        "offset": 0,
        "slot": "205",
        "type": "t_address"
      },
      {
        "astId": 1924,
        "contract": "contracts/ZeroXBlocksV1.sol:ZeroXBlocksV1",
        "label": "totalTokensPaidForMinting",
        "offset": 0,
        "slot": "206",
        "type": "t_uint256"
      },
      {
        "astId": 1926,
        "contract": "contracts/ZeroXBlocksV1.sol:ZeroXBlocksV1",
        "label": "developmentFundPool",
        "offset": 0,
        "slot": "207",
        "type": "t_address"
      },
      {
        "astId": 1928,
        "contract": "contracts/ZeroXBlocksV1.sol:ZeroXBlocksV1",
        "label": "treasuryPool",
        "offset": 0,
        "slot": "208",
        "type": "t_address"
      },
      {
        "astId": 1930,
        "contract": "contracts/ZeroXBlocksV1.sol:ZeroXBlocksV1",
        "label": "rewardsPool",
        "offset": 0,
        "slot": "209",
        "type": "t_address"
      },
      {
        "astId": 1932,
        "contract": "contracts/ZeroXBlocksV1.sol:ZeroXBlocksV1",
        "label": "liquidityPool",
        "offset": 0,
        "slot": "210",
        "type": "t_address"
      },
      {
        "astId": 1934,
        "contract": "contracts/ZeroXBlocksV1.sol:ZeroXBlocksV1",
        "label": "rewardsFee",
        "offset": 0,
        "slot": "211",
        "type": "t_uint256"
      },
      {
        "astId": 1936,
        "contract": "contracts/ZeroXBlocksV1.sol:ZeroXBlocksV1",
        "label": "treasuryFee",
        "offset": 0,
        "slot": "212",
        "type": "t_uint256"
      },
      {
        "astId": 1938,
        "contract": "contracts/ZeroXBlocksV1.sol:ZeroXBlocksV1",
        "label": "liquidityPoolFee",
        "offset": 0,
        "slot": "213",
        "type": "t_uint256"
      },
      {
        "astId": 1940,
        "contract": "contracts/ZeroXBlocksV1.sol:ZeroXBlocksV1",
        "label": "developmentFee",
        "offset": 0,
        "slot": "214",
        "type": "t_uint256"
      },
      {
        "astId": 1942,
        "contract": "contracts/ZeroXBlocksV1.sol:ZeroXBlocksV1",
        "label": "totalFees",
        "offset": 0,
        "slot": "215",
        "type": "t_uint256"
      },
      {
        "astId": 1944,
        "contract": "contracts/ZeroXBlocksV1.sol:ZeroXBlocksV1",
        "label": "cashoutFee",
        "offset": 0,
        "slot": "216",
        "type": "t_uint256"
      },
      {
        "astId": 1946,
        "contract": "contracts/ZeroXBlocksV1.sol:ZeroXBlocksV1",
        "label": "enableAutoSwapTreasury",
        "offset": 0,
        "slot": "217",
        "type": "t_bool"
      },
      {
        "astId": 1948,
        "contract": "contracts/ZeroXBlocksV1.sol:ZeroXBlocksV1",
        "label": "enableAutoSwapDevFund",
        "offset": 1,
        "slot": "217",
        "type": "t_bool"
      },
      {
        "astId": 1950,
        "contract": "contracts/ZeroXBlocksV1.sol:ZeroXBlocksV1",
        "label": "usdcToken",
        "offset": 2,
        "slot": "217",
        "type": "t_address"
      },
      {
        "astId": 1954,
        "contract": "contracts/ZeroXBlocksV1.sol:ZeroXBlocksV1",
        "label": "_isBlacklisted",
        "offset": 0,
        "slot": "218",
        "type": "t_mapping(t_address,t_bool)"
      },
      {
        "astId": 1958,
        "contract": "contracts/ZeroXBlocksV1.sol:ZeroXBlocksV1",
        "label": "automatedMarketMakerPairs",
        "offset": 0,
        "slot": "219",
        "type": "t_mapping(t_address,t_bool)"
      },
      {
        "astId": 1961,
        "contract": "contracts/ZeroXBlocksV1.sol:ZeroXBlocksV1",
        "label": "enableCashout",
        "offset": 0,
        "slot": "220",
        "type": "t_bool"
      },
      {
        "astId": 1964,
        "contract": "contracts/ZeroXBlocksV1.sol:ZeroXBlocksV1",
        "label": "enableMintConts",
        "offset": 1,
        "slot": "220",
        "type": "t_bool"
      }
    ],
    "types": {
      "t_address": {
        "encoding": "inplace",
        "label": "address",
        "numberOfBytes": "20"
      },
      "t_array(t_address)dyn_storage": {
        "base": "t_address",
        "encoding": "dynamic_array",
        "label": "address[]",
        "numberOfBytes": "32"
      },
      "t_array(t_uint256)43_storage": {
        "base": "t_uint256",
        "encoding": "inplace",
        "label": "uint256[43]",
        "numberOfBytes": "1376"
      },
      "t_array(t_uint256)45_storage": {
        "base": "t_uint256",
        "encoding": "inplace",
        "label": "uint256[45]",
        "numberOfBytes": "1440"
      },
      "t_array(t_uint256)49_storage": {
        "base": "t_uint256",
        "encoding": "inplace",
        "label": "uint256[49]",
        "numberOfBytes": "1568"
      },
      "t_array(t_uint256)50_storage": {
        "base": "t_uint256",
        "encoding": "inplace",
        "label": "uint256[50]",
        "numberOfBytes": "1600"
      },
      "t_bool": {
        "encoding": "inplace",
        "label": "bool",
        "numberOfBytes": "1"
      },
      "t_contract(CONTRewardManagement)5803": {
        "encoding": "inplace",
        "label": "contract CONTRewardManagement",
        "numberOfBytes": "20"
      },
      "t_contract(IERC20Upgradeable)1356": {
        "encoding": "inplace",
        "label": "contract IERC20Upgradeable",
        "numberOfBytes": "20"
      },
      "t_contract(IJoeRouter02)6272": {
        "encoding": "inplace",
        "label": "contract IJoeRouter02",
        "numberOfBytes": "20"
      },
      "t_mapping(t_address,t_bool)": {
        "encoding": "mapping",
        "key": "t_address",
        "label": "mapping(address => bool)",
        "numberOfBytes": "32",
        "value": "t_bool"
      },
      "t_mapping(t_address,t_mapping(t_address,t_uint256))": {
        "encoding": "mapping",
        "key": "t_address",
        "label": "mapping(address => mapping(address => uint256))",
        "numberOfBytes": "32",
        "value": "t_mapping(t_address,t_uint256)"
      },
      "t_mapping(t_address,t_uint256)": {
        "encoding": "mapping",
        "key": "t_address",
        "label": "mapping(address => uint256)",
        "numberOfBytes": "32",
        "value": "t_uint256"
      },
      "t_mapping(t_contract(IERC20Upgradeable)1356,t_mapping(t_address,t_uint256))": {
        "encoding": "mapping",
        "key": "t_contract(IERC20Upgradeable)1356",
        "label": "mapping(contract IERC20Upgradeable => mapping(address => uint256))",
        "numberOfBytes": "32",
        "value": "t_mapping(t_address,t_uint256)"
      },
      "t_mapping(t_contract(IERC20Upgradeable)1356,t_uint256)": {
        "encoding": "mapping",
        "key": "t_contract(IERC20Upgradeable)1356",
        "label": "mapping(contract IERC20Upgradeable => uint256)",
        "numberOfBytes": "32",
        "value": "t_uint256"
      },
      "t_string_storage": {
        "encoding": "bytes",
        "label": "string",
        "numberOfBytes": "32"
      },
      "t_uint256": {
        "encoding": "inplace",
        "label": "uint256",
        "numberOfBytes": "32"
      }
    }
  }
}