{
  "address": "0xFd779cb758Fee75d905d66b5E6f973fd4666084B",
  "abi": [
    {
      "anonymous": false,
      "inputs": [
        {
          "indexed": false,
          "internalType": "address",
          "name": "sender",
          "type": "address"
        },
        {
          "indexed": false,
          "internalType": "uint256",
          "name": "tokens",
          "type": "uint256"
        }
      ],
      "name": "AddLiquidity",
      "type": "event"
    },
    {
      "anonymous": false,
      "inputs": [
        {
          "indexed": true,
          "internalType": "address",
          "name": "owner",
          "type": "address"
        },
        {
          "indexed": true,
          "internalType": "address",
          "name": "spender",
          "type": "address"
        },
        {
          "indexed": false,
          "internalType": "uint256",
          "name": "value",
          "type": "uint256"
        }
      ],
      "name": "Approval",
      "type": "event"
    },
    {
      "anonymous": false,
      "inputs": [
        {
          "indexed": false,
          "internalType": "address",
          "name": "sender",
          "type": "address"
        }
      ],
      "name": "ContsMinted",
      "type": "event"
    },
    {
      "anonymous": false,
      "inputs": [
        {
          "indexed": true,
          "internalType": "contract IERC20Upgradeable",
          "name": "token",
          "type": "address"
        },
        {
          "indexed": false,
          "internalType": "address",
          "name": "to",
          "type": "address"
        },
        {
          "indexed": false,
          "internalType": "uint256",
          "name": "amount",
          "type": "uint256"
        }
      ],
      "name": "ERC20PaymentReleased",
      "type": "event"
    },
    {
      "anonymous": false,
      "inputs": [
        {
          "indexed": true,
          "internalType": "address",
          "name": "previousOwner",
          "type": "address"
        },
        {
          "indexed": true,
          "internalType": "address",
          "name": "newOwner",
          "type": "address"
        }
      ],
      "name": "OwnershipTransferred",
      "type": "event"
    },
    {
      "anonymous": false,
      "inputs": [
        {
          "indexed": false,
          "internalType": "address",
          "name": "account",
          "type": "address"
        },
        {
          "indexed": false,
          "internalType": "uint256",
          "name": "shares",
          "type": "uint256"
        }
      ],
      "name": "PayeeAdded",
      "type": "event"
    },
    {
      "anonymous": false,
      "inputs": [
        {
          "indexed": false,
          "internalType": "address",
          "name": "from",
          "type": "address"
        },
        {
          "indexed": false,
          "internalType": "uint256",
          "name": "amount",
          "type": "uint256"
        }
      ],
      "name": "PaymentReceived",
      "type": "event"
    },
    {
      "anonymous": false,
      "inputs": [
        {
          "indexed": false,
          "internalType": "address",
          "name": "to",
          "type": "address"
        },
        {
          "indexed": false,
          "internalType": "uint256",
          "name": "amount",
          "type": "uint256"
        }
      ],
      "name": "PaymentReleased",
      "type": "event"
    },
    {
      "anonymous": false,
      "inputs": [
        {
          "indexed": false,
          "internalType": "address",
          "name": "sender",
          "type": "address"
        }
      ],
      "name": "RewardCashoutAll",
      "type": "event"
    },
    {
      "anonymous": false,
      "inputs": [
        {
          "indexed": false,
          "internalType": "address",
          "name": "sender",
          "type": "address"
        },
        {
          "indexed": false,
          "internalType": "uint256",
          "name": "index",
          "type": "uint256"
        }
      ],
      "name": "RewardCashoutOne",
      "type": "event"
    },
    {
      "anonymous": false,
      "inputs": [
        {
          "indexed": true,
          "internalType": "address",
          "name": "from",
          "type": "address"
        },
        {
          "indexed": true,
          "internalType": "address",
          "name": "to",
          "type": "address"
        },
        {
          "indexed": false,
          "internalType": "uint256",
          "name": "value",
          "type": "uint256"
        }
      ],
      "name": "Transfer",
      "type": "event"
    },
    {
      "inputs": [],
      "name": "_crm",
      "outputs": [
        {
          "internalType": "contract CONTRewardManagement",
          "name": "",
          "type": "address"
        }
      ],
      "stateMutability": "view",
      "type": "function"
    },
    {
      "inputs": [
        {
          "internalType": "address",
          "name": "",
          "type": "address"
        }
      ],
      "name": "_isBlacklisted",
      "outputs": [
        {
          "internalType": "bool",
          "name": "",
          "type": "bool"
        }
      ],
      "stateMutability": "view",
      "type": "function"
    },
    {
      "inputs": [
        {
          "internalType": "address",
          "name": "",
          "type": "address"
        }
      ],
      "name": "_lastBuyOnLaunch",
      "outputs": [
        {
          "internalType": "uint256",
          "name": "",
          "type": "uint256"
        }
      ],
      "stateMutability": "view",
      "type": "function"
    },
    {
      "inputs": [
        {
          "internalType": "address",
          "name": "owner",
          "type": "address"
        },
        {
          "internalType": "address",
          "name": "spender",
          "type": "address"
        }
      ],
      "name": "allowance",
      "outputs": [
        {
          "internalType": "uint256",
          "name": "",
          "type": "uint256"
        }
      ],
      "stateMutability": "view",
      "type": "function"
    },
    {
      "inputs": [],
      "name": "antiBotEnabled",
      "outputs": [
        {
          "internalType": "bool",
          "name": "",
          "type": "bool"
        }
      ],
      "stateMutability": "view",
      "type": "function"
    },
    {
      "inputs": [
        {
          "internalType": "address",
          "name": "spender",
          "type": "address"
        },
        {
          "internalType": "uint256",
          "name": "amount",
          "type": "uint256"
        }
      ],
      "name": "approve",
      "outputs": [
        {
          "internalType": "bool",
          "name": "",
          "type": "bool"
        }
      ],
      "stateMutability": "nonpayable",
      "type": "function"
    },
    {
      "inputs": [
        {
          "internalType": "address",
          "name": "",
          "type": "address"
        }
      ],
      "name": "automatedMarketMakerPairs",
      "outputs": [
        {
          "internalType": "bool",
          "name": "",
          "type": "bool"
        }
      ],
      "stateMutability": "view",
      "type": "function"
    },
    {
      "inputs": [
        {
          "internalType": "address",
          "name": "account",
          "type": "address"
        }
      ],
      "name": "balanceOf",
      "outputs": [
        {
          "internalType": "uint256",
          "name": "",
          "type": "uint256"
        }
      ],
      "stateMutability": "view",
      "type": "function"
    },
    {
      "inputs": [],
      "name": "cashoutAll",
      "outputs": [],
      "stateMutability": "nonpayable",
      "type": "function"
    },
    {
      "inputs": [],
      "name": "cashoutFee",
      "outputs": [
        {
          "internalType": "uint256",
          "name": "",
          "type": "uint256"
        }
      ],
      "stateMutability": "view",
      "type": "function"
    },
    {
      "inputs": [
        {
          "internalType": "uint256",
          "name": "_contIndex",
          "type": "uint256"
        }
      ],
      "name": "cashoutReward",
      "outputs": [],
      "stateMutability": "nonpayable",
      "type": "function"
    },
    {
      "inputs": [
        {
          "internalType": "uint256",
          "name": "newTime",
          "type": "uint256"
        }
      ],
      "name": "changeCashoutTimeout",
      "outputs": [],
      "stateMutability": "nonpayable",
      "type": "function"
    },
    {
      "inputs": [
        {
          "internalType": "enum ContType",
          "name": "_cType",
          "type": "uint8"
        },
        {
          "internalType": "uint256",
          "name": "newPrice",
          "type": "uint256"
        }
      ],
      "name": "changeContPrice",
      "outputs": [],
      "stateMutability": "nonpayable",
      "type": "function"
    },
    {
      "inputs": [
        {
          "internalType": "bool",
          "name": "newVal",
          "type": "bool"
        }
      ],
      "name": "changeEnableAutoSwapDevFund",
      "outputs": [],
      "stateMutability": "nonpayable",
      "type": "function"
    },
    {
      "inputs": [
        {
          "internalType": "bool",
          "name": "newVal",
          "type": "bool"
        }
      ],
      "name": "changeEnableAutoSwapTreasury",
      "outputs": [],
      "stateMutability": "nonpayable",
      "type": "function"
    },
    {
      "inputs": [
        {
          "internalType": "enum ContType",
          "name": "_cType",
          "type": "uint8"
        },
        {
          "internalType": "int256",
          "name": "deductPcent",
          "type": "int256"
        }
      ],
      "name": "changeRewardAPRPerCont",
      "outputs": [],
      "stateMutability": "nonpayable",
      "type": "function"
    },
    {
      "inputs": [],
      "name": "decimals",
      "outputs": [
        {
          "internalType": "uint8",
          "name": "",
          "type": "uint8"
        }
      ],
      "stateMutability": "view",
      "type": "function"
    },
    {
      "inputs": [
        {
          "internalType": "address",
          "name": "spender",
          "type": "address"
        },
        {
          "internalType": "uint256",
          "name": "subtractedValue",
          "type": "uint256"
        }
      ],
      "name": "decreaseAllowance",
      "outputs": [
        {
          "internalType": "bool",
          "name": "",
          "type": "bool"
        }
      ],
      "stateMutability": "nonpayable",
      "type": "function"
    },
    {
      "inputs": [],
      "name": "developmentFee",
      "outputs": [
        {
          "internalType": "uint256",
          "name": "",
          "type": "uint256"
        }
      ],
      "stateMutability": "view",
      "type": "function"
    },
    {
      "inputs": [],
      "name": "developmentFundPool",
      "outputs": [
        {
          "internalType": "address",
          "name": "",
          "type": "address"
        }
      ],
      "stateMutability": "view",
      "type": "function"
    },
    {
      "inputs": [],
      "name": "enableAutoSwapDevFund",
      "outputs": [
        {
          "internalType": "bool",
          "name": "",
          "type": "bool"
        }
      ],
      "stateMutability": "view",
      "type": "function"
    },
    {
      "inputs": [],
      "name": "enableAutoSwapTreasury",
      "outputs": [
        {
          "internalType": "bool",
          "name": "",
          "type": "bool"
        }
      ],
      "stateMutability": "view",
      "type": "function"
    },
    {
      "inputs": [],
      "name": "enableCashout",
      "outputs": [
        {
          "internalType": "bool",
          "name": "",
          "type": "bool"
        }
      ],
      "stateMutability": "view",
      "type": "function"
    },
    {
      "inputs": [],
      "name": "enableMintConts",
      "outputs": [
        {
          "internalType": "bool",
          "name": "",
          "type": "bool"
        }
      ],
      "stateMutability": "view",
      "type": "function"
    },
    {
      "inputs": [],
      "name": "getCashoutTimeout",
      "outputs": [
        {
          "internalType": "uint256",
          "name": "",
          "type": "uint256"
        }
      ],
      "stateMutability": "view",
      "type": "function"
    },
    {
      "inputs": [
        {
          "internalType": "enum ContType",
          "name": "_cType",
          "type": "uint8"
        }
      ],
      "name": "getContPrice",
      "outputs": [
        {
          "internalType": "uint256",
          "name": "",
          "type": "uint256"
        }
      ],
      "stateMutability": "view",
      "type": "function"
    },
    {
      "inputs": [],
      "name": "getContsCreationTime",
      "outputs": [
        {
          "internalType": "string",
          "name": "",
          "type": "string"
        }
      ],
      "stateMutability": "view",
      "type": "function"
    },
    {
      "inputs": [],
      "name": "getContsCurrentAPR",
      "outputs": [
        {
          "internalType": "string",
          "name": "",
          "type": "string"
        }
      ],
      "stateMutability": "view",
      "type": "function"
    },
    {
      "inputs": [],
      "name": "getContsInitialAPR",
      "outputs": [
        {
          "internalType": "string",
          "name": "",
          "type": "string"
        }
      ],
      "stateMutability": "view",
      "type": "function"
    },
    {
      "inputs": [],
      "name": "getContsLastCashoutTime",
      "outputs": [
        {
          "internalType": "string",
          "name": "",
          "type": "string"
        }
      ],
      "stateMutability": "view",
      "type": "function"
    },
    {
      "inputs": [],
      "name": "getContsNames",
      "outputs": [
        {
          "internalType": "string",
          "name": "",
          "type": "string"
        }
      ],
      "stateMutability": "view",
      "type": "function"
    },
    {
      "inputs": [],
      "name": "getContsRewards",
      "outputs": [
        {
          "internalType": "string",
          "name": "",
          "type": "string"
        }
      ],
      "stateMutability": "view",
      "type": "function"
    },
    {
      "inputs": [],
      "name": "getContsTypes",
      "outputs": [
        {
          "internalType": "string",
          "name": "",
          "type": "string"
        }
      ],
      "stateMutability": "view",
      "type": "function"
    },
    {
      "inputs": [
        {
          "internalType": "enum ContType",
          "name": "_cType",
          "type": "uint8"
        }
      ],
      "name": "getRewardAPRPerCont",
      "outputs": [
        {
          "internalType": "uint256",
          "name": "",
          "type": "uint256"
        }
      ],
      "stateMutability": "view",
      "type": "function"
    },
    {
      "inputs": [],
      "name": "getRewardAmount",
      "outputs": [
        {
          "internalType": "uint256",
          "name": "",
          "type": "uint256"
        }
      ],
      "stateMutability": "view",
      "type": "function"
    },
    {
      "inputs": [],
      "name": "getTotalConts",
      "outputs": [
        {
          "internalType": "uint256",
          "name": "",
          "type": "uint256"
        }
      ],
      "stateMutability": "view",
      "type": "function"
    },
    {
      "inputs": [
        {
          "internalType": "enum ContType",
          "name": "__cType",
          "type": "uint8"
        }
      ],
      "name": "getTotalContsPerContType",
      "outputs": [
        {
          "internalType": "uint256",
          "name": "",
          "type": "uint256"
        }
      ],
      "stateMutability": "view",
      "type": "function"
    },
    {
      "inputs": [
        {
          "internalType": "address",
          "name": "spender",
          "type": "address"
        },
        {
          "internalType": "uint256",
          "name": "addedValue",
          "type": "uint256"
        }
      ],
      "name": "increaseAllowance",
      "outputs": [
        {
          "internalType": "bool",
          "name": "",
          "type": "bool"
        }
      ],
      "stateMutability": "nonpayable",
      "type": "function"
    },
    {
      "inputs": [
        {
          "internalType": "address[]",
          "name": "payees",
          "type": "address[]"
        },
        {
          "internalType": "uint256[]",
          "name": "shares",
          "type": "uint256[]"
        },
        {
          "internalType": "address[]",
          "name": "addresses",
          "type": "address[]"
        },
        {
          "internalType": "uint256[]",
          "name": "balances",
          "type": "uint256[]"
        },
        {
          "internalType": "uint256[]",
          "name": "fees",
          "type": "uint256[]"
        },
        {
          "internalType": "address",
          "name": "uniV2Router",
          "type": "address"
        },
        {
          "internalType": "address",
          "name": "usdcAddr",
          "type": "address"
        }
      ],
      "name": "initialize",
      "outputs": [],
      "stateMutability": "nonpayable",
      "type": "function"
    },
    {
      "inputs": [],
      "name": "launchBuyLimit",
      "outputs": [
        {
          "internalType": "uint256",
          "name": "",
          "type": "uint256"
        }
      ],
      "stateMutability": "view",
      "type": "function"
    },
    {
      "inputs": [],
      "name": "launchBuyTimeout",
      "outputs": [
        {
          "internalType": "uint256",
          "name": "",
          "type": "uint256"
        }
      ],
      "stateMutability": "view",
      "type": "function"
    },
    {
      "inputs": [],
      "name": "liquidityPool",
      "outputs": [
        {
          "internalType": "address",
          "name": "",
          "type": "address"
        }
      ],
      "stateMutability": "view",
      "type": "function"
    },
    {
      "inputs": [],
      "name": "liquidityPoolFee",
      "outputs": [
        {
          "internalType": "uint256",
          "name": "",
          "type": "uint256"
        }
      ],
      "stateMutability": "view",
      "type": "function"
    },
    {
      "inputs": [
        {
          "internalType": "string[]",
          "name": "names",
          "type": "string[]"
        },
        {
          "internalType": "enum ContType",
          "name": "_cType",
          "type": "uint8"
        }
      ],
      "name": "mintConts",
      "outputs": [],
      "stateMutability": "nonpayable",
      "type": "function"
    },
    {
      "inputs": [],
      "name": "name",
      "outputs": [
        {
          "internalType": "string",
          "name": "",
          "type": "string"
        }
      ],
      "stateMutability": "view",
      "type": "function"
    },
    {
      "inputs": [],
      "name": "ownedContsLimit",
      "outputs": [
        {
          "internalType": "uint256",
          "name": "",
          "type": "uint256"
        }
      ],
      "stateMutability": "view",
      "type": "function"
    },
    {
      "inputs": [],
      "name": "owner",
      "outputs": [
        {
          "internalType": "address",
          "name": "",
          "type": "address"
        }
      ],
      "stateMutability": "view",
      "type": "function"
    },
    {
      "inputs": [
        {
          "internalType": "uint256",
          "name": "index",
          "type": "uint256"
        }
      ],
      "name": "payee",
      "outputs": [
        {
          "internalType": "address",
          "name": "",
          "type": "address"
        }
      ],
      "stateMutability": "view",
      "type": "function"
    },
    {
      "inputs": [
        {
          "internalType": "address payable",
          "name": "account",
          "type": "address"
        }
      ],
      "name": "release",
      "outputs": [],
      "stateMutability": "nonpayable",
      "type": "function"
    },
    {
      "inputs": [
        {
          "internalType": "contract IERC20Upgradeable",
          "name": "token",
          "type": "address"
        },
        {
          "internalType": "address",
          "name": "account",
          "type": "address"
        }
      ],
      "name": "release",
      "outputs": [],
      "stateMutability": "nonpayable",
      "type": "function"
    },
    {
      "inputs": [
        {
          "internalType": "contract IERC20Upgradeable",
          "name": "token",
          "type": "address"
        },
        {
          "internalType": "address",
          "name": "account",
          "type": "address"
        }
      ],
      "name": "released",
      "outputs": [
        {
          "internalType": "uint256",
          "name": "",
          "type": "uint256"
        }
      ],
      "stateMutability": "view",
      "type": "function"
    },
    {
      "inputs": [
        {
          "internalType": "address",
          "name": "account",
          "type": "address"
        }
      ],
      "name": "released",
      "outputs": [
        {
          "internalType": "uint256",
          "name": "",
          "type": "uint256"
        }
      ],
      "stateMutability": "view",
      "type": "function"
    },
    {
      "inputs": [],
      "name": "renounceOwnership",
      "outputs": [],
      "stateMutability": "nonpayable",
      "type": "function"
    },
    {
      "inputs": [],
      "name": "rewardsFee",
      "outputs": [
        {
          "internalType": "uint256",
          "name": "",
          "type": "uint256"
        }
      ],
      "stateMutability": "view",
      "type": "function"
    },
    {
      "inputs": [],
      "name": "rewardsPool",
      "outputs": [
        {
          "internalType": "address",
          "name": "",
          "type": "address"
        }
      ],
      "stateMutability": "view",
      "type": "function"
    },
    {
      "inputs": [
        {
          "internalType": "address",
          "name": "pair",
          "type": "address"
        },
        {
          "internalType": "bool",
          "name": "value",
          "type": "bool"
        }
      ],
      "name": "setAutomatedMarketMakerPair",
      "outputs": [],
      "stateMutability": "nonpayable",
      "type": "function"
    },
    {
      "inputs": [
        {
          "internalType": "address",
          "name": "account",
          "type": "address"
        },
        {
          "internalType": "bool",
          "name": "value",
          "type": "bool"
        }
      ],
      "name": "setBlacklistStatus",
      "outputs": [],
      "stateMutability": "nonpayable",
      "type": "function"
    },
    {
      "inputs": [
        {
          "internalType": "address",
          "name": "crm",
          "type": "address"
        }
      ],
      "name": "setContManagement",
      "outputs": [],
      "stateMutability": "nonpayable",
      "type": "function"
    },
    {
      "inputs": [
        {
          "internalType": "bool",
          "name": "_enable",
          "type": "bool"
        }
      ],
      "name": "setEnableAntiBot",
      "outputs": [],
      "stateMutability": "nonpayable",
      "type": "function"
    },
    {
      "inputs": [
        {
          "internalType": "bool",
          "name": "_enableCashout",
          "type": "bool"
        }
      ],
      "name": "setEnableCashout",
      "outputs": [],
      "stateMutability": "nonpayable",
      "type": "function"
    },
    {
      "inputs": [
        {
          "internalType": "bool",
          "name": "value",
          "type": "bool"
        }
      ],
      "name": "setEnableMintConts",
      "outputs": [],
      "stateMutability": "nonpayable",
      "type": "function"
    },
    {
      "inputs": [
        {
          "internalType": "uint256",
          "name": "newLimit",
          "type": "uint256"
        }
      ],
      "name": "setLaunchBuyLimit",
      "outputs": [],
      "stateMutability": "nonpayable",
      "type": "function"
    },
    {
      "inputs": [
        {
          "internalType": "uint256",
          "name": "newTimeout",
          "type": "uint256"
        }
      ],
      "name": "setLaunchBuyTimeout",
      "outputs": [],
      "stateMutability": "nonpayable",
      "type": "function"
    },
    {
      "inputs": [
        {
          "internalType": "address",
          "name": "newAddress",
          "type": "address"
        }
      ],
      "name": "setUSDCAddress",
      "outputs": [],
      "stateMutability": "nonpayable",
      "type": "function"
    },
    {
      "inputs": [
        {
          "internalType": "address",
          "name": "account",
          "type": "address"
        }
      ],
      "name": "shares",
      "outputs": [
        {
          "internalType": "uint256",
          "name": "",
          "type": "uint256"
        }
      ],
      "stateMutability": "view",
      "type": "function"
    },
    {
      "inputs": [],
      "name": "symbol",
      "outputs": [
        {
          "internalType": "string",
          "name": "",
          "type": "string"
        }
      ],
      "stateMutability": "view",
      "type": "function"
    },
    {
      "inputs": [],
      "name": "totalFees",
      "outputs": [
        {
          "internalType": "uint256",
          "name": "",
          "type": "uint256"
        }
      ],
      "stateMutability": "view",
      "type": "function"
    },
    {
      "inputs": [
        {
          "internalType": "contract IERC20Upgradeable",
          "name": "token",
          "type": "address"
        }
      ],
      "name": "totalReleased",
      "outputs": [
        {
          "internalType": "uint256",
          "name": "",
          "type": "uint256"
        }
      ],
      "stateMutability": "view",
      "type": "function"
    },
    {
      "inputs": [],
      "name": "totalReleased",
      "outputs": [
        {
          "internalType": "uint256",
          "name": "",
          "type": "uint256"
        }
      ],
      "stateMutability": "view",
      "type": "function"
    },
    {
      "inputs": [],
      "name": "totalShares",
      "outputs": [
        {
          "internalType": "uint256",
          "name": "",
          "type": "uint256"
        }
      ],
      "stateMutability": "view",
      "type": "function"
    },
    {
      "inputs": [],
      "name": "totalSupply",
      "outputs": [
        {
          "internalType": "uint256",
          "name": "",
          "type": "uint256"
        }
      ],
      "stateMutability": "view",
      "type": "function"
    },
    {
      "inputs": [],
      "name": "totalTokensPaidForMinting",
      "outputs": [
        {
          "internalType": "uint256",
          "name": "",
          "type": "uint256"
        }
      ],
      "stateMutability": "view",
      "type": "function"
    },
    {
      "inputs": [
        {
          "internalType": "address",
          "name": "to",
          "type": "address"
        },
        {
          "internalType": "uint256",
          "name": "amount",
          "type": "uint256"
        }
      ],
      "name": "transfer",
      "outputs": [
        {
          "internalType": "bool",
          "name": "",
          "type": "bool"
        }
      ],
      "stateMutability": "nonpayable",
      "type": "function"
    },
    {
      "inputs": [
        {
          "internalType": "address",
          "name": "from",
          "type": "address"
        },
        {
          "internalType": "address",
          "name": "to",
          "type": "address"
        },
        {
          "internalType": "uint256",
          "name": "amount",
          "type": "uint256"
        }
      ],
      "name": "transferFrom",
      "outputs": [
        {
          "internalType": "bool",
          "name": "",
          "type": "bool"
        }
      ],
      "stateMutability": "nonpayable",
      "type": "function"
    },
    {
      "inputs": [
        {
          "internalType": "address",
          "name": "newOwner",
          "type": "address"
        }
      ],
      "name": "transferOwnership",
      "outputs": [],
      "stateMutability": "nonpayable",
      "type": "function"
    },
    {
      "inputs": [],
      "name": "treasuryFee",
      "outputs": [
        {
          "internalType": "uint256",
          "name": "",
          "type": "uint256"
        }
      ],
      "stateMutability": "view",
      "type": "function"
    },
    {
      "inputs": [],
      "name": "treasuryPool",
      "outputs": [
        {
          "internalType": "address",
          "name": "",
          "type": "address"
        }
      ],
      "stateMutability": "view",
      "type": "function"
    },
    {
      "inputs": [],
      "name": "uniswapV2Pair",
      "outputs": [
        {
          "internalType": "address",
          "name": "",
          "type": "address"
        }
      ],
      "stateMutability": "view",
      "type": "function"
    },
    {
      "inputs": [],
      "name": "uniswapV2Router",
      "outputs": [
        {
          "internalType": "contract IJoeRouter02",
          "name": "",
          "type": "address"
        }
      ],
      "stateMutability": "view",
      "type": "function"
    },
    {
      "inputs": [
        {
          "internalType": "uint256",
          "name": "value",
          "type": "uint256"
        }
      ],
      "name": "updateCashoutFee",
      "outputs": [],
      "stateMutability": "nonpayable",
      "type": "function"
    },
    {
      "inputs": [
        {
          "internalType": "uint256",
          "name": "value",
          "type": "uint256"
        }
      ],
      "name": "updateDevelopmentFee",
      "outputs": [],
      "stateMutability": "nonpayable",
      "type": "function"
    },
    {
      "inputs": [
        {
          "internalType": "address payable",
          "name": "wall",
          "type": "address"
        }
      ],
      "name": "updateDevelopmentFundWallet",
      "outputs": [],
      "stateMutability": "nonpayable",
      "type": "function"
    },
    {
      "inputs": [
        {
          "internalType": "uint256",
          "name": "value",
          "type": "uint256"
        }
      ],
      "name": "updateLiquidityFee",
      "outputs": [],
      "stateMutability": "nonpayable",
      "type": "function"
    },
    {
      "inputs": [
        {
          "internalType": "address payable",
          "name": "wall",
          "type": "address"
        }
      ],
      "name": "updateLiquidityWallet",
      "outputs": [],
      "stateMutability": "nonpayable",
      "type": "function"
    },
    {
      "inputs": [
        {
          "internalType": "uint256",
          "name": "value",
          "type": "uint256"
        }
      ],
      "name": "updateRewardsFee",
      "outputs": [],
      "stateMutability": "nonpayable",
      "type": "function"
    },
    {
      "inputs": [
        {
          "internalType": "address payable",
          "name": "wall",
          "type": "address"
        }
      ],
      "name": "updateRewardsWallet",
      "outputs": [],
      "stateMutability": "nonpayable",
      "type": "function"
    },
    {
      "inputs": [
        {
          "internalType": "uint256",
          "name": "value",
          "type": "uint256"
        }
      ],
      "name": "updateTreasuryFee",
      "outputs": [],
      "stateMutability": "nonpayable",
      "type": "function"
    },
    {
      "inputs": [
        {
          "internalType": "address payable",
          "name": "wall",
          "type": "address"
        }
      ],
      "name": "updateTreasuryWallet",
      "outputs": [],
      "stateMutability": "nonpayable",
      "type": "function"
    },
    {
      "inputs": [
        {
          "internalType": "address",
          "name": "newAddress",
          "type": "address"
        }
      ],
      "name": "updateUniswapV2Router",
      "outputs": [],
      "stateMutability": "nonpayable",
      "type": "function"
    },
    {
      "inputs": [],
      "name": "usdcToken",
      "outputs": [
        {
          "internalType": "address",
          "name": "",
          "type": "address"
        }
      ],
      "stateMutability": "view",
      "type": "function"
    },
    {
      "stateMutability": "payable",
      "type": "receive"
    }
  ],
  "transactionHash": "0x2d19b9d3489909909aa7a4acec6ca4bdd69932263c199bac924b4edd0f18a393",
  "args": [],
  "numDeployments": 2,
  "solcInputHash": "90c4a6c9ee4a19fc1ad0b9631cccab37",
  "bytecode": "0x608060405234801561001057600080fd5b50615a9780620000216000396000f3fe6080604052600436106104e55760003560e01c8063810be66d11610281578063a9059cbb1161015a578063d79779b2116100cc578063e37ba8f911610085578063e37ba8f914610f51578063eb71c5d914610f71578063f2fde38b14610f90578063f34f152214610fb0578063f61472e214610fc6578063f78d5c5514610fe657600080fd5b8063d79779b214610e96578063d8c6404b14610ecc578063dd62ed3e14610eed578063e0583ec014610f0d578063e22ee81314610f27578063e33b7de314610f3c57600080fd5b8063bcb8ebfc1161011e578063bcb8ebfc14610dd4578063c3491b4914610dea578063cc32d17614610e0a578063ce7c2ac214610e20578063cfc0d02414610e56578063d3a2c9cf14610e7657600080fd5b8063a9059cbb14610d2a578063aaf5bfc314610d4a578063b3328aae14610d6a578063b62496f514610d8a578063b9bd393314610dba57600080fd5b806395d89b41116101f35780639b03f449116101b75780639b03f44914610c7d5780639dc73a4914610c925780639ff41fe314610cb2578063a457c2d714610cdf578063a5f3d00314610cff578063a6559ce414610d1557600080fd5b806395d89b4114610bd25780639723283014610be75780639852595c14610c075780639a6e80db14610c3d5780639a7a23d614610c5d57600080fd5b80638b83209b116102455780638b83209b14610b1f5780638d28914414610b3f5780638da5cb5b14610b5f5780638e67566314610b7d5780638ea928f114610b9d5780639149acbc14610bb257600080fd5b8063810be66d14610a9f5780638161ab7614610abf578063839df91914610ad457806384884e4414610af45780638683811614610b0957600080fd5b80633086319d116103be578063559bf302116103305780636d9ae0be116102e95780636d9ae0be146109e957806370a08231146109ff578063715018a614610a3557806378045b4d14610a4a5780637a0aacf314610a5f578063809d458d14610a7f57600080fd5b8063559bf3021461093457806365b8dbc01461095457806365bfe43014610974578063665a11ca146109945780636815a91c146109b45780636b38c586146109d457600080fd5b8063406072a911610382578063406072a91461088957806348b75044146108a957806348df5829146108c957806349bd5a5e146108e9578063545579731461090957806354f12f1f1461091e57600080fd5b80633086319d14610802578063313ce56714610822578063393061401461083e57806339509351146108545780633a98ef391461087457600080fd5b806313114a9d116104575780631e7a934e1161041b5780631e7a934e1461074c5780631f46b1c61461076c578063239c038a1461078c57806323b872dd146107ac57806324fa08e4146107cc5780632bb14e1d146107ec57600080fd5b806313114a9d146106b15780631694505e146106c757806318160ddd146106e757806319165587146106fc5780631cdd3be31461071c57600080fd5b8063095ea7b3116104a9578063095ea7b3146105e457806309a69f57146106145780630c162440146106375780630f1978fb1461065757806310153e7b1461067657806311eac8551461068b57600080fd5b80630359fea91461052a57806303d29d281461056057806306fdde031461058257806308031012146105a4578063084a6bff146105c457600080fd5b36610525577f6ef95f06320e7a25a04a175ca677b7052bdd97131872c2192525a629f51be770333460405161051b9291906155dc565b60405180910390a1005b600080fd5b34801561053657600080fd5b5060d15461054a906001600160a01b031681565b60405161055791906155c8565b60405180910390f35b34801561056c57600080fd5b5061058061057b3660046151c4565b611006565b005b34801561058e57600080fd5b50610597611064565b6040516105579190615698565b3480156105b057600080fd5b506105806105bf36600461521e565b6110f6565b3480156105d057600080fd5b506105806105df3660046154fe565b6119a8565b3480156105f057600080fd5b506106046105ff3660046151f2565b611a2a565b6040519015158152602001610557565b34801561062057600080fd5b50610629611a44565b604051908152602001610557565b34801561064357600080fd5b5061058061065236600461546b565b611ae6565b34801561066357600080fd5b5060d95461060490610100900460ff1681565b34801561068257600080fd5b50610597611bdc565b34801561069757600080fd5b5060d95461054a906201000090046001600160a01b031681565b3480156106bd57600080fd5b5061062960d75481565b3480156106d357600080fd5b5060ca5461054a906001600160a01b031681565b3480156106f357600080fd5b50603554610629565b34801561070857600080fd5b50610580610717366004615110565b611c7e565b34801561072857600080fd5b50610604610737366004615110565b60dd6020526000908152604090205460ff1681565b34801561075857600080fd5b50610629610767366004615450565b611da3565b34801561077857600080fd5b50610580610787366004615416565b611e24565b34801561079857600080fd5b506106296107a7366004615450565b611ecf565b3480156107b857600080fd5b506106046107c7366004615183565b611f00565b3480156107d857600080fd5b506105806107e73660046154fe565b611f26565b3480156107f857600080fd5b5061062960d35481565b34801561080e57600080fd5b5061058061081d366004615311565b611f55565b34801561082e57600080fd5b5060405160128152602001610557565b34801561084a57600080fd5b5061062960ce5481565b34801561086057600080fd5b5061060461086f3660046151f2565b6125b6565b34801561088057600080fd5b50609754610629565b34801561089557600080fd5b506106296108a436600461514a565b6125f5565b3480156108b557600080fd5b506105806108c436600461514a565b612620565b3480156108d557600080fd5b5060d05461054a906001600160a01b031681565b3480156108f557600080fd5b5060cd5461054a906001600160a01b031681565b34801561091557600080fd5b506105806127e4565b34801561092a57600080fd5b5061062960d55481565b34801561094057600080fd5b5061058061094f366004615110565b612b55565b34801561096057600080fd5b5061058061096f366004615110565b612bc7565b34801561098057600080fd5b5061058061098f3660046154fe565b612e28565b3480156109a057600080fd5b5060d25461054a906001600160a01b031681565b3480156109c057600080fd5b506105806109cf3660046154fe565b6131f5565b3480156109e057600080fd5b50610597613275565b3480156109f557600080fd5b5061062960d85481565b348015610a0b57600080fd5b50610629610a1a366004615110565b6001600160a01b031660009081526033602052604090205490565b348015610a4157600080fd5b506105806132ab565b348015610a5657600080fd5b506106296132e1565b348015610a6b57600080fd5b50610629610a7a366004615450565b613326565b348015610a8b57600080fd5b50610580610a9a366004615110565b613355565b348015610aab57600080fd5b5060cf5461054a906001600160a01b031681565b348015610acb57600080fd5b506105976133c7565b348015610ae057600080fd5b50610580610aef366004615416565b6133fd565b348015610b0057600080fd5b50610597613441565b348015610b1557600080fd5b5061062960da5481565b348015610b2b57600080fd5b5061054a610b3a3660046154fe565b613477565b348015610b4b57600080fd5b50610580610b5a366004615110565b6134a7565b348015610b6b57600080fd5b506065546001600160a01b031661054a565b348015610b8957600080fd5b50610580610b983660046154fe565b61353e565b348015610ba957600080fd5b506105976135c0565b348015610bbe57600080fd5b50610580610bcd366004615416565b6135f6565b348015610bde57600080fd5b5061059761363a565b348015610bf357600080fd5b50610580610c023660046154fe565b613649565b348015610c1357600080fd5b50610629610c22366004615110565b6001600160a01b03166000908152609a602052604090205490565b348015610c4957600080fd5b5060c95461054a906001600160a01b031681565b348015610c6957600080fd5b50610580610c783660046151c4565b6136cb565b348015610c8957600080fd5b50610597613775565b348015610c9e57600080fd5b50610580610cad366004615416565b6137ab565b348015610cbe57600080fd5b50610629610ccd366004615110565b60dc6020526000908152604090205481565b348015610ceb57600080fd5b50610604610cfa3660046151f2565b6137e8565b348015610d0b57600080fd5b5061062960d65481565b348015610d2157600080fd5b50610629613885565b348015610d3657600080fd5b50610604610d453660046151f2565b6138ca565b348015610d5657600080fd5b50610580610d65366004615110565b6138d8565b348015610d7657600080fd5b50610580610d85366004615416565b61392c565b348015610d9657600080fd5b50610604610da5366004615110565b60de6020526000908152604090205460ff1681565b348015610dc657600080fd5b5060df546106049060ff1681565b348015610de057600080fd5b5061062960cb5481565b348015610df657600080fd5b50610580610e053660046154fe565b613969565b348015610e1657600080fd5b5061062960d45481565b348015610e2c57600080fd5b50610629610e3b366004615110565b6001600160a01b031660009081526099602052604090205490565b348015610e6257600080fd5b50610580610e71366004615110565b6139f4565b348015610e8257600080fd5b50610580610e9136600461546b565b613a66565b348015610ea257600080fd5b50610629610eb1366004615110565b6001600160a01b03166000908152609c602052604090205490565b348015610ed857600080fd5b5060d95461060490600160b01b900460ff1681565b348015610ef957600080fd5b50610629610f0836600461514a565b613ac2565b348015610f1957600080fd5b5060d9546106049060ff1681565b348015610f3357600080fd5b50610597613aed565b348015610f4857600080fd5b50609854610629565b348015610f5d57600080fd5b50610580610f6c366004615110565b613b23565b348015610f7d57600080fd5b5060df5461060490610100900460ff1681565b348015610f9c57600080fd5b50610580610fab366004615110565b613b95565b348015610fbc57600080fd5b5061062960db5481565b348015610fd257600080fd5b50610580610fe13660046154fe565b613c30565b348015610ff257600080fd5b506105806110013660046154fe565b613c5f565b6065546001600160a01b031633146110395760405162461bcd60e51b815260040161103090615769565b60405180910390fd5b6001600160a01b0391909116600090815260dd60205260409020805460ff1916911515919091179055565b606060368054611073906159cf565b80601f016020809104026020016040519081016040528092919081815260200182805461109f906159cf565b80156110ec5780601f106110c1576101008083540402835291602001916110ec565b820191906000526020600020905b8154815290600101906020018083116110cf57829003601f168201915b5050505050905090565b600054610100900460ff166111115760005460ff1615611115565b303b155b6111785760405162461bcd60e51b815260206004820152602e60248201527f496e697469616c697a61626c653a20636f6e747261637420697320616c72656160448201526d191e481a5b9a5d1a585b1a5e995960921b6064820152608401611030565b600054610100900460ff1615801561119a576000805461ffff19166101011790555b600086511180156111ac575060008551115b6111ef5760405162461bcd60e51b815260206004820152601460248201527320a222291013102120a620a721a29022a92927a960611b6044820152606401611030565b6111f7613ce1565b61123b604051806040016040528060078152602001663078426c6f636b60c81b81525060405180604001604052806003815260200162183c2160e91b815250613d10565b6112458888613d41565b60006001600160a01b03168660018151811061126357611263615a3b565b60200260200101516001600160a01b0316141580156112af575060006001600160a01b03168660028151811061129b5761129b615a3b565b60200260200101516001600160a01b031614155b80156112e8575060006001600160a01b0316866003815181106112d4576112d4615a3b565b60200260200101516001600160a01b031614155b8015611321575060006001600160a01b03168660048151811061130d5761130d615a3b565b60200260200101516001600160a01b031614155b61135f5760405162461bcd60e51b815260206004820152600f60248201526e1413d3d30816915493c81193d55391608a1b6044820152606401611030565b60d9805460ff60b01b1916905585518690600190811061138157611381615a3b565b602002602001015160cf60006101000a8154816001600160a01b0302191690836001600160a01b03160217905550856002815181106113c2576113c2615a3b565b602002602001015160d260006101000a8154816001600160a01b0302191690836001600160a01b031602179055508560038151811061140357611403615a3b565b602002602001015160d060006101000a8154816001600160a01b0302191690836001600160a01b031602179055508560048151811061144457611444615a3b565b602090810291909101015160d180546001600160a01b0319166001600160a01b0392831617905583166114a75760405162461bcd60e51b815260206004820152600b60248201526a524f55544552205a45524f60a81b6044820152606401611030565b60008390506000816001600160a01b031663c45a01556040518163ffffffff1660e01b815260040160206040518083038186803b1580156114e757600080fd5b505afa1580156114fb573d6000803e3d6000fd5b505050506040513d601f19601f8201168201806040525081019061151f919061512d565b6001600160a01b031663c9c6539630846001600160a01b03166373b295c26040518163ffffffff1660e01b815260040160206040518083038186803b15801561156757600080fd5b505afa15801561157b573d6000803e3d6000fd5b505050506040513d601f19601f8201168201806040525081019061159f919061512d565b6040516001600160e01b031960e085901b1681526001600160a01b03928316600482015291166024820152604401602060405180830381600087803b1580156115e757600080fd5b505af11580156115fb573d6000803e3d6000fd5b505050506040513d601f19601f8201168201806040525081019061161f919061512d565b60ca80546001600160a01b038086166001600160a01b03199283161790925560cd805492841692909116919091179055905061165c816001613d72565b60008660008151811061167157611671615a3b565b60200260200101511180156116a0575060008660018151811061169657611696615a3b565b6020026020010151115b80156116c657506000866002815181106116bc576116bc615a3b565b6020026020010151115b80156116ec57506000866003815181106116e2576116e2615a3b565b6020026020010151115b8015611712575060008660048151811061170857611708615a3b565b6020026020010151115b61174e5760405162461bcd60e51b815260206004820152600d60248201526c0c094811915154c81193d55391609a1b6044820152606401611030565b8560008151811061176157611761615a3b565b602002602001015160d6819055508560018151811061178257611782615a3b565b602002602001015160d481905550856002815181106117a3576117a3615a3b565b602002602001015160d381905550856003815181106117c4576117c4615a3b565b602002602001015160d581905550856004815181106117e5576117e5615a3b565b602002602001015160d88190555060d45460d65460d55460d3546118099190615933565b6118139190615933565b61181d9190615933565b60d75586518851146118685760405162461bcd60e51b815260206004820152601460248201527320a222291013102120a620a721a29022a92927a960611b6044820152606401611030565b60005b88518110156118d5576118c389828151811061188957611889615a3b565b60200260200101518983815181106118a3576118a3615a3b565b6020026020010151670de0b6b3a76400006118be919061596d565b613e32565b806118cd81615a0a565b91505061186b565b5060355469d3c21bcecceda1000000146119295760405162461bcd60e51b81526020600482015260156024820152741515130814d5541413164811125191880c48135253605a1b6044820152606401611030565b505060d98054606460cb55600a60cc5560df805461010161ffff199182161790915560ff60b01b196001600160a01b0386166201000002919091166001600160b01b0319909216919091176101001716600160b01b179055600060da5561012c60db55801561199e576000805461ff00191690555b5050505050505050565b6065546001600160a01b031633146119d25760405162461bcd60e51b815260040161103090615769565b60008160d45460d65460d5546119e89190615933565b6119f29190615933565b6119fc9190615933565b90506064811115611a1f5760405162461bcd60e51b8152600401611030906157c3565b60d39190915560d755565b600033611a38818585613f11565b60019150505b92915050565b600033611a635760405162461bcd60e51b81526004016110309061579e565b60c9546001600160a01b031663619a635e336040518263ffffffff1660e01b8152600401611a9191906155c8565b60206040518083038186803b158015611aa957600080fd5b505afa158015611abd573d6000803e3d6000fd5b505050506040513d601f19601f82011682018060405250810190611ae19190615517565b905090565b6065546001600160a01b03163314611b105760405162461bcd60e51b815260040161103090615769565b6305f5e1008112611b745760405162461bcd60e51b815260206004820152602860248201527f5245445543455f5257443a20646f206e6f7420726564756365206d6f7265207460448201526768616e203130302560c01b6064820152608401611030565b60c9546040516309d2040f60e41b81526001600160a01b0390911690639d2040f090611ba6908590859060040161567d565b600060405180830381600087803b158015611bc057600080fd5b505af1158015611bd4573d6000803e3d6000fd5b505050505050565b606033611bfb5760405162461bcd60e51b81526004016110309061579e565b60c9546001600160a01b0316635dbab6ed335b6040518263ffffffff1660e01b8152600401611c2a91906155c8565b60006040518083038186803b158015611c4257600080fd5b505afa158015611c56573d6000803e3d6000fd5b505050506040513d6000823e601f3d908101601f19168201604052611ae19190810190615487565b6001600160a01b038116600090815260996020526040902054611cb35760405162461bcd60e51b8152600401611030906156d8565b6000611cbe60985490565b611cc89047615933565b90506000611cf58383611cf0866001600160a01b03166000908152609a602052604090205490565b614035565b905080611d145760405162461bcd60e51b81526004016110309061571e565b6001600160a01b0383166000908152609a602052604081208054839290611d3c908490615933565b925050819055508060986000828254611d559190615933565b90915550611d659050838261407b565b7fdf20fd1e76bc69d672e4814fafb2c449bba3a5369d8359adf9e05e6fde87b0568382604051611d969291906155dc565b60405180910390a1505050565b60c954604051630c75361360e31b81526000916001600160a01b0316906363a9b09890611dd490859060040161566f565b60206040518083038186803b158015611dec57600080fd5b505afa158015611e00573d6000803e3d6000fd5b505050506040513d601f19601f82011682018060405250810190611a3e9190615517565b6065546001600160a01b03163314611e4e5760405162461bcd60e51b815260040161103090615769565b8015611eb15760405162461bcd60e51b815260206004820152602c60248201527f414e54492d424f543a20646f206e6f74207475726e206f6e206166746572207360448201526b3bb4ba31b434b7339037b33360a11b6064820152608401611030565b60d98054911515600160b01b0260ff60b01b19909216919091179055565b60c95460405163ce6912a360e01b81526000916001600160a01b03169063ce6912a390611dd490859060040161566f565b600033611f0e858285614199565b611f19858585614213565b60019150505b9392505050565b6065546001600160a01b03163314611f505760405162461bcd60e51b815260040161103090615769565b60da55565b60df54610100900460ff16611fac5760405162461bcd60e51b815260206004820152601d60248201527f434f4e544d494e543a206d696e7420636f6e74732064697361626c65640000006044820152606401611030565b60cc5482511115611ffa5760405162461bcd60e51b8152602060048201526018602482015277434f4e544d494e543a20746f6f206d616e7920636f6e747360401b6044820152606401611030565b60005b82518110156120b357600383828151811061201a5761201a615a3b565b60200260200101515111801561204a5750602183828151811061203f5761203f615a3b565b602002602001015151105b6120a15760405162461bcd60e51b815260206004820152602260248201527f434f4e544d494e543a20696d70726f7065722063686172616374657220636f756044820152611b9d60f21b6064820152608401611030565b806120ab81615a0a565b915050611ffd565b5033806120fb5760405162461bcd60e51b8152602060048201526016602482015275434f4e544d494e543a207a65726f206164647265737360501b6044820152606401611030565b6001600160a01b038116600090815260dd602052604090205460ff16156121645760405162461bcd60e51b815260206004820152601d60248201527f434f4e544d494e543a20626c61636b6c697374656420616464726573730000006044820152606401611030565b60cf546001600160a01b03828116911614801590612190575060d1546001600160a01b03828116911614155b80156121aa575060d0546001600160a01b03828116911614155b6122015760405162461bcd60e51b815260206004820152602260248201527f434f4e544d494e543a20706f6f6c732063616e6e6f742063726561746520636f6044820152611b9d60f21b6064820152608401611030565b600061220c8261448e565b905060cb5484518261221e9190615933565b111561226c5760405162461bcd60e51b815260206004820152601c60248201527f434f4e544d494e543a2072656163686564206d696e74206c696d6974000000006044820152606401611030565b835160c954604051630c75361360e31b8152600092916001600160a01b0316906363a9b098906122a090889060040161566f565b60206040518083038186803b1580156122b857600080fd5b505afa1580156122cc573d6000803e3d6000fd5b505050506040513d601f19601f820116820180604052508101906122f09190615517565b6122fa919061596d565b90508060ce600082825461230e9190615933565b90915550506001600160a01b03831660009081526033602052604090205481111561238b5760405162461bcd60e51b815260206004820152602760248201527f434f4e544d494e543a2042616c616e636520746f6f206c6f7720666f7220637260448201526632b0ba34b7b71760c91b6064820152608401611030565b6000606460d6548361239d919061596d565b6123a7919061594b565b60d954909150610100900460ff16156123e0576123c58430836144bf565b60cf546123db906001600160a01b03168261468d565b6123f8565b60cf546123f89085906001600160a01b0316836144bf565b6000606460d3548461240a919061596d565b612414919061594b565b60d15490915061242f9086906001600160a01b0316836144bf565b6000606460d45485612441919061596d565b61244b919061594b565b60d95490915060ff161561247f576124648630836144bf565b60d05461247a906001600160a01b03168261468d565b612497565b60d0546124979087906001600160a01b0316836144bf565b6000606460d554866124a9919061596d565b6124b3919061594b565b60d2549091506124ce9088906001600160a01b031683614832565b60008183856124dd888a61598c565b6124e7919061598c565b6124f1919061598c565b6124fb919061598c565b9050801561250e5761250e8830836144bf565b60c95460405162a6998d60e31b81526001600160a01b0390911690630534cc6890612541908b908e908e906004016155f5565b600060405180830381600087803b15801561255b57600080fd5b505af115801561256f573d6000803e3d6000fd5b505050507f120c2f36321d80f09f9d26f68f1f49b72c1964e118aa788bb9611f47e10c7eac886040516125a291906155c8565b60405180910390a150505050505050505050565b3360008181526034602090815260408083206001600160a01b0387168452909152812054909190611a3890829086906125f0908790615933565b613f11565b6001600160a01b039182166000908152609d6020908152604080832093909416825291909152205490565b6001600160a01b0381166000908152609960205260409020546126555760405162461bcd60e51b8152600401611030906156d8565b6001600160a01b0382166000908152609c60205260408120546040516370a0823160e01b81526001600160a01b038516906370a082319061269a9030906004016155c8565b60206040518083038186803b1580156126b257600080fd5b505afa1580156126c6573d6000803e3d6000fd5b505050506040513d601f19601f820116820180604052508101906126ea9190615517565b6126f49190615933565b905060006127078383611cf087876125f5565b9050806127265760405162461bcd60e51b81526004016110309061571e565b6001600160a01b038085166000908152609d602090815260408083209387168352929052908120805483929061275d908490615933565b90915550506001600160a01b0384166000908152609c60205260408120805483929061278a908490615933565b9091555061279b9050848483614955565b836001600160a01b03167f3be5b7a71e84ed12875d241991c70855ac5817d847039e17a9d895c1ceb0f18a84836040516127d69291906155dc565b60405180910390a250505050565b60df54339060ff16151560011461283d5760405162461bcd60e51b815260206004820152601960248201527f43534854414c4c3a20636173686f75742064697361626c6564000000000000006044820152606401611030565b6001600160a01b03811661288b5760405162461bcd60e51b815260206004820152601560248201527443534854414c4c3a207a65726f206164647265737360581b6044820152606401611030565b6001600160a01b038116600090815260dd602052604090205460ff16156128f45760405162461bcd60e51b815260206004820152601c60248201527f43534854414c4c3a20626c61636b6c69737465642061646472657373000000006044820152606401611030565b60cf546001600160a01b03828116911614801590612920575060d1546001600160a01b03828116911614155b61296c5760405162461bcd60e51b815260206004820152601d60248201527f43534854414c4c3a20706f6f6c732063616e6e6f7420636173686f75740000006044820152606401611030565b60c9546040516330cd31af60e11b81526000916001600160a01b03169063619a635e9061299d9085906004016155c8565b60206040518083038186803b1580156129b557600080fd5b505afa1580156129c9573d6000803e3d6000fd5b505050506040513d601f19601f820116820180604052508101906129ed9190615517565b905060008111612a3f5760405162461bcd60e51b815260206004820152601960248201527f43534854414c4c3a20726577617264206e6f74207265616479000000000000006044820152606401611030565b60d85460009015612a7f57606460d85483612a5a919061596d565b612a64919061594b565b60d254909150612a7f9084906001600160a01b031683614832565b612a89818361598c565b60d154909250612aa3906001600160a01b031684846144bf565b60c95460405163d094fa8d60e01b81526001600160a01b039091169063d094fa8d90612ad39086906004016155c8565b602060405180830381600087803b158015612aed57600080fd5b505af1158015612b01573d6000803e3d6000fd5b505050506040513d601f19601f82011682018060405250810190612b259190615517565b507f564112c0ad2fbcae1bed83c58ed5d830128565d634cdc875bb02b065ad24234383604051611d9691906155c8565b6065546001600160a01b03163314612b7f5760405162461bcd60e51b815260040161103090615769565b6001600160a01b038116612ba55760405162461bcd60e51b8152600401611030906156ab565b60cf80546001600160a01b0319166001600160a01b0392909216919091179055565b6065546001600160a01b03163314612bf15760405162461bcd60e51b815260040161103090615769565b60ca546001600160a01b0382811691161415612c605760405162461bcd60e51b815260206004820152602860248201527f544b4e3a2054686520726f7574657220616c7265616479206861732074686174604482015267206164647265737360c01b6064820152608401611030565b60ca80546001600160a01b0319166001600160a01b0383169081179091556040805163c45a015560e01b815290516000929163c45a0155916004808301926020929190829003018186803b158015612cb757600080fd5b505afa158015612ccb573d6000803e3d6000fd5b505050506040513d601f19601f82011682018060405250810190612cef919061512d565b6001600160a01b031663c9c653963060ca60009054906101000a90046001600160a01b03166001600160a01b03166373b295c26040518163ffffffff1660e01b815260040160206040518083038186803b158015612d4c57600080fd5b505afa158015612d60573d6000803e3d6000fd5b505050506040513d601f19601f82011682018060405250810190612d84919061512d565b6040516001600160e01b031960e085901b1681526001600160a01b03928316600482015291166024820152604401602060405180830381600087803b158015612dcc57600080fd5b505af1158015612de0573d6000803e3d6000fd5b505050506040513d601f19601f82011682018060405250810190612e04919061512d565b60cd80546001600160a01b0319166001600160a01b03929092169190911790555050565b60df54339060ff161515600114612e7a5760405162461bcd60e51b815260206004820152601660248201527510d4d2150e8810d85cda1bdd5d08111a5cd8589b195960521b6044820152606401611030565b6001600160a01b038116612ec55760405162461bcd60e51b8152602060048201526012602482015271435348543a207a65726f206164647265737360701b6044820152606401611030565b6001600160a01b038116600090815260dd602052604090205460ff1615612f3e5760405162461bcd60e51b815260206004820152602760248201527f435348543a2074686973206164647265737320686173206265656e20626c61636044820152661adb1a5cdd195960ca1b6064820152608401611030565b60cf546001600160a01b03828116911614801590612f6a575060d1546001600160a01b03828116911614155b8015612f84575060d0546001600160a01b03828116911614155b612fed5760405162461bcd60e51b815260206004820152603460248201527f435348543a2066757475726520616e642072657761726420706f6f6c732063616044820152736e6e6f7420636173686f7574207265776172647360601b6064820152608401611030565b60c9546040516329b8573160e21b81526000916001600160a01b03169063a6e15cc49061302090859087906004016155dc565b60206040518083038186803b15801561303857600080fd5b505afa15801561304c573d6000803e3d6000fd5b505050506040513d601f19601f820116820180604052508101906130709190615517565b9050600081116130cd5760405162461bcd60e51b815260206004820152602260248201527f435348543a20796f757220726577617264206973206e6f742072656164792079604482015261195d60f21b6064820152608401611030565b60d8546000901561310d57606460d854836130e8919061596d565b6130f2919061594b565b60d25490915061310d9084906001600160a01b031683614832565b613117818361598c565b60d154909250613131906001600160a01b031684846144bf565b60c95460405163611015b360e11b81526001600160a01b039091169063c2202b669061316390869088906004016155dc565b602060405180830381600087803b15801561317d57600080fd5b505af1158015613191573d6000803e3d6000fd5b505050506040513d601f19601f820116820180604052508101906131b59190615517565b507f39f6d68d140e552a327d43ef814649947d78e76743e169e4f00d61b14f2f846d83856040516131e79291906155dc565b60405180910390a150505050565b6065546001600160a01b0316331461321f5760405162461bcd60e51b815260040161103090615769565b60648111156132705760405162461bcd60e51b815260206004820152601c60248201527f464545533a20636173686f757420657863656564696e672031303025000000006044820152606401611030565b60d855565b6060336132945760405162461bcd60e51b81526004016110309061579e565b60c9546001600160a01b03166377ec782633611c0e565b6065546001600160a01b031633146132d55760405162461bcd60e51b815260040161103090615769565b6132df60006149ab565b565b60c9546040805163055a757d60e41b815290516000926001600160a01b0316916355a757d0916004808301926020929190829003018186803b158015611aa957600080fd5b60c95460405162c73e4d60e01b81526000916001600160a01b03169062c73e4d90611dd490859060040161566f565b6065546001600160a01b0316331461337f5760405162461bcd60e51b815260040161103090615769565b6001600160a01b0381166133a55760405162461bcd60e51b8152600401611030906156ab565b60d080546001600160a01b0319166001600160a01b0392909216919091179055565b6060336133e65760405162461bcd60e51b81526004016110309061579e565b60c9546001600160a01b0316638bf1451433611c0e565b6065546001600160a01b031633146134275760405162461bcd60e51b815260040161103090615769565b60d980549115156101000261ff0019909216919091179055565b6060336134605760405162461bcd60e51b81526004016110309061579e565b60c9546001600160a01b031663f743f31933611c0e565b6000609b828154811061348c5761348c615a3b565b6000918252602090912001546001600160a01b031692915050565b6065546001600160a01b031633146134d15760405162461bcd60e51b815260040161103090615769565b6001600160a01b03811661351c5760405162461bcd60e51b81526020600482015260126024820152712722abafa1a9269d103d32b9379030b2323960711b6044820152606401611030565b60c980546001600160a01b0319166001600160a01b0392909216919091179055565b6065546001600160a01b031633146135685760405162461bcd60e51b815260040161103090615769565b60008160d45460d65460d35461357e9190615933565b6135889190615933565b6135929190615933565b905060648111156135b55760405162461bcd60e51b8152600401611030906157c3565b60d59190915560d755565b6060336135df5760405162461bcd60e51b81526004016110309061579e565b60c9546001600160a01b03166351bf120c33611c0e565b6065546001600160a01b031633146136205760405162461bcd60e51b815260040161103090615769565b60df80549115156101000261ff0019909216919091179055565b606060378054611073906159cf565b6065546001600160a01b031633146136735760405162461bcd60e51b815260040161103090615769565b60008160d65460d55460d3546136899190615933565b6136939190615933565b61369d9190615933565b905060648111156136c05760405162461bcd60e51b8152600401611030906157c3565b60d49190915560d755565b6065546001600160a01b031633146136f55760405162461bcd60e51b815260040161103090615769565b60cd546001600160a01b03838116911614156137675760405162461bcd60e51b815260206004820152602b60248201527f544b4e3a205468652050616e63616b655377617020706169722063616e6e6f7460448201526a081899481c995b5bdd995960aa1b6064820152608401611030565b6137718282613d72565b5050565b6060336137945760405162461bcd60e51b81526004016110309061579e565b60c9546001600160a01b031663367fd07433611c0e565b6065546001600160a01b031633146137d55760405162461bcd60e51b815260040161103090615769565b60d9805460ff1916911515919091179055565b3360008181526034602090815260408083206001600160a01b03871684529091528120549091908381101561386d5760405162461bcd60e51b815260206004820152602560248201527f45524332303a2064656372656173656420616c6c6f77616e63652062656c6f77604482015264207a65726f60d81b6064820152608401611030565b61387a8286868403613f11565b506001949350505050565b60c9546040805163e18f03ad60e01b815290516000926001600160a01b03169163e18f03ad916004808301926020929190829003018186803b158015611aa957600080fd5b600033611a38818585614213565b6065546001600160a01b031633146139025760405162461bcd60e51b815260040161103090615769565b60d980546001600160a01b03909216620100000262010000600160b01b0319909216919091179055565b6065546001600160a01b031633146139565760405162461bcd60e51b815260040161103090615769565b60df805460ff1916911515919091179055565b6065546001600160a01b031633146139935760405162461bcd60e51b815260040161103090615769565b60c954604051631c864c8f60e11b8152600481018390526001600160a01b039091169063390c991e90602401600060405180830381600087803b1580156139d957600080fd5b505af11580156139ed573d6000803e3d6000fd5b5050505050565b6065546001600160a01b03163314613a1e5760405162461bcd60e51b815260040161103090615769565b6001600160a01b038116613a445760405162461bcd60e51b8152600401611030906156ab565b60d180546001600160a01b0319166001600160a01b0392909216919091179055565b6065546001600160a01b03163314613a905760405162461bcd60e51b815260040161103090615769565b60c954604051631d5a173160e01b81526001600160a01b0390911690631d5a173190611ba6908590859060040161567d565b6001600160a01b03918216600090815260346020908152604080832093909416825291909152205490565b606033613b0c5760405162461bcd60e51b81526004016110309061579e565b60c9546001600160a01b03166328cceb2433611c0e565b6065546001600160a01b03163314613b4d5760405162461bcd60e51b815260040161103090615769565b6001600160a01b038116613b735760405162461bcd60e51b8152600401611030906156ab565b60d280546001600160a01b0319166001600160a01b0392909216919091179055565b6065546001600160a01b03163314613bbf5760405162461bcd60e51b815260040161103090615769565b6001600160a01b038116613c245760405162461bcd60e51b815260206004820152602660248201527f4f776e61626c653a206e6577206f776e657220697320746865207a65726f206160448201526564647265737360d01b6064820152608401611030565b613c2d816149ab565b50565b6065546001600160a01b03163314613c5a5760405162461bcd60e51b815260040161103090615769565b60db55565b6065546001600160a01b03163314613c895760405162461bcd60e51b815260040161103090615769565b60008160d45460d55460d354613c9f9190615933565b613ca99190615933565b613cb39190615933565b90506064811115613cd65760405162461bcd60e51b8152600401611030906157c3565b60d69190915560d755565b600054610100900460ff16613d085760405162461bcd60e51b8152600401611030906157fa565b6132df6149fd565b600054610100900460ff16613d375760405162461bcd60e51b8152600401611030906157fa565b6137718282614a2d565b600054610100900460ff16613d685760405162461bcd60e51b8152600401611030906157fa565b6137718282614a7b565b6001600160a01b038216600090815260de602052604090205460ff1615158115151415613e075760405162461bcd60e51b815260206004820152603d60248201527f544b4e3a204175746f6d61746564206d61726b6574206d616b6572207061697260448201527f20697320616c72656164792073657420746f20746861742076616c75650000006064820152608401611030565b6001600160a01b0391909116600090815260de60205260409020805460ff1916911515919091179055565b6001600160a01b038216613e885760405162461bcd60e51b815260206004820152601f60248201527f45524332303a206d696e7420746f20746865207a65726f2061646472657373006044820152606401611030565b8060356000828254613e9a9190615933565b90915550506001600160a01b03821660009081526033602052604081208054839290613ec7908490615933565b90915550506040518181526001600160a01b038316906000907fddf252ad1be2c89b69c2b068fc378daa952ba7f163c4a11628f55a4df523b3ef9060200160405180910390a35050565b6001600160a01b038316613f735760405162461bcd60e51b8152602060048201526024808201527f45524332303a20617070726f76652066726f6d20746865207a65726f206164646044820152637265737360e01b6064820152608401611030565b6001600160a01b038216613fd45760405162461bcd60e51b815260206004820152602260248201527f45524332303a20617070726f766520746f20746865207a65726f206164647265604482015261737360f01b6064820152608401611030565b6001600160a01b0383811660008181526034602090815260408083209487168084529482529182902085905590518481527f8c5be1e5ebec7d5bd14f71427d1e84f3dd0314c0f7b2291e5b200ac8c7c3b925910160405180910390a3505050565b6097546001600160a01b0384166000908152609960205260408120549091839161405f908661596d565b614069919061594b565b614073919061598c565b949350505050565b804710156140cb5760405162461bcd60e51b815260206004820152601d60248201527f416464726573733a20696e73756666696369656e742062616c616e63650000006044820152606401611030565b6000826001600160a01b03168260405160006040518083038185875af1925050503d8060008114614118576040519150601f19603f3d011682016040523d82523d6000602084013e61411d565b606091505b50509050806141945760405162461bcd60e51b815260206004820152603a60248201527f416464726573733a20756e61626c6520746f2073656e642076616c75652c207260448201527f6563697069656e74206d617920686176652072657665727465640000000000006064820152608401611030565b505050565b60006141a58484613ac2565b9050600019811461420d57818110156142005760405162461bcd60e51b815260206004820152601d60248201527f45524332303a20696e73756666696369656e7420616c6c6f77616e63650000006044820152606401611030565b61420d8484848403613f11565b50505050565b6001600160a01b038316600090815260dd602052604090205460ff1615801561425557506001600160a01b038216600090815260dd602052604090205460ff16155b6142a15760405162461bcd60e51b815260206004820152601a60248201527f45524332303a20426c61636b6c697374656420616464726573730000000000006044820152606401611030565b60d954600160b01b900460ff1680156142c8575060cd546001600160a01b03838116911614155b80156142e2575060ca546001600160a01b03838116911614155b80156142fc575060d1546001600160a01b03838116911614155b8015614316575060d0546001600160a01b03838116911614155b8015614330575060d2546001600160a01b03838116911614155b801561434a575060cf546001600160a01b03838116911614155b801561435f57506001600160a01b0382163014155b156144835760da5481614387846001600160a01b031660009081526033602052604090205490565b6143919190615933565b11156143df5760405162461bcd60e51b815260206004820152601d60248201527f307842204c41554e43483a206f776e2065786365656473206c696d69740000006044820152606401611030565b6001600160a01b038216600090815260dc6020526040902054156144675760db546001600160a01b038316600090815260dc6020526040902054614423904261598c565b10156144675760405162461bcd60e51b81526020600482015260136024820152720c1e10881310555390d20e881d1a5b595bdd5d606a1b6044820152606401611030565b6001600160a01b038216600090815260dc602052604090204290555b6141948383836144bf565b60c9546040516344fea1b960e01b81526000916001600160a01b0316906344fea1b990611dd49085906004016155c8565b6001600160a01b0383166145235760405162461bcd60e51b815260206004820152602560248201527f45524332303a207472616e736665722066726f6d20746865207a65726f206164604482015264647265737360d81b6064820152608401611030565b6001600160a01b0382166145855760405162461bcd60e51b815260206004820152602360248201527f45524332303a207472616e7366657220746f20746865207a65726f206164647260448201526265737360e81b6064820152608401611030565b6001600160a01b038316600090815260336020526040902054818110156145fd5760405162461bcd60e51b815260206004820152602660248201527f45524332303a207472616e7366657220616d6f756e7420657863656564732062604482015265616c616e636560d01b6064820152608401611030565b6001600160a01b03808516600090815260336020526040808220858503905591851681529081208054849290614634908490615933565b92505081905550826001600160a01b0316846001600160a01b03167fddf252ad1be2c89b69c2b068fc378daa952ba7f163c4a11628f55a4df523b3ef8460405161468091815260200190565b60405180910390a361420d565b604080516003808252608082019092526000916020820160608036833701905050905030816000815181106146c4576146c4615a3b565b6001600160a01b0392831660209182029290920181019190915260ca54604080516339d94ae160e11b8152905191909316926373b295c2926004808301939192829003018186803b15801561471857600080fd5b505afa15801561472c573d6000803e3d6000fd5b505050506040513d601f19601f82011682018060405250810190614750919061512d565b8160018151811061476357614763615a3b565b6001600160a01b03928316602091820292909201015260d954825162010000909104909116908290600290811061479c5761479c615a3b565b6001600160a01b03928316602091820292909201015260ca546147c29130911684613f11565b60ca54604051635c11d79560e01b81526001600160a01b0390911690635c11d795906147fb908590600090869089904290600401615845565b600060405180830381600087803b15801561481557600080fd5b505af1158015614829573d6000803e3d6000fd5b50505050505050565b60ca5461484a9084906001600160a01b031683613f11565b60ca546001600160a01b031663f91b3f7230836000808761486c426078615933565b60405160e088901b6001600160e01b03191681526001600160a01b039687166004820152602481019590955260448501939093526064840191909152909216608482015260a481019190915260c401606060405180830381600087803b1580156148d557600080fd5b505af1925050508015614905575060408051601f3d908101601f1916820190925261490291810190615530565b60015b6149215760d2546141949084906001600160a01b0316836144bf565b5050507fbb37879e252460856212dc4e8c6edf174e473df9423e3a7feccd21f8c28d587a8382604051611d969291906155dc565b6141948363a9059cbb60e01b84846040516024016149749291906155dc565b60408051601f198184030181529190526020810180516001600160e01b03166001600160e01b031990931692909217909152614bb9565b606580546001600160a01b038381166001600160a01b0319831681179093556040519116919082907f8be0079c531659141344cd1fd0a4f28419497f9722a3daafe3b4186f6b6457e090600090a35050565b600054610100900460ff16614a245760405162461bcd60e51b8152600401611030906157fa565b6132df336149ab565b600054610100900460ff16614a545760405162461bcd60e51b8152600401611030906157fa565b8151614a67906036906020850190614f7d565b508051614194906037906020840190614f7d565b600054610100900460ff16614aa25760405162461bcd60e51b8152600401611030906157fa565b8051825114614b0e5760405162461bcd60e51b815260206004820152603260248201527f5061796d656e7453706c69747465723a2070617965657320616e6420736861726044820152710cae640d8cadccee8d040dad2e6dac2e8c6d60731b6064820152608401611030565b6000825111614b5f5760405162461bcd60e51b815260206004820152601a60248201527f5061796d656e7453706c69747465723a206e6f207061796565730000000000006044820152606401611030565b60005b825181101561419457614ba7838281518110614b8057614b80615a3b565b6020026020010151838381518110614b9a57614b9a615a3b565b6020026020010151614c8b565b80614bb181615a0a565b915050614b62565b6000614c0e826040518060400160405280602081526020017f5361666545524332303a206c6f772d6c6576656c2063616c6c206661696c6564815250856001600160a01b0316614e699092919063ffffffff16565b8051909150156141945780806020019051810190614c2c9190615433565b6141945760405162461bcd60e51b815260206004820152602a60248201527f5361666545524332303a204552433230206f7065726174696f6e20646964206e6044820152691bdd081cdd58d8d9595960b21b6064820152608401611030565b6001600160a01b038216614cf65760405162461bcd60e51b815260206004820152602c60248201527f5061796d656e7453706c69747465723a206163636f756e74206973207468652060448201526b7a65726f206164647265737360a01b6064820152608401611030565b60008111614d465760405162461bcd60e51b815260206004820152601d60248201527f5061796d656e7453706c69747465723a207368617265732061726520300000006044820152606401611030565b6001600160a01b03821660009081526099602052604090205415614dc05760405162461bcd60e51b815260206004820152602b60248201527f5061796d656e7453706c69747465723a206163636f756e7420616c726561647960448201526a206861732073686172657360a81b6064820152608401611030565b609b8054600181019091557fbba9db4cdbea0a37c207bbb83e20f828cd4441c49891101dc94fd20dc8efc3490180546001600160a01b0319166001600160a01b0384169081179091556000908152609960205260409020819055609754614e28908290615933565b6097556040517f40c340f65e17194d14ddddb073d3c9f888e3cb52b5aae0c6c7706b4fbc905fac90614e5d90849084906155dc565b60405180910390a15050565b60606140738484600085856001600160a01b0385163b614ecb5760405162461bcd60e51b815260206004820152601d60248201527f416464726573733a2063616c6c20746f206e6f6e2d636f6e74726163740000006044820152606401611030565b600080866001600160a01b03168587604051614ee791906155ac565b60006040518083038185875af1925050503d8060008114614f24576040519150601f19603f3d011682016040523d82523d6000602084013e614f29565b606091505b5091509150614f39828286614f44565b979650505050505050565b60608315614f53575081611f1f565b825115614f635782518084602001fd5b8160405162461bcd60e51b81526004016110309190615698565b828054614f89906159cf565b90600052602060002090601f016020900481019282614fab5760008555614ff1565b82601f10614fc457805160ff1916838001178555614ff1565b82800160010185558215614ff1579182015b82811115614ff1578251825591602001919060010190614fd6565b50614ffd929150615001565b5090565b5b80821115614ffd5760008155600101615002565b803561502181615a67565b919050565b600082601f83011261503757600080fd5b8135602061504c615047836158e7565b6158b6565b80838252828201915082860187848660051b890101111561506c57600080fd5b60005b8581101561509457813561508281615a67565b8452928401929084019060010161506f565b5090979650505050505050565b600082601f8301126150b257600080fd5b813560206150c2615047836158e7565b80838252828201915082860187848660051b89010111156150e257600080fd5b60005b85811015615094578135845292840192908401906001016150e5565b80356003811061502157600080fd5b60006020828403121561512257600080fd5b8135611f1f81615a67565b60006020828403121561513f57600080fd5b8151611f1f81615a67565b6000806040838503121561515d57600080fd5b823561516881615a67565b9150602083013561517881615a67565b809150509250929050565b60008060006060848603121561519857600080fd5b83356151a381615a67565b925060208401356151b381615a67565b929592945050506040919091013590565b600080604083850312156151d757600080fd5b82356151e281615a67565b9150602083013561517881615a7c565b6000806040838503121561520557600080fd5b823561521081615a67565b946020939093013593505050565b600080600080600080600060e0888a03121561523957600080fd5b873567ffffffffffffffff8082111561525157600080fd5b61525d8b838c01615026565b985060208a013591508082111561527357600080fd5b61527f8b838c016150a1565b975060408a013591508082111561529557600080fd5b6152a18b838c01615026565b965060608a01359150808211156152b757600080fd5b6152c38b838c016150a1565b955060808a01359150808211156152d957600080fd5b506152e68a828b016150a1565b9350506152f560a08901615016565b915061530360c08901615016565b905092959891949750929550565b600080604080848603121561532557600080fd5b833567ffffffffffffffff8082111561533d57600080fd5b818601915086601f83011261535157600080fd5b81356020615361615047836158e7565b8083825282820191508286018b848660051b890101111561538157600080fd5b60005b858110156153f65781358781111561539b57600080fd5b8801603f81018e136153ac57600080fd5b858101356153bc6150478261590b565b8181528f8c8385010111156153d057600080fd5b818c84018983013760009181018801919091528552509284019290840190600101615384565b50508098505050615408818901615101565b955050505050509250929050565b60006020828403121561542857600080fd5b8135611f1f81615a7c565b60006020828403121561544557600080fd5b8151611f1f81615a7c565b60006020828403121561546257600080fd5b611f1f82615101565b6000806040838503121561547e57600080fd5b61521083615101565b60006020828403121561549957600080fd5b815167ffffffffffffffff8111156154b057600080fd5b8201601f810184136154c157600080fd5b80516154cf6150478261590b565b8181528560208385010111156154e457600080fd5b6154f58260208301602086016159a3565b95945050505050565b60006020828403121561551057600080fd5b5035919050565b60006020828403121561552957600080fd5b5051919050565b60008060006060848603121561554557600080fd5b8351925060208401519150604084015190509250925092565b6003811061557c57634e487b7160e01b600052602160045260246000fd5b9052565b600081518084526155988160208601602086016159a3565b601f01601f19169290920160200192915050565b600082516155be8184602087016159a3565b9190910192915050565b6001600160a01b0391909116815260200190565b6001600160a01b03929092168252602082015260400190565b60006060820160018060a01b0386168352602060608185015281865180845260808601915060808160051b870101935082880160005b8281101561565957607f19888703018452615647868351615580565b9550928401929084019060010161562b565b505050505080915050614073604083018461555e565b60208101611a3e828461555e565b6040810161568b828561555e565b8260208301529392505050565b602081526000611f1f6020830184615580565b6020808252601390820152722aa8222faba0a6261d103d32b9379030b2323960691b604082015260600190565b60208082526026908201527f5061796d656e7453706c69747465723a206163636f756e7420686173206e6f2060408201526573686172657360d01b606082015260800190565b6020808252602b908201527f5061796d656e7453706c69747465723a206163636f756e74206973206e6f742060408201526a191d59481c185e5b595b9d60aa1b606082015260800190565b6020808252818101527f4f776e61626c653a2063616c6c6572206973206e6f7420746865206f776e6572604082015260600190565b6020808252600b908201526a053454e44455220495320360ac1b604082015260600190565b6020808252601a908201527f464545533a20746f74616c20657863656564696e672031303025000000000000604082015260600190565b6020808252602b908201527f496e697469616c697a61626c653a20636f6e7472616374206973206e6f74206960408201526a6e697469616c697a696e6760a81b606082015260800190565b600060a082018783526020878185015260a0604085015281875180845260c086019150828901935060005b818110156158955784516001600160a01b031683529383019391830191600101615870565b50506001600160a01b03969096166060850152505050608001529392505050565b604051601f8201601f1916810167ffffffffffffffff811182821017156158df576158df615a51565b604052919050565b600067ffffffffffffffff82111561590157615901615a51565b5060051b60200190565b600067ffffffffffffffff82111561592557615925615a51565b50601f01601f191660200190565b6000821982111561594657615946615a25565b500190565b60008261596857634e487b7160e01b600052601260045260246000fd5b500490565b600081600019048311821515161561598757615987615a25565b500290565b60008282101561599e5761599e615a25565b500390565b60005b838110156159be5781810151838201526020016159a6565b8381111561420d5750506000910152565b600181811c908216806159e357607f821691505b60208210811415615a0457634e487b7160e01b600052602260045260246000fd5b50919050565b6000600019821415615a1e57615a1e615a25565b5060010190565b634e487b7160e01b600052601160045260246000fd5b634e487b7160e01b600052603260045260246000fd5b634e487b7160e01b600052604160045260246000fd5b6001600160a01b0381168114613c2d57600080fd5b8015158114613c2d57600080fdfea164736f6c6343000807000a",
  "devdoc": {
    "kind": "dev",
    "methods": {
      "allowance(address,address)": {
        "details": "See {IERC20-allowance}."
      },
      "approve(address,uint256)": {
        "details": "See {IERC20-approve}. NOTE: If `amount` is the maximum `uint256`, the allowance is not updated on `transferFrom`. This is semantically equivalent to an infinite approval. Requirements: - `spender` cannot be the zero address."
      },
      "balanceOf(address)": {
        "details": "See {IERC20-balanceOf}."
      },
      "decimals()": {
        "details": "Returns the number of decimals used to get its user representation. For example, if `decimals` equals `2`, a balance of `505` tokens should be displayed to a user as `5.05` (`505 / 10 ** 2`). Tokens usually opt for a value of 18, imitating the relationship between Ether and Wei. This is the value {ERC20} uses, unless this function is overridden; NOTE: This information is only used for _display_ purposes: it in no way affects any of the arithmetic of the contract, including {IERC20-balanceOf} and {IERC20-transfer}."
      },
      "decreaseAllowance(address,uint256)": {
        "details": "Atomically decreases the allowance granted to `spender` by the caller. This is an alternative to {approve} that can be used as a mitigation for problems described in {IERC20-approve}. Emits an {Approval} event indicating the updated allowance. Requirements: - `spender` cannot be the zero address. - `spender` must have allowance for the caller of at least `subtractedValue`."
      },
      "increaseAllowance(address,uint256)": {
        "details": "Atomically increases the allowance granted to `spender` by the caller. This is an alternative to {approve} that can be used as a mitigation for problems described in {IERC20-approve}. Emits an {Approval} event indicating the updated allowance. Requirements: - `spender` cannot be the zero address."
      },
      "name()": {
        "details": "Returns the name of the token."
      },
      "owner()": {
        "details": "Returns the address of the current owner."
      },
      "payee(uint256)": {
        "details": "Getter for the address of the payee number `index`."
      },
      "release(address)": {
        "details": "Triggers a transfer to `account` of the amount of Ether they are owed, according to their percentage of the total shares and their previous withdrawals."
      },
      "release(address,address)": {
        "details": "Triggers a transfer to `account` of the amount of `token` tokens they are owed, according to their percentage of the total shares and their previous withdrawals. `token` must be the address of an IERC20 contract."
      },
      "released(address)": {
        "details": "Getter for the amount of Ether already released to a payee."
      },
      "released(address,address)": {
        "details": "Getter for the amount of `token` tokens already released to a payee. `token` should be the address of an IERC20 contract."
      },
      "renounceOwnership()": {
        "details": "Leaves the contract without owner. It will not be possible to call `onlyOwner` functions anymore. Can only be called by the current owner. NOTE: Renouncing ownership will leave the contract without an owner, thereby removing any functionality that is only available to the owner."
      },
      "shares(address)": {
        "details": "Getter for the amount of shares held by an account."
      },
      "symbol()": {
        "details": "Returns the symbol of the token, usually a shorter version of the name."
      },
      "totalReleased()": {
        "details": "Getter for the total amount of Ether already released."
      },
      "totalReleased(address)": {
        "details": "Getter for the total amount of `token` already released. `token` should be the address of an IERC20 contract."
      },
      "totalShares()": {
        "details": "Getter for the total shares held by payees."
      },
      "totalSupply()": {
        "details": "See {IERC20-totalSupply}."
      },
      "transfer(address,uint256)": {
        "details": "See {IERC20-transfer}. Requirements: - `to` cannot be the zero address. - the caller must have a balance of at least `amount`."
      },
      "transferFrom(address,address,uint256)": {
        "details": "See {IERC20-transferFrom}. Emits an {Approval} event indicating the updated allowance. This is not required by the EIP. See the note at the beginning of {ERC20}. NOTE: Does not update the allowance if the current allowance is the maximum `uint256`. Requirements: - `from` and `to` cannot be the zero address. - `from` must have a balance of at least `amount`. - the caller must have allowance for ``from``'s tokens of at least `amount`."
      },
      "transferOwnership(address)": {
        "details": "Transfers ownership of the contract to a new account (`newOwner`). Can only be called by the current owner."
      }
    },
    "version": 1
  },
  "userdoc": {
    "kind": "user",
    "methods": {},
    "version": 1
  },
  "storageLayout": {
    "storage": [
      {
        "astId": 598,
        "contract": "contracts/ZeroXBlocksV1.sol:ZeroXBlocksV1",
        "label": "_initialized",
        "offset": 0,
        "slot": "0",
        "type": "t_bool"
      },
      {
        "astId": 601,
        "contract": "contracts/ZeroXBlocksV1.sol:ZeroXBlocksV1",
        "label": "_initializing",
        "offset": 1,
        "slot": "0",
        "type": "t_bool"
      },
      {
        "astId": 1889,
        "contract": "contracts/ZeroXBlocksV1.sol:ZeroXBlocksV1",
        "label": "__gap",
        "offset": 0,
        "slot": "1",
        "type": "t_array(t_uint256)50_storage"
      },
      {
        "astId": 684,
        "contract": "contracts/ZeroXBlocksV1.sol:ZeroXBlocksV1",
        "label": "_balances",
        "offset": 0,
        "slot": "51",
        "type": "t_mapping(t_address,t_uint256)"
      },
      {
        "astId": 690,
        "contract": "contracts/ZeroXBlocksV1.sol:ZeroXBlocksV1",
        "label": "_allowances",
        "offset": 0,
        "slot": "52",
        "type": "t_mapping(t_address,t_mapping(t_address,t_uint256))"
      },
      {
        "astId": 692,
        "contract": "contracts/ZeroXBlocksV1.sol:ZeroXBlocksV1",
        "label": "_totalSupply",
        "offset": 0,
        "slot": "53",
        "type": "t_uint256"
      },
      {
        "astId": 694,
        "contract": "contracts/ZeroXBlocksV1.sol:ZeroXBlocksV1",
        "label": "_name",
        "offset": 0,
        "slot": "54",
        "type": "t_string_storage"
      },
      {
        "astId": 696,
        "contract": "contracts/ZeroXBlocksV1.sol:ZeroXBlocksV1",
        "label": "_symbol",
        "offset": 0,
        "slot": "55",
        "type": "t_string_storage"
      },
      {
        "astId": 1277,
        "contract": "contracts/ZeroXBlocksV1.sol:ZeroXBlocksV1",
        "label": "__gap",
        "offset": 0,
        "slot": "56",
        "type": "t_array(t_uint256)45_storage"
      },
      {
        "astId": 10,
        "contract": "contracts/ZeroXBlocksV1.sol:ZeroXBlocksV1",
        "label": "_owner",
        "offset": 0,
        "slot": "101",
        "type": "t_address"
      },
      {
        "astId": 122,
        "contract": "contracts/ZeroXBlocksV1.sol:ZeroXBlocksV1",
        "label": "__gap",
        "offset": 0,
        "slot": "102",
        "type": "t_array(t_uint256)49_storage"
      },
      {
        "astId": 163,
        "contract": "contracts/ZeroXBlocksV1.sol:ZeroXBlocksV1",
        "label": "_totalShares",
        "offset": 0,
        "slot": "151",
        "type": "t_uint256"
      },
      {
        "astId": 165,
        "contract": "contracts/ZeroXBlocksV1.sol:ZeroXBlocksV1",
        "label": "_totalReleased",
        "offset": 0,
        "slot": "152",
        "type": "t_uint256"
      },
      {
        "astId": 169,
        "contract": "contracts/ZeroXBlocksV1.sol:ZeroXBlocksV1",
        "label": "_shares",
        "offset": 0,
        "slot": "153",
        "type": "t_mapping(t_address,t_uint256)"
      },
      {
        "astId": 173,
        "contract": "contracts/ZeroXBlocksV1.sol:ZeroXBlocksV1",
        "label": "_released",
        "offset": 0,
        "slot": "154",
        "type": "t_mapping(t_address,t_uint256)"
      },
      {
        "astId": 176,
        "contract": "contracts/ZeroXBlocksV1.sol:ZeroXBlocksV1",
        "label": "_payees",
        "offset": 0,
        "slot": "155",
        "type": "t_array(t_address)dyn_storage"
      },
      {
        "astId": 181,
        "contract": "contracts/ZeroXBlocksV1.sol:ZeroXBlocksV1",
        "label": "_erc20TotalReleased",
        "offset": 0,
        "slot": "156",
        "type": "t_mapping(t_contract(IERC20Upgradeable)1356,t_uint256)"
      },
      {
        "astId": 188,
        "contract": "contracts/ZeroXBlocksV1.sol:ZeroXBlocksV1",
        "label": "_erc20Released",
        "offset": 0,
        "slot": "157",
        "type": "t_mapping(t_contract(IERC20Upgradeable)1356,t_mapping(t_address,t_uint256))"
      },
      {
        "astId": 590,
        "contract": "contracts/ZeroXBlocksV1.sol:ZeroXBlocksV1",
        "label": "__gap",
        "offset": 0,
        "slot": "158",
        "type": "t_array(t_uint256)43_storage"
      },
      {
        "astId": 1910,
        "contract": "contracts/ZeroXBlocksV1.sol:ZeroXBlocksV1",
        "label": "_crm",
        "offset": 0,
        "slot": "201",
        "type": "t_contract(CONTRewardManagement)5931"
      },
      {
        "astId": 1913,
        "contract": "contracts/ZeroXBlocksV1.sol:ZeroXBlocksV1",
        "label": "uniswapV2Router",
        "offset": 0,
        "slot": "202",
        "type": "t_contract(IJoeRouter02)6400"
      },
      {
        "astId": 1918,
        "contract": "contracts/ZeroXBlocksV1.sol:ZeroXBlocksV1",
        "label": "ownedContsLimit",
        "offset": 0,
        "slot": "203",
        "type": "t_uint256"
      },
      {
        "astId": 1920,
        "contract": "contracts/ZeroXBlocksV1.sol:ZeroXBlocksV1",
        "label": "mintContLimit",
        "offset": 0,
        "slot": "204",
        "type": "t_uint256"
      },
      {
        "astId": 1922,
        "contract": "contracts/ZeroXBlocksV1.sol:ZeroXBlocksV1",
        "label": "uniswapV2Pair",
        "offset": 0,
        "slot": "205",
        "type": "t_address"
      },
      {
        "astId": 1924,
        "contract": "contracts/ZeroXBlocksV1.sol:ZeroXBlocksV1",
        "label": "totalTokensPaidForMinting",
        "offset": 0,
        "slot": "206",
        "type": "t_uint256"
      },
      {
        "astId": 1926,
        "contract": "contracts/ZeroXBlocksV1.sol:ZeroXBlocksV1",
        "label": "developmentFundPool",
        "offset": 0,
        "slot": "207",
        "type": "t_address"
      },
      {
        "astId": 1928,
        "contract": "contracts/ZeroXBlocksV1.sol:ZeroXBlocksV1",
        "label": "treasuryPool",
        "offset": 0,
        "slot": "208",
        "type": "t_address"
      },
      {
        "astId": 1930,
        "contract": "contracts/ZeroXBlocksV1.sol:ZeroXBlocksV1",
        "label": "rewardsPool",
        "offset": 0,
        "slot": "209",
        "type": "t_address"
      },
      {
        "astId": 1932,
        "contract": "contracts/ZeroXBlocksV1.sol:ZeroXBlocksV1",
        "label": "liquidityPool",
        "offset": 0,
        "slot": "210",
        "type": "t_address"
      },
      {
        "astId": 1934,
        "contract": "contracts/ZeroXBlocksV1.sol:ZeroXBlocksV1",
        "label": "rewardsFee",
        "offset": 0,
        "slot": "211",
        "type": "t_uint256"
      },
      {
        "astId": 1936,
        "contract": "contracts/ZeroXBlocksV1.sol:ZeroXBlocksV1",
        "label": "treasuryFee",
        "offset": 0,
        "slot": "212",
        "type": "t_uint256"
      },
      {
        "astId": 1938,
        "contract": "contracts/ZeroXBlocksV1.sol:ZeroXBlocksV1",
        "label": "liquidityPoolFee",
        "offset": 0,
        "slot": "213",
        "type": "t_uint256"
      },
      {
        "astId": 1940,
        "contract": "contracts/ZeroXBlocksV1.sol:ZeroXBlocksV1",
        "label": "developmentFee",
        "offset": 0,
        "slot": "214",
        "type": "t_uint256"
      },
      {
        "astId": 1942,
        "contract": "contracts/ZeroXBlocksV1.sol:ZeroXBlocksV1",
        "label": "totalFees",
        "offset": 0,
        "slot": "215",
        "type": "t_uint256"
      },
      {
        "astId": 1944,
        "contract": "contracts/ZeroXBlocksV1.sol:ZeroXBlocksV1",
        "label": "cashoutFee",
        "offset": 0,
        "slot": "216",
        "type": "t_uint256"
      },
      {
        "astId": 1946,
        "contract": "contracts/ZeroXBlocksV1.sol:ZeroXBlocksV1",
        "label": "enableAutoSwapTreasury",
        "offset": 0,
        "slot": "217",
        "type": "t_bool"
      },
      {
        "astId": 1948,
        "contract": "contracts/ZeroXBlocksV1.sol:ZeroXBlocksV1",
        "label": "enableAutoSwapDevFund",
        "offset": 1,
        "slot": "217",
        "type": "t_bool"
      },
      {
        "astId": 1950,
        "contract": "contracts/ZeroXBlocksV1.sol:ZeroXBlocksV1",
        "label": "usdcToken",
        "offset": 2,
        "slot": "217",
        "type": "t_address"
      },
      {
        "astId": 1952,
        "contract": "contracts/ZeroXBlocksV1.sol:ZeroXBlocksV1",
        "label": "antiBotEnabled",
        "offset": 22,
        "slot": "217",
        "type": "t_bool"
      },
      {
        "astId": 1954,
        "contract": "contracts/ZeroXBlocksV1.sol:ZeroXBlocksV1",
        "label": "launchBuyLimit",
        "offset": 0,
        "slot": "218",
        "type": "t_uint256"
      },
      {
        "astId": 1956,
        "contract": "contracts/ZeroXBlocksV1.sol:ZeroXBlocksV1",
        "label": "launchBuyTimeout",
        "offset": 0,
        "slot": "219",
        "type": "t_uint256"
      },
      {
        "astId": 1960,
        "contract": "contracts/ZeroXBlocksV1.sol:ZeroXBlocksV1",
        "label": "_lastBuyOnLaunch",
        "offset": 0,
        "slot": "220",
        "type": "t_mapping(t_address,t_uint256)"
      },
      {
        "astId": 1964,
        "contract": "contracts/ZeroXBlocksV1.sol:ZeroXBlocksV1",
        "label": "_isBlacklisted",
        "offset": 0,
        "slot": "221",
        "type": "t_mapping(t_address,t_bool)"
      },
      {
        "astId": 1968,
        "contract": "contracts/ZeroXBlocksV1.sol:ZeroXBlocksV1",
        "label": "automatedMarketMakerPairs",
        "offset": 0,
        "slot": "222",
        "type": "t_mapping(t_address,t_bool)"
      },
      {
        "astId": 1970,
        "contract": "contracts/ZeroXBlocksV1.sol:ZeroXBlocksV1",
        "label": "enableCashout",
        "offset": 0,
        "slot": "223",
        "type": "t_bool"
      },
      {
        "astId": 1972,
        "contract": "contracts/ZeroXBlocksV1.sol:ZeroXBlocksV1",
        "label": "enableMintConts",
        "offset": 1,
        "slot": "223",
        "type": "t_bool"
      }
    ],
    "types": {
      "t_address": {
        "encoding": "inplace",
        "label": "address",
        "numberOfBytes": "20"
      },
      "t_array(t_address)dyn_storage": {
        "base": "t_address",
        "encoding": "dynamic_array",
        "label": "address[]",
        "numberOfBytes": "32"
      },
      "t_array(t_uint256)43_storage": {
        "base": "t_uint256",
        "encoding": "inplace",
        "label": "uint256[43]",
        "numberOfBytes": "1376"
      },
      "t_array(t_uint256)45_storage": {
        "base": "t_uint256",
        "encoding": "inplace",
        "label": "uint256[45]",
        "numberOfBytes": "1440"
      },
      "t_array(t_uint256)49_storage": {
        "base": "t_uint256",
        "encoding": "inplace",
        "label": "uint256[49]",
        "numberOfBytes": "1568"
      },
      "t_array(t_uint256)50_storage": {
        "base": "t_uint256",
        "encoding": "inplace",
        "label": "uint256[50]",
        "numberOfBytes": "1600"
      },
      "t_bool": {
        "encoding": "inplace",
        "label": "bool",
        "numberOfBytes": "1"
      },
      "t_contract(CONTRewardManagement)5931": {
        "encoding": "inplace",
        "label": "contract CONTRewardManagement",
        "numberOfBytes": "20"
      },
      "t_contract(IERC20Upgradeable)1356": {
        "encoding": "inplace",
        "label": "contract IERC20Upgradeable",
        "numberOfBytes": "20"
      },
      "t_contract(IJoeRouter02)6400": {
        "encoding": "inplace",
        "label": "contract IJoeRouter02",
        "numberOfBytes": "20"
      },
      "t_mapping(t_address,t_bool)": {
        "encoding": "mapping",
        "key": "t_address",
        "label": "mapping(address => bool)",
        "numberOfBytes": "32",
        "value": "t_bool"
      },
      "t_mapping(t_address,t_mapping(t_address,t_uint256))": {
        "encoding": "mapping",
        "key": "t_address",
        "label": "mapping(address => mapping(address => uint256))",
        "numberOfBytes": "32",
        "value": "t_mapping(t_address,t_uint256)"
      },
      "t_mapping(t_address,t_uint256)": {
        "encoding": "mapping",
        "key": "t_address",
        "label": "mapping(address => uint256)",
        "numberOfBytes": "32",
        "value": "t_uint256"
      },
      "t_mapping(t_contract(IERC20Upgradeable)1356,t_mapping(t_address,t_uint256))": {
        "encoding": "mapping",
        "key": "t_contract(IERC20Upgradeable)1356",
        "label": "mapping(contract IERC20Upgradeable => mapping(address => uint256))",
        "numberOfBytes": "32",
        "value": "t_mapping(t_address,t_uint256)"
      },
      "t_mapping(t_contract(IERC20Upgradeable)1356,t_uint256)": {
        "encoding": "mapping",
        "key": "t_contract(IERC20Upgradeable)1356",
        "label": "mapping(contract IERC20Upgradeable => uint256)",
        "numberOfBytes": "32",
        "value": "t_uint256"
      },
      "t_string_storage": {
        "encoding": "bytes",
        "label": "string",
        "numberOfBytes": "32"
      },
      "t_uint256": {
        "encoding": "inplace",
        "label": "uint256",
        "numberOfBytes": "32"
      }
    }
  }
}