{
  "address": "0x646283ee4D497EBd60795576f30fd710F4B318f5",
  "abi": [
    {
      "anonymous": false,
      "inputs": [
        {
          "indexed": false,
          "internalType": "enum ContType",
          "name": "_cType",
          "type": "uint8"
        },
        {
          "indexed": false,
          "internalType": "uint256",
          "name": "delta",
          "type": "uint256"
        }
      ],
      "name": "BreakevenChanged",
      "type": "event"
    },
    {
      "anonymous": false,
      "inputs": [
        {
          "indexed": false,
          "internalType": "enum ContType",
          "name": "_cType",
          "type": "uint8"
        },
        {
          "indexed": false,
          "internalType": "uint256",
          "name": "delta",
          "type": "uint256"
        }
      ],
      "name": "ClaimedRewardAmountChanged",
      "type": "event"
    },
    {
      "anonymous": false,
      "inputs": [
        {
          "indexed": false,
          "internalType": "enum ContType",
          "name": "_cType",
          "type": "uint8"
        },
        {
          "indexed": false,
          "internalType": "uint256",
          "name": "delta",
          "type": "uint256"
        }
      ],
      "name": "TotalTokensReceivedChanged",
      "type": "event"
    },
    {
      "inputs": [
        {
          "internalType": "address",
          "name": "account",
          "type": "address"
        }
      ],
      "name": "_cashoutAllContsReward",
      "outputs": [
        {
          "internalType": "uint256",
          "name": "",
          "type": "uint256"
        }
      ],
      "stateMutability": "nonpayable",
      "type": "function"
    },
    {
      "inputs": [
        {
          "internalType": "address",
          "name": "account",
          "type": "address"
        },
        {
          "internalType": "uint256",
          "name": "_contIndex",
          "type": "uint256"
        }
      ],
      "name": "_cashoutContReward",
      "outputs": [
        {
          "internalType": "uint256",
          "name": "",
          "type": "uint256"
        }
      ],
      "stateMutability": "nonpayable",
      "type": "function"
    },
    {
      "inputs": [
        {
          "internalType": "uint256",
          "name": "newInterval",
          "type": "uint256"
        }
      ],
      "name": "_changeAutoReduceAPRInterval",
      "outputs": [],
      "stateMutability": "nonpayable",
      "type": "function"
    },
    {
      "inputs": [
        {
          "internalType": "uint256",
          "name": "newRate",
          "type": "uint256"
        }
      ],
      "name": "_changeAutoReduceAPRRate",
      "outputs": [],
      "stateMutability": "nonpayable",
      "type": "function"
    },
    {
      "inputs": [
        {
          "internalType": "uint256",
          "name": "newTime",
          "type": "uint256"
        }
      ],
      "name": "_changeCashoutTimeout",
      "outputs": [],
      "stateMutability": "nonpayable",
      "type": "function"
    },
    {
      "inputs": [
        {
          "internalType": "enum ContType",
          "name": "_cType",
          "type": "uint8"
        },
        {
          "internalType": "uint256",
          "name": "newPrice",
          "type": "uint256"
        }
      ],
      "name": "_changeContPrice",
      "outputs": [],
      "stateMutability": "nonpayable",
      "type": "function"
    },
    {
      "inputs": [
        {
          "internalType": "enum ContType",
          "name": "_cType",
          "type": "uint8"
        },
        {
          "internalType": "int256",
          "name": "reducedPercentage",
          "type": "int256"
        }
      ],
      "name": "_changeRewardAPRPerCont",
      "outputs": [],
      "stateMutability": "nonpayable",
      "type": "function"
    },
    {
      "inputs": [
        {
          "internalType": "address",
          "name": "account",
          "type": "address"
        }
      ],
      "name": "_getContNumberOf",
      "outputs": [
        {
          "internalType": "uint256",
          "name": "",
          "type": "uint256"
        }
      ],
      "stateMutability": "view",
      "type": "function"
    },
    {
      "inputs": [
        {
          "internalType": "address",
          "name": "account",
          "type": "address"
        }
      ],
      "name": "_getContsCreationTime",
      "outputs": [
        {
          "internalType": "string",
          "name": "",
          "type": "string"
        }
      ],
      "stateMutability": "view",
      "type": "function"
    },
    {
      "inputs": [
        {
          "internalType": "address",
          "name": "account",
          "type": "address"
        }
      ],
      "name": "_getContsCurrentAPR",
      "outputs": [
        {
          "internalType": "string",
          "name": "",
          "type": "string"
        }
      ],
      "stateMutability": "view",
      "type": "function"
    },
    {
      "inputs": [
        {
          "internalType": "address",
          "name": "account",
          "type": "address"
        }
      ],
      "name": "_getContsInitialAPR",
      "outputs": [
        {
          "internalType": "string",
          "name": "",
          "type": "string"
        }
      ],
      "stateMutability": "view",
      "type": "function"
    },
    {
      "inputs": [
        {
          "internalType": "address",
          "name": "account",
          "type": "address"
        }
      ],
      "name": "_getContsLastUpdateTime",
      "outputs": [
        {
          "internalType": "string",
          "name": "",
          "type": "string"
        }
      ],
      "stateMutability": "view",
      "type": "function"
    },
    {
      "inputs": [
        {
          "internalType": "address",
          "name": "account",
          "type": "address"
        }
      ],
      "name": "_getContsNames",
      "outputs": [
        {
          "internalType": "string",
          "name": "",
          "type": "string"
        }
      ],
      "stateMutability": "view",
      "type": "function"
    },
    {
      "inputs": [
        {
          "internalType": "address",
          "name": "account",
          "type": "address"
        }
      ],
      "name": "_getContsRewardAvailable",
      "outputs": [
        {
          "internalType": "string",
          "name": "",
          "type": "string"
        }
      ],
      "stateMutability": "view",
      "type": "function"
    },
    {
      "inputs": [
        {
          "internalType": "address",
          "name": "account",
          "type": "address"
        }
      ],
      "name": "_getContsTypes",
      "outputs": [
        {
          "internalType": "string",
          "name": "",
          "type": "string"
        }
      ],
      "stateMutability": "view",
      "type": "function"
    },
    {
      "inputs": [
        {
          "internalType": "address",
          "name": "account",
          "type": "address"
        }
      ],
      "name": "_getRewardAmountOf",
      "outputs": [
        {
          "internalType": "uint256",
          "name": "",
          "type": "uint256"
        }
      ],
      "stateMutability": "view",
      "type": "function"
    },
    {
      "inputs": [
        {
          "internalType": "address",
          "name": "account",
          "type": "address"
        },
        {
          "internalType": "uint256",
          "name": "_contIndex",
          "type": "uint256"
        }
      ],
      "name": "_getRewardAmountOfIndex",
      "outputs": [
        {
          "internalType": "uint256",
          "name": "",
          "type": "uint256"
        }
      ],
      "stateMutability": "view",
      "type": "function"
    },
    {
      "inputs": [
        {
          "internalType": "address",
          "name": "account",
          "type": "address"
        }
      ],
      "name": "_isContOwner",
      "outputs": [
        {
          "internalType": "bool",
          "name": "",
          "type": "bool"
        }
      ],
      "stateMutability": "view",
      "type": "function"
    },
    {
      "inputs": [
        {
          "internalType": "enum ContType",
          "name": "_cType",
          "type": "uint8"
        },
        {
          "internalType": "uint256",
          "name": "_initialPrice",
          "type": "uint256"
        }
      ],
      "name": "_resetAllAPRChange",
      "outputs": [],
      "stateMutability": "nonpayable",
      "type": "function"
    },
    {
      "inputs": [
        {
          "internalType": "enum ContType",
          "name": "_cType",
          "type": "uint8"
        }
      ],
      "name": "_undoRewardAPRChange",
      "outputs": [],
      "stateMutability": "nonpayable",
      "type": "function"
    },
    {
      "inputs": [],
      "name": "_updateAdminDashboard",
      "outputs": [],
      "stateMutability": "nonpayable",
      "type": "function"
    },
    {
      "inputs": [],
      "name": "admin0XB",
      "outputs": [
        {
          "internalType": "address",
          "name": "",
          "type": "address"
        }
      ],
      "stateMutability": "view",
      "type": "function"
    },
    {
      "inputs": [],
      "name": "autoReduceAPRInterval",
      "outputs": [
        {
          "internalType": "uint256",
          "name": "",
          "type": "uint256"
        }
      ],
      "stateMutability": "view",
      "type": "function"
    },
    {
      "inputs": [],
      "name": "autoReduceAPRRate",
      "outputs": [
        {
          "internalType": "uint256",
          "name": "",
          "type": "uint256"
        }
      ],
      "stateMutability": "view",
      "type": "function"
    },
    {
      "inputs": [
        {
          "internalType": "enum ContType",
          "name": "_cType",
          "type": "uint8"
        }
      ],
      "name": "breakevenContsPerType",
      "outputs": [
        {
          "internalType": "uint256",
          "name": "",
          "type": "uint256"
        }
      ],
      "stateMutability": "view",
      "type": "function"
    },
    {
      "inputs": [],
      "name": "cashoutTimeout",
      "outputs": [
        {
          "internalType": "uint256",
          "name": "",
          "type": "uint256"
        }
      ],
      "stateMutability": "view",
      "type": "function"
    },
    {
      "inputs": [
        {
          "internalType": "enum ContType",
          "name": "_cType",
          "type": "uint8"
        }
      ],
      "name": "claimedRewardsPerType",
      "outputs": [
        {
          "internalType": "uint256",
          "name": "",
          "type": "uint256"
        }
      ],
      "stateMutability": "view",
      "type": "function"
    },
    {
      "inputs": [
        {
          "internalType": "enum ContType",
          "name": "",
          "type": "uint8"
        }
      ],
      "name": "contPrice",
      "outputs": [
        {
          "internalType": "uint256",
          "name": "",
          "type": "uint256"
        }
      ],
      "stateMutability": "view",
      "type": "function"
    },
    {
      "inputs": [
        {
          "internalType": "address",
          "name": "account",
          "type": "address"
        },
        {
          "internalType": "string[]",
          "name": "contNames",
          "type": "string[]"
        },
        {
          "internalType": "enum ContType",
          "name": "_cType",
          "type": "uint8"
        }
      ],
      "name": "createConts",
      "outputs": [],
      "stateMutability": "nonpayable",
      "type": "function"
    },
    {
      "inputs": [
        {
          "internalType": "enum ContType",
          "name": "_cType",
          "type": "uint8"
        }
      ],
      "name": "currentRewardAPRPerNewCont",
      "outputs": [
        {
          "internalType": "uint256",
          "name": "",
          "type": "uint256"
        }
      ],
      "stateMutability": "view",
      "type": "function"
    },
    {
      "inputs": [
        {
          "internalType": "enum ContType",
          "name": "",
          "type": "uint8"
        }
      ],
      "name": "initRewardAPRPerCont",
      "outputs": [
        {
          "internalType": "uint256",
          "name": "",
          "type": "uint256"
        }
      ],
      "stateMutability": "view",
      "type": "function"
    },
    {
      "inputs": [
        {
          "internalType": "uint256[]",
          "name": "_contPrices",
          "type": "uint256[]"
        },
        {
          "internalType": "uint256[]",
          "name": "_rewardAPRs",
          "type": "uint256[]"
        },
        {
          "internalType": "uint256",
          "name": "_cashoutTimeout",
          "type": "uint256"
        },
        {
          "internalType": "uint256",
          "name": "_autoReduceAPRRate",
          "type": "uint256"
        }
      ],
      "name": "initialize",
      "outputs": [],
      "stateMutability": "nonpayable",
      "type": "function"
    },
    {
      "inputs": [
        {
          "internalType": "address",
          "name": "newAdmin",
          "type": "address"
        }
      ],
      "name": "setAdmin",
      "outputs": [],
      "stateMutability": "nonpayable",
      "type": "function"
    },
    {
      "inputs": [
        {
          "internalType": "address",
          "name": "token_",
          "type": "address"
        }
      ],
      "name": "setToken",
      "outputs": [],
      "stateMutability": "nonpayable",
      "type": "function"
    },
    {
      "inputs": [],
      "name": "token",
      "outputs": [
        {
          "internalType": "address",
          "name": "",
          "type": "address"
        }
      ],
      "stateMutability": "view",
      "type": "function"
    },
    {
      "inputs": [
        {
          "internalType": "enum ContType",
          "name": "_cType",
          "type": "uint8"
        }
      ],
      "name": "tokensReceivedPerType",
      "outputs": [
        {
          "internalType": "uint256",
          "name": "",
          "type": "uint256"
        }
      ],
      "stateMutability": "view",
      "type": "function"
    },
    {
      "inputs": [],
      "name": "totalContsCreated",
      "outputs": [
        {
          "internalType": "uint256",
          "name": "",
          "type": "uint256"
        }
      ],
      "stateMutability": "view",
      "type": "function"
    },
    {
      "inputs": [
        {
          "internalType": "enum ContType",
          "name": "_cType",
          "type": "uint8"
        }
      ],
      "name": "totalContsPerType",
      "outputs": [
        {
          "internalType": "uint256",
          "name": "",
          "type": "uint256"
        }
      ],
      "stateMutability": "view",
      "type": "function"
    }
  ],
  "transactionHash": "0x9aaea8d4d9636b9734041712977629985d4c0008e83f594833233566603ad8c9",
  "args": [],
  "numDeployments": 6,
  "solcInputHash": "289f45fe596067bc14e16eac55483e81",
  "bytecode": "0x608060405234801561001057600080fd5b506140f1806100206000396000f3fe608060405234801561001057600080fd5b50600436106102315760003560e01c8063619a635e116101305780638bf14514116100b8578063c2202b661161007c578063c2202b66146104e4578063d094fa8d146104f7578063e18f03ad1461050a578063f743f31914610513578063fc0c546a1461052657600080fd5b80638bf145141461049957806393520a80146104ac5780639b28d1a7146104b55780639d2040f0146104be5780639f227c53146104d157600080fd5b8063704b6c02116100ff578063704b6c02146104225780637091d1081461043557806377ec7826146104485780638201bf261461045b578063872a60ad1461046e57600080fd5b8063619a635e146103b957806363a9b098146103cc578063665bb078146103ec5780636eb5a7f41461040f57600080fd5b80631d5a1731116101be57806344fea1b91161018257806344fea1b9146103575780634f88de011461036a57806351bf120c1461038a57806355a757d01461039d5780635dbab6ed146103a657600080fd5b80631d5a1731146102eb57806328cceb24146102fe578063367fd0741461031e578063390c991e146103315780633bf20e601461034457600080fd5b80630d9f9f0c116102055780630d9f9f0c14610297578063144fa6d7146102aa578063150bf591146102bd5780631565f50e146102c55780631c3b4adb146102d857600080fd5b8062c73e4d146102365780630534cc681461025c5780630835209f146102715780630b9f6cfe14610284575b600080fd5b610249610244366004613d20565b610539565b6040519081526020015b60405180910390f35b61026f61026a366004613b57565b610639565b005b61024961027f366004613d20565b6108f1565b610249610292366004613c82565b610930565b61026f6102a5366004613d57565b610b16565b61026f6102b8366004613b3c565b610b5a565b61026f610c00565b61026f6102d3366004613d57565b611240565b6102496102e6366004613d20565b611284565b61026f6102f9366004613d3b565b61129c565b61031161030c366004613b3c565b611318565b6040516102539190613e17565b61031161032c366004613b3c565b611560565b61026f61033f366004613d57565b6117cf565b610249610352366004613d20565b611813565b610249610365366004613b3c565b61182b565b610249610378366004613d20565b60076020526000908152604090205481565b610311610398366004613b3c565b611849565b61024960095481565b6103116103b4366004613b3c565b611a85565b6102496103c7366004613b3c565b611cc1565b6102496103da366004613d20565b60066020526000908152604090205481565b6103ff6103fa366004613b3c565b611e99565b6040519015158152602001610253565b61026f61041d366004613cac565b611ea4565b61026f610430366004613b3c565b61217c565b610249610443366004613d20565b612222565b610311610456366004613b3c565b61223a565b61026f610469366004613d20565b612474565b600c54610481906001600160a01b031681565b6040516001600160a01b039091168152602001610253565b6103116104a7366004613b3c565b6125b5565b610249600b5481565b610249600a5481565b61026f6104cc366004613d3b565b612809565b61026f6104df366004613d3b565b61291e565b6102496104f2366004613c82565b612aa7565b610249610505366004613b3c565b612d08565b610249600e5481565b610311610521366004613b3c565b613002565b600d54610481906001600160a01b031681565b600080600860008460028111156105525761055261408c565b60028111156105635761056361408c565b815260200190815260200160002080549050905060006007600085600281111561058f5761058f61408c565b60028111156105a0576105a061408c565b815260200190815260200160002054905060005b828110156106315761061d82600860008860028111156105d6576105d661408c565b60028111156105e7576105e761408c565b81526020019081526020016000208381548110610606576106066140b8565b906000526020600020906002020160010154613237565b9150806106298161401d565b9150506105b4565b509392505050565b600d546001600160a01b031633148061065c5750600c546001600160a01b031633145b6106815760405162461bcd60e51b815260040161067890613e4a565b60405180910390fd5b6001600160a01b0383166000908152600560205260405162c73e4d60e01b8152309062c73e4d906106b6908590600401613dee565b60206040518083038186803b1580156106ce57600080fd5b505afa1580156106e2573d6000803e3d6000fd5b505050506040513d601f19601f820116820180604052508101906107069190613d70565b905060005b83518110156108605760056000866001600160a01b03166001600160a01b031681526020019081526020016000206040518060c00160405280868481518110610756576107566140b8565b602002602001015181526020014281526020014281526020018481526020016006600087600281111561078b5761078b61408c565b600281111561079c5761079c61408c565b81526020019081526020016000205481526020018560028111156107c2576107c261408c565b9052815460018101835560009283526020928390208251805193946006909302909101926107f39284920190613986565b506020820151816001015560408201518160020155606082015181600301556080820151816004015560a08201518160050160006101000a81548160ff021916908360028111156108465761084661408c565b0217905550505080806108589061401d565b91505061070b565b506001600160a01b03841660009081526005602052604090205461088890600190869061326b565b8251600e600082825461089b9190613ec7565b90915550508251600f60008460028111156108b8576108b861408c565b60028111156108c9576108c961408c565b815260200190815260200160002060008282546108e69190613ec7565b909155505050505050565b6000601060008360028111156109095761090961408c565b600281111561091a5761091a61408c565b8152602001908152602001600020549050919050565b6001600160a01b038216600090815260056020908152604080832080548251818502810185019093528083528493849084015b82821015610a8257838290600052602060002090600602016040518060c001604052908160008201805461099690613fe2565b80601f01602080910402602001604051908101604052809291908181526020018280546109c290613fe2565b8015610a0f5780601f106109e457610100808354040283529160200191610a0f565b820191906000526020600020905b8154815290600101906020018083116109f257829003601f168201915b50505091835250506001820154602082015260028083015460408301526003830154606083015260048301546080830152600583015460a09092019160ff1690811115610a5e57610a5e61408c565b6002811115610a6f57610a6f61408c565b8152505081526020019060010190610963565b505082519293505050808410610ada5760405162461bcd60e51b815260206004820152601c60248201527f434f4e543a20436f6e7420696e64657820697320696d70726f706572000000006044820152606401610678565b6000828581518110610aee57610aee6140b8565b602002602001015190506000610b0982836040015142613314565b9450505050505b92915050565b600d546001600160a01b0316331480610b395750600c546001600160a01b031633145b610b555760405162461bcd60e51b815260040161067890613e4a565b600b55565b600d546001600160a01b0316331480610b7d5750600c546001600160a01b031633145b610b995760405162461bcd60e51b815260040161067890613e4a565b6001600160a01b038116610bde5760405162461bcd60e51b815260206004820152600c60248201526b7a65726f206164647265737360a01b6044820152606401610678565b600d80546001600160a01b0319166001600160a01b0392909216919091179055565b60408051606080820183526000808352602080840182905283850182905284518084018652828152808201839052808601839052855193840186528284529083018290529382018190529290835b6001548167ffffffffffffffff161015610ee7576000610c79600167ffffffffffffffff8416613642565b905060005b6001600160a01b03821660009081526005602052604090205463ffffffff82161015610ed2576001600160a01b0382166000908152600560205260408120805463ffffffff8416908110610cd457610cd46140b8565b90600052602060002090600602016040518060c0016040529081600082018054610cfd90613fe2565b80601f0160208091040260200160405190810160405280929190818152602001828054610d2990613fe2565b8015610d765780601f10610d4b57610100808354040283529160200191610d76565b820191906000526020600020905b815481529060010190602001808311610d5957829003601f168201915b50505091835250506001820154602082015260028083015460408301526003830154606083015260048301546080830152600583015460a09092019160ff1690811115610dc557610dc561408c565b6002811115610dd657610dd661408c565b9052506020810151909150610dec828242613314565b826080015111610e3157878260a001516002811115610e0d57610e0d61408c565b60038110610e1d57610e1d6140b8565b60200201805190610e2d8261401d565b9052505b610e4082828460400151613314565b878360a001516002811115610e5757610e5761408c565b60038110610e6757610e676140b8565b60200201818151610e789190613ec7565b905250608082015160a083015187906002811115610e9857610e9861408c565b60038110610ea857610ea86140b8565b60200201818151610eb99190613ec7565b905250829150610eca905081614038565b915050610c7e565b50508080610edf9061405c565b915050610c4e565b5060005b6003811015611239577f973cb5e7d2831babd05fc3de4db9926ae3b4301b00c92c3542e0771ea471b0fd816002811115610f2757610f2761408c565b60106000846002811115610f3d57610f3d61408c565b6002811115610f4e57610f4e61408c565b6002811115610f5f57610f5f61408c565b815260200190815260200160002054868460038110610f8057610f806140b8565b6020020151610f8f9190613f84565b604051610f9d929190613dfc565b60405180910390a1838160038110610fb757610fb76140b8565b602002015160106000836002811115610fd257610fd261408c565b6002811115610fe357610fe361408c565b6002811115610ff457610ff461408c565b81526020810191909152604001600020557f273593302e70c196e9b622b7f46a08f2515e97ddb84269488c31af22bcb247e68160028111156110385761103861408c565b6011600084600281111561104e5761104e61408c565b600281111561105f5761105f61408c565b60028111156110705761107061408c565b815260200190815260200160002054858460038110611091576110916140b8565b60200201516110a09190613f84565b6040516110ae929190613dfc565b60405180910390a18281600381106110c8576110c86140b8565b6020020151601160008360028111156110e3576110e361408c565b60028111156110f4576110f461408c565b60028111156111055761110561408c565b81526020810191909152604001600020557f6b4926355b06df322a026ad3c2a1bab995de255df07aee3ce05ceccfe8599c358160028111156111495761114961408c565b6012600084600281111561115f5761115f61408c565b60028111156111705761117061408c565b60028111156111815761118161408c565b8152602001908152602001600020548484600381106111a2576111a26140b8565b60200201516111b19190613f84565b6040516111bf929190613dfc565b60405180910390a18181600381106111d9576111d96140b8565b6020020151601260008360028111156111f4576111f461408c565b60028111156112055761120561408c565b60028111156112165761121661408c565b8152602081019190915260400160002055806112318161401d565b915050610eeb565b5050505050565b600d546001600160a01b03163314806112635750600c546001600160a01b031633145b61127f5760405162461bcd60e51b815260040161067890613e4a565b600a55565b6000601260008360028111156109095761090961408c565b600d546001600160a01b03163314806112bf5750600c546001600160a01b031633145b6112db5760405162461bcd60e51b815260040161067890613e4a565b80600660008460028111156112f2576112f261408c565b60028111156113035761130361408c565b81526020810191909152604001600020555050565b606061132382613675565b61133b57505060408051602081019091526000815290565b6001600160a01b038216600090815260056020908152604080832080548251818502810185019093528083529192909190849084015b8282101561149057838290600052602060002090600602016040518060c00160405290816000820180546113a490613fe2565b80601f01602080910402602001604051908101604052809291908181526020018280546113d090613fe2565b801561141d5780601f106113f25761010080835404028352916020019161141d565b820191906000526020600020905b81548152906001019060200180831161140057829003601f168201915b50505091835250506001820154602082015260028083015460408301526003830154606083015260048301546080830152600583015460a09092019160ff169081111561146c5761146c61408c565b600281111561147d5761147d61408c565b8152505081526020019060010190611371565b5050505090506000815190506114a4613a0a565b60006114cd846000815181106114bc576114bc6140b8565b602002602001015160200151613692565b604080518082019091526001808252602360f81b6020830152919250905b8481101561155457858181518110611505576115056140b8565b60200260200101519350828261151e8660200151613692565b60405160200161153093929190613dab565b6040516020818303038152906040529250808061154c9061401d565b9150506114eb565b50909695505050505050565b606061156b82613675565b61158357505060408051602081019091526000815290565b6001600160a01b038216600090815260056020908152604080832080548251818502810185019093528083529192909190849084015b828210156116d857838290600052602060002090600602016040518060c00160405290816000820180546115ec90613fe2565b80601f016020809104026020016040519081016040528092919081815260200182805461161890613fe2565b80156116655780601f1061163a57610100808354040283529160200191611665565b820191906000526020600020905b81548152906001019060200180831161164857829003601f168201915b50505091835250506001820154602082015260028083015460408301526003830154606083015260048301546080830152600583015460a09092019160ff16908111156116b4576116b461408c565b60028111156116c5576116c561408c565b81525050815260200190600101906115b9565b505082519293504291506000905061172d6117288583866116fb576116fb6140b8565b602002602001015186600081518110611716576117166140b8565b60200260200101516040015185613314565b613692565b604080518082019091526001808252602360f81b6020830152919250905b8481101561155457828261179961172889858151811061176d5761176d6140b8565b60200260200101518a8681518110611787576117876140b8565b60200260200101516040015189613314565b6040516020016117ab93929190613dab565b604051602081830303815290604052925080806117c79061401d565b91505061174b565b600d546001600160a01b03163314806117f25750600c546001600160a01b031633145b61180e5760405162461bcd60e51b815260040161067890613e4a565b600955565b6000600f60008360028111156109095761090961408c565b6001600160a01b038116600090815260026020526040812054610b10565b606061185482613675565b61186c57505060408051602081019091526000815290565b6001600160a01b038216600090815260056020908152604080832080548251818502810185019093528083529192909190849084015b828210156119c157838290600052602060002090600602016040518060c00160405290816000820180546118d590613fe2565b80601f016020809104026020016040519081016040528092919081815260200182805461190190613fe2565b801561194e5780601f106119235761010080835404028352916020019161194e565b820191906000526020600020905b81548152906001019060200180831161193157829003601f168201915b50505091835250506001820154602082015260028083015460408301526003830154606083015260048301546080830152600583015460a09092019160ff169081111561199d5761199d61408c565b60028111156119ae576119ae61408c565b81525050815260200190600101906118a2565b5050505090506000815190506119d5613a0a565b60006119fe846000815181106119ed576119ed6140b8565b602002602001015160400151613692565b604080518082019091526001808252602360f81b6020830152919250905b8481101561155457858181518110611a3657611a366140b8565b602002602001015193508282611a4f8660400151613692565b604051602001611a6193929190613dab565b60405160208183030381529060405292508080611a7d9061401d565b915050611a1c565b6060611a9082613675565b611aa857505060408051602081019091526000815290565b6001600160a01b038216600090815260056020908152604080832080548251818502810185019093528083529192909190849084015b82821015611bfd57838290600052602060002090600602016040518060c0016040529081600082018054611b1190613fe2565b80601f0160208091040260200160405190810160405280929190818152602001828054611b3d90613fe2565b8015611b8a5780601f10611b5f57610100808354040283529160200191611b8a565b820191906000526020600020905b815481529060010190602001808311611b6d57829003601f168201915b50505091835250506001820154602082015260028083015460408301526003830154606083015260048301546080830152600583015460a09092019160ff1690811115611bd957611bd961408c565b6002811115611bea57611bea61408c565b8152505081526020019060010190611ade565b505050509050600081519050611c11613a0a565b6000611c3a84600081518110611c2957611c296140b8565b602002602001015160600151613692565b604080518082019091526001808252602360f81b6020830152919250905b8481101561155457858181518110611c7257611c726140b8565b602002602001015193508282611c8b8660600151613692565b604051602001611c9d93929190613dab565b60405160208183030381529060405292508080611cb99061401d565b915050611c58565b6000611ccc82613675565b611cd857506000919050565b6001600160a01b038216600090815260056020908152604080832080548251818502810185019093528083528493849084015b82821015611e2a57838290600052602060002090600602016040518060c0016040529081600082018054611d3e90613fe2565b80601f0160208091040260200160405190810160405280929190818152602001828054611d6a90613fe2565b8015611db75780601f10611d8c57610100808354040283529160200191611db7565b820191906000526020600020905b815481529060010190602001808311611d9a57829003601f168201915b50505091835250506001820154602082015260028083015460408301526003830154606083015260048301546080830152600583015460a09092019160ff1690811115611e0657611e0661408c565b6002811115611e1757611e1761408c565b8152505081526020019060010190611d0b565b50508251929350429150600090505b82811015611e8e576000848281518110611e5557611e556140b8565b60200260200101519050611e6e81826040015185613314565b611e789087613ec7565b9550508080611e869061401d565b915050611e39565b509295945050505050565b6000610b1082613675565b600054610100900460ff16611ebf5760005460ff1615611ec3565b303b155b611f265760405162461bcd60e51b815260206004820152602e60248201527f496e697469616c697a61626c653a20636f6e747261637420697320616c72656160448201526d191e481a5b9a5d1a585b1a5e995960921b6064820152608401610678565b600054610100900460ff16158015611f48576000805461ffff19166101011790555b6301e13380600a556000600e81905542905b600381101561214657868181518110611f7557611f756140b8565b602002602001015160066000836002811115611f9357611f9361408c565b6002811115611fa457611fa461408c565b6002811115611fb557611fb561408c565b815260200190815260200160002081905550858181518110611fd957611fd96140b8565b602002602001015160076000836002811115611ff757611ff761408c565b60028111156120085761200861408c565b60028111156120195761201961408c565b8152602001908152602001600020819055506000600f60008360028111156120435761204361408c565b60028111156120545761205461408c565b60028111156120655761206561408c565b8152602001908152602001600020819055506008600082600281111561208d5761208d61408c565b600281111561209e5761209e61408c565b60028111156120af576120af61408c565b815260200152600860008260028111156120cb576120cb61408c565b60028111156120dc576120dc61408c565b60028111156120ed576120ed61408c565b81526020808201929092526040908101600090812082518084019093528583528284018281528154600181810184559284529490922092516002909402909201928355519101558061213e8161401d565b915050611f5a565b50506009839055600c80546001600160a01b03191633179055600b8290558015611239576000805461ff00191690555050505050565b600d546001600160a01b031633148061219f5750600c546001600160a01b031633145b6121bb5760405162461bcd60e51b815260040161067890613e4a565b6001600160a01b0381166122005760405162461bcd60e51b815260206004820152600c60248201526b7a65726f206164647265737360a01b6044820152606401610678565b600c80546001600160a01b0319166001600160a01b0392909216919091179055565b6000601160008360028111156109095761090961408c565b606061224582613675565b61225d57505060408051602081019091526000815290565b6001600160a01b038216600090815260056020908152604080832080548251818502810185019093528083529192909190849084015b828210156123b257838290600052602060002090600602016040518060c00160405290816000820180546122c690613fe2565b80601f01602080910402602001604051908101604052809291908181526020018280546122f290613fe2565b801561233f5780601f106123145761010080835404028352916020019161233f565b820191906000526020600020905b81548152906001019060200180831161232257829003601f168201915b50505091835250506001820154602082015260028083015460408301526003830154606083015260048301546080830152600583015460a09092019160ff169081111561238e5761238e61408c565b600281111561239f5761239f61408c565b8152505081526020019060010190612293565b5050505090506000815190506123c6613a0a565b60006123ee611728856000815181106123e1576123e16140b8565b60200260200101516137bb565b604080518082019091526001808252602360f81b6020830152919250905b8481101561155457858181518110612426576124266140b8565b60200260200101519350828261243e611728876137bb565b60405160200161245093929190613dab565b6040516020818303038152906040529250808061246c9061401d565b91505061240c565b600d546001600160a01b03163314806124975750600c546001600160a01b031633145b6124b35760405162461bcd60e51b815260040161067890613e4a565b6000600860008360028111156124cb576124cb61408c565b60028111156124dc576124dc61408c565b815260208101919091526040016000205490506001811161254f5760405162461bcd60e51b815260206004820152602760248201527f554e444f204348414e47453a204e6f206368616e67657320666f756e6420666f6044820152667220635479706560c81b6064820152608401610678565b600860008360028111156125655761256561408c565b60028111156125765761257661408c565b8152602001908152602001600020805480612593576125936140a2565b6000828152602081206002600019909301928302018181556001015590555050565b60606125c082613675565b6125d857505060408051602081019091526000815290565b6001600160a01b038216600090815260056020908152604080832080548251818502810185019093528083529192909190849084015b8282101561272d57838290600052602060002090600602016040518060c001604052908160008201805461264190613fe2565b80601f016020809104026020016040519081016040528092919081815260200182805461266d90613fe2565b80156126ba5780601f1061268f576101008083540402835291602001916126ba565b820191906000526020600020905b81548152906001019060200180831161269d57829003601f168201915b50505091835250506001820154602082015260028083015460408301526003830154606083015260048301546080830152600583015460a09092019160ff16908111156127095761270961408c565b600281111561271a5761271a61408c565b815250508152602001906001019061260e565b505050509050600081519050612741613a0a565b600061277684600081518110612759576127596140b8565b602002602001015160a0015160028111156117285761172861408c565b604080518082019091526001808252602360f81b6020830152919250905b84811015611554578581815181106127ae576127ae6140b8565b6020026020010151935082826127d38660a0015160028111156117285761172861408c565b6040516020016127e593929190613dab565b604051602081830303815290604052925080806128019061401d565b915050612794565b600d546001600160a01b031633148061282c5750600c546001600160a01b031633145b6128485760405162461bcd60e51b815260040161067890613e4a565b6305f5e10081126128ac5760405162461bcd60e51b815260206004820152602860248201527f5245445543455f5257443a20646f206e6f7420726564756365206d6f7265207460448201526768616e203130302560c01b6064820152608401610678565b600860008360028111156128c2576128c261408c565b60028111156128d3576128d361408c565b81526020808201929092526040908101600090812082518084019093524283528284019485528054600181810183559183529390912091516002909302909101918255915191015550565b600d546001600160a01b03163314806129415750600c546001600160a01b031633145b61295d5760405162461bcd60e51b815260040161067890613e4a565b80600760008460028111156129745761297461408c565b60028111156129855761298561408c565b8152602001908152602001600020819055506000600860008460028111156129af576129af61408c565b60028111156129c0576129c061408c565b81526020019081526020016000206000815481106129e0576129e06140b8565b906000526020600020906002020160000154905060086000846002811115612a0a57612a0a61408c565b6002811115612a1b57612a1b61408c565b81526020019081526020016000206000612a359190613a50565b60086000846002811115612a4b57612a4b61408c565b6002811115612a5c57612a5c61408c565b81526020808201929092526040908101600090812082518084019093529382528183018181528454600181810187559583529390912091516002909302909101918255519101555050565b600d546000906001600160a01b0316331480612acd5750600c546001600160a01b031633145b612ae95760405162461bcd60e51b815260040161067890613e4a565b6001600160a01b038316600090815260056020526040902080548310612b455760405162461bcd60e51b815260206004820152601160248201527021a7a72a1d1024b73232bc1022b93937b960791b6044820152606401610678565b6000818481548110612b5957612b596140b8565b90600052602060002090600602019050612b7681600201546137c7565b612be85760405162461bcd60e51b815260206004820152603a60248201527f434153484f5554204552524f523a20596f75206861766520746f20776169742060448201527f6265666f726520636c61696d696e67207468697320636f6e742e0000000000006064820152608401610678565b60004290506000612cf5836040518060c0016040529081600082018054612c0e90613fe2565b80601f0160208091040260200160405190810160405280929190818152602001828054612c3a90613fe2565b8015612c875780601f10612c5c57610100808354040283529160200191612c87565b820191906000526020600020905b815481529060010190602001808311612c6a57829003601f168201915b50505091835250506001820154602082015260028083015460408301526003830154606083015260048301546080830152600583015460a09092019160ff1690811115612cd657612cd661408c565b6002811115612ce757612ce761408c565b905250600285015484613314565b6002909301919091555091505092915050565b600d546000906001600160a01b0316331480612d2e5750600c546001600160a01b031633145b612d4a5760405162461bcd60e51b815260040161067890613e4a565b6001600160a01b0382166000908152600560205260409020805480612dc95760405162461bcd60e51b815260206004820152602f60248201527f434153484f5554204552524f523a20596f7520646f6e2774206861766520636f60448201526e1b9d1cc81d1bc818d85cda0b5bdd5d608a1b6064820152608401610678565b6000804281805b85811015612e1f576000878281548110612dec57612dec6140b8565b906000526020600020906006020160020154905082811115612e0c578092505b5080612e178161401d565b915050612dd0565b50612e29816137c7565b612e9b5760405162461bcd60e51b815260206004820152603a60248201527f434153484f5554204552524f523a20596f75206861766520746f20776169742060448201527f6265666f726520636c61696d696e6720616c6c20636f6e74732e0000000000006064820152608401610678565b60005b85811015612ff357868181548110612eb857612eb86140b8565b90600052602060002090600602019450612fce856040518060c0016040529081600082018054612ee790613fe2565b80601f0160208091040260200160405190810160405280929190818152602001828054612f1390613fe2565b8015612f605780601f10612f3557610100808354040283529160200191612f60565b820191906000526020600020905b815481529060010190602001808311612f4357829003601f168201915b50505091835250506001820154602082015260028083015460408301526003830154606083015260048301546080830152600583015460a09092019160ff1690811115612faf57612faf61408c565b6002811115612fc057612fc061408c565b905250600287015485613314565b612fd89085613ec7565b60028601849055935080612feb8161401d565b915050612e9e565b5091955050505050505b919050565b606061300d82613675565b61302557505060408051602081019091526000815290565b6001600160a01b038216600090815260056020908152604080832080548251818502810185019093528083529192909190849084015b8282101561317a57838290600052602060002090600602016040518060c001604052908160008201805461308e90613fe2565b80601f01602080910402602001604051908101604052809291908181526020018280546130ba90613fe2565b80156131075780601f106130dc57610100808354040283529160200191613107565b820191906000526020600020905b8154815290600101906020018083116130ea57829003601f168201915b50505091835250506001820154602082015260028083015460408301526003830154606083015260048301546080830152600583015460a09092019160ff16908111156131565761315661408c565b60028111156131675761316761408c565b815250508152602001906001019061305b565b50505050905060008151905061318e613a0a565b6000836000815181106131a3576131a36140b8565b60200260200101516000015190506000604051806040016040528060018152602001602360f81b81525090506000600190505b84811015611554578581815181106131f0576131f06140b8565b602002602001015193508282856000015160405160200161321393929190613dab565b6040516020818303038152906040529250808061322f9061401d565b9150506131d6565b600080613248836305f5e100613f45565b90506305f5e1006132598286613f26565b6132639190613f04565b949350505050565b6001600160a01b038216600090815260038401602052604090205460ff16156132b0576001600160a01b03821660009081526001840160205260409020819055505050565b6001600160a01b03821660008181526003850160209081526040808320805460ff19166001908117909155878101835281842086905587546002890184529184208290558101875586835291200180546001600160a01b0319169091179055505050565b60008183111561335d5760405162461bcd60e51b815260206004820152601460248201527377726f6e6720747374616d707320706172616d7360601b6044820152606401610678565b83602001518310156133a45760405162461bcd60e51b815260206004820152601060248201526f1b19599d081d1cdd185b5c1cc818985960821b6044820152606401610678565b60a084015160006133b582866137e0565b608087015190915060006133c988886138bb565b6020890151909150879060009081908190819081895b600860008d60028111156133f5576133f561408c565b60028111156134065761340661408c565b815260208101919091526040016000205481101561356b57600860008d60028111156134345761343461408c565b60028111156134455761344561408c565b81526020019081526020016000208181548110613464576134646140b8565b90600052602060002090600202016000015496506134828884613965565b61348c8885613965565b14801592506134c45761349f8884613965565b6134aa906001613ec7565b600a546134b79190613f26565b6134c19084613ec7565b96505b6134ce8888613f84565b94506301e13380856305f5e1006134e58c8e613f26565b6134ef9190613f04565b6134f99190613f26565b6135039190613f04565b935086975083866135149190613ec7565b9550811561353c5761352889600b54613237565b98508061353481613fcb565b915050613559565b61355689600860008f60028111156105d6576105d661408c565b98505b806135638161401d565b9150506133df565b505b8c871461362f578c95506135818783613965565b61358b8784613965565b14801591506135c35761359e8783613965565b6135a9906001613ec7565b600a546135b69190613f26565b6135c09083613ec7565b95505b6135cd8787613f84565b93506301e13380846305f5e1006135e48b8d613f26565b6135ee9190613f04565b6135f89190613f26565b6136029190613f04565b925085965082856136139190613ec7565b9450801561362a5761362788600b54613237565b97505b61356d565b50929d9c50505050505050505050505050565b6000826000018281548110613659576136596140b8565b6000918252602090912001546001600160a01b03169392505050565b6001600160a01b0316600090815260026020526040902054151590565b6060816136b65750506040805180820190915260018152600360fc1b602082015290565b8160005b81156136e057806136ca8161401d565b91506136d99050600a83613f04565b91506136ba565b60008167ffffffffffffffff8111156136fb576136fb6140ce565b6040519080825280601f01601f191660200182016040528015613725576020820181803683370190505b509050815b85156137b25761373b600182613f84565b9050600061374a600a88613f04565b61375590600a613f26565b61375f9088613f84565b61376a906030613edf565b905060008160f81b905080848481518110613787576137876140b8565b60200101906001600160f81b031916908160001a9053506137a9600a89613f04565b9750505061372a565b50949350505050565b6000610b1082426138bb565b600042600954836137d89190613ec7565b111592915050565b600080806008818660028111156137f9576137f961408c565b600281111561380a5761380a61408c565b815260208101919091526040016000205490505b8181111561063157600060026138348385613ec7565b61383e9190613f04565b905084600860008860028111156138575761385761408c565b60028111156138685761386861408c565b81526020019081526020016000208281548110613887576138876140b8565b90600052602060002090600202016000015410156138b1576138aa816001613ec7565b92506138b5565b8091505b5061381e565b602082015160a083015160608401516000929190836138da83856137e0565b905060006138e884886137e0565b9050815b818110156139225761390e84600860008860028111156105d6576105d661408c565b93508061391a8161401d565b9150506138ec565b50600061392f8887613965565b90505b8015613958578061394281613fcb565b91505061395184600b54613237565b9350613932565b5091979650505050505050565b600a546000906139758385613f84565b61397f9190613f04565b9392505050565b82805461399290613fe2565b90600052602060002090601f0160209004810192826139b457600085556139fa565b82601f106139cd57805160ff19168380011785556139fa565b828001600101855582156139fa579182015b828111156139fa5782518255916020019190600101906139df565b50613a06929150613a74565b5090565b6040518060c00160405280606081526020016000815260200160008152602001600081526020016000815260200160006002811115613a4b57613a4b61408c565b905290565b5080546000825560020290600052602060002090810190613a719190613a89565b50565b5b80821115613a065760008155600101613a75565b5b80821115613a065760008082556001820155600201613a8a565b80356001600160a01b0381168114612ffd57600080fd5b600082601f830112613acc57600080fd5b81356020613ae1613adc83613ea3565b613e72565b80838252828201915082860187848660051b8901011115613b0157600080fd5b60005b85811015613b2057813584529284019290840190600101613b04565b5090979650505050505050565b803560038110612ffd57600080fd5b600060208284031215613b4e57600080fd5b61397f82613aa4565b600080600060608486031215613b6c57600080fd5b613b7584613aa4565b925060208085013567ffffffffffffffff80821115613b9357600080fd5b818701915087601f830112613ba757600080fd5b8135613bb5613adc82613ea3565b8082825285820191508585018b878560051b8801011115613bd557600080fd5b60005b84811015613c6257813586811115613bef57600080fd5b8701603f81018e13613c0057600080fd5b8881013587811115613c1457613c146140ce565b613c26601f8201601f19168b01613e72565b8181528f6040838501011115613c3b57600080fd5b81604084018c83013760009181018b01919091528552509287019290870190600101613bd8565b5050809750505050505050613c7960408501613b2d565b90509250925092565b60008060408385031215613c9557600080fd5b613c9e83613aa4565b946020939093013593505050565b60008060008060808587031215613cc257600080fd5b843567ffffffffffffffff80821115613cda57600080fd5b613ce688838901613abb565b95506020870135915080821115613cfc57600080fd5b50613d0987828801613abb565b949794965050505060408301359260600135919050565b600060208284031215613d3257600080fd5b61397f82613b2d565b60008060408385031215613d4e57600080fd5b613c9e83613b2d565b600060208284031215613d6957600080fd5b5035919050565b600060208284031215613d8257600080fd5b5051919050565b60038110613da757634e487b7160e01b600052602160045260246000fd5b9052565b60008451613dbd818460208901613f9b565b845190830190613dd1818360208901613f9b565b8451910190613de4818360208801613f9b565b0195945050505050565b60208101610b108284613d89565b60408101613e0a8285613d89565b8260208301529392505050565b6020815260008251806020840152613e36816040850160208701613f9b565b601f01601f19169190910160400192915050565b6020808252600e908201526d4163636573732044656e6965642160901b604082015260600190565b604051601f8201601f1916810167ffffffffffffffff81118282101715613e9b57613e9b6140ce565b604052919050565b600067ffffffffffffffff821115613ebd57613ebd6140ce565b5060051b60200190565b60008219821115613eda57613eda614076565b500190565b600060ff821660ff84168060ff03821115613efc57613efc614076565b019392505050565b600082613f2157634e487b7160e01b600052601260045260246000fd5b500490565b6000816000190483118215151615613f4057613f40614076565b500290565b60008083128015600160ff1b850184121615613f6357613f63614076565b6001600160ff1b0384018313811615613f7e57613f7e614076565b50500390565b600082821015613f9657613f96614076565b500390565b60005b83811015613fb6578181015183820152602001613f9e565b83811115613fc5576000848401525b50505050565b600081613fda57613fda614076565b506000190190565b600181811c90821680613ff657607f821691505b6020821081141561401757634e487b7160e01b600052602260045260246000fd5b50919050565b600060001982141561403157614031614076565b5060010190565b600063ffffffff8083168181141561405257614052614076565b6001019392505050565b600067ffffffffffffffff80831681811415614052576140525b634e487b7160e01b600052601160045260246000fd5b634e487b7160e01b600052602160045260246000fd5b634e487b7160e01b600052603160045260246000fd5b634e487b7160e01b600052603260045260246000fd5b634e487b7160e01b600052604160045260246000fdfea164736f6c6343000807000a",
  "devdoc": {
    "kind": "dev",
    "methods": {},
    "version": 1
  },
  "userdoc": {
    "kind": "user",
    "methods": {},
    "version": 1
  },
  "storageLayout": {
    "storage": [
      {
        "astId": 598,
        "contract": "contracts/dependencies/CONTRewardManagement.sol:CONTRewardManagement",
        "label": "_initialized",
        "offset": 0,
        "slot": "0",
        "type": "t_bool"
      },
      {
        "astId": 601,
        "contract": "contracts/dependencies/CONTRewardManagement.sol:CONTRewardManagement",
        "label": "_initializing",
        "offset": 1,
        "slot": "0",
        "type": "t_bool"
      },
      {
        "astId": 4288,
        "contract": "contracts/dependencies/CONTRewardManagement.sol:CONTRewardManagement",
        "label": "contOwners",
        "offset": 0,
        "slot": "1",
        "type": "t_struct(Map)8448_storage"
      },
      {
        "astId": 4294,
        "contract": "contracts/dependencies/CONTRewardManagement.sol:CONTRewardManagement",
        "label": "_contsOfUser",
        "offset": 0,
        "slot": "5",
        "type": "t_mapping(t_address,t_array(t_struct(ContEntity)4280_storage)dyn_storage)"
      },
      {
        "astId": 4299,
        "contract": "contracts/dependencies/CONTRewardManagement.sol:CONTRewardManagement",
        "label": "contPrice",
        "offset": 0,
        "slot": "6",
        "type": "t_mapping(t_enum(ContType)4254,t_uint256)"
      },
      {
        "astId": 4304,
        "contract": "contracts/dependencies/CONTRewardManagement.sol:CONTRewardManagement",
        "label": "initRewardAPRPerCont",
        "offset": 0,
        "slot": "7",
        "type": "t_mapping(t_enum(ContType)4254,t_uint256)"
      },
      {
        "astId": 4311,
        "contract": "contracts/dependencies/CONTRewardManagement.sol:CONTRewardManagement",
        "label": "aprChangesHistory",
        "offset": 0,
        "slot": "8",
        "type": "t_mapping(t_enum(ContType)4254,t_array(t_struct(APRChangesEntry)4285_storage)dyn_storage)"
      },
      {
        "astId": 4313,
        "contract": "contracts/dependencies/CONTRewardManagement.sol:CONTRewardManagement",
        "label": "cashoutTimeout",
        "offset": 0,
        "slot": "9",
        "type": "t_uint256"
      },
      {
        "astId": 4315,
        "contract": "contracts/dependencies/CONTRewardManagement.sol:CONTRewardManagement",
        "label": "autoReduceAPRInterval",
        "offset": 0,
        "slot": "10",
        "type": "t_uint256"
      },
      {
        "astId": 4317,
        "contract": "contracts/dependencies/CONTRewardManagement.sol:CONTRewardManagement",
        "label": "autoReduceAPRRate",
        "offset": 0,
        "slot": "11",
        "type": "t_uint256"
      },
      {
        "astId": 4319,
        "contract": "contracts/dependencies/CONTRewardManagement.sol:CONTRewardManagement",
        "label": "admin0XB",
        "offset": 0,
        "slot": "12",
        "type": "t_address"
      },
      {
        "astId": 4321,
        "contract": "contracts/dependencies/CONTRewardManagement.sol:CONTRewardManagement",
        "label": "token",
        "offset": 0,
        "slot": "13",
        "type": "t_address"
      },
      {
        "astId": 4323,
        "contract": "contracts/dependencies/CONTRewardManagement.sol:CONTRewardManagement",
        "label": "totalContsCreated",
        "offset": 0,
        "slot": "14",
        "type": "t_uint256"
      },
      {
        "astId": 4328,
        "contract": "contracts/dependencies/CONTRewardManagement.sol:CONTRewardManagement",
        "label": "_totalContsPerType",
        "offset": 0,
        "slot": "15",
        "type": "t_mapping(t_enum(ContType)4254,t_uint256)"
      },
      {
        "astId": 4333,
        "contract": "contracts/dependencies/CONTRewardManagement.sol:CONTRewardManagement",
        "label": "_breakevenContsPerType",
        "offset": 0,
        "slot": "16",
        "type": "t_mapping(t_enum(ContType)4254,t_uint256)"
      },
      {
        "astId": 4338,
        "contract": "contracts/dependencies/CONTRewardManagement.sol:CONTRewardManagement",
        "label": "_claimedRewardPerType",
        "offset": 0,
        "slot": "17",
        "type": "t_mapping(t_enum(ContType)4254,t_uint256)"
      },
      {
        "astId": 4343,
        "contract": "contracts/dependencies/CONTRewardManagement.sol:CONTRewardManagement",
        "label": "_tokensReceivedPerType",
        "offset": 0,
        "slot": "18",
        "type": "t_mapping(t_enum(ContType)4254,t_uint256)"
      }
    ],
    "types": {
      "t_address": {
        "encoding": "inplace",
        "label": "address",
        "numberOfBytes": "20"
      },
      "t_array(t_address)dyn_storage": {
        "base": "t_address",
        "encoding": "dynamic_array",
        "label": "address[]",
        "numberOfBytes": "32"
      },
      "t_array(t_struct(APRChangesEntry)4285_storage)dyn_storage": {
        "base": "t_struct(APRChangesEntry)4285_storage",
        "encoding": "dynamic_array",
        "label": "struct CONTRewardManagement.APRChangesEntry[]",
        "numberOfBytes": "32"
      },
      "t_array(t_struct(ContEntity)4280_storage)dyn_storage": {
        "base": "t_struct(ContEntity)4280_storage",
        "encoding": "dynamic_array",
        "label": "struct CONTRewardManagement.ContEntity[]",
        "numberOfBytes": "32"
      },
      "t_bool": {
        "encoding": "inplace",
        "label": "bool",
        "numberOfBytes": "1"
      },
      "t_enum(ContType)4254": {
        "encoding": "inplace",
        "label": "enum ContType",
        "numberOfBytes": "1"
      },
      "t_int256": {
        "encoding": "inplace",
        "label": "int256",
        "numberOfBytes": "32"
      },
      "t_mapping(t_address,t_array(t_struct(ContEntity)4280_storage)dyn_storage)": {
        "encoding": "mapping",
        "key": "t_address",
        "label": "mapping(address => struct CONTRewardManagement.ContEntity[])",
        "numberOfBytes": "32",
        "value": "t_array(t_struct(ContEntity)4280_storage)dyn_storage"
      },
      "t_mapping(t_address,t_bool)": {
        "encoding": "mapping",
        "key": "t_address",
        "label": "mapping(address => bool)",
        "numberOfBytes": "32",
        "value": "t_bool"
      },
      "t_mapping(t_address,t_uint256)": {
        "encoding": "mapping",
        "key": "t_address",
        "label": "mapping(address => uint256)",
        "numberOfBytes": "32",
        "value": "t_uint256"
      },
      "t_mapping(t_enum(ContType)4254,t_array(t_struct(APRChangesEntry)4285_storage)dyn_storage)": {
        "encoding": "mapping",
        "key": "t_enum(ContType)4254",
        "label": "mapping(enum ContType => struct CONTRewardManagement.APRChangesEntry[])",
        "numberOfBytes": "32",
        "value": "t_array(t_struct(APRChangesEntry)4285_storage)dyn_storage"
      },
      "t_mapping(t_enum(ContType)4254,t_uint256)": {
        "encoding": "mapping",
        "key": "t_enum(ContType)4254",
        "label": "mapping(enum ContType => uint256)",
        "numberOfBytes": "32",
        "value": "t_uint256"
      },
      "t_string_storage": {
        "encoding": "bytes",
        "label": "string",
        "numberOfBytes": "32"
      },
      "t_struct(APRChangesEntry)4285_storage": {
        "encoding": "inplace",
        "label": "struct CONTRewardManagement.APRChangesEntry",
        "members": [
          {
            "astId": 4282,
            "contract": "contracts/dependencies/CONTRewardManagement.sol:CONTRewardManagement",
            "label": "timestamp",
            "offset": 0,
            "slot": "0",
            "type": "t_uint256"
          },
          {
            "astId": 4284,
            "contract": "contracts/dependencies/CONTRewardManagement.sol:CONTRewardManagement",
            "label": "reducedPercentage",
            "offset": 0,
            "slot": "1",
            "type": "t_int256"
          }
        ],
        "numberOfBytes": "64"
      },
      "t_struct(ContEntity)4280_storage": {
        "encoding": "inplace",
        "label": "struct CONTRewardManagement.ContEntity",
        "members": [
          {
            "astId": 4268,
            "contract": "contracts/dependencies/CONTRewardManagement.sol:CONTRewardManagement",
            "label": "name",
            "offset": 0,
            "slot": "0",
            "type": "t_string_storage"
          },
          {
            "astId": 4270,
            "contract": "contracts/dependencies/CONTRewardManagement.sol:CONTRewardManagement",
            "label": "creationTime",
            "offset": 0,
            "slot": "1",
            "type": "t_uint256"
          },
          {
            "astId": 4272,
            "contract": "contracts/dependencies/CONTRewardManagement.sol:CONTRewardManagement",
            "label": "lastUpdateTime",
            "offset": 0,
            "slot": "2",
            "type": "t_uint256"
          },
          {
            "astId": 4274,
            "contract": "contracts/dependencies/CONTRewardManagement.sol:CONTRewardManagement",
            "label": "initialAPR",
            "offset": 0,
            "slot": "3",
            "type": "t_uint256"
          },
          {
            "astId": 4276,
            "contract": "contracts/dependencies/CONTRewardManagement.sol:CONTRewardManagement",
            "label": "buyPrice",
            "offset": 0,
            "slot": "4",
            "type": "t_uint256"
          },
          {
            "astId": 4279,
            "contract": "contracts/dependencies/CONTRewardManagement.sol:CONTRewardManagement",
            "label": "cType",
            "offset": 0,
            "slot": "5",
            "type": "t_enum(ContType)4254"
          }
        ],
        "numberOfBytes": "192"
      },
      "t_struct(Map)8448_storage": {
        "encoding": "inplace",
        "label": "struct IterableMapping.Map",
        "members": [
          {
            "astId": 8435,
            "contract": "contracts/dependencies/CONTRewardManagement.sol:CONTRewardManagement",
            "label": "keys",
            "offset": 0,
            "slot": "0",
            "type": "t_array(t_address)dyn_storage"
          },
          {
            "astId": 8439,
            "contract": "contracts/dependencies/CONTRewardManagement.sol:CONTRewardManagement",
            "label": "values",
            "offset": 0,
            "slot": "1",
            "type": "t_mapping(t_address,t_uint256)"
          },
          {
            "astId": 8443,
            "contract": "contracts/dependencies/CONTRewardManagement.sol:CONTRewardManagement",
            "label": "indexOf",
            "offset": 0,
            "slot": "2",
            "type": "t_mapping(t_address,t_uint256)"
          },
          {
            "astId": 8447,
            "contract": "contracts/dependencies/CONTRewardManagement.sol:CONTRewardManagement",
            "label": "inserted",
            "offset": 0,
            "slot": "3",
            "type": "t_mapping(t_address,t_bool)"
          }
        ],
        "numberOfBytes": "128"
      },
      "t_uint256": {
        "encoding": "inplace",
        "label": "uint256",
        "numberOfBytes": "32"
      }
    }
  }
}