{
  "address": "0xA03742ad7632C272E4FF34BBfaD40ac70C04b75E",
  "abi": [
    {
      "anonymous": false,
      "inputs": [
        {
          "indexed": false,
          "internalType": "enum ContType",
          "name": "_cType",
          "type": "uint8"
        },
        {
          "indexed": false,
          "internalType": "uint256",
          "name": "delta",
          "type": "uint256"
        }
      ],
      "name": "BreakevenChanged",
      "type": "event"
    },
    {
      "inputs": [
        {
          "internalType": "address",
          "name": "account",
          "type": "address"
        }
      ],
      "name": "_cashoutAllContsReward",
      "outputs": [
        {
          "internalType": "uint256",
          "name": "",
          "type": "uint256"
        },
        {
          "internalType": "uint256",
          "name": "",
          "type": "uint256"
        },
        {
          "internalType": "uint256",
          "name": "",
          "type": "uint256"
        },
        {
          "internalType": "uint256",
          "name": "",
          "type": "uint256"
        }
      ],
      "stateMutability": "nonpayable",
      "type": "function"
    },
    {
      "inputs": [
        {
          "internalType": "address",
          "name": "account",
          "type": "address"
        },
        {
          "internalType": "uint256",
          "name": "_contIndex",
          "type": "uint256"
        }
      ],
      "name": "_cashoutContReward",
      "outputs": [
        {
          "internalType": "uint256",
          "name": "",
          "type": "uint256"
        },
        {
          "internalType": "enum ContType",
          "name": "",
          "type": "uint8"
        }
      ],
      "stateMutability": "nonpayable",
      "type": "function"
    },
    {
      "inputs": [
        {
          "internalType": "uint256",
          "name": "newInterval",
          "type": "uint256"
        }
      ],
      "name": "_changeAutoReduceAPRInterval",
      "outputs": [],
      "stateMutability": "nonpayable",
      "type": "function"
    },
    {
      "inputs": [
        {
          "internalType": "uint256",
          "name": "newRate",
          "type": "uint256"
        }
      ],
      "name": "_changeAutoReduceAPRRate",
      "outputs": [],
      "stateMutability": "nonpayable",
      "type": "function"
    },
    {
      "inputs": [
        {
          "internalType": "uint256",
          "name": "newTime",
          "type": "uint256"
        }
      ],
      "name": "_changeCashoutTimeout",
      "outputs": [],
      "stateMutability": "nonpayable",
      "type": "function"
    },
    {
      "inputs": [
        {
          "internalType": "enum ContType",
          "name": "_cType",
          "type": "uint8"
        },
        {
          "internalType": "uint256",
          "name": "newPrice",
          "type": "uint256"
        }
      ],
      "name": "_changeContPrice",
      "outputs": [],
      "stateMutability": "nonpayable",
      "type": "function"
    },
    {
      "inputs": [
        {
          "internalType": "enum ContType",
          "name": "_cType",
          "type": "uint8"
        },
        {
          "internalType": "int256",
          "name": "reducedPercentage",
          "type": "int256"
        }
      ],
      "name": "_changeRewardAPRPerCont",
      "outputs": [],
      "stateMutability": "nonpayable",
      "type": "function"
    },
    {
      "inputs": [
        {
          "internalType": "address",
          "name": "account",
          "type": "address"
        }
      ],
      "name": "_getContNumberOf",
      "outputs": [
        {
          "internalType": "uint256",
          "name": "",
          "type": "uint256"
        }
      ],
      "stateMutability": "view",
      "type": "function"
    },
    {
      "inputs": [
        {
          "internalType": "address",
          "name": "account",
          "type": "address"
        }
      ],
      "name": "_getContsCreationTime",
      "outputs": [
        {
          "internalType": "string",
          "name": "",
          "type": "string"
        }
      ],
      "stateMutability": "view",
      "type": "function"
    },
    {
      "inputs": [
        {
          "internalType": "address",
          "name": "account",
          "type": "address"
        }
      ],
      "name": "_getContsCurrentAPR",
      "outputs": [
        {
          "internalType": "string",
          "name": "",
          "type": "string"
        }
      ],
      "stateMutability": "view",
      "type": "function"
    },
    {
      "inputs": [
        {
          "internalType": "address",
          "name": "account",
          "type": "address"
        }
      ],
      "name": "_getContsInitialAPR",
      "outputs": [
        {
          "internalType": "string",
          "name": "",
          "type": "string"
        }
      ],
      "stateMutability": "view",
      "type": "function"
    },
    {
      "inputs": [
        {
          "internalType": "address",
          "name": "account",
          "type": "address"
        }
      ],
      "name": "_getContsLastUpdateTime",
      "outputs": [
        {
          "internalType": "string",
          "name": "",
          "type": "string"
        }
      ],
      "stateMutability": "view",
      "type": "function"
    },
    {
      "inputs": [
        {
          "internalType": "address",
          "name": "account",
          "type": "address"
        }
      ],
      "name": "_getContsNames",
      "outputs": [
        {
          "internalType": "string",
          "name": "",
          "type": "string"
        }
      ],
      "stateMutability": "view",
      "type": "function"
    },
    {
      "inputs": [
        {
          "internalType": "address",
          "name": "account",
          "type": "address"
        }
      ],
      "name": "_getContsRewardAvailable",
      "outputs": [
        {
          "internalType": "string",
          "name": "",
          "type": "string"
        }
      ],
      "stateMutability": "view",
      "type": "function"
    },
    {
      "inputs": [
        {
          "internalType": "address",
          "name": "account",
          "type": "address"
        }
      ],
      "name": "_getContsTypes",
      "outputs": [
        {
          "internalType": "string",
          "name": "",
          "type": "string"
        }
      ],
      "stateMutability": "view",
      "type": "function"
    },
    {
      "inputs": [
        {
          "internalType": "address",
          "name": "account",
          "type": "address"
        }
      ],
      "name": "_getRewardAmountOf",
      "outputs": [
        {
          "internalType": "uint256",
          "name": "",
          "type": "uint256"
        }
      ],
      "stateMutability": "view",
      "type": "function"
    },
    {
      "inputs": [
        {
          "internalType": "address",
          "name": "account",
          "type": "address"
        },
        {
          "internalType": "uint256",
          "name": "_contIndex",
          "type": "uint256"
        }
      ],
      "name": "_getRewardAmountOfIndex",
      "outputs": [
        {
          "internalType": "uint256",
          "name": "",
          "type": "uint256"
        }
      ],
      "stateMutability": "view",
      "type": "function"
    },
    {
      "inputs": [
        {
          "internalType": "address",
          "name": "account",
          "type": "address"
        }
      ],
      "name": "_isContOwner",
      "outputs": [
        {
          "internalType": "bool",
          "name": "",
          "type": "bool"
        }
      ],
      "stateMutability": "view",
      "type": "function"
    },
    {
      "inputs": [
        {
          "internalType": "enum ContType",
          "name": "_cType",
          "type": "uint8"
        },
        {
          "internalType": "uint256",
          "name": "_initialPrice",
          "type": "uint256"
        }
      ],
      "name": "_resetAllAPRChange",
      "outputs": [],
      "stateMutability": "nonpayable",
      "type": "function"
    },
    {
      "inputs": [
        {
          "internalType": "enum ContType",
          "name": "_cType",
          "type": "uint8"
        }
      ],
      "name": "_undoRewardAPRChange",
      "outputs": [],
      "stateMutability": "nonpayable",
      "type": "function"
    },
    {
      "inputs": [],
      "name": "_updateAdminDashboard",
      "outputs": [],
      "stateMutability": "nonpayable",
      "type": "function"
    },
    {
      "inputs": [],
      "name": "admin0XB",
      "outputs": [
        {
          "internalType": "address",
          "name": "",
          "type": "address"
        }
      ],
      "stateMutability": "view",
      "type": "function"
    },
    {
      "inputs": [],
      "name": "autoReduceAPRInterval",
      "outputs": [
        {
          "internalType": "uint256",
          "name": "",
          "type": "uint256"
        }
      ],
      "stateMutability": "view",
      "type": "function"
    },
    {
      "inputs": [],
      "name": "autoReduceAPRRate",
      "outputs": [
        {
          "internalType": "uint256",
          "name": "",
          "type": "uint256"
        }
      ],
      "stateMutability": "view",
      "type": "function"
    },
    {
      "inputs": [
        {
          "internalType": "enum ContType",
          "name": "_cType",
          "type": "uint8"
        }
      ],
      "name": "breakevenContsPerType",
      "outputs": [
        {
          "internalType": "uint256",
          "name": "",
          "type": "uint256"
        }
      ],
      "stateMutability": "view",
      "type": "function"
    },
    {
      "inputs": [],
      "name": "cashoutTimeout",
      "outputs": [
        {
          "internalType": "uint256",
          "name": "",
          "type": "uint256"
        }
      ],
      "stateMutability": "view",
      "type": "function"
    },
    {
      "inputs": [
        {
          "internalType": "enum ContType",
          "name": "",
          "type": "uint8"
        }
      ],
      "name": "contPrice",
      "outputs": [
        {
          "internalType": "uint256",
          "name": "",
          "type": "uint256"
        }
      ],
      "stateMutability": "view",
      "type": "function"
    },
    {
      "inputs": [
        {
          "internalType": "address",
          "name": "account",
          "type": "address"
        },
        {
          "internalType": "string[]",
          "name": "contNames",
          "type": "string[]"
        },
        {
          "internalType": "enum ContType",
          "name": "_cType",
          "type": "uint8"
        }
      ],
      "name": "createConts",
      "outputs": [],
      "stateMutability": "nonpayable",
      "type": "function"
    },
    {
      "inputs": [
        {
          "internalType": "enum ContType",
          "name": "_cType",
          "type": "uint8"
        }
      ],
      "name": "currentRewardAPRPerNewCont",
      "outputs": [
        {
          "internalType": "uint256",
          "name": "",
          "type": "uint256"
        }
      ],
      "stateMutability": "view",
      "type": "function"
    },
    {
      "inputs": [
        {
          "internalType": "enum ContType",
          "name": "",
          "type": "uint8"
        }
      ],
      "name": "initRewardAPRPerCont",
      "outputs": [
        {
          "internalType": "uint256",
          "name": "",
          "type": "uint256"
        }
      ],
      "stateMutability": "view",
      "type": "function"
    },
    {
      "inputs": [
        {
          "internalType": "uint256[]",
          "name": "_contPrices",
          "type": "uint256[]"
        },
        {
          "internalType": "uint256[]",
          "name": "_rewardAPRs",
          "type": "uint256[]"
        },
        {
          "internalType": "uint256",
          "name": "_cashoutTimeout",
          "type": "uint256"
        },
        {
          "internalType": "uint256",
          "name": "_autoReduceAPRRate",
          "type": "uint256"
        }
      ],
      "name": "initialize",
      "outputs": [],
      "stateMutability": "nonpayable",
      "type": "function"
    },
    {
      "inputs": [
        {
          "internalType": "address",
          "name": "newAdmin",
          "type": "address"
        }
      ],
      "name": "setAdmin",
      "outputs": [],
      "stateMutability": "nonpayable",
      "type": "function"
    },
    {
      "inputs": [
        {
          "internalType": "address",
          "name": "token_",
          "type": "address"
        }
      ],
      "name": "setToken",
      "outputs": [],
      "stateMutability": "nonpayable",
      "type": "function"
    },
    {
      "inputs": [],
      "name": "token",
      "outputs": [
        {
          "internalType": "address",
          "name": "",
          "type": "address"
        }
      ],
      "stateMutability": "view",
      "type": "function"
    },
    {
      "inputs": [],
      "name": "totalContsCreated",
      "outputs": [
        {
          "internalType": "uint256",
          "name": "",
          "type": "uint256"
        }
      ],
      "stateMutability": "view",
      "type": "function"
    },
    {
      "inputs": [
        {
          "internalType": "enum ContType",
          "name": "_cType",
          "type": "uint8"
        }
      ],
      "name": "totalContsPerContType",
      "outputs": [
        {
          "internalType": "uint256",
          "name": "",
          "type": "uint256"
        }
      ],
      "stateMutability": "view",
      "type": "function"
    }
  ],
  "transactionHash": "0x7a07c0e2703a9a4fb8f541ec9108d574e850b764264dbeb516157751d539f061",
  "args": [],
  "numDeployments": 10,
  "solcInputHash": "2c2276a02f33094b4384688a709a8916",
  "bytecode": "0x608060405234801561001057600080fd5b50613e75806100206000396000f3fe608060405234801561001057600080fd5b506004361061021b5760003560e01c806363a9b098116101255780639b28d1a7116100ad578063ce6912a31161007c578063ce6912a3146104b6578063d094fa8d146104c9578063e18f03ad146104fc578063f743f31914610505578063fc0c546a1461051857600080fd5b80639b28d1a7146104665780639d2040f01461046f5780639f227c5314610482578063c2202b661461049557600080fd5b806377ec7826116100f457806377ec7826146103f95780638201bf261461040c578063872a60ad1461041f5780638bf145141461044a57806393520a801461045d57600080fd5b806363a9b09814610390578063665bb078146103b05780636eb5a7f4146103d3578063704b6c02146103e657600080fd5b806328cceb24116101a85780634f88de01116101775780634f88de011461032e57806351bf120c1461034e57806355a757d0146103615780635dbab6ed1461036a578063619a635e1461037d57600080fd5b806328cceb24146102d5578063367fd074146102f5578063390c991e1461030857806344fea1b91461031b57600080fd5b80630d9f9f0c116101ef5780630d9f9f0c14610281578063144fa6d714610294578063150bf591146102a75780631565f50e146102af5780631d5a1731146102c257600080fd5b8062c73e4d146102205780630534cc68146102465780630835209f1461025b5780630b9f6cfe1461026e575b600080fd5b61023361022e366004613a90565b61052b565b6040519081526020015b60405180910390f35b6102596102543660046138c7565b61062b565b005b610233610269366004613a90565b6108e3565b61023361027c3660046139f2565b610922565b61025961028f366004613ac7565b610b08565b6102596102a23660046138ac565b610b4c565b610259610bf2565b6102596102bd366004613ac7565b610f52565b6102596102d0366004613aab565b610f96565b6102e86102e33660046138ac565b611012565b60405161023d9190613b87565b6102e86103033660046138ac565b61125a565b610259610316366004613ac7565b6114c9565b6102336103293660046138ac565b61150d565b61023361033c366004613a90565b60076020526000908152604090205481565b6102e861035c3660046138ac565b61152b565b61023360095481565b6102e86103783660046138ac565b611767565b61023361038b3660046138ac565b6119a3565b61023361039e366004613a90565b60066020526000908152604090205481565b6103c36103be3660046138ac565b611b7b565b604051901515815260200161023d565b6102596103e1366004613a1c565b611b86565b6102596103f43660046138ac565b611e5f565b6102e86104073660046138ac565b611f05565b61025961041a366004613a90565b61213f565b600c54610432906001600160a01b031681565b6040516001600160a01b03909116815260200161023d565b6102e86104583660046138ac565b612280565b610233600b5481565b610233600a5481565b61025961047d366004613aab565b6124d4565b610259610490366004613aab565b6125e9565b6104a86104a33660046139f2565b612772565b60405161023d929190613be2565b6102336104c4366004613a90565b6129e1565b6104dc6104d73660046138ac565b6129f9565b60408051948552602085019390935291830152606082015260800161023d565b610233600e5481565b6102e86105133660046138ac565b612d72565b600d54610432906001600160a01b031681565b6000806008600084600281111561054457610544613e10565b600281111561055557610555613e10565b815260200190815260200160002080549050905060006007600085600281111561058157610581613e10565b600281111561059257610592613e10565b815260200190815260200160002054905060005b828110156106235761060f82600860008860028111156105c8576105c8613e10565b60028111156105d9576105d9613e10565b815260200190815260200160002083815481106105f8576105f8613e3c565b906000526020600020906002020160010154612fa7565b91508061061b81613da1565b9150506105a6565b509392505050565b600d546001600160a01b031633148061064e5750600c546001600160a01b031633145b6106735760405162461bcd60e51b815260040161066a90613bba565b60405180910390fd5b6001600160a01b0383166000908152600560205260405162c73e4d60e01b8152309062c73e4d906106a8908590600401613b5e565b60206040518083038186803b1580156106c057600080fd5b505afa1580156106d4573d6000803e3d6000fd5b505050506040513d601f19601f820116820180604052508101906106f89190613ae0565b905060005b83518110156108525760056000866001600160a01b03166001600160a01b031681526020019081526020016000206040518060c0016040528086848151811061074857610748613e3c565b602002602001015181526020014281526020014281526020018481526020016006600087600281111561077d5761077d613e10565b600281111561078e5761078e613e10565b81526020019081526020016000205481526020018560028111156107b4576107b4613e10565b9052815460018101835560009283526020928390208251805193946006909302909101926107e592849201906136f1565b506020820151816001015560408201518160020155606082015181600301556080820151816004015560a08201518160050160006101000a81548160ff0219169083600281111561083857610838613e10565b02179055505050808061084a90613da1565b9150506106fd565b506001600160a01b03841660009081526005602052604090205461087a906001908690612fdb565b8251600e600082825461088d9190613c4b565b90915550508251600f60008460028111156108aa576108aa613e10565b60028111156108bb576108bb613e10565b815260200190815260200160002060008282546108d89190613c4b565b909155505050505050565b6000601060008360028111156108fb576108fb613e10565b600281111561090c5761090c613e10565b8152602001908152602001600020549050919050565b6001600160a01b038216600090815260056020908152604080832080548251818502810185019093528083528493849084015b82821015610a7457838290600052602060002090600602016040518060c001604052908160008201805461098890613d66565b80601f01602080910402602001604051908101604052809291908181526020018280546109b490613d66565b8015610a015780601f106109d657610100808354040283529160200191610a01565b820191906000526020600020905b8154815290600101906020018083116109e457829003601f168201915b50505091835250506001820154602082015260028083015460408301526003830154606083015260048301546080830152600583015460a09092019160ff1690811115610a5057610a50613e10565b6002811115610a6157610a61613e10565b8152505081526020019060010190610955565b505082519293505050808410610acc5760405162461bcd60e51b815260206004820152601c60248201527f434f4e543a20436f6e7420696e64657820697320696d70726f70657200000000604482015260640161066a565b6000828581518110610ae057610ae0613e3c565b602002602001015190506000610afb82836040015142613084565b9450505050505b92915050565b600d546001600160a01b0316331480610b2b5750600c546001600160a01b031633145b610b475760405162461bcd60e51b815260040161066a90613bba565b600b55565b600d546001600160a01b0316331480610b6f5750600c546001600160a01b031633145b610b8b5760405162461bcd60e51b815260040161066a90613bba565b6001600160a01b038116610bd05760405162461bcd60e51b815260206004820152600c60248201526b7a65726f206164647265737360a01b604482015260640161066a565b600d80546001600160a01b0319166001600160a01b0392909216919091179055565b60408051606081018252600080825260208201819052918101829052815b6001548167ffffffffffffffff161015610e1d576000610c3b600167ffffffffffffffff84166133b4565b905060005b6001600160a01b03821660009081526005602052604090205463ffffffff82161015610e08576001600160a01b0382166000908152600560205260408120805463ffffffff8416908110610c9657610c96613e3c565b90600052602060002090600602016040518060c0016040529081600082018054610cbf90613d66565b80601f0160208091040260200160405190810160405280929190818152602001828054610ceb90613d66565b8015610d385780601f10610d0d57610100808354040283529160200191610d38565b820191906000526020600020905b815481529060010190602001808311610d1b57829003601f168201915b50505091835250506001820154602082015260028083015460408301526003830154606083015260048301546080830152600583015460a09092019160ff1690811115610d8757610d87613e10565b6002811115610d9857610d98613e10565b9052506020810151909150610dae828242613084565b826080015111610df357858260a001516002811115610dcf57610dcf613e10565b60038110610ddf57610ddf613e3c565b60200201805190610def82613da1565b9052505b50508080610e0090613dbc565b915050610c40565b50508080610e1590613de0565b915050610c10565b5060005b6003811015610f4d577f973cb5e7d2831babd05fc3de4db9926ae3b4301b00c92c3542e0771ea471b0fd816002811115610e5d57610e5d613e10565b60106000846002811115610e7357610e73613e10565b6002811115610e8457610e84613e10565b6002811115610e9557610e95613e10565b815260200190815260200160002054848460038110610eb657610eb6613e3c565b6020020151610ec59190613d08565b604051610ed3929190613b6c565b60405180910390a1818160038110610eed57610eed613e3c565b602002015160106000836002811115610f0857610f08613e10565b6002811115610f1957610f19613e10565b6002811115610f2a57610f2a613e10565b815260208101919091526040016000205580610f4581613da1565b915050610e21565b505050565b600d546001600160a01b0316331480610f755750600c546001600160a01b031633145b610f915760405162461bcd60e51b815260040161066a90613bba565b600a55565b600d546001600160a01b0316331480610fb95750600c546001600160a01b031633145b610fd55760405162461bcd60e51b815260040161066a90613bba565b8060066000846002811115610fec57610fec613e10565b6002811115610ffd57610ffd613e10565b81526020810191909152604001600020555050565b606061101d826133e7565b61103557505060408051602081019091526000815290565b6001600160a01b038216600090815260056020908152604080832080548251818502810185019093528083529192909190849084015b8282101561118a57838290600052602060002090600602016040518060c001604052908160008201805461109e90613d66565b80601f01602080910402602001604051908101604052809291908181526020018280546110ca90613d66565b80156111175780601f106110ec57610100808354040283529160200191611117565b820191906000526020600020905b8154815290600101906020018083116110fa57829003601f168201915b50505091835250506001820154602082015260028083015460408301526003830154606083015260048301546080830152600583015460a09092019160ff169081111561116657611166613e10565b600281111561117757611177613e10565b815250508152602001906001019061106b565b50505050905060008151905061119e613775565b60006111c7846000815181106111b6576111b6613e3c565b602002602001015160200151613404565b604080518082019091526001808252602360f81b6020830152919250905b8481101561124e578581815181106111ff576111ff613e3c565b6020026020010151935082826112188660200151613404565b60405160200161122a93929190613b1b565b6040516020818303038152906040529250808061124690613da1565b9150506111e5565b50909695505050505050565b6060611265826133e7565b61127d57505060408051602081019091526000815290565b6001600160a01b038216600090815260056020908152604080832080548251818502810185019093528083529192909190849084015b828210156113d257838290600052602060002090600602016040518060c00160405290816000820180546112e690613d66565b80601f016020809104026020016040519081016040528092919081815260200182805461131290613d66565b801561135f5780601f106113345761010080835404028352916020019161135f565b820191906000526020600020905b81548152906001019060200180831161134257829003601f168201915b50505091835250506001820154602082015260028083015460408301526003830154606083015260048301546080830152600583015460a09092019160ff16908111156113ae576113ae613e10565b60028111156113bf576113bf613e10565b81525050815260200190600101906112b3565b50508251929350429150600090506114276114228583866113f5576113f5613e3c565b60200260200101518660008151811061141057611410613e3c565b60200260200101516040015185613084565b613404565b604080518082019091526001808252602360f81b6020830152919250905b8481101561124e57828261149361142289858151811061146757611467613e3c565b60200260200101518a868151811061148157611481613e3c565b60200260200101516040015189613084565b6040516020016114a593929190613b1b565b604051602081830303815290604052925080806114c190613da1565b915050611445565b600d546001600160a01b03163314806114ec5750600c546001600160a01b031633145b6115085760405162461bcd60e51b815260040161066a90613bba565b600955565b6001600160a01b038116600090815260026020526040812054610b02565b6060611536826133e7565b61154e57505060408051602081019091526000815290565b6001600160a01b038216600090815260056020908152604080832080548251818502810185019093528083529192909190849084015b828210156116a357838290600052602060002090600602016040518060c00160405290816000820180546115b790613d66565b80601f01602080910402602001604051908101604052809291908181526020018280546115e390613d66565b80156116305780601f1061160557610100808354040283529160200191611630565b820191906000526020600020905b81548152906001019060200180831161161357829003601f168201915b50505091835250506001820154602082015260028083015460408301526003830154606083015260048301546080830152600583015460a09092019160ff169081111561167f5761167f613e10565b600281111561169057611690613e10565b8152505081526020019060010190611584565b5050505090506000815190506116b7613775565b60006116e0846000815181106116cf576116cf613e3c565b602002602001015160400151613404565b604080518082019091526001808252602360f81b6020830152919250905b8481101561124e5785818151811061171857611718613e3c565b6020026020010151935082826117318660400151613404565b60405160200161174393929190613b1b565b6040516020818303038152906040529250808061175f90613da1565b9150506116fe565b6060611772826133e7565b61178a57505060408051602081019091526000815290565b6001600160a01b038216600090815260056020908152604080832080548251818502810185019093528083529192909190849084015b828210156118df57838290600052602060002090600602016040518060c00160405290816000820180546117f390613d66565b80601f016020809104026020016040519081016040528092919081815260200182805461181f90613d66565b801561186c5780601f106118415761010080835404028352916020019161186c565b820191906000526020600020905b81548152906001019060200180831161184f57829003601f168201915b50505091835250506001820154602082015260028083015460408301526003830154606083015260048301546080830152600583015460a09092019160ff16908111156118bb576118bb613e10565b60028111156118cc576118cc613e10565b81525050815260200190600101906117c0565b5050505090506000815190506118f3613775565b600061191c8460008151811061190b5761190b613e3c565b602002602001015160600151613404565b604080518082019091526001808252602360f81b6020830152919250905b8481101561124e5785818151811061195457611954613e3c565b60200260200101519350828261196d8660600151613404565b60405160200161197f93929190613b1b565b6040516020818303038152906040529250808061199b90613da1565b91505061193a565b60006119ae826133e7565b6119ba57506000919050565b6001600160a01b038216600090815260056020908152604080832080548251818502810185019093528083528493849084015b82821015611b0c57838290600052602060002090600602016040518060c0016040529081600082018054611a2090613d66565b80601f0160208091040260200160405190810160405280929190818152602001828054611a4c90613d66565b8015611a995780601f10611a6e57610100808354040283529160200191611a99565b820191906000526020600020905b815481529060010190602001808311611a7c57829003601f168201915b50505091835250506001820154602082015260028083015460408301526003830154606083015260048301546080830152600583015460a09092019160ff1690811115611ae857611ae8613e10565b6002811115611af957611af9613e10565b81525050815260200190600101906119ed565b50508251929350429150600090505b82811015611b70576000848281518110611b3757611b37613e3c565b60200260200101519050611b5081826040015185613084565b611b5a9087613c4b565b9550508080611b6890613da1565b915050611b1b565b509295945050505050565b6000610b02826133e7565b600054610100900460ff16611ba15760005460ff1615611ba5565b303b155b611c085760405162461bcd60e51b815260206004820152602e60248201527f496e697469616c697a61626c653a20636f6e747261637420697320616c72656160448201526d191e481a5b9a5d1a585b1a5e995960921b606482015260840161066a565b600054610100900460ff16158015611c2a576000805461ffff19166101011790555b6301e13380600a556000600e81905542905b6003811015611e2857868181518110611c5757611c57613e3c565b602002602001015160066000836002811115611c7557611c75613e10565b6002811115611c8657611c86613e10565b6002811115611c9757611c97613e10565b815260200190815260200160002081905550858181518110611cbb57611cbb613e3c565b602002602001015160076000836002811115611cd957611cd9613e10565b6002811115611cea57611cea613e10565b6002811115611cfb57611cfb613e10565b8152602001908152602001600020819055506000600f6000836002811115611d2557611d25613e10565b6002811115611d3657611d36613e10565b6002811115611d4757611d47613e10565b81526020019081526020016000208190555060086000826002811115611d6f57611d6f613e10565b6002811115611d8057611d80613e10565b6002811115611d9157611d91613e10565b81526020015260086000826002811115611dad57611dad613e10565b6002811115611dbe57611dbe613e10565b6002811115611dcf57611dcf613e10565b815260208082019290925260409081016000908120825180840190935285835282840182815281546001818101845592845294909220925160029094029092019283555191015580611e2081613da1565b915050611c3c565b50506009839055600c80546001600160a01b03191633179055600b8290558015611e58576000805461ff00191690555b5050505050565b600d546001600160a01b0316331480611e825750600c546001600160a01b031633145b611e9e5760405162461bcd60e51b815260040161066a90613bba565b6001600160a01b038116611ee35760405162461bcd60e51b815260206004820152600c60248201526b7a65726f206164647265737360a01b604482015260640161066a565b600c80546001600160a01b0319166001600160a01b0392909216919091179055565b6060611f10826133e7565b611f2857505060408051602081019091526000815290565b6001600160a01b038216600090815260056020908152604080832080548251818502810185019093528083529192909190849084015b8282101561207d57838290600052602060002090600602016040518060c0016040529081600082018054611f9190613d66565b80601f0160208091040260200160405190810160405280929190818152602001828054611fbd90613d66565b801561200a5780601f10611fdf5761010080835404028352916020019161200a565b820191906000526020600020905b815481529060010190602001808311611fed57829003601f168201915b50505091835250506001820154602082015260028083015460408301526003830154606083015260048301546080830152600583015460a09092019160ff169081111561205957612059613e10565b600281111561206a5761206a613e10565b8152505081526020019060010190611f5e565b505050509050600081519050612091613775565b60006120b9611422856000815181106120ac576120ac613e3c565b602002602001015161352d565b604080518082019091526001808252602360f81b6020830152919250905b8481101561124e578581815181106120f1576120f1613e3c565b6020026020010151935082826121096114228761352d565b60405160200161211b93929190613b1b565b6040516020818303038152906040529250808061213790613da1565b9150506120d7565b600d546001600160a01b03163314806121625750600c546001600160a01b031633145b61217e5760405162461bcd60e51b815260040161066a90613bba565b60006008600083600281111561219657612196613e10565b60028111156121a7576121a7613e10565b815260208101919091526040016000205490506001811161221a5760405162461bcd60e51b815260206004820152602760248201527f554e444f204348414e47453a204e6f206368616e67657320666f756e6420666f6044820152667220635479706560c81b606482015260840161066a565b6008600083600281111561223057612230613e10565b600281111561224157612241613e10565b815260200190815260200160002080548061225e5761225e613e26565b6000828152602081206002600019909301928302018181556001015590555050565b606061228b826133e7565b6122a357505060408051602081019091526000815290565b6001600160a01b038216600090815260056020908152604080832080548251818502810185019093528083529192909190849084015b828210156123f857838290600052602060002090600602016040518060c001604052908160008201805461230c90613d66565b80601f016020809104026020016040519081016040528092919081815260200182805461233890613d66565b80156123855780601f1061235a57610100808354040283529160200191612385565b820191906000526020600020905b81548152906001019060200180831161236857829003601f168201915b50505091835250506001820154602082015260028083015460408301526003830154606083015260048301546080830152600583015460a09092019160ff16908111156123d4576123d4613e10565b60028111156123e5576123e5613e10565b81525050815260200190600101906122d9565b50505050905060008151905061240c613775565b60006124418460008151811061242457612424613e3c565b602002602001015160a00151600281111561142257611422613e10565b604080518082019091526001808252602360f81b6020830152919250905b8481101561124e5785818151811061247957612479613e3c565b60200260200101519350828261249e8660a00151600281111561142257611422613e10565b6040516020016124b093929190613b1b565b604051602081830303815290604052925080806124cc90613da1565b91505061245f565b600d546001600160a01b03163314806124f75750600c546001600160a01b031633145b6125135760405162461bcd60e51b815260040161066a90613bba565b6305f5e10081126125775760405162461bcd60e51b815260206004820152602860248201527f5245445543455f5257443a20646f206e6f7420726564756365206d6f7265207460448201526768616e203130302560c01b606482015260840161066a565b6008600083600281111561258d5761258d613e10565b600281111561259e5761259e613e10565b81526020808201929092526040908101600090812082518084019093524283528284019485528054600181810183559183529390912091516002909302909101918255915191015550565b600d546001600160a01b031633148061260c5750600c546001600160a01b031633145b6126285760405162461bcd60e51b815260040161066a90613bba565b806007600084600281111561263f5761263f613e10565b600281111561265057612650613e10565b81526020019081526020016000208190555060006008600084600281111561267a5761267a613e10565b600281111561268b5761268b613e10565b81526020019081526020016000206000815481106126ab576126ab613e3c565b9060005260206000209060020201600001549050600860008460028111156126d5576126d5613e10565b60028111156126e6576126e6613e10565b8152602001908152602001600020600061270091906137bb565b6008600084600281111561271657612716613e10565b600281111561272757612727613e10565b81526020808201929092526040908101600090812082518084019093529382528183018181528454600181810187559583529390912091516002909302909101918255519101555050565b600d5460009081906001600160a01b031633148061279a5750600c546001600160a01b031633145b6127b65760405162461bcd60e51b815260040161066a90613bba565b6001600160a01b0384166000908152600560205260409020805484106128125760405162461bcd60e51b815260206004820152601160248201527021a7a72a1d1024b73232bc1022b93937b960791b604482015260640161066a565b600081858154811061282657612826613e3c565b906000526020600020906006020190506128438160020154613539565b6128b55760405162461bcd60e51b815260206004820152603a60248201527f434153484f5554204552524f523a20596f75206861766520746f20776169742060448201527f6265666f726520636c61696d696e67207468697320636f6e742e000000000000606482015260840161066a565b600042905060006129c2836040518060c00160405290816000820180546128db90613d66565b80601f016020809104026020016040519081016040528092919081815260200182805461290790613d66565b80156129545780601f1061292957610100808354040283529160200191612954565b820191906000526020600020905b81548152906001019060200180831161293757829003601f168201915b50505091835250506001820154602082015260028083015460408301526003830154606083015260048301546080830152600583015460a09092019160ff16908111156129a3576129a3613e10565b60028111156129b4576129b4613e10565b905250600285015484613084565b60028401929092555060059091015490935060ff169150509250929050565b6000600f60008360028111156108fb576108fb613e10565b600d546000908190819081906001600160a01b0316331480612a255750600c546001600160a01b031633145b612a415760405162461bcd60e51b815260040161066a90613bba565b6001600160a01b0385166000908152600560205260409020805480612ac05760405162461bcd60e51b815260206004820152602f60248201527f434153484f5554204552524f523a20596f7520646f6e2774206861766520636f60448201526e1b9d1cc81d1bc818d85cda0b5bdd5d608a1b606482015260840161066a565b6040805160608101825260008082526020820181905291810182905281904282805b86811015612b31576000888281548110612afe57612afe613e3c565b906000526020600020906006020160020154905082811115612b1e578092505b5080612b2981613da1565b915050612ae2565b50612b3b81613539565b612bad5760405162461bcd60e51b815260206004820152603a60248201527f434153484f5554204552524f523a20596f75206861766520746f20776169742060448201527f6265666f726520636c61696d696e6720616c6c20636f6e74732e000000000000606482015260840161066a565b60005b86811015612d4f57878181548110612bca57612bca613e3c565b906000526020600020906006020195506000612ce2876040518060c0016040529081600082018054612bfb90613d66565b80601f0160208091040260200160405190810160405280929190818152602001828054612c2790613d66565b8015612c745780601f10612c4957610100808354040283529160200191612c74565b820191906000526020600020905b815481529060010190602001808311612c5757829003601f168201915b50505091835250506001820154602082015260028083015460408301526003830154606083015260048301546080830152600583015460a09092019160ff1690811115612cc357612cc3613e10565b6002811115612cd457612cd4613e10565b905250600289015486613084565b9050612cee8187613c4b565b60058801549096508190869060ff166002811115612d0e57612d0e613e10565b60ff1660038110612d2157612d21613e3c565b60200201818151612d329190613c4b565b905250506002860183905580612d4781613da1565b915050612bb0565b505081516020830151604090930151939c909b5091995091975095505050505050565b6060612d7d826133e7565b612d9557505060408051602081019091526000815290565b6001600160a01b038216600090815260056020908152604080832080548251818502810185019093528083529192909190849084015b82821015612eea57838290600052602060002090600602016040518060c0016040529081600082018054612dfe90613d66565b80601f0160208091040260200160405190810160405280929190818152602001828054612e2a90613d66565b8015612e775780601f10612e4c57610100808354040283529160200191612e77565b820191906000526020600020905b815481529060010190602001808311612e5a57829003601f168201915b50505091835250506001820154602082015260028083015460408301526003830154606083015260048301546080830152600583015460a09092019160ff1690811115612ec657612ec6613e10565b6002811115612ed757612ed7613e10565b8152505081526020019060010190612dcb565b505050509050600081519050612efe613775565b600083600081518110612f1357612f13613e3c565b60200260200101516000015190506000604051806040016040528060018152602001602360f81b81525090506000600190505b8481101561124e57858181518110612f6057612f60613e3c565b6020026020010151935082828560000151604051602001612f8393929190613b1b565b60405160208183030381529060405292508080612f9f90613da1565b915050612f46565b600080612fb8836305f5e100613cc9565b90506305f5e100612fc98286613caa565b612fd39190613c88565b949350505050565b6001600160a01b038216600090815260038401602052604090205460ff1615613020576001600160a01b03821660009081526001840160205260409020819055505050565b6001600160a01b03821660008181526003850160209081526040808320805460ff19166001908117909155878101835281842086905587546002890184529184208290558101875586835291200180546001600160a01b0319169091179055505050565b6000818311156130cd5760405162461bcd60e51b815260206004820152601460248201527377726f6e6720747374616d707320706172616d7360601b604482015260640161066a565b83602001518310156131145760405162461bcd60e51b815260206004820152601060248201526f1b19599d081d1cdd185b5c1cc818985960821b604482015260640161066a565b60a084015160006131258286613552565b60808701519091506000613139888861362d565b6020890151909150879060009081908190819081895b600860008d600281111561316557613165613e10565b600281111561317657613176613e10565b81526020810191909152604001600020548110156132db57600860008d60028111156131a4576131a4613e10565b60028111156131b5576131b5613e10565b815260200190815260200160002081815481106131d4576131d4613e3c565b90600052602060002090600202016000015496506131f288846136d7565b6131fc88856136d7565b14801592506132345761320f88846136d7565b61321a906001613c4b565b600a546132279190613caa565b6132319084613c4b565b96505b61323e8888613d08565b94506301e13380856305f5e1006132558c8e613caa565b61325f9190613c88565b6132699190613caa565b6132739190613c88565b935086975083866132849190613c4b565b955081156132ac5761329889600b54612fa7565b9850806132a481613d4f565b9150506132c9565b6132c689600860008f60028111156105c8576105c8613e10565b98505b806132d381613da1565b91505061314f565b505b8c871461339f578c95506132f187836136d7565b6132fb87846136d7565b14801591506133335761330e87836136d7565b613319906001613c4b565b600a546133269190613caa565b6133309083613c4b565b95505b61333d8787613d08565b93506301e13380846305f5e1006133548b8d613caa565b61335e9190613c88565b6133689190613caa565b6133729190613c88565b925085965082856133839190613c4b565b9450801561339a5761339788600b54612fa7565b97505b6132dd565b509299505050505050505050505b9392505050565b60008260000182815481106133cb576133cb613e3c565b6000918252602090912001546001600160a01b03169392505050565b6001600160a01b0316600090815260026020526040902054151590565b6060816134285750506040805180820190915260018152600360fc1b602082015290565b8160005b8115613452578061343c81613da1565b915061344b9050600a83613c88565b915061342c565b60008167ffffffffffffffff81111561346d5761346d613e52565b6040519080825280601f01601f191660200182016040528015613497576020820181803683370190505b509050815b8515613524576134ad600182613d08565b905060006134bc600a88613c88565b6134c790600a613caa565b6134d19088613d08565b6134dc906030613c63565b905060008160f81b9050808484815181106134f9576134f9613e3c565b60200101906001600160f81b031916908160001a90535061351b600a89613c88565b9750505061349c565b50949350505050565b6000610b02824261362d565b6000426009548361354a9190613c4b565b111592915050565b6000808060088186600281111561356b5761356b613e10565b600281111561357c5761357c613e10565b815260208101919091526040016000205490505b8181111561062357600060026135a68385613c4b565b6135b09190613c88565b905084600860008860028111156135c9576135c9613e10565b60028111156135da576135da613e10565b815260200190815260200160002082815481106135f9576135f9613e3c565b90600052602060002090600202016000015410156136235761361c816001613c4b565b9250613627565b8091505b50613590565b602082015160a0830151606084015160009291908361364c8385613552565b9050600061365a8488613552565b9050815b818110156136945761368084600860008860028111156105c8576105c8613e10565b93508061368c81613da1565b91505061365e565b5060006136a188876136d7565b90505b80156136ca57806136b481613d4f565b9150506136c384600b54612fa7565b93506136a4565b5091979650505050505050565b600a546000906136e78385613d08565b6133ad9190613c88565b8280546136fd90613d66565b90600052602060002090601f01602090048101928261371f5760008555613765565b82601f1061373857805160ff1916838001178555613765565b82800160010185558215613765579182015b8281111561376557825182559160200191906001019061374a565b506137719291506137df565b5090565b6040518060c001604052806060815260200160008152602001600081526020016000815260200160008152602001600060028111156137b6576137b6613e10565b905290565b50805460008255600202906000526020600020908101906137dc91906137f4565b50565b5b8082111561377157600081556001016137e0565b5b8082111561377157600080825560018201556002016137f5565b80356001600160a01b038116811461382657600080fd5b919050565b600082601f83011261383c57600080fd5b8135602061385161384c83613c27565b613bf6565b80838252828201915082860187848660051b890101111561387157600080fd5b60005b8581101561389057813584529284019290840190600101613874565b5090979650505050505050565b80356003811061382657600080fd5b6000602082840312156138be57600080fd5b6133ad8261380f565b6000806000606084860312156138dc57600080fd5b6138e58461380f565b925060208085013567ffffffffffffffff8082111561390357600080fd5b818701915087601f83011261391757600080fd5b813561392561384c82613c27565b8082825285820191508585018b878560051b880101111561394557600080fd5b60005b848110156139d25781358681111561395f57600080fd5b8701603f81018e1361397057600080fd5b888101358781111561398457613984613e52565b613996601f8201601f19168b01613bf6565b8181528f60408385010111156139ab57600080fd5b81604084018c83013760009181018b01919091528552509287019290870190600101613948565b50508097505050505050506139e96040850161389d565b90509250925092565b60008060408385031215613a0557600080fd5b613a0e8361380f565b946020939093013593505050565b60008060008060808587031215613a3257600080fd5b843567ffffffffffffffff80821115613a4a57600080fd5b613a568883890161382b565b95506020870135915080821115613a6c57600080fd5b50613a798782880161382b565b949794965050505060408301359260600135919050565b600060208284031215613aa257600080fd5b6133ad8261389d565b60008060408385031215613abe57600080fd5b613a0e8361389d565b600060208284031215613ad957600080fd5b5035919050565b600060208284031215613af257600080fd5b5051919050565b60038110613b1757634e487b7160e01b600052602160045260246000fd5b9052565b60008451613b2d818460208901613d1f565b845190830190613b41818360208901613d1f565b8451910190613b54818360208801613d1f565b0195945050505050565b60208101610b028284613af9565b60408101613b7a8285613af9565b8260208301529392505050565b6020815260008251806020840152613ba6816040850160208701613d1f565b601f01601f19169190910160400192915050565b6020808252600e908201526d4163636573732044656e6965642160901b604082015260600190565b828152604081016133ad6020830184613af9565b604051601f8201601f1916810167ffffffffffffffff81118282101715613c1f57613c1f613e52565b604052919050565b600067ffffffffffffffff821115613c4157613c41613e52565b5060051b60200190565b60008219821115613c5e57613c5e613dfa565b500190565b600060ff821660ff84168060ff03821115613c8057613c80613dfa565b019392505050565b600082613ca557634e487b7160e01b600052601260045260246000fd5b500490565b6000816000190483118215151615613cc457613cc4613dfa565b500290565b60008083128015600160ff1b850184121615613ce757613ce7613dfa565b6001600160ff1b0384018313811615613d0257613d02613dfa565b50500390565b600082821015613d1a57613d1a613dfa565b500390565b60005b83811015613d3a578181015183820152602001613d22565b83811115613d49576000848401525b50505050565b600081613d5e57613d5e613dfa565b506000190190565b600181811c90821680613d7a57607f821691505b60208210811415613d9b57634e487b7160e01b600052602260045260246000fd5b50919050565b6000600019821415613db557613db5613dfa565b5060010190565b600063ffffffff80831681811415613dd657613dd6613dfa565b6001019392505050565b600067ffffffffffffffff80831681811415613dd657613dd65b634e487b7160e01b600052601160045260246000fd5b634e487b7160e01b600052602160045260246000fd5b634e487b7160e01b600052603160045260246000fd5b634e487b7160e01b600052603260045260246000fd5b634e487b7160e01b600052604160045260246000fdfea164736f6c6343000807000a",
  "devdoc": {
    "kind": "dev",
    "methods": {},
    "version": 1
  },
  "userdoc": {
    "kind": "user",
    "methods": {},
    "version": 1
  },
  "storageLayout": {
    "storage": [
      {
        "astId": 598,
        "contract": "contracts/dependencies/CONTRewardManagement.sol:CONTRewardManagement",
        "label": "_initialized",
        "offset": 0,
        "slot": "0",
        "type": "t_bool"
      },
      {
        "astId": 601,
        "contract": "contracts/dependencies/CONTRewardManagement.sol:CONTRewardManagement",
        "label": "_initializing",
        "offset": 1,
        "slot": "0",
        "type": "t_bool"
      },
      {
        "astId": 4373,
        "contract": "contracts/dependencies/CONTRewardManagement.sol:CONTRewardManagement",
        "label": "contOwners",
        "offset": 0,
        "slot": "1",
        "type": "t_struct(Map)8432_storage"
      },
      {
        "astId": 4379,
        "contract": "contracts/dependencies/CONTRewardManagement.sol:CONTRewardManagement",
        "label": "_contsOfUser",
        "offset": 0,
        "slot": "5",
        "type": "t_mapping(t_address,t_array(t_struct(ContEntity)4365_storage)dyn_storage)"
      },
      {
        "astId": 4384,
        "contract": "contracts/dependencies/CONTRewardManagement.sol:CONTRewardManagement",
        "label": "contPrice",
        "offset": 0,
        "slot": "6",
        "type": "t_mapping(t_enum(ContType)4339,t_uint256)"
      },
      {
        "astId": 4389,
        "contract": "contracts/dependencies/CONTRewardManagement.sol:CONTRewardManagement",
        "label": "initRewardAPRPerCont",
        "offset": 0,
        "slot": "7",
        "type": "t_mapping(t_enum(ContType)4339,t_uint256)"
      },
      {
        "astId": 4396,
        "contract": "contracts/dependencies/CONTRewardManagement.sol:CONTRewardManagement",
        "label": "aprChangesHistory",
        "offset": 0,
        "slot": "8",
        "type": "t_mapping(t_enum(ContType)4339,t_array(t_struct(APRChangesEntry)4370_storage)dyn_storage)"
      },
      {
        "astId": 4398,
        "contract": "contracts/dependencies/CONTRewardManagement.sol:CONTRewardManagement",
        "label": "cashoutTimeout",
        "offset": 0,
        "slot": "9",
        "type": "t_uint256"
      },
      {
        "astId": 4400,
        "contract": "contracts/dependencies/CONTRewardManagement.sol:CONTRewardManagement",
        "label": "autoReduceAPRInterval",
        "offset": 0,
        "slot": "10",
        "type": "t_uint256"
      },
      {
        "astId": 4402,
        "contract": "contracts/dependencies/CONTRewardManagement.sol:CONTRewardManagement",
        "label": "autoReduceAPRRate",
        "offset": 0,
        "slot": "11",
        "type": "t_uint256"
      },
      {
        "astId": 4404,
        "contract": "contracts/dependencies/CONTRewardManagement.sol:CONTRewardManagement",
        "label": "admin0XB",
        "offset": 0,
        "slot": "12",
        "type": "t_address"
      },
      {
        "astId": 4406,
        "contract": "contracts/dependencies/CONTRewardManagement.sol:CONTRewardManagement",
        "label": "token",
        "offset": 0,
        "slot": "13",
        "type": "t_address"
      },
      {
        "astId": 4408,
        "contract": "contracts/dependencies/CONTRewardManagement.sol:CONTRewardManagement",
        "label": "totalContsCreated",
        "offset": 0,
        "slot": "14",
        "type": "t_uint256"
      },
      {
        "astId": 4413,
        "contract": "contracts/dependencies/CONTRewardManagement.sol:CONTRewardManagement",
        "label": "_totalContsPerType",
        "offset": 0,
        "slot": "15",
        "type": "t_mapping(t_enum(ContType)4339,t_uint256)"
      },
      {
        "astId": 4418,
        "contract": "contracts/dependencies/CONTRewardManagement.sol:CONTRewardManagement",
        "label": "_breakevenContsPerType",
        "offset": 0,
        "slot": "16",
        "type": "t_mapping(t_enum(ContType)4339,t_uint256)"
      }
    ],
    "types": {
      "t_address": {
        "encoding": "inplace",
        "label": "address",
        "numberOfBytes": "20"
      },
      "t_array(t_address)dyn_storage": {
        "base": "t_address",
        "encoding": "dynamic_array",
        "label": "address[]",
        "numberOfBytes": "32"
      },
      "t_array(t_struct(APRChangesEntry)4370_storage)dyn_storage": {
        "base": "t_struct(APRChangesEntry)4370_storage",
        "encoding": "dynamic_array",
        "label": "struct CONTRewardManagement.APRChangesEntry[]",
        "numberOfBytes": "32"
      },
      "t_array(t_struct(ContEntity)4365_storage)dyn_storage": {
        "base": "t_struct(ContEntity)4365_storage",
        "encoding": "dynamic_array",
        "label": "struct CONTRewardManagement.ContEntity[]",
        "numberOfBytes": "32"
      },
      "t_bool": {
        "encoding": "inplace",
        "label": "bool",
        "numberOfBytes": "1"
      },
      "t_enum(ContType)4339": {
        "encoding": "inplace",
        "label": "enum ContType",
        "numberOfBytes": "1"
      },
      "t_int256": {
        "encoding": "inplace",
        "label": "int256",
        "numberOfBytes": "32"
      },
      "t_mapping(t_address,t_array(t_struct(ContEntity)4365_storage)dyn_storage)": {
        "encoding": "mapping",
        "key": "t_address",
        "label": "mapping(address => struct CONTRewardManagement.ContEntity[])",
        "numberOfBytes": "32",
        "value": "t_array(t_struct(ContEntity)4365_storage)dyn_storage"
      },
      "t_mapping(t_address,t_bool)": {
        "encoding": "mapping",
        "key": "t_address",
        "label": "mapping(address => bool)",
        "numberOfBytes": "32",
        "value": "t_bool"
      },
      "t_mapping(t_address,t_uint256)": {
        "encoding": "mapping",
        "key": "t_address",
        "label": "mapping(address => uint256)",
        "numberOfBytes": "32",
        "value": "t_uint256"
      },
      "t_mapping(t_enum(ContType)4339,t_array(t_struct(APRChangesEntry)4370_storage)dyn_storage)": {
        "encoding": "mapping",
        "key": "t_enum(ContType)4339",
        "label": "mapping(enum ContType => struct CONTRewardManagement.APRChangesEntry[])",
        "numberOfBytes": "32",
        "value": "t_array(t_struct(APRChangesEntry)4370_storage)dyn_storage"
      },
      "t_mapping(t_enum(ContType)4339,t_uint256)": {
        "encoding": "mapping",
        "key": "t_enum(ContType)4339",
        "label": "mapping(enum ContType => uint256)",
        "numberOfBytes": "32",
        "value": "t_uint256"
      },
      "t_string_storage": {
        "encoding": "bytes",
        "label": "string",
        "numberOfBytes": "32"
      },
      "t_struct(APRChangesEntry)4370_storage": {
        "encoding": "inplace",
        "label": "struct CONTRewardManagement.APRChangesEntry",
        "members": [
          {
            "astId": 4367,
            "contract": "contracts/dependencies/CONTRewardManagement.sol:CONTRewardManagement",
            "label": "timestamp",
            "offset": 0,
            "slot": "0",
            "type": "t_uint256"
          },
          {
            "astId": 4369,
            "contract": "contracts/dependencies/CONTRewardManagement.sol:CONTRewardManagement",
            "label": "reducedPercentage",
            "offset": 0,
            "slot": "1",
            "type": "t_int256"
          }
        ],
        "numberOfBytes": "64"
      },
      "t_struct(ContEntity)4365_storage": {
        "encoding": "inplace",
        "label": "struct CONTRewardManagement.ContEntity",
        "members": [
          {
            "astId": 4353,
            "contract": "contracts/dependencies/CONTRewardManagement.sol:CONTRewardManagement",
            "label": "name",
            "offset": 0,
            "slot": "0",
            "type": "t_string_storage"
          },
          {
            "astId": 4355,
            "contract": "contracts/dependencies/CONTRewardManagement.sol:CONTRewardManagement",
            "label": "creationTime",
            "offset": 0,
            "slot": "1",
            "type": "t_uint256"
          },
          {
            "astId": 4357,
            "contract": "contracts/dependencies/CONTRewardManagement.sol:CONTRewardManagement",
            "label": "lastUpdateTime",
            "offset": 0,
            "slot": "2",
            "type": "t_uint256"
          },
          {
            "astId": 4359,
            "contract": "contracts/dependencies/CONTRewardManagement.sol:CONTRewardManagement",
            "label": "initialAPR",
            "offset": 0,
            "slot": "3",
            "type": "t_uint256"
          },
          {
            "astId": 4361,
            "contract": "contracts/dependencies/CONTRewardManagement.sol:CONTRewardManagement",
            "label": "buyPrice",
            "offset": 0,
            "slot": "4",
            "type": "t_uint256"
          },
          {
            "astId": 4364,
            "contract": "contracts/dependencies/CONTRewardManagement.sol:CONTRewardManagement",
            "label": "cType",
            "offset": 0,
            "slot": "5",
            "type": "t_enum(ContType)4339"
          }
        ],
        "numberOfBytes": "192"
      },
      "t_struct(Map)8432_storage": {
        "encoding": "inplace",
        "label": "struct IterableMapping.Map",
        "members": [
          {
            "astId": 8419,
            "contract": "contracts/dependencies/CONTRewardManagement.sol:CONTRewardManagement",
            "label": "keys",
            "offset": 0,
            "slot": "0",
            "type": "t_array(t_address)dyn_storage"
          },
          {
            "astId": 8423,
            "contract": "contracts/dependencies/CONTRewardManagement.sol:CONTRewardManagement",
            "label": "values",
            "offset": 0,
            "slot": "1",
            "type": "t_mapping(t_address,t_uint256)"
          },
          {
            "astId": 8427,
            "contract": "contracts/dependencies/CONTRewardManagement.sol:CONTRewardManagement",
            "label": "indexOf",
            "offset": 0,
            "slot": "2",
            "type": "t_mapping(t_address,t_uint256)"
          },
          {
            "astId": 8431,
            "contract": "contracts/dependencies/CONTRewardManagement.sol:CONTRewardManagement",
            "label": "inserted",
            "offset": 0,
            "slot": "3",
            "type": "t_mapping(t_address,t_bool)"
          }
        ],
        "numberOfBytes": "128"
      },
      "t_uint256": {
        "encoding": "inplace",
        "label": "uint256",
        "numberOfBytes": "32"
      }
    }
  }
}