{
  "address": "0x0E8c097bE7a7B209f64b9fdce3a43c31CE193Ed5",
  "abi": [
    {
      "anonymous": false,
      "inputs": [
        {
          "indexed": false,
          "internalType": "enum ContType",
          "name": "_cType",
          "type": "uint8"
        },
        {
          "indexed": false,
          "internalType": "uint256",
          "name": "delta",
          "type": "uint256"
        }
      ],
      "name": "BreakevenChanged",
      "type": "event"
    },
    {
      "inputs": [],
      "name": "ONE_MONTH",
      "outputs": [
        {
          "internalType": "uint256",
          "name": "",
          "type": "uint256"
        }
      ],
      "stateMutability": "view",
      "type": "function"
    },
    {
      "inputs": [],
      "name": "THREE_MONTH",
      "outputs": [
        {
          "internalType": "uint256",
          "name": "",
          "type": "uint256"
        }
      ],
      "stateMutability": "view",
      "type": "function"
    },
    {
      "inputs": [
        {
          "internalType": "address",
          "name": "",
          "type": "address"
        },
        {
          "internalType": "uint256",
          "name": "",
          "type": "uint256"
        }
      ],
      "name": "_brokeevenContract",
      "outputs": [
        {
          "internalType": "bool",
          "name": "",
          "type": "bool"
        }
      ],
      "stateMutability": "view",
      "type": "function"
    },
    {
      "inputs": [
        {
          "internalType": "address",
          "name": "account",
          "type": "address"
        }
      ],
      "name": "_cashoutAllContsReward",
      "outputs": [
        {
          "internalType": "uint256",
          "name": "",
          "type": "uint256"
        },
        {
          "internalType": "uint256",
          "name": "",
          "type": "uint256"
        },
        {
          "internalType": "uint256",
          "name": "",
          "type": "uint256"
        },
        {
          "internalType": "uint256",
          "name": "",
          "type": "uint256"
        }
      ],
      "stateMutability": "nonpayable",
      "type": "function"
    },
    {
      "inputs": [
        {
          "internalType": "address",
          "name": "account",
          "type": "address"
        },
        {
          "internalType": "uint256",
          "name": "_contIndex",
          "type": "uint256"
        }
      ],
      "name": "_cashoutContReward",
      "outputs": [
        {
          "internalType": "uint256",
          "name": "",
          "type": "uint256"
        },
        {
          "internalType": "enum ContType",
          "name": "",
          "type": "uint8"
        }
      ],
      "stateMutability": "nonpayable",
      "type": "function"
    },
    {
      "inputs": [
        {
          "internalType": "uint256",
          "name": "newInterval",
          "type": "uint256"
        }
      ],
      "name": "_changeAutoReduceAPRInterval",
      "outputs": [],
      "stateMutability": "nonpayable",
      "type": "function"
    },
    {
      "inputs": [
        {
          "internalType": "uint256",
          "name": "newRate",
          "type": "uint256"
        }
      ],
      "name": "_changeAutoReduceAPRRate",
      "outputs": [],
      "stateMutability": "nonpayable",
      "type": "function"
    },
    {
      "inputs": [
        {
          "internalType": "uint256",
          "name": "newTime",
          "type": "uint256"
        }
      ],
      "name": "_changeCashoutTimeout",
      "outputs": [],
      "stateMutability": "nonpayable",
      "type": "function"
    },
    {
      "inputs": [
        {
          "internalType": "enum ContType",
          "name": "_cType",
          "type": "uint8"
        },
        {
          "internalType": "uint256",
          "name": "newPrice",
          "type": "uint256"
        }
      ],
      "name": "_changeContPrice",
      "outputs": [],
      "stateMutability": "nonpayable",
      "type": "function"
    },
    {
      "inputs": [
        {
          "internalType": "enum ContType",
          "name": "_cType",
          "type": "uint8"
        },
        {
          "internalType": "int256",
          "name": "reducedPercentage",
          "type": "int256"
        }
      ],
      "name": "_changeRewardAPRPerCont",
      "outputs": [],
      "stateMutability": "nonpayable",
      "type": "function"
    },
    {
      "inputs": [
        {
          "internalType": "address",
          "name": "account",
          "type": "address"
        }
      ],
      "name": "_getClaimedAmountOf",
      "outputs": [
        {
          "internalType": "uint256",
          "name": "total",
          "type": "uint256"
        },
        {
          "internalType": "string",
          "name": "list",
          "type": "string"
        }
      ],
      "stateMutability": "view",
      "type": "function"
    },
    {
      "inputs": [
        {
          "internalType": "address",
          "name": "account",
          "type": "address"
        },
        {
          "internalType": "uint256",
          "name": "_contIndex",
          "type": "uint256"
        }
      ],
      "name": "_getClaimedAmountOfIndex",
      "outputs": [
        {
          "internalType": "uint256",
          "name": "rewardCont",
          "type": "uint256"
        }
      ],
      "stateMutability": "view",
      "type": "function"
    },
    {
      "inputs": [
        {
          "internalType": "address",
          "name": "account",
          "type": "address"
        }
      ],
      "name": "_getContNumberOf",
      "outputs": [
        {
          "internalType": "uint256",
          "name": "",
          "type": "uint256"
        }
      ],
      "stateMutability": "view",
      "type": "function"
    },
    {
      "inputs": [
        {
          "internalType": "address",
          "name": "account",
          "type": "address"
        }
      ],
      "name": "_getContsCreationTime",
      "outputs": [
        {
          "internalType": "string",
          "name": "",
          "type": "string"
        }
      ],
      "stateMutability": "view",
      "type": "function"
    },
    {
      "inputs": [
        {
          "internalType": "address",
          "name": "account",
          "type": "address"
        }
      ],
      "name": "_getContsCurrentAPR",
      "outputs": [
        {
          "internalType": "string",
          "name": "",
          "type": "string"
        }
      ],
      "stateMutability": "view",
      "type": "function"
    },
    {
      "inputs": [
        {
          "internalType": "address",
          "name": "account",
          "type": "address"
        }
      ],
      "name": "_getContsInitialAPR",
      "outputs": [
        {
          "internalType": "string",
          "name": "",
          "type": "string"
        }
      ],
      "stateMutability": "view",
      "type": "function"
    },
    {
      "inputs": [
        {
          "internalType": "address",
          "name": "account",
          "type": "address"
        }
      ],
      "name": "_getContsLastUpdateTime",
      "outputs": [
        {
          "internalType": "string",
          "name": "",
          "type": "string"
        }
      ],
      "stateMutability": "view",
      "type": "function"
    },
    {
      "inputs": [
        {
          "internalType": "address",
          "name": "account",
          "type": "address"
        }
      ],
      "name": "_getContsNames",
      "outputs": [
        {
          "internalType": "string",
          "name": "",
          "type": "string"
        }
      ],
      "stateMutability": "view",
      "type": "function"
    },
    {
      "inputs": [
        {
          "internalType": "address",
          "name": "account",
          "type": "address"
        }
      ],
      "name": "_getContsRewardAvailable",
      "outputs": [
        {
          "internalType": "string",
          "name": "",
          "type": "string"
        }
      ],
      "stateMutability": "view",
      "type": "function"
    },
    {
      "inputs": [
        {
          "internalType": "address",
          "name": "account",
          "type": "address"
        }
      ],
      "name": "_getContsTypes",
      "outputs": [
        {
          "internalType": "string",
          "name": "",
          "type": "string"
        }
      ],
      "stateMutability": "view",
      "type": "function"
    },
    {
      "inputs": [
        {
          "internalType": "address",
          "name": "account",
          "type": "address"
        }
      ],
      "name": "_getRewardAmountOf",
      "outputs": [
        {
          "internalType": "uint256",
          "name": "",
          "type": "uint256"
        }
      ],
      "stateMutability": "view",
      "type": "function"
    },
    {
      "inputs": [
        {
          "internalType": "address",
          "name": "account",
          "type": "address"
        },
        {
          "internalType": "uint256",
          "name": "_contIndex",
          "type": "uint256"
        }
      ],
      "name": "_getRewardAmountOfIndex",
      "outputs": [
        {
          "internalType": "uint256",
          "name": "",
          "type": "uint256"
        }
      ],
      "stateMutability": "view",
      "type": "function"
    },
    {
      "inputs": [
        {
          "internalType": "address",
          "name": "account",
          "type": "address"
        }
      ],
      "name": "_isContOwner",
      "outputs": [
        {
          "internalType": "bool",
          "name": "",
          "type": "bool"
        }
      ],
      "stateMutability": "view",
      "type": "function"
    },
    {
      "inputs": [
        {
          "internalType": "enum ContType",
          "name": "_cType",
          "type": "uint8"
        },
        {
          "internalType": "uint256",
          "name": "_initialPrice",
          "type": "uint256"
        }
      ],
      "name": "_resetAllAPRChange",
      "outputs": [],
      "stateMutability": "nonpayable",
      "type": "function"
    },
    {
      "inputs": [
        {
          "internalType": "enum ContType",
          "name": "_cType",
          "type": "uint8"
        }
      ],
      "name": "_undoRewardAPRChange",
      "outputs": [],
      "stateMutability": "nonpayable",
      "type": "function"
    },
    {
      "inputs": [
        {
          "internalType": "address",
          "name": "",
          "type": "address"
        },
        {
          "internalType": "uint256",
          "name": "",
          "type": "uint256"
        }
      ],
      "name": "additionalDataContract",
      "outputs": [
        {
          "internalType": "uint256",
          "name": "expireIn",
          "type": "uint256"
        },
        {
          "internalType": "uint256",
          "name": "lastUpdated",
          "type": "uint256"
        }
      ],
      "stateMutability": "view",
      "type": "function"
    },
    {
      "inputs": [],
      "name": "admin0XB",
      "outputs": [
        {
          "internalType": "address",
          "name": "",
          "type": "address"
        }
      ],
      "stateMutability": "view",
      "type": "function"
    },
    {
      "inputs": [],
      "name": "autoReduceAPRInterval",
      "outputs": [
        {
          "internalType": "uint256",
          "name": "",
          "type": "uint256"
        }
      ],
      "stateMutability": "view",
      "type": "function"
    },
    {
      "inputs": [],
      "name": "autoReduceAPRRate",
      "outputs": [
        {
          "internalType": "uint256",
          "name": "",
          "type": "uint256"
        }
      ],
      "stateMutability": "view",
      "type": "function"
    },
    {
      "inputs": [],
      "name": "cashoutTimeout",
      "outputs": [
        {
          "internalType": "uint256",
          "name": "",
          "type": "uint256"
        }
      ],
      "stateMutability": "view",
      "type": "function"
    },
    {
      "inputs": [
        {
          "internalType": "uint256",
          "name": "_decreaseFeePercent",
          "type": "uint256"
        }
      ],
      "name": "changeDecreaseFeePercent",
      "outputs": [],
      "stateMutability": "nonpayable",
      "type": "function"
    },
    {
      "inputs": [
        {
          "internalType": "address",
          "name": "_feeToken",
          "type": "address"
        }
      ],
      "name": "changeFeeToken",
      "outputs": [],
      "stateMutability": "nonpayable",
      "type": "function"
    },
    {
      "inputs": [
        {
          "internalType": "bool",
          "name": "_status",
          "type": "bool"
        }
      ],
      "name": "changeMonthFeeState",
      "outputs": [],
      "stateMutability": "nonpayable",
      "type": "function"
    },
    {
      "inputs": [
        {
          "internalType": "enum ContType",
          "name": "",
          "type": "uint8"
        }
      ],
      "name": "contPrice",
      "outputs": [
        {
          "internalType": "uint256",
          "name": "",
          "type": "uint256"
        }
      ],
      "stateMutability": "view",
      "type": "function"
    },
    {
      "inputs": [
        {
          "internalType": "address",
          "name": "account",
          "type": "address"
        },
        {
          "internalType": "string[]",
          "name": "contNames",
          "type": "string[]"
        },
        {
          "internalType": "enum ContType",
          "name": "_cType",
          "type": "uint8"
        }
      ],
      "name": "createConts",
      "outputs": [],
      "stateMutability": "nonpayable",
      "type": "function"
    },
    {
      "inputs": [
        {
          "internalType": "enum ContType",
          "name": "_cType",
          "type": "uint8"
        }
      ],
      "name": "currentRewardAPRPerNewCont",
      "outputs": [
        {
          "internalType": "uint256",
          "name": "",
          "type": "uint256"
        }
      ],
      "stateMutability": "view",
      "type": "function"
    },
    {
      "inputs": [],
      "name": "decreaseFeePercent",
      "outputs": [
        {
          "internalType": "uint256",
          "name": "",
          "type": "uint256"
        }
      ],
      "stateMutability": "view",
      "type": "function"
    },
    {
      "inputs": [],
      "name": "defaultExpireIn",
      "outputs": [
        {
          "internalType": "uint256",
          "name": "",
          "type": "uint256"
        }
      ],
      "stateMutability": "view",
      "type": "function"
    },
    {
      "inputs": [
        {
          "internalType": "uint256",
          "name": "time",
          "type": "uint256"
        },
        {
          "internalType": "uint256[]",
          "name": "indexes",
          "type": "uint256[]"
        }
      ],
      "name": "extendContract",
      "outputs": [],
      "stateMutability": "nonpayable",
      "type": "function"
    },
    {
      "inputs": [
        {
          "internalType": "enum ContType",
          "name": "",
          "type": "uint8"
        }
      ],
      "name": "feeInMonth",
      "outputs": [
        {
          "internalType": "uint256",
          "name": "",
          "type": "uint256"
        }
      ],
      "stateMutability": "view",
      "type": "function"
    },
    {
      "inputs": [],
      "name": "feeToken",
      "outputs": [
        {
          "internalType": "contract IERC20",
          "name": "",
          "type": "address"
        }
      ],
      "stateMutability": "view",
      "type": "function"
    },
    {
      "inputs": [
        {
          "internalType": "address",
          "name": "user",
          "type": "address"
        },
        {
          "internalType": "uint256",
          "name": "index",
          "type": "uint256"
        }
      ],
      "name": "getExpireIn",
      "outputs": [
        {
          "components": [
            {
              "internalType": "uint256",
              "name": "expireIn",
              "type": "uint256"
            },
            {
              "internalType": "uint256",
              "name": "lastUpdated",
              "type": "uint256"
            }
          ],
          "internalType": "struct CONTRewardManagement.AdditionalDataEntity",
          "name": "",
          "type": "tuple"
        }
      ],
      "stateMutability": "view",
      "type": "function"
    },
    {
      "inputs": [
        {
          "internalType": "uint256",
          "name": "time",
          "type": "uint256"
        },
        {
          "internalType": "uint256[]",
          "name": "indexes",
          "type": "uint256[]"
        }
      ],
      "name": "getExtendContractFee",
      "outputs": [
        {
          "internalType": "uint256",
          "name": "",
          "type": "uint256"
        }
      ],
      "stateMutability": "view",
      "type": "function"
    },
    {
      "inputs": [
        {
          "internalType": "address",
          "name": "account",
          "type": "address"
        },
        {
          "internalType": "enum ContType",
          "name": "_cType",
          "type": "uint8"
        }
      ],
      "name": "getNumberOfConts",
      "outputs": [
        {
          "internalType": "uint256",
          "name": "",
          "type": "uint256"
        }
      ],
      "stateMutability": "view",
      "type": "function"
    },
    {
      "inputs": [
        {
          "internalType": "enum ContType",
          "name": "",
          "type": "uint8"
        }
      ],
      "name": "initRewardAPRPerCont",
      "outputs": [
        {
          "internalType": "uint256",
          "name": "",
          "type": "uint256"
        }
      ],
      "stateMutability": "view",
      "type": "function"
    },
    {
      "inputs": [
        {
          "internalType": "uint256[]",
          "name": "_contPrices",
          "type": "uint256[]"
        },
        {
          "internalType": "uint256[]",
          "name": "_rewardAPRs",
          "type": "uint256[]"
        },
        {
          "internalType": "uint256",
          "name": "_cashoutTimeout",
          "type": "uint256"
        },
        {
          "internalType": "uint256",
          "name": "_autoReduceAPRRate",
          "type": "uint256"
        }
      ],
      "name": "initialize",
      "outputs": [],
      "stateMutability": "nonpayable",
      "type": "function"
    },
    {
      "inputs": [
        {
          "internalType": "address",
          "name": "account",
          "type": "address"
        },
        {
          "internalType": "uint256",
          "name": "index",
          "type": "uint256"
        }
      ],
      "name": "isExpiredCont",
      "outputs": [
        {
          "internalType": "bool",
          "name": "",
          "type": "bool"
        }
      ],
      "stateMutability": "view",
      "type": "function"
    },
    {
      "inputs": [],
      "name": "isMonthFeeActive",
      "outputs": [
        {
          "internalType": "bool",
          "name": "",
          "type": "bool"
        }
      ],
      "stateMutability": "view",
      "type": "function"
    },
    {
      "inputs": [],
      "name": "maxIndexMonthFeeLogs",
      "outputs": [
        {
          "internalType": "uint256",
          "name": "",
          "type": "uint256"
        }
      ],
      "stateMutability": "view",
      "type": "function"
    },
    {
      "inputs": [
        {
          "internalType": "uint256",
          "name": "",
          "type": "uint256"
        }
      ],
      "name": "monthFeeLogs",
      "outputs": [
        {
          "internalType": "uint256",
          "name": "currentTime",
          "type": "uint256"
        },
        {
          "internalType": "bool",
          "name": "state",
          "type": "bool"
        }
      ],
      "stateMutability": "view",
      "type": "function"
    },
    {
      "inputs": [
        {
          "internalType": "address",
          "name": "newAdmin",
          "type": "address"
        }
      ],
      "name": "setAdmin",
      "outputs": [],
      "stateMutability": "nonpayable",
      "type": "function"
    },
    {
      "inputs": [
        {
          "internalType": "address",
          "name": "token_",
          "type": "address"
        }
      ],
      "name": "setToken",
      "outputs": [],
      "stateMutability": "nonpayable",
      "type": "function"
    },
    {
      "inputs": [
        {
          "internalType": "address",
          "name": "_feeToken",
          "type": "address"
        },
        {
          "internalType": "uint256",
          "name": "_decreaseFeePercent",
          "type": "uint256"
        },
        {
          "internalType": "uint256",
          "name": "_tesseractFee",
          "type": "uint256"
        },
        {
          "internalType": "uint256",
          "name": "_cubeFee",
          "type": "uint256"
        },
        {
          "internalType": "uint256",
          "name": "_defaultExpireIn",
          "type": "uint256"
        }
      ],
      "name": "setupDataForMonthFee",
      "outputs": [],
      "stateMutability": "nonpayable",
      "type": "function"
    },
    {
      "inputs": [],
      "name": "token",
      "outputs": [
        {
          "internalType": "address",
          "name": "",
          "type": "address"
        }
      ],
      "stateMutability": "view",
      "type": "function"
    },
    {
      "inputs": [],
      "name": "totalContsCreated",
      "outputs": [
        {
          "internalType": "uint256",
          "name": "",
          "type": "uint256"
        }
      ],
      "stateMutability": "view",
      "type": "function"
    },
    {
      "inputs": [
        {
          "internalType": "enum ContType",
          "name": "_cType",
          "type": "uint8"
        }
      ],
      "name": "totalContsPerContType",
      "outputs": [
        {
          "internalType": "uint256",
          "name": "",
          "type": "uint256"
        }
      ],
      "stateMutability": "view",
      "type": "function"
    },
    {
      "inputs": [
        {
          "internalType": "address",
          "name": "",
          "type": "address"
        },
        {
          "internalType": "enum ContType",
          "name": "",
          "type": "uint8"
        }
      ],
      "name": "userAsset",
      "outputs": [
        {
          "internalType": "uint256",
          "name": "",
          "type": "uint256"
        }
      ],
      "stateMutability": "view",
      "type": "function"
    },
    {
      "inputs": [
        {
          "internalType": "address",
          "name": "_user",
          "type": "address"
        }
      ],
      "name": "withdrawFeeToken",
      "outputs": [],
      "stateMutability": "nonpayable",
      "type": "function"
    }
  ],
  "transactionHash": "0x0c01a03bf34f09a3c9742319c0988a838b4d9abffed3f98ca546180bf5c4009e",
  "args": [],
  "numDeployments": 20,
  "solcInputHash": "d3c0dd92c6377c73a6566fd19e79eb2c",
  "bytecode": "0x60806040526013805460ff1916600117905534801561001d57600080fd5b50615bc7806200002e6000396000f3fe608060405234801561001057600080fd5b506004361061032d5760003560e01c8063665bb078116101ae57806393520a80116100ff578063c2202b66116100ad578063e18f03ad1161007c578063e18f03ad1461083b578063f743f31914610844578063fb24f76d14610857578063fc0c546a1461086a57600080fd5b8063c2202b6614610795578063ce6912a3146107b6578063d094fa8d146107c9578063dc73ff5e146107fc57600080fd5b806393520a80146107135780639b28d1a71461071c5780639d078b98146107255780639d2040f0146107455780639f227c5314610758578063a1a99b911461076b578063c19f40d21461078c57600080fd5b80637bed96001161015c5780637bed9600146106735780638201bf26146106a1578063872a60ad146106b4578063879613ae146106c75780638bf14514146106da578063922ca77e146106ed578063927831b41461070057600080fd5b8063665bb078146105f857806367d04cc41461060b57806369f8dfff1461061e5780636bb4d902146106315780636eb5a7f41461063a578063704b6c021461064d57806377ec78261461066057600080fd5b806328cceb241161028357806351bf120c116102315780635dbab6ed116102005780635dbab6ed14610587578063619a635e1461059a57806363a9b098146105ad578063647846a5146105cd57600080fd5b806351bf120c146105455780635402c9c11461055857806355091dad1461056b57806355a757d01461057e57600080fd5b806328cceb241461047c578063367fd0741461049c578063390c991e146104af57806344fea1b9146104c25780634e1f2e76146104d55780634ec7b4291461051c5780634f88de011461052557600080fd5b8063144fa6d7116102e0578063144fa6d7146103cd5780631565f50e146103e05780631a440de6146103f35780631d5a1731146104065780631f7f63c01461041957806320988cef14610447578063252b1b871461045157600080fd5b8062c73e4d1461033257806303bac12a146103585780630534cc681461037557806305f2d8b01461038a5780630b9f6cfe1461039d5780630c12252b146103b05780630d9f9f0c146103ba575b600080fd5b61034561034036600461576c565b61087d565b6040519081526020015b60405180910390f35b6013546103659060ff1681565b604051901515815260200161034f565b6103886103833660046154f4565b61097d565b005b6103456103983660046157d5565b610d0c565b6103456103ab366004615652565b610fb5565b6103456203f48081565b6103886103c83660046157a3565b61119a565b6103886103db3660046154d9565b6111de565b6103886103ee3660046157a3565b611284565b6103886104013660046154d9565b6112c8565b610388610414366004615787565b611329565b61042c610427366004615652565b6113a5565b6040805182518152602092830151928101929092520161034f565b6103456201518081565b61034561045f36600461561f565b601760209081526000928352604080842090915290825290205481565b61048f61048a3660046154d9565b611501565b60405161034f91906158f4565b61048f6104aa3660046154d9565b611749565b6103886104bd3660046157a3565b6119ba565b6103456104d03660046154d9565b6119fe565b6105076104e3366004615652565b60166020908152600092835260408084209091529082529020805460019091015482565b6040805192835260208301919091520161034f565b61034560145481565b61034561053336600461576c565b60076020526000908152604090205481565b61048f6105533660046154d9565b611a1c565b61038861056636600461567c565b611c58565b6103886105793660046154d9565b611d80565b61034560095481565b61048f6105953660046154d9565b611f13565b6103456105a83660046154d9565b61214f565b6103456105bb36600461576c565b60066020526000908152604090205481565b6011546105e0906001600160a01b031681565b6040516001600160a01b03909116815260200161034f565b6103656106063660046154d9565b612325565b610365610619366004615652565b612330565b61034561062c36600461561f565b61235f565b61034560125481565b6103886106483660046156be565b612553565b61038861065b3660046154d9565b61282c565b61048f61066e3660046154d9565b6128d2565b610365610681366004615652565b601060209081526000928352604080842090915290825290205460ff1681565b6103886106af36600461576c565b612b0c565b600c546105e0906001600160a01b031681565b6103886106d5366004615732565b612c4d565b61048f6106e83660046154d9565b612d4b565b6103886106fb3660046157d5565b612f9f565b61034561070e366004615652565b6131ef565b610345600b5481565b610345600a5481565b61034561073336600461576c565b60156020526000908152604090205481565b610388610753366004615787565b6133d5565b610388610766366004615787565b6134ea565b61077e6107793660046154d9565b613673565b60405161034f929190615943565b61034560195481565b6107a86107a3366004615652565b61391f565b60405161034f92919061592f565b6103456107c436600461576c565b613d42565b6107dc6107d73660046154d9565b613d81565b60408051948552602085019390935291830152606082015260800161034f565b61082661080a3660046157a3565b6018602052600090815260409020805460019091015460ff1682565b6040805192835290151560208301520161034f565b610345600e5481565b61048f6108523660046154d9565b6142c3565b6103886108653660046157a3565b6144f8565b600d546105e0906001600160a01b031681565b6000806008600084600381111561089657610896615b54565b60038111156108a7576108a7615b54565b81526020019081526020016000208054905090506000600760008560038111156108d3576108d3615b54565b60038111156108e4576108e4615b54565b815260200190815260200160002054905060005b8281101561097557610961826008600088600381111561091a5761091a615b54565b600381111561092b5761092b615b54565b8152602001908152602001600020838154811061094a5761094a615b80565b90600052602060002090600202016001015461453c565b91508061096d81615b03565b9150506108f8565b509392505050565b600d546001600160a01b031633146109b05760405162461bcd60e51b81526004016109a790615907565b60405180910390fd5b60135460ff16156109c4576109c483614570565b6001600160a01b0383166000908152600560205260405162c73e4d60e01b8152309062c73e4d906109f99085906004016158ad565b60206040518083038186803b158015610a1157600080fd5b505afa158015610a25573d6000803e3d6000fd5b505050506040513d601f19601f82011682018060405250810190610a4991906157bc565b905060005b8351811015610c1b5760056000866001600160a01b03166001600160a01b031681526020019081526020016000206040518060c00160405280868481518110610a9957610a99615b80565b6020026020010151815260200142815260200142815260200184815260200160066000876003811115610ace57610ace615b54565b6003811115610adf57610adf615b54565b8152602001908152602001600020548152602001856003811115610b0557610b05615b54565b905281546001810183556000928352602092839020825180519394600690930290910192610b36928492019061526d565b506020820151816001015560408201518160020155606082015181600301556080820151816004015560a08201518160050160006101000a81548160ff02191690836003811115610b8957610b89615b54565b021790555050506001600160a01b038516600090815260056020526040812054610bb590600190615a6e565b905060405180604001604052806201518042610bd191906159b1565b8152426020918201526001600160a01b0388166000908152601682526040808220948252938252929092208151815591015160019091015580610c1381615b03565b915050610a4e565b506001600160a01b038416600090815260056020526040902054610c43906001908690614737565b8251600e6000828254610c5691906159b1565b90915550508251600f6000846003811115610c7357610c73615b54565b6003811115610c8457610c84615b54565b81526020019081526020016000206000828254610ca191906159b1565b909155505082516001600160a01b038516600090815260176020526040812090846003811115610cd357610cd3615b54565b6003811115610ce457610ce4615b54565b81526020019081526020016000206000828254610d0191906159b1565b909155505050505050565b6000806060610d1c33600261235f565b81600281518110610d2f57610d2f615b80565b602002602001018181525050610d4633600161235f565b81600181518110610d5957610d59615b80565b60200260200101818152505060005b8451811015610fa9576000858281518110610d8557610d85615b80565b60200260200101519050600060056000336001600160a01b03166001600160a01b031681526020019081526020016000208281548110610dc757610dc7615b80565b90600052602060002090600602016040518060c0016040529081600082018054610df090615ac8565b80601f0160208091040260200160405190810160405280929190818152602001828054610e1c90615ac8565b8015610e695780601f10610e3e57610100808354040283529160200191610e69565b820191906000526020600020905b815481529060010190602001808311610e4c57829003601f168201915b50505091835250506001820154602082015260028201546040820152600380830154606083015260048301546080830152600583015460a09092019160ff1690811115610eb857610eb8615b54565b6003811115610ec957610ec9615b54565b8152505090506000848260a001516003811115610ee857610ee8615b54565b81518110610ef857610ef8615b80565b6020026020010151601254610f0d9190615a10565b905060006305f5e100610f208382615a6e565b601560008660a001516003811115610f3a57610f3a615b54565b6003811115610f4b57610f4b615b54565b815260200190815260200160002054610f649190615a10565b610f6e91906159ee565b905062015180610f7e8b83615a10565b610f8891906159ee565b610f9290886159b1565b96505050505080610fa290615b03565b9050610d68565b50909150505b92915050565b6001600160a01b038216600090815260056020908152604080832080548251818502810185019093528083528493849084015b8282101561110757838290600052602060002090600602016040518060c001604052908160008201805461101b90615ac8565b80601f016020809104026020016040519081016040528092919081815260200182805461104790615ac8565b80156110945780601f1061106957610100808354040283529160200191611094565b820191906000526020600020905b81548152906001019060200180831161107757829003601f168201915b50505091835250506001820154602082015260028201546040820152600380830154606083015260048301546080830152600583015460a09092019160ff16908111156110e3576110e3615b54565b60038111156110f4576110f4615b54565b8152505081526020019060010190610fe8565b50508251929350505080841061115f5760405162461bcd60e51b815260206004820152601c60248201527f434f4e543a20436f6e7420696e64657820697320696d70726f7065720000000060448201526064016109a7565b600082858151811061117357611173615b80565b60200260200101519050600061118f86838460400151426147e0565b979650505050505050565b600d546001600160a01b03163314806111bd5750600c546001600160a01b031633145b6111d95760405162461bcd60e51b81526004016109a790615907565b600b55565b600d546001600160a01b03163314806112015750600c546001600160a01b031633145b61121d5760405162461bcd60e51b81526004016109a790615907565b6001600160a01b0381166112625760405162461bcd60e51b815260206004820152600c60248201526b7a65726f206164647265737360a01b60448201526064016109a7565b600d80546001600160a01b0319166001600160a01b0392909216919091179055565b600d546001600160a01b03163314806112a75750600c546001600160a01b031633145b6112c35760405162461bcd60e51b81526004016109a790615907565b600a55565b600d546001600160a01b03163314806112eb5750600c546001600160a01b031633145b6113075760405162461bcd60e51b81526004016109a790615907565b601180546001600160a01b0319166001600160a01b0392909216919091179055565b600d546001600160a01b031633148061134c5750600c546001600160a01b031633145b6113685760405162461bcd60e51b81526004016109a790615907565b806006600084600381111561137f5761137f615b54565b600381111561139057611390615b54565b81526020810191909152604001600020555050565b60408051808201909152600080825260208201526001600160a01b038316600090815260166020908152604080832085845282529182902082518084019093528054808452600190910154918301919091526114015760145481525b6000805b601954811161148f576000818152601860209081526040918290208251808401909352805480845260019091015460ff16151583830152908501511061144b575061147f565b6020810151151560011415611478576020840151815161146b90856159b1565b6114759190615a6e565b92505b5160208401525b61148881615b03565b9050611405565b506019546000908152601860205260409020544211156114e35760135460ff166114dc576019546000908152601860205260409020546114cf42836159b1565b6114d99190615a6e565b90505b4260208301525b80826000018181516114f591906159b1565b90525090949350505050565b606061150c8261481b565b61152457505060408051602081019091526000815290565b6001600160a01b038216600090815260056020908152604080832080548251818502810185019093528083529192909190849084015b8282101561167957838290600052602060002090600602016040518060c001604052908160008201805461158d90615ac8565b80601f01602080910402602001604051908101604052809291908181526020018280546115b990615ac8565b80156116065780601f106115db57610100808354040283529160200191611606565b820191906000526020600020905b8154815290600101906020018083116115e957829003601f168201915b50505091835250506001820154602082015260028201546040820152600380830154606083015260048301546080830152600583015460a09092019160ff169081111561165557611655615b54565b600381111561166657611666615b54565b815250508152602001906001019061155a565b50505050905060008151905061168d6152f1565b60006116b6846000815181106116a5576116a5615b80565b602002602001015160200151614838565b604080518082019091526001808252602360f81b6020830152919250905b8481101561173d578581815181106116ee576116ee615b80565b6020026020010151935082826117078660200151614838565b6040516020016117199392919061586a565b6040516020818303038152906040529250808061173590615b03565b9150506116d4565b50909695505050505050565b60606117548261481b565b61176c57505060408051602081019091526000815290565b6001600160a01b038216600090815260056020908152604080832080548251818502810185019093528083529192909190849084015b828210156118c157838290600052602060002090600602016040518060c00160405290816000820180546117d590615ac8565b80601f016020809104026020016040519081016040528092919081815260200182805461180190615ac8565b801561184e5780601f106118235761010080835404028352916020019161184e565b820191906000526020600020905b81548152906001019060200180831161183157829003601f168201915b50505091835250506001820154602082015260028201546040820152600380830154606083015260048301546080830152600583015460a09092019160ff169081111561189d5761189d615b54565b60038111156118ae576118ae615b54565b81525050815260200190600101906117a2565b5050825192935042915060009050611917611912828681876118e5576118e5615b80565b60200260200101518760008151811061190057611900615b80565b602002602001015160400151866147e0565b614838565b604080518082019091526001808252602360f81b6020830152919250905b8481101561173d578282611984611912848a868151811061195857611958615b80565b60200260200101518b878151811061197257611972615b80565b6020026020010151604001518a6147e0565b6040516020016119969392919061586a565b604051602081830303815290604052925080806119b290615b03565b915050611935565b600d546001600160a01b03163314806119dd5750600c546001600160a01b031633145b6119f95760405162461bcd60e51b81526004016109a790615907565b600955565b6001600160a01b038116600090815260026020526040812054610faf565b6060611a278261481b565b611a3f57505060408051602081019091526000815290565b6001600160a01b038216600090815260056020908152604080832080548251818502810185019093528083529192909190849084015b82821015611b9457838290600052602060002090600602016040518060c0016040529081600082018054611aa890615ac8565b80601f0160208091040260200160405190810160405280929190818152602001828054611ad490615ac8565b8015611b215780601f10611af657610100808354040283529160200191611b21565b820191906000526020600020905b815481529060010190602001808311611b0457829003601f168201915b50505091835250506001820154602082015260028201546040820152600380830154606083015260048301546080830152600583015460a09092019160ff1690811115611b7057611b70615b54565b6003811115611b8157611b81615b54565b8152505081526020019060010190611a75565b505050509050600081519050611ba86152f1565b6000611bd184600081518110611bc057611bc0615b80565b602002602001015160400151614838565b604080518082019091526001808252602360f81b6020830152919250905b8481101561173d57858181518110611c0957611c09615b80565b602002602001015193508282611c228660400151614838565b604051602001611c349392919061586a565b60405160208183030381529060405292508080611c5090615b03565b915050611bef565b600d546001600160a01b0316331480611c7b5750600c546001600160a01b031633145b611c975760405162461bcd60e51b81526004016109a790615907565b601180546001600160a01b0319166001600160a01b0396909616959095179094556012929092557f07d4ff730d9753101d832555708a37d38c2c45fce8cacaefc99f06074e93fe0b557f27739e4bb5e6f8b5e4b57a047dca8767cc9b982a011081e086cbb0dfa9de818d5560145560408051808201909152428152600160208083019182526000808052601890915291517f999d26de3473317ead3eeaf34ca78057f1439db67b6953469c3c96ce9caf6bd755517f999d26de3473317ead3eeaf34ca78057f1439db67b6953469c3c96ce9caf6bd8805460ff1916911515919091179055601955565b600d546001600160a01b0316331480611da35750600c546001600160a01b031633145b611dbf5760405162461bcd60e51b81526004016109a790615907565b6011546040516370a0823160e01b81523060048201526000916001600160a01b0316906370a082319060240160206040518083038186803b158015611e0357600080fd5b505afa158015611e17573d6000803e3d6000fd5b505050506040513d601f19601f82011682018060405250810190611e3b91906157bc565b60115460405163a9059cbb60e01b81526001600160a01b0385811660048301526024820184905292935091169063a9059cbb90604401602060405180830381600087803b158015611e8b57600080fd5b505af1158015611e9f573d6000803e3d6000fd5b505050506040513d601f19601f82011682018060405250810190611ec3919061574f565b611f0f5760405162461bcd60e51b815260206004820152601b60248201527f4d4f4e54485f4645455f57495448445241573a20494e56414c4944000000000060448201526064016109a7565b5050565b6060611f1e8261481b565b611f3657505060408051602081019091526000815290565b6001600160a01b038216600090815260056020908152604080832080548251818502810185019093528083529192909190849084015b8282101561208b57838290600052602060002090600602016040518060c0016040529081600082018054611f9f90615ac8565b80601f0160208091040260200160405190810160405280929190818152602001828054611fcb90615ac8565b80156120185780601f10611fed57610100808354040283529160200191612018565b820191906000526020600020905b815481529060010190602001808311611ffb57829003601f168201915b50505091835250506001820154602082015260028201546040820152600380830154606083015260048301546080830152600583015460a09092019160ff169081111561206757612067615b54565b600381111561207857612078615b54565b8152505081526020019060010190611f6c565b50505050905060008151905061209f6152f1565b60006120c8846000815181106120b7576120b7615b80565b602002602001015160600151614838565b604080518082019091526001808252602360f81b6020830152919250905b8481101561173d5785818151811061210057612100615b80565b6020026020010151935082826121198660600151614838565b60405160200161212b9392919061586a565b6040516020818303038152906040529250808061214790615b03565b9150506120e6565b600061215a8261481b565b61216657506000919050565b6001600160a01b038216600090815260056020908152604080832080548251818502810185019093528083528493849084015b828210156122b857838290600052602060002090600602016040518060c00160405290816000820180546121cc90615ac8565b80601f01602080910402602001604051908101604052809291908181526020018280546121f890615ac8565b80156122455780601f1061221a57610100808354040283529160200191612245565b820191906000526020600020905b81548152906001019060200180831161222857829003601f168201915b50505091835250506001820154602082015260028201546040820152600380830154606083015260048301546080830152600583015460a09092019160ff169081111561229457612294615b54565b60038111156122a5576122a5615b54565b8152505081526020019060010190612199565b5050825192935060009150505b8181101561231b5760008382815181106122e1576122e1615b80565b602002602001015190506122fb82828360400151426147e0565b61230590866159b1565b945050808061231390615b03565b9150506122c5565b5091949350505050565b6000610faf8261481b565b60008061233d84846113a5565b90504281600001511015612355576001915050610faf565b5060009392505050565b6001600160a01b038216600090815260056020908152604080832080548251818502810185019093528083528493849084015b828210156124b157838290600052602060002090600602016040518060c00160405290816000820180546123c590615ac8565b80601f01602080910402602001604051908101604052809291908181526020018280546123f190615ac8565b801561243e5780601f106124135761010080835404028352916020019161243e565b820191906000526020600020905b81548152906001019060200180831161242157829003601f168201915b50505091835250506001820154602082015260028201546040820152600380830154606083015260048301546080830152600583015460a09092019160ff169081111561248d5761248d615b54565b600381111561249e5761249e615b54565b8152505081526020019060010190612392565b505050509050600080600090505b825181101561254a578460038111156124da576124da615b54565b8382815181106124ec576124ec615b80565b602002602001015160a00151600381111561250957612509615b54565b146125135761253a565b600061251f87836113a5565b9050428160000151106125385761253583615b03565b92505b505b61254381615b03565b90506124bf565b50949350505050565b600054610100900460ff1661256e5760005460ff1615612572565b303b155b6125d55760405162461bcd60e51b815260206004820152602e60248201527f496e697469616c697a61626c653a20636f6e747261637420697320616c72656160448201526d191e481a5b9a5d1a585b1a5e995960921b60648201526084016109a7565b600054610100900460ff161580156125f7576000805461ffff19166101011790555b6301e13380600a556000600e81905542905b60038110156127f55786818151811061262457612624615b80565b60200260200101516006600083600381111561264257612642615b54565b600381111561265357612653615b54565b600381111561266457612664615b54565b81526020019081526020016000208190555085818151811061268857612688615b80565b6020026020010151600760008360038111156126a6576126a6615b54565b60038111156126b7576126b7615b54565b60038111156126c8576126c8615b54565b8152602001908152602001600020819055506000600f60008360038111156126f2576126f2615b54565b600381111561270357612703615b54565b600381111561271457612714615b54565b8152602001908152602001600020819055506008600082600381111561273c5761273c615b54565b600381111561274d5761274d615b54565b600381111561275e5761275e615b54565b8152602001526008600082600381111561277a5761277a615b54565b600381111561278b5761278b615b54565b600381111561279c5761279c615b54565b8152602080820192909252604090810160009081208251808401909352858352828401828152815460018181018455928452949092209251600290940290920192835551910155806127ed81615b03565b915050612609565b50506009839055600c80546001600160a01b03191633179055600b8290558015612825576000805461ff00191690555b5050505050565b600d546001600160a01b031633148061284f5750600c546001600160a01b031633145b61286b5760405162461bcd60e51b81526004016109a790615907565b6001600160a01b0381166128b05760405162461bcd60e51b815260206004820152600c60248201526b7a65726f206164647265737360a01b60448201526064016109a7565b600c80546001600160a01b0319166001600160a01b0392909216919091179055565b60606128dd8261481b565b6128f557505060408051602081019091526000815290565b6001600160a01b038216600090815260056020908152604080832080548251818502810185019093528083529192909190849084015b82821015612a4a57838290600052602060002090600602016040518060c001604052908160008201805461295e90615ac8565b80601f016020809104026020016040519081016040528092919081815260200182805461298a90615ac8565b80156129d75780601f106129ac576101008083540402835291602001916129d7565b820191906000526020600020905b8154815290600101906020018083116129ba57829003601f168201915b50505091835250506001820154602082015260028201546040820152600380830154606083015260048301546080830152600583015460a09092019160ff1690811115612a2657612a26615b54565b6003811115612a3757612a37615b54565b815250508152602001906001019061292b565b505050509050600081519050612a5e6152f1565b6000612a8661191285600081518110612a7957612a79615b80565b6020026020010151614958565b604080518082019091526001808252602360f81b6020830152919250905b8481101561173d57858181518110612abe57612abe615b80565b602002602001015193508282612ad661191287614958565b604051602001612ae89392919061586a565b60405160208183030381529060405292508080612b0490615b03565b915050612aa4565b600d546001600160a01b0316331480612b2f5750600c546001600160a01b031633145b612b4b5760405162461bcd60e51b81526004016109a790615907565b600060086000836003811115612b6357612b63615b54565b6003811115612b7457612b74615b54565b8152602081019190915260400160002054905060018111612be75760405162461bcd60e51b815260206004820152602760248201527f554e444f204348414e47453a204e6f206368616e67657320666f756e6420666f6044820152667220635479706560c81b60648201526084016109a7565b60086000836003811115612bfd57612bfd615b54565b6003811115612c0e57612c0e615b54565b8152602001908152602001600020805480612c2b57612c2b615b6a565b6000828152602081206002600019909301928302018181556001015590555050565b600d546001600160a01b0316331480612c705750600c546001600160a01b031633145b612c8c5760405162461bcd60e51b81526004016109a790615907565b60135460ff1615158115151415612ce55760405162461bcd60e51b815260206004820152601960248201527f4d4f4e54485f4645453a20494e56414c4944205354415455530000000000000060448201526064016109a7565b6013805460ff191682151517905560198054906000612d0383615b03565b90915550506040805180820182524281529115156020808401918252601954600090815260189091529190912091518255516001909101805460ff1916911515919091179055565b6060612d568261481b565b612d6e57505060408051602081019091526000815290565b6001600160a01b038216600090815260056020908152604080832080548251818502810185019093528083529192909190849084015b82821015612ec357838290600052602060002090600602016040518060c0016040529081600082018054612dd790615ac8565b80601f0160208091040260200160405190810160405280929190818152602001828054612e0390615ac8565b8015612e505780601f10612e2557610100808354040283529160200191612e50565b820191906000526020600020905b815481529060010190602001808311612e3357829003601f168201915b50505091835250506001820154602082015260028201546040820152600380830154606083015260048301546080830152600583015460a09092019160ff1690811115612e9f57612e9f615b54565b6003811115612eb057612eb0615b54565b8152505081526020019060010190612da4565b505050509050600081519050612ed76152f1565b6000612f0c84600081518110612eef57612eef615b80565b602002602001015160a00151600381111561191257611912615b54565b604080518082019091526001808252602360f81b6020830152919250905b8481101561173d57858181518110612f4457612f44615b80565b602002602001015193508282612f698660a00151600381111561191257611912615b54565b604051602001612f7b9392919061586a565b60405160208183030381529060405292508080612f9790615b03565b915050612f2a565b62015180821480612fb257506203f48082145b612ffe5760405162461bcd60e51b815260206004820152601960248201527f4d4f4e54485f4645453a204e6f742076616c69642074696d650000000000000060448201526064016109a7565b600061300a8383610d0c565b6011546040516323b872dd60e01b8152336004820152306024820152604481018390529192506001600160a01b0316906323b872dd90606401602060405180830381600087803b15801561305d57600080fd5b505af1158015613071573d6000803e3d6000fd5b505050506040513d601f19601f82011682018060405250810190613095919061574f565b6130d85760405162461bcd60e51b81526020600482015260146024820152731353d3951217d191514e88139bdd081d985b1a5960621b60448201526064016109a7565b60005b82518110156131e9576000613109338584815181106130fc576130fc615b80565b60200260200101516113a5565b9050428160000151101561316b5760405162461bcd60e51b8152602060048201526024808201527f4d4f4e54485f4645453a20436f6e747261637420686173206265656e206578706044820152631a5c995960e21b60648201526084016109a7565b848160000181815161317d91906159b1565b9052504260208083019190915233600090815260169091526040812085518392908790869081106131b0576131b0615b80565b60209081029190910181015182528181019290925260400160002082518155910151600190910155506131e281615b03565b90506130db565b50505050565b6001600160a01b038216600090815260056020908152604080832080548251818502810185019093528083528493849084015b8282101561334157838290600052602060002090600602016040518060c001604052908160008201805461325590615ac8565b80601f016020809104026020016040519081016040528092919081815260200182805461328190615ac8565b80156132ce5780601f106132a3576101008083540402835291602001916132ce565b820191906000526020600020905b8154815290600101906020018083116132b157829003601f168201915b50505091835250506001820154602082015260028201546040820152600380830154606083015260048301546080830152600583015460a09092019160ff169081111561331d5761331d615b54565b600381111561332e5761332e615b54565b8152505081526020019060010190613222565b5050825192935050508084106133995760405162461bcd60e51b815260206004820152601c60248201527f434f4e543a20436f6e7420696e64657820697320696d70726f7065720000000060448201526064016109a7565b60008285815181106133ad576133ad615b80565b602002602001015190506133cb8582836020015184604001516147e0565b9695505050505050565b600d546001600160a01b03163314806133f85750600c546001600160a01b031633145b6134145760405162461bcd60e51b81526004016109a790615907565b6305f5e10081126134785760405162461bcd60e51b815260206004820152602860248201527f5245445543455f5257443a20646f206e6f7420726564756365206d6f7265207460448201526768616e203130302560c01b60648201526084016109a7565b6008600083600381111561348e5761348e615b54565b600381111561349f5761349f615b54565b81526020808201929092526040908101600090812082518084019093524283528284019485528054600181810183559183529390912091516002909302909101918255915191015550565b600d546001600160a01b031633148061350d5750600c546001600160a01b031633145b6135295760405162461bcd60e51b81526004016109a790615907565b806007600084600381111561354057613540615b54565b600381111561355157613551615b54565b81526020019081526020016000208190555060006008600084600381111561357b5761357b615b54565b600381111561358c5761358c615b54565b81526020019081526020016000206000815481106135ac576135ac615b80565b9060005260206000209060020201600001549050600860008460038111156135d6576135d6615b54565b60038111156135e7576135e7615b54565b815260200190815260200160002060006136019190615337565b6008600084600381111561361757613617615b54565b600381111561362857613628615b54565b81526020808201929092526040908101600090812082518084019093529382528183018181528454600181810187559583529390912091516002909302909101918255519101555050565b600060606136808361481b565b61369c5750506040805160208101909152600080825292909150565b6001600160a01b038316600090815260056020908152604080832080548251818502810185019093528083529192909190849084015b828210156137f157838290600052602060002090600602016040518060c001604052908160008201805461370590615ac8565b80601f016020809104026020016040519081016040528092919081815260200182805461373190615ac8565b801561377e5780601f106137535761010080835404028352916020019161377e565b820191906000526020600020905b81548152906001019060200180831161376157829003601f168201915b50505091835250506001820154602082015260028201546040820152600380830154606083015260048301546080830152600583015460a09092019160ff16908111156137cd576137cd615b54565b60038111156137de576137de615b54565b81525050815260200190600101906136d2565b505082519293506000915061385c90508184818561381157613811615b80565b60200260200101518560008151811061382c5761382c615b80565b6020026020010151602001518660008151811061384b5761384b615b80565b6020026020010151604001516147e0565b905080945061386a81614838565b604080518082019091526001808252602360f81b6020830152919550905b838110156139155760008582815181106138a4576138a4615b80565b6020026020010151905060006138c48383846020015185604001516147e0565b90506138d0818a6159b1565b985087846138dd83614838565b6040516020016138ef9392919061586a565b60405160208183030381529060405297505050808061390d90615b03565b915050613888565b5050505050915091565b600d5460009081906001600160a01b0316331461394e5760405162461bcd60e51b81526004016109a790615907565b60135460ff1615613963576139638484614964565b6001600160a01b0384166000908152600560205260409020805484106139bf5760405162461bcd60e51b815260206004820152601160248201527021a7a72a1d1024b73232bc1022b93937b960791b60448201526064016109a7565b60008185815481106139d3576139d3615b80565b906000526020600020906006020190506139f08160020154614db6565b613a625760405162461bcd60e51b815260206004820152603a60248201527f434153484f5554204552524f523a20596f75206861766520746f20776169742060448201527f6265666f726520636c61696d696e67207468697320636f6e742e00000000000060648201526084016109a7565b60004290506000613b7087846040518060c0016040529081600082018054613a8990615ac8565b80601f0160208091040260200160405190810160405280929190818152602001828054613ab590615ac8565b8015613b025780601f10613ad757610100808354040283529160200191613b02565b820191906000526020600020905b815481529060010190602001808311613ae557829003601f168201915b50505091835250506001820154602082015260028201546040820152600380830154606083015260048301546080830152600583015460a09092019160ff1690811115613b5157613b51615b54565b6003811115613b6257613b62615b54565b9052506002860154856147e0565b600284018390556001600160a01b03891660009081526010602090815260408083208b845290915290205490915060ff16613d2b57613cac87846040518060c0016040529081600082018054613bc590615ac8565b80601f0160208091040260200160405190810160405280929190818152602001828054613bf190615ac8565b8015613c3e5780601f10613c1357610100808354040283529160200191613c3e565b820191906000526020600020905b815481529060010190602001808311613c2157829003601f168201915b50505091835250506001820154602082015260028201546040820152600380830154606083015260048301546080830152600583015460a09092019160ff1690811115613c8d57613c8d615b54565b6003811115613c9e57613c9e615b54565b9052506001860154426147e0565b836004015411613d2b576001600160a01b03881660009081526010602090815260408083208a845290915290819020805460ff19166001908117909155600585015491517f973cb5e7d2831babd05fc3de4db9926ae3b4301b00c92c3542e0771ea471b0fd92613d229260ff91909116916158bb565b60405180910390a15b6005909201549194505060ff169150509250929050565b6000600f6000836003811115613d5a57613d5a615b54565b6003811115613d6b57613d6b615b54565b8152602001908152602001600020549050919050565b600d546000908190819081906001600160a01b03163314613db45760405162461bcd60e51b81526004016109a790615907565b60135460ff1615613dc857613dc885614570565b6001600160a01b0385166000908152600560205260409020805480613e475760405162461bcd60e51b815260206004820152602f60248201527f434153484f5554204552524f523a20596f7520646f6e2774206861766520636f60448201526e1b9d1cc81d1bc818d85cda0b5bdd5d608a1b60648201526084016109a7565b604080516060808201835260008083526020808401829052838501829052845192830185528183528201819052928101839052829190825b858110156141f357868181548110613e9957613e99615b80565b906000526020600020906006020194506000613fb282876040518060c0016040529081600082018054613ecb90615ac8565b80601f0160208091040260200160405190810160405280929190818152602001828054613ef790615ac8565b8015613f445780601f10613f1957610100808354040283529160200191613f44565b820191906000526020600020905b815481529060010190602001808311613f2757829003601f168201915b50505091835250506001820154602082015260028201546040820152600380830154606083015260048301546080830152600583015460a09092019160ff1690811115613f9357613f93615b54565b6003811115613fa457613fa4615b54565b9052506002890154426147e0565b9050613fbe81866159b1565b60058701549095508190859060ff166003811115613fde57613fde615b54565b60ff1660038110613ff157613ff1615b80565b6020020181815161400291906159b1565b9052504260028701556001600160a01b038d16600090815260106020908152604080832085845290915290205460ff16158015614149575061414182876040518060c001604052908160008201805461405a90615ac8565b80601f016020809104026020016040519081016040528092919081815260200182805461408690615ac8565b80156140d35780601f106140a8576101008083540402835291602001916140d3565b820191906000526020600020905b8154815290600101906020018083116140b657829003601f168201915b50505091835250506001820154602082015260028201546040820152600380830154606083015260048301546080830152600583015460a09092019160ff169081111561412257614122615b54565b600381111561413357614133615b54565b9052506001890154426147e0565b866004015411155b156141e0576001600160a01b038d1660009081526010602090815260408083208584529091528120805460ff19166001179055600587015460ff16600381111561419557614195615b54565b9050838160ff16600381106141ac576141ac615b80565b60200201516141bc9060016159c9565b848260ff16600381106141d1576141d1615b80565b60ff9092166020929092020152505b50806141eb81615b03565b915050613e7f565b5060005b60038160ff1610156142a1576000828260ff166003811061421a5761421a615b80565b602002015160ff16111561428f577f973cb5e7d2831babd05fc3de4db9926ae3b4301b00c92c3542e0771ea471b0fd8160ff16600381111561425e5761425e615b54565b838360ff166003811061427357614273615b80565b60200201516040516142869291906158d6565b60405180910390a15b8061429981615b1e565b9150506141f7565b505080516020820151604090920151929b909a50909850909650945050505050565b60606142ce8261481b565b6142e657505060408051602081019091526000815290565b6001600160a01b038216600090815260056020908152604080832080548251818502810185019093528083529192909190849084015b8282101561443b57838290600052602060002090600602016040518060c001604052908160008201805461434f90615ac8565b80601f016020809104026020016040519081016040528092919081815260200182805461437b90615ac8565b80156143c85780601f1061439d576101008083540402835291602001916143c8565b820191906000526020600020905b8154815290600101906020018083116143ab57829003601f168201915b50505091835250506001820154602082015260028201546040820152600380830154606083015260048301546080830152600583015460a09092019160ff169081111561441757614417615b54565b600381111561442857614428615b54565b815250508152602001906001019061431c565b50505050905060008151905061444f6152f1565b60008360008151811061446457614464615b80565b60200260200101516000015190506000604051806040016040528060018152602001602360f81b81525090506000600190505b8481101561173d578581815181106144b1576144b1615b80565b60200260200101519350828285600001516040516020016144d49392919061586a565b604051602081830303815290604052925080806144f090615b03565b915050614497565b600d546001600160a01b031633148061451b5750600c546001600160a01b031633145b6145375760405162461bcd60e51b81526004016109a790615907565b601255565b60008061454d836305f5e100615a2f565b90506305f5e10061455e8286615a10565b61456891906159ee565b949350505050565b6001600160a01b038116600090815260056020908152604080832080548251818502810185019093528083529192909190849084015b828210156146c557838290600052602060002090600602016040518060c00160405290816000820180546145d990615ac8565b80601f016020809104026020016040519081016040528092919081815260200182805461460590615ac8565b80156146525780601f1061462757610100808354040283529160200191614652565b820191906000526020600020905b81548152906001019060200180831161463557829003601f168201915b50505091835250506001820154602082015260028201546040820152600380830154606083015260048301546080830152600583015460a09092019160ff16908111156146a1576146a1615b54565b60038111156146b2576146b2615b54565b81525050815260200190600101906145a6565b5050505090506000600182516146db9190615a6e565b905060005b82518110156131e957818111156146f6576131e9565b6147008482614964565b6001600160a01b03841660009081526005602052604090205461472590600190615a6e565b915061473081615b03565b90506146e0565b6001600160a01b038216600090815260038401602052604090205460ff161561477c576001600160a01b03821660009081526001840160205260409020819055505050565b6001600160a01b03821660008181526003850160209081526040808320805460ff19166001908117909155878101835281842086905587546002890184529184208290558101875586835291200180546001600160a01b0319169091179055505050565b60135460009060ff1680156147fa57506147fa3386612330565b1561480757506000614568565b614812848484614dcf565b95945050505050565b6001600160a01b0316600090815260026020526040902054151590565b60608161485c5750506040805180820190915260018152600360fc1b602082015290565b8160005b8115614886578061487081615b03565b915061487f9050600a836159ee565b9150614860565b60008167ffffffffffffffff8111156148a1576148a1615b96565b6040519080825280601f01601f1916602001820160405280156148cb576020820181803683370190505b509050815b851561254a576148e1600182615a6e565b905060006148f0600a886159ee565b6148fb90600a615a10565b6149059088615a6e565b6149109060306159c9565b905060008160f81b90508084848151811061492d5761492d615b80565b60200101906001600160f81b031916908160001a90535061494f600a896159ee565b975050506148d0565b6000610faf82426150ce565b600061497083836113a5565b9050428160000151106149b1576001600160a01b03909216600090815260166020908152604080832093835292815291902082518155910151600190910155565b6001600160a01b03831660009081526005602052604081208054849081106149db576149db615b80565b90600052602060002090600602016040518060c0016040529081600082018054614a0490615ac8565b80601f0160208091040260200160405190810160405280929190818152602001828054614a3090615ac8565b8015614a7d5780601f10614a5257610100808354040283529160200191614a7d565b820191906000526020600020905b815481529060010190602001808311614a6057829003601f168201915b50505091835250506001820154602082015260028201546040820152600380830154606083015260048301546080830152600583015460a09092019160ff1690811115614acc57614acc615b54565b6003811115614add57614add615b54565b9052506001600160a01b03851660009081526005602052604081205491925090614b0990600190615a6e565b6001600160a01b038616600090815260056020526040902080549192509082908110614b3757614b37615b80565b906000526020600020906006020160056000876001600160a01b03166001600160a01b031681526020019081526020016000208581548110614b7b57614b7b615b80565b90600052602060002090600602016000820181600001908054614b9d90615ac8565b614ba892919061535b565b5060018281015482820155600280840154908301556003808401548184015560048085015490840155600580850154908401805460ff90921693909260ff19909216918490811115614bfc57614bfc615b54565b021790555050506001600160a01b03851660008181526016602090815260408083208584528252808320888452818420815481556001918201549101559282526005905220805480614c5057614c50615b6a565b60008281526020812060001990920191600683020190614c7082826153d6565b50600060018281018290556002830182905560038301829055600483018290556005928301805460ff19169055929093556001600160a01b038816808452601660209081526040808620878752825280862086815585018690559185529190915290912054614ce191908790614737565b6001600e6000828254614cf49190615a6e565b925050819055506001600f60008460a001516003811115614d1757614d17615b54565b6003811115614d2857614d28615b54565b81526020019081526020016000206000828254614d459190615a6e565b90915550506001600160a01b038516600090815260176020526040812060a0840151600192906003811115614d7c57614d7c615b54565b6003811115614d8d57614d8d615b54565b81526020019081526020016000206000828254614daa9190615a6e565b90915550505050505050565b60004260095483614dc791906159b1565b111592915050565b600081831115614e185760405162461bcd60e51b815260206004820152601460248201527377726f6e6720747374616d707320706172616d7360601b60448201526064016109a7565b8360200151831015614e5f5760405162461bcd60e51b815260206004820152601060248201526f1b19599d081d1cdd185b5c1cc818985960821b60448201526064016109a7565b60a08401516000614e708286615178565b90506000614e7e8386615178565b60808801519091506000614e9289896150ce565b60208a01516000975090915088908790819081885b88811015614ffa57600860008c6003811115614ec557614ec5615b54565b6003811115614ed657614ed6615b54565b81526020019081526020016000208181548110614ef557614ef5615b80565b9060005260206000209060020201600001549450614f138684615253565b614f1d8685615253565b1480159250614f5557614f308684615253565b614f3b9060016159b1565b600a54614f489190615a10565b614f5290846159b1565b94505b614f5f8686615a6e565b93508495506301e13380846305f5e100898b614f7b9190615a10565b614f8591906159ee565b614f8f9190615a10565b614f9991906159ee565b614fa3908d6159b1565b9b508115614fcb57614fb787600b5461453c565b965080614fc381615ab1565b915050614fe8565b614fe587600860008e600381111561091a5761091a615b54565b96505b80614ff281615b03565b915050614ea7565b505b8b85146150bc578b93506150108583615253565b61501a8584615253565b14801591506150525761502d8583615253565b6150389060016159b1565b600a546150459190615a10565b61504f90836159b1565b93505b61505c8585615a6e565b92508394506301e13380836305f5e100888a6150789190615a10565b61508291906159ee565b61508c9190615a10565b61509691906159ee565b6150a0908c6159b1565b9a5080156150b7576150b486600b5461453c565b95505b614ffc565b505050505050505050505b9392505050565b602082015160a083015160608401516000929190836150ed8385615178565b905060006150fb8488615178565b9050815b8181101561513557615121846008600088600381111561091a5761091a615b54565b93508061512d81615b03565b9150506150ff565b5060006151428887615253565b90505b801561516b578061515581615ab1565b91505061516484600b5461453c565b9350615145565b5091979650505050505050565b6000808060088186600381111561519157615191615b54565b60038111156151a2576151a2615b54565b815260208101919091526040016000205490505b8181111561097557600060026151cc83856159b1565b6151d691906159ee565b905084600860008860038111156151ef576151ef615b54565b600381111561520057615200615b54565b8152602001908152602001600020828154811061521f5761521f615b80565b9060005260206000209060020201600001541015615249576152428160016159b1565b925061524d565b8091505b506151b6565b600a546000906152638385615a6e565b6150c791906159ee565b82805461527990615ac8565b90600052602060002090601f01602090048101928261529b57600085556152e1565b82601f106152b457805160ff19168380011785556152e1565b828001600101855582156152e1579182015b828111156152e15782518255916020019190600101906152c6565b506152ed92915061540c565b5090565b6040518060c0016040528060608152602001600081526020016000815260200160008152602001600081526020016000600381111561533257615332615b54565b905290565b50805460008255600202906000526020600020908101906153589190615421565b50565b82805461536790615ac8565b90600052602060002090601f01602090048101928261538957600085556152e1565b82601f1061539a57805485556152e1565b828001600101855582156152e157600052602060002091601f016020900482015b828111156152e15782548255916001019190600101906153bb565b5080546153e290615ac8565b6000825580601f106153f2575050565b601f01602090049060005260206000209081019061535891905b5b808211156152ed576000815560010161540d565b5b808211156152ed5760008082556001820155600201615422565b80356001600160a01b038116811461545357600080fd5b919050565b600082601f83011261546957600080fd5b8135602061547e6154798361598d565b61595c565b80838252828201915082860187848660051b890101111561549e57600080fd5b60005b858110156154bd578135845292840192908401906001016154a1565b5090979650505050505050565b80356004811061545357600080fd5b6000602082840312156154eb57600080fd5b6150c78261543c565b60008060006060848603121561550957600080fd5b6155128461543c565b925060208085013567ffffffffffffffff8082111561553057600080fd5b818701915087601f83011261554457600080fd5b81356155526154798261598d565b8082825285820191508585018b878560051b880101111561557257600080fd5b60005b848110156155ff5781358681111561558c57600080fd5b8701603f81018e1361559d57600080fd5b88810135878111156155b1576155b1615b96565b6155c3601f8201601f19168b0161595c565b8181528f60408385010111156155d857600080fd5b81604084018c83013760009181018b01919091528552509287019290870190600101615575565b5050809750505050505050615616604085016154ca565b90509250925092565b6000806040838503121561563257600080fd5b61563b8361543c565b9150615649602084016154ca565b90509250929050565b6000806040838503121561566557600080fd5b61566e8361543c565b946020939093013593505050565b600080600080600060a0868803121561569457600080fd5b61569d8661543c565b97602087013597506040870135966060810135965060800135945092505050565b600080600080608085870312156156d457600080fd5b843567ffffffffffffffff808211156156ec57600080fd5b6156f888838901615458565b9550602087013591508082111561570e57600080fd5b5061571b87828801615458565b949794965050505060408301359260600135919050565b60006020828403121561574457600080fd5b81356150c781615bac565b60006020828403121561576157600080fd5b81516150c781615bac565b60006020828403121561577e57600080fd5b6150c7826154ca565b6000806040838503121561579a57600080fd5b61566e836154ca565b6000602082840312156157b557600080fd5b5035919050565b6000602082840312156157ce57600080fd5b5051919050565b600080604083850312156157e857600080fd5b82359150602083013567ffffffffffffffff81111561580657600080fd5b61581285828601615458565b9150509250929050565b6004811061583a57634e487b7160e01b600052602160045260246000fd5b9052565b60008151808452615856816020860160208601615a85565b601f01601f19169290920160200192915050565b6000845161587c818460208901615a85565b845190830190615890818360208901615a85565b84519101906158a3818360208801615a85565b0195945050505050565b60208101610faf828461581c565b604081016158c9828561581c565b8260208301529392505050565b604081016158e4828561581c565b60ff831660208301529392505050565b6020815260006150c7602083018461583e565b6020808252600e908201526d4163636573732044656e6965642160901b604082015260600190565b828152604081016150c7602083018461581c565b828152604060208201526000614568604083018461583e565b604051601f8201601f1916810167ffffffffffffffff8111828210171561598557615985615b96565b604052919050565b600067ffffffffffffffff8211156159a7576159a7615b96565b5060051b60200190565b600082198211156159c4576159c4615b3e565b500190565b600060ff821660ff84168060ff038211156159e6576159e6615b3e565b019392505050565b600082615a0b57634e487b7160e01b600052601260045260246000fd5b500490565b6000816000190483118215151615615a2a57615a2a615b3e565b500290565b60008083128015600160ff1b850184121615615a4d57615a4d615b3e565b6001600160ff1b0384018313811615615a6857615a68615b3e565b50500390565b600082821015615a8057615a80615b3e565b500390565b60005b83811015615aa0578181015183820152602001615a88565b838111156131e95750506000910152565b600081615ac057615ac0615b3e565b506000190190565b600181811c90821680615adc57607f821691505b60208210811415615afd57634e487b7160e01b600052602260045260246000fd5b50919050565b6000600019821415615b1757615b17615b3e565b5060010190565b600060ff821660ff811415615b3557615b35615b3e565b60010192915050565b634e487b7160e01b600052601160045260246000fd5b634e487b7160e01b600052602160045260246000fd5b634e487b7160e01b600052603160045260246000fd5b634e487b7160e01b600052603260045260246000fd5b634e487b7160e01b600052604160045260246000fd5b801515811461535857600080fdfea164736f6c6343000807000a",
  "devdoc": {
    "kind": "dev",
    "methods": {
      "_cashoutAllContsReward(address)": {
        "params": {
          "account": "account of owner"
        },
        "returns": {
          "_0": "rewardsTotal total amount of rewards claimed"
        }
      },
      "_cashoutContReward(address,uint256)": {
        "params": {
          "_contIndex": "contract index",
          "account": "account of owner"
        },
        "returns": {
          "_0": "rewardsTotal total amount of rewards claimed"
        }
      },
      "_changeAutoReduceAPRInterval(uint256)": {
        "params": {
          "newInterval": "new interval"
        }
      },
      "_changeAutoReduceAPRRate(uint256)": {
        "params": {
          "newRate": "new reduction rate (100% == 100_000_000)"
        }
      },
      "_changeCashoutTimeout(uint256)": {
        "params": {
          "newTime": "new length of interval"
        }
      },
      "_changeContPrice(uint8,uint256)": {
        "params": {
          "_cType": "contract type to change price",
          "newPrice": "new price per contract (0xB)"
        }
      },
      "_changeRewardAPRPerCont(uint8,int256)": {
        "details": "the model of calculating reward requires heavily on reduction percentage. Use reduction percent as the input. Negative percentages are allowed (if want to increase APR). 100_000_000 = 100%.",
        "params": {
          "_cType": "contract type to change APR",
          "reducedPercentage": "reduction percentage"
        }
      },
      "_getClaimedAmountOf(address)": {
        "details": "iterate through every contract. Use `contRewardInIntervalV2` to calculate reward in an interval from contract creation time to latest claim.",
        "params": {
          "account": "address to query"
        },
        "returns": {
          "list": "a packed list of every entries",
          "total": "total amount of reward available for account, tax included"
        }
      },
      "_getClaimedAmountOfIndex(address,uint256)": {
        "details": "use `contRewardInIntervalV2` to calculate claimed in an interval from contract creationTime to latest claim.",
        "params": {
          "_contIndex": "index of contract in user's list",
          "account": "address to query"
        },
        "returns": {
          "rewardCont": "amount of reward available for selected contract"
        }
      },
      "_getContNumberOf(address)": {
        "params": {
          "account": "address to query"
        },
        "returns": {
          "_0": "count number of contracts owned by this account"
        }
      },
      "_getContsCreationTime(address)": {
        "details": "concatenate creation time into one string, separated by a separator ('#')",
        "params": {
          "account": "address to query"
        },
        "returns": {
          "_0": "result a string of concatenated result"
        }
      },
      "_getContsCurrentAPR(address)": {
        "details": "concate current aprs into one string, separated by a separator ('#')",
        "params": {
          "account": "address to query"
        },
        "returns": {
          "_0": "result a string of concatenated result"
        }
      },
      "_getContsInitialAPR(address)": {
        "details": "concate initial aprs into one string, separated by a separator ('#')",
        "params": {
          "account": "address to query"
        },
        "returns": {
          "_0": "result a string of concatenated result"
        }
      },
      "_getContsLastUpdateTime(address)": {
        "details": "concate last update times into one string, separated by a separator ('#')",
        "params": {
          "account": "address to query"
        },
        "returns": {
          "_0": "result a string of concatenated result"
        }
      },
      "_getContsNames(address)": {
        "details": "concatenate names into one string, separated by a separator ('#')",
        "params": {
          "account": "address to query"
        },
        "returns": {
          "_0": "result a string of concatenated result"
        }
      },
      "_getContsRewardAvailable(address)": {
        "details": "concate available rewards into one string, separated by a separator ('#')",
        "params": {
          "account": "address to query"
        },
        "returns": {
          "_0": "result a string of concatenated result"
        }
      },
      "_getContsTypes(address)": {
        "details": "concate ctypes into one string, separated by a separator ('#')",
        "params": {
          "account": "address to query"
        },
        "returns": {
          "_0": "result a string of concatenated result"
        }
      },
      "_getRewardAmountOf(address)": {
        "details": "iterate through every contract. Use `contRewardInIntervalV2` to calculate reward in an interval from user last claims to now.",
        "params": {
          "account": "address to query"
        },
        "returns": {
          "_0": "rewardAmount total amount of reward available for account, tax included"
        }
      },
      "_getRewardAmountOfIndex(address,uint256)": {
        "details": "use `contRewardInIntervalV2` to calculate reward in an interval from user last claims to now.",
        "params": {
          "_contIndex": "index of contract in user's list",
          "account": "address to query"
        },
        "returns": {
          "_0": "rewardCont amount of reward available for selected contract"
        }
      },
      "_isContOwner(address)": {
        "params": {
          "account": "address to query"
        },
        "returns": {
          "_0": "res true if account is the contract number"
        }
      },
      "_resetAllAPRChange(uint8,uint256)": {
        "params": {
          "_cType": "type of contract to pop last change"
        }
      },
      "_undoRewardAPRChange(uint8)": {
        "params": {
          "_cType": "type of contract to pop last change"
        }
      },
      "createConts(address,string[],uint8)": {
        "params": {
          "_cType": "type of contract",
          "account": "account of owner",
          "contNames": "list of names of contract"
        }
      },
      "currentRewardAPRPerNewCont(uint8)": {
        "details": "iterate through a list of APR changes in history",
        "params": {
          "_cType": "contract type to query"
        },
        "returns": {
          "_0": "result apr of contract type _cType"
        }
      },
      "setAdmin(address)": {
        "params": {
          "newAdmin": "address of newAdmin"
        }
      },
      "setToken(address)": {
        "params": {
          "token_": "new address of 0xB"
        }
      },
      "totalContsPerContType(uint8)": {
        "params": {
          "_cType": "contract type to query"
        },
        "returns": {
          "_0": "res return number of contract for each contract type"
        }
      }
    },
    "version": 1
  },
  "userdoc": {
    "kind": "user",
    "methods": {
      "_cashoutAllContsReward(address)": {
        "notice": "reduce all conts reward to 0 and return amount of rewards claimed so token contract can send tokens"
      },
      "_cashoutContReward(address,uint256)": {
        "notice": "reduce chosen cont reward to 0 and return amount of rewards claimed so token contract can send tokens"
      },
      "_changeAutoReduceAPRInterval(uint256)": {
        "notice": "change auto APR reduce interval per contract"
      },
      "_changeAutoReduceAPRRate(uint256)": {
        "notice": "change auto APR reduce rate per contract"
      },
      "_changeCashoutTimeout(uint256)": {
        "notice": "change cashout timeout. User cannot claim 2 times in one interval of newTime."
      },
      "_changeContPrice(uint8,uint256)": {
        "notice": "change contract price of one type"
      },
      "_changeRewardAPRPerCont(uint8,int256)": {
        "notice": "change reward apr of one contract type"
      },
      "_getClaimedAmountOf(address)": {
        "notice": "query claimed amount of an address in every contract"
      },
      "_getClaimedAmountOfIndex(address,uint256)": {
        "notice": "query claimed amount of one contract"
      },
      "_getContNumberOf(address)": {
        "notice": "get number of contract from one owner"
      },
      "_getContsCreationTime(address)": {
        "notice": "get the list of contracts creation time from one owner"
      },
      "_getContsCurrentAPR(address)": {
        "notice": "get the list of contracts current aprs from one owner"
      },
      "_getContsInitialAPR(address)": {
        "notice": "get the list of contracts initial aprs from one owner"
      },
      "_getContsLastUpdateTime(address)": {
        "notice": "get the list of contracts last update times from one owner"
      },
      "_getContsNames(address)": {
        "notice": "get the list of contracts name from one owner"
      },
      "_getContsRewardAvailable(address)": {
        "notice": "get the list of contracts available rewards from one owner"
      },
      "_getContsTypes(address)": {
        "notice": "get the list of contracts ctypes from one owner"
      },
      "_getRewardAmountOf(address)": {
        "notice": "query total reward amount of an address in every contract"
      },
      "_getRewardAmountOfIndex(address,uint256)": {
        "notice": "query reward amount of one contract"
      },
      "_isContOwner(address)": {
        "notice": "query if an account is an owner of any contract"
      },
      "_resetAllAPRChange(uint8,uint256)": {
        "notice": "only used when admin makes mistake about APR change: reset every APR changes/"
      },
      "_undoRewardAPRChange(uint8)": {
        "notice": "only used when admin makes mistake about APR change: undo last APR change of one type"
      },
      "createConts(address,string[],uint8)": {
        "notice": "create new contract storages for account"
      },
      "currentRewardAPRPerNewCont(uint8)": {
        "notice": "calculate initial APR for new contract to display on dApp"
      },
      "setAdmin(address)": {
        "notice": "change admin of contract"
      },
      "setToken(address)": {
        "notice": "set 0xB token Address"
      },
      "totalContsPerContType(uint8)": {
        "notice": "return number of contract of contract type _cType"
      }
    },
    "version": 1
  },
  "storageLayout": {
    "storage": [
      {
        "astId": 598,
        "contract": "contracts/dependencies/CONTRewardManagement.sol:CONTRewardManagement",
        "label": "_initialized",
        "offset": 0,
        "slot": "0",
        "type": "t_bool"
      },
      {
        "astId": 601,
        "contract": "contracts/dependencies/CONTRewardManagement.sol:CONTRewardManagement",
        "label": "_initializing",
        "offset": 1,
        "slot": "0",
        "type": "t_bool"
      },
      {
        "astId": 5358,
        "contract": "contracts/dependencies/CONTRewardManagement.sol:CONTRewardManagement",
        "label": "contOwners",
        "offset": 0,
        "slot": "1",
        "type": "t_struct(Map)14709_storage"
      },
      {
        "astId": 5364,
        "contract": "contracts/dependencies/CONTRewardManagement.sol:CONTRewardManagement",
        "label": "_contsOfUser",
        "offset": 0,
        "slot": "5",
        "type": "t_mapping(t_address,t_array(t_struct(ContEntity)5340_storage)dyn_storage)"
      },
      {
        "astId": 5369,
        "contract": "contracts/dependencies/CONTRewardManagement.sol:CONTRewardManagement",
        "label": "contPrice",
        "offset": 0,
        "slot": "6",
        "type": "t_mapping(t_enum(ContType)5308,t_uint256)"
      },
      {
        "astId": 5374,
        "contract": "contracts/dependencies/CONTRewardManagement.sol:CONTRewardManagement",
        "label": "initRewardAPRPerCont",
        "offset": 0,
        "slot": "7",
        "type": "t_mapping(t_enum(ContType)5308,t_uint256)"
      },
      {
        "astId": 5381,
        "contract": "contracts/dependencies/CONTRewardManagement.sol:CONTRewardManagement",
        "label": "aprChangesHistory",
        "offset": 0,
        "slot": "8",
        "type": "t_mapping(t_enum(ContType)5308,t_array(t_struct(APRChangesEntry)5355_storage)dyn_storage)"
      },
      {
        "astId": 5383,
        "contract": "contracts/dependencies/CONTRewardManagement.sol:CONTRewardManagement",
        "label": "cashoutTimeout",
        "offset": 0,
        "slot": "9",
        "type": "t_uint256"
      },
      {
        "astId": 5385,
        "contract": "contracts/dependencies/CONTRewardManagement.sol:CONTRewardManagement",
        "label": "autoReduceAPRInterval",
        "offset": 0,
        "slot": "10",
        "type": "t_uint256"
      },
      {
        "astId": 5387,
        "contract": "contracts/dependencies/CONTRewardManagement.sol:CONTRewardManagement",
        "label": "autoReduceAPRRate",
        "offset": 0,
        "slot": "11",
        "type": "t_uint256"
      },
      {
        "astId": 5389,
        "contract": "contracts/dependencies/CONTRewardManagement.sol:CONTRewardManagement",
        "label": "admin0XB",
        "offset": 0,
        "slot": "12",
        "type": "t_address"
      },
      {
        "astId": 5391,
        "contract": "contracts/dependencies/CONTRewardManagement.sol:CONTRewardManagement",
        "label": "token",
        "offset": 0,
        "slot": "13",
        "type": "t_address"
      },
      {
        "astId": 5393,
        "contract": "contracts/dependencies/CONTRewardManagement.sol:CONTRewardManagement",
        "label": "totalContsCreated",
        "offset": 0,
        "slot": "14",
        "type": "t_uint256"
      },
      {
        "astId": 5398,
        "contract": "contracts/dependencies/CONTRewardManagement.sol:CONTRewardManagement",
        "label": "_totalContsPerType",
        "offset": 0,
        "slot": "15",
        "type": "t_mapping(t_enum(ContType)5308,t_uint256)"
      },
      {
        "astId": 5404,
        "contract": "contracts/dependencies/CONTRewardManagement.sol:CONTRewardManagement",
        "label": "_brokeevenContract",
        "offset": 0,
        "slot": "16",
        "type": "t_mapping(t_address,t_mapping(t_uint256,t_bool))"
      },
      {
        "astId": 5407,
        "contract": "contracts/dependencies/CONTRewardManagement.sol:CONTRewardManagement",
        "label": "feeToken",
        "offset": 0,
        "slot": "17",
        "type": "t_contract(IERC20)2517"
      },
      {
        "astId": 5409,
        "contract": "contracts/dependencies/CONTRewardManagement.sol:CONTRewardManagement",
        "label": "decreaseFeePercent",
        "offset": 0,
        "slot": "18",
        "type": "t_uint256"
      },
      {
        "astId": 5412,
        "contract": "contracts/dependencies/CONTRewardManagement.sol:CONTRewardManagement",
        "label": "isMonthFeeActive",
        "offset": 0,
        "slot": "19",
        "type": "t_bool"
      },
      {
        "astId": 5414,
        "contract": "contracts/dependencies/CONTRewardManagement.sol:CONTRewardManagement",
        "label": "defaultExpireIn",
        "offset": 0,
        "slot": "20",
        "type": "t_uint256"
      },
      {
        "astId": 5419,
        "contract": "contracts/dependencies/CONTRewardManagement.sol:CONTRewardManagement",
        "label": "feeInMonth",
        "offset": 0,
        "slot": "21",
        "type": "t_mapping(t_enum(ContType)5308,t_uint256)"
      },
      {
        "astId": 5426,
        "contract": "contracts/dependencies/CONTRewardManagement.sol:CONTRewardManagement",
        "label": "additionalDataContract",
        "offset": 0,
        "slot": "22",
        "type": "t_mapping(t_address,t_mapping(t_uint256,t_struct(AdditionalDataEntity)5345_storage))"
      },
      {
        "astId": 5433,
        "contract": "contracts/dependencies/CONTRewardManagement.sol:CONTRewardManagement",
        "label": "userAsset",
        "offset": 0,
        "slot": "23",
        "type": "t_mapping(t_address,t_mapping(t_enum(ContType)5308,t_uint256))"
      },
      {
        "astId": 5438,
        "contract": "contracts/dependencies/CONTRewardManagement.sol:CONTRewardManagement",
        "label": "monthFeeLogs",
        "offset": 0,
        "slot": "24",
        "type": "t_mapping(t_uint256,t_struct(MonthFeeLog)5350_storage)"
      },
      {
        "astId": 5440,
        "contract": "contracts/dependencies/CONTRewardManagement.sol:CONTRewardManagement",
        "label": "maxIndexMonthFeeLogs",
        "offset": 0,
        "slot": "25",
        "type": "t_uint256"
      }
    ],
    "types": {
      "t_address": {
        "encoding": "inplace",
        "label": "address",
        "numberOfBytes": "20"
      },
      "t_array(t_address)dyn_storage": {
        "base": "t_address",
        "encoding": "dynamic_array",
        "label": "address[]",
        "numberOfBytes": "32"
      },
      "t_array(t_struct(APRChangesEntry)5355_storage)dyn_storage": {
        "base": "t_struct(APRChangesEntry)5355_storage",
        "encoding": "dynamic_array",
        "label": "struct CONTRewardManagement.APRChangesEntry[]",
        "numberOfBytes": "32"
      },
      "t_array(t_struct(ContEntity)5340_storage)dyn_storage": {
        "base": "t_struct(ContEntity)5340_storage",
        "encoding": "dynamic_array",
        "label": "struct CONTRewardManagement.ContEntity[]",
        "numberOfBytes": "32"
      },
      "t_bool": {
        "encoding": "inplace",
        "label": "bool",
        "numberOfBytes": "1"
      },
      "t_contract(IERC20)2517": {
        "encoding": "inplace",
        "label": "contract IERC20",
        "numberOfBytes": "20"
      },
      "t_enum(ContType)5308": {
        "encoding": "inplace",
        "label": "enum ContType",
        "numberOfBytes": "1"
      },
      "t_int256": {
        "encoding": "inplace",
        "label": "int256",
        "numberOfBytes": "32"
      },
      "t_mapping(t_address,t_array(t_struct(ContEntity)5340_storage)dyn_storage)": {
        "encoding": "mapping",
        "key": "t_address",
        "label": "mapping(address => struct CONTRewardManagement.ContEntity[])",
        "numberOfBytes": "32",
        "value": "t_array(t_struct(ContEntity)5340_storage)dyn_storage"
      },
      "t_mapping(t_address,t_bool)": {
        "encoding": "mapping",
        "key": "t_address",
        "label": "mapping(address => bool)",
        "numberOfBytes": "32",
        "value": "t_bool"
      },
      "t_mapping(t_address,t_mapping(t_enum(ContType)5308,t_uint256))": {
        "encoding": "mapping",
        "key": "t_address",
        "label": "mapping(address => mapping(enum ContType => uint256))",
        "numberOfBytes": "32",
        "value": "t_mapping(t_enum(ContType)5308,t_uint256)"
      },
      "t_mapping(t_address,t_mapping(t_uint256,t_bool))": {
        "encoding": "mapping",
        "key": "t_address",
        "label": "mapping(address => mapping(uint256 => bool))",
        "numberOfBytes": "32",
        "value": "t_mapping(t_uint256,t_bool)"
      },
      "t_mapping(t_address,t_mapping(t_uint256,t_struct(AdditionalDataEntity)5345_storage))": {
        "encoding": "mapping",
        "key": "t_address",
        "label": "mapping(address => mapping(uint256 => struct CONTRewardManagement.AdditionalDataEntity))",
        "numberOfBytes": "32",
        "value": "t_mapping(t_uint256,t_struct(AdditionalDataEntity)5345_storage)"
      },
      "t_mapping(t_address,t_uint256)": {
        "encoding": "mapping",
        "key": "t_address",
        "label": "mapping(address => uint256)",
        "numberOfBytes": "32",
        "value": "t_uint256"
      },
      "t_mapping(t_enum(ContType)5308,t_array(t_struct(APRChangesEntry)5355_storage)dyn_storage)": {
        "encoding": "mapping",
        "key": "t_enum(ContType)5308",
        "label": "mapping(enum ContType => struct CONTRewardManagement.APRChangesEntry[])",
        "numberOfBytes": "32",
        "value": "t_array(t_struct(APRChangesEntry)5355_storage)dyn_storage"
      },
      "t_mapping(t_enum(ContType)5308,t_uint256)": {
        "encoding": "mapping",
        "key": "t_enum(ContType)5308",
        "label": "mapping(enum ContType => uint256)",
        "numberOfBytes": "32",
        "value": "t_uint256"
      },
      "t_mapping(t_uint256,t_bool)": {
        "encoding": "mapping",
        "key": "t_uint256",
        "label": "mapping(uint256 => bool)",
        "numberOfBytes": "32",
        "value": "t_bool"
      },
      "t_mapping(t_uint256,t_struct(AdditionalDataEntity)5345_storage)": {
        "encoding": "mapping",
        "key": "t_uint256",
        "label": "mapping(uint256 => struct CONTRewardManagement.AdditionalDataEntity)",
        "numberOfBytes": "32",
        "value": "t_struct(AdditionalDataEntity)5345_storage"
      },
      "t_mapping(t_uint256,t_struct(MonthFeeLog)5350_storage)": {
        "encoding": "mapping",
        "key": "t_uint256",
        "label": "mapping(uint256 => struct CONTRewardManagement.MonthFeeLog)",
        "numberOfBytes": "32",
        "value": "t_struct(MonthFeeLog)5350_storage"
      },
      "t_string_storage": {
        "encoding": "bytes",
        "label": "string",
        "numberOfBytes": "32"
      },
      "t_struct(APRChangesEntry)5355_storage": {
        "encoding": "inplace",
        "label": "struct CONTRewardManagement.APRChangesEntry",
        "members": [
          {
            "astId": 5352,
            "contract": "contracts/dependencies/CONTRewardManagement.sol:CONTRewardManagement",
            "label": "timestamp",
            "offset": 0,
            "slot": "0",
            "type": "t_uint256"
          },
          {
            "astId": 5354,
            "contract": "contracts/dependencies/CONTRewardManagement.sol:CONTRewardManagement",
            "label": "reducedPercentage",
            "offset": 0,
            "slot": "1",
            "type": "t_int256"
          }
        ],
        "numberOfBytes": "64"
      },
      "t_struct(AdditionalDataEntity)5345_storage": {
        "encoding": "inplace",
        "label": "struct CONTRewardManagement.AdditionalDataEntity",
        "members": [
          {
            "astId": 5342,
            "contract": "contracts/dependencies/CONTRewardManagement.sol:CONTRewardManagement",
            "label": "expireIn",
            "offset": 0,
            "slot": "0",
            "type": "t_uint256"
          },
          {
            "astId": 5344,
            "contract": "contracts/dependencies/CONTRewardManagement.sol:CONTRewardManagement",
            "label": "lastUpdated",
            "offset": 0,
            "slot": "1",
            "type": "t_uint256"
          }
        ],
        "numberOfBytes": "64"
      },
      "t_struct(ContEntity)5340_storage": {
        "encoding": "inplace",
        "label": "struct CONTRewardManagement.ContEntity",
        "members": [
          {
            "astId": 5328,
            "contract": "contracts/dependencies/CONTRewardManagement.sol:CONTRewardManagement",
            "label": "name",
            "offset": 0,
            "slot": "0",
            "type": "t_string_storage"
          },
          {
            "astId": 5330,
            "contract": "contracts/dependencies/CONTRewardManagement.sol:CONTRewardManagement",
            "label": "creationTime",
            "offset": 0,
            "slot": "1",
            "type": "t_uint256"
          },
          {
            "astId": 5332,
            "contract": "contracts/dependencies/CONTRewardManagement.sol:CONTRewardManagement",
            "label": "lastUpdateTime",
            "offset": 0,
            "slot": "2",
            "type": "t_uint256"
          },
          {
            "astId": 5334,
            "contract": "contracts/dependencies/CONTRewardManagement.sol:CONTRewardManagement",
            "label": "initialAPR",
            "offset": 0,
            "slot": "3",
            "type": "t_uint256"
          },
          {
            "astId": 5336,
            "contract": "contracts/dependencies/CONTRewardManagement.sol:CONTRewardManagement",
            "label": "buyPrice",
            "offset": 0,
            "slot": "4",
            "type": "t_uint256"
          },
          {
            "astId": 5339,
            "contract": "contracts/dependencies/CONTRewardManagement.sol:CONTRewardManagement",
            "label": "cType",
            "offset": 0,
            "slot": "5",
            "type": "t_enum(ContType)5308"
          }
        ],
        "numberOfBytes": "192"
      },
      "t_struct(Map)14709_storage": {
        "encoding": "inplace",
        "label": "struct IterableMapping.Map",
        "members": [
          {
            "astId": 14696,
            "contract": "contracts/dependencies/CONTRewardManagement.sol:CONTRewardManagement",
            "label": "keys",
            "offset": 0,
            "slot": "0",
            "type": "t_array(t_address)dyn_storage"
          },
          {
            "astId": 14700,
            "contract": "contracts/dependencies/CONTRewardManagement.sol:CONTRewardManagement",
            "label": "values",
            "offset": 0,
            "slot": "1",
            "type": "t_mapping(t_address,t_uint256)"
          },
          {
            "astId": 14704,
            "contract": "contracts/dependencies/CONTRewardManagement.sol:CONTRewardManagement",
            "label": "indexOf",
            "offset": 0,
            "slot": "2",
            "type": "t_mapping(t_address,t_uint256)"
          },
          {
            "astId": 14708,
            "contract": "contracts/dependencies/CONTRewardManagement.sol:CONTRewardManagement",
            "label": "inserted",
            "offset": 0,
            "slot": "3",
            "type": "t_mapping(t_address,t_bool)"
          }
        ],
        "numberOfBytes": "128"
      },
      "t_struct(MonthFeeLog)5350_storage": {
        "encoding": "inplace",
        "label": "struct CONTRewardManagement.MonthFeeLog",
        "members": [
          {
            "astId": 5347,
            "contract": "contracts/dependencies/CONTRewardManagement.sol:CONTRewardManagement",
            "label": "currentTime",
            "offset": 0,
            "slot": "0",
            "type": "t_uint256"
          },
          {
            "astId": 5349,
            "contract": "contracts/dependencies/CONTRewardManagement.sol:CONTRewardManagement",
            "label": "state",
            "offset": 0,
            "slot": "1",
            "type": "t_bool"
          }
        ],
        "numberOfBytes": "64"
      },
      "t_uint256": {
        "encoding": "inplace",
        "label": "uint256",
        "numberOfBytes": "32"
      }
    }
  }
}