{
  "address": "0x52341DfaB807D27Bdd6a82483edB1930215F074B",
  "abi": [
    {
      "inputs": [
        {
          "internalType": "address",
          "name": "account",
          "type": "address"
        }
      ],
      "name": "_cashoutAllContsReward",
      "outputs": [
        {
          "internalType": "uint256",
          "name": "",
          "type": "uint256"
        }
      ],
      "stateMutability": "nonpayable",
      "type": "function"
    },
    {
      "inputs": [
        {
          "internalType": "address",
          "name": "account",
          "type": "address"
        },
        {
          "internalType": "uint256",
          "name": "_contIndex",
          "type": "uint256"
        }
      ],
      "name": "_cashoutContReward",
      "outputs": [
        {
          "internalType": "uint256",
          "name": "",
          "type": "uint256"
        }
      ],
      "stateMutability": "nonpayable",
      "type": "function"
    },
    {
      "inputs": [
        {
          "internalType": "uint256",
          "name": "newInterval",
          "type": "uint256"
        }
      ],
      "name": "_changeAutoReduceAPRInterval",
      "outputs": [],
      "stateMutability": "nonpayable",
      "type": "function"
    },
    {
      "inputs": [
        {
          "internalType": "uint256",
          "name": "newRate",
          "type": "uint256"
        }
      ],
      "name": "_changeAutoReduceAPRRate",
      "outputs": [],
      "stateMutability": "nonpayable",
      "type": "function"
    },
    {
      "inputs": [
        {
          "internalType": "uint256",
          "name": "newTime",
          "type": "uint256"
        }
      ],
      "name": "_changeCashoutTimeout",
      "outputs": [],
      "stateMutability": "nonpayable",
      "type": "function"
    },
    {
      "inputs": [
        {
          "internalType": "enum ContType",
          "name": "_cType",
          "type": "uint8"
        },
        {
          "internalType": "uint256",
          "name": "newPrice",
          "type": "uint256"
        }
      ],
      "name": "_changeContPrice",
      "outputs": [],
      "stateMutability": "nonpayable",
      "type": "function"
    },
    {
      "inputs": [
        {
          "internalType": "enum ContType",
          "name": "_cType",
          "type": "uint8"
        },
        {
          "internalType": "int256",
          "name": "reducedPercentage",
          "type": "int256"
        }
      ],
      "name": "_changeRewardAPRPerCont",
      "outputs": [],
      "stateMutability": "nonpayable",
      "type": "function"
    },
    {
      "inputs": [
        {
          "internalType": "address",
          "name": "account",
          "type": "address"
        }
      ],
      "name": "_getContNumberOf",
      "outputs": [
        {
          "internalType": "uint256",
          "name": "",
          "type": "uint256"
        }
      ],
      "stateMutability": "view",
      "type": "function"
    },
    {
      "inputs": [
        {
          "internalType": "address",
          "name": "account",
          "type": "address"
        }
      ],
      "name": "_getContsCreationTime",
      "outputs": [
        {
          "internalType": "string",
          "name": "",
          "type": "string"
        }
      ],
      "stateMutability": "view",
      "type": "function"
    },
    {
      "inputs": [
        {
          "internalType": "address",
          "name": "account",
          "type": "address"
        }
      ],
      "name": "_getContsCurrentAPR",
      "outputs": [
        {
          "internalType": "string",
          "name": "",
          "type": "string"
        }
      ],
      "stateMutability": "view",
      "type": "function"
    },
    {
      "inputs": [
        {
          "internalType": "address",
          "name": "account",
          "type": "address"
        }
      ],
      "name": "_getContsInitialAPR",
      "outputs": [
        {
          "internalType": "string",
          "name": "",
          "type": "string"
        }
      ],
      "stateMutability": "view",
      "type": "function"
    },
    {
      "inputs": [
        {
          "internalType": "address",
          "name": "account",
          "type": "address"
        }
      ],
      "name": "_getContsLastUpdateTime",
      "outputs": [
        {
          "internalType": "string",
          "name": "",
          "type": "string"
        }
      ],
      "stateMutability": "view",
      "type": "function"
    },
    {
      "inputs": [
        {
          "internalType": "address",
          "name": "account",
          "type": "address"
        }
      ],
      "name": "_getContsNames",
      "outputs": [
        {
          "internalType": "string",
          "name": "",
          "type": "string"
        }
      ],
      "stateMutability": "view",
      "type": "function"
    },
    {
      "inputs": [
        {
          "internalType": "address",
          "name": "account",
          "type": "address"
        }
      ],
      "name": "_getContsRewardAvailable",
      "outputs": [
        {
          "internalType": "string",
          "name": "",
          "type": "string"
        }
      ],
      "stateMutability": "view",
      "type": "function"
    },
    {
      "inputs": [
        {
          "internalType": "address",
          "name": "account",
          "type": "address"
        }
      ],
      "name": "_getContsTypes",
      "outputs": [
        {
          "internalType": "string",
          "name": "",
          "type": "string"
        }
      ],
      "stateMutability": "view",
      "type": "function"
    },
    {
      "inputs": [
        {
          "internalType": "address",
          "name": "account",
          "type": "address"
        }
      ],
      "name": "_getRewardAmountOf",
      "outputs": [
        {
          "internalType": "uint256",
          "name": "",
          "type": "uint256"
        }
      ],
      "stateMutability": "view",
      "type": "function"
    },
    {
      "inputs": [
        {
          "internalType": "address",
          "name": "account",
          "type": "address"
        },
        {
          "internalType": "uint256",
          "name": "_contIndex",
          "type": "uint256"
        }
      ],
      "name": "_getRewardAmountOf",
      "outputs": [
        {
          "internalType": "uint256",
          "name": "",
          "type": "uint256"
        }
      ],
      "stateMutability": "view",
      "type": "function"
    },
    {
      "inputs": [
        {
          "internalType": "address",
          "name": "account",
          "type": "address"
        }
      ],
      "name": "_isContOwner",
      "outputs": [
        {
          "internalType": "bool",
          "name": "",
          "type": "bool"
        }
      ],
      "stateMutability": "view",
      "type": "function"
    },
    {
      "inputs": [
        {
          "internalType": "enum ContType",
          "name": "_cType",
          "type": "uint8"
        },
        {
          "internalType": "uint256",
          "name": "_initialPrice",
          "type": "uint256"
        }
      ],
      "name": "_resetAllAPRChange",
      "outputs": [],
      "stateMutability": "nonpayable",
      "type": "function"
    },
    {
      "inputs": [
        {
          "internalType": "enum ContType",
          "name": "_cType",
          "type": "uint8"
        }
      ],
      "name": "_undoRewardAPRChange",
      "outputs": [],
      "stateMutability": "nonpayable",
      "type": "function"
    },
    {
      "inputs": [],
      "name": "admin0XB",
      "outputs": [
        {
          "internalType": "address",
          "name": "",
          "type": "address"
        }
      ],
      "stateMutability": "view",
      "type": "function"
    },
    {
      "inputs": [],
      "name": "autoReduceAPRInterval",
      "outputs": [
        {
          "internalType": "uint256",
          "name": "",
          "type": "uint256"
        }
      ],
      "stateMutability": "view",
      "type": "function"
    },
    {
      "inputs": [],
      "name": "autoReduceAPRRate",
      "outputs": [
        {
          "internalType": "uint256",
          "name": "",
          "type": "uint256"
        }
      ],
      "stateMutability": "view",
      "type": "function"
    },
    {
      "inputs": [],
      "name": "cashoutTimeout",
      "outputs": [
        {
          "internalType": "uint256",
          "name": "",
          "type": "uint256"
        }
      ],
      "stateMutability": "view",
      "type": "function"
    },
    {
      "inputs": [
        {
          "internalType": "enum ContType",
          "name": "",
          "type": "uint8"
        }
      ],
      "name": "contPrice",
      "outputs": [
        {
          "internalType": "uint256",
          "name": "",
          "type": "uint256"
        }
      ],
      "stateMutability": "view",
      "type": "function"
    },
    {
      "inputs": [
        {
          "internalType": "address",
          "name": "account",
          "type": "address"
        },
        {
          "internalType": "string[]",
          "name": "contNames",
          "type": "string[]"
        },
        {
          "internalType": "enum ContType",
          "name": "_cType",
          "type": "uint8"
        }
      ],
      "name": "createConts",
      "outputs": [],
      "stateMutability": "nonpayable",
      "type": "function"
    },
    {
      "inputs": [
        {
          "internalType": "enum ContType",
          "name": "_cType",
          "type": "uint8"
        }
      ],
      "name": "currentRewardAPRPerNewCont",
      "outputs": [
        {
          "internalType": "uint256",
          "name": "",
          "type": "uint256"
        }
      ],
      "stateMutability": "view",
      "type": "function"
    },
    {
      "inputs": [
        {
          "internalType": "enum ContType",
          "name": "",
          "type": "uint8"
        }
      ],
      "name": "initRewardAPRPerCont",
      "outputs": [
        {
          "internalType": "uint256",
          "name": "",
          "type": "uint256"
        }
      ],
      "stateMutability": "view",
      "type": "function"
    },
    {
      "inputs": [
        {
          "internalType": "uint256[]",
          "name": "_contPrices",
          "type": "uint256[]"
        },
        {
          "internalType": "uint256[]",
          "name": "_rewardAPRs",
          "type": "uint256[]"
        },
        {
          "internalType": "uint256",
          "name": "_cashoutTimeout",
          "type": "uint256"
        },
        {
          "internalType": "uint256",
          "name": "_autoReduceAPRRate",
          "type": "uint256"
        }
      ],
      "name": "initialize",
      "outputs": [],
      "stateMutability": "nonpayable",
      "type": "function"
    },
    {
      "inputs": [
        {
          "internalType": "address",
          "name": "newAdmin",
          "type": "address"
        }
      ],
      "name": "setAdmin",
      "outputs": [],
      "stateMutability": "nonpayable",
      "type": "function"
    },
    {
      "inputs": [
        {
          "internalType": "address",
          "name": "token_",
          "type": "address"
        }
      ],
      "name": "setToken",
      "outputs": [],
      "stateMutability": "nonpayable",
      "type": "function"
    },
    {
      "inputs": [],
      "name": "token",
      "outputs": [
        {
          "internalType": "address",
          "name": "",
          "type": "address"
        }
      ],
      "stateMutability": "view",
      "type": "function"
    },
    {
      "inputs": [],
      "name": "totalContsCreated",
      "outputs": [
        {
          "internalType": "uint256",
          "name": "",
          "type": "uint256"
        }
      ],
      "stateMutability": "view",
      "type": "function"
    },
    {
      "inputs": [
        {
          "internalType": "enum ContType",
          "name": "_cType",
          "type": "uint8"
        }
      ],
      "name": "totalContsPerContType",
      "outputs": [
        {
          "internalType": "uint256",
          "name": "",
          "type": "uint256"
        }
      ],
      "stateMutability": "view",
      "type": "function"
    }
  ],
  "transactionHash": "0x3f18046bf2914ae104a966591b8aa34efbf3825b51ec30d7621860be886ab25d",
  "args": [],
  "numDeployments": 1,
  "solcInputHash": "3e77ea8b4b31917561af69f9583493a0",
  "bytecode": "0x608060405234801561001057600080fd5b5061389b806100206000396000f3fe608060405234801561001057600080fd5b50600436106102055760003560e01c80636eb5a7f41161011a5780639d2040f0116100ad578063ce6912a31161007c578063ce6912a314610477578063d094fa8d1461048a578063e18f03ad1461049d578063f743f319146104a6578063fc0c546a146104b957600080fd5b80639d2040f01461042b5780639f227c531461043e578063a6e15cc414610451578063c2202b661461046457600080fd5b8063872a60ad116100e9578063872a60ad146103db5780638bf145141461040657806393520a80146104195780639b28d1a71461042257600080fd5b80636eb5a7f41461038f578063704b6c02146103a257806377ec7826146103b55780638201bf26146103c857600080fd5b8063390c991e1161019d57806355a757d01161016c57806355a757d01461031d5780635dbab6ed14610326578063619a635e1461033957806363a9b0981461034c578063665bb0781461036c57600080fd5b8063390c991e146102c457806344fea1b9146102d75780634f88de01146102ea57806351bf120c1461030a57600080fd5b80631565f50e116101d95780631565f50e1461026b5780631d5a17311461027e57806328cceb2414610291578063367fd074146102b157600080fd5b8062c73e4d1461020a5780630534cc68146102305780630d9f9f0c14610245578063144fa6d714610258575b600080fd5b61021d61021836600461352b565b6104cc565b6040519081526020015b60405180910390f35b61024361023e366004613362565b6105cc565b005b610243610253366004613562565b610884565b610243610266366004613347565b6108c8565b610243610279366004613562565b61096e565b61024361028c366004613546565b6109b2565b6102a461029f366004613347565b610a2e565b60405161022791906135ff565b6102a46102bf366004613347565b610c76565b6102436102d2366004613562565b610ea8565b61021d6102e5366004613347565b610eec565b61021d6102f836600461352b565b60076020526000908152604090205481565b6102a4610318366004613347565b610f0c565b61021d60095481565b6102a4610334366004613347565b611148565b61021d610347366004613347565b611384565b61021d61035a36600461352b565b60066020526000908152604090205481565b61037f61037a366004613347565b611557565b6040519015158152602001610227565b61024361039d3660046134b7565b611562565b6102436103b0366004613347565b61183b565b6102a46103c3366004613347565b6118e1565b6102436103d636600461352b565b611b1b565b600c546103ee906001600160a01b031681565b6040516001600160a01b039091168152602001610227565b6102a4610414366004613347565b611c5c565b61021d600b5481565b61021d600a5481565b610243610439366004613546565b611eb0565b61024361044c366004613546565b611fc5565b61021d61045f36600461348d565b61214e565b61021d61047236600461348d565b61232d565b61021d61048536600461352b565b612589565b61021d610498366004613347565b6125c8565b61021d600e5481565b6102a46104b4366004613347565b6128bd565b600d546103ee906001600160a01b031681565b600080600860008460028111156104e5576104e5613836565b60028111156104f6576104f6613836565b815260200190815260200160002080549050905060006007600085600281111561052257610522613836565b600281111561053357610533613836565b815260200190815260200160002054905060005b828110156105c4576105b0826008600088600281111561056957610569613836565b600281111561057a5761057a613836565b8152602001908152602001600020838154811061059957610599613862565b906000526020600020906002020160010154612af2565b9150806105bc81613805565b915050610547565b509392505050565b600d546001600160a01b03163314806105ef5750600c546001600160a01b031633145b6106145760405162461bcd60e51b815260040161060b90613632565b60405180910390fd5b6001600160a01b0383166000908152600560205260405162c73e4d60e01b8152309062c73e4d906106499085906004016135d7565b60206040518083038186803b15801561066157600080fd5b505afa158015610675573d6000803e3d6000fd5b505050506040513d601f19601f82011682018060405250810190610699919061357b565b905060005b83518110156107f35760056000866001600160a01b03166001600160a01b031681526020019081526020016000206040518060c001604052808684815181106106e9576106e9613862565b602002602001015181526020014281526020014281526020018481526020016006600087600281111561071e5761071e613836565b600281111561072f5761072f613836565b815260200190815260200160002054815260200185600281111561075557610755613836565b9052815460018101835560009283526020928390208251805193946006909302909101926107869284920190613191565b506020820151816001015560408201518160020155606082015181600301556080820151816004015560a08201518160050160006101000a81548160ff021916908360028111156107d9576107d9613836565b0217905550505080806107eb90613805565b91505061069e565b506001600160a01b03841660009081526005602052604090205461081b906001908690612b26565b8251600e600082825461082e91906136af565b90915550508251600f600084600281111561084b5761084b613836565b600281111561085c5761085c613836565b8152602001908152602001600020600082825461087991906136af565b909155505050505050565b600d546001600160a01b03163314806108a75750600c546001600160a01b031633145b6108c35760405162461bcd60e51b815260040161060b90613632565b600b55565b600d546001600160a01b03163314806108eb5750600c546001600160a01b031633145b6109075760405162461bcd60e51b815260040161060b90613632565b6001600160a01b03811661094c5760405162461bcd60e51b815260206004820152600c60248201526b7a65726f206164647265737360a01b604482015260640161060b565b600d80546001600160a01b0319166001600160a01b0392909216919091179055565b600d546001600160a01b03163314806109915750600c546001600160a01b031633145b6109ad5760405162461bcd60e51b815260040161060b90613632565b600a55565b600d546001600160a01b03163314806109d55750600c546001600160a01b031633145b6109f15760405162461bcd60e51b815260040161060b90613632565b8060066000846002811115610a0857610a08613836565b6002811115610a1957610a19613836565b81526020810191909152604001600020555050565b6060610a3982612bcf565b610a5157505060408051602081019091526000815290565b6001600160a01b038216600090815260056020908152604080832080548251818502810185019093528083529192909190849084015b82821015610ba657838290600052602060002090600602016040518060c0016040529081600082018054610aba906137ca565b80601f0160208091040260200160405190810160405280929190818152602001828054610ae6906137ca565b8015610b335780601f10610b0857610100808354040283529160200191610b33565b820191906000526020600020905b815481529060010190602001808311610b1657829003601f168201915b50505091835250506001820154602082015260028083015460408301526003830154606083015260048301546080830152600583015460a09092019160ff1690811115610b8257610b82613836565b6002811115610b9357610b93613836565b8152505081526020019060010190610a87565b505050509050600081519050610bba613215565b6000610be384600081518110610bd257610bd2613862565b602002602001015160200151612bec565b604080518082019091526001808252602360f81b6020830152919250905b84811015610c6a57858181518110610c1b57610c1b613862565b602002602001015193508282610c348660200151612bec565b604051602001610c4693929190613594565b60405160208183030381529060405292508080610c6290613805565b915050610c01565b50909695505050505050565b6060610c8182612bcf565b610c9957505060408051602081019091526000815290565b6001600160a01b038216600090815260056020908152604080832080548251818502810185019093528083529192909190849084015b82821015610dee57838290600052602060002090600602016040518060c0016040529081600082018054610d02906137ca565b80601f0160208091040260200160405190810160405280929190818152602001828054610d2e906137ca565b8015610d7b5780601f10610d5057610100808354040283529160200191610d7b565b820191906000526020600020905b815481529060010190602001808311610d5e57829003601f168201915b50505091835250506001820154602082015260028083015460408301526003830154606083015260048301546080830152600583015460a09092019160ff1690811115610dca57610dca613836565b6002811115610ddb57610ddb613836565b8152505081526020019060010190610ccf565b5050825192935042915060009050610e24610e1f858386610e1157610e11613862565b602002602001015184612d15565b612bec565b604080518082019091526001808252602360f81b6020830152919250905b84811015610c6a578282610e72610e1f898581518110610e6457610e64613862565b602002602001015188612d15565b604051602001610e8493929190613594565b60405160208183030381529060405292508080610ea090613805565b915050610e42565b600d546001600160a01b0316331480610ecb5750600c546001600160a01b031633145b610ee75760405162461bcd60e51b815260040161060b90613632565b600955565b6001600160a01b0381166000908152600260205260408120545b92915050565b6060610f1782612bcf565b610f2f57505060408051602081019091526000815290565b6001600160a01b038216600090815260056020908152604080832080548251818502810185019093528083529192909190849084015b8282101561108457838290600052602060002090600602016040518060c0016040529081600082018054610f98906137ca565b80601f0160208091040260200160405190810160405280929190818152602001828054610fc4906137ca565b80156110115780601f10610fe657610100808354040283529160200191611011565b820191906000526020600020905b815481529060010190602001808311610ff457829003601f168201915b50505091835250506001820154602082015260028083015460408301526003830154606083015260048301546080830152600583015460a09092019160ff169081111561106057611060613836565b600281111561107157611071613836565b8152505081526020019060010190610f65565b505050509050600081519050611098613215565b60006110c1846000815181106110b0576110b0613862565b602002602001015160400151612bec565b604080518082019091526001808252602360f81b6020830152919250905b84811015610c6a578581815181106110f9576110f9613862565b6020026020010151935082826111128660400151612bec565b60405160200161112493929190613594565b6040516020818303038152906040529250808061114090613805565b9150506110df565b606061115382612bcf565b61116b57505060408051602081019091526000815290565b6001600160a01b038216600090815260056020908152604080832080548251818502810185019093528083529192909190849084015b828210156112c057838290600052602060002090600602016040518060c00160405290816000820180546111d4906137ca565b80601f0160208091040260200160405190810160405280929190818152602001828054611200906137ca565b801561124d5780601f106112225761010080835404028352916020019161124d565b820191906000526020600020905b81548152906001019060200180831161123057829003601f168201915b50505091835250506001820154602082015260028083015460408301526003830154606083015260048301546080830152600583015460a09092019160ff169081111561129c5761129c613836565b60028111156112ad576112ad613836565b81525050815260200190600101906111a1565b5050505090506000815190506112d4613215565b60006112fd846000815181106112ec576112ec613862565b602002602001015160600151612bec565b604080518082019091526001808252602360f81b6020830152919250905b84811015610c6a5785818151811061133557611335613862565b60200260200101519350828261134e8660600151612bec565b60405160200161136093929190613594565b6040516020818303038152906040529250808061137c90613805565b91505061131b565b600061138f82612bcf565b61139b57506000919050565b6001600160a01b038216600090815260056020908152604080832080548251818502810185019093528083528493849084015b828210156114ed57838290600052602060002090600602016040518060c0016040529081600082018054611401906137ca565b80601f016020809104026020016040519081016040528092919081815260200182805461142d906137ca565b801561147a5780601f1061144f5761010080835404028352916020019161147a565b820191906000526020600020905b81548152906001019060200180831161145d57829003601f168201915b50505091835250506001820154602082015260028083015460408301526003830154606083015260048301546080830152600583015460a09092019160ff16908111156114c9576114c9613836565b60028111156114da576114da613836565b81525050815260200190600101906113ce565b50508251929350429150600090505b8281101561154c57600084828151811061151857611518613862565b6020026020010151905061152c8184612d15565b61153690876136af565b955050808061154490613805565b9150506114fc565b509295945050505050565b6000610f0682612bcf565b600054610100900460ff1661157d5760005460ff1615611581565b303b155b6115e45760405162461bcd60e51b815260206004820152602e60248201527f496e697469616c697a61626c653a20636f6e747261637420697320616c72656160448201526d191e481a5b9a5d1a585b1a5e995960921b606482015260840161060b565b600054610100900460ff16158015611606576000805461ffff19166101011790555b6301e13380600a556000600e81905542905b60038110156118045786818151811061163357611633613862565b60200260200101516006600083600281111561165157611651613836565b600281111561166257611662613836565b600281111561167357611673613836565b81526020019081526020016000208190555085818151811061169757611697613862565b6020026020010151600760008360028111156116b5576116b5613836565b60028111156116c6576116c6613836565b60028111156116d7576116d7613836565b8152602001908152602001600020819055506000600f600083600281111561170157611701613836565b600281111561171257611712613836565b600281111561172357611723613836565b8152602001908152602001600020819055506008600082600281111561174b5761174b613836565b600281111561175c5761175c613836565b600281111561176d5761176d613836565b8152602001526008600082600281111561178957611789613836565b600281111561179a5761179a613836565b60028111156117ab576117ab613836565b8152602080820192909252604090810160009081208251808401909352858352828401828152815460018181018455928452949092209251600290940290920192835551910155806117fc81613805565b915050611618565b50506009839055600c80546001600160a01b03191633179055600b8290558015611834576000805461ff00191690555b5050505050565b600d546001600160a01b031633148061185e5750600c546001600160a01b031633145b61187a5760405162461bcd60e51b815260040161060b90613632565b6001600160a01b0381166118bf5760405162461bcd60e51b815260206004820152600c60248201526b7a65726f206164647265737360a01b604482015260640161060b565b600c80546001600160a01b0319166001600160a01b0392909216919091179055565b60606118ec82612bcf565b61190457505060408051602081019091526000815290565b6001600160a01b038216600090815260056020908152604080832080548251818502810185019093528083529192909190849084015b82821015611a5957838290600052602060002090600602016040518060c001604052908160008201805461196d906137ca565b80601f0160208091040260200160405190810160405280929190818152602001828054611999906137ca565b80156119e65780601f106119bb576101008083540402835291602001916119e6565b820191906000526020600020905b8154815290600101906020018083116119c957829003601f168201915b50505091835250506001820154602082015260028083015460408301526003830154606083015260048301546080830152600583015460a09092019160ff1690811115611a3557611a35613836565b6002811115611a4657611a46613836565b815250508152602001906001019061193a565b505050509050600081519050611a6d613215565b6000611a95610e1f85600081518110611a8857611a88613862565b6020026020010151612fc6565b604080518082019091526001808252602360f81b6020830152919250905b84811015610c6a57858181518110611acd57611acd613862565b602002602001015193508282611ae5610e1f87612fc6565b604051602001611af793929190613594565b60405160208183030381529060405292508080611b1390613805565b915050611ab3565b600d546001600160a01b0316331480611b3e5750600c546001600160a01b031633145b611b5a5760405162461bcd60e51b815260040161060b90613632565b600060086000836002811115611b7257611b72613836565b6002811115611b8357611b83613836565b8152602081019190915260400160002054905060018111611bf65760405162461bcd60e51b815260206004820152602760248201527f554e444f204348414e47453a204e6f206368616e67657320666f756e6420666f6044820152667220635479706560c81b606482015260840161060b565b60086000836002811115611c0c57611c0c613836565b6002811115611c1d57611c1d613836565b8152602001908152602001600020805480611c3a57611c3a61384c565b6000828152602081206002600019909301928302018181556001015590555050565b6060611c6782612bcf565b611c7f57505060408051602081019091526000815290565b6001600160a01b038216600090815260056020908152604080832080548251818502810185019093528083529192909190849084015b82821015611dd457838290600052602060002090600602016040518060c0016040529081600082018054611ce8906137ca565b80601f0160208091040260200160405190810160405280929190818152602001828054611d14906137ca565b8015611d615780601f10611d3657610100808354040283529160200191611d61565b820191906000526020600020905b815481529060010190602001808311611d4457829003601f168201915b50505091835250506001820154602082015260028083015460408301526003830154606083015260048301546080830152600583015460a09092019160ff1690811115611db057611db0613836565b6002811115611dc157611dc1613836565b8152505081526020019060010190611cb5565b505050509050600081519050611de8613215565b6000611e1d84600081518110611e0057611e00613862565b602002602001015160a001516002811115610e1f57610e1f613836565b604080518082019091526001808252602360f81b6020830152919250905b84811015610c6a57858181518110611e5557611e55613862565b602002602001015193508282611e7a8660a001516002811115610e1f57610e1f613836565b604051602001611e8c93929190613594565b60405160208183030381529060405292508080611ea890613805565b915050611e3b565b600d546001600160a01b0316331480611ed35750600c546001600160a01b031633145b611eef5760405162461bcd60e51b815260040161060b90613632565b6305f5e1008112611f535760405162461bcd60e51b815260206004820152602860248201527f5245445543455f5257443a20646f206e6f7420726564756365206d6f7265207460448201526768616e203130302560c01b606482015260840161060b565b60086000836002811115611f6957611f69613836565b6002811115611f7a57611f7a613836565b81526020808201929092526040908101600090812082518084019093524283528284019485528054600181810183559183529390912091516002909302909101918255915191015550565b600d546001600160a01b0316331480611fe85750600c546001600160a01b031633145b6120045760405162461bcd60e51b815260040161060b90613632565b806007600084600281111561201b5761201b613836565b600281111561202c5761202c613836565b81526020019081526020016000208190555060006008600084600281111561205657612056613836565b600281111561206757612067613836565b815260200190815260200160002060008154811061208757612087613862565b9060005260206000209060020201600001549050600860008460028111156120b1576120b1613836565b60028111156120c2576120c2613836565b815260200190815260200160002060006120dc919061325b565b600860008460028111156120f2576120f2613836565b600281111561210357612103613836565b81526020808201929092526040908101600090812082518084019093529382528183018181528454600181810187559583529390912091516002909302909101918255519101555050565b6001600160a01b038216600090815260056020908152604080832080548251818502810185019093528083528493849084015b828210156122a057838290600052602060002090600602016040518060c00160405290816000820180546121b4906137ca565b80601f01602080910402602001604051908101604052809291908181526020018280546121e0906137ca565b801561222d5780601f106122025761010080835404028352916020019161222d565b820191906000526020600020905b81548152906001019060200180831161221057829003601f168201915b50505091835250506001820154602082015260028083015460408301526003830154606083015260048301546080830152600583015460a09092019160ff169081111561227c5761227c613836565b600281111561228d5761228d613836565b8152505081526020019060010190612181565b5050825192935050508084106122f85760405162461bcd60e51b815260206004820152601c60248201527f434f4e543a20436f6e7420696e64657820697320696d70726f70657200000000604482015260640161060b565b600082858151811061230c5761230c613862565b6020026020010151905060006123228242612d15565b979650505050505050565b600d546000906001600160a01b03163314806123535750600c546001600160a01b031633145b61236f5760405162461bcd60e51b815260040161060b90613632565b6001600160a01b0383166000908152600560205260409020805483106123cb5760405162461bcd60e51b815260206004820152601160248201527021a7a72a1d1024b73232bc1022b93937b960791b604482015260640161060b565b60008184815481106123df576123df613862565b906000526020600020906006020190506123fc8160020154612fd2565b61246e5760405162461bcd60e51b815260206004820152603a60248201527f434153484f5554204552524f523a20596f75206861766520746f20776169742060448201527f6265666f726520636c61696d696e67207468697320636f6e742e000000000000606482015260840161060b565b60004290506000612576836040518060c0016040529081600082018054612494906137ca565b80601f01602080910402602001604051908101604052809291908181526020018280546124c0906137ca565b801561250d5780601f106124e25761010080835404028352916020019161250d565b820191906000526020600020905b8154815290600101906020018083116124f057829003601f168201915b50505091835250506001820154602082015260028083015460408301526003830154606083015260048301546080830152600583015460a09092019160ff169081111561255c5761255c613836565b600281111561256d5761256d613836565b90525083612d15565b6002909301919091555091505092915050565b6000600f60008360028111156125a1576125a1613836565b60028111156125b2576125b2613836565b8152602001908152602001600020549050919050565b600d546000906001600160a01b03163314806125ee5750600c546001600160a01b031633145b61260a5760405162461bcd60e51b815260040161060b90613632565b6001600160a01b03821660009081526005602052604090208054806126895760405162461bcd60e51b815260206004820152602f60248201527f434153484f5554204552524f523a20596f7520646f6e2774206861766520636f60448201526e1b9d1cc81d1bc818d85cda0b5bdd5d608a1b606482015260840161060b565b6000804281805b858110156126df5760008782815481106126ac576126ac613862565b9060005260206000209060060201600201549050828111156126cc578092505b50806126d781613805565b915050612690565b506126e981612fd2565b61275b5760405162461bcd60e51b815260206004820152603a60248201527f434153484f5554204552524f523a20596f75206861766520746f20776169742060448201527f6265666f726520636c61696d696e6720616c6c20636f6e74732e000000000000606482015260840161060b565b60005b858110156128ae5786818154811061277857612778613862565b90600052602060002090600602019450612889856040518060c00160405290816000820180546127a7906137ca565b80601f01602080910402602001604051908101604052809291908181526020018280546127d3906137ca565b80156128205780601f106127f557610100808354040283529160200191612820565b820191906000526020600020905b81548152906001019060200180831161280357829003601f168201915b50505091835250506001820154602082015260028083015460408301526003830154606083015260048301546080830152600583015460a09092019160ff169081111561286f5761286f613836565b600281111561288057612880613836565b90525084612d15565b61289390856136af565b600286018490559350806128a681613805565b91505061275e565b5091955050505050505b919050565b60606128c882612bcf565b6128e057505060408051602081019091526000815290565b6001600160a01b038216600090815260056020908152604080832080548251818502810185019093528083529192909190849084015b82821015612a3557838290600052602060002090600602016040518060c0016040529081600082018054612949906137ca565b80601f0160208091040260200160405190810160405280929190818152602001828054612975906137ca565b80156129c25780601f10612997576101008083540402835291602001916129c2565b820191906000526020600020905b8154815290600101906020018083116129a557829003601f168201915b50505091835250506001820154602082015260028083015460408301526003830154606083015260048301546080830152600583015460a09092019160ff1690811115612a1157612a11613836565b6002811115612a2257612a22613836565b8152505081526020019060010190612916565b505050509050600081519050612a49613215565b600083600081518110612a5e57612a5e613862565b60200260200101516000015190506000604051806040016040528060018152602001602360f81b81525090506000600190505b84811015610c6a57858181518110612aab57612aab613862565b6020026020010151935082828560000151604051602001612ace93929190613594565b60405160208183030381529060405292508080612aea90613805565b915050612a91565b600080612b03836305f5e10061372d565b90506305f5e100612b14828661370e565b612b1e91906136ec565b949350505050565b6001600160a01b038216600090815260038401602052604090205460ff1615612b6b576001600160a01b03821660009081526001840160205260409020819055505050565b6001600160a01b03821660008181526003850160209081526040808320805460ff19166001908117909155878101835281842086905587546002890184529184208290558101875586835291200180546001600160a01b0319169091179055505050565b6001600160a01b0316600090815260026020526040902054151590565b606081612c105750506040805180820190915260018152600360fc1b602082015290565b8160005b8115612c3a5780612c2481613805565b9150612c339050600a836136ec565b9150612c14565b60008167ffffffffffffffff811115612c5557612c55613878565b6040519080825280601f01601f191660200182016040528015612c7f576020820181803683370190505b509050815b8515612d0c57612c9560018261376c565b90506000612ca4600a886136ec565b612caf90600a61370e565b612cb9908861376c565b612cc49060306136c7565b905060008160f81b905080848481518110612ce157612ce1613862565b60200101906001600160f81b031916908160001a905350612d03600a896136ec565b97505050612c84565b50949350505050565b6000808360a0015190506000612d2f828660400151612feb565b90506000856080015190506000612d4a8788604001516130c6565b604088015160208901519192509060009081908190819081895b600860008d6002811115612d7a57612d7a613836565b6002811115612d8b57612d8b613836565b8152602081019190915260400160002054811015612ef057600860008d6002811115612db957612db9613836565b6002811115612dca57612dca613836565b81526020019081526020016000208181548110612de957612de9613862565b9060005260206000209060020201600001549650612e078884613170565b612e118885613170565b1480159250612e4957612e248884613170565b612e2f9060016136af565b600a54612e3c919061370e565b612e4690846136af565b96505b612e53888861376c565b94506301e13380856305f5e100612e6a8c8e61370e565b612e7491906136ec565b612e7e919061370e565b612e8891906136ec565b93508697508386612e9991906136af565b95508115612ec157612ead89600b54612af2565b985080612eb9816137b3565b915050612ede565b612edb89600860008f600281111561056957610569613836565b98505b80612ee881613805565b915050612d64565b505b8c8714612fb4578c9550612f068783613170565b612f108784613170565b1480159150612f4857612f238783613170565b612f2e9060016136af565b600a54612f3b919061370e565b612f4590836136af565b95505b612f52878761376c565b93506301e13380846305f5e100612f698b8d61370e565b612f7391906136ec565b612f7d919061370e565b612f8791906136ec565b92508596508285612f9891906136af565b94508015612faf57612fac88600b54612af2565b97505b612ef2565b50929c9b505050505050505050505050565b6000610f0682426130c6565b60004260095483612fe391906136af565b111592915050565b6000808060088186600281111561300457613004613836565b600281111561301557613015613836565b815260208101919091526040016000205490505b818111156105c4576000600261303f83856136af565b61304991906136ec565b9050846008600088600281111561306257613062613836565b600281111561307357613073613836565b8152602001908152602001600020828154811061309257613092613862565b90600052602060002090600202016000015410156130bc576130b58160016136af565b92506130c0565b8091505b50613029565b602082015160a083015160608401516000929190836130e58385612feb565b905060006130f38488612feb565b9050815b8181101561312d57613119846008600088600281111561056957610569613836565b93508061312581613805565b9150506130f7565b50600061313a8887613170565b90505b8015613163578061314d816137b3565b91505061315c84600b54612af2565b935061313d565b5091979650505050505050565b600a54600090613180838561376c565b61318a91906136ec565b9392505050565b82805461319d906137ca565b90600052602060002090601f0160209004810192826131bf5760008555613205565b82601f106131d857805160ff1916838001178555613205565b82800160010185558215613205579182015b828111156132055782518255916020019190600101906131ea565b5061321192915061327f565b5090565b6040518060c0016040528060608152602001600081526020016000815260200160008152602001600081526020016000600281111561325657613256613836565b905290565b508054600082556002029060005260206000209081019061327c9190613294565b50565b5b808211156132115760008155600101613280565b5b808211156132115760008082556001820155600201613295565b80356001600160a01b03811681146128b857600080fd5b600082601f8301126132d757600080fd5b813560206132ec6132e78361368b565b61365a565b80838252828201915082860187848660051b890101111561330c57600080fd5b60005b8581101561332b5781358452928401929084019060010161330f565b5090979650505050505050565b8035600381106128b857600080fd5b60006020828403121561335957600080fd5b61318a826132af565b60008060006060848603121561337757600080fd5b613380846132af565b925060208085013567ffffffffffffffff8082111561339e57600080fd5b818701915087601f8301126133b257600080fd5b81356133c06132e78261368b565b8082825285820191508585018b878560051b88010111156133e057600080fd5b60005b8481101561346d578135868111156133fa57600080fd5b8701603f81018e1361340b57600080fd5b888101358781111561341f5761341f613878565b613431601f8201601f19168b0161365a565b8181528f604083850101111561344657600080fd5b81604084018c83013760009181018b019190915285525092870192908701906001016133e3565b505080975050505050505061348460408501613338565b90509250925092565b600080604083850312156134a057600080fd5b6134a9836132af565b946020939093013593505050565b600080600080608085870312156134cd57600080fd5b843567ffffffffffffffff808211156134e557600080fd5b6134f1888389016132c6565b9550602087013591508082111561350757600080fd5b50613514878288016132c6565b949794965050505060408301359260600135919050565b60006020828403121561353d57600080fd5b61318a82613338565b6000806040838503121561355957600080fd5b6134a983613338565b60006020828403121561357457600080fd5b5035919050565b60006020828403121561358d57600080fd5b5051919050565b600084516135a6818460208901613783565b8451908301906135ba818360208901613783565b84519101906135cd818360208801613783565b0195945050505050565b60208101600383106135f957634e487b7160e01b600052602160045260246000fd5b91905290565b602081526000825180602084015261361e816040850160208701613783565b601f01601f19169190910160400192915050565b6020808252600e908201526d4163636573732044656e6965642160901b604082015260600190565b604051601f8201601f1916810167ffffffffffffffff8111828210171561368357613683613878565b604052919050565b600067ffffffffffffffff8211156136a5576136a5613878565b5060051b60200190565b600082198211156136c2576136c2613820565b500190565b600060ff821660ff84168060ff038211156136e4576136e4613820565b019392505050565b60008261370957634e487b7160e01b600052601260045260246000fd5b500490565b600081600019048311821515161561372857613728613820565b500290565b60008083128015600160ff1b85018412161561374b5761374b613820565b6001600160ff1b038401831381161561376657613766613820565b50500390565b60008282101561377e5761377e613820565b500390565b60005b8381101561379e578181015183820152602001613786565b838111156137ad576000848401525b50505050565b6000816137c2576137c2613820565b506000190190565b600181811c908216806137de57607f821691505b602082108114156137ff57634e487b7160e01b600052602260045260246000fd5b50919050565b600060001982141561381957613819613820565b5060010190565b634e487b7160e01b600052601160045260246000fd5b634e487b7160e01b600052602160045260246000fd5b634e487b7160e01b600052603160045260246000fd5b634e487b7160e01b600052603260045260246000fd5b634e487b7160e01b600052604160045260246000fdfea164736f6c6343000807000a",
  "devdoc": {
    "kind": "dev",
    "methods": {},
    "version": 1
  },
  "userdoc": {
    "kind": "user",
    "methods": {},
    "version": 1
  },
  "storageLayout": {
    "storage": [
      {
        "astId": 598,
        "contract": "contracts/dependencies/CONTRewardManagement.sol:CONTRewardManagement",
        "label": "_initialized",
        "offset": 0,
        "slot": "0",
        "type": "t_bool"
      },
      {
        "astId": 601,
        "contract": "contracts/dependencies/CONTRewardManagement.sol:CONTRewardManagement",
        "label": "_initializing",
        "offset": 1,
        "slot": "0",
        "type": "t_bool"
      },
      {
        "astId": 6268,
        "contract": "contracts/dependencies/CONTRewardManagement.sol:CONTRewardManagement",
        "label": "contOwners",
        "offset": 0,
        "slot": "1",
        "type": "t_struct(Map)9992_storage"
      },
      {
        "astId": 6274,
        "contract": "contracts/dependencies/CONTRewardManagement.sol:CONTRewardManagement",
        "label": "_contsOfUser",
        "offset": 0,
        "slot": "5",
        "type": "t_mapping(t_address,t_array(t_struct(ContEntity)6260_storage)dyn_storage)"
      },
      {
        "astId": 6279,
        "contract": "contracts/dependencies/CONTRewardManagement.sol:CONTRewardManagement",
        "label": "contPrice",
        "offset": 0,
        "slot": "6",
        "type": "t_mapping(t_enum(ContType)6234,t_uint256)"
      },
      {
        "astId": 6284,
        "contract": "contracts/dependencies/CONTRewardManagement.sol:CONTRewardManagement",
        "label": "initRewardAPRPerCont",
        "offset": 0,
        "slot": "7",
        "type": "t_mapping(t_enum(ContType)6234,t_uint256)"
      },
      {
        "astId": 6291,
        "contract": "contracts/dependencies/CONTRewardManagement.sol:CONTRewardManagement",
        "label": "aprChangesHistory",
        "offset": 0,
        "slot": "8",
        "type": "t_mapping(t_enum(ContType)6234,t_array(t_struct(APRChangesEntry)6265_storage)dyn_storage)"
      },
      {
        "astId": 6293,
        "contract": "contracts/dependencies/CONTRewardManagement.sol:CONTRewardManagement",
        "label": "cashoutTimeout",
        "offset": 0,
        "slot": "9",
        "type": "t_uint256"
      },
      {
        "astId": 6295,
        "contract": "contracts/dependencies/CONTRewardManagement.sol:CONTRewardManagement",
        "label": "autoReduceAPRInterval",
        "offset": 0,
        "slot": "10",
        "type": "t_uint256"
      },
      {
        "astId": 6297,
        "contract": "contracts/dependencies/CONTRewardManagement.sol:CONTRewardManagement",
        "label": "autoReduceAPRRate",
        "offset": 0,
        "slot": "11",
        "type": "t_uint256"
      },
      {
        "astId": 6299,
        "contract": "contracts/dependencies/CONTRewardManagement.sol:CONTRewardManagement",
        "label": "admin0XB",
        "offset": 0,
        "slot": "12",
        "type": "t_address"
      },
      {
        "astId": 6301,
        "contract": "contracts/dependencies/CONTRewardManagement.sol:CONTRewardManagement",
        "label": "token",
        "offset": 0,
        "slot": "13",
        "type": "t_address"
      },
      {
        "astId": 6303,
        "contract": "contracts/dependencies/CONTRewardManagement.sol:CONTRewardManagement",
        "label": "totalContsCreated",
        "offset": 0,
        "slot": "14",
        "type": "t_uint256"
      },
      {
        "astId": 6308,
        "contract": "contracts/dependencies/CONTRewardManagement.sol:CONTRewardManagement",
        "label": "_totalContsPerContType",
        "offset": 0,
        "slot": "15",
        "type": "t_mapping(t_enum(ContType)6234,t_uint256)"
      }
    ],
    "types": {
      "t_address": {
        "encoding": "inplace",
        "label": "address",
        "numberOfBytes": "20"
      },
      "t_array(t_address)dyn_storage": {
        "base": "t_address",
        "encoding": "dynamic_array",
        "label": "address[]",
        "numberOfBytes": "32"
      },
      "t_array(t_struct(APRChangesEntry)6265_storage)dyn_storage": {
        "base": "t_struct(APRChangesEntry)6265_storage",
        "encoding": "dynamic_array",
        "label": "struct CONTRewardManagement.APRChangesEntry[]",
        "numberOfBytes": "32"
      },
      "t_array(t_struct(ContEntity)6260_storage)dyn_storage": {
        "base": "t_struct(ContEntity)6260_storage",
        "encoding": "dynamic_array",
        "label": "struct CONTRewardManagement.ContEntity[]",
        "numberOfBytes": "32"
      },
      "t_bool": {
        "encoding": "inplace",
        "label": "bool",
        "numberOfBytes": "1"
      },
      "t_enum(ContType)6234": {
        "encoding": "inplace",
        "label": "enum ContType",
        "numberOfBytes": "1"
      },
      "t_int256": {
        "encoding": "inplace",
        "label": "int256",
        "numberOfBytes": "32"
      },
      "t_mapping(t_address,t_array(t_struct(ContEntity)6260_storage)dyn_storage)": {
        "encoding": "mapping",
        "key": "t_address",
        "label": "mapping(address => struct CONTRewardManagement.ContEntity[])",
        "numberOfBytes": "32",
        "value": "t_array(t_struct(ContEntity)6260_storage)dyn_storage"
      },
      "t_mapping(t_address,t_bool)": {
        "encoding": "mapping",
        "key": "t_address",
        "label": "mapping(address => bool)",
        "numberOfBytes": "32",
        "value": "t_bool"
      },
      "t_mapping(t_address,t_uint256)": {
        "encoding": "mapping",
        "key": "t_address",
        "label": "mapping(address => uint256)",
        "numberOfBytes": "32",
        "value": "t_uint256"
      },
      "t_mapping(t_enum(ContType)6234,t_array(t_struct(APRChangesEntry)6265_storage)dyn_storage)": {
        "encoding": "mapping",
        "key": "t_enum(ContType)6234",
        "label": "mapping(enum ContType => struct CONTRewardManagement.APRChangesEntry[])",
        "numberOfBytes": "32",
        "value": "t_array(t_struct(APRChangesEntry)6265_storage)dyn_storage"
      },
      "t_mapping(t_enum(ContType)6234,t_uint256)": {
        "encoding": "mapping",
        "key": "t_enum(ContType)6234",
        "label": "mapping(enum ContType => uint256)",
        "numberOfBytes": "32",
        "value": "t_uint256"
      },
      "t_string_storage": {
        "encoding": "bytes",
        "label": "string",
        "numberOfBytes": "32"
      },
      "t_struct(APRChangesEntry)6265_storage": {
        "encoding": "inplace",
        "label": "struct CONTRewardManagement.APRChangesEntry",
        "members": [
          {
            "astId": 6262,
            "contract": "contracts/dependencies/CONTRewardManagement.sol:CONTRewardManagement",
            "label": "timestamp",
            "offset": 0,
            "slot": "0",
            "type": "t_uint256"
          },
          {
            "astId": 6264,
            "contract": "contracts/dependencies/CONTRewardManagement.sol:CONTRewardManagement",
            "label": "reducedPercentage",
            "offset": 0,
            "slot": "1",
            "type": "t_int256"
          }
        ],
        "numberOfBytes": "64"
      },
      "t_struct(ContEntity)6260_storage": {
        "encoding": "inplace",
        "label": "struct CONTRewardManagement.ContEntity",
        "members": [
          {
            "astId": 6248,
            "contract": "contracts/dependencies/CONTRewardManagement.sol:CONTRewardManagement",
            "label": "name",
            "offset": 0,
            "slot": "0",
            "type": "t_string_storage"
          },
          {
            "astId": 6250,
            "contract": "contracts/dependencies/CONTRewardManagement.sol:CONTRewardManagement",
            "label": "creationTime",
            "offset": 0,
            "slot": "1",
            "type": "t_uint256"
          },
          {
            "astId": 6252,
            "contract": "contracts/dependencies/CONTRewardManagement.sol:CONTRewardManagement",
            "label": "lastUpdateTime",
            "offset": 0,
            "slot": "2",
            "type": "t_uint256"
          },
          {
            "astId": 6254,
            "contract": "contracts/dependencies/CONTRewardManagement.sol:CONTRewardManagement",
            "label": "initialAPR",
            "offset": 0,
            "slot": "3",
            "type": "t_uint256"
          },
          {
            "astId": 6256,
            "contract": "contracts/dependencies/CONTRewardManagement.sol:CONTRewardManagement",
            "label": "buyPrice",
            "offset": 0,
            "slot": "4",
            "type": "t_uint256"
          },
          {
            "astId": 6259,
            "contract": "contracts/dependencies/CONTRewardManagement.sol:CONTRewardManagement",
            "label": "cType",
            "offset": 0,
            "slot": "5",
            "type": "t_enum(ContType)6234"
          }
        ],
        "numberOfBytes": "192"
      },
      "t_struct(Map)9992_storage": {
        "encoding": "inplace",
        "label": "struct IterableMapping.Map",
        "members": [
          {
            "astId": 9979,
            "contract": "contracts/dependencies/CONTRewardManagement.sol:CONTRewardManagement",
            "label": "keys",
            "offset": 0,
            "slot": "0",
            "type": "t_array(t_address)dyn_storage"
          },
          {
            "astId": 9983,
            "contract": "contracts/dependencies/CONTRewardManagement.sol:CONTRewardManagement",
            "label": "values",
            "offset": 0,
            "slot": "1",
            "type": "t_mapping(t_address,t_uint256)"
          },
          {
            "astId": 9987,
            "contract": "contracts/dependencies/CONTRewardManagement.sol:CONTRewardManagement",
            "label": "indexOf",
            "offset": 0,
            "slot": "2",
            "type": "t_mapping(t_address,t_uint256)"
          },
          {
            "astId": 9991,
            "contract": "contracts/dependencies/CONTRewardManagement.sol:CONTRewardManagement",
            "label": "inserted",
            "offset": 0,
            "slot": "3",
            "type": "t_mapping(t_address,t_bool)"
          }
        ],
        "numberOfBytes": "128"
      },
      "t_uint256": {
        "encoding": "inplace",
        "label": "uint256",
        "numberOfBytes": "32"
      }
    }
  }
}