{
  "address": "0xaE00b9A53dbEEd9f86A61e413Df794F1283E812D",
  "abi": [
    {
      "anonymous": false,
      "inputs": [
        {
          "indexed": false,
          "internalType": "enum ContType",
          "name": "_cType",
          "type": "uint8"
        },
        {
          "indexed": false,
          "internalType": "uint256",
          "name": "delta",
          "type": "uint256"
        }
      ],
      "name": "BreakevenChanged",
      "type": "event"
    },
    {
      "inputs": [
        {
          "internalType": "address",
          "name": "account",
          "type": "address"
        }
      ],
      "name": "_cashoutAllContsReward",
      "outputs": [
        {
          "internalType": "uint256",
          "name": "",
          "type": "uint256"
        },
        {
          "internalType": "uint256",
          "name": "",
          "type": "uint256"
        },
        {
          "internalType": "uint256",
          "name": "",
          "type": "uint256"
        },
        {
          "internalType": "uint256",
          "name": "",
          "type": "uint256"
        }
      ],
      "stateMutability": "nonpayable",
      "type": "function"
    },
    {
      "inputs": [
        {
          "internalType": "address",
          "name": "account",
          "type": "address"
        },
        {
          "internalType": "uint256",
          "name": "_contIndex",
          "type": "uint256"
        }
      ],
      "name": "_cashoutContReward",
      "outputs": [
        {
          "internalType": "uint256",
          "name": "",
          "type": "uint256"
        },
        {
          "internalType": "enum ContType",
          "name": "",
          "type": "uint8"
        }
      ],
      "stateMutability": "nonpayable",
      "type": "function"
    },
    {
      "inputs": [
        {
          "internalType": "uint256",
          "name": "newInterval",
          "type": "uint256"
        }
      ],
      "name": "_changeAutoReduceAPRInterval",
      "outputs": [],
      "stateMutability": "nonpayable",
      "type": "function"
    },
    {
      "inputs": [
        {
          "internalType": "uint256",
          "name": "newRate",
          "type": "uint256"
        }
      ],
      "name": "_changeAutoReduceAPRRate",
      "outputs": [],
      "stateMutability": "nonpayable",
      "type": "function"
    },
    {
      "inputs": [
        {
          "internalType": "uint256",
          "name": "newTime",
          "type": "uint256"
        }
      ],
      "name": "_changeCashoutTimeout",
      "outputs": [],
      "stateMutability": "nonpayable",
      "type": "function"
    },
    {
      "inputs": [
        {
          "internalType": "enum ContType",
          "name": "_cType",
          "type": "uint8"
        },
        {
          "internalType": "uint256",
          "name": "newPrice",
          "type": "uint256"
        }
      ],
      "name": "_changeContPrice",
      "outputs": [],
      "stateMutability": "nonpayable",
      "type": "function"
    },
    {
      "inputs": [
        {
          "internalType": "enum ContType",
          "name": "_cType",
          "type": "uint8"
        },
        {
          "internalType": "int256",
          "name": "reducedPercentage",
          "type": "int256"
        }
      ],
      "name": "_changeRewardAPRPerCont",
      "outputs": [],
      "stateMutability": "nonpayable",
      "type": "function"
    },
    {
      "inputs": [
        {
          "internalType": "address",
          "name": "account",
          "type": "address"
        }
      ],
      "name": "_getContNumberOf",
      "outputs": [
        {
          "internalType": "uint256",
          "name": "",
          "type": "uint256"
        }
      ],
      "stateMutability": "view",
      "type": "function"
    },
    {
      "inputs": [
        {
          "internalType": "address",
          "name": "account",
          "type": "address"
        }
      ],
      "name": "_getContsCreationTime",
      "outputs": [
        {
          "internalType": "string",
          "name": "",
          "type": "string"
        }
      ],
      "stateMutability": "view",
      "type": "function"
    },
    {
      "inputs": [
        {
          "internalType": "address",
          "name": "account",
          "type": "address"
        }
      ],
      "name": "_getContsCurrentAPR",
      "outputs": [
        {
          "internalType": "string",
          "name": "",
          "type": "string"
        }
      ],
      "stateMutability": "view",
      "type": "function"
    },
    {
      "inputs": [
        {
          "internalType": "address",
          "name": "account",
          "type": "address"
        }
      ],
      "name": "_getContsInitialAPR",
      "outputs": [
        {
          "internalType": "string",
          "name": "",
          "type": "string"
        }
      ],
      "stateMutability": "view",
      "type": "function"
    },
    {
      "inputs": [
        {
          "internalType": "address",
          "name": "account",
          "type": "address"
        }
      ],
      "name": "_getContsLastUpdateTime",
      "outputs": [
        {
          "internalType": "string",
          "name": "",
          "type": "string"
        }
      ],
      "stateMutability": "view",
      "type": "function"
    },
    {
      "inputs": [
        {
          "internalType": "address",
          "name": "account",
          "type": "address"
        }
      ],
      "name": "_getContsNames",
      "outputs": [
        {
          "internalType": "string",
          "name": "",
          "type": "string"
        }
      ],
      "stateMutability": "view",
      "type": "function"
    },
    {
      "inputs": [
        {
          "internalType": "address",
          "name": "account",
          "type": "address"
        }
      ],
      "name": "_getContsRewardAvailable",
      "outputs": [
        {
          "internalType": "string",
          "name": "",
          "type": "string"
        }
      ],
      "stateMutability": "view",
      "type": "function"
    },
    {
      "inputs": [
        {
          "internalType": "address",
          "name": "account",
          "type": "address"
        }
      ],
      "name": "_getContsTypes",
      "outputs": [
        {
          "internalType": "string",
          "name": "",
          "type": "string"
        }
      ],
      "stateMutability": "view",
      "type": "function"
    },
    {
      "inputs": [
        {
          "internalType": "address",
          "name": "account",
          "type": "address"
        }
      ],
      "name": "_getRewardAmountOf",
      "outputs": [
        {
          "internalType": "uint256",
          "name": "",
          "type": "uint256"
        }
      ],
      "stateMutability": "view",
      "type": "function"
    },
    {
      "inputs": [
        {
          "internalType": "address",
          "name": "account",
          "type": "address"
        },
        {
          "internalType": "uint256",
          "name": "_contIndex",
          "type": "uint256"
        }
      ],
      "name": "_getRewardAmountOfIndex",
      "outputs": [
        {
          "internalType": "uint256",
          "name": "",
          "type": "uint256"
        }
      ],
      "stateMutability": "view",
      "type": "function"
    },
    {
      "inputs": [
        {
          "internalType": "address",
          "name": "account",
          "type": "address"
        }
      ],
      "name": "_isContOwner",
      "outputs": [
        {
          "internalType": "bool",
          "name": "",
          "type": "bool"
        }
      ],
      "stateMutability": "view",
      "type": "function"
    },
    {
      "inputs": [
        {
          "internalType": "enum ContType",
          "name": "_cType",
          "type": "uint8"
        },
        {
          "internalType": "uint256",
          "name": "_initialPrice",
          "type": "uint256"
        }
      ],
      "name": "_resetAllAPRChange",
      "outputs": [],
      "stateMutability": "nonpayable",
      "type": "function"
    },
    {
      "inputs": [
        {
          "internalType": "enum ContType",
          "name": "_cType",
          "type": "uint8"
        }
      ],
      "name": "_undoRewardAPRChange",
      "outputs": [],
      "stateMutability": "nonpayable",
      "type": "function"
    },
    {
      "inputs": [],
      "name": "_updateAdminDashboard",
      "outputs": [],
      "stateMutability": "nonpayable",
      "type": "function"
    },
    {
      "inputs": [],
      "name": "admin0XB",
      "outputs": [
        {
          "internalType": "address",
          "name": "",
          "type": "address"
        }
      ],
      "stateMutability": "view",
      "type": "function"
    },
    {
      "inputs": [],
      "name": "autoReduceAPRInterval",
      "outputs": [
        {
          "internalType": "uint256",
          "name": "",
          "type": "uint256"
        }
      ],
      "stateMutability": "view",
      "type": "function"
    },
    {
      "inputs": [],
      "name": "autoReduceAPRRate",
      "outputs": [
        {
          "internalType": "uint256",
          "name": "",
          "type": "uint256"
        }
      ],
      "stateMutability": "view",
      "type": "function"
    },
    {
      "inputs": [
        {
          "internalType": "enum ContType",
          "name": "_cType",
          "type": "uint8"
        }
      ],
      "name": "breakevenContsPerType",
      "outputs": [
        {
          "internalType": "uint256",
          "name": "",
          "type": "uint256"
        }
      ],
      "stateMutability": "view",
      "type": "function"
    },
    {
      "inputs": [],
      "name": "cashoutTimeout",
      "outputs": [
        {
          "internalType": "uint256",
          "name": "",
          "type": "uint256"
        }
      ],
      "stateMutability": "view",
      "type": "function"
    },
    {
      "inputs": [
        {
          "internalType": "enum ContType",
          "name": "",
          "type": "uint8"
        }
      ],
      "name": "contPrice",
      "outputs": [
        {
          "internalType": "uint256",
          "name": "",
          "type": "uint256"
        }
      ],
      "stateMutability": "view",
      "type": "function"
    },
    {
      "inputs": [
        {
          "internalType": "address",
          "name": "account",
          "type": "address"
        },
        {
          "internalType": "string[]",
          "name": "contNames",
          "type": "string[]"
        },
        {
          "internalType": "enum ContType",
          "name": "_cType",
          "type": "uint8"
        }
      ],
      "name": "createConts",
      "outputs": [],
      "stateMutability": "nonpayable",
      "type": "function"
    },
    {
      "inputs": [
        {
          "internalType": "enum ContType",
          "name": "_cType",
          "type": "uint8"
        }
      ],
      "name": "currentRewardAPRPerNewCont",
      "outputs": [
        {
          "internalType": "uint256",
          "name": "",
          "type": "uint256"
        }
      ],
      "stateMutability": "view",
      "type": "function"
    },
    {
      "inputs": [
        {
          "internalType": "enum ContType",
          "name": "",
          "type": "uint8"
        }
      ],
      "name": "initRewardAPRPerCont",
      "outputs": [
        {
          "internalType": "uint256",
          "name": "",
          "type": "uint256"
        }
      ],
      "stateMutability": "view",
      "type": "function"
    },
    {
      "inputs": [
        {
          "internalType": "uint256[]",
          "name": "_contPrices",
          "type": "uint256[]"
        },
        {
          "internalType": "uint256[]",
          "name": "_rewardAPRs",
          "type": "uint256[]"
        },
        {
          "internalType": "uint256",
          "name": "_cashoutTimeout",
          "type": "uint256"
        },
        {
          "internalType": "uint256",
          "name": "_autoReduceAPRRate",
          "type": "uint256"
        }
      ],
      "name": "initialize",
      "outputs": [],
      "stateMutability": "nonpayable",
      "type": "function"
    },
    {
      "inputs": [
        {
          "internalType": "address",
          "name": "newAdmin",
          "type": "address"
        }
      ],
      "name": "setAdmin",
      "outputs": [],
      "stateMutability": "nonpayable",
      "type": "function"
    },
    {
      "inputs": [
        {
          "internalType": "address",
          "name": "token_",
          "type": "address"
        }
      ],
      "name": "setToken",
      "outputs": [],
      "stateMutability": "nonpayable",
      "type": "function"
    },
    {
      "inputs": [],
      "name": "token",
      "outputs": [
        {
          "internalType": "address",
          "name": "",
          "type": "address"
        }
      ],
      "stateMutability": "view",
      "type": "function"
    },
    {
      "inputs": [],
      "name": "totalContsCreated",
      "outputs": [
        {
          "internalType": "uint256",
          "name": "",
          "type": "uint256"
        }
      ],
      "stateMutability": "view",
      "type": "function"
    },
    {
      "inputs": [
        {
          "internalType": "enum ContType",
          "name": "_cType",
          "type": "uint8"
        }
      ],
      "name": "totalContsPerContType",
      "outputs": [
        {
          "internalType": "uint256",
          "name": "",
          "type": "uint256"
        }
      ],
      "stateMutability": "view",
      "type": "function"
    }
  ],
  "transactionHash": "0xfb8c2e73d2cbdd8245f3aaf3b6dcbb9a09d3e43f1f39c456543ae4e74ddf8fe9",
  "args": [],
  "numDeployments": 11,
  "solcInputHash": "d44c5856d71d6b7353e6b02d3a358620",
  "bytecode": "0x608060405234801561001057600080fd5b50613e36806100206000396000f3fe608060405234801561001057600080fd5b506004361061021b5760003560e01c806363a9b098116101255780639b28d1a7116100ad578063ce6912a31161007c578063ce6912a3146104b6578063d094fa8d146104c9578063e18f03ad146104fc578063f743f31914610505578063fc0c546a1461051857600080fd5b80639b28d1a7146104665780639d2040f01461046f5780639f227c5314610482578063c2202b661461049557600080fd5b806377ec7826116100f457806377ec7826146103f95780638201bf261461040c578063872a60ad1461041f5780638bf145141461044a57806393520a801461045d57600080fd5b806363a9b09814610390578063665bb078146103b05780636eb5a7f4146103d3578063704b6c02146103e657600080fd5b806328cceb24116101a85780634f88de01116101775780634f88de011461032e57806351bf120c1461034e57806355a757d0146103615780635dbab6ed1461036a578063619a635e1461037d57600080fd5b806328cceb24146102d5578063367fd074146102f5578063390c991e1461030857806344fea1b91461031b57600080fd5b80630d9f9f0c116101ef5780630d9f9f0c14610281578063144fa6d714610294578063150bf591146102a75780631565f50e146102af5780631d5a1731146102c257600080fd5b8062c73e4d146102205780630534cc68146102465780630835209f1461025b5780630b9f6cfe1461026e575b600080fd5b61023361022e366004613a51565b61052b565b6040519081526020015b60405180910390f35b610259610254366004613888565b61062b565b005b610233610269366004613a51565b6108ce565b61023361027c3660046139b3565b61090d565b61025961028f366004613a88565b610af3565b6102596102a236600461386d565b610b37565b610259610bdd565b6102596102bd366004613a88565b610f3d565b6102596102d0366004613a6c565b610f81565b6102e86102e336600461386d565b610ffd565b60405161023d9190613b48565b6102e861030336600461386d565b611245565b610259610316366004613a88565b6114b4565b61023361032936600461386d565b6114f8565b61023361033c366004613a51565b60076020526000908152604090205481565b6102e861035c36600461386d565b611516565b61023360095481565b6102e861037836600461386d565b611752565b61023361038b36600461386d565b61198e565b61023361039e366004613a51565b60066020526000908152604090205481565b6103c36103be36600461386d565b611b66565b604051901515815260200161023d565b6102596103e13660046139dd565b611b71565b6102596103f436600461386d565b611e4a565b6102e861040736600461386d565b611ef0565b61025961041a366004613a51565b61212a565b600c54610432906001600160a01b031681565b6040516001600160a01b03909116815260200161023d565b6102e861045836600461386d565b61226b565b610233600b5481565b610233600a5481565b61025961047d366004613a6c565b6124bf565b610259610490366004613a6c565b6125d4565b6104a86104a33660046139b3565b61275d565b60405161023d929190613ba3565b6102336104c4366004613a51565b6129b7565b6104dc6104d736600461386d565b6129cf565b60408051948552602085019390935291830152606082015260800161023d565b610233600e5481565b6102e861051336600461386d565b612d33565b600d54610432906001600160a01b031681565b6000806008600084600281111561054457610544613dd1565b600281111561055557610555613dd1565b815260200190815260200160002080549050905060006007600085600281111561058157610581613dd1565b600281111561059257610592613dd1565b815260200190815260200160002054905060005b828110156106235761060f82600860008860028111156105c8576105c8613dd1565b60028111156105d9576105d9613dd1565b815260200190815260200160002083815481106105f8576105f8613dfd565b906000526020600020906002020160010154612f68565b91508061061b81613d62565b9150506105a6565b509392505050565b600d546001600160a01b0316331461065e5760405162461bcd60e51b815260040161065590613b7b565b60405180910390fd5b6001600160a01b0383166000908152600560205260405162c73e4d60e01b8152309062c73e4d90610693908590600401613b1f565b60206040518083038186803b1580156106ab57600080fd5b505afa1580156106bf573d6000803e3d6000fd5b505050506040513d601f19601f820116820180604052508101906106e39190613aa1565b905060005b835181101561083d5760056000866001600160a01b03166001600160a01b031681526020019081526020016000206040518060c0016040528086848151811061073357610733613dfd565b602002602001015181526020014281526020014281526020018481526020016006600087600281111561076857610768613dd1565b600281111561077957610779613dd1565b815260200190815260200160002054815260200185600281111561079f5761079f613dd1565b9052815460018101835560009283526020928390208251805193946006909302909101926107d092849201906136b2565b506020820151816001015560408201518160020155606082015181600301556080820151816004015560a08201518160050160006101000a81548160ff0219169083600281111561082357610823613dd1565b02179055505050808061083590613d62565b9150506106e8565b506001600160a01b038416600090815260056020526040902054610865906001908690612f9c565b8251600e60008282546108789190613c0c565b90915550508251600f600084600281111561089557610895613dd1565b60028111156108a6576108a6613dd1565b815260200190815260200160002060008282546108c39190613c0c565b909155505050505050565b6000601060008360028111156108e6576108e6613dd1565b60028111156108f7576108f7613dd1565b8152602001908152602001600020549050919050565b6001600160a01b038216600090815260056020908152604080832080548251818502810185019093528083528493849084015b82821015610a5f57838290600052602060002090600602016040518060c001604052908160008201805461097390613d27565b80601f016020809104026020016040519081016040528092919081815260200182805461099f90613d27565b80156109ec5780601f106109c1576101008083540402835291602001916109ec565b820191906000526020600020905b8154815290600101906020018083116109cf57829003601f168201915b50505091835250506001820154602082015260028083015460408301526003830154606083015260048301546080830152600583015460a09092019160ff1690811115610a3b57610a3b613dd1565b6002811115610a4c57610a4c613dd1565b8152505081526020019060010190610940565b505082519293505050808410610ab75760405162461bcd60e51b815260206004820152601c60248201527f434f4e543a20436f6e7420696e64657820697320696d70726f706572000000006044820152606401610655565b6000828581518110610acb57610acb613dfd565b602002602001015190506000610ae682836040015142613045565b9450505050505b92915050565b600d546001600160a01b0316331480610b165750600c546001600160a01b031633145b610b325760405162461bcd60e51b815260040161065590613b7b565b600b55565b600d546001600160a01b0316331480610b5a5750600c546001600160a01b031633145b610b765760405162461bcd60e51b815260040161065590613b7b565b6001600160a01b038116610bbb5760405162461bcd60e51b815260206004820152600c60248201526b7a65726f206164647265737360a01b6044820152606401610655565b600d80546001600160a01b0319166001600160a01b0392909216919091179055565b60408051606081018252600080825260208201819052918101829052815b6001548167ffffffffffffffff161015610e08576000610c26600167ffffffffffffffff8416613375565b905060005b6001600160a01b03821660009081526005602052604090205463ffffffff82161015610df3576001600160a01b0382166000908152600560205260408120805463ffffffff8416908110610c8157610c81613dfd565b90600052602060002090600602016040518060c0016040529081600082018054610caa90613d27565b80601f0160208091040260200160405190810160405280929190818152602001828054610cd690613d27565b8015610d235780601f10610cf857610100808354040283529160200191610d23565b820191906000526020600020905b815481529060010190602001808311610d0657829003601f168201915b50505091835250506001820154602082015260028083015460408301526003830154606083015260048301546080830152600583015460a09092019160ff1690811115610d7257610d72613dd1565b6002811115610d8357610d83613dd1565b9052506020810151909150610d99828242613045565b826080015111610dde57858260a001516002811115610dba57610dba613dd1565b60038110610dca57610dca613dfd565b60200201805190610dda82613d62565b9052505b50508080610deb90613d7d565b915050610c2b565b50508080610e0090613da1565b915050610bfb565b5060005b6003811015610f38577f973cb5e7d2831babd05fc3de4db9926ae3b4301b00c92c3542e0771ea471b0fd816002811115610e4857610e48613dd1565b60106000846002811115610e5e57610e5e613dd1565b6002811115610e6f57610e6f613dd1565b6002811115610e8057610e80613dd1565b815260200190815260200160002054848460038110610ea157610ea1613dfd565b6020020151610eb09190613cc9565b604051610ebe929190613b2d565b60405180910390a1818160038110610ed857610ed8613dfd565b602002015160106000836002811115610ef357610ef3613dd1565b6002811115610f0457610f04613dd1565b6002811115610f1557610f15613dd1565b815260208101919091526040016000205580610f3081613d62565b915050610e0c565b505050565b600d546001600160a01b0316331480610f605750600c546001600160a01b031633145b610f7c5760405162461bcd60e51b815260040161065590613b7b565b600a55565b600d546001600160a01b0316331480610fa45750600c546001600160a01b031633145b610fc05760405162461bcd60e51b815260040161065590613b7b565b8060066000846002811115610fd757610fd7613dd1565b6002811115610fe857610fe8613dd1565b81526020810191909152604001600020555050565b6060611008826133a8565b61102057505060408051602081019091526000815290565b6001600160a01b038216600090815260056020908152604080832080548251818502810185019093528083529192909190849084015b8282101561117557838290600052602060002090600602016040518060c001604052908160008201805461108990613d27565b80601f01602080910402602001604051908101604052809291908181526020018280546110b590613d27565b80156111025780601f106110d757610100808354040283529160200191611102565b820191906000526020600020905b8154815290600101906020018083116110e557829003601f168201915b50505091835250506001820154602082015260028083015460408301526003830154606083015260048301546080830152600583015460a09092019160ff169081111561115157611151613dd1565b600281111561116257611162613dd1565b8152505081526020019060010190611056565b505050509050600081519050611189613736565b60006111b2846000815181106111a1576111a1613dfd565b6020026020010151602001516133c5565b604080518082019091526001808252602360f81b6020830152919250905b84811015611239578581815181106111ea576111ea613dfd565b60200260200101519350828261120386602001516133c5565b60405160200161121593929190613adc565b6040516020818303038152906040529250808061123190613d62565b9150506111d0565b50909695505050505050565b6060611250826133a8565b61126857505060408051602081019091526000815290565b6001600160a01b038216600090815260056020908152604080832080548251818502810185019093528083529192909190849084015b828210156113bd57838290600052602060002090600602016040518060c00160405290816000820180546112d190613d27565b80601f01602080910402602001604051908101604052809291908181526020018280546112fd90613d27565b801561134a5780601f1061131f5761010080835404028352916020019161134a565b820191906000526020600020905b81548152906001019060200180831161132d57829003601f168201915b50505091835250506001820154602082015260028083015460408301526003830154606083015260048301546080830152600583015460a09092019160ff169081111561139957611399613dd1565b60028111156113aa576113aa613dd1565b815250508152602001906001019061129e565b505082519293504291506000905061141261140d8583866113e0576113e0613dfd565b6020026020010151866000815181106113fb576113fb613dfd565b60200260200101516040015185613045565b6133c5565b604080518082019091526001808252602360f81b6020830152919250905b8481101561123957828261147e61140d89858151811061145257611452613dfd565b60200260200101518a868151811061146c5761146c613dfd565b60200260200101516040015189613045565b60405160200161149093929190613adc565b604051602081830303815290604052925080806114ac90613d62565b915050611430565b600d546001600160a01b03163314806114d75750600c546001600160a01b031633145b6114f35760405162461bcd60e51b815260040161065590613b7b565b600955565b6001600160a01b038116600090815260026020526040812054610aed565b6060611521826133a8565b61153957505060408051602081019091526000815290565b6001600160a01b038216600090815260056020908152604080832080548251818502810185019093528083529192909190849084015b8282101561168e57838290600052602060002090600602016040518060c00160405290816000820180546115a290613d27565b80601f01602080910402602001604051908101604052809291908181526020018280546115ce90613d27565b801561161b5780601f106115f05761010080835404028352916020019161161b565b820191906000526020600020905b8154815290600101906020018083116115fe57829003601f168201915b50505091835250506001820154602082015260028083015460408301526003830154606083015260048301546080830152600583015460a09092019160ff169081111561166a5761166a613dd1565b600281111561167b5761167b613dd1565b815250508152602001906001019061156f565b5050505090506000815190506116a2613736565b60006116cb846000815181106116ba576116ba613dfd565b6020026020010151604001516133c5565b604080518082019091526001808252602360f81b6020830152919250905b848110156112395785818151811061170357611703613dfd565b60200260200101519350828261171c86604001516133c5565b60405160200161172e93929190613adc565b6040516020818303038152906040529250808061174a90613d62565b9150506116e9565b606061175d826133a8565b61177557505060408051602081019091526000815290565b6001600160a01b038216600090815260056020908152604080832080548251818502810185019093528083529192909190849084015b828210156118ca57838290600052602060002090600602016040518060c00160405290816000820180546117de90613d27565b80601f016020809104026020016040519081016040528092919081815260200182805461180a90613d27565b80156118575780601f1061182c57610100808354040283529160200191611857565b820191906000526020600020905b81548152906001019060200180831161183a57829003601f168201915b50505091835250506001820154602082015260028083015460408301526003830154606083015260048301546080830152600583015460a09092019160ff16908111156118a6576118a6613dd1565b60028111156118b7576118b7613dd1565b81525050815260200190600101906117ab565b5050505090506000815190506118de613736565b6000611907846000815181106118f6576118f6613dfd565b6020026020010151606001516133c5565b604080518082019091526001808252602360f81b6020830152919250905b848110156112395785818151811061193f5761193f613dfd565b60200260200101519350828261195886606001516133c5565b60405160200161196a93929190613adc565b6040516020818303038152906040529250808061198690613d62565b915050611925565b6000611999826133a8565b6119a557506000919050565b6001600160a01b038216600090815260056020908152604080832080548251818502810185019093528083528493849084015b82821015611af757838290600052602060002090600602016040518060c0016040529081600082018054611a0b90613d27565b80601f0160208091040260200160405190810160405280929190818152602001828054611a3790613d27565b8015611a845780601f10611a5957610100808354040283529160200191611a84565b820191906000526020600020905b815481529060010190602001808311611a6757829003601f168201915b50505091835250506001820154602082015260028083015460408301526003830154606083015260048301546080830152600583015460a09092019160ff1690811115611ad357611ad3613dd1565b6002811115611ae457611ae4613dd1565b81525050815260200190600101906119d8565b50508251929350429150600090505b82811015611b5b576000848281518110611b2257611b22613dfd565b60200260200101519050611b3b81826040015185613045565b611b459087613c0c565b9550508080611b5390613d62565b915050611b06565b509295945050505050565b6000610aed826133a8565b600054610100900460ff16611b8c5760005460ff1615611b90565b303b155b611bf35760405162461bcd60e51b815260206004820152602e60248201527f496e697469616c697a61626c653a20636f6e747261637420697320616c72656160448201526d191e481a5b9a5d1a585b1a5e995960921b6064820152608401610655565b600054610100900460ff16158015611c15576000805461ffff19166101011790555b6301e13380600a556000600e81905542905b6003811015611e1357868181518110611c4257611c42613dfd565b602002602001015160066000836002811115611c6057611c60613dd1565b6002811115611c7157611c71613dd1565b6002811115611c8257611c82613dd1565b815260200190815260200160002081905550858181518110611ca657611ca6613dfd565b602002602001015160076000836002811115611cc457611cc4613dd1565b6002811115611cd557611cd5613dd1565b6002811115611ce657611ce6613dd1565b8152602001908152602001600020819055506000600f6000836002811115611d1057611d10613dd1565b6002811115611d2157611d21613dd1565b6002811115611d3257611d32613dd1565b81526020019081526020016000208190555060086000826002811115611d5a57611d5a613dd1565b6002811115611d6b57611d6b613dd1565b6002811115611d7c57611d7c613dd1565b81526020015260086000826002811115611d9857611d98613dd1565b6002811115611da957611da9613dd1565b6002811115611dba57611dba613dd1565b815260208082019290925260409081016000908120825180840190935285835282840182815281546001818101845592845294909220925160029094029092019283555191015580611e0b81613d62565b915050611c27565b50506009839055600c80546001600160a01b03191633179055600b8290558015611e43576000805461ff00191690555b5050505050565b600d546001600160a01b0316331480611e6d5750600c546001600160a01b031633145b611e895760405162461bcd60e51b815260040161065590613b7b565b6001600160a01b038116611ece5760405162461bcd60e51b815260206004820152600c60248201526b7a65726f206164647265737360a01b6044820152606401610655565b600c80546001600160a01b0319166001600160a01b0392909216919091179055565b6060611efb826133a8565b611f1357505060408051602081019091526000815290565b6001600160a01b038216600090815260056020908152604080832080548251818502810185019093528083529192909190849084015b8282101561206857838290600052602060002090600602016040518060c0016040529081600082018054611f7c90613d27565b80601f0160208091040260200160405190810160405280929190818152602001828054611fa890613d27565b8015611ff55780601f10611fca57610100808354040283529160200191611ff5565b820191906000526020600020905b815481529060010190602001808311611fd857829003601f168201915b50505091835250506001820154602082015260028083015460408301526003830154606083015260048301546080830152600583015460a09092019160ff169081111561204457612044613dd1565b600281111561205557612055613dd1565b8152505081526020019060010190611f49565b50505050905060008151905061207c613736565b60006120a461140d8560008151811061209757612097613dfd565b60200260200101516134ee565b604080518082019091526001808252602360f81b6020830152919250905b84811015611239578581815181106120dc576120dc613dfd565b6020026020010151935082826120f461140d876134ee565b60405160200161210693929190613adc565b6040516020818303038152906040529250808061212290613d62565b9150506120c2565b600d546001600160a01b031633148061214d5750600c546001600160a01b031633145b6121695760405162461bcd60e51b815260040161065590613b7b565b60006008600083600281111561218157612181613dd1565b600281111561219257612192613dd1565b81526020810191909152604001600020549050600181116122055760405162461bcd60e51b815260206004820152602760248201527f554e444f204348414e47453a204e6f206368616e67657320666f756e6420666f6044820152667220635479706560c81b6064820152608401610655565b6008600083600281111561221b5761221b613dd1565b600281111561222c5761222c613dd1565b815260200190815260200160002080548061224957612249613de7565b6000828152602081206002600019909301928302018181556001015590555050565b6060612276826133a8565b61228e57505060408051602081019091526000815290565b6001600160a01b038216600090815260056020908152604080832080548251818502810185019093528083529192909190849084015b828210156123e357838290600052602060002090600602016040518060c00160405290816000820180546122f790613d27565b80601f016020809104026020016040519081016040528092919081815260200182805461232390613d27565b80156123705780601f1061234557610100808354040283529160200191612370565b820191906000526020600020905b81548152906001019060200180831161235357829003601f168201915b50505091835250506001820154602082015260028083015460408301526003830154606083015260048301546080830152600583015460a09092019160ff16908111156123bf576123bf613dd1565b60028111156123d0576123d0613dd1565b81525050815260200190600101906122c4565b5050505090506000815190506123f7613736565b600061242c8460008151811061240f5761240f613dfd565b602002602001015160a00151600281111561140d5761140d613dd1565b604080518082019091526001808252602360f81b6020830152919250905b848110156112395785818151811061246457612464613dfd565b6020026020010151935082826124898660a00151600281111561140d5761140d613dd1565b60405160200161249b93929190613adc565b604051602081830303815290604052925080806124b790613d62565b91505061244a565b600d546001600160a01b03163314806124e25750600c546001600160a01b031633145b6124fe5760405162461bcd60e51b815260040161065590613b7b565b6305f5e10081126125625760405162461bcd60e51b815260206004820152602860248201527f5245445543455f5257443a20646f206e6f7420726564756365206d6f7265207460448201526768616e203130302560c01b6064820152608401610655565b6008600083600281111561257857612578613dd1565b600281111561258957612589613dd1565b81526020808201929092526040908101600090812082518084019093524283528284019485528054600181810183559183529390912091516002909302909101918255915191015550565b600d546001600160a01b03163314806125f75750600c546001600160a01b031633145b6126135760405162461bcd60e51b815260040161065590613b7b565b806007600084600281111561262a5761262a613dd1565b600281111561263b5761263b613dd1565b81526020019081526020016000208190555060006008600084600281111561266557612665613dd1565b600281111561267657612676613dd1565b815260200190815260200160002060008154811061269657612696613dfd565b9060005260206000209060020201600001549050600860008460028111156126c0576126c0613dd1565b60028111156126d1576126d1613dd1565b815260200190815260200160002060006126eb919061377c565b6008600084600281111561270157612701613dd1565b600281111561271257612712613dd1565b81526020808201929092526040908101600090812082518084019093529382528183018181528454600181810187559583529390912091516002909302909101918255519101555050565b600d5460009081906001600160a01b0316331461278c5760405162461bcd60e51b815260040161065590613b7b565b6001600160a01b0384166000908152600560205260409020805484106127e85760405162461bcd60e51b815260206004820152601160248201527021a7a72a1d1024b73232bc1022b93937b960791b6044820152606401610655565b60008185815481106127fc576127fc613dfd565b9060005260206000209060060201905061281981600201546134fa565b61288b5760405162461bcd60e51b815260206004820152603a60248201527f434153484f5554204552524f523a20596f75206861766520746f20776169742060448201527f6265666f726520636c61696d696e67207468697320636f6e742e0000000000006064820152608401610655565b60004290506000612998836040518060c00160405290816000820180546128b190613d27565b80601f01602080910402602001604051908101604052809291908181526020018280546128dd90613d27565b801561292a5780601f106128ff5761010080835404028352916020019161292a565b820191906000526020600020905b81548152906001019060200180831161290d57829003601f168201915b50505091835250506001820154602082015260028083015460408301526003830154606083015260048301546080830152600583015460a09092019160ff169081111561297957612979613dd1565b600281111561298a5761298a613dd1565b905250600285015484613045565b60028401929092555060059091015490935060ff169150509250929050565b6000600f60008360028111156108e6576108e6613dd1565b600d546000908190819081906001600160a01b03163314612a025760405162461bcd60e51b815260040161065590613b7b565b6001600160a01b0385166000908152600560205260409020805480612a815760405162461bcd60e51b815260206004820152602f60248201527f434153484f5554204552524f523a20596f7520646f6e2774206861766520636f60448201526e1b9d1cc81d1bc818d85cda0b5bdd5d608a1b6064820152608401610655565b6040805160608101825260008082526020820181905291810182905281904282805b86811015612af2576000888281548110612abf57612abf613dfd565b906000526020600020906006020160020154905082811115612adf578092505b5080612aea81613d62565b915050612aa3565b50612afc816134fa565b612b6e5760405162461bcd60e51b815260206004820152603a60248201527f434153484f5554204552524f523a20596f75206861766520746f20776169742060448201527f6265666f726520636c61696d696e6720616c6c20636f6e74732e0000000000006064820152608401610655565b60005b86811015612d1057878181548110612b8b57612b8b613dfd565b906000526020600020906006020195506000612ca3876040518060c0016040529081600082018054612bbc90613d27565b80601f0160208091040260200160405190810160405280929190818152602001828054612be890613d27565b8015612c355780601f10612c0a57610100808354040283529160200191612c35565b820191906000526020600020905b815481529060010190602001808311612c1857829003601f168201915b50505091835250506001820154602082015260028083015460408301526003830154606083015260048301546080830152600583015460a09092019160ff1690811115612c8457612c84613dd1565b6002811115612c9557612c95613dd1565b905250600289015486613045565b9050612caf8187613c0c565b60058801549096508190869060ff166002811115612ccf57612ccf613dd1565b60ff1660038110612ce257612ce2613dfd565b60200201818151612cf39190613c0c565b905250506002860183905580612d0881613d62565b915050612b71565b505081516020830151604090930151939c909b5091995091975095505050505050565b6060612d3e826133a8565b612d5657505060408051602081019091526000815290565b6001600160a01b038216600090815260056020908152604080832080548251818502810185019093528083529192909190849084015b82821015612eab57838290600052602060002090600602016040518060c0016040529081600082018054612dbf90613d27565b80601f0160208091040260200160405190810160405280929190818152602001828054612deb90613d27565b8015612e385780601f10612e0d57610100808354040283529160200191612e38565b820191906000526020600020905b815481529060010190602001808311612e1b57829003601f168201915b50505091835250506001820154602082015260028083015460408301526003830154606083015260048301546080830152600583015460a09092019160ff1690811115612e8757612e87613dd1565b6002811115612e9857612e98613dd1565b8152505081526020019060010190612d8c565b505050509050600081519050612ebf613736565b600083600081518110612ed457612ed4613dfd565b60200260200101516000015190506000604051806040016040528060018152602001602360f81b81525090506000600190505b8481101561123957858181518110612f2157612f21613dfd565b6020026020010151935082828560000151604051602001612f4493929190613adc565b60405160208183030381529060405292508080612f6090613d62565b915050612f07565b600080612f79836305f5e100613c8a565b90506305f5e100612f8a8286613c6b565b612f949190613c49565b949350505050565b6001600160a01b038216600090815260038401602052604090205460ff1615612fe1576001600160a01b03821660009081526001840160205260409020819055505050565b6001600160a01b03821660008181526003850160209081526040808320805460ff19166001908117909155878101835281842086905587546002890184529184208290558101875586835291200180546001600160a01b0319169091179055505050565b60008183111561308e5760405162461bcd60e51b815260206004820152601460248201527377726f6e6720747374616d707320706172616d7360601b6044820152606401610655565b83602001518310156130d55760405162461bcd60e51b815260206004820152601060248201526f1b19599d081d1cdd185b5c1cc818985960821b6044820152606401610655565b60a084015160006130e68286613513565b608087015190915060006130fa88886135ee565b6020890151909150879060009081908190819081895b600860008d600281111561312657613126613dd1565b600281111561313757613137613dd1565b815260208101919091526040016000205481101561329c57600860008d600281111561316557613165613dd1565b600281111561317657613176613dd1565b8152602001908152602001600020818154811061319557613195613dfd565b90600052602060002090600202016000015496506131b38884613698565b6131bd8885613698565b14801592506131f5576131d08884613698565b6131db906001613c0c565b600a546131e89190613c6b565b6131f29084613c0c565b96505b6131ff8888613cc9565b94506301e13380856305f5e1006132168c8e613c6b565b6132209190613c49565b61322a9190613c6b565b6132349190613c49565b935086975083866132459190613c0c565b9550811561326d5761325989600b54612f68565b98508061326581613d10565b91505061328a565b61328789600860008f60028111156105c8576105c8613dd1565b98505b8061329481613d62565b915050613110565b505b8c8714613360578c95506132b28783613698565b6132bc8784613698565b14801591506132f4576132cf8783613698565b6132da906001613c0c565b600a546132e79190613c6b565b6132f19083613c0c565b95505b6132fe8787613cc9565b93506301e13380846305f5e1006133158b8d613c6b565b61331f9190613c49565b6133299190613c6b565b6133339190613c49565b925085965082856133449190613c0c565b9450801561335b5761335888600b54612f68565b97505b61329e565b509299505050505050505050505b9392505050565b600082600001828154811061338c5761338c613dfd565b6000918252602090912001546001600160a01b03169392505050565b6001600160a01b0316600090815260026020526040902054151590565b6060816133e95750506040805180820190915260018152600360fc1b602082015290565b8160005b811561341357806133fd81613d62565b915061340c9050600a83613c49565b91506133ed565b60008167ffffffffffffffff81111561342e5761342e613e13565b6040519080825280601f01601f191660200182016040528015613458576020820181803683370190505b509050815b85156134e55761346e600182613cc9565b9050600061347d600a88613c49565b61348890600a613c6b565b6134929088613cc9565b61349d906030613c24565b905060008160f81b9050808484815181106134ba576134ba613dfd565b60200101906001600160f81b031916908160001a9053506134dc600a89613c49565b9750505061345d565b50949350505050565b6000610aed82426135ee565b6000426009548361350b9190613c0c565b111592915050565b6000808060088186600281111561352c5761352c613dd1565b600281111561353d5761353d613dd1565b815260208101919091526040016000205490505b8181111561062357600060026135678385613c0c565b6135719190613c49565b9050846008600088600281111561358a5761358a613dd1565b600281111561359b5761359b613dd1565b815260200190815260200160002082815481106135ba576135ba613dfd565b90600052602060002090600202016000015410156135e4576135dd816001613c0c565b92506135e8565b8091505b50613551565b602082015160a0830151606084015160009291908361360d8385613513565b9050600061361b8488613513565b9050815b818110156136555761364184600860008860028111156105c8576105c8613dd1565b93508061364d81613d62565b91505061361f565b5060006136628887613698565b90505b801561368b578061367581613d10565b91505061368484600b54612f68565b9350613665565b5091979650505050505050565b600a546000906136a88385613cc9565b61336e9190613c49565b8280546136be90613d27565b90600052602060002090601f0160209004810192826136e05760008555613726565b82601f106136f957805160ff1916838001178555613726565b82800160010185558215613726579182015b8281111561372657825182559160200191906001019061370b565b506137329291506137a0565b5090565b6040518060c0016040528060608152602001600081526020016000815260200160008152602001600081526020016000600281111561377757613777613dd1565b905290565b508054600082556002029060005260206000209081019061379d91906137b5565b50565b5b8082111561373257600081556001016137a1565b5b8082111561373257600080825560018201556002016137b6565b80356001600160a01b03811681146137e757600080fd5b919050565b600082601f8301126137fd57600080fd5b8135602061381261380d83613be8565b613bb7565b80838252828201915082860187848660051b890101111561383257600080fd5b60005b8581101561385157813584529284019290840190600101613835565b5090979650505050505050565b8035600381106137e757600080fd5b60006020828403121561387f57600080fd5b61336e826137d0565b60008060006060848603121561389d57600080fd5b6138a6846137d0565b925060208085013567ffffffffffffffff808211156138c457600080fd5b818701915087601f8301126138d857600080fd5b81356138e661380d82613be8565b8082825285820191508585018b878560051b880101111561390657600080fd5b60005b848110156139935781358681111561392057600080fd5b8701603f81018e1361393157600080fd5b888101358781111561394557613945613e13565b613957601f8201601f19168b01613bb7565b8181528f604083850101111561396c57600080fd5b81604084018c83013760009181018b01919091528552509287019290870190600101613909565b50508097505050505050506139aa6040850161385e565b90509250925092565b600080604083850312156139c657600080fd5b6139cf836137d0565b946020939093013593505050565b600080600080608085870312156139f357600080fd5b843567ffffffffffffffff80821115613a0b57600080fd5b613a17888389016137ec565b95506020870135915080821115613a2d57600080fd5b50613a3a878288016137ec565b949794965050505060408301359260600135919050565b600060208284031215613a6357600080fd5b61336e8261385e565b60008060408385031215613a7f57600080fd5b6139cf8361385e565b600060208284031215613a9a57600080fd5b5035919050565b600060208284031215613ab357600080fd5b5051919050565b60038110613ad857634e487b7160e01b600052602160045260246000fd5b9052565b60008451613aee818460208901613ce0565b845190830190613b02818360208901613ce0565b8451910190613b15818360208801613ce0565b0195945050505050565b60208101610aed8284613aba565b60408101613b3b8285613aba565b8260208301529392505050565b6020815260008251806020840152613b67816040850160208701613ce0565b601f01601f19169190910160400192915050565b6020808252600e908201526d4163636573732044656e6965642160901b604082015260600190565b8281526040810161336e6020830184613aba565b604051601f8201601f1916810167ffffffffffffffff81118282101715613be057613be0613e13565b604052919050565b600067ffffffffffffffff821115613c0257613c02613e13565b5060051b60200190565b60008219821115613c1f57613c1f613dbb565b500190565b600060ff821660ff84168060ff03821115613c4157613c41613dbb565b019392505050565b600082613c6657634e487b7160e01b600052601260045260246000fd5b500490565b6000816000190483118215151615613c8557613c85613dbb565b500290565b60008083128015600160ff1b850184121615613ca857613ca8613dbb565b6001600160ff1b0384018313811615613cc357613cc3613dbb565b50500390565b600082821015613cdb57613cdb613dbb565b500390565b60005b83811015613cfb578181015183820152602001613ce3565b83811115613d0a576000848401525b50505050565b600081613d1f57613d1f613dbb565b506000190190565b600181811c90821680613d3b57607f821691505b60208210811415613d5c57634e487b7160e01b600052602260045260246000fd5b50919050565b6000600019821415613d7657613d76613dbb565b5060010190565b600063ffffffff80831681811415613d9757613d97613dbb565b6001019392505050565b600067ffffffffffffffff80831681811415613d9757613d975b634e487b7160e01b600052601160045260246000fd5b634e487b7160e01b600052602160045260246000fd5b634e487b7160e01b600052603160045260246000fd5b634e487b7160e01b600052603260045260246000fd5b634e487b7160e01b600052604160045260246000fdfea164736f6c6343000807000a",
  "devdoc": {
    "kind": "dev",
    "methods": {
      "_cashoutAllContsReward(address)": {
        "params": {
          "account": "account of owner"
        },
        "returns": {
          "_0": "rewardsTotal total amount of rewards claimed"
        }
      },
      "_cashoutContReward(address,uint256)": {
        "params": {
          "_contIndex": "contract index",
          "account": "account of owner"
        },
        "returns": {
          "_0": "rewardsTotal total amount of rewards claimed"
        }
      },
      "_resetAllAPRChange(uint8,uint256)": {
        "params": {
          "_cType": "type of contract to pop last change"
        }
      },
      "_undoRewardAPRChange(uint8)": {
        "params": {
          "_cType": "type of contract to pop last change"
        }
      },
      "createConts(address,string[],uint8)": {
        "params": {
          "_cType": "type of contract",
          "account": "account of owner",
          "contNames": "list of names of contract"
        }
      }
    },
    "version": 1
  },
  "userdoc": {
    "kind": "user",
    "methods": {
      "_cashoutAllContsReward(address)": {
        "notice": "reduce all conts reward to 0 and return amount of rewards claimed so token contract can send tokens"
      },
      "_cashoutContReward(address,uint256)": {
        "notice": "reduce chosen cont reward to 0 and return amount of rewards claimed so token contract can send tokens"
      },
      "_resetAllAPRChange(uint8,uint256)": {
        "notice": "only used when admin makes mistake about APR change: reset every APR changes/"
      },
      "_undoRewardAPRChange(uint8)": {
        "notice": "only used when admin makes mistake about APR change: undo last APR change of one type"
      },
      "createConts(address,string[],uint8)": {
        "notice": "create new contract storages for account"
      }
    },
    "version": 1
  },
  "storageLayout": {
    "storage": [
      {
        "astId": 598,
        "contract": "contracts/dependencies/CONTRewardManagement.sol:CONTRewardManagement",
        "label": "_initialized",
        "offset": 0,
        "slot": "0",
        "type": "t_bool"
      },
      {
        "astId": 601,
        "contract": "contracts/dependencies/CONTRewardManagement.sol:CONTRewardManagement",
        "label": "_initializing",
        "offset": 1,
        "slot": "0",
        "type": "t_bool"
      },
      {
        "astId": 4517,
        "contract": "contracts/dependencies/CONTRewardManagement.sol:CONTRewardManagement",
        "label": "contOwners",
        "offset": 0,
        "slot": "1",
        "type": "t_struct(Map)8694_storage"
      },
      {
        "astId": 4523,
        "contract": "contracts/dependencies/CONTRewardManagement.sol:CONTRewardManagement",
        "label": "_contsOfUser",
        "offset": 0,
        "slot": "5",
        "type": "t_mapping(t_address,t_array(t_struct(ContEntity)4509_storage)dyn_storage)"
      },
      {
        "astId": 4528,
        "contract": "contracts/dependencies/CONTRewardManagement.sol:CONTRewardManagement",
        "label": "contPrice",
        "offset": 0,
        "slot": "6",
        "type": "t_mapping(t_enum(ContType)4483,t_uint256)"
      },
      {
        "astId": 4533,
        "contract": "contracts/dependencies/CONTRewardManagement.sol:CONTRewardManagement",
        "label": "initRewardAPRPerCont",
        "offset": 0,
        "slot": "7",
        "type": "t_mapping(t_enum(ContType)4483,t_uint256)"
      },
      {
        "astId": 4540,
        "contract": "contracts/dependencies/CONTRewardManagement.sol:CONTRewardManagement",
        "label": "aprChangesHistory",
        "offset": 0,
        "slot": "8",
        "type": "t_mapping(t_enum(ContType)4483,t_array(t_struct(APRChangesEntry)4514_storage)dyn_storage)"
      },
      {
        "astId": 4542,
        "contract": "contracts/dependencies/CONTRewardManagement.sol:CONTRewardManagement",
        "label": "cashoutTimeout",
        "offset": 0,
        "slot": "9",
        "type": "t_uint256"
      },
      {
        "astId": 4544,
        "contract": "contracts/dependencies/CONTRewardManagement.sol:CONTRewardManagement",
        "label": "autoReduceAPRInterval",
        "offset": 0,
        "slot": "10",
        "type": "t_uint256"
      },
      {
        "astId": 4546,
        "contract": "contracts/dependencies/CONTRewardManagement.sol:CONTRewardManagement",
        "label": "autoReduceAPRRate",
        "offset": 0,
        "slot": "11",
        "type": "t_uint256"
      },
      {
        "astId": 4548,
        "contract": "contracts/dependencies/CONTRewardManagement.sol:CONTRewardManagement",
        "label": "admin0XB",
        "offset": 0,
        "slot": "12",
        "type": "t_address"
      },
      {
        "astId": 4550,
        "contract": "contracts/dependencies/CONTRewardManagement.sol:CONTRewardManagement",
        "label": "token",
        "offset": 0,
        "slot": "13",
        "type": "t_address"
      },
      {
        "astId": 4552,
        "contract": "contracts/dependencies/CONTRewardManagement.sol:CONTRewardManagement",
        "label": "totalContsCreated",
        "offset": 0,
        "slot": "14",
        "type": "t_uint256"
      },
      {
        "astId": 4557,
        "contract": "contracts/dependencies/CONTRewardManagement.sol:CONTRewardManagement",
        "label": "_totalContsPerType",
        "offset": 0,
        "slot": "15",
        "type": "t_mapping(t_enum(ContType)4483,t_uint256)"
      },
      {
        "astId": 4562,
        "contract": "contracts/dependencies/CONTRewardManagement.sol:CONTRewardManagement",
        "label": "_breakevenContsPerType",
        "offset": 0,
        "slot": "16",
        "type": "t_mapping(t_enum(ContType)4483,t_uint256)"
      }
    ],
    "types": {
      "t_address": {
        "encoding": "inplace",
        "label": "address",
        "numberOfBytes": "20"
      },
      "t_array(t_address)dyn_storage": {
        "base": "t_address",
        "encoding": "dynamic_array",
        "label": "address[]",
        "numberOfBytes": "32"
      },
      "t_array(t_struct(APRChangesEntry)4514_storage)dyn_storage": {
        "base": "t_struct(APRChangesEntry)4514_storage",
        "encoding": "dynamic_array",
        "label": "struct CONTRewardManagement.APRChangesEntry[]",
        "numberOfBytes": "32"
      },
      "t_array(t_struct(ContEntity)4509_storage)dyn_storage": {
        "base": "t_struct(ContEntity)4509_storage",
        "encoding": "dynamic_array",
        "label": "struct CONTRewardManagement.ContEntity[]",
        "numberOfBytes": "32"
      },
      "t_bool": {
        "encoding": "inplace",
        "label": "bool",
        "numberOfBytes": "1"
      },
      "t_enum(ContType)4483": {
        "encoding": "inplace",
        "label": "enum ContType",
        "numberOfBytes": "1"
      },
      "t_int256": {
        "encoding": "inplace",
        "label": "int256",
        "numberOfBytes": "32"
      },
      "t_mapping(t_address,t_array(t_struct(ContEntity)4509_storage)dyn_storage)": {
        "encoding": "mapping",
        "key": "t_address",
        "label": "mapping(address => struct CONTRewardManagement.ContEntity[])",
        "numberOfBytes": "32",
        "value": "t_array(t_struct(ContEntity)4509_storage)dyn_storage"
      },
      "t_mapping(t_address,t_bool)": {
        "encoding": "mapping",
        "key": "t_address",
        "label": "mapping(address => bool)",
        "numberOfBytes": "32",
        "value": "t_bool"
      },
      "t_mapping(t_address,t_uint256)": {
        "encoding": "mapping",
        "key": "t_address",
        "label": "mapping(address => uint256)",
        "numberOfBytes": "32",
        "value": "t_uint256"
      },
      "t_mapping(t_enum(ContType)4483,t_array(t_struct(APRChangesEntry)4514_storage)dyn_storage)": {
        "encoding": "mapping",
        "key": "t_enum(ContType)4483",
        "label": "mapping(enum ContType => struct CONTRewardManagement.APRChangesEntry[])",
        "numberOfBytes": "32",
        "value": "t_array(t_struct(APRChangesEntry)4514_storage)dyn_storage"
      },
      "t_mapping(t_enum(ContType)4483,t_uint256)": {
        "encoding": "mapping",
        "key": "t_enum(ContType)4483",
        "label": "mapping(enum ContType => uint256)",
        "numberOfBytes": "32",
        "value": "t_uint256"
      },
      "t_string_storage": {
        "encoding": "bytes",
        "label": "string",
        "numberOfBytes": "32"
      },
      "t_struct(APRChangesEntry)4514_storage": {
        "encoding": "inplace",
        "label": "struct CONTRewardManagement.APRChangesEntry",
        "members": [
          {
            "astId": 4511,
            "contract": "contracts/dependencies/CONTRewardManagement.sol:CONTRewardManagement",
            "label": "timestamp",
            "offset": 0,
            "slot": "0",
            "type": "t_uint256"
          },
          {
            "astId": 4513,
            "contract": "contracts/dependencies/CONTRewardManagement.sol:CONTRewardManagement",
            "label": "reducedPercentage",
            "offset": 0,
            "slot": "1",
            "type": "t_int256"
          }
        ],
        "numberOfBytes": "64"
      },
      "t_struct(ContEntity)4509_storage": {
        "encoding": "inplace",
        "label": "struct CONTRewardManagement.ContEntity",
        "members": [
          {
            "astId": 4497,
            "contract": "contracts/dependencies/CONTRewardManagement.sol:CONTRewardManagement",
            "label": "name",
            "offset": 0,
            "slot": "0",
            "type": "t_string_storage"
          },
          {
            "astId": 4499,
            "contract": "contracts/dependencies/CONTRewardManagement.sol:CONTRewardManagement",
            "label": "creationTime",
            "offset": 0,
            "slot": "1",
            "type": "t_uint256"
          },
          {
            "astId": 4501,
            "contract": "contracts/dependencies/CONTRewardManagement.sol:CONTRewardManagement",
            "label": "lastUpdateTime",
            "offset": 0,
            "slot": "2",
            "type": "t_uint256"
          },
          {
            "astId": 4503,
            "contract": "contracts/dependencies/CONTRewardManagement.sol:CONTRewardManagement",
            "label": "initialAPR",
            "offset": 0,
            "slot": "3",
            "type": "t_uint256"
          },
          {
            "astId": 4505,
            "contract": "contracts/dependencies/CONTRewardManagement.sol:CONTRewardManagement",
            "label": "buyPrice",
            "offset": 0,
            "slot": "4",
            "type": "t_uint256"
          },
          {
            "astId": 4508,
            "contract": "contracts/dependencies/CONTRewardManagement.sol:CONTRewardManagement",
            "label": "cType",
            "offset": 0,
            "slot": "5",
            "type": "t_enum(ContType)4483"
          }
        ],
        "numberOfBytes": "192"
      },
      "t_struct(Map)8694_storage": {
        "encoding": "inplace",
        "label": "struct IterableMapping.Map",
        "members": [
          {
            "astId": 8681,
            "contract": "contracts/dependencies/CONTRewardManagement.sol:CONTRewardManagement",
            "label": "keys",
            "offset": 0,
            "slot": "0",
            "type": "t_array(t_address)dyn_storage"
          },
          {
            "astId": 8685,
            "contract": "contracts/dependencies/CONTRewardManagement.sol:CONTRewardManagement",
            "label": "values",
            "offset": 0,
            "slot": "1",
            "type": "t_mapping(t_address,t_uint256)"
          },
          {
            "astId": 8689,
            "contract": "contracts/dependencies/CONTRewardManagement.sol:CONTRewardManagement",
            "label": "indexOf",
            "offset": 0,
            "slot": "2",
            "type": "t_mapping(t_address,t_uint256)"
          },
          {
            "astId": 8693,
            "contract": "contracts/dependencies/CONTRewardManagement.sol:CONTRewardManagement",
            "label": "inserted",
            "offset": 0,
            "slot": "3",
            "type": "t_mapping(t_address,t_bool)"
          }
        ],
        "numberOfBytes": "128"
      },
      "t_uint256": {
        "encoding": "inplace",
        "label": "uint256",
        "numberOfBytes": "32"
      }
    }
  }
}