{
  "address": "0xaB06768a72897b0DE7305EAb384C419058A4706c",
  "abi": [
    {
      "inputs": [
        {
          "internalType": "address",
          "name": "account",
          "type": "address"
        }
      ],
      "name": "_cashoutAllContsReward",
      "outputs": [
        {
          "internalType": "uint256",
          "name": "",
          "type": "uint256"
        }
      ],
      "stateMutability": "nonpayable",
      "type": "function"
    },
    {
      "inputs": [
        {
          "internalType": "address",
          "name": "account",
          "type": "address"
        },
        {
          "internalType": "uint256",
          "name": "_contIndex",
          "type": "uint256"
        }
      ],
      "name": "_cashoutContReward",
      "outputs": [
        {
          "internalType": "uint256",
          "name": "",
          "type": "uint256"
        }
      ],
      "stateMutability": "nonpayable",
      "type": "function"
    },
    {
      "inputs": [
        {
          "internalType": "uint256",
          "name": "newInterval",
          "type": "uint256"
        }
      ],
      "name": "_changeAutoReduceAPRInterval",
      "outputs": [],
      "stateMutability": "nonpayable",
      "type": "function"
    },
    {
      "inputs": [
        {
          "internalType": "uint256",
          "name": "newRate",
          "type": "uint256"
        }
      ],
      "name": "_changeAutoReduceAPRRate",
      "outputs": [],
      "stateMutability": "nonpayable",
      "type": "function"
    },
    {
      "inputs": [
        {
          "internalType": "uint256",
          "name": "newTime",
          "type": "uint256"
        }
      ],
      "name": "_changeCashoutTimeout",
      "outputs": [],
      "stateMutability": "nonpayable",
      "type": "function"
    },
    {
      "inputs": [
        {
          "internalType": "enum ContType",
          "name": "_cType",
          "type": "uint8"
        },
        {
          "internalType": "uint256",
          "name": "newPrice",
          "type": "uint256"
        }
      ],
      "name": "_changeContPrice",
      "outputs": [],
      "stateMutability": "nonpayable",
      "type": "function"
    },
    {
      "inputs": [
        {
          "internalType": "enum ContType",
          "name": "_cType",
          "type": "uint8"
        },
        {
          "internalType": "int256",
          "name": "reducedPercentage",
          "type": "int256"
        }
      ],
      "name": "_changeRewardAPRPerCont",
      "outputs": [],
      "stateMutability": "nonpayable",
      "type": "function"
    },
    {
      "inputs": [
        {
          "internalType": "address",
          "name": "account",
          "type": "address"
        }
      ],
      "name": "_getContNumberOf",
      "outputs": [
        {
          "internalType": "uint256",
          "name": "",
          "type": "uint256"
        }
      ],
      "stateMutability": "view",
      "type": "function"
    },
    {
      "inputs": [
        {
          "internalType": "address",
          "name": "account",
          "type": "address"
        }
      ],
      "name": "_getContsCreationTime",
      "outputs": [
        {
          "internalType": "string",
          "name": "",
          "type": "string"
        }
      ],
      "stateMutability": "view",
      "type": "function"
    },
    {
      "inputs": [
        {
          "internalType": "address",
          "name": "account",
          "type": "address"
        }
      ],
      "name": "_getContsCurrentAPR",
      "outputs": [
        {
          "internalType": "string",
          "name": "",
          "type": "string"
        }
      ],
      "stateMutability": "view",
      "type": "function"
    },
    {
      "inputs": [
        {
          "internalType": "address",
          "name": "account",
          "type": "address"
        }
      ],
      "name": "_getContsInitialAPR",
      "outputs": [
        {
          "internalType": "string",
          "name": "",
          "type": "string"
        }
      ],
      "stateMutability": "view",
      "type": "function"
    },
    {
      "inputs": [
        {
          "internalType": "address",
          "name": "account",
          "type": "address"
        }
      ],
      "name": "_getContsLastUpdateTime",
      "outputs": [
        {
          "internalType": "string",
          "name": "",
          "type": "string"
        }
      ],
      "stateMutability": "view",
      "type": "function"
    },
    {
      "inputs": [
        {
          "internalType": "address",
          "name": "account",
          "type": "address"
        }
      ],
      "name": "_getContsNames",
      "outputs": [
        {
          "internalType": "string",
          "name": "",
          "type": "string"
        }
      ],
      "stateMutability": "view",
      "type": "function"
    },
    {
      "inputs": [
        {
          "internalType": "address",
          "name": "account",
          "type": "address"
        }
      ],
      "name": "_getContsRewardAvailable",
      "outputs": [
        {
          "internalType": "string",
          "name": "",
          "type": "string"
        }
      ],
      "stateMutability": "view",
      "type": "function"
    },
    {
      "inputs": [
        {
          "internalType": "address",
          "name": "account",
          "type": "address"
        }
      ],
      "name": "_getContsTypes",
      "outputs": [
        {
          "internalType": "string",
          "name": "",
          "type": "string"
        }
      ],
      "stateMutability": "view",
      "type": "function"
    },
    {
      "inputs": [
        {
          "internalType": "address",
          "name": "account",
          "type": "address"
        }
      ],
      "name": "_getRewardAmountOf",
      "outputs": [
        {
          "internalType": "uint256",
          "name": "",
          "type": "uint256"
        }
      ],
      "stateMutability": "view",
      "type": "function"
    },
    {
      "inputs": [
        {
          "internalType": "address",
          "name": "account",
          "type": "address"
        },
        {
          "internalType": "uint256",
          "name": "_contIndex",
          "type": "uint256"
        }
      ],
      "name": "_getRewardAmountOf",
      "outputs": [
        {
          "internalType": "uint256",
          "name": "",
          "type": "uint256"
        }
      ],
      "stateMutability": "view",
      "type": "function"
    },
    {
      "inputs": [
        {
          "internalType": "address",
          "name": "account",
          "type": "address"
        }
      ],
      "name": "_isContOwner",
      "outputs": [
        {
          "internalType": "bool",
          "name": "",
          "type": "bool"
        }
      ],
      "stateMutability": "view",
      "type": "function"
    },
    {
      "inputs": [
        {
          "internalType": "enum ContType",
          "name": "_cType",
          "type": "uint8"
        },
        {
          "internalType": "uint256",
          "name": "_initialPrice",
          "type": "uint256"
        }
      ],
      "name": "_resetAllAPRChange",
      "outputs": [],
      "stateMutability": "nonpayable",
      "type": "function"
    },
    {
      "inputs": [
        {
          "internalType": "enum ContType",
          "name": "_cType",
          "type": "uint8"
        }
      ],
      "name": "_undoRewardAPRChange",
      "outputs": [],
      "stateMutability": "nonpayable",
      "type": "function"
    },
    {
      "inputs": [],
      "name": "admin0XB",
      "outputs": [
        {
          "internalType": "address",
          "name": "",
          "type": "address"
        }
      ],
      "stateMutability": "view",
      "type": "function"
    },
    {
      "inputs": [],
      "name": "autoReduceAPRInterval",
      "outputs": [
        {
          "internalType": "uint256",
          "name": "",
          "type": "uint256"
        }
      ],
      "stateMutability": "view",
      "type": "function"
    },
    {
      "inputs": [],
      "name": "autoReduceAPRRate",
      "outputs": [
        {
          "internalType": "uint256",
          "name": "",
          "type": "uint256"
        }
      ],
      "stateMutability": "view",
      "type": "function"
    },
    {
      "inputs": [],
      "name": "cashoutTimeout",
      "outputs": [
        {
          "internalType": "uint256",
          "name": "",
          "type": "uint256"
        }
      ],
      "stateMutability": "view",
      "type": "function"
    },
    {
      "inputs": [
        {
          "internalType": "enum ContType",
          "name": "",
          "type": "uint8"
        }
      ],
      "name": "contPrice",
      "outputs": [
        {
          "internalType": "uint256",
          "name": "",
          "type": "uint256"
        }
      ],
      "stateMutability": "view",
      "type": "function"
    },
    {
      "inputs": [
        {
          "internalType": "address",
          "name": "account",
          "type": "address"
        },
        {
          "internalType": "string[]",
          "name": "contNames",
          "type": "string[]"
        },
        {
          "internalType": "enum ContType",
          "name": "_cType",
          "type": "uint8"
        }
      ],
      "name": "createConts",
      "outputs": [],
      "stateMutability": "nonpayable",
      "type": "function"
    },
    {
      "inputs": [
        {
          "internalType": "enum ContType",
          "name": "_cType",
          "type": "uint8"
        }
      ],
      "name": "currentRewardAPRPerNewCont",
      "outputs": [
        {
          "internalType": "uint256",
          "name": "",
          "type": "uint256"
        }
      ],
      "stateMutability": "view",
      "type": "function"
    },
    {
      "inputs": [
        {
          "internalType": "enum ContType",
          "name": "",
          "type": "uint8"
        }
      ],
      "name": "initRewardAPRPerCont",
      "outputs": [
        {
          "internalType": "uint256",
          "name": "",
          "type": "uint256"
        }
      ],
      "stateMutability": "view",
      "type": "function"
    },
    {
      "inputs": [
        {
          "internalType": "uint256[]",
          "name": "_contPrices",
          "type": "uint256[]"
        },
        {
          "internalType": "uint256[]",
          "name": "_rewardAPRs",
          "type": "uint256[]"
        },
        {
          "internalType": "uint256",
          "name": "_cashoutTimeout",
          "type": "uint256"
        },
        {
          "internalType": "uint256",
          "name": "_autoReduceAPRRate",
          "type": "uint256"
        }
      ],
      "name": "initialize",
      "outputs": [],
      "stateMutability": "nonpayable",
      "type": "function"
    },
    {
      "inputs": [
        {
          "internalType": "address",
          "name": "newAdmin",
          "type": "address"
        }
      ],
      "name": "setAdmin",
      "outputs": [],
      "stateMutability": "nonpayable",
      "type": "function"
    },
    {
      "inputs": [
        {
          "internalType": "address",
          "name": "token_",
          "type": "address"
        }
      ],
      "name": "setToken",
      "outputs": [],
      "stateMutability": "nonpayable",
      "type": "function"
    },
    {
      "inputs": [],
      "name": "token",
      "outputs": [
        {
          "internalType": "address",
          "name": "",
          "type": "address"
        }
      ],
      "stateMutability": "view",
      "type": "function"
    },
    {
      "inputs": [],
      "name": "totalContsCreated",
      "outputs": [
        {
          "internalType": "uint256",
          "name": "",
          "type": "uint256"
        }
      ],
      "stateMutability": "view",
      "type": "function"
    },
    {
      "inputs": [
        {
          "internalType": "enum ContType",
          "name": "_cType",
          "type": "uint8"
        }
      ],
      "name": "totalContsPerContType",
      "outputs": [
        {
          "internalType": "uint256",
          "name": "",
          "type": "uint256"
        }
      ],
      "stateMutability": "view",
      "type": "function"
    }
  ],
  "transactionHash": "0x49c5a1feba7d482ae04a954303f6f382de2a88de27bb98c4169e7bb10e27b345",
  "args": [],
  "numDeployments": 1,
  "solcInputHash": "9120c75d720ccbdd145ee17d1a2e89c8",
  "bytecode": "0x608060405234801561001057600080fd5b50613a13806100206000396000f3fe608060405234801561001057600080fd5b50600436106102055760003560e01c80636eb5a7f41161011a5780639d2040f0116100ad578063ce6912a31161007c578063ce6912a314610477578063d094fa8d1461048a578063e18f03ad1461049d578063f743f319146104a6578063fc0c546a146104b957600080fd5b80639d2040f01461042b5780639f227c531461043e578063a6e15cc414610451578063c2202b661461046457600080fd5b8063872a60ad116100e9578063872a60ad146103db5780638bf145141461040657806393520a80146104195780639b28d1a71461042257600080fd5b80636eb5a7f41461038f578063704b6c02146103a257806377ec7826146103b55780638201bf26146103c857600080fd5b8063390c991e1161019d57806355a757d01161016c57806355a757d01461031d5780635dbab6ed14610326578063619a635e1461033957806363a9b0981461034c578063665bb0781461036c57600080fd5b8063390c991e146102c457806344fea1b9146102d75780634f88de01146102ea57806351bf120c1461030a57600080fd5b80631565f50e116101d95780631565f50e1461026b5780631d5a17311461027e57806328cceb2414610291578063367fd074146102b157600080fd5b8062c73e4d1461020a5780630534cc68146102305780630d9f9f0c14610245578063144fa6d714610258575b600080fd5b61021d61021836600461366c565b6104cc565b6040519081526020015b60405180910390f35b61024361023e3660046134a3565b6105cc565b005b6102436102533660046136a3565b610884565b610243610266366004613488565b6108c8565b6102436102793660046136a3565b61096e565b61024361028c366004613687565b6109b2565b6102a461029f366004613488565b610a2e565b6040516102279190613740565b6102a46102bf366004613488565b610c7a565b6102436102d23660046136a3565b610ee0565b61021d6102e5366004613488565b610f24565b61021d6102f836600461366c565b60076020526000908152604090205481565b6102a4610318366004613488565b610f44565b61021d60095481565b6102a4610334366004613488565b6111b4565b61021d610347366004613488565b6113f4565b61021d61035a36600461366c565b60066020526000908152604090205481565b61037f61037a366004613488565b611607565b6040519015158152602001610227565b61024361039d3660046135f8565b611612565b6102436103b0366004613488565b6118eb565b6102a46103c3366004613488565b611991565b6102436103d636600461366c565b611bcf565b600c546103ee906001600160a01b031681565b6040516001600160a01b039091168152602001610227565b6102a4610414366004613488565b611d10565b61021d600b5481565b61021d600a5481565b610243610439366004613687565b611f68565b61024361044c366004613687565b61207d565b61021d61045f3660046135ce565b612206565b61021d6104723660046135ce565b61243f565b61021d61048536600461366c565b61269b565b61021d610498366004613488565b6126da565b61021d600e5481565b6102a46104b4366004613488565b6129cf565b600d546103ee906001600160a01b031681565b600080600860008460028111156104e5576104e56139ae565b60028111156104f6576104f66139ae565b8152602001908152602001600020805490509050600060076000856002811115610522576105226139ae565b6002811115610533576105336139ae565b815260200190815260200160002054905060005b828110156105c4576105b08260086000886002811115610569576105696139ae565b600281111561057a5761057a6139ae565b81526020019081526020016000208381548110610599576105996139da565b906000526020600020906002020160010154612c33565b9150806105bc8161397d565b915050610547565b509392505050565b600d546001600160a01b03163314806105ef5750600c546001600160a01b031633145b6106145760405162461bcd60e51b815260040161060b906137aa565b60405180910390fd5b6001600160a01b0383166000908152600560205260405162c73e4d60e01b8152309062c73e4d90610649908590600401613718565b60206040518083038186803b15801561066157600080fd5b505afa158015610675573d6000803e3d6000fd5b505050506040513d601f19601f8201168201806040525081019061069991906136bc565b905060005b83518110156107f35760056000866001600160a01b03166001600160a01b031681526020019081526020016000206040518060c001604052808684815181106106e9576106e96139da565b602002602001015181526020014281526020014281526020018481526020016006600087600281111561071e5761071e6139ae565b600281111561072f5761072f6139ae565b8152602001908152602001600020548152602001856002811115610755576107556139ae565b90528154600181018355600092835260209283902082518051939460069093029091019261078692849201906132d2565b506020820151816001015560408201518160020155606082015181600301556080820151816004015560a08201518160050160006101000a81548160ff021916908360028111156107d9576107d96139ae565b0217905550505080806107eb9061397d565b91505061069e565b506001600160a01b03841660009081526005602052604090205461081b906001908690612c67565b8251600e600082825461082e9190613827565b90915550508251600f600084600281111561084b5761084b6139ae565b600281111561085c5761085c6139ae565b815260200190815260200160002060008282546108799190613827565b909155505050505050565b600d546001600160a01b03163314806108a75750600c546001600160a01b031633145b6108c35760405162461bcd60e51b815260040161060b906137aa565b600b55565b600d546001600160a01b03163314806108eb5750600c546001600160a01b031633145b6109075760405162461bcd60e51b815260040161060b906137aa565b6001600160a01b03811661094c5760405162461bcd60e51b815260206004820152600c60248201526b7a65726f206164647265737360a01b604482015260640161060b565b600d80546001600160a01b0319166001600160a01b0392909216919091179055565b600d546001600160a01b03163314806109915750600c546001600160a01b031633145b6109ad5760405162461bcd60e51b815260040161060b906137aa565b600a55565b600d546001600160a01b03163314806109d55750600c546001600160a01b031633145b6109f15760405162461bcd60e51b815260040161060b906137aa565b8060066000846002811115610a0857610a086139ae565b6002811115610a1957610a196139ae565b81526020810191909152604001600020555050565b6060610a3982612d10565b610a555760405162461bcd60e51b815260040161060b90613773565b6001600160a01b038216600090815260056020908152604080832080548251818502810185019093528083529192909190849084015b82821015610baa57838290600052602060002090600602016040518060c0016040529081600082018054610abe90613942565b80601f0160208091040260200160405190810160405280929190818152602001828054610aea90613942565b8015610b375780601f10610b0c57610100808354040283529160200191610b37565b820191906000526020600020905b815481529060010190602001808311610b1a57829003601f168201915b50505091835250506001820154602082015260028083015460408301526003830154606083015260048301546080830152600583015460a09092019160ff1690811115610b8657610b866139ae565b6002811115610b9757610b976139ae565b8152505081526020019060010190610a8b565b505050509050600081519050610bbe613356565b6000610be784600081518110610bd657610bd66139da565b602002602001015160200151612d2d565b604080518082019091526001808252602360f81b6020830152919250905b84811015610c6e57858181518110610c1f57610c1f6139da565b602002602001015193508282610c388660200151612d2d565b604051602001610c4a939291906136d5565b60405160208183030381529060405292508080610c669061397d565b915050610c05565b50909695505050505050565b6060610c8582612d10565b610cd15760405162461bcd60e51b815260206004820152601960248201527f474554205245574152443a204e4f20434f4e54204f574e455200000000000000604482015260640161060b565b6001600160a01b038216600090815260056020908152604080832080548251818502810185019093528083529192909190849084015b82821015610e2657838290600052602060002090600602016040518060c0016040529081600082018054610d3a90613942565b80601f0160208091040260200160405190810160405280929190818152602001828054610d6690613942565b8015610db35780601f10610d8857610100808354040283529160200191610db3565b820191906000526020600020905b815481529060010190602001808311610d9657829003601f168201915b50505091835250506001820154602082015260028083015460408301526003830154606083015260048301546080830152600583015460a09092019160ff1690811115610e0257610e026139ae565b6002811115610e1357610e136139ae565b8152505081526020019060010190610d07565b5050825192935042915060009050610e5c610e57858386610e4957610e496139da565b602002602001015184612e56565b612d2d565b604080518082019091526001808252602360f81b6020830152919250905b84811015610c6e578282610eaa610e57898581518110610e9c57610e9c6139da565b602002602001015188612e56565b604051602001610ebc939291906136d5565b60405160208183030381529060405292508080610ed89061397d565b915050610e7a565b600d546001600160a01b0316331480610f035750600c546001600160a01b031633145b610f1f5760405162461bcd60e51b815260040161060b906137aa565b600955565b6001600160a01b0381166000908152600260205260408120545b92915050565b6060610f4f82612d10565b610f9b5760405162461bcd60e51b815260206004820152601e60248201527f4c41535420434c41494d2054494d453a204e4f20434f4e54204f574e45520000604482015260640161060b565b6001600160a01b038216600090815260056020908152604080832080548251818502810185019093528083529192909190849084015b828210156110f057838290600052602060002090600602016040518060c001604052908160008201805461100490613942565b80601f016020809104026020016040519081016040528092919081815260200182805461103090613942565b801561107d5780601f106110525761010080835404028352916020019161107d565b820191906000526020600020905b81548152906001019060200180831161106057829003601f168201915b50505091835250506001820154602082015260028083015460408301526003830154606083015260048301546080830152600583015460a09092019160ff16908111156110cc576110cc6139ae565b60028111156110dd576110dd6139ae565b8152505081526020019060010190610fd1565b505050509050600081519050611104613356565b600061112d8460008151811061111c5761111c6139da565b602002602001015160400151612d2d565b604080518082019091526001808252602360f81b6020830152919250905b84811015610c6e57858181518110611165576111656139da565b60200260200101519350828261117e8660400151612d2d565b604051602001611190939291906136d5565b604051602081830303815290604052925080806111ac9061397d565b91505061114b565b60606111bf82612d10565b6111db5760405162461bcd60e51b815260040161060b90613773565b6001600160a01b038216600090815260056020908152604080832080548251818502810185019093528083529192909190849084015b8282101561133057838290600052602060002090600602016040518060c001604052908160008201805461124490613942565b80601f016020809104026020016040519081016040528092919081815260200182805461127090613942565b80156112bd5780601f10611292576101008083540402835291602001916112bd565b820191906000526020600020905b8154815290600101906020018083116112a057829003601f168201915b50505091835250506001820154602082015260028083015460408301526003830154606083015260048301546080830152600583015460a09092019160ff169081111561130c5761130c6139ae565b600281111561131d5761131d6139ae565b8152505081526020019060010190611211565b505050509050600081519050611344613356565b600061136d8460008151811061135c5761135c6139da565b602002602001015160600151612d2d565b604080518082019091526001808252602360f81b6020830152919250905b84811015610c6e578581815181106113a5576113a56139da565b6020026020010151935082826113be8660600151612d2d565b6040516020016113d0939291906136d5565b604051602081830303815290604052925080806113ec9061397d565b91505061138b565b60006113ff82612d10565b61144b5760405162461bcd60e51b815260206004820152601c60248201527f47455420524557415244204f463a204e4f20434f4e54204f574e455200000000604482015260640161060b565b6001600160a01b038216600090815260056020908152604080832080548251818502810185019093528083528493849084015b8282101561159d57838290600052602060002090600602016040518060c00160405290816000820180546114b190613942565b80601f01602080910402602001604051908101604052809291908181526020018280546114dd90613942565b801561152a5780601f106114ff5761010080835404028352916020019161152a565b820191906000526020600020905b81548152906001019060200180831161150d57829003601f168201915b50505091835250506001820154602082015260028083015460408301526003830154606083015260048301546080830152600583015460a09092019160ff1690811115611579576115796139ae565b600281111561158a5761158a6139ae565b815250508152602001906001019061147e565b50508251929350429150600090505b828110156115fc5760008482815181106115c8576115c86139da565b602002602001015190506115dc8184612e56565b6115e69087613827565b95505080806115f49061397d565b9150506115ac565b509295945050505050565b6000610f3e82612d10565b600054610100900460ff1661162d5760005460ff1615611631565b303b155b6116945760405162461bcd60e51b815260206004820152602e60248201527f496e697469616c697a61626c653a20636f6e747261637420697320616c72656160448201526d191e481a5b9a5d1a585b1a5e995960921b606482015260840161060b565b600054610100900460ff161580156116b6576000805461ffff19166101011790555b6301e13380600a556000600e81905542905b60038110156118b4578681815181106116e3576116e36139da565b602002602001015160066000836002811115611701576117016139ae565b6002811115611712576117126139ae565b6002811115611723576117236139ae565b815260200190815260200160002081905550858181518110611747576117476139da565b602002602001015160076000836002811115611765576117656139ae565b6002811115611776576117766139ae565b6002811115611787576117876139ae565b8152602001908152602001600020819055506000600f60008360028111156117b1576117b16139ae565b60028111156117c2576117c26139ae565b60028111156117d3576117d36139ae565b815260200190815260200160002081905550600860008260028111156117fb576117fb6139ae565b600281111561180c5761180c6139ae565b600281111561181d5761181d6139ae565b81526020015260086000826002811115611839576118396139ae565b600281111561184a5761184a6139ae565b600281111561185b5761185b6139ae565b8152602080820192909252604090810160009081208251808401909352858352828401828152815460018181018455928452949092209251600290940290920192835551910155806118ac8161397d565b9150506116c8565b50506009839055600c80546001600160a01b03191633179055600b82905580156118e4576000805461ff00191690555b5050505050565b600d546001600160a01b031633148061190e5750600c546001600160a01b031633145b61192a5760405162461bcd60e51b815260040161060b906137aa565b6001600160a01b03811661196f5760405162461bcd60e51b815260206004820152600c60248201526b7a65726f206164647265737360a01b604482015260640161060b565b600c80546001600160a01b0319166001600160a01b0392909216919091179055565b606061199c82612d10565b6119b85760405162461bcd60e51b815260040161060b90613773565b6001600160a01b038216600090815260056020908152604080832080548251818502810185019093528083529192909190849084015b82821015611b0d57838290600052602060002090600602016040518060c0016040529081600082018054611a2190613942565b80601f0160208091040260200160405190810160405280929190818152602001828054611a4d90613942565b8015611a9a5780601f10611a6f57610100808354040283529160200191611a9a565b820191906000526020600020905b815481529060010190602001808311611a7d57829003601f168201915b50505091835250506001820154602082015260028083015460408301526003830154606083015260048301546080830152600583015460a09092019160ff1690811115611ae957611ae96139ae565b6002811115611afa57611afa6139ae565b81525050815260200190600101906119ee565b505050509050600081519050611b21613356565b6000611b49610e5785600081518110611b3c57611b3c6139da565b6020026020010151613107565b604080518082019091526001808252602360f81b6020830152919250905b84811015610c6e57858181518110611b8157611b816139da565b602002602001015193508282611b99610e5787613107565b604051602001611bab939291906136d5565b60405160208183030381529060405292508080611bc79061397d565b915050611b67565b600d546001600160a01b0316331480611bf25750600c546001600160a01b031633145b611c0e5760405162461bcd60e51b815260040161060b906137aa565b600060086000836002811115611c2657611c266139ae565b6002811115611c3757611c376139ae565b8152602081019190915260400160002054905060018111611caa5760405162461bcd60e51b815260206004820152602760248201527f554e444f204348414e47453a204e6f206368616e67657320666f756e6420666f6044820152667220635479706560c81b606482015260840161060b565b60086000836002811115611cc057611cc06139ae565b6002811115611cd157611cd16139ae565b8152602001908152602001600020805480611cee57611cee6139c4565b6000828152602081206002600019909301928302018181556001015590555050565b6060611d1b82612d10565b611d375760405162461bcd60e51b815260040161060b90613773565b6001600160a01b038216600090815260056020908152604080832080548251818502810185019093528083529192909190849084015b82821015611e8c57838290600052602060002090600602016040518060c0016040529081600082018054611da090613942565b80601f0160208091040260200160405190810160405280929190818152602001828054611dcc90613942565b8015611e195780601f10611dee57610100808354040283529160200191611e19565b820191906000526020600020905b815481529060010190602001808311611dfc57829003601f168201915b50505091835250506001820154602082015260028083015460408301526003830154606083015260048301546080830152600583015460a09092019160ff1690811115611e6857611e686139ae565b6002811115611e7957611e796139ae565b8152505081526020019060010190611d6d565b505050509050600081519050611ea0613356565b6000611ed584600081518110611eb857611eb86139da565b602002602001015160a001516002811115610e5757610e576139ae565b604080518082019091526001808252602360f81b6020830152919250905b84811015610c6e57858181518110611f0d57611f0d6139da565b602002602001015193508282611f328660a001516002811115610e5757610e576139ae565b604051602001611f44939291906136d5565b60405160208183030381529060405292508080611f609061397d565b915050611ef3565b600d546001600160a01b0316331480611f8b5750600c546001600160a01b031633145b611fa75760405162461bcd60e51b815260040161060b906137aa565b6305f5e100811261200b5760405162461bcd60e51b815260206004820152602860248201527f5245445543455f5257443a20646f206e6f7420726564756365206d6f7265207460448201526768616e203130302560c01b606482015260840161060b565b60086000836002811115612021576120216139ae565b6002811115612032576120326139ae565b81526020808201929092526040908101600090812082518084019093524283528284019485528054600181810183559183529390912091516002909302909101918255915191015550565b600d546001600160a01b03163314806120a05750600c546001600160a01b031633145b6120bc5760405162461bcd60e51b815260040161060b906137aa565b80600760008460028111156120d3576120d36139ae565b60028111156120e4576120e46139ae565b81526020019081526020016000208190555060006008600084600281111561210e5761210e6139ae565b600281111561211f5761211f6139ae565b815260200190815260200160002060008154811061213f5761213f6139da565b906000526020600020906002020160000154905060086000846002811115612169576121696139ae565b600281111561217a5761217a6139ae565b81526020019081526020016000206000612194919061339c565b600860008460028111156121aa576121aa6139ae565b60028111156121bb576121bb6139ae565b81526020808201929092526040908101600090812082518084019093529382528183018181528454600181810187559583529390912091516002909302909101918255519101555050565b600061221183612d10565b61225d5760405162461bcd60e51b815260206004820152601c60248201527f47455420524557415244204f463a204e4f20434f4e54204f574e455200000000604482015260640161060b565b6001600160a01b038316600090815260056020908152604080832080548251818502810185019093528083529192909190849084015b828210156123b257838290600052602060002090600602016040518060c00160405290816000820180546122c690613942565b80601f01602080910402602001604051908101604052809291908181526020018280546122f290613942565b801561233f5780601f106123145761010080835404028352916020019161233f565b820191906000526020600020905b81548152906001019060200180831161232257829003601f168201915b50505091835250506001820154602082015260028083015460408301526003830154606083015260048301546080830152600583015460a09092019160ff169081111561238e5761238e6139ae565b600281111561239f5761239f6139ae565b8152505081526020019060010190612293565b50508251929350505080841061240a5760405162461bcd60e51b815260206004820152601c60248201527f434f4e543a20436f6e7420696e64657820697320696d70726f70657200000000604482015260640161060b565b600082858151811061241e5761241e6139da565b6020026020010151905060006124348242612e56565b979650505050505050565b600d546000906001600160a01b03163314806124655750600c546001600160a01b031633145b6124815760405162461bcd60e51b815260040161060b906137aa565b6001600160a01b0383166000908152600560205260409020805483106124dd5760405162461bcd60e51b815260206004820152601160248201527021a7a72a1d1024b73232bc1022b93937b960791b604482015260640161060b565b60008184815481106124f1576124f16139da565b9060005260206000209060060201905061250e8160020154613113565b6125805760405162461bcd60e51b815260206004820152603a60248201527f434153484f5554204552524f523a20596f75206861766520746f20776169742060448201527f6265666f726520636c61696d696e67207468697320636f6e742e000000000000606482015260840161060b565b60004290506000612688836040518060c00160405290816000820180546125a690613942565b80601f01602080910402602001604051908101604052809291908181526020018280546125d290613942565b801561261f5780601f106125f45761010080835404028352916020019161261f565b820191906000526020600020905b81548152906001019060200180831161260257829003601f168201915b50505091835250506001820154602082015260028083015460408301526003830154606083015260048301546080830152600583015460a09092019160ff169081111561266e5761266e6139ae565b600281111561267f5761267f6139ae565b90525083612e56565b6002909301919091555091505092915050565b6000600f60008360028111156126b3576126b36139ae565b60028111156126c4576126c46139ae565b8152602001908152602001600020549050919050565b600d546000906001600160a01b03163314806127005750600c546001600160a01b031633145b61271c5760405162461bcd60e51b815260040161060b906137aa565b6001600160a01b038216600090815260056020526040902080548061279b5760405162461bcd60e51b815260206004820152602f60248201527f434153484f5554204552524f523a20596f7520646f6e2774206861766520636f60448201526e1b9d1cc81d1bc818d85cda0b5bdd5d608a1b606482015260840161060b565b6000804281805b858110156127f15760008782815481106127be576127be6139da565b9060005260206000209060060201600201549050828111156127de578092505b50806127e98161397d565b9150506127a2565b506127fb81613113565b61286d5760405162461bcd60e51b815260206004820152603a60248201527f434153484f5554204552524f523a20596f75206861766520746f20776169742060448201527f6265666f726520636c61696d696e6720616c6c20636f6e74732e000000000000606482015260840161060b565b60005b858110156129c05786818154811061288a5761288a6139da565b9060005260206000209060060201945061299b856040518060c00160405290816000820180546128b990613942565b80601f01602080910402602001604051908101604052809291908181526020018280546128e590613942565b80156129325780601f1061290757610100808354040283529160200191612932565b820191906000526020600020905b81548152906001019060200180831161291557829003601f168201915b50505091835250506001820154602082015260028083015460408301526003830154606083015260048301546080830152600583015460a09092019160ff1690811115612981576129816139ae565b6002811115612992576129926139ae565b90525084612e56565b6129a59085613827565b600286018490559350806129b88161397d565b915050612870565b5091955050505050505b919050565b60606129da82612d10565b612a215760405162461bcd60e51b815260206004820152601860248201527723a2aa102720a6a2a99d1027279021a7a72a1027aba722a960411b604482015260640161060b565b6001600160a01b038216600090815260056020908152604080832080548251818502810185019093528083529192909190849084015b82821015612b7657838290600052602060002090600602016040518060c0016040529081600082018054612a8a90613942565b80601f0160208091040260200160405190810160405280929190818152602001828054612ab690613942565b8015612b035780601f10612ad857610100808354040283529160200191612b03565b820191906000526020600020905b815481529060010190602001808311612ae657829003601f168201915b50505091835250506001820154602082015260028083015460408301526003830154606083015260048301546080830152600583015460a09092019160ff1690811115612b5257612b526139ae565b6002811115612b6357612b636139ae565b8152505081526020019060010190612a57565b505050509050600081519050612b8a613356565b600083600081518110612b9f57612b9f6139da565b60200260200101516000015190506000604051806040016040528060018152602001602360f81b81525090506000600190505b84811015610c6e57858181518110612bec57612bec6139da565b6020026020010151935082828560000151604051602001612c0f939291906136d5565b60405160208183030381529060405292508080612c2b9061397d565b915050612bd2565b600080612c44836305f5e1006138a5565b90506305f5e100612c558286613886565b612c5f9190613864565b949350505050565b6001600160a01b038216600090815260038401602052604090205460ff1615612cac576001600160a01b03821660009081526001840160205260409020819055505050565b6001600160a01b03821660008181526003850160209081526040808320805460ff19166001908117909155878101835281842086905587546002890184529184208290558101875586835291200180546001600160a01b0319169091179055505050565b6001600160a01b0316600090815260026020526040902054151590565b606081612d515750506040805180820190915260018152600360fc1b602082015290565b8160005b8115612d7b5780612d658161397d565b9150612d749050600a83613864565b9150612d55565b60008167ffffffffffffffff811115612d9657612d966139f0565b6040519080825280601f01601f191660200182016040528015612dc0576020820181803683370190505b509050815b8515612e4d57612dd66001826138e4565b90506000612de5600a88613864565b612df090600a613886565b612dfa90886138e4565b612e0590603061383f565b905060008160f81b905080848481518110612e2257612e226139da565b60200101906001600160f81b031916908160001a905350612e44600a89613864565b97505050612dc5565b50949350505050565b6000808360a0015190506000612e7082866040015161312c565b90506000856080015190506000612e8b878860400151613207565b604088015160208901519192509060009081908190819081895b600860008d6002811115612ebb57612ebb6139ae565b6002811115612ecc57612ecc6139ae565b815260208101919091526040016000205481101561303157600860008d6002811115612efa57612efa6139ae565b6002811115612f0b57612f0b6139ae565b81526020019081526020016000208181548110612f2a57612f2a6139da565b9060005260206000209060020201600001549650612f4888846132b1565b612f5288856132b1565b1480159250612f8a57612f6588846132b1565b612f70906001613827565b600a54612f7d9190613886565b612f879084613827565b96505b612f9488886138e4565b94506301e13380856305f5e100612fab8c8e613886565b612fb59190613864565b612fbf9190613886565b612fc99190613864565b93508697508386612fda9190613827565b9550811561300257612fee89600b54612c33565b985080612ffa8161392b565b91505061301f565b61301c89600860008f6002811115610569576105696139ae565b98505b806130298161397d565b915050612ea5565b505b8c87146130f5578c955061304787836132b1565b61305187846132b1565b14801591506130895761306487836132b1565b61306f906001613827565b600a5461307c9190613886565b6130869083613827565b95505b61309387876138e4565b93506301e13380846305f5e1006130aa8b8d613886565b6130b49190613864565b6130be9190613886565b6130c89190613864565b925085965082856130d99190613827565b945080156130f0576130ed88600b54612c33565b97505b613033565b50929c9b505050505050505050505050565b6000610f3e8242613207565b600042600954836131249190613827565b111592915050565b60008080600881866002811115613145576131456139ae565b6002811115613156576131566139ae565b815260208101919091526040016000205490505b818111156105c457600060026131808385613827565b61318a9190613864565b905084600860008860028111156131a3576131a36139ae565b60028111156131b4576131b46139ae565b815260200190815260200160002082815481106131d3576131d36139da565b90600052602060002090600202016000015410156131fd576131f6816001613827565b9250613201565b8091505b5061316a565b602082015160a08301516060840151600092919083613226838561312c565b90506000613234848861312c565b9050815b8181101561326e5761325a8460086000886002811115610569576105696139ae565b9350806132668161397d565b915050613238565b50600061327b88876132b1565b90505b80156132a4578061328e8161392b565b91505061329d84600b54612c33565b935061327e565b5091979650505050505050565b600a546000906132c183856138e4565b6132cb9190613864565b9392505050565b8280546132de90613942565b90600052602060002090601f0160209004810192826133005760008555613346565b82601f1061331957805160ff1916838001178555613346565b82800160010185558215613346579182015b8281111561334657825182559160200191906001019061332b565b506133529291506133c0565b5090565b6040518060c00160405280606081526020016000815260200160008152602001600081526020016000815260200160006002811115613397576133976139ae565b905290565b50805460008255600202906000526020600020908101906133bd91906133d5565b50565b5b8082111561335257600081556001016133c1565b5b8082111561335257600080825560018201556002016133d6565b80356001600160a01b03811681146129ca57600080fd5b600082601f83011261341857600080fd5b8135602061342d61342883613803565b6137d2565b80838252828201915082860187848660051b890101111561344d57600080fd5b60005b8581101561346c57813584529284019290840190600101613450565b5090979650505050505050565b8035600381106129ca57600080fd5b60006020828403121561349a57600080fd5b6132cb826133f0565b6000806000606084860312156134b857600080fd5b6134c1846133f0565b925060208085013567ffffffffffffffff808211156134df57600080fd5b818701915087601f8301126134f357600080fd5b813561350161342882613803565b8082825285820191508585018b878560051b880101111561352157600080fd5b60005b848110156135ae5781358681111561353b57600080fd5b8701603f81018e1361354c57600080fd5b8881013587811115613560576135606139f0565b613572601f8201601f19168b016137d2565b8181528f604083850101111561358757600080fd5b81604084018c83013760009181018b01919091528552509287019290870190600101613524565b50508097505050505050506135c560408501613479565b90509250925092565b600080604083850312156135e157600080fd5b6135ea836133f0565b946020939093013593505050565b6000806000806080858703121561360e57600080fd5b843567ffffffffffffffff8082111561362657600080fd5b61363288838901613407565b9550602087013591508082111561364857600080fd5b5061365587828801613407565b949794965050505060408301359260600135919050565b60006020828403121561367e57600080fd5b6132cb82613479565b6000806040838503121561369a57600080fd5b6135ea83613479565b6000602082840312156136b557600080fd5b5035919050565b6000602082840312156136ce57600080fd5b5051919050565b600084516136e78184602089016138fb565b8451908301906136fb8183602089016138fb565b845191019061370e8183602088016138fb565b0195945050505050565b602081016003831061373a57634e487b7160e01b600052602160045260246000fd5b91905290565b602081526000825180602084015261375f8160408501602087016138fb565b601f01601f19169190910160400192915050565b6020808252601b908201527f474554204352454154494d453a204e4f20434f4e54204f574e45520000000000604082015260600190565b6020808252600e908201526d4163636573732044656e6965642160901b604082015260600190565b604051601f8201601f1916810167ffffffffffffffff811182821017156137fb576137fb6139f0565b604052919050565b600067ffffffffffffffff82111561381d5761381d6139f0565b5060051b60200190565b6000821982111561383a5761383a613998565b500190565b600060ff821660ff84168060ff0382111561385c5761385c613998565b019392505050565b60008261388157634e487b7160e01b600052601260045260246000fd5b500490565b60008160001904831182151516156138a0576138a0613998565b500290565b60008083128015600160ff1b8501841216156138c3576138c3613998565b6001600160ff1b03840183138116156138de576138de613998565b50500390565b6000828210156138f6576138f6613998565b500390565b60005b838110156139165781810151838201526020016138fe565b83811115613925576000848401525b50505050565b60008161393a5761393a613998565b506000190190565b600181811c9082168061395657607f821691505b6020821081141561397757634e487b7160e01b600052602260045260246000fd5b50919050565b600060001982141561399157613991613998565b5060010190565b634e487b7160e01b600052601160045260246000fd5b634e487b7160e01b600052602160045260246000fd5b634e487b7160e01b600052603160045260246000fd5b634e487b7160e01b600052603260045260246000fd5b634e487b7160e01b600052604160045260246000fdfea164736f6c6343000807000a",
  "devdoc": {
    "kind": "dev",
    "methods": {},
    "version": 1
  },
  "userdoc": {
    "kind": "user",
    "methods": {},
    "version": 1
  },
  "storageLayout": {
    "storage": [
      {
        "astId": 598,
        "contract": "contracts/dependencies/CONTRewardManagement.sol:CONTRewardManagement",
        "label": "_initialized",
        "offset": 0,
        "slot": "0",
        "type": "t_bool"
      },
      {
        "astId": 601,
        "contract": "contracts/dependencies/CONTRewardManagement.sol:CONTRewardManagement",
        "label": "_initializing",
        "offset": 1,
        "slot": "0",
        "type": "t_bool"
      },
      {
        "astId": 3972,
        "contract": "contracts/dependencies/CONTRewardManagement.sol:CONTRewardManagement",
        "label": "contOwners",
        "offset": 0,
        "slot": "1",
        "type": "t_struct(Map)6476_storage"
      },
      {
        "astId": 3978,
        "contract": "contracts/dependencies/CONTRewardManagement.sol:CONTRewardManagement",
        "label": "_contsOfUser",
        "offset": 0,
        "slot": "5",
        "type": "t_mapping(t_address,t_array(t_struct(ContEntity)3964_storage)dyn_storage)"
      },
      {
        "astId": 3983,
        "contract": "contracts/dependencies/CONTRewardManagement.sol:CONTRewardManagement",
        "label": "contPrice",
        "offset": 0,
        "slot": "6",
        "type": "t_mapping(t_enum(ContType)3938,t_uint256)"
      },
      {
        "astId": 3988,
        "contract": "contracts/dependencies/CONTRewardManagement.sol:CONTRewardManagement",
        "label": "initRewardAPRPerCont",
        "offset": 0,
        "slot": "7",
        "type": "t_mapping(t_enum(ContType)3938,t_uint256)"
      },
      {
        "astId": 3995,
        "contract": "contracts/dependencies/CONTRewardManagement.sol:CONTRewardManagement",
        "label": "aprChangesHistory",
        "offset": 0,
        "slot": "8",
        "type": "t_mapping(t_enum(ContType)3938,t_array(t_struct(APRChangesEntry)3969_storage)dyn_storage)"
      },
      {
        "astId": 3997,
        "contract": "contracts/dependencies/CONTRewardManagement.sol:CONTRewardManagement",
        "label": "cashoutTimeout",
        "offset": 0,
        "slot": "9",
        "type": "t_uint256"
      },
      {
        "astId": 3999,
        "contract": "contracts/dependencies/CONTRewardManagement.sol:CONTRewardManagement",
        "label": "autoReduceAPRInterval",
        "offset": 0,
        "slot": "10",
        "type": "t_uint256"
      },
      {
        "astId": 4001,
        "contract": "contracts/dependencies/CONTRewardManagement.sol:CONTRewardManagement",
        "label": "autoReduceAPRRate",
        "offset": 0,
        "slot": "11",
        "type": "t_uint256"
      },
      {
        "astId": 4003,
        "contract": "contracts/dependencies/CONTRewardManagement.sol:CONTRewardManagement",
        "label": "admin0XB",
        "offset": 0,
        "slot": "12",
        "type": "t_address"
      },
      {
        "astId": 4005,
        "contract": "contracts/dependencies/CONTRewardManagement.sol:CONTRewardManagement",
        "label": "token",
        "offset": 0,
        "slot": "13",
        "type": "t_address"
      },
      {
        "astId": 4007,
        "contract": "contracts/dependencies/CONTRewardManagement.sol:CONTRewardManagement",
        "label": "totalContsCreated",
        "offset": 0,
        "slot": "14",
        "type": "t_uint256"
      },
      {
        "astId": 4012,
        "contract": "contracts/dependencies/CONTRewardManagement.sol:CONTRewardManagement",
        "label": "_totalContsPerContType",
        "offset": 0,
        "slot": "15",
        "type": "t_mapping(t_enum(ContType)3938,t_uint256)"
      }
    ],
    "types": {
      "t_address": {
        "encoding": "inplace",
        "label": "address",
        "numberOfBytes": "20"
      },
      "t_array(t_address)dyn_storage": {
        "base": "t_address",
        "encoding": "dynamic_array",
        "label": "address[]",
        "numberOfBytes": "32"
      },
      "t_array(t_struct(APRChangesEntry)3969_storage)dyn_storage": {
        "base": "t_struct(APRChangesEntry)3969_storage",
        "encoding": "dynamic_array",
        "label": "struct CONTRewardManagement.APRChangesEntry[]",
        "numberOfBytes": "32"
      },
      "t_array(t_struct(ContEntity)3964_storage)dyn_storage": {
        "base": "t_struct(ContEntity)3964_storage",
        "encoding": "dynamic_array",
        "label": "struct CONTRewardManagement.ContEntity[]",
        "numberOfBytes": "32"
      },
      "t_bool": {
        "encoding": "inplace",
        "label": "bool",
        "numberOfBytes": "1"
      },
      "t_enum(ContType)3938": {
        "encoding": "inplace",
        "label": "enum ContType",
        "numberOfBytes": "1"
      },
      "t_int256": {
        "encoding": "inplace",
        "label": "int256",
        "numberOfBytes": "32"
      },
      "t_mapping(t_address,t_array(t_struct(ContEntity)3964_storage)dyn_storage)": {
        "encoding": "mapping",
        "key": "t_address",
        "label": "mapping(address => struct CONTRewardManagement.ContEntity[])",
        "numberOfBytes": "32",
        "value": "t_array(t_struct(ContEntity)3964_storage)dyn_storage"
      },
      "t_mapping(t_address,t_bool)": {
        "encoding": "mapping",
        "key": "t_address",
        "label": "mapping(address => bool)",
        "numberOfBytes": "32",
        "value": "t_bool"
      },
      "t_mapping(t_address,t_uint256)": {
        "encoding": "mapping",
        "key": "t_address",
        "label": "mapping(address => uint256)",
        "numberOfBytes": "32",
        "value": "t_uint256"
      },
      "t_mapping(t_enum(ContType)3938,t_array(t_struct(APRChangesEntry)3969_storage)dyn_storage)": {
        "encoding": "mapping",
        "key": "t_enum(ContType)3938",
        "label": "mapping(enum ContType => struct CONTRewardManagement.APRChangesEntry[])",
        "numberOfBytes": "32",
        "value": "t_array(t_struct(APRChangesEntry)3969_storage)dyn_storage"
      },
      "t_mapping(t_enum(ContType)3938,t_uint256)": {
        "encoding": "mapping",
        "key": "t_enum(ContType)3938",
        "label": "mapping(enum ContType => uint256)",
        "numberOfBytes": "32",
        "value": "t_uint256"
      },
      "t_string_storage": {
        "encoding": "bytes",
        "label": "string",
        "numberOfBytes": "32"
      },
      "t_struct(APRChangesEntry)3969_storage": {
        "encoding": "inplace",
        "label": "struct CONTRewardManagement.APRChangesEntry",
        "members": [
          {
            "astId": 3966,
            "contract": "contracts/dependencies/CONTRewardManagement.sol:CONTRewardManagement",
            "label": "timestamp",
            "offset": 0,
            "slot": "0",
            "type": "t_uint256"
          },
          {
            "astId": 3968,
            "contract": "contracts/dependencies/CONTRewardManagement.sol:CONTRewardManagement",
            "label": "reducedPercentage",
            "offset": 0,
            "slot": "1",
            "type": "t_int256"
          }
        ],
        "numberOfBytes": "64"
      },
      "t_struct(ContEntity)3964_storage": {
        "encoding": "inplace",
        "label": "struct CONTRewardManagement.ContEntity",
        "members": [
          {
            "astId": 3952,
            "contract": "contracts/dependencies/CONTRewardManagement.sol:CONTRewardManagement",
            "label": "name",
            "offset": 0,
            "slot": "0",
            "type": "t_string_storage"
          },
          {
            "astId": 3954,
            "contract": "contracts/dependencies/CONTRewardManagement.sol:CONTRewardManagement",
            "label": "creationTime",
            "offset": 0,
            "slot": "1",
            "type": "t_uint256"
          },
          {
            "astId": 3956,
            "contract": "contracts/dependencies/CONTRewardManagement.sol:CONTRewardManagement",
            "label": "lastUpdateTime",
            "offset": 0,
            "slot": "2",
            "type": "t_uint256"
          },
          {
            "astId": 3958,
            "contract": "contracts/dependencies/CONTRewardManagement.sol:CONTRewardManagement",
            "label": "initialAPR",
            "offset": 0,
            "slot": "3",
            "type": "t_uint256"
          },
          {
            "astId": 3960,
            "contract": "contracts/dependencies/CONTRewardManagement.sol:CONTRewardManagement",
            "label": "buyPrice",
            "offset": 0,
            "slot": "4",
            "type": "t_uint256"
          },
          {
            "astId": 3963,
            "contract": "contracts/dependencies/CONTRewardManagement.sol:CONTRewardManagement",
            "label": "cType",
            "offset": 0,
            "slot": "5",
            "type": "t_enum(ContType)3938"
          }
        ],
        "numberOfBytes": "192"
      },
      "t_struct(Map)6476_storage": {
        "encoding": "inplace",
        "label": "struct IterableMapping.Map",
        "members": [
          {
            "astId": 6463,
            "contract": "contracts/dependencies/CONTRewardManagement.sol:CONTRewardManagement",
            "label": "keys",
            "offset": 0,
            "slot": "0",
            "type": "t_array(t_address)dyn_storage"
          },
          {
            "astId": 6467,
            "contract": "contracts/dependencies/CONTRewardManagement.sol:CONTRewardManagement",
            "label": "values",
            "offset": 0,
            "slot": "1",
            "type": "t_mapping(t_address,t_uint256)"
          },
          {
            "astId": 6471,
            "contract": "contracts/dependencies/CONTRewardManagement.sol:CONTRewardManagement",
            "label": "indexOf",
            "offset": 0,
            "slot": "2",
            "type": "t_mapping(t_address,t_uint256)"
          },
          {
            "astId": 6475,
            "contract": "contracts/dependencies/CONTRewardManagement.sol:CONTRewardManagement",
            "label": "inserted",
            "offset": 0,
            "slot": "3",
            "type": "t_mapping(t_address,t_bool)"
          }
        ],
        "numberOfBytes": "128"
      },
      "t_uint256": {
        "encoding": "inplace",
        "label": "uint256",
        "numberOfBytes": "32"
      }
    }
  }
}