{
  "address": "0x64F68f661D328B67b85b1ecB90F13aF64172817a",
  "abi": [
    {
      "anonymous": false,
      "inputs": [
        {
          "indexed": false,
          "internalType": "enum ContType",
          "name": "_cType",
          "type": "uint8"
        },
        {
          "indexed": false,
          "internalType": "uint256",
          "name": "delta",
          "type": "uint256"
        }
      ],
      "name": "BreakevenChanged",
      "type": "event"
    },
    {
      "inputs": [
        {
          "internalType": "address",
          "name": "",
          "type": "address"
        },
        {
          "internalType": "uint256",
          "name": "",
          "type": "uint256"
        }
      ],
      "name": "_brokeevenContract",
      "outputs": [
        {
          "internalType": "bool",
          "name": "",
          "type": "bool"
        }
      ],
      "stateMutability": "view",
      "type": "function"
    },
    {
      "inputs": [
        {
          "internalType": "address",
          "name": "account",
          "type": "address"
        }
      ],
      "name": "_cashoutAllContsReward",
      "outputs": [
        {
          "internalType": "uint256",
          "name": "",
          "type": "uint256"
        },
        {
          "internalType": "uint256",
          "name": "",
          "type": "uint256"
        },
        {
          "internalType": "uint256",
          "name": "",
          "type": "uint256"
        },
        {
          "internalType": "uint256",
          "name": "",
          "type": "uint256"
        }
      ],
      "stateMutability": "nonpayable",
      "type": "function"
    },
    {
      "inputs": [
        {
          "internalType": "address",
          "name": "account",
          "type": "address"
        },
        {
          "internalType": "uint256",
          "name": "_contIndex",
          "type": "uint256"
        }
      ],
      "name": "_cashoutContReward",
      "outputs": [
        {
          "internalType": "uint256",
          "name": "",
          "type": "uint256"
        },
        {
          "internalType": "enum ContType",
          "name": "",
          "type": "uint8"
        }
      ],
      "stateMutability": "nonpayable",
      "type": "function"
    },
    {
      "inputs": [
        {
          "internalType": "uint256",
          "name": "newInterval",
          "type": "uint256"
        }
      ],
      "name": "_changeAutoReduceAPRInterval",
      "outputs": [],
      "stateMutability": "nonpayable",
      "type": "function"
    },
    {
      "inputs": [
        {
          "internalType": "uint256",
          "name": "newRate",
          "type": "uint256"
        }
      ],
      "name": "_changeAutoReduceAPRRate",
      "outputs": [],
      "stateMutability": "nonpayable",
      "type": "function"
    },
    {
      "inputs": [
        {
          "internalType": "uint256",
          "name": "newTime",
          "type": "uint256"
        }
      ],
      "name": "_changeCashoutTimeout",
      "outputs": [],
      "stateMutability": "nonpayable",
      "type": "function"
    },
    {
      "inputs": [
        {
          "internalType": "enum ContType",
          "name": "_cType",
          "type": "uint8"
        },
        {
          "internalType": "uint256",
          "name": "newPrice",
          "type": "uint256"
        }
      ],
      "name": "_changeContPrice",
      "outputs": [],
      "stateMutability": "nonpayable",
      "type": "function"
    },
    {
      "inputs": [
        {
          "internalType": "enum ContType",
          "name": "_cType",
          "type": "uint8"
        },
        {
          "internalType": "int256",
          "name": "reducedPercentage",
          "type": "int256"
        }
      ],
      "name": "_changeRewardAPRPerCont",
      "outputs": [],
      "stateMutability": "nonpayable",
      "type": "function"
    },
    {
      "inputs": [
        {
          "internalType": "address",
          "name": "account",
          "type": "address"
        }
      ],
      "name": "_getClaimedAmountOf",
      "outputs": [
        {
          "internalType": "uint256",
          "name": "rewardAmount",
          "type": "uint256"
        }
      ],
      "stateMutability": "view",
      "type": "function"
    },
    {
      "inputs": [
        {
          "internalType": "address",
          "name": "account",
          "type": "address"
        },
        {
          "internalType": "uint256",
          "name": "_contIndex",
          "type": "uint256"
        }
      ],
      "name": "_getClaimedAmountOfIndex",
      "outputs": [
        {
          "internalType": "uint256",
          "name": "rewardCont",
          "type": "uint256"
        }
      ],
      "stateMutability": "view",
      "type": "function"
    },
    {
      "inputs": [
        {
          "internalType": "address",
          "name": "account",
          "type": "address"
        }
      ],
      "name": "_getContNumberOf",
      "outputs": [
        {
          "internalType": "uint256",
          "name": "",
          "type": "uint256"
        }
      ],
      "stateMutability": "view",
      "type": "function"
    },
    {
      "inputs": [
        {
          "internalType": "address",
          "name": "account",
          "type": "address"
        }
      ],
      "name": "_getContsCreationTime",
      "outputs": [
        {
          "internalType": "string",
          "name": "",
          "type": "string"
        }
      ],
      "stateMutability": "view",
      "type": "function"
    },
    {
      "inputs": [
        {
          "internalType": "address",
          "name": "account",
          "type": "address"
        }
      ],
      "name": "_getContsCurrentAPR",
      "outputs": [
        {
          "internalType": "string",
          "name": "",
          "type": "string"
        }
      ],
      "stateMutability": "view",
      "type": "function"
    },
    {
      "inputs": [
        {
          "internalType": "address",
          "name": "account",
          "type": "address"
        }
      ],
      "name": "_getContsInitialAPR",
      "outputs": [
        {
          "internalType": "string",
          "name": "",
          "type": "string"
        }
      ],
      "stateMutability": "view",
      "type": "function"
    },
    {
      "inputs": [
        {
          "internalType": "address",
          "name": "account",
          "type": "address"
        }
      ],
      "name": "_getContsLastUpdateTime",
      "outputs": [
        {
          "internalType": "string",
          "name": "",
          "type": "string"
        }
      ],
      "stateMutability": "view",
      "type": "function"
    },
    {
      "inputs": [
        {
          "internalType": "address",
          "name": "account",
          "type": "address"
        }
      ],
      "name": "_getContsNames",
      "outputs": [
        {
          "internalType": "string",
          "name": "",
          "type": "string"
        }
      ],
      "stateMutability": "view",
      "type": "function"
    },
    {
      "inputs": [
        {
          "internalType": "address",
          "name": "account",
          "type": "address"
        }
      ],
      "name": "_getContsRewardAvailable",
      "outputs": [
        {
          "internalType": "string",
          "name": "",
          "type": "string"
        }
      ],
      "stateMutability": "view",
      "type": "function"
    },
    {
      "inputs": [
        {
          "internalType": "address",
          "name": "account",
          "type": "address"
        }
      ],
      "name": "_getContsTypes",
      "outputs": [
        {
          "internalType": "string",
          "name": "",
          "type": "string"
        }
      ],
      "stateMutability": "view",
      "type": "function"
    },
    {
      "inputs": [
        {
          "internalType": "address",
          "name": "account",
          "type": "address"
        }
      ],
      "name": "_getRewardAmountOf",
      "outputs": [
        {
          "internalType": "uint256",
          "name": "",
          "type": "uint256"
        }
      ],
      "stateMutability": "view",
      "type": "function"
    },
    {
      "inputs": [
        {
          "internalType": "address",
          "name": "account",
          "type": "address"
        },
        {
          "internalType": "uint256",
          "name": "_contIndex",
          "type": "uint256"
        }
      ],
      "name": "_getRewardAmountOfIndex",
      "outputs": [
        {
          "internalType": "uint256",
          "name": "",
          "type": "uint256"
        }
      ],
      "stateMutability": "view",
      "type": "function"
    },
    {
      "inputs": [
        {
          "internalType": "address",
          "name": "account",
          "type": "address"
        }
      ],
      "name": "_isContOwner",
      "outputs": [
        {
          "internalType": "bool",
          "name": "",
          "type": "bool"
        }
      ],
      "stateMutability": "view",
      "type": "function"
    },
    {
      "inputs": [
        {
          "internalType": "enum ContType",
          "name": "_cType",
          "type": "uint8"
        },
        {
          "internalType": "uint256",
          "name": "_initialPrice",
          "type": "uint256"
        }
      ],
      "name": "_resetAllAPRChange",
      "outputs": [],
      "stateMutability": "nonpayable",
      "type": "function"
    },
    {
      "inputs": [
        {
          "internalType": "enum ContType",
          "name": "_cType",
          "type": "uint8"
        }
      ],
      "name": "_undoRewardAPRChange",
      "outputs": [],
      "stateMutability": "nonpayable",
      "type": "function"
    },
    {
      "inputs": [],
      "name": "admin0XB",
      "outputs": [
        {
          "internalType": "address",
          "name": "",
          "type": "address"
        }
      ],
      "stateMutability": "view",
      "type": "function"
    },
    {
      "inputs": [],
      "name": "autoReduceAPRInterval",
      "outputs": [
        {
          "internalType": "uint256",
          "name": "",
          "type": "uint256"
        }
      ],
      "stateMutability": "view",
      "type": "function"
    },
    {
      "inputs": [],
      "name": "autoReduceAPRRate",
      "outputs": [
        {
          "internalType": "uint256",
          "name": "",
          "type": "uint256"
        }
      ],
      "stateMutability": "view",
      "type": "function"
    },
    {
      "inputs": [],
      "name": "cashoutTimeout",
      "outputs": [
        {
          "internalType": "uint256",
          "name": "",
          "type": "uint256"
        }
      ],
      "stateMutability": "view",
      "type": "function"
    },
    {
      "inputs": [
        {
          "internalType": "enum ContType",
          "name": "",
          "type": "uint8"
        }
      ],
      "name": "contPrice",
      "outputs": [
        {
          "internalType": "uint256",
          "name": "",
          "type": "uint256"
        }
      ],
      "stateMutability": "view",
      "type": "function"
    },
    {
      "inputs": [
        {
          "internalType": "address",
          "name": "account",
          "type": "address"
        },
        {
          "internalType": "string[]",
          "name": "contNames",
          "type": "string[]"
        },
        {
          "internalType": "enum ContType",
          "name": "_cType",
          "type": "uint8"
        }
      ],
      "name": "createConts",
      "outputs": [],
      "stateMutability": "nonpayable",
      "type": "function"
    },
    {
      "inputs": [
        {
          "internalType": "enum ContType",
          "name": "_cType",
          "type": "uint8"
        }
      ],
      "name": "currentRewardAPRPerNewCont",
      "outputs": [
        {
          "internalType": "uint256",
          "name": "",
          "type": "uint256"
        }
      ],
      "stateMutability": "view",
      "type": "function"
    },
    {
      "inputs": [
        {
          "internalType": "enum ContType",
          "name": "",
          "type": "uint8"
        }
      ],
      "name": "initRewardAPRPerCont",
      "outputs": [
        {
          "internalType": "uint256",
          "name": "",
          "type": "uint256"
        }
      ],
      "stateMutability": "view",
      "type": "function"
    },
    {
      "inputs": [
        {
          "internalType": "uint256[]",
          "name": "_contPrices",
          "type": "uint256[]"
        },
        {
          "internalType": "uint256[]",
          "name": "_rewardAPRs",
          "type": "uint256[]"
        },
        {
          "internalType": "uint256",
          "name": "_cashoutTimeout",
          "type": "uint256"
        },
        {
          "internalType": "uint256",
          "name": "_autoReduceAPRRate",
          "type": "uint256"
        }
      ],
      "name": "initialize",
      "outputs": [],
      "stateMutability": "nonpayable",
      "type": "function"
    },
    {
      "inputs": [
        {
          "internalType": "address",
          "name": "newAdmin",
          "type": "address"
        }
      ],
      "name": "setAdmin",
      "outputs": [],
      "stateMutability": "nonpayable",
      "type": "function"
    },
    {
      "inputs": [
        {
          "internalType": "address",
          "name": "token_",
          "type": "address"
        }
      ],
      "name": "setToken",
      "outputs": [],
      "stateMutability": "nonpayable",
      "type": "function"
    },
    {
      "inputs": [],
      "name": "token",
      "outputs": [
        {
          "internalType": "address",
          "name": "",
          "type": "address"
        }
      ],
      "stateMutability": "view",
      "type": "function"
    },
    {
      "inputs": [],
      "name": "totalContsCreated",
      "outputs": [
        {
          "internalType": "uint256",
          "name": "",
          "type": "uint256"
        }
      ],
      "stateMutability": "view",
      "type": "function"
    },
    {
      "inputs": [
        {
          "internalType": "enum ContType",
          "name": "_cType",
          "type": "uint8"
        }
      ],
      "name": "totalContsPerContType",
      "outputs": [
        {
          "internalType": "uint256",
          "name": "",
          "type": "uint256"
        }
      ],
      "stateMutability": "view",
      "type": "function"
    }
  ],
  "transactionHash": "0xe7ace6133f1606bf091c2c28f008c1611e87b12ab63bcb6ddeb475cc42ead46f",
  "args": [],
  "numDeployments": 14,
  "solcInputHash": "60263a61cd1d413400450851528470a4",
  "bytecode": "0x608060405234801561001057600080fd5b50614208806100206000396000f3fe608060405234801561001057600080fd5b50600436106102265760003560e01c80636eb5a7f4116101305780639b28d1a7116100b8578063ce6912a31161007c578063ce6912a3146104fa578063d094fa8d1461050d578063e18f03ad14610540578063f743f31914610549578063fc0c546a1461055c57600080fd5b80639b28d1a7146104975780639d2040f0146104a05780639f227c53146104b3578063a1a99b91146104c6578063c2202b66146104d957600080fd5b80638201bf26116100ff5780638201bf261461042a578063872a60ad1461043d5780638bf1451414610468578063927831b41461047b57806393520a801461048e57600080fd5b80636eb5a7f4146103c3578063704b6c02146103d657806377ec7826146103e95780637bed9600146103fc57600080fd5b8063390c991e116101b357806355a757d01161018257806355a757d0146103515780635dbab6ed1461035a578063619a635e1461036d57806363a9b09814610380578063665bb078146103a057600080fd5b8063390c991e146102f857806344fea1b91461030b5780634f88de011461031e57806351bf120c1461033e57600080fd5b8063144fa6d7116101fa578063144fa6d71461028c5780631565f50e1461029f5780631d5a1731146102b257806328cceb24146102c5578063367fd074146102e557600080fd5b8062c73e4d1461022b5780630534cc68146102515780630b9f6cfe146102665780630d9f9f0c14610279575b600080fd5b61023e610239366004613e23565b61056f565b6040519081526020015b60405180910390f35b61026461025f366004613c5a565b61066f565b005b61023e610274366004613d85565b610912565b610264610287366004613e5a565b610af8565b61026461029a366004613c3f565b610b3c565b6102646102ad366004613e5a565b610be2565b6102646102c0366004613e3e565b610c26565b6102d86102d3366004613c3f565b610ca2565b6040516102489190613f38565b6102d86102f3366004613c3f565b610eea565b610264610306366004613e5a565b611159565b61023e610319366004613c3f565b61119d565b61023e61032c366004613e23565b60076020526000908152604090205481565b6102d861034c366004613c3f565b6111bb565b61023e60095481565b6102d8610368366004613c3f565b6113f7565b61023e61037b366004613c3f565b611633565b61023e61038e366004613e23565b60066020526000908152604090205481565b6103b36103ae366004613c3f565b611808565b6040519015158152602001610248565b6102646103d1366004613daf565b611813565b6102646103e4366004613c3f565b611aec565b6102d86103f7366004613c3f565b611b92565b6103b361040a366004613d85565b601060209081526000928352604080842090915290825290205460ff1681565b610264610438366004613e23565b611dcc565b600c54610450906001600160a01b031681565b6040516001600160a01b039091168152602001610248565b6102d8610476366004613c3f565b611f0d565b61023e610489366004613d85565b612161565b61023e600b5481565b61023e600a5481565b6102646104ae366004613e3e565b612346565b6102646104c1366004613e3e565b61245b565b61023e6104d4366004613c3f565b6125e4565b6104ec6104e7366004613d85565b6127c1565b604051610248929190613f93565b61023e610508366004613e23565b612bcd565b61052061051b366004613c3f565b612c0c565b604080519485526020850193909352918301526060820152608001610248565b61023e600e5481565b6102d8610557366004613c3f565b613138565b600d54610450906001600160a01b031681565b60008060086000846003811115610588576105886141a3565b6003811115610599576105996141a3565b81526020019081526020016000208054905090506000600760008560038111156105c5576105c56141a3565b60038111156105d6576105d66141a3565b815260200190815260200160002054905060005b8281101561066757610653826008600088600381111561060c5761060c6141a3565b600381111561061d5761061d6141a3565b8152602001908152602001600020838154811061063c5761063c6141cf565b90600052602060002090600202016001015461336d565b91508061065f81614152565b9150506105ea565b509392505050565b600d546001600160a01b031633146106a25760405162461bcd60e51b815260040161069990613f6b565b60405180910390fd5b6001600160a01b0383166000908152600560205260405162c73e4d60e01b8152309062c73e4d906106d7908590600401613ef1565b60206040518083038186803b1580156106ef57600080fd5b505afa158015610703573d6000803e3d6000fd5b505050506040513d601f19601f820116820180604052508101906107279190613e73565b905060005b83518110156108815760056000866001600160a01b03166001600160a01b031681526020019081526020016000206040518060c00160405280868481518110610777576107776141cf565b60200260200101518152602001428152602001428152602001848152602001600660008760038111156107ac576107ac6141a3565b60038111156107bd576107bd6141a3565b81526020019081526020016000205481526020018560038111156107e3576107e36141a3565b9052815460018101835560009283526020928390208251805193946006909302909101926108149284920190613a84565b506020820151816001015560408201518160020155606082015181600301556080820151816004015560a08201518160050160006101000a81548160ff02191690836003811115610867576108676141a3565b02179055505050808061087990614152565b91505061072c565b506001600160a01b0384166000908152600560205260409020546108a99060019086906133a1565b8251600e60008282546108bc9190613ffc565b90915550508251600f60008460038111156108d9576108d96141a3565b60038111156108ea576108ea6141a3565b815260200190815260200160002060008282546109079190613ffc565b909155505050505050565b6001600160a01b038216600090815260056020908152604080832080548251818502810185019093528083528493849084015b82821015610a6457838290600052602060002090600602016040518060c001604052908160008201805461097890614117565b80601f01602080910402602001604051908101604052809291908181526020018280546109a490614117565b80156109f15780601f106109c6576101008083540402835291602001916109f1565b820191906000526020600020905b8154815290600101906020018083116109d457829003601f168201915b50505091835250506001820154602082015260028201546040820152600380830154606083015260048301546080830152600583015460a09092019160ff1690811115610a4057610a406141a3565b6003811115610a5157610a516141a3565b8152505081526020019060010190610945565b505082519293505050808410610abc5760405162461bcd60e51b815260206004820152601c60248201527f434f4e543a20436f6e7420696e64657820697320696d70726f706572000000006044820152606401610699565b6000828581518110610ad057610ad06141cf565b602002602001015190506000610aeb8283604001514261344a565b9450505050505b92915050565b600d546001600160a01b0316331480610b1b5750600c546001600160a01b031633145b610b375760405162461bcd60e51b815260040161069990613f6b565b600b55565b600d546001600160a01b0316331480610b5f5750600c546001600160a01b031633145b610b7b5760405162461bcd60e51b815260040161069990613f6b565b6001600160a01b038116610bc05760405162461bcd60e51b815260206004820152600c60248201526b7a65726f206164647265737360a01b6044820152606401610699565b600d80546001600160a01b0319166001600160a01b0392909216919091179055565b600d546001600160a01b0316331480610c055750600c546001600160a01b031633145b610c215760405162461bcd60e51b815260040161069990613f6b565b600a55565b600d546001600160a01b0316331480610c495750600c546001600160a01b031633145b610c655760405162461bcd60e51b815260040161069990613f6b565b8060066000846003811115610c7c57610c7c6141a3565b6003811115610c8d57610c8d6141a3565b81526020810191909152604001600020555050565b6060610cad8261377a565b610cc557505060408051602081019091526000815290565b6001600160a01b038216600090815260056020908152604080832080548251818502810185019093528083529192909190849084015b82821015610e1a57838290600052602060002090600602016040518060c0016040529081600082018054610d2e90614117565b80601f0160208091040260200160405190810160405280929190818152602001828054610d5a90614117565b8015610da75780601f10610d7c57610100808354040283529160200191610da7565b820191906000526020600020905b815481529060010190602001808311610d8a57829003601f168201915b50505091835250506001820154602082015260028201546040820152600380830154606083015260048301546080830152600583015460a09092019160ff1690811115610df657610df66141a3565b6003811115610e0757610e076141a3565b8152505081526020019060010190610cfb565b505050509050600081519050610e2e613b08565b6000610e5784600081518110610e4657610e466141cf565b602002602001015160200151613797565b604080518082019091526001808252602360f81b6020830152919250905b84811015610ede57858181518110610e8f57610e8f6141cf565b602002602001015193508282610ea88660200151613797565b604051602001610eba93929190613eae565b60405160208183030381529060405292508080610ed690614152565b915050610e75565b50909695505050505050565b6060610ef58261377a565b610f0d57505060408051602081019091526000815290565b6001600160a01b038216600090815260056020908152604080832080548251818502810185019093528083529192909190849084015b8282101561106257838290600052602060002090600602016040518060c0016040529081600082018054610f7690614117565b80601f0160208091040260200160405190810160405280929190818152602001828054610fa290614117565b8015610fef5780601f10610fc457610100808354040283529160200191610fef565b820191906000526020600020905b815481529060010190602001808311610fd257829003601f168201915b50505091835250506001820154602082015260028201546040820152600380830154606083015260048301546080830152600583015460a09092019160ff169081111561103e5761103e6141a3565b600381111561104f5761104f6141a3565b8152505081526020019060010190610f43565b50508251929350429150600090506110b76110b2858386611085576110856141cf565b6020026020010151866000815181106110a0576110a06141cf565b6020026020010151604001518561344a565b613797565b604080518082019091526001808252602360f81b6020830152919250905b84811015610ede5782826111236110b28985815181106110f7576110f76141cf565b60200260200101518a8681518110611111576111116141cf565b6020026020010151604001518961344a565b60405160200161113593929190613eae565b6040516020818303038152906040529250808061115190614152565b9150506110d5565b600d546001600160a01b031633148061117c5750600c546001600160a01b031633145b6111985760405162461bcd60e51b815260040161069990613f6b565b600955565b6001600160a01b038116600090815260026020526040812054610af2565b60606111c68261377a565b6111de57505060408051602081019091526000815290565b6001600160a01b038216600090815260056020908152604080832080548251818502810185019093528083529192909190849084015b8282101561133357838290600052602060002090600602016040518060c001604052908160008201805461124790614117565b80601f016020809104026020016040519081016040528092919081815260200182805461127390614117565b80156112c05780601f10611295576101008083540402835291602001916112c0565b820191906000526020600020905b8154815290600101906020018083116112a357829003601f168201915b50505091835250506001820154602082015260028201546040820152600380830154606083015260048301546080830152600583015460a09092019160ff169081111561130f5761130f6141a3565b6003811115611320576113206141a3565b8152505081526020019060010190611214565b505050509050600081519050611347613b08565b60006113708460008151811061135f5761135f6141cf565b602002602001015160400151613797565b604080518082019091526001808252602360f81b6020830152919250905b84811015610ede578581815181106113a8576113a86141cf565b6020026020010151935082826113c18660400151613797565b6040516020016113d393929190613eae565b604051602081830303815290604052925080806113ef90614152565b91505061138e565b60606114028261377a565b61141a57505060408051602081019091526000815290565b6001600160a01b038216600090815260056020908152604080832080548251818502810185019093528083529192909190849084015b8282101561156f57838290600052602060002090600602016040518060c001604052908160008201805461148390614117565b80601f01602080910402602001604051908101604052809291908181526020018280546114af90614117565b80156114fc5780601f106114d1576101008083540402835291602001916114fc565b820191906000526020600020905b8154815290600101906020018083116114df57829003601f168201915b50505091835250506001820154602082015260028201546040820152600380830154606083015260048301546080830152600583015460a09092019160ff169081111561154b5761154b6141a3565b600381111561155c5761155c6141a3565b8152505081526020019060010190611450565b505050509050600081519050611583613b08565b60006115ac8460008151811061159b5761159b6141cf565b602002602001015160600151613797565b604080518082019091526001808252602360f81b6020830152919250905b84811015610ede578581815181106115e4576115e46141cf565b6020026020010151935082826115fd8660600151613797565b60405160200161160f93929190613eae565b6040516020818303038152906040529250808061162b90614152565b9150506115ca565b600061163e8261377a565b61164a57506000919050565b6001600160a01b038216600090815260056020908152604080832080548251818502810185019093528083528493849084015b8282101561179c57838290600052602060002090600602016040518060c00160405290816000820180546116b090614117565b80601f01602080910402602001604051908101604052809291908181526020018280546116dc90614117565b80156117295780601f106116fe57610100808354040283529160200191611729565b820191906000526020600020905b81548152906001019060200180831161170c57829003601f168201915b50505091835250506001820154602082015260028201546040820152600380830154606083015260048301546080830152600583015460a09092019160ff1690811115611778576117786141a3565b6003811115611789576117896141a3565b815250508152602001906001019061167d565b5050825192935060009150505b818110156117fe5760008382815181106117c5576117c56141cf565b602002602001015190506117de8182604001514261344a565b6117e89086613ffc565b94505080806117f690614152565b9150506117a9565b5091949350505050565b6000610af28261377a565b600054610100900460ff1661182e5760005460ff1615611832565b303b155b6118955760405162461bcd60e51b815260206004820152602e60248201527f496e697469616c697a61626c653a20636f6e747261637420697320616c72656160448201526d191e481a5b9a5d1a585b1a5e995960921b6064820152608401610699565b600054610100900460ff161580156118b7576000805461ffff19166101011790555b6301e13380600a556000600e81905542905b6003811015611ab5578681815181106118e4576118e46141cf565b602002602001015160066000836003811115611902576119026141a3565b6003811115611913576119136141a3565b6003811115611924576119246141a3565b815260200190815260200160002081905550858181518110611948576119486141cf565b602002602001015160076000836003811115611966576119666141a3565b6003811115611977576119776141a3565b6003811115611988576119886141a3565b8152602001908152602001600020819055506000600f60008360038111156119b2576119b26141a3565b60038111156119c3576119c36141a3565b60038111156119d4576119d46141a3565b815260200190815260200160002081905550600860008260038111156119fc576119fc6141a3565b6003811115611a0d57611a0d6141a3565b6003811115611a1e57611a1e6141a3565b81526020015260086000826003811115611a3a57611a3a6141a3565b6003811115611a4b57611a4b6141a3565b6003811115611a5c57611a5c6141a3565b815260208082019290925260409081016000908120825180840190935285835282840182815281546001818101845592845294909220925160029094029092019283555191015580611aad81614152565b9150506118c9565b50506009839055600c80546001600160a01b03191633179055600b8290558015611ae5576000805461ff00191690555b5050505050565b600d546001600160a01b0316331480611b0f5750600c546001600160a01b031633145b611b2b5760405162461bcd60e51b815260040161069990613f6b565b6001600160a01b038116611b705760405162461bcd60e51b815260206004820152600c60248201526b7a65726f206164647265737360a01b6044820152606401610699565b600c80546001600160a01b0319166001600160a01b0392909216919091179055565b6060611b9d8261377a565b611bb557505060408051602081019091526000815290565b6001600160a01b038216600090815260056020908152604080832080548251818502810185019093528083529192909190849084015b82821015611d0a57838290600052602060002090600602016040518060c0016040529081600082018054611c1e90614117565b80601f0160208091040260200160405190810160405280929190818152602001828054611c4a90614117565b8015611c975780601f10611c6c57610100808354040283529160200191611c97565b820191906000526020600020905b815481529060010190602001808311611c7a57829003601f168201915b50505091835250506001820154602082015260028201546040820152600380830154606083015260048301546080830152600583015460a09092019160ff1690811115611ce657611ce66141a3565b6003811115611cf757611cf76141a3565b8152505081526020019060010190611beb565b505050509050600081519050611d1e613b08565b6000611d466110b285600081518110611d3957611d396141cf565b60200260200101516138c0565b604080518082019091526001808252602360f81b6020830152919250905b84811015610ede57858181518110611d7e57611d7e6141cf565b602002602001015193508282611d966110b2876138c0565b604051602001611da893929190613eae565b60405160208183030381529060405292508080611dc490614152565b915050611d64565b600d546001600160a01b0316331480611def5750600c546001600160a01b031633145b611e0b5760405162461bcd60e51b815260040161069990613f6b565b600060086000836003811115611e2357611e236141a3565b6003811115611e3457611e346141a3565b8152602081019190915260400160002054905060018111611ea75760405162461bcd60e51b815260206004820152602760248201527f554e444f204348414e47453a204e6f206368616e67657320666f756e6420666f6044820152667220635479706560c81b6064820152608401610699565b60086000836003811115611ebd57611ebd6141a3565b6003811115611ece57611ece6141a3565b8152602001908152602001600020805480611eeb57611eeb6141b9565b6000828152602081206002600019909301928302018181556001015590555050565b6060611f188261377a565b611f3057505060408051602081019091526000815290565b6001600160a01b038216600090815260056020908152604080832080548251818502810185019093528083529192909190849084015b8282101561208557838290600052602060002090600602016040518060c0016040529081600082018054611f9990614117565b80601f0160208091040260200160405190810160405280929190818152602001828054611fc590614117565b80156120125780601f10611fe757610100808354040283529160200191612012565b820191906000526020600020905b815481529060010190602001808311611ff557829003601f168201915b50505091835250506001820154602082015260028201546040820152600380830154606083015260048301546080830152600583015460a09092019160ff1690811115612061576120616141a3565b6003811115612072576120726141a3565b8152505081526020019060010190611f66565b505050509050600081519050612099613b08565b60006120ce846000815181106120b1576120b16141cf565b602002602001015160a0015160038111156110b2576110b26141a3565b604080518082019091526001808252602360f81b6020830152919250905b84811015610ede57858181518110612106576121066141cf565b60200260200101519350828261212b8660a0015160038111156110b2576110b26141a3565b60405160200161213d93929190613eae565b6040516020818303038152906040529250808061215990614152565b9150506120ec565b6001600160a01b038216600090815260056020908152604080832080548251818502810185019093528083528493849084015b828210156122b357838290600052602060002090600602016040518060c00160405290816000820180546121c790614117565b80601f01602080910402602001604051908101604052809291908181526020018280546121f390614117565b80156122405780601f1061221557610100808354040283529160200191612240565b820191906000526020600020905b81548152906001019060200180831161222357829003601f168201915b50505091835250506001820154602082015260028201546040820152600380830154606083015260048301546080830152600583015460a09092019160ff169081111561228f5761228f6141a3565b60038111156122a0576122a06141a3565b8152505081526020019060010190612194565b50508251929350505080841061230b5760405162461bcd60e51b815260206004820152601c60248201527f434f4e543a20436f6e7420696e64657820697320696d70726f706572000000006044820152606401610699565b600082858151811061231f5761231f6141cf565b6020026020010151905061233c818260200151836040015161344a565b9695505050505050565b600d546001600160a01b03163314806123695750600c546001600160a01b031633145b6123855760405162461bcd60e51b815260040161069990613f6b565b6305f5e10081126123e95760405162461bcd60e51b815260206004820152602860248201527f5245445543455f5257443a20646f206e6f7420726564756365206d6f7265207460448201526768616e203130302560c01b6064820152608401610699565b600860008360038111156123ff576123ff6141a3565b6003811115612410576124106141a3565b81526020808201929092526040908101600090812082518084019093524283528284019485528054600181810183559183529390912091516002909302909101918255915191015550565b600d546001600160a01b031633148061247e5750600c546001600160a01b031633145b61249a5760405162461bcd60e51b815260040161069990613f6b565b80600760008460038111156124b1576124b16141a3565b60038111156124c2576124c26141a3565b8152602001908152602001600020819055506000600860008460038111156124ec576124ec6141a3565b60038111156124fd576124fd6141a3565b815260200190815260200160002060008154811061251d5761251d6141cf565b906000526020600020906002020160000154905060086000846003811115612547576125476141a3565b6003811115612558576125586141a3565b815260200190815260200160002060006125729190613b4e565b60086000846003811115612588576125886141a3565b6003811115612599576125996141a3565b81526020808201929092526040908101600090812082518084019093529382528183018181528454600181810187559583529390912091516002909302909101918255519101555050565b60006125ef8261377a565b6125fb57506000919050565b6001600160a01b038216600090815260056020908152604080832080548251818502810185019093528083529192909190849084015b8282101561275057838290600052602060002090600602016040518060c001604052908160008201805461266490614117565b80601f016020809104026020016040519081016040528092919081815260200182805461269090614117565b80156126dd5780601f106126b2576101008083540402835291602001916126dd565b820191906000526020600020905b8154815290600101906020018083116126c057829003601f168201915b50505091835250506001820154602082015260028201546040820152600380830154606083015260048301546080830152600583015460a09092019160ff169081111561272c5761272c6141a3565b600381111561273d5761273d6141a3565b8152505081526020019060010190612631565b5050825160009550929350849150505b818110156127b957600083828151811061277c5761277c6141cf565b60200260200101519050612799818260200151836040015161344a565b6127a39086613ffc565b94505080806127b190614152565b915050612760565b505050919050565b600d5460009081906001600160a01b031633146127f05760405162461bcd60e51b815260040161069990613f6b565b6001600160a01b03841660009081526005602052604090208054841061284c5760405162461bcd60e51b815260206004820152601160248201527021a7a72a1d1024b73232bc1022b93937b960791b6044820152606401610699565b6000818581548110612860576128606141cf565b9060005260206000209060060201905061287d81600201546138cc565b6128ef5760405162461bcd60e51b815260206004820152603a60248201527f434153484f5554204552524f523a20596f75206861766520746f20776169742060448201527f6265666f726520636c61696d696e67207468697320636f6e742e0000000000006064820152608401610699565b600042905060006129fc836040518060c001604052908160008201805461291590614117565b80601f016020809104026020016040519081016040528092919081815260200182805461294190614117565b801561298e5780601f106129635761010080835404028352916020019161298e565b820191906000526020600020905b81548152906001019060200180831161297157829003601f168201915b50505091835250506001820154602082015260028201546040820152600380830154606083015260048301546080830152600583015460a09092019160ff16908111156129dd576129dd6141a3565b60038111156129ee576129ee6141a3565b90525060028501548461344a565b600284018390556001600160a01b03891660009081526010602090815260408083208b845290915290205490915060ff16612bb657612b37836040518060c0016040529081600082018054612a5090614117565b80601f0160208091040260200160405190810160405280929190818152602001828054612a7c90614117565b8015612ac95780601f10612a9e57610100808354040283529160200191612ac9565b820191906000526020600020905b815481529060010190602001808311612aac57829003601f168201915b50505091835250506001820154602082015260028201546040820152600380830154606083015260048301546080830152600583015460a09092019160ff1690811115612b1857612b186141a3565b6003811115612b2957612b296141a3565b90525060018501544261344a565b836004015411612bb6576001600160a01b03881660009081526010602090815260408083208a845290915290819020805460ff19166001908117909155600585015491517f973cb5e7d2831babd05fc3de4db9926ae3b4301b00c92c3542e0771ea471b0fd92612bad9260ff9190911691613eff565b60405180910390a15b6005909201549194505060ff169150509250929050565b6000600f6000836003811115612be557612be56141a3565b6003811115612bf657612bf66141a3565b8152602001908152602001600020549050919050565b600d546000908190819081906001600160a01b03163314612c3f5760405162461bcd60e51b815260040161069990613f6b565b6001600160a01b0385166000908152600560205260409020805480612cbe5760405162461bcd60e51b815260206004820152602f60248201527f434153484f5554204552524f523a20596f7520646f6e2774206861766520636f60448201526e1b9d1cc81d1bc818d85cda0b5bdd5d608a1b6064820152608401610699565b604080516060808201835260008083526020808401829052838501829052845192830185528183528201819052928101839052829190825b8581101561306857868181548110612d1057612d106141cf565b906000526020600020906006020194506000612e28866040518060c0016040529081600082018054612d4190614117565b80601f0160208091040260200160405190810160405280929190818152602001828054612d6d90614117565b8015612dba5780601f10612d8f57610100808354040283529160200191612dba565b820191906000526020600020905b815481529060010190602001808311612d9d57829003601f168201915b50505091835250506001820154602082015260028201546040820152600380830154606083015260048301546080830152600583015460a09092019160ff1690811115612e0957612e096141a3565b6003811115612e1a57612e1a6141a3565b90525060028801544261344a565b9050612e348186613ffc565b60058701549095508190859060ff166003811115612e5457612e546141a3565b60ff1660038110612e6757612e676141cf565b60200201818151612e789190613ffc565b9052504260028701556001600160a01b038d16600090815260106020908152604080832085845290915290205460ff16158015612fbe5750612fb6866040518060c0016040529081600082018054612ecf90614117565b80601f0160208091040260200160405190810160405280929190818152602001828054612efb90614117565b8015612f485780601f10612f1d57610100808354040283529160200191612f48565b820191906000526020600020905b815481529060010190602001808311612f2b57829003601f168201915b50505091835250506001820154602082015260028201546040820152600380830154606083015260048301546080830152600583015460a09092019160ff1690811115612f9757612f976141a3565b6003811115612fa857612fa86141a3565b90525060018801544261344a565b866004015411155b15613055576001600160a01b038d1660009081526010602090815260408083208584529091528120805460ff19166001179055600587015460ff16600381111561300a5761300a6141a3565b9050838160ff1660038110613021576130216141cf565b6020020151613031906001614014565b848260ff1660038110613046576130466141cf565b60ff9092166020929092020152505b508061306081614152565b915050612cf6565b5060005b60038160ff161015613116576000828260ff166003811061308f5761308f6141cf565b602002015160ff161115613104577f973cb5e7d2831babd05fc3de4db9926ae3b4301b00c92c3542e0771ea471b0fd8160ff1660038111156130d3576130d36141a3565b838360ff16600381106130e8576130e86141cf565b60200201516040516130fb929190613f1a565b60405180910390a15b8061310e8161416d565b91505061306c565b505080516020820151604090920151929b909a50909850909650945050505050565b60606131438261377a565b61315b57505060408051602081019091526000815290565b6001600160a01b038216600090815260056020908152604080832080548251818502810185019093528083529192909190849084015b828210156132b057838290600052602060002090600602016040518060c00160405290816000820180546131c490614117565b80601f01602080910402602001604051908101604052809291908181526020018280546131f090614117565b801561323d5780601f106132125761010080835404028352916020019161323d565b820191906000526020600020905b81548152906001019060200180831161322057829003601f168201915b50505091835250506001820154602082015260028201546040820152600380830154606083015260048301546080830152600583015460a09092019160ff169081111561328c5761328c6141a3565b600381111561329d5761329d6141a3565b8152505081526020019060010190613191565b5050505090506000815190506132c4613b08565b6000836000815181106132d9576132d96141cf565b60200260200101516000015190506000604051806040016040528060018152602001602360f81b81525090506000600190505b84811015610ede57858181518110613326576133266141cf565b602002602001015193508282856000015160405160200161334993929190613eae565b6040516020818303038152906040529250808061336590614152565b91505061330c565b60008061337e836305f5e10061407a565b90506305f5e10061338f828661405b565b6133999190614039565b949350505050565b6001600160a01b038216600090815260038401602052604090205460ff16156133e6576001600160a01b03821660009081526001840160205260409020819055505050565b6001600160a01b03821660008181526003850160209081526040808320805460ff19166001908117909155878101835281842086905587546002890184529184208290558101875586835291200180546001600160a01b0319169091179055505050565b6000818311156134935760405162461bcd60e51b815260206004820152601460248201527377726f6e6720747374616d707320706172616d7360601b6044820152606401610699565b83602001518310156134da5760405162461bcd60e51b815260206004820152601060248201526f1b19599d081d1cdd185b5c1cc818985960821b6044820152606401610699565b60a084015160006134eb82866138e5565b608087015190915060006134ff88886139c0565b6020890151909150879060009081908190819081895b600860008d600381111561352b5761352b6141a3565b600381111561353c5761353c6141a3565b81526020810191909152604001600020548110156136a157600860008d600381111561356a5761356a6141a3565b600381111561357b5761357b6141a3565b8152602001908152602001600020818154811061359a5761359a6141cf565b90600052602060002090600202016000015496506135b88884613a6a565b6135c28885613a6a565b14801592506135fa576135d58884613a6a565b6135e0906001613ffc565b600a546135ed919061405b565b6135f79084613ffc565b96505b61360488886140b9565b94506301e13380856305f5e10061361b8c8e61405b565b6136259190614039565b61362f919061405b565b6136399190614039565b9350869750838661364a9190613ffc565b955081156136725761365e89600b5461336d565b98508061366a81614100565b91505061368f565b61368c89600860008f600381111561060c5761060c6141a3565b98505b8061369981614152565b915050613515565b505b8c8714613765578c95506136b78783613a6a565b6136c18784613a6a565b14801591506136f9576136d48783613a6a565b6136df906001613ffc565b600a546136ec919061405b565b6136f69083613ffc565b95505b61370387876140b9565b93506301e13380846305f5e10061371a8b8d61405b565b6137249190614039565b61372e919061405b565b6137389190614039565b925085965082856137499190613ffc565b945080156137605761375d88600b5461336d565b97505b6136a3565b509299505050505050505050505b9392505050565b6001600160a01b0316600090815260026020526040902054151590565b6060816137bb5750506040805180820190915260018152600360fc1b602082015290565b8160005b81156137e557806137cf81614152565b91506137de9050600a83614039565b91506137bf565b60008167ffffffffffffffff811115613800576138006141e5565b6040519080825280601f01601f19166020018201604052801561382a576020820181803683370190505b509050815b85156138b7576138406001826140b9565b9050600061384f600a88614039565b61385a90600a61405b565b61386490886140b9565b61386f906030614014565b905060008160f81b90508084848151811061388c5761388c6141cf565b60200101906001600160f81b031916908160001a9053506138ae600a89614039565b9750505061382f565b50949350505050565b6000610af282426139c0565b600042600954836138dd9190613ffc565b111592915050565b600080806008818660038111156138fe576138fe6141a3565b600381111561390f5761390f6141a3565b815260208101919091526040016000205490505b8181111561066757600060026139398385613ffc565b6139439190614039565b9050846008600088600381111561395c5761395c6141a3565b600381111561396d5761396d6141a3565b8152602001908152602001600020828154811061398c5761398c6141cf565b90600052602060002090600202016000015410156139b6576139af816001613ffc565b92506139ba565b8091505b50613923565b602082015160a083015160608401516000929190836139df83856138e5565b905060006139ed84886138e5565b9050815b81811015613a2757613a13846008600088600381111561060c5761060c6141a3565b935080613a1f81614152565b9150506139f1565b506000613a348887613a6a565b90505b8015613a5d5780613a4781614100565b915050613a5684600b5461336d565b9350613a37565b5091979650505050505050565b600a54600090613a7a83856140b9565b6137739190614039565b828054613a9090614117565b90600052602060002090601f016020900481019282613ab25760008555613af8565b82601f10613acb57805160ff1916838001178555613af8565b82800160010185558215613af8579182015b82811115613af8578251825591602001919060010190613add565b50613b04929150613b72565b5090565b6040518060c00160405280606081526020016000815260200160008152602001600081526020016000815260200160006003811115613b4957613b496141a3565b905290565b5080546000825560020290600052602060002090810190613b6f9190613b87565b50565b5b80821115613b045760008155600101613b73565b5b80821115613b045760008082556001820155600201613b88565b80356001600160a01b0381168114613bb957600080fd5b919050565b600082601f830112613bcf57600080fd5b81356020613be4613bdf83613fd8565b613fa7565b80838252828201915082860187848660051b8901011115613c0457600080fd5b60005b85811015613c2357813584529284019290840190600101613c07565b5090979650505050505050565b803560048110613bb957600080fd5b600060208284031215613c5157600080fd5b61377382613ba2565b600080600060608486031215613c6f57600080fd5b613c7884613ba2565b925060208085013567ffffffffffffffff80821115613c9657600080fd5b818701915087601f830112613caa57600080fd5b8135613cb8613bdf82613fd8565b8082825285820191508585018b878560051b8801011115613cd857600080fd5b60005b84811015613d6557813586811115613cf257600080fd5b8701603f81018e13613d0357600080fd5b8881013587811115613d1757613d176141e5565b613d29601f8201601f19168b01613fa7565b8181528f6040838501011115613d3e57600080fd5b81604084018c83013760009181018b01919091528552509287019290870190600101613cdb565b5050809750505050505050613d7c60408501613c30565b90509250925092565b60008060408385031215613d9857600080fd5b613da183613ba2565b946020939093013593505050565b60008060008060808587031215613dc557600080fd5b843567ffffffffffffffff80821115613ddd57600080fd5b613de988838901613bbe565b95506020870135915080821115613dff57600080fd5b50613e0c87828801613bbe565b949794965050505060408301359260600135919050565b600060208284031215613e3557600080fd5b61377382613c30565b60008060408385031215613e5157600080fd5b613da183613c30565b600060208284031215613e6c57600080fd5b5035919050565b600060208284031215613e8557600080fd5b5051919050565b60048110613eaa57634e487b7160e01b600052602160045260246000fd5b9052565b60008451613ec08184602089016140d0565b845190830190613ed48183602089016140d0565b8451910190613ee78183602088016140d0565b0195945050505050565b60208101610af28284613e8c565b60408101613f0d8285613e8c565b8260208301529392505050565b60408101613f288285613e8c565b60ff831660208301529392505050565b6020815260008251806020840152613f578160408501602087016140d0565b601f01601f19169190910160400192915050565b6020808252600e908201526d4163636573732044656e6965642160901b604082015260600190565b828152604081016137736020830184613e8c565b604051601f8201601f1916810167ffffffffffffffff81118282101715613fd057613fd06141e5565b604052919050565b600067ffffffffffffffff821115613ff257613ff26141e5565b5060051b60200190565b6000821982111561400f5761400f61418d565b500190565b600060ff821660ff84168060ff038211156140315761403161418d565b019392505050565b60008261405657634e487b7160e01b600052601260045260246000fd5b500490565b60008160001904831182151516156140755761407561418d565b500290565b60008083128015600160ff1b8501841216156140985761409861418d565b6001600160ff1b03840183138116156140b3576140b361418d565b50500390565b6000828210156140cb576140cb61418d565b500390565b60005b838110156140eb5781810151838201526020016140d3565b838111156140fa576000848401525b50505050565b60008161410f5761410f61418d565b506000190190565b600181811c9082168061412b57607f821691505b6020821081141561414c57634e487b7160e01b600052602260045260246000fd5b50919050565b60006000198214156141665761416661418d565b5060010190565b600060ff821660ff8114156141845761418461418d565b60010192915050565b634e487b7160e01b600052601160045260246000fd5b634e487b7160e01b600052602160045260246000fd5b634e487b7160e01b600052603160045260246000fd5b634e487b7160e01b600052603260045260246000fd5b634e487b7160e01b600052604160045260246000fdfea164736f6c6343000807000a",
  "devdoc": {
    "kind": "dev",
    "methods": {
      "_cashoutAllContsReward(address)": {
        "params": {
          "account": "account of owner"
        },
        "returns": {
          "_0": "rewardsTotal total amount of rewards claimed"
        }
      },
      "_cashoutContReward(address,uint256)": {
        "params": {
          "_contIndex": "contract index",
          "account": "account of owner"
        },
        "returns": {
          "_0": "rewardsTotal total amount of rewards claimed"
        }
      },
      "_changeAutoReduceAPRInterval(uint256)": {
        "params": {
          "newInterval": "new interval"
        }
      },
      "_changeAutoReduceAPRRate(uint256)": {
        "params": {
          "newRate": "new reduction rate (100% == 100_000_000)"
        }
      },
      "_changeCashoutTimeout(uint256)": {
        "params": {
          "newTime": "new length of interval"
        }
      },
      "_changeContPrice(uint8,uint256)": {
        "params": {
          "_cType": "contract type to change price",
          "newPrice": "new price per contract (0xB)"
        }
      },
      "_changeRewardAPRPerCont(uint8,int256)": {
        "details": "the model of calculating reward requires heavily on reduction percentage. Use reduction percent as the input. Negative percentages are allowed (if want to increase APR). 100_000_000 = 100%.",
        "params": {
          "_cType": "contract type to change APR",
          "reducedPercentage": "reduction percentage"
        }
      },
      "_getClaimedAmountOf(address)": {
        "details": "iterate through every contract. Use `contRewardInInterval` to calculate reward in an interval from contract creation time to latest claim.",
        "params": {
          "account": "address to query"
        },
        "returns": {
          "rewardAmount": "total amount of reward available for account, tax included"
        }
      },
      "_getClaimedAmountOfIndex(address,uint256)": {
        "details": "use `contRewardInInterval` to calculate claimed in an interval from contract creationTime to latest claim.",
        "params": {
          "_contIndex": "index of contract in user's list",
          "account": "address to query"
        },
        "returns": {
          "rewardCont": "amount of reward available for selected contract"
        }
      },
      "_getContNumberOf(address)": {
        "params": {
          "account": "address to query"
        },
        "returns": {
          "_0": "count number of contracts owned by this account"
        }
      },
      "_getContsCreationTime(address)": {
        "details": "concatenate creation time into one string, separated by a separator ('#')",
        "params": {
          "account": "address to query"
        },
        "returns": {
          "_0": "result a string of concatenated result"
        }
      },
      "_getContsCurrentAPR(address)": {
        "details": "concate current aprs into one string, separated by a separator ('#')",
        "params": {
          "account": "address to query"
        },
        "returns": {
          "_0": "result a string of concatenated result"
        }
      },
      "_getContsInitialAPR(address)": {
        "details": "concate initial aprs into one string, separated by a separator ('#')",
        "params": {
          "account": "address to query"
        },
        "returns": {
          "_0": "result a string of concatenated result"
        }
      },
      "_getContsLastUpdateTime(address)": {
        "details": "concate last update times into one string, separated by a separator ('#')",
        "params": {
          "account": "address to query"
        },
        "returns": {
          "_0": "result a string of concatenated result"
        }
      },
      "_getContsNames(address)": {
        "details": "concatenate names into one string, separated by a separator ('#')",
        "params": {
          "account": "address to query"
        },
        "returns": {
          "_0": "result a string of concatenated result"
        }
      },
      "_getContsRewardAvailable(address)": {
        "details": "concate available rewards into one string, separated by a separator ('#')",
        "params": {
          "account": "address to query"
        },
        "returns": {
          "_0": "result a string of concatenated result"
        }
      },
      "_getContsTypes(address)": {
        "details": "concate ctypes into one string, separated by a separator ('#')",
        "params": {
          "account": "address to query"
        },
        "returns": {
          "_0": "result a string of concatenated result"
        }
      },
      "_getRewardAmountOf(address)": {
        "details": "iterate through every contract. Use `contRewardInInterval` to calculate reward in an interval from user last claims to now.",
        "params": {
          "account": "address to query"
        },
        "returns": {
          "_0": "rewardAmount total amount of reward available for account, tax included"
        }
      },
      "_getRewardAmountOfIndex(address,uint256)": {
        "details": "use `contRewardInInterval` to calculate reward in an interval from user last claims to now.",
        "params": {
          "_contIndex": "index of contract in user's list",
          "account": "address to query"
        },
        "returns": {
          "_0": "rewardCont amount of reward available for selected contract"
        }
      },
      "_isContOwner(address)": {
        "params": {
          "account": "address to query"
        },
        "returns": {
          "_0": "res true if account is the contract number"
        }
      },
      "_resetAllAPRChange(uint8,uint256)": {
        "params": {
          "_cType": "type of contract to pop last change"
        }
      },
      "_undoRewardAPRChange(uint8)": {
        "params": {
          "_cType": "type of contract to pop last change"
        }
      },
      "createConts(address,string[],uint8)": {
        "params": {
          "_cType": "type of contract",
          "account": "account of owner",
          "contNames": "list of names of contract"
        }
      },
      "currentRewardAPRPerNewCont(uint8)": {
        "details": "iterate through a list of APR changes in history",
        "params": {
          "_cType": "contract type to query"
        },
        "returns": {
          "_0": "result apr of contract type _cType"
        }
      },
      "setAdmin(address)": {
        "params": {
          "newAdmin": "address of newAdmin"
        }
      },
      "setToken(address)": {
        "params": {
          "token_": "new address of 0xB"
        }
      },
      "totalContsPerContType(uint8)": {
        "params": {
          "_cType": "contract type to query"
        },
        "returns": {
          "_0": "res return number of contract for each contract type"
        }
      }
    },
    "version": 1
  },
  "userdoc": {
    "kind": "user",
    "methods": {
      "_cashoutAllContsReward(address)": {
        "notice": "reduce all conts reward to 0 and return amount of rewards claimed so token contract can send tokens"
      },
      "_cashoutContReward(address,uint256)": {
        "notice": "reduce chosen cont reward to 0 and return amount of rewards claimed so token contract can send tokens"
      },
      "_changeAutoReduceAPRInterval(uint256)": {
        "notice": "change auto APR reduce interval per contract"
      },
      "_changeAutoReduceAPRRate(uint256)": {
        "notice": "change auto APR reduce rate per contract"
      },
      "_changeCashoutTimeout(uint256)": {
        "notice": "change cashout timeout. User cannot claim 2 times in one interval of newTime."
      },
      "_changeContPrice(uint8,uint256)": {
        "notice": "change contract price of one type"
      },
      "_changeRewardAPRPerCont(uint8,int256)": {
        "notice": "change reward apr of one contract type"
      },
      "_getClaimedAmountOf(address)": {
        "notice": "query claimed amount of an address in every contract"
      },
      "_getClaimedAmountOfIndex(address,uint256)": {
        "notice": "query claimed amount of one contract"
      },
      "_getContNumberOf(address)": {
        "notice": "get number of contract from one owner"
      },
      "_getContsCreationTime(address)": {
        "notice": "get the list of contracts creation time from one owner"
      },
      "_getContsCurrentAPR(address)": {
        "notice": "get the list of contracts current aprs from one owner"
      },
      "_getContsInitialAPR(address)": {
        "notice": "get the list of contracts initial aprs from one owner"
      },
      "_getContsLastUpdateTime(address)": {
        "notice": "get the list of contracts last update times from one owner"
      },
      "_getContsNames(address)": {
        "notice": "get the list of contracts name from one owner"
      },
      "_getContsRewardAvailable(address)": {
        "notice": "get the list of contracts available rewards from one owner"
      },
      "_getContsTypes(address)": {
        "notice": "get the list of contracts ctypes from one owner"
      },
      "_getRewardAmountOf(address)": {
        "notice": "query total reward amount of an address in every contract"
      },
      "_getRewardAmountOfIndex(address,uint256)": {
        "notice": "query reward amount of one contract"
      },
      "_isContOwner(address)": {
        "notice": "query if an account is an owner of any contract"
      },
      "_resetAllAPRChange(uint8,uint256)": {
        "notice": "only used when admin makes mistake about APR change: reset every APR changes/"
      },
      "_undoRewardAPRChange(uint8)": {
        "notice": "only used when admin makes mistake about APR change: undo last APR change of one type"
      },
      "createConts(address,string[],uint8)": {
        "notice": "create new contract storages for account"
      },
      "currentRewardAPRPerNewCont(uint8)": {
        "notice": "calculate initial APR for new contract to display on dApp"
      },
      "setAdmin(address)": {
        "notice": "change admin of contract"
      },
      "setToken(address)": {
        "notice": "set 0xB token Address"
      },
      "totalContsPerContType(uint8)": {
        "notice": "return number of contract of contract type _cType"
      }
    },
    "version": 1
  },
  "storageLayout": {
    "storage": [
      {
        "astId": 598,
        "contract": "contracts/dependencies/CONTRewardManagement.sol:CONTRewardManagement",
        "label": "_initialized",
        "offset": 0,
        "slot": "0",
        "type": "t_bool"
      },
      {
        "astId": 601,
        "contract": "contracts/dependencies/CONTRewardManagement.sol:CONTRewardManagement",
        "label": "_initializing",
        "offset": 1,
        "slot": "0",
        "type": "t_bool"
      },
      {
        "astId": 5207,
        "contract": "contracts/dependencies/CONTRewardManagement.sol:CONTRewardManagement",
        "label": "contOwners",
        "offset": 0,
        "slot": "1",
        "type": "t_struct(Map)13632_storage"
      },
      {
        "astId": 5213,
        "contract": "contracts/dependencies/CONTRewardManagement.sol:CONTRewardManagement",
        "label": "_contsOfUser",
        "offset": 0,
        "slot": "5",
        "type": "t_mapping(t_address,t_array(t_struct(ContEntity)5199_storage)dyn_storage)"
      },
      {
        "astId": 5218,
        "contract": "contracts/dependencies/CONTRewardManagement.sol:CONTRewardManagement",
        "label": "contPrice",
        "offset": 0,
        "slot": "6",
        "type": "t_mapping(t_enum(ContType)5173,t_uint256)"
      },
      {
        "astId": 5223,
        "contract": "contracts/dependencies/CONTRewardManagement.sol:CONTRewardManagement",
        "label": "initRewardAPRPerCont",
        "offset": 0,
        "slot": "7",
        "type": "t_mapping(t_enum(ContType)5173,t_uint256)"
      },
      {
        "astId": 5230,
        "contract": "contracts/dependencies/CONTRewardManagement.sol:CONTRewardManagement",
        "label": "aprChangesHistory",
        "offset": 0,
        "slot": "8",
        "type": "t_mapping(t_enum(ContType)5173,t_array(t_struct(APRChangesEntry)5204_storage)dyn_storage)"
      },
      {
        "astId": 5232,
        "contract": "contracts/dependencies/CONTRewardManagement.sol:CONTRewardManagement",
        "label": "cashoutTimeout",
        "offset": 0,
        "slot": "9",
        "type": "t_uint256"
      },
      {
        "astId": 5234,
        "contract": "contracts/dependencies/CONTRewardManagement.sol:CONTRewardManagement",
        "label": "autoReduceAPRInterval",
        "offset": 0,
        "slot": "10",
        "type": "t_uint256"
      },
      {
        "astId": 5236,
        "contract": "contracts/dependencies/CONTRewardManagement.sol:CONTRewardManagement",
        "label": "autoReduceAPRRate",
        "offset": 0,
        "slot": "11",
        "type": "t_uint256"
      },
      {
        "astId": 5238,
        "contract": "contracts/dependencies/CONTRewardManagement.sol:CONTRewardManagement",
        "label": "admin0XB",
        "offset": 0,
        "slot": "12",
        "type": "t_address"
      },
      {
        "astId": 5240,
        "contract": "contracts/dependencies/CONTRewardManagement.sol:CONTRewardManagement",
        "label": "token",
        "offset": 0,
        "slot": "13",
        "type": "t_address"
      },
      {
        "astId": 5242,
        "contract": "contracts/dependencies/CONTRewardManagement.sol:CONTRewardManagement",
        "label": "totalContsCreated",
        "offset": 0,
        "slot": "14",
        "type": "t_uint256"
      },
      {
        "astId": 5247,
        "contract": "contracts/dependencies/CONTRewardManagement.sol:CONTRewardManagement",
        "label": "_totalContsPerType",
        "offset": 0,
        "slot": "15",
        "type": "t_mapping(t_enum(ContType)5173,t_uint256)"
      },
      {
        "astId": 5253,
        "contract": "contracts/dependencies/CONTRewardManagement.sol:CONTRewardManagement",
        "label": "_brokeevenContract",
        "offset": 0,
        "slot": "16",
        "type": "t_mapping(t_address,t_mapping(t_uint256,t_bool))"
      }
    ],
    "types": {
      "t_address": {
        "encoding": "inplace",
        "label": "address",
        "numberOfBytes": "20"
      },
      "t_array(t_address)dyn_storage": {
        "base": "t_address",
        "encoding": "dynamic_array",
        "label": "address[]",
        "numberOfBytes": "32"
      },
      "t_array(t_struct(APRChangesEntry)5204_storage)dyn_storage": {
        "base": "t_struct(APRChangesEntry)5204_storage",
        "encoding": "dynamic_array",
        "label": "struct CONTRewardManagement.APRChangesEntry[]",
        "numberOfBytes": "32"
      },
      "t_array(t_struct(ContEntity)5199_storage)dyn_storage": {
        "base": "t_struct(ContEntity)5199_storage",
        "encoding": "dynamic_array",
        "label": "struct CONTRewardManagement.ContEntity[]",
        "numberOfBytes": "32"
      },
      "t_bool": {
        "encoding": "inplace",
        "label": "bool",
        "numberOfBytes": "1"
      },
      "t_enum(ContType)5173": {
        "encoding": "inplace",
        "label": "enum ContType",
        "numberOfBytes": "1"
      },
      "t_int256": {
        "encoding": "inplace",
        "label": "int256",
        "numberOfBytes": "32"
      },
      "t_mapping(t_address,t_array(t_struct(ContEntity)5199_storage)dyn_storage)": {
        "encoding": "mapping",
        "key": "t_address",
        "label": "mapping(address => struct CONTRewardManagement.ContEntity[])",
        "numberOfBytes": "32",
        "value": "t_array(t_struct(ContEntity)5199_storage)dyn_storage"
      },
      "t_mapping(t_address,t_bool)": {
        "encoding": "mapping",
        "key": "t_address",
        "label": "mapping(address => bool)",
        "numberOfBytes": "32",
        "value": "t_bool"
      },
      "t_mapping(t_address,t_mapping(t_uint256,t_bool))": {
        "encoding": "mapping",
        "key": "t_address",
        "label": "mapping(address => mapping(uint256 => bool))",
        "numberOfBytes": "32",
        "value": "t_mapping(t_uint256,t_bool)"
      },
      "t_mapping(t_address,t_uint256)": {
        "encoding": "mapping",
        "key": "t_address",
        "label": "mapping(address => uint256)",
        "numberOfBytes": "32",
        "value": "t_uint256"
      },
      "t_mapping(t_enum(ContType)5173,t_array(t_struct(APRChangesEntry)5204_storage)dyn_storage)": {
        "encoding": "mapping",
        "key": "t_enum(ContType)5173",
        "label": "mapping(enum ContType => struct CONTRewardManagement.APRChangesEntry[])",
        "numberOfBytes": "32",
        "value": "t_array(t_struct(APRChangesEntry)5204_storage)dyn_storage"
      },
      "t_mapping(t_enum(ContType)5173,t_uint256)": {
        "encoding": "mapping",
        "key": "t_enum(ContType)5173",
        "label": "mapping(enum ContType => uint256)",
        "numberOfBytes": "32",
        "value": "t_uint256"
      },
      "t_mapping(t_uint256,t_bool)": {
        "encoding": "mapping",
        "key": "t_uint256",
        "label": "mapping(uint256 => bool)",
        "numberOfBytes": "32",
        "value": "t_bool"
      },
      "t_string_storage": {
        "encoding": "bytes",
        "label": "string",
        "numberOfBytes": "32"
      },
      "t_struct(APRChangesEntry)5204_storage": {
        "encoding": "inplace",
        "label": "struct CONTRewardManagement.APRChangesEntry",
        "members": [
          {
            "astId": 5201,
            "contract": "contracts/dependencies/CONTRewardManagement.sol:CONTRewardManagement",
            "label": "timestamp",
            "offset": 0,
            "slot": "0",
            "type": "t_uint256"
          },
          {
            "astId": 5203,
            "contract": "contracts/dependencies/CONTRewardManagement.sol:CONTRewardManagement",
            "label": "reducedPercentage",
            "offset": 0,
            "slot": "1",
            "type": "t_int256"
          }
        ],
        "numberOfBytes": "64"
      },
      "t_struct(ContEntity)5199_storage": {
        "encoding": "inplace",
        "label": "struct CONTRewardManagement.ContEntity",
        "members": [
          {
            "astId": 5187,
            "contract": "contracts/dependencies/CONTRewardManagement.sol:CONTRewardManagement",
            "label": "name",
            "offset": 0,
            "slot": "0",
            "type": "t_string_storage"
          },
          {
            "astId": 5189,
            "contract": "contracts/dependencies/CONTRewardManagement.sol:CONTRewardManagement",
            "label": "creationTime",
            "offset": 0,
            "slot": "1",
            "type": "t_uint256"
          },
          {
            "astId": 5191,
            "contract": "contracts/dependencies/CONTRewardManagement.sol:CONTRewardManagement",
            "label": "lastUpdateTime",
            "offset": 0,
            "slot": "2",
            "type": "t_uint256"
          },
          {
            "astId": 5193,
            "contract": "contracts/dependencies/CONTRewardManagement.sol:CONTRewardManagement",
            "label": "initialAPR",
            "offset": 0,
            "slot": "3",
            "type": "t_uint256"
          },
          {
            "astId": 5195,
            "contract": "contracts/dependencies/CONTRewardManagement.sol:CONTRewardManagement",
            "label": "buyPrice",
            "offset": 0,
            "slot": "4",
            "type": "t_uint256"
          },
          {
            "astId": 5198,
            "contract": "contracts/dependencies/CONTRewardManagement.sol:CONTRewardManagement",
            "label": "cType",
            "offset": 0,
            "slot": "5",
            "type": "t_enum(ContType)5173"
          }
        ],
        "numberOfBytes": "192"
      },
      "t_struct(Map)13632_storage": {
        "encoding": "inplace",
        "label": "struct IterableMapping.Map",
        "members": [
          {
            "astId": 13619,
            "contract": "contracts/dependencies/CONTRewardManagement.sol:CONTRewardManagement",
            "label": "keys",
            "offset": 0,
            "slot": "0",
            "type": "t_array(t_address)dyn_storage"
          },
          {
            "astId": 13623,
            "contract": "contracts/dependencies/CONTRewardManagement.sol:CONTRewardManagement",
            "label": "values",
            "offset": 0,
            "slot": "1",
            "type": "t_mapping(t_address,t_uint256)"
          },
          {
            "astId": 13627,
            "contract": "contracts/dependencies/CONTRewardManagement.sol:CONTRewardManagement",
            "label": "indexOf",
            "offset": 0,
            "slot": "2",
            "type": "t_mapping(t_address,t_uint256)"
          },
          {
            "astId": 13631,
            "contract": "contracts/dependencies/CONTRewardManagement.sol:CONTRewardManagement",
            "label": "inserted",
            "offset": 0,
            "slot": "3",
            "type": "t_mapping(t_address,t_bool)"
          }
        ],
        "numberOfBytes": "128"
      },
      "t_uint256": {
        "encoding": "inplace",
        "label": "uint256",
        "numberOfBytes": "32"
      }
    }
  }
}