{
  "address": "0x2e4c72f23525d1460e11210C2E76bAA3b27BD0Ef",
  "abi": [
    {
      "anonymous": false,
      "inputs": [
        {
          "indexed": false,
          "internalType": "enum ContType",
          "name": "_cType",
          "type": "uint8"
        },
        {
          "indexed": false,
          "internalType": "uint256",
          "name": "delta",
          "type": "uint256"
        }
      ],
      "name": "BreakevenChanged",
      "type": "event"
    },
    {
      "inputs": [
        {
          "internalType": "address",
          "name": "",
          "type": "address"
        },
        {
          "internalType": "uint256",
          "name": "",
          "type": "uint256"
        }
      ],
      "name": "_brokeevenContract",
      "outputs": [
        {
          "internalType": "bool",
          "name": "",
          "type": "bool"
        }
      ],
      "stateMutability": "view",
      "type": "function"
    },
    {
      "inputs": [
        {
          "internalType": "address",
          "name": "account",
          "type": "address"
        }
      ],
      "name": "_cashoutAllContsReward",
      "outputs": [
        {
          "internalType": "uint256",
          "name": "",
          "type": "uint256"
        },
        {
          "internalType": "uint256",
          "name": "",
          "type": "uint256"
        },
        {
          "internalType": "uint256",
          "name": "",
          "type": "uint256"
        },
        {
          "internalType": "uint256",
          "name": "",
          "type": "uint256"
        }
      ],
      "stateMutability": "nonpayable",
      "type": "function"
    },
    {
      "inputs": [
        {
          "internalType": "address",
          "name": "account",
          "type": "address"
        },
        {
          "internalType": "uint256",
          "name": "_contIndex",
          "type": "uint256"
        }
      ],
      "name": "_cashoutContReward",
      "outputs": [
        {
          "internalType": "uint256",
          "name": "",
          "type": "uint256"
        },
        {
          "internalType": "enum ContType",
          "name": "",
          "type": "uint8"
        }
      ],
      "stateMutability": "nonpayable",
      "type": "function"
    },
    {
      "inputs": [
        {
          "internalType": "uint256",
          "name": "newInterval",
          "type": "uint256"
        }
      ],
      "name": "_changeAutoReduceAPRInterval",
      "outputs": [],
      "stateMutability": "nonpayable",
      "type": "function"
    },
    {
      "inputs": [
        {
          "internalType": "uint256",
          "name": "newRate",
          "type": "uint256"
        }
      ],
      "name": "_changeAutoReduceAPRRate",
      "outputs": [],
      "stateMutability": "nonpayable",
      "type": "function"
    },
    {
      "inputs": [
        {
          "internalType": "uint256",
          "name": "newTime",
          "type": "uint256"
        }
      ],
      "name": "_changeCashoutTimeout",
      "outputs": [],
      "stateMutability": "nonpayable",
      "type": "function"
    },
    {
      "inputs": [
        {
          "internalType": "enum ContType",
          "name": "_cType",
          "type": "uint8"
        },
        {
          "internalType": "uint256",
          "name": "newPrice",
          "type": "uint256"
        }
      ],
      "name": "_changeContPrice",
      "outputs": [],
      "stateMutability": "nonpayable",
      "type": "function"
    },
    {
      "inputs": [
        {
          "internalType": "enum ContType",
          "name": "_cType",
          "type": "uint8"
        },
        {
          "internalType": "int256",
          "name": "reducedPercentage",
          "type": "int256"
        }
      ],
      "name": "_changeRewardAPRPerCont",
      "outputs": [],
      "stateMutability": "nonpayable",
      "type": "function"
    },
    {
      "inputs": [
        {
          "internalType": "address",
          "name": "account",
          "type": "address"
        }
      ],
      "name": "_getClaimedAmountOf",
      "outputs": [
        {
          "internalType": "uint256",
          "name": "total",
          "type": "uint256"
        },
        {
          "internalType": "string",
          "name": "list",
          "type": "string"
        }
      ],
      "stateMutability": "view",
      "type": "function"
    },
    {
      "inputs": [
        {
          "internalType": "address",
          "name": "account",
          "type": "address"
        },
        {
          "internalType": "uint256",
          "name": "_contIndex",
          "type": "uint256"
        }
      ],
      "name": "_getClaimedAmountOfIndex",
      "outputs": [
        {
          "internalType": "uint256",
          "name": "rewardCont",
          "type": "uint256"
        }
      ],
      "stateMutability": "view",
      "type": "function"
    },
    {
      "inputs": [
        {
          "internalType": "address",
          "name": "account",
          "type": "address"
        }
      ],
      "name": "_getContNumberOf",
      "outputs": [
        {
          "internalType": "uint256",
          "name": "",
          "type": "uint256"
        }
      ],
      "stateMutability": "view",
      "type": "function"
    },
    {
      "inputs": [
        {
          "internalType": "address",
          "name": "account",
          "type": "address"
        }
      ],
      "name": "_getContsCreationTime",
      "outputs": [
        {
          "internalType": "string",
          "name": "",
          "type": "string"
        }
      ],
      "stateMutability": "view",
      "type": "function"
    },
    {
      "inputs": [
        {
          "internalType": "address",
          "name": "account",
          "type": "address"
        }
      ],
      "name": "_getContsCurrentAPR",
      "outputs": [
        {
          "internalType": "string",
          "name": "",
          "type": "string"
        }
      ],
      "stateMutability": "view",
      "type": "function"
    },
    {
      "inputs": [
        {
          "internalType": "address",
          "name": "account",
          "type": "address"
        }
      ],
      "name": "_getContsInitialAPR",
      "outputs": [
        {
          "internalType": "string",
          "name": "",
          "type": "string"
        }
      ],
      "stateMutability": "view",
      "type": "function"
    },
    {
      "inputs": [
        {
          "internalType": "address",
          "name": "account",
          "type": "address"
        }
      ],
      "name": "_getContsLastUpdateTime",
      "outputs": [
        {
          "internalType": "string",
          "name": "",
          "type": "string"
        }
      ],
      "stateMutability": "view",
      "type": "function"
    },
    {
      "inputs": [
        {
          "internalType": "address",
          "name": "account",
          "type": "address"
        }
      ],
      "name": "_getContsNames",
      "outputs": [
        {
          "internalType": "string",
          "name": "",
          "type": "string"
        }
      ],
      "stateMutability": "view",
      "type": "function"
    },
    {
      "inputs": [
        {
          "internalType": "address",
          "name": "account",
          "type": "address"
        }
      ],
      "name": "_getContsRewardAvailable",
      "outputs": [
        {
          "internalType": "string",
          "name": "",
          "type": "string"
        }
      ],
      "stateMutability": "view",
      "type": "function"
    },
    {
      "inputs": [
        {
          "internalType": "address",
          "name": "account",
          "type": "address"
        }
      ],
      "name": "_getContsTypes",
      "outputs": [
        {
          "internalType": "string",
          "name": "",
          "type": "string"
        }
      ],
      "stateMutability": "view",
      "type": "function"
    },
    {
      "inputs": [
        {
          "internalType": "address",
          "name": "account",
          "type": "address"
        }
      ],
      "name": "_getRewardAmountOf",
      "outputs": [
        {
          "internalType": "uint256",
          "name": "",
          "type": "uint256"
        }
      ],
      "stateMutability": "view",
      "type": "function"
    },
    {
      "inputs": [
        {
          "internalType": "address",
          "name": "account",
          "type": "address"
        },
        {
          "internalType": "uint256",
          "name": "_contIndex",
          "type": "uint256"
        }
      ],
      "name": "_getRewardAmountOfIndex",
      "outputs": [
        {
          "internalType": "uint256",
          "name": "",
          "type": "uint256"
        }
      ],
      "stateMutability": "view",
      "type": "function"
    },
    {
      "inputs": [
        {
          "internalType": "address",
          "name": "account",
          "type": "address"
        }
      ],
      "name": "_isContOwner",
      "outputs": [
        {
          "internalType": "bool",
          "name": "",
          "type": "bool"
        }
      ],
      "stateMutability": "view",
      "type": "function"
    },
    {
      "inputs": [
        {
          "internalType": "enum ContType",
          "name": "_cType",
          "type": "uint8"
        },
        {
          "internalType": "uint256",
          "name": "_initialPrice",
          "type": "uint256"
        }
      ],
      "name": "_resetAllAPRChange",
      "outputs": [],
      "stateMutability": "nonpayable",
      "type": "function"
    },
    {
      "inputs": [
        {
          "internalType": "enum ContType",
          "name": "_cType",
          "type": "uint8"
        }
      ],
      "name": "_undoRewardAPRChange",
      "outputs": [],
      "stateMutability": "nonpayable",
      "type": "function"
    },
    {
      "inputs": [],
      "name": "admin0XB",
      "outputs": [
        {
          "internalType": "address",
          "name": "",
          "type": "address"
        }
      ],
      "stateMutability": "view",
      "type": "function"
    },
    {
      "inputs": [],
      "name": "autoReduceAPRInterval",
      "outputs": [
        {
          "internalType": "uint256",
          "name": "",
          "type": "uint256"
        }
      ],
      "stateMutability": "view",
      "type": "function"
    },
    {
      "inputs": [],
      "name": "autoReduceAPRRate",
      "outputs": [
        {
          "internalType": "uint256",
          "name": "",
          "type": "uint256"
        }
      ],
      "stateMutability": "view",
      "type": "function"
    },
    {
      "inputs": [],
      "name": "cashoutTimeout",
      "outputs": [
        {
          "internalType": "uint256",
          "name": "",
          "type": "uint256"
        }
      ],
      "stateMutability": "view",
      "type": "function"
    },
    {
      "inputs": [
        {
          "internalType": "enum ContType",
          "name": "",
          "type": "uint8"
        }
      ],
      "name": "contPrice",
      "outputs": [
        {
          "internalType": "uint256",
          "name": "",
          "type": "uint256"
        }
      ],
      "stateMutability": "view",
      "type": "function"
    },
    {
      "inputs": [
        {
          "internalType": "address",
          "name": "account",
          "type": "address"
        },
        {
          "internalType": "string[]",
          "name": "contNames",
          "type": "string[]"
        },
        {
          "internalType": "enum ContType",
          "name": "_cType",
          "type": "uint8"
        }
      ],
      "name": "createConts",
      "outputs": [],
      "stateMutability": "nonpayable",
      "type": "function"
    },
    {
      "inputs": [
        {
          "internalType": "enum ContType",
          "name": "_cType",
          "type": "uint8"
        }
      ],
      "name": "currentRewardAPRPerNewCont",
      "outputs": [
        {
          "internalType": "uint256",
          "name": "",
          "type": "uint256"
        }
      ],
      "stateMutability": "view",
      "type": "function"
    },
    {
      "inputs": [
        {
          "internalType": "enum ContType",
          "name": "",
          "type": "uint8"
        }
      ],
      "name": "initRewardAPRPerCont",
      "outputs": [
        {
          "internalType": "uint256",
          "name": "",
          "type": "uint256"
        }
      ],
      "stateMutability": "view",
      "type": "function"
    },
    {
      "inputs": [
        {
          "internalType": "uint256[]",
          "name": "_contPrices",
          "type": "uint256[]"
        },
        {
          "internalType": "uint256[]",
          "name": "_rewardAPRs",
          "type": "uint256[]"
        },
        {
          "internalType": "uint256",
          "name": "_cashoutTimeout",
          "type": "uint256"
        },
        {
          "internalType": "uint256",
          "name": "_autoReduceAPRRate",
          "type": "uint256"
        }
      ],
      "name": "initialize",
      "outputs": [],
      "stateMutability": "nonpayable",
      "type": "function"
    },
    {
      "inputs": [
        {
          "internalType": "address",
          "name": "newAdmin",
          "type": "address"
        }
      ],
      "name": "setAdmin",
      "outputs": [],
      "stateMutability": "nonpayable",
      "type": "function"
    },
    {
      "inputs": [
        {
          "internalType": "address",
          "name": "token_",
          "type": "address"
        }
      ],
      "name": "setToken",
      "outputs": [],
      "stateMutability": "nonpayable",
      "type": "function"
    },
    {
      "inputs": [],
      "name": "token",
      "outputs": [
        {
          "internalType": "address",
          "name": "",
          "type": "address"
        }
      ],
      "stateMutability": "view",
      "type": "function"
    },
    {
      "inputs": [],
      "name": "totalContsCreated",
      "outputs": [
        {
          "internalType": "uint256",
          "name": "",
          "type": "uint256"
        }
      ],
      "stateMutability": "view",
      "type": "function"
    },
    {
      "inputs": [
        {
          "internalType": "enum ContType",
          "name": "_cType",
          "type": "uint8"
        }
      ],
      "name": "totalContsPerContType",
      "outputs": [
        {
          "internalType": "uint256",
          "name": "",
          "type": "uint256"
        }
      ],
      "stateMutability": "view",
      "type": "function"
    }
  ],
  "transactionHash": "0xb7153b306610693e2c33c4475e330dad5d1c069be9dd4c92b8bd08c8d77d4826",
  "args": [],
  "numDeployments": 16,
  "solcInputHash": "d1bbd8f80e1f7a41a0ed9e1e3ab714c1",
  "bytecode": "0x608060405234801561001057600080fd5b50614308806100206000396000f3fe608060405234801561001057600080fd5b50600436106102265760003560e01c80636eb5a7f4116101305780639b28d1a7116100b8578063ce6912a31161007c578063ce6912a314610508578063d094fa8d1461051b578063e18f03ad1461054e578063f743f31914610557578063fc0c546a1461056a57600080fd5b80639b28d1a7146104975780639d2040f0146104a05780639f227c53146104b3578063a1a99b91146104c6578063c2202b66146104e757600080fd5b80638201bf26116100ff5780638201bf261461042a578063872a60ad1461043d5780638bf1451414610468578063927831b41461047b57806393520a801461048e57600080fd5b80636eb5a7f4146103c3578063704b6c02146103d657806377ec7826146103e95780637bed9600146103fc57600080fd5b8063390c991e116101b357806355a757d01161018257806355a757d0146103515780635dbab6ed1461035a578063619a635e1461036d57806363a9b09814610380578063665bb078146103a057600080fd5b8063390c991e146102f857806344fea1b91461030b5780634f88de011461031e57806351bf120c1461033e57600080fd5b8063144fa6d7116101fa578063144fa6d71461028c5780631565f50e1461029f5780631d5a1731146102b257806328cceb24146102c5578063367fd074146102e557600080fd5b8062c73e4d1461022b5780630534cc68146102515780630b9f6cfe146102665780630d9f9f0c14610279575b600080fd5b61023e610239366004613efe565b61057d565b6040519081526020015b60405180910390f35b61026461025f366004613d35565b61067d565b005b61023e610274366004613e60565b610920565b610264610287366004613f35565b610b06565b61026461029a366004613d1a565b610b4a565b6102646102ad366004613f35565b610bf0565b6102646102c0366004613f19565b610c34565b6102d86102d3366004613d1a565b610cb0565b604051610248919061403f565b6102d86102f3366004613d1a565b610ef8565b610264610306366004613f35565b611167565b61023e610319366004613d1a565b6111ab565b61023e61032c366004613efe565b60076020526000908152604090205481565b6102d861034c366004613d1a565b6111c9565b61023e60095481565b6102d8610368366004613d1a565b611405565b61023e61037b366004613d1a565b611641565b61023e61038e366004613efe565b60066020526000908152604090205481565b6103b36103ae366004613d1a565b611816565b6040519015158152602001610248565b6102646103d1366004613e8a565b611821565b6102646103e4366004613d1a565b611afa565b6102d86103f7366004613d1a565b611ba0565b6103b361040a366004613e60565b601060209081526000928352604080842090915290825290205460ff1681565b610264610438366004613efe565b611dda565b600c54610450906001600160a01b031681565b6040516001600160a01b039091168152602001610248565b6102d8610476366004613d1a565b611f1b565b61023e610489366004613e60565b61216f565b61023e600b5481565b61023e600a5481565b6102646104ae366004613f19565b612354565b6102646104c1366004613f19565b612469565b6104d96104d4366004613d1a565b6125f2565b60405161024892919061408e565b6104fa6104f5366004613e60565b61289c565b60405161024892919061407a565b61023e610516366004613efe565b612ca8565b61052e610529366004613d1a565b612ce7565b604080519485526020850193909352918301526060820152608001610248565b61023e600e5481565b6102d8610565366004613d1a565b613213565b600d54610450906001600160a01b031681565b60008060086000846003811115610596576105966142a3565b60038111156105a7576105a76142a3565b81526020019081526020016000208054905090506000600760008560038111156105d3576105d36142a3565b60038111156105e4576105e46142a3565b815260200190815260200160002054905060005b8281101561067557610661826008600088600381111561061a5761061a6142a3565b600381111561062b5761062b6142a3565b8152602001908152602001600020838154811061064a5761064a6142cf565b906000526020600020906002020160010154613448565b91508061066d81614252565b9150506105f8565b509392505050565b600d546001600160a01b031633146106b05760405162461bcd60e51b81526004016106a790614052565b60405180910390fd5b6001600160a01b0383166000908152600560205260405162c73e4d60e01b8152309062c73e4d906106e5908590600401613ff8565b60206040518083038186803b1580156106fd57600080fd5b505afa158015610711573d6000803e3d6000fd5b505050506040513d601f19601f820116820180604052508101906107359190613f4e565b905060005b835181101561088f5760056000866001600160a01b03166001600160a01b031681526020019081526020016000206040518060c00160405280868481518110610785576107856142cf565b60200260200101518152602001428152602001428152602001848152602001600660008760038111156107ba576107ba6142a3565b60038111156107cb576107cb6142a3565b81526020019081526020016000205481526020018560038111156107f1576107f16142a3565b9052815460018101835560009283526020928390208251805193946006909302909101926108229284920190613b5f565b506020820151816001015560408201518160020155606082015181600301556080820151816004015560a08201518160050160006101000a81548160ff02191690836003811115610875576108756142a3565b02179055505050808061088790614252565b91505061073a565b506001600160a01b0384166000908152600560205260409020546108b790600190869061347c565b8251600e60008282546108ca91906140fc565b90915550508251600f60008460038111156108e7576108e76142a3565b60038111156108f8576108f86142a3565b8152602001908152602001600020600082825461091591906140fc565b909155505050505050565b6001600160a01b038216600090815260056020908152604080832080548251818502810185019093528083528493849084015b82821015610a7257838290600052602060002090600602016040518060c001604052908160008201805461098690614217565b80601f01602080910402602001604051908101604052809291908181526020018280546109b290614217565b80156109ff5780601f106109d4576101008083540402835291602001916109ff565b820191906000526020600020905b8154815290600101906020018083116109e257829003601f168201915b50505091835250506001820154602082015260028201546040820152600380830154606083015260048301546080830152600583015460a09092019160ff1690811115610a4e57610a4e6142a3565b6003811115610a5f57610a5f6142a3565b8152505081526020019060010190610953565b505082519293505050808410610aca5760405162461bcd60e51b815260206004820152601c60248201527f434f4e543a20436f6e7420696e64657820697320696d70726f7065720000000060448201526064016106a7565b6000828581518110610ade57610ade6142cf565b602002602001015190506000610af982836040015142613525565b9450505050505b92915050565b600d546001600160a01b0316331480610b295750600c546001600160a01b031633145b610b455760405162461bcd60e51b81526004016106a790614052565b600b55565b600d546001600160a01b0316331480610b6d5750600c546001600160a01b031633145b610b895760405162461bcd60e51b81526004016106a790614052565b6001600160a01b038116610bce5760405162461bcd60e51b815260206004820152600c60248201526b7a65726f206164647265737360a01b60448201526064016106a7565b600d80546001600160a01b0319166001600160a01b0392909216919091179055565b600d546001600160a01b0316331480610c135750600c546001600160a01b031633145b610c2f5760405162461bcd60e51b81526004016106a790614052565b600a55565b600d546001600160a01b0316331480610c575750600c546001600160a01b031633145b610c735760405162461bcd60e51b81526004016106a790614052565b8060066000846003811115610c8a57610c8a6142a3565b6003811115610c9b57610c9b6142a3565b81526020810191909152604001600020555050565b6060610cbb82613855565b610cd357505060408051602081019091526000815290565b6001600160a01b038216600090815260056020908152604080832080548251818502810185019093528083529192909190849084015b82821015610e2857838290600052602060002090600602016040518060c0016040529081600082018054610d3c90614217565b80601f0160208091040260200160405190810160405280929190818152602001828054610d6890614217565b8015610db55780601f10610d8a57610100808354040283529160200191610db5565b820191906000526020600020905b815481529060010190602001808311610d9857829003601f168201915b50505091835250506001820154602082015260028201546040820152600380830154606083015260048301546080830152600583015460a09092019160ff1690811115610e0457610e046142a3565b6003811115610e1557610e156142a3565b8152505081526020019060010190610d09565b505050509050600081519050610e3c613be3565b6000610e6584600081518110610e5457610e546142cf565b602002602001015160200151613872565b604080518082019091526001808252602360f81b6020830152919250905b84811015610eec57858181518110610e9d57610e9d6142cf565b602002602001015193508282610eb68660200151613872565b604051602001610ec893929190613fb5565b60405160208183030381529060405292508080610ee490614252565b915050610e83565b50909695505050505050565b6060610f0382613855565b610f1b57505060408051602081019091526000815290565b6001600160a01b038216600090815260056020908152604080832080548251818502810185019093528083529192909190849084015b8282101561107057838290600052602060002090600602016040518060c0016040529081600082018054610f8490614217565b80601f0160208091040260200160405190810160405280929190818152602001828054610fb090614217565b8015610ffd5780601f10610fd257610100808354040283529160200191610ffd565b820191906000526020600020905b815481529060010190602001808311610fe057829003601f168201915b50505091835250506001820154602082015260028201546040820152600380830154606083015260048301546080830152600583015460a09092019160ff169081111561104c5761104c6142a3565b600381111561105d5761105d6142a3565b8152505081526020019060010190610f51565b50508251929350429150600090506110c56110c0858386611093576110936142cf565b6020026020010151866000815181106110ae576110ae6142cf565b60200260200101516040015185613525565b613872565b604080518082019091526001808252602360f81b6020830152919250905b84811015610eec5782826111316110c0898581518110611105576111056142cf565b60200260200101518a868151811061111f5761111f6142cf565b60200260200101516040015189613525565b60405160200161114393929190613fb5565b6040516020818303038152906040529250808061115f90614252565b9150506110e3565b600d546001600160a01b031633148061118a5750600c546001600160a01b031633145b6111a65760405162461bcd60e51b81526004016106a790614052565b600955565b6001600160a01b038116600090815260026020526040812054610b00565b60606111d482613855565b6111ec57505060408051602081019091526000815290565b6001600160a01b038216600090815260056020908152604080832080548251818502810185019093528083529192909190849084015b8282101561134157838290600052602060002090600602016040518060c001604052908160008201805461125590614217565b80601f016020809104026020016040519081016040528092919081815260200182805461128190614217565b80156112ce5780601f106112a3576101008083540402835291602001916112ce565b820191906000526020600020905b8154815290600101906020018083116112b157829003601f168201915b50505091835250506001820154602082015260028201546040820152600380830154606083015260048301546080830152600583015460a09092019160ff169081111561131d5761131d6142a3565b600381111561132e5761132e6142a3565b8152505081526020019060010190611222565b505050509050600081519050611355613be3565b600061137e8460008151811061136d5761136d6142cf565b602002602001015160400151613872565b604080518082019091526001808252602360f81b6020830152919250905b84811015610eec578581815181106113b6576113b66142cf565b6020026020010151935082826113cf8660400151613872565b6040516020016113e193929190613fb5565b604051602081830303815290604052925080806113fd90614252565b91505061139c565b606061141082613855565b61142857505060408051602081019091526000815290565b6001600160a01b038216600090815260056020908152604080832080548251818502810185019093528083529192909190849084015b8282101561157d57838290600052602060002090600602016040518060c001604052908160008201805461149190614217565b80601f01602080910402602001604051908101604052809291908181526020018280546114bd90614217565b801561150a5780601f106114df5761010080835404028352916020019161150a565b820191906000526020600020905b8154815290600101906020018083116114ed57829003601f168201915b50505091835250506001820154602082015260028201546040820152600380830154606083015260048301546080830152600583015460a09092019160ff1690811115611559576115596142a3565b600381111561156a5761156a6142a3565b815250508152602001906001019061145e565b505050509050600081519050611591613be3565b60006115ba846000815181106115a9576115a96142cf565b602002602001015160600151613872565b604080518082019091526001808252602360f81b6020830152919250905b84811015610eec578581815181106115f2576115f26142cf565b60200260200101519350828261160b8660600151613872565b60405160200161161d93929190613fb5565b6040516020818303038152906040529250808061163990614252565b9150506115d8565b600061164c82613855565b61165857506000919050565b6001600160a01b038216600090815260056020908152604080832080548251818502810185019093528083528493849084015b828210156117aa57838290600052602060002090600602016040518060c00160405290816000820180546116be90614217565b80601f01602080910402602001604051908101604052809291908181526020018280546116ea90614217565b80156117375780601f1061170c57610100808354040283529160200191611737565b820191906000526020600020905b81548152906001019060200180831161171a57829003601f168201915b50505091835250506001820154602082015260028201546040820152600380830154606083015260048301546080830152600583015460a09092019160ff1690811115611786576117866142a3565b6003811115611797576117976142a3565b815250508152602001906001019061168b565b5050825192935060009150505b8181101561180c5760008382815181106117d3576117d36142cf565b602002602001015190506117ec81826040015142613525565b6117f690866140fc565b945050808061180490614252565b9150506117b7565b5091949350505050565b6000610b0082613855565b600054610100900460ff1661183c5760005460ff1615611840565b303b155b6118a35760405162461bcd60e51b815260206004820152602e60248201527f496e697469616c697a61626c653a20636f6e747261637420697320616c72656160448201526d191e481a5b9a5d1a585b1a5e995960921b60648201526084016106a7565b600054610100900460ff161580156118c5576000805461ffff19166101011790555b6301e13380600a556000600e81905542905b6003811015611ac3578681815181106118f2576118f26142cf565b602002602001015160066000836003811115611910576119106142a3565b6003811115611921576119216142a3565b6003811115611932576119326142a3565b815260200190815260200160002081905550858181518110611956576119566142cf565b602002602001015160076000836003811115611974576119746142a3565b6003811115611985576119856142a3565b6003811115611996576119966142a3565b8152602001908152602001600020819055506000600f60008360038111156119c0576119c06142a3565b60038111156119d1576119d16142a3565b60038111156119e2576119e26142a3565b81526020019081526020016000208190555060086000826003811115611a0a57611a0a6142a3565b6003811115611a1b57611a1b6142a3565b6003811115611a2c57611a2c6142a3565b81526020015260086000826003811115611a4857611a486142a3565b6003811115611a5957611a596142a3565b6003811115611a6a57611a6a6142a3565b815260208082019290925260409081016000908120825180840190935285835282840182815281546001818101845592845294909220925160029094029092019283555191015580611abb81614252565b9150506118d7565b50506009839055600c80546001600160a01b03191633179055600b8290558015611af3576000805461ff00191690555b5050505050565b600d546001600160a01b0316331480611b1d5750600c546001600160a01b031633145b611b395760405162461bcd60e51b81526004016106a790614052565b6001600160a01b038116611b7e5760405162461bcd60e51b815260206004820152600c60248201526b7a65726f206164647265737360a01b60448201526064016106a7565b600c80546001600160a01b0319166001600160a01b0392909216919091179055565b6060611bab82613855565b611bc357505060408051602081019091526000815290565b6001600160a01b038216600090815260056020908152604080832080548251818502810185019093528083529192909190849084015b82821015611d1857838290600052602060002090600602016040518060c0016040529081600082018054611c2c90614217565b80601f0160208091040260200160405190810160405280929190818152602001828054611c5890614217565b8015611ca55780601f10611c7a57610100808354040283529160200191611ca5565b820191906000526020600020905b815481529060010190602001808311611c8857829003601f168201915b50505091835250506001820154602082015260028201546040820152600380830154606083015260048301546080830152600583015460a09092019160ff1690811115611cf457611cf46142a3565b6003811115611d0557611d056142a3565b8152505081526020019060010190611bf9565b505050509050600081519050611d2c613be3565b6000611d546110c085600081518110611d4757611d476142cf565b602002602001015161399b565b604080518082019091526001808252602360f81b6020830152919250905b84811015610eec57858181518110611d8c57611d8c6142cf565b602002602001015193508282611da46110c08761399b565b604051602001611db693929190613fb5565b60405160208183030381529060405292508080611dd290614252565b915050611d72565b600d546001600160a01b0316331480611dfd5750600c546001600160a01b031633145b611e195760405162461bcd60e51b81526004016106a790614052565b600060086000836003811115611e3157611e316142a3565b6003811115611e4257611e426142a3565b8152602081019190915260400160002054905060018111611eb55760405162461bcd60e51b815260206004820152602760248201527f554e444f204348414e47453a204e6f206368616e67657320666f756e6420666f6044820152667220635479706560c81b60648201526084016106a7565b60086000836003811115611ecb57611ecb6142a3565b6003811115611edc57611edc6142a3565b8152602001908152602001600020805480611ef957611ef96142b9565b6000828152602081206002600019909301928302018181556001015590555050565b6060611f2682613855565b611f3e57505060408051602081019091526000815290565b6001600160a01b038216600090815260056020908152604080832080548251818502810185019093528083529192909190849084015b8282101561209357838290600052602060002090600602016040518060c0016040529081600082018054611fa790614217565b80601f0160208091040260200160405190810160405280929190818152602001828054611fd390614217565b80156120205780601f10611ff557610100808354040283529160200191612020565b820191906000526020600020905b81548152906001019060200180831161200357829003601f168201915b50505091835250506001820154602082015260028201546040820152600380830154606083015260048301546080830152600583015460a09092019160ff169081111561206f5761206f6142a3565b6003811115612080576120806142a3565b8152505081526020019060010190611f74565b5050505090506000815190506120a7613be3565b60006120dc846000815181106120bf576120bf6142cf565b602002602001015160a0015160038111156110c0576110c06142a3565b604080518082019091526001808252602360f81b6020830152919250905b84811015610eec57858181518110612114576121146142cf565b6020026020010151935082826121398660a0015160038111156110c0576110c06142a3565b60405160200161214b93929190613fb5565b6040516020818303038152906040529250808061216790614252565b9150506120fa565b6001600160a01b038216600090815260056020908152604080832080548251818502810185019093528083528493849084015b828210156122c157838290600052602060002090600602016040518060c00160405290816000820180546121d590614217565b80601f016020809104026020016040519081016040528092919081815260200182805461220190614217565b801561224e5780601f106122235761010080835404028352916020019161224e565b820191906000526020600020905b81548152906001019060200180831161223157829003601f168201915b50505091835250506001820154602082015260028201546040820152600380830154606083015260048301546080830152600583015460a09092019160ff169081111561229d5761229d6142a3565b60038111156122ae576122ae6142a3565b81525050815260200190600101906121a2565b5050825192935050508084106123195760405162461bcd60e51b815260206004820152601c60248201527f434f4e543a20436f6e7420696e64657820697320696d70726f7065720000000060448201526064016106a7565b600082858151811061232d5761232d6142cf565b6020026020010151905061234a8182602001518360400151613525565b9695505050505050565b600d546001600160a01b03163314806123775750600c546001600160a01b031633145b6123935760405162461bcd60e51b81526004016106a790614052565b6305f5e10081126123f75760405162461bcd60e51b815260206004820152602860248201527f5245445543455f5257443a20646f206e6f7420726564756365206d6f7265207460448201526768616e203130302560c01b60648201526084016106a7565b6008600083600381111561240d5761240d6142a3565b600381111561241e5761241e6142a3565b81526020808201929092526040908101600090812082518084019093524283528284019485528054600181810183559183529390912091516002909302909101918255915191015550565b600d546001600160a01b031633148061248c5750600c546001600160a01b031633145b6124a85760405162461bcd60e51b81526004016106a790614052565b80600760008460038111156124bf576124bf6142a3565b60038111156124d0576124d06142a3565b8152602001908152602001600020819055506000600860008460038111156124fa576124fa6142a3565b600381111561250b5761250b6142a3565b815260200190815260200160002060008154811061252b5761252b6142cf565b906000526020600020906002020160000154905060086000846003811115612555576125556142a3565b6003811115612566576125666142a3565b815260200190815260200160002060006125809190613c29565b60086000846003811115612596576125966142a3565b60038111156125a7576125a76142a3565b81526020808201929092526040908101600090812082518084019093529382528183018181528454600181810187559583529390912091516002909302909101918255519101555050565b600060606125ff83613855565b61261b5750506040805160208101909152600080825292909150565b6001600160a01b038316600090815260056020908152604080832080548251818502810185019093528083529192909190849084015b8282101561277057838290600052602060002090600602016040518060c001604052908160008201805461268490614217565b80601f01602080910402602001604051908101604052809291908181526020018280546126b090614217565b80156126fd5780601f106126d2576101008083540402835291602001916126fd565b820191906000526020600020905b8154815290600101906020018083116126e057829003601f168201915b50505091835250506001820154602082015260028201546040820152600380830154606083015260048301546080830152600583015460a09092019160ff169081111561274c5761274c6142a3565b600381111561275d5761275d6142a3565b8152505081526020019060010190612651565b50508251929350600091506127da905083828461278f5761278f6142cf565b6020026020010151846000815181106127aa576127aa6142cf565b602002602001015160200151856000815181106127c9576127c96142cf565b602002602001015160400151613525565b90508094506127e881613872565b604080518082019091526001808252602360f81b6020830152919550905b83811015612892576000858281518110612822576128226142cf565b6020026020010151905060006128418283602001518460400151613525565b905061284d818a6140fc565b9850878461285a83613872565b60405160200161286c93929190613fb5565b60405160208183030381529060405297505050808061288a90614252565b915050612806565b5050505050915091565b600d5460009081906001600160a01b031633146128cb5760405162461bcd60e51b81526004016106a790614052565b6001600160a01b0384166000908152600560205260409020805484106129275760405162461bcd60e51b815260206004820152601160248201527021a7a72a1d1024b73232bc1022b93937b960791b60448201526064016106a7565b600081858154811061293b5761293b6142cf565b9060005260206000209060060201905061295881600201546139a7565b6129ca5760405162461bcd60e51b815260206004820152603a60248201527f434153484f5554204552524f523a20596f75206861766520746f20776169742060448201527f6265666f726520636c61696d696e67207468697320636f6e742e00000000000060648201526084016106a7565b60004290506000612ad7836040518060c00160405290816000820180546129f090614217565b80601f0160208091040260200160405190810160405280929190818152602001828054612a1c90614217565b8015612a695780601f10612a3e57610100808354040283529160200191612a69565b820191906000526020600020905b815481529060010190602001808311612a4c57829003601f168201915b50505091835250506001820154602082015260028201546040820152600380830154606083015260048301546080830152600583015460a09092019160ff1690811115612ab857612ab86142a3565b6003811115612ac957612ac96142a3565b905250600285015484613525565b600284018390556001600160a01b03891660009081526010602090815260408083208b845290915290205490915060ff16612c9157612c12836040518060c0016040529081600082018054612b2b90614217565b80601f0160208091040260200160405190810160405280929190818152602001828054612b5790614217565b8015612ba45780601f10612b7957610100808354040283529160200191612ba4565b820191906000526020600020905b815481529060010190602001808311612b8757829003601f168201915b50505091835250506001820154602082015260028201546040820152600380830154606083015260048301546080830152600583015460a09092019160ff1690811115612bf357612bf36142a3565b6003811115612c0457612c046142a3565b905250600185015442613525565b836004015411612c91576001600160a01b03881660009081526010602090815260408083208a845290915290819020805460ff19166001908117909155600585015491517f973cb5e7d2831babd05fc3de4db9926ae3b4301b00c92c3542e0771ea471b0fd92612c889260ff9190911691614006565b60405180910390a15b6005909201549194505060ff169150509250929050565b6000600f6000836003811115612cc057612cc06142a3565b6003811115612cd157612cd16142a3565b8152602001908152602001600020549050919050565b600d546000908190819081906001600160a01b03163314612d1a5760405162461bcd60e51b81526004016106a790614052565b6001600160a01b0385166000908152600560205260409020805480612d995760405162461bcd60e51b815260206004820152602f60248201527f434153484f5554204552524f523a20596f7520646f6e2774206861766520636f60448201526e1b9d1cc81d1bc818d85cda0b5bdd5d608a1b60648201526084016106a7565b604080516060808201835260008083526020808401829052838501829052845192830185528183528201819052928101839052829190825b8581101561314357868181548110612deb57612deb6142cf565b906000526020600020906006020194506000612f03866040518060c0016040529081600082018054612e1c90614217565b80601f0160208091040260200160405190810160405280929190818152602001828054612e4890614217565b8015612e955780601f10612e6a57610100808354040283529160200191612e95565b820191906000526020600020905b815481529060010190602001808311612e7857829003601f168201915b50505091835250506001820154602082015260028201546040820152600380830154606083015260048301546080830152600583015460a09092019160ff1690811115612ee457612ee46142a3565b6003811115612ef557612ef56142a3565b905250600288015442613525565b9050612f0f81866140fc565b60058701549095508190859060ff166003811115612f2f57612f2f6142a3565b60ff1660038110612f4257612f426142cf565b60200201818151612f5391906140fc565b9052504260028701556001600160a01b038d16600090815260106020908152604080832085845290915290205460ff161580156130995750613091866040518060c0016040529081600082018054612faa90614217565b80601f0160208091040260200160405190810160405280929190818152602001828054612fd690614217565b80156130235780601f10612ff857610100808354040283529160200191613023565b820191906000526020600020905b81548152906001019060200180831161300657829003601f168201915b50505091835250506001820154602082015260028201546040820152600380830154606083015260048301546080830152600583015460a09092019160ff1690811115613072576130726142a3565b6003811115613083576130836142a3565b905250600188015442613525565b866004015411155b15613130576001600160a01b038d1660009081526010602090815260408083208584529091528120805460ff19166001179055600587015460ff1660038111156130e5576130e56142a3565b9050838160ff16600381106130fc576130fc6142cf565b602002015161310c906001614114565b848260ff1660038110613121576131216142cf565b60ff9092166020929092020152505b508061313b81614252565b915050612dd1565b5060005b60038160ff1610156131f1576000828260ff166003811061316a5761316a6142cf565b602002015160ff1611156131df577f973cb5e7d2831babd05fc3de4db9926ae3b4301b00c92c3542e0771ea471b0fd8160ff1660038111156131ae576131ae6142a3565b838360ff16600381106131c3576131c36142cf565b60200201516040516131d6929190614021565b60405180910390a15b806131e98161426d565b915050613147565b505080516020820151604090920151929b909a50909850909650945050505050565b606061321e82613855565b61323657505060408051602081019091526000815290565b6001600160a01b038216600090815260056020908152604080832080548251818502810185019093528083529192909190849084015b8282101561338b57838290600052602060002090600602016040518060c001604052908160008201805461329f90614217565b80601f01602080910402602001604051908101604052809291908181526020018280546132cb90614217565b80156133185780601f106132ed57610100808354040283529160200191613318565b820191906000526020600020905b8154815290600101906020018083116132fb57829003601f168201915b50505091835250506001820154602082015260028201546040820152600380830154606083015260048301546080830152600583015460a09092019160ff1690811115613367576133676142a3565b6003811115613378576133786142a3565b815250508152602001906001019061326c565b50505050905060008151905061339f613be3565b6000836000815181106133b4576133b46142cf565b60200260200101516000015190506000604051806040016040528060018152602001602360f81b81525090506000600190505b84811015610eec57858181518110613401576134016142cf565b602002602001015193508282856000015160405160200161342493929190613fb5565b6040516020818303038152906040529250808061344090614252565b9150506133e7565b600080613459836305f5e10061417a565b90506305f5e10061346a828661415b565b6134749190614139565b949350505050565b6001600160a01b038216600090815260038401602052604090205460ff16156134c1576001600160a01b03821660009081526001840160205260409020819055505050565b6001600160a01b03821660008181526003850160209081526040808320805460ff19166001908117909155878101835281842086905587546002890184529184208290558101875586835291200180546001600160a01b0319169091179055505050565b60008183111561356e5760405162461bcd60e51b815260206004820152601460248201527377726f6e6720747374616d707320706172616d7360601b60448201526064016106a7565b83602001518310156135b55760405162461bcd60e51b815260206004820152601060248201526f1b19599d081d1cdd185b5c1cc818985960821b60448201526064016106a7565b60a084015160006135c682866139c0565b608087015190915060006135da8888613a9b565b6020890151909150879060009081908190819081895b600860008d6003811115613606576136066142a3565b6003811115613617576136176142a3565b815260208101919091526040016000205481101561377c57600860008d6003811115613645576136456142a3565b6003811115613656576136566142a3565b81526020019081526020016000208181548110613675576136756142cf565b90600052602060002090600202016000015496506136938884613b45565b61369d8885613b45565b14801592506136d5576136b08884613b45565b6136bb9060016140fc565b600a546136c8919061415b565b6136d290846140fc565b96505b6136df88886141b9565b94506301e13380856305f5e1006136f68c8e61415b565b6137009190614139565b61370a919061415b565b6137149190614139565b9350869750838661372591906140fc565b9550811561374d5761373989600b54613448565b98508061374581614200565b91505061376a565b61376789600860008f600381111561061a5761061a6142a3565b98505b8061377481614252565b9150506135f0565b505b8c8714613840578c95506137928783613b45565b61379c8784613b45565b14801591506137d4576137af8783613b45565b6137ba9060016140fc565b600a546137c7919061415b565b6137d190836140fc565b95505b6137de87876141b9565b93506301e13380846305f5e1006137f58b8d61415b565b6137ff9190614139565b613809919061415b565b6138139190614139565b9250859650828561382491906140fc565b9450801561383b5761383888600b54613448565b97505b61377e565b509299505050505050505050505b9392505050565b6001600160a01b0316600090815260026020526040902054151590565b6060816138965750506040805180820190915260018152600360fc1b602082015290565b8160005b81156138c057806138aa81614252565b91506138b99050600a83614139565b915061389a565b60008167ffffffffffffffff8111156138db576138db6142e5565b6040519080825280601f01601f191660200182016040528015613905576020820181803683370190505b509050815b85156139925761391b6001826141b9565b9050600061392a600a88614139565b61393590600a61415b565b61393f90886141b9565b61394a906030614114565b905060008160f81b905080848481518110613967576139676142cf565b60200101906001600160f81b031916908160001a905350613989600a89614139565b9750505061390a565b50949350505050565b6000610b008242613a9b565b600042600954836139b891906140fc565b111592915050565b600080806008818660038111156139d9576139d96142a3565b60038111156139ea576139ea6142a3565b815260208101919091526040016000205490505b818111156106755760006002613a1483856140fc565b613a1e9190614139565b90508460086000886003811115613a3757613a376142a3565b6003811115613a4857613a486142a3565b81526020019081526020016000208281548110613a6757613a676142cf565b9060005260206000209060020201600001541015613a9157613a8a8160016140fc565b9250613a95565b8091505b506139fe565b602082015160a08301516060840151600092919083613aba83856139c0565b90506000613ac884886139c0565b9050815b81811015613b0257613aee846008600088600381111561061a5761061a6142a3565b935080613afa81614252565b915050613acc565b506000613b0f8887613b45565b90505b8015613b385780613b2281614200565b915050613b3184600b54613448565b9350613b12565b5091979650505050505050565b600a54600090613b5583856141b9565b61384e9190614139565b828054613b6b90614217565b90600052602060002090601f016020900481019282613b8d5760008555613bd3565b82601f10613ba657805160ff1916838001178555613bd3565b82800160010185558215613bd3579182015b82811115613bd3578251825591602001919060010190613bb8565b50613bdf929150613c4d565b5090565b6040518060c00160405280606081526020016000815260200160008152602001600081526020016000815260200160006003811115613c2457613c246142a3565b905290565b5080546000825560020290600052602060002090810190613c4a9190613c62565b50565b5b80821115613bdf5760008155600101613c4e565b5b80821115613bdf5760008082556001820155600201613c63565b80356001600160a01b0381168114613c9457600080fd5b919050565b600082601f830112613caa57600080fd5b81356020613cbf613cba836140d8565b6140a7565b80838252828201915082860187848660051b8901011115613cdf57600080fd5b60005b85811015613cfe57813584529284019290840190600101613ce2565b5090979650505050505050565b803560048110613c9457600080fd5b600060208284031215613d2c57600080fd5b61384e82613c7d565b600080600060608486031215613d4a57600080fd5b613d5384613c7d565b925060208085013567ffffffffffffffff80821115613d7157600080fd5b818701915087601f830112613d8557600080fd5b8135613d93613cba826140d8565b8082825285820191508585018b878560051b8801011115613db357600080fd5b60005b84811015613e4057813586811115613dcd57600080fd5b8701603f81018e13613dde57600080fd5b8881013587811115613df257613df26142e5565b613e04601f8201601f19168b016140a7565b8181528f6040838501011115613e1957600080fd5b81604084018c83013760009181018b01919091528552509287019290870190600101613db6565b5050809750505050505050613e5760408501613d0b565b90509250925092565b60008060408385031215613e7357600080fd5b613e7c83613c7d565b946020939093013593505050565b60008060008060808587031215613ea057600080fd5b843567ffffffffffffffff80821115613eb857600080fd5b613ec488838901613c99565b95506020870135915080821115613eda57600080fd5b50613ee787828801613c99565b949794965050505060408301359260600135919050565b600060208284031215613f1057600080fd5b61384e82613d0b565b60008060408385031215613f2c57600080fd5b613e7c83613d0b565b600060208284031215613f4757600080fd5b5035919050565b600060208284031215613f6057600080fd5b5051919050565b60048110613f8557634e487b7160e01b600052602160045260246000fd5b9052565b60008151808452613fa18160208601602086016141d0565b601f01601f19169290920160200192915050565b60008451613fc78184602089016141d0565b845190830190613fdb8183602089016141d0565b8451910190613fee8183602088016141d0565b0195945050505050565b60208101610b008284613f67565b604081016140148285613f67565b8260208301529392505050565b6040810161402f8285613f67565b60ff831660208301529392505050565b60208152600061384e6020830184613f89565b6020808252600e908201526d4163636573732044656e6965642160901b604082015260600190565b8281526040810161384e6020830184613f67565b8281526040602082015260006134746040830184613f89565b604051601f8201601f1916810167ffffffffffffffff811182821017156140d0576140d06142e5565b604052919050565b600067ffffffffffffffff8211156140f2576140f26142e5565b5060051b60200190565b6000821982111561410f5761410f61428d565b500190565b600060ff821660ff84168060ff038211156141315761413161428d565b019392505050565b60008261415657634e487b7160e01b600052601260045260246000fd5b500490565b60008160001904831182151516156141755761417561428d565b500290565b60008083128015600160ff1b8501841216156141985761419861428d565b6001600160ff1b03840183138116156141b3576141b361428d565b50500390565b6000828210156141cb576141cb61428d565b500390565b60005b838110156141eb5781810151838201526020016141d3565b838111156141fa576000848401525b50505050565b60008161420f5761420f61428d565b506000190190565b600181811c9082168061422b57607f821691505b6020821081141561424c57634e487b7160e01b600052602260045260246000fd5b50919050565b60006000198214156142665761426661428d565b5060010190565b600060ff821660ff8114156142845761428461428d565b60010192915050565b634e487b7160e01b600052601160045260246000fd5b634e487b7160e01b600052602160045260246000fd5b634e487b7160e01b600052603160045260246000fd5b634e487b7160e01b600052603260045260246000fd5b634e487b7160e01b600052604160045260246000fdfea164736f6c6343000807000a",
  "devdoc": {
    "kind": "dev",
    "methods": {
      "_cashoutAllContsReward(address)": {
        "params": {
          "account": "account of owner"
        },
        "returns": {
          "_0": "rewardsTotal total amount of rewards claimed"
        }
      },
      "_cashoutContReward(address,uint256)": {
        "params": {
          "_contIndex": "contract index",
          "account": "account of owner"
        },
        "returns": {
          "_0": "rewardsTotal total amount of rewards claimed"
        }
      },
      "_changeAutoReduceAPRInterval(uint256)": {
        "params": {
          "newInterval": "new interval"
        }
      },
      "_changeAutoReduceAPRRate(uint256)": {
        "params": {
          "newRate": "new reduction rate (100% == 100_000_000)"
        }
      },
      "_changeCashoutTimeout(uint256)": {
        "params": {
          "newTime": "new length of interval"
        }
      },
      "_changeContPrice(uint8,uint256)": {
        "params": {
          "_cType": "contract type to change price",
          "newPrice": "new price per contract (0xB)"
        }
      },
      "_changeRewardAPRPerCont(uint8,int256)": {
        "details": "the model of calculating reward requires heavily on reduction percentage. Use reduction percent as the input. Negative percentages are allowed (if want to increase APR). 100_000_000 = 100%.",
        "params": {
          "_cType": "contract type to change APR",
          "reducedPercentage": "reduction percentage"
        }
      },
      "_getClaimedAmountOf(address)": {
        "details": "iterate through every contract. Use `contRewardInInterval` to calculate reward in an interval from contract creation time to latest claim.",
        "params": {
          "account": "address to query"
        },
        "returns": {
          "list": "a packed list of every entries",
          "total": "total amount of reward available for account, tax included"
        }
      },
      "_getClaimedAmountOfIndex(address,uint256)": {
        "details": "use `contRewardInInterval` to calculate claimed in an interval from contract creationTime to latest claim.",
        "params": {
          "_contIndex": "index of contract in user's list",
          "account": "address to query"
        },
        "returns": {
          "rewardCont": "amount of reward available for selected contract"
        }
      },
      "_getContNumberOf(address)": {
        "params": {
          "account": "address to query"
        },
        "returns": {
          "_0": "count number of contracts owned by this account"
        }
      },
      "_getContsCreationTime(address)": {
        "details": "concatenate creation time into one string, separated by a separator ('#')",
        "params": {
          "account": "address to query"
        },
        "returns": {
          "_0": "result a string of concatenated result"
        }
      },
      "_getContsCurrentAPR(address)": {
        "details": "concate current aprs into one string, separated by a separator ('#')",
        "params": {
          "account": "address to query"
        },
        "returns": {
          "_0": "result a string of concatenated result"
        }
      },
      "_getContsInitialAPR(address)": {
        "details": "concate initial aprs into one string, separated by a separator ('#')",
        "params": {
          "account": "address to query"
        },
        "returns": {
          "_0": "result a string of concatenated result"
        }
      },
      "_getContsLastUpdateTime(address)": {
        "details": "concate last update times into one string, separated by a separator ('#')",
        "params": {
          "account": "address to query"
        },
        "returns": {
          "_0": "result a string of concatenated result"
        }
      },
      "_getContsNames(address)": {
        "details": "concatenate names into one string, separated by a separator ('#')",
        "params": {
          "account": "address to query"
        },
        "returns": {
          "_0": "result a string of concatenated result"
        }
      },
      "_getContsRewardAvailable(address)": {
        "details": "concate available rewards into one string, separated by a separator ('#')",
        "params": {
          "account": "address to query"
        },
        "returns": {
          "_0": "result a string of concatenated result"
        }
      },
      "_getContsTypes(address)": {
        "details": "concate ctypes into one string, separated by a separator ('#')",
        "params": {
          "account": "address to query"
        },
        "returns": {
          "_0": "result a string of concatenated result"
        }
      },
      "_getRewardAmountOf(address)": {
        "details": "iterate through every contract. Use `contRewardInInterval` to calculate reward in an interval from user last claims to now.",
        "params": {
          "account": "address to query"
        },
        "returns": {
          "_0": "rewardAmount total amount of reward available for account, tax included"
        }
      },
      "_getRewardAmountOfIndex(address,uint256)": {
        "details": "use `contRewardInInterval` to calculate reward in an interval from user last claims to now.",
        "params": {
          "_contIndex": "index of contract in user's list",
          "account": "address to query"
        },
        "returns": {
          "_0": "rewardCont amount of reward available for selected contract"
        }
      },
      "_isContOwner(address)": {
        "params": {
          "account": "address to query"
        },
        "returns": {
          "_0": "res true if account is the contract number"
        }
      },
      "_resetAllAPRChange(uint8,uint256)": {
        "params": {
          "_cType": "type of contract to pop last change"
        }
      },
      "_undoRewardAPRChange(uint8)": {
        "params": {
          "_cType": "type of contract to pop last change"
        }
      },
      "createConts(address,string[],uint8)": {
        "params": {
          "_cType": "type of contract",
          "account": "account of owner",
          "contNames": "list of names of contract"
        }
      },
      "currentRewardAPRPerNewCont(uint8)": {
        "details": "iterate through a list of APR changes in history",
        "params": {
          "_cType": "contract type to query"
        },
        "returns": {
          "_0": "result apr of contract type _cType"
        }
      },
      "setAdmin(address)": {
        "params": {
          "newAdmin": "address of newAdmin"
        }
      },
      "setToken(address)": {
        "params": {
          "token_": "new address of 0xB"
        }
      },
      "totalContsPerContType(uint8)": {
        "params": {
          "_cType": "contract type to query"
        },
        "returns": {
          "_0": "res return number of contract for each contract type"
        }
      }
    },
    "version": 1
  },
  "userdoc": {
    "kind": "user",
    "methods": {
      "_cashoutAllContsReward(address)": {
        "notice": "reduce all conts reward to 0 and return amount of rewards claimed so token contract can send tokens"
      },
      "_cashoutContReward(address,uint256)": {
        "notice": "reduce chosen cont reward to 0 and return amount of rewards claimed so token contract can send tokens"
      },
      "_changeAutoReduceAPRInterval(uint256)": {
        "notice": "change auto APR reduce interval per contract"
      },
      "_changeAutoReduceAPRRate(uint256)": {
        "notice": "change auto APR reduce rate per contract"
      },
      "_changeCashoutTimeout(uint256)": {
        "notice": "change cashout timeout. User cannot claim 2 times in one interval of newTime."
      },
      "_changeContPrice(uint8,uint256)": {
        "notice": "change contract price of one type"
      },
      "_changeRewardAPRPerCont(uint8,int256)": {
        "notice": "change reward apr of one contract type"
      },
      "_getClaimedAmountOf(address)": {
        "notice": "query claimed amount of an address in every contract"
      },
      "_getClaimedAmountOfIndex(address,uint256)": {
        "notice": "query claimed amount of one contract"
      },
      "_getContNumberOf(address)": {
        "notice": "get number of contract from one owner"
      },
      "_getContsCreationTime(address)": {
        "notice": "get the list of contracts creation time from one owner"
      },
      "_getContsCurrentAPR(address)": {
        "notice": "get the list of contracts current aprs from one owner"
      },
      "_getContsInitialAPR(address)": {
        "notice": "get the list of contracts initial aprs from one owner"
      },
      "_getContsLastUpdateTime(address)": {
        "notice": "get the list of contracts last update times from one owner"
      },
      "_getContsNames(address)": {
        "notice": "get the list of contracts name from one owner"
      },
      "_getContsRewardAvailable(address)": {
        "notice": "get the list of contracts available rewards from one owner"
      },
      "_getContsTypes(address)": {
        "notice": "get the list of contracts ctypes from one owner"
      },
      "_getRewardAmountOf(address)": {
        "notice": "query total reward amount of an address in every contract"
      },
      "_getRewardAmountOfIndex(address,uint256)": {
        "notice": "query reward amount of one contract"
      },
      "_isContOwner(address)": {
        "notice": "query if an account is an owner of any contract"
      },
      "_resetAllAPRChange(uint8,uint256)": {
        "notice": "only used when admin makes mistake about APR change: reset every APR changes/"
      },
      "_undoRewardAPRChange(uint8)": {
        "notice": "only used when admin makes mistake about APR change: undo last APR change of one type"
      },
      "createConts(address,string[],uint8)": {
        "notice": "create new contract storages for account"
      },
      "currentRewardAPRPerNewCont(uint8)": {
        "notice": "calculate initial APR for new contract to display on dApp"
      },
      "setAdmin(address)": {
        "notice": "change admin of contract"
      },
      "setToken(address)": {
        "notice": "set 0xB token Address"
      },
      "totalContsPerContType(uint8)": {
        "notice": "return number of contract of contract type _cType"
      }
    },
    "version": 1
  },
  "storageLayout": {
    "storage": [
      {
        "astId": 598,
        "contract": "contracts/dependencies/CONTRewardManagement.sol:CONTRewardManagement",
        "label": "_initialized",
        "offset": 0,
        "slot": "0",
        "type": "t_bool"
      },
      {
        "astId": 601,
        "contract": "contracts/dependencies/CONTRewardManagement.sol:CONTRewardManagement",
        "label": "_initializing",
        "offset": 1,
        "slot": "0",
        "type": "t_bool"
      },
      {
        "astId": 5207,
        "contract": "contracts/dependencies/CONTRewardManagement.sol:CONTRewardManagement",
        "label": "contOwners",
        "offset": 0,
        "slot": "1",
        "type": "t_struct(Map)13674_storage"
      },
      {
        "astId": 5213,
        "contract": "contracts/dependencies/CONTRewardManagement.sol:CONTRewardManagement",
        "label": "_contsOfUser",
        "offset": 0,
        "slot": "5",
        "type": "t_mapping(t_address,t_array(t_struct(ContEntity)5199_storage)dyn_storage)"
      },
      {
        "astId": 5218,
        "contract": "contracts/dependencies/CONTRewardManagement.sol:CONTRewardManagement",
        "label": "contPrice",
        "offset": 0,
        "slot": "6",
        "type": "t_mapping(t_enum(ContType)5173,t_uint256)"
      },
      {
        "astId": 5223,
        "contract": "contracts/dependencies/CONTRewardManagement.sol:CONTRewardManagement",
        "label": "initRewardAPRPerCont",
        "offset": 0,
        "slot": "7",
        "type": "t_mapping(t_enum(ContType)5173,t_uint256)"
      },
      {
        "astId": 5230,
        "contract": "contracts/dependencies/CONTRewardManagement.sol:CONTRewardManagement",
        "label": "aprChangesHistory",
        "offset": 0,
        "slot": "8",
        "type": "t_mapping(t_enum(ContType)5173,t_array(t_struct(APRChangesEntry)5204_storage)dyn_storage)"
      },
      {
        "astId": 5232,
        "contract": "contracts/dependencies/CONTRewardManagement.sol:CONTRewardManagement",
        "label": "cashoutTimeout",
        "offset": 0,
        "slot": "9",
        "type": "t_uint256"
      },
      {
        "astId": 5234,
        "contract": "contracts/dependencies/CONTRewardManagement.sol:CONTRewardManagement",
        "label": "autoReduceAPRInterval",
        "offset": 0,
        "slot": "10",
        "type": "t_uint256"
      },
      {
        "astId": 5236,
        "contract": "contracts/dependencies/CONTRewardManagement.sol:CONTRewardManagement",
        "label": "autoReduceAPRRate",
        "offset": 0,
        "slot": "11",
        "type": "t_uint256"
      },
      {
        "astId": 5238,
        "contract": "contracts/dependencies/CONTRewardManagement.sol:CONTRewardManagement",
        "label": "admin0XB",
        "offset": 0,
        "slot": "12",
        "type": "t_address"
      },
      {
        "astId": 5240,
        "contract": "contracts/dependencies/CONTRewardManagement.sol:CONTRewardManagement",
        "label": "token",
        "offset": 0,
        "slot": "13",
        "type": "t_address"
      },
      {
        "astId": 5242,
        "contract": "contracts/dependencies/CONTRewardManagement.sol:CONTRewardManagement",
        "label": "totalContsCreated",
        "offset": 0,
        "slot": "14",
        "type": "t_uint256"
      },
      {
        "astId": 5247,
        "contract": "contracts/dependencies/CONTRewardManagement.sol:CONTRewardManagement",
        "label": "_totalContsPerType",
        "offset": 0,
        "slot": "15",
        "type": "t_mapping(t_enum(ContType)5173,t_uint256)"
      },
      {
        "astId": 5253,
        "contract": "contracts/dependencies/CONTRewardManagement.sol:CONTRewardManagement",
        "label": "_brokeevenContract",
        "offset": 0,
        "slot": "16",
        "type": "t_mapping(t_address,t_mapping(t_uint256,t_bool))"
      }
    ],
    "types": {
      "t_address": {
        "encoding": "inplace",
        "label": "address",
        "numberOfBytes": "20"
      },
      "t_array(t_address)dyn_storage": {
        "base": "t_address",
        "encoding": "dynamic_array",
        "label": "address[]",
        "numberOfBytes": "32"
      },
      "t_array(t_struct(APRChangesEntry)5204_storage)dyn_storage": {
        "base": "t_struct(APRChangesEntry)5204_storage",
        "encoding": "dynamic_array",
        "label": "struct CONTRewardManagement.APRChangesEntry[]",
        "numberOfBytes": "32"
      },
      "t_array(t_struct(ContEntity)5199_storage)dyn_storage": {
        "base": "t_struct(ContEntity)5199_storage",
        "encoding": "dynamic_array",
        "label": "struct CONTRewardManagement.ContEntity[]",
        "numberOfBytes": "32"
      },
      "t_bool": {
        "encoding": "inplace",
        "label": "bool",
        "numberOfBytes": "1"
      },
      "t_enum(ContType)5173": {
        "encoding": "inplace",
        "label": "enum ContType",
        "numberOfBytes": "1"
      },
      "t_int256": {
        "encoding": "inplace",
        "label": "int256",
        "numberOfBytes": "32"
      },
      "t_mapping(t_address,t_array(t_struct(ContEntity)5199_storage)dyn_storage)": {
        "encoding": "mapping",
        "key": "t_address",
        "label": "mapping(address => struct CONTRewardManagement.ContEntity[])",
        "numberOfBytes": "32",
        "value": "t_array(t_struct(ContEntity)5199_storage)dyn_storage"
      },
      "t_mapping(t_address,t_bool)": {
        "encoding": "mapping",
        "key": "t_address",
        "label": "mapping(address => bool)",
        "numberOfBytes": "32",
        "value": "t_bool"
      },
      "t_mapping(t_address,t_mapping(t_uint256,t_bool))": {
        "encoding": "mapping",
        "key": "t_address",
        "label": "mapping(address => mapping(uint256 => bool))",
        "numberOfBytes": "32",
        "value": "t_mapping(t_uint256,t_bool)"
      },
      "t_mapping(t_address,t_uint256)": {
        "encoding": "mapping",
        "key": "t_address",
        "label": "mapping(address => uint256)",
        "numberOfBytes": "32",
        "value": "t_uint256"
      },
      "t_mapping(t_enum(ContType)5173,t_array(t_struct(APRChangesEntry)5204_storage)dyn_storage)": {
        "encoding": "mapping",
        "key": "t_enum(ContType)5173",
        "label": "mapping(enum ContType => struct CONTRewardManagement.APRChangesEntry[])",
        "numberOfBytes": "32",
        "value": "t_array(t_struct(APRChangesEntry)5204_storage)dyn_storage"
      },
      "t_mapping(t_enum(ContType)5173,t_uint256)": {
        "encoding": "mapping",
        "key": "t_enum(ContType)5173",
        "label": "mapping(enum ContType => uint256)",
        "numberOfBytes": "32",
        "value": "t_uint256"
      },
      "t_mapping(t_uint256,t_bool)": {
        "encoding": "mapping",
        "key": "t_uint256",
        "label": "mapping(uint256 => bool)",
        "numberOfBytes": "32",
        "value": "t_bool"
      },
      "t_string_storage": {
        "encoding": "bytes",
        "label": "string",
        "numberOfBytes": "32"
      },
      "t_struct(APRChangesEntry)5204_storage": {
        "encoding": "inplace",
        "label": "struct CONTRewardManagement.APRChangesEntry",
        "members": [
          {
            "astId": 5201,
            "contract": "contracts/dependencies/CONTRewardManagement.sol:CONTRewardManagement",
            "label": "timestamp",
            "offset": 0,
            "slot": "0",
            "type": "t_uint256"
          },
          {
            "astId": 5203,
            "contract": "contracts/dependencies/CONTRewardManagement.sol:CONTRewardManagement",
            "label": "reducedPercentage",
            "offset": 0,
            "slot": "1",
            "type": "t_int256"
          }
        ],
        "numberOfBytes": "64"
      },
      "t_struct(ContEntity)5199_storage": {
        "encoding": "inplace",
        "label": "struct CONTRewardManagement.ContEntity",
        "members": [
          {
            "astId": 5187,
            "contract": "contracts/dependencies/CONTRewardManagement.sol:CONTRewardManagement",
            "label": "name",
            "offset": 0,
            "slot": "0",
            "type": "t_string_storage"
          },
          {
            "astId": 5189,
            "contract": "contracts/dependencies/CONTRewardManagement.sol:CONTRewardManagement",
            "label": "creationTime",
            "offset": 0,
            "slot": "1",
            "type": "t_uint256"
          },
          {
            "astId": 5191,
            "contract": "contracts/dependencies/CONTRewardManagement.sol:CONTRewardManagement",
            "label": "lastUpdateTime",
            "offset": 0,
            "slot": "2",
            "type": "t_uint256"
          },
          {
            "astId": 5193,
            "contract": "contracts/dependencies/CONTRewardManagement.sol:CONTRewardManagement",
            "label": "initialAPR",
            "offset": 0,
            "slot": "3",
            "type": "t_uint256"
          },
          {
            "astId": 5195,
            "contract": "contracts/dependencies/CONTRewardManagement.sol:CONTRewardManagement",
            "label": "buyPrice",
            "offset": 0,
            "slot": "4",
            "type": "t_uint256"
          },
          {
            "astId": 5198,
            "contract": "contracts/dependencies/CONTRewardManagement.sol:CONTRewardManagement",
            "label": "cType",
            "offset": 0,
            "slot": "5",
            "type": "t_enum(ContType)5173"
          }
        ],
        "numberOfBytes": "192"
      },
      "t_struct(Map)13674_storage": {
        "encoding": "inplace",
        "label": "struct IterableMapping.Map",
        "members": [
          {
            "astId": 13661,
            "contract": "contracts/dependencies/CONTRewardManagement.sol:CONTRewardManagement",
            "label": "keys",
            "offset": 0,
            "slot": "0",
            "type": "t_array(t_address)dyn_storage"
          },
          {
            "astId": 13665,
            "contract": "contracts/dependencies/CONTRewardManagement.sol:CONTRewardManagement",
            "label": "values",
            "offset": 0,
            "slot": "1",
            "type": "t_mapping(t_address,t_uint256)"
          },
          {
            "astId": 13669,
            "contract": "contracts/dependencies/CONTRewardManagement.sol:CONTRewardManagement",
            "label": "indexOf",
            "offset": 0,
            "slot": "2",
            "type": "t_mapping(t_address,t_uint256)"
          },
          {
            "astId": 13673,
            "contract": "contracts/dependencies/CONTRewardManagement.sol:CONTRewardManagement",
            "label": "inserted",
            "offset": 0,
            "slot": "3",
            "type": "t_mapping(t_address,t_bool)"
          }
        ],
        "numberOfBytes": "128"
      },
      "t_uint256": {
        "encoding": "inplace",
        "label": "uint256",
        "numberOfBytes": "32"
      }
    }
  }
}