{
  "address": "0x3A1CA25FBdedD9dA61bE594Afe8EbE765a1663A7",
  "abi": [
    {
      "inputs": [
        {
          "internalType": "address",
          "name": "account",
          "type": "address"
        }
      ],
      "name": "_cashoutAllContsReward",
      "outputs": [
        {
          "internalType": "uint256",
          "name": "",
          "type": "uint256"
        }
      ],
      "stateMutability": "nonpayable",
      "type": "function"
    },
    {
      "inputs": [
        {
          "internalType": "address",
          "name": "account",
          "type": "address"
        },
        {
          "internalType": "uint256",
          "name": "_contIndex",
          "type": "uint256"
        }
      ],
      "name": "_cashoutContReward",
      "outputs": [
        {
          "internalType": "uint256",
          "name": "",
          "type": "uint256"
        }
      ],
      "stateMutability": "nonpayable",
      "type": "function"
    },
    {
      "inputs": [
        {
          "internalType": "uint256",
          "name": "newInterval",
          "type": "uint256"
        }
      ],
      "name": "_changeAutoReduceAPRInterval",
      "outputs": [],
      "stateMutability": "nonpayable",
      "type": "function"
    },
    {
      "inputs": [
        {
          "internalType": "uint256",
          "name": "newRate",
          "type": "uint256"
        }
      ],
      "name": "_changeAutoReduceAPRRate",
      "outputs": [],
      "stateMutability": "nonpayable",
      "type": "function"
    },
    {
      "inputs": [
        {
          "internalType": "uint256",
          "name": "newTime",
          "type": "uint256"
        }
      ],
      "name": "_changeCashoutTimeout",
      "outputs": [],
      "stateMutability": "nonpayable",
      "type": "function"
    },
    {
      "inputs": [
        {
          "internalType": "enum ContType",
          "name": "_cType",
          "type": "uint8"
        },
        {
          "internalType": "uint256",
          "name": "newPrice",
          "type": "uint256"
        }
      ],
      "name": "_changeContPrice",
      "outputs": [],
      "stateMutability": "nonpayable",
      "type": "function"
    },
    {
      "inputs": [
        {
          "internalType": "enum ContType",
          "name": "_cType",
          "type": "uint8"
        },
        {
          "internalType": "int256",
          "name": "reducedPercentage",
          "type": "int256"
        }
      ],
      "name": "_changeRewardAPRPerCont",
      "outputs": [],
      "stateMutability": "nonpayable",
      "type": "function"
    },
    {
      "inputs": [
        {
          "internalType": "address",
          "name": "account",
          "type": "address"
        }
      ],
      "name": "_getContNumberOf",
      "outputs": [
        {
          "internalType": "uint256",
          "name": "",
          "type": "uint256"
        }
      ],
      "stateMutability": "view",
      "type": "function"
    },
    {
      "inputs": [
        {
          "internalType": "address",
          "name": "account",
          "type": "address"
        }
      ],
      "name": "_getContsCreationTime",
      "outputs": [
        {
          "internalType": "string",
          "name": "",
          "type": "string"
        }
      ],
      "stateMutability": "view",
      "type": "function"
    },
    {
      "inputs": [
        {
          "internalType": "address",
          "name": "account",
          "type": "address"
        }
      ],
      "name": "_getContsCurrentAPR",
      "outputs": [
        {
          "internalType": "string",
          "name": "",
          "type": "string"
        }
      ],
      "stateMutability": "view",
      "type": "function"
    },
    {
      "inputs": [
        {
          "internalType": "address",
          "name": "account",
          "type": "address"
        }
      ],
      "name": "_getContsInitialAPR",
      "outputs": [
        {
          "internalType": "string",
          "name": "",
          "type": "string"
        }
      ],
      "stateMutability": "view",
      "type": "function"
    },
    {
      "inputs": [
        {
          "internalType": "address",
          "name": "account",
          "type": "address"
        }
      ],
      "name": "_getContsLastUpdateTime",
      "outputs": [
        {
          "internalType": "string",
          "name": "",
          "type": "string"
        }
      ],
      "stateMutability": "view",
      "type": "function"
    },
    {
      "inputs": [
        {
          "internalType": "address",
          "name": "account",
          "type": "address"
        }
      ],
      "name": "_getContsNames",
      "outputs": [
        {
          "internalType": "string",
          "name": "",
          "type": "string"
        }
      ],
      "stateMutability": "view",
      "type": "function"
    },
    {
      "inputs": [
        {
          "internalType": "address",
          "name": "account",
          "type": "address"
        }
      ],
      "name": "_getContsRewardAvailable",
      "outputs": [
        {
          "internalType": "string",
          "name": "",
          "type": "string"
        }
      ],
      "stateMutability": "view",
      "type": "function"
    },
    {
      "inputs": [
        {
          "internalType": "address",
          "name": "account",
          "type": "address"
        }
      ],
      "name": "_getContsTypes",
      "outputs": [
        {
          "internalType": "string",
          "name": "",
          "type": "string"
        }
      ],
      "stateMutability": "view",
      "type": "function"
    },
    {
      "inputs": [
        {
          "internalType": "address",
          "name": "account",
          "type": "address"
        }
      ],
      "name": "_getRewardAmountOf",
      "outputs": [
        {
          "internalType": "uint256",
          "name": "",
          "type": "uint256"
        }
      ],
      "stateMutability": "view",
      "type": "function"
    },
    {
      "inputs": [
        {
          "internalType": "address",
          "name": "account",
          "type": "address"
        },
        {
          "internalType": "uint256",
          "name": "_contIndex",
          "type": "uint256"
        }
      ],
      "name": "_getRewardAmountOfIndex",
      "outputs": [
        {
          "internalType": "uint256",
          "name": "",
          "type": "uint256"
        }
      ],
      "stateMutability": "view",
      "type": "function"
    },
    {
      "inputs": [
        {
          "internalType": "address",
          "name": "account",
          "type": "address"
        }
      ],
      "name": "_isContOwner",
      "outputs": [
        {
          "internalType": "bool",
          "name": "",
          "type": "bool"
        }
      ],
      "stateMutability": "view",
      "type": "function"
    },
    {
      "inputs": [
        {
          "internalType": "enum ContType",
          "name": "_cType",
          "type": "uint8"
        },
        {
          "internalType": "uint256",
          "name": "_initialPrice",
          "type": "uint256"
        }
      ],
      "name": "_resetAllAPRChange",
      "outputs": [],
      "stateMutability": "nonpayable",
      "type": "function"
    },
    {
      "inputs": [
        {
          "internalType": "enum ContType",
          "name": "_cType",
          "type": "uint8"
        }
      ],
      "name": "_undoRewardAPRChange",
      "outputs": [],
      "stateMutability": "nonpayable",
      "type": "function"
    },
    {
      "inputs": [],
      "name": "_updateAdminDashboard",
      "outputs": [],
      "stateMutability": "nonpayable",
      "type": "function"
    },
    {
      "inputs": [],
      "name": "admin0XB",
      "outputs": [
        {
          "internalType": "address",
          "name": "",
          "type": "address"
        }
      ],
      "stateMutability": "view",
      "type": "function"
    },
    {
      "inputs": [],
      "name": "autoReduceAPRInterval",
      "outputs": [
        {
          "internalType": "uint256",
          "name": "",
          "type": "uint256"
        }
      ],
      "stateMutability": "view",
      "type": "function"
    },
    {
      "inputs": [],
      "name": "autoReduceAPRRate",
      "outputs": [
        {
          "internalType": "uint256",
          "name": "",
          "type": "uint256"
        }
      ],
      "stateMutability": "view",
      "type": "function"
    },
    {
      "inputs": [
        {
          "internalType": "enum ContType",
          "name": "_cType",
          "type": "uint8"
        }
      ],
      "name": "breakevenContsPerType",
      "outputs": [
        {
          "internalType": "uint256",
          "name": "",
          "type": "uint256"
        }
      ],
      "stateMutability": "view",
      "type": "function"
    },
    {
      "inputs": [],
      "name": "cashoutTimeout",
      "outputs": [
        {
          "internalType": "uint256",
          "name": "",
          "type": "uint256"
        }
      ],
      "stateMutability": "view",
      "type": "function"
    },
    {
      "inputs": [
        {
          "internalType": "enum ContType",
          "name": "_cType",
          "type": "uint8"
        }
      ],
      "name": "claimedRewardsPerType",
      "outputs": [
        {
          "internalType": "uint256",
          "name": "",
          "type": "uint256"
        }
      ],
      "stateMutability": "view",
      "type": "function"
    },
    {
      "inputs": [
        {
          "internalType": "enum ContType",
          "name": "",
          "type": "uint8"
        }
      ],
      "name": "contPrice",
      "outputs": [
        {
          "internalType": "uint256",
          "name": "",
          "type": "uint256"
        }
      ],
      "stateMutability": "view",
      "type": "function"
    },
    {
      "inputs": [
        {
          "internalType": "address",
          "name": "account",
          "type": "address"
        },
        {
          "internalType": "string[]",
          "name": "contNames",
          "type": "string[]"
        },
        {
          "internalType": "enum ContType",
          "name": "_cType",
          "type": "uint8"
        }
      ],
      "name": "createConts",
      "outputs": [],
      "stateMutability": "nonpayable",
      "type": "function"
    },
    {
      "inputs": [
        {
          "internalType": "enum ContType",
          "name": "_cType",
          "type": "uint8"
        }
      ],
      "name": "currentRewardAPRPerNewCont",
      "outputs": [
        {
          "internalType": "uint256",
          "name": "",
          "type": "uint256"
        }
      ],
      "stateMutability": "view",
      "type": "function"
    },
    {
      "inputs": [
        {
          "internalType": "enum ContType",
          "name": "",
          "type": "uint8"
        }
      ],
      "name": "initRewardAPRPerCont",
      "outputs": [
        {
          "internalType": "uint256",
          "name": "",
          "type": "uint256"
        }
      ],
      "stateMutability": "view",
      "type": "function"
    },
    {
      "inputs": [
        {
          "internalType": "uint256[]",
          "name": "_contPrices",
          "type": "uint256[]"
        },
        {
          "internalType": "uint256[]",
          "name": "_rewardAPRs",
          "type": "uint256[]"
        },
        {
          "internalType": "uint256",
          "name": "_cashoutTimeout",
          "type": "uint256"
        },
        {
          "internalType": "uint256",
          "name": "_autoReduceAPRRate",
          "type": "uint256"
        }
      ],
      "name": "initialize",
      "outputs": [],
      "stateMutability": "nonpayable",
      "type": "function"
    },
    {
      "inputs": [
        {
          "internalType": "address",
          "name": "newAdmin",
          "type": "address"
        }
      ],
      "name": "setAdmin",
      "outputs": [],
      "stateMutability": "nonpayable",
      "type": "function"
    },
    {
      "inputs": [
        {
          "internalType": "address",
          "name": "token_",
          "type": "address"
        }
      ],
      "name": "setToken",
      "outputs": [],
      "stateMutability": "nonpayable",
      "type": "function"
    },
    {
      "inputs": [],
      "name": "token",
      "outputs": [
        {
          "internalType": "address",
          "name": "",
          "type": "address"
        }
      ],
      "stateMutability": "view",
      "type": "function"
    },
    {
      "inputs": [
        {
          "internalType": "enum ContType",
          "name": "_cType",
          "type": "uint8"
        }
      ],
      "name": "tokensReceivedPerType",
      "outputs": [
        {
          "internalType": "uint256",
          "name": "",
          "type": "uint256"
        }
      ],
      "stateMutability": "view",
      "type": "function"
    },
    {
      "inputs": [],
      "name": "totalContsCreated",
      "outputs": [
        {
          "internalType": "uint256",
          "name": "",
          "type": "uint256"
        }
      ],
      "stateMutability": "view",
      "type": "function"
    },
    {
      "inputs": [
        {
          "internalType": "enum ContType",
          "name": "_cType",
          "type": "uint8"
        }
      ],
      "name": "totalContsPerType",
      "outputs": [
        {
          "internalType": "uint256",
          "name": "",
          "type": "uint256"
        }
      ],
      "stateMutability": "view",
      "type": "function"
    }
  ],
  "transactionHash": "0x7d4ec6b48a011caa4c8332f9f0ba070381bc65e0f957a98bb939e2ac3f0a992a",
  "args": [],
  "numDeployments": 4,
  "solcInputHash": "6ec92481d39d7a1a778d38ec4944a306",
  "bytecode": "0x608060405234801561001057600080fd5b50613efa806100206000396000f3fe608060405234801561001057600080fd5b50600436106102315760003560e01c8063619a635e116101305780638bf14514116100b8578063c2202b661161007c578063c2202b66146104e4578063d094fa8d146104f7578063e18f03ad1461050a578063f743f31914610513578063fc0c546a1461052657600080fd5b80638bf145141461049957806393520a80146104ac5780639b28d1a7146104b55780639d2040f0146104be5780639f227c53146104d157600080fd5b8063704b6c02116100ff578063704b6c02146104225780637091d1081461043557806377ec7826146104485780638201bf261461045b578063872a60ad1461046e57600080fd5b8063619a635e146103b957806363a9b098146103cc578063665bb078146103ec5780636eb5a7f41461040f57600080fd5b80631d5a1731116101be57806344fea1b91161018257806344fea1b9146103575780634f88de011461036a57806351bf120c1461038a57806355a757d01461039d5780635dbab6ed146103a657600080fd5b80631d5a1731146102eb57806328cceb24146102fe578063367fd0741461031e578063390c991e146103315780633bf20e601461034457600080fd5b80630d9f9f0c116102055780630d9f9f0c14610297578063144fa6d7146102aa578063150bf591146102bd5780631565f50e146102c55780631c3b4adb146102d857600080fd5b8062c73e4d146102365780630534cc681461025c5780630835209f146102715780630b9f6cfe14610284575b600080fd5b610249610244366004613b4c565b610539565b6040519081526020015b60405180910390f35b61026f61026a366004613983565b610639565b005b61024961027f366004613b4c565b6108f1565b610249610292366004613aae565b610930565b61026f6102a5366004613b83565b610b14565b61026f6102b8366004613968565b610b58565b61026f610bfe565b61026f6102d3366004613b83565b61106a565b6102496102e6366004613b4c565b6110ae565b61026f6102f9366004613b67565b6110c6565b61031161030c366004613968565b611142565b6040516102539190613c20565b61031161032c366004613968565b61138a565b61026f61033f366004613b83565b6115f9565b610249610352366004613b4c565b61163d565b610249610365366004613968565b611655565b610249610378366004613b4c565b60076020526000908152604090205481565b610311610398366004613968565b611675565b61024960095481565b6103116103b4366004613968565b6118b1565b6102496103c7366004613968565b611aed565b6102496103da366004613b4c565b60066020526000908152604090205481565b6103ff6103fa366004613968565b611cc5565b6040519015158152602001610253565b61026f61041d366004613ad8565b611cd0565b61026f610430366004613968565b611fa8565b610249610443366004613b4c565b61204e565b610311610456366004613968565b612066565b61026f610469366004613b4c565b6122a0565b600c54610481906001600160a01b031681565b6040516001600160a01b039091168152602001610253565b6103116104a7366004613968565b6123e1565b610249600b5481565b610249600a5481565b61026f6104cc366004613b67565b612635565b61026f6104df366004613b67565b61274a565b6102496104f2366004613aae565b6128d3565b610249610505366004613968565b612b34565b610249600e5481565b610311610521366004613968565b612e2e565b600d54610481906001600160a01b031681565b6000806008600084600281111561055257610552613e95565b600281111561056357610563613e95565b815260200190815260200160002080549050905060006007600085600281111561058f5761058f613e95565b60028111156105a0576105a0613e95565b815260200190815260200160002054905060005b828110156106315761061d82600860008860028111156105d6576105d6613e95565b60028111156105e7576105e7613e95565b8152602001908152602001600020838154811061060657610606613ec1565b906000526020600020906002020160010154613063565b91508061062981613e26565b9150506105b4565b509392505050565b600d546001600160a01b031633148061065c5750600c546001600160a01b031633145b6106815760405162461bcd60e51b815260040161067890613c53565b60405180910390fd5b6001600160a01b0383166000908152600560205260405162c73e4d60e01b8152309062c73e4d906106b6908590600401613bf8565b60206040518083038186803b1580156106ce57600080fd5b505afa1580156106e2573d6000803e3d6000fd5b505050506040513d601f19601f820116820180604052508101906107069190613b9c565b905060005b83518110156108605760056000866001600160a01b03166001600160a01b031681526020019081526020016000206040518060c0016040528086848151811061075657610756613ec1565b602002602001015181526020014281526020014281526020018481526020016006600087600281111561078b5761078b613e95565b600281111561079c5761079c613e95565b81526020019081526020016000205481526020018560028111156107c2576107c2613e95565b9052815460018101835560009283526020928390208251805193946006909302909101926107f392849201906137b2565b506020820151816001015560408201518160020155606082015181600301556080820151816004015560a08201518160050160006101000a81548160ff0219169083600281111561084657610846613e95565b02179055505050808061085890613e26565b91505061070b565b506001600160a01b038416600090815260056020526040902054610888906001908690613097565b8251600e600082825461089b9190613cd0565b90915550508251600f60008460028111156108b8576108b8613e95565b60028111156108c9576108c9613e95565b815260200190815260200160002060008282546108e69190613cd0565b909155505050505050565b60006010600083600281111561090957610909613e95565b600281111561091a5761091a613e95565b8152602001908152602001600020549050919050565b6001600160a01b038216600090815260056020908152604080832080548251818502810185019093528083528493849084015b82821015610a8257838290600052602060002090600602016040518060c001604052908160008201805461099690613deb565b80601f01602080910402602001604051908101604052809291908181526020018280546109c290613deb565b8015610a0f5780601f106109e457610100808354040283529160200191610a0f565b820191906000526020600020905b8154815290600101906020018083116109f257829003601f168201915b50505091835250506001820154602082015260028083015460408301526003830154606083015260048301546080830152600583015460a09092019160ff1690811115610a5e57610a5e613e95565b6002811115610a6f57610a6f613e95565b8152505081526020019060010190610963565b505082519293505050808410610ada5760405162461bcd60e51b815260206004820152601c60248201527f434f4e543a20436f6e7420696e64657820697320696d70726f706572000000006044820152606401610678565b6000828581518110610aee57610aee613ec1565b602002602001015190506000610b0982836040015142613140565b979650505050505050565b600d546001600160a01b0316331480610b375750600c546001600160a01b031633145b610b535760405162461bcd60e51b815260040161067890613c53565b600b55565b600d546001600160a01b0316331480610b7b5750600c546001600160a01b031633145b610b975760405162461bcd60e51b815260040161067890613c53565b6001600160a01b038116610bdc5760405162461bcd60e51b815260206004820152600c60248201526b7a65726f206164647265737360a01b6044820152606401610678565b600d80546001600160a01b0319166001600160a01b0392909216919091179055565b600d546001600160a01b0316331480610c215750600c546001600160a01b031633145b610c3d5760405162461bcd60e51b815260040161067890613c53565b60408051606080820183526000808352602080840182905283850182905284518084018652828152808201839052808601839052855193840186528284529083018290529382018190529290835b6001548167ffffffffffffffff161015610f24576000610cb6600167ffffffffffffffff841661346e565b905060005b6001600160a01b03821660009081526005602052604090205463ffffffff82161015610f0f576001600160a01b0382166000908152600560205260408120805463ffffffff8416908110610d1157610d11613ec1565b90600052602060002090600602016040518060c0016040529081600082018054610d3a90613deb565b80601f0160208091040260200160405190810160405280929190818152602001828054610d6690613deb565b8015610db35780601f10610d8857610100808354040283529160200191610db3565b820191906000526020600020905b815481529060010190602001808311610d9657829003601f168201915b50505091835250506001820154602082015260028083015460408301526003830154606083015260048301546080830152600583015460a09092019160ff1690811115610e0257610e02613e95565b6002811115610e1357610e13613e95565b9052506020810151909150610e29828242613140565b826080015111610e6e57878260a001516002811115610e4a57610e4a613e95565b60038110610e5a57610e5a613ec1565b60200201805190610e6a82613e26565b9052505b610e7d82828460400151613140565b878360a001516002811115610e9457610e94613e95565b60038110610ea457610ea4613ec1565b60200201818151610eb59190613cd0565b905250608082015160a083015187906002811115610ed557610ed5613e95565b60038110610ee557610ee5613ec1565b60200201818151610ef69190613cd0565b905250829150610f07905081613e41565b915050610cbb565b50508080610f1c90613e65565b915050610c8b565b5060005b600381101561106357838160038110610f4357610f43613ec1565b602002015160106000836002811115610f5e57610f5e613e95565b6002811115610f6f57610f6f613e95565b6002811115610f8057610f80613e95565b8152602081019190915260400160002055828160038110610fa357610fa3613ec1565b602002015160116000836002811115610fbe57610fbe613e95565b6002811115610fcf57610fcf613e95565b6002811115610fe057610fe0613e95565b815260208101919091526040016000205581816003811061100357611003613ec1565b60200201516012600083600281111561101e5761101e613e95565b600281111561102f5761102f613e95565b600281111561104057611040613e95565b81526020810191909152604001600020558061105b81613e26565b915050610f28565b5050505050565b600d546001600160a01b031633148061108d5750600c546001600160a01b031633145b6110a95760405162461bcd60e51b815260040161067890613c53565b600a55565b60006012600083600281111561090957610909613e95565b600d546001600160a01b03163314806110e95750600c546001600160a01b031633145b6111055760405162461bcd60e51b815260040161067890613c53565b806006600084600281111561111c5761111c613e95565b600281111561112d5761112d613e95565b81526020810191909152604001600020555050565b606061114d826134a1565b61116557505060408051602081019091526000815290565b6001600160a01b038216600090815260056020908152604080832080548251818502810185019093528083529192909190849084015b828210156112ba57838290600052602060002090600602016040518060c00160405290816000820180546111ce90613deb565b80601f01602080910402602001604051908101604052809291908181526020018280546111fa90613deb565b80156112475780601f1061121c57610100808354040283529160200191611247565b820191906000526020600020905b81548152906001019060200180831161122a57829003601f168201915b50505091835250506001820154602082015260028083015460408301526003830154606083015260048301546080830152600583015460a09092019160ff169081111561129657611296613e95565b60028111156112a7576112a7613e95565b815250508152602001906001019061119b565b5050505090506000815190506112ce613836565b60006112f7846000815181106112e6576112e6613ec1565b6020026020010151602001516134be565b604080518082019091526001808252602360f81b6020830152919250905b8481101561137e5785818151811061132f5761132f613ec1565b60200260200101519350828261134886602001516134be565b60405160200161135a93929190613bb5565b6040516020818303038152906040529250808061137690613e26565b915050611315565b50909695505050505050565b6060611395826134a1565b6113ad57505060408051602081019091526000815290565b6001600160a01b038216600090815260056020908152604080832080548251818502810185019093528083529192909190849084015b8282101561150257838290600052602060002090600602016040518060c001604052908160008201805461141690613deb565b80601f016020809104026020016040519081016040528092919081815260200182805461144290613deb565b801561148f5780601f106114645761010080835404028352916020019161148f565b820191906000526020600020905b81548152906001019060200180831161147257829003601f168201915b50505091835250506001820154602082015260028083015460408301526003830154606083015260048301546080830152600583015460a09092019160ff16908111156114de576114de613e95565b60028111156114ef576114ef613e95565b81525050815260200190600101906113e3565b505082519293504291506000905061155761155285838661152557611525613ec1565b60200260200101518660008151811061154057611540613ec1565b60200260200101516040015185613140565b6134be565b604080518082019091526001808252602360f81b6020830152919250905b8481101561137e5782826115c361155289858151811061159757611597613ec1565b60200260200101518a86815181106115b1576115b1613ec1565b60200260200101516040015189613140565b6040516020016115d593929190613bb5565b604051602081830303815290604052925080806115f190613e26565b915050611575565b600d546001600160a01b031633148061161c5750600c546001600160a01b031633145b6116385760405162461bcd60e51b815260040161067890613c53565b600955565b6000600f600083600281111561090957610909613e95565b6001600160a01b0381166000908152600260205260408120545b92915050565b6060611680826134a1565b61169857505060408051602081019091526000815290565b6001600160a01b038216600090815260056020908152604080832080548251818502810185019093528083529192909190849084015b828210156117ed57838290600052602060002090600602016040518060c001604052908160008201805461170190613deb565b80601f016020809104026020016040519081016040528092919081815260200182805461172d90613deb565b801561177a5780601f1061174f5761010080835404028352916020019161177a565b820191906000526020600020905b81548152906001019060200180831161175d57829003601f168201915b50505091835250506001820154602082015260028083015460408301526003830154606083015260048301546080830152600583015460a09092019160ff16908111156117c9576117c9613e95565b60028111156117da576117da613e95565b81525050815260200190600101906116ce565b505050509050600081519050611801613836565b600061182a8460008151811061181957611819613ec1565b6020026020010151604001516134be565b604080518082019091526001808252602360f81b6020830152919250905b8481101561137e5785818151811061186257611862613ec1565b60200260200101519350828261187b86604001516134be565b60405160200161188d93929190613bb5565b604051602081830303815290604052925080806118a990613e26565b915050611848565b60606118bc826134a1565b6118d457505060408051602081019091526000815290565b6001600160a01b038216600090815260056020908152604080832080548251818502810185019093528083529192909190849084015b82821015611a2957838290600052602060002090600602016040518060c001604052908160008201805461193d90613deb565b80601f016020809104026020016040519081016040528092919081815260200182805461196990613deb565b80156119b65780601f1061198b576101008083540402835291602001916119b6565b820191906000526020600020905b81548152906001019060200180831161199957829003601f168201915b50505091835250506001820154602082015260028083015460408301526003830154606083015260048301546080830152600583015460a09092019160ff1690811115611a0557611a05613e95565b6002811115611a1657611a16613e95565b815250508152602001906001019061190a565b505050509050600081519050611a3d613836565b6000611a6684600081518110611a5557611a55613ec1565b6020026020010151606001516134be565b604080518082019091526001808252602360f81b6020830152919250905b8481101561137e57858181518110611a9e57611a9e613ec1565b602002602001015193508282611ab786606001516134be565b604051602001611ac993929190613bb5565b60405160208183030381529060405292508080611ae590613e26565b915050611a84565b6000611af8826134a1565b611b0457506000919050565b6001600160a01b038216600090815260056020908152604080832080548251818502810185019093528083528493849084015b82821015611c5657838290600052602060002090600602016040518060c0016040529081600082018054611b6a90613deb565b80601f0160208091040260200160405190810160405280929190818152602001828054611b9690613deb565b8015611be35780601f10611bb857610100808354040283529160200191611be3565b820191906000526020600020905b815481529060010190602001808311611bc657829003601f168201915b50505091835250506001820154602082015260028083015460408301526003830154606083015260048301546080830152600583015460a09092019160ff1690811115611c3257611c32613e95565b6002811115611c4357611c43613e95565b8152505081526020019060010190611b37565b50508251929350429150600090505b82811015611cba576000848281518110611c8157611c81613ec1565b60200260200101519050611c9a81826040015185613140565b611ca49087613cd0565b9550508080611cb290613e26565b915050611c65565b509295945050505050565b600061166f826134a1565b600054610100900460ff16611ceb5760005460ff1615611cef565b303b155b611d525760405162461bcd60e51b815260206004820152602e60248201527f496e697469616c697a61626c653a20636f6e747261637420697320616c72656160448201526d191e481a5b9a5d1a585b1a5e995960921b6064820152608401610678565b600054610100900460ff16158015611d74576000805461ffff19166101011790555b6301e13380600a556000600e81905542905b6003811015611f7257868181518110611da157611da1613ec1565b602002602001015160066000836002811115611dbf57611dbf613e95565b6002811115611dd057611dd0613e95565b6002811115611de157611de1613e95565b815260200190815260200160002081905550858181518110611e0557611e05613ec1565b602002602001015160076000836002811115611e2357611e23613e95565b6002811115611e3457611e34613e95565b6002811115611e4557611e45613e95565b8152602001908152602001600020819055506000600f6000836002811115611e6f57611e6f613e95565b6002811115611e8057611e80613e95565b6002811115611e9157611e91613e95565b81526020019081526020016000208190555060086000826002811115611eb957611eb9613e95565b6002811115611eca57611eca613e95565b6002811115611edb57611edb613e95565b81526020015260086000826002811115611ef757611ef7613e95565b6002811115611f0857611f08613e95565b6002811115611f1957611f19613e95565b815260208082019290925260409081016000908120825180840190935285835282840182815281546001818101845592845294909220925160029094029092019283555191015580611f6a81613e26565b915050611d86565b50506009839055600c80546001600160a01b03191633179055600b8290558015611063576000805461ff00191690555050505050565b600d546001600160a01b0316331480611fcb5750600c546001600160a01b031633145b611fe75760405162461bcd60e51b815260040161067890613c53565b6001600160a01b03811661202c5760405162461bcd60e51b815260206004820152600c60248201526b7a65726f206164647265737360a01b6044820152606401610678565b600c80546001600160a01b0319166001600160a01b0392909216919091179055565b60006011600083600281111561090957610909613e95565b6060612071826134a1565b61208957505060408051602081019091526000815290565b6001600160a01b038216600090815260056020908152604080832080548251818502810185019093528083529192909190849084015b828210156121de57838290600052602060002090600602016040518060c00160405290816000820180546120f290613deb565b80601f016020809104026020016040519081016040528092919081815260200182805461211e90613deb565b801561216b5780601f106121405761010080835404028352916020019161216b565b820191906000526020600020905b81548152906001019060200180831161214e57829003601f168201915b50505091835250506001820154602082015260028083015460408301526003830154606083015260048301546080830152600583015460a09092019160ff16908111156121ba576121ba613e95565b60028111156121cb576121cb613e95565b81525050815260200190600101906120bf565b5050505090506000815190506121f2613836565b600061221a6115528560008151811061220d5761220d613ec1565b60200260200101516135e7565b604080518082019091526001808252602360f81b6020830152919250905b8481101561137e5785818151811061225257612252613ec1565b60200260200101519350828261226a611552876135e7565b60405160200161227c93929190613bb5565b6040516020818303038152906040529250808061229890613e26565b915050612238565b600d546001600160a01b03163314806122c35750600c546001600160a01b031633145b6122df5760405162461bcd60e51b815260040161067890613c53565b6000600860008360028111156122f7576122f7613e95565b600281111561230857612308613e95565b815260208101919091526040016000205490506001811161237b5760405162461bcd60e51b815260206004820152602760248201527f554e444f204348414e47453a204e6f206368616e67657320666f756e6420666f6044820152667220635479706560c81b6064820152608401610678565b6008600083600281111561239157612391613e95565b60028111156123a2576123a2613e95565b81526020019081526020016000208054806123bf576123bf613eab565b6000828152602081206002600019909301928302018181556001015590555050565b60606123ec826134a1565b61240457505060408051602081019091526000815290565b6001600160a01b038216600090815260056020908152604080832080548251818502810185019093528083529192909190849084015b8282101561255957838290600052602060002090600602016040518060c001604052908160008201805461246d90613deb565b80601f016020809104026020016040519081016040528092919081815260200182805461249990613deb565b80156124e65780601f106124bb576101008083540402835291602001916124e6565b820191906000526020600020905b8154815290600101906020018083116124c957829003601f168201915b50505091835250506001820154602082015260028083015460408301526003830154606083015260048301546080830152600583015460a09092019160ff169081111561253557612535613e95565b600281111561254657612546613e95565b815250508152602001906001019061243a565b50505050905060008151905061256d613836565b60006125a28460008151811061258557612585613ec1565b602002602001015160a00151600281111561155257611552613e95565b604080518082019091526001808252602360f81b6020830152919250905b8481101561137e578581815181106125da576125da613ec1565b6020026020010151935082826125ff8660a00151600281111561155257611552613e95565b60405160200161261193929190613bb5565b6040516020818303038152906040529250808061262d90613e26565b9150506125c0565b600d546001600160a01b03163314806126585750600c546001600160a01b031633145b6126745760405162461bcd60e51b815260040161067890613c53565b6305f5e10081126126d85760405162461bcd60e51b815260206004820152602860248201527f5245445543455f5257443a20646f206e6f7420726564756365206d6f7265207460448201526768616e203130302560c01b6064820152608401610678565b600860008360028111156126ee576126ee613e95565b60028111156126ff576126ff613e95565b81526020808201929092526040908101600090812082518084019093524283528284019485528054600181810183559183529390912091516002909302909101918255915191015550565b600d546001600160a01b031633148061276d5750600c546001600160a01b031633145b6127895760405162461bcd60e51b815260040161067890613c53565b80600760008460028111156127a0576127a0613e95565b60028111156127b1576127b1613e95565b8152602001908152602001600020819055506000600860008460028111156127db576127db613e95565b60028111156127ec576127ec613e95565b815260200190815260200160002060008154811061280c5761280c613ec1565b90600052602060002090600202016000015490506008600084600281111561283657612836613e95565b600281111561284757612847613e95565b81526020019081526020016000206000612861919061387c565b6008600084600281111561287757612877613e95565b600281111561288857612888613e95565b81526020808201929092526040908101600090812082518084019093529382528183018181528454600181810187559583529390912091516002909302909101918255519101555050565b600d546000906001600160a01b03163314806128f95750600c546001600160a01b031633145b6129155760405162461bcd60e51b815260040161067890613c53565b6001600160a01b0383166000908152600560205260409020805483106129715760405162461bcd60e51b815260206004820152601160248201527021a7a72a1d1024b73232bc1022b93937b960791b6044820152606401610678565b600081848154811061298557612985613ec1565b906000526020600020906006020190506129a281600201546135f3565b612a145760405162461bcd60e51b815260206004820152603a60248201527f434153484f5554204552524f523a20596f75206861766520746f20776169742060448201527f6265666f726520636c61696d696e67207468697320636f6e742e0000000000006064820152608401610678565b60004290506000612b21836040518060c0016040529081600082018054612a3a90613deb565b80601f0160208091040260200160405190810160405280929190818152602001828054612a6690613deb565b8015612ab35780601f10612a8857610100808354040283529160200191612ab3565b820191906000526020600020905b815481529060010190602001808311612a9657829003601f168201915b50505091835250506001820154602082015260028083015460408301526003830154606083015260048301546080830152600583015460a09092019160ff1690811115612b0257612b02613e95565b6002811115612b1357612b13613e95565b905250600285015484613140565b6002909301919091555091505092915050565b600d546000906001600160a01b0316331480612b5a5750600c546001600160a01b031633145b612b765760405162461bcd60e51b815260040161067890613c53565b6001600160a01b0382166000908152600560205260409020805480612bf55760405162461bcd60e51b815260206004820152602f60248201527f434153484f5554204552524f523a20596f7520646f6e2774206861766520636f60448201526e1b9d1cc81d1bc818d85cda0b5bdd5d608a1b6064820152608401610678565b6000804281805b85811015612c4b576000878281548110612c1857612c18613ec1565b906000526020600020906006020160020154905082811115612c38578092505b5080612c4381613e26565b915050612bfc565b50612c55816135f3565b612cc75760405162461bcd60e51b815260206004820152603a60248201527f434153484f5554204552524f523a20596f75206861766520746f20776169742060448201527f6265666f726520636c61696d696e6720616c6c20636f6e74732e0000000000006064820152608401610678565b60005b85811015612e1f57868181548110612ce457612ce4613ec1565b90600052602060002090600602019450612dfa856040518060c0016040529081600082018054612d1390613deb565b80601f0160208091040260200160405190810160405280929190818152602001828054612d3f90613deb565b8015612d8c5780601f10612d6157610100808354040283529160200191612d8c565b820191906000526020600020905b815481529060010190602001808311612d6f57829003601f168201915b50505091835250506001820154602082015260028083015460408301526003830154606083015260048301546080830152600583015460a09092019160ff1690811115612ddb57612ddb613e95565b6002811115612dec57612dec613e95565b905250600287015485613140565b612e049085613cd0565b60028601849055935080612e1781613e26565b915050612cca565b5091955050505050505b919050565b6060612e39826134a1565b612e5157505060408051602081019091526000815290565b6001600160a01b038216600090815260056020908152604080832080548251818502810185019093528083529192909190849084015b82821015612fa657838290600052602060002090600602016040518060c0016040529081600082018054612eba90613deb565b80601f0160208091040260200160405190810160405280929190818152602001828054612ee690613deb565b8015612f335780601f10612f0857610100808354040283529160200191612f33565b820191906000526020600020905b815481529060010190602001808311612f1657829003601f168201915b50505091835250506001820154602082015260028083015460408301526003830154606083015260048301546080830152600583015460a09092019160ff1690811115612f8257612f82613e95565b6002811115612f9357612f93613e95565b8152505081526020019060010190612e87565b505050509050600081519050612fba613836565b600083600081518110612fcf57612fcf613ec1565b60200260200101516000015190506000604051806040016040528060018152602001602360f81b81525090506000600190505b8481101561137e5785818151811061301c5761301c613ec1565b602002602001015193508282856000015160405160200161303f93929190613bb5565b6040516020818303038152906040529250808061305b90613e26565b915050613002565b600080613074836305f5e100613d4e565b90506305f5e1006130858286613d2f565b61308f9190613d0d565b949350505050565b6001600160a01b038216600090815260038401602052604090205460ff16156130dc576001600160a01b03821660009081526001840160205260409020819055505050565b6001600160a01b03821660008181526003850160209081526040808320805460ff19166001908117909155878101835281842086905587546002890184529184208290558101875586835291200180546001600160a01b0319169091179055505050565b6000818311156131895760405162461bcd60e51b815260206004820152601460248201527377726f6e6720747374616d707320706172616d7360601b6044820152606401610678565b83602001518310156131d05760405162461bcd60e51b815260206004820152601060248201526f1b19599d081d1cdd185b5c1cc818985960821b6044820152606401610678565b60a084015160006131e1828661360c565b608087015190915060006131f588886136e7565b6020890151909150879060009081908190819081895b600860008d600281111561322157613221613e95565b600281111561323257613232613e95565b815260208101919091526040016000205481101561339757600860008d600281111561326057613260613e95565b600281111561327157613271613e95565b8152602001908152602001600020818154811061329057613290613ec1565b90600052602060002090600202016000015496506132ae8884613791565b6132b88885613791565b14801592506132f0576132cb8884613791565b6132d6906001613cd0565b600a546132e39190613d2f565b6132ed9084613cd0565b96505b6132fa8888613d8d565b94506301e13380856305f5e1006133118c8e613d2f565b61331b9190613d0d565b6133259190613d2f565b61332f9190613d0d565b935086975083866133409190613cd0565b955081156133685761335489600b54613063565b98508061336081613dd4565b915050613385565b61338289600860008f60028111156105d6576105d6613e95565b98505b8061338f81613e26565b91505061320b565b505b8c871461345b578c95506133ad8783613791565b6133b78784613791565b14801591506133ef576133ca8783613791565b6133d5906001613cd0565b600a546133e29190613d2f565b6133ec9083613cd0565b95505b6133f98787613d8d565b93506301e13380846305f5e1006134108b8d613d2f565b61341a9190613d0d565b6134249190613d2f565b61342e9190613d0d565b9250859650828561343f9190613cd0565b945080156134565761345388600b54613063565b97505b613399565b50929d9c50505050505050505050505050565b600082600001828154811061348557613485613ec1565b6000918252602090912001546001600160a01b03169392505050565b6001600160a01b0316600090815260026020526040902054151590565b6060816134e25750506040805180820190915260018152600360fc1b602082015290565b8160005b811561350c57806134f681613e26565b91506135059050600a83613d0d565b91506134e6565b60008167ffffffffffffffff81111561352757613527613ed7565b6040519080825280601f01601f191660200182016040528015613551576020820181803683370190505b509050815b85156135de57613567600182613d8d565b90506000613576600a88613d0d565b61358190600a613d2f565b61358b9088613d8d565b613596906030613ce8565b905060008160f81b9050808484815181106135b3576135b3613ec1565b60200101906001600160f81b031916908160001a9053506135d5600a89613d0d565b97505050613556565b50949350505050565b600061166f82426136e7565b600042600954836136049190613cd0565b111592915050565b6000808060088186600281111561362557613625613e95565b600281111561363657613636613e95565b815260208101919091526040016000205490505b8181111561063157600060026136608385613cd0565b61366a9190613d0d565b9050846008600088600281111561368357613683613e95565b600281111561369457613694613e95565b815260200190815260200160002082815481106136b3576136b3613ec1565b90600052602060002090600202016000015410156136dd576136d6816001613cd0565b92506136e1565b8091505b5061364a565b602082015160a08301516060840151600092919083613706838561360c565b90506000613714848861360c565b9050815b8181101561374e5761373a84600860008860028111156105d6576105d6613e95565b93508061374681613e26565b915050613718565b50600061375b8887613791565b90505b8015613784578061376e81613dd4565b91505061377d84600b54613063565b935061375e565b5091979650505050505050565b600a546000906137a18385613d8d565b6137ab9190613d0d565b9392505050565b8280546137be90613deb565b90600052602060002090601f0160209004810192826137e05760008555613826565b82601f106137f957805160ff1916838001178555613826565b82800160010185558215613826579182015b8281111561382657825182559160200191906001019061380b565b506138329291506138a0565b5090565b6040518060c0016040528060608152602001600081526020016000815260200160008152602001600081526020016000600281111561387757613877613e95565b905290565b508054600082556002029060005260206000209081019061389d91906138b5565b50565b5b8082111561383257600081556001016138a1565b5b8082111561383257600080825560018201556002016138b6565b80356001600160a01b0381168114612e2957600080fd5b600082601f8301126138f857600080fd5b8135602061390d61390883613cac565b613c7b565b80838252828201915082860187848660051b890101111561392d57600080fd5b60005b8581101561394c57813584529284019290840190600101613930565b5090979650505050505050565b803560038110612e2957600080fd5b60006020828403121561397a57600080fd5b6137ab826138d0565b60008060006060848603121561399857600080fd5b6139a1846138d0565b925060208085013567ffffffffffffffff808211156139bf57600080fd5b818701915087601f8301126139d357600080fd5b81356139e161390882613cac565b8082825285820191508585018b878560051b8801011115613a0157600080fd5b60005b84811015613a8e57813586811115613a1b57600080fd5b8701603f81018e13613a2c57600080fd5b8881013587811115613a4057613a40613ed7565b613a52601f8201601f19168b01613c7b565b8181528f6040838501011115613a6757600080fd5b81604084018c83013760009181018b01919091528552509287019290870190600101613a04565b5050809750505050505050613aa560408501613959565b90509250925092565b60008060408385031215613ac157600080fd5b613aca836138d0565b946020939093013593505050565b60008060008060808587031215613aee57600080fd5b843567ffffffffffffffff80821115613b0657600080fd5b613b12888389016138e7565b95506020870135915080821115613b2857600080fd5b50613b35878288016138e7565b949794965050505060408301359260600135919050565b600060208284031215613b5e57600080fd5b6137ab82613959565b60008060408385031215613b7a57600080fd5b613aca83613959565b600060208284031215613b9557600080fd5b5035919050565b600060208284031215613bae57600080fd5b5051919050565b60008451613bc7818460208901613da4565b845190830190613bdb818360208901613da4565b8451910190613bee818360208801613da4565b0195945050505050565b6020810160038310613c1a57634e487b7160e01b600052602160045260246000fd5b91905290565b6020815260008251806020840152613c3f816040850160208701613da4565b601f01601f19169190910160400192915050565b6020808252600e908201526d4163636573732044656e6965642160901b604082015260600190565b604051601f8201601f1916810167ffffffffffffffff81118282101715613ca457613ca4613ed7565b604052919050565b600067ffffffffffffffff821115613cc657613cc6613ed7565b5060051b60200190565b60008219821115613ce357613ce3613e7f565b500190565b600060ff821660ff84168060ff03821115613d0557613d05613e7f565b019392505050565b600082613d2a57634e487b7160e01b600052601260045260246000fd5b500490565b6000816000190483118215151615613d4957613d49613e7f565b500290565b60008083128015600160ff1b850184121615613d6c57613d6c613e7f565b6001600160ff1b0384018313811615613d8757613d87613e7f565b50500390565b600082821015613d9f57613d9f613e7f565b500390565b60005b83811015613dbf578181015183820152602001613da7565b83811115613dce576000848401525b50505050565b600081613de357613de3613e7f565b506000190190565b600181811c90821680613dff57607f821691505b60208210811415613e2057634e487b7160e01b600052602260045260246000fd5b50919050565b6000600019821415613e3a57613e3a613e7f565b5060010190565b600063ffffffff80831681811415613e5b57613e5b613e7f565b6001019392505050565b600067ffffffffffffffff80831681811415613e5b57613e5b5b634e487b7160e01b600052601160045260246000fd5b634e487b7160e01b600052602160045260246000fd5b634e487b7160e01b600052603160045260246000fd5b634e487b7160e01b600052603260045260246000fd5b634e487b7160e01b600052604160045260246000fdfea164736f6c6343000807000a",
  "devdoc": {
    "kind": "dev",
    "methods": {},
    "version": 1
  },
  "userdoc": {
    "kind": "user",
    "methods": {},
    "version": 1
  },
  "storageLayout": {
    "storage": [
      {
        "astId": 598,
        "contract": "contracts/dependencies/CONTRewardManagement.sol:CONTRewardManagement",
        "label": "_initialized",
        "offset": 0,
        "slot": "0",
        "type": "t_bool"
      },
      {
        "astId": 601,
        "contract": "contracts/dependencies/CONTRewardManagement.sol:CONTRewardManagement",
        "label": "_initializing",
        "offset": 1,
        "slot": "0",
        "type": "t_bool"
      },
      {
        "astId": 4266,
        "contract": "contracts/dependencies/CONTRewardManagement.sol:CONTRewardManagement",
        "label": "contOwners",
        "offset": 0,
        "slot": "1",
        "type": "t_struct(Map)8353_storage"
      },
      {
        "astId": 4272,
        "contract": "contracts/dependencies/CONTRewardManagement.sol:CONTRewardManagement",
        "label": "_contsOfUser",
        "offset": 0,
        "slot": "5",
        "type": "t_mapping(t_address,t_array(t_struct(ContEntity)4258_storage)dyn_storage)"
      },
      {
        "astId": 4277,
        "contract": "contracts/dependencies/CONTRewardManagement.sol:CONTRewardManagement",
        "label": "contPrice",
        "offset": 0,
        "slot": "6",
        "type": "t_mapping(t_enum(ContType)4232,t_uint256)"
      },
      {
        "astId": 4282,
        "contract": "contracts/dependencies/CONTRewardManagement.sol:CONTRewardManagement",
        "label": "initRewardAPRPerCont",
        "offset": 0,
        "slot": "7",
        "type": "t_mapping(t_enum(ContType)4232,t_uint256)"
      },
      {
        "astId": 4289,
        "contract": "contracts/dependencies/CONTRewardManagement.sol:CONTRewardManagement",
        "label": "aprChangesHistory",
        "offset": 0,
        "slot": "8",
        "type": "t_mapping(t_enum(ContType)4232,t_array(t_struct(APRChangesEntry)4263_storage)dyn_storage)"
      },
      {
        "astId": 4291,
        "contract": "contracts/dependencies/CONTRewardManagement.sol:CONTRewardManagement",
        "label": "cashoutTimeout",
        "offset": 0,
        "slot": "9",
        "type": "t_uint256"
      },
      {
        "astId": 4293,
        "contract": "contracts/dependencies/CONTRewardManagement.sol:CONTRewardManagement",
        "label": "autoReduceAPRInterval",
        "offset": 0,
        "slot": "10",
        "type": "t_uint256"
      },
      {
        "astId": 4295,
        "contract": "contracts/dependencies/CONTRewardManagement.sol:CONTRewardManagement",
        "label": "autoReduceAPRRate",
        "offset": 0,
        "slot": "11",
        "type": "t_uint256"
      },
      {
        "astId": 4297,
        "contract": "contracts/dependencies/CONTRewardManagement.sol:CONTRewardManagement",
        "label": "admin0XB",
        "offset": 0,
        "slot": "12",
        "type": "t_address"
      },
      {
        "astId": 4299,
        "contract": "contracts/dependencies/CONTRewardManagement.sol:CONTRewardManagement",
        "label": "token",
        "offset": 0,
        "slot": "13",
        "type": "t_address"
      },
      {
        "astId": 4301,
        "contract": "contracts/dependencies/CONTRewardManagement.sol:CONTRewardManagement",
        "label": "totalContsCreated",
        "offset": 0,
        "slot": "14",
        "type": "t_uint256"
      },
      {
        "astId": 4306,
        "contract": "contracts/dependencies/CONTRewardManagement.sol:CONTRewardManagement",
        "label": "_totalContsPerType",
        "offset": 0,
        "slot": "15",
        "type": "t_mapping(t_enum(ContType)4232,t_uint256)"
      },
      {
        "astId": 4311,
        "contract": "contracts/dependencies/CONTRewardManagement.sol:CONTRewardManagement",
        "label": "_breakevenContsPerType",
        "offset": 0,
        "slot": "16",
        "type": "t_mapping(t_enum(ContType)4232,t_uint256)"
      },
      {
        "astId": 4316,
        "contract": "contracts/dependencies/CONTRewardManagement.sol:CONTRewardManagement",
        "label": "_claimedRewardPerType",
        "offset": 0,
        "slot": "17",
        "type": "t_mapping(t_enum(ContType)4232,t_uint256)"
      },
      {
        "astId": 4321,
        "contract": "contracts/dependencies/CONTRewardManagement.sol:CONTRewardManagement",
        "label": "_tokensReceivedPerType",
        "offset": 0,
        "slot": "18",
        "type": "t_mapping(t_enum(ContType)4232,t_uint256)"
      }
    ],
    "types": {
      "t_address": {
        "encoding": "inplace",
        "label": "address",
        "numberOfBytes": "20"
      },
      "t_array(t_address)dyn_storage": {
        "base": "t_address",
        "encoding": "dynamic_array",
        "label": "address[]",
        "numberOfBytes": "32"
      },
      "t_array(t_struct(APRChangesEntry)4263_storage)dyn_storage": {
        "base": "t_struct(APRChangesEntry)4263_storage",
        "encoding": "dynamic_array",
        "label": "struct CONTRewardManagement.APRChangesEntry[]",
        "numberOfBytes": "32"
      },
      "t_array(t_struct(ContEntity)4258_storage)dyn_storage": {
        "base": "t_struct(ContEntity)4258_storage",
        "encoding": "dynamic_array",
        "label": "struct CONTRewardManagement.ContEntity[]",
        "numberOfBytes": "32"
      },
      "t_bool": {
        "encoding": "inplace",
        "label": "bool",
        "numberOfBytes": "1"
      },
      "t_enum(ContType)4232": {
        "encoding": "inplace",
        "label": "enum ContType",
        "numberOfBytes": "1"
      },
      "t_int256": {
        "encoding": "inplace",
        "label": "int256",
        "numberOfBytes": "32"
      },
      "t_mapping(t_address,t_array(t_struct(ContEntity)4258_storage)dyn_storage)": {
        "encoding": "mapping",
        "key": "t_address",
        "label": "mapping(address => struct CONTRewardManagement.ContEntity[])",
        "numberOfBytes": "32",
        "value": "t_array(t_struct(ContEntity)4258_storage)dyn_storage"
      },
      "t_mapping(t_address,t_bool)": {
        "encoding": "mapping",
        "key": "t_address",
        "label": "mapping(address => bool)",
        "numberOfBytes": "32",
        "value": "t_bool"
      },
      "t_mapping(t_address,t_uint256)": {
        "encoding": "mapping",
        "key": "t_address",
        "label": "mapping(address => uint256)",
        "numberOfBytes": "32",
        "value": "t_uint256"
      },
      "t_mapping(t_enum(ContType)4232,t_array(t_struct(APRChangesEntry)4263_storage)dyn_storage)": {
        "encoding": "mapping",
        "key": "t_enum(ContType)4232",
        "label": "mapping(enum ContType => struct CONTRewardManagement.APRChangesEntry[])",
        "numberOfBytes": "32",
        "value": "t_array(t_struct(APRChangesEntry)4263_storage)dyn_storage"
      },
      "t_mapping(t_enum(ContType)4232,t_uint256)": {
        "encoding": "mapping",
        "key": "t_enum(ContType)4232",
        "label": "mapping(enum ContType => uint256)",
        "numberOfBytes": "32",
        "value": "t_uint256"
      },
      "t_string_storage": {
        "encoding": "bytes",
        "label": "string",
        "numberOfBytes": "32"
      },
      "t_struct(APRChangesEntry)4263_storage": {
        "encoding": "inplace",
        "label": "struct CONTRewardManagement.APRChangesEntry",
        "members": [
          {
            "astId": 4260,
            "contract": "contracts/dependencies/CONTRewardManagement.sol:CONTRewardManagement",
            "label": "timestamp",
            "offset": 0,
            "slot": "0",
            "type": "t_uint256"
          },
          {
            "astId": 4262,
            "contract": "contracts/dependencies/CONTRewardManagement.sol:CONTRewardManagement",
            "label": "reducedPercentage",
            "offset": 0,
            "slot": "1",
            "type": "t_int256"
          }
        ],
        "numberOfBytes": "64"
      },
      "t_struct(ContEntity)4258_storage": {
        "encoding": "inplace",
        "label": "struct CONTRewardManagement.ContEntity",
        "members": [
          {
            "astId": 4246,
            "contract": "contracts/dependencies/CONTRewardManagement.sol:CONTRewardManagement",
            "label": "name",
            "offset": 0,
            "slot": "0",
            "type": "t_string_storage"
          },
          {
            "astId": 4248,
            "contract": "contracts/dependencies/CONTRewardManagement.sol:CONTRewardManagement",
            "label": "creationTime",
            "offset": 0,
            "slot": "1",
            "type": "t_uint256"
          },
          {
            "astId": 4250,
            "contract": "contracts/dependencies/CONTRewardManagement.sol:CONTRewardManagement",
            "label": "lastUpdateTime",
            "offset": 0,
            "slot": "2",
            "type": "t_uint256"
          },
          {
            "astId": 4252,
            "contract": "contracts/dependencies/CONTRewardManagement.sol:CONTRewardManagement",
            "label": "initialAPR",
            "offset": 0,
            "slot": "3",
            "type": "t_uint256"
          },
          {
            "astId": 4254,
            "contract": "contracts/dependencies/CONTRewardManagement.sol:CONTRewardManagement",
            "label": "buyPrice",
            "offset": 0,
            "slot": "4",
            "type": "t_uint256"
          },
          {
            "astId": 4257,
            "contract": "contracts/dependencies/CONTRewardManagement.sol:CONTRewardManagement",
            "label": "cType",
            "offset": 0,
            "slot": "5",
            "type": "t_enum(ContType)4232"
          }
        ],
        "numberOfBytes": "192"
      },
      "t_struct(Map)8353_storage": {
        "encoding": "inplace",
        "label": "struct IterableMapping.Map",
        "members": [
          {
            "astId": 8340,
            "contract": "contracts/dependencies/CONTRewardManagement.sol:CONTRewardManagement",
            "label": "keys",
            "offset": 0,
            "slot": "0",
            "type": "t_array(t_address)dyn_storage"
          },
          {
            "astId": 8344,
            "contract": "contracts/dependencies/CONTRewardManagement.sol:CONTRewardManagement",
            "label": "values",
            "offset": 0,
            "slot": "1",
            "type": "t_mapping(t_address,t_uint256)"
          },
          {
            "astId": 8348,
            "contract": "contracts/dependencies/CONTRewardManagement.sol:CONTRewardManagement",
            "label": "indexOf",
            "offset": 0,
            "slot": "2",
            "type": "t_mapping(t_address,t_uint256)"
          },
          {
            "astId": 8352,
            "contract": "contracts/dependencies/CONTRewardManagement.sol:CONTRewardManagement",
            "label": "inserted",
            "offset": 0,
            "slot": "3",
            "type": "t_mapping(t_address,t_bool)"
          }
        ],
        "numberOfBytes": "128"
      },
      "t_uint256": {
        "encoding": "inplace",
        "label": "uint256",
        "numberOfBytes": "32"
      }
    }
  }
}