{
  "address": "0x53ED9c6D46284B728d0597b7bBa1ccC3891A0Dec",
  "abi": [
    {
      "anonymous": false,
      "inputs": [
        {
          "indexed": true,
          "internalType": "contract IERC20Upgradeable",
          "name": "token",
          "type": "address"
        },
        {
          "indexed": false,
          "internalType": "address",
          "name": "to",
          "type": "address"
        },
        {
          "indexed": false,
          "internalType": "uint256",
          "name": "amount",
          "type": "uint256"
        }
      ],
      "name": "ERC20PaymentReleased",
      "type": "event"
    },
    {
      "anonymous": false,
      "inputs": [
        {
          "indexed": false,
          "internalType": "address",
          "name": "account",
          "type": "address"
        },
        {
          "indexed": false,
          "internalType": "uint256",
          "name": "shares",
          "type": "uint256"
        }
      ],
      "name": "PayeeAdded",
      "type": "event"
    },
    {
      "anonymous": false,
      "inputs": [
        {
          "indexed": false,
          "internalType": "address",
          "name": "from",
          "type": "address"
        },
        {
          "indexed": false,
          "internalType": "uint256",
          "name": "amount",
          "type": "uint256"
        }
      ],
      "name": "PaymentReceived",
      "type": "event"
    },
    {
      "anonymous": false,
      "inputs": [
        {
          "indexed": false,
          "internalType": "address",
          "name": "to",
          "type": "address"
        },
        {
          "indexed": false,
          "internalType": "uint256",
          "name": "amount",
          "type": "uint256"
        }
      ],
      "name": "PaymentReleased",
      "type": "event"
    },
    {
      "anonymous": false,
      "inputs": [
        {
          "indexed": false,
          "internalType": "address",
          "name": "tokenIn",
          "type": "address"
        },
        {
          "indexed": false,
          "internalType": "uint256",
          "name": "amountIn",
          "type": "uint256"
        },
        {
          "indexed": false,
          "internalType": "address",
          "name": "tokenOut",
          "type": "address"
        },
        {
          "indexed": false,
          "internalType": "uint256",
          "name": "amountOut",
          "type": "uint256"
        }
      ],
      "name": "Swapped",
      "type": "event"
    },
    {
      "anonymous": false,
      "inputs": [
        {
          "indexed": false,
          "internalType": "uint256",
          "name": "amountIn",
          "type": "uint256"
        },
        {
          "indexed": false,
          "internalType": "address",
          "name": "tokenOut",
          "type": "address"
        },
        {
          "indexed": false,
          "internalType": "uint256",
          "name": "amountOut",
          "type": "uint256"
        }
      ],
      "name": "SwappedNative",
      "type": "event"
    },
    {
      "inputs": [],
      "name": "admin0xB",
      "outputs": [
        {
          "internalType": "address payable",
          "name": "",
          "type": "address"
        }
      ],
      "stateMutability": "view",
      "type": "function"
    },
    {
      "inputs": [
        {
          "internalType": "bool",
          "name": "is0xBOut",
          "type": "bool"
        },
        {
          "internalType": "address",
          "name": "targetToken",
          "type": "address"
        },
        {
          "internalType": "uint256",
          "name": "outputAmount",
          "type": "uint256"
        }
      ],
      "name": "getInputAmount",
      "outputs": [
        {
          "internalType": "uint256",
          "name": "",
          "type": "uint256"
        }
      ],
      "stateMutability": "view",
      "type": "function"
    },
    {
      "inputs": [
        {
          "internalType": "bool",
          "name": "is0xBOut",
          "type": "bool"
        },
        {
          "internalType": "address",
          "name": "targetToken",
          "type": "address"
        },
        {
          "internalType": "uint256",
          "name": "inputAmount",
          "type": "uint256"
        }
      ],
      "name": "getOutputAmount",
      "outputs": [
        {
          "internalType": "uint256",
          "name": "",
          "type": "uint256"
        }
      ],
      "stateMutability": "view",
      "type": "function"
    },
    {
      "inputs": [
        {
          "internalType": "address",
          "name": "_router",
          "type": "address"
        },
        {
          "internalType": "uint256",
          "name": "_fee",
          "type": "uint256"
        },
        {
          "internalType": "address",
          "name": "_pool",
          "type": "address"
        }
      ],
      "name": "initialize",
      "outputs": [],
      "stateMutability": "nonpayable",
      "type": "function"
    },
    {
      "inputs": [
        {
          "internalType": "uint256",
          "name": "index",
          "type": "uint256"
        }
      ],
      "name": "payee",
      "outputs": [
        {
          "internalType": "address",
          "name": "",
          "type": "address"
        }
      ],
      "stateMutability": "view",
      "type": "function"
    },
    {
      "inputs": [
        {
          "internalType": "address payable",
          "name": "account",
          "type": "address"
        }
      ],
      "name": "release",
      "outputs": [],
      "stateMutability": "nonpayable",
      "type": "function"
    },
    {
      "inputs": [
        {
          "internalType": "contract IERC20Upgradeable",
          "name": "token",
          "type": "address"
        },
        {
          "internalType": "address",
          "name": "account",
          "type": "address"
        }
      ],
      "name": "release",
      "outputs": [],
      "stateMutability": "nonpayable",
      "type": "function"
    },
    {
      "inputs": [
        {
          "internalType": "contract IERC20Upgradeable",
          "name": "token",
          "type": "address"
        },
        {
          "internalType": "address",
          "name": "account",
          "type": "address"
        }
      ],
      "name": "released",
      "outputs": [
        {
          "internalType": "uint256",
          "name": "",
          "type": "uint256"
        }
      ],
      "stateMutability": "view",
      "type": "function"
    },
    {
      "inputs": [
        {
          "internalType": "address",
          "name": "account",
          "type": "address"
        }
      ],
      "name": "released",
      "outputs": [
        {
          "internalType": "uint256",
          "name": "",
          "type": "uint256"
        }
      ],
      "stateMutability": "view",
      "type": "function"
    },
    {
      "inputs": [],
      "name": "routerAddress",
      "outputs": [
        {
          "internalType": "address",
          "name": "",
          "type": "address"
        }
      ],
      "stateMutability": "view",
      "type": "function"
    },
    {
      "inputs": [
        {
          "internalType": "address",
          "name": "_token",
          "type": "address"
        }
      ],
      "name": "setToken",
      "outputs": [],
      "stateMutability": "nonpayable",
      "type": "function"
    },
    {
      "inputs": [
        {
          "internalType": "address",
          "name": "account",
          "type": "address"
        }
      ],
      "name": "shares",
      "outputs": [
        {
          "internalType": "uint256",
          "name": "",
          "type": "uint256"
        }
      ],
      "stateMutability": "view",
      "type": "function"
    },
    {
      "inputs": [
        {
          "internalType": "address",
          "name": "receiver",
          "type": "address"
        },
        {
          "internalType": "address",
          "name": "outTokenAddr",
          "type": "address"
        },
        {
          "internalType": "uint256",
          "name": "amountOut",
          "type": "uint256"
        },
        {
          "internalType": "uint256",
          "name": "amountInMax",
          "type": "uint256"
        },
        {
          "internalType": "uint256",
          "name": "deadline",
          "type": "uint256"
        }
      ],
      "name": "swap0xBForExactToken",
      "outputs": [
        {
          "internalType": "uint256",
          "name": "",
          "type": "uint256"
        },
        {
          "internalType": "uint256",
          "name": "",
          "type": "uint256"
        }
      ],
      "stateMutability": "nonpayable",
      "type": "function"
    },
    {
      "inputs": [
        {
          "internalType": "address",
          "name": "receiver",
          "type": "address"
        },
        {
          "internalType": "uint256",
          "name": "amountOut",
          "type": "uint256"
        },
        {
          "internalType": "uint256",
          "name": "deadline",
          "type": "uint256"
        }
      ],
      "name": "swapAVAXForExact0xB",
      "outputs": [
        {
          "internalType": "uint256",
          "name": "",
          "type": "uint256"
        },
        {
          "internalType": "uint256",
          "name": "",
          "type": "uint256"
        }
      ],
      "stateMutability": "payable",
      "type": "function"
    },
    {
      "inputs": [
        {
          "internalType": "address",
          "name": "receiver",
          "type": "address"
        },
        {
          "internalType": "address",
          "name": "outTokenAddr",
          "type": "address"
        },
        {
          "internalType": "uint256",
          "name": "amountIn",
          "type": "uint256"
        },
        {
          "internalType": "uint256",
          "name": "amountOutMin",
          "type": "uint256"
        },
        {
          "internalType": "uint256",
          "name": "deadline",
          "type": "uint256"
        }
      ],
      "name": "swapExact0xBForToken",
      "outputs": [
        {
          "internalType": "uint256",
          "name": "",
          "type": "uint256"
        },
        {
          "internalType": "uint256",
          "name": "",
          "type": "uint256"
        }
      ],
      "stateMutability": "nonpayable",
      "type": "function"
    },
    {
      "inputs": [
        {
          "internalType": "address",
          "name": "receiver",
          "type": "address"
        },
        {
          "internalType": "address",
          "name": "outTokenAddr",
          "type": "address"
        },
        {
          "internalType": "uint256",
          "name": "amountIn",
          "type": "uint256"
        }
      ],
      "name": "swapExact0xBForTokenNoFee",
      "outputs": [],
      "stateMutability": "nonpayable",
      "type": "function"
    },
    {
      "inputs": [
        {
          "internalType": "address",
          "name": "receiver",
          "type": "address"
        },
        {
          "internalType": "uint256",
          "name": "amountOutMin",
          "type": "uint256"
        },
        {
          "internalType": "uint256",
          "name": "deadline",
          "type": "uint256"
        }
      ],
      "name": "swapExactAVAXFor0xB",
      "outputs": [
        {
          "internalType": "uint256",
          "name": "",
          "type": "uint256"
        },
        {
          "internalType": "uint256",
          "name": "",
          "type": "uint256"
        }
      ],
      "stateMutability": "payable",
      "type": "function"
    },
    {
      "inputs": [
        {
          "internalType": "address",
          "name": "receiver",
          "type": "address"
        },
        {
          "internalType": "address",
          "name": "inTokenAddr",
          "type": "address"
        },
        {
          "internalType": "uint256",
          "name": "amountIn",
          "type": "uint256"
        },
        {
          "internalType": "uint256",
          "name": "amountOutMin",
          "type": "uint256"
        },
        {
          "internalType": "uint256",
          "name": "deadline",
          "type": "uint256"
        }
      ],
      "name": "swapExactTokenFor0xB",
      "outputs": [
        {
          "internalType": "uint256",
          "name": "",
          "type": "uint256"
        },
        {
          "internalType": "uint256",
          "name": "",
          "type": "uint256"
        }
      ],
      "stateMutability": "nonpayable",
      "type": "function"
    },
    {
      "inputs": [],
      "name": "swapTaxFee",
      "outputs": [
        {
          "internalType": "uint256",
          "name": "",
          "type": "uint256"
        }
      ],
      "stateMutability": "view",
      "type": "function"
    },
    {
      "inputs": [],
      "name": "swapTaxPool",
      "outputs": [
        {
          "internalType": "address",
          "name": "",
          "type": "address"
        }
      ],
      "stateMutability": "view",
      "type": "function"
    },
    {
      "inputs": [
        {
          "internalType": "address",
          "name": "receiver",
          "type": "address"
        },
        {
          "internalType": "address",
          "name": "inTokenAddr",
          "type": "address"
        },
        {
          "internalType": "uint256",
          "name": "amountOut",
          "type": "uint256"
        },
        {
          "internalType": "uint256",
          "name": "amountInMax",
          "type": "uint256"
        },
        {
          "internalType": "uint256",
          "name": "deadline",
          "type": "uint256"
        }
      ],
      "name": "swapTokenForExact0xB",
      "outputs": [
        {
          "internalType": "uint256",
          "name": "",
          "type": "uint256"
        },
        {
          "internalType": "uint256",
          "name": "",
          "type": "uint256"
        }
      ],
      "stateMutability": "nonpayable",
      "type": "function"
    },
    {
      "inputs": [],
      "name": "tokenAddress",
      "outputs": [
        {
          "internalType": "address",
          "name": "",
          "type": "address"
        }
      ],
      "stateMutability": "view",
      "type": "function"
    },
    {
      "inputs": [
        {
          "internalType": "contract IERC20Upgradeable",
          "name": "token",
          "type": "address"
        }
      ],
      "name": "totalReleased",
      "outputs": [
        {
          "internalType": "uint256",
          "name": "",
          "type": "uint256"
        }
      ],
      "stateMutability": "view",
      "type": "function"
    },
    {
      "inputs": [],
      "name": "totalReleased",
      "outputs": [
        {
          "internalType": "uint256",
          "name": "",
          "type": "uint256"
        }
      ],
      "stateMutability": "view",
      "type": "function"
    },
    {
      "inputs": [],
      "name": "totalShares",
      "outputs": [
        {
          "internalType": "uint256",
          "name": "",
          "type": "uint256"
        }
      ],
      "stateMutability": "view",
      "type": "function"
    },
    {
      "inputs": [],
      "name": "uniswapV2Pair",
      "outputs": [
        {
          "internalType": "address",
          "name": "",
          "type": "address"
        }
      ],
      "stateMutability": "view",
      "type": "function"
    },
    {
      "inputs": [
        {
          "internalType": "uint256",
          "name": "value",
          "type": "uint256"
        }
      ],
      "name": "updateSwapFee",
      "outputs": [],
      "stateMutability": "nonpayable",
      "type": "function"
    },
    {
      "inputs": [
        {
          "internalType": "address payable",
          "name": "newPool",
          "type": "address"
        }
      ],
      "name": "updateSwapTaxPool",
      "outputs": [],
      "stateMutability": "nonpayable",
      "type": "function"
    },
    {
      "inputs": [
        {
          "internalType": "address",
          "name": "_newAddr",
          "type": "address"
        }
      ],
      "name": "updateUniswapV2Router",
      "outputs": [],
      "stateMutability": "nonpayable",
      "type": "function"
    },
    {
      "inputs": [],
      "name": "wrappedNative",
      "outputs": [
        {
          "internalType": "address",
          "name": "",
          "type": "address"
        }
      ],
      "stateMutability": "view",
      "type": "function"
    },
    {
      "stateMutability": "payable",
      "type": "receive"
    }
  ],
  "transactionHash": "0x926ea791b5652c13d6f5a36c2e6c666cab3e77b59969e70a19629a7ca65f0dca",
  "args": [],
  "numDeployments": 5,
  "solcInputHash": "e22a8e28cbf549d0a8c34a15ad71b3b9",
  "bytecode": "0x608060405234801561001057600080fd5b50613e1b806100206000396000f3fe6080604052600436106101b15760003560e01c80638b83209b116100e7578063c350a1b511610095578063eb6d3a1111610064578063eb6d3a1114610593578063ed9705da146105a8578063f5c13653146105bb578063fd53fce0146105db57600080fd5b8063c350a1b5146104f2578063ce7c2ac214610512578063d79779b214610548578063e33b7de31461057e57600080fd5b80638b83209b146104095780638f6e53b7146104295780639852595c1461043c5780639d76ea5814610472578063b698f04414610492578063bd747678146104b2578063bf16f65a146104d257600080fd5b806348b750441161015f5780636e54a8a01161012e5780636e54a8a01461037457806374cefd8a146103a957806380be66cf146103c957806388e5249f146103e957600080fd5b806348b75044146102f457806349bd5a5e1461031457806365b8dbc0146103345780636a63f5ee1461035457600080fd5b80630584aecf146101f657806311eb47dc14610233578063144fa6d71461025357806319165587146102755780633268cc56146102955780633a98ef39146102b5578063406072a9146102d457600080fd5b366101f1577f6ef95f06320e7a25a04a175ca677b7052bdd97131872c2192525a629f51be77033346040516101e7929190613a7a565b60405180910390a1005b600080fd5b34801561020257600080fd5b50606854610216906001600160a01b031681565b6040516001600160a01b0390911681526020015b60405180910390f35b34801561023f57600080fd5b50606c54610216906001600160a01b031681565b34801561025f57600080fd5b5061027361026e36600461376a565b6105f1565b005b34801561028157600080fd5b5061027361029036600461376a565b610b47565b3480156102a157600080fd5b50606654610216906001600160a01b031681565b3480156102c157600080fd5b506033545b60405190815260200161022a565b3480156102e057600080fd5b506102c66102ef3660046139af565b610c6c565b34801561030057600080fd5b5061027361030f3660046139af565b610c99565b34801561032057600080fd5b50606754610216906001600160a01b031681565b34801561034057600080fd5b5061027361034f36600461376a565b610e58565b34801561036057600080fd5b5061027361036f36600461376a565b610f69565b34801561038057600080fd5b5061039461038f3660046137e5565b611016565b6040805192835260208301919091520161022a565b3480156103b557600080fd5b506103946103c43660046137e5565b61130a565b3480156103d557600080fd5b506103946103e43660046137e5565b61168b565b3480156103f557600080fd5b506103946104043660046137e5565b611ba4565b34801561041557600080fd5b506102166104243660046139e8565b611fe9565b610394610437366004613878565b612019565b34801561044857600080fd5b506102c661045736600461376a565b6001600160a01b031660009081526036602052604090205490565b34801561047e57600080fd5b50606a54610216906001600160a01b031681565b34801561049e57600080fd5b506102736104ad3660046137a4565b61225e565b3480156104be57600080fd5b506102c66104cd36600461398f565b612546565b3480156104de57600080fd5b506102736104ed3660046139e8565b612638565b3480156104fe57600080fd5b5061027361050d366004613836565b6126d0565b34801561051e57600080fd5b506102c661052d36600461376a565b6001600160a01b031660009081526035602052604090205490565b34801561055457600080fd5b506102c661056336600461376a565b6001600160a01b031660009081526038602052604090205490565b34801561058a57600080fd5b506034546102c6565b34801561059f57600080fd5b506102166128bb565b6103946105b6366004613878565b61293d565b3480156105c757600080fd5b506102c66105d636600461398f565b612b4d565b3480156105e757600080fd5b506102c6606b5481565b606a546001600160a01b031633148061061457506068546001600160a01b031633145b6106395760405162461bcd60e51b815260040161063090613b0a565b60405180910390fd5b6001600160a01b0381166106865760405162461bcd60e51b81526020600482015260146024820152732722abafaa27a5a2a71d103d32b9379030b2323960611b6044820152606401610630565b606a80546001600160a01b03199081166001600160a01b03848116918217909355606980549092161790556065546040805163c45a015560e01b81529051600093929092169163c45a015591600480820192602092909190829003018186803b1580156106f257600080fd5b505afa158015610706573d6000803e3d6000fd5b505050506040513d601f19601f8201168201806040525081019061072a9190613787565b606a54606554604080516339d94ae160e11b815290516001600160a01b039485169463c9c653969481169316916373b295c2916004808301926020929190829003018186803b15801561077c57600080fd5b505afa158015610790573d6000803e3d6000fd5b505050506040513d601f19601f820116820180604052508101906107b49190613787565b6040518363ffffffff1660e01b81526004016107d1929190613a93565b602060405180830381600087803b1580156107eb57600080fd5b505af192505050801561081b575060408051601f3d908101601f1916820190925261081891810190613787565b60015b6109a357606560009054906101000a90046001600160a01b03166001600160a01b031663c45a01556040518163ffffffff1660e01b815260040160206040518083038186803b15801561086d57600080fd5b505afa158015610881573d6000803e3d6000fd5b505050506040513d601f19601f820116820180604052508101906108a59190613787565b606a54606554604080516339d94ae160e11b815290516001600160a01b039485169463e6a439059481169316916373b295c2916004808301926020929190829003018186803b1580156108f757600080fd5b505afa15801561090b573d6000803e3d6000fd5b505050506040513d601f19601f8201168201806040525081019061092f9190613787565b6040518363ffffffff1660e01b815260040161094c929190613a93565b60206040518083038186803b15801561096457600080fd5b505afa158015610978573d6000803e3d6000fd5b505050506040513d601f19601f8201168201806040525081019061099c9190613787565b9050610b24565b50606560009054906101000a90046001600160a01b03166001600160a01b031663c45a01556040518163ffffffff1660e01b815260040160206040518083038186803b1580156109f257600080fd5b505afa158015610a06573d6000803e3d6000fd5b505050506040513d601f19601f82011682018060405250810190610a2a9190613787565b606a54606554604080516339d94ae160e11b815290516001600160a01b039485169463e6a439059481169316916373b295c2916004808301926020929190829003018186803b158015610a7c57600080fd5b505afa158015610a90573d6000803e3d6000fd5b505050506040513d601f19601f82011682018060405250810190610ab49190613787565b6040518363ffffffff1660e01b8152600401610ad1929190613a93565b60206040518083038186803b158015610ae957600080fd5b505afa158015610afd573d6000803e3d6000fd5b505050506040513d601f19601f82011682018060405250810190610b219190613787565b90505b606780546001600160a01b0319166001600160a01b039290921691909117905550565b6001600160a01b038116600090815260356020526040902054610b7c5760405162461bcd60e51b815260040161063090613b32565b6000610b8760345490565b610b919047613ccf565b90506000610bbe8383610bb9866001600160a01b031660009081526036602052604090205490565b612c2a565b905080610bdd5760405162461bcd60e51b815260040161063090613b78565b6001600160a01b03831660009081526036602052604081208054839290610c05908490613ccf565b925050819055508060346000828254610c1e9190613ccf565b90915550610c2e90508382612c70565b7fdf20fd1e76bc69d672e4814fafb2c449bba3a5369d8359adf9e05e6fde87b0568382604051610c5f929190613a7a565b60405180910390a1505050565b6001600160a01b038083166000908152603960209081526040808320938516835292905220545b92915050565b6001600160a01b038116600090815260356020526040902054610cce5760405162461bcd60e51b815260040161063090613b32565b6001600160a01b0382166000908152603860205260408120546040516370a0823160e01b81523060048201526001600160a01b038516906370a082319060240160206040518083038186803b158015610d2657600080fd5b505afa158015610d3a573d6000803e3d6000fd5b505050506040513d601f19601f82011682018060405250810190610d5e9190613a01565b610d689190613ccf565b90506000610d7b8383610bb98787610c6c565b905080610d9a5760405162461bcd60e51b815260040161063090613b78565b6001600160a01b03808516600090815260396020908152604080832093871683529290529081208054839290610dd1908490613ccf565b90915550506001600160a01b03841660009081526038602052604081208054839290610dfe908490613ccf565b90915550610e0f9050848483612d8e565b836001600160a01b03167f3be5b7a71e84ed12875d241991c70855ac5817d847039e17a9d895c1ceb0f18a8483604051610e4a929190613a7a565b60405180910390a250505050565b606a546001600160a01b0316331480610e7b57506068546001600160a01b031633145b610e975760405162461bcd60e51b815260040161063090613b0a565b6065546001600160a01b0382811691161415610f065760405162461bcd60e51b815260206004820152602860248201527f544b4e3a2054686520726f7574657220616c7265616479206861732074686174604482015267206164647265737360c01b6064820152608401610630565b606680546001600160a01b0383166001600160a01b0319918216811790925560658054909116821790556040805163c45a015560e01b815290516000929163c45a0155916004808301926020929190829003018186803b1580156106f257600080fd5b606a546001600160a01b0316331480610f8c57506068546001600160a01b031633145b610fa85760405162461bcd60e51b815260040161063090613b0a565b6001600160a01b038116610ff45760405162461bcd60e51b81526020600482015260136024820152722aa8222faba0a6261d103d32b9379030b2323960691b6044820152606401610630565b606c80546001600160a01b0319166001600160a01b0392909216919091179055565b606a5460009081906001600160a01b031633148061103e57506068546001600160a01b031633145b61105a5760405162461bcd60e51b815260040161063090613b0a565b606654604051636eb1769f60e11b815286916001600160a01b03808a169263dd62ed3e9261108f923092911690600401613a93565b60206040518083038186803b1580156110a757600080fd5b505afa1580156110bb573d6000803e3d6000fd5b505050506040513d601f19601f820116820180604052508101906110df9190613a01565b10156110ef576110ef8686612de4565b836110fc60018888612b4d565b101561111a5760405162461bcd60e51b815260040161063090613bc3565b60006305f5e100606b548761112f9190613d09565b6111399190613ce7565b606c5460405163a9059cbb60e01b81529192506001600160a01b03808a169263a9059cbb9261116e9216908590600401613a7a565b602060405180830381600087803b15801561118857600080fd5b505af115801561119c573d6000803e3d6000fd5b505050506040513d601f19601f820116820180604052508101906111c09190613972565b5060006111ce886001612e6a565b6065549091506000906001600160a01b03166338ed17396111ef858b613d28565b89858e8b6040518663ffffffff1660e01b8152600401611213959493929190613c93565b600060405180830381600087803b15801561122d57600080fd5b505af1158015611241573d6000803e3d6000fd5b505050506040513d6000823e601f3d908101601f1916820160405261126991908101906138ad565b9050600080516020613def8339815191528989606a60009054906101000a90046001600160a01b031684600186516112a19190613d28565b815181106112b1576112b1613d9c565b60200260200101516040516112c99493929190613aad565b60405180910390a180600182516112e09190613d28565b815181106112f0576112f0613d9c565b602002602001015183945094505050509550959350505050565b606a5460009081906001600160a01b031633148061133257506068546001600160a01b031633145b61134e5760405162461bcd60e51b815260040161063090613b0a565b606654604051636eb1769f60e11b815285916001600160a01b03808a169263dd62ed3e92611383923092911690600401613a93565b60206040518083038186803b15801561139b57600080fd5b505afa1580156113af573d6000803e3d6000fd5b505050506040513d601f19601f820116820180604052508101906113d39190613a01565b10156113e3576113e38685612de4565b836113f060018888612546565b111561143a5760405162461bcd60e51b8152602060048201526019602482015278125394d551919250d251539517d25394155517d05353d55395603a1b6044820152606401610630565b6000611447876001612e6a565b606554604051634401edf760e11b81529192506000916001600160a01b0390911690638803dbee90611485908a908a9087908f908c90600401613c93565b600060405180830381600087803b15801561149f57600080fd5b505af11580156114b3573d6000803e3d6000fd5b505050506040513d6000823e601f3d908101601f191682016040526114db91908101906138ad565b90506000816000815181106114f2576114f2613d9c565b6020026020010151905060006305f5e100606b54836115119190613d09565b61151b9190613ce7565b606c5460405163a9059cbb60e01b81529192506001600160a01b03808d169263a9059cbb926115509216908590600401613a7a565b602060405180830381600087803b15801561156a57600080fd5b505af115801561157e573d6000803e3d6000fd5b505050506040513d601f19601f820116820180604052508101906115a29190613972565b506001600160a01b038a1663a9059cbb8c836115be868d613d28565b6115c89190613d28565b6040518363ffffffff1660e01b81526004016115e5929190613a7a565b602060405180830381600087803b1580156115ff57600080fd5b505af1158015611613573d6000803e3d6000fd5b505050506040513d601f19601f820116820180604052508101906116379190613972565b50606a54604051600080516020613def83398151915291611669918d9186916001600160a01b03909116908e90613aad565b60405180910390a161167b8183613ccf565b9b909a5098505050505050505050565b606a5460009081906001600160a01b03163314806116b357506068546001600160a01b031633145b6116cf5760405162461bcd60e51b815260040161063090613b0a565b606954606654604051636eb1769f60e11b815286926001600160a01b039081169263dd62ed3e926117069230921690600401613a93565b60206040518083038186803b15801561171e57600080fd5b505afa158015611732573d6000803e3d6000fd5b505050506040513d601f19601f820116820180604052508101906117569190613a01565b10156117e65760695460665460405163095ea7b360e01b81526001600160a01b039283169263095ea7b392611792929116908890600401613a7a565b602060405180830381600087803b1580156117ac57600080fd5b505af11580156117c0573d6000803e3d6000fd5b505050506040513d601f19601f820116820180604052508101906117e49190613972565b505b836117f360008888612546565b111561183d5760405162461bcd60e51b8152602060048201526019602482015278125394d551919250d251539517d25394155517d05353d55395603a1b6044820152606401610630565b600061184a876000612e6a565b90506060606560009054906101000a90046001600160a01b03166001600160a01b03166373b295c26040518163ffffffff1660e01b815260040160206040518083038186803b15801561189c57600080fd5b505afa1580156118b0573d6000803e3d6000fd5b505050506040513d601f19601f820116820180604052508101906118d49190613787565b6001600160a01b0316886001600160a01b0316141561198257606554604051633d2120b560e11b81526001600160a01b0390911690637a42416a90611925908a908a9087908f908c90600401613c93565b600060405180830381600087803b15801561193f57600080fd5b505af1158015611953573d6000803e3d6000fd5b505050506040513d6000823e601f3d908101601f1916820160405261197b91908101906138ad565b9050611a13565b606554604051634401edf760e11b81526001600160a01b0390911690638803dbee906119ba908a908a9087908f908c90600401613c93565b600060405180830381600087803b1580156119d457600080fd5b505af11580156119e8573d6000803e3d6000fd5b505050506040513d6000823e601f3d908101601f19168201604052611a1091908101906138ad565b90505b600081600081518110611a2857611a28613d9c565b6020026020010151905060006305f5e100606b5483611a479190613d09565b611a519190613ce7565b606954606c5460405163a9059cbb60e01b81529293506001600160a01b039182169263a9059cbb92611a899216908590600401613a7a565b602060405180830381600087803b158015611aa357600080fd5b505af1158015611ab7573d6000803e3d6000fd5b505050506040513d601f19601f82011682018060405250810190611adb9190613972565b506069546001600160a01b031663a9059cbb8c83611af9868d613d28565b611b039190613d28565b6040518363ffffffff1660e01b8152600401611b20929190613a7a565b602060405180830381600087803b158015611b3a57600080fd5b505af1158015611b4e573d6000803e3d6000fd5b505050506040513d601f19601f82011682018060405250810190611b729190613972565b50606a54604051600080516020613def83398151915291611669916001600160a01b039091169085908e908e90613aad565b606a5460009081906001600160a01b0316331480611bcc57506068546001600160a01b031633145b611be85760405162461bcd60e51b815260040161063090613b0a565b606954606654604051636eb1769f60e11b815287926001600160a01b039081169263dd62ed3e92611c1f9230921690600401613a93565b60206040518083038186803b158015611c3757600080fd5b505afa158015611c4b573d6000803e3d6000fd5b505050506040513d601f19601f82011682018060405250810190611c6f9190613a01565b1015611cff5760695460665460405163095ea7b360e01b81526001600160a01b039283169263095ea7b392611cab929116908990600401613a7a565b602060405180830381600087803b158015611cc557600080fd5b505af1158015611cd9573d6000803e3d6000fd5b505050506040513d601f19601f82011682018060405250810190611cfd9190613972565b505b83611d0c60008888612b4d565b1015611d2a5760405162461bcd60e51b815260040161063090613bc3565b60006305f5e100606b5487611d3f9190613d09565b611d499190613ce7565b606954606c5460405163a9059cbb60e01b81529293506001600160a01b039182169263a9059cbb92611d819216908590600401613a7a565b602060405180830381600087803b158015611d9b57600080fd5b505af1158015611daf573d6000803e3d6000fd5b505050506040513d601f19601f82011682018060405250810190611dd39190613972565b506000611de1886000612e6a565b90506060606560009054906101000a90046001600160a01b03166001600160a01b03166373b295c26040518163ffffffff1660e01b815260040160206040518083038186803b158015611e3357600080fd5b505afa158015611e47573d6000803e3d6000fd5b505050506040513d601f19601f82011682018060405250810190611e6b9190613787565b6001600160a01b0316896001600160a01b03161415611f20576065546001600160a01b031663676528d1611e9f858b613d28565b89858e8b6040518663ffffffff1660e01b8152600401611ec3959493929190613c93565b600060405180830381600087803b158015611edd57600080fd5b505af1158015611ef1573d6000803e3d6000fd5b505050506040513d6000823e601f3d908101601f19168201604052611f1991908101906138ad565b9050611fb8565b6065546001600160a01b03166338ed1739611f3b858b613d28565b89858e8b6040518663ffffffff1660e01b8152600401611f5f959493929190613c93565b600060405180830381600087803b158015611f7957600080fd5b505af1158015611f8d573d6000803e3d6000fd5b505050506040513d6000823e601f3d908101601f19168201604052611fb591908101906138ad565b90505b606a548151600080516020613def833981519152916001600160a01b0316908a908c9085906112a190600190613d28565b600060378281548110611ffe57611ffe613d9c565b6000918252602090912001546001600160a01b031692915050565b606a5460009081906001600160a01b031633148061204157506068546001600160a01b031633145b61205d5760405162461bcd60e51b815260040161063090613b0a565b3484612072600161206c6128bb565b84612b4d565b10156120905760405162461bcd60e51b815260040161063090613bc3565b60006305f5e100606b54836120a59190613d09565b6120af9190613ce7565b606c546040519192506001600160a01b03169082156108fc029083906000818181858888f193505050501580156120ea573d6000803e3d6000fd5b5060006120ff6120f86128bb565b6001612e6a565b6065549091506000906001600160a01b031663a2a1623d6121208587613d28565b8a858d8c6040518663ffffffff1660e01b81526004016121439493929190613c5e565b6000604051808303818588803b15801561215c57600080fd5b505af1158015612170573d6000803e3d6000fd5b50505050506040513d6000823e601f3d908101601f1916820160405261219991908101906138ad565b606a5481519192507fa979c0b10cb04562c5689b2bb7868c45ff45a80db806e338eae84994215ba8059186916001600160a01b03169084906121dd90600190613d28565b815181106121ed576121ed613d9c565b602002602001015160405161221e939291909283526001600160a01b03919091166020830152604082015260600190565b60405180910390a180600182516122359190613d28565b8151811061224557612245613d9c565b6020026020010151839550955050505050935093915050565b606a546001600160a01b031633148061228157506068546001600160a01b031633145b61229d5760405162461bcd60e51b815260040161063090613b0a565b606954606654604051636eb1769f60e11b815283926001600160a01b039081169263dd62ed3e926122d49230921690600401613a93565b60206040518083038186803b1580156122ec57600080fd5b505afa158015612300573d6000803e3d6000fd5b505050506040513d601f19601f820116820180604052508101906123249190613a01565b10156123b65760695460665460405163095ea7b360e01b81526001600160a01b039283169263095ea7b3926123629291169060001990600401613a7a565b602060405180830381600087803b15801561237c57600080fd5b505af1158015612390573d6000803e3d6000fd5b505050506040513d601f19601f820116820180604052508101906123b49190613972565b505b60006123c3836000612e6a565b9050606560009054906101000a90046001600160a01b03166001600160a01b03166373b295c26040518163ffffffff1660e01b815260040160206040518083038186803b15801561241357600080fd5b505afa158015612427573d6000803e3d6000fd5b505050506040513d601f19601f8201168201806040525081019061244b9190613787565b6001600160a01b0316836001600160a01b031614156124d457606554604051633b158ab160e11b81526001600160a01b039091169063762b15629061249d90859060009086908a904290600401613c93565b600060405180830381600087803b1580156124b757600080fd5b505af11580156124cb573d6000803e3d6000fd5b50505050612540565b606554604051635c11d79560e01b81526001600160a01b0390911690635c11d7959061250d90859060009086908a904290600401613c93565b600060405180830381600087803b15801561252757600080fd5b505af115801561253b573d6000803e3d6000fd5b505050505b50505050565b6000806125538486612e6a565b6065546040516307c0329d60e21b81529192506000916001600160a01b0390911690631f00ca749061258b9087908690600401613c45565b60006040518083038186803b1580156125a357600080fd5b505afa1580156125b7573d6000803e3d6000fd5b505050506040513d6000823e601f3d908101601f191682016040526125df91908101906138ad565b90506000816000815181106125f6576125f6613d9c565b602002602001015190506305f5e100606b546305f5e1006126179190613ccf565b6126219083613d09565b61262b9190613ce7565b93505050505b9392505050565b606a546001600160a01b031633148061265b57506068546001600160a01b031633145b6126775760405162461bcd60e51b815260040161063090613b0a565b6305f5e1008111156126cb5760405162461bcd60e51b815260206004820152601960248201527f464545533a207377617020657863656564696e672031303025000000000000006044820152606401610630565b606b55565b600054610100900460ff166126eb5760005460ff16156126ef565b303b155b6127525760405162461bcd60e51b815260206004820152602e60248201527f496e697469616c697a61626c653a20636f6e747261637420697320616c72656160448201526d191e481a5b9a5d1a585b1a5e995960921b6064820152608401610630565b600054610100900460ff16158015612774576000805461ffff19166101011790555b6001600160a01b0384166127b85760405162461bcd60e51b815260206004820152600b60248201526a524f55544552205a45524f60a81b6044820152606401610630565b6040805160018082528183019092526000916020808301908036833701905050905033816000815181106127ee576127ee613d9c565b6001600160a01b03929092166020928302919091019091015260408051600180825281830190925260009181602001602082028036833701905050905060018160008151811061284057612840613d9c565b60200260200101818152505061285682826131ce565b5050606680546001600160a01b038087166001600160a01b0319928316811790935560658054831690931790925560688054821633179055606b859055606c8054928516929091169190911790558015612540576000805461ff001916905550505050565b606554604080516339d94ae160e11b815290516000926001600160a01b0316916373b295c2916004808301926020929190829003018186803b15801561290057600080fd5b505afa158015612914573d6000803e3d6000fd5b505050506040513d601f19601f820116820180604052508101906129389190613787565b905090565b606a5460009081906001600160a01b031633148061296557506068546001600160a01b031633145b6129815760405162461bcd60e51b815260040161063090613b0a565b600061298e6120f86128bb565b606554604051638a657e6760e01b81529192506000916001600160a01b0390911690638a657e679034906129cc908a9087908d908c90600401613c5e565b6000604051808303818588803b1580156129e557600080fd5b505af11580156129f9573d6000803e3d6000fd5b50505050506040513d6000823e601f3d908101601f19168201604052612a2291908101906138ad565b9050600081600081518110612a3957612a39613d9c565b6020026020010151905060006305f5e100606b5483612a589190613d09565b612a629190613ce7565b606c546040519192506001600160a01b03169082156108fc029083906000818181858888f19350505050158015612a9d573d6000803e3d6000fd5b506001600160a01b0389166108fc82612ab68534613d28565b612ac09190613d28565b6040518115909202916000818181858888f19350505050158015612ae8573d6000803e3d6000fd5b50606a54604080518481526001600160a01b03909216602083015281018990527fa979c0b10cb04562c5689b2bb7868c45ff45a80db806e338eae84994215ba8059060600160405180910390a1612b3f8183613ccf565b999098509650505050505050565b600080612b5a8486612e6a565b60655460405163d06ca61f60e01b81529192506000916001600160a01b039091169063d06ca61f90612b929087908690600401613c45565b60006040518083038186803b158015612baa57600080fd5b505afa158015612bbe573d6000803e3d6000fd5b505050506040513d6000823e601f3d908101601f19168201604052612be691908101906138ad565b905060008160018351612bf99190613d28565b81518110612c0957612c09613d9c565b602002602001015190506305f5e100606b546305f5e1006126179190613d28565b6033546001600160a01b03841660009081526035602052604081205490918391612c549086613d09565b612c5e9190613ce7565b612c689190613d28565b949350505050565b80471015612cc05760405162461bcd60e51b815260206004820152601d60248201527f416464726573733a20696e73756666696369656e742062616c616e63650000006044820152606401610630565b6000826001600160a01b03168260405160006040518083038185875af1925050503d8060008114612d0d576040519150601f19603f3d011682016040523d82523d6000602084013e612d12565b606091505b5050905080612d895760405162461bcd60e51b815260206004820152603a60248201527f416464726573733a20756e61626c6520746f2073656e642076616c75652c207260448201527f6563697069656e74206d617920686176652072657665727465640000000000006064820152608401610630565b505050565b612d898363a9059cbb60e01b8484604051602401612dad929190613a7a565b60408051601f198184030181529190526020810180516001600160e01b03166001600160e01b031990931692909217909152613203565b60665460405163095ea7b360e01b815283916001600160a01b038084169263095ea7b392612e189216908690600401613a7a565b602060405180830381600087803b158015612e3257600080fd5b505af1158015612e46573d6000803e3d6000fd5b505050506040513d601f19601f820116820180604052508101906125409190613972565b606554604080516339d94ae160e11b815290516060926001600160a01b0316916373b295c2916004808301926020929190829003018186803b158015612eaf57600080fd5b505afa158015612ec3573d6000803e3d6000fd5b505050506040513d601f19601f82011682018060405250810190612ee79190613787565b6001600160a01b0316836001600160a01b0316141561300f576040805160028082526060820183526000926020830190803683370190505090508215612f91578381600081518110612f3b57612f3b613d9c565b6001600160a01b039283166020918202929092010152606a54825191169082906001908110612f6c57612f6c613d9c565b60200260200101906001600160a01b031690816001600160a01b031681525050613008565b606a5481516001600160a01b03909116908290600090612fb357612fb3613d9c565b60200260200101906001600160a01b031690816001600160a01b0316815250508381600181518110612fe757612fe7613d9c565b60200260200101906001600160a01b031690816001600160a01b0316815250505b9050610c93565b60408051600380825260808201909252600091602082016060803683375050606554604080516339d94ae160e11b815290519394506001600160a01b03909116926373b295c292506004808301926020929190829003018186803b15801561307657600080fd5b505afa15801561308a573d6000803e3d6000fd5b505050506040513d601f19601f820116820180604052508101906130ae9190613787565b816001815181106130c1576130c1613d9c565b60200260200101906001600160a01b031690816001600160a01b03168152505082156131515783816000815181106130fb576130fb613d9c565b6001600160a01b039283166020918202929092010152606a5482519116908290600290811061312c5761312c613d9c565b60200260200101906001600160a01b031690816001600160a01b031681525050612631565b606a5481516001600160a01b0390911690829060009061317357613173613d9c565b60200260200101906001600160a01b031690816001600160a01b03168152505083816002815181106131a7576131a7613d9c565b60200260200101906001600160a01b031690816001600160a01b0316815250509392505050565b600054610100900460ff166131f55760405162461bcd60e51b815260040161063090613bfa565b6131ff82826132d5565b5050565b6000613258826040518060400160405280602081526020017f5361666545524332303a206c6f772d6c6576656c2063616c6c206661696c6564815250856001600160a01b03166134139092919063ffffffff16565b805190915015612d8957808060200190518101906132769190613972565b612d895760405162461bcd60e51b815260206004820152602a60248201527f5361666545524332303a204552433230206f7065726174696f6e20646964206e6044820152691bdd081cdd58d8d9595960b21b6064820152608401610630565b600054610100900460ff166132fc5760405162461bcd60e51b815260040161063090613bfa565b80518251146133685760405162461bcd60e51b815260206004820152603260248201527f5061796d656e7453706c69747465723a2070617965657320616e6420736861726044820152710cae640d8cadccee8d040dad2e6dac2e8c6d60731b6064820152608401610630565b60008251116133b95760405162461bcd60e51b815260206004820152601a60248201527f5061796d656e7453706c69747465723a206e6f207061796565730000000000006044820152606401610630565b60005b8251811015612d89576134018382815181106133da576133da613d9c565b60200260200101518383815181106133f4576133f4613d9c565b6020026020010151613422565b8061340b81613d6b565b9150506133bc565b6060612c688484600085613600565b6001600160a01b03821661348d5760405162461bcd60e51b815260206004820152602c60248201527f5061796d656e7453706c69747465723a206163636f756e74206973207468652060448201526b7a65726f206164647265737360a01b6064820152608401610630565b600081116134dd5760405162461bcd60e51b815260206004820152601d60248201527f5061796d656e7453706c69747465723a207368617265732061726520300000006044820152606401610630565b6001600160a01b038216600090815260356020526040902054156135575760405162461bcd60e51b815260206004820152602b60248201527f5061796d656e7453706c69747465723a206163636f756e7420616c726561647960448201526a206861732073686172657360a81b6064820152608401610630565b60378054600181019091557f42a7b7dd785cd69714a189dffb3fd7d7174edc9ece837694ce50f7078f7c31ae0180546001600160a01b0319166001600160a01b03841690811790915560009081526035602052604090208190556033546135bf908290613ccf565b6033556040517f40c340f65e17194d14ddddb073d3c9f888e3cb52b5aae0c6c7706b4fbc905fac906135f49084908490613a7a565b60405180910390a15050565b6060824710156136615760405162461bcd60e51b815260206004820152602660248201527f416464726573733a20696e73756666696369656e742062616c616e636520666f6044820152651c8818d85b1b60d21b6064820152608401610630565b6001600160a01b0385163b6136b85760405162461bcd60e51b815260206004820152601d60248201527f416464726573733a2063616c6c20746f206e6f6e2d636f6e74726163740000006044820152606401610630565b600080866001600160a01b031685876040516136d49190613a5e565b60006040518083038185875af1925050503d8060008114613711576040519150601f19603f3d011682016040523d82523d6000602084013e613716565b606091505b5091509150613726828286613731565b979650505050505050565b60608315613740575081612631565b8251156137505782518084602001fd5b8160405162461bcd60e51b81526004016106309190613ad7565b60006020828403121561377c57600080fd5b813561263181613dc8565b60006020828403121561379957600080fd5b815161263181613dc8565b6000806000606084860312156137b957600080fd5b83356137c481613dc8565b925060208401356137d481613dc8565b929592945050506040919091013590565b600080600080600060a086880312156137fd57600080fd5b853561380881613dc8565b9450602086013561381881613dc8565b94979496505050506040830135926060810135926080909101359150565b60008060006060848603121561384b57600080fd5b833561385681613dc8565b925060208401359150604084013561386d81613dc8565b809150509250925092565b60008060006060848603121561388d57600080fd5b833561389881613dc8565b95602085013595506040909401359392505050565b600060208083850312156138c057600080fd5b825167ffffffffffffffff808211156138d857600080fd5b818501915085601f8301126138ec57600080fd5b8151818111156138fe576138fe613db2565b8060051b604051601f19603f8301168101818110858211171561392357613923613db2565b604052828152858101935084860182860187018a101561394257600080fd5b600095505b83861015613965578051855260019590950194938601938601613947565b5098975050505050505050565b60006020828403121561398457600080fd5b815161263181613de0565b6000806000606084860312156139a457600080fd5b83356137c481613de0565b600080604083850312156139c257600080fd5b82356139cd81613dc8565b915060208301356139dd81613dc8565b809150509250929050565b6000602082840312156139fa57600080fd5b5035919050565b600060208284031215613a1357600080fd5b5051919050565b600081518084526020808501945080840160005b83811015613a535781516001600160a01b031687529582019590820190600101613a2e565b509495945050505050565b60008251613a70818460208701613d3f565b9190910192915050565b6001600160a01b03929092168252602082015260400190565b6001600160a01b0392831681529116602082015260400190565b6001600160a01b039485168152602081019390935292166040820152606081019190915260800190565b6020815260008251806020840152613af6816040850160208701613d3f565b601f01601f19169190910160400192915050565b6020808252600e908201526d4163636573732044656e6965642160901b604082015260600190565b60208082526026908201527f5061796d656e7453706c69747465723a206163636f756e7420686173206e6f2060408201526573686172657360d01b606082015260800190565b6020808252602b908201527f5061796d656e7453706c69747465723a206163636f756e74206973206e6f742060408201526a191d59481c185e5b595b9d60aa1b606082015260800190565b6020808252601a908201527f494e53554646494349454e545f4f55545055545f414d4f554e54000000000000604082015260600190565b6020808252602b908201527f496e697469616c697a61626c653a20636f6e7472616374206973206e6f74206960408201526a6e697469616c697a696e6760a81b606082015260800190565b828152604060208201526000612c686040830184613a1a565b848152608060208201526000613c776080830186613a1a565b6001600160a01b03949094166040830152506060015292915050565b85815284602082015260a060408201526000613cb260a0830186613a1a565b6001600160a01b0394909416606083015250608001529392505050565b60008219821115613ce257613ce2613d86565b500190565b600082613d0457634e487b7160e01b600052601260045260246000fd5b500490565b6000816000190483118215151615613d2357613d23613d86565b500290565b600082821015613d3a57613d3a613d86565b500390565b60005b83811015613d5a578181015183820152602001613d42565b838111156125405750506000910152565b6000600019821415613d7f57613d7f613d86565b5060010190565b634e487b7160e01b600052601160045260246000fd5b634e487b7160e01b600052603260045260246000fd5b634e487b7160e01b600052604160045260246000fd5b6001600160a01b0381168114613ddd57600080fd5b50565b8015158114613ddd57600080fdfedb587d878116df0bdd4fe154699aa2c5f439da001cc811dfd05d9f589fc5a8eea164736f6c6343000807000a",
  "devdoc": {
    "kind": "dev",
    "methods": {
      "payee(uint256)": {
        "details": "Getter for the address of the payee number `index`."
      },
      "release(address)": {
        "details": "Triggers a transfer to `account` of the amount of Ether they are owed, according to their percentage of the total shares and their previous withdrawals."
      },
      "release(address,address)": {
        "details": "Triggers a transfer to `account` of the amount of `token` tokens they are owed, according to their percentage of the total shares and their previous withdrawals. `token` must be the address of an IERC20 contract."
      },
      "released(address)": {
        "details": "Getter for the amount of Ether already released to a payee."
      },
      "released(address,address)": {
        "details": "Getter for the amount of `token` tokens already released to a payee. `token` should be the address of an IERC20 contract."
      },
      "shares(address)": {
        "details": "Getter for the amount of shares held by an account."
      },
      "totalReleased()": {
        "details": "Getter for the total amount of Ether already released."
      },
      "totalReleased(address)": {
        "details": "Getter for the total amount of `token` already released. `token` should be the address of an IERC20 contract."
      },
      "totalShares()": {
        "details": "Getter for the total shares held by payees."
      }
    },
    "version": 1
  },
  "userdoc": {
    "kind": "user",
    "methods": {},
    "version": 1
  },
  "storageLayout": {
    "storage": [
      {
        "astId": 598,
        "contract": "contracts/dependencies/LiquidityRouter.sol:LiquidityRouter",
        "label": "_initialized",
        "offset": 0,
        "slot": "0",
        "type": "t_bool"
      },
      {
        "astId": 601,
        "contract": "contracts/dependencies/LiquidityRouter.sol:LiquidityRouter",
        "label": "_initializing",
        "offset": 1,
        "slot": "0",
        "type": "t_bool"
      },
      {
        "astId": 1889,
        "contract": "contracts/dependencies/LiquidityRouter.sol:LiquidityRouter",
        "label": "__gap",
        "offset": 0,
        "slot": "1",
        "type": "t_array(t_uint256)50_storage"
      },
      {
        "astId": 163,
        "contract": "contracts/dependencies/LiquidityRouter.sol:LiquidityRouter",
        "label": "_totalShares",
        "offset": 0,
        "slot": "51",
        "type": "t_uint256"
      },
      {
        "astId": 165,
        "contract": "contracts/dependencies/LiquidityRouter.sol:LiquidityRouter",
        "label": "_totalReleased",
        "offset": 0,
        "slot": "52",
        "type": "t_uint256"
      },
      {
        "astId": 169,
        "contract": "contracts/dependencies/LiquidityRouter.sol:LiquidityRouter",
        "label": "_shares",
        "offset": 0,
        "slot": "53",
        "type": "t_mapping(t_address,t_uint256)"
      },
      {
        "astId": 173,
        "contract": "contracts/dependencies/LiquidityRouter.sol:LiquidityRouter",
        "label": "_released",
        "offset": 0,
        "slot": "54",
        "type": "t_mapping(t_address,t_uint256)"
      },
      {
        "astId": 176,
        "contract": "contracts/dependencies/LiquidityRouter.sol:LiquidityRouter",
        "label": "_payees",
        "offset": 0,
        "slot": "55",
        "type": "t_array(t_address)dyn_storage"
      },
      {
        "astId": 181,
        "contract": "contracts/dependencies/LiquidityRouter.sol:LiquidityRouter",
        "label": "_erc20TotalReleased",
        "offset": 0,
        "slot": "56",
        "type": "t_mapping(t_contract(IERC20Upgradeable)1356,t_uint256)"
      },
      {
        "astId": 188,
        "contract": "contracts/dependencies/LiquidityRouter.sol:LiquidityRouter",
        "label": "_erc20Released",
        "offset": 0,
        "slot": "57",
        "type": "t_mapping(t_contract(IERC20Upgradeable)1356,t_mapping(t_address,t_uint256))"
      },
      {
        "astId": 590,
        "contract": "contracts/dependencies/LiquidityRouter.sol:LiquidityRouter",
        "label": "__gap",
        "offset": 0,
        "slot": "58",
        "type": "t_array(t_uint256)43_storage"
      },
      {
        "astId": 8773,
        "contract": "contracts/dependencies/LiquidityRouter.sol:LiquidityRouter",
        "label": "uniswapV2Router",
        "offset": 0,
        "slot": "101",
        "type": "t_contract(IJoeRouter02)14566"
      },
      {
        "astId": 8775,
        "contract": "contracts/dependencies/LiquidityRouter.sol:LiquidityRouter",
        "label": "routerAddress",
        "offset": 0,
        "slot": "102",
        "type": "t_address"
      },
      {
        "astId": 8777,
        "contract": "contracts/dependencies/LiquidityRouter.sol:LiquidityRouter",
        "label": "uniswapV2Pair",
        "offset": 0,
        "slot": "103",
        "type": "t_address"
      },
      {
        "astId": 8779,
        "contract": "contracts/dependencies/LiquidityRouter.sol:LiquidityRouter",
        "label": "admin0xB",
        "offset": 0,
        "slot": "104",
        "type": "t_address_payable"
      },
      {
        "astId": 8782,
        "contract": "contracts/dependencies/LiquidityRouter.sol:LiquidityRouter",
        "label": "token",
        "offset": 0,
        "slot": "105",
        "type": "t_contract(IERC20)2517"
      },
      {
        "astId": 8784,
        "contract": "contracts/dependencies/LiquidityRouter.sol:LiquidityRouter",
        "label": "tokenAddress",
        "offset": 0,
        "slot": "106",
        "type": "t_address"
      },
      {
        "astId": 8786,
        "contract": "contracts/dependencies/LiquidityRouter.sol:LiquidityRouter",
        "label": "swapTaxFee",
        "offset": 0,
        "slot": "107",
        "type": "t_uint256"
      },
      {
        "astId": 8788,
        "contract": "contracts/dependencies/LiquidityRouter.sol:LiquidityRouter",
        "label": "swapTaxPool",
        "offset": 0,
        "slot": "108",
        "type": "t_address"
      }
    ],
    "types": {
      "t_address": {
        "encoding": "inplace",
        "label": "address",
        "numberOfBytes": "20"
      },
      "t_address_payable": {
        "encoding": "inplace",
        "label": "address payable",
        "numberOfBytes": "20"
      },
      "t_array(t_address)dyn_storage": {
        "base": "t_address",
        "encoding": "dynamic_array",
        "label": "address[]",
        "numberOfBytes": "32"
      },
      "t_array(t_uint256)43_storage": {
        "base": "t_uint256",
        "encoding": "inplace",
        "label": "uint256[43]",
        "numberOfBytes": "1376"
      },
      "t_array(t_uint256)50_storage": {
        "base": "t_uint256",
        "encoding": "inplace",
        "label": "uint256[50]",
        "numberOfBytes": "1600"
      },
      "t_bool": {
        "encoding": "inplace",
        "label": "bool",
        "numberOfBytes": "1"
      },
      "t_contract(IERC20)2517": {
        "encoding": "inplace",
        "label": "contract IERC20",
        "numberOfBytes": "20"
      },
      "t_contract(IERC20Upgradeable)1356": {
        "encoding": "inplace",
        "label": "contract IERC20Upgradeable",
        "numberOfBytes": "20"
      },
      "t_contract(IJoeRouter02)14566": {
        "encoding": "inplace",
        "label": "contract IJoeRouter02",
        "numberOfBytes": "20"
      },
      "t_mapping(t_address,t_uint256)": {
        "encoding": "mapping",
        "key": "t_address",
        "label": "mapping(address => uint256)",
        "numberOfBytes": "32",
        "value": "t_uint256"
      },
      "t_mapping(t_contract(IERC20Upgradeable)1356,t_mapping(t_address,t_uint256))": {
        "encoding": "mapping",
        "key": "t_contract(IERC20Upgradeable)1356",
        "label": "mapping(contract IERC20Upgradeable => mapping(address => uint256))",
        "numberOfBytes": "32",
        "value": "t_mapping(t_address,t_uint256)"
      },
      "t_mapping(t_contract(IERC20Upgradeable)1356,t_uint256)": {
        "encoding": "mapping",
        "key": "t_contract(IERC20Upgradeable)1356",
        "label": "mapping(contract IERC20Upgradeable => uint256)",
        "numberOfBytes": "32",
        "value": "t_uint256"
      },
      "t_uint256": {
        "encoding": "inplace",
        "label": "uint256",
        "numberOfBytes": "32"
      }
    }
  }
}