{
  "address": "0xe4Bf53DFba6aC5E632129b9D3c3b73Cd9491dD90",
  "abi": [
    {
      "anonymous": false,
      "inputs": [
        {
          "indexed": false,
          "internalType": "address",
          "name": "tokenIn",
          "type": "address"
        },
        {
          "indexed": false,
          "internalType": "uint256",
          "name": "amountIn",
          "type": "uint256"
        },
        {
          "indexed": false,
          "internalType": "address",
          "name": "tokenOut",
          "type": "address"
        },
        {
          "indexed": false,
          "internalType": "uint256",
          "name": "amountOut",
          "type": "uint256"
        }
      ],
      "name": "Swapped",
      "type": "event"
    },
    {
      "anonymous": false,
      "inputs": [
        {
          "indexed": false,
          "internalType": "uint256",
          "name": "amountIn",
          "type": "uint256"
        },
        {
          "indexed": false,
          "internalType": "address",
          "name": "tokenOut",
          "type": "address"
        },
        {
          "indexed": false,
          "internalType": "uint256",
          "name": "amountOut",
          "type": "uint256"
        }
      ],
      "name": "SwappedNative",
      "type": "event"
    },
    {
      "inputs": [],
      "name": "admin0xB",
      "outputs": [
        {
          "internalType": "address",
          "name": "",
          "type": "address"
        }
      ],
      "stateMutability": "view",
      "type": "function"
    },
    {
      "inputs": [
        {
          "internalType": "bool",
          "name": "is0xBOut",
          "type": "bool"
        },
        {
          "internalType": "address",
          "name": "targetToken",
          "type": "address"
        },
        {
          "internalType": "uint256",
          "name": "outputAmount",
          "type": "uint256"
        }
      ],
      "name": "getInputAmount",
      "outputs": [
        {
          "internalType": "uint256[]",
          "name": "",
          "type": "uint256[]"
        }
      ],
      "stateMutability": "view",
      "type": "function"
    },
    {
      "inputs": [
        {
          "internalType": "bool",
          "name": "is0xBOut",
          "type": "bool"
        },
        {
          "internalType": "address",
          "name": "targetToken",
          "type": "address"
        },
        {
          "internalType": "uint256",
          "name": "inputAmount",
          "type": "uint256"
        }
      ],
      "name": "getOutputAmount",
      "outputs": [
        {
          "internalType": "uint256[]",
          "name": "",
          "type": "uint256[]"
        }
      ],
      "stateMutability": "view",
      "type": "function"
    },
    {
      "inputs": [
        {
          "internalType": "address",
          "name": "_router",
          "type": "address"
        }
      ],
      "name": "initialize",
      "outputs": [],
      "stateMutability": "nonpayable",
      "type": "function"
    },
    {
      "inputs": [],
      "name": "routerAddress",
      "outputs": [
        {
          "internalType": "address",
          "name": "",
          "type": "address"
        }
      ],
      "stateMutability": "view",
      "type": "function"
    },
    {
      "inputs": [
        {
          "internalType": "address",
          "name": "_token",
          "type": "address"
        }
      ],
      "name": "setToken",
      "outputs": [],
      "stateMutability": "nonpayable",
      "type": "function"
    },
    {
      "inputs": [
        {
          "internalType": "address",
          "name": "receiver",
          "type": "address"
        },
        {
          "internalType": "address",
          "name": "outTokenAddr",
          "type": "address"
        },
        {
          "internalType": "uint256",
          "name": "amountOut",
          "type": "uint256"
        },
        {
          "internalType": "uint256",
          "name": "amountInMax",
          "type": "uint256"
        },
        {
          "internalType": "uint256",
          "name": "deadline",
          "type": "uint256"
        }
      ],
      "name": "swap0xBForExactToken",
      "outputs": [],
      "stateMutability": "nonpayable",
      "type": "function"
    },
    {
      "inputs": [
        {
          "internalType": "address",
          "name": "receiver",
          "type": "address"
        },
        {
          "internalType": "uint256",
          "name": "amountOut",
          "type": "uint256"
        },
        {
          "internalType": "uint256",
          "name": "deadline",
          "type": "uint256"
        }
      ],
      "name": "swapAVAXForExact0xB",
      "outputs": [],
      "stateMutability": "payable",
      "type": "function"
    },
    {
      "inputs": [
        {
          "internalType": "address",
          "name": "receiver",
          "type": "address"
        },
        {
          "internalType": "address",
          "name": "outTokenAddr",
          "type": "address"
        },
        {
          "internalType": "uint256",
          "name": "amountIn",
          "type": "uint256"
        },
        {
          "internalType": "uint256",
          "name": "amountOutMin",
          "type": "uint256"
        },
        {
          "internalType": "uint256",
          "name": "deadline",
          "type": "uint256"
        }
      ],
      "name": "swapExact0xBForToken",
      "outputs": [],
      "stateMutability": "nonpayable",
      "type": "function"
    },
    {
      "inputs": [
        {
          "internalType": "address",
          "name": "receiver",
          "type": "address"
        },
        {
          "internalType": "uint256",
          "name": "amountOutMin",
          "type": "uint256"
        },
        {
          "internalType": "uint256",
          "name": "deadline",
          "type": "uint256"
        }
      ],
      "name": "swapExactAVAXFor0xB",
      "outputs": [],
      "stateMutability": "payable",
      "type": "function"
    },
    {
      "inputs": [
        {
          "internalType": "address",
          "name": "receiver",
          "type": "address"
        },
        {
          "internalType": "address",
          "name": "inTokenAddr",
          "type": "address"
        },
        {
          "internalType": "uint256",
          "name": "amountIn",
          "type": "uint256"
        },
        {
          "internalType": "uint256",
          "name": "amountOutMin",
          "type": "uint256"
        },
        {
          "internalType": "uint256",
          "name": "deadline",
          "type": "uint256"
        }
      ],
      "name": "swapExactTokenFor0xB",
      "outputs": [],
      "stateMutability": "nonpayable",
      "type": "function"
    },
    {
      "inputs": [
        {
          "internalType": "address",
          "name": "receiver",
          "type": "address"
        },
        {
          "internalType": "address",
          "name": "inTokenAddr",
          "type": "address"
        },
        {
          "internalType": "uint256",
          "name": "amountOut",
          "type": "uint256"
        },
        {
          "internalType": "uint256",
          "name": "amountInMax",
          "type": "uint256"
        },
        {
          "internalType": "uint256",
          "name": "deadline",
          "type": "uint256"
        }
      ],
      "name": "swapTokenForExact0xB",
      "outputs": [],
      "stateMutability": "nonpayable",
      "type": "function"
    },
    {
      "inputs": [],
      "name": "tokenAddress",
      "outputs": [
        {
          "internalType": "address",
          "name": "",
          "type": "address"
        }
      ],
      "stateMutability": "view",
      "type": "function"
    },
    {
      "inputs": [],
      "name": "uniswapV2Pair",
      "outputs": [
        {
          "internalType": "address",
          "name": "",
          "type": "address"
        }
      ],
      "stateMutability": "view",
      "type": "function"
    },
    {
      "inputs": [
        {
          "internalType": "address",
          "name": "_newAddr",
          "type": "address"
        }
      ],
      "name": "updateUniswapV2Router",
      "outputs": [],
      "stateMutability": "nonpayable",
      "type": "function"
    },
    {
      "inputs": [],
      "name": "wrappedNative",
      "outputs": [
        {
          "internalType": "address",
          "name": "",
          "type": "address"
        }
      ],
      "stateMutability": "view",
      "type": "function"
    }
  ],
  "transactionHash": "0x87af2f6e9cb2bbdfe190c06f11d39952e39357b99f882e69203d76dc3bbc907d",
  "args": [],
  "numDeployments": 12,
  "solcInputHash": "3909c62edb025ab537f9e0673fb15c8c",
  "bytecode": "0x608060405234801561001057600080fd5b50612437806100206000396000f3fe6080604052600436106100f35760003560e01c806388e5249f1161008a578063c4d66de811610059578063c4d66de814610297578063eb6d3a11146102b7578063ed9705da146102cc578063f5c13653146102df57600080fd5b806388e5249f146102175780638f6e53b7146102375780639d76ea581461024a578063bd7476781461026a57600080fd5b806365b8dbc0116100c657806365b8dbc0146101975780636e54a8a0146101b757806374cefd8a146101d757806380be66cf146101f757600080fd5b80630584aecf146100f8578063144fa6d7146101355780633268cc561461015757806349bd5a5e14610177575b600080fd5b34801561010457600080fd5b50600354610118906001600160a01b031681565b6040516001600160a01b0390911681526020015b60405180910390f35b34801561014157600080fd5b50610155610150366004611ff8565b6102ff565b005b34801561016357600080fd5b50600154610118906001600160a01b031681565b34801561018357600080fd5b50600254610118906001600160a01b031681565b3480156101a357600080fd5b506101556101b2366004611ff8565b610869565b3480156101c357600080fd5b506101556101d2366004612032565b610996565b3480156101e357600080fd5b506101556101f2366004612032565b610b80565b34801561020357600080fd5b50610155610212366004612032565b610de9565b34801561022357600080fd5b50610155610232366004612032565b611201565b610155610245366004612083565b61156a565b34801561025657600080fd5b50600554610118906001600160a01b031681565b34801561027657600080fd5b5061028a61028536600461219a565b611761565b60405161012c9190612295565b3480156102a357600080fd5b506101556102b2366004611ff8565b611805565b3480156102c357600080fd5b5061011861194d565b6101556102da366004612083565b6119d9565b3480156102eb57600080fd5b5061028a6102fa36600461219a565b611ba8565b6005546001600160a01b031633148061032257506003546001600160a01b031633145b6103475760405162461bcd60e51b815260040161033e906122d9565b60405180910390fd5b6001600160a01b0381166103945760405162461bcd60e51b81526020600482015260146024820152732722abafaa27a5a2a71d103d32b9379030b2323960611b604482015260640161033e565b600580546001600160a01b03199081166001600160a01b0384811691821790935560048054909216178155600080546040805163c45a015560e01b815290519294620100009092049091169263c45a0155928282019260209290829003018186803b15801561040257600080fd5b505afa158015610416573d6000803e3d6000fd5b505050506040513d601f19601f8201168201806040525081019061043a9190612015565b600554600054604080516339d94ae160e11b815290516001600160a01b039485169463c9c653969481169362010000900416916373b295c2916004808301926020929190829003018186803b15801561049257600080fd5b505afa1580156104a6573d6000803e3d6000fd5b505050506040513d601f19601f820116820180604052508101906104ca9190612015565b6040518363ffffffff1660e01b81526004016104e7929190612238565b602060405180830381600087803b15801561050157600080fd5b505af1925050508015610531575060408051601f3d908101601f1916820190925261052e91810190612015565b60015b6106bf57600060029054906101000a90046001600160a01b03166001600160a01b031663c45a01556040518163ffffffff1660e01b815260040160206040518083038186803b15801561058357600080fd5b505afa158015610597573d6000803e3d6000fd5b505050506040513d601f19601f820116820180604052508101906105bb9190612015565b600554600054604080516339d94ae160e11b815290516001600160a01b039485169463e6a439059481169362010000900416916373b295c2916004808301926020929190829003018186803b15801561061357600080fd5b505afa158015610627573d6000803e3d6000fd5b505050506040513d601f19601f8201168201806040525081019061064b9190612015565b6040518363ffffffff1660e01b8152600401610668929190612238565b60206040518083038186803b15801561068057600080fd5b505afa158015610694573d6000803e3d6000fd5b505050506040513d601f19601f820116820180604052508101906106b89190612015565b9050610846565b50600060029054906101000a90046001600160a01b03166001600160a01b031663c45a01556040518163ffffffff1660e01b815260040160206040518083038186803b15801561070e57600080fd5b505afa158015610722573d6000803e3d6000fd5b505050506040513d601f19601f820116820180604052508101906107469190612015565b600554600054604080516339d94ae160e11b815290516001600160a01b039485169463e6a439059481169362010000900416916373b295c2916004808301926020929190829003018186803b15801561079e57600080fd5b505afa1580156107b2573d6000803e3d6000fd5b505050506040513d601f19601f820116820180604052508101906107d69190612015565b6040518363ffffffff1660e01b81526004016107f3929190612238565b60206040518083038186803b15801561080b57600080fd5b505afa15801561081f573d6000803e3d6000fd5b505050506040513d601f19601f820116820180604052508101906108439190612015565b90505b600280546001600160a01b0319166001600160a01b039290921691909117905550565b6005546001600160a01b031633148061088c57506003546001600160a01b031633145b6108a85760405162461bcd60e51b815260040161033e906122d9565b6000546001600160a01b038281166201000090920416141561091d5760405162461bcd60e51b815260206004820152602860248201527f544b4e3a2054686520726f7574657220616c7265616479206861732074686174604482015267206164647265737360c01b606482015260840161033e565b600180546001600160a01b0319166001600160a01b038381169182179092556000805462010000600160b01b03191662010000928302178082556040805163c45a015560e01b815290519294939091049092169163c45a0155916004808301926020929190829003018186803b15801561040257600080fd5b6005546001600160a01b03163314806109b957506003546001600160a01b031633145b6109d55760405162461bcd60e51b815260040161033e906122d9565b600154604051636eb1769f60e11b815284916001600160a01b038088169263dd62ed3e92610a0a923092911690600401612238565b60206040518083038186803b158015610a2257600080fd5b505afa158015610a36573d6000803e3d6000fd5b505050506040513d601f19601f82011682018060405250810190610a5a91906121db565b1015610a6957610a6984611bef565b6000610a76856001611c7c565b600080546040516338ed173960e01b81529293509091620100009091046001600160a01b0316906338ed173990610ab9908890889087908d908a90600401612357565b600060405180830381600087803b158015610ad357600080fd5b505af1158015610ae7573d6000803e3d6000fd5b505050506040513d6000823e601f3d908101601f19168201604052610b0f91908101906120b8565b905060008051602061240b8339815191528686600560009054906101000a90046001600160a01b03168460018651610b479190612393565b81518110610b5757610b576123b8565b6020026020010151604051610b6f949392919061226b565b60405180910390a150505050505050565b6005546001600160a01b0316331480610ba357506003546001600160a01b031633145b610bbf5760405162461bcd60e51b815260040161033e906122d9565b600154604051636eb1769f60e11b815283916001600160a01b038088169263dd62ed3e92610bf4923092911690600401612238565b60206040518083038186803b158015610c0c57600080fd5b505afa158015610c20573d6000803e3d6000fd5b505050506040513d601f19601f82011682018060405250810190610c4491906121db565b1015610c5357610c5384611bef565b6000610c60856001611c7c565b60008054604051634401edf760e11b81529293509091620100009091046001600160a01b031690638803dbee90610ca3908890889087908d908a90600401612357565b600060405180830381600087803b158015610cbd57600080fd5b505af1158015610cd1573d6000803e3d6000fd5b505050506040513d6000823e601f3d908101601f19168201604052610cf991908101906120b8565b9050600081600081518110610d1057610d106123b8565b60200260200101519050866001600160a01b031663a9059cbb898388610d369190612393565b6040518363ffffffff1660e01b8152600401610d53929190612252565b602060405180830381600087803b158015610d6d57600080fd5b505af1158015610d81573d6000803e3d6000fd5b505050506040513d601f19601f82011682018060405250810190610da5919061217d565b5060055460405160008051602061240b83398151915291610dd7918a9185916001600160a01b03909116908b9061226b565b60405180910390a15050505050505050565b6005546001600160a01b0316331480610e0c57506003546001600160a01b031633145b610e285760405162461bcd60e51b815260040161033e906122d9565b60048054600154604051636eb1769f60e11b815285936001600160a01b039384169363dd62ed3e93610e61933093919092169101612238565b60206040518083038186803b158015610e7957600080fd5b505afa158015610e8d573d6000803e3d6000fd5b505050506040513d601f19601f82011682018060405250810190610eb191906121db565b1015610f41576004805460015460405163095ea7b360e01b81526001600160a01b039283169363095ea7b393610eed9316916000199101612252565b602060405180830381600087803b158015610f0757600080fd5b505af1158015610f1b573d6000803e3d6000fd5b505050506040513d601f19601f82011682018060405250810190610f3f919061217d565b505b6000610f4e856000611c7c565b90506060600060029054906101000a90046001600160a01b03166001600160a01b03166373b295c26040518163ffffffff1660e01b815260040160206040518083038186803b158015610fa057600080fd5b505afa158015610fb4573d6000803e3d6000fd5b505050506040513d601f19601f82011682018060405250810190610fd89190612015565b6001600160a01b0316866001600160a01b0316141561108b57600054604051633d2120b560e11b8152620100009091046001600160a01b031690637a42416a9061102e908890889087908d908a90600401612357565b600060405180830381600087803b15801561104857600080fd5b505af115801561105c573d6000803e3d6000fd5b505050506040513d6000823e601f3d908101601f1916820160405261108491908101906120b8565b9050611121565b600054604051634401edf760e11b8152620100009091046001600160a01b031690638803dbee906110c8908890889087908d908a90600401612357565b600060405180830381600087803b1580156110e257600080fd5b505af11580156110f6573d6000803e3d6000fd5b505050506040513d6000823e601f3d908101601f1916820160405261111e91908101906120b8565b90505b600081600081518110611136576111366123b8565b60209081029190910101516004549091506001600160a01b031663a9059cbb896111608489612393565b6040518363ffffffff1660e01b815260040161117d929190612252565b602060405180830381600087803b15801561119757600080fd5b505af11580156111ab573d6000803e3d6000fd5b505050506040513d601f19601f820116820180604052508101906111cf919061217d565b5060055460405160008051602061240b83398151915291610dd7916001600160a01b039091169084908b908b9061226b565b6005546001600160a01b031633148061122457506003546001600160a01b031633145b6112405760405162461bcd60e51b815260040161033e906122d9565b60048054600154604051636eb1769f60e11b815286936001600160a01b039384169363dd62ed3e93611279933093919092169101612238565b60206040518083038186803b15801561129157600080fd5b505afa1580156112a5573d6000803e3d6000fd5b505050506040513d601f19601f820116820180604052508101906112c991906121db565b1015611359576004805460015460405163095ea7b360e01b81526001600160a01b039283169363095ea7b3936113059316916000199101612252565b602060405180830381600087803b15801561131f57600080fd5b505af1158015611333573d6000803e3d6000fd5b505050506040513d601f19601f82011682018060405250810190611357919061217d565b505b6000611366856000611c7c565b90506060600060029054906101000a90046001600160a01b03166001600160a01b03166373b295c26040518163ffffffff1660e01b815260040160206040518083038186803b1580156113b857600080fd5b505afa1580156113cc573d6000803e3d6000fd5b505050506040513d601f19601f820116820180604052508101906113f09190612015565b6001600160a01b0316866001600160a01b031614156114a35760005460405163676528d160e01b8152620100009091046001600160a01b03169063676528d190611446908890889087908d908a90600401612357565b600060405180830381600087803b15801561146057600080fd5b505af1158015611474573d6000803e3d6000fd5b505050506040513d6000823e601f3d908101601f1916820160405261149c91908101906120b8565b9050611539565b6000546040516338ed173960e01b8152620100009091046001600160a01b0316906338ed1739906114e0908890889087908d908a90600401612357565b600060405180830381600087803b1580156114fa57600080fd5b505af115801561150e573d6000803e3d6000fd5b505050506040513d6000823e601f3d908101601f1916820160405261153691908101906120b8565b90505b600554815160008051602061240b833981519152916001600160a01b031690879089908590610b4790600190612393565b6005546001600160a01b031633148061158d57506003546001600160a01b031633145b6115a95760405162461bcd60e51b815260040161033e906122d9565b6000349050600061162b306001600160a01b031663eb6d3a116040518163ffffffff1660e01b815260040160206040518083038186803b1580156115ec57600080fd5b505afa158015611600573d6000803e3d6000fd5b505050506040513d601f19601f820116820180604052508101906116249190612015565b6001611c7c565b905060008060029054906101000a90046001600160a01b03166001600160a01b031663a2a1623d8487858a896040518663ffffffff1660e01b81526004016116769493929190612322565b6000604051808303818588803b15801561168f57600080fd5b505af11580156116a3573d6000803e3d6000fd5b50505050506040513d6000823e601f3d908101601f191682016040526116cc91908101906120b8565b60055481519192507fa979c0b10cb04562c5689b2bb7868c45ff45a80db806e338eae84994215ba8059185916001600160a01b031690849061171090600190612393565b81518110611720576117206123b8565b6020026020010151604051611751939291909283526001600160a01b03919091166020830152604082015260600190565b60405180910390a1505050505050565b6060600061176f8486611c7c565b6000546040516307c0329d60e21b81529192506201000090046001600160a01b031690631f00ca74906117a89086908590600401612301565b60006040518083038186803b1580156117c057600080fd5b505afa1580156117d4573d6000803e3d6000fd5b505050506040513d6000823e601f3d908101601f191682016040526117fc91908101906120b8565b95945050505050565b600054610100900460ff166118205760005460ff1615611824565b303b155b6118875760405162461bcd60e51b815260206004820152602e60248201527f496e697469616c697a61626c653a20636f6e747261637420697320616c72656160448201526d191e481a5b9a5d1a585b1a5e995960921b606482015260840161033e565b600054610100900460ff161580156118a9576000805461ffff19166101011790555b6001600160a01b0382166118ed5760405162461bcd60e51b815260206004820152600b60248201526a524f55544552205a45524f60a81b604482015260640161033e565b600180546001600160a01b0384166001600160a01b03199182168117909255600080546201000090930262010000600160b01b03199093169290921790915560038054909116331790558015611949576000805461ff00191690555b5050565b60008060029054906101000a90046001600160a01b03166001600160a01b03166373b295c26040518163ffffffff1660e01b815260040160206040518083038186803b15801561199c57600080fd5b505afa1580156119b0573d6000803e3d6000fd5b505050506040513d601f19601f820116820180604052508101906119d49190612015565b905090565b6005546001600160a01b03163314806119fc57506003546001600160a01b031633145b611a185760405162461bcd60e51b815260040161033e906122d9565b60003490506000611a5b306001600160a01b031663eb6d3a116040518163ffffffff1660e01b815260040160206040518083038186803b1580156115ec57600080fd5b905060008060029054906101000a90046001600160a01b03166001600160a01b0316638a657e678487858a896040518663ffffffff1660e01b8152600401611aa69493929190612322565b6000604051808303818588803b158015611abf57600080fd5b505af1158015611ad3573d6000803e3d6000fd5b50505050506040513d6000823e601f3d908101601f19168201604052611afc91908101906120b8565b9050600081600081518110611b1357611b136123b8565b60200260200101519050866001600160a01b03166108fc8286611b369190612393565b6040518115909202916000818181858888f19350505050158015611b5e573d6000803e3d6000fd5b50600554604080518381526001600160a01b03909216602083015281018790527fa979c0b10cb04562c5689b2bb7868c45ff45a80db806e338eae84994215ba80590606001610b6f565b60606000611bb68486611c7c565b60005460405163d06ca61f60e01b81529192506201000090046001600160a01b03169063d06ca61f906117a89086908590600401612301565b60015460405163095ea7b360e01b815282916001600160a01b038084169263095ea7b392611c2592169060001990600401612252565b602060405180830381600087803b158015611c3f57600080fd5b505af1158015611c53573d6000803e3d6000fd5b505050506040513d601f19601f82011682018060405250810190611c77919061217d565b505050565b6060600060029054906101000a90046001600160a01b03166001600160a01b03166373b295c26040518163ffffffff1660e01b815260040160206040518083038186803b158015611ccc57600080fd5b505afa158015611ce0573d6000803e3d6000fd5b505050506040513d601f19601f82011682018060405250810190611d049190612015565b6001600160a01b0316836001600160a01b03161415611e2c576040805160028082526060820183526000926020830190803683370190505090508215611dae578381600081518110611d5857611d586123b8565b6001600160a01b039283166020918202929092010152600554825191169082906001908110611d8957611d896123b8565b60200260200101906001600160a01b031690816001600160a01b031681525050611e25565b60055481516001600160a01b03909116908290600090611dd057611dd06123b8565b60200260200101906001600160a01b031690816001600160a01b0316815250508381600181518110611e0457611e046123b8565b60200260200101906001600160a01b031690816001600160a01b0316815250505b9050611ff2565b6040805160038082526080820190925260009160208201606080368337019050509050600060029054906101000a90046001600160a01b03166001600160a01b03166373b295c26040518163ffffffff1660e01b815260040160206040518083038186803b158015611e9d57600080fd5b505afa158015611eb1573d6000803e3d6000fd5b505050506040513d601f19601f82011682018060405250810190611ed59190612015565b81600181518110611ee857611ee86123b8565b60200260200101906001600160a01b031690816001600160a01b0316815250508215611f78578381600081518110611f2257611f226123b8565b6001600160a01b039283166020918202929092010152600554825191169082906002908110611f5357611f536123b8565b60200260200101906001600160a01b031690816001600160a01b031681525050611fef565b60055481516001600160a01b03909116908290600090611f9a57611f9a6123b8565b60200260200101906001600160a01b031690816001600160a01b0316815250508381600281518110611fce57611fce6123b8565b60200260200101906001600160a01b031690816001600160a01b0316815250505b90505b92915050565b60006020828403121561200a57600080fd5b8135611fef816123e4565b60006020828403121561202757600080fd5b8151611fef816123e4565b600080600080600060a0868803121561204a57600080fd5b8535612055816123e4565b94506020860135612065816123e4565b94979496505050506040830135926060810135926080909101359150565b60008060006060848603121561209857600080fd5b83356120a3816123e4565b95602085013595506040909401359392505050565b600060208083850312156120cb57600080fd5b825167ffffffffffffffff808211156120e357600080fd5b818501915085601f8301126120f757600080fd5b815181811115612109576121096123ce565b8060051b604051601f19603f8301168101818110858211171561212e5761212e6123ce565b604052828152858101935084860182860187018a101561214d57600080fd5b600095505b83861015612170578051855260019590950194938601938601612152565b5098975050505050505050565b60006020828403121561218f57600080fd5b8151611fef816123fc565b6000806000606084860312156121af57600080fd5b83356121ba816123fc565b925060208401356121ca816123e4565b929592945050506040919091013590565b6000602082840312156121ed57600080fd5b5051919050565b600081518084526020808501945080840160005b8381101561222d5781516001600160a01b031687529582019590820190600101612208565b509495945050505050565b6001600160a01b0392831681529116602082015260400190565b6001600160a01b03929092168252602082015260400190565b6001600160a01b039485168152602081019390935292166040820152606081019190915260800190565b6020808252825182820181905260009190848201906040850190845b818110156122cd578351835292840192918401916001016122b1565b50909695505050505050565b6020808252600e908201526d4163636573732044656e6965642160901b604082015260600190565b82815260406020820152600061231a60408301846121f4565b949350505050565b84815260806020820152600061233b60808301866121f4565b6001600160a01b03949094166040830152506060015292915050565b85815284602082015260a06040820152600061237660a08301866121f4565b6001600160a01b0394909416606083015250608001529392505050565b6000828210156123b357634e487b7160e01b600052601160045260246000fd5b500390565b634e487b7160e01b600052603260045260246000fd5b634e487b7160e01b600052604160045260246000fd5b6001600160a01b03811681146123f957600080fd5b50565b80151581146123f957600080fdfedb587d878116df0bdd4fe154699aa2c5f439da001cc811dfd05d9f589fc5a8eea164736f6c6343000807000a",
  "devdoc": {
    "kind": "dev",
    "methods": {},
    "version": 1
  },
  "userdoc": {
    "kind": "user",
    "methods": {},
    "version": 1
  },
  "storageLayout": {
    "storage": [
      {
        "astId": 598,
        "contract": "contracts/dependencies/LiquidityRouter.sol:LiquidityRouter",
        "label": "_initialized",
        "offset": 0,
        "slot": "0",
        "type": "t_bool"
      },
      {
        "astId": 601,
        "contract": "contracts/dependencies/LiquidityRouter.sol:LiquidityRouter",
        "label": "_initializing",
        "offset": 1,
        "slot": "0",
        "type": "t_bool"
      },
      {
        "astId": 6717,
        "contract": "contracts/dependencies/LiquidityRouter.sol:LiquidityRouter",
        "label": "uniswapV2Router",
        "offset": 2,
        "slot": "0",
        "type": "t_contract(IJoeRouter02)8109"
      },
      {
        "astId": 6719,
        "contract": "contracts/dependencies/LiquidityRouter.sol:LiquidityRouter",
        "label": "routerAddress",
        "offset": 0,
        "slot": "1",
        "type": "t_address"
      },
      {
        "astId": 6721,
        "contract": "contracts/dependencies/LiquidityRouter.sol:LiquidityRouter",
        "label": "uniswapV2Pair",
        "offset": 0,
        "slot": "2",
        "type": "t_address"
      },
      {
        "astId": 6723,
        "contract": "contracts/dependencies/LiquidityRouter.sol:LiquidityRouter",
        "label": "admin0xB",
        "offset": 0,
        "slot": "3",
        "type": "t_address"
      },
      {
        "astId": 6726,
        "contract": "contracts/dependencies/LiquidityRouter.sol:LiquidityRouter",
        "label": "token",
        "offset": 0,
        "slot": "4",
        "type": "t_contract(IERC20)2517"
      },
      {
        "astId": 6728,
        "contract": "contracts/dependencies/LiquidityRouter.sol:LiquidityRouter",
        "label": "tokenAddress",
        "offset": 0,
        "slot": "5",
        "type": "t_address"
      }
    ],
    "types": {
      "t_address": {
        "encoding": "inplace",
        "label": "address",
        "numberOfBytes": "20"
      },
      "t_bool": {
        "encoding": "inplace",
        "label": "bool",
        "numberOfBytes": "1"
      },
      "t_contract(IERC20)2517": {
        "encoding": "inplace",
        "label": "contract IERC20",
        "numberOfBytes": "20"
      },
      "t_contract(IJoeRouter02)8109": {
        "encoding": "inplace",
        "label": "contract IJoeRouter02",
        "numberOfBytes": "20"
      }
    }
  }
}