{
  "address": "0xb6117716F9dcf9dfbfD9E64884079eb8301b8E3C",
  "abi": [
    {
      "anonymous": false,
      "inputs": [
        {
          "indexed": false,
          "internalType": "address",
          "name": "tokenIn",
          "type": "address"
        },
        {
          "indexed": false,
          "internalType": "uint256",
          "name": "amountIn",
          "type": "uint256"
        },
        {
          "indexed": false,
          "internalType": "address",
          "name": "tokenOut",
          "type": "address"
        },
        {
          "indexed": false,
          "internalType": "uint256",
          "name": "amountOut",
          "type": "uint256"
        }
      ],
      "name": "Swapped",
      "type": "event"
    },
    {
      "inputs": [],
      "name": "admin0xB",
      "outputs": [
        {
          "internalType": "address",
          "name": "",
          "type": "address"
        }
      ],
      "stateMutability": "view",
      "type": "function"
    },
    {
      "inputs": [
        {
          "internalType": "bool",
          "name": "is0xBOut",
          "type": "bool"
        },
        {
          "internalType": "address",
          "name": "targetToken",
          "type": "address"
        },
        {
          "internalType": "uint256",
          "name": "outputAmount",
          "type": "uint256"
        }
      ],
      "name": "getInputAmount",
      "outputs": [
        {
          "internalType": "uint256[]",
          "name": "",
          "type": "uint256[]"
        }
      ],
      "stateMutability": "view",
      "type": "function"
    },
    {
      "inputs": [
        {
          "internalType": "bool",
          "name": "is0xBOut",
          "type": "bool"
        },
        {
          "internalType": "address",
          "name": "targetToken",
          "type": "address"
        },
        {
          "internalType": "uint256",
          "name": "inputAmount",
          "type": "uint256"
        }
      ],
      "name": "getOutputAmount",
      "outputs": [
        {
          "internalType": "uint256[]",
          "name": "",
          "type": "uint256[]"
        }
      ],
      "stateMutability": "view",
      "type": "function"
    },
    {
      "inputs": [
        {
          "internalType": "address",
          "name": "_router",
          "type": "address"
        }
      ],
      "name": "initialize",
      "outputs": [],
      "stateMutability": "nonpayable",
      "type": "function"
    },
    {
      "inputs": [],
      "name": "routerAddress",
      "outputs": [
        {
          "internalType": "address",
          "name": "",
          "type": "address"
        }
      ],
      "stateMutability": "view",
      "type": "function"
    },
    {
      "inputs": [
        {
          "internalType": "address",
          "name": "_token",
          "type": "address"
        }
      ],
      "name": "setToken",
      "outputs": [],
      "stateMutability": "nonpayable",
      "type": "function"
    },
    {
      "inputs": [
        {
          "internalType": "address",
          "name": "receiver",
          "type": "address"
        },
        {
          "internalType": "address",
          "name": "outTokenAddr",
          "type": "address"
        },
        {
          "internalType": "uint256",
          "name": "amountOut",
          "type": "uint256"
        },
        {
          "internalType": "uint256",
          "name": "amountInMax",
          "type": "uint256"
        },
        {
          "internalType": "uint256",
          "name": "deadline",
          "type": "uint256"
        }
      ],
      "name": "swap0xBForExactToken",
      "outputs": [],
      "stateMutability": "nonpayable",
      "type": "function"
    },
    {
      "inputs": [
        {
          "internalType": "address",
          "name": "receiver",
          "type": "address"
        },
        {
          "internalType": "address",
          "name": "outTokenAddr",
          "type": "address"
        },
        {
          "internalType": "uint256",
          "name": "amountIn",
          "type": "uint256"
        },
        {
          "internalType": "uint256",
          "name": "amountOutMin",
          "type": "uint256"
        },
        {
          "internalType": "uint256",
          "name": "deadline",
          "type": "uint256"
        }
      ],
      "name": "swapExact0xBForToken",
      "outputs": [],
      "stateMutability": "nonpayable",
      "type": "function"
    },
    {
      "inputs": [
        {
          "internalType": "address",
          "name": "receiver",
          "type": "address"
        },
        {
          "internalType": "address",
          "name": "inTokenAddr",
          "type": "address"
        },
        {
          "internalType": "uint256",
          "name": "amountIn",
          "type": "uint256"
        },
        {
          "internalType": "uint256",
          "name": "amountOutMin",
          "type": "uint256"
        },
        {
          "internalType": "uint256",
          "name": "deadline",
          "type": "uint256"
        }
      ],
      "name": "swapExactTokenFor0xB",
      "outputs": [],
      "stateMutability": "nonpayable",
      "type": "function"
    },
    {
      "inputs": [
        {
          "internalType": "address",
          "name": "receiver",
          "type": "address"
        },
        {
          "internalType": "address",
          "name": "inTokenAddr",
          "type": "address"
        },
        {
          "internalType": "uint256",
          "name": "amountOut",
          "type": "uint256"
        },
        {
          "internalType": "uint256",
          "name": "amountInMax",
          "type": "uint256"
        },
        {
          "internalType": "uint256",
          "name": "deadline",
          "type": "uint256"
        }
      ],
      "name": "swapTokenForExact0xB",
      "outputs": [],
      "stateMutability": "nonpayable",
      "type": "function"
    },
    {
      "inputs": [],
      "name": "token",
      "outputs": [
        {
          "internalType": "address",
          "name": "",
          "type": "address"
        }
      ],
      "stateMutability": "view",
      "type": "function"
    },
    {
      "inputs": [],
      "name": "uniswapV2Pair",
      "outputs": [
        {
          "internalType": "address",
          "name": "",
          "type": "address"
        }
      ],
      "stateMutability": "view",
      "type": "function"
    },
    {
      "inputs": [
        {
          "internalType": "address",
          "name": "_newAddr",
          "type": "address"
        }
      ],
      "name": "updateUniswapV2Router",
      "outputs": [],
      "stateMutability": "nonpayable",
      "type": "function"
    }
  ],
  "transactionHash": "0x294fd8ab7fce4c696d2fabfd065e4ec02b2256a98194555cae51cff343a4a8e2",
  "args": [],
  "numDeployments": 9,
  "solcInputHash": "5c45cae5bd939abe0d680c10f14068d9",
  "bytecode": "0x608060405234801561001057600080fd5b506119c1806100206000396000f3fe608060405234801561001057600080fd5b50600436106100bf5760003560e01c806374cefd8a1161007c57806374cefd8a1461015557806380be66cf1461016857806388e5249f1461017b578063bd7476781461018e578063c4d66de8146101ae578063f5c13653146101c1578063fc0c546a146101d457600080fd5b80630584aecf146100c4578063144fa6d7146100f45780633268cc561461010957806349bd5a5e1461011c57806365b8dbc01461012f5780636e54a8a014610142575b600080fd5b6003546100d7906001600160a01b031681565b6040516001600160a01b0390911681526020015b60405180910390f35b610107610102366004611605565b6101e7565b005b6001546100d7906001600160a01b031681565b6002546100d7906001600160a01b031681565b61010761013d366004611605565b610747565b61010761015036600461163f565b610874565b61010761016336600461163f565b610a5e565b61010761017636600461163f565b610cd6565b61010761018936600461163f565b610eac565b6101a161019c366004611772565b610fc9565b6040516100eb9190611854565b6101076101bc366004611605565b61106d565b6101a16101cf366004611772565b6111b5565b6004546100d7906001600160a01b031681565b6004546001600160a01b031633148061020a57506003546001600160a01b031633145b61022f5760405162461bcd60e51b815260040161022690611898565b60405180910390fd5b6001600160a01b03811661027c5760405162461bcd60e51b81526020600482015260146024820152732722abafaa27a5a2a71d103d32b9379030b2323960611b6044820152606401610226565b600480546001600160a01b0319166001600160a01b03838116919091178255600080546040805163c45a015560e01b815290519294620100009092049093169263c45a01559281830192602092829003018186803b1580156102dd57600080fd5b505afa1580156102f1573d6000803e3d6000fd5b505050506040513d601f19601f820116820180604052508101906103159190611622565b60048054600054604080516339d94ae160e11b815290516001600160a01b039586169563c9c6539695948116946201000090940416926373b295c292808201926020929091829003018186803b15801561036e57600080fd5b505afa158015610382573d6000803e3d6000fd5b505050506040513d601f19601f820116820180604052508101906103a69190611622565b6040518363ffffffff1660e01b81526004016103c3929190611810565b602060405180830381600087803b1580156103dd57600080fd5b505af192505050801561040d575060408051601f3d908101601f1916820190925261040a91810190611622565b60015b61059c57600060029054906101000a90046001600160a01b03166001600160a01b031663c45a01556040518163ffffffff1660e01b815260040160206040518083038186803b15801561045f57600080fd5b505afa158015610473573d6000803e3d6000fd5b505050506040513d601f19601f820116820180604052508101906104979190611622565b60048054600054604080516339d94ae160e11b815290516001600160a01b039586169563e6a4390595948116946201000090940416926373b295c292808201926020929091829003018186803b1580156104f057600080fd5b505afa158015610504573d6000803e3d6000fd5b505050506040513d601f19601f820116820180604052508101906105289190611622565b6040518363ffffffff1660e01b8152600401610545929190611810565b60206040518083038186803b15801561055d57600080fd5b505afa158015610571573d6000803e3d6000fd5b505050506040513d601f19601f820116820180604052508101906105959190611622565b9050610724565b50600060029054906101000a90046001600160a01b03166001600160a01b031663c45a01556040518163ffffffff1660e01b815260040160206040518083038186803b1580156105eb57600080fd5b505afa1580156105ff573d6000803e3d6000fd5b505050506040513d601f19601f820116820180604052508101906106239190611622565b60048054600054604080516339d94ae160e11b815290516001600160a01b039586169563e6a4390595948116946201000090940416926373b295c292808201926020929091829003018186803b15801561067c57600080fd5b505afa158015610690573d6000803e3d6000fd5b505050506040513d601f19601f820116820180604052508101906106b49190611622565b6040518363ffffffff1660e01b81526004016106d1929190611810565b60206040518083038186803b1580156106e957600080fd5b505afa1580156106fd573d6000803e3d6000fd5b505050506040513d601f19601f820116820180604052508101906107219190611622565b90505b600280546001600160a01b0319166001600160a01b039290921691909117905550565b6004546001600160a01b031633148061076a57506003546001600160a01b031633145b6107865760405162461bcd60e51b815260040161022690611898565b6000546001600160a01b03828116620100009092041614156107fb5760405162461bcd60e51b815260206004820152602860248201527f544b4e3a2054686520726f7574657220616c7265616479206861732074686174604482015267206164647265737360c01b6064820152608401610226565b600180546001600160a01b0319166001600160a01b038381169182179092556000805462010000600160b01b03191662010000928302178082556040805163c45a015560e01b815290519294939091049092169163c45a0155916004808301926020929190829003018186803b1580156102dd57600080fd5b6004546001600160a01b031633148061089757506003546001600160a01b031633145b6108b35760405162461bcd60e51b815260040161022690611898565b600154604051636eb1769f60e11b815284916001600160a01b038088169263dd62ed3e926108e8923092911690600401611810565b60206040518083038186803b15801561090057600080fd5b505afa158015610914573d6000803e3d6000fd5b505050506040513d601f19601f8201168201806040525081019061093891906117b3565b101561094757610947846111fc565b6000610954856001611289565b600080546040516338ed173960e01b81529293509091620100009091046001600160a01b0316906338ed173990610997908890889087908d908a906004016118e1565b600060405180830381600087803b1580156109b157600080fd5b505af11580156109c5573d6000803e3d6000fd5b505050506040513d6000823e601f3d908101601f191682016040526109ed9190810190611690565b90506000805160206119958339815191528686600460009054906101000a90046001600160a01b03168460018651610a25919061191d565b81518110610a3557610a35611942565b6020026020010151604051610a4d949392919061182a565b60405180910390a150505050505050565b6004546001600160a01b0316331480610a8157506003546001600160a01b031633145b610a9d5760405162461bcd60e51b815260040161022690611898565b600154604051636eb1769f60e11b815283916001600160a01b038088169263dd62ed3e92610ad2923092911690600401611810565b60206040518083038186803b158015610aea57600080fd5b505afa158015610afe573d6000803e3d6000fd5b505050506040513d601f19601f82011682018060405250810190610b2291906117b3565b1015610b3157610b31846111fc565b6000610b3e856001611289565b60008054604051634401edf760e11b81529293509091620100009091046001600160a01b031690638803dbee90610b81908890889087908d908a906004016118e1565b600060405180830381600087803b158015610b9b57600080fd5b505af1158015610baf573d6000803e3d6000fd5b505050506040513d6000823e601f3d908101601f19168201604052610bd79190810190611690565b9050600081600081518110610bee57610bee611942565b60200260200101519050866001600160a01b031663a9059cbb898388610c14919061191d565b6040516001600160e01b031960e085901b1681526001600160a01b0390921660048301526024820152604401602060405180830381600087803b158015610c5a57600080fd5b505af1158015610c6e573d6000803e3d6000fd5b505050506040513d601f19601f82011682018060405250810190610c929190611755565b5060045460405160008051602061199583398151915291610cc4918a9185916001600160a01b03909116908b9061182a565b60405180910390a15050505050505050565b6004546001600160a01b0316331480610cf957506003546001600160a01b031633145b610d155760405162461bcd60e51b815260040161022690611898565b6000610d22856000611289565b60008054604051634401edf760e11b81529293509091620100009091046001600160a01b031690638803dbee90610d65908890889087908d908a906004016118e1565b600060405180830381600087803b158015610d7f57600080fd5b505af1158015610d93573d6000803e3d6000fd5b505050506040513d6000823e601f3d908101601f19168201604052610dbb9190810190611690565b9050600081600081518110610dd257610dd2611942565b60209081029190910101516004549091506001600160a01b031663a9059cbb89610dfc848961191d565b6040516001600160e01b031960e085901b1681526001600160a01b0390921660048301526024820152604401602060405180830381600087803b158015610e4257600080fd5b505af1158015610e56573d6000803e3d6000fd5b505050506040513d601f19601f82011682018060405250810190610e7a9190611755565b5060045460405160008051602061199583398151915291610cc4916001600160a01b039091169084908b908b9061182a565b6004546001600160a01b0316331480610ecf57506003546001600160a01b031633145b610eeb5760405162461bcd60e51b815260040161022690611898565b6000610ef8856000611289565b600080546040516338ed173960e01b81529293509091620100009091046001600160a01b0316906338ed173990610f3b908890889087908d908a906004016118e1565b600060405180830381600087803b158015610f5557600080fd5b505af1158015610f69573d6000803e3d6000fd5b505050506040513d6000823e601f3d908101601f19168201604052610f919190810190611690565b9050600080516020611995833981519152600460009054906101000a90046001600160a01b031686888460018651610a25919061191d565b60606000610fd78486611289565b6000546040516307c0329d60e21b81529192506201000090046001600160a01b031690631f00ca749061101090869085906004016118c0565b60006040518083038186803b15801561102857600080fd5b505afa15801561103c573d6000803e3d6000fd5b505050506040513d6000823e601f3d908101601f191682016040526110649190810190611690565b95945050505050565b600054610100900460ff166110885760005460ff161561108c565b303b155b6110ef5760405162461bcd60e51b815260206004820152602e60248201527f496e697469616c697a61626c653a20636f6e747261637420697320616c72656160448201526d191e481a5b9a5d1a585b1a5e995960921b6064820152608401610226565b600054610100900460ff16158015611111576000805461ffff19166101011790555b6001600160a01b0382166111555760405162461bcd60e51b815260206004820152600b60248201526a524f55544552205a45524f60a81b6044820152606401610226565b600180546001600160a01b0384166001600160a01b03199182168117909255600080546201000090930262010000600160b01b031990931692909217909155600380549091163317905580156111b1576000805461ff00191690555b5050565b606060006111c38486611289565b60005460405163d06ca61f60e01b81529192506201000090046001600160a01b03169063d06ca61f9061101090869085906004016118c0565b60015460405163095ea7b360e01b81526001600160a01b0391821660048201526000196024820152829182169063095ea7b390604401602060405180830381600087803b15801561124c57600080fd5b505af1158015611260573d6000803e3d6000fd5b505050506040513d601f19601f820116820180604052508101906112849190611755565b505050565b6060600060029054906101000a90046001600160a01b03166001600160a01b03166373b295c26040518163ffffffff1660e01b815260040160206040518083038186803b1580156112d957600080fd5b505afa1580156112ed573d6000803e3d6000fd5b505050506040513d601f19601f820116820180604052508101906113119190611622565b6001600160a01b0316836001600160a01b031614156114395760408051600280825260608201835260009260208301908036833701905050905082156113bb57838160008151811061136557611365611942565b6001600160a01b03928316602091820292909201015260045482519116908290600190811061139657611396611942565b60200260200101906001600160a01b031690816001600160a01b031681525050611432565b60045481516001600160a01b039091169082906000906113dd576113dd611942565b60200260200101906001600160a01b031690816001600160a01b031681525050838160018151811061141157611411611942565b60200260200101906001600160a01b031690816001600160a01b0316815250505b90506115ff565b6040805160038082526080820190925260009160208201606080368337019050509050600060029054906101000a90046001600160a01b03166001600160a01b03166373b295c26040518163ffffffff1660e01b815260040160206040518083038186803b1580156114aa57600080fd5b505afa1580156114be573d6000803e3d6000fd5b505050506040513d601f19601f820116820180604052508101906114e29190611622565b816001815181106114f5576114f5611942565b60200260200101906001600160a01b031690816001600160a01b031681525050821561158557838160008151811061152f5761152f611942565b6001600160a01b03928316602091820292909201015260045482519116908290600290811061156057611560611942565b60200260200101906001600160a01b031690816001600160a01b0316815250506115fc565b60045481516001600160a01b039091169082906000906115a7576115a7611942565b60200260200101906001600160a01b031690816001600160a01b03168152505083816002815181106115db576115db611942565b60200260200101906001600160a01b031690816001600160a01b0316815250505b90505b92915050565b60006020828403121561161757600080fd5b81356115fc8161196e565b60006020828403121561163457600080fd5b81516115fc8161196e565b600080600080600060a0868803121561165757600080fd5b85356116628161196e565b945060208601356116728161196e565b94979496505050506040830135926060810135926080909101359150565b600060208083850312156116a357600080fd5b825167ffffffffffffffff808211156116bb57600080fd5b818501915085601f8301126116cf57600080fd5b8151818111156116e1576116e1611958565b8060051b604051601f19603f8301168101818110858211171561170657611706611958565b604052828152858101935084860182860187018a101561172557600080fd5b600095505b8386101561174857805185526001959095019493860193860161172a565b5098975050505050505050565b60006020828403121561176757600080fd5b81516115fc81611986565b60008060006060848603121561178757600080fd5b833561179281611986565b925060208401356117a28161196e565b929592945050506040919091013590565b6000602082840312156117c557600080fd5b5051919050565b600081518084526020808501945080840160005b838110156118055781516001600160a01b0316875295820195908201906001016117e0565b509495945050505050565b6001600160a01b0392831681529116602082015260400190565b6001600160a01b039485168152602081019390935292166040820152606081019190915260800190565b6020808252825182820181905260009190848201906040850190845b8181101561188c57835183529284019291840191600101611870565b50909695505050505050565b6020808252600e908201526d4163636573732044656e6965642160901b604082015260600190565b8281526040602082015260006118d960408301846117cc565b949350505050565b85815284602082015260a06040820152600061190060a08301866117cc565b6001600160a01b0394909416606083015250608001529392505050565b60008282101561193d57634e487b7160e01b600052601160045260246000fd5b500390565b634e487b7160e01b600052603260045260246000fd5b634e487b7160e01b600052604160045260246000fd5b6001600160a01b038116811461198357600080fd5b50565b801515811461198357600080fdfedb587d878116df0bdd4fe154699aa2c5f439da001cc811dfd05d9f589fc5a8eea164736f6c6343000807000a",
  "devdoc": {
    "kind": "dev",
    "methods": {},
    "version": 1
  },
  "userdoc": {
    "kind": "user",
    "methods": {},
    "version": 1
  },
  "storageLayout": {
    "storage": [
      {
        "astId": 598,
        "contract": "contracts/dependencies/LiquidityRouter.sol:LiquidityRouter",
        "label": "_initialized",
        "offset": 0,
        "slot": "0",
        "type": "t_bool"
      },
      {
        "astId": 601,
        "contract": "contracts/dependencies/LiquidityRouter.sol:LiquidityRouter",
        "label": "_initializing",
        "offset": 1,
        "slot": "0",
        "type": "t_bool"
      },
      {
        "astId": 6777,
        "contract": "contracts/dependencies/LiquidityRouter.sol:LiquidityRouter",
        "label": "uniswapV2Router",
        "offset": 2,
        "slot": "0",
        "type": "t_contract(IJoeRouter02)7926"
      },
      {
        "astId": 6779,
        "contract": "contracts/dependencies/LiquidityRouter.sol:LiquidityRouter",
        "label": "routerAddress",
        "offset": 0,
        "slot": "1",
        "type": "t_address"
      },
      {
        "astId": 6781,
        "contract": "contracts/dependencies/LiquidityRouter.sol:LiquidityRouter",
        "label": "uniswapV2Pair",
        "offset": 0,
        "slot": "2",
        "type": "t_address"
      },
      {
        "astId": 6783,
        "contract": "contracts/dependencies/LiquidityRouter.sol:LiquidityRouter",
        "label": "admin0xB",
        "offset": 0,
        "slot": "3",
        "type": "t_address"
      },
      {
        "astId": 6785,
        "contract": "contracts/dependencies/LiquidityRouter.sol:LiquidityRouter",
        "label": "token",
        "offset": 0,
        "slot": "4",
        "type": "t_address"
      }
    ],
    "types": {
      "t_address": {
        "encoding": "inplace",
        "label": "address",
        "numberOfBytes": "20"
      },
      "t_bool": {
        "encoding": "inplace",
        "label": "bool",
        "numberOfBytes": "1"
      },
      "t_contract(IJoeRouter02)7926": {
        "encoding": "inplace",
        "label": "contract IJoeRouter02",
        "numberOfBytes": "20"
      }
    }
  }
}