{
  "address": "0xDC8770B2547c8095cA61C67fD18Bb31bE3b592c4",
  "abi": [
    {
      "anonymous": false,
      "inputs": [
        {
          "indexed": false,
          "internalType": "address",
          "name": "tokenIn",
          "type": "address"
        },
        {
          "indexed": false,
          "internalType": "uint256",
          "name": "amountIn",
          "type": "uint256"
        },
        {
          "indexed": false,
          "internalType": "address",
          "name": "tokenOut",
          "type": "address"
        },
        {
          "indexed": false,
          "internalType": "uint256",
          "name": "amountOut",
          "type": "uint256"
        }
      ],
      "name": "Swapped",
      "type": "event"
    },
    {
      "inputs": [],
      "name": "admin0xB",
      "outputs": [
        {
          "internalType": "address",
          "name": "",
          "type": "address"
        }
      ],
      "stateMutability": "view",
      "type": "function"
    },
    {
      "inputs": [
        {
          "internalType": "bool",
          "name": "is0xBOut",
          "type": "bool"
        },
        {
          "internalType": "address",
          "name": "targetToken",
          "type": "address"
        },
        {
          "internalType": "uint256",
          "name": "outputAmount",
          "type": "uint256"
        }
      ],
      "name": "getInputAmount",
      "outputs": [
        {
          "internalType": "uint256[]",
          "name": "",
          "type": "uint256[]"
        }
      ],
      "stateMutability": "view",
      "type": "function"
    },
    {
      "inputs": [
        {
          "internalType": "bool",
          "name": "is0xBOut",
          "type": "bool"
        },
        {
          "internalType": "address",
          "name": "targetToken",
          "type": "address"
        },
        {
          "internalType": "uint256",
          "name": "inputAmount",
          "type": "uint256"
        }
      ],
      "name": "getOutputAmount",
      "outputs": [
        {
          "internalType": "uint256[]",
          "name": "",
          "type": "uint256[]"
        }
      ],
      "stateMutability": "view",
      "type": "function"
    },
    {
      "inputs": [
        {
          "internalType": "address",
          "name": "_router",
          "type": "address"
        }
      ],
      "name": "initialize",
      "outputs": [],
      "stateMutability": "nonpayable",
      "type": "function"
    },
    {
      "inputs": [],
      "name": "routerAddress",
      "outputs": [
        {
          "internalType": "address",
          "name": "",
          "type": "address"
        }
      ],
      "stateMutability": "view",
      "type": "function"
    },
    {
      "inputs": [
        {
          "internalType": "address",
          "name": "_token",
          "type": "address"
        }
      ],
      "name": "setToken",
      "outputs": [],
      "stateMutability": "nonpayable",
      "type": "function"
    },
    {
      "inputs": [
        {
          "internalType": "address",
          "name": "outTokenAddr",
          "type": "address"
        },
        {
          "internalType": "address",
          "name": "receiver",
          "type": "address"
        },
        {
          "internalType": "uint256",
          "name": "amountOut",
          "type": "uint256"
        }
      ],
      "name": "swap0xBForExactToken",
      "outputs": [],
      "stateMutability": "nonpayable",
      "type": "function"
    },
    {
      "inputs": [
        {
          "internalType": "address",
          "name": "outTokenAddr",
          "type": "address"
        },
        {
          "internalType": "address",
          "name": "receiver",
          "type": "address"
        },
        {
          "internalType": "uint256",
          "name": "amountIn",
          "type": "uint256"
        }
      ],
      "name": "swapExact0xBForToken",
      "outputs": [],
      "stateMutability": "nonpayable",
      "type": "function"
    },
    {
      "inputs": [
        {
          "internalType": "address",
          "name": "inTokenAddr",
          "type": "address"
        },
        {
          "internalType": "address",
          "name": "receiver",
          "type": "address"
        },
        {
          "internalType": "uint256",
          "name": "amountIn",
          "type": "uint256"
        }
      ],
      "name": "swapExactTokenFor0xB",
      "outputs": [],
      "stateMutability": "nonpayable",
      "type": "function"
    },
    {
      "inputs": [],
      "name": "token",
      "outputs": [
        {
          "internalType": "address",
          "name": "",
          "type": "address"
        }
      ],
      "stateMutability": "view",
      "type": "function"
    },
    {
      "inputs": [],
      "name": "uniswapV2Pair",
      "outputs": [
        {
          "internalType": "address",
          "name": "",
          "type": "address"
        }
      ],
      "stateMutability": "view",
      "type": "function"
    },
    {
      "inputs": [
        {
          "internalType": "address",
          "name": "_newAddr",
          "type": "address"
        }
      ],
      "name": "updateUniswapV2Router",
      "outputs": [],
      "stateMutability": "nonpayable",
      "type": "function"
    }
  ],
  "transactionHash": "0x057f107d73cff1d2c85b649577dab58fbfd2f3d11db8b28d8763c513a41d2036",
  "args": [],
  "numDeployments": 3,
  "solcInputHash": "64aac7d3b67b1d1452cf0fc077c89f98",
  "bytecode": "0x608060405234801561001057600080fd5b5061154a806100206000396000f3fe608060405234801561001057600080fd5b50600436106100b45760003560e01c8063bd74767811610071578063bd7476781461014a578063c4d66de81461016a578063d8062b1b1461017d578063eb8e0b3f14610190578063f5c13653146101a3578063fc0c546a146101b657600080fd5b80630584aecf146100b9578063144fa6d7146100e95780633268cc56146100fe57806349bd5a5e1461011157806365b8dbc0146101245780639caf326f14610137575b600080fd5b6003546100cc906001600160a01b031681565b6040516001600160a01b0390911681526020015b60405180910390f35b6100fc6100f7366004611262565b6101c9565b005b6001546100cc906001600160a01b031681565b6002546100cc906001600160a01b031681565b6100fc610132366004611262565b61075c565b6100fc61014536600461129c565b610889565b61015d6101583660046113a2565b610a14565b6040516100e0919061140b565b6100fc610178366004611262565b610ab8565b6100fc61018b36600461129c565b610c00565b6100fc61019e36600461129c565b610d70565b61015d6101b13660046113a2565b610e9f565b6004546100cc906001600160a01b031681565b6004546001600160a01b03163314806101ec57506003546001600160a01b031633145b6102115760405162461bcd60e51b81526004016102089061144f565b60405180910390fd5b6001600160a01b03811661025e5760405162461bcd60e51b81526020600482015260146024820152732722abafaa27a5a2a71d103d32b9379030b2323960611b6044820152606401610208565b600480546001600160a01b0319166001600160a01b03838116919091178255600080546040805163c45a015560e01b815290519294620100009092049093169263c45a01559281830192602092829003018186803b1580156102bf57600080fd5b505afa1580156102d3573d6000803e3d6000fd5b505050506040513d601f19601f820116820180604052508101906102f7919061127f565b60048054600054604080516339d94ae160e11b815290516001600160a01b039586169563c9c6539695948116946201000090940416926373b295c292808201926020929091829003018186803b15801561035057600080fd5b505afa158015610364573d6000803e3d6000fd5b505050506040513d601f19601f82011682018060405250810190610388919061127f565b6040516001600160e01b031960e085901b1681526001600160a01b03928316600482015291166024820152604401602060405180830381600087803b1580156103d057600080fd5b505af1925050508015610400575060408051601f3d908101601f191682019092526103fd9181019061127f565b60015b6105a057600060029054906101000a90046001600160a01b03166001600160a01b031663c45a01556040518163ffffffff1660e01b815260040160206040518083038186803b15801561045257600080fd5b505afa158015610466573d6000803e3d6000fd5b505050506040513d601f19601f8201168201806040525081019061048a919061127f565b60048054600054604080516339d94ae160e11b815290516001600160a01b039586169563e6a4390595948116946201000090940416926373b295c292808201926020929091829003018186803b1580156104e357600080fd5b505afa1580156104f7573d6000803e3d6000fd5b505050506040513d601f19601f8201168201806040525081019061051b919061127f565b6040516001600160e01b031960e085901b1681526001600160a01b0392831660048201529116602482015260440160206040518083038186803b15801561056157600080fd5b505afa158015610575573d6000803e3d6000fd5b505050506040513d601f19601f82011682018060405250810190610599919061127f565b9050610739565b50600060029054906101000a90046001600160a01b03166001600160a01b031663c45a01556040518163ffffffff1660e01b815260040160206040518083038186803b1580156105ef57600080fd5b505afa158015610603573d6000803e3d6000fd5b505050506040513d601f19601f82011682018060405250810190610627919061127f565b60048054600054604080516339d94ae160e11b815290516001600160a01b039586169563e6a4390595948116946201000090940416926373b295c292808201926020929091829003018186803b15801561068057600080fd5b505afa158015610694573d6000803e3d6000fd5b505050506040513d601f19601f820116820180604052508101906106b8919061127f565b6040516001600160e01b031960e085901b1681526001600160a01b0392831660048201529116602482015260440160206040518083038186803b1580156106fe57600080fd5b505afa158015610712573d6000803e3d6000fd5b505050506040513d601f19601f82011682018060405250810190610736919061127f565b90505b600280546001600160a01b0319166001600160a01b039290921691909117905550565b6004546001600160a01b031633148061077f57506003546001600160a01b031633145b61079b5760405162461bcd60e51b81526004016102089061144f565b6000546001600160a01b03828116620100009092041614156108105760405162461bcd60e51b815260206004820152602860248201527f544b4e3a2054686520726f7574657220616c7265616479206861732074686174604482015267206164647265737360c01b6064820152608401610208565b600180546001600160a01b0319166001600160a01b038381169182179092556000805462010000600160b01b03191662010000928302178082556040805163c45a015560e01b815290519294939091049092169163c45a0155916004808301926020929190829003018186803b1580156102bf57600080fd5b6004546001600160a01b03163314806108ac57506003546001600160a01b031633145b6108c85760405162461bcd60e51b81526004016102089061144f565b60006108d5846000610ee6565b600080546040516338ed173960e01b81529293509091620100009091046001600160a01b0316906338ed173990610918908690859087908a904290600401611498565b600060405180830381600087803b15801561093257600080fd5b505af1158015610946573d6000803e3d6000fd5b505050506040513d6000823e601f3d908101601f1916820160405261096e91908101906112dd565b90507fdb587d878116df0bdd4fe154699aa2c5f439da001cc811dfd05d9f589fc5a8ee600460009054906101000a90046001600160a01b0316848784600186516109b891906114d4565b815181106109c8576109c86114f9565b6020026020010151604051610a0594939291906001600160a01b039485168152602081019390935292166040820152606081019190915260800190565b60405180910390a15050505050565b60606000610a228486610ee6565b6000546040516307c0329d60e21b81529192506201000090046001600160a01b031690631f00ca7490610a5b9086908590600401611477565b60006040518083038186803b158015610a7357600080fd5b505afa158015610a87573d6000803e3d6000fd5b505050506040513d6000823e601f3d908101601f19168201604052610aaf91908101906112dd565b95945050505050565b600054610100900460ff16610ad35760005460ff1615610ad7565b303b155b610b3a5760405162461bcd60e51b815260206004820152602e60248201527f496e697469616c697a61626c653a20636f6e747261637420697320616c72656160448201526d191e481a5b9a5d1a585b1a5e995960921b6064820152608401610208565b600054610100900460ff16158015610b5c576000805461ffff19166101011790555b6001600160a01b038216610ba05760405162461bcd60e51b815260206004820152600b60248201526a524f55544552205a45524f60a81b6044820152606401610208565b600180546001600160a01b0384166001600160a01b03199182168117909255600080546201000090930262010000600160b01b03199093169290921790915560038054909116331790558015610bfc576000805461ff00191690555b5050565b6004546001600160a01b0316331480610c2357506003546001600160a01b031633145b610c3f5760405162461bcd60e51b81526004016102089061144f565b6000610c4c846000610ee6565b60008054604051634401edf760e11b81529293509091620100009091046001600160a01b031690638803dbee90610c8f908690859087908a904290600401611498565b600060405180830381600087803b158015610ca957600080fd5b505af1158015610cbd573d6000803e3d6000fd5b505050506040513d6000823e601f3d908101601f19168201604052610ce591908101906112dd565b90507fdb587d878116df0bdd4fe154699aa2c5f439da001cc811dfd05d9f589fc5a8ee600460009054906101000a90046001600160a01b031682600081518110610d3157610d316114f9565b60200260200101518786604051610a0594939291906001600160a01b039485168152602081019390935292166040820152606081019190915260800190565b6004546001600160a01b0316331480610d9357506003546001600160a01b031633145b610daf5760405162461bcd60e51b81526004016102089061144f565b6000610dbc846001610ee6565b600080546040516338ed173960e01b81529293509091620100009091046001600160a01b0316906338ed173990610dff908690859087908a904290600401611498565b600060405180830381600087803b158015610e1957600080fd5b505af1158015610e2d573d6000803e3d6000fd5b505050506040513d6000823e601f3d908101601f19168201604052610e5591908101906112dd565b90507fdb587d878116df0bdd4fe154699aa2c5f439da001cc811dfd05d9f589fc5a8ee8584600460009054906101000a90046001600160a01b031684600186516109b891906114d4565b60606000610ead8486610ee6565b60005460405163d06ca61f60e01b81529192506201000090046001600160a01b03169063d06ca61f90610a5b9086908590600401611477565b6060600060029054906101000a90046001600160a01b03166001600160a01b03166373b295c26040518163ffffffff1660e01b815260040160206040518083038186803b158015610f3657600080fd5b505afa158015610f4a573d6000803e3d6000fd5b505050506040513d601f19601f82011682018060405250810190610f6e919061127f565b6001600160a01b0316836001600160a01b03161415611096576040805160028082526060820183526000926020830190803683370190505090508215611018578381600081518110610fc257610fc26114f9565b6001600160a01b039283166020918202929092010152600454825191169082906001908110610ff357610ff36114f9565b60200260200101906001600160a01b031690816001600160a01b03168152505061108f565b60045481516001600160a01b0390911690829060009061103a5761103a6114f9565b60200260200101906001600160a01b031690816001600160a01b031681525050838160018151811061106e5761106e6114f9565b60200260200101906001600160a01b031690816001600160a01b0316815250505b905061125c565b6040805160038082526080820190925260009160208201606080368337019050509050600060029054906101000a90046001600160a01b03166001600160a01b03166373b295c26040518163ffffffff1660e01b815260040160206040518083038186803b15801561110757600080fd5b505afa15801561111b573d6000803e3d6000fd5b505050506040513d601f19601f8201168201806040525081019061113f919061127f565b81600181518110611152576111526114f9565b60200260200101906001600160a01b031690816001600160a01b03168152505082156111e257838160008151811061118c5761118c6114f9565b6001600160a01b0392831660209182029290920101526004548251911690829060029081106111bd576111bd6114f9565b60200260200101906001600160a01b031690816001600160a01b031681525050611259565b60045481516001600160a01b03909116908290600090611204576112046114f9565b60200260200101906001600160a01b031690816001600160a01b0316815250508381600281518110611238576112386114f9565b60200260200101906001600160a01b031690816001600160a01b0316815250505b90505b92915050565b60006020828403121561127457600080fd5b813561125981611525565b60006020828403121561129157600080fd5b815161125981611525565b6000806000606084860312156112b157600080fd5b83356112bc81611525565b925060208401356112cc81611525565b929592945050506040919091013590565b600060208083850312156112f057600080fd5b825167ffffffffffffffff8082111561130857600080fd5b818501915085601f83011261131c57600080fd5b81518181111561132e5761132e61150f565b8060051b604051601f19603f830116810181811085821117156113535761135361150f565b604052828152858101935084860182860187018a101561137257600080fd5b600095505b83861015611395578051855260019590950194938601938601611377565b5098975050505050505050565b6000806000606084860312156113b757600080fd5b833580151581146112bc57600080fd5b600081518084526020808501945080840160005b838110156114005781516001600160a01b0316875295820195908201906001016113db565b509495945050505050565b6020808252825182820181905260009190848201906040850190845b8181101561144357835183529284019291840191600101611427565b50909695505050505050565b6020808252600e908201526d4163636573732044656e6965642160901b604082015260600190565b82815260406020820152600061149060408301846113c7565b949350505050565b85815284602082015260a0604082015260006114b760a08301866113c7565b6001600160a01b0394909416606083015250608001529392505050565b6000828210156114f457634e487b7160e01b600052601160045260246000fd5b500390565b634e487b7160e01b600052603260045260246000fd5b634e487b7160e01b600052604160045260246000fd5b6001600160a01b038116811461153a57600080fd5b5056fea164736f6c6343000807000a",
  "devdoc": {
    "kind": "dev",
    "methods": {},
    "version": 1
  },
  "userdoc": {
    "kind": "user",
    "methods": {},
    "version": 1
  },
  "storageLayout": {
    "storage": [
      {
        "astId": 598,
        "contract": "contracts/dependencies/LiquidityRouter.sol:LiquidityRouter",
        "label": "_initialized",
        "offset": 0,
        "slot": "0",
        "type": "t_bool"
      },
      {
        "astId": 601,
        "contract": "contracts/dependencies/LiquidityRouter.sol:LiquidityRouter",
        "label": "_initializing",
        "offset": 1,
        "slot": "0",
        "type": "t_bool"
      },
      {
        "astId": 5678,
        "contract": "contracts/dependencies/LiquidityRouter.sol:LiquidityRouter",
        "label": "uniswapV2Router",
        "offset": 2,
        "slot": "0",
        "type": "t_contract(IJoeRouter02)6678"
      },
      {
        "astId": 5680,
        "contract": "contracts/dependencies/LiquidityRouter.sol:LiquidityRouter",
        "label": "routerAddress",
        "offset": 0,
        "slot": "1",
        "type": "t_address"
      },
      {
        "astId": 5682,
        "contract": "contracts/dependencies/LiquidityRouter.sol:LiquidityRouter",
        "label": "uniswapV2Pair",
        "offset": 0,
        "slot": "2",
        "type": "t_address"
      },
      {
        "astId": 5684,
        "contract": "contracts/dependencies/LiquidityRouter.sol:LiquidityRouter",
        "label": "admin0xB",
        "offset": 0,
        "slot": "3",
        "type": "t_address"
      },
      {
        "astId": 5686,
        "contract": "contracts/dependencies/LiquidityRouter.sol:LiquidityRouter",
        "label": "token",
        "offset": 0,
        "slot": "4",
        "type": "t_address"
      }
    ],
    "types": {
      "t_address": {
        "encoding": "inplace",
        "label": "address",
        "numberOfBytes": "20"
      },
      "t_bool": {
        "encoding": "inplace",
        "label": "bool",
        "numberOfBytes": "1"
      },
      "t_contract(IJoeRouter02)6678": {
        "encoding": "inplace",
        "label": "contract IJoeRouter02",
        "numberOfBytes": "20"
      }
    }
  }
}