{
  "address": "0x84B6a2B1433F3EC46585acb4547Ffe40F7d8E207",
  "abi": [
    {
      "anonymous": false,
      "inputs": [
        {
          "indexed": false,
          "internalType": "address",
          "name": "tokenIn",
          "type": "address"
        },
        {
          "indexed": false,
          "internalType": "uint256",
          "name": "amountIn",
          "type": "uint256"
        },
        {
          "indexed": false,
          "internalType": "address",
          "name": "tokenOut",
          "type": "address"
        },
        {
          "indexed": false,
          "internalType": "uint256",
          "name": "amountOut",
          "type": "uint256"
        }
      ],
      "name": "Swapped",
      "type": "event"
    },
    {
      "inputs": [],
      "name": "admin0xB",
      "outputs": [
        {
          "internalType": "address",
          "name": "",
          "type": "address"
        }
      ],
      "stateMutability": "view",
      "type": "function"
    },
    {
      "inputs": [
        {
          "internalType": "bool",
          "name": "is0xBOut",
          "type": "bool"
        },
        {
          "internalType": "address",
          "name": "targetToken",
          "type": "address"
        },
        {
          "internalType": "uint256",
          "name": "outputAmount",
          "type": "uint256"
        }
      ],
      "name": "getInputAmount",
      "outputs": [
        {
          "internalType": "uint256[]",
          "name": "",
          "type": "uint256[]"
        }
      ],
      "stateMutability": "view",
      "type": "function"
    },
    {
      "inputs": [
        {
          "internalType": "bool",
          "name": "is0xBOut",
          "type": "bool"
        },
        {
          "internalType": "address",
          "name": "targetToken",
          "type": "address"
        },
        {
          "internalType": "uint256",
          "name": "inputAmount",
          "type": "uint256"
        }
      ],
      "name": "getOutputAmount",
      "outputs": [
        {
          "internalType": "uint256[]",
          "name": "",
          "type": "uint256[]"
        }
      ],
      "stateMutability": "view",
      "type": "function"
    },
    {
      "inputs": [
        {
          "internalType": "address",
          "name": "_router",
          "type": "address"
        }
      ],
      "name": "initialize",
      "outputs": [],
      "stateMutability": "nonpayable",
      "type": "function"
    },
    {
      "inputs": [],
      "name": "routerAddress",
      "outputs": [
        {
          "internalType": "address",
          "name": "",
          "type": "address"
        }
      ],
      "stateMutability": "view",
      "type": "function"
    },
    {
      "inputs": [
        {
          "internalType": "address",
          "name": "_token",
          "type": "address"
        }
      ],
      "name": "setToken",
      "outputs": [],
      "stateMutability": "nonpayable",
      "type": "function"
    },
    {
      "inputs": [
        {
          "internalType": "address",
          "name": "receiver",
          "type": "address"
        },
        {
          "internalType": "address",
          "name": "outTokenAddr",
          "type": "address"
        },
        {
          "internalType": "uint256",
          "name": "amountOut",
          "type": "uint256"
        },
        {
          "internalType": "uint256",
          "name": "amountInMax",
          "type": "uint256"
        },
        {
          "internalType": "uint256",
          "name": "deadline",
          "type": "uint256"
        }
      ],
      "name": "swap0xBForExactToken",
      "outputs": [],
      "stateMutability": "nonpayable",
      "type": "function"
    },
    {
      "inputs": [
        {
          "internalType": "address",
          "name": "receiver",
          "type": "address"
        },
        {
          "internalType": "address",
          "name": "outTokenAddr",
          "type": "address"
        },
        {
          "internalType": "uint256",
          "name": "amountIn",
          "type": "uint256"
        },
        {
          "internalType": "uint256",
          "name": "amountOutMin",
          "type": "uint256"
        },
        {
          "internalType": "uint256",
          "name": "deadline",
          "type": "uint256"
        }
      ],
      "name": "swapExact0xBForToken",
      "outputs": [],
      "stateMutability": "nonpayable",
      "type": "function"
    },
    {
      "inputs": [
        {
          "internalType": "address",
          "name": "inTokenAddr",
          "type": "address"
        },
        {
          "internalType": "address",
          "name": "receiver",
          "type": "address"
        },
        {
          "internalType": "uint256",
          "name": "amountIn",
          "type": "uint256"
        }
      ],
      "name": "swapExactTokenFor0xB",
      "outputs": [],
      "stateMutability": "nonpayable",
      "type": "function"
    },
    {
      "inputs": [],
      "name": "token",
      "outputs": [
        {
          "internalType": "address",
          "name": "",
          "type": "address"
        }
      ],
      "stateMutability": "view",
      "type": "function"
    },
    {
      "inputs": [],
      "name": "uniswapV2Pair",
      "outputs": [
        {
          "internalType": "address",
          "name": "",
          "type": "address"
        }
      ],
      "stateMutability": "view",
      "type": "function"
    },
    {
      "inputs": [
        {
          "internalType": "address",
          "name": "_newAddr",
          "type": "address"
        }
      ],
      "name": "updateUniswapV2Router",
      "outputs": [],
      "stateMutability": "nonpayable",
      "type": "function"
    }
  ],
  "transactionHash": "0x61ae674356d268ccaf5ed67e0457ef78f4c820c1c9b5bf186fde7739fdc051fe",
  "args": [],
  "numDeployments": 6,
  "solcInputHash": "a9f0161898f7697ee610fcaef8625f8d",
  "bytecode": "0x608060405234801561001057600080fd5b50611689806100206000396000f3fe608060405234801561001057600080fd5b50600436106100b45760003560e01c806388e5249f1161007157806388e5249f1461014a578063bd7476781461015d578063c4d66de81461017d578063eb8e0b3f14610190578063f5c13653146101a3578063fc0c546a146101b657600080fd5b80630584aecf146100b9578063144fa6d7146100e95780633268cc56146100fe57806349bd5a5e1461011157806365b8dbc01461012457806380be66cf14610137575b600080fd5b6003546100cc906001600160a01b031681565b6040516001600160a01b0390911681526020015b60405180910390f35b6100fc6100f7366004611300565b6101c9565b005b6001546100cc906001600160a01b031681565b6002546100cc906001600160a01b031681565b6100fc610132366004611300565b61075c565b6100fc61014536600461137b565b610889565b6100fc61015836600461137b565b610a83565b61017061016b3660046114ae565b610beb565b6040516100e0919061153c565b6100fc61018b366004611300565b610c8f565b6100fc61019e36600461133a565b610dd7565b6101706101b13660046114ae565b610f3d565b6004546100cc906001600160a01b031681565b6004546001600160a01b03163314806101ec57506003546001600160a01b031633145b6102115760405162461bcd60e51b815260040161020890611580565b60405180910390fd5b6001600160a01b03811661025e5760405162461bcd60e51b81526020600482015260146024820152732722abafaa27a5a2a71d103d32b9379030b2323960611b6044820152606401610208565b600480546001600160a01b0319166001600160a01b03838116919091178255600080546040805163c45a015560e01b815290519294620100009092049093169263c45a01559281830192602092829003018186803b1580156102bf57600080fd5b505afa1580156102d3573d6000803e3d6000fd5b505050506040513d601f19601f820116820180604052508101906102f7919061131d565b60048054600054604080516339d94ae160e11b815290516001600160a01b039586169563c9c6539695948116946201000090940416926373b295c292808201926020929091829003018186803b15801561035057600080fd5b505afa158015610364573d6000803e3d6000fd5b505050506040513d601f19601f82011682018060405250810190610388919061131d565b6040516001600160e01b031960e085901b1681526001600160a01b03928316600482015291166024820152604401602060405180830381600087803b1580156103d057600080fd5b505af1925050508015610400575060408051601f3d908101601f191682019092526103fd9181019061131d565b60015b6105a057600060029054906101000a90046001600160a01b03166001600160a01b031663c45a01556040518163ffffffff1660e01b815260040160206040518083038186803b15801561045257600080fd5b505afa158015610466573d6000803e3d6000fd5b505050506040513d601f19601f8201168201806040525081019061048a919061131d565b60048054600054604080516339d94ae160e11b815290516001600160a01b039586169563e6a4390595948116946201000090940416926373b295c292808201926020929091829003018186803b1580156104e357600080fd5b505afa1580156104f7573d6000803e3d6000fd5b505050506040513d601f19601f8201168201806040525081019061051b919061131d565b6040516001600160e01b031960e085901b1681526001600160a01b0392831660048201529116602482015260440160206040518083038186803b15801561056157600080fd5b505afa158015610575573d6000803e3d6000fd5b505050506040513d601f19601f82011682018060405250810190610599919061131d565b9050610739565b50600060029054906101000a90046001600160a01b03166001600160a01b031663c45a01556040518163ffffffff1660e01b815260040160206040518083038186803b1580156105ef57600080fd5b505afa158015610603573d6000803e3d6000fd5b505050506040513d601f19601f82011682018060405250810190610627919061131d565b60048054600054604080516339d94ae160e11b815290516001600160a01b039586169563e6a4390595948116946201000090940416926373b295c292808201926020929091829003018186803b15801561068057600080fd5b505afa158015610694573d6000803e3d6000fd5b505050506040513d601f19601f820116820180604052508101906106b8919061131d565b6040516001600160e01b031960e085901b1681526001600160a01b0392831660048201529116602482015260440160206040518083038186803b1580156106fe57600080fd5b505afa158015610712573d6000803e3d6000fd5b505050506040513d601f19601f82011682018060405250810190610736919061131d565b90505b600280546001600160a01b0319166001600160a01b039290921691909117905550565b6004546001600160a01b031633148061077f57506003546001600160a01b031633145b61079b5760405162461bcd60e51b815260040161020890611580565b6000546001600160a01b03828116620100009092041614156108105760405162461bcd60e51b815260206004820152602860248201527f544b4e3a2054686520726f7574657220616c7265616479206861732074686174604482015267206164647265737360c01b6064820152608401610208565b600180546001600160a01b0319166001600160a01b038381169182179092556000805462010000600160b01b03191662010000928302178082556040805163c45a015560e01b815290519294939091049092169163c45a0155916004808301926020929190829003018186803b1580156102bf57600080fd5b6004546001600160a01b03163314806108ac57506003546001600160a01b031633145b6108c85760405162461bcd60e51b815260040161020890611580565b60006108d5856000610f84565b60008054604051634401edf760e11b81529293509091620100009091046001600160a01b031690638803dbee90610918908890889087908d908a906004016115c9565b600060405180830381600087803b15801561093257600080fd5b505af1158015610946573d6000803e3d6000fd5b505050506040513d6000823e601f3d908101601f1916820160405261096e91908101906113cc565b90506000816000815181106109855761098561162a565b60209081029190910101516004549091506001600160a01b031663a9059cbb896109af8489611605565b6040516001600160e01b031960e085901b1681526001600160a01b0390921660048301526024820152604401602060405180830381600087803b1580156109f557600080fd5b505af1158015610a09573d6000803e3d6000fd5b505050506040513d601f19601f82011682018060405250810190610a2d9190611491565b506004546040517fdb587d878116df0bdd4fe154699aa2c5f439da001cc811dfd05d9f589fc5a8ee91610a71916001600160a01b039091169084908b908b90611512565b60405180910390a15050505050505050565b6004546001600160a01b0316331480610aa657506003546001600160a01b031633145b610ac25760405162461bcd60e51b815260040161020890611580565b6000610acf856000610f84565b600080546040516338ed173960e01b81529293509091620100009091046001600160a01b0316906338ed173990610b12908890889087908d908a906004016115c9565b600060405180830381600087803b158015610b2c57600080fd5b505af1158015610b40573d6000803e3d6000fd5b505050506040513d6000823e601f3d908101601f19168201604052610b6891908101906113cc565b90507fdb587d878116df0bdd4fe154699aa2c5f439da001cc811dfd05d9f589fc5a8ee600460009054906101000a90046001600160a01b031686888460018651610bb29190611605565b81518110610bc257610bc261162a565b6020026020010151604051610bda9493929190611512565b60405180910390a150505050505050565b60606000610bf98486610f84565b6000546040516307c0329d60e21b81529192506201000090046001600160a01b031690631f00ca7490610c3290869085906004016115a8565b60006040518083038186803b158015610c4a57600080fd5b505afa158015610c5e573d6000803e3d6000fd5b505050506040513d6000823e601f3d908101601f19168201604052610c8691908101906113cc565b95945050505050565b600054610100900460ff16610caa5760005460ff1615610cae565b303b155b610d115760405162461bcd60e51b815260206004820152602e60248201527f496e697469616c697a61626c653a20636f6e747261637420697320616c72656160448201526d191e481a5b9a5d1a585b1a5e995960921b6064820152608401610208565b600054610100900460ff16158015610d33576000805461ffff19166101011790555b6001600160a01b038216610d775760405162461bcd60e51b815260206004820152600b60248201526a524f55544552205a45524f60a81b6044820152606401610208565b600180546001600160a01b0384166001600160a01b03199182168117909255600080546201000090930262010000600160b01b03199093169290921790915560038054909116331790558015610dd3576000805461ff00191690555b5050565b6004546001600160a01b0316331480610dfa57506003546001600160a01b031633145b610e165760405162461bcd60e51b815260040161020890611580565b6000610e23846001610f84565b600080546040516338ed173960e01b81529293509091620100009091046001600160a01b0316906338ed173990610e66908690859087908a9042906004016115c9565b600060405180830381600087803b158015610e8057600080fd5b505af1158015610e94573d6000803e3d6000fd5b505050506040513d6000823e601f3d908101601f19168201604052610ebc91908101906113cc565b90507fdb587d878116df0bdd4fe154699aa2c5f439da001cc811dfd05d9f589fc5a8ee8584600460009054906101000a90046001600160a01b03168460018651610f069190611605565b81518110610f1657610f1661162a565b6020026020010151604051610f2e9493929190611512565b60405180910390a15050505050565b60606000610f4b8486610f84565b60005460405163d06ca61f60e01b81529192506201000090046001600160a01b03169063d06ca61f90610c3290869085906004016115a8565b6060600060029054906101000a90046001600160a01b03166001600160a01b03166373b295c26040518163ffffffff1660e01b815260040160206040518083038186803b158015610fd457600080fd5b505afa158015610fe8573d6000803e3d6000fd5b505050506040513d601f19601f8201168201806040525081019061100c919061131d565b6001600160a01b0316836001600160a01b031614156111345760408051600280825260608201835260009260208301908036833701905050905082156110b65783816000815181106110605761106061162a565b6001600160a01b0392831660209182029290920101526004548251911690829060019081106110915761109161162a565b60200260200101906001600160a01b031690816001600160a01b03168152505061112d565b60045481516001600160a01b039091169082906000906110d8576110d861162a565b60200260200101906001600160a01b031690816001600160a01b031681525050838160018151811061110c5761110c61162a565b60200260200101906001600160a01b031690816001600160a01b0316815250505b90506112fa565b6040805160038082526080820190925260009160208201606080368337019050509050600060029054906101000a90046001600160a01b03166001600160a01b03166373b295c26040518163ffffffff1660e01b815260040160206040518083038186803b1580156111a557600080fd5b505afa1580156111b9573d6000803e3d6000fd5b505050506040513d601f19601f820116820180604052508101906111dd919061131d565b816001815181106111f0576111f061162a565b60200260200101906001600160a01b031690816001600160a01b031681525050821561128057838160008151811061122a5761122a61162a565b6001600160a01b03928316602091820292909201015260045482519116908290600290811061125b5761125b61162a565b60200260200101906001600160a01b031690816001600160a01b0316815250506112f7565b60045481516001600160a01b039091169082906000906112a2576112a261162a565b60200260200101906001600160a01b031690816001600160a01b03168152505083816002815181106112d6576112d661162a565b60200260200101906001600160a01b031690816001600160a01b0316815250505b90505b92915050565b60006020828403121561131257600080fd5b81356112f781611656565b60006020828403121561132f57600080fd5b81516112f781611656565b60008060006060848603121561134f57600080fd5b833561135a81611656565b9250602084013561136a81611656565b929592945050506040919091013590565b600080600080600060a0868803121561139357600080fd5b853561139e81611656565b945060208601356113ae81611656565b94979496505050506040830135926060810135926080909101359150565b600060208083850312156113df57600080fd5b825167ffffffffffffffff808211156113f757600080fd5b818501915085601f83011261140b57600080fd5b81518181111561141d5761141d611640565b8060051b604051601f19603f8301168101818110858211171561144257611442611640565b604052828152858101935084860182860187018a101561146157600080fd5b600095505b83861015611484578051855260019590950194938601938601611466565b5098975050505050505050565b6000602082840312156114a357600080fd5b81516112f78161166e565b6000806000606084860312156114c357600080fd5b833561135a8161166e565b600081518084526020808501945080840160005b838110156115075781516001600160a01b0316875295820195908201906001016114e2565b509495945050505050565b6001600160a01b039485168152602081019390935292166040820152606081019190915260800190565b6020808252825182820181905260009190848201906040850190845b8181101561157457835183529284019291840191600101611558565b50909695505050505050565b6020808252600e908201526d4163636573732044656e6965642160901b604082015260600190565b8281526040602082015260006115c160408301846114ce565b949350505050565b85815284602082015260a0604082015260006115e860a08301866114ce565b6001600160a01b0394909416606083015250608001529392505050565b60008282101561162557634e487b7160e01b600052601160045260246000fd5b500390565b634e487b7160e01b600052603260045260246000fd5b634e487b7160e01b600052604160045260246000fd5b6001600160a01b038116811461166b57600080fd5b50565b801515811461166b57600080fdfea164736f6c6343000807000a",
  "devdoc": {
    "kind": "dev",
    "methods": {},
    "version": 1
  },
  "userdoc": {
    "kind": "user",
    "methods": {},
    "version": 1
  },
  "storageLayout": {
    "storage": [
      {
        "astId": 598,
        "contract": "contracts/dependencies/LiquidityRouter.sol:LiquidityRouter",
        "label": "_initialized",
        "offset": 0,
        "slot": "0",
        "type": "t_bool"
      },
      {
        "astId": 601,
        "contract": "contracts/dependencies/LiquidityRouter.sol:LiquidityRouter",
        "label": "_initializing",
        "offset": 1,
        "slot": "0",
        "type": "t_bool"
      },
      {
        "astId": 6499,
        "contract": "contracts/dependencies/LiquidityRouter.sol:LiquidityRouter",
        "label": "uniswapV2Router",
        "offset": 2,
        "slot": "0",
        "type": "t_contract(IJoeRouter02)7519"
      },
      {
        "astId": 6501,
        "contract": "contracts/dependencies/LiquidityRouter.sol:LiquidityRouter",
        "label": "routerAddress",
        "offset": 0,
        "slot": "1",
        "type": "t_address"
      },
      {
        "astId": 6503,
        "contract": "contracts/dependencies/LiquidityRouter.sol:LiquidityRouter",
        "label": "uniswapV2Pair",
        "offset": 0,
        "slot": "2",
        "type": "t_address"
      },
      {
        "astId": 6505,
        "contract": "contracts/dependencies/LiquidityRouter.sol:LiquidityRouter",
        "label": "admin0xB",
        "offset": 0,
        "slot": "3",
        "type": "t_address"
      },
      {
        "astId": 6507,
        "contract": "contracts/dependencies/LiquidityRouter.sol:LiquidityRouter",
        "label": "token",
        "offset": 0,
        "slot": "4",
        "type": "t_address"
      }
    ],
    "types": {
      "t_address": {
        "encoding": "inplace",
        "label": "address",
        "numberOfBytes": "20"
      },
      "t_bool": {
        "encoding": "inplace",
        "label": "bool",
        "numberOfBytes": "1"
      },
      "t_contract(IJoeRouter02)7519": {
        "encoding": "inplace",
        "label": "contract IJoeRouter02",
        "numberOfBytes": "20"
      }
    }
  }
}