{
  "address": "0xd38ccCd5F816Fb66F0c448f83872Ab7cE594c34F",
  "abi": [
    {
      "inputs": [],
      "name": "admin0xB",
      "outputs": [
        {
          "internalType": "address",
          "name": "",
          "type": "address"
        }
      ],
      "stateMutability": "view",
      "type": "function"
    },
    {
      "inputs": [
        {
          "internalType": "address",
          "name": "inputToken",
          "type": "address"
        },
        {
          "internalType": "uint256",
          "name": "outputAmount",
          "type": "uint256"
        }
      ],
      "name": "getInputAmount",
      "outputs": [
        {
          "internalType": "uint256[]",
          "name": "",
          "type": "uint256[]"
        }
      ],
      "stateMutability": "view",
      "type": "function"
    },
    {
      "inputs": [
        {
          "internalType": "address",
          "name": "targetToken",
          "type": "address"
        },
        {
          "internalType": "uint256",
          "name": "inputAmount",
          "type": "uint256"
        }
      ],
      "name": "getOutputAmount",
      "outputs": [
        {
          "internalType": "uint256[]",
          "name": "",
          "type": "uint256[]"
        }
      ],
      "stateMutability": "view",
      "type": "function"
    },
    {
      "inputs": [
        {
          "internalType": "address",
          "name": "_router",
          "type": "address"
        }
      ],
      "name": "initialize",
      "outputs": [],
      "stateMutability": "nonpayable",
      "type": "function"
    },
    {
      "inputs": [],
      "name": "routerAddress",
      "outputs": [
        {
          "internalType": "address",
          "name": "",
          "type": "address"
        }
      ],
      "stateMutability": "view",
      "type": "function"
    },
    {
      "inputs": [
        {
          "internalType": "address",
          "name": "_token",
          "type": "address"
        }
      ],
      "name": "setToken",
      "outputs": [],
      "stateMutability": "nonpayable",
      "type": "function"
    },
    {
      "inputs": [
        {
          "internalType": "address",
          "name": "outTokenAddr",
          "type": "address"
        },
        {
          "internalType": "address",
          "name": "receiver",
          "type": "address"
        },
        {
          "internalType": "uint256",
          "name": "amountIn",
          "type": "uint256"
        }
      ],
      "name": "swapExact0xBForToken",
      "outputs": [],
      "stateMutability": "nonpayable",
      "type": "function"
    },
    {
      "inputs": [
        {
          "internalType": "address",
          "name": "outTokenAddr",
          "type": "address"
        },
        {
          "internalType": "address",
          "name": "receiver",
          "type": "address"
        },
        {
          "internalType": "uint256",
          "name": "amountIn",
          "type": "uint256"
        }
      ],
      "name": "swapExactTokenFor0xB",
      "outputs": [],
      "stateMutability": "nonpayable",
      "type": "function"
    },
    {
      "inputs": [],
      "name": "token",
      "outputs": [
        {
          "internalType": "address",
          "name": "",
          "type": "address"
        }
      ],
      "stateMutability": "view",
      "type": "function"
    },
    {
      "inputs": [],
      "name": "uniswapV2Pair",
      "outputs": [
        {
          "internalType": "address",
          "name": "",
          "type": "address"
        }
      ],
      "stateMutability": "view",
      "type": "function"
    },
    {
      "inputs": [
        {
          "internalType": "address",
          "name": "_newAddr",
          "type": "address"
        }
      ],
      "name": "updateUniswapV2Router",
      "outputs": [],
      "stateMutability": "nonpayable",
      "type": "function"
    }
  ],
  "transactionHash": "0x4360feac4157f953a31e928b0c8ea556227321d16dc172cfedf8615f53891976",
  "args": [],
  "numDeployments": 2,
  "solcInputHash": "29f4ed4215136e2b79fa897744d53ab5",
  "bytecode": "0x608060405234801561001057600080fd5b506112a9806100206000396000f3fe608060405234801561001057600080fd5b50600436106100a95760003560e01c80637b07004b116100715780637b07004b1461012c5780639caf326f1461014c578063ab8f06d01461015f578063c4d66de814610172578063eb8e0b3f14610185578063fc0c546a1461019857600080fd5b80630584aecf146100ae578063144fa6d7146100de5780633268cc56146100f357806349bd5a5e1461010657806365b8dbc014610119575b600080fd5b6003546100c1906001600160a01b031681565b6040516001600160a01b0390911681526020015b60405180910390f35b6100f16100ec366004611008565b6101ab565b005b6001546100c1906001600160a01b031681565b6002546100c1906001600160a01b031681565b6100f1610127366004611008565b61075b565b61013f61013a36600461108a565b6108a9565b6040516100d591906111bf565b6100f161015a366004611049565b610a7f565b61013f61016d36600461108a565b610c34565b6100f1610180366004611008565b610d9f565b6100f1610193366004611049565b610ee7565b6004546100c1906001600160a01b031681565b6004546001600160a01b03163314806101ce57506003546001600160a01b031633145b6102105760405162461bcd60e51b815260206004820152600e60248201526d4163636573732044656e6965642160901b60448201526064015b60405180910390fd5b6001600160a01b03811661025d5760405162461bcd60e51b81526020600482015260146024820152732722abafaa27a5a2a71d103d32b9379030b2323960611b6044820152606401610207565b600480546001600160a01b0319166001600160a01b03838116919091178255600080546040805163c45a015560e01b815290519294620100009092049093169263c45a01559281830192602092829003018186803b1580156102be57600080fd5b505afa1580156102d2573d6000803e3d6000fd5b505050506040513d601f19601f820116820180604052508101906102f6919061102c565b60048054600054604080516339d94ae160e11b815290516001600160a01b039586169563c9c6539695948116946201000090940416926373b295c292808201926020929091829003018186803b15801561034f57600080fd5b505afa158015610363573d6000803e3d6000fd5b505050506040513d601f19601f82011682018060405250810190610387919061102c565b6040516001600160e01b031960e085901b1681526001600160a01b03928316600482015291166024820152604401602060405180830381600087803b1580156103cf57600080fd5b505af19250505080156103ff575060408051601f3d908101601f191682019092526103fc9181019061102c565b60015b61059f57600060029054906101000a90046001600160a01b03166001600160a01b031663c45a01556040518163ffffffff1660e01b815260040160206040518083038186803b15801561045157600080fd5b505afa158015610465573d6000803e3d6000fd5b505050506040513d601f19601f82011682018060405250810190610489919061102c565b60048054600054604080516339d94ae160e11b815290516001600160a01b039586169563e6a4390595948116946201000090940416926373b295c292808201926020929091829003018186803b1580156104e257600080fd5b505afa1580156104f6573d6000803e3d6000fd5b505050506040513d601f19601f8201168201806040525081019061051a919061102c565b6040516001600160e01b031960e085901b1681526001600160a01b0392831660048201529116602482015260440160206040518083038186803b15801561056057600080fd5b505afa158015610574573d6000803e3d6000fd5b505050506040513d601f19601f82011682018060405250810190610598919061102c565b9050610738565b50600060029054906101000a90046001600160a01b03166001600160a01b031663c45a01556040518163ffffffff1660e01b815260040160206040518083038186803b1580156105ee57600080fd5b505afa158015610602573d6000803e3d6000fd5b505050506040513d601f19601f82011682018060405250810190610626919061102c565b60048054600054604080516339d94ae160e11b815290516001600160a01b039586169563e6a4390595948116946201000090940416926373b295c292808201926020929091829003018186803b15801561067f57600080fd5b505afa158015610693573d6000803e3d6000fd5b505050506040513d601f19601f820116820180604052508101906106b7919061102c565b6040516001600160e01b031960e085901b1681526001600160a01b0392831660048201529116602482015260440160206040518083038186803b1580156106fd57600080fd5b505afa158015610711573d6000803e3d6000fd5b505050506040513d601f19601f82011682018060405250810190610735919061102c565b90505b600280546001600160a01b0319166001600160a01b039290921691909117905550565b6004546001600160a01b031633148061077e57506003546001600160a01b031633145b6107bb5760405162461bcd60e51b815260206004820152600e60248201526d4163636573732044656e6965642160901b6044820152606401610207565b6000546001600160a01b03828116620100009092041614156108305760405162461bcd60e51b815260206004820152602860248201527f544b4e3a2054686520726f7574657220616c7265616479206861732074686174604482015267206164647265737360c01b6064820152608401610207565b600180546001600160a01b0319166001600160a01b038381169182179092556000805462010000600160b01b03191662010000928302178082556040805163c45a015560e01b815290519294939091049092169163c45a0155916004808301926020929190829003018186803b1580156102be57600080fd5b6040805160038082526080820190925260609160009190602082018480368337505060045482519293506001600160a01b0316918391506000906108ef576108ef611258565b60200260200101906001600160a01b031690816001600160a01b031681525050600060029054906101000a90046001600160a01b03166001600160a01b03166373b295c26040518163ffffffff1660e01b815260040160206040518083038186803b15801561095d57600080fd5b505afa158015610971573d6000803e3d6000fd5b505050506040513d601f19601f82011682018060405250810190610995919061102c565b816001815181106109a8576109a8611258565b60200260200101906001600160a01b031690816001600160a01b03168152505083816002815181106109dc576109dc611258565b6001600160a01b03928316602091820292909201015260005460405163d06ca61f60e01b8152620100009091049091169063d06ca61f90610a239086908590600401611203565b60006040518083038186803b158015610a3b57600080fd5b505afa158015610a4f573d6000803e3d6000fd5b505050506040513d6000823e601f3d908101601f19168201604052610a7791908101906110b6565b949350505050565b6040805160038082526080820190925260009160208201606080368337505060045482519293506001600160a01b031691839150600090610ac257610ac2611258565b60200260200101906001600160a01b031690816001600160a01b031681525050600060029054906101000a90046001600160a01b03166001600160a01b03166373b295c26040518163ffffffff1660e01b815260040160206040518083038186803b158015610b3057600080fd5b505afa158015610b44573d6000803e3d6000fd5b505050506040513d601f19601f82011682018060405250810190610b68919061102c565b81600181518110610b7b57610b7b611258565b60200260200101906001600160a01b031690816001600160a01b0316815250508381600281518110610baf57610baf611258565b6001600160a01b03928316602091820292909201015260008054604051635c11d79560e01b81526201000090910490921691635c11d79591610bfc9186919086908990429060040161121c565b600060405180830381600087803b158015610c1657600080fd5b505af1158015610c2a573d6000803e3d6000fd5b5050505050505050565b60408051600380825260808201909252606091600091906020820184803683370190505090508381600081518110610c6e57610c6e611258565b60200260200101906001600160a01b031690816001600160a01b031681525050600060029054906101000a90046001600160a01b03166001600160a01b03166373b295c26040518163ffffffff1660e01b815260040160206040518083038186803b158015610cdc57600080fd5b505afa158015610cf0573d6000803e3d6000fd5b505050506040513d601f19601f82011682018060405250810190610d14919061102c565b81600181518110610d2757610d27611258565b6001600160a01b039283166020918202929092010152600454825191169082906002908110610d5857610d58611258565b6001600160a01b0392831660209182029290920101526000546040516307c0329d60e21b81526201000090910490911690631f00ca7490610a239086908590600401611203565b600054610100900460ff16610dba5760005460ff1615610dbe565b303b155b610e215760405162461bcd60e51b815260206004820152602e60248201527f496e697469616c697a61626c653a20636f6e747261637420697320616c72656160448201526d191e481a5b9a5d1a585b1a5e995960921b6064820152608401610207565b600054610100900460ff16158015610e43576000805461ffff19166101011790555b6001600160a01b038216610e875760405162461bcd60e51b815260206004820152600b60248201526a524f55544552205a45524f60a81b6044820152606401610207565b600180546001600160a01b0384166001600160a01b03199182168117909255600080546201000090930262010000600160b01b03199093169290921790915560038054909116331790558015610ee3576000805461ff00191690555b5050565b60408051600380825260808201909252600091602082016060803683370190505090508381600081518110610f1e57610f1e611258565b60200260200101906001600160a01b031690816001600160a01b031681525050600060029054906101000a90046001600160a01b03166001600160a01b03166373b295c26040518163ffffffff1660e01b815260040160206040518083038186803b158015610f8c57600080fd5b505afa158015610fa0573d6000803e3d6000fd5b505050506040513d601f19601f82011682018060405250810190610fc4919061102c565b81600181518110610fd757610fd7611258565b6001600160a01b039283166020918202929092010152600454825191169082906002908110610baf57610baf611258565b60006020828403121561101a57600080fd5b813561102581611284565b9392505050565b60006020828403121561103e57600080fd5b815161102581611284565b60008060006060848603121561105e57600080fd5b833561106981611284565b9250602084013561107981611284565b929592945050506040919091013590565b6000806040838503121561109d57600080fd5b82356110a881611284565b946020939093013593505050565b600060208083850312156110c957600080fd5b825167ffffffffffffffff808211156110e157600080fd5b818501915085601f8301126110f557600080fd5b8151818111156111075761110761126e565b8060051b604051601f19603f8301168101818110858211171561112c5761112c61126e565b604052828152858101935084860182860187018a101561114b57600080fd5b600095505b8386101561116e578051855260019590950194938601938601611150565b5098975050505050505050565b600081518084526020808501945080840160005b838110156111b45781516001600160a01b03168752958201959082019060010161118f565b509495945050505050565b6020808252825182820181905260009190848201906040850190845b818110156111f7578351835292840192918401916001016111db565b50909695505050505050565b828152604060208201526000610a77604083018461117b565b85815284602082015260a06040820152600061123b60a083018661117b565b6001600160a01b0394909416606083015250608001529392505050565b634e487b7160e01b600052603260045260246000fd5b634e487b7160e01b600052604160045260246000fd5b6001600160a01b038116811461129957600080fd5b5056fea164736f6c6343000807000a",
  "devdoc": {
    "kind": "dev",
    "methods": {},
    "version": 1
  },
  "userdoc": {
    "kind": "user",
    "methods": {},
    "version": 1
  },
  "storageLayout": {
    "storage": [
      {
        "astId": 598,
        "contract": "contracts/dependencies/LiquidityRouter.sol:LiquidityRouter",
        "label": "_initialized",
        "offset": 0,
        "slot": "0",
        "type": "t_bool"
      },
      {
        "astId": 601,
        "contract": "contracts/dependencies/LiquidityRouter.sol:LiquidityRouter",
        "label": "_initializing",
        "offset": 1,
        "slot": "0",
        "type": "t_bool"
      },
      {
        "astId": 5614,
        "contract": "contracts/dependencies/LiquidityRouter.sol:LiquidityRouter",
        "label": "uniswapV2Router",
        "offset": 2,
        "slot": "0",
        "type": "t_contract(IJoeRouter02)6494"
      },
      {
        "astId": 5616,
        "contract": "contracts/dependencies/LiquidityRouter.sol:LiquidityRouter",
        "label": "routerAddress",
        "offset": 0,
        "slot": "1",
        "type": "t_address"
      },
      {
        "astId": 5618,
        "contract": "contracts/dependencies/LiquidityRouter.sol:LiquidityRouter",
        "label": "uniswapV2Pair",
        "offset": 0,
        "slot": "2",
        "type": "t_address"
      },
      {
        "astId": 5620,
        "contract": "contracts/dependencies/LiquidityRouter.sol:LiquidityRouter",
        "label": "admin0xB",
        "offset": 0,
        "slot": "3",
        "type": "t_address"
      },
      {
        "astId": 5622,
        "contract": "contracts/dependencies/LiquidityRouter.sol:LiquidityRouter",
        "label": "token",
        "offset": 0,
        "slot": "4",
        "type": "t_address"
      }
    ],
    "types": {
      "t_address": {
        "encoding": "inplace",
        "label": "address",
        "numberOfBytes": "20"
      },
      "t_bool": {
        "encoding": "inplace",
        "label": "bool",
        "numberOfBytes": "1"
      },
      "t_contract(IJoeRouter02)6494": {
        "encoding": "inplace",
        "label": "contract IJoeRouter02",
        "numberOfBytes": "20"
      }
    }
  }
}