{
  "address": "0xF3ED5682FacEaa2610aEa7cEAEe2826251B5C322",
  "abi": [
    {
      "anonymous": false,
      "inputs": [
        {
          "indexed": false,
          "internalType": "address",
          "name": "tokenIn",
          "type": "address"
        },
        {
          "indexed": false,
          "internalType": "uint256",
          "name": "amountIn",
          "type": "uint256"
        },
        {
          "indexed": false,
          "internalType": "address",
          "name": "tokenOut",
          "type": "address"
        },
        {
          "indexed": false,
          "internalType": "uint256",
          "name": "amountOut",
          "type": "uint256"
        }
      ],
      "name": "Swapped",
      "type": "event"
    },
    {
      "inputs": [],
      "name": "admin0xB",
      "outputs": [
        {
          "internalType": "address",
          "name": "",
          "type": "address"
        }
      ],
      "stateMutability": "view",
      "type": "function"
    },
    {
      "inputs": [
        {
          "internalType": "bool",
          "name": "is0xBOut",
          "type": "bool"
        },
        {
          "internalType": "address",
          "name": "targetToken",
          "type": "address"
        },
        {
          "internalType": "uint256",
          "name": "outputAmount",
          "type": "uint256"
        }
      ],
      "name": "getInputAmount",
      "outputs": [
        {
          "internalType": "uint256[]",
          "name": "",
          "type": "uint256[]"
        }
      ],
      "stateMutability": "view",
      "type": "function"
    },
    {
      "inputs": [
        {
          "internalType": "bool",
          "name": "is0xBOut",
          "type": "bool"
        },
        {
          "internalType": "address",
          "name": "targetToken",
          "type": "address"
        },
        {
          "internalType": "uint256",
          "name": "inputAmount",
          "type": "uint256"
        }
      ],
      "name": "getOutputAmount",
      "outputs": [
        {
          "internalType": "uint256[]",
          "name": "",
          "type": "uint256[]"
        }
      ],
      "stateMutability": "view",
      "type": "function"
    },
    {
      "inputs": [
        {
          "internalType": "address",
          "name": "_router",
          "type": "address"
        }
      ],
      "name": "initialize",
      "outputs": [],
      "stateMutability": "nonpayable",
      "type": "function"
    },
    {
      "inputs": [],
      "name": "routerAddress",
      "outputs": [
        {
          "internalType": "address",
          "name": "",
          "type": "address"
        }
      ],
      "stateMutability": "view",
      "type": "function"
    },
    {
      "inputs": [
        {
          "internalType": "address",
          "name": "_token",
          "type": "address"
        }
      ],
      "name": "setToken",
      "outputs": [],
      "stateMutability": "nonpayable",
      "type": "function"
    },
    {
      "inputs": [
        {
          "internalType": "address",
          "name": "receiver",
          "type": "address"
        },
        {
          "internalType": "address",
          "name": "outTokenAddr",
          "type": "address"
        },
        {
          "internalType": "uint256",
          "name": "amountOut",
          "type": "uint256"
        },
        {
          "internalType": "uint256",
          "name": "amountInMax",
          "type": "uint256"
        },
        {
          "internalType": "uint256",
          "name": "deadline",
          "type": "uint256"
        }
      ],
      "name": "swap0xBForExactToken",
      "outputs": [],
      "stateMutability": "nonpayable",
      "type": "function"
    },
    {
      "inputs": [
        {
          "internalType": "address",
          "name": "receiver",
          "type": "address"
        },
        {
          "internalType": "address",
          "name": "outTokenAddr",
          "type": "address"
        },
        {
          "internalType": "uint256",
          "name": "amountIn",
          "type": "uint256"
        },
        {
          "internalType": "uint256",
          "name": "amountOutMin",
          "type": "uint256"
        },
        {
          "internalType": "uint256",
          "name": "deadline",
          "type": "uint256"
        }
      ],
      "name": "swapExact0xBForToken",
      "outputs": [],
      "stateMutability": "nonpayable",
      "type": "function"
    },
    {
      "inputs": [
        {
          "internalType": "address",
          "name": "receiver",
          "type": "address"
        },
        {
          "internalType": "address",
          "name": "inTokenAddr",
          "type": "address"
        },
        {
          "internalType": "uint256",
          "name": "amountIn",
          "type": "uint256"
        },
        {
          "internalType": "uint256",
          "name": "amountOutMin",
          "type": "uint256"
        },
        {
          "internalType": "uint256",
          "name": "deadline",
          "type": "uint256"
        }
      ],
      "name": "swapExactTokenFor0xB",
      "outputs": [],
      "stateMutability": "nonpayable",
      "type": "function"
    },
    {
      "inputs": [],
      "name": "token",
      "outputs": [
        {
          "internalType": "address",
          "name": "",
          "type": "address"
        }
      ],
      "stateMutability": "view",
      "type": "function"
    },
    {
      "inputs": [],
      "name": "uniswapV2Pair",
      "outputs": [
        {
          "internalType": "address",
          "name": "",
          "type": "address"
        }
      ],
      "stateMutability": "view",
      "type": "function"
    },
    {
      "inputs": [
        {
          "internalType": "address",
          "name": "_newAddr",
          "type": "address"
        }
      ],
      "name": "updateUniswapV2Router",
      "outputs": [],
      "stateMutability": "nonpayable",
      "type": "function"
    }
  ],
  "transactionHash": "0x32a581e8ce4a8bb3dbc0d6fae6ac3fa9db1b52f68ca23623cd92bcbd47aeec17",
  "args": [],
  "numDeployments": 8,
  "solcInputHash": "0c591da1b8214b58749d06d6f15daeca",
  "bytecode": "0x608060405234801561001057600080fd5b50611757806100206000396000f3fe608060405234801561001057600080fd5b50600436106100b45760003560e01c806380be66cf1161007157806380be66cf1461014a57806388e5249f1461015d578063bd74767814610170578063c4d66de814610190578063f5c13653146101a3578063fc0c546a146101b657600080fd5b80630584aecf146100b9578063144fa6d7146100e95780633268cc56146100fe57806349bd5a5e1461011157806365b8dbc0146101245780636e54a8a014610137575b600080fd5b6003546100cc906001600160a01b031681565b6040516001600160a01b0390911681526020015b60405180910390f35b6100fc6100f73660046113e5565b6101c9565b005b6001546100cc906001600160a01b031681565b6002546100cc906001600160a01b031681565b6100fc6101323660046113e5565b610729565b6100fc61014536600461141f565b610856565b6100fc61015836600461141f565b610a77565b6100fc61016b36600461141f565b610c7a565b61018361017e366004611552565b610da9565b6040516100e0919061160a565b6100fc61019e3660046113e5565b610e4d565b6101836101b1366004611552565b610f95565b6004546100cc906001600160a01b031681565b6004546001600160a01b03163314806101ec57506003546001600160a01b031633145b6102115760405162461bcd60e51b81526004016102089061164e565b60405180910390fd5b6001600160a01b03811661025e5760405162461bcd60e51b81526020600482015260146024820152732722abafaa27a5a2a71d103d32b9379030b2323960611b6044820152606401610208565b600480546001600160a01b0319166001600160a01b03838116919091178255600080546040805163c45a015560e01b815290519294620100009092049093169263c45a01559281830192602092829003018186803b1580156102bf57600080fd5b505afa1580156102d3573d6000803e3d6000fd5b505050506040513d601f19601f820116820180604052508101906102f79190611402565b60048054600054604080516339d94ae160e11b815290516001600160a01b039586169563c9c6539695948116946201000090940416926373b295c292808201926020929091829003018186803b15801561035057600080fd5b505afa158015610364573d6000803e3d6000fd5b505050506040513d601f19601f820116820180604052508101906103889190611402565b6040518363ffffffff1660e01b81526004016103a59291906115f0565b602060405180830381600087803b1580156103bf57600080fd5b505af19250505080156103ef575060408051601f3d908101601f191682019092526103ec91810190611402565b60015b61057e57600060029054906101000a90046001600160a01b03166001600160a01b031663c45a01556040518163ffffffff1660e01b815260040160206040518083038186803b15801561044157600080fd5b505afa158015610455573d6000803e3d6000fd5b505050506040513d601f19601f820116820180604052508101906104799190611402565b60048054600054604080516339d94ae160e11b815290516001600160a01b039586169563e6a4390595948116946201000090940416926373b295c292808201926020929091829003018186803b1580156104d257600080fd5b505afa1580156104e6573d6000803e3d6000fd5b505050506040513d601f19601f8201168201806040525081019061050a9190611402565b6040518363ffffffff1660e01b81526004016105279291906115f0565b60206040518083038186803b15801561053f57600080fd5b505afa158015610553573d6000803e3d6000fd5b505050506040513d601f19601f820116820180604052508101906105779190611402565b9050610706565b50600060029054906101000a90046001600160a01b03166001600160a01b031663c45a01556040518163ffffffff1660e01b815260040160206040518083038186803b1580156105cd57600080fd5b505afa1580156105e1573d6000803e3d6000fd5b505050506040513d601f19601f820116820180604052508101906106059190611402565b60048054600054604080516339d94ae160e11b815290516001600160a01b039586169563e6a4390595948116946201000090940416926373b295c292808201926020929091829003018186803b15801561065e57600080fd5b505afa158015610672573d6000803e3d6000fd5b505050506040513d601f19601f820116820180604052508101906106969190611402565b6040518363ffffffff1660e01b81526004016106b39291906115f0565b60206040518083038186803b1580156106cb57600080fd5b505afa1580156106df573d6000803e3d6000fd5b505050506040513d601f19601f820116820180604052508101906107039190611402565b90505b600280546001600160a01b0319166001600160a01b039290921691909117905550565b6004546001600160a01b031633148061074c57506003546001600160a01b031633145b6107685760405162461bcd60e51b81526004016102089061164e565b6000546001600160a01b03828116620100009092041614156107dd5760405162461bcd60e51b815260206004820152602860248201527f544b4e3a2054686520726f7574657220616c7265616479206861732074686174604482015267206164647265737360c01b6064820152608401610208565b600180546001600160a01b0319166001600160a01b038381169182179092556000805462010000600160b01b03191662010000928302178082556040805163c45a015560e01b815290519294939091049092169163c45a0155916004808301926020929190829003018186803b1580156102bf57600080fd5b6004546001600160a01b031633148061087957506003546001600160a01b031633145b6108955760405162461bcd60e51b81526004016102089061164e565b600154604051636eb1769f60e11b815284916001600160a01b038088169263dd62ed3e926108ca9230929116906004016115f0565b60206040518083038186803b1580156108e257600080fd5b505afa1580156108f6573d6000803e3d6000fd5b505050506040513d601f19601f8201168201806040525081019061091a9190611593565b10156109295761092984610fdc565b6000610936856001611069565b600080546040516338ed173960e01b81529293509091620100009091046001600160a01b0316906338ed173990610979908890889087908d908a90600401611697565b600060405180830381600087803b15801561099357600080fd5b505af11580156109a7573d6000803e3d6000fd5b505050506040513d6000823e601f3d908101601f191682016040526109cf9190810190611470565b90507fdb587d878116df0bdd4fe154699aa2c5f439da001cc811dfd05d9f589fc5a8ee8686600460009054906101000a90046001600160a01b03168460018651610a1991906116d3565b81518110610a2957610a296116f8565b6020026020010151604051610a6694939291906001600160a01b039485168152602081019390935292166040820152606081019190915260800190565b60405180910390a150505050505050565b6004546001600160a01b0316331480610a9a57506003546001600160a01b031633145b610ab65760405162461bcd60e51b81526004016102089061164e565b6000610ac3856000611069565b60008054604051634401edf760e11b81529293509091620100009091046001600160a01b031690638803dbee90610b06908890889087908d908a90600401611697565b600060405180830381600087803b158015610b2057600080fd5b505af1158015610b34573d6000803e3d6000fd5b505050506040513d6000823e601f3d908101601f19168201604052610b5c9190810190611470565b9050600081600081518110610b7357610b736116f8565b60209081029190910101516004549091506001600160a01b031663a9059cbb89610b9d84896116d3565b6040516001600160e01b031960e085901b1681526001600160a01b0390921660048301526024820152604401602060405180830381600087803b158015610be357600080fd5b505af1158015610bf7573d6000803e3d6000fd5b505050506040513d601f19601f82011682018060405250810190610c1b9190611535565b50600454604080516001600160a01b039283168152602081018490529189168282015260608201889052517fdb587d878116df0bdd4fe154699aa2c5f439da001cc811dfd05d9f589fc5a8ee9181900360800190a15050505050505050565b6004546001600160a01b0316331480610c9d57506003546001600160a01b031633145b610cb95760405162461bcd60e51b81526004016102089061164e565b6000610cc6856000611069565b600080546040516338ed173960e01b81529293509091620100009091046001600160a01b0316906338ed173990610d09908890889087908d908a90600401611697565b600060405180830381600087803b158015610d2357600080fd5b505af1158015610d37573d6000803e3d6000fd5b505050506040513d6000823e601f3d908101601f19168201604052610d5f9190810190611470565b90507fdb587d878116df0bdd4fe154699aa2c5f439da001cc811dfd05d9f589fc5a8ee600460009054906101000a90046001600160a01b031686888460018651610a1991906116d3565b60606000610db78486611069565b6000546040516307c0329d60e21b81529192506201000090046001600160a01b031690631f00ca7490610df09086908590600401611676565b60006040518083038186803b158015610e0857600080fd5b505afa158015610e1c573d6000803e3d6000fd5b505050506040513d6000823e601f3d908101601f19168201604052610e449190810190611470565b95945050505050565b600054610100900460ff16610e685760005460ff1615610e6c565b303b155b610ecf5760405162461bcd60e51b815260206004820152602e60248201527f496e697469616c697a61626c653a20636f6e747261637420697320616c72656160448201526d191e481a5b9a5d1a585b1a5e995960921b6064820152608401610208565b600054610100900460ff16158015610ef1576000805461ffff19166101011790555b6001600160a01b038216610f355760405162461bcd60e51b815260206004820152600b60248201526a524f55544552205a45524f60a81b6044820152606401610208565b600180546001600160a01b0384166001600160a01b03199182168117909255600080546201000090930262010000600160b01b03199093169290921790915560038054909116331790558015610f91576000805461ff00191690555b5050565b60606000610fa38486611069565b60005460405163d06ca61f60e01b81529192506201000090046001600160a01b03169063d06ca61f90610df09086908590600401611676565b60015460405163095ea7b360e01b81526001600160a01b0391821660048201526000196024820152829182169063095ea7b390604401602060405180830381600087803b15801561102c57600080fd5b505af1158015611040573d6000803e3d6000fd5b505050506040513d601f19601f820116820180604052508101906110649190611535565b505050565b6060600060029054906101000a90046001600160a01b03166001600160a01b03166373b295c26040518163ffffffff1660e01b815260040160206040518083038186803b1580156110b957600080fd5b505afa1580156110cd573d6000803e3d6000fd5b505050506040513d601f19601f820116820180604052508101906110f19190611402565b6001600160a01b0316836001600160a01b0316141561121957604080516002808252606082018352600092602083019080368337019050509050821561119b578381600081518110611145576111456116f8565b6001600160a01b039283166020918202929092010152600454825191169082906001908110611176576111766116f8565b60200260200101906001600160a01b031690816001600160a01b031681525050611212565b60045481516001600160a01b039091169082906000906111bd576111bd6116f8565b60200260200101906001600160a01b031690816001600160a01b03168152505083816001815181106111f1576111f16116f8565b60200260200101906001600160a01b031690816001600160a01b0316815250505b90506113df565b6040805160038082526080820190925260009160208201606080368337019050509050600060029054906101000a90046001600160a01b03166001600160a01b03166373b295c26040518163ffffffff1660e01b815260040160206040518083038186803b15801561128a57600080fd5b505afa15801561129e573d6000803e3d6000fd5b505050506040513d601f19601f820116820180604052508101906112c29190611402565b816001815181106112d5576112d56116f8565b60200260200101906001600160a01b031690816001600160a01b031681525050821561136557838160008151811061130f5761130f6116f8565b6001600160a01b039283166020918202929092010152600454825191169082906002908110611340576113406116f8565b60200260200101906001600160a01b031690816001600160a01b0316815250506113dc565b60045481516001600160a01b03909116908290600090611387576113876116f8565b60200260200101906001600160a01b031690816001600160a01b03168152505083816002815181106113bb576113bb6116f8565b60200260200101906001600160a01b031690816001600160a01b0316815250505b90505b92915050565b6000602082840312156113f757600080fd5b81356113dc81611724565b60006020828403121561141457600080fd5b81516113dc81611724565b600080600080600060a0868803121561143757600080fd5b853561144281611724565b9450602086013561145281611724565b94979496505050506040830135926060810135926080909101359150565b6000602080838503121561148357600080fd5b825167ffffffffffffffff8082111561149b57600080fd5b818501915085601f8301126114af57600080fd5b8151818111156114c1576114c161170e565b8060051b604051601f19603f830116810181811085821117156114e6576114e661170e565b604052828152858101935084860182860187018a101561150557600080fd5b600095505b8386101561152857805185526001959095019493860193860161150a565b5098975050505050505050565b60006020828403121561154757600080fd5b81516113dc8161173c565b60008060006060848603121561156757600080fd5b83356115728161173c565b9250602084013561158281611724565b929592945050506040919091013590565b6000602082840312156115a557600080fd5b5051919050565b600081518084526020808501945080840160005b838110156115e55781516001600160a01b0316875295820195908201906001016115c0565b509495945050505050565b6001600160a01b0392831681529116602082015260400190565b6020808252825182820181905260009190848201906040850190845b8181101561164257835183529284019291840191600101611626565b50909695505050505050565b6020808252600e908201526d4163636573732044656e6965642160901b604082015260600190565b82815260406020820152600061168f60408301846115ac565b949350505050565b85815284602082015260a0604082015260006116b660a08301866115ac565b6001600160a01b0394909416606083015250608001529392505050565b6000828210156116f357634e487b7160e01b600052601160045260246000fd5b500390565b634e487b7160e01b600052603260045260246000fd5b634e487b7160e01b600052604160045260246000fd5b6001600160a01b038116811461173957600080fd5b50565b801515811461173957600080fdfea164736f6c6343000807000a",
  "devdoc": {
    "kind": "dev",
    "methods": {},
    "version": 1
  },
  "userdoc": {
    "kind": "user",
    "methods": {},
    "version": 1
  },
  "storageLayout": {
    "storage": [
      {
        "astId": 598,
        "contract": "contracts/dependencies/LiquidityRouter.sol:LiquidityRouter",
        "label": "_initialized",
        "offset": 0,
        "slot": "0",
        "type": "t_bool"
      },
      {
        "astId": 601,
        "contract": "contracts/dependencies/LiquidityRouter.sol:LiquidityRouter",
        "label": "_initializing",
        "offset": 1,
        "slot": "0",
        "type": "t_bool"
      },
      {
        "astId": 6660,
        "contract": "contracts/dependencies/LiquidityRouter.sol:LiquidityRouter",
        "label": "uniswapV2Router",
        "offset": 2,
        "slot": "0",
        "type": "t_contract(IJoeRouter02)7728"
      },
      {
        "astId": 6662,
        "contract": "contracts/dependencies/LiquidityRouter.sol:LiquidityRouter",
        "label": "routerAddress",
        "offset": 0,
        "slot": "1",
        "type": "t_address"
      },
      {
        "astId": 6664,
        "contract": "contracts/dependencies/LiquidityRouter.sol:LiquidityRouter",
        "label": "uniswapV2Pair",
        "offset": 0,
        "slot": "2",
        "type": "t_address"
      },
      {
        "astId": 6666,
        "contract": "contracts/dependencies/LiquidityRouter.sol:LiquidityRouter",
        "label": "admin0xB",
        "offset": 0,
        "slot": "3",
        "type": "t_address"
      },
      {
        "astId": 6668,
        "contract": "contracts/dependencies/LiquidityRouter.sol:LiquidityRouter",
        "label": "token",
        "offset": 0,
        "slot": "4",
        "type": "t_address"
      }
    ],
    "types": {
      "t_address": {
        "encoding": "inplace",
        "label": "address",
        "numberOfBytes": "20"
      },
      "t_bool": {
        "encoding": "inplace",
        "label": "bool",
        "numberOfBytes": "1"
      },
      "t_contract(IJoeRouter02)7728": {
        "encoding": "inplace",
        "label": "contract IJoeRouter02",
        "numberOfBytes": "20"
      }
    }
  }
}