{
  "address": "0xf752a6635770f40347461145D74ea6C150138094",
  "abi": [
    {
      "anonymous": false,
      "inputs": [
        {
          "indexed": true,
          "internalType": "contract IERC20Upgradeable",
          "name": "token",
          "type": "address"
        },
        {
          "indexed": false,
          "internalType": "address",
          "name": "to",
          "type": "address"
        },
        {
          "indexed": false,
          "internalType": "uint256",
          "name": "amount",
          "type": "uint256"
        }
      ],
      "name": "ERC20PaymentReleased",
      "type": "event"
    },
    {
      "anonymous": false,
      "inputs": [
        {
          "indexed": false,
          "internalType": "address",
          "name": "account",
          "type": "address"
        },
        {
          "indexed": false,
          "internalType": "uint256",
          "name": "shares",
          "type": "uint256"
        }
      ],
      "name": "PayeeAdded",
      "type": "event"
    },
    {
      "anonymous": false,
      "inputs": [
        {
          "indexed": false,
          "internalType": "address",
          "name": "from",
          "type": "address"
        },
        {
          "indexed": false,
          "internalType": "uint256",
          "name": "amount",
          "type": "uint256"
        }
      ],
      "name": "PaymentReceived",
      "type": "event"
    },
    {
      "anonymous": false,
      "inputs": [
        {
          "indexed": false,
          "internalType": "address",
          "name": "to",
          "type": "address"
        },
        {
          "indexed": false,
          "internalType": "uint256",
          "name": "amount",
          "type": "uint256"
        }
      ],
      "name": "PaymentReleased",
      "type": "event"
    },
    {
      "anonymous": false,
      "inputs": [
        {
          "indexed": false,
          "internalType": "address",
          "name": "tokenIn",
          "type": "address"
        },
        {
          "indexed": false,
          "internalType": "uint256",
          "name": "amountIn",
          "type": "uint256"
        },
        {
          "indexed": false,
          "internalType": "address",
          "name": "tokenOut",
          "type": "address"
        },
        {
          "indexed": false,
          "internalType": "uint256",
          "name": "amountOut",
          "type": "uint256"
        }
      ],
      "name": "Swapped",
      "type": "event"
    },
    {
      "anonymous": false,
      "inputs": [
        {
          "indexed": false,
          "internalType": "uint256",
          "name": "amountIn",
          "type": "uint256"
        },
        {
          "indexed": false,
          "internalType": "address",
          "name": "tokenOut",
          "type": "address"
        },
        {
          "indexed": false,
          "internalType": "uint256",
          "name": "amountOut",
          "type": "uint256"
        }
      ],
      "name": "SwappedNative",
      "type": "event"
    },
    {
      "inputs": [],
      "name": "admin0xB",
      "outputs": [
        {
          "internalType": "address payable",
          "name": "",
          "type": "address"
        }
      ],
      "stateMutability": "view",
      "type": "function"
    },
    {
      "inputs": [
        {
          "internalType": "bool",
          "name": "is0xBOut",
          "type": "bool"
        },
        {
          "internalType": "address",
          "name": "targetToken",
          "type": "address"
        },
        {
          "internalType": "uint256",
          "name": "outputAmount",
          "type": "uint256"
        }
      ],
      "name": "getInputAmount",
      "outputs": [
        {
          "internalType": "uint256",
          "name": "",
          "type": "uint256"
        }
      ],
      "stateMutability": "view",
      "type": "function"
    },
    {
      "inputs": [
        {
          "internalType": "bool",
          "name": "is0xBOut",
          "type": "bool"
        },
        {
          "internalType": "address",
          "name": "targetToken",
          "type": "address"
        },
        {
          "internalType": "uint256",
          "name": "inputAmount",
          "type": "uint256"
        }
      ],
      "name": "getOutputAmount",
      "outputs": [
        {
          "internalType": "uint256",
          "name": "",
          "type": "uint256"
        }
      ],
      "stateMutability": "view",
      "type": "function"
    },
    {
      "inputs": [
        {
          "internalType": "address",
          "name": "_router",
          "type": "address"
        },
        {
          "internalType": "uint256",
          "name": "_fee",
          "type": "uint256"
        },
        {
          "internalType": "address",
          "name": "_pool",
          "type": "address"
        }
      ],
      "name": "initialize",
      "outputs": [],
      "stateMutability": "nonpayable",
      "type": "function"
    },
    {
      "inputs": [
        {
          "internalType": "uint256",
          "name": "index",
          "type": "uint256"
        }
      ],
      "name": "payee",
      "outputs": [
        {
          "internalType": "address",
          "name": "",
          "type": "address"
        }
      ],
      "stateMutability": "view",
      "type": "function"
    },
    {
      "inputs": [
        {
          "internalType": "address payable",
          "name": "account",
          "type": "address"
        }
      ],
      "name": "release",
      "outputs": [],
      "stateMutability": "nonpayable",
      "type": "function"
    },
    {
      "inputs": [
        {
          "internalType": "contract IERC20Upgradeable",
          "name": "token",
          "type": "address"
        },
        {
          "internalType": "address",
          "name": "account",
          "type": "address"
        }
      ],
      "name": "release",
      "outputs": [],
      "stateMutability": "nonpayable",
      "type": "function"
    },
    {
      "inputs": [
        {
          "internalType": "contract IERC20Upgradeable",
          "name": "token",
          "type": "address"
        },
        {
          "internalType": "address",
          "name": "account",
          "type": "address"
        }
      ],
      "name": "released",
      "outputs": [
        {
          "internalType": "uint256",
          "name": "",
          "type": "uint256"
        }
      ],
      "stateMutability": "view",
      "type": "function"
    },
    {
      "inputs": [
        {
          "internalType": "address",
          "name": "account",
          "type": "address"
        }
      ],
      "name": "released",
      "outputs": [
        {
          "internalType": "uint256",
          "name": "",
          "type": "uint256"
        }
      ],
      "stateMutability": "view",
      "type": "function"
    },
    {
      "inputs": [],
      "name": "routerAddress",
      "outputs": [
        {
          "internalType": "address",
          "name": "",
          "type": "address"
        }
      ],
      "stateMutability": "view",
      "type": "function"
    },
    {
      "inputs": [
        {
          "internalType": "address",
          "name": "_token",
          "type": "address"
        }
      ],
      "name": "setToken",
      "outputs": [],
      "stateMutability": "nonpayable",
      "type": "function"
    },
    {
      "inputs": [
        {
          "internalType": "address",
          "name": "account",
          "type": "address"
        }
      ],
      "name": "shares",
      "outputs": [
        {
          "internalType": "uint256",
          "name": "",
          "type": "uint256"
        }
      ],
      "stateMutability": "view",
      "type": "function"
    },
    {
      "inputs": [
        {
          "internalType": "address",
          "name": "receiver",
          "type": "address"
        },
        {
          "internalType": "address",
          "name": "outTokenAddr",
          "type": "address"
        },
        {
          "internalType": "uint256",
          "name": "amountOut",
          "type": "uint256"
        },
        {
          "internalType": "uint256",
          "name": "amountInMax",
          "type": "uint256"
        },
        {
          "internalType": "uint256",
          "name": "deadline",
          "type": "uint256"
        }
      ],
      "name": "swap0xBForExactToken",
      "outputs": [],
      "stateMutability": "nonpayable",
      "type": "function"
    },
    {
      "inputs": [
        {
          "internalType": "address",
          "name": "receiver",
          "type": "address"
        },
        {
          "internalType": "uint256",
          "name": "amountOut",
          "type": "uint256"
        },
        {
          "internalType": "uint256",
          "name": "deadline",
          "type": "uint256"
        }
      ],
      "name": "swapAVAXForExact0xB",
      "outputs": [],
      "stateMutability": "payable",
      "type": "function"
    },
    {
      "inputs": [
        {
          "internalType": "address",
          "name": "receiver",
          "type": "address"
        },
        {
          "internalType": "address",
          "name": "outTokenAddr",
          "type": "address"
        },
        {
          "internalType": "uint256",
          "name": "amountIn",
          "type": "uint256"
        },
        {
          "internalType": "uint256",
          "name": "amountOutMin",
          "type": "uint256"
        },
        {
          "internalType": "uint256",
          "name": "deadline",
          "type": "uint256"
        }
      ],
      "name": "swapExact0xBForToken",
      "outputs": [],
      "stateMutability": "nonpayable",
      "type": "function"
    },
    {
      "inputs": [
        {
          "internalType": "address",
          "name": "receiver",
          "type": "address"
        },
        {
          "internalType": "uint256",
          "name": "amountOutMin",
          "type": "uint256"
        },
        {
          "internalType": "uint256",
          "name": "deadline",
          "type": "uint256"
        }
      ],
      "name": "swapExactAVAXFor0xB",
      "outputs": [],
      "stateMutability": "payable",
      "type": "function"
    },
    {
      "inputs": [
        {
          "internalType": "address",
          "name": "receiver",
          "type": "address"
        },
        {
          "internalType": "address",
          "name": "inTokenAddr",
          "type": "address"
        },
        {
          "internalType": "uint256",
          "name": "amountIn",
          "type": "uint256"
        },
        {
          "internalType": "uint256",
          "name": "amountOutMin",
          "type": "uint256"
        },
        {
          "internalType": "uint256",
          "name": "deadline",
          "type": "uint256"
        }
      ],
      "name": "swapExactTokenFor0xB",
      "outputs": [],
      "stateMutability": "nonpayable",
      "type": "function"
    },
    {
      "inputs": [],
      "name": "swapTaxFee",
      "outputs": [
        {
          "internalType": "uint256",
          "name": "",
          "type": "uint256"
        }
      ],
      "stateMutability": "view",
      "type": "function"
    },
    {
      "inputs": [],
      "name": "swapTaxPool",
      "outputs": [
        {
          "internalType": "address",
          "name": "",
          "type": "address"
        }
      ],
      "stateMutability": "view",
      "type": "function"
    },
    {
      "inputs": [
        {
          "internalType": "address",
          "name": "receiver",
          "type": "address"
        },
        {
          "internalType": "address",
          "name": "inTokenAddr",
          "type": "address"
        },
        {
          "internalType": "uint256",
          "name": "amountOut",
          "type": "uint256"
        },
        {
          "internalType": "uint256",
          "name": "amountInMax",
          "type": "uint256"
        },
        {
          "internalType": "uint256",
          "name": "deadline",
          "type": "uint256"
        }
      ],
      "name": "swapTokenForExact0xB",
      "outputs": [],
      "stateMutability": "nonpayable",
      "type": "function"
    },
    {
      "inputs": [],
      "name": "tokenAddress",
      "outputs": [
        {
          "internalType": "address",
          "name": "",
          "type": "address"
        }
      ],
      "stateMutability": "view",
      "type": "function"
    },
    {
      "inputs": [
        {
          "internalType": "contract IERC20Upgradeable",
          "name": "token",
          "type": "address"
        }
      ],
      "name": "totalReleased",
      "outputs": [
        {
          "internalType": "uint256",
          "name": "",
          "type": "uint256"
        }
      ],
      "stateMutability": "view",
      "type": "function"
    },
    {
      "inputs": [],
      "name": "totalReleased",
      "outputs": [
        {
          "internalType": "uint256",
          "name": "",
          "type": "uint256"
        }
      ],
      "stateMutability": "view",
      "type": "function"
    },
    {
      "inputs": [],
      "name": "totalShares",
      "outputs": [
        {
          "internalType": "uint256",
          "name": "",
          "type": "uint256"
        }
      ],
      "stateMutability": "view",
      "type": "function"
    },
    {
      "inputs": [],
      "name": "uniswapV2Pair",
      "outputs": [
        {
          "internalType": "address",
          "name": "",
          "type": "address"
        }
      ],
      "stateMutability": "view",
      "type": "function"
    },
    {
      "inputs": [
        {
          "internalType": "uint256",
          "name": "value",
          "type": "uint256"
        }
      ],
      "name": "updateSwapFee",
      "outputs": [],
      "stateMutability": "nonpayable",
      "type": "function"
    },
    {
      "inputs": [
        {
          "internalType": "address payable",
          "name": "newPool",
          "type": "address"
        }
      ],
      "name": "updateSwapTaxPool",
      "outputs": [],
      "stateMutability": "nonpayable",
      "type": "function"
    },
    {
      "inputs": [
        {
          "internalType": "address",
          "name": "_newAddr",
          "type": "address"
        }
      ],
      "name": "updateUniswapV2Router",
      "outputs": [],
      "stateMutability": "nonpayable",
      "type": "function"
    },
    {
      "inputs": [],
      "name": "wrappedNative",
      "outputs": [
        {
          "internalType": "address",
          "name": "",
          "type": "address"
        }
      ],
      "stateMutability": "view",
      "type": "function"
    },
    {
      "stateMutability": "payable",
      "type": "receive"
    }
  ],
  "transactionHash": "0x7106825b35159356582be51171261cd402cbaf51640125289a8eae1cf273c013",
  "args": [],
  "numDeployments": 1,
  "solcInputHash": "0e025420e227cf0105d74c54523cbab8",
  "bytecode": "0x608060405234801561001057600080fd5b50613a22806100206000396000f3fe6080604052600436106101965760003560e01c806388e5249f116100e7578063c350a1b511610095578063eb6d3a1111610064578063eb6d3a1114610543578063ed9705da14610558578063f5c136531461056b578063fd53fce01461058b57600080fd5b8063c350a1b5146104a2578063ce7c2ac2146104c2578063d79779b2146104f8578063e33b7de31461052e57600080fd5b806388e5249f146103b95780638b83209b146103d95780638f6e53b7146103f95780639852595c1461040c5780639d76ea5814610442578063bd74767814610462578063bf16f65a1461048257600080fd5b806348b750441161014457806348b75044146102d957806349bd5a5e146102f957806365b8dbc0146103195780636a63f5ee146103395780636e54a8a01461035957806374cefd8a1461037957806380be66cf1461039957600080fd5b80630584aecf146101db57806311eb47dc14610218578063144fa6d714610238578063191655871461025a5780633268cc561461027a5780633a98ef391461029a578063406072a9146102b957600080fd5b366101d6577f6ef95f06320e7a25a04a175ca677b7052bdd97131872c2192525a629f51be77033346040516101cc929190613681565b60405180910390a1005b600080fd5b3480156101e757600080fd5b506068546101fb906001600160a01b031681565b6040516001600160a01b0390911681526020015b60405180910390f35b34801561022457600080fd5b50606c546101fb906001600160a01b031681565b34801561024457600080fd5b50610258610253366004613391565b6105a1565b005b34801561026657600080fd5b50610258610275366004613391565b610af7565b34801561028657600080fd5b506066546101fb906001600160a01b031681565b3480156102a657600080fd5b506033545b60405190815260200161020f565b3480156102c557600080fd5b506102ab6102d43660046135b6565b610c1c565b3480156102e557600080fd5b506102586102f43660046135b6565b610c49565b34801561030557600080fd5b506067546101fb906001600160a01b031681565b34801561032557600080fd5b50610258610334366004613391565b610e08565b34801561034557600080fd5b50610258610354366004613391565b610f19565b34801561036557600080fd5b506102586103743660046133cb565b610fc6565b34801561038557600080fd5b506102586103943660046133cb565b611285565b3480156103a557600080fd5b506102586103b43660046133cb565b6115f1565b3480156103c557600080fd5b506102586103d43660046133cb565b611b07565b3480156103e557600080fd5b506101fb6103f43660046135ef565b611f49565b61025861040736600461345e565b611f79565b34801561041857600080fd5b506102ab610427366004613391565b6001600160a01b031660009081526036602052604090205490565b34801561044e57600080fd5b50606a546101fb906001600160a01b031681565b34801561046e57600080fd5b506102ab61047d366004613575565b61218a565b34801561048e57600080fd5b5061025861049d3660046135ef565b61227c565b3480156104ae57600080fd5b506102586104bd36600461341c565b612314565b3480156104ce57600080fd5b506102ab6104dd366004613391565b6001600160a01b031660009081526035602052604090205490565b34801561050457600080fd5b506102ab610513366004613391565b6001600160a01b031660009081526038602052604090205490565b34801561053a57600080fd5b506034546102ab565b34801561054f57600080fd5b506101fb612500565b61025861056636600461345e565b612582565b34801561057757600080fd5b506102ab610586366004613575565b612772565b34801561059757600080fd5b506102ab606b5481565b606a546001600160a01b03163314806105c457506068546001600160a01b031633145b6105e95760405162461bcd60e51b81526004016105e090613711565b60405180910390fd5b6001600160a01b0381166106365760405162461bcd60e51b81526020600482015260146024820152732722abafaa27a5a2a71d103d32b9379030b2323960611b60448201526064016105e0565b606a80546001600160a01b03199081166001600160a01b03848116918217909355606980549092161790556065546040805163c45a015560e01b81529051600093929092169163c45a015591600480820192602092909190829003018186803b1580156106a257600080fd5b505afa1580156106b6573d6000803e3d6000fd5b505050506040513d601f19601f820116820180604052508101906106da91906133ae565b606a54606554604080516339d94ae160e11b815290516001600160a01b039485169463c9c653969481169316916373b295c2916004808301926020929190829003018186803b15801561072c57600080fd5b505afa158015610740573d6000803e3d6000fd5b505050506040513d601f19601f8201168201806040525081019061076491906133ae565b6040518363ffffffff1660e01b815260040161078192919061369a565b602060405180830381600087803b15801561079b57600080fd5b505af19250505080156107cb575060408051601f3d908101601f191682019092526107c8918101906133ae565b60015b61095357606560009054906101000a90046001600160a01b03166001600160a01b031663c45a01556040518163ffffffff1660e01b815260040160206040518083038186803b15801561081d57600080fd5b505afa158015610831573d6000803e3d6000fd5b505050506040513d601f19601f8201168201806040525081019061085591906133ae565b606a54606554604080516339d94ae160e11b815290516001600160a01b039485169463e6a439059481169316916373b295c2916004808301926020929190829003018186803b1580156108a757600080fd5b505afa1580156108bb573d6000803e3d6000fd5b505050506040513d601f19601f820116820180604052508101906108df91906133ae565b6040518363ffffffff1660e01b81526004016108fc92919061369a565b60206040518083038186803b15801561091457600080fd5b505afa158015610928573d6000803e3d6000fd5b505050506040513d601f19601f8201168201806040525081019061094c91906133ae565b9050610ad4565b50606560009054906101000a90046001600160a01b03166001600160a01b031663c45a01556040518163ffffffff1660e01b815260040160206040518083038186803b1580156109a257600080fd5b505afa1580156109b6573d6000803e3d6000fd5b505050506040513d601f19601f820116820180604052508101906109da91906133ae565b606a54606554604080516339d94ae160e11b815290516001600160a01b039485169463e6a439059481169316916373b295c2916004808301926020929190829003018186803b158015610a2c57600080fd5b505afa158015610a40573d6000803e3d6000fd5b505050506040513d601f19601f82011682018060405250810190610a6491906133ae565b6040518363ffffffff1660e01b8152600401610a8192919061369a565b60206040518083038186803b158015610a9957600080fd5b505afa158015610aad573d6000803e3d6000fd5b505050506040513d601f19601f82011682018060405250810190610ad191906133ae565b90505b606780546001600160a01b0319166001600160a01b039290921691909117905550565b6001600160a01b038116600090815260356020526040902054610b2c5760405162461bcd60e51b81526004016105e090613739565b6000610b3760345490565b610b4190476138d6565b90506000610b6e8383610b69866001600160a01b031660009081526036602052604090205490565b61284f565b905080610b8d5760405162461bcd60e51b81526004016105e09061377f565b6001600160a01b03831660009081526036602052604081208054839290610bb59084906138d6565b925050819055508060346000828254610bce91906138d6565b90915550610bde90508382612895565b7fdf20fd1e76bc69d672e4814fafb2c449bba3a5369d8359adf9e05e6fde87b0568382604051610c0f929190613681565b60405180910390a1505050565b6001600160a01b038083166000908152603960209081526040808320938516835292905220545b92915050565b6001600160a01b038116600090815260356020526040902054610c7e5760405162461bcd60e51b81526004016105e090613739565b6001600160a01b0382166000908152603860205260408120546040516370a0823160e01b81523060048201526001600160a01b038516906370a082319060240160206040518083038186803b158015610cd657600080fd5b505afa158015610cea573d6000803e3d6000fd5b505050506040513d601f19601f82011682018060405250810190610d0e9190613608565b610d1891906138d6565b90506000610d2b8383610b698787610c1c565b905080610d4a5760405162461bcd60e51b81526004016105e09061377f565b6001600160a01b03808516600090815260396020908152604080832093871683529290529081208054839290610d819084906138d6565b90915550506001600160a01b03841660009081526038602052604081208054839290610dae9084906138d6565b90915550610dbf90508484836129b3565b836001600160a01b03167f3be5b7a71e84ed12875d241991c70855ac5817d847039e17a9d895c1ceb0f18a8483604051610dfa929190613681565b60405180910390a250505050565b606a546001600160a01b0316331480610e2b57506068546001600160a01b031633145b610e475760405162461bcd60e51b81526004016105e090613711565b6065546001600160a01b0382811691161415610eb65760405162461bcd60e51b815260206004820152602860248201527f544b4e3a2054686520726f7574657220616c7265616479206861732074686174604482015267206164647265737360c01b60648201526084016105e0565b606680546001600160a01b0383166001600160a01b0319918216811790925560658054909116821790556040805163c45a015560e01b815290516000929163c45a0155916004808301926020929190829003018186803b1580156106a257600080fd5b606a546001600160a01b0316331480610f3c57506068546001600160a01b031633145b610f585760405162461bcd60e51b81526004016105e090613711565b6001600160a01b038116610fa45760405162461bcd60e51b81526020600482015260136024820152722aa8222faba0a6261d103d32b9379030b2323960691b60448201526064016105e0565b606c80546001600160a01b0319166001600160a01b0392909216919091179055565b606a546001600160a01b0316331480610fe957506068546001600160a01b031633145b6110055760405162461bcd60e51b81526004016105e090613711565b606654604051636eb1769f60e11b815284916001600160a01b038088169263dd62ed3e9261103a92309291169060040161369a565b60206040518083038186803b15801561105257600080fd5b505afa158015611066573d6000803e3d6000fd5b505050506040513d601f19601f8201168201806040525081019061108a9190613608565b10156110995761109984612a09565b816110a660018686612772565b10156110c45760405162461bcd60e51b81526004016105e0906137ca565b60006305f5e100606b54856110d99190613910565b6110e391906138ee565b606c5460405163a9059cbb60e01b81529192506001600160a01b038088169263a9059cbb926111189216908590600401613681565b602060405180830381600087803b15801561113257600080fd5b505af1158015611146573d6000803e3d6000fd5b505050506040513d601f19601f8201168201806040525081019061116a9190613558565b506000611178866001612a91565b6065549091506000906001600160a01b03166338ed1739611199858961392f565b87858c896040518663ffffffff1660e01b81526004016111bd95949392919061389a565b600060405180830381600087803b1580156111d757600080fd5b505af11580156111eb573d6000803e3d6000fd5b505050506040513d6000823e601f3d908101601f191682016040526112139190810190613493565b90506000805160206139f68339815191528787606a60009054906101000a90046001600160a01b0316846001865161124b919061392f565b8151811061125b5761125b6139a3565b602002602001015160405161127394939291906136b4565b60405180910390a15050505050505050565b606a546001600160a01b03163314806112a857506068546001600160a01b031633145b6112c45760405162461bcd60e51b81526004016105e090613711565b606654604051636eb1769f60e11b815283916001600160a01b038088169263dd62ed3e926112f992309291169060040161369a565b60206040518083038186803b15801561131157600080fd5b505afa158015611325573d6000803e3d6000fd5b505050506040513d601f19601f820116820180604052508101906113499190613608565b10156113585761135884612a09565b816113656001868661218a565b11156113af5760405162461bcd60e51b8152602060048201526019602482015278125394d551919250d251539517d25394155517d05353d55395603a1b60448201526064016105e0565b60006113bc856001612a91565b606554604051634401edf760e11b81529192506000916001600160a01b0390911690638803dbee906113fa908890889087908d908a9060040161389a565b600060405180830381600087803b15801561141457600080fd5b505af1158015611428573d6000803e3d6000fd5b505050506040513d6000823e601f3d908101601f191682016040526114509190810190613493565b9050600081600081518110611467576114676139a3565b6020026020010151905060006305f5e100606b54836114869190613910565b61149091906138ee565b606c5460405163a9059cbb60e01b81529192506001600160a01b03808b169263a9059cbb926114c59216908590600401613681565b602060405180830381600087803b1580156114df57600080fd5b505af11580156114f3573d6000803e3d6000fd5b505050506040513d601f19601f820116820180604052508101906115179190613558565b506001600160a01b03881663a9059cbb8a83611533868b61392f565b61153d919061392f565b6040518363ffffffff1660e01b815260040161155a929190613681565b602060405180830381600087803b15801561157457600080fd5b505af1158015611588573d6000803e3d6000fd5b505050506040513d601f19601f820116820180604052508101906115ac9190613558565b50606a546040516000805160206139f6833981519152916115de918b9186916001600160a01b03909116908c906136b4565b60405180910390a1505050505050505050565b606a546001600160a01b031633148061161457506068546001600160a01b031633145b6116305760405162461bcd60e51b81526004016105e090613711565b606954606654604051636eb1769f60e11b815284926001600160a01b039081169263dd62ed3e92611667923092169060040161369a565b60206040518083038186803b15801561167f57600080fd5b505afa158015611693573d6000803e3d6000fd5b505050506040513d601f19601f820116820180604052508101906116b79190613608565b10156117495760695460665460405163095ea7b360e01b81526001600160a01b039283169263095ea7b3926116f59291169060001990600401613681565b602060405180830381600087803b15801561170f57600080fd5b505af1158015611723573d6000803e3d6000fd5b505050506040513d601f19601f820116820180604052508101906117479190613558565b505b816117566000868661218a565b11156117a05760405162461bcd60e51b8152602060048201526019602482015278125394d551919250d251539517d25394155517d05353d55395603a1b60448201526064016105e0565b60006117ad856000612a91565b90506060606560009054906101000a90046001600160a01b03166001600160a01b03166373b295c26040518163ffffffff1660e01b815260040160206040518083038186803b1580156117ff57600080fd5b505afa158015611813573d6000803e3d6000fd5b505050506040513d601f19601f8201168201806040525081019061183791906133ae565b6001600160a01b0316866001600160a01b031614156118e557606554604051633d2120b560e11b81526001600160a01b0390911690637a42416a90611888908890889087908d908a9060040161389a565b600060405180830381600087803b1580156118a257600080fd5b505af11580156118b6573d6000803e3d6000fd5b505050506040513d6000823e601f3d908101601f191682016040526118de9190810190613493565b9050611976565b606554604051634401edf760e11b81526001600160a01b0390911690638803dbee9061191d908890889087908d908a9060040161389a565b600060405180830381600087803b15801561193757600080fd5b505af115801561194b573d6000803e3d6000fd5b505050506040513d6000823e601f3d908101601f191682016040526119739190810190613493565b90505b60008160008151811061198b5761198b6139a3565b6020026020010151905060006305f5e100606b54836119aa9190613910565b6119b491906138ee565b606954606c5460405163a9059cbb60e01b81529293506001600160a01b039182169263a9059cbb926119ec9216908590600401613681565b602060405180830381600087803b158015611a0657600080fd5b505af1158015611a1a573d6000803e3d6000fd5b505050506040513d601f19601f82011682018060405250810190611a3e9190613558565b506069546001600160a01b031663a9059cbb8a83611a5c868b61392f565b611a66919061392f565b6040518363ffffffff1660e01b8152600401611a83929190613681565b602060405180830381600087803b158015611a9d57600080fd5b505af1158015611ab1573d6000803e3d6000fd5b505050506040513d601f19601f82011682018060405250810190611ad59190613558565b50606a546040516000805160206139f6833981519152916115de916001600160a01b039091169085908c908c906136b4565b606a546001600160a01b0316331480611b2a57506068546001600160a01b031633145b611b465760405162461bcd60e51b81526004016105e090613711565b606954606654604051636eb1769f60e11b815285926001600160a01b039081169263dd62ed3e92611b7d923092169060040161369a565b60206040518083038186803b158015611b9557600080fd5b505afa158015611ba9573d6000803e3d6000fd5b505050506040513d601f19601f82011682018060405250810190611bcd9190613608565b1015611c5f5760695460665460405163095ea7b360e01b81526001600160a01b039283169263095ea7b392611c0b9291169060001990600401613681565b602060405180830381600087803b158015611c2557600080fd5b505af1158015611c39573d6000803e3d6000fd5b505050506040513d601f19601f82011682018060405250810190611c5d9190613558565b505b81611c6c60008686612772565b1015611c8a5760405162461bcd60e51b81526004016105e0906137ca565b60006305f5e100606b5485611c9f9190613910565b611ca991906138ee565b606954606c5460405163a9059cbb60e01b81529293506001600160a01b039182169263a9059cbb92611ce19216908590600401613681565b602060405180830381600087803b158015611cfb57600080fd5b505af1158015611d0f573d6000803e3d6000fd5b505050506040513d601f19601f82011682018060405250810190611d339190613558565b506000611d41866000612a91565b90506060606560009054906101000a90046001600160a01b03166001600160a01b03166373b295c26040518163ffffffff1660e01b815260040160206040518083038186803b158015611d9357600080fd5b505afa158015611da7573d6000803e3d6000fd5b505050506040513d601f19601f82011682018060405250810190611dcb91906133ae565b6001600160a01b0316876001600160a01b03161415611e80576065546001600160a01b031663676528d1611dff858961392f565b87858c896040518663ffffffff1660e01b8152600401611e2395949392919061389a565b600060405180830381600087803b158015611e3d57600080fd5b505af1158015611e51573d6000803e3d6000fd5b505050506040513d6000823e601f3d908101601f19168201604052611e799190810190613493565b9050611f18565b6065546001600160a01b03166338ed1739611e9b858961392f565b87858c896040518663ffffffff1660e01b8152600401611ebf95949392919061389a565b600060405180830381600087803b158015611ed957600080fd5b505af1158015611eed573d6000803e3d6000fd5b505050506040513d6000823e601f3d908101601f19168201604052611f159190810190613493565b90505b606a5481516000805160206139f6833981519152916001600160a01b03169088908a90859061124b9060019061392f565b600060378281548110611f5e57611f5e6139a3565b6000918252602090912001546001600160a01b031692915050565b606a546001600160a01b0316331480611f9c57506068546001600160a01b031633145b611fb85760405162461bcd60e51b81526004016105e090613711565b3482611fcd6001611fc7612500565b84612772565b1015611feb5760405162461bcd60e51b81526004016105e0906137ca565b60006305f5e100606b54836120009190613910565b61200a91906138ee565b606c546040519192506001600160a01b03169082156108fc029083906000818181858888f19350505050158015612045573d6000803e3d6000fd5b50600061205a612053612500565b6001612a91565b6065549091506000906001600160a01b031663a2a1623d61207b858761392f565b88858b8a6040518663ffffffff1660e01b815260040161209e9493929190613865565b6000604051808303818588803b1580156120b757600080fd5b505af11580156120cb573d6000803e3d6000fd5b50505050506040513d6000823e601f3d908101601f191682016040526120f49190810190613493565b606a5481519192507fa979c0b10cb04562c5689b2bb7868c45ff45a80db806e338eae84994215ba8059186916001600160a01b03169084906121389060019061392f565b81518110612148576121486139a3565b6020026020010151604051612179939291909283526001600160a01b03919091166020830152604082015260600190565b60405180910390a150505050505050565b6000806121978486612a91565b6065546040516307c0329d60e21b81529192506000916001600160a01b0390911690631f00ca74906121cf908790869060040161384c565b60006040518083038186803b1580156121e757600080fd5b505afa1580156121fb573d6000803e3d6000fd5b505050506040513d6000823e601f3d908101601f191682016040526122239190810190613493565b905060008160008151811061223a5761223a6139a3565b602002602001015190506305f5e100606b546305f5e10061225b91906138d6565b6122659083613910565b61226f91906138ee565b93505050505b9392505050565b606a546001600160a01b031633148061229f57506068546001600160a01b031633145b6122bb5760405162461bcd60e51b81526004016105e090613711565b6305f5e10081111561230f5760405162461bcd60e51b815260206004820152601960248201527f464545533a207377617020657863656564696e6720313030250000000000000060448201526064016105e0565b606b55565b600054610100900460ff1661232f5760005460ff1615612333565b303b155b6123965760405162461bcd60e51b815260206004820152602e60248201527f496e697469616c697a61626c653a20636f6e747261637420697320616c72656160448201526d191e481a5b9a5d1a585b1a5e995960921b60648201526084016105e0565b600054610100900460ff161580156123b8576000805461ffff19166101011790555b6001600160a01b0384166123fc5760405162461bcd60e51b815260206004820152600b60248201526a524f55544552205a45524f60a81b60448201526064016105e0565b604080516001808252818301909252600091602080830190803683370190505090503381600081518110612432576124326139a3565b6001600160a01b039290921660209283029190910190910152604080516001808252818301909252600091816020016020820280368337019050509050600181600081518110612484576124846139a3565b60200260200101818152505061249a8282612df5565b5050606680546001600160a01b038087166001600160a01b0319928316811790935560658054831690931790925560688054821633179055606b859055606c80549285169290911691909117905580156124fa576000805461ff00191690555b50505050565b606554604080516339d94ae160e11b815290516000926001600160a01b0316916373b295c2916004808301926020929190829003018186803b15801561254557600080fd5b505afa158015612559573d6000803e3d6000fd5b505050506040513d601f19601f8201168201806040525081019061257d91906133ae565b905090565b606a546001600160a01b03163314806125a557506068546001600160a01b031633145b6125c15760405162461bcd60e51b81526004016105e090613711565b60006125ce612053612500565b606554604051638a657e6760e01b81529192506000916001600160a01b0390911690638a657e6790349061260c90889087908b908a90600401613865565b6000604051808303818588803b15801561262557600080fd5b505af1158015612639573d6000803e3d6000fd5b50505050506040513d6000823e601f3d908101601f191682016040526126629190810190613493565b9050600081600081518110612679576126796139a3565b6020026020010151905060006305f5e100606b54836126989190613910565b6126a291906138ee565b606c546040519192506001600160a01b03169082156108fc029083906000818181858888f193505050501580156126dd573d6000803e3d6000fd5b506001600160a01b0387166108fc826126f6853461392f565b612700919061392f565b6040518115909202916000818181858888f19350505050158015612728573d6000803e3d6000fd5b50606a54604080518481526001600160a01b03909216602083015281018790527fa979c0b10cb04562c5689b2bb7868c45ff45a80db806e338eae84994215ba80590606001612179565b60008061277f8486612a91565b60655460405163d06ca61f60e01b81529192506000916001600160a01b039091169063d06ca61f906127b7908790869060040161384c565b60006040518083038186803b1580156127cf57600080fd5b505afa1580156127e3573d6000803e3d6000fd5b505050506040513d6000823e601f3d908101601f1916820160405261280b9190810190613493565b90506000816001835161281e919061392f565b8151811061282e5761282e6139a3565b602002602001015190506305f5e100606b546305f5e10061225b919061392f565b6033546001600160a01b038416600090815260356020526040812054909183916128799086613910565b61288391906138ee565b61288d919061392f565b949350505050565b804710156128e55760405162461bcd60e51b815260206004820152601d60248201527f416464726573733a20696e73756666696369656e742062616c616e636500000060448201526064016105e0565b6000826001600160a01b03168260405160006040518083038185875af1925050503d8060008114612932576040519150601f19603f3d011682016040523d82523d6000602084013e612937565b606091505b50509050806129ae5760405162461bcd60e51b815260206004820152603a60248201527f416464726573733a20756e61626c6520746f2073656e642076616c75652c207260448201527f6563697069656e74206d6179206861766520726576657274656400000000000060648201526084016105e0565b505050565b6129ae8363a9059cbb60e01b84846040516024016129d2929190613681565b60408051601f198184030181529190526020810180516001600160e01b03166001600160e01b031990931692909217909152612e2a565b60665460405163095ea7b360e01b815282916001600160a01b038084169263095ea7b392612a3f92169060001990600401613681565b602060405180830381600087803b158015612a5957600080fd5b505af1158015612a6d573d6000803e3d6000fd5b505050506040513d601f19601f820116820180604052508101906129ae9190613558565b606554604080516339d94ae160e11b815290516060926001600160a01b0316916373b295c2916004808301926020929190829003018186803b158015612ad657600080fd5b505afa158015612aea573d6000803e3d6000fd5b505050506040513d601f19601f82011682018060405250810190612b0e91906133ae565b6001600160a01b0316836001600160a01b03161415612c36576040805160028082526060820183526000926020830190803683370190505090508215612bb8578381600081518110612b6257612b626139a3565b6001600160a01b039283166020918202929092010152606a54825191169082906001908110612b9357612b936139a3565b60200260200101906001600160a01b031690816001600160a01b031681525050612c2f565b606a5481516001600160a01b03909116908290600090612bda57612bda6139a3565b60200260200101906001600160a01b031690816001600160a01b0316815250508381600181518110612c0e57612c0e6139a3565b60200260200101906001600160a01b031690816001600160a01b0316815250505b9050610c43565b60408051600380825260808201909252600091602082016060803683375050606554604080516339d94ae160e11b815290519394506001600160a01b03909116926373b295c292506004808301926020929190829003018186803b158015612c9d57600080fd5b505afa158015612cb1573d6000803e3d6000fd5b505050506040513d601f19601f82011682018060405250810190612cd591906133ae565b81600181518110612ce857612ce86139a3565b60200260200101906001600160a01b031690816001600160a01b0316815250508215612d78578381600081518110612d2257612d226139a3565b6001600160a01b039283166020918202929092010152606a54825191169082906002908110612d5357612d536139a3565b60200260200101906001600160a01b031690816001600160a01b031681525050612275565b606a5481516001600160a01b03909116908290600090612d9a57612d9a6139a3565b60200260200101906001600160a01b031690816001600160a01b0316815250508381600281518110612dce57612dce6139a3565b60200260200101906001600160a01b031690816001600160a01b0316815250509392505050565b600054610100900460ff16612e1c5760405162461bcd60e51b81526004016105e090613801565b612e268282612efc565b5050565b6000612e7f826040518060400160405280602081526020017f5361666545524332303a206c6f772d6c6576656c2063616c6c206661696c6564815250856001600160a01b031661303a9092919063ffffffff16565b8051909150156129ae5780806020019051810190612e9d9190613558565b6129ae5760405162461bcd60e51b815260206004820152602a60248201527f5361666545524332303a204552433230206f7065726174696f6e20646964206e6044820152691bdd081cdd58d8d9595960b21b60648201526084016105e0565b600054610100900460ff16612f235760405162461bcd60e51b81526004016105e090613801565b8051825114612f8f5760405162461bcd60e51b815260206004820152603260248201527f5061796d656e7453706c69747465723a2070617965657320616e6420736861726044820152710cae640d8cadccee8d040dad2e6dac2e8c6d60731b60648201526084016105e0565b6000825111612fe05760405162461bcd60e51b815260206004820152601a60248201527f5061796d656e7453706c69747465723a206e6f2070617965657300000000000060448201526064016105e0565b60005b82518110156129ae57613028838281518110613001576130016139a3565b602002602001015183838151811061301b5761301b6139a3565b6020026020010151613049565b8061303281613972565b915050612fe3565b606061288d8484600085613227565b6001600160a01b0382166130b45760405162461bcd60e51b815260206004820152602c60248201527f5061796d656e7453706c69747465723a206163636f756e74206973207468652060448201526b7a65726f206164647265737360a01b60648201526084016105e0565b600081116131045760405162461bcd60e51b815260206004820152601d60248201527f5061796d656e7453706c69747465723a2073686172657320617265203000000060448201526064016105e0565b6001600160a01b0382166000908152603560205260409020541561317e5760405162461bcd60e51b815260206004820152602b60248201527f5061796d656e7453706c69747465723a206163636f756e7420616c726561647960448201526a206861732073686172657360a81b60648201526084016105e0565b60378054600181019091557f42a7b7dd785cd69714a189dffb3fd7d7174edc9ece837694ce50f7078f7c31ae0180546001600160a01b0319166001600160a01b03841690811790915560009081526035602052604090208190556033546131e69082906138d6565b6033556040517f40c340f65e17194d14ddddb073d3c9f888e3cb52b5aae0c6c7706b4fbc905fac9061321b9084908490613681565b60405180910390a15050565b6060824710156132885760405162461bcd60e51b815260206004820152602660248201527f416464726573733a20696e73756666696369656e742062616c616e636520666f6044820152651c8818d85b1b60d21b60648201526084016105e0565b6001600160a01b0385163b6132df5760405162461bcd60e51b815260206004820152601d60248201527f416464726573733a2063616c6c20746f206e6f6e2d636f6e747261637400000060448201526064016105e0565b600080866001600160a01b031685876040516132fb9190613665565b60006040518083038185875af1925050503d8060008114613338576040519150601f19603f3d011682016040523d82523d6000602084013e61333d565b606091505b509150915061334d828286613358565b979650505050505050565b60608315613367575081612275565b8251156133775782518084602001fd5b8160405162461bcd60e51b81526004016105e091906136de565b6000602082840312156133a357600080fd5b8135612275816139cf565b6000602082840312156133c057600080fd5b8151612275816139cf565b600080600080600060a086880312156133e357600080fd5b85356133ee816139cf565b945060208601356133fe816139cf565b94979496505050506040830135926060810135926080909101359150565b60008060006060848603121561343157600080fd5b833561343c816139cf565b9250602084013591506040840135613453816139cf565b809150509250925092565b60008060006060848603121561347357600080fd5b833561347e816139cf565b95602085013595506040909401359392505050565b600060208083850312156134a657600080fd5b825167ffffffffffffffff808211156134be57600080fd5b818501915085601f8301126134d257600080fd5b8151818111156134e4576134e46139b9565b8060051b604051601f19603f83011681018181108582111715613509576135096139b9565b604052828152858101935084860182860187018a101561352857600080fd5b600095505b8386101561354b57805185526001959095019493860193860161352d565b5098975050505050505050565b60006020828403121561356a57600080fd5b8151612275816139e7565b60008060006060848603121561358a57600080fd5b8335613595816139e7565b925060208401356135a5816139cf565b929592945050506040919091013590565b600080604083850312156135c957600080fd5b82356135d4816139cf565b915060208301356135e4816139cf565b809150509250929050565b60006020828403121561360157600080fd5b5035919050565b60006020828403121561361a57600080fd5b5051919050565b600081518084526020808501945080840160005b8381101561365a5781516001600160a01b031687529582019590820190600101613635565b509495945050505050565b60008251613677818460208701613946565b9190910192915050565b6001600160a01b03929092168252602082015260400190565b6001600160a01b0392831681529116602082015260400190565b6001600160a01b039485168152602081019390935292166040820152606081019190915260800190565b60208152600082518060208401526136fd816040850160208701613946565b601f01601f19169190910160400192915050565b6020808252600e908201526d4163636573732044656e6965642160901b604082015260600190565b60208082526026908201527f5061796d656e7453706c69747465723a206163636f756e7420686173206e6f2060408201526573686172657360d01b606082015260800190565b6020808252602b908201527f5061796d656e7453706c69747465723a206163636f756e74206973206e6f742060408201526a191d59481c185e5b595b9d60aa1b606082015260800190565b6020808252601a908201527f494e53554646494349454e545f4f55545055545f414d4f554e54000000000000604082015260600190565b6020808252602b908201527f496e697469616c697a61626c653a20636f6e7472616374206973206e6f74206960408201526a6e697469616c697a696e6760a81b606082015260800190565b82815260406020820152600061288d6040830184613621565b84815260806020820152600061387e6080830186613621565b6001600160a01b03949094166040830152506060015292915050565b85815284602082015260a0604082015260006138b960a0830186613621565b6001600160a01b0394909416606083015250608001529392505050565b600082198211156138e9576138e961398d565b500190565b60008261390b57634e487b7160e01b600052601260045260246000fd5b500490565b600081600019048311821515161561392a5761392a61398d565b500290565b6000828210156139415761394161398d565b500390565b60005b83811015613961578181015183820152602001613949565b838111156124fa5750506000910152565b60006000198214156139865761398661398d565b5060010190565b634e487b7160e01b600052601160045260246000fd5b634e487b7160e01b600052603260045260246000fd5b634e487b7160e01b600052604160045260246000fd5b6001600160a01b03811681146139e457600080fd5b50565b80151581146139e457600080fdfedb587d878116df0bdd4fe154699aa2c5f439da001cc811dfd05d9f589fc5a8eea164736f6c6343000807000a",
  "devdoc": {
    "kind": "dev",
    "methods": {
      "payee(uint256)": {
        "details": "Getter for the address of the payee number `index`."
      },
      "release(address)": {
        "details": "Triggers a transfer to `account` of the amount of Ether they are owed, according to their percentage of the total shares and their previous withdrawals."
      },
      "release(address,address)": {
        "details": "Triggers a transfer to `account` of the amount of `token` tokens they are owed, according to their percentage of the total shares and their previous withdrawals. `token` must be the address of an IERC20 contract."
      },
      "released(address)": {
        "details": "Getter for the amount of Ether already released to a payee."
      },
      "released(address,address)": {
        "details": "Getter for the amount of `token` tokens already released to a payee. `token` should be the address of an IERC20 contract."
      },
      "shares(address)": {
        "details": "Getter for the amount of shares held by an account."
      },
      "totalReleased()": {
        "details": "Getter for the total amount of Ether already released."
      },
      "totalReleased(address)": {
        "details": "Getter for the total amount of `token` already released. `token` should be the address of an IERC20 contract."
      },
      "totalShares()": {
        "details": "Getter for the total shares held by payees."
      }
    },
    "version": 1
  },
  "userdoc": {
    "kind": "user",
    "methods": {},
    "version": 1
  },
  "storageLayout": {
    "storage": [
      {
        "astId": 598,
        "contract": "contracts/dependencies/LiquidityRouter.sol:LiquidityRouter",
        "label": "_initialized",
        "offset": 0,
        "slot": "0",
        "type": "t_bool"
      },
      {
        "astId": 601,
        "contract": "contracts/dependencies/LiquidityRouter.sol:LiquidityRouter",
        "label": "_initializing",
        "offset": 1,
        "slot": "0",
        "type": "t_bool"
      },
      {
        "astId": 1889,
        "contract": "contracts/dependencies/LiquidityRouter.sol:LiquidityRouter",
        "label": "__gap",
        "offset": 0,
        "slot": "1",
        "type": "t_array(t_uint256)50_storage"
      },
      {
        "astId": 163,
        "contract": "contracts/dependencies/LiquidityRouter.sol:LiquidityRouter",
        "label": "_totalShares",
        "offset": 0,
        "slot": "51",
        "type": "t_uint256"
      },
      {
        "astId": 165,
        "contract": "contracts/dependencies/LiquidityRouter.sol:LiquidityRouter",
        "label": "_totalReleased",
        "offset": 0,
        "slot": "52",
        "type": "t_uint256"
      },
      {
        "astId": 169,
        "contract": "contracts/dependencies/LiquidityRouter.sol:LiquidityRouter",
        "label": "_shares",
        "offset": 0,
        "slot": "53",
        "type": "t_mapping(t_address,t_uint256)"
      },
      {
        "astId": 173,
        "contract": "contracts/dependencies/LiquidityRouter.sol:LiquidityRouter",
        "label": "_released",
        "offset": 0,
        "slot": "54",
        "type": "t_mapping(t_address,t_uint256)"
      },
      {
        "astId": 176,
        "contract": "contracts/dependencies/LiquidityRouter.sol:LiquidityRouter",
        "label": "_payees",
        "offset": 0,
        "slot": "55",
        "type": "t_array(t_address)dyn_storage"
      },
      {
        "astId": 181,
        "contract": "contracts/dependencies/LiquidityRouter.sol:LiquidityRouter",
        "label": "_erc20TotalReleased",
        "offset": 0,
        "slot": "56",
        "type": "t_mapping(t_contract(IERC20Upgradeable)1356,t_uint256)"
      },
      {
        "astId": 188,
        "contract": "contracts/dependencies/LiquidityRouter.sol:LiquidityRouter",
        "label": "_erc20Released",
        "offset": 0,
        "slot": "57",
        "type": "t_mapping(t_contract(IERC20Upgradeable)1356,t_mapping(t_address,t_uint256))"
      },
      {
        "astId": 590,
        "contract": "contracts/dependencies/LiquidityRouter.sol:LiquidityRouter",
        "label": "__gap",
        "offset": 0,
        "slot": "58",
        "type": "t_array(t_uint256)43_storage"
      },
      {
        "astId": 6400,
        "contract": "contracts/dependencies/LiquidityRouter.sol:LiquidityRouter",
        "label": "uniswapV2Router",
        "offset": 0,
        "slot": "101",
        "type": "t_contract(IJoeRouter02)8108"
      },
      {
        "astId": 6402,
        "contract": "contracts/dependencies/LiquidityRouter.sol:LiquidityRouter",
        "label": "routerAddress",
        "offset": 0,
        "slot": "102",
        "type": "t_address"
      },
      {
        "astId": 6404,
        "contract": "contracts/dependencies/LiquidityRouter.sol:LiquidityRouter",
        "label": "uniswapV2Pair",
        "offset": 0,
        "slot": "103",
        "type": "t_address"
      },
      {
        "astId": 6406,
        "contract": "contracts/dependencies/LiquidityRouter.sol:LiquidityRouter",
        "label": "admin0xB",
        "offset": 0,
        "slot": "104",
        "type": "t_address_payable"
      },
      {
        "astId": 6409,
        "contract": "contracts/dependencies/LiquidityRouter.sol:LiquidityRouter",
        "label": "token",
        "offset": 0,
        "slot": "105",
        "type": "t_contract(IERC20)2517"
      },
      {
        "astId": 6411,
        "contract": "contracts/dependencies/LiquidityRouter.sol:LiquidityRouter",
        "label": "tokenAddress",
        "offset": 0,
        "slot": "106",
        "type": "t_address"
      },
      {
        "astId": 6413,
        "contract": "contracts/dependencies/LiquidityRouter.sol:LiquidityRouter",
        "label": "swapTaxFee",
        "offset": 0,
        "slot": "107",
        "type": "t_uint256"
      },
      {
        "astId": 6415,
        "contract": "contracts/dependencies/LiquidityRouter.sol:LiquidityRouter",
        "label": "swapTaxPool",
        "offset": 0,
        "slot": "108",
        "type": "t_address"
      }
    ],
    "types": {
      "t_address": {
        "encoding": "inplace",
        "label": "address",
        "numberOfBytes": "20"
      },
      "t_address_payable": {
        "encoding": "inplace",
        "label": "address payable",
        "numberOfBytes": "20"
      },
      "t_array(t_address)dyn_storage": {
        "base": "t_address",
        "encoding": "dynamic_array",
        "label": "address[]",
        "numberOfBytes": "32"
      },
      "t_array(t_uint256)43_storage": {
        "base": "t_uint256",
        "encoding": "inplace",
        "label": "uint256[43]",
        "numberOfBytes": "1376"
      },
      "t_array(t_uint256)50_storage": {
        "base": "t_uint256",
        "encoding": "inplace",
        "label": "uint256[50]",
        "numberOfBytes": "1600"
      },
      "t_bool": {
        "encoding": "inplace",
        "label": "bool",
        "numberOfBytes": "1"
      },
      "t_contract(IERC20)2517": {
        "encoding": "inplace",
        "label": "contract IERC20",
        "numberOfBytes": "20"
      },
      "t_contract(IERC20Upgradeable)1356": {
        "encoding": "inplace",
        "label": "contract IERC20Upgradeable",
        "numberOfBytes": "20"
      },
      "t_contract(IJoeRouter02)8108": {
        "encoding": "inplace",
        "label": "contract IJoeRouter02",
        "numberOfBytes": "20"
      },
      "t_mapping(t_address,t_uint256)": {
        "encoding": "mapping",
        "key": "t_address",
        "label": "mapping(address => uint256)",
        "numberOfBytes": "32",
        "value": "t_uint256"
      },
      "t_mapping(t_contract(IERC20Upgradeable)1356,t_mapping(t_address,t_uint256))": {
        "encoding": "mapping",
        "key": "t_contract(IERC20Upgradeable)1356",
        "label": "mapping(contract IERC20Upgradeable => mapping(address => uint256))",
        "numberOfBytes": "32",
        "value": "t_mapping(t_address,t_uint256)"
      },
      "t_mapping(t_contract(IERC20Upgradeable)1356,t_uint256)": {
        "encoding": "mapping",
        "key": "t_contract(IERC20Upgradeable)1356",
        "label": "mapping(contract IERC20Upgradeable => uint256)",
        "numberOfBytes": "32",
        "value": "t_uint256"
      },
      "t_uint256": {
        "encoding": "inplace",
        "label": "uint256",
        "numberOfBytes": "32"
      }
    }
  }
}