{
  "address": "0xB03Cda1368Ff8ec2E6B861036cFf7A670C0F57c3",
  "abi": [
    {
      "anonymous": false,
      "inputs": [
        {
          "indexed": true,
          "internalType": "contract IERC20Upgradeable",
          "name": "token",
          "type": "address"
        },
        {
          "indexed": false,
          "internalType": "address",
          "name": "to",
          "type": "address"
        },
        {
          "indexed": false,
          "internalType": "uint256",
          "name": "amount",
          "type": "uint256"
        }
      ],
      "name": "ERC20PaymentReleased",
      "type": "event"
    },
    {
      "anonymous": false,
      "inputs": [
        {
          "indexed": false,
          "internalType": "address",
          "name": "account",
          "type": "address"
        },
        {
          "indexed": false,
          "internalType": "uint256",
          "name": "shares",
          "type": "uint256"
        }
      ],
      "name": "PayeeAdded",
      "type": "event"
    },
    {
      "anonymous": false,
      "inputs": [
        {
          "indexed": false,
          "internalType": "address",
          "name": "from",
          "type": "address"
        },
        {
          "indexed": false,
          "internalType": "uint256",
          "name": "amount",
          "type": "uint256"
        }
      ],
      "name": "PaymentReceived",
      "type": "event"
    },
    {
      "anonymous": false,
      "inputs": [
        {
          "indexed": false,
          "internalType": "address",
          "name": "to",
          "type": "address"
        },
        {
          "indexed": false,
          "internalType": "uint256",
          "name": "amount",
          "type": "uint256"
        }
      ],
      "name": "PaymentReleased",
      "type": "event"
    },
    {
      "anonymous": false,
      "inputs": [
        {
          "indexed": false,
          "internalType": "address",
          "name": "tokenIn",
          "type": "address"
        },
        {
          "indexed": false,
          "internalType": "uint256",
          "name": "amountIn",
          "type": "uint256"
        },
        {
          "indexed": false,
          "internalType": "address",
          "name": "tokenOut",
          "type": "address"
        },
        {
          "indexed": false,
          "internalType": "uint256",
          "name": "amountOut",
          "type": "uint256"
        }
      ],
      "name": "Swapped",
      "type": "event"
    },
    {
      "anonymous": false,
      "inputs": [
        {
          "indexed": false,
          "internalType": "uint256",
          "name": "amountIn",
          "type": "uint256"
        },
        {
          "indexed": false,
          "internalType": "address",
          "name": "tokenOut",
          "type": "address"
        },
        {
          "indexed": false,
          "internalType": "uint256",
          "name": "amountOut",
          "type": "uint256"
        }
      ],
      "name": "SwappedNative",
      "type": "event"
    },
    {
      "inputs": [],
      "name": "admin0xB",
      "outputs": [
        {
          "internalType": "address payable",
          "name": "",
          "type": "address"
        }
      ],
      "stateMutability": "view",
      "type": "function"
    },
    {
      "inputs": [
        {
          "internalType": "bool",
          "name": "is0xBOut",
          "type": "bool"
        },
        {
          "internalType": "address",
          "name": "targetToken",
          "type": "address"
        },
        {
          "internalType": "uint256",
          "name": "outputAmount",
          "type": "uint256"
        }
      ],
      "name": "getInputAmount",
      "outputs": [
        {
          "internalType": "uint256",
          "name": "",
          "type": "uint256"
        }
      ],
      "stateMutability": "view",
      "type": "function"
    },
    {
      "inputs": [
        {
          "internalType": "bool",
          "name": "is0xBOut",
          "type": "bool"
        },
        {
          "internalType": "address",
          "name": "targetToken",
          "type": "address"
        },
        {
          "internalType": "uint256",
          "name": "inputAmount",
          "type": "uint256"
        }
      ],
      "name": "getOutputAmount",
      "outputs": [
        {
          "internalType": "uint256",
          "name": "",
          "type": "uint256"
        }
      ],
      "stateMutability": "view",
      "type": "function"
    },
    {
      "inputs": [
        {
          "internalType": "address",
          "name": "_router",
          "type": "address"
        }
      ],
      "name": "initialize",
      "outputs": [],
      "stateMutability": "nonpayable",
      "type": "function"
    },
    {
      "inputs": [
        {
          "internalType": "uint256",
          "name": "index",
          "type": "uint256"
        }
      ],
      "name": "payee",
      "outputs": [
        {
          "internalType": "address",
          "name": "",
          "type": "address"
        }
      ],
      "stateMutability": "view",
      "type": "function"
    },
    {
      "inputs": [
        {
          "internalType": "address payable",
          "name": "account",
          "type": "address"
        }
      ],
      "name": "release",
      "outputs": [],
      "stateMutability": "nonpayable",
      "type": "function"
    },
    {
      "inputs": [
        {
          "internalType": "contract IERC20Upgradeable",
          "name": "token",
          "type": "address"
        },
        {
          "internalType": "address",
          "name": "account",
          "type": "address"
        }
      ],
      "name": "release",
      "outputs": [],
      "stateMutability": "nonpayable",
      "type": "function"
    },
    {
      "inputs": [
        {
          "internalType": "contract IERC20Upgradeable",
          "name": "token",
          "type": "address"
        },
        {
          "internalType": "address",
          "name": "account",
          "type": "address"
        }
      ],
      "name": "released",
      "outputs": [
        {
          "internalType": "uint256",
          "name": "",
          "type": "uint256"
        }
      ],
      "stateMutability": "view",
      "type": "function"
    },
    {
      "inputs": [
        {
          "internalType": "address",
          "name": "account",
          "type": "address"
        }
      ],
      "name": "released",
      "outputs": [
        {
          "internalType": "uint256",
          "name": "",
          "type": "uint256"
        }
      ],
      "stateMutability": "view",
      "type": "function"
    },
    {
      "inputs": [],
      "name": "routerAddress",
      "outputs": [
        {
          "internalType": "address",
          "name": "",
          "type": "address"
        }
      ],
      "stateMutability": "view",
      "type": "function"
    },
    {
      "inputs": [
        {
          "internalType": "address",
          "name": "_token",
          "type": "address"
        }
      ],
      "name": "setToken",
      "outputs": [],
      "stateMutability": "nonpayable",
      "type": "function"
    },
    {
      "inputs": [
        {
          "internalType": "address",
          "name": "account",
          "type": "address"
        }
      ],
      "name": "shares",
      "outputs": [
        {
          "internalType": "uint256",
          "name": "",
          "type": "uint256"
        }
      ],
      "stateMutability": "view",
      "type": "function"
    },
    {
      "inputs": [
        {
          "internalType": "address",
          "name": "receiver",
          "type": "address"
        },
        {
          "internalType": "address",
          "name": "outTokenAddr",
          "type": "address"
        },
        {
          "internalType": "uint256",
          "name": "amountOut",
          "type": "uint256"
        },
        {
          "internalType": "uint256",
          "name": "amountInMax",
          "type": "uint256"
        },
        {
          "internalType": "uint256",
          "name": "deadline",
          "type": "uint256"
        }
      ],
      "name": "swap0xBForExactToken",
      "outputs": [],
      "stateMutability": "nonpayable",
      "type": "function"
    },
    {
      "inputs": [
        {
          "internalType": "address",
          "name": "receiver",
          "type": "address"
        },
        {
          "internalType": "uint256",
          "name": "amountOut",
          "type": "uint256"
        },
        {
          "internalType": "uint256",
          "name": "deadline",
          "type": "uint256"
        }
      ],
      "name": "swapAVAXForExact0xB",
      "outputs": [],
      "stateMutability": "payable",
      "type": "function"
    },
    {
      "inputs": [
        {
          "internalType": "address",
          "name": "receiver",
          "type": "address"
        },
        {
          "internalType": "address",
          "name": "outTokenAddr",
          "type": "address"
        },
        {
          "internalType": "uint256",
          "name": "amountIn",
          "type": "uint256"
        },
        {
          "internalType": "uint256",
          "name": "amountOutMin",
          "type": "uint256"
        },
        {
          "internalType": "uint256",
          "name": "deadline",
          "type": "uint256"
        }
      ],
      "name": "swapExact0xBForToken",
      "outputs": [],
      "stateMutability": "nonpayable",
      "type": "function"
    },
    {
      "inputs": [
        {
          "internalType": "address",
          "name": "receiver",
          "type": "address"
        },
        {
          "internalType": "address",
          "name": "outTokenAddr",
          "type": "address"
        },
        {
          "internalType": "uint256",
          "name": "amountIn",
          "type": "uint256"
        }
      ],
      "name": "swapExact0xBForTokenNoFee",
      "outputs": [],
      "stateMutability": "nonpayable",
      "type": "function"
    },
    {
      "inputs": [
        {
          "internalType": "address",
          "name": "receiver",
          "type": "address"
        },
        {
          "internalType": "uint256",
          "name": "amountOutMin",
          "type": "uint256"
        },
        {
          "internalType": "uint256",
          "name": "deadline",
          "type": "uint256"
        }
      ],
      "name": "swapExactAVAXFor0xB",
      "outputs": [],
      "stateMutability": "payable",
      "type": "function"
    },
    {
      "inputs": [
        {
          "internalType": "address",
          "name": "receiver",
          "type": "address"
        },
        {
          "internalType": "address",
          "name": "inTokenAddr",
          "type": "address"
        },
        {
          "internalType": "uint256",
          "name": "amountIn",
          "type": "uint256"
        },
        {
          "internalType": "uint256",
          "name": "amountOutMin",
          "type": "uint256"
        },
        {
          "internalType": "uint256",
          "name": "deadline",
          "type": "uint256"
        }
      ],
      "name": "swapExactTokenFor0xB",
      "outputs": [],
      "stateMutability": "nonpayable",
      "type": "function"
    },
    {
      "inputs": [],
      "name": "swapTaxFee",
      "outputs": [
        {
          "internalType": "uint256",
          "name": "",
          "type": "uint256"
        }
      ],
      "stateMutability": "view",
      "type": "function"
    },
    {
      "inputs": [],
      "name": "swapTaxPool",
      "outputs": [
        {
          "internalType": "address",
          "name": "",
          "type": "address"
        }
      ],
      "stateMutability": "view",
      "type": "function"
    },
    {
      "inputs": [
        {
          "internalType": "address",
          "name": "receiver",
          "type": "address"
        },
        {
          "internalType": "address",
          "name": "inTokenAddr",
          "type": "address"
        },
        {
          "internalType": "uint256",
          "name": "amountOut",
          "type": "uint256"
        },
        {
          "internalType": "uint256",
          "name": "amountInMax",
          "type": "uint256"
        },
        {
          "internalType": "uint256",
          "name": "deadline",
          "type": "uint256"
        }
      ],
      "name": "swapTokenForExact0xB",
      "outputs": [],
      "stateMutability": "nonpayable",
      "type": "function"
    },
    {
      "inputs": [],
      "name": "tokenAddress",
      "outputs": [
        {
          "internalType": "address",
          "name": "",
          "type": "address"
        }
      ],
      "stateMutability": "view",
      "type": "function"
    },
    {
      "inputs": [
        {
          "internalType": "contract IERC20Upgradeable",
          "name": "token",
          "type": "address"
        }
      ],
      "name": "totalReleased",
      "outputs": [
        {
          "internalType": "uint256",
          "name": "",
          "type": "uint256"
        }
      ],
      "stateMutability": "view",
      "type": "function"
    },
    {
      "inputs": [],
      "name": "totalReleased",
      "outputs": [
        {
          "internalType": "uint256",
          "name": "",
          "type": "uint256"
        }
      ],
      "stateMutability": "view",
      "type": "function"
    },
    {
      "inputs": [],
      "name": "totalShares",
      "outputs": [
        {
          "internalType": "uint256",
          "name": "",
          "type": "uint256"
        }
      ],
      "stateMutability": "view",
      "type": "function"
    },
    {
      "inputs": [],
      "name": "uniswapV2Pair",
      "outputs": [
        {
          "internalType": "address",
          "name": "",
          "type": "address"
        }
      ],
      "stateMutability": "view",
      "type": "function"
    },
    {
      "inputs": [
        {
          "internalType": "uint256",
          "name": "value",
          "type": "uint256"
        }
      ],
      "name": "updateSwapFee",
      "outputs": [],
      "stateMutability": "nonpayable",
      "type": "function"
    },
    {
      "inputs": [
        {
          "internalType": "address payable",
          "name": "newPool",
          "type": "address"
        }
      ],
      "name": "updateSwapTaxPool",
      "outputs": [],
      "stateMutability": "nonpayable",
      "type": "function"
    },
    {
      "inputs": [
        {
          "internalType": "address",
          "name": "_newAddr",
          "type": "address"
        }
      ],
      "name": "updateUniswapV2Router",
      "outputs": [],
      "stateMutability": "nonpayable",
      "type": "function"
    },
    {
      "inputs": [],
      "name": "wrappedNative",
      "outputs": [
        {
          "internalType": "address",
          "name": "",
          "type": "address"
        }
      ],
      "stateMutability": "view",
      "type": "function"
    },
    {
      "stateMutability": "payable",
      "type": "receive"
    }
  ],
  "transactionHash": "0xbeaccc855abd09afc53516ed306bef4412d60cd87d5f0880e5652cefafcdc731",
  "args": [],
  "numDeployments": 3,
  "solcInputHash": "0a8f40f7cfa1681dede9c57d097cade8",
  "bytecode": "0x608060405234801561001057600080fd5b50613d5a806100206000396000f3fe6080604052600436106101b15760003560e01c80638b83209b116100e7578063c4d66de811610095578063eb6d3a1111610064578063eb6d3a111461057e578063ed9705da14610593578063f5c13653146105a6578063fd53fce0146105c657600080fd5b8063c4d66de8146104dd578063ce7c2ac2146104fd578063d79779b214610533578063e33b7de31461056957600080fd5b80638b83209b146103f45780638f6e53b7146104145780639852595c146104275780639d76ea581461045d578063b698f0441461047d578063bd7476781461049d578063bf16f65a146104bd57600080fd5b806348b750441161015f5780636e54a8a01161012e5780636e54a8a01461037457806374cefd8a1461039457806380be66cf146103b457806388e5249f146103d457600080fd5b806348b75044146102f457806349bd5a5e1461031457806365b8dbc0146103345780636a63f5ee1461035457600080fd5b80630584aecf146101f657806311eb47dc14610233578063144fa6d71461025357806319165587146102755780633268cc56146102955780633a98ef39146102b5578063406072a9146102d457600080fd5b366101f1577f6ef95f06320e7a25a04a175ca677b7052bdd97131872c2192525a629f51be77033346040516101e79291906139b5565b60405180910390a1005b600080fd5b34801561020257600080fd5b50606854610216906001600160a01b031681565b6040516001600160a01b0390911681526020015b60405180910390f35b34801561023f57600080fd5b50606c54610216906001600160a01b031681565b34801561025f57600080fd5b5061027361026e3660046136e7565b6105dc565b005b34801561028157600080fd5b506102736102903660046136e7565b610b32565b3480156102a157600080fd5b50606654610216906001600160a01b031681565b3480156102c157600080fd5b506033545b60405190815260200161022a565b3480156102e057600080fd5b506102c66102ef3660046138ea565b610c57565b34801561030057600080fd5b5061027361030f3660046138ea565b610c84565b34801561032057600080fd5b50606754610216906001600160a01b031681565b34801561034057600080fd5b5061027361034f3660046136e7565b610e43565b34801561036057600080fd5b5061027361036f3660046136e7565b610f54565b34801561038057600080fd5b5061027361038f366004613762565b611001565b3480156103a057600080fd5b506102736103af366004613762565b6112c0565b3480156103c057600080fd5b506102736103cf366004613762565b61162c565b3480156103e057600080fd5b506102736103ef366004613762565b611b42565b34801561040057600080fd5b5061021661040f366004613923565b611f84565b6102736104223660046137b3565b611fb4565b34801561043357600080fd5b506102c66104423660046136e7565b6001600160a01b031660009081526036602052604090205490565b34801561046957600080fd5b50606a54610216906001600160a01b031681565b34801561048957600080fd5b50610273610498366004613721565b6121c5565b3480156104a957600080fd5b506102c66104b83660046138ca565b6124fc565b3480156104c957600080fd5b506102736104d8366004613923565b6125ee565b3480156104e957600080fd5b506102736104f83660046136e7565b612686565b34801561050957600080fd5b506102c66105183660046136e7565b6001600160a01b031660009081526035602052604090205490565b34801561053f57600080fd5b506102c661054e3660046136e7565b6001600160a01b031660009081526038602052604090205490565b34801561057557600080fd5b506034546102c6565b34801561058a57600080fd5b5061021661285a565b6102736105a13660046137b3565b6128dc565b3480156105b257600080fd5b506102c66105c13660046138ca565b612acc565b3480156105d257600080fd5b506102c6606b5481565b606a546001600160a01b03163314806105ff57506068546001600160a01b031633145b6106245760405162461bcd60e51b815260040161061b90613a45565b60405180910390fd5b6001600160a01b0381166106715760405162461bcd60e51b81526020600482015260146024820152732722abafaa27a5a2a71d103d32b9379030b2323960611b604482015260640161061b565b606a80546001600160a01b03199081166001600160a01b03848116918217909355606980549092161790556065546040805163c45a015560e01b81529051600093929092169163c45a015591600480820192602092909190829003018186803b1580156106dd57600080fd5b505afa1580156106f1573d6000803e3d6000fd5b505050506040513d601f19601f820116820180604052508101906107159190613704565b606a54606554604080516339d94ae160e11b815290516001600160a01b039485169463c9c653969481169316916373b295c2916004808301926020929190829003018186803b15801561076757600080fd5b505afa15801561077b573d6000803e3d6000fd5b505050506040513d601f19601f8201168201806040525081019061079f9190613704565b6040518363ffffffff1660e01b81526004016107bc9291906139ce565b602060405180830381600087803b1580156107d657600080fd5b505af1925050508015610806575060408051601f3d908101601f1916820190925261080391810190613704565b60015b61098e57606560009054906101000a90046001600160a01b03166001600160a01b031663c45a01556040518163ffffffff1660e01b815260040160206040518083038186803b15801561085857600080fd5b505afa15801561086c573d6000803e3d6000fd5b505050506040513d601f19601f820116820180604052508101906108909190613704565b606a54606554604080516339d94ae160e11b815290516001600160a01b039485169463e6a439059481169316916373b295c2916004808301926020929190829003018186803b1580156108e257600080fd5b505afa1580156108f6573d6000803e3d6000fd5b505050506040513d601f19601f8201168201806040525081019061091a9190613704565b6040518363ffffffff1660e01b81526004016109379291906139ce565b60206040518083038186803b15801561094f57600080fd5b505afa158015610963573d6000803e3d6000fd5b505050506040513d601f19601f820116820180604052508101906109879190613704565b9050610b0f565b50606560009054906101000a90046001600160a01b03166001600160a01b031663c45a01556040518163ffffffff1660e01b815260040160206040518083038186803b1580156109dd57600080fd5b505afa1580156109f1573d6000803e3d6000fd5b505050506040513d601f19601f82011682018060405250810190610a159190613704565b606a54606554604080516339d94ae160e11b815290516001600160a01b039485169463e6a439059481169316916373b295c2916004808301926020929190829003018186803b158015610a6757600080fd5b505afa158015610a7b573d6000803e3d6000fd5b505050506040513d601f19601f82011682018060405250810190610a9f9190613704565b6040518363ffffffff1660e01b8152600401610abc9291906139ce565b60206040518083038186803b158015610ad457600080fd5b505afa158015610ae8573d6000803e3d6000fd5b505050506040513d601f19601f82011682018060405250810190610b0c9190613704565b90505b606780546001600160a01b0319166001600160a01b039290921691909117905550565b6001600160a01b038116600090815260356020526040902054610b675760405162461bcd60e51b815260040161061b90613a6d565b6000610b7260345490565b610b7c9047613c0a565b90506000610ba98383610ba4866001600160a01b031660009081526036602052604090205490565b612ba9565b905080610bc85760405162461bcd60e51b815260040161061b90613ab3565b6001600160a01b03831660009081526036602052604081208054839290610bf0908490613c0a565b925050819055508060346000828254610c099190613c0a565b90915550610c1990508382612bef565b7fdf20fd1e76bc69d672e4814fafb2c449bba3a5369d8359adf9e05e6fde87b0568382604051610c4a9291906139b5565b60405180910390a1505050565b6001600160a01b038083166000908152603960209081526040808320938516835292905220545b92915050565b6001600160a01b038116600090815260356020526040902054610cb95760405162461bcd60e51b815260040161061b90613a6d565b6001600160a01b0382166000908152603860205260408120546040516370a0823160e01b81523060048201526001600160a01b038516906370a082319060240160206040518083038186803b158015610d1157600080fd5b505afa158015610d25573d6000803e3d6000fd5b505050506040513d601f19601f82011682018060405250810190610d49919061393c565b610d539190613c0a565b90506000610d668383610ba48787610c57565b905080610d855760405162461bcd60e51b815260040161061b90613ab3565b6001600160a01b03808516600090815260396020908152604080832093871683529290529081208054839290610dbc908490613c0a565b90915550506001600160a01b03841660009081526038602052604081208054839290610de9908490613c0a565b90915550610dfa9050848483612d0d565b836001600160a01b03167f3be5b7a71e84ed12875d241991c70855ac5817d847039e17a9d895c1ceb0f18a8483604051610e359291906139b5565b60405180910390a250505050565b606a546001600160a01b0316331480610e6657506068546001600160a01b031633145b610e825760405162461bcd60e51b815260040161061b90613a45565b6065546001600160a01b0382811691161415610ef15760405162461bcd60e51b815260206004820152602860248201527f544b4e3a2054686520726f7574657220616c7265616479206861732074686174604482015267206164647265737360c01b606482015260840161061b565b606680546001600160a01b0383166001600160a01b0319918216811790925560658054909116821790556040805163c45a015560e01b815290516000929163c45a0155916004808301926020929190829003018186803b1580156106dd57600080fd5b606a546001600160a01b0316331480610f7757506068546001600160a01b031633145b610f935760405162461bcd60e51b815260040161061b90613a45565b6001600160a01b038116610fdf5760405162461bcd60e51b81526020600482015260136024820152722aa8222faba0a6261d103d32b9379030b2323960691b604482015260640161061b565b606c80546001600160a01b0319166001600160a01b0392909216919091179055565b606a546001600160a01b031633148061102457506068546001600160a01b031633145b6110405760405162461bcd60e51b815260040161061b90613a45565b606654604051636eb1769f60e11b815284916001600160a01b038088169263dd62ed3e926110759230929116906004016139ce565b60206040518083038186803b15801561108d57600080fd5b505afa1580156110a1573d6000803e3d6000fd5b505050506040513d601f19601f820116820180604052508101906110c5919061393c565b10156110d4576110d484612d63565b816110e160018686612acc565b10156110ff5760405162461bcd60e51b815260040161061b90613afe565b60006305f5e100606b54856111149190613c44565b61111e9190613c22565b606c5460405163a9059cbb60e01b81529192506001600160a01b038088169263a9059cbb9261115392169085906004016139b5565b602060405180830381600087803b15801561116d57600080fd5b505af1158015611181573d6000803e3d6000fd5b505050506040513d601f19601f820116820180604052508101906111a591906138ad565b5060006111b3866001612deb565b6065549091506000906001600160a01b03166338ed17396111d48589613c63565b87858c896040518663ffffffff1660e01b81526004016111f8959493929190613bce565b600060405180830381600087803b15801561121257600080fd5b505af1158015611226573d6000803e3d6000fd5b505050506040513d6000823e601f3d908101601f1916820160405261124e91908101906137e8565b9050600080516020613d2e8339815191528787606a60009054906101000a90046001600160a01b031684600186516112869190613c63565b8151811061129657611296613cdb565b60200260200101516040516112ae94939291906139e8565b60405180910390a15050505050505050565b606a546001600160a01b03163314806112e357506068546001600160a01b031633145b6112ff5760405162461bcd60e51b815260040161061b90613a45565b606654604051636eb1769f60e11b815283916001600160a01b038088169263dd62ed3e926113349230929116906004016139ce565b60206040518083038186803b15801561134c57600080fd5b505afa158015611360573d6000803e3d6000fd5b505050506040513d601f19601f82011682018060405250810190611384919061393c565b10156113935761139384612d63565b816113a0600186866124fc565b11156113ea5760405162461bcd60e51b8152602060048201526019602482015278125394d551919250d251539517d25394155517d05353d55395603a1b604482015260640161061b565b60006113f7856001612deb565b606554604051634401edf760e11b81529192506000916001600160a01b0390911690638803dbee90611435908890889087908d908a90600401613bce565b600060405180830381600087803b15801561144f57600080fd5b505af1158015611463573d6000803e3d6000fd5b505050506040513d6000823e601f3d908101601f1916820160405261148b91908101906137e8565b90506000816000815181106114a2576114a2613cdb565b6020026020010151905060006305f5e100606b54836114c19190613c44565b6114cb9190613c22565b606c5460405163a9059cbb60e01b81529192506001600160a01b03808b169263a9059cbb9261150092169085906004016139b5565b602060405180830381600087803b15801561151a57600080fd5b505af115801561152e573d6000803e3d6000fd5b505050506040513d601f19601f8201168201806040525081019061155291906138ad565b506001600160a01b03881663a9059cbb8a8361156e868b613c63565b6115789190613c63565b6040518363ffffffff1660e01b81526004016115959291906139b5565b602060405180830381600087803b1580156115af57600080fd5b505af11580156115c3573d6000803e3d6000fd5b505050506040513d601f19601f820116820180604052508101906115e791906138ad565b50606a54604051600080516020613d2e83398151915291611619918b9186916001600160a01b03909116908c906139e8565b60405180910390a1505050505050505050565b606a546001600160a01b031633148061164f57506068546001600160a01b031633145b61166b5760405162461bcd60e51b815260040161061b90613a45565b606954606654604051636eb1769f60e11b815284926001600160a01b039081169263dd62ed3e926116a292309216906004016139ce565b60206040518083038186803b1580156116ba57600080fd5b505afa1580156116ce573d6000803e3d6000fd5b505050506040513d601f19601f820116820180604052508101906116f2919061393c565b10156117845760695460665460405163095ea7b360e01b81526001600160a01b039283169263095ea7b39261173092911690600019906004016139b5565b602060405180830381600087803b15801561174a57600080fd5b505af115801561175e573d6000803e3d6000fd5b505050506040513d601f19601f8201168201806040525081019061178291906138ad565b505b81611791600086866124fc565b11156117db5760405162461bcd60e51b8152602060048201526019602482015278125394d551919250d251539517d25394155517d05353d55395603a1b604482015260640161061b565b60006117e8856000612deb565b90506060606560009054906101000a90046001600160a01b03166001600160a01b03166373b295c26040518163ffffffff1660e01b815260040160206040518083038186803b15801561183a57600080fd5b505afa15801561184e573d6000803e3d6000fd5b505050506040513d601f19601f820116820180604052508101906118729190613704565b6001600160a01b0316866001600160a01b0316141561192057606554604051633d2120b560e11b81526001600160a01b0390911690637a42416a906118c3908890889087908d908a90600401613bce565b600060405180830381600087803b1580156118dd57600080fd5b505af11580156118f1573d6000803e3d6000fd5b505050506040513d6000823e601f3d908101601f1916820160405261191991908101906137e8565b90506119b1565b606554604051634401edf760e11b81526001600160a01b0390911690638803dbee90611958908890889087908d908a90600401613bce565b600060405180830381600087803b15801561197257600080fd5b505af1158015611986573d6000803e3d6000fd5b505050506040513d6000823e601f3d908101601f191682016040526119ae91908101906137e8565b90505b6000816000815181106119c6576119c6613cdb565b6020026020010151905060006305f5e100606b54836119e59190613c44565b6119ef9190613c22565b606954606c5460405163a9059cbb60e01b81529293506001600160a01b039182169263a9059cbb92611a2792169085906004016139b5565b602060405180830381600087803b158015611a4157600080fd5b505af1158015611a55573d6000803e3d6000fd5b505050506040513d601f19601f82011682018060405250810190611a7991906138ad565b506069546001600160a01b031663a9059cbb8a83611a97868b613c63565b611aa19190613c63565b6040518363ffffffff1660e01b8152600401611abe9291906139b5565b602060405180830381600087803b158015611ad857600080fd5b505af1158015611aec573d6000803e3d6000fd5b505050506040513d601f19601f82011682018060405250810190611b1091906138ad565b50606a54604051600080516020613d2e83398151915291611619916001600160a01b039091169085908c908c906139e8565b606a546001600160a01b0316331480611b6557506068546001600160a01b031633145b611b815760405162461bcd60e51b815260040161061b90613a45565b606954606654604051636eb1769f60e11b815285926001600160a01b039081169263dd62ed3e92611bb892309216906004016139ce565b60206040518083038186803b158015611bd057600080fd5b505afa158015611be4573d6000803e3d6000fd5b505050506040513d601f19601f82011682018060405250810190611c08919061393c565b1015611c9a5760695460665460405163095ea7b360e01b81526001600160a01b039283169263095ea7b392611c4692911690600019906004016139b5565b602060405180830381600087803b158015611c6057600080fd5b505af1158015611c74573d6000803e3d6000fd5b505050506040513d601f19601f82011682018060405250810190611c9891906138ad565b505b81611ca760008686612acc565b1015611cc55760405162461bcd60e51b815260040161061b90613afe565b60006305f5e100606b5485611cda9190613c44565b611ce49190613c22565b606954606c5460405163a9059cbb60e01b81529293506001600160a01b039182169263a9059cbb92611d1c92169085906004016139b5565b602060405180830381600087803b158015611d3657600080fd5b505af1158015611d4a573d6000803e3d6000fd5b505050506040513d601f19601f82011682018060405250810190611d6e91906138ad565b506000611d7c866000612deb565b90506060606560009054906101000a90046001600160a01b03166001600160a01b03166373b295c26040518163ffffffff1660e01b815260040160206040518083038186803b158015611dce57600080fd5b505afa158015611de2573d6000803e3d6000fd5b505050506040513d601f19601f82011682018060405250810190611e069190613704565b6001600160a01b0316876001600160a01b03161415611ebb576065546001600160a01b031663676528d1611e3a8589613c63565b87858c896040518663ffffffff1660e01b8152600401611e5e959493929190613bce565b600060405180830381600087803b158015611e7857600080fd5b505af1158015611e8c573d6000803e3d6000fd5b505050506040513d6000823e601f3d908101601f19168201604052611eb491908101906137e8565b9050611f53565b6065546001600160a01b03166338ed1739611ed68589613c63565b87858c896040518663ffffffff1660e01b8152600401611efa959493929190613bce565b600060405180830381600087803b158015611f1457600080fd5b505af1158015611f28573d6000803e3d6000fd5b505050506040513d6000823e601f3d908101601f19168201604052611f5091908101906137e8565b90505b606a548151600080516020613d2e833981519152916001600160a01b03169088908a90859061128690600190613c63565b600060378281548110611f9957611f99613cdb565b6000918252602090912001546001600160a01b031692915050565b606a546001600160a01b0316331480611fd757506068546001600160a01b031633145b611ff35760405162461bcd60e51b815260040161061b90613a45565b3482612008600161200261285a565b84612acc565b10156120265760405162461bcd60e51b815260040161061b90613afe565b60006305f5e100606b548361203b9190613c44565b6120459190613c22565b606c546040519192506001600160a01b03169082156108fc029083906000818181858888f19350505050158015612080573d6000803e3d6000fd5b50600061209561208e61285a565b6001612deb565b6065549091506000906001600160a01b031663a2a1623d6120b68587613c63565b88858b8a6040518663ffffffff1660e01b81526004016120d99493929190613b99565b6000604051808303818588803b1580156120f257600080fd5b505af1158015612106573d6000803e3d6000fd5b50505050506040513d6000823e601f3d908101601f1916820160405261212f91908101906137e8565b606a5481519192507fa979c0b10cb04562c5689b2bb7868c45ff45a80db806e338eae84994215ba8059186916001600160a01b031690849061217390600190613c63565b8151811061218357612183613cdb565b60200260200101516040516121b4939291909283526001600160a01b03919091166020830152604082015260600190565b60405180910390a150505050505050565b606a546001600160a01b03163314806121e857506068546001600160a01b031633145b6122045760405162461bcd60e51b815260040161061b90613a45565b606954606654604051636eb1769f60e11b815283926001600160a01b039081169263dd62ed3e9261223b92309216906004016139ce565b60206040518083038186803b15801561225357600080fd5b505afa158015612267573d6000803e3d6000fd5b505050506040513d601f19601f8201168201806040525081019061228b919061393c565b101561231d5760695460665460405163095ea7b360e01b81526001600160a01b039283169263095ea7b3926122c992911690600019906004016139b5565b602060405180830381600087803b1580156122e357600080fd5b505af11580156122f7573d6000803e3d6000fd5b505050506040513d601f19601f8201168201806040525081019061231b91906138ad565b505b600061232a836000612deb565b90506060606560009054906101000a90046001600160a01b03166001600160a01b03166373b295c26040518163ffffffff1660e01b815260040160206040518083038186803b15801561237c57600080fd5b505afa158015612390573d6000803e3d6000fd5b505050506040513d601f19601f820116820180604052508101906123b49190613704565b6001600160a01b0316846001600160a01b031614156124635760655460405163676528d160e01b81526001600160a01b039091169063676528d19061240690869060009087908b904290600401613bce565b600060405180830381600087803b15801561242057600080fd5b505af1158015612434573d6000803e3d6000fd5b505050506040513d6000823e601f3d908101601f1916820160405261245c91908101906137e8565b90506124f5565b6065546040516338ed173960e01b81526001600160a01b03909116906338ed17399061249c90869060009087908b904290600401613bce565b600060405180830381600087803b1580156124b657600080fd5b505af11580156124ca573d6000803e3d6000fd5b505050506040513d6000823e601f3d908101601f191682016040526124f291908101906137e8565b90505b5050505050565b6000806125098486612deb565b6065546040516307c0329d60e21b81529192506000916001600160a01b0390911690631f00ca74906125419087908690600401613b80565b60006040518083038186803b15801561255957600080fd5b505afa15801561256d573d6000803e3d6000fd5b505050506040513d6000823e601f3d908101601f1916820160405261259591908101906137e8565b90506000816000815181106125ac576125ac613cdb565b602002602001015190506305f5e100606b546305f5e1006125cd9190613c0a565b6125d79083613c44565b6125e19190613c22565b93505050505b9392505050565b606a546001600160a01b031633148061261157506068546001600160a01b031633145b61262d5760405162461bcd60e51b815260040161061b90613a45565b6305f5e1008111156126815760405162461bcd60e51b815260206004820152601960248201527f464545533a207377617020657863656564696e67203130302500000000000000604482015260640161061b565b606b55565b600054610100900460ff166126a15760005460ff16156126a5565b303b155b6127085760405162461bcd60e51b815260206004820152602e60248201527f496e697469616c697a61626c653a20636f6e747261637420697320616c72656160448201526d191e481a5b9a5d1a585b1a5e995960921b606482015260840161061b565b600054610100900460ff1615801561272a576000805461ffff19166101011790555b6001600160a01b03821661276e5760405162461bcd60e51b815260206004820152600b60248201526a524f55544552205a45524f60a81b604482015260640161061b565b6040805160018082528183019092526000916020808301908036833701905050905033816000815181106127a4576127a4613cdb565b6001600160a01b0392909216602092830291909101909101526040805160018082528183019092526000918160200160208202803683370190505090506001816000815181106127f6576127f6613cdb565b60200260200101818152505061280c828261314f565b5050606680546001600160a01b0384166001600160a01b0319918216811790925560658054821690921790915560688054909116331790558015612856576000805461ff00191690555b5050565b606554604080516339d94ae160e11b815290516000926001600160a01b0316916373b295c2916004808301926020929190829003018186803b15801561289f57600080fd5b505afa1580156128b3573d6000803e3d6000fd5b505050506040513d601f19601f820116820180604052508101906128d79190613704565b905090565b606a546001600160a01b03163314806128ff57506068546001600160a01b031633145b61291b5760405162461bcd60e51b815260040161061b90613a45565b600061292861208e61285a565b606554604051638a657e6760e01b81529192506000916001600160a01b0390911690638a657e6790349061296690889087908b908a90600401613b99565b6000604051808303818588803b15801561297f57600080fd5b505af1158015612993573d6000803e3d6000fd5b50505050506040513d6000823e601f3d908101601f191682016040526129bc91908101906137e8565b90506000816000815181106129d3576129d3613cdb565b6020026020010151905060006305f5e100606b54836129f29190613c44565b6129fc9190613c22565b606c546040519192506001600160a01b03169082156108fc029083906000818181858888f19350505050158015612a37573d6000803e3d6000fd5b506001600160a01b0387166108fc82612a508534613c63565b612a5a9190613c63565b6040518115909202916000818181858888f19350505050158015612a82573d6000803e3d6000fd5b50606a54604080518481526001600160a01b03909216602083015281018790527fa979c0b10cb04562c5689b2bb7868c45ff45a80db806e338eae84994215ba805906060016121b4565b600080612ad98486612deb565b60655460405163d06ca61f60e01b81529192506000916001600160a01b039091169063d06ca61f90612b119087908690600401613b80565b60006040518083038186803b158015612b2957600080fd5b505afa158015612b3d573d6000803e3d6000fd5b505050506040513d6000823e601f3d908101601f19168201604052612b6591908101906137e8565b905060008160018351612b789190613c63565b81518110612b8857612b88613cdb565b602002602001015190506305f5e100606b546305f5e1006125cd9190613c63565b6033546001600160a01b03841660009081526035602052604081205490918391612bd39086613c44565b612bdd9190613c22565b612be79190613c63565b949350505050565b80471015612c3f5760405162461bcd60e51b815260206004820152601d60248201527f416464726573733a20696e73756666696369656e742062616c616e6365000000604482015260640161061b565b6000826001600160a01b03168260405160006040518083038185875af1925050503d8060008114612c8c576040519150601f19603f3d011682016040523d82523d6000602084013e612c91565b606091505b5050905080612d085760405162461bcd60e51b815260206004820152603a60248201527f416464726573733a20756e61626c6520746f2073656e642076616c75652c207260448201527f6563697069656e74206d61792068617665207265766572746564000000000000606482015260840161061b565b505050565b612d088363a9059cbb60e01b8484604051602401612d2c9291906139b5565b60408051601f198184030181529190526020810180516001600160e01b03166001600160e01b031990931692909217909152613180565b60665460405163095ea7b360e01b815282916001600160a01b038084169263095ea7b392612d99921690600019906004016139b5565b602060405180830381600087803b158015612db357600080fd5b505af1158015612dc7573d6000803e3d6000fd5b505050506040513d601f19601f82011682018060405250810190612d0891906138ad565b606554604080516339d94ae160e11b815290516060926001600160a01b0316916373b295c2916004808301926020929190829003018186803b158015612e3057600080fd5b505afa158015612e44573d6000803e3d6000fd5b505050506040513d601f19601f82011682018060405250810190612e689190613704565b6001600160a01b0316836001600160a01b03161415612f90576040805160028082526060820183526000926020830190803683370190505090508215612f12578381600081518110612ebc57612ebc613cdb565b6001600160a01b039283166020918202929092010152606a54825191169082906001908110612eed57612eed613cdb565b60200260200101906001600160a01b031690816001600160a01b031681525050612f89565b606a5481516001600160a01b03909116908290600090612f3457612f34613cdb565b60200260200101906001600160a01b031690816001600160a01b0316815250508381600181518110612f6857612f68613cdb565b60200260200101906001600160a01b031690816001600160a01b0316815250505b9050610c7e565b60408051600380825260808201909252600091602082016060803683375050606554604080516339d94ae160e11b815290519394506001600160a01b03909116926373b295c292506004808301926020929190829003018186803b158015612ff757600080fd5b505afa15801561300b573d6000803e3d6000fd5b505050506040513d601f19601f8201168201806040525081019061302f9190613704565b8160018151811061304257613042613cdb565b60200260200101906001600160a01b031690816001600160a01b03168152505082156130d257838160008151811061307c5761307c613cdb565b6001600160a01b039283166020918202929092010152606a548251911690829060029081106130ad576130ad613cdb565b60200260200101906001600160a01b031690816001600160a01b0316815250506125e7565b606a5481516001600160a01b039091169082906000906130f4576130f4613cdb565b60200260200101906001600160a01b031690816001600160a01b031681525050838160028151811061312857613128613cdb565b60200260200101906001600160a01b031690816001600160a01b0316815250509392505050565b600054610100900460ff166131765760405162461bcd60e51b815260040161061b90613b35565b6128568282613252565b60006131d5826040518060400160405280602081526020017f5361666545524332303a206c6f772d6c6576656c2063616c6c206661696c6564815250856001600160a01b03166133909092919063ffffffff16565b805190915015612d0857808060200190518101906131f391906138ad565b612d085760405162461bcd60e51b815260206004820152602a60248201527f5361666545524332303a204552433230206f7065726174696f6e20646964206e6044820152691bdd081cdd58d8d9595960b21b606482015260840161061b565b600054610100900460ff166132795760405162461bcd60e51b815260040161061b90613b35565b80518251146132e55760405162461bcd60e51b815260206004820152603260248201527f5061796d656e7453706c69747465723a2070617965657320616e6420736861726044820152710cae640d8cadccee8d040dad2e6dac2e8c6d60731b606482015260840161061b565b60008251116133365760405162461bcd60e51b815260206004820152601a60248201527f5061796d656e7453706c69747465723a206e6f20706179656573000000000000604482015260640161061b565b60005b8251811015612d085761337e83828151811061335757613357613cdb565b602002602001015183838151811061337157613371613cdb565b602002602001015161339f565b8061338881613caa565b915050613339565b6060612be7848460008561357d565b6001600160a01b03821661340a5760405162461bcd60e51b815260206004820152602c60248201527f5061796d656e7453706c69747465723a206163636f756e74206973207468652060448201526b7a65726f206164647265737360a01b606482015260840161061b565b6000811161345a5760405162461bcd60e51b815260206004820152601d60248201527f5061796d656e7453706c69747465723a20736861726573206172652030000000604482015260640161061b565b6001600160a01b038216600090815260356020526040902054156134d45760405162461bcd60e51b815260206004820152602b60248201527f5061796d656e7453706c69747465723a206163636f756e7420616c726561647960448201526a206861732073686172657360a81b606482015260840161061b565b60378054600181019091557f42a7b7dd785cd69714a189dffb3fd7d7174edc9ece837694ce50f7078f7c31ae0180546001600160a01b0319166001600160a01b038416908117909155600090815260356020526040902081905560335461353c908290613c0a565b6033556040517f40c340f65e17194d14ddddb073d3c9f888e3cb52b5aae0c6c7706b4fbc905fac9061357190849084906139b5565b60405180910390a15050565b6060824710156135de5760405162461bcd60e51b815260206004820152602660248201527f416464726573733a20696e73756666696369656e742062616c616e636520666f6044820152651c8818d85b1b60d21b606482015260840161061b565b6001600160a01b0385163b6136355760405162461bcd60e51b815260206004820152601d60248201527f416464726573733a2063616c6c20746f206e6f6e2d636f6e7472616374000000604482015260640161061b565b600080866001600160a01b031685876040516136519190613999565b60006040518083038185875af1925050503d806000811461368e576040519150601f19603f3d011682016040523d82523d6000602084013e613693565b606091505b50915091506136a38282866136ae565b979650505050505050565b606083156136bd5750816125e7565b8251156136cd5782518084602001fd5b8160405162461bcd60e51b815260040161061b9190613a12565b6000602082840312156136f957600080fd5b81356125e781613d07565b60006020828403121561371657600080fd5b81516125e781613d07565b60008060006060848603121561373657600080fd5b833561374181613d07565b9250602084013561375181613d07565b929592945050506040919091013590565b600080600080600060a0868803121561377a57600080fd5b853561378581613d07565b9450602086013561379581613d07565b94979496505050506040830135926060810135926080909101359150565b6000806000606084860312156137c857600080fd5b83356137d381613d07565b95602085013595506040909401359392505050565b600060208083850312156137fb57600080fd5b825167ffffffffffffffff8082111561381357600080fd5b818501915085601f83011261382757600080fd5b81518181111561383957613839613cf1565b8060051b604051601f19603f8301168101818110858211171561385e5761385e613cf1565b604052828152858101935084860182860187018a101561387d57600080fd5b600095505b838610156138a0578051855260019590950194938601938601613882565b5098975050505050505050565b6000602082840312156138bf57600080fd5b81516125e781613d1f565b6000806000606084860312156138df57600080fd5b833561374181613d1f565b600080604083850312156138fd57600080fd5b823561390881613d07565b9150602083013561391881613d07565b809150509250929050565b60006020828403121561393557600080fd5b5035919050565b60006020828403121561394e57600080fd5b5051919050565b600081518084526020808501945080840160005b8381101561398e5781516001600160a01b031687529582019590820190600101613969565b509495945050505050565b600082516139ab818460208701613c7a565b9190910192915050565b6001600160a01b03929092168252602082015260400190565b6001600160a01b0392831681529116602082015260400190565b6001600160a01b039485168152602081019390935292166040820152606081019190915260800190565b6020815260008251806020840152613a31816040850160208701613c7a565b601f01601f19169190910160400192915050565b6020808252600e908201526d4163636573732044656e6965642160901b604082015260600190565b60208082526026908201527f5061796d656e7453706c69747465723a206163636f756e7420686173206e6f2060408201526573686172657360d01b606082015260800190565b6020808252602b908201527f5061796d656e7453706c69747465723a206163636f756e74206973206e6f742060408201526a191d59481c185e5b595b9d60aa1b606082015260800190565b6020808252601a908201527f494e53554646494349454e545f4f55545055545f414d4f554e54000000000000604082015260600190565b6020808252602b908201527f496e697469616c697a61626c653a20636f6e7472616374206973206e6f74206960408201526a6e697469616c697a696e6760a81b606082015260800190565b828152604060208201526000612be76040830184613955565b848152608060208201526000613bb26080830186613955565b6001600160a01b03949094166040830152506060015292915050565b85815284602082015260a060408201526000613bed60a0830186613955565b6001600160a01b0394909416606083015250608001529392505050565b60008219821115613c1d57613c1d613cc5565b500190565b600082613c3f57634e487b7160e01b600052601260045260246000fd5b500490565b6000816000190483118215151615613c5e57613c5e613cc5565b500290565b600082821015613c7557613c75613cc5565b500390565b60005b83811015613c95578181015183820152602001613c7d565b83811115613ca4576000848401525b50505050565b6000600019821415613cbe57613cbe613cc5565b5060010190565b634e487b7160e01b600052601160045260246000fd5b634e487b7160e01b600052603260045260246000fd5b634e487b7160e01b600052604160045260246000fd5b6001600160a01b0381168114613d1c57600080fd5b50565b8015158114613d1c57600080fdfedb587d878116df0bdd4fe154699aa2c5f439da001cc811dfd05d9f589fc5a8eea164736f6c6343000807000a",
  "devdoc": {
    "kind": "dev",
    "methods": {
      "payee(uint256)": {
        "details": "Getter for the address of the payee number `index`."
      },
      "release(address)": {
        "details": "Triggers a transfer to `account` of the amount of Ether they are owed, according to their percentage of the total shares and their previous withdrawals."
      },
      "release(address,address)": {
        "details": "Triggers a transfer to `account` of the amount of `token` tokens they are owed, according to their percentage of the total shares and their previous withdrawals. `token` must be the address of an IERC20 contract."
      },
      "released(address)": {
        "details": "Getter for the amount of Ether already released to a payee."
      },
      "released(address,address)": {
        "details": "Getter for the amount of `token` tokens already released to a payee. `token` should be the address of an IERC20 contract."
      },
      "shares(address)": {
        "details": "Getter for the amount of shares held by an account."
      },
      "totalReleased()": {
        "details": "Getter for the total amount of Ether already released."
      },
      "totalReleased(address)": {
        "details": "Getter for the total amount of `token` already released. `token` should be the address of an IERC20 contract."
      },
      "totalShares()": {
        "details": "Getter for the total shares held by payees."
      }
    },
    "version": 1
  },
  "userdoc": {
    "kind": "user",
    "methods": {},
    "version": 1
  },
  "storageLayout": {
    "storage": [
      {
        "astId": 598,
        "contract": "contracts/dependencies/LiquidityRouter.sol:LiquidityRouter",
        "label": "_initialized",
        "offset": 0,
        "slot": "0",
        "type": "t_bool"
      },
      {
        "astId": 601,
        "contract": "contracts/dependencies/LiquidityRouter.sol:LiquidityRouter",
        "label": "_initializing",
        "offset": 1,
        "slot": "0",
        "type": "t_bool"
      },
      {
        "astId": 1889,
        "contract": "contracts/dependencies/LiquidityRouter.sol:LiquidityRouter",
        "label": "__gap",
        "offset": 0,
        "slot": "1",
        "type": "t_array(t_uint256)50_storage"
      },
      {
        "astId": 163,
        "contract": "contracts/dependencies/LiquidityRouter.sol:LiquidityRouter",
        "label": "_totalShares",
        "offset": 0,
        "slot": "51",
        "type": "t_uint256"
      },
      {
        "astId": 165,
        "contract": "contracts/dependencies/LiquidityRouter.sol:LiquidityRouter",
        "label": "_totalReleased",
        "offset": 0,
        "slot": "52",
        "type": "t_uint256"
      },
      {
        "astId": 169,
        "contract": "contracts/dependencies/LiquidityRouter.sol:LiquidityRouter",
        "label": "_shares",
        "offset": 0,
        "slot": "53",
        "type": "t_mapping(t_address,t_uint256)"
      },
      {
        "astId": 173,
        "contract": "contracts/dependencies/LiquidityRouter.sol:LiquidityRouter",
        "label": "_released",
        "offset": 0,
        "slot": "54",
        "type": "t_mapping(t_address,t_uint256)"
      },
      {
        "astId": 176,
        "contract": "contracts/dependencies/LiquidityRouter.sol:LiquidityRouter",
        "label": "_payees",
        "offset": 0,
        "slot": "55",
        "type": "t_array(t_address)dyn_storage"
      },
      {
        "astId": 181,
        "contract": "contracts/dependencies/LiquidityRouter.sol:LiquidityRouter",
        "label": "_erc20TotalReleased",
        "offset": 0,
        "slot": "56",
        "type": "t_mapping(t_contract(IERC20Upgradeable)1356,t_uint256)"
      },
      {
        "astId": 188,
        "contract": "contracts/dependencies/LiquidityRouter.sol:LiquidityRouter",
        "label": "_erc20Released",
        "offset": 0,
        "slot": "57",
        "type": "t_mapping(t_contract(IERC20Upgradeable)1356,t_mapping(t_address,t_uint256))"
      },
      {
        "astId": 590,
        "contract": "contracts/dependencies/LiquidityRouter.sol:LiquidityRouter",
        "label": "__gap",
        "offset": 0,
        "slot": "58",
        "type": "t_array(t_uint256)43_storage"
      },
      {
        "astId": 6220,
        "contract": "contracts/dependencies/LiquidityRouter.sol:LiquidityRouter",
        "label": "uniswapV2Router",
        "offset": 0,
        "slot": "101",
        "type": "t_contract(IJoeRouter02)8002"
      },
      {
        "astId": 6222,
        "contract": "contracts/dependencies/LiquidityRouter.sol:LiquidityRouter",
        "label": "routerAddress",
        "offset": 0,
        "slot": "102",
        "type": "t_address"
      },
      {
        "astId": 6224,
        "contract": "contracts/dependencies/LiquidityRouter.sol:LiquidityRouter",
        "label": "uniswapV2Pair",
        "offset": 0,
        "slot": "103",
        "type": "t_address"
      },
      {
        "astId": 6226,
        "contract": "contracts/dependencies/LiquidityRouter.sol:LiquidityRouter",
        "label": "admin0xB",
        "offset": 0,
        "slot": "104",
        "type": "t_address_payable"
      },
      {
        "astId": 6229,
        "contract": "contracts/dependencies/LiquidityRouter.sol:LiquidityRouter",
        "label": "token",
        "offset": 0,
        "slot": "105",
        "type": "t_contract(IERC20)2517"
      },
      {
        "astId": 6231,
        "contract": "contracts/dependencies/LiquidityRouter.sol:LiquidityRouter",
        "label": "tokenAddress",
        "offset": 0,
        "slot": "106",
        "type": "t_address"
      },
      {
        "astId": 6233,
        "contract": "contracts/dependencies/LiquidityRouter.sol:LiquidityRouter",
        "label": "swapTaxFee",
        "offset": 0,
        "slot": "107",
        "type": "t_uint256"
      },
      {
        "astId": 6235,
        "contract": "contracts/dependencies/LiquidityRouter.sol:LiquidityRouter",
        "label": "swapTaxPool",
        "offset": 0,
        "slot": "108",
        "type": "t_address"
      }
    ],
    "types": {
      "t_address": {
        "encoding": "inplace",
        "label": "address",
        "numberOfBytes": "20"
      },
      "t_address_payable": {
        "encoding": "inplace",
        "label": "address payable",
        "numberOfBytes": "20"
      },
      "t_array(t_address)dyn_storage": {
        "base": "t_address",
        "encoding": "dynamic_array",
        "label": "address[]",
        "numberOfBytes": "32"
      },
      "t_array(t_uint256)43_storage": {
        "base": "t_uint256",
        "encoding": "inplace",
        "label": "uint256[43]",
        "numberOfBytes": "1376"
      },
      "t_array(t_uint256)50_storage": {
        "base": "t_uint256",
        "encoding": "inplace",
        "label": "uint256[50]",
        "numberOfBytes": "1600"
      },
      "t_bool": {
        "encoding": "inplace",
        "label": "bool",
        "numberOfBytes": "1"
      },
      "t_contract(IERC20)2517": {
        "encoding": "inplace",
        "label": "contract IERC20",
        "numberOfBytes": "20"
      },
      "t_contract(IERC20Upgradeable)1356": {
        "encoding": "inplace",
        "label": "contract IERC20Upgradeable",
        "numberOfBytes": "20"
      },
      "t_contract(IJoeRouter02)8002": {
        "encoding": "inplace",
        "label": "contract IJoeRouter02",
        "numberOfBytes": "20"
      },
      "t_mapping(t_address,t_uint256)": {
        "encoding": "mapping",
        "key": "t_address",
        "label": "mapping(address => uint256)",
        "numberOfBytes": "32",
        "value": "t_uint256"
      },
      "t_mapping(t_contract(IERC20Upgradeable)1356,t_mapping(t_address,t_uint256))": {
        "encoding": "mapping",
        "key": "t_contract(IERC20Upgradeable)1356",
        "label": "mapping(contract IERC20Upgradeable => mapping(address => uint256))",
        "numberOfBytes": "32",
        "value": "t_mapping(t_address,t_uint256)"
      },
      "t_mapping(t_contract(IERC20Upgradeable)1356,t_uint256)": {
        "encoding": "mapping",
        "key": "t_contract(IERC20Upgradeable)1356",
        "label": "mapping(contract IERC20Upgradeable => uint256)",
        "numberOfBytes": "32",
        "value": "t_uint256"
      },
      "t_uint256": {
        "encoding": "inplace",
        "label": "uint256",
        "numberOfBytes": "32"
      }
    }
  }
}