{
  "address": "0x4153153cD7bf7EA865aFa4019F7641ca0B36456C",
  "abi": [
    {
      "anonymous": false,
      "inputs": [
        {
          "indexed": false,
          "internalType": "address",
          "name": "tokenIn",
          "type": "address"
        },
        {
          "indexed": false,
          "internalType": "uint256",
          "name": "amountIn",
          "type": "uint256"
        },
        {
          "indexed": false,
          "internalType": "address",
          "name": "tokenOut",
          "type": "address"
        },
        {
          "indexed": false,
          "internalType": "uint256",
          "name": "amountOut",
          "type": "uint256"
        }
      ],
      "name": "Swapped",
      "type": "event"
    },
    {
      "inputs": [],
      "name": "admin0xB",
      "outputs": [
        {
          "internalType": "address",
          "name": "",
          "type": "address"
        }
      ],
      "stateMutability": "view",
      "type": "function"
    },
    {
      "inputs": [
        {
          "internalType": "bool",
          "name": "is0xBOut",
          "type": "bool"
        },
        {
          "internalType": "address",
          "name": "targetToken",
          "type": "address"
        },
        {
          "internalType": "uint256",
          "name": "outputAmount",
          "type": "uint256"
        }
      ],
      "name": "getInputAmount",
      "outputs": [
        {
          "internalType": "uint256[]",
          "name": "",
          "type": "uint256[]"
        }
      ],
      "stateMutability": "view",
      "type": "function"
    },
    {
      "inputs": [
        {
          "internalType": "bool",
          "name": "is0xBOut",
          "type": "bool"
        },
        {
          "internalType": "address",
          "name": "targetToken",
          "type": "address"
        },
        {
          "internalType": "uint256",
          "name": "inputAmount",
          "type": "uint256"
        }
      ],
      "name": "getOutputAmount",
      "outputs": [
        {
          "internalType": "uint256[]",
          "name": "",
          "type": "uint256[]"
        }
      ],
      "stateMutability": "view",
      "type": "function"
    },
    {
      "inputs": [
        {
          "internalType": "address",
          "name": "_router",
          "type": "address"
        }
      ],
      "name": "initialize",
      "outputs": [],
      "stateMutability": "nonpayable",
      "type": "function"
    },
    {
      "inputs": [],
      "name": "routerAddress",
      "outputs": [
        {
          "internalType": "address",
          "name": "",
          "type": "address"
        }
      ],
      "stateMutability": "view",
      "type": "function"
    },
    {
      "inputs": [
        {
          "internalType": "address",
          "name": "_token",
          "type": "address"
        }
      ],
      "name": "setToken",
      "outputs": [],
      "stateMutability": "nonpayable",
      "type": "function"
    },
    {
      "inputs": [
        {
          "internalType": "address",
          "name": "outTokenAddr",
          "type": "address"
        },
        {
          "internalType": "address",
          "name": "receiver",
          "type": "address"
        },
        {
          "internalType": "uint256",
          "name": "amountIn",
          "type": "uint256"
        }
      ],
      "name": "swapExact0xBForToken",
      "outputs": [],
      "stateMutability": "nonpayable",
      "type": "function"
    },
    {
      "inputs": [
        {
          "internalType": "address",
          "name": "inTokenAddr",
          "type": "address"
        },
        {
          "internalType": "address",
          "name": "receiver",
          "type": "address"
        },
        {
          "internalType": "uint256",
          "name": "amountIn",
          "type": "uint256"
        }
      ],
      "name": "swapExactTokenFor0xB",
      "outputs": [],
      "stateMutability": "nonpayable",
      "type": "function"
    },
    {
      "inputs": [],
      "name": "token",
      "outputs": [
        {
          "internalType": "address",
          "name": "",
          "type": "address"
        }
      ],
      "stateMutability": "view",
      "type": "function"
    },
    {
      "inputs": [],
      "name": "uniswapV2Pair",
      "outputs": [
        {
          "internalType": "address",
          "name": "",
          "type": "address"
        }
      ],
      "stateMutability": "view",
      "type": "function"
    },
    {
      "inputs": [
        {
          "internalType": "address",
          "name": "_newAddr",
          "type": "address"
        }
      ],
      "name": "updateUniswapV2Router",
      "outputs": [],
      "stateMutability": "nonpayable",
      "type": "function"
    }
  ],
  "transactionHash": "0xff25da76d4dc2e0d919f665c49f704e57e0cfdb80fb9277a25de0b6180c2f90a",
  "args": [],
  "numDeployments": 4,
  "solcInputHash": "f1ab5f70258e6499561fb160f9080406",
  "bytecode": "0x608060405234801561001057600080fd5b50611420806100206000396000f3fe608060405234801561001057600080fd5b50600436106100a95760003560e01c80639caf326f116100715780639caf326f1461012c578063bd7476781461013f578063c4d66de81461015f578063eb8e0b3f14610172578063f5c1365314610185578063fc0c546a1461019857600080fd5b80630584aecf146100ae578063144fa6d7146100de5780633268cc56146100f357806349bd5a5e1461010657806365b8dbc014610119575b600080fd5b6003546100c1906001600160a01b031681565b6040516001600160a01b0390911681526020015b60405180910390f35b6100f16100ec366004611138565b6101ab565b005b6001546100c1906001600160a01b031681565b6002546100c1906001600160a01b031681565b6100f1610127366004611138565b61073e565b6100f161013a366004611172565b61086b565b61015261014d366004611278565b610a5a565b6040516100d591906112e1565b6100f161016d366004611138565b610afe565b6100f1610180366004611172565b610c46565b610152610193366004611278565b610d75565b6004546100c1906001600160a01b031681565b6004546001600160a01b03163314806101ce57506003546001600160a01b031633145b6101f35760405162461bcd60e51b81526004016101ea90611325565b60405180910390fd5b6001600160a01b0381166102405760405162461bcd60e51b81526020600482015260146024820152732722abafaa27a5a2a71d103d32b9379030b2323960611b60448201526064016101ea565b600480546001600160a01b0319166001600160a01b03838116919091178255600080546040805163c45a015560e01b815290519294620100009092049093169263c45a01559281830192602092829003018186803b1580156102a157600080fd5b505afa1580156102b5573d6000803e3d6000fd5b505050506040513d601f19601f820116820180604052508101906102d99190611155565b60048054600054604080516339d94ae160e11b815290516001600160a01b039586169563c9c6539695948116946201000090940416926373b295c292808201926020929091829003018186803b15801561033257600080fd5b505afa158015610346573d6000803e3d6000fd5b505050506040513d601f19601f8201168201806040525081019061036a9190611155565b6040516001600160e01b031960e085901b1681526001600160a01b03928316600482015291166024820152604401602060405180830381600087803b1580156103b257600080fd5b505af19250505080156103e2575060408051601f3d908101601f191682019092526103df91810190611155565b60015b61058257600060029054906101000a90046001600160a01b03166001600160a01b031663c45a01556040518163ffffffff1660e01b815260040160206040518083038186803b15801561043457600080fd5b505afa158015610448573d6000803e3d6000fd5b505050506040513d601f19601f8201168201806040525081019061046c9190611155565b60048054600054604080516339d94ae160e11b815290516001600160a01b039586169563e6a4390595948116946201000090940416926373b295c292808201926020929091829003018186803b1580156104c557600080fd5b505afa1580156104d9573d6000803e3d6000fd5b505050506040513d601f19601f820116820180604052508101906104fd9190611155565b6040516001600160e01b031960e085901b1681526001600160a01b0392831660048201529116602482015260440160206040518083038186803b15801561054357600080fd5b505afa158015610557573d6000803e3d6000fd5b505050506040513d601f19601f8201168201806040525081019061057b9190611155565b905061071b565b50600060029054906101000a90046001600160a01b03166001600160a01b031663c45a01556040518163ffffffff1660e01b815260040160206040518083038186803b1580156105d157600080fd5b505afa1580156105e5573d6000803e3d6000fd5b505050506040513d601f19601f820116820180604052508101906106099190611155565b60048054600054604080516339d94ae160e11b815290516001600160a01b039586169563e6a4390595948116946201000090940416926373b295c292808201926020929091829003018186803b15801561066257600080fd5b505afa158015610676573d6000803e3d6000fd5b505050506040513d601f19601f8201168201806040525081019061069a9190611155565b6040516001600160e01b031960e085901b1681526001600160a01b0392831660048201529116602482015260440160206040518083038186803b1580156106e057600080fd5b505afa1580156106f4573d6000803e3d6000fd5b505050506040513d601f19601f820116820180604052508101906107189190611155565b90505b600280546001600160a01b0319166001600160a01b039290921691909117905550565b6004546001600160a01b031633148061076157506003546001600160a01b031633145b61077d5760405162461bcd60e51b81526004016101ea90611325565b6000546001600160a01b03828116620100009092041614156107f25760405162461bcd60e51b815260206004820152602860248201527f544b4e3a2054686520726f7574657220616c7265616479206861732074686174604482015267206164647265737360c01b60648201526084016101ea565b600180546001600160a01b0319166001600160a01b038381169182179092556000805462010000600160b01b03191662010000928302178082556040805163c45a015560e01b815290519294939091049092169163c45a0155916004808301926020929190829003018186803b1580156102a157600080fd5b6004546001600160a01b031633148061088e57506003546001600160a01b031633145b6108aa5760405162461bcd60e51b81526004016101ea90611325565b60006108b7846000610dbc565b60405163f5c1365360e01b81526000600482018190526001600160a01b038716602483015260448201859052919250309063f5c136539060640160006040518083038186803b15801561090957600080fd5b505afa15801561091d573d6000803e3d6000fd5b505050506040513d6000823e601f3d908101601f1916820160405261094591908101906111b3565b60008054604051635c11d79560e01b81529293506201000090046001600160a01b031691635c11d795916109849187919087908a90429060040161136e565b600060405180830381600087803b15801561099e57600080fd5b505af11580156109b2573d6000803e3d6000fd5b505050507fdb587d878116df0bdd4fe154699aa2c5f439da001cc811dfd05d9f589fc5a8ee600460009054906101000a90046001600160a01b0316848784600186516109fe91906113aa565b81518110610a0e57610a0e6113cf565b6020026020010151604051610a4b94939291906001600160a01b039485168152602081019390935292166040820152606081019190915260800190565b60405180910390a15050505050565b60606000610a688486610dbc565b6000546040516307c0329d60e21b81529192506201000090046001600160a01b031690631f00ca7490610aa1908690859060040161134d565b60006040518083038186803b158015610ab957600080fd5b505afa158015610acd573d6000803e3d6000fd5b505050506040513d6000823e601f3d908101601f19168201604052610af591908101906111b3565b95945050505050565b600054610100900460ff16610b195760005460ff1615610b1d565b303b155b610b805760405162461bcd60e51b815260206004820152602e60248201527f496e697469616c697a61626c653a20636f6e747261637420697320616c72656160448201526d191e481a5b9a5d1a585b1a5e995960921b60648201526084016101ea565b600054610100900460ff16158015610ba2576000805461ffff19166101011790555b6001600160a01b038216610be65760405162461bcd60e51b815260206004820152600b60248201526a524f55544552205a45524f60a81b60448201526064016101ea565b600180546001600160a01b0384166001600160a01b03199182168117909255600080546201000090930262010000600160b01b03199093169290921790915560038054909116331790558015610c42576000805461ff00191690555b5050565b6004546001600160a01b0316331480610c6957506003546001600160a01b031633145b610c855760405162461bcd60e51b81526004016101ea90611325565b6000610c92846001610dbc565b600080546040516338ed173960e01b81529293509091620100009091046001600160a01b0316906338ed173990610cd5908690859087908a90429060040161136e565b600060405180830381600087803b158015610cef57600080fd5b505af1158015610d03573d6000803e3d6000fd5b505050506040513d6000823e601f3d908101601f19168201604052610d2b91908101906111b3565b90507fdb587d878116df0bdd4fe154699aa2c5f439da001cc811dfd05d9f589fc5a8ee8584600460009054906101000a90046001600160a01b031684600186516109fe91906113aa565b60606000610d838486610dbc565b60005460405163d06ca61f60e01b81529192506201000090046001600160a01b03169063d06ca61f90610aa1908690859060040161134d565b6060600060029054906101000a90046001600160a01b03166001600160a01b03166373b295c26040518163ffffffff1660e01b815260040160206040518083038186803b158015610e0c57600080fd5b505afa158015610e20573d6000803e3d6000fd5b505050506040513d601f19601f82011682018060405250810190610e449190611155565b6001600160a01b0316836001600160a01b03161415610f6c576040805160028082526060820183526000926020830190803683370190505090508215610eee578381600081518110610e9857610e986113cf565b6001600160a01b039283166020918202929092010152600454825191169082906001908110610ec957610ec96113cf565b60200260200101906001600160a01b031690816001600160a01b031681525050610f65565b60045481516001600160a01b03909116908290600090610f1057610f106113cf565b60200260200101906001600160a01b031690816001600160a01b0316815250508381600181518110610f4457610f446113cf565b60200260200101906001600160a01b031690816001600160a01b0316815250505b9050611132565b6040805160038082526080820190925260009160208201606080368337019050509050600060029054906101000a90046001600160a01b03166001600160a01b03166373b295c26040518163ffffffff1660e01b815260040160206040518083038186803b158015610fdd57600080fd5b505afa158015610ff1573d6000803e3d6000fd5b505050506040513d601f19601f820116820180604052508101906110159190611155565b81600181518110611028576110286113cf565b60200260200101906001600160a01b031690816001600160a01b03168152505082156110b8578381600081518110611062576110626113cf565b6001600160a01b039283166020918202929092010152600454825191169082906002908110611093576110936113cf565b60200260200101906001600160a01b031690816001600160a01b03168152505061112f565b60045481516001600160a01b039091169082906000906110da576110da6113cf565b60200260200101906001600160a01b031690816001600160a01b031681525050838160028151811061110e5761110e6113cf565b60200260200101906001600160a01b031690816001600160a01b0316815250505b90505b92915050565b60006020828403121561114a57600080fd5b813561112f816113fb565b60006020828403121561116757600080fd5b815161112f816113fb565b60008060006060848603121561118757600080fd5b8335611192816113fb565b925060208401356111a2816113fb565b929592945050506040919091013590565b600060208083850312156111c657600080fd5b825167ffffffffffffffff808211156111de57600080fd5b818501915085601f8301126111f257600080fd5b815181811115611204576112046113e5565b8060051b604051601f19603f83011681018181108582111715611229576112296113e5565b604052828152858101935084860182860187018a101561124857600080fd5b600095505b8386101561126b57805185526001959095019493860193860161124d565b5098975050505050505050565b60008060006060848603121561128d57600080fd5b8335801515811461119257600080fd5b600081518084526020808501945080840160005b838110156112d65781516001600160a01b0316875295820195908201906001016112b1565b509495945050505050565b6020808252825182820181905260009190848201906040850190845b81811015611319578351835292840192918401916001016112fd565b50909695505050505050565b6020808252600e908201526d4163636573732044656e6965642160901b604082015260600190565b828152604060208201526000611366604083018461129d565b949350505050565b85815284602082015260a06040820152600061138d60a083018661129d565b6001600160a01b0394909416606083015250608001529392505050565b6000828210156113ca57634e487b7160e01b600052601160045260246000fd5b500390565b634e487b7160e01b600052603260045260246000fd5b634e487b7160e01b600052604160045260246000fd5b6001600160a01b038116811461141057600080fd5b5056fea164736f6c6343000807000a",
  "devdoc": {
    "kind": "dev",
    "methods": {},
    "version": 1
  },
  "userdoc": {
    "kind": "user",
    "methods": {},
    "version": 1
  },
  "storageLayout": {
    "storage": [
      {
        "astId": 598,
        "contract": "contracts/dependencies/LiquidityRouter.sol:LiquidityRouter",
        "label": "_initialized",
        "offset": 0,
        "slot": "0",
        "type": "t_bool"
      },
      {
        "astId": 601,
        "contract": "contracts/dependencies/LiquidityRouter.sol:LiquidityRouter",
        "label": "_initializing",
        "offset": 1,
        "slot": "0",
        "type": "t_bool"
      },
      {
        "astId": 5711,
        "contract": "contracts/dependencies/LiquidityRouter.sol:LiquidityRouter",
        "label": "uniswapV2Router",
        "offset": 2,
        "slot": "0",
        "type": "t_contract(IJoeRouter02)6673"
      },
      {
        "astId": 5713,
        "contract": "contracts/dependencies/LiquidityRouter.sol:LiquidityRouter",
        "label": "routerAddress",
        "offset": 0,
        "slot": "1",
        "type": "t_address"
      },
      {
        "astId": 5715,
        "contract": "contracts/dependencies/LiquidityRouter.sol:LiquidityRouter",
        "label": "uniswapV2Pair",
        "offset": 0,
        "slot": "2",
        "type": "t_address"
      },
      {
        "astId": 5717,
        "contract": "contracts/dependencies/LiquidityRouter.sol:LiquidityRouter",
        "label": "admin0xB",
        "offset": 0,
        "slot": "3",
        "type": "t_address"
      },
      {
        "astId": 5719,
        "contract": "contracts/dependencies/LiquidityRouter.sol:LiquidityRouter",
        "label": "token",
        "offset": 0,
        "slot": "4",
        "type": "t_address"
      }
    ],
    "types": {
      "t_address": {
        "encoding": "inplace",
        "label": "address",
        "numberOfBytes": "20"
      },
      "t_bool": {
        "encoding": "inplace",
        "label": "bool",
        "numberOfBytes": "1"
      },
      "t_contract(IJoeRouter02)6673": {
        "encoding": "inplace",
        "label": "contract IJoeRouter02",
        "numberOfBytes": "20"
      }
    }
  }
}