{
  "address": "0x347DE806F783e75c9CBDbbC848E82A97C1b525B7",
  "abi": [
    {
      "inputs": [
        {
          "internalType": "uint256",
          "name": "_sellTax",
          "type": "uint256"
        }
      ],
      "name": "InvalidSellTax",
      "type": "error"
    },
    {
      "anonymous": false,
      "inputs": [
        {
          "indexed": true,
          "internalType": "contract IERC20Upgradeable",
          "name": "token",
          "type": "address"
        },
        {
          "indexed": false,
          "internalType": "address",
          "name": "to",
          "type": "address"
        },
        {
          "indexed": false,
          "internalType": "uint256",
          "name": "amount",
          "type": "uint256"
        }
      ],
      "name": "ERC20PaymentReleased",
      "type": "event"
    },
    {
      "anonymous": false,
      "inputs": [
        {
          "indexed": false,
          "internalType": "address",
          "name": "account",
          "type": "address"
        },
        {
          "indexed": false,
          "internalType": "uint256",
          "name": "shares",
          "type": "uint256"
        }
      ],
      "name": "PayeeAdded",
      "type": "event"
    },
    {
      "anonymous": false,
      "inputs": [
        {
          "indexed": false,
          "internalType": "address",
          "name": "from",
          "type": "address"
        },
        {
          "indexed": false,
          "internalType": "uint256",
          "name": "amount",
          "type": "uint256"
        }
      ],
      "name": "PaymentReceived",
      "type": "event"
    },
    {
      "anonymous": false,
      "inputs": [
        {
          "indexed": false,
          "internalType": "address",
          "name": "to",
          "type": "address"
        },
        {
          "indexed": false,
          "internalType": "uint256",
          "name": "amount",
          "type": "uint256"
        }
      ],
      "name": "PaymentReleased",
      "type": "event"
    },
    {
      "anonymous": false,
      "inputs": [
        {
          "indexed": false,
          "internalType": "address",
          "name": "tokenIn",
          "type": "address"
        },
        {
          "indexed": false,
          "internalType": "uint256",
          "name": "amountIn",
          "type": "uint256"
        },
        {
          "indexed": false,
          "internalType": "address",
          "name": "tokenOut",
          "type": "address"
        },
        {
          "indexed": false,
          "internalType": "uint256",
          "name": "amountOut",
          "type": "uint256"
        }
      ],
      "name": "Swapped",
      "type": "event"
    },
    {
      "anonymous": false,
      "inputs": [
        {
          "indexed": false,
          "internalType": "uint256",
          "name": "amountIn",
          "type": "uint256"
        },
        {
          "indexed": false,
          "internalType": "address",
          "name": "tokenOut",
          "type": "address"
        },
        {
          "indexed": false,
          "internalType": "uint256",
          "name": "amountOut",
          "type": "uint256"
        }
      ],
      "name": "SwappedNative",
      "type": "event"
    },
    {
      "inputs": [],
      "name": "admin0xB",
      "outputs": [
        {
          "internalType": "address payable",
          "name": "",
          "type": "address"
        }
      ],
      "stateMutability": "view",
      "type": "function"
    },
    {
      "inputs": [
        {
          "internalType": "bool",
          "name": "is0xBOut",
          "type": "bool"
        },
        {
          "internalType": "address",
          "name": "targetToken",
          "type": "address"
        },
        {
          "internalType": "uint256",
          "name": "outputAmount",
          "type": "uint256"
        }
      ],
      "name": "getInputAmount",
      "outputs": [
        {
          "internalType": "uint256",
          "name": "",
          "type": "uint256"
        }
      ],
      "stateMutability": "view",
      "type": "function"
    },
    {
      "inputs": [
        {
          "internalType": "bool",
          "name": "is0xBOut",
          "type": "bool"
        },
        {
          "internalType": "address",
          "name": "targetToken",
          "type": "address"
        },
        {
          "internalType": "uint256",
          "name": "inputAmount",
          "type": "uint256"
        }
      ],
      "name": "getOutputAmount",
      "outputs": [
        {
          "internalType": "uint256",
          "name": "",
          "type": "uint256"
        }
      ],
      "stateMutability": "view",
      "type": "function"
    },
    {
      "inputs": [
        {
          "internalType": "address",
          "name": "_router",
          "type": "address"
        },
        {
          "internalType": "uint256",
          "name": "_fee",
          "type": "uint256"
        },
        {
          "internalType": "address",
          "name": "_pool",
          "type": "address"
        }
      ],
      "name": "initialize",
      "outputs": [],
      "stateMutability": "nonpayable",
      "type": "function"
    },
    {
      "inputs": [
        {
          "internalType": "uint256",
          "name": "index",
          "type": "uint256"
        }
      ],
      "name": "payee",
      "outputs": [
        {
          "internalType": "address",
          "name": "",
          "type": "address"
        }
      ],
      "stateMutability": "view",
      "type": "function"
    },
    {
      "inputs": [
        {
          "internalType": "address payable",
          "name": "account",
          "type": "address"
        }
      ],
      "name": "release",
      "outputs": [],
      "stateMutability": "nonpayable",
      "type": "function"
    },
    {
      "inputs": [
        {
          "internalType": "contract IERC20Upgradeable",
          "name": "token",
          "type": "address"
        },
        {
          "internalType": "address",
          "name": "account",
          "type": "address"
        }
      ],
      "name": "release",
      "outputs": [],
      "stateMutability": "nonpayable",
      "type": "function"
    },
    {
      "inputs": [
        {
          "internalType": "contract IERC20Upgradeable",
          "name": "token",
          "type": "address"
        },
        {
          "internalType": "address",
          "name": "account",
          "type": "address"
        }
      ],
      "name": "released",
      "outputs": [
        {
          "internalType": "uint256",
          "name": "",
          "type": "uint256"
        }
      ],
      "stateMutability": "view",
      "type": "function"
    },
    {
      "inputs": [
        {
          "internalType": "address",
          "name": "account",
          "type": "address"
        }
      ],
      "name": "released",
      "outputs": [
        {
          "internalType": "uint256",
          "name": "",
          "type": "uint256"
        }
      ],
      "stateMutability": "view",
      "type": "function"
    },
    {
      "inputs": [],
      "name": "routerAddress",
      "outputs": [
        {
          "internalType": "address",
          "name": "",
          "type": "address"
        }
      ],
      "stateMutability": "view",
      "type": "function"
    },
    {
      "inputs": [],
      "name": "sellTax",
      "outputs": [
        {
          "internalType": "uint256",
          "name": "",
          "type": "uint256"
        }
      ],
      "stateMutability": "view",
      "type": "function"
    },
    {
      "inputs": [
        {
          "internalType": "uint256",
          "name": "_sellTax",
          "type": "uint256"
        }
      ],
      "name": "setSellTax",
      "outputs": [],
      "stateMutability": "nonpayable",
      "type": "function"
    },
    {
      "inputs": [
        {
          "internalType": "address",
          "name": "_token",
          "type": "address"
        }
      ],
      "name": "setToken",
      "outputs": [],
      "stateMutability": "nonpayable",
      "type": "function"
    },
    {
      "inputs": [
        {
          "internalType": "address",
          "name": "account",
          "type": "address"
        }
      ],
      "name": "shares",
      "outputs": [
        {
          "internalType": "uint256",
          "name": "",
          "type": "uint256"
        }
      ],
      "stateMutability": "view",
      "type": "function"
    },
    {
      "inputs": [
        {
          "internalType": "address",
          "name": "receiver",
          "type": "address"
        },
        {
          "internalType": "address",
          "name": "outTokenAddr",
          "type": "address"
        },
        {
          "internalType": "uint256",
          "name": "amountOut",
          "type": "uint256"
        },
        {
          "internalType": "uint256",
          "name": "amountInMax",
          "type": "uint256"
        },
        {
          "internalType": "uint256",
          "name": "deadline",
          "type": "uint256"
        }
      ],
      "name": "swap0xBForExactToken",
      "outputs": [
        {
          "internalType": "uint256",
          "name": "",
          "type": "uint256"
        },
        {
          "internalType": "uint256",
          "name": "",
          "type": "uint256"
        }
      ],
      "stateMutability": "nonpayable",
      "type": "function"
    },
    {
      "inputs": [
        {
          "internalType": "address",
          "name": "receiver",
          "type": "address"
        },
        {
          "internalType": "uint256",
          "name": "amountOut",
          "type": "uint256"
        },
        {
          "internalType": "uint256",
          "name": "deadline",
          "type": "uint256"
        }
      ],
      "name": "swapAVAXForExact0xB",
      "outputs": [
        {
          "internalType": "uint256",
          "name": "",
          "type": "uint256"
        },
        {
          "internalType": "uint256",
          "name": "",
          "type": "uint256"
        }
      ],
      "stateMutability": "payable",
      "type": "function"
    },
    {
      "inputs": [
        {
          "internalType": "address",
          "name": "receiver",
          "type": "address"
        },
        {
          "internalType": "address",
          "name": "outTokenAddr",
          "type": "address"
        },
        {
          "internalType": "uint256",
          "name": "amountIn",
          "type": "uint256"
        },
        {
          "internalType": "uint256",
          "name": "amountOutMin",
          "type": "uint256"
        },
        {
          "internalType": "uint256",
          "name": "deadline",
          "type": "uint256"
        }
      ],
      "name": "swapExact0xBForToken",
      "outputs": [
        {
          "internalType": "uint256",
          "name": "",
          "type": "uint256"
        },
        {
          "internalType": "uint256",
          "name": "",
          "type": "uint256"
        }
      ],
      "stateMutability": "nonpayable",
      "type": "function"
    },
    {
      "inputs": [
        {
          "internalType": "address",
          "name": "receiver",
          "type": "address"
        },
        {
          "internalType": "address",
          "name": "outTokenAddr",
          "type": "address"
        },
        {
          "internalType": "uint256",
          "name": "amountIn",
          "type": "uint256"
        }
      ],
      "name": "swapExact0xBForTokenNoFee",
      "outputs": [],
      "stateMutability": "nonpayable",
      "type": "function"
    },
    {
      "inputs": [
        {
          "internalType": "address",
          "name": "receiver",
          "type": "address"
        },
        {
          "internalType": "uint256",
          "name": "amountOutMin",
          "type": "uint256"
        },
        {
          "internalType": "uint256",
          "name": "deadline",
          "type": "uint256"
        }
      ],
      "name": "swapExactAVAXFor0xB",
      "outputs": [
        {
          "internalType": "uint256",
          "name": "",
          "type": "uint256"
        },
        {
          "internalType": "uint256",
          "name": "",
          "type": "uint256"
        }
      ],
      "stateMutability": "payable",
      "type": "function"
    },
    {
      "inputs": [
        {
          "internalType": "address",
          "name": "receiver",
          "type": "address"
        },
        {
          "internalType": "address",
          "name": "inTokenAddr",
          "type": "address"
        },
        {
          "internalType": "uint256",
          "name": "amountIn",
          "type": "uint256"
        },
        {
          "internalType": "uint256",
          "name": "amountOutMin",
          "type": "uint256"
        },
        {
          "internalType": "uint256",
          "name": "deadline",
          "type": "uint256"
        }
      ],
      "name": "swapExactTokenFor0xB",
      "outputs": [
        {
          "internalType": "uint256",
          "name": "",
          "type": "uint256"
        },
        {
          "internalType": "uint256",
          "name": "",
          "type": "uint256"
        }
      ],
      "stateMutability": "nonpayable",
      "type": "function"
    },
    {
      "inputs": [],
      "name": "swapTaxFee",
      "outputs": [
        {
          "internalType": "uint256",
          "name": "",
          "type": "uint256"
        }
      ],
      "stateMutability": "view",
      "type": "function"
    },
    {
      "inputs": [],
      "name": "swapTaxPool",
      "outputs": [
        {
          "internalType": "address",
          "name": "",
          "type": "address"
        }
      ],
      "stateMutability": "view",
      "type": "function"
    },
    {
      "inputs": [
        {
          "internalType": "address",
          "name": "receiver",
          "type": "address"
        },
        {
          "internalType": "address",
          "name": "inTokenAddr",
          "type": "address"
        },
        {
          "internalType": "uint256",
          "name": "amountOut",
          "type": "uint256"
        },
        {
          "internalType": "uint256",
          "name": "amountInMax",
          "type": "uint256"
        },
        {
          "internalType": "uint256",
          "name": "deadline",
          "type": "uint256"
        }
      ],
      "name": "swapTokenForExact0xB",
      "outputs": [
        {
          "internalType": "uint256",
          "name": "",
          "type": "uint256"
        },
        {
          "internalType": "uint256",
          "name": "",
          "type": "uint256"
        }
      ],
      "stateMutability": "nonpayable",
      "type": "function"
    },
    {
      "inputs": [],
      "name": "tokenAddress",
      "outputs": [
        {
          "internalType": "address",
          "name": "",
          "type": "address"
        }
      ],
      "stateMutability": "view",
      "type": "function"
    },
    {
      "inputs": [
        {
          "internalType": "contract IERC20Upgradeable",
          "name": "token",
          "type": "address"
        }
      ],
      "name": "totalReleased",
      "outputs": [
        {
          "internalType": "uint256",
          "name": "",
          "type": "uint256"
        }
      ],
      "stateMutability": "view",
      "type": "function"
    },
    {
      "inputs": [],
      "name": "totalReleased",
      "outputs": [
        {
          "internalType": "uint256",
          "name": "",
          "type": "uint256"
        }
      ],
      "stateMutability": "view",
      "type": "function"
    },
    {
      "inputs": [],
      "name": "totalShares",
      "outputs": [
        {
          "internalType": "uint256",
          "name": "",
          "type": "uint256"
        }
      ],
      "stateMutability": "view",
      "type": "function"
    },
    {
      "inputs": [],
      "name": "uniswapV2Pair",
      "outputs": [
        {
          "internalType": "address",
          "name": "",
          "type": "address"
        }
      ],
      "stateMutability": "view",
      "type": "function"
    },
    {
      "inputs": [
        {
          "internalType": "address payable",
          "name": "newAdmin",
          "type": "address"
        }
      ],
      "name": "updateAdmin0xB",
      "outputs": [],
      "stateMutability": "nonpayable",
      "type": "function"
    },
    {
      "inputs": [
        {
          "internalType": "uint256",
          "name": "value",
          "type": "uint256"
        }
      ],
      "name": "updateSwapFee",
      "outputs": [],
      "stateMutability": "nonpayable",
      "type": "function"
    },
    {
      "inputs": [
        {
          "internalType": "address payable",
          "name": "newPool",
          "type": "address"
        }
      ],
      "name": "updateSwapTaxPool",
      "outputs": [],
      "stateMutability": "nonpayable",
      "type": "function"
    },
    {
      "inputs": [
        {
          "internalType": "address",
          "name": "_newAddr",
          "type": "address"
        }
      ],
      "name": "updateUniswapV2Router",
      "outputs": [],
      "stateMutability": "nonpayable",
      "type": "function"
    },
    {
      "inputs": [],
      "name": "wrappedNative",
      "outputs": [
        {
          "internalType": "address",
          "name": "",
          "type": "address"
        }
      ],
      "stateMutability": "view",
      "type": "function"
    },
    {
      "stateMutability": "payable",
      "type": "receive"
    }
  ],
  "transactionHash": "0x06f4e2430a4a6b6f1d27dc43d60a620d9c86ec90f3513a5d777f4b29006de365",
  "args": [],
  "numDeployments": 1,
  "solcInputHash": "aa2fafca3ff81473fe0849379c09aad7",
  "bytecode": "0x608060405234801561001057600080fd5b50613f04806100206000396000f3fe6080604052600436106101cc5760003560e01c806388e5249f11610102578063c350a1b511610095578063eb6d3a1111610064578063eb6d3a11146105ce578063ed9705da146105e3578063f5c13653146105f6578063fd53fce01461061657600080fd5b8063c350a1b51461052d578063ce7c2ac21461054d578063d79779b214610583578063e33b7de3146105b957600080fd5b80639d76ea58116100d15780639d76ea58146104ad578063b698f044146104cd578063bd747678146104ed578063bf16f65a1461050d57600080fd5b806388e5249f146104245780638b83209b146104445780638f6e53b7146104645780639852595c1461047757600080fd5b8063406072a91161017a5780636a63f5ee116101495780636a63f5ee1461038f5780636e54a8a0146103af57806374cefd8a146103e457806380be66cf1461040457600080fd5b8063406072a91461030f57806348b750441461032f57806349bd5a5e1461034f57806365b8dbc01461036f57600080fd5b80630584aecf1461021157806311eb47dc1461024e578063144fa6d71461026e57806319165587146102905780631c293de5146102b05780633268cc56146102d05780633a98ef39146102f057600080fd5b3661020c577f6ef95f06320e7a25a04a175ca677b7052bdd97131872c2192525a629f51be7703334604051610202929190613b63565b60405180910390a1005b600080fd5b34801561021d57600080fd5b50606854610231906001600160a01b031681565b6040516001600160a01b0390911681526020015b60405180910390f35b34801561025a57600080fd5b50606c54610231906001600160a01b031681565b34801561027a57600080fd5b5061028e610289366004613853565b61062c565b005b34801561029c57600080fd5b5061028e6102ab366004613853565b610b82565b3480156102bc57600080fd5b5061028e6102cb366004613853565b610ca7565b3480156102dc57600080fd5b50606654610231906001600160a01b031681565b3480156102fc57600080fd5b506033545b604051908152602001610245565b34801561031b57600080fd5b5061030161032a366004613a98565b610d55565b34801561033b57600080fd5b5061028e61034a366004613a98565b610d82565b34801561035b57600080fd5b50606754610231906001600160a01b031681565b34801561037b57600080fd5b5061028e61038a366004613853565b610f41565b34801561039b57600080fd5b5061028e6103aa366004613853565b611052565b3480156103bb57600080fd5b506103cf6103ca3660046138ce565b6110ff565b60408051928352602083019190915201610245565b3480156103f057600080fd5b506103cf6103ff3660046138ce565b6113f3565b34801561041057600080fd5b506103cf61041f3660046138ce565b611774565b34801561043057600080fd5b506103cf61043f3660046138ce565b611c8d565b34801561045057600080fd5b5061023161045f366004613ad1565b6120d2565b6103cf610472366004613961565b612102565b34801561048357600080fd5b50610301610492366004613853565b6001600160a01b031660009081526036602052604090205490565b3480156104b957600080fd5b50606a54610231906001600160a01b031681565b3480156104d957600080fd5b5061028e6104e836600461388d565b612347565b3480156104f957600080fd5b50610301610508366004613a78565b61262f565b34801561051957600080fd5b5061028e610528366004613ad1565b612721565b34801561053957600080fd5b5061028e61054836600461391f565b6127b9565b34801561055957600080fd5b50610301610568366004613853565b6001600160a01b031660009081526035602052604090205490565b34801561058f57600080fd5b5061030161059e366004613853565b6001600160a01b031660009081526038602052604090205490565b3480156105c557600080fd5b50603454610301565b3480156105da57600080fd5b506102316129a4565b6103cf6105f1366004613961565b612a26565b34801561060257600080fd5b50610301610611366004613a78565b612c36565b34801561062257600080fd5b50610301606b5481565b606a546001600160a01b031633148061064f57506068546001600160a01b031633145b6106745760405162461bcd60e51b815260040161066b90613bf3565b60405180910390fd5b6001600160a01b0381166106c15760405162461bcd60e51b81526020600482015260146024820152732722abafaa27a5a2a71d103d32b9379030b2323960611b604482015260640161066b565b606a80546001600160a01b03199081166001600160a01b03848116918217909355606980549092161790556065546040805163c45a015560e01b81529051600093929092169163c45a015591600480820192602092909190829003018186803b15801561072d57600080fd5b505afa158015610741573d6000803e3d6000fd5b505050506040513d601f19601f820116820180604052508101906107659190613870565b606a54606554604080516339d94ae160e11b815290516001600160a01b039485169463c9c653969481169316916373b295c2916004808301926020929190829003018186803b1580156107b757600080fd5b505afa1580156107cb573d6000803e3d6000fd5b505050506040513d601f19601f820116820180604052508101906107ef9190613870565b6040518363ffffffff1660e01b815260040161080c929190613b7c565b602060405180830381600087803b15801561082657600080fd5b505af1925050508015610856575060408051601f3d908101601f1916820190925261085391810190613870565b60015b6109de57606560009054906101000a90046001600160a01b03166001600160a01b031663c45a01556040518163ffffffff1660e01b815260040160206040518083038186803b1580156108a857600080fd5b505afa1580156108bc573d6000803e3d6000fd5b505050506040513d601f19601f820116820180604052508101906108e09190613870565b606a54606554604080516339d94ae160e11b815290516001600160a01b039485169463e6a439059481169316916373b295c2916004808301926020929190829003018186803b15801561093257600080fd5b505afa158015610946573d6000803e3d6000fd5b505050506040513d601f19601f8201168201806040525081019061096a9190613870565b6040518363ffffffff1660e01b8152600401610987929190613b7c565b60206040518083038186803b15801561099f57600080fd5b505afa1580156109b3573d6000803e3d6000fd5b505050506040513d601f19601f820116820180604052508101906109d79190613870565b9050610b5f565b50606560009054906101000a90046001600160a01b03166001600160a01b031663c45a01556040518163ffffffff1660e01b815260040160206040518083038186803b158015610a2d57600080fd5b505afa158015610a41573d6000803e3d6000fd5b505050506040513d601f19601f82011682018060405250810190610a659190613870565b606a54606554604080516339d94ae160e11b815290516001600160a01b039485169463e6a439059481169316916373b295c2916004808301926020929190829003018186803b158015610ab757600080fd5b505afa158015610acb573d6000803e3d6000fd5b505050506040513d601f19601f82011682018060405250810190610aef9190613870565b6040518363ffffffff1660e01b8152600401610b0c929190613b7c565b60206040518083038186803b158015610b2457600080fd5b505afa158015610b38573d6000803e3d6000fd5b505050506040513d601f19601f82011682018060405250810190610b5c9190613870565b90505b606780546001600160a01b0319166001600160a01b039290921691909117905550565b6001600160a01b038116600090815260356020526040902054610bb75760405162461bcd60e51b815260040161066b90613c1b565b6000610bc260345490565b610bcc9047613db8565b90506000610bf98383610bf4866001600160a01b031660009081526036602052604090205490565b612d13565b905080610c185760405162461bcd60e51b815260040161066b90613c61565b6001600160a01b03831660009081526036602052604081208054839290610c40908490613db8565b925050819055508060346000828254610c599190613db8565b90915550610c6990508382612d59565b7fdf20fd1e76bc69d672e4814fafb2c449bba3a5369d8359adf9e05e6fde87b0568382604051610c9a929190613b63565b60405180910390a1505050565b606a546001600160a01b0316331480610cca57506068546001600160a01b031633145b610ce65760405162461bcd60e51b815260040161066b90613bf3565b6001600160a01b038116610d335760405162461bcd60e51b81526020600482015260146024820152732aa8222fa0a226a4a71d103d32b9379030b2323960611b604482015260640161066b565b606880546001600160a01b0319166001600160a01b0392909216919091179055565b6001600160a01b038083166000908152603960209081526040808320938516835292905220545b92915050565b6001600160a01b038116600090815260356020526040902054610db75760405162461bcd60e51b815260040161066b90613c1b565b6001600160a01b0382166000908152603860205260408120546040516370a0823160e01b81523060048201526001600160a01b038516906370a082319060240160206040518083038186803b158015610e0f57600080fd5b505afa158015610e23573d6000803e3d6000fd5b505050506040513d601f19601f82011682018060405250810190610e479190613aea565b610e519190613db8565b90506000610e648383610bf48787610d55565b905080610e835760405162461bcd60e51b815260040161066b90613c61565b6001600160a01b03808516600090815260396020908152604080832093871683529290529081208054839290610eba908490613db8565b90915550506001600160a01b03841660009081526038602052604081208054839290610ee7908490613db8565b90915550610ef89050848483612e77565b836001600160a01b03167f3be5b7a71e84ed12875d241991c70855ac5817d847039e17a9d895c1ceb0f18a8483604051610f33929190613b63565b60405180910390a250505050565b606a546001600160a01b0316331480610f6457506068546001600160a01b031633145b610f805760405162461bcd60e51b815260040161066b90613bf3565b6065546001600160a01b0382811691161415610fef5760405162461bcd60e51b815260206004820152602860248201527f544b4e3a2054686520726f7574657220616c7265616479206861732074686174604482015267206164647265737360c01b606482015260840161066b565b606680546001600160a01b0383166001600160a01b0319918216811790925560658054909116821790556040805163c45a015560e01b815290516000929163c45a0155916004808301926020929190829003018186803b15801561072d57600080fd5b606a546001600160a01b031633148061107557506068546001600160a01b031633145b6110915760405162461bcd60e51b815260040161066b90613bf3565b6001600160a01b0381166110dd5760405162461bcd60e51b81526020600482015260136024820152722aa8222faba0a6261d103d32b9379030b2323960691b604482015260640161066b565b606c80546001600160a01b0319166001600160a01b0392909216919091179055565b606a5460009081906001600160a01b031633148061112757506068546001600160a01b031633145b6111435760405162461bcd60e51b815260040161066b90613bf3565b606654604051636eb1769f60e11b815286916001600160a01b03808a169263dd62ed3e92611178923092911690600401613b7c565b60206040518083038186803b15801561119057600080fd5b505afa1580156111a4573d6000803e3d6000fd5b505050506040513d601f19601f820116820180604052508101906111c89190613aea565b10156111d8576111d88686612ecd565b836111e560018888612c36565b10156112035760405162461bcd60e51b815260040161066b90613cac565b60006305f5e100606b54876112189190613df2565b6112229190613dd0565b606c5460405163a9059cbb60e01b81529192506001600160a01b03808a169263a9059cbb926112579216908590600401613b63565b602060405180830381600087803b15801561127157600080fd5b505af1158015611285573d6000803e3d6000fd5b505050506040513d601f19601f820116820180604052508101906112a99190613a5b565b5060006112b7886001612f53565b6065549091506000906001600160a01b03166338ed17396112d8858b613e11565b89858e8b6040518663ffffffff1660e01b81526004016112fc959493929190613d7c565b600060405180830381600087803b15801561131657600080fd5b505af115801561132a573d6000803e3d6000fd5b505050506040513d6000823e601f3d908101601f191682016040526113529190810190613996565b9050600080516020613ed88339815191528989606a60009054906101000a90046001600160a01b0316846001865161138a9190613e11565b8151811061139a5761139a613e85565b60200260200101516040516113b29493929190613b96565b60405180910390a180600182516113c99190613e11565b815181106113d9576113d9613e85565b602002602001015183945094505050509550959350505050565b606a5460009081906001600160a01b031633148061141b57506068546001600160a01b031633145b6114375760405162461bcd60e51b815260040161066b90613bf3565b606654604051636eb1769f60e11b815285916001600160a01b03808a169263dd62ed3e9261146c923092911690600401613b7c565b60206040518083038186803b15801561148457600080fd5b505afa158015611498573d6000803e3d6000fd5b505050506040513d601f19601f820116820180604052508101906114bc9190613aea565b10156114cc576114cc8685612ecd565b836114d96001888861262f565b11156115235760405162461bcd60e51b8152602060048201526019602482015278125394d551919250d251539517d25394155517d05353d55395603a1b604482015260640161066b565b6000611530876001612f53565b606554604051634401edf760e11b81529192506000916001600160a01b0390911690638803dbee9061156e908a908a9087908f908c90600401613d7c565b600060405180830381600087803b15801561158857600080fd5b505af115801561159c573d6000803e3d6000fd5b505050506040513d6000823e601f3d908101601f191682016040526115c49190810190613996565b90506000816000815181106115db576115db613e85565b6020026020010151905060006305f5e100606b54836115fa9190613df2565b6116049190613dd0565b606c5460405163a9059cbb60e01b81529192506001600160a01b03808d169263a9059cbb926116399216908590600401613b63565b602060405180830381600087803b15801561165357600080fd5b505af1158015611667573d6000803e3d6000fd5b505050506040513d601f19601f8201168201806040525081019061168b9190613a5b565b506001600160a01b038a1663a9059cbb8c836116a7868d613e11565b6116b19190613e11565b6040518363ffffffff1660e01b81526004016116ce929190613b63565b602060405180830381600087803b1580156116e857600080fd5b505af11580156116fc573d6000803e3d6000fd5b505050506040513d601f19601f820116820180604052508101906117209190613a5b565b50606a54604051600080516020613ed883398151915291611752918d9186916001600160a01b03909116908e90613b96565b60405180910390a16117648183613db8565b9b909a5098505050505050505050565b606a5460009081906001600160a01b031633148061179c57506068546001600160a01b031633145b6117b85760405162461bcd60e51b815260040161066b90613bf3565b606954606654604051636eb1769f60e11b815286926001600160a01b039081169263dd62ed3e926117ef9230921690600401613b7c565b60206040518083038186803b15801561180757600080fd5b505afa15801561181b573d6000803e3d6000fd5b505050506040513d601f19601f8201168201806040525081019061183f9190613aea565b10156118cf5760695460665460405163095ea7b360e01b81526001600160a01b039283169263095ea7b39261187b929116908890600401613b63565b602060405180830381600087803b15801561189557600080fd5b505af11580156118a9573d6000803e3d6000fd5b505050506040513d601f19601f820116820180604052508101906118cd9190613a5b565b505b836118dc6000888861262f565b11156119265760405162461bcd60e51b8152602060048201526019602482015278125394d551919250d251539517d25394155517d05353d55395603a1b604482015260640161066b565b6000611933876000612f53565b90506060606560009054906101000a90046001600160a01b03166001600160a01b03166373b295c26040518163ffffffff1660e01b815260040160206040518083038186803b15801561198557600080fd5b505afa158015611999573d6000803e3d6000fd5b505050506040513d601f19601f820116820180604052508101906119bd9190613870565b6001600160a01b0316886001600160a01b03161415611a6b57606554604051633d2120b560e11b81526001600160a01b0390911690637a42416a90611a0e908a908a9087908f908c90600401613d7c565b600060405180830381600087803b158015611a2857600080fd5b505af1158015611a3c573d6000803e3d6000fd5b505050506040513d6000823e601f3d908101601f19168201604052611a649190810190613996565b9050611afc565b606554604051634401edf760e11b81526001600160a01b0390911690638803dbee90611aa3908a908a9087908f908c90600401613d7c565b600060405180830381600087803b158015611abd57600080fd5b505af1158015611ad1573d6000803e3d6000fd5b505050506040513d6000823e601f3d908101601f19168201604052611af99190810190613996565b90505b600081600081518110611b1157611b11613e85565b6020026020010151905060006305f5e100606b5483611b309190613df2565b611b3a9190613dd0565b606954606c5460405163a9059cbb60e01b81529293506001600160a01b039182169263a9059cbb92611b729216908590600401613b63565b602060405180830381600087803b158015611b8c57600080fd5b505af1158015611ba0573d6000803e3d6000fd5b505050506040513d601f19601f82011682018060405250810190611bc49190613a5b565b506069546001600160a01b031663a9059cbb8c83611be2868d613e11565b611bec9190613e11565b6040518363ffffffff1660e01b8152600401611c09929190613b63565b602060405180830381600087803b158015611c2357600080fd5b505af1158015611c37573d6000803e3d6000fd5b505050506040513d601f19601f82011682018060405250810190611c5b9190613a5b565b50606a54604051600080516020613ed883398151915291611752916001600160a01b039091169085908e908e90613b96565b606a5460009081906001600160a01b0316331480611cb557506068546001600160a01b031633145b611cd15760405162461bcd60e51b815260040161066b90613bf3565b606954606654604051636eb1769f60e11b815287926001600160a01b039081169263dd62ed3e92611d089230921690600401613b7c565b60206040518083038186803b158015611d2057600080fd5b505afa158015611d34573d6000803e3d6000fd5b505050506040513d601f19601f82011682018060405250810190611d589190613aea565b1015611de85760695460665460405163095ea7b360e01b81526001600160a01b039283169263095ea7b392611d94929116908990600401613b63565b602060405180830381600087803b158015611dae57600080fd5b505af1158015611dc2573d6000803e3d6000fd5b505050506040513d601f19601f82011682018060405250810190611de69190613a5b565b505b83611df560008888612c36565b1015611e135760405162461bcd60e51b815260040161066b90613cac565b60006305f5e100606b5487611e289190613df2565b611e329190613dd0565b606954606c5460405163a9059cbb60e01b81529293506001600160a01b039182169263a9059cbb92611e6a9216908590600401613b63565b602060405180830381600087803b158015611e8457600080fd5b505af1158015611e98573d6000803e3d6000fd5b505050506040513d601f19601f82011682018060405250810190611ebc9190613a5b565b506000611eca886000612f53565b90506060606560009054906101000a90046001600160a01b03166001600160a01b03166373b295c26040518163ffffffff1660e01b815260040160206040518083038186803b158015611f1c57600080fd5b505afa158015611f30573d6000803e3d6000fd5b505050506040513d601f19601f82011682018060405250810190611f549190613870565b6001600160a01b0316896001600160a01b03161415612009576065546001600160a01b031663676528d1611f88858b613e11565b89858e8b6040518663ffffffff1660e01b8152600401611fac959493929190613d7c565b600060405180830381600087803b158015611fc657600080fd5b505af1158015611fda573d6000803e3d6000fd5b505050506040513d6000823e601f3d908101601f191682016040526120029190810190613996565b90506120a1565b6065546001600160a01b03166338ed1739612024858b613e11565b89858e8b6040518663ffffffff1660e01b8152600401612048959493929190613d7c565b600060405180830381600087803b15801561206257600080fd5b505af1158015612076573d6000803e3d6000fd5b505050506040513d6000823e601f3d908101601f1916820160405261209e9190810190613996565b90505b606a548151600080516020613ed8833981519152916001600160a01b0316908a908c90859061138a90600190613e11565b6000603782815481106120e7576120e7613e85565b6000918252602090912001546001600160a01b031692915050565b606a5460009081906001600160a01b031633148061212a57506068546001600160a01b031633145b6121465760405162461bcd60e51b815260040161066b90613bf3565b348461215b60016121556129a4565b84612c36565b10156121795760405162461bcd60e51b815260040161066b90613cac565b60006305f5e100606b548361218e9190613df2565b6121989190613dd0565b606c546040519192506001600160a01b03169082156108fc029083906000818181858888f193505050501580156121d3573d6000803e3d6000fd5b5060006121e86121e16129a4565b6001612f53565b6065549091506000906001600160a01b031663a2a1623d6122098587613e11565b8a858d8c6040518663ffffffff1660e01b815260040161222c9493929190613d47565b6000604051808303818588803b15801561224557600080fd5b505af1158015612259573d6000803e3d6000fd5b50505050506040513d6000823e601f3d908101601f191682016040526122829190810190613996565b606a5481519192507fa979c0b10cb04562c5689b2bb7868c45ff45a80db806e338eae84994215ba8059186916001600160a01b03169084906122c690600190613e11565b815181106122d6576122d6613e85565b6020026020010151604051612307939291909283526001600160a01b03919091166020830152604082015260600190565b60405180910390a1806001825161231e9190613e11565b8151811061232e5761232e613e85565b6020026020010151839550955050505050935093915050565b606a546001600160a01b031633148061236a57506068546001600160a01b031633145b6123865760405162461bcd60e51b815260040161066b90613bf3565b606954606654604051636eb1769f60e11b815283926001600160a01b039081169263dd62ed3e926123bd9230921690600401613b7c565b60206040518083038186803b1580156123d557600080fd5b505afa1580156123e9573d6000803e3d6000fd5b505050506040513d601f19601f8201168201806040525081019061240d9190613aea565b101561249f5760695460665460405163095ea7b360e01b81526001600160a01b039283169263095ea7b39261244b9291169060001990600401613b63565b602060405180830381600087803b15801561246557600080fd5b505af1158015612479573d6000803e3d6000fd5b505050506040513d601f19601f8201168201806040525081019061249d9190613a5b565b505b60006124ac836000612f53565b9050606560009054906101000a90046001600160a01b03166001600160a01b03166373b295c26040518163ffffffff1660e01b815260040160206040518083038186803b1580156124fc57600080fd5b505afa158015612510573d6000803e3d6000fd5b505050506040513d601f19601f820116820180604052508101906125349190613870565b6001600160a01b0316836001600160a01b031614156125bd57606554604051633b158ab160e11b81526001600160a01b039091169063762b15629061258690859060009086908a904290600401613d7c565b600060405180830381600087803b1580156125a057600080fd5b505af11580156125b4573d6000803e3d6000fd5b50505050612629565b606554604051635c11d79560e01b81526001600160a01b0390911690635c11d795906125f690859060009086908a904290600401613d7c565b600060405180830381600087803b15801561261057600080fd5b505af1158015612624573d6000803e3d6000fd5b505050505b50505050565b60008061263c8486612f53565b6065546040516307c0329d60e21b81529192506000916001600160a01b0390911690631f00ca74906126749087908690600401613d2e565b60006040518083038186803b15801561268c57600080fd5b505afa1580156126a0573d6000803e3d6000fd5b505050506040513d6000823e601f3d908101601f191682016040526126c89190810190613996565b90506000816000815181106126df576126df613e85565b602002602001015190506305f5e100606b546305f5e1006127009190613db8565b61270a9083613df2565b6127149190613dd0565b93505050505b9392505050565b606a546001600160a01b031633148061274457506068546001600160a01b031633145b6127605760405162461bcd60e51b815260040161066b90613bf3565b6305f5e1008111156127b45760405162461bcd60e51b815260206004820152601960248201527f464545533a207377617020657863656564696e67203130302500000000000000604482015260640161066b565b606b55565b600054610100900460ff166127d45760005460ff16156127d8565b303b155b61283b5760405162461bcd60e51b815260206004820152602e60248201527f496e697469616c697a61626c653a20636f6e747261637420697320616c72656160448201526d191e481a5b9a5d1a585b1a5e995960921b606482015260840161066b565b600054610100900460ff1615801561285d576000805461ffff19166101011790555b6001600160a01b0384166128a15760405162461bcd60e51b815260206004820152600b60248201526a524f55544552205a45524f60a81b604482015260640161066b565b6040805160018082528183019092526000916020808301908036833701905050905033816000815181106128d7576128d7613e85565b6001600160a01b03929092166020928302919091019091015260408051600180825281830190925260009181602001602082028036833701905050905060018160008151811061292957612929613e85565b60200260200101818152505061293f82826132b7565b5050606680546001600160a01b038087166001600160a01b0319928316811790935560658054831690931790925560688054821633179055606b859055606c8054928516929091169190911790558015612629576000805461ff001916905550505050565b606554604080516339d94ae160e11b815290516000926001600160a01b0316916373b295c2916004808301926020929190829003018186803b1580156129e957600080fd5b505afa1580156129fd573d6000803e3d6000fd5b505050506040513d601f19601f82011682018060405250810190612a219190613870565b905090565b606a5460009081906001600160a01b0316331480612a4e57506068546001600160a01b031633145b612a6a5760405162461bcd60e51b815260040161066b90613bf3565b6000612a776121e16129a4565b606554604051638a657e6760e01b81529192506000916001600160a01b0390911690638a657e67903490612ab5908a9087908d908c90600401613d47565b6000604051808303818588803b158015612ace57600080fd5b505af1158015612ae2573d6000803e3d6000fd5b50505050506040513d6000823e601f3d908101601f19168201604052612b0b9190810190613996565b9050600081600081518110612b2257612b22613e85565b6020026020010151905060006305f5e100606b5483612b419190613df2565b612b4b9190613dd0565b606c546040519192506001600160a01b03169082156108fc029083906000818181858888f19350505050158015612b86573d6000803e3d6000fd5b506001600160a01b0389166108fc82612b9f8534613e11565b612ba99190613e11565b6040518115909202916000818181858888f19350505050158015612bd1573d6000803e3d6000fd5b50606a54604080518481526001600160a01b03909216602083015281018990527fa979c0b10cb04562c5689b2bb7868c45ff45a80db806e338eae84994215ba8059060600160405180910390a1612c288183613db8565b999098509650505050505050565b600080612c438486612f53565b60655460405163d06ca61f60e01b81529192506000916001600160a01b039091169063d06ca61f90612c7b9087908690600401613d2e565b60006040518083038186803b158015612c9357600080fd5b505afa158015612ca7573d6000803e3d6000fd5b505050506040513d6000823e601f3d908101601f19168201604052612ccf9190810190613996565b905060008160018351612ce29190613e11565b81518110612cf257612cf2613e85565b602002602001015190506305f5e100606b546305f5e1006127009190613e11565b6033546001600160a01b03841660009081526035602052604081205490918391612d3d9086613df2565b612d479190613dd0565b612d519190613e11565b949350505050565b80471015612da95760405162461bcd60e51b815260206004820152601d60248201527f416464726573733a20696e73756666696369656e742062616c616e6365000000604482015260640161066b565b6000826001600160a01b03168260405160006040518083038185875af1925050503d8060008114612df6576040519150601f19603f3d011682016040523d82523d6000602084013e612dfb565b606091505b5050905080612e725760405162461bcd60e51b815260206004820152603a60248201527f416464726573733a20756e61626c6520746f2073656e642076616c75652c207260448201527f6563697069656e74206d61792068617665207265766572746564000000000000606482015260840161066b565b505050565b612e728363a9059cbb60e01b8484604051602401612e96929190613b63565b60408051601f198184030181529190526020810180516001600160e01b03166001600160e01b0319909316929092179091526132ec565b60665460405163095ea7b360e01b815283916001600160a01b038084169263095ea7b392612f019216908690600401613b63565b602060405180830381600087803b158015612f1b57600080fd5b505af1158015612f2f573d6000803e3d6000fd5b505050506040513d601f19601f820116820180604052508101906126299190613a5b565b606554604080516339d94ae160e11b815290516060926001600160a01b0316916373b295c2916004808301926020929190829003018186803b158015612f9857600080fd5b505afa158015612fac573d6000803e3d6000fd5b505050506040513d601f19601f82011682018060405250810190612fd09190613870565b6001600160a01b0316836001600160a01b031614156130f857604080516002808252606082018352600092602083019080368337019050509050821561307a57838160008151811061302457613024613e85565b6001600160a01b039283166020918202929092010152606a5482519116908290600190811061305557613055613e85565b60200260200101906001600160a01b031690816001600160a01b0316815250506130f1565b606a5481516001600160a01b0390911690829060009061309c5761309c613e85565b60200260200101906001600160a01b031690816001600160a01b03168152505083816001815181106130d0576130d0613e85565b60200260200101906001600160a01b031690816001600160a01b0316815250505b9050610d7c565b60408051600380825260808201909252600091602082016060803683375050606554604080516339d94ae160e11b815290519394506001600160a01b03909116926373b295c292506004808301926020929190829003018186803b15801561315f57600080fd5b505afa158015613173573d6000803e3d6000fd5b505050506040513d601f19601f820116820180604052508101906131979190613870565b816001815181106131aa576131aa613e85565b60200260200101906001600160a01b031690816001600160a01b031681525050821561323a5783816000815181106131e4576131e4613e85565b6001600160a01b039283166020918202929092010152606a5482519116908290600290811061321557613215613e85565b60200260200101906001600160a01b031690816001600160a01b03168152505061271a565b606a5481516001600160a01b0390911690829060009061325c5761325c613e85565b60200260200101906001600160a01b031690816001600160a01b031681525050838160028151811061329057613290613e85565b60200260200101906001600160a01b031690816001600160a01b0316815250509392505050565b600054610100900460ff166132de5760405162461bcd60e51b815260040161066b90613ce3565b6132e882826133be565b5050565b6000613341826040518060400160405280602081526020017f5361666545524332303a206c6f772d6c6576656c2063616c6c206661696c6564815250856001600160a01b03166134fc9092919063ffffffff16565b805190915015612e72578080602001905181019061335f9190613a5b565b612e725760405162461bcd60e51b815260206004820152602a60248201527f5361666545524332303a204552433230206f7065726174696f6e20646964206e6044820152691bdd081cdd58d8d9595960b21b606482015260840161066b565b600054610100900460ff166133e55760405162461bcd60e51b815260040161066b90613ce3565b80518251146134515760405162461bcd60e51b815260206004820152603260248201527f5061796d656e7453706c69747465723a2070617965657320616e6420736861726044820152710cae640d8cadccee8d040dad2e6dac2e8c6d60731b606482015260840161066b565b60008251116134a25760405162461bcd60e51b815260206004820152601a60248201527f5061796d656e7453706c69747465723a206e6f20706179656573000000000000604482015260640161066b565b60005b8251811015612e72576134ea8382815181106134c3576134c3613e85565b60200260200101518383815181106134dd576134dd613e85565b602002602001015161350b565b806134f481613e54565b9150506134a5565b6060612d5184846000856136e9565b6001600160a01b0382166135765760405162461bcd60e51b815260206004820152602c60248201527f5061796d656e7453706c69747465723a206163636f756e74206973207468652060448201526b7a65726f206164647265737360a01b606482015260840161066b565b600081116135c65760405162461bcd60e51b815260206004820152601d60248201527f5061796d656e7453706c69747465723a20736861726573206172652030000000604482015260640161066b565b6001600160a01b038216600090815260356020526040902054156136405760405162461bcd60e51b815260206004820152602b60248201527f5061796d656e7453706c69747465723a206163636f756e7420616c726561647960448201526a206861732073686172657360a81b606482015260840161066b565b60378054600181019091557f42a7b7dd785cd69714a189dffb3fd7d7174edc9ece837694ce50f7078f7c31ae0180546001600160a01b0319166001600160a01b03841690811790915560009081526035602052604090208190556033546136a8908290613db8565b6033556040517f40c340f65e17194d14ddddb073d3c9f888e3cb52b5aae0c6c7706b4fbc905fac906136dd9084908490613b63565b60405180910390a15050565b60608247101561374a5760405162461bcd60e51b815260206004820152602660248201527f416464726573733a20696e73756666696369656e742062616c616e636520666f6044820152651c8818d85b1b60d21b606482015260840161066b565b6001600160a01b0385163b6137a15760405162461bcd60e51b815260206004820152601d60248201527f416464726573733a2063616c6c20746f206e6f6e2d636f6e7472616374000000604482015260640161066b565b600080866001600160a01b031685876040516137bd9190613b47565b60006040518083038185875af1925050503d80600081146137fa576040519150601f19603f3d011682016040523d82523d6000602084013e6137ff565b606091505b509150915061380f82828661381a565b979650505050505050565b6060831561382957508161271a565b8251156138395782518084602001fd5b8160405162461bcd60e51b815260040161066b9190613bc0565b60006020828403121561386557600080fd5b813561271a81613eb1565b60006020828403121561388257600080fd5b815161271a81613eb1565b6000806000606084860312156138a257600080fd5b83356138ad81613eb1565b925060208401356138bd81613eb1565b929592945050506040919091013590565b600080600080600060a086880312156138e657600080fd5b85356138f181613eb1565b9450602086013561390181613eb1565b94979496505050506040830135926060810135926080909101359150565b60008060006060848603121561393457600080fd5b833561393f81613eb1565b925060208401359150604084013561395681613eb1565b809150509250925092565b60008060006060848603121561397657600080fd5b833561398181613eb1565b95602085013595506040909401359392505050565b600060208083850312156139a957600080fd5b825167ffffffffffffffff808211156139c157600080fd5b818501915085601f8301126139d557600080fd5b8151818111156139e7576139e7613e9b565b8060051b604051601f19603f83011681018181108582111715613a0c57613a0c613e9b565b604052828152858101935084860182860187018a1015613a2b57600080fd5b600095505b83861015613a4e578051855260019590950194938601938601613a30565b5098975050505050505050565b600060208284031215613a6d57600080fd5b815161271a81613ec9565b600080600060608486031215613a8d57600080fd5b83356138ad81613ec9565b60008060408385031215613aab57600080fd5b8235613ab681613eb1565b91506020830135613ac681613eb1565b809150509250929050565b600060208284031215613ae357600080fd5b5035919050565b600060208284031215613afc57600080fd5b5051919050565b600081518084526020808501945080840160005b83811015613b3c5781516001600160a01b031687529582019590820190600101613b17565b509495945050505050565b60008251613b59818460208701613e28565b9190910192915050565b6001600160a01b03929092168252602082015260400190565b6001600160a01b0392831681529116602082015260400190565b6001600160a01b039485168152602081019390935292166040820152606081019190915260800190565b6020815260008251806020840152613bdf816040850160208701613e28565b601f01601f19169190910160400192915050565b6020808252600e908201526d4163636573732044656e6965642160901b604082015260600190565b60208082526026908201527f5061796d656e7453706c69747465723a206163636f756e7420686173206e6f2060408201526573686172657360d01b606082015260800190565b6020808252602b908201527f5061796d656e7453706c69747465723a206163636f756e74206973206e6f742060408201526a191d59481c185e5b595b9d60aa1b606082015260800190565b6020808252601a908201527f494e53554646494349454e545f4f55545055545f414d4f554e54000000000000604082015260600190565b6020808252602b908201527f496e697469616c697a61626c653a20636f6e7472616374206973206e6f74206960408201526a6e697469616c697a696e6760a81b606082015260800190565b828152604060208201526000612d516040830184613b03565b848152608060208201526000613d606080830186613b03565b6001600160a01b03949094166040830152506060015292915050565b85815284602082015260a060408201526000613d9b60a0830186613b03565b6001600160a01b0394909416606083015250608001529392505050565b60008219821115613dcb57613dcb613e6f565b500190565b600082613ded57634e487b7160e01b600052601260045260246000fd5b500490565b6000816000190483118215151615613e0c57613e0c613e6f565b500290565b600082821015613e2357613e23613e6f565b500390565b60005b83811015613e43578181015183820152602001613e2b565b838111156126295750506000910152565b6000600019821415613e6857613e68613e6f565b5060010190565b634e487b7160e01b600052601160045260246000fd5b634e487b7160e01b600052603260045260246000fd5b634e487b7160e01b600052604160045260246000fd5b6001600160a01b0381168114613ec657600080fd5b50565b8015158114613ec657600080fdfedb587d878116df0bdd4fe154699aa2c5f439da001cc811dfd05d9f589fc5a8eea164736f6c6343000807000a",
  "devdoc": {
    "kind": "dev",
    "methods": {
      "payee(uint256)": {
        "details": "Getter for the address of the payee number `index`."
      },
      "release(address)": {
        "details": "Triggers a transfer to `account` of the amount of Ether they are owed, according to their percentage of the total shares and their previous withdrawals."
      },
      "release(address,address)": {
        "details": "Triggers a transfer to `account` of the amount of `token` tokens they are owed, according to their percentage of the total shares and their previous withdrawals. `token` must be the address of an IERC20 contract."
      },
      "released(address)": {
        "details": "Getter for the amount of Ether already released to a payee."
      },
      "released(address,address)": {
        "details": "Getter for the amount of `token` tokens already released to a payee. `token` should be the address of an IERC20 contract."
      },
      "shares(address)": {
        "details": "Getter for the amount of shares held by an account."
      },
      "totalReleased()": {
        "details": "Getter for the total amount of Ether already released."
      },
      "totalReleased(address)": {
        "details": "Getter for the total amount of `token` already released. `token` should be the address of an IERC20 contract."
      },
      "totalShares()": {
        "details": "Getter for the total shares held by payees."
      }
    },
    "version": 1
  },
  "userdoc": {
    "kind": "user",
    "methods": {},
    "version": 1
  },
  "storageLayout": {
    "storage": [
      {
        "astId": 598,
        "contract": "contracts/dependencies/LiquidityRouter.sol:LiquidityRouter",
        "label": "_initialized",
        "offset": 0,
        "slot": "0",
        "type": "t_bool"
      },
      {
        "astId": 601,
        "contract": "contracts/dependencies/LiquidityRouter.sol:LiquidityRouter",
        "label": "_initializing",
        "offset": 1,
        "slot": "0",
        "type": "t_bool"
      },
      {
        "astId": 1889,
        "contract": "contracts/dependencies/LiquidityRouter.sol:LiquidityRouter",
        "label": "__gap",
        "offset": 0,
        "slot": "1",
        "type": "t_array(t_uint256)50_storage"
      },
      {
        "astId": 163,
        "contract": "contracts/dependencies/LiquidityRouter.sol:LiquidityRouter",
        "label": "_totalShares",
        "offset": 0,
        "slot": "51",
        "type": "t_uint256"
      },
      {
        "astId": 165,
        "contract": "contracts/dependencies/LiquidityRouter.sol:LiquidityRouter",
        "label": "_totalReleased",
        "offset": 0,
        "slot": "52",
        "type": "t_uint256"
      },
      {
        "astId": 169,
        "contract": "contracts/dependencies/LiquidityRouter.sol:LiquidityRouter",
        "label": "_shares",
        "offset": 0,
        "slot": "53",
        "type": "t_mapping(t_address,t_uint256)"
      },
      {
        "astId": 173,
        "contract": "contracts/dependencies/LiquidityRouter.sol:LiquidityRouter",
        "label": "_released",
        "offset": 0,
        "slot": "54",
        "type": "t_mapping(t_address,t_uint256)"
      },
      {
        "astId": 176,
        "contract": "contracts/dependencies/LiquidityRouter.sol:LiquidityRouter",
        "label": "_payees",
        "offset": 0,
        "slot": "55",
        "type": "t_array(t_address)dyn_storage"
      },
      {
        "astId": 181,
        "contract": "contracts/dependencies/LiquidityRouter.sol:LiquidityRouter",
        "label": "_erc20TotalReleased",
        "offset": 0,
        "slot": "56",
        "type": "t_mapping(t_contract(IERC20Upgradeable)1356,t_uint256)"
      },
      {
        "astId": 188,
        "contract": "contracts/dependencies/LiquidityRouter.sol:LiquidityRouter",
        "label": "_erc20Released",
        "offset": 0,
        "slot": "57",
        "type": "t_mapping(t_contract(IERC20Upgradeable)1356,t_mapping(t_address,t_uint256))"
      },
      {
        "astId": 590,
        "contract": "contracts/dependencies/LiquidityRouter.sol:LiquidityRouter",
        "label": "__gap",
        "offset": 0,
        "slot": "58",
        "type": "t_array(t_uint256)43_storage"
      },
      {
        "astId": 8779,
        "contract": "contracts/dependencies/LiquidityRouter.sol:LiquidityRouter",
        "label": "uniswapV2Router",
        "offset": 0,
        "slot": "101",
        "type": "t_contract(IJoeRouter02)14610"
      },
      {
        "astId": 8781,
        "contract": "contracts/dependencies/LiquidityRouter.sol:LiquidityRouter",
        "label": "routerAddress",
        "offset": 0,
        "slot": "102",
        "type": "t_address"
      },
      {
        "astId": 8783,
        "contract": "contracts/dependencies/LiquidityRouter.sol:LiquidityRouter",
        "label": "uniswapV2Pair",
        "offset": 0,
        "slot": "103",
        "type": "t_address"
      },
      {
        "astId": 8785,
        "contract": "contracts/dependencies/LiquidityRouter.sol:LiquidityRouter",
        "label": "admin0xB",
        "offset": 0,
        "slot": "104",
        "type": "t_address_payable"
      },
      {
        "astId": 8788,
        "contract": "contracts/dependencies/LiquidityRouter.sol:LiquidityRouter",
        "label": "token",
        "offset": 0,
        "slot": "105",
        "type": "t_contract(IERC20)2517"
      },
      {
        "astId": 8790,
        "contract": "contracts/dependencies/LiquidityRouter.sol:LiquidityRouter",
        "label": "tokenAddress",
        "offset": 0,
        "slot": "106",
        "type": "t_address"
      },
      {
        "astId": 8792,
        "contract": "contracts/dependencies/LiquidityRouter.sol:LiquidityRouter",
        "label": "swapTaxFee",
        "offset": 0,
        "slot": "107",
        "type": "t_uint256"
      },
      {
        "astId": 8794,
        "contract": "contracts/dependencies/LiquidityRouter.sol:LiquidityRouter",
        "label": "swapTaxPool",
        "offset": 0,
        "slot": "108",
        "type": "t_address"
      },
      {
        "astId": 8796,
        "contract": "contracts/dependencies/LiquidityRouter.sol:LiquidityRouter",
        "label": "sellTax",
        "offset": 0,
        "slot": "109",
        "type": "t_uint256"
      }
    ],
    "types": {
      "t_address": {
        "encoding": "inplace",
        "label": "address",
        "numberOfBytes": "20"
      },
      "t_address_payable": {
        "encoding": "inplace",
        "label": "address payable",
        "numberOfBytes": "20"
      },
      "t_array(t_address)dyn_storage": {
        "base": "t_address",
        "encoding": "dynamic_array",
        "label": "address[]",
        "numberOfBytes": "32"
      },
      "t_array(t_uint256)43_storage": {
        "base": "t_uint256",
        "encoding": "inplace",
        "label": "uint256[43]",
        "numberOfBytes": "1376"
      },
      "t_array(t_uint256)50_storage": {
        "base": "t_uint256",
        "encoding": "inplace",
        "label": "uint256[50]",
        "numberOfBytes": "1600"
      },
      "t_bool": {
        "encoding": "inplace",
        "label": "bool",
        "numberOfBytes": "1"
      },
      "t_contract(IERC20)2517": {
        "encoding": "inplace",
        "label": "contract IERC20",
        "numberOfBytes": "20"
      },
      "t_contract(IERC20Upgradeable)1356": {
        "encoding": "inplace",
        "label": "contract IERC20Upgradeable",
        "numberOfBytes": "20"
      },
      "t_contract(IJoeRouter02)14610": {
        "encoding": "inplace",
        "label": "contract IJoeRouter02",
        "numberOfBytes": "20"
      },
      "t_mapping(t_address,t_uint256)": {
        "encoding": "mapping",
        "key": "t_address",
        "label": "mapping(address => uint256)",
        "numberOfBytes": "32",
        "value": "t_uint256"
      },
      "t_mapping(t_contract(IERC20Upgradeable)1356,t_mapping(t_address,t_uint256))": {
        "encoding": "mapping",
        "key": "t_contract(IERC20Upgradeable)1356",
        "label": "mapping(contract IERC20Upgradeable => mapping(address => uint256))",
        "numberOfBytes": "32",
        "value": "t_mapping(t_address,t_uint256)"
      },
      "t_mapping(t_contract(IERC20Upgradeable)1356,t_uint256)": {
        "encoding": "mapping",
        "key": "t_contract(IERC20Upgradeable)1356",
        "label": "mapping(contract IERC20Upgradeable => uint256)",
        "numberOfBytes": "32",
        "value": "t_uint256"
      },
      "t_uint256": {
        "encoding": "inplace",
        "label": "uint256",
        "numberOfBytes": "32"
      }
    }
  }
}