{
  "address": "0xcef5f7A4947ec0b61Fc37111A2C2Cb49fE56e0C0",
  "abi": [
    {
      "inputs": [
        {
          "internalType": "uint256",
          "name": "_sellTax",
          "type": "uint256"
        }
      ],
      "name": "InvalidSellTax",
      "type": "error"
    },
    {
      "anonymous": false,
      "inputs": [
        {
          "indexed": true,
          "internalType": "contract IERC20Upgradeable",
          "name": "token",
          "type": "address"
        },
        {
          "indexed": false,
          "internalType": "address",
          "name": "to",
          "type": "address"
        },
        {
          "indexed": false,
          "internalType": "uint256",
          "name": "amount",
          "type": "uint256"
        }
      ],
      "name": "ERC20PaymentReleased",
      "type": "event"
    },
    {
      "anonymous": false,
      "inputs": [
        {
          "indexed": false,
          "internalType": "address",
          "name": "account",
          "type": "address"
        },
        {
          "indexed": false,
          "internalType": "uint256",
          "name": "shares",
          "type": "uint256"
        }
      ],
      "name": "PayeeAdded",
      "type": "event"
    },
    {
      "anonymous": false,
      "inputs": [
        {
          "indexed": false,
          "internalType": "address",
          "name": "from",
          "type": "address"
        },
        {
          "indexed": false,
          "internalType": "uint256",
          "name": "amount",
          "type": "uint256"
        }
      ],
      "name": "PaymentReceived",
      "type": "event"
    },
    {
      "anonymous": false,
      "inputs": [
        {
          "indexed": false,
          "internalType": "address",
          "name": "to",
          "type": "address"
        },
        {
          "indexed": false,
          "internalType": "uint256",
          "name": "amount",
          "type": "uint256"
        }
      ],
      "name": "PaymentReleased",
      "type": "event"
    },
    {
      "anonymous": false,
      "inputs": [
        {
          "indexed": false,
          "internalType": "address",
          "name": "tokenIn",
          "type": "address"
        },
        {
          "indexed": false,
          "internalType": "uint256",
          "name": "amountIn",
          "type": "uint256"
        },
        {
          "indexed": false,
          "internalType": "address",
          "name": "tokenOut",
          "type": "address"
        },
        {
          "indexed": false,
          "internalType": "uint256",
          "name": "amountOut",
          "type": "uint256"
        }
      ],
      "name": "Swapped",
      "type": "event"
    },
    {
      "anonymous": false,
      "inputs": [
        {
          "indexed": false,
          "internalType": "uint256",
          "name": "amountIn",
          "type": "uint256"
        },
        {
          "indexed": false,
          "internalType": "address",
          "name": "tokenOut",
          "type": "address"
        },
        {
          "indexed": false,
          "internalType": "uint256",
          "name": "amountOut",
          "type": "uint256"
        }
      ],
      "name": "SwappedNative",
      "type": "event"
    },
    {
      "inputs": [],
      "name": "admin0xB",
      "outputs": [
        {
          "internalType": "address payable",
          "name": "",
          "type": "address"
        }
      ],
      "stateMutability": "view",
      "type": "function"
    },
    {
      "inputs": [
        {
          "internalType": "bool",
          "name": "is0xBOut",
          "type": "bool"
        },
        {
          "internalType": "address",
          "name": "targetToken",
          "type": "address"
        },
        {
          "internalType": "uint256",
          "name": "outputAmount",
          "type": "uint256"
        }
      ],
      "name": "getInputAmount",
      "outputs": [
        {
          "internalType": "uint256",
          "name": "",
          "type": "uint256"
        }
      ],
      "stateMutability": "view",
      "type": "function"
    },
    {
      "inputs": [
        {
          "internalType": "bool",
          "name": "is0xBOut",
          "type": "bool"
        },
        {
          "internalType": "address",
          "name": "targetToken",
          "type": "address"
        },
        {
          "internalType": "uint256",
          "name": "inputAmount",
          "type": "uint256"
        }
      ],
      "name": "getOutputAmount",
      "outputs": [
        {
          "internalType": "uint256",
          "name": "",
          "type": "uint256"
        }
      ],
      "stateMutability": "view",
      "type": "function"
    },
    {
      "inputs": [
        {
          "internalType": "address",
          "name": "_router",
          "type": "address"
        },
        {
          "internalType": "uint256",
          "name": "_fee",
          "type": "uint256"
        },
        {
          "internalType": "address",
          "name": "_pool",
          "type": "address"
        }
      ],
      "name": "initialize",
      "outputs": [],
      "stateMutability": "nonpayable",
      "type": "function"
    },
    {
      "inputs": [
        {
          "internalType": "uint256",
          "name": "index",
          "type": "uint256"
        }
      ],
      "name": "payee",
      "outputs": [
        {
          "internalType": "address",
          "name": "",
          "type": "address"
        }
      ],
      "stateMutability": "view",
      "type": "function"
    },
    {
      "inputs": [
        {
          "internalType": "address payable",
          "name": "account",
          "type": "address"
        }
      ],
      "name": "release",
      "outputs": [],
      "stateMutability": "nonpayable",
      "type": "function"
    },
    {
      "inputs": [
        {
          "internalType": "contract IERC20Upgradeable",
          "name": "token",
          "type": "address"
        },
        {
          "internalType": "address",
          "name": "account",
          "type": "address"
        }
      ],
      "name": "release",
      "outputs": [],
      "stateMutability": "nonpayable",
      "type": "function"
    },
    {
      "inputs": [
        {
          "internalType": "contract IERC20Upgradeable",
          "name": "token",
          "type": "address"
        },
        {
          "internalType": "address",
          "name": "account",
          "type": "address"
        }
      ],
      "name": "released",
      "outputs": [
        {
          "internalType": "uint256",
          "name": "",
          "type": "uint256"
        }
      ],
      "stateMutability": "view",
      "type": "function"
    },
    {
      "inputs": [
        {
          "internalType": "address",
          "name": "account",
          "type": "address"
        }
      ],
      "name": "released",
      "outputs": [
        {
          "internalType": "uint256",
          "name": "",
          "type": "uint256"
        }
      ],
      "stateMutability": "view",
      "type": "function"
    },
    {
      "inputs": [],
      "name": "routerAddress",
      "outputs": [
        {
          "internalType": "address",
          "name": "",
          "type": "address"
        }
      ],
      "stateMutability": "view",
      "type": "function"
    },
    {
      "inputs": [],
      "name": "sellTax",
      "outputs": [
        {
          "internalType": "uint256",
          "name": "",
          "type": "uint256"
        }
      ],
      "stateMutability": "view",
      "type": "function"
    },
    {
      "inputs": [
        {
          "internalType": "uint256",
          "name": "_sellTax",
          "type": "uint256"
        }
      ],
      "name": "setSellTax",
      "outputs": [],
      "stateMutability": "nonpayable",
      "type": "function"
    },
    {
      "inputs": [
        {
          "internalType": "address",
          "name": "_token",
          "type": "address"
        }
      ],
      "name": "setToken",
      "outputs": [],
      "stateMutability": "nonpayable",
      "type": "function"
    },
    {
      "inputs": [
        {
          "internalType": "address",
          "name": "account",
          "type": "address"
        }
      ],
      "name": "shares",
      "outputs": [
        {
          "internalType": "uint256",
          "name": "",
          "type": "uint256"
        }
      ],
      "stateMutability": "view",
      "type": "function"
    },
    {
      "inputs": [
        {
          "internalType": "address",
          "name": "receiver",
          "type": "address"
        },
        {
          "internalType": "address",
          "name": "outTokenAddr",
          "type": "address"
        },
        {
          "internalType": "uint256",
          "name": "amountOut",
          "type": "uint256"
        },
        {
          "internalType": "uint256",
          "name": "amountInMax",
          "type": "uint256"
        },
        {
          "internalType": "uint256",
          "name": "deadline",
          "type": "uint256"
        }
      ],
      "name": "swap0xBForExactToken",
      "outputs": [
        {
          "internalType": "uint256",
          "name": "",
          "type": "uint256"
        },
        {
          "internalType": "uint256",
          "name": "",
          "type": "uint256"
        }
      ],
      "stateMutability": "nonpayable",
      "type": "function"
    },
    {
      "inputs": [
        {
          "internalType": "address",
          "name": "receiver",
          "type": "address"
        },
        {
          "internalType": "uint256",
          "name": "amountOut",
          "type": "uint256"
        },
        {
          "internalType": "uint256",
          "name": "deadline",
          "type": "uint256"
        }
      ],
      "name": "swapAVAXForExact0xB",
      "outputs": [
        {
          "internalType": "uint256",
          "name": "",
          "type": "uint256"
        },
        {
          "internalType": "uint256",
          "name": "",
          "type": "uint256"
        }
      ],
      "stateMutability": "payable",
      "type": "function"
    },
    {
      "inputs": [
        {
          "internalType": "address",
          "name": "receiver",
          "type": "address"
        },
        {
          "internalType": "address",
          "name": "outTokenAddr",
          "type": "address"
        },
        {
          "internalType": "uint256",
          "name": "amountIn",
          "type": "uint256"
        },
        {
          "internalType": "uint256",
          "name": "amountOutMin",
          "type": "uint256"
        },
        {
          "internalType": "uint256",
          "name": "deadline",
          "type": "uint256"
        }
      ],
      "name": "swapExact0xBForToken",
      "outputs": [
        {
          "internalType": "uint256",
          "name": "",
          "type": "uint256"
        },
        {
          "internalType": "uint256",
          "name": "",
          "type": "uint256"
        }
      ],
      "stateMutability": "nonpayable",
      "type": "function"
    },
    {
      "inputs": [
        {
          "internalType": "address",
          "name": "receiver",
          "type": "address"
        },
        {
          "internalType": "address",
          "name": "outTokenAddr",
          "type": "address"
        },
        {
          "internalType": "uint256",
          "name": "amountIn",
          "type": "uint256"
        }
      ],
      "name": "swapExact0xBForTokenNoFee",
      "outputs": [],
      "stateMutability": "nonpayable",
      "type": "function"
    },
    {
      "inputs": [
        {
          "internalType": "address",
          "name": "receiver",
          "type": "address"
        },
        {
          "internalType": "uint256",
          "name": "amountOutMin",
          "type": "uint256"
        },
        {
          "internalType": "uint256",
          "name": "deadline",
          "type": "uint256"
        }
      ],
      "name": "swapExactAVAXFor0xB",
      "outputs": [
        {
          "internalType": "uint256",
          "name": "",
          "type": "uint256"
        },
        {
          "internalType": "uint256",
          "name": "",
          "type": "uint256"
        }
      ],
      "stateMutability": "payable",
      "type": "function"
    },
    {
      "inputs": [
        {
          "internalType": "address",
          "name": "receiver",
          "type": "address"
        },
        {
          "internalType": "address",
          "name": "inTokenAddr",
          "type": "address"
        },
        {
          "internalType": "uint256",
          "name": "amountIn",
          "type": "uint256"
        },
        {
          "internalType": "uint256",
          "name": "amountOutMin",
          "type": "uint256"
        },
        {
          "internalType": "uint256",
          "name": "deadline",
          "type": "uint256"
        }
      ],
      "name": "swapExactTokenFor0xB",
      "outputs": [
        {
          "internalType": "uint256",
          "name": "",
          "type": "uint256"
        },
        {
          "internalType": "uint256",
          "name": "",
          "type": "uint256"
        }
      ],
      "stateMutability": "nonpayable",
      "type": "function"
    },
    {
      "inputs": [],
      "name": "swapTaxFee",
      "outputs": [
        {
          "internalType": "uint256",
          "name": "",
          "type": "uint256"
        }
      ],
      "stateMutability": "view",
      "type": "function"
    },
    {
      "inputs": [],
      "name": "swapTaxPool",
      "outputs": [
        {
          "internalType": "address",
          "name": "",
          "type": "address"
        }
      ],
      "stateMutability": "view",
      "type": "function"
    },
    {
      "inputs": [
        {
          "internalType": "address",
          "name": "receiver",
          "type": "address"
        },
        {
          "internalType": "address",
          "name": "inTokenAddr",
          "type": "address"
        },
        {
          "internalType": "uint256",
          "name": "amountOut",
          "type": "uint256"
        },
        {
          "internalType": "uint256",
          "name": "amountInMax",
          "type": "uint256"
        },
        {
          "internalType": "uint256",
          "name": "deadline",
          "type": "uint256"
        }
      ],
      "name": "swapTokenForExact0xB",
      "outputs": [
        {
          "internalType": "uint256",
          "name": "",
          "type": "uint256"
        },
        {
          "internalType": "uint256",
          "name": "",
          "type": "uint256"
        }
      ],
      "stateMutability": "nonpayable",
      "type": "function"
    },
    {
      "inputs": [],
      "name": "tokenAddress",
      "outputs": [
        {
          "internalType": "address",
          "name": "",
          "type": "address"
        }
      ],
      "stateMutability": "view",
      "type": "function"
    },
    {
      "inputs": [
        {
          "internalType": "contract IERC20Upgradeable",
          "name": "token",
          "type": "address"
        }
      ],
      "name": "totalReleased",
      "outputs": [
        {
          "internalType": "uint256",
          "name": "",
          "type": "uint256"
        }
      ],
      "stateMutability": "view",
      "type": "function"
    },
    {
      "inputs": [],
      "name": "totalReleased",
      "outputs": [
        {
          "internalType": "uint256",
          "name": "",
          "type": "uint256"
        }
      ],
      "stateMutability": "view",
      "type": "function"
    },
    {
      "inputs": [],
      "name": "totalShares",
      "outputs": [
        {
          "internalType": "uint256",
          "name": "",
          "type": "uint256"
        }
      ],
      "stateMutability": "view",
      "type": "function"
    },
    {
      "inputs": [],
      "name": "uniswapV2Pair",
      "outputs": [
        {
          "internalType": "address",
          "name": "",
          "type": "address"
        }
      ],
      "stateMutability": "view",
      "type": "function"
    },
    {
      "inputs": [
        {
          "internalType": "address payable",
          "name": "newAdmin",
          "type": "address"
        }
      ],
      "name": "updateAdmin0xB",
      "outputs": [],
      "stateMutability": "nonpayable",
      "type": "function"
    },
    {
      "inputs": [
        {
          "internalType": "uint256",
          "name": "value",
          "type": "uint256"
        }
      ],
      "name": "updateSwapFee",
      "outputs": [],
      "stateMutability": "nonpayable",
      "type": "function"
    },
    {
      "inputs": [
        {
          "internalType": "address payable",
          "name": "newPool",
          "type": "address"
        }
      ],
      "name": "updateSwapTaxPool",
      "outputs": [],
      "stateMutability": "nonpayable",
      "type": "function"
    },
    {
      "inputs": [
        {
          "internalType": "address",
          "name": "_newAddr",
          "type": "address"
        }
      ],
      "name": "updateUniswapV2Router",
      "outputs": [],
      "stateMutability": "nonpayable",
      "type": "function"
    },
    {
      "inputs": [],
      "name": "wrappedNative",
      "outputs": [
        {
          "internalType": "address",
          "name": "",
          "type": "address"
        }
      ],
      "stateMutability": "view",
      "type": "function"
    },
    {
      "stateMutability": "payable",
      "type": "receive"
    }
  ],
  "transactionHash": "0xe35150dae27037a0a4ab6ac5a7d11665bbe722ea647a215507e8542cbb42bb17",
  "args": [],
  "numDeployments": 7,
  "solcInputHash": "07ffbf7f43a28f6f7338af2a02c11417",
  "bytecode": "0x608060405234801561001057600080fd5b50614026806100206000396000f3fe6080604052600436106101f25760003560e01c80638b83209b1161010d578063c350a1b5116100a0578063e33b7de31161006f578063e33b7de314610615578063eb6d3a111461062a578063ed9705da1461063f578063f5c1365314610652578063fd53fce01461067257600080fd5b8063c350a1b514610573578063cc1776d314610593578063ce7c2ac2146105a9578063d79779b2146105df57600080fd5b80639d76ea58116100dc5780639d76ea58146104f3578063b698f04414610513578063bd74767814610533578063bf16f65a1461055357600080fd5b80638b83209b1461046a5780638cd09d501461048a5780638f6e53b7146104aa5780639852595c146104bd57600080fd5b806348b75044116101855780636e54a8a0116101545780636e54a8a0146103d557806374cefd8a1461040a57806380be66cf1461042a57806388e5249f1461044a57600080fd5b806348b750441461035557806349bd5a5e1461037557806365b8dbc0146103955780636a63f5ee146103b557600080fd5b80631c293de5116101c15780631c293de5146102d65780633268cc56146102f65780633a98ef3914610316578063406072a91461033557600080fd5b80630584aecf1461023757806311eb47dc14610274578063144fa6d71461029457806319165587146102b657600080fd5b36610232577f6ef95f06320e7a25a04a175ca677b7052bdd97131872c2192525a629f51be7703334604051610228929190613c85565b60405180910390a1005b600080fd5b34801561024357600080fd5b50606854610257906001600160a01b031681565b6040516001600160a01b0390911681526020015b60405180910390f35b34801561028057600080fd5b50606c54610257906001600160a01b031681565b3480156102a057600080fd5b506102b46102af366004613975565b610688565b005b3480156102c257600080fd5b506102b46102d1366004613975565b610bde565b3480156102e257600080fd5b506102b46102f1366004613975565b610d03565b34801561030257600080fd5b50606654610257906001600160a01b031681565b34801561032257600080fd5b506033545b60405190815260200161026b565b34801561034157600080fd5b50610327610350366004613bba565b610db1565b34801561036157600080fd5b506102b4610370366004613bba565b610dde565b34801561038157600080fd5b50606754610257906001600160a01b031681565b3480156103a157600080fd5b506102b46103b0366004613975565b610f9d565b3480156103c157600080fd5b506102b46103d0366004613975565b6110ae565b3480156103e157600080fd5b506103f56103f03660046139f0565b61115b565b6040805192835260208301919091520161026b565b34801561041657600080fd5b506103f56104253660046139f0565b61144f565b34801561043657600080fd5b506103f56104453660046139f0565b6117d0565b34801561045657600080fd5b506103f56104653660046139f0565b611ce9565b34801561047657600080fd5b50610257610485366004613bf3565b612106565b34801561049657600080fd5b506102b46104a5366004613bf3565b612136565b6103f56104b8366004613a83565b61219e565b3480156104c957600080fd5b506103276104d8366004613975565b6001600160a01b031660009081526036602052604090205490565b3480156104ff57600080fd5b50606a54610257906001600160a01b031681565b34801561051f57600080fd5b506102b461052e3660046139af565b6123e3565b34801561053f57600080fd5b5061032761054e366004613b9a565b6126cb565b34801561055f57600080fd5b506102b461056e366004613bf3565b6127bd565b34801561057f57600080fd5b506102b461058e366004613a41565b612855565b34801561059f57600080fd5b50610327606d5481565b3480156105b557600080fd5b506103276105c4366004613975565b6001600160a01b031660009081526035602052604090205490565b3480156105eb57600080fd5b506103276105fa366004613975565b6001600160a01b031660009081526038602052604090205490565b34801561062157600080fd5b50603454610327565b34801561063657600080fd5b50610257612a40565b6103f561064d366004613a83565b612ac2565b34801561065e57600080fd5b5061032761066d366004613b9a565b612cd2565b34801561067e57600080fd5b50610327606b5481565b606a546001600160a01b03163314806106ab57506068546001600160a01b031633145b6106d05760405162461bcd60e51b81526004016106c790613d15565b60405180910390fd5b6001600160a01b03811661071d5760405162461bcd60e51b81526020600482015260146024820152732722abafaa27a5a2a71d103d32b9379030b2323960611b60448201526064016106c7565b606a80546001600160a01b03199081166001600160a01b03848116918217909355606980549092161790556065546040805163c45a015560e01b81529051600093929092169163c45a015591600480820192602092909190829003018186803b15801561078957600080fd5b505afa15801561079d573d6000803e3d6000fd5b505050506040513d601f19601f820116820180604052508101906107c19190613992565b606a54606554604080516339d94ae160e11b815290516001600160a01b039485169463c9c653969481169316916373b295c2916004808301926020929190829003018186803b15801561081357600080fd5b505afa158015610827573d6000803e3d6000fd5b505050506040513d601f19601f8201168201806040525081019061084b9190613992565b6040518363ffffffff1660e01b8152600401610868929190613c9e565b602060405180830381600087803b15801561088257600080fd5b505af19250505080156108b2575060408051601f3d908101601f191682019092526108af91810190613992565b60015b610a3a57606560009054906101000a90046001600160a01b03166001600160a01b031663c45a01556040518163ffffffff1660e01b815260040160206040518083038186803b15801561090457600080fd5b505afa158015610918573d6000803e3d6000fd5b505050506040513d601f19601f8201168201806040525081019061093c9190613992565b606a54606554604080516339d94ae160e11b815290516001600160a01b039485169463e6a439059481169316916373b295c2916004808301926020929190829003018186803b15801561098e57600080fd5b505afa1580156109a2573d6000803e3d6000fd5b505050506040513d601f19601f820116820180604052508101906109c69190613992565b6040518363ffffffff1660e01b81526004016109e3929190613c9e565b60206040518083038186803b1580156109fb57600080fd5b505afa158015610a0f573d6000803e3d6000fd5b505050506040513d601f19601f82011682018060405250810190610a339190613992565b9050610bbb565b50606560009054906101000a90046001600160a01b03166001600160a01b031663c45a01556040518163ffffffff1660e01b815260040160206040518083038186803b158015610a8957600080fd5b505afa158015610a9d573d6000803e3d6000fd5b505050506040513d601f19601f82011682018060405250810190610ac19190613992565b606a54606554604080516339d94ae160e11b815290516001600160a01b039485169463e6a439059481169316916373b295c2916004808301926020929190829003018186803b158015610b1357600080fd5b505afa158015610b27573d6000803e3d6000fd5b505050506040513d601f19601f82011682018060405250810190610b4b9190613992565b6040518363ffffffff1660e01b8152600401610b68929190613c9e565b60206040518083038186803b158015610b8057600080fd5b505afa158015610b94573d6000803e3d6000fd5b505050506040513d601f19601f82011682018060405250810190610bb89190613992565b90505b606780546001600160a01b0319166001600160a01b039290921691909117905550565b6001600160a01b038116600090815260356020526040902054610c135760405162461bcd60e51b81526004016106c790613d3d565b6000610c1e60345490565b610c289047613eda565b90506000610c558383610c50866001600160a01b031660009081526036602052604090205490565b612e35565b905080610c745760405162461bcd60e51b81526004016106c790613d83565b6001600160a01b03831660009081526036602052604081208054839290610c9c908490613eda565b925050819055508060346000828254610cb59190613eda565b90915550610cc590508382612e7b565b7fdf20fd1e76bc69d672e4814fafb2c449bba3a5369d8359adf9e05e6fde87b0568382604051610cf6929190613c85565b60405180910390a1505050565b606a546001600160a01b0316331480610d2657506068546001600160a01b031633145b610d425760405162461bcd60e51b81526004016106c790613d15565b6001600160a01b038116610d8f5760405162461bcd60e51b81526020600482015260146024820152732aa8222fa0a226a4a71d103d32b9379030b2323960611b60448201526064016106c7565b606880546001600160a01b0319166001600160a01b0392909216919091179055565b6001600160a01b038083166000908152603960209081526040808320938516835292905220545b92915050565b6001600160a01b038116600090815260356020526040902054610e135760405162461bcd60e51b81526004016106c790613d3d565b6001600160a01b0382166000908152603860205260408120546040516370a0823160e01b81523060048201526001600160a01b038516906370a082319060240160206040518083038186803b158015610e6b57600080fd5b505afa158015610e7f573d6000803e3d6000fd5b505050506040513d601f19601f82011682018060405250810190610ea39190613c0c565b610ead9190613eda565b90506000610ec08383610c508787610db1565b905080610edf5760405162461bcd60e51b81526004016106c790613d83565b6001600160a01b03808516600090815260396020908152604080832093871683529290529081208054839290610f16908490613eda565b90915550506001600160a01b03841660009081526038602052604081208054839290610f43908490613eda565b90915550610f549050848483612f99565b836001600160a01b03167f3be5b7a71e84ed12875d241991c70855ac5817d847039e17a9d895c1ceb0f18a8483604051610f8f929190613c85565b60405180910390a250505050565b606a546001600160a01b0316331480610fc057506068546001600160a01b031633145b610fdc5760405162461bcd60e51b81526004016106c790613d15565b6065546001600160a01b038281169116141561104b5760405162461bcd60e51b815260206004820152602860248201527f544b4e3a2054686520726f7574657220616c7265616479206861732074686174604482015267206164647265737360c01b60648201526084016106c7565b606680546001600160a01b0383166001600160a01b0319918216811790925560658054909116821790556040805163c45a015560e01b815290516000929163c45a0155916004808301926020929190829003018186803b15801561078957600080fd5b606a546001600160a01b03163314806110d157506068546001600160a01b031633145b6110ed5760405162461bcd60e51b81526004016106c790613d15565b6001600160a01b0381166111395760405162461bcd60e51b81526020600482015260136024820152722aa8222faba0a6261d103d32b9379030b2323960691b60448201526064016106c7565b606c80546001600160a01b0319166001600160a01b0392909216919091179055565b606a5460009081906001600160a01b031633148061118357506068546001600160a01b031633145b61119f5760405162461bcd60e51b81526004016106c790613d15565b606654604051636eb1769f60e11b815286916001600160a01b03808a169263dd62ed3e926111d4923092911690600401613c9e565b60206040518083038186803b1580156111ec57600080fd5b505afa158015611200573d6000803e3d6000fd5b505050506040513d601f19601f820116820180604052508101906112249190613c0c565b1015611234576112348686612fef565b8361124160018888612cd2565b101561125f5760405162461bcd60e51b81526004016106c790613dce565b60006305f5e100606b54876112749190613f14565b61127e9190613ef2565b606c5460405163a9059cbb60e01b81529192506001600160a01b03808a169263a9059cbb926112b39216908590600401613c85565b602060405180830381600087803b1580156112cd57600080fd5b505af11580156112e1573d6000803e3d6000fd5b505050506040513d601f19601f820116820180604052508101906113059190613b7d565b506000611313886001613075565b6065549091506000906001600160a01b03166338ed1739611334858b613f33565b89858e8b6040518663ffffffff1660e01b8152600401611358959493929190613e9e565b600060405180830381600087803b15801561137257600080fd5b505af1158015611386573d6000803e3d6000fd5b505050506040513d6000823e601f3d908101601f191682016040526113ae9190810190613ab8565b9050600080516020613ffa8339815191528989606a60009054906101000a90046001600160a01b031684600186516113e69190613f33565b815181106113f6576113f6613fa7565b602002602001015160405161140e9493929190613cb8565b60405180910390a180600182516114259190613f33565b8151811061143557611435613fa7565b602002602001015183945094505050509550959350505050565b606a5460009081906001600160a01b031633148061147757506068546001600160a01b031633145b6114935760405162461bcd60e51b81526004016106c790613d15565b606654604051636eb1769f60e11b815285916001600160a01b03808a169263dd62ed3e926114c8923092911690600401613c9e565b60206040518083038186803b1580156114e057600080fd5b505afa1580156114f4573d6000803e3d6000fd5b505050506040513d601f19601f820116820180604052508101906115189190613c0c565b1015611528576115288685612fef565b83611535600188886126cb565b111561157f5760405162461bcd60e51b8152602060048201526019602482015278125394d551919250d251539517d25394155517d05353d55395603a1b60448201526064016106c7565b600061158c876001613075565b606554604051634401edf760e11b81529192506000916001600160a01b0390911690638803dbee906115ca908a908a9087908f908c90600401613e9e565b600060405180830381600087803b1580156115e457600080fd5b505af11580156115f8573d6000803e3d6000fd5b505050506040513d6000823e601f3d908101601f191682016040526116209190810190613ab8565b905060008160008151811061163757611637613fa7565b6020026020010151905060006305f5e100606b54836116569190613f14565b6116609190613ef2565b606c5460405163a9059cbb60e01b81529192506001600160a01b03808d169263a9059cbb926116959216908590600401613c85565b602060405180830381600087803b1580156116af57600080fd5b505af11580156116c3573d6000803e3d6000fd5b505050506040513d601f19601f820116820180604052508101906116e79190613b7d565b506001600160a01b038a1663a9059cbb8c83611703868d613f33565b61170d9190613f33565b6040518363ffffffff1660e01b815260040161172a929190613c85565b602060405180830381600087803b15801561174457600080fd5b505af1158015611758573d6000803e3d6000fd5b505050506040513d601f19601f8201168201806040525081019061177c9190613b7d565b50606a54604051600080516020613ffa833981519152916117ae918d9186916001600160a01b03909116908e90613cb8565b60405180910390a16117c08183613eda565b9b909a5098505050505050505050565b606a5460009081906001600160a01b03163314806117f857506068546001600160a01b031633145b6118145760405162461bcd60e51b81526004016106c790613d15565b606954606654604051636eb1769f60e11b815286926001600160a01b039081169263dd62ed3e9261184b9230921690600401613c9e565b60206040518083038186803b15801561186357600080fd5b505afa158015611877573d6000803e3d6000fd5b505050506040513d601f19601f8201168201806040525081019061189b9190613c0c565b101561192b5760695460665460405163095ea7b360e01b81526001600160a01b039283169263095ea7b3926118d7929116908890600401613c85565b602060405180830381600087803b1580156118f157600080fd5b505af1158015611905573d6000803e3d6000fd5b505050506040513d601f19601f820116820180604052508101906119299190613b7d565b505b83611938600088886126cb565b11156119825760405162461bcd60e51b8152602060048201526019602482015278125394d551919250d251539517d25394155517d05353d55395603a1b60448201526064016106c7565b600061198f876000613075565b90506060606560009054906101000a90046001600160a01b03166001600160a01b03166373b295c26040518163ffffffff1660e01b815260040160206040518083038186803b1580156119e157600080fd5b505afa1580156119f5573d6000803e3d6000fd5b505050506040513d601f19601f82011682018060405250810190611a199190613992565b6001600160a01b0316886001600160a01b03161415611ac757606554604051633d2120b560e11b81526001600160a01b0390911690637a42416a90611a6a908a908a9087908f908c90600401613e9e565b600060405180830381600087803b158015611a8457600080fd5b505af1158015611a98573d6000803e3d6000fd5b505050506040513d6000823e601f3d908101601f19168201604052611ac09190810190613ab8565b9050611b58565b606554604051634401edf760e11b81526001600160a01b0390911690638803dbee90611aff908a908a9087908f908c90600401613e9e565b600060405180830381600087803b158015611b1957600080fd5b505af1158015611b2d573d6000803e3d6000fd5b505050506040513d6000823e601f3d908101601f19168201604052611b559190810190613ab8565b90505b600081600081518110611b6d57611b6d613fa7565b6020026020010151905060006305f5e100606b5483611b8c9190613f14565b611b969190613ef2565b606954606c5460405163a9059cbb60e01b81529293506001600160a01b039182169263a9059cbb92611bce9216908590600401613c85565b602060405180830381600087803b158015611be857600080fd5b505af1158015611bfc573d6000803e3d6000fd5b505050506040513d601f19601f82011682018060405250810190611c209190613b7d565b506069546001600160a01b031663a9059cbb8c83611c3e868d613f33565b611c489190613f33565b6040518363ffffffff1660e01b8152600401611c65929190613c85565b602060405180830381600087803b158015611c7f57600080fd5b505af1158015611c93573d6000803e3d6000fd5b505050506040513d601f19601f82011682018060405250810190611cb79190613b7d565b50606a54604051600080516020613ffa833981519152916117ae916001600160a01b039091169085908e908e90613cb8565b606a5460009081906001600160a01b0316331480611d1157506068546001600160a01b031633145b611d2d5760405162461bcd60e51b81526004016106c790613d15565b606954606654604051636eb1769f60e11b815287926001600160a01b039081169263dd62ed3e92611d649230921690600401613c9e565b60206040518083038186803b158015611d7c57600080fd5b505afa158015611d90573d6000803e3d6000fd5b505050506040513d601f19601f82011682018060405250810190611db49190613c0c565b1015611e445760695460665460405163095ea7b360e01b81526001600160a01b039283169263095ea7b392611df0929116908990600401613c85565b602060405180830381600087803b158015611e0a57600080fd5b505af1158015611e1e573d6000803e3d6000fd5b505050506040513d601f19601f82011682018060405250810190611e429190613b7d565b505b83611e5160008888612cd2565b1015611e6f5760405162461bcd60e51b81526004016106c790613dce565b60006305f5e100606b5487611e849190613f14565b611e8e9190613ef2565b606954606c5460405163a9059cbb60e01b81529293506001600160a01b039182169263a9059cbb92611ec69216908590600401613c85565b602060405180830381600087803b158015611ee057600080fd5b505af1158015611ef4573d6000803e3d6000fd5b505050506040513d601f19601f82011682018060405250810190611f189190613b7d565b506000611f26886000613075565b9050606560009054906101000a90046001600160a01b03166001600160a01b03166373b295c26040518163ffffffff1660e01b815260040160206040518083038186803b158015611f7657600080fd5b505afa158015611f8a573d6000803e3d6000fd5b505050506040513d601f19601f82011682018060405250810190611fae9190613992565b6001600160a01b0316886001600160a01b0316141561203d576065546001600160a01b031663762b1562611fe2848a613f33565b88848d8a6040518663ffffffff1660e01b8152600401612006959493929190613e9e565b600060405180830381600087803b15801561202057600080fd5b505af1158015612034573d6000803e3d6000fd5b505050506120af565b6065546001600160a01b0316635c11d795612058848a613f33565b88848d8a6040518663ffffffff1660e01b815260040161207c959493929190613e9e565b600060405180830381600087803b15801561209657600080fd5b505af11580156120aa573d6000803e3d6000fd5b505050505b60006120bd60008a8a612cd2565b606a54604051919250600080516020613ffa833981519152916120ef916001600160a01b0316908b908d908690613cb8565b60405180910390a199919850909650505050505050565b60006037828154811061211b5761211b613fa7565b6000918252602090912001546001600160a01b031692915050565b606a546001600160a01b031633148061215957506068546001600160a01b031633145b6121755760405162461bcd60e51b81526004016106c790613d15565b606481106121995760405163356008cf60e01b8152600481018290526024016106c7565b606d55565b606a5460009081906001600160a01b03163314806121c657506068546001600160a01b031633145b6121e25760405162461bcd60e51b81526004016106c790613d15565b34846121f760016121f1612a40565b84612cd2565b10156122155760405162461bcd60e51b81526004016106c790613dce565b60006305f5e100606b548361222a9190613f14565b6122349190613ef2565b606c546040519192506001600160a01b03169082156108fc029083906000818181858888f1935050505015801561226f573d6000803e3d6000fd5b50600061228461227d612a40565b6001613075565b6065549091506000906001600160a01b031663a2a1623d6122a58587613f33565b8a858d8c6040518663ffffffff1660e01b81526004016122c89493929190613e69565b6000604051808303818588803b1580156122e157600080fd5b505af11580156122f5573d6000803e3d6000fd5b50505050506040513d6000823e601f3d908101601f1916820160405261231e9190810190613ab8565b606a5481519192507fa979c0b10cb04562c5689b2bb7868c45ff45a80db806e338eae84994215ba8059186916001600160a01b031690849061236290600190613f33565b8151811061237257612372613fa7565b60200260200101516040516123a3939291909283526001600160a01b03919091166020830152604082015260600190565b60405180910390a180600182516123ba9190613f33565b815181106123ca576123ca613fa7565b6020026020010151839550955050505050935093915050565b606a546001600160a01b031633148061240657506068546001600160a01b031633145b6124225760405162461bcd60e51b81526004016106c790613d15565b606954606654604051636eb1769f60e11b815283926001600160a01b039081169263dd62ed3e926124599230921690600401613c9e565b60206040518083038186803b15801561247157600080fd5b505afa158015612485573d6000803e3d6000fd5b505050506040513d601f19601f820116820180604052508101906124a99190613c0c565b101561253b5760695460665460405163095ea7b360e01b81526001600160a01b039283169263095ea7b3926124e79291169060001990600401613c85565b602060405180830381600087803b15801561250157600080fd5b505af1158015612515573d6000803e3d6000fd5b505050506040513d601f19601f820116820180604052508101906125399190613b7d565b505b6000612548836000613075565b9050606560009054906101000a90046001600160a01b03166001600160a01b03166373b295c26040518163ffffffff1660e01b815260040160206040518083038186803b15801561259857600080fd5b505afa1580156125ac573d6000803e3d6000fd5b505050506040513d601f19601f820116820180604052508101906125d09190613992565b6001600160a01b0316836001600160a01b0316141561265957606554604051633b158ab160e11b81526001600160a01b039091169063762b15629061262290859060009086908a904290600401613e9e565b600060405180830381600087803b15801561263c57600080fd5b505af1158015612650573d6000803e3d6000fd5b505050506126c5565b606554604051635c11d79560e01b81526001600160a01b0390911690635c11d7959061269290859060009086908a904290600401613e9e565b600060405180830381600087803b1580156126ac57600080fd5b505af11580156126c0573d6000803e3d6000fd5b505050505b50505050565b6000806126d88486613075565b6065546040516307c0329d60e21b81529192506000916001600160a01b0390911690631f00ca74906127109087908690600401613e50565b60006040518083038186803b15801561272857600080fd5b505afa15801561273c573d6000803e3d6000fd5b505050506040513d6000823e601f3d908101601f191682016040526127649190810190613ab8565b905060008160008151811061277b5761277b613fa7565b602002602001015190506305f5e100606b546305f5e10061279c9190613eda565b6127a69083613f14565b6127b09190613ef2565b93505050505b9392505050565b606a546001600160a01b03163314806127e057506068546001600160a01b031633145b6127fc5760405162461bcd60e51b81526004016106c790613d15565b6305f5e1008111156128505760405162461bcd60e51b815260206004820152601960248201527f464545533a207377617020657863656564696e6720313030250000000000000060448201526064016106c7565b606b55565b600054610100900460ff166128705760005460ff1615612874565b303b155b6128d75760405162461bcd60e51b815260206004820152602e60248201527f496e697469616c697a61626c653a20636f6e747261637420697320616c72656160448201526d191e481a5b9a5d1a585b1a5e995960921b60648201526084016106c7565b600054610100900460ff161580156128f9576000805461ffff19166101011790555b6001600160a01b03841661293d5760405162461bcd60e51b815260206004820152600b60248201526a524f55544552205a45524f60a81b60448201526064016106c7565b60408051600180825281830190925260009160208083019080368337019050509050338160008151811061297357612973613fa7565b6001600160a01b0392909216602092830291909101909101526040805160018082528183019092526000918160200160208202803683370190505090506001816000815181106129c5576129c5613fa7565b6020026020010181815250506129db82826133d9565b5050606680546001600160a01b038087166001600160a01b0319928316811790935560658054831690931790925560688054821633179055606b859055606c80549285169290911691909117905580156126c5576000805461ff001916905550505050565b606554604080516339d94ae160e11b815290516000926001600160a01b0316916373b295c2916004808301926020929190829003018186803b158015612a8557600080fd5b505afa158015612a99573d6000803e3d6000fd5b505050506040513d601f19601f82011682018060405250810190612abd9190613992565b905090565b606a5460009081906001600160a01b0316331480612aea57506068546001600160a01b031633145b612b065760405162461bcd60e51b81526004016106c790613d15565b6000612b1361227d612a40565b606554604051638a657e6760e01b81529192506000916001600160a01b0390911690638a657e67903490612b51908a9087908d908c90600401613e69565b6000604051808303818588803b158015612b6a57600080fd5b505af1158015612b7e573d6000803e3d6000fd5b50505050506040513d6000823e601f3d908101601f19168201604052612ba79190810190613ab8565b9050600081600081518110612bbe57612bbe613fa7565b6020026020010151905060006305f5e100606b5483612bdd9190613f14565b612be79190613ef2565b606c546040519192506001600160a01b03169082156108fc029083906000818181858888f19350505050158015612c22573d6000803e3d6000fd5b506001600160a01b0389166108fc82612c3b8534613f33565b612c459190613f33565b6040518115909202916000818181858888f19350505050158015612c6d573d6000803e3d6000fd5b50606a54604080518481526001600160a01b03909216602083015281018990527fa979c0b10cb04562c5689b2bb7868c45ff45a80db806e338eae84994215ba8059060600160405180910390a1612cc48183613eda565b999098509650505050505050565b600080612cdf8486613075565b90508415612d19576305f5e100606b546305f5e100612cfe9190613f33565b612d089085613f14565b612d129190613ef2565b9250612d74565b60006305f5e100606b546305f5e100612d329190613eda565b612d3c9086613f14565b612d469190613ef2565b905060006064606d546064612d5b9190613f33565b612d659084613f14565b612d6f9190613ef2565b945050505b60655460405163d06ca61f60e01b81526000916001600160a01b03169063d06ca61f90612da79087908690600401613e50565b60006040518083038186803b158015612dbf57600080fd5b505afa158015612dd3573d6000803e3d6000fd5b505050506040513d6000823e601f3d908101601f19168201604052612dfb9190810190613ab8565b905060008160018351612e0e9190613f33565b81518110612e1e57612e1e613fa7565b602002602001015190508093505050509392505050565b6033546001600160a01b03841660009081526035602052604081205490918391612e5f9086613f14565b612e699190613ef2565b612e739190613f33565b949350505050565b80471015612ecb5760405162461bcd60e51b815260206004820152601d60248201527f416464726573733a20696e73756666696369656e742062616c616e636500000060448201526064016106c7565b6000826001600160a01b03168260405160006040518083038185875af1925050503d8060008114612f18576040519150601f19603f3d011682016040523d82523d6000602084013e612f1d565b606091505b5050905080612f945760405162461bcd60e51b815260206004820152603a60248201527f416464726573733a20756e61626c6520746f2073656e642076616c75652c207260448201527f6563697069656e74206d6179206861766520726576657274656400000000000060648201526084016106c7565b505050565b612f948363a9059cbb60e01b8484604051602401612fb8929190613c85565b60408051601f198184030181529190526020810180516001600160e01b03166001600160e01b03199093169290921790915261340e565b60665460405163095ea7b360e01b815283916001600160a01b038084169263095ea7b3926130239216908690600401613c85565b602060405180830381600087803b15801561303d57600080fd5b505af1158015613051573d6000803e3d6000fd5b505050506040513d601f19601f820116820180604052508101906126c59190613b7d565b606554604080516339d94ae160e11b815290516060926001600160a01b0316916373b295c2916004808301926020929190829003018186803b1580156130ba57600080fd5b505afa1580156130ce573d6000803e3d6000fd5b505050506040513d601f19601f820116820180604052508101906130f29190613992565b6001600160a01b0316836001600160a01b0316141561321a57604080516002808252606082018352600092602083019080368337019050509050821561319c57838160008151811061314657613146613fa7565b6001600160a01b039283166020918202929092010152606a5482519116908290600190811061317757613177613fa7565b60200260200101906001600160a01b031690816001600160a01b031681525050613213565b606a5481516001600160a01b039091169082906000906131be576131be613fa7565b60200260200101906001600160a01b031690816001600160a01b03168152505083816001815181106131f2576131f2613fa7565b60200260200101906001600160a01b031690816001600160a01b0316815250505b9050610dd8565b60408051600380825260808201909252600091602082016060803683375050606554604080516339d94ae160e11b815290519394506001600160a01b03909116926373b295c292506004808301926020929190829003018186803b15801561328157600080fd5b505afa158015613295573d6000803e3d6000fd5b505050506040513d601f19601f820116820180604052508101906132b99190613992565b816001815181106132cc576132cc613fa7565b60200260200101906001600160a01b031690816001600160a01b031681525050821561335c57838160008151811061330657613306613fa7565b6001600160a01b039283166020918202929092010152606a5482519116908290600290811061333757613337613fa7565b60200260200101906001600160a01b031690816001600160a01b0316815250506127b6565b606a5481516001600160a01b0390911690829060009061337e5761337e613fa7565b60200260200101906001600160a01b031690816001600160a01b03168152505083816002815181106133b2576133b2613fa7565b60200260200101906001600160a01b031690816001600160a01b0316815250509392505050565b600054610100900460ff166134005760405162461bcd60e51b81526004016106c790613e05565b61340a82826134e0565b5050565b6000613463826040518060400160405280602081526020017f5361666545524332303a206c6f772d6c6576656c2063616c6c206661696c6564815250856001600160a01b031661361e9092919063ffffffff16565b805190915015612f9457808060200190518101906134819190613b7d565b612f945760405162461bcd60e51b815260206004820152602a60248201527f5361666545524332303a204552433230206f7065726174696f6e20646964206e6044820152691bdd081cdd58d8d9595960b21b60648201526084016106c7565b600054610100900460ff166135075760405162461bcd60e51b81526004016106c790613e05565b80518251146135735760405162461bcd60e51b815260206004820152603260248201527f5061796d656e7453706c69747465723a2070617965657320616e6420736861726044820152710cae640d8cadccee8d040dad2e6dac2e8c6d60731b60648201526084016106c7565b60008251116135c45760405162461bcd60e51b815260206004820152601a60248201527f5061796d656e7453706c69747465723a206e6f2070617965657300000000000060448201526064016106c7565b60005b8251811015612f945761360c8382815181106135e5576135e5613fa7565b60200260200101518383815181106135ff576135ff613fa7565b602002602001015161362d565b8061361681613f76565b9150506135c7565b6060612e73848460008561380b565b6001600160a01b0382166136985760405162461bcd60e51b815260206004820152602c60248201527f5061796d656e7453706c69747465723a206163636f756e74206973207468652060448201526b7a65726f206164647265737360a01b60648201526084016106c7565b600081116136e85760405162461bcd60e51b815260206004820152601d60248201527f5061796d656e7453706c69747465723a2073686172657320617265203000000060448201526064016106c7565b6001600160a01b038216600090815260356020526040902054156137625760405162461bcd60e51b815260206004820152602b60248201527f5061796d656e7453706c69747465723a206163636f756e7420616c726561647960448201526a206861732073686172657360a81b60648201526084016106c7565b60378054600181019091557f42a7b7dd785cd69714a189dffb3fd7d7174edc9ece837694ce50f7078f7c31ae0180546001600160a01b0319166001600160a01b03841690811790915560009081526035602052604090208190556033546137ca908290613eda565b6033556040517f40c340f65e17194d14ddddb073d3c9f888e3cb52b5aae0c6c7706b4fbc905fac906137ff9084908490613c85565b60405180910390a15050565b60608247101561386c5760405162461bcd60e51b815260206004820152602660248201527f416464726573733a20696e73756666696369656e742062616c616e636520666f6044820152651c8818d85b1b60d21b60648201526084016106c7565b6001600160a01b0385163b6138c35760405162461bcd60e51b815260206004820152601d60248201527f416464726573733a2063616c6c20746f206e6f6e2d636f6e747261637400000060448201526064016106c7565b600080866001600160a01b031685876040516138df9190613c69565b60006040518083038185875af1925050503d806000811461391c576040519150601f19603f3d011682016040523d82523d6000602084013e613921565b606091505b509150915061393182828661393c565b979650505050505050565b6060831561394b5750816127b6565b82511561395b5782518084602001fd5b8160405162461bcd60e51b81526004016106c79190613ce2565b60006020828403121561398757600080fd5b81356127b681613fd3565b6000602082840312156139a457600080fd5b81516127b681613fd3565b6000806000606084860312156139c457600080fd5b83356139cf81613fd3565b925060208401356139df81613fd3565b929592945050506040919091013590565b600080600080600060a08688031215613a0857600080fd5b8535613a1381613fd3565b94506020860135613a2381613fd3565b94979496505050506040830135926060810135926080909101359150565b600080600060608486031215613a5657600080fd5b8335613a6181613fd3565b9250602084013591506040840135613a7881613fd3565b809150509250925092565b600080600060608486031215613a9857600080fd5b8335613aa381613fd3565b95602085013595506040909401359392505050565b60006020808385031215613acb57600080fd5b825167ffffffffffffffff80821115613ae357600080fd5b818501915085601f830112613af757600080fd5b815181811115613b0957613b09613fbd565b8060051b604051601f19603f83011681018181108582111715613b2e57613b2e613fbd565b604052828152858101935084860182860187018a1015613b4d57600080fd5b600095505b83861015613b70578051855260019590950194938601938601613b52565b5098975050505050505050565b600060208284031215613b8f57600080fd5b81516127b681613feb565b600080600060608486031215613baf57600080fd5b83356139cf81613feb565b60008060408385031215613bcd57600080fd5b8235613bd881613fd3565b91506020830135613be881613fd3565b809150509250929050565b600060208284031215613c0557600080fd5b5035919050565b600060208284031215613c1e57600080fd5b5051919050565b600081518084526020808501945080840160005b83811015613c5e5781516001600160a01b031687529582019590820190600101613c39565b509495945050505050565b60008251613c7b818460208701613f4a565b9190910192915050565b6001600160a01b03929092168252602082015260400190565b6001600160a01b0392831681529116602082015260400190565b6001600160a01b039485168152602081019390935292166040820152606081019190915260800190565b6020815260008251806020840152613d01816040850160208701613f4a565b601f01601f19169190910160400192915050565b6020808252600e908201526d4163636573732044656e6965642160901b604082015260600190565b60208082526026908201527f5061796d656e7453706c69747465723a206163636f756e7420686173206e6f2060408201526573686172657360d01b606082015260800190565b6020808252602b908201527f5061796d656e7453706c69747465723a206163636f756e74206973206e6f742060408201526a191d59481c185e5b595b9d60aa1b606082015260800190565b6020808252601a908201527f494e53554646494349454e545f4f55545055545f414d4f554e54000000000000604082015260600190565b6020808252602b908201527f496e697469616c697a61626c653a20636f6e7472616374206973206e6f74206960408201526a6e697469616c697a696e6760a81b606082015260800190565b828152604060208201526000612e736040830184613c25565b848152608060208201526000613e826080830186613c25565b6001600160a01b03949094166040830152506060015292915050565b85815284602082015260a060408201526000613ebd60a0830186613c25565b6001600160a01b0394909416606083015250608001529392505050565b60008219821115613eed57613eed613f91565b500190565b600082613f0f57634e487b7160e01b600052601260045260246000fd5b500490565b6000816000190483118215151615613f2e57613f2e613f91565b500290565b600082821015613f4557613f45613f91565b500390565b60005b83811015613f65578181015183820152602001613f4d565b838111156126c55750506000910152565b6000600019821415613f8a57613f8a613f91565b5060010190565b634e487b7160e01b600052601160045260246000fd5b634e487b7160e01b600052603260045260246000fd5b634e487b7160e01b600052604160045260246000fd5b6001600160a01b0381168114613fe857600080fd5b50565b8015158114613fe857600080fdfedb587d878116df0bdd4fe154699aa2c5f439da001cc811dfd05d9f589fc5a8eea164736f6c6343000807000a",
  "devdoc": {
    "kind": "dev",
    "methods": {
      "payee(uint256)": {
        "details": "Getter for the address of the payee number `index`."
      },
      "release(address)": {
        "details": "Triggers a transfer to `account` of the amount of Ether they are owed, according to their percentage of the total shares and their previous withdrawals."
      },
      "release(address,address)": {
        "details": "Triggers a transfer to `account` of the amount of `token` tokens they are owed, according to their percentage of the total shares and their previous withdrawals. `token` must be the address of an IERC20 contract."
      },
      "released(address)": {
        "details": "Getter for the amount of Ether already released to a payee."
      },
      "released(address,address)": {
        "details": "Getter for the amount of `token` tokens already released to a payee. `token` should be the address of an IERC20 contract."
      },
      "shares(address)": {
        "details": "Getter for the amount of shares held by an account."
      },
      "totalReleased()": {
        "details": "Getter for the total amount of Ether already released."
      },
      "totalReleased(address)": {
        "details": "Getter for the total amount of `token` already released. `token` should be the address of an IERC20 contract."
      },
      "totalShares()": {
        "details": "Getter for the total shares held by payees."
      }
    },
    "version": 1
  },
  "userdoc": {
    "kind": "user",
    "methods": {},
    "version": 1
  },
  "storageLayout": {
    "storage": [
      {
        "astId": 598,
        "contract": "contracts/dependencies/LiquidityRouter.sol:LiquidityRouter",
        "label": "_initialized",
        "offset": 0,
        "slot": "0",
        "type": "t_bool"
      },
      {
        "astId": 601,
        "contract": "contracts/dependencies/LiquidityRouter.sol:LiquidityRouter",
        "label": "_initializing",
        "offset": 1,
        "slot": "0",
        "type": "t_bool"
      },
      {
        "astId": 1889,
        "contract": "contracts/dependencies/LiquidityRouter.sol:LiquidityRouter",
        "label": "__gap",
        "offset": 0,
        "slot": "1",
        "type": "t_array(t_uint256)50_storage"
      },
      {
        "astId": 163,
        "contract": "contracts/dependencies/LiquidityRouter.sol:LiquidityRouter",
        "label": "_totalShares",
        "offset": 0,
        "slot": "51",
        "type": "t_uint256"
      },
      {
        "astId": 165,
        "contract": "contracts/dependencies/LiquidityRouter.sol:LiquidityRouter",
        "label": "_totalReleased",
        "offset": 0,
        "slot": "52",
        "type": "t_uint256"
      },
      {
        "astId": 169,
        "contract": "contracts/dependencies/LiquidityRouter.sol:LiquidityRouter",
        "label": "_shares",
        "offset": 0,
        "slot": "53",
        "type": "t_mapping(t_address,t_uint256)"
      },
      {
        "astId": 173,
        "contract": "contracts/dependencies/LiquidityRouter.sol:LiquidityRouter",
        "label": "_released",
        "offset": 0,
        "slot": "54",
        "type": "t_mapping(t_address,t_uint256)"
      },
      {
        "astId": 176,
        "contract": "contracts/dependencies/LiquidityRouter.sol:LiquidityRouter",
        "label": "_payees",
        "offset": 0,
        "slot": "55",
        "type": "t_array(t_address)dyn_storage"
      },
      {
        "astId": 181,
        "contract": "contracts/dependencies/LiquidityRouter.sol:LiquidityRouter",
        "label": "_erc20TotalReleased",
        "offset": 0,
        "slot": "56",
        "type": "t_mapping(t_contract(IERC20Upgradeable)1356,t_uint256)"
      },
      {
        "astId": 188,
        "contract": "contracts/dependencies/LiquidityRouter.sol:LiquidityRouter",
        "label": "_erc20Released",
        "offset": 0,
        "slot": "57",
        "type": "t_mapping(t_contract(IERC20Upgradeable)1356,t_mapping(t_address,t_uint256))"
      },
      {
        "astId": 590,
        "contract": "contracts/dependencies/LiquidityRouter.sol:LiquidityRouter",
        "label": "__gap",
        "offset": 0,
        "slot": "58",
        "type": "t_array(t_uint256)43_storage"
      },
      {
        "astId": 8779,
        "contract": "contracts/dependencies/LiquidityRouter.sol:LiquidityRouter",
        "label": "uniswapV2Router",
        "offset": 0,
        "slot": "101",
        "type": "t_contract(IJoeRouter02)14665"
      },
      {
        "astId": 8781,
        "contract": "contracts/dependencies/LiquidityRouter.sol:LiquidityRouter",
        "label": "routerAddress",
        "offset": 0,
        "slot": "102",
        "type": "t_address"
      },
      {
        "astId": 8783,
        "contract": "contracts/dependencies/LiquidityRouter.sol:LiquidityRouter",
        "label": "uniswapV2Pair",
        "offset": 0,
        "slot": "103",
        "type": "t_address"
      },
      {
        "astId": 8785,
        "contract": "contracts/dependencies/LiquidityRouter.sol:LiquidityRouter",
        "label": "admin0xB",
        "offset": 0,
        "slot": "104",
        "type": "t_address_payable"
      },
      {
        "astId": 8788,
        "contract": "contracts/dependencies/LiquidityRouter.sol:LiquidityRouter",
        "label": "token",
        "offset": 0,
        "slot": "105",
        "type": "t_contract(IERC20)2517"
      },
      {
        "astId": 8790,
        "contract": "contracts/dependencies/LiquidityRouter.sol:LiquidityRouter",
        "label": "tokenAddress",
        "offset": 0,
        "slot": "106",
        "type": "t_address"
      },
      {
        "astId": 8792,
        "contract": "contracts/dependencies/LiquidityRouter.sol:LiquidityRouter",
        "label": "swapTaxFee",
        "offset": 0,
        "slot": "107",
        "type": "t_uint256"
      },
      {
        "astId": 8794,
        "contract": "contracts/dependencies/LiquidityRouter.sol:LiquidityRouter",
        "label": "swapTaxPool",
        "offset": 0,
        "slot": "108",
        "type": "t_address"
      },
      {
        "astId": 8796,
        "contract": "contracts/dependencies/LiquidityRouter.sol:LiquidityRouter",
        "label": "sellTax",
        "offset": 0,
        "slot": "109",
        "type": "t_uint256"
      }
    ],
    "types": {
      "t_address": {
        "encoding": "inplace",
        "label": "address",
        "numberOfBytes": "20"
      },
      "t_address_payable": {
        "encoding": "inplace",
        "label": "address payable",
        "numberOfBytes": "20"
      },
      "t_array(t_address)dyn_storage": {
        "base": "t_address",
        "encoding": "dynamic_array",
        "label": "address[]",
        "numberOfBytes": "32"
      },
      "t_array(t_uint256)43_storage": {
        "base": "t_uint256",
        "encoding": "inplace",
        "label": "uint256[43]",
        "numberOfBytes": "1376"
      },
      "t_array(t_uint256)50_storage": {
        "base": "t_uint256",
        "encoding": "inplace",
        "label": "uint256[50]",
        "numberOfBytes": "1600"
      },
      "t_bool": {
        "encoding": "inplace",
        "label": "bool",
        "numberOfBytes": "1"
      },
      "t_contract(IERC20)2517": {
        "encoding": "inplace",
        "label": "contract IERC20",
        "numberOfBytes": "20"
      },
      "t_contract(IERC20Upgradeable)1356": {
        "encoding": "inplace",
        "label": "contract IERC20Upgradeable",
        "numberOfBytes": "20"
      },
      "t_contract(IJoeRouter02)14665": {
        "encoding": "inplace",
        "label": "contract IJoeRouter02",
        "numberOfBytes": "20"
      },
      "t_mapping(t_address,t_uint256)": {
        "encoding": "mapping",
        "key": "t_address",
        "label": "mapping(address => uint256)",
        "numberOfBytes": "32",
        "value": "t_uint256"
      },
      "t_mapping(t_contract(IERC20Upgradeable)1356,t_mapping(t_address,t_uint256))": {
        "encoding": "mapping",
        "key": "t_contract(IERC20Upgradeable)1356",
        "label": "mapping(contract IERC20Upgradeable => mapping(address => uint256))",
        "numberOfBytes": "32",
        "value": "t_mapping(t_address,t_uint256)"
      },
      "t_mapping(t_contract(IERC20Upgradeable)1356,t_uint256)": {
        "encoding": "mapping",
        "key": "t_contract(IERC20Upgradeable)1356",
        "label": "mapping(contract IERC20Upgradeable => uint256)",
        "numberOfBytes": "32",
        "value": "t_uint256"
      },
      "t_uint256": {
        "encoding": "inplace",
        "label": "uint256",
        "numberOfBytes": "32"
      }
    }
  }
}