{
  "address": "0x68db1C0d0755FA494dA8962cE8c3784296352A46",
  "abi": [
    {
      "inputs": [
        {
          "internalType": "string",
          "name": "_name",
          "type": "string"
        },
        {
          "internalType": "address",
          "name": "_token",
          "type": "address"
        },
        {
          "internalType": "uint256",
          "name": "_totalDistribute",
          "type": "uint256"
        },
        {
          "internalType": "uint256",
          "name": "_startTime",
          "type": "uint256"
        },
        {
          "internalType": "uint256",
          "name": "_duration",
          "type": "uint256"
        }
      ],
      "name": "addPool",
      "outputs": [],
      "stateMutability": "nonpayable",
      "type": "function"
    },
    {
      "inputs": [],
      "name": "admin0xB",
      "outputs": [
        {
          "internalType": "address",
          "name": "",
          "type": "address"
        }
      ],
      "stateMutability": "view",
      "type": "function"
    },
    {
      "inputs": [
        {
          "internalType": "uint32",
          "name": "_poolId",
          "type": "uint32"
        }
      ],
      "name": "claimAllReward",
      "outputs": [],
      "stateMutability": "nonpayable",
      "type": "function"
    },
    {
      "inputs": [
        {
          "internalType": "uint32",
          "name": "_poolId",
          "type": "uint32"
        },
        {
          "internalType": "uint8[]",
          "name": "_indices",
          "type": "uint8[]"
        }
      ],
      "name": "claimReward",
      "outputs": [],
      "stateMutability": "nonpayable",
      "type": "function"
    },
    {
      "inputs": [
        {
          "internalType": "uint32",
          "name": "_poolId",
          "type": "uint32"
        },
        {
          "internalType": "uint256",
          "name": "_amount",
          "type": "uint256"
        }
      ],
      "name": "deposit",
      "outputs": [],
      "stateMutability": "nonpayable",
      "type": "function"
    },
    {
      "inputs": [],
      "name": "earlyWithdrawTaxPool",
      "outputs": [
        {
          "internalType": "address",
          "name": "",
          "type": "address"
        }
      ],
      "stateMutability": "view",
      "type": "function"
    },
    {
      "inputs": [
        {
          "internalType": "uint32",
          "name": "_poolId",
          "type": "uint32"
        }
      ],
      "name": "getAPR",
      "outputs": [
        {
          "internalType": "uint256",
          "name": "apr",
          "type": "uint256"
        }
      ],
      "stateMutability": "view",
      "type": "function"
    },
    {
      "inputs": [
        {
          "internalType": "bool",
          "name": "_onlyActive",
          "type": "bool"
        }
      ],
      "name": "getJSONAllPoolsInfo",
      "outputs": [
        {
          "internalType": "string",
          "name": "res",
          "type": "string"
        }
      ],
      "stateMutability": "view",
      "type": "function"
    },
    {
      "inputs": [
        {
          "internalType": "bool",
          "name": "_onlyActive",
          "type": "bool"
        },
        {
          "internalType": "address",
          "name": "_user",
          "type": "address"
        }
      ],
      "name": "getJSONAllPoolsUser",
      "outputs": [
        {
          "internalType": "string",
          "name": "res",
          "type": "string"
        }
      ],
      "stateMutability": "view",
      "type": "function"
    },
    {
      "inputs": [
        {
          "internalType": "uint32",
          "name": "_poolId",
          "type": "uint32"
        }
      ],
      "name": "getJSONSinglePoolInfo",
      "outputs": [
        {
          "internalType": "string",
          "name": "res",
          "type": "string"
        }
      ],
      "stateMutability": "view",
      "type": "function"
    },
    {
      "inputs": [
        {
          "internalType": "uint32",
          "name": "_poolId",
          "type": "uint32"
        },
        {
          "internalType": "address",
          "name": "_user",
          "type": "address"
        }
      ],
      "name": "getJSONSinglePoolUser",
      "outputs": [
        {
          "internalType": "string",
          "name": "res",
          "type": "string"
        }
      ],
      "stateMutability": "view",
      "type": "function"
    },
    {
      "inputs": [],
      "name": "getPoolsCount",
      "outputs": [
        {
          "internalType": "uint256",
          "name": "",
          "type": "uint256"
        }
      ],
      "stateMutability": "view",
      "type": "function"
    },
    {
      "inputs": [
        {
          "internalType": "uint32",
          "name": "_poolId",
          "type": "uint32"
        },
        {
          "internalType": "address",
          "name": "addr",
          "type": "address"
        }
      ],
      "name": "getUserPendingReward",
      "outputs": [
        {
          "internalType": "string",
          "name": "res",
          "type": "string"
        },
        {
          "internalType": "uint256",
          "name": "ttl",
          "type": "uint256"
        }
      ],
      "stateMutability": "view",
      "type": "function"
    },
    {
      "inputs": [
        {
          "internalType": "uint32",
          "name": "_poolId",
          "type": "uint32"
        },
        {
          "internalType": "address",
          "name": "addr",
          "type": "address"
        }
      ],
      "name": "getUserStakeAmounts",
      "outputs": [
        {
          "internalType": "string",
          "name": "res",
          "type": "string"
        },
        {
          "internalType": "uint256",
          "name": "ttl",
          "type": "uint256"
        }
      ],
      "stateMutability": "view",
      "type": "function"
    },
    {
      "inputs": [
        {
          "internalType": "uint32",
          "name": "_poolId",
          "type": "uint32"
        },
        {
          "internalType": "address",
          "name": "addr",
          "type": "address"
        }
      ],
      "name": "getUserTimestamps",
      "outputs": [
        {
          "internalType": "string",
          "name": "res",
          "type": "string"
        },
        {
          "internalType": "uint256",
          "name": "minTs",
          "type": "uint256"
        }
      ],
      "stateMutability": "view",
      "type": "function"
    },
    {
      "inputs": [
        {
          "internalType": "uint32",
          "name": "_poolId",
          "type": "uint32"
        },
        {
          "internalType": "address",
          "name": "addr",
          "type": "address"
        }
      ],
      "name": "getUserUnstakedAmount",
      "outputs": [
        {
          "internalType": "string",
          "name": "res",
          "type": "string"
        }
      ],
      "stateMutability": "view",
      "type": "function"
    },
    {
      "inputs": [],
      "name": "initialize",
      "outputs": [],
      "stateMutability": "nonpayable",
      "type": "function"
    },
    {
      "inputs": [
        {
          "internalType": "address",
          "name": "addr",
          "type": "address"
        }
      ],
      "name": "isWhitelisted",
      "outputs": [
        {
          "internalType": "bool",
          "name": "",
          "type": "bool"
        }
      ],
      "stateMutability": "view",
      "type": "function"
    },
    {
      "inputs": [],
      "name": "lpStakingEntitiesLimit",
      "outputs": [
        {
          "internalType": "uint256",
          "name": "",
          "type": "uint256"
        }
      ],
      "stateMutability": "view",
      "type": "function"
    },
    {
      "inputs": [
        {
          "internalType": "uint32",
          "name": "_poolId",
          "type": "uint32"
        },
        {
          "internalType": "address",
          "name": "addr",
          "type": "address"
        },
        {
          "internalType": "uint32",
          "name": "_index",
          "type": "uint32"
        }
      ],
      "name": "pendingReward",
      "outputs": [
        {
          "internalType": "uint256",
          "name": "",
          "type": "uint256"
        }
      ],
      "stateMutability": "view",
      "type": "function"
    },
    {
      "inputs": [
        {
          "internalType": "uint256",
          "name": "",
          "type": "uint256"
        }
      ],
      "name": "pools",
      "outputs": [
        {
          "internalType": "string",
          "name": "name",
          "type": "string"
        },
        {
          "internalType": "contract IERC20",
          "name": "lpToken",
          "type": "address"
        },
        {
          "internalType": "uint256",
          "name": "lpAmountInPool",
          "type": "uint256"
        },
        {
          "internalType": "uint256",
          "name": "totalDistribute",
          "type": "uint256"
        },
        {
          "internalType": "uint256",
          "name": "startTime",
          "type": "uint256"
        },
        {
          "internalType": "uint256",
          "name": "duration",
          "type": "uint256"
        },
        {
          "internalType": "uint256",
          "name": "acc0xBPerShare",
          "type": "uint256"
        },
        {
          "internalType": "uint256",
          "name": "lastRewardTimestamp",
          "type": "uint256"
        }
      ],
      "stateMutability": "view",
      "type": "function"
    },
    {
      "inputs": [
        {
          "internalType": "uint256",
          "name": "_newLimit",
          "type": "uint256"
        }
      ],
      "name": "setLPStakingEntitiesLimit",
      "outputs": [],
      "stateMutability": "nonpayable",
      "type": "function"
    },
    {
      "inputs": [
        {
          "internalType": "uint256[]",
          "name": "_newLevels",
          "type": "uint256[]"
        }
      ],
      "name": "setTaxLevels",
      "outputs": [],
      "stateMutability": "nonpayable",
      "type": "function"
    },
    {
      "inputs": [
        {
          "internalType": "address",
          "name": "_token",
          "type": "address"
        }
      ],
      "name": "setToken",
      "outputs": [],
      "stateMutability": "nonpayable",
      "type": "function"
    },
    {
      "inputs": [
        {
          "internalType": "address",
          "name": "_pool",
          "type": "address"
        }
      ],
      "name": "setWithdrawTaxPool",
      "outputs": [],
      "stateMutability": "nonpayable",
      "type": "function"
    },
    {
      "inputs": [
        {
          "internalType": "uint256",
          "name": "_timeout",
          "type": "uint256"
        }
      ],
      "name": "setWithdrawTimeout",
      "outputs": [],
      "stateMutability": "nonpayable",
      "type": "function"
    },
    {
      "inputs": [
        {
          "internalType": "uint32",
          "name": "_poolId",
          "type": "uint32"
        },
        {
          "internalType": "address",
          "name": "addr",
          "type": "address"
        },
        {
          "internalType": "uint32",
          "name": "_index",
          "type": "uint32"
        }
      ],
      "name": "taxOfEntity",
      "outputs": [
        {
          "internalType": "uint256",
          "name": "",
          "type": "uint256"
        }
      ],
      "stateMutability": "view",
      "type": "function"
    },
    {
      "inputs": [],
      "name": "token0xBAddress",
      "outputs": [
        {
          "internalType": "address",
          "name": "",
          "type": "address"
        }
      ],
      "stateMutability": "view",
      "type": "function"
    },
    {
      "inputs": [
        {
          "internalType": "uint32",
          "name": "_poolId",
          "type": "uint32"
        },
        {
          "internalType": "address",
          "name": "addr",
          "type": "address"
        }
      ],
      "name": "totalStakeOfUser",
      "outputs": [
        {
          "internalType": "uint256",
          "name": "totalStake",
          "type": "uint256"
        }
      ],
      "stateMutability": "view",
      "type": "function"
    },
    {
      "inputs": [
        {
          "internalType": "uint32",
          "name": "_poolId",
          "type": "uint32"
        }
      ],
      "name": "updatePool",
      "outputs": [],
      "stateMutability": "nonpayable",
      "type": "function"
    },
    {
      "inputs": [
        {
          "internalType": "uint32",
          "name": "",
          "type": "uint32"
        },
        {
          "internalType": "address",
          "name": "",
          "type": "address"
        }
      ],
      "name": "userInfo",
      "outputs": [
        {
          "internalType": "uint8",
          "name": "size",
          "type": "uint8"
        }
      ],
      "stateMutability": "view",
      "type": "function"
    },
    {
      "inputs": [
        {
          "internalType": "uint32",
          "name": "_poolId",
          "type": "uint32"
        },
        {
          "internalType": "uint8[]",
          "name": "_entityIndices",
          "type": "uint8[]"
        }
      ],
      "name": "withdraw",
      "outputs": [],
      "stateMutability": "nonpayable",
      "type": "function"
    },
    {
      "inputs": [
        {
          "internalType": "uint32",
          "name": "_poolId",
          "type": "uint32"
        }
      ],
      "name": "withdrawAll",
      "outputs": [],
      "stateMutability": "nonpayable",
      "type": "function"
    },
    {
      "inputs": [
        {
          "internalType": "uint256",
          "name": "",
          "type": "uint256"
        }
      ],
      "name": "withdrawTaxLevel",
      "outputs": [
        {
          "internalType": "uint256",
          "name": "",
          "type": "uint256"
        }
      ],
      "stateMutability": "view",
      "type": "function"
    },
    {
      "inputs": [
        {
          "internalType": "uint256",
          "name": "",
          "type": "uint256"
        }
      ],
      "name": "withdrawTaxPortion",
      "outputs": [
        {
          "internalType": "uint256",
          "name": "",
          "type": "uint256"
        }
      ],
      "stateMutability": "view",
      "type": "function"
    },
    {
      "inputs": [],
      "name": "withdrawTimeout",
      "outputs": [
        {
          "internalType": "uint256",
          "name": "",
          "type": "uint256"
        }
      ],
      "stateMutability": "view",
      "type": "function"
    },
    {
      "inputs": [
        {
          "internalType": "uint32",
          "name": "_poolId",
          "type": "uint32"
        },
        {
          "internalType": "address",
          "name": "addr",
          "type": "address"
        },
        {
          "internalType": "uint32",
          "name": "_index",
          "type": "uint32"
        }
      ],
      "name": "withdrawable",
      "outputs": [
        {
          "internalType": "bool",
          "name": "",
          "type": "bool"
        }
      ],
      "stateMutability": "view",
      "type": "function"
    },
    {
      "stateMutability": "payable",
      "type": "receive"
    }
  ],
  "transactionHash": "0x3072b4ac24f734a0bfbbdf721039af352e2667cc94c765ccbb22e1a2a3abe94a",
  "args": [],
  "numDeployments": 1,
  "solcInputHash": "b9f1ddccc9fb883d3b88c0c205b67c77",
  "bytecode": "0x608060405234801561001057600080fd5b5061435c806100206000396000f3fe60806040526004361061021e5760003560e01c8063992b10f411610123578063b2a17049116100ab578063d63c564b1161006f578063d63c564b146106a3578063db7c641f146106c3578063defd5307146106e3578063e17f8d5514610703578063eed873c21461071957600080fd5b8063b2a170491461060e578063b4ac68601461062e578063c3e691b514610643578063cedb682a14610663578063d4491a061461068357600080fd5b8063a6503e76116100f2578063a6503e761461055a578063aaf103981461057a578063ac4afa381461059a578063aeeacef1146105ce578063b0cdad26146105ee57600080fd5b8063992b10f4146104d657806399e9de00146104f65780639c15d1a214610516578063a494a0c01461052c57600080fd5b806341c67a1d116101a65780635643b4e3116101755780635643b4e314610441578063570bfc01146104615780635931583d1461048157806372941460146104a15780638129fc1c146104c157600080fd5b806341c67a1d146103b4578063480729df146103e15780634b7ea33d146104015780634dc89ff81461042157600080fd5b80632f3ef5da116101ed5780632f3ef5da146102d7578063303d50c2146102f75780633530f80a146103175780633af32abf146103645780633da3a82d1461039457600080fd5b80630584aecf1461022a578063144fa6d714610267578063190663991461028957806329efdc41146102a957600080fd5b3661022557005b600080fd5b34801561023657600080fd5b50600a5461024a906001600160a01b031681565b6040516001600160a01b0390911681526020015b60405180910390f35b34801561027357600080fd5b506102876102823660046136b0565b610739565b005b34801561029557600080fd5b506102876102a4366004613898565b6107ff565b3480156102b557600080fd5b506102c96102c43660046138e8565b61089b565b60405190815260200161025e565b3480156102e357600080fd5b506102876102f23660046138b1565b6109c3565b34801561030357600080fd5b506102c96103123660046138e8565b610b46565b34801561032357600080fd5b506103526103323660046138cc565b600760209081526000928352604080842090915290825290205460ff1681565b60405160ff909116815260200161025e565b34801561037057600080fd5b5061038461037f3660046136b0565b610df2565b604051901515815260200161025e565b3480156103a057600080fd5b506102c96103af366004613898565b610e10565b3480156103c057600080fd5b506103d46103cf3660046138cc565b610e31565b60405161025e9190613eeb565b3480156103ed57600080fd5b506102876103fc3660046136b0565b610f5e565b34801561040d57600080fd5b506103d461041c3660046138cc565b611010565b34801561042d57600080fd5b506103d461043c3660046138b1565b611135565b34801561044d57600080fd5b506103d461045c366004613768565b611443565b34801561046d57600080fd5b5061028761047c3660046136cb565b61160f565b34801561048d57600080fd5b506102c961049c366004613898565b6117e4565b3480156104ad57600080fd5b506102876104bc366004613898565b6117f4565b3480156104cd57600080fd5b50610287611847565b3480156104e257600080fd5b506103d46104f13660046137a2565b6119af565b34801561050257600080fd5b5061028761051136600461392b565b611a7c565b34801561052257600080fd5b506102c960025481565b34801561053857600080fd5b5061054c6105473660046138cc565b611d88565b60405161025e929190613f52565b34801561056657600080fd5b506102c96105753660046138cc565b611eac565b34801561058657600080fd5b506102876105953660046139e3565b611f46565b3480156105a657600080fd5b506105ba6105b5366004613898565b61220a565b60405161025e989796959493929190613efe565b3480156105da57600080fd5b506103846105e93660046138e8565b6122f6565b3480156105fa57600080fd5b5061054c6106093660046138cc565b6123a0565b34801561061a57600080fd5b506102c96106293660046138b1565b6124cd565b34801561063a57600080fd5b506006546102c9565b34801561064f57600080fd5b5061028761065e3660046138b1565b612670565b34801561066f57600080fd5b5060095461024a906001600160a01b031681565b34801561068f57600080fd5b5060055461024a906001600160a01b031681565b3480156106af57600080fd5b5061054c6106be3660046138cc565b612760565b3480156106cf57600080fd5b506102876106de3660046138b1565b6128a5565b3480156106ef57600080fd5b506102876106fe36600461392b565b6129e6565b34801561070f57600080fd5b506102c960015481565b34801561072557600080fd5b506102876107343660046137d7565b61301c565b6009546001600160a01b031633148061075c5750600a546001600160a01b031633145b8061076b575061076b33610df2565b6107905760405162461bcd60e51b815260040161078790613f74565b60405180910390fd5b6001600160a01b0381166107dd5760405162461bcd60e51b81526020600482015260146024820152732722abafaa27a5a2a71d103d32b9379030b2323960611b6044820152606401610787565b600980546001600160a01b0319166001600160a01b0392909216919091179055565b6009546001600160a01b03163314806108225750600a546001600160a01b031633145b80610831575061083133610df2565b61084d5760405162461bcd60e51b815260040161078790613f74565b600081116108965760405162461bcd60e51b81526020600482015260166024820152756c696d6974206d75737420626520706f73697469766560501b6044820152606401610787565b600155565b60065460009063ffffffff8516106108c55760405162461bcd60e51b815260040161078790613f9c565b63ffffffff841660009081526007602090815260408083206001600160a01b0387168452825280832060ff861684526001908101835281842082516080810184528154815291810154938201939093526002830154918101829052600390920154606083015290919061093890426141b1565b60045490915060009061094d906001906141b1565b90505b80156109b457816003828154811061096a5761096a614315565b9060005260206000200154116109a2576004818154811061098d5761098d614315565b906000526020600020015493505050506109bc565b806109ac8161421b565b915050610950565b506000925050505b9392505050565b600060068263ffffffff16815481106109de576109de614315565b90600052602060002090600802019050806007015442116109fd575050565b600281015480610a1257504260079091015550565b6000610b0b8360405180610100016040529081600082018054610a349061424f565b80601f0160208091040260200160405190810160405280929190818152602001828054610a609061424f565b8015610aad5780601f10610a8257610100808354040283529160200191610aad565b820191906000526020600020905b815481529060010190602001808311610a9057829003601f168201915b505050918352505060018201546001600160a01b03166020820152600282015460408201526003820154606082015260048201546080820152600582015460a0820152600682015460c082015260079091015460e09091015261324d565b610b19846007015442613285565b610b239190614171565b9050808360060154610b359190614013565b600684015550504260079091015550565b60065460009063ffffffff851610610b705760405162461bcd60e51b815260040161078790613f9c565b600060068563ffffffff1681548110610b8b57610b8b614315565b906000526020600020906008020160405180610100016040529081600082018054610bb59061424f565b80601f0160208091040260200160405190810160405280929190818152602001828054610be19061424f565b8015610c2e5780601f10610c0357610100808354040283529160200191610c2e565b820191906000526020600020905b815481529060010190602001808311610c1157829003601f168201915b505050505081526020016001820160009054906101000a90046001600160a01b03166001600160a01b03166001600160a01b03168152602001600282015481526020016003820154815260200160048201548152602001600582015481526020016006820154815260200160078201548152505090506000600760008763ffffffff1663ffffffff1681526020019081526020016000206000866001600160a01b03166001600160a01b03168152602001908152602001600020905060008160010160008660ff1660ff168152602001908152602001600020604051806080016040529081600082015481526020016001820154815260200160028201548152602001600382015481525050905060008360c0015190506000846040015190508460e0015142118015610d6057508015155b15610db5576000610d708661324d565b610d7e8760e0015142613285565b610d889190614171565b905081610d9d670de0b6b3a764000083614171565b610da79190614050565b610db19084614013565b9250505b60208301518351670de0b6b3a764000090610dd1908590614171565b610ddb9190614050565b610de591906141b1565b9998505050505050505050565b6001600160a01b031660009081526008602052604090205460ff1690565b60048181548110610e2057600080fd5b600091825260209091200154905081565b60065460609063ffffffff841610610e7b5760405162461bcd60e51b815260206004820152600d60248201526c1ddc9bdb99c81c1bdbdb081a59609a1b6044820152606401610787565b610e8a8363ffffffff16613291565b604051602001610e9a9190613e83565b604051602081830303815290604052905080610ebe610eb98585611eac565b613291565b604051602001610ecf929190613b5e565b60405160208183030381529060405290506000610eec8484611d88565b91505081610ef982613291565b604051602001610f0a929190613ac4565b60405160208183030381529060405291506000610f2785856123a0565b91505082610f3482613291565b604051602001610f45929190613bfa565b6040516020818303038152906040529250505092915050565b6009546001600160a01b0316331480610f815750600a546001600160a01b031633145b80610f905750610f9033610df2565b610fac5760405162461bcd60e51b815260040161078790613f74565b6001600160a01b038116610fee5760405162461bcd60e51b81526020600482015260096024820152683d32b9379030b2323960b91b6044820152606401610787565b600580546001600160a01b0319166001600160a01b0392909216919091179055565b60065460609063ffffffff84161061103a5760405162461bcd60e51b815260040161078790613f9c565b63ffffffff831660009081526007602090815260408083206001600160a01b03861684529091529020805460ff1661108257505060408051602081019091526000815261112f565b600080805260018201602052604090206003015461109f90613291565b915060015b815460ff908116908216101561112c5782604051806040016040528060018152602001602360f81b8152506110f68460010160008560ff1660ff16815260200190815260200160002060030154613291565b60405160200161110893929190613a39565b60405160208183030381529060405292508080611124906142c9565b9150506110a4565b50505b92915050565b60065460609063ffffffff83161061117f5760405162461bcd60e51b815260206004820152600d60248201526c1ddc9bdb99c81c1bdbdb081a59609a1b6044820152606401610787565b600060068363ffffffff168154811061119a5761119a614315565b9060005260206000209060080201604051806101000160405290816000820180546111c49061424f565b80601f01602080910402602001604051908101604052809291908181526020018280546111f09061424f565b801561123d5780601f106112125761010080835404028352916020019161123d565b820191906000526020600020905b81548152906001019060200180831161122057829003601f168201915b505050918352505060018201546001600160a01b03166020820152600282015460408201526003820154606082015260048201546080820152600582015460a0820152600682015460c082015260079091015460e09091015290506112a763ffffffff8416613291565b6040516020016112b79190613e3c565b60408051601f198184030181529082905282519093506112dc91849190602001613b10565b6040516020818303038152906040529150816112fb82602001516133ba565b60405160200161130c929190613cdb565b60405160208183030381529060405291508161132b8260400151613291565b60405160200161133c929190613bab565b60405160208183030381529060405291508161135b8260600151613291565b60405160200161136c929190613d29565b60405160208183030381529060405291508161138b8260800151613291565b60405160200161139c929190613a7c565b6040516020818303038152906040529150816113bb8260a00151613291565b6040516020016113cc929190613c8d565b6040516020818303038152906040529150816113eb8260c00151613291565b6040516020016113fc929190613c36565b60405160208183030381529060405291508161141b8260e00151613291565b60405160200161142c929190613bfa565b604051602081830303815290604052915050919050565b6040805180820190915260018152607b60f81b602082015260005b60065463ffffffff821610156115e757821580611593575061159360068263ffffffff168154811061149257611492614315565b9060005260206000209060080201604051806101000160405290816000820180546114bc9061424f565b80601f01602080910402602001604051908101604052809291908181526020018280546114e89061424f565b80156115355780601f1061150a57610100808354040283529160200191611535565b820191906000526020600020905b81548152906001019060200180831161151857829003601f168201915b505050918352505060018201546001600160a01b03166020820152600282015460408201526003820154606082015260048201546080820152600582015460a0820152600682015460c082015260079091015460e090910152613501565b156115d557816115a88263ffffffff16613291565b6115b183611135565b6040516020016115c393929190613d72565b60405160208183030381529060405291505b806115df816142a5565b91505061145e565b50806040516020016115f99190613de0565b6040516020818303038152906040529050919050565b6009546001600160a01b03163314806116325750600a546001600160a01b031633145b80611641575061164133610df2565b61165d5760405162461bcd60e51b815260040161078790613f74565b80516004146116a65760405162461bcd60e51b8152602060048201526015602482015274706c656173652077726974652034206c6576656c7360581b6044820152606401610787565b806000815181106116b9576116b9614315565b602002602001015160001480156117035750806000815181106116de576116de614315565b6020026020010151816001815181106116f9576116f9614315565b6020026020010151115b801561174257508060018151811061171d5761171d614315565b60200260200101518160028151811061173857611738614315565b6020026020010151115b801561178157508060028151811061175c5761175c614315565b60200260200101518160038151811061177757611777614315565b6020026020010151115b6117cd5760405162461bcd60e51b815260206004820152601d60248201527f6c6576656c73206d757374206265206e6f6e2d64656372656173696e670000006044820152606401610787565b80516117e0906003906020840190613570565b5050565b60038181548110610e2057600080fd5b6009546001600160a01b03163314806118175750600a546001600160a01b031633145b80611826575061182633610df2565b6118425760405162461bcd60e51b815260040161078790613f74565b600255565b600054610100900460ff166118625760005460ff1615611866565b303b155b6118c95760405162461bcd60e51b815260206004820152602e60248201527f496e697469616c697a61626c653a20636f6e747261637420697320616c72656160448201526d191e481a5b9a5d1a585b1a5e995960921b6064820152608401610787565b600054610100900460ff161580156118eb576000805461ffff19166101011790555b600a80546001600160a01b03191633179055606460015560006002819055604080516080810182528281526020810192909252810161192e62015180601e614171565b815260200161194162015180603c614171565b9052611951906003906004613570565b5060408051608081018252624c4b408082526020820152622625a0918101919091526000606082015261198790600490816135bb565b50600580546001600160a01b0319163317905580156119ac576000805461ff00191690555b50565b6040805180820190915260018152607b60f81b602082015260005b60065463ffffffff82161015611a53578315806119fe57506119fe60068263ffffffff168154811061149257611492614315565b15611a415781611a138263ffffffff16613291565b611a1d8386610e31565b604051602001611a2f93929190613d72565b60405160208183030381529060405291505b80611a4b816142a5565b9150506119ca565b5080604051602001611a659190613e0e565b604051602081830303815290604052905092915050565b60065463ffffffff831610611aa35760405162461bcd60e51b815260040161078790613f9c565b600060068363ffffffff1681548110611abe57611abe614315565b90600052602060002090600802019050611bca8160405180610100016040529081600082018054611aee9061424f565b80601f0160208091040260200160405190810160405280929190818152602001828054611b1a9061424f565b8015611b675780601f10611b3c57610100808354040283529160200191611b67565b820191906000526020600020905b815481529060010190602001808311611b4a57829003601f168201915b505050918352505060018201546001600160a01b03166020820152600282015460408201526003820154606082015260048201546080820152600582015460a0820152600682015460c082015260079091015460e0909101526080015142101590565b611c115760405162461bcd60e51b81526020600482015260186024820152771c1bdbdb081a185cc81b9bdd081cdd185c9d1959081e595d60421b6044820152606401610787565b63ffffffff83166000908152600760209081526040808320338085529252909120611c3b856109c3565b600080805b86518160ff161015611cf9576000878260ff1681518110611c6357611c63614315565b6020026020010151905060008560010160008360ff1660ff16815260200190815260200160002090508060010154670de0b6b3a764000089600601548360000154611cae9190614171565b611cb89190614050565b611cc291906141b1565b9350611cce8486614013565b9450838160010154611ce09190614013565b6001909101555080611cf1816142c9565b915050611c40565b5060095460405163a9059cbb60e01b81526001600160a01b039091169063a9059cbb90611d2c9087908690600401613ed2565b602060405180830381600087803b158015611d4657600080fd5b505af1158015611d5a573d6000803e3d6000fd5b505050506040513d601f19601f82011682018060405250810190611d7e9190613785565b5050505050505050565b60065460609060009063ffffffff851610611db55760405162461bcd60e51b815260040161078790613f9c565b63ffffffff841660009081526007602090815260408083206001600160a01b03871684529091529020805460ff16611e0157505060408051602081019091526000808252909150611ea5565b60009150611e14610eb986866000610b46565b925060015b815460ff9081169082161015611ea2576000611e3987878460ff16610b46565b9050611e458185614013565b935084604051806040016040528060018152602001602360f81b815250611e6b83613291565b604051602001611e7d93929190613a39565b6040516020818303038152906040529450508080611e9a906142c9565b915050611e19565b50505b9250929050565b60065460009063ffffffff841610611ed65760405162461bcd60e51b815260040161078790613f9c565b5063ffffffff821660009081526007602090815260408083206001600160a01b0385168452909152812060015b815460ff908116908216101561112c5760ff81166000908152600183016020526040902054611f329084614013565b925080611f3e816142c9565b915050611f03565b60065463ffffffff831610611f6d5760405162461bcd60e51b815260040161078790613f9c565b60008111611fac5760405162461bcd60e51b815260206004820152600c60248201526b706c65617365207374616b6560a01b6044820152606401610787565b63ffffffff82166000908152600760209081526040808320338085529252909120600154815460ff16106120325760405162461bcd60e51b815260206004820152602760248201527f746f6f206d616e7920656e7469746965732c20706c6561736520776974686472604482015266617720736f6d6560c81b6064820152608401610787565b600060068563ffffffff168154811061204d5761204d614315565b9060005260206000209060080201905061207d81604051806101000160405290816000820180546114bc9061424f565b6120b95760405162461bcd60e51b815260206004820152600d60248201526c706f6f6c20696e61637469766560981b6044820152606401610787565b6120c2856109c3565b60018101546040516323b872dd60e01b8152336004820152306024820152604481018690526001600160a01b03909116906323b872dd90606401602060405180830381600087803b15801561211657600080fd5b505af115801561212a573d6000803e3d6000fd5b505050506040513d601f19601f8201168201806040525081019061214e9190613785565b5083816002015461215f9190614013565b81600201819055506040518060800160405280858152602001670de0b6b3a76400008360060154876121919190614171565b61219b9190614050565b81524260208083019190915260006040928301819052855460ff9081168252600180880184529184902085518155928501518383015592840151600283015560609093015160039091015583546121f49291169061402b565b825460ff191660ff919091161790915550505050565b6006818154811061221a57600080fd5b906000526020600020906008020160009150905080600001805461223d9061424f565b80601f01602080910402602001604051908101604052809291908181526020018280546122699061424f565b80156122b65780601f1061228b576101008083540402835291602001916122b6565b820191906000526020600020905b81548152906001019060200180831161229957829003601f168201915b5050505060018301546002840154600385015460048601546005870154600688015460079098015496976001600160a01b03909516969395509193909288565b60065460009063ffffffff8516106123205760405162461bcd60e51b815260040161078790613f9c565b63ffffffff841660009081526007602090815260408083206001600160a01b0387168452825280832060ff86168452600190810183529281902081516080810183528154815293810154928401929092526002808301549184018290526003909201546060840152905442916123969190614013565b1095945050505050565b60065460609060009063ffffffff8516106123cd5760405162461bcd60e51b815260040161078790613f9c565b5063ffffffff831660009081526007602090815260408083206001600160a01b038616845290915290208054600019919060ff1661241c57506040805160208101909152600081529150611ea5565b600080805260018201602052604090206002015461243990613291565b925060015b815460ff9081169082161015611ea25760ff8116600090815260018084016020908152604092839020600201548351808501909452918352602360f81b9083015290859061248b83613291565b60405160200161249d93929190613a39565b6040516020818303038152906040529450838110156124ba578093505b50806124c5816142c9565b91505061243e565b60065460009063ffffffff8316106124f75760405162461bcd60e51b815260040161078790613f9c565b600060068363ffffffff168154811061251257612512614315565b90600052602060002090600802016040518061010001604052908160008201805461253c9061424f565b80601f01602080910402602001604051908101604052809291908181526020018280546125689061424f565b80156125b55780601f1061258a576101008083540402835291602001916125b5565b820191906000526020600020905b81548152906001019060200180831161259857829003601f168201915b505050505081526020016001820160009054906101000a90046001600160a01b03166001600160a01b03166001600160a01b031681526020016002820154815260200160038201548152602001600482015481526020016005820154815260200160068201548152602001600782015481525050905080604001518160a00151670de0b6b3a76400006301e1338084606001516126529190614171565b61265c9190614171565b6126669190614050565b6109bc9190614050565b60065463ffffffff8216106126975760405162461bcd60e51b815260040161078790613f9c565b63ffffffff811660009081526007602090815260408083203384529091528120805490919060ff1667ffffffffffffffff8111156126d7576126d761432b565b604051908082528060200260200182016040528015612700578160200160208202803683370190505b50905060005b825460ff90811690821610156127505780828260ff168151811061272c5761272c614315565b60ff9092166020928302919091019091015280612748816142c9565b915050612706565b5061275b8382611a7c565b505050565b60065460609060009063ffffffff85161061278d5760405162461bcd60e51b815260040161078790613f9c565b63ffffffff841660009081526007602090815260408083206001600160a01b03871684529091529020805460ff166127d957505060408051602081019091526000808252909150611ea5565b600080805260018201602052604081206003810154905491935061280191610eb99190614013565b925060015b815460ff9081169082161015611ea25760ff8116600090815260018301602052604081206003810154905461283b9190614013565b905084604051806040016040528060018152602001602360f81b81525061286183613291565b60405160200161287393929190613a39565b60408051601f19818403018152919052945061288f8185614013565b935050808061289d906142c9565b915050612806565b60065463ffffffff8216106128cc5760405162461bcd60e51b815260040161078790613f9c565b63ffffffff811660009081526007602090815260408083203384529091528120805490919060ff1667ffffffffffffffff81111561290c5761290c61432b565b604051908082528060200260200182016040528015612935578160200160208202803683370190505b50905060005b825460ff90811690821610156129df5761295984338360ff166122f6565b6129a55760405162461bcd60e51b815260206004820152601c60248201527f656e7469747920696e207769746864726177616c2074696d656f7574000000006044820152606401610787565b80828260ff16815181106129bb576129bb614315565b60ff90921660209283029190910190910152806129d7816142c9565b91505061293b565b5061275b83825b60065463ffffffff831610612a0d5760405162461bcd60e51b815260040161078790613f9c565b60005b8151811015612b1f57612a408333848481518110612a3057612a30614315565b602002602001015160ff166122f6565b612a8c5760405162461bcd60e51b815260206004820152601c60248201527f656e7469747920696e207769746864726177616c2074696d656f7574000000006044820152606401610787565b63ffffffff83166000908152600760209081526040808320338452909152902054825160ff90911690839083908110612ac757612ac7614315565b602002602001015160ff1610612b0d5760405162461bcd60e51b815260206004820152600b60248201526a0eee4dedcce40d2dcc8caf60ab1b6044820152606401610787565b80612b178161428a565b915050612a10565b5063ffffffff82166000908152600760209081526040808320338085529252909120612b4a846109c3565b600060068563ffffffff1681548110612b6557612b65614315565b906000526020600020906008020190506000806000808060005b8951811015612caf5760008860010160008c8481518110612ba257612ba2614315565b602002602001015160ff1660ff1681526020019081526020016000209050806000015492508060010154670de0b6b3a764000089600601548360000154612be99190614171565b612bf39190614050565b612bfd91906141b1565b9350612c098488614013565b96506305f5e100612c378d8c8e8681518110612c2757612c27614315565b602002602001015160ff1661089b565b612c419085614171565b612c4b9190614050565b612c559087614013565b9550612c618386614013565b9450838160010154612c739190614013565b60018201558054612c859084906141b1565b81556003810154612c97908490614013565b60039091015580612ca78161428a565b915050612b7f565b5060095460405163a9059cbb60e01b81526001600160a01b039091169063a9059cbb90612ce2908b908990600401613ed2565b602060405180830381600087803b158015612cfc57600080fd5b505af1158015612d10573d6000803e3d6000fd5b505050506040513d601f19601f82011682018060405250810190612d349190613785565b5060008411612d44576000612dce565b600186015460055460405163a9059cbb60e01b81526001600160a01b039283169263a9059cbb92612d7c929116908890600401613ed2565b602060405180830381600087803b158015612d9657600080fd5b505af1158015612daa573d6000803e3d6000fd5b505050506040513d601f19601f82011682018060405250810190612dce9190613785565b5060018601546001600160a01b031663a9059cbb89612ded87876141b1565b6040518363ffffffff1660e01b8152600401612e0a929190613ed2565b602060405180830381600087803b158015612e2457600080fd5b505af1158015612e38573d6000803e3d6000fd5b505050506040513d601f19601f82011682018060405250810190612e5c9190613785565b50828660020154612e6d91906141b1565b600287015586546000908190612e889060019060ff166141c8565b9050612eb56040518060800160405280600081526020016000815260200160008152602001600081525090565b895460ff908116908416108015612edf575060ff8316600090815260018b01602052604090205415155b15612ef65782612eee816142c9565b935050612eb5565b60ff8216600090815260018b016020526040902054612f2e5760ff8216612f1c57612f2e565b81612f2681614232565b925050612ef6565b8160ff168360ff1610612f4057612fd1565b5060ff80821660009081526001808c016020818152604080852081516080810183528154815281860154818501908152600280840154838601908152600394850154606085019081529a8d168a52969095529290962086518155915194820194909455915190820155925192019190915582612fbb816142c9565b9350508180612fc990614232565b925050612eb5565b60ff8216600090815260018b01602052604090205415612ffb57612ff682600161402b565b612ffe565b60005b8a5460ff191660ff9190911617909955505050505050505050505050565b6009546001600160a01b031633148061303f5750600a546001600160a01b031633145b8061304e575061304e33610df2565b61306a5760405162461bcd60e51b815260040161078790613f74565b428210156130c55760405162461bcd60e51b815260206004820152602260248201527f73746172742074696d652073686f756c6420626520696e207468652066757475604482015261726560f01b6064820152608401610787565b6009546040516323b872dd60e01b8152336004820152306024820152604481018590526001600160a01b03909116906323b872dd90606401602060405180830381600087803b15801561311757600080fd5b505af115801561312b573d6000803e3d6000fd5b505050506040513d601f19601f8201168201806040525081019061314f9190613785565b5060408051610100810182528681526001600160a01b0386166020808301919091526000928201839052606082018690526080820185905260a0820184905260c0820183905260e082018590526006805460018101825593528151805192936008027ff652222313e28459528d920b65115c16c04f3efc82aaedc97be59f3f377c0d3f01926131e192849201906135fd565b5060208201516001820180546001600160a01b0319166001600160a01b0390921691909117905560408201516002820155606082015160038201556080820151600482015560a0820151600582015560c0820151600682015560e0909101516007909101555050505050565b600081604001518260a00151670de0b6b3a764000084606001516132719190614171565b61327b9190614050565b61112f9190614050565b60006109bc83836141b1565b6060816132b55750506040805180820190915260018152600360fc1b602082015290565b8160005b81156132df57806132c98161428a565b91506132d89050600a83614050565b91506132b9565b60008167ffffffffffffffff8111156132fa576132fa61432b565b6040519080825280601f01601f191660200182016040528015613324576020820181803683370190505b509050815b85156133b15761333a6001826141b1565b90506000613349600a88614050565b61335490600a614171565b61335e90886141b1565b61336990603061402b565b905060008160f81b90508084848151811061338657613386614315565b60200101906001600160f81b031916908160001a9053506133a8600a89614050565b97505050613329565b50949350505050565b60408051602880825260608281019093526000919060208201818036833701905050905060005b60148110156134fa5760006133f78260136141b1565b613402906008614171565b61340d9060026140c9565b613420906001600160a01b038716614050565b60f81b9050600060108260f81c6134379190614064565b60f81b905060008160f81c601061344e9190614190565b8360f81c61345c91906141c8565b60f81b905061346a82613535565b85613476866002614171565b8151811061348657613486614315565b60200101906001600160f81b031916908160001a9053506134a681613535565b856134b2866002614171565b6134bd906001614013565b815181106134cd576134cd614315565b60200101906001600160f81b031916908160001a90535050505080806134f29061428a565b9150506133e1565b5092915050565b6000613511826080015142101590565b801561112f57508160a00151826080015161352c9190614013565b42111592915050565b6000600a60f883901c101561355c5761355360f883901c603061402b565b60f81b92915050565b61355360f883901c605761402b565b919050565b8280548282559060005260206000209081019282156135ab579160200282015b828111156135ab578251825591602001919060010190613590565b506135b7929150613670565b5090565b8280548282559060005260206000209081019282156135ab579160200282015b828111156135ab578251829062ffffff169055916020019190600101906135db565b8280546136099061424f565b90600052602060002090601f01602090048101928261362b57600085556135ab565b82601f1061364457805160ff19168380011785556135ab565b828001600101855582156135ab57918201828111156135ab578251825591602001919060010190613590565b5b808211156135b75760008155600101613671565b80356001600160a01b038116811461356b57600080fd5b803563ffffffff8116811461356b57600080fd5b6000602082840312156136c257600080fd5b6109bc82613685565b600060208083850312156136de57600080fd5b823567ffffffffffffffff8111156136f557600080fd5b8301601f8101851361370657600080fd5b803561371961371482613fef565b613fbe565b80828252848201915084840188868560051b870101111561373957600080fd5b600094505b8385101561375c57803583526001949094019391850191850161373e565b50979650505050505050565b60006020828403121561377a57600080fd5b81356109bc81614341565b60006020828403121561379757600080fd5b81516109bc81614341565b600080604083850312156137b557600080fd5b82356137c081614341565b91506137ce60208401613685565b90509250929050565b600080600080600060a086880312156137ef57600080fd5b853567ffffffffffffffff8082111561380757600080fd5b818801915088601f83011261381b57600080fd5b813560208282111561382f5761382f61432b565b613841601f8301601f19168201613fbe565b92508183528a8183860101111561385757600080fd5b81818501828501376000818385010152829850613875818b01613685565b989b989a5050505060408701359660608101359660809091013595509350505050565b6000602082840312156138aa57600080fd5b5035919050565b6000602082840312156138c357600080fd5b6109bc8261369c565b600080604083850312156138df57600080fd5b6137c08361369c565b6000806000606084860312156138fd57600080fd5b6139068461369c565b925061391460208501613685565b91506139226040850161369c565b90509250925092565b6000806040838503121561393e57600080fd5b6139478361369c565b915060208084013567ffffffffffffffff81111561396457600080fd5b8401601f8101861361397557600080fd5b803561398361371482613fef565b80828252848201915084840189868560051b87010111156139a357600080fd5b60009450845b848110156139d357813560ff811681146139c1578687fd5b845292860192908601906001016139a9565b5096999098509650505050505050565b600080604083850312156139f657600080fd5b6139ff8361369c565b946020939093013593505050565b60008151808452613a258160208601602086016141eb565b601f01601f19169290920160200192915050565b60008451613a4b8184602089016141eb565b845190830190613a5f8183602089016141eb565b8451910190613a728183602088016141eb565b0195945050505050565b60008351613a8e8184602088016141eb565b835190830190613aa28183602088016141eb565b6d111611323ab930ba34b7b7111d1160911b9101908152600e01949350505050565b60008351613ad68184602088016141eb565b835190830190613aea8183602088016141eb565b7111161136b4b72a34b6b2b9ba30b6b8111d1160711b9101908152601201949350505050565b60008351613b228184602088016141eb565b835190830190613b368183602088016141eb565b7311161136382a37b5b2b720b2323932b9b9911d1160611b9101908152601401949350505050565b60008351613b708184602088016141eb565b835190830190613b848183602088016141eb565b721116113832b73234b733a932bbb0b932111d1160691b9101908152601301949350505050565b60008351613bbd8184602088016141eb565b835190830190613bd18183602088016141eb565b741116113a37ba30b62234b9ba3934b13aba32911d1160591b9101908152601501949350505050565b60008351613c0c8184602088016141eb565b835190830190613c208183602088016141eb565b61227d60f01b9101908152600201949350505050565b60008351613c488184602088016141eb565b835190830190613c5c8183602088016141eb565b7f222c226c61737452657761726454696d657374616d70223a22000000000000009101908152601901949350505050565b60008351613c9f8184602088016141eb565b835190830190613cb38183602088016141eb565b7311161130b1b1983c212832b929b430b932911d1160611b9101908152601401949350505050565b60008351613ced8184602088016141eb565b835190830190613d018183602088016141eb565b73111611363820b6b7bab73a24b72837b7b6111d1160611b9101908152601401949350505050565b60008351613d3b8184602088016141eb565b835190830190613d4f8183602088016141eb565b6e11161139ba30b93a2a34b6b2911d1160891b9101908152600f01949350505050565b60008451613d848184602089016141eb565b601160f91b9083019081528451613da28160018401602089016141eb565b61111d60f11b600192909101918201528351613dc58160038401602088016141eb565b600b60fa1b6003929091019182015260040195945050505050565b60008251613df28184602087016141eb565b6922696e666f223a22227d60b01b920191825250600a01919050565b60008251613e208184602087016141eb565b692275736572223a22227d60b01b920191825250600a01919050565b693d9134b73232bc111d1160b11b81528151600090613e6281600a8501602087016141eb565b691116113730b6b2911d1160b11b600a939091019283015250601401919050565b693d9134b73232bc111d1160b11b81528151600090613ea981600a8501602087016141eb565b7111161139ba30b5b2b220b6b7bab73a111d1160711b600a939091019283015250601c01919050565b6001600160a01b03929092168252602082015260400190565b6020815260006109bc6020830184613a0d565b6000610100808352613f128184018c613a0d565b6001600160a01b039a909a166020840152505060408101969096526060860194909452608085019290925260a084015260c083015260e090910152919050565b604081526000613f656040830185613a0d565b90508260208301529392505050565b6020808252600e908201526d4163636573732044656e6965642160901b604082015260600190565b6020808252600890820152671ddc9bdb99c81a5960c21b604082015260600190565b604051601f8201601f1916810167ffffffffffffffff81118282101715613fe757613fe761432b565b604052919050565b600067ffffffffffffffff8211156140095761400961432b565b5060051b60200190565b60008219821115614026576140266142e9565b500190565b600060ff821660ff84168060ff03821115614048576140486142e9565b019392505050565b60008261405f5761405f6142ff565b500490565b600060ff831680614077576140776142ff565b8060ff84160491505092915050565b600181815b808511156140c15781600019048211156140a7576140a76142e9565b808516156140b457918102915b93841c939080029061408b565b509250929050565b60006109bc83836000826140df5750600161112f565b816140ec5750600061112f565b8160018114614102576002811461410c57614128565b600191505061112f565b60ff84111561411d5761411d6142e9565b50506001821b61112f565b5060208310610133831016604e8410600b841016171561414b575081810a61112f565b6141558383614086565b8060001904821115614169576141696142e9565b029392505050565b600081600019048311821515161561418b5761418b6142e9565b500290565b600060ff821660ff84168160ff0481118215151615614169576141696142e9565b6000828210156141c3576141c36142e9565b500390565b600060ff821660ff8416808210156141e2576141e26142e9565b90039392505050565b60005b838110156142065781810151838201526020016141ee565b83811115614215576000848401525b50505050565b60008161422a5761422a6142e9565b506000190190565b600060ff821680614245576142456142e9565b6000190192915050565b600181811c9082168061426357607f821691505b6020821081141561428457634e487b7160e01b600052602260045260246000fd5b50919050565b600060001982141561429e5761429e6142e9565b5060010190565b600063ffffffff808316818114156142bf576142bf6142e9565b6001019392505050565b600060ff821660ff8114156142e0576142e06142e9565b60010192915050565b634e487b7160e01b600052601160045260246000fd5b634e487b7160e01b600052601260045260246000fd5b634e487b7160e01b600052603260045260246000fd5b634e487b7160e01b600052604160045260246000fd5b80151581146119ac57600080fdfea164736f6c6343000807000a",
  "devdoc": {
    "kind": "dev",
    "methods": {
      "addPool(string,address,uint256,uint256,uint256)": {
        "params": {
          "_duration": "duration of pool",
          "_startTime": "timestamp to start pool",
          "_token": "address of LP token",
          "_totalDistribute": "total distribution in 0xB for this pool"
        }
      },
      "claimAllReward(uint32)": {
        "details": "update reward debt and send reward to user",
        "params": {
          "_poolId": "index of pool"
        }
      },
      "claimReward(uint32,uint8[])": {
        "details": "update reward debt and send reward to user",
        "params": {
          "_indices": "indices of entities",
          "_poolId": "index of pool"
        }
      },
      "deposit(uint32,uint256)": {
        "details": "add new entity to control staking timestamp and taxes, never add token to older entities. Set rewardDebt to amount of reward currently.",
        "params": {
          "_amount": "amount to stake",
          "_poolId": "index of one pool"
        }
      },
      "getAPR(uint32)": {
        "params": {
          "_poolId": "index of pool"
        },
        "returns": {
          "apr": "current APR of an LP pool"
        }
      },
      "getJSONAllPoolsInfo(bool)": {
        "params": {
          "_onlyActive": "decide if only return info of active pool"
        },
        "returns": {
          "res": "JSON"
        }
      },
      "getJSONAllPoolsUser(bool,address)": {
        "params": {
          "_onlyActive": "decide if only return info of active pool",
          "_user": "address of an user"
        },
        "returns": {
          "res": "JSON"
        }
      },
      "getJSONSinglePoolInfo(uint32)": {
        "params": {
          "_poolId": "index of pool"
        },
        "returns": {
          "res": "JSON"
        }
      },
      "getJSONSinglePoolUser(uint32,address)": {
        "params": {
          "_poolId": "index of pool",
          "_user": "address of an user"
        },
        "returns": {
          "res": "JSON"
        }
      },
      "getPoolsCount()": {
        "returns": {
          "_0": "len number of pools"
        }
      },
      "getUserPendingReward(uint32,address)": {
        "details": "result is returned as a string, which entities is separated with SEPARATOR",
        "params": {
          "_poolId": "index of pool",
          "addr": "address of user"
        },
        "returns": {
          "res": "result as a string"
        }
      },
      "getUserStakeAmounts(uint32,address)": {
        "details": "result is returned as a string, which entities is separated with SEPARATORfor each entity, the amount staked at first is separated into 2 variable: amount + withdrawn",
        "params": {
          "_poolId": "index of pool",
          "addr": "address of user"
        },
        "returns": {
          "res": "result as a string"
        }
      },
      "getUserTimestamps(uint32,address)": {
        "details": "result is returned as a string, which entities is separated with SEPARATOR",
        "params": {
          "_poolId": "index of pool",
          "addr": "address of user"
        },
        "returns": {
          "res": "result as a string"
        }
      },
      "getUserUnstakedAmount(uint32,address)": {
        "details": "result is returned as a string, which entities is separated with SEPARATOR",
        "params": {
          "_poolId": "index of pool",
          "addr": "address of user"
        },
        "returns": {
          "res": "result as a string"
        }
      },
      "isWhitelisted(address)": {
        "params": {
          "addr": "address to query"
        },
        "returns": {
          "_0": "isWhitelisted true if `addr` is whitelisted"
        }
      },
      "pendingReward(uint32,address,uint32)": {
        "details": "the accumulated reward per share is considered, add with reward from latest pool updateusing current state of pool (total lp in pool).the formula is: (a * n) + delta(now - l) * c - rewardDebta: accumulatedRewardPerShare in pool, n: total share, delta(now - l): seconds since last updatec: current reward per share per second, rewardDebt: reward already claimed by user in this pool",
        "params": {
          "_index": "index of some entity",
          "_poolId": "id of pool",
          "addr": "address of user"
        },
        "returns": {
          "_0": "reward pending reward of user"
        }
      },
      "setLPStakingEntitiesLimit(uint256)": {
        "params": {
          "_newLimit": "new limit"
        }
      },
      "setToken(address)": {
        "params": {
          "_token": "address of 0xB"
        }
      },
      "setWithdrawTaxPool(address)": {
        "params": {
          "_pool": "new tax pool"
        }
      },
      "setWithdrawTimeout(uint256)": {
        "params": {
          "_timeout": "new timeout"
        }
      },
      "taxOfEntity(uint32,address,uint32)": {
        "params": {
          "_index": "index of entity",
          "_poolId": "index of a pool",
          "addr": "address of an entity owner"
        },
        "returns": {
          "_0": "tax amount of tax of an entity"
        }
      },
      "totalStakeOfUser(uint32,address)": {
        "params": {
          "_poolId": "index of pool",
          "addr": "address of the user"
        },
        "returns": {
          "totalStake": "total amount of LP staked in the user"
        }
      },
      "updatePool(uint32)": {
        "details": "update accumulated reward per share of a pool for sake of reward optimization",
        "params": {
          "_poolId": "index of pool"
        }
      },
      "withdraw(uint32,uint8[])": {
        "details": "same as withdraw, relocations of entities from an user is required",
        "params": {
          "_entityIndices": "indices of entities to withdraw",
          "_poolId": "index of pool"
        }
      },
      "withdrawAll(uint32)": {
        "details": "call withdraw() with second params being all withdraw.",
        "params": {
          "_poolId": "index of pool"
        }
      },
      "withdrawable(uint32,address,uint32)": {
        "params": {
          "_index": "index of entity",
          "_poolId": "index of a pool",
          "addr": "address of an entity owner"
        },
        "returns": {
          "_0": "withdrawable true if the entity is withdrawable"
        }
      }
    },
    "version": 1
  },
  "userdoc": {
    "kind": "user",
    "methods": {
      "addPool(string,address,uint256,uint256,uint256)": {
        "notice": "add new pool to stake LP"
      },
      "claimAllReward(uint32)": {
        "notice": "claim all reward from all entity of pool"
      },
      "claimReward(uint32,uint8[])": {
        "notice": "claim all reward from some entities "
      },
      "deposit(uint32,uint256)": {
        "notice": "deposit _amount of lp to the pool with index _poolId to start new entity of staking"
      },
      "getAPR(uint32)": {
        "notice": "calculate the current APR of one LP pool"
      },
      "getJSONAllPoolsInfo(bool)": {
        "notice": "return a JSON includes info of all pool, can choose to get only active pools or not"
      },
      "getJSONAllPoolsUser(bool,address)": {
        "notice": "return a JSON includes info of all pool that specific to an user, can choose to get only active pools or not"
      },
      "getJSONSinglePoolInfo(uint32)": {
        "notice": "return a JSON includes all info of a pool"
      },
      "getJSONSinglePoolUser(uint32,address)": {
        "notice": "return a JSON includes all info of an user in a pool"
      },
      "getPoolsCount()": {
        "notice": "number of pools "
      },
      "getUserPendingReward(uint32,address)": {
        "notice": "get the pending rewards of every entity that user staked in one pool"
      },
      "getUserStakeAmounts(uint32,address)": {
        "notice": "get the stake amount of every entity that user staked in one pool"
      },
      "getUserTimestamps(uint32,address)": {
        "notice": "get the timestamps of every entity that user staked in one pool"
      },
      "getUserUnstakedAmount(uint32,address)": {
        "notice": "get the unstaked amount of every entity that user staked in one pool"
      },
      "isWhitelisted(address)": {
        "notice": "show if an address is whitelisted to create a pool"
      },
      "pendingReward(uint32,address,uint32)": {
        "notice": "calculate the unclaimed reward of a user in one entity"
      },
      "setLPStakingEntitiesLimit(uint256)": {
        "notice": "set new lpstaking entities limit"
      },
      "setToken(address)": {
        "notice": "set address of 0xB token"
      },
      "setWithdrawTaxPool(address)": {
        "notice": "set new withdrawal tax pool"
      },
      "setWithdrawTimeout(uint256)": {
        "notice": "set new withdrawal timeout"
      },
      "taxOfEntity(uint32,address,uint32)": {
        "notice": "return current tax of an entity"
      },
      "totalStakeOfUser(uint32,address)": {
        "notice": "calculate total stake of one address in a pool"
      },
      "updatePool(uint32)": {
        "notice": "update data in a lp staking pool"
      },
      "withdraw(uint32,uint8[])": {
        "notice": "withdraw all tokens from some entity."
      },
      "withdrawAll(uint32)": {
        "notice": "withdraw all entities of an user."
      },
      "withdrawable(uint32,address,uint32)": {
        "notice": "show if an entity is withdrawable"
      }
    },
    "version": 1
  },
  "storageLayout": {
    "storage": [
      {
        "astId": 598,
        "contract": "contracts/dependencies/LPStaking.sol:LPStaking",
        "label": "_initialized",
        "offset": 0,
        "slot": "0",
        "type": "t_bool"
      },
      {
        "astId": 601,
        "contract": "contracts/dependencies/LPStaking.sol:LPStaking",
        "label": "_initializing",
        "offset": 1,
        "slot": "0",
        "type": "t_bool"
      },
      {
        "astId": 7469,
        "contract": "contracts/dependencies/LPStaking.sol:LPStaking",
        "label": "lpStakingEntitiesLimit",
        "offset": 0,
        "slot": "1",
        "type": "t_uint256"
      },
      {
        "astId": 7471,
        "contract": "contracts/dependencies/LPStaking.sol:LPStaking",
        "label": "withdrawTimeout",
        "offset": 0,
        "slot": "2",
        "type": "t_uint256"
      },
      {
        "astId": 7474,
        "contract": "contracts/dependencies/LPStaking.sol:LPStaking",
        "label": "withdrawTaxLevel",
        "offset": 0,
        "slot": "3",
        "type": "t_array(t_uint256)dyn_storage"
      },
      {
        "astId": 7477,
        "contract": "contracts/dependencies/LPStaking.sol:LPStaking",
        "label": "withdrawTaxPortion",
        "offset": 0,
        "slot": "4",
        "type": "t_array(t_uint256)dyn_storage"
      },
      {
        "astId": 7479,
        "contract": "contracts/dependencies/LPStaking.sol:LPStaking",
        "label": "earlyWithdrawTaxPool",
        "offset": 0,
        "slot": "5",
        "type": "t_address"
      },
      {
        "astId": 7483,
        "contract": "contracts/dependencies/LPStaking.sol:LPStaking",
        "label": "pools",
        "offset": 0,
        "slot": "6",
        "type": "t_array(t_struct(PoolInfo)7467_storage)dyn_storage"
      },
      {
        "astId": 7490,
        "contract": "contracts/dependencies/LPStaking.sol:LPStaking",
        "label": "userInfo",
        "offset": 0,
        "slot": "7",
        "type": "t_mapping(t_uint32,t_mapping(t_address,t_struct(UserLPStakeInfo)7449_storage))"
      },
      {
        "astId": 7494,
        "contract": "contracts/dependencies/LPStaking.sol:LPStaking",
        "label": "whitelistAuthorities",
        "offset": 0,
        "slot": "8",
        "type": "t_mapping(t_address,t_bool)"
      },
      {
        "astId": 7496,
        "contract": "contracts/dependencies/LPStaking.sol:LPStaking",
        "label": "token0xBAddress",
        "offset": 0,
        "slot": "9",
        "type": "t_address"
      },
      {
        "astId": 7498,
        "contract": "contracts/dependencies/LPStaking.sol:LPStaking",
        "label": "admin0xB",
        "offset": 0,
        "slot": "10",
        "type": "t_address"
      }
    ],
    "types": {
      "t_address": {
        "encoding": "inplace",
        "label": "address",
        "numberOfBytes": "20"
      },
      "t_array(t_struct(PoolInfo)7467_storage)dyn_storage": {
        "base": "t_struct(PoolInfo)7467_storage",
        "encoding": "dynamic_array",
        "label": "struct LPStaking.PoolInfo[]",
        "numberOfBytes": "32"
      },
      "t_array(t_uint256)dyn_storage": {
        "base": "t_uint256",
        "encoding": "dynamic_array",
        "label": "uint256[]",
        "numberOfBytes": "32"
      },
      "t_bool": {
        "encoding": "inplace",
        "label": "bool",
        "numberOfBytes": "1"
      },
      "t_contract(IERC20)2517": {
        "encoding": "inplace",
        "label": "contract IERC20",
        "numberOfBytes": "20"
      },
      "t_mapping(t_address,t_bool)": {
        "encoding": "mapping",
        "key": "t_address",
        "label": "mapping(address => bool)",
        "numberOfBytes": "32",
        "value": "t_bool"
      },
      "t_mapping(t_address,t_struct(UserLPStakeInfo)7449_storage)": {
        "encoding": "mapping",
        "key": "t_address",
        "label": "mapping(address => struct LPStaking.UserLPStakeInfo)",
        "numberOfBytes": "32",
        "value": "t_struct(UserLPStakeInfo)7449_storage"
      },
      "t_mapping(t_uint32,t_mapping(t_address,t_struct(UserLPStakeInfo)7449_storage))": {
        "encoding": "mapping",
        "key": "t_uint32",
        "label": "mapping(uint32 => mapping(address => struct LPStaking.UserLPStakeInfo))",
        "numberOfBytes": "32",
        "value": "t_mapping(t_address,t_struct(UserLPStakeInfo)7449_storage)"
      },
      "t_mapping(t_uint8,t_struct(LPStakeEntity)7441_storage)": {
        "encoding": "mapping",
        "key": "t_uint8",
        "label": "mapping(uint8 => struct LPStaking.LPStakeEntity)",
        "numberOfBytes": "32",
        "value": "t_struct(LPStakeEntity)7441_storage"
      },
      "t_string_storage": {
        "encoding": "bytes",
        "label": "string",
        "numberOfBytes": "32"
      },
      "t_struct(LPStakeEntity)7441_storage": {
        "encoding": "inplace",
        "label": "struct LPStaking.LPStakeEntity",
        "members": [
          {
            "astId": 7434,
            "contract": "contracts/dependencies/LPStaking.sol:LPStaking",
            "label": "amount",
            "offset": 0,
            "slot": "0",
            "type": "t_uint256"
          },
          {
            "astId": 7436,
            "contract": "contracts/dependencies/LPStaking.sol:LPStaking",
            "label": "rewardDebt",
            "offset": 0,
            "slot": "1",
            "type": "t_uint256"
          },
          {
            "astId": 7438,
            "contract": "contracts/dependencies/LPStaking.sol:LPStaking",
            "label": "creationTime",
            "offset": 0,
            "slot": "2",
            "type": "t_uint256"
          },
          {
            "astId": 7440,
            "contract": "contracts/dependencies/LPStaking.sol:LPStaking",
            "label": "withdrawn",
            "offset": 0,
            "slot": "3",
            "type": "t_uint256"
          }
        ],
        "numberOfBytes": "128"
      },
      "t_struct(PoolInfo)7467_storage": {
        "encoding": "inplace",
        "label": "struct LPStaking.PoolInfo",
        "members": [
          {
            "astId": 7451,
            "contract": "contracts/dependencies/LPStaking.sol:LPStaking",
            "label": "name",
            "offset": 0,
            "slot": "0",
            "type": "t_string_storage"
          },
          {
            "astId": 7454,
            "contract": "contracts/dependencies/LPStaking.sol:LPStaking",
            "label": "lpToken",
            "offset": 0,
            "slot": "1",
            "type": "t_contract(IERC20)2517"
          },
          {
            "astId": 7456,
            "contract": "contracts/dependencies/LPStaking.sol:LPStaking",
            "label": "lpAmountInPool",
            "offset": 0,
            "slot": "2",
            "type": "t_uint256"
          },
          {
            "astId": 7458,
            "contract": "contracts/dependencies/LPStaking.sol:LPStaking",
            "label": "totalDistribute",
            "offset": 0,
            "slot": "3",
            "type": "t_uint256"
          },
          {
            "astId": 7460,
            "contract": "contracts/dependencies/LPStaking.sol:LPStaking",
            "label": "startTime",
            "offset": 0,
            "slot": "4",
            "type": "t_uint256"
          },
          {
            "astId": 7462,
            "contract": "contracts/dependencies/LPStaking.sol:LPStaking",
            "label": "duration",
            "offset": 0,
            "slot": "5",
            "type": "t_uint256"
          },
          {
            "astId": 7464,
            "contract": "contracts/dependencies/LPStaking.sol:LPStaking",
            "label": "acc0xBPerShare",
            "offset": 0,
            "slot": "6",
            "type": "t_uint256"
          },
          {
            "astId": 7466,
            "contract": "contracts/dependencies/LPStaking.sol:LPStaking",
            "label": "lastRewardTimestamp",
            "offset": 0,
            "slot": "7",
            "type": "t_uint256"
          }
        ],
        "numberOfBytes": "256"
      },
      "t_struct(UserLPStakeInfo)7449_storage": {
        "encoding": "inplace",
        "label": "struct LPStaking.UserLPStakeInfo",
        "members": [
          {
            "astId": 7443,
            "contract": "contracts/dependencies/LPStaking.sol:LPStaking",
            "label": "size",
            "offset": 0,
            "slot": "0",
            "type": "t_uint8"
          },
          {
            "astId": 7448,
            "contract": "contracts/dependencies/LPStaking.sol:LPStaking",
            "label": "entities",
            "offset": 0,
            "slot": "1",
            "type": "t_mapping(t_uint8,t_struct(LPStakeEntity)7441_storage)"
          }
        ],
        "numberOfBytes": "64"
      },
      "t_uint256": {
        "encoding": "inplace",
        "label": "uint256",
        "numberOfBytes": "32"
      },
      "t_uint32": {
        "encoding": "inplace",
        "label": "uint32",
        "numberOfBytes": "4"
      },
      "t_uint8": {
        "encoding": "inplace",
        "label": "uint8",
        "numberOfBytes": "1"
      }
    }
  }
}