{
  "address": "0x16aD55CBE291162241190516cAfd60FAD7C3F57C",
  "abi": [
    {
      "inputs": [
        {
          "internalType": "address",
          "name": "_token",
          "type": "address"
        },
        {
          "internalType": "uint256",
          "name": "_totalDistribute",
          "type": "uint256"
        },
        {
          "internalType": "uint256",
          "name": "_startTime",
          "type": "uint256"
        },
        {
          "internalType": "uint256",
          "name": "_duration",
          "type": "uint256"
        }
      ],
      "name": "addPool",
      "outputs": [],
      "stateMutability": "nonpayable",
      "type": "function"
    },
    {
      "inputs": [],
      "name": "admin0xB",
      "outputs": [
        {
          "internalType": "address",
          "name": "",
          "type": "address"
        }
      ],
      "stateMutability": "view",
      "type": "function"
    },
    {
      "inputs": [
        {
          "internalType": "uint32",
          "name": "_poolId",
          "type": "uint32"
        }
      ],
      "name": "claimAllReward",
      "outputs": [],
      "stateMutability": "nonpayable",
      "type": "function"
    },
    {
      "inputs": [
        {
          "internalType": "uint32",
          "name": "_poolId",
          "type": "uint32"
        },
        {
          "internalType": "uint32",
          "name": "_index",
          "type": "uint32"
        }
      ],
      "name": "claimReward",
      "outputs": [],
      "stateMutability": "nonpayable",
      "type": "function"
    },
    {
      "inputs": [
        {
          "internalType": "uint32",
          "name": "_poolId",
          "type": "uint32"
        },
        {
          "internalType": "uint256",
          "name": "_amount",
          "type": "uint256"
        }
      ],
      "name": "deposit",
      "outputs": [],
      "stateMutability": "nonpayable",
      "type": "function"
    },
    {
      "inputs": [],
      "name": "earlyWithdrawTaxPool",
      "outputs": [
        {
          "internalType": "address",
          "name": "",
          "type": "address"
        }
      ],
      "stateMutability": "view",
      "type": "function"
    },
    {
      "inputs": [
        {
          "internalType": "uint32",
          "name": "_poolId",
          "type": "uint32"
        }
      ],
      "name": "getAPR",
      "outputs": [
        {
          "internalType": "uint256",
          "name": "apr",
          "type": "uint256"
        }
      ],
      "stateMutability": "view",
      "type": "function"
    },
    {
      "inputs": [
        {
          "internalType": "uint32",
          "name": "_poolId",
          "type": "uint32"
        },
        {
          "internalType": "address",
          "name": "addr",
          "type": "address"
        }
      ],
      "name": "getUserPendingReward",
      "outputs": [
        {
          "internalType": "string",
          "name": "res",
          "type": "string"
        }
      ],
      "stateMutability": "view",
      "type": "function"
    },
    {
      "inputs": [
        {
          "internalType": "uint32",
          "name": "_poolId",
          "type": "uint32"
        },
        {
          "internalType": "address",
          "name": "addr",
          "type": "address"
        }
      ],
      "name": "getUserStakeAmounts",
      "outputs": [
        {
          "internalType": "string",
          "name": "res",
          "type": "string"
        }
      ],
      "stateMutability": "view",
      "type": "function"
    },
    {
      "inputs": [
        {
          "internalType": "uint32",
          "name": "_poolId",
          "type": "uint32"
        },
        {
          "internalType": "address",
          "name": "addr",
          "type": "address"
        }
      ],
      "name": "getUserTimestamps",
      "outputs": [
        {
          "internalType": "string",
          "name": "res",
          "type": "string"
        }
      ],
      "stateMutability": "view",
      "type": "function"
    },
    {
      "inputs": [
        {
          "internalType": "uint32",
          "name": "_poolId",
          "type": "uint32"
        },
        {
          "internalType": "address",
          "name": "addr",
          "type": "address"
        }
      ],
      "name": "getUserUnstakedAmount",
      "outputs": [
        {
          "internalType": "string",
          "name": "res",
          "type": "string"
        }
      ],
      "stateMutability": "view",
      "type": "function"
    },
    {
      "inputs": [],
      "name": "initialize",
      "outputs": [],
      "stateMutability": "nonpayable",
      "type": "function"
    },
    {
      "inputs": [
        {
          "internalType": "address",
          "name": "addr",
          "type": "address"
        }
      ],
      "name": "isWhitelisted",
      "outputs": [
        {
          "internalType": "bool",
          "name": "",
          "type": "bool"
        }
      ],
      "stateMutability": "view",
      "type": "function"
    },
    {
      "inputs": [],
      "name": "lpStakingEntitiesLimit",
      "outputs": [
        {
          "internalType": "uint256",
          "name": "",
          "type": "uint256"
        }
      ],
      "stateMutability": "view",
      "type": "function"
    },
    {
      "inputs": [
        {
          "internalType": "uint32",
          "name": "_poolId",
          "type": "uint32"
        },
        {
          "internalType": "address",
          "name": "addr",
          "type": "address"
        },
        {
          "internalType": "uint32",
          "name": "_index",
          "type": "uint32"
        }
      ],
      "name": "pendingReward",
      "outputs": [
        {
          "internalType": "uint256",
          "name": "",
          "type": "uint256"
        }
      ],
      "stateMutability": "view",
      "type": "function"
    },
    {
      "inputs": [
        {
          "internalType": "uint256",
          "name": "",
          "type": "uint256"
        }
      ],
      "name": "pools",
      "outputs": [
        {
          "internalType": "contract IERC20",
          "name": "lpToken",
          "type": "address"
        },
        {
          "internalType": "uint256",
          "name": "lpAmountInPool",
          "type": "uint256"
        },
        {
          "internalType": "uint256",
          "name": "totalDistribute",
          "type": "uint256"
        },
        {
          "internalType": "uint256",
          "name": "startTime",
          "type": "uint256"
        },
        {
          "internalType": "uint256",
          "name": "duration",
          "type": "uint256"
        },
        {
          "internalType": "uint256",
          "name": "acc0xBPerShare",
          "type": "uint256"
        },
        {
          "internalType": "uint256",
          "name": "lastRewardTimestamp",
          "type": "uint256"
        }
      ],
      "stateMutability": "view",
      "type": "function"
    },
    {
      "inputs": [
        {
          "internalType": "address",
          "name": "_token",
          "type": "address"
        }
      ],
      "name": "setToken",
      "outputs": [],
      "stateMutability": "nonpayable",
      "type": "function"
    },
    {
      "inputs": [
        {
          "internalType": "uint32",
          "name": "_poolId",
          "type": "uint32"
        },
        {
          "internalType": "address",
          "name": "addr",
          "type": "address"
        },
        {
          "internalType": "uint32",
          "name": "_index",
          "type": "uint32"
        }
      ],
      "name": "taxOfEntity",
      "outputs": [
        {
          "internalType": "uint256",
          "name": "",
          "type": "uint256"
        }
      ],
      "stateMutability": "view",
      "type": "function"
    },
    {
      "inputs": [],
      "name": "token0xBAddress",
      "outputs": [
        {
          "internalType": "address",
          "name": "",
          "type": "address"
        }
      ],
      "stateMutability": "view",
      "type": "function"
    },
    {
      "inputs": [
        {
          "internalType": "uint32",
          "name": "_poolId",
          "type": "uint32"
        },
        {
          "internalType": "address",
          "name": "addr",
          "type": "address"
        }
      ],
      "name": "totalStakeOfUser",
      "outputs": [
        {
          "internalType": "uint256",
          "name": "totalStake",
          "type": "uint256"
        }
      ],
      "stateMutability": "view",
      "type": "function"
    },
    {
      "inputs": [
        {
          "internalType": "uint32",
          "name": "_poolId",
          "type": "uint32"
        }
      ],
      "name": "updatePool",
      "outputs": [],
      "stateMutability": "nonpayable",
      "type": "function"
    },
    {
      "inputs": [
        {
          "internalType": "uint32",
          "name": "_poolId",
          "type": "uint32"
        },
        {
          "internalType": "uint32",
          "name": "_index",
          "type": "uint32"
        },
        {
          "internalType": "uint32",
          "name": "_amount",
          "type": "uint32"
        }
      ],
      "name": "withdraw",
      "outputs": [],
      "stateMutability": "nonpayable",
      "type": "function"
    },
    {
      "inputs": [
        {
          "internalType": "uint256",
          "name": "",
          "type": "uint256"
        }
      ],
      "name": "withdrawTaxLevel",
      "outputs": [
        {
          "internalType": "uint256",
          "name": "",
          "type": "uint256"
        }
      ],
      "stateMutability": "view",
      "type": "function"
    },
    {
      "inputs": [
        {
          "internalType": "uint256",
          "name": "",
          "type": "uint256"
        }
      ],
      "name": "withdrawTaxPortion",
      "outputs": [
        {
          "internalType": "uint256",
          "name": "",
          "type": "uint256"
        }
      ],
      "stateMutability": "view",
      "type": "function"
    },
    {
      "inputs": [],
      "name": "withdrawTimeout",
      "outputs": [
        {
          "internalType": "uint256",
          "name": "",
          "type": "uint256"
        }
      ],
      "stateMutability": "view",
      "type": "function"
    },
    {
      "inputs": [
        {
          "internalType": "uint32",
          "name": "_poolId",
          "type": "uint32"
        },
        {
          "internalType": "address",
          "name": "addr",
          "type": "address"
        },
        {
          "internalType": "uint32",
          "name": "_index",
          "type": "uint32"
        }
      ],
      "name": "withdrawable",
      "outputs": [
        {
          "internalType": "bool",
          "name": "",
          "type": "bool"
        }
      ],
      "stateMutability": "view",
      "type": "function"
    },
    {
      "stateMutability": "payable",
      "type": "receive"
    }
  ],
  "transactionHash": "0x26434f38b0009fcbb91e4b5048ca5f8ac20408a87074e2aac85015cbcb061c83",
  "args": [],
  "numDeployments": 2,
  "solcInputHash": "f2d16f5788cd39677ddefa39e7ac76da",
  "bytecode": "0x608060405234801561001057600080fd5b506127bb806100206000396000f3fe6080604052600436106101655760003560e01c8063a494a0c0116100c1578063b0cdad261161007a578063b0cdad2614610445578063b2a1704914610465578063c3e691b514610485578063cedb682a146104a5578063d4491a06146104c5578063d63c564b146104e5578063e17f8d551461050557600080fd5b8063a494a0c014610346578063a6503e7614610366578063a71f06f014610386578063aaf10398146103a6578063ac4afa38146103c6578063aeeacef11461042557600080fd5b80633af32abf1161011e5780633af32abf1461025e5780633da3a82d1461028e5780634b7ea33d146102ae5780635931583d146102db5780635a4ec0ca146102fb5780638129fc1c1461031b5780639c15d1a21461033057600080fd5b806303129911146101715780630584aecf14610193578063144fa6d7146101d057806329efdc41146101f05780632f3ef5da1461021e578063303d50c21461023e57600080fd5b3661016c57005b600080fd5b34801561017d57600080fd5b5061019161018c36600461256d565b61051b565b005b34801561019f57600080fd5b50600a546101b3906001600160a01b031681565b6040516001600160a01b0390911681526020015b60405180910390f35b3480156101dc57600080fd5b506101916101eb3660046123f9565b6109e5565b3480156101fc57600080fd5b5061021061020b3660046124d6565b610ac3565b6040519081526020016101c7565b34801561022a57600080fd5b50610191610239366004612488565b610beb565b34801561024a57600080fd5b506102106102593660046124d6565b610cd6565b34801561026a57600080fd5b5061027e6102793660046123f9565b610ecd565b60405190151581526020016101c7565b34801561029a57600080fd5b506102106102a936600461246f565b610eeb565b3480156102ba57600080fd5b506102ce6102c93660046124a3565b610f0c565b6040516101c79190612600565b3480156102e757600080fd5b506102106102f636600461246f565b61102a565b34801561030757600080fd5b50610191610316366004612414565b61103a565b34801561032757600080fd5b506101916112fd565b34801561033c57600080fd5b5061021060025481565b34801561035257600080fd5b506102ce6103613660046124a3565b611466565b34801561037257600080fd5b506102106103813660046124a3565b61155c565b34801561039257600080fd5b506101916103a1366004612543565b6115f2565b3480156103b257600080fd5b506101916103c1366004612519565b611856565b3480156103d257600080fd5b506103e66103e136600461246f565b611b14565b604080516001600160a01b0390981688526020880196909652948601939093526060850191909152608084015260a083015260c082015260e0016101c7565b34801561043157600080fd5b5061027e6104403660046124d6565b611b6d565b34801561045157600080fd5b506102ce6104603660046124a3565b611c17565b34801561047157600080fd5b50610210610480366004612488565b611d2c565b34801561049157600080fd5b506101916104a0366004612488565b611e16565b3480156104b157600080fd5b506009546101b3906001600160a01b031681565b3480156104d157600080fd5b506005546101b3906001600160a01b031681565b3480156104f157600080fd5b506102ce6105003660046124a3565b612060565b34801561051157600080fd5b5061021060015481565b60065463ffffffff84161061054b5760405162461bcd60e51b815260040161054290612633565b60405180910390fd5b60008163ffffffff16116105925760405162461bcd60e51b815260206004820152600e60248201526d706c6561736520756e7374616b6560901b6044820152606401610542565b61059d833384611b6d565b6105e95760405162461bcd60e51b815260206004820152601c60248201527f656e7469747920696e207769746864726177616c2074696d656f7574000000006044820152606401610542565b63ffffffff80841660009081526007602090815260408083203380855292529091208054919290919085161061064f5760405162461bcd60e51b815260206004820152600b60248201526a0eee4dedcce40d2dcc8caf60ab1b6044820152606401610542565b60ff8416600090815260018201602052604090205463ffffffff841611156106aa5760405162461bcd60e51b815260206004820152600e60248201526d616d6f756e7420746f6f2062696760901b6044820152606401610542565b6106b385610beb565b600060068663ffffffff16815481106106ce576106ce612782565b9060005260206000209060070201905060008260010160008760ff1660ff168152602001908152602001600020905060008160010154670de0b6b3a76400008460050154846000015461072191906126b4565b61072b9190612692565b61073591906126d3565b60095460405163a9059cbb60e01b81526001600160a01b0388811660048301526024820184905292935091169063a9059cbb90604401602060405180830381600087803b15801561078557600080fd5b505af1158015610799573d6000803e3d6000fd5b505050506040513d601f19601f820116820180604052508101906107bd919061244d565b508082600101546107ce9190612655565b600183015560006107e089878a610ac3565b90508015610895576305f5e1006107fd63ffffffff8916836126b4565b6108079190612692565b84546005546040516323b872dd60e01b81529293506001600160a01b03918216926323b872dd9261084192309291169086906004016125dc565b602060405180830381600087803b15801561085b57600080fd5b505af115801561086f573d6000803e3d6000fd5b505050506040513d601f19601f82011682018060405250810190610893919061244d565b505b83546001600160a01b03166323b872dd30336108b78563ffffffff8d166126d3565b6040518463ffffffff1660e01b81526004016108d5939291906125dc565b602060405180830381600087803b1580156108ef57600080fd5b505af1158015610903573d6000803e3d6000fd5b505050506040513d601f19601f82011682018060405250810190610927919061244d565b508663ffffffff16846001015461093e91906126d3565b6001850155825463ffffffff881614156109a9578454610960906001906126d3565b80865560ff908116600090815260018088016020526040808320938c168352909120825481558282015491810191909155600280830154908201556003918201549101556109da565b82546109bc9063ffffffff8916906126d3565b835560038301546109d49063ffffffff891690612655565b60038401555b505050505050505050565b6009546001600160a01b0316331480610a085750600a546001600160a01b031633145b80610a175750610a1733610ecd565b610a545760405162461bcd60e51b815260206004820152600e60248201526d4163636573732044656e6965642160901b6044820152606401610542565b6001600160a01b038116610aa15760405162461bcd60e51b81526020600482015260146024820152732722abafaa27a5a2a71d103d32b9379030b2323960611b6044820152606401610542565b600980546001600160a01b0319166001600160a01b0392909216919091179055565b60065460009063ffffffff851610610aed5760405162461bcd60e51b815260040161054290612633565b63ffffffff841660009081526007602090815260408083206001600160a01b0387168452825280832060ff8616845260019081018352818420825160808101845281548152918101549382019390935260028301549181018290526003909201546060830152909190610b6090426126d3565b600454909150600090610b75906001906126d3565b90505b8015610bdc578160038281548110610b9257610b92612782565b906000526020600020015411610bca5760048181548110610bb557610bb5612782565b90600052602060002001549350505050610be4565b80610bd48161271a565b915050610b78565b506000925050505b9392505050565b600060068263ffffffff1681548110610c0657610c06612782565b9060005260206000209060070201905080600601544211610c25575050565b600181015480610c3a57504260069091015550565b6040805160e08101825283546001600160a01b03168152600184015460208201526002840154918101919091526003830154606082015260048301546080820152600583015460a0820152600683015460c0820152600090610c9b90612186565b610ca98460060154426121be565b610cb391906126b4565b9050808360050154610cc59190612655565b600584015550504260069091015550565b60065460009063ffffffff851610610d005760405162461bcd60e51b815260040161054290612633565b600060068563ffffffff1681548110610d1b57610d1b612782565b90600052602060002090600702016040518060e00160405290816000820160009054906101000a90046001600160a01b03166001600160a01b03166001600160a01b03168152602001600182015481526020016002820154815260200160038201548152602001600482015481526020016005820154815260200160068201548152505090506000600760008763ffffffff1663ffffffff1681526020019081526020016000206000866001600160a01b03166001600160a01b03168152602001908152602001600020905060008160010160008660ff1660ff168152602001908152602001600020604051806080016040529081600082015481526020016001820154815260200160028201548152602001600382015481525050905060008360a0015190506000846020015190508460c0015142118015610e5d57508015155b15610e9057600081670de0b6b3a7640000610e788386612655565b610e8291906126b4565b610e8c9190612692565b9250505b60208301518351670de0b6b3a764000090610eac9085906126b4565b610eb69190612692565b610ec091906126d3565b9998505050505050505050565b6001600160a01b031660009081526008602052604090205460ff1690565b60048181548110610efb57600080fd5b600091825260209091200154905081565b60065460609063ffffffff841610610f365760405162461bcd60e51b815260040161054290612633565b63ffffffff831660009081526007602090815260408083206001600160a01b038616845290915290208054610f7b575050604080516020810190915260008152611024565b6000808052600182016020526040902060030154610f98906121ca565b915060015b815460ff821610156110215782604051806040016040528060018152602001602360f81b815250610feb8460010160008560ff1660ff168152602001908152602001600020600301546121ca565b604051602001610ffd93929190612599565b604051602081830303815290604052925080806110199061274c565b915050610f9d565b50505b92915050565b60038181548110610efb57600080fd5b6009546001600160a01b031633148061105d5750600a546001600160a01b031633145b8061106c575061106c33610ecd565b6110a95760405162461bcd60e51b815260206004820152600e60248201526d4163636573732044656e6965642160901b6044820152606401610542565b428210156111045760405162461bcd60e51b815260206004820152602260248201527f73746172742074696d652073686f756c6420626520696e207468652066757475604482015261726560f01b6064820152608401610542565b6009546040516323b872dd60e01b81526001600160a01b03909116906323b872dd90611138903390309088906004016125dc565b602060405180830381600087803b15801561115257600080fd5b505af1158015611166573d6000803e3d6000fd5b505050506040513d601f19601f8201168201806040525081019061118a919061244d565b506040805160e0810182526001600160a01b039586168152600060208201818152928201958652606082018581526080830194855260a0830182815260c0840196875260068054600181018255935292517ff652222313e28459528d920b65115c16c04f3efc82aaedc97be59f3f377c0d3f600790930292830180546001600160a01b031916919099161790975591517ff652222313e28459528d920b65115c16c04f3efc82aaedc97be59f3f377c0d4083015593517ff652222313e28459528d920b65115c16c04f3efc82aaedc97be59f3f377c0d4182015593517ff652222313e28459528d920b65115c16c04f3efc82aaedc97be59f3f377c0d42850155517ff652222313e28459528d920b65115c16c04f3efc82aaedc97be59f3f377c0d4384015590517ff652222313e28459528d920b65115c16c04f3efc82aaedc97be59f3f377c0d44830155517ff652222313e28459528d920b65115c16c04f3efc82aaedc97be59f3f377c0d4590910155565b600054610100900460ff166113185760005460ff161561131c565b303b155b61137f5760405162461bcd60e51b815260206004820152602e60248201527f496e697469616c697a61626c653a20636f6e747261637420697320616c72656160448201526d191e481a5b9a5d1a585b1a5e995960921b6064820152608401610542565b600054610100900460ff161580156113a1576000805461ffff19166101011790555b600a80546001600160a01b031916331790556064600155620151806002819055604080516080810182526000808252602082015291908201906113e590601e6126b4565b81526020016113f862015180603c6126b4565b9052611408906003906004612327565b5060408051608081018252624c4b408082526020820152622625a0918101919091526000606082015261143e9060049081612372565b50600580546001600160a01b031916331790558015611463576000805461ff00191690555b50565b60065460609063ffffffff8416106114905760405162461bcd60e51b815260040161054290612633565b63ffffffff831660009081526007602090815260408083206001600160a01b0386168452909152902080546114d5575050604080516020810190915260008152611024565b6114e96114e485856000610cd6565b6121ca565b915060015b815460ff821610156110215782604051806040016040528060018152602001602360f81b8152506115266114e488888660ff16610cd6565b60405160200161153893929190612599565b604051602081830303815290604052925080806115549061274c565b9150506114ee565b60065460009063ffffffff8416106115865760405162461bcd60e51b815260040161054290612633565b5063ffffffff821660009081526007602090815260408083206001600160a01b0385168452909152812060015b815460ff821610156110215760ff811660009081526001830160205260409020546115de9084612655565b9250806115ea8161274c565b9150506115b3565b60065463ffffffff8316106116195760405162461bcd60e51b815260040161054290612633565b600060068363ffffffff168154811061163457611634612782565b60009182526020918290206040805160e081018252600790930290910180546001600160a01b031683526001810154938301939093526002830154908201526003820154606082015260048201546080820152600582015460a0820152600682015460c08201529091506116ac906060015142101590565b6116f35760405162461bcd60e51b81526020600482015260186024820152771c1bdbdb081a185cc81b9bdd081cdd185c9d1959081e595d60421b6044820152606401610542565b63ffffffff8084166000908152600760209081526040808320338085529252909120805491929091908516106117595760405162461bcd60e51b815260206004820152600b60248201526a0eee4dedcce40d2dcc8caf60ab1b6044820152606401610542565b61176285610beb565b60ff841660009081526001808301602052604082209081015460058601548254929392670de0b6b3a764000091611798916126b4565b6117a29190612692565b6117ac91906126d3565b60095460405163a9059cbb60e01b81526001600160a01b0387811660048301526024820184905292935091169063a9059cbb90604401602060405180830381600087803b1580156117fc57600080fd5b505af1158015611810573d6000803e3d6000fd5b505050506040513d601f19601f82011682018060405250810190611834919061244d565b508082600101546118459190612655565b826001018190555050505050505050565b60065463ffffffff83161061187d5760405162461bcd60e51b815260040161054290612633565b600081116118bc5760405162461bcd60e51b815260206004820152600c60248201526b706c65617365207374616b6560a01b6044820152606401610542565b63ffffffff8216600090815260076020908152604080832033808552925290912060015481541061193f5760405162461bcd60e51b815260206004820152602760248201527f746f6f206d616e7920656e7469746965732c20706c6561736520776974686472604482015266617720736f6d6560c81b6064820152608401610542565b600060068563ffffffff168154811061195a5761195a612782565b60009182526020918290206040805160e081018252600790930290910180546001600160a01b031683526001810154938301939093526002830154908201526003820154606082015260048201546080820152600582015460a0820152600682015460c08201529091506119cd906122f3565b611a095760405162461bcd60e51b815260206004820152600d60248201526c706f6f6c20696e61637469766560981b6044820152606401610542565b611a1285610beb565b80546040516323b872dd60e01b81526001600160a01b03909116906323b872dd90611a45903390309089906004016125dc565b602060405180830381600087803b158015611a5f57600080fd5b505af1158015611a73573d6000803e3d6000fd5b505050506040513d601f19601f82011682018060405250810190611a97919061244d565b50838160010154611aa89190612655565b60018083019190915560408051608081018252868152600060208083018281524284860190815260608501848152895460ff16855289880190935294909220925183559051828501559151600282015590516003909101558254611b0b91612655565b90915550505050565b60068181548110611b2457600080fd5b600091825260209091206007909102018054600182015460028301546003840154600485015460058601546006909601546001600160a01b039095169650929491939092919087565b60065460009063ffffffff851610611b975760405162461bcd60e51b815260040161054290612633565b63ffffffff841660009081526007602090815260408083206001600160a01b0387168452825280832060ff8616845260019081018352928190208151608081018352815481529381015492840192909252600280830154918401829052600390920154606084015290544291611c0d9190612655565b1095945050505050565b60065460609063ffffffff841610611c415760405162461bcd60e51b815260040161054290612633565b63ffffffff831660009081526007602090815260408083206001600160a01b038616845290915290208054611c86575050604080516020810190915260008152611024565b6000808052600182016020526040902060020154611ca3906121ca565b915060015b815460ff821610156110215782604051806040016040528060018152602001602360f81b815250611cf68460010160008560ff1660ff168152602001908152602001600020600201546121ca565b604051602001611d0893929190612599565b60405160208183030381529060405292508080611d249061274c565b915050611ca8565b60065460009063ffffffff831610611d565760405162461bcd60e51b815260040161054290612633565b600060068363ffffffff1681548110611d7157611d71612782565b60009182526020918290206040805160e081018252600790930290910180546001600160a01b031683526001810154938301849052600281015491830182905260038101546060840152600481015460808401819052600582015460a085015260069091015460c0840152919350670de0b6b3a764000090611df8906301e13380906126b4565b611e0291906126b4565b611e0c9190612692565b610be49190612692565b60065463ffffffff821610611e3d5760405162461bcd60e51b815260040161054290612633565b600060068263ffffffff1681548110611e5857611e58612782565b60009182526020918290206040805160e081018252600790930290910180546001600160a01b031683526001810154938301939093526002830154908201526003820154606082015260048201546080820152600582015460a0820152600682015460c0820152909150611ed0906060015142101590565b611f175760405162461bcd60e51b81526020600482015260186024820152771c1bdbdb081a185cc81b9bdd081cdd185c9d1959081e595d60421b6044820152606401610542565b63ffffffff82166000908152600760209081526040808320338085529252909120611f4184610beb565b600080805b835460ff82161015611fd05760ff81166000908152600180860160205260409091209081015460058801548254670de0b6b3a764000091611f86916126b4565b611f909190612692565b611f9a91906126d3565b9250611fa68385612655565b9350828160010154611fb89190612655565b60019091015580611fc88161274c565b915050611f46565b5060095460405163a9059cbb60e01b81526001600160a01b038681166004830152602482018590529091169063a9059cbb90604401602060405180830381600087803b15801561201f57600080fd5b505af1158015612033573d6000803e3d6000fd5b505050506040513d601f19601f82011682018060405250810190612057919061244d565b50505050505050565b60065460609063ffffffff84161061208a5760405162461bcd60e51b815260040161054290612633565b63ffffffff831660009081526007602090815260408083206001600160a01b0386168452909152902080546120cf575050604080516020810190915260008152611024565b60008080526001820160205260409020600381015490546120f3916114e491612655565b915060015b815460ff821610156110215760ff811660009081526001830160205260408120600381015490546121299190612655565b905083604051806040016040528060018152602001602360f81b81525061214f836121ca565b60405160200161216193929190612599565b604051602081830303815290604052935050808061217e9061274c565b9150506120f8565b600081602001518260800151670de0b6b3a764000084604001516121aa91906126b4565b6121b49190612692565b6110249190612692565b6000610be483836126d3565b6060816121ee5750506040805180820190915260018152600360fc1b602082015290565b8160005b8115612218578061220281612731565b91506122119050600a83612692565b91506121f2565b60008167ffffffffffffffff81111561223357612233612798565b6040519080825280601f01601f19166020018201604052801561225d576020820181803683370190505b509050815b85156122ea576122736001826126d3565b90506000612282600a88612692565b61228d90600a6126b4565b61229790886126d3565b6122a290603061266d565b905060008160f81b9050808484815181106122bf576122bf612782565b60200101906001600160f81b031916908160001a9053506122e1600a89612692565b97505050612262565b50949350505050565b6000612303826060015142101590565b801561102457508160800151826060015161231e9190612655565b42111592915050565b828054828255906000526020600020908101928215612362579160200282015b82811115612362578251825591602001919060010190612347565b5061236e9291506123b4565b5090565b828054828255906000526020600020908101928215612362579160200282015b82811115612362578251829062ffffff16905591602001919060010190612392565b5b8082111561236e57600081556001016123b5565b80356001600160a01b03811681146123e057600080fd5b919050565b803563ffffffff811681146123e057600080fd5b60006020828403121561240b57600080fd5b610be4826123c9565b6000806000806080858703121561242a57600080fd5b612433856123c9565b966020860135965060408601359560600135945092505050565b60006020828403121561245f57600080fd5b81518015158114610be457600080fd5b60006020828403121561248157600080fd5b5035919050565b60006020828403121561249a57600080fd5b610be4826123e5565b600080604083850312156124b657600080fd5b6124bf836123e5565b91506124cd602084016123c9565b90509250929050565b6000806000606084860312156124eb57600080fd5b6124f4846123e5565b9250612502602085016123c9565b9150612510604085016123e5565b90509250925092565b6000806040838503121561252c57600080fd5b612535836123e5565b946020939093013593505050565b6000806040838503121561255657600080fd5b61255f836123e5565b91506124cd602084016123e5565b60008060006060848603121561258257600080fd5b61258b846123e5565b9250612502602085016123e5565b600084516125ab8184602089016126ea565b8451908301906125bf8183602089016126ea565b84519101906125d28183602088016126ea565b0195945050505050565b6001600160a01b039384168152919092166020820152604081019190915260600190565b602081526000825180602084015261261f8160408501602087016126ea565b601f01601f19169190910160400192915050565b6020808252600890820152671ddc9bdb99c81a5960c21b604082015260600190565b600082198211156126685761266861276c565b500190565b600060ff821660ff84168060ff0382111561268a5761268a61276c565b019392505050565b6000826126af57634e487b7160e01b600052601260045260246000fd5b500490565b60008160001904831182151516156126ce576126ce61276c565b500290565b6000828210156126e5576126e561276c565b500390565b60005b838110156127055781810151838201526020016126ed565b83811115612714576000848401525b50505050565b6000816127295761272961276c565b506000190190565b60006000198214156127455761274561276c565b5060010190565b600060ff821660ff8114156127635761276361276c565b60010192915050565b634e487b7160e01b600052601160045260246000fd5b634e487b7160e01b600052603260045260246000fd5b634e487b7160e01b600052604160045260246000fdfea164736f6c6343000807000a",
  "devdoc": {
    "kind": "dev",
    "methods": {
      "addPool(address,uint256,uint256,uint256)": {
        "params": {
          "_duration": "duration of pool",
          "_startTime": "timestamp to start pool",
          "_token": "address of LP token",
          "_totalDistribute": "total distribution in 0xB for this pool"
        }
      },
      "claimAllReward(uint32)": {
        "details": "update reward debt and send reward to user",
        "params": {
          "_poolId": "index of pool"
        }
      },
      "claimReward(uint32,uint32)": {
        "details": "update reward debt of user and send new reward to user",
        "params": {
          "_index": "index of entity",
          "_poolId": "index of pool"
        }
      },
      "deposit(uint32,uint256)": {
        "details": "add new entity to control staking timestamp and taxes, never add token to older entities",
        "params": {
          "_amount": "amount to stake",
          "_poolId": "index of one pool"
        }
      },
      "getAPR(uint32)": {
        "params": {
          "_poolId": "index of pool"
        },
        "returns": {
          "apr": "current APR of an LP pool"
        }
      },
      "getUserPendingReward(uint32,address)": {
        "details": "result is returned as a string, which entities is separated with SEPARATOR",
        "params": {
          "_poolId": "index of pool",
          "addr": "address of user"
        },
        "returns": {
          "res": "result as a string"
        }
      },
      "getUserStakeAmounts(uint32,address)": {
        "details": "result is returned as a string, which entities is separated with SEPARATORfor each entity, the amount staked at first is separated into 2 variable: amount + withdrwn",
        "params": {
          "_poolId": "index of pool",
          "addr": "address of user"
        },
        "returns": {
          "res": "result as a string"
        }
      },
      "getUserTimestamps(uint32,address)": {
        "details": "result is returned as a string, which entities is separated with SEPARATOR",
        "params": {
          "_poolId": "index of pool",
          "addr": "address of user"
        },
        "returns": {
          "res": "result as a string"
        }
      },
      "getUserUnstakedAmount(uint32,address)": {
        "details": "result is returned as a string, which entities is separated with SEPARATOR",
        "params": {
          "_poolId": "index of pool",
          "addr": "address of user"
        },
        "returns": {
          "res": "result as a string"
        }
      },
      "isWhitelisted(address)": {
        "params": {
          "addr": "address to query"
        },
        "returns": {
          "_0": "isWhitelisted true if `addr` is whitelisted"
        }
      },
      "pendingReward(uint32,address,uint32)": {
        "details": "the accumulated reward per share is considered, add with reward from latest pool updateusing current state of pool (total lp in pool).the formula is: (a * n) + delta(now - l) * c - rewardDebta: accumulatedRewardPerShare in pool, n: total share, delta(now - l): seconds since last updatec: current reward per share per second, rewardDebt: reward already claimed by user in this pool",
        "params": {
          "_index": "index of some entity",
          "_poolId": "id of pool",
          "addr": "address of user"
        },
        "returns": {
          "_0": "reward pending reward of user"
        }
      },
      "setToken(address)": {
        "params": {
          "_token": "address of 0xB"
        }
      },
      "taxOfEntity(uint32,address,uint32)": {
        "params": {
          "_index": "index of entity",
          "_poolId": "index of a pool",
          "addr": "address of an entity owner"
        },
        "returns": {
          "_0": "tax amount of tax of an entity"
        }
      },
      "totalStakeOfUser(uint32,address)": {
        "params": {
          "_poolId": "index of pool",
          "addr": "address of the user"
        },
        "returns": {
          "totalStake": "total amount of LP staked in the user"
        }
      },
      "updatePool(uint32)": {
        "details": "update accumulated reward per share of a pool for sake of reward optimization",
        "params": {
          "_poolId": "index of pool"
        }
      },
      "withdraw(uint32,uint32,uint32)": {
        "details": "reduce amount in pool and increase the withdrawn value",
        "params": {
          "_amount": "amount to withdraw",
          "_index": "index of entity",
          "_poolId": "index of pool"
        }
      },
      "withdrawable(uint32,address,uint32)": {
        "params": {
          "_index": "index of entity",
          "_poolId": "index of a pool",
          "addr": "address of an entity owner"
        },
        "returns": {
          "_0": "withdrawable true if the entity is withdrawable"
        }
      }
    },
    "version": 1
  },
  "userdoc": {
    "kind": "user",
    "methods": {
      "addPool(address,uint256,uint256,uint256)": {
        "notice": "add new pool to stake LP"
      },
      "claimAllReward(uint32)": {
        "notice": "claim all reward from all entity of pool"
      },
      "claimReward(uint32,uint32)": {
        "notice": "claim reward from a pool, with a chosen entity"
      },
      "deposit(uint32,uint256)": {
        "notice": "deposit _amount of lp to the pool with index _poolId to start new entity of staking"
      },
      "getAPR(uint32)": {
        "notice": "calculate the current APR of one LP pool"
      },
      "getUserPendingReward(uint32,address)": {
        "notice": "get the pending rewards of every entity that user staked in one pool"
      },
      "getUserStakeAmounts(uint32,address)": {
        "notice": "get the stake amount of every entity that user staked in one pool"
      },
      "getUserTimestamps(uint32,address)": {
        "notice": "get the timestamps of every entity that user staked in one pool"
      },
      "getUserUnstakedAmount(uint32,address)": {
        "notice": "get the unstaked amount of every entity that user staked in one pool"
      },
      "isWhitelisted(address)": {
        "notice": "show if an address is whitelisted to create a pool"
      },
      "pendingReward(uint32,address,uint32)": {
        "notice": "calculate the unclaimed reward of a user in one entity"
      },
      "setToken(address)": {
        "notice": "set address of 0xB token"
      },
      "taxOfEntity(uint32,address,uint32)": {
        "notice": "return current tax of an entity"
      },
      "totalStakeOfUser(uint32,address)": {
        "notice": "calculate total stake of one address in a pool"
      },
      "updatePool(uint32)": {
        "notice": "update data in a lp staking pool"
      },
      "withdraw(uint32,uint32,uint32)": {
        "notice": "withdraw an amount from an entity. remove the entity if withdrawn everything"
      },
      "withdrawable(uint32,address,uint32)": {
        "notice": "show if an entity is withdrawable"
      }
    },
    "version": 1
  },
  "storageLayout": {
    "storage": [
      {
        "astId": 598,
        "contract": "contracts/dependencies/LPStaking.sol:LPStaking",
        "label": "_initialized",
        "offset": 0,
        "slot": "0",
        "type": "t_bool"
      },
      {
        "astId": 601,
        "contract": "contracts/dependencies/LPStaking.sol:LPStaking",
        "label": "_initializing",
        "offset": 1,
        "slot": "0",
        "type": "t_bool"
      },
      {
        "astId": 7519,
        "contract": "contracts/dependencies/LPStaking.sol:LPStaking",
        "label": "lpStakingEntitiesLimit",
        "offset": 0,
        "slot": "1",
        "type": "t_uint256"
      },
      {
        "astId": 7521,
        "contract": "contracts/dependencies/LPStaking.sol:LPStaking",
        "label": "withdrawTimeout",
        "offset": 0,
        "slot": "2",
        "type": "t_uint256"
      },
      {
        "astId": 7524,
        "contract": "contracts/dependencies/LPStaking.sol:LPStaking",
        "label": "withdrawTaxLevel",
        "offset": 0,
        "slot": "3",
        "type": "t_array(t_uint256)dyn_storage"
      },
      {
        "astId": 7527,
        "contract": "contracts/dependencies/LPStaking.sol:LPStaking",
        "label": "withdrawTaxPortion",
        "offset": 0,
        "slot": "4",
        "type": "t_array(t_uint256)dyn_storage"
      },
      {
        "astId": 7529,
        "contract": "contracts/dependencies/LPStaking.sol:LPStaking",
        "label": "earlyWithdrawTaxPool",
        "offset": 0,
        "slot": "5",
        "type": "t_address"
      },
      {
        "astId": 7533,
        "contract": "contracts/dependencies/LPStaking.sol:LPStaking",
        "label": "pools",
        "offset": 0,
        "slot": "6",
        "type": "t_array(t_struct(PoolInfo)7517_storage)dyn_storage"
      },
      {
        "astId": 7540,
        "contract": "contracts/dependencies/LPStaking.sol:LPStaking",
        "label": "userInfo",
        "offset": 0,
        "slot": "7",
        "type": "t_mapping(t_uint32,t_mapping(t_address,t_struct(UserLPStakeInfo)7501_storage))"
      },
      {
        "astId": 7544,
        "contract": "contracts/dependencies/LPStaking.sol:LPStaking",
        "label": "whitelistAuthorities",
        "offset": 0,
        "slot": "8",
        "type": "t_mapping(t_address,t_bool)"
      },
      {
        "astId": 7546,
        "contract": "contracts/dependencies/LPStaking.sol:LPStaking",
        "label": "token0xBAddress",
        "offset": 0,
        "slot": "9",
        "type": "t_address"
      },
      {
        "astId": 7548,
        "contract": "contracts/dependencies/LPStaking.sol:LPStaking",
        "label": "admin0xB",
        "offset": 0,
        "slot": "10",
        "type": "t_address"
      }
    ],
    "types": {
      "t_address": {
        "encoding": "inplace",
        "label": "address",
        "numberOfBytes": "20"
      },
      "t_array(t_struct(PoolInfo)7517_storage)dyn_storage": {
        "base": "t_struct(PoolInfo)7517_storage",
        "encoding": "dynamic_array",
        "label": "struct LPStaking.PoolInfo[]",
        "numberOfBytes": "32"
      },
      "t_array(t_uint256)dyn_storage": {
        "base": "t_uint256",
        "encoding": "dynamic_array",
        "label": "uint256[]",
        "numberOfBytes": "32"
      },
      "t_bool": {
        "encoding": "inplace",
        "label": "bool",
        "numberOfBytes": "1"
      },
      "t_contract(IERC20)2517": {
        "encoding": "inplace",
        "label": "contract IERC20",
        "numberOfBytes": "20"
      },
      "t_mapping(t_address,t_bool)": {
        "encoding": "mapping",
        "key": "t_address",
        "label": "mapping(address => bool)",
        "numberOfBytes": "32",
        "value": "t_bool"
      },
      "t_mapping(t_address,t_struct(UserLPStakeInfo)7501_storage)": {
        "encoding": "mapping",
        "key": "t_address",
        "label": "mapping(address => struct LPStaking.UserLPStakeInfo)",
        "numberOfBytes": "32",
        "value": "t_struct(UserLPStakeInfo)7501_storage"
      },
      "t_mapping(t_uint32,t_mapping(t_address,t_struct(UserLPStakeInfo)7501_storage))": {
        "encoding": "mapping",
        "key": "t_uint32",
        "label": "mapping(uint32 => mapping(address => struct LPStaking.UserLPStakeInfo))",
        "numberOfBytes": "32",
        "value": "t_mapping(t_address,t_struct(UserLPStakeInfo)7501_storage)"
      },
      "t_mapping(t_uint8,t_struct(LPStakeEntity)7493_storage)": {
        "encoding": "mapping",
        "key": "t_uint8",
        "label": "mapping(uint8 => struct LPStaking.LPStakeEntity)",
        "numberOfBytes": "32",
        "value": "t_struct(LPStakeEntity)7493_storage"
      },
      "t_struct(LPStakeEntity)7493_storage": {
        "encoding": "inplace",
        "label": "struct LPStaking.LPStakeEntity",
        "members": [
          {
            "astId": 7486,
            "contract": "contracts/dependencies/LPStaking.sol:LPStaking",
            "label": "amount",
            "offset": 0,
            "slot": "0",
            "type": "t_uint256"
          },
          {
            "astId": 7488,
            "contract": "contracts/dependencies/LPStaking.sol:LPStaking",
            "label": "rewardDebt",
            "offset": 0,
            "slot": "1",
            "type": "t_uint256"
          },
          {
            "astId": 7490,
            "contract": "contracts/dependencies/LPStaking.sol:LPStaking",
            "label": "creationTime",
            "offset": 0,
            "slot": "2",
            "type": "t_uint256"
          },
          {
            "astId": 7492,
            "contract": "contracts/dependencies/LPStaking.sol:LPStaking",
            "label": "withdrawn",
            "offset": 0,
            "slot": "3",
            "type": "t_uint256"
          }
        ],
        "numberOfBytes": "128"
      },
      "t_struct(PoolInfo)7517_storage": {
        "encoding": "inplace",
        "label": "struct LPStaking.PoolInfo",
        "members": [
          {
            "astId": 7504,
            "contract": "contracts/dependencies/LPStaking.sol:LPStaking",
            "label": "lpToken",
            "offset": 0,
            "slot": "0",
            "type": "t_contract(IERC20)2517"
          },
          {
            "astId": 7506,
            "contract": "contracts/dependencies/LPStaking.sol:LPStaking",
            "label": "lpAmountInPool",
            "offset": 0,
            "slot": "1",
            "type": "t_uint256"
          },
          {
            "astId": 7508,
            "contract": "contracts/dependencies/LPStaking.sol:LPStaking",
            "label": "totalDistribute",
            "offset": 0,
            "slot": "2",
            "type": "t_uint256"
          },
          {
            "astId": 7510,
            "contract": "contracts/dependencies/LPStaking.sol:LPStaking",
            "label": "startTime",
            "offset": 0,
            "slot": "3",
            "type": "t_uint256"
          },
          {
            "astId": 7512,
            "contract": "contracts/dependencies/LPStaking.sol:LPStaking",
            "label": "duration",
            "offset": 0,
            "slot": "4",
            "type": "t_uint256"
          },
          {
            "astId": 7514,
            "contract": "contracts/dependencies/LPStaking.sol:LPStaking",
            "label": "acc0xBPerShare",
            "offset": 0,
            "slot": "5",
            "type": "t_uint256"
          },
          {
            "astId": 7516,
            "contract": "contracts/dependencies/LPStaking.sol:LPStaking",
            "label": "lastRewardTimestamp",
            "offset": 0,
            "slot": "6",
            "type": "t_uint256"
          }
        ],
        "numberOfBytes": "224"
      },
      "t_struct(UserLPStakeInfo)7501_storage": {
        "encoding": "inplace",
        "label": "struct LPStaking.UserLPStakeInfo",
        "members": [
          {
            "astId": 7495,
            "contract": "contracts/dependencies/LPStaking.sol:LPStaking",
            "label": "size",
            "offset": 0,
            "slot": "0",
            "type": "t_uint256"
          },
          {
            "astId": 7500,
            "contract": "contracts/dependencies/LPStaking.sol:LPStaking",
            "label": "entities",
            "offset": 0,
            "slot": "1",
            "type": "t_mapping(t_uint8,t_struct(LPStakeEntity)7493_storage)"
          }
        ],
        "numberOfBytes": "64"
      },
      "t_uint256": {
        "encoding": "inplace",
        "label": "uint256",
        "numberOfBytes": "32"
      },
      "t_uint32": {
        "encoding": "inplace",
        "label": "uint32",
        "numberOfBytes": "4"
      },
      "t_uint8": {
        "encoding": "inplace",
        "label": "uint8",
        "numberOfBytes": "1"
      }
    }
  }
}