{
  "address": "0x6F33F282b69769eE9Ea35cE241e0b7a3Fe08094b",
  "abi": [
    {
      "inputs": [
        {
          "internalType": "string",
          "name": "_name",
          "type": "string"
        },
        {
          "internalType": "address",
          "name": "_token",
          "type": "address"
        },
        {
          "internalType": "uint256",
          "name": "_totalDistribute",
          "type": "uint256"
        },
        {
          "internalType": "uint256",
          "name": "_startTime",
          "type": "uint256"
        },
        {
          "internalType": "uint256",
          "name": "_duration",
          "type": "uint256"
        }
      ],
      "name": "addPool",
      "outputs": [],
      "stateMutability": "nonpayable",
      "type": "function"
    },
    {
      "inputs": [],
      "name": "admin0xB",
      "outputs": [
        {
          "internalType": "address",
          "name": "",
          "type": "address"
        }
      ],
      "stateMutability": "view",
      "type": "function"
    },
    {
      "inputs": [
        {
          "internalType": "uint32",
          "name": "_poolId",
          "type": "uint32"
        },
        {
          "internalType": "uint8[]",
          "name": "_indices",
          "type": "uint8[]"
        }
      ],
      "name": "claimReward",
      "outputs": [],
      "stateMutability": "nonpayable",
      "type": "function"
    },
    {
      "inputs": [
        {
          "internalType": "uint32",
          "name": "_poolId",
          "type": "uint32"
        },
        {
          "internalType": "uint256",
          "name": "_amount",
          "type": "uint256"
        }
      ],
      "name": "deposit",
      "outputs": [],
      "stateMutability": "nonpayable",
      "type": "function"
    },
    {
      "inputs": [],
      "name": "earlyWithdrawTaxPool",
      "outputs": [
        {
          "internalType": "address",
          "name": "",
          "type": "address"
        }
      ],
      "stateMutability": "view",
      "type": "function"
    },
    {
      "inputs": [
        {
          "internalType": "uint32",
          "name": "_poolId",
          "type": "uint32"
        }
      ],
      "name": "getAPR",
      "outputs": [
        {
          "internalType": "uint256",
          "name": "apr",
          "type": "uint256"
        }
      ],
      "stateMutability": "view",
      "type": "function"
    },
    {
      "inputs": [
        {
          "internalType": "bool",
          "name": "_onlyActive",
          "type": "bool"
        }
      ],
      "name": "getJSONAllPoolsInfo",
      "outputs": [
        {
          "internalType": "string",
          "name": "res",
          "type": "string"
        }
      ],
      "stateMutability": "view",
      "type": "function"
    },
    {
      "inputs": [
        {
          "internalType": "bool",
          "name": "_onlyActive",
          "type": "bool"
        },
        {
          "internalType": "address",
          "name": "_user",
          "type": "address"
        }
      ],
      "name": "getJSONAllPoolsUser",
      "outputs": [
        {
          "internalType": "string",
          "name": "res",
          "type": "string"
        }
      ],
      "stateMutability": "view",
      "type": "function"
    },
    {
      "inputs": [
        {
          "internalType": "uint32",
          "name": "_poolId",
          "type": "uint32"
        }
      ],
      "name": "getJSONSinglePoolInfo",
      "outputs": [
        {
          "internalType": "string",
          "name": "res",
          "type": "string"
        }
      ],
      "stateMutability": "view",
      "type": "function"
    },
    {
      "inputs": [
        {
          "internalType": "uint32",
          "name": "_poolId",
          "type": "uint32"
        },
        {
          "internalType": "address",
          "name": "_user",
          "type": "address"
        }
      ],
      "name": "getJSONSinglePoolUser",
      "outputs": [
        {
          "internalType": "string",
          "name": "res",
          "type": "string"
        }
      ],
      "stateMutability": "view",
      "type": "function"
    },
    {
      "inputs": [],
      "name": "getPoolsCount",
      "outputs": [
        {
          "internalType": "uint256",
          "name": "",
          "type": "uint256"
        }
      ],
      "stateMutability": "view",
      "type": "function"
    },
    {
      "inputs": [
        {
          "internalType": "uint32",
          "name": "_poolId",
          "type": "uint32"
        },
        {
          "internalType": "address",
          "name": "addr",
          "type": "address"
        }
      ],
      "name": "getUserPendingReward",
      "outputs": [
        {
          "internalType": "string",
          "name": "res",
          "type": "string"
        },
        {
          "internalType": "uint256",
          "name": "ttl",
          "type": "uint256"
        }
      ],
      "stateMutability": "view",
      "type": "function"
    },
    {
      "inputs": [
        {
          "internalType": "uint32",
          "name": "_poolId",
          "type": "uint32"
        },
        {
          "internalType": "address",
          "name": "addr",
          "type": "address"
        }
      ],
      "name": "getUserStakeAmounts",
      "outputs": [
        {
          "internalType": "string",
          "name": "res",
          "type": "string"
        },
        {
          "internalType": "uint256",
          "name": "ttl",
          "type": "uint256"
        }
      ],
      "stateMutability": "view",
      "type": "function"
    },
    {
      "inputs": [
        {
          "internalType": "uint32",
          "name": "_poolId",
          "type": "uint32"
        },
        {
          "internalType": "address",
          "name": "addr",
          "type": "address"
        }
      ],
      "name": "getUserTimestamps",
      "outputs": [
        {
          "internalType": "string",
          "name": "res",
          "type": "string"
        },
        {
          "internalType": "uint256",
          "name": "minTs",
          "type": "uint256"
        }
      ],
      "stateMutability": "view",
      "type": "function"
    },
    {
      "inputs": [
        {
          "internalType": "uint32",
          "name": "_poolId",
          "type": "uint32"
        },
        {
          "internalType": "address",
          "name": "addr",
          "type": "address"
        }
      ],
      "name": "getUserUnstakedAmount",
      "outputs": [
        {
          "internalType": "string",
          "name": "res",
          "type": "string"
        }
      ],
      "stateMutability": "view",
      "type": "function"
    },
    {
      "inputs": [],
      "name": "initialize",
      "outputs": [],
      "stateMutability": "nonpayable",
      "type": "function"
    },
    {
      "inputs": [
        {
          "internalType": "address",
          "name": "addr",
          "type": "address"
        }
      ],
      "name": "isWhitelisted",
      "outputs": [
        {
          "internalType": "bool",
          "name": "",
          "type": "bool"
        }
      ],
      "stateMutability": "view",
      "type": "function"
    },
    {
      "inputs": [],
      "name": "lpStakingEntitiesLimit",
      "outputs": [
        {
          "internalType": "uint256",
          "name": "",
          "type": "uint256"
        }
      ],
      "stateMutability": "view",
      "type": "function"
    },
    {
      "inputs": [
        {
          "internalType": "uint32",
          "name": "_poolId",
          "type": "uint32"
        },
        {
          "internalType": "address",
          "name": "addr",
          "type": "address"
        },
        {
          "internalType": "uint32",
          "name": "_index",
          "type": "uint32"
        }
      ],
      "name": "pendingReward",
      "outputs": [
        {
          "internalType": "uint256",
          "name": "",
          "type": "uint256"
        }
      ],
      "stateMutability": "view",
      "type": "function"
    },
    {
      "inputs": [
        {
          "internalType": "address",
          "name": "_token",
          "type": "address"
        }
      ],
      "name": "setToken",
      "outputs": [],
      "stateMutability": "nonpayable",
      "type": "function"
    },
    {
      "inputs": [
        {
          "internalType": "address",
          "name": "_pool",
          "type": "address"
        }
      ],
      "name": "setWithdrawTaxPool",
      "outputs": [],
      "stateMutability": "nonpayable",
      "type": "function"
    },
    {
      "inputs": [
        {
          "internalType": "uint256",
          "name": "_timeout",
          "type": "uint256"
        }
      ],
      "name": "setWithdrawTimeout",
      "outputs": [],
      "stateMutability": "nonpayable",
      "type": "function"
    },
    {
      "inputs": [
        {
          "internalType": "uint32",
          "name": "_poolId",
          "type": "uint32"
        },
        {
          "internalType": "address",
          "name": "addr",
          "type": "address"
        },
        {
          "internalType": "uint32",
          "name": "_index",
          "type": "uint32"
        }
      ],
      "name": "taxOfEntity",
      "outputs": [
        {
          "internalType": "uint256",
          "name": "",
          "type": "uint256"
        }
      ],
      "stateMutability": "view",
      "type": "function"
    },
    {
      "inputs": [],
      "name": "token0xBAddress",
      "outputs": [
        {
          "internalType": "address",
          "name": "",
          "type": "address"
        }
      ],
      "stateMutability": "view",
      "type": "function"
    },
    {
      "inputs": [
        {
          "internalType": "uint32",
          "name": "_poolId",
          "type": "uint32"
        },
        {
          "internalType": "address",
          "name": "addr",
          "type": "address"
        }
      ],
      "name": "totalStakeOfUser",
      "outputs": [
        {
          "internalType": "uint256",
          "name": "totalStake",
          "type": "uint256"
        }
      ],
      "stateMutability": "view",
      "type": "function"
    },
    {
      "inputs": [
        {
          "internalType": "uint32",
          "name": "_poolId",
          "type": "uint32"
        }
      ],
      "name": "updatePool",
      "outputs": [],
      "stateMutability": "nonpayable",
      "type": "function"
    },
    {
      "inputs": [
        {
          "internalType": "uint32",
          "name": "_poolId",
          "type": "uint32"
        },
        {
          "internalType": "uint8[]",
          "name": "_entityIndices",
          "type": "uint8[]"
        }
      ],
      "name": "withdrawMultiple",
      "outputs": [],
      "stateMutability": "nonpayable",
      "type": "function"
    },
    {
      "inputs": [
        {
          "internalType": "uint256",
          "name": "",
          "type": "uint256"
        }
      ],
      "name": "withdrawTaxLevel",
      "outputs": [
        {
          "internalType": "uint256",
          "name": "",
          "type": "uint256"
        }
      ],
      "stateMutability": "view",
      "type": "function"
    },
    {
      "inputs": [
        {
          "internalType": "uint256",
          "name": "",
          "type": "uint256"
        }
      ],
      "name": "withdrawTaxPortion",
      "outputs": [
        {
          "internalType": "uint256",
          "name": "",
          "type": "uint256"
        }
      ],
      "stateMutability": "view",
      "type": "function"
    },
    {
      "inputs": [],
      "name": "withdrawTimeout",
      "outputs": [
        {
          "internalType": "uint256",
          "name": "",
          "type": "uint256"
        }
      ],
      "stateMutability": "view",
      "type": "function"
    },
    {
      "inputs": [
        {
          "internalType": "uint32",
          "name": "_poolId",
          "type": "uint32"
        },
        {
          "internalType": "address",
          "name": "addr",
          "type": "address"
        },
        {
          "internalType": "uint32",
          "name": "_index",
          "type": "uint32"
        }
      ],
      "name": "withdrawable",
      "outputs": [
        {
          "internalType": "bool",
          "name": "",
          "type": "bool"
        }
      ],
      "stateMutability": "view",
      "type": "function"
    },
    {
      "stateMutability": "payable",
      "type": "receive"
    }
  ],
  "transactionHash": "0x69d0e80e9cd868a0b0ebe465f269631c5e390f6c27710195fce1488fd6a3b39c",
  "args": [],
  "numDeployments": 9,
  "solcInputHash": "018b25ac4d6ca580ed42be28ca0e7469",
  "bytecode": "0x608060405234801561001057600080fd5b50613b45806100206000396000f3fe6080604052600436106101cc5760003560e01c8063992b10f411610102578063b2a1704911610095578063d63c564b11610064578063d63c564b14610570578063e17f8d5514610590578063eed873c2146105a6578063f78d4897146105c657600080fd5b8063b2a17049146104fb578063b4ac68601461051b578063cedb682a14610530578063d4491a061461055057600080fd5b8063a6503e76116100d1578063a6503e761461047b578063aaf103981461049b578063aeeacef1146104bb578063b0cdad26146104db57600080fd5b8063992b10f4146103f757806399e9de00146104175780639c15d1a214610437578063a494a0c01461044d57600080fd5b806341c67a1d1161017a5780635643b4e3116101495780635643b4e3146103825780635931583d146103a257806372941460146103c25780638129fc1c146103e257600080fd5b806341c67a1d146102f5578063480729df146103225780634b7ea33d146103425780634dc89ff81461036257600080fd5b80630584aecf146101d8578063144fa6d71461021557806329efdc41146102375780632f3ef5da14610265578063303d50c2146102855780633af32abf146102a55780633da3a82d146102d557600080fd5b366101d357005b600080fd5b3480156101e457600080fd5b50600a546101f8906001600160a01b031681565b6040516001600160a01b0390911681526020015b60405180910390f35b34801561022157600080fd5b50610235610230366004612f95565b6105e6565b005b34801561024357600080fd5b50610257610252366004613130565b6106ac565b60405190815260200161020c565b34801561027157600080fd5b506102356102803660046130f9565b6107d4565b34801561029157600080fd5b506102576102a0366004613130565b610957565b3480156102b157600080fd5b506102c56102c0366004612f95565b610c03565b604051901515815260200161020c565b3480156102e157600080fd5b506102576102f03660046130e0565b610c21565b34801561030157600080fd5b50610315610310366004613114565b610c42565b60405161020c919061374c565b34801561032e57600080fd5b5061023561033d366004612f95565b610d6f565b34801561034e57600080fd5b5061031561035d366004613114565b610e21565b34801561036e57600080fd5b5061031561037d3660046130f9565b610f46565b34801561038e57600080fd5b5061031561039d366004612fb0565b611254565b3480156103ae57600080fd5b506102576103bd3660046130e0565b611420565b3480156103ce57600080fd5b506102356103dd3660046130e0565b611430565b3480156103ee57600080fd5b50610235611483565b34801561040357600080fd5b50610315610412366004612fea565b6115eb565b34801561042357600080fd5b50610235610432366004613173565b6116b8565b34801561044357600080fd5b5061025760025481565b34801561045957600080fd5b5061046d610468366004613114565b6119c4565b60405161020c92919061375f565b34801561048757600080fd5b50610257610496366004613114565b611ae8565b3480156104a757600080fd5b506102356104b6366004613244565b611b82565b3480156104c757600080fd5b506102c56104d6366004613130565b611e1b565b3480156104e757600080fd5b5061046d6104f6366004613114565b611ec5565b34801561050757600080fd5b506102576105163660046130f9565b611ff2565b34801561052757600080fd5b50600654610257565b34801561053c57600080fd5b506009546101f8906001600160a01b031681565b34801561055c57600080fd5b506005546101f8906001600160a01b031681565b34801561057c57600080fd5b5061046d61058b366004613114565b612195565b34801561059c57600080fd5b5061025760015481565b3480156105b257600080fd5b506102356105c136600461301f565b6122da565b3480156105d257600080fd5b506102356105e1366004613173565b61250b565b6009546001600160a01b03163314806106095750600a546001600160a01b031633145b80610618575061061833610c03565b61063d5760405162461bcd60e51b815260040161063490613781565b60405180910390fd5b6001600160a01b03811661068a5760405162461bcd60e51b81526020600482015260146024820152732722abafaa27a5a2a71d103d32b9379030b2323960611b6044820152606401610634565b600980546001600160a01b0319166001600160a01b0392909216919091179055565b60065460009063ffffffff8516106106d65760405162461bcd60e51b8152600401610634906137a9565b63ffffffff841660009081526007602090815260408083206001600160a01b0387168452825280832060ff8616845260019081018352818420825160808101845281548152918101549382019390935260028301549181018290526003909201546060830152909190610749904261399a565b60045490915060009061075e9060019061399a565b90505b80156107c557816003828154811061077b5761077b613afe565b9060005260206000200154116107b3576004818154811061079e5761079e613afe565b906000526020600020015493505050506107cd565b806107bd81613a04565b915050610761565b506000925050505b9392505050565b600060068263ffffffff16815481106107ef576107ef613afe565b906000526020600020906008020190508060070154421161080e575050565b60028101548061082357504260079091015550565b600061091c836040518061010001604052908160008201805461084590613a38565b80601f016020809104026020016040519081016040528092919081815260200182805461087190613a38565b80156108be5780601f10610893576101008083540402835291602001916108be565b820191906000526020600020905b8154815290600101906020018083116108a157829003601f168201915b505050918352505060018201546001600160a01b03166020820152600282015460408201526003820154606082015260048201546080820152600582015460a0820152600682015460c082015260079091015460e090910152612b32565b61092a846007015442612b6a565b610934919061395a565b905080836006015461094691906137fc565b600684015550504260079091015550565b60065460009063ffffffff8516106109815760405162461bcd60e51b8152600401610634906137a9565b600060068563ffffffff168154811061099c5761099c613afe565b9060005260206000209060080201604051806101000160405290816000820180546109c690613a38565b80601f01602080910402602001604051908101604052809291908181526020018280546109f290613a38565b8015610a3f5780601f10610a1457610100808354040283529160200191610a3f565b820191906000526020600020905b815481529060010190602001808311610a2257829003601f168201915b505050505081526020016001820160009054906101000a90046001600160a01b03166001600160a01b03166001600160a01b03168152602001600282015481526020016003820154815260200160048201548152602001600582015481526020016006820154815260200160078201548152505090506000600760008763ffffffff1663ffffffff1681526020019081526020016000206000866001600160a01b03166001600160a01b03168152602001908152602001600020905060008160010160008660ff1660ff168152602001908152602001600020604051806080016040529081600082015481526020016001820154815260200160028201548152602001600382015481525050905060008360c0015190506000846040015190508460e0015142118015610b7157508015155b15610bc6576000610b8186612b32565b610b8f8760e0015142612b6a565b610b99919061395a565b905081610bae670de0b6b3a76400008361395a565b610bb89190613839565b610bc290846137fc565b9250505b60208301518351670de0b6b3a764000090610be290859061395a565b610bec9190613839565b610bf6919061399a565b9998505050505050505050565b6001600160a01b031660009081526008602052604090205460ff1690565b60048181548110610c3157600080fd5b600091825260209091200154905081565b60065460609063ffffffff841610610c8c5760405162461bcd60e51b815260206004820152600d60248201526c1ddc9bdb99c81c1bdbdb081a59609a1b6044820152606401610634565b610c9b8363ffffffff16612b76565b604051602001610cab91906136e4565b604051602081830303815290604052905080610ccf610cca8585611ae8565b612b76565b604051602001610ce09291906133bf565b60405160208183030381529060405290506000610cfd84846119c4565b91505081610d0a82612b76565b604051602001610d1b929190613325565b60405160208183030381529060405291506000610d388585611ec5565b91505082610d4582612b76565b604051602001610d5692919061345b565b6040516020818303038152906040529250505092915050565b6009546001600160a01b0316331480610d925750600a546001600160a01b031633145b80610da15750610da133610c03565b610dbd5760405162461bcd60e51b815260040161063490613781565b6001600160a01b038116610dff5760405162461bcd60e51b81526020600482015260096024820152683d32b9379030b2323960b91b6044820152606401610634565b600580546001600160a01b0319166001600160a01b0392909216919091179055565b60065460609063ffffffff841610610e4b5760405162461bcd60e51b8152600401610634906137a9565b63ffffffff831660009081526007602090815260408083206001600160a01b03861684529091529020805460ff16610e93575050604080516020810190915260008152610f40565b6000808052600182016020526040902060030154610eb090612b76565b915060015b815460ff9081169082161015610f3d5782604051806040016040528060018152602001602360f81b815250610f078460010160008560ff1660ff16815260200190815260200160002060030154612b76565b604051602001610f199392919061329a565b60405160208183030381529060405292508080610f3590613ab2565b915050610eb5565b50505b92915050565b60065460609063ffffffff831610610f905760405162461bcd60e51b815260206004820152600d60248201526c1ddc9bdb99c81c1bdbdb081a59609a1b6044820152606401610634565b600060068363ffffffff1681548110610fab57610fab613afe565b906000526020600020906008020160405180610100016040529081600082018054610fd590613a38565b80601f016020809104026020016040519081016040528092919081815260200182805461100190613a38565b801561104e5780601f106110235761010080835404028352916020019161104e565b820191906000526020600020905b81548152906001019060200180831161103157829003601f168201915b505050918352505060018201546001600160a01b03166020820152600282015460408201526003820154606082015260048201546080820152600582015460a0820152600682015460c082015260079091015460e09091015290506110b863ffffffff8416612b76565b6040516020016110c8919061369d565b60408051601f198184030181529082905282519093506110ed91849190602001613371565b60405160208183030381529060405291508161110c8260200151612c9f565b60405160200161111d92919061353c565b60405160208183030381529060405291508161113c8260400151612b76565b60405160200161114d92919061340c565b60405160208183030381529060405291508161116c8260600151612b76565b60405160200161117d92919061358a565b60405160208183030381529060405291508161119c8260800151612b76565b6040516020016111ad9291906132dd565b6040516020818303038152906040529150816111cc8260a00151612b76565b6040516020016111dd9291906134ee565b6040516020818303038152906040529150816111fc8260c00151612b76565b60405160200161120d929190613497565b60405160208183030381529060405291508161122c8260e00151612b76565b60405160200161123d92919061345b565b604051602081830303815290604052915050919050565b6040805180820190915260018152607b60f81b602082015260005b60065463ffffffff821610156113f8578215806113a457506113a460068263ffffffff16815481106112a3576112a3613afe565b9060005260206000209060080201604051806101000160405290816000820180546112cd90613a38565b80601f01602080910402602001604051908101604052809291908181526020018280546112f990613a38565b80156113465780601f1061131b57610100808354040283529160200191611346565b820191906000526020600020905b81548152906001019060200180831161132957829003601f168201915b505050918352505060018201546001600160a01b03166020820152600282015460408201526003820154606082015260048201546080820152600582015460a0820152600682015460c082015260079091015460e090910152612de6565b156113e657816113b98263ffffffff16612b76565b6113c283610f46565b6040516020016113d4939291906135d3565b60405160208183030381529060405291505b806113f081613a8e565b91505061126f565b508060405160200161140a9190613641565b6040516020818303038152906040529050919050565b60038181548110610c3157600080fd5b6009546001600160a01b03163314806114535750600a546001600160a01b031633145b80611462575061146233610c03565b61147e5760405162461bcd60e51b815260040161063490613781565b600255565b600054610100900460ff1661149e5760005460ff16156114a2565b303b155b6115055760405162461bcd60e51b815260206004820152602e60248201527f496e697469616c697a61626c653a20636f6e747261637420697320616c72656160448201526d191e481a5b9a5d1a585b1a5e995960921b6064820152608401610634565b600054610100900460ff16158015611527576000805461ffff19166101011790555b600a80546001600160a01b03191633179055606460015560006002819055604080516080810182528281526020810192909252810161156a62015180601e61395a565b815260200161157d62015180603c61395a565b905261158d906003906004612e55565b5060408051608081018252624c4b408082526020820152622625a091810191909152600060608201526115c39060049081612ea0565b50600580546001600160a01b0319163317905580156115e8576000805461ff00191690555b50565b6040805180820190915260018152607b60f81b602082015260005b60065463ffffffff8216101561168f5783158061163a575061163a60068263ffffffff16815481106112a3576112a3613afe565b1561167d578161164f8263ffffffff16612b76565b6116598386610c42565b60405160200161166b939291906135d3565b60405160208183030381529060405291505b8061168781613a8e565b915050611606565b50806040516020016116a1919061366f565b604051602081830303815290604052905092915050565b60065463ffffffff8316106116df5760405162461bcd60e51b8152600401610634906137a9565b600060068363ffffffff16815481106116fa576116fa613afe565b90600052602060002090600802019050611806816040518061010001604052908160008201805461172a90613a38565b80601f016020809104026020016040519081016040528092919081815260200182805461175690613a38565b80156117a35780601f10611778576101008083540402835291602001916117a3565b820191906000526020600020905b81548152906001019060200180831161178657829003601f168201915b505050918352505060018201546001600160a01b03166020820152600282015460408201526003820154606082015260048201546080820152600582015460a0820152600682015460c082015260079091015460e0909101526080015142101590565b61184d5760405162461bcd60e51b81526020600482015260186024820152771c1bdbdb081a185cc81b9bdd081cdd185c9d1959081e595d60421b6044820152606401610634565b63ffffffff83166000908152600760209081526040808320338085529252909120611877856107d4565b600080805b86518160ff161015611935576000878260ff168151811061189f5761189f613afe565b6020026020010151905060008560010160008360ff1660ff16815260200190815260200160002090508060010154670de0b6b3a7640000896006015483600001546118ea919061395a565b6118f49190613839565b6118fe919061399a565b935061190a84866137fc565b945083816001015461191c91906137fc565b600190910155508061192d81613ab2565b91505061187c565b5060095460405163a9059cbb60e01b81526001600160a01b039091169063a9059cbb906119689087908690600401613733565b602060405180830381600087803b15801561198257600080fd5b505af1158015611996573d6000803e3d6000fd5b505050506040513d601f19601f820116820180604052508101906119ba9190612fcd565b5050505050505050565b60065460609060009063ffffffff8516106119f15760405162461bcd60e51b8152600401610634906137a9565b63ffffffff841660009081526007602090815260408083206001600160a01b03871684529091529020805460ff16611a3d57505060408051602081019091526000808252909150611ae1565b60009150611a50610cca86866000610957565b925060015b815460ff9081169082161015611ade576000611a7587878460ff16610957565b9050611a8181856137fc565b935084604051806040016040528060018152602001602360f81b815250611aa783612b76565b604051602001611ab99392919061329a565b6040516020818303038152906040529450508080611ad690613ab2565b915050611a55565b50505b9250929050565b60065460009063ffffffff841610611b125760405162461bcd60e51b8152600401610634906137a9565b5063ffffffff821660009081526007602090815260408083206001600160a01b0385168452909152812060015b815460ff9081169082161015610f3d5760ff81166000908152600183016020526040902054611b6e90846137fc565b925080611b7a81613ab2565b915050611b3f565b60065463ffffffff831610611ba95760405162461bcd60e51b8152600401610634906137a9565b60008111611be85760405162461bcd60e51b815260206004820152600c60248201526b706c65617365207374616b6560a01b6044820152606401610634565b63ffffffff82166000908152600760209081526040808320338085529252909120600154815460ff1610611c6e5760405162461bcd60e51b815260206004820152602760248201527f746f6f206d616e7920656e7469746965732c20706c6561736520776974686472604482015266617720736f6d6560c81b6064820152608401610634565b600060068563ffffffff1681548110611c8957611c89613afe565b90600052602060002090600802019050611cb981604051806101000160405290816000820180546112cd90613a38565b611cf55760405162461bcd60e51b815260206004820152600d60248201526c706f6f6c20696e61637469766560981b6044820152606401610634565b611cfe856107d4565b60018101546040516323b872dd60e01b8152336004820152306024820152604481018690526001600160a01b03909116906323b872dd90606401602060405180830381600087803b158015611d5257600080fd5b505af1158015611d66573d6000803e3d6000fd5b505050506040513d601f19601f82011682018060405250810190611d8a9190612fcd565b50838160020154611d9b91906137fc565b60028083019190915560408051608081018252868152600060208083018281524284860190815260608501848152895460ff90811686526001808c0190955296909420945185559051848301555194830194909455516003909101558354611e0592911690613814565b825460ff191660ff919091161790915550505050565b60065460009063ffffffff851610611e455760405162461bcd60e51b8152600401610634906137a9565b63ffffffff841660009081526007602090815260408083206001600160a01b0387168452825280832060ff8616845260019081018352928190208151608081018352815481529381015492840192909252600280830154918401829052600390920154606084015290544291611ebb91906137fc565b1095945050505050565b60065460609060009063ffffffff851610611ef25760405162461bcd60e51b8152600401610634906137a9565b5063ffffffff831660009081526007602090815260408083206001600160a01b038616845290915290208054600019919060ff16611f4157506040805160208101909152600081529150611ae1565b6000808052600182016020526040902060020154611f5e90612b76565b925060015b815460ff9081169082161015611ade5760ff8116600090815260018084016020908152604092839020600201548351808501909452918352602360f81b90830152908590611fb083612b76565b604051602001611fc29392919061329a565b604051602081830303815290604052945083811015611fdf578093505b5080611fea81613ab2565b915050611f63565b60065460009063ffffffff83161061201c5760405162461bcd60e51b8152600401610634906137a9565b600060068363ffffffff168154811061203757612037613afe565b90600052602060002090600802016040518061010001604052908160008201805461206190613a38565b80601f016020809104026020016040519081016040528092919081815260200182805461208d90613a38565b80156120da5780601f106120af576101008083540402835291602001916120da565b820191906000526020600020905b8154815290600101906020018083116120bd57829003601f168201915b505050505081526020016001820160009054906101000a90046001600160a01b03166001600160a01b03166001600160a01b031681526020016002820154815260200160038201548152602001600482015481526020016005820154815260200160068201548152602001600782015481525050905080604001518160a00151670de0b6b3a76400006301e133808460600151612177919061395a565b612181919061395a565b61218b9190613839565b6107cd9190613839565b60065460609060009063ffffffff8516106121c25760405162461bcd60e51b8152600401610634906137a9565b63ffffffff841660009081526007602090815260408083206001600160a01b03871684529091529020805460ff1661220e57505060408051602081019091526000808252909150611ae1565b600080805260018201602052604081206003810154905491935061223691610cca91906137fc565b925060015b815460ff9081169082161015611ade5760ff8116600090815260018301602052604081206003810154905461227091906137fc565b905084604051806040016040528060018152602001602360f81b81525061229683612b76565b6040516020016122a89392919061329a565b60408051601f1981840301815291905294506122c481856137fc565b93505080806122d290613ab2565b91505061223b565b6009546001600160a01b03163314806122fd5750600a546001600160a01b031633145b8061230c575061230c33610c03565b6123285760405162461bcd60e51b815260040161063490613781565b428210156123835760405162461bcd60e51b815260206004820152602260248201527f73746172742074696d652073686f756c6420626520696e207468652066757475604482015261726560f01b6064820152608401610634565b6009546040516323b872dd60e01b8152336004820152306024820152604481018590526001600160a01b03909116906323b872dd90606401602060405180830381600087803b1580156123d557600080fd5b505af11580156123e9573d6000803e3d6000fd5b505050506040513d601f19601f8201168201806040525081019061240d9190612fcd565b5060408051610100810182528681526001600160a01b0386166020808301919091526000928201839052606082018690526080820185905260a0820184905260c0820183905260e082018590526006805460018101825593528151805192936008027ff652222313e28459528d920b65115c16c04f3efc82aaedc97be59f3f377c0d3f019261249f9284920190612ee2565b5060208201516001820180546001600160a01b0319166001600160a01b0390921691909117905560408201516002820155606082015160038201556080820151600482015560a0820151600582015560c0820151600682015560e0909101516007909101555050505050565b60065463ffffffff8316106125325760405162461bcd60e51b8152600401610634906137a9565b60005b815181101561264457612565833384848151811061255557612555613afe565b602002602001015160ff16611e1b565b6125b15760405162461bcd60e51b815260206004820152601c60248201527f656e7469747920696e207769746864726177616c2074696d656f7574000000006044820152606401610634565b63ffffffff83166000908152600760209081526040808320338452909152902054825160ff909116908390839081106125ec576125ec613afe565b602002602001015160ff16106126325760405162461bcd60e51b815260206004820152600b60248201526a0eee4dedcce40d2dcc8caf60ab1b6044820152606401610634565b8061263c81613a73565b915050612535565b5063ffffffff8216600090815260076020908152604080832033808552925290912061266f846107d4565b600060068563ffffffff168154811061268a5761268a613afe565b906000526020600020906008020190506000806000808060005b89518110156127d45760008860010160008c84815181106126c7576126c7613afe565b602002602001015160ff1660ff1681526020019081526020016000209050806000015492508060010154670de0b6b3a76400008960060154836000015461270e919061395a565b6127189190613839565b612722919061399a565b935061272e84886137fc565b96506305f5e10061275c8d8c8e868151811061274c5761274c613afe565b602002602001015160ff166106ac565b612766908561395a565b6127709190613839565b61277a90876137fc565b955061278683866137fc565b945083816001015461279891906137fc565b600182015580546127aa90849061399a565b815560038101546127bc9084906137fc565b600390910155806127cc81613a73565b9150506126a4565b5060095460405163a9059cbb60e01b81526001600160a01b039091169063a9059cbb90612807908b908990600401613733565b602060405180830381600087803b15801561282157600080fd5b505af1158015612835573d6000803e3d6000fd5b505050506040513d601f19601f820116820180604052508101906128599190612fcd565b50600186015460055460405163a9059cbb60e01b81526001600160a01b039283169263a9059cbb92612892929116908890600401613733565b602060405180830381600087803b1580156128ac57600080fd5b505af11580156128c0573d6000803e3d6000fd5b505050506040513d601f19601f820116820180604052508101906128e49190612fcd565b5060018601546001600160a01b031663a9059cbb89612903878761399a565b6040518363ffffffff1660e01b8152600401612920929190613733565b602060405180830381600087803b15801561293a57600080fd5b505af115801561294e573d6000803e3d6000fd5b505050506040513d601f19601f820116820180604052508101906129729190612fcd565b50828660020154612983919061399a565b60028701558654600090819061299e9060019060ff166139b1565b90506129cb6040518060800160405280600081526020016000815260200160008152602001600081525090565b895460ff9081169084161080156129f5575060ff8316600090815260018b01602052604090205415155b15612a0c5782612a0481613ab2565b9350506129cb565b60ff8216600090815260018b016020526040902054612a445760ff8216612a3257612a44565b81612a3c81613a1b565b925050612a0c565b8160ff168360ff1610612a5657612ae7565b5060ff80821660009081526001808c016020818152604080852081516080810183528154815281860154818501908152600280840154838601908152600394850154606085019081529a8d168a52969095529290962086518155915194820194909455915190820155925192019190915582612ad181613ab2565b9350508180612adf90613a1b565b9250506129cb565b60ff8216600090815260018b01602052604090205415612b1157612b0c826001613814565b612b14565b60005b8a5460ff191660ff9190911617909955505050505050505050505050565b600081604001518260a00151670de0b6b3a76400008460600151612b56919061395a565b612b609190613839565b610f409190613839565b60006107cd838361399a565b606081612b9a5750506040805180820190915260018152600360fc1b602082015290565b8160005b8115612bc45780612bae81613a73565b9150612bbd9050600a83613839565b9150612b9e565b60008167ffffffffffffffff811115612bdf57612bdf613b14565b6040519080825280601f01601f191660200182016040528015612c09576020820181803683370190505b509050815b8515612c9657612c1f60018261399a565b90506000612c2e600a88613839565b612c3990600a61395a565b612c43908861399a565b612c4e906030613814565b905060008160f81b905080848481518110612c6b57612c6b613afe565b60200101906001600160f81b031916908160001a905350612c8d600a89613839565b97505050612c0e565b50949350505050565b60408051602880825260608281019093526000919060208201818036833701905050905060005b6014811015612ddf576000612cdc82601361399a565b612ce790600861395a565b612cf29060026138b2565b612d05906001600160a01b038716613839565b60f81b9050600060108260f81c612d1c919061384d565b60f81b905060008160f81c6010612d339190613979565b8360f81c612d4191906139b1565b60f81b9050612d4f82612e1a565b85612d5b86600261395a565b81518110612d6b57612d6b613afe565b60200101906001600160f81b031916908160001a905350612d8b81612e1a565b85612d9786600261395a565b612da29060016137fc565b81518110612db257612db2613afe565b60200101906001600160f81b031916908160001a9053505050508080612dd790613a73565b915050612cc6565b5092915050565b6000612df6826080015142101590565b8015610f4057508160a001518260800151612e1191906137fc565b42111592915050565b6000600a60f883901c1015612e4157612e3860f883901c6030613814565b60f81b92915050565b612e3860f883901c6057613814565b919050565b828054828255906000526020600020908101928215612e90579160200282015b82811115612e90578251825591602001919060010190612e75565b50612e9c929150612f55565b5090565b828054828255906000526020600020908101928215612e90579160200282015b82811115612e90578251829062ffffff16905591602001919060010190612ec0565b828054612eee90613a38565b90600052602060002090601f016020900481019282612f105760008555612e90565b82601f10612f2957805160ff1916838001178555612e90565b82800160010185558215612e905791820182811115612e90578251825591602001919060010190612e75565b5b80821115612e9c5760008155600101612f56565b80356001600160a01b0381168114612e5057600080fd5b803563ffffffff81168114612e5057600080fd5b600060208284031215612fa757600080fd5b6107cd82612f6a565b600060208284031215612fc257600080fd5b81356107cd81613b2a565b600060208284031215612fdf57600080fd5b81516107cd81613b2a565b60008060408385031215612ffd57600080fd5b823561300881613b2a565b915061301660208401612f6a565b90509250929050565b600080600080600060a0868803121561303757600080fd5b853567ffffffffffffffff8082111561304f57600080fd5b818801915088601f83011261306357600080fd5b813560208282111561307757613077613b14565b613089601f8301601f191682016137cb565b92508183528a8183860101111561309f57600080fd5b818185018285013760008183850101528298506130bd818b01612f6a565b989b989a5050505060408701359660608101359660809091013595509350505050565b6000602082840312156130f257600080fd5b5035919050565b60006020828403121561310b57600080fd5b6107cd82612f81565b6000806040838503121561312757600080fd5b61300883612f81565b60008060006060848603121561314557600080fd5b61314e84612f81565b925061315c60208501612f6a565b915061316a60408501612f81565b90509250925092565b6000806040838503121561318657600080fd5b61318f83612f81565b915060208084013567ffffffffffffffff808211156131ad57600080fd5b818601915086601f8301126131c157600080fd5b8135818111156131d3576131d3613b14565b8060051b91506131e48483016137cb565b8181528481019084860184860187018b10156131ff57600080fd5b600095508594505b8385101561323357803560ff8116811461321f578687fd5b835260019490940193918601918601613207565b508096505050505050509250929050565b6000806040838503121561325757600080fd5b61326083612f81565b946020939093013593505050565b600081518084526132868160208601602086016139d4565b601f01601f19169290920160200192915050565b600084516132ac8184602089016139d4565b8451908301906132c08183602089016139d4565b84519101906132d38183602088016139d4565b0195945050505050565b600083516132ef8184602088016139d4565b8351908301906133038183602088016139d4565b6d111611323ab930ba34b7b7111d1160911b9101908152600e01949350505050565b600083516133378184602088016139d4565b83519083019061334b8183602088016139d4565b7111161136b4b72a34b6b2b9ba30b6b8111d1160711b9101908152601201949350505050565b600083516133838184602088016139d4565b8351908301906133978183602088016139d4565b7311161136382a37b5b2b720b2323932b9b9911d1160611b9101908152601401949350505050565b600083516133d18184602088016139d4565b8351908301906133e58183602088016139d4565b721116113832b73234b733a932bbb0b932111d1160691b9101908152601301949350505050565b6000835161341e8184602088016139d4565b8351908301906134328183602088016139d4565b741116113a37ba30b62234b9ba3934b13aba32911d1160591b9101908152601501949350505050565b6000835161346d8184602088016139d4565b8351908301906134818183602088016139d4565b61227d60f01b9101908152600201949350505050565b600083516134a98184602088016139d4565b8351908301906134bd8183602088016139d4565b7f222c226c61737452657761726454696d657374616d70223a22000000000000009101908152601901949350505050565b600083516135008184602088016139d4565b8351908301906135148183602088016139d4565b7311161130b1b1983c212832b929b430b932911d1160611b9101908152601401949350505050565b6000835161354e8184602088016139d4565b8351908301906135628183602088016139d4565b73111611363820b6b7bab73a24b72837b7b6111d1160611b9101908152601401949350505050565b6000835161359c8184602088016139d4565b8351908301906135b08183602088016139d4565b6e11161139ba30b93a2a34b6b2911d1160891b9101908152600f01949350505050565b600084516135e58184602089016139d4565b601160f91b90830190815284516136038160018401602089016139d4565b61111d60f11b6001929091019182015283516136268160038401602088016139d4565b600b60fa1b6003929091019182015260040195945050505050565b600082516136538184602087016139d4565b6922696e666f223a22227d60b01b920191825250600a01919050565b600082516136818184602087016139d4565b692275736572223a22227d60b01b920191825250600a01919050565b693d9134b73232bc111d1160b11b815281516000906136c381600a8501602087016139d4565b691116113730b6b2911d1160b11b600a939091019283015250601401919050565b693d9134b73232bc111d1160b11b8152815160009061370a81600a8501602087016139d4565b7111161139ba30b5b2b220b6b7bab73a111d1160711b600a939091019283015250601c01919050565b6001600160a01b03929092168252602082015260400190565b6020815260006107cd602083018461326e565b604081526000613772604083018561326e565b90508260208301529392505050565b6020808252600e908201526d4163636573732044656e6965642160901b604082015260600190565b6020808252600890820152671ddc9bdb99c81a5960c21b604082015260600190565b604051601f8201601f1916810167ffffffffffffffff811182821017156137f4576137f4613b14565b604052919050565b6000821982111561380f5761380f613ad2565b500190565b600060ff821660ff84168060ff0382111561383157613831613ad2565b019392505050565b60008261384857613848613ae8565b500490565b600060ff83168061386057613860613ae8565b8060ff84160491505092915050565b600181815b808511156138aa57816000190482111561389057613890613ad2565b8085161561389d57918102915b93841c9390800290613874565b509250929050565b60006107cd83836000826138c857506001610f40565b816138d557506000610f40565b81600181146138eb57600281146138f557613911565b6001915050610f40565b60ff84111561390657613906613ad2565b50506001821b610f40565b5060208310610133831016604e8410600b8410161715613934575081810a610f40565b61393e838361386f565b806000190482111561395257613952613ad2565b029392505050565b600081600019048311821515161561397457613974613ad2565b500290565b600060ff821660ff84168160ff048111821515161561395257613952613ad2565b6000828210156139ac576139ac613ad2565b500390565b600060ff821660ff8416808210156139cb576139cb613ad2565b90039392505050565b60005b838110156139ef5781810151838201526020016139d7565b838111156139fe576000848401525b50505050565b600081613a1357613a13613ad2565b506000190190565b600060ff821680613a2e57613a2e613ad2565b6000190192915050565b600181811c90821680613a4c57607f821691505b60208210811415613a6d57634e487b7160e01b600052602260045260246000fd5b50919050565b6000600019821415613a8757613a87613ad2565b5060010190565b600063ffffffff80831681811415613aa857613aa8613ad2565b6001019392505050565b600060ff821660ff811415613ac957613ac9613ad2565b60010192915050565b634e487b7160e01b600052601160045260246000fd5b634e487b7160e01b600052601260045260246000fd5b634e487b7160e01b600052603260045260246000fd5b634e487b7160e01b600052604160045260246000fd5b80151581146115e857600080fdfea164736f6c6343000807000a",
  "devdoc": {
    "kind": "dev",
    "methods": {
      "addPool(string,address,uint256,uint256,uint256)": {
        "params": {
          "_duration": "duration of pool",
          "_startTime": "timestamp to start pool",
          "_token": "address of LP token",
          "_totalDistribute": "total distribution in 0xB for this pool"
        }
      },
      "claimReward(uint32,uint8[])": {
        "details": "update reward debt and send reward to user",
        "params": {
          "_poolId": "index of pool"
        }
      },
      "deposit(uint32,uint256)": {
        "details": "add new entity to control staking timestamp and taxes, never add token to older entities",
        "params": {
          "_amount": "amount to stake",
          "_poolId": "index of one pool"
        }
      },
      "getAPR(uint32)": {
        "params": {
          "_poolId": "index of pool"
        },
        "returns": {
          "apr": "current APR of an LP pool"
        }
      },
      "getJSONAllPoolsInfo(bool)": {
        "params": {
          "_onlyActive": "decide if only return info of active pool"
        },
        "returns": {
          "res": "JSON"
        }
      },
      "getJSONAllPoolsUser(bool,address)": {
        "params": {
          "_onlyActive": "decide if only return info of active pool",
          "_user": "address of an user"
        },
        "returns": {
          "res": "JSON"
        }
      },
      "getJSONSinglePoolInfo(uint32)": {
        "params": {
          "_poolId": "index of pool"
        },
        "returns": {
          "res": "JSON"
        }
      },
      "getJSONSinglePoolUser(uint32,address)": {
        "params": {
          "_poolId": "index of pool",
          "_user": "address of an user"
        },
        "returns": {
          "res": "JSON"
        }
      },
      "getPoolsCount()": {
        "returns": {
          "_0": "len number of pools"
        }
      },
      "getUserPendingReward(uint32,address)": {
        "details": "result is returned as a string, which entities is separated with SEPARATOR",
        "params": {
          "_poolId": "index of pool",
          "addr": "address of user"
        },
        "returns": {
          "res": "result as a string"
        }
      },
      "getUserStakeAmounts(uint32,address)": {
        "details": "result is returned as a string, which entities is separated with SEPARATORfor each entity, the amount staked at first is separated into 2 variable: amount + withdrawn",
        "params": {
          "_poolId": "index of pool",
          "addr": "address of user"
        },
        "returns": {
          "res": "result as a string"
        }
      },
      "getUserTimestamps(uint32,address)": {
        "details": "result is returned as a string, which entities is separated with SEPARATOR",
        "params": {
          "_poolId": "index of pool",
          "addr": "address of user"
        },
        "returns": {
          "res": "result as a string"
        }
      },
      "getUserUnstakedAmount(uint32,address)": {
        "details": "result is returned as a string, which entities is separated with SEPARATOR",
        "params": {
          "_poolId": "index of pool",
          "addr": "address of user"
        },
        "returns": {
          "res": "result as a string"
        }
      },
      "isWhitelisted(address)": {
        "params": {
          "addr": "address to query"
        },
        "returns": {
          "_0": "isWhitelisted true if `addr` is whitelisted"
        }
      },
      "pendingReward(uint32,address,uint32)": {
        "details": "the accumulated reward per share is considered, add with reward from latest pool updateusing current state of pool (total lp in pool).the formula is: (a * n) + delta(now - l) * c - rewardDebta: accumulatedRewardPerShare in pool, n: total share, delta(now - l): seconds since last updatec: current reward per share per second, rewardDebt: reward already claimed by user in this pool",
        "params": {
          "_index": "index of some entity",
          "_poolId": "id of pool",
          "addr": "address of user"
        },
        "returns": {
          "_0": "reward pending reward of user"
        }
      },
      "setToken(address)": {
        "params": {
          "_token": "address of 0xB"
        }
      },
      "setWithdrawTaxPool(address)": {
        "params": {
          "_pool": "new tax pool"
        }
      },
      "setWithdrawTimeout(uint256)": {
        "params": {
          "_timeout": "new timeout"
        }
      },
      "taxOfEntity(uint32,address,uint32)": {
        "params": {
          "_index": "index of entity",
          "_poolId": "index of a pool",
          "addr": "address of an entity owner"
        },
        "returns": {
          "_0": "tax amount of tax of an entity"
        }
      },
      "totalStakeOfUser(uint32,address)": {
        "params": {
          "_poolId": "index of pool",
          "addr": "address of the user"
        },
        "returns": {
          "totalStake": "total amount of LP staked in the user"
        }
      },
      "updatePool(uint32)": {
        "details": "update accumulated reward per share of a pool for sake of reward optimization",
        "params": {
          "_poolId": "index of pool"
        }
      },
      "withdrawMultiple(uint32,uint8[])": {
        "details": "same as withdraw, relocations of entities from an user is required",
        "params": {
          "_entityIndices": "indices of entities to withdraw",
          "_poolId": "index of pool"
        }
      },
      "withdrawable(uint32,address,uint32)": {
        "params": {
          "_index": "index of entity",
          "_poolId": "index of a pool",
          "addr": "address of an entity owner"
        },
        "returns": {
          "_0": "withdrawable true if the entity is withdrawable"
        }
      }
    },
    "version": 1
  },
  "userdoc": {
    "kind": "user",
    "methods": {
      "addPool(string,address,uint256,uint256,uint256)": {
        "notice": "add new pool to stake LP"
      },
      "claimReward(uint32,uint8[])": {
        "notice": "claim all reward from all entity of pool"
      },
      "deposit(uint32,uint256)": {
        "notice": "deposit _amount of lp to the pool with index _poolId to start new entity of staking"
      },
      "getAPR(uint32)": {
        "notice": "calculate the current APR of one LP pool"
      },
      "getJSONAllPoolsInfo(bool)": {
        "notice": "return a JSON includes info of all pool, can choose to get only active pools or not"
      },
      "getJSONAllPoolsUser(bool,address)": {
        "notice": "return a JSON includes info of all pool that specific to an user, can choose to get only active pools or not"
      },
      "getJSONSinglePoolInfo(uint32)": {
        "notice": "return a JSON includes all info of a pool"
      },
      "getJSONSinglePoolUser(uint32,address)": {
        "notice": "return a JSON includes all info of an user in a pool"
      },
      "getPoolsCount()": {
        "notice": "number of pools "
      },
      "getUserPendingReward(uint32,address)": {
        "notice": "get the pending rewards of every entity that user staked in one pool"
      },
      "getUserStakeAmounts(uint32,address)": {
        "notice": "get the stake amount of every entity that user staked in one pool"
      },
      "getUserTimestamps(uint32,address)": {
        "notice": "get the timestamps of every entity that user staked in one pool"
      },
      "getUserUnstakedAmount(uint32,address)": {
        "notice": "get the unstaked amount of every entity that user staked in one pool"
      },
      "isWhitelisted(address)": {
        "notice": "show if an address is whitelisted to create a pool"
      },
      "pendingReward(uint32,address,uint32)": {
        "notice": "calculate the unclaimed reward of a user in one entity"
      },
      "setToken(address)": {
        "notice": "set address of 0xB token"
      },
      "setWithdrawTaxPool(address)": {
        "notice": "set new withdrawal tax pool"
      },
      "setWithdrawTimeout(uint256)": {
        "notice": "set new withdrawal timeout"
      },
      "taxOfEntity(uint32,address,uint32)": {
        "notice": "return current tax of an entity"
      },
      "totalStakeOfUser(uint32,address)": {
        "notice": "calculate total stake of one address in a pool"
      },
      "updatePool(uint32)": {
        "notice": "update data in a lp staking pool"
      },
      "withdrawMultiple(uint32,uint8[])": {
        "notice": "withdraw an amount from an entity. remove the entity if withdrawn everything"
      },
      "withdrawable(uint32,address,uint32)": {
        "notice": "show if an entity is withdrawable"
      }
    },
    "version": 1
  },
  "storageLayout": {
    "storage": [
      {
        "astId": 598,
        "contract": "contracts/dependencies/LPStaking.sol:LPStaking",
        "label": "_initialized",
        "offset": 0,
        "slot": "0",
        "type": "t_bool"
      },
      {
        "astId": 601,
        "contract": "contracts/dependencies/LPStaking.sol:LPStaking",
        "label": "_initializing",
        "offset": 1,
        "slot": "0",
        "type": "t_bool"
      },
      {
        "astId": 7469,
        "contract": "contracts/dependencies/LPStaking.sol:LPStaking",
        "label": "lpStakingEntitiesLimit",
        "offset": 0,
        "slot": "1",
        "type": "t_uint256"
      },
      {
        "astId": 7471,
        "contract": "contracts/dependencies/LPStaking.sol:LPStaking",
        "label": "withdrawTimeout",
        "offset": 0,
        "slot": "2",
        "type": "t_uint256"
      },
      {
        "astId": 7474,
        "contract": "contracts/dependencies/LPStaking.sol:LPStaking",
        "label": "withdrawTaxLevel",
        "offset": 0,
        "slot": "3",
        "type": "t_array(t_uint256)dyn_storage"
      },
      {
        "astId": 7477,
        "contract": "contracts/dependencies/LPStaking.sol:LPStaking",
        "label": "withdrawTaxPortion",
        "offset": 0,
        "slot": "4",
        "type": "t_array(t_uint256)dyn_storage"
      },
      {
        "astId": 7479,
        "contract": "contracts/dependencies/LPStaking.sol:LPStaking",
        "label": "earlyWithdrawTaxPool",
        "offset": 0,
        "slot": "5",
        "type": "t_address"
      },
      {
        "astId": 7483,
        "contract": "contracts/dependencies/LPStaking.sol:LPStaking",
        "label": "pools",
        "offset": 0,
        "slot": "6",
        "type": "t_array(t_struct(PoolInfo)7467_storage)dyn_storage"
      },
      {
        "astId": 7490,
        "contract": "contracts/dependencies/LPStaking.sol:LPStaking",
        "label": "userInfo",
        "offset": 0,
        "slot": "7",
        "type": "t_mapping(t_uint32,t_mapping(t_address,t_struct(UserLPStakeInfo)7449_storage))"
      },
      {
        "astId": 7494,
        "contract": "contracts/dependencies/LPStaking.sol:LPStaking",
        "label": "whitelistAuthorities",
        "offset": 0,
        "slot": "8",
        "type": "t_mapping(t_address,t_bool)"
      },
      {
        "astId": 7496,
        "contract": "contracts/dependencies/LPStaking.sol:LPStaking",
        "label": "token0xBAddress",
        "offset": 0,
        "slot": "9",
        "type": "t_address"
      },
      {
        "astId": 7498,
        "contract": "contracts/dependencies/LPStaking.sol:LPStaking",
        "label": "admin0xB",
        "offset": 0,
        "slot": "10",
        "type": "t_address"
      }
    ],
    "types": {
      "t_address": {
        "encoding": "inplace",
        "label": "address",
        "numberOfBytes": "20"
      },
      "t_array(t_struct(PoolInfo)7467_storage)dyn_storage": {
        "base": "t_struct(PoolInfo)7467_storage",
        "encoding": "dynamic_array",
        "label": "struct LPStaking.PoolInfo[]",
        "numberOfBytes": "32"
      },
      "t_array(t_uint256)dyn_storage": {
        "base": "t_uint256",
        "encoding": "dynamic_array",
        "label": "uint256[]",
        "numberOfBytes": "32"
      },
      "t_bool": {
        "encoding": "inplace",
        "label": "bool",
        "numberOfBytes": "1"
      },
      "t_contract(IERC20)2517": {
        "encoding": "inplace",
        "label": "contract IERC20",
        "numberOfBytes": "20"
      },
      "t_mapping(t_address,t_bool)": {
        "encoding": "mapping",
        "key": "t_address",
        "label": "mapping(address => bool)",
        "numberOfBytes": "32",
        "value": "t_bool"
      },
      "t_mapping(t_address,t_struct(UserLPStakeInfo)7449_storage)": {
        "encoding": "mapping",
        "key": "t_address",
        "label": "mapping(address => struct LPStaking.UserLPStakeInfo)",
        "numberOfBytes": "32",
        "value": "t_struct(UserLPStakeInfo)7449_storage"
      },
      "t_mapping(t_uint32,t_mapping(t_address,t_struct(UserLPStakeInfo)7449_storage))": {
        "encoding": "mapping",
        "key": "t_uint32",
        "label": "mapping(uint32 => mapping(address => struct LPStaking.UserLPStakeInfo))",
        "numberOfBytes": "32",
        "value": "t_mapping(t_address,t_struct(UserLPStakeInfo)7449_storage)"
      },
      "t_mapping(t_uint8,t_struct(LPStakeEntity)7441_storage)": {
        "encoding": "mapping",
        "key": "t_uint8",
        "label": "mapping(uint8 => struct LPStaking.LPStakeEntity)",
        "numberOfBytes": "32",
        "value": "t_struct(LPStakeEntity)7441_storage"
      },
      "t_string_storage": {
        "encoding": "bytes",
        "label": "string",
        "numberOfBytes": "32"
      },
      "t_struct(LPStakeEntity)7441_storage": {
        "encoding": "inplace",
        "label": "struct LPStaking.LPStakeEntity",
        "members": [
          {
            "astId": 7434,
            "contract": "contracts/dependencies/LPStaking.sol:LPStaking",
            "label": "amount",
            "offset": 0,
            "slot": "0",
            "type": "t_uint256"
          },
          {
            "astId": 7436,
            "contract": "contracts/dependencies/LPStaking.sol:LPStaking",
            "label": "rewardDebt",
            "offset": 0,
            "slot": "1",
            "type": "t_uint256"
          },
          {
            "astId": 7438,
            "contract": "contracts/dependencies/LPStaking.sol:LPStaking",
            "label": "creationTime",
            "offset": 0,
            "slot": "2",
            "type": "t_uint256"
          },
          {
            "astId": 7440,
            "contract": "contracts/dependencies/LPStaking.sol:LPStaking",
            "label": "withdrawn",
            "offset": 0,
            "slot": "3",
            "type": "t_uint256"
          }
        ],
        "numberOfBytes": "128"
      },
      "t_struct(PoolInfo)7467_storage": {
        "encoding": "inplace",
        "label": "struct LPStaking.PoolInfo",
        "members": [
          {
            "astId": 7451,
            "contract": "contracts/dependencies/LPStaking.sol:LPStaking",
            "label": "name",
            "offset": 0,
            "slot": "0",
            "type": "t_string_storage"
          },
          {
            "astId": 7454,
            "contract": "contracts/dependencies/LPStaking.sol:LPStaking",
            "label": "lpToken",
            "offset": 0,
            "slot": "1",
            "type": "t_contract(IERC20)2517"
          },
          {
            "astId": 7456,
            "contract": "contracts/dependencies/LPStaking.sol:LPStaking",
            "label": "lpAmountInPool",
            "offset": 0,
            "slot": "2",
            "type": "t_uint256"
          },
          {
            "astId": 7458,
            "contract": "contracts/dependencies/LPStaking.sol:LPStaking",
            "label": "totalDistribute",
            "offset": 0,
            "slot": "3",
            "type": "t_uint256"
          },
          {
            "astId": 7460,
            "contract": "contracts/dependencies/LPStaking.sol:LPStaking",
            "label": "startTime",
            "offset": 0,
            "slot": "4",
            "type": "t_uint256"
          },
          {
            "astId": 7462,
            "contract": "contracts/dependencies/LPStaking.sol:LPStaking",
            "label": "duration",
            "offset": 0,
            "slot": "5",
            "type": "t_uint256"
          },
          {
            "astId": 7464,
            "contract": "contracts/dependencies/LPStaking.sol:LPStaking",
            "label": "acc0xBPerShare",
            "offset": 0,
            "slot": "6",
            "type": "t_uint256"
          },
          {
            "astId": 7466,
            "contract": "contracts/dependencies/LPStaking.sol:LPStaking",
            "label": "lastRewardTimestamp",
            "offset": 0,
            "slot": "7",
            "type": "t_uint256"
          }
        ],
        "numberOfBytes": "256"
      },
      "t_struct(UserLPStakeInfo)7449_storage": {
        "encoding": "inplace",
        "label": "struct LPStaking.UserLPStakeInfo",
        "members": [
          {
            "astId": 7443,
            "contract": "contracts/dependencies/LPStaking.sol:LPStaking",
            "label": "size",
            "offset": 0,
            "slot": "0",
            "type": "t_uint8"
          },
          {
            "astId": 7448,
            "contract": "contracts/dependencies/LPStaking.sol:LPStaking",
            "label": "entities",
            "offset": 0,
            "slot": "1",
            "type": "t_mapping(t_uint8,t_struct(LPStakeEntity)7441_storage)"
          }
        ],
        "numberOfBytes": "64"
      },
      "t_uint256": {
        "encoding": "inplace",
        "label": "uint256",
        "numberOfBytes": "32"
      },
      "t_uint32": {
        "encoding": "inplace",
        "label": "uint32",
        "numberOfBytes": "4"
      },
      "t_uint8": {
        "encoding": "inplace",
        "label": "uint8",
        "numberOfBytes": "1"
      }
    }
  }
}