{
  "address": "0x27fccBacb5Bdf2565d8Cee6F5B8be17Ba6951984",
  "abi": [
    {
      "inputs": [
        {
          "internalType": "string",
          "name": "_name",
          "type": "string"
        },
        {
          "internalType": "address",
          "name": "_token",
          "type": "address"
        },
        {
          "internalType": "uint256",
          "name": "_totalDistribute",
          "type": "uint256"
        },
        {
          "internalType": "uint256",
          "name": "_startTime",
          "type": "uint256"
        },
        {
          "internalType": "uint256",
          "name": "_duration",
          "type": "uint256"
        }
      ],
      "name": "addPool",
      "outputs": [],
      "stateMutability": "nonpayable",
      "type": "function"
    },
    {
      "inputs": [],
      "name": "admin0xB",
      "outputs": [
        {
          "internalType": "address",
          "name": "",
          "type": "address"
        }
      ],
      "stateMutability": "view",
      "type": "function"
    },
    {
      "inputs": [
        {
          "internalType": "uint32",
          "name": "_poolId",
          "type": "uint32"
        }
      ],
      "name": "claimAllReward",
      "outputs": [],
      "stateMutability": "nonpayable",
      "type": "function"
    },
    {
      "inputs": [
        {
          "internalType": "uint32",
          "name": "_poolId",
          "type": "uint32"
        },
        {
          "internalType": "uint8[]",
          "name": "_indices",
          "type": "uint8[]"
        }
      ],
      "name": "claimReward",
      "outputs": [],
      "stateMutability": "nonpayable",
      "type": "function"
    },
    {
      "inputs": [
        {
          "internalType": "uint32",
          "name": "_poolId",
          "type": "uint32"
        },
        {
          "internalType": "uint256",
          "name": "_amount",
          "type": "uint256"
        }
      ],
      "name": "deposit",
      "outputs": [],
      "stateMutability": "nonpayable",
      "type": "function"
    },
    {
      "inputs": [],
      "name": "earlyWithdrawTaxPool",
      "outputs": [
        {
          "internalType": "address",
          "name": "",
          "type": "address"
        }
      ],
      "stateMutability": "view",
      "type": "function"
    },
    {
      "inputs": [
        {
          "internalType": "uint32",
          "name": "_poolId",
          "type": "uint32"
        }
      ],
      "name": "getAPR",
      "outputs": [
        {
          "internalType": "uint256",
          "name": "apr",
          "type": "uint256"
        }
      ],
      "stateMutability": "view",
      "type": "function"
    },
    {
      "inputs": [
        {
          "internalType": "bool",
          "name": "_onlyActive",
          "type": "bool"
        }
      ],
      "name": "getJSONAllPoolsInfo",
      "outputs": [
        {
          "internalType": "string",
          "name": "res",
          "type": "string"
        }
      ],
      "stateMutability": "view",
      "type": "function"
    },
    {
      "inputs": [
        {
          "internalType": "bool",
          "name": "_onlyActive",
          "type": "bool"
        },
        {
          "internalType": "address",
          "name": "_user",
          "type": "address"
        }
      ],
      "name": "getJSONAllPoolsUser",
      "outputs": [
        {
          "internalType": "string",
          "name": "res",
          "type": "string"
        }
      ],
      "stateMutability": "view",
      "type": "function"
    },
    {
      "inputs": [
        {
          "internalType": "uint32",
          "name": "_poolId",
          "type": "uint32"
        }
      ],
      "name": "getJSONSinglePoolInfo",
      "outputs": [
        {
          "internalType": "string",
          "name": "res",
          "type": "string"
        }
      ],
      "stateMutability": "view",
      "type": "function"
    },
    {
      "inputs": [
        {
          "internalType": "uint32",
          "name": "_poolId",
          "type": "uint32"
        },
        {
          "internalType": "address",
          "name": "_user",
          "type": "address"
        }
      ],
      "name": "getJSONSinglePoolUser",
      "outputs": [
        {
          "internalType": "string",
          "name": "res",
          "type": "string"
        }
      ],
      "stateMutability": "view",
      "type": "function"
    },
    {
      "inputs": [],
      "name": "getPoolsCount",
      "outputs": [
        {
          "internalType": "uint256",
          "name": "",
          "type": "uint256"
        }
      ],
      "stateMutability": "view",
      "type": "function"
    },
    {
      "inputs": [],
      "name": "getTaxLevels",
      "outputs": [
        {
          "internalType": "string",
          "name": "res",
          "type": "string"
        }
      ],
      "stateMutability": "view",
      "type": "function"
    },
    {
      "inputs": [
        {
          "internalType": "uint32",
          "name": "_poolId",
          "type": "uint32"
        },
        {
          "internalType": "address",
          "name": "addr",
          "type": "address"
        }
      ],
      "name": "getUserPendingReward",
      "outputs": [
        {
          "internalType": "string",
          "name": "res",
          "type": "string"
        },
        {
          "internalType": "uint256",
          "name": "ttl",
          "type": "uint256"
        }
      ],
      "stateMutability": "view",
      "type": "function"
    },
    {
      "inputs": [
        {
          "internalType": "uint32",
          "name": "_poolId",
          "type": "uint32"
        },
        {
          "internalType": "address",
          "name": "addr",
          "type": "address"
        }
      ],
      "name": "getUserStakeAmounts",
      "outputs": [
        {
          "internalType": "string",
          "name": "res",
          "type": "string"
        },
        {
          "internalType": "uint256",
          "name": "ttl",
          "type": "uint256"
        }
      ],
      "stateMutability": "view",
      "type": "function"
    },
    {
      "inputs": [
        {
          "internalType": "uint32",
          "name": "_poolId",
          "type": "uint32"
        },
        {
          "internalType": "address",
          "name": "addr",
          "type": "address"
        }
      ],
      "name": "getUserTimestamps",
      "outputs": [
        {
          "internalType": "string",
          "name": "res",
          "type": "string"
        },
        {
          "internalType": "uint256",
          "name": "minTs",
          "type": "uint256"
        }
      ],
      "stateMutability": "view",
      "type": "function"
    },
    {
      "inputs": [
        {
          "internalType": "uint32",
          "name": "_poolId",
          "type": "uint32"
        },
        {
          "internalType": "address",
          "name": "addr",
          "type": "address"
        }
      ],
      "name": "getUserUnstakedAmount",
      "outputs": [
        {
          "internalType": "string",
          "name": "res",
          "type": "string"
        }
      ],
      "stateMutability": "view",
      "type": "function"
    },
    {
      "inputs": [],
      "name": "initialize",
      "outputs": [],
      "stateMutability": "nonpayable",
      "type": "function"
    },
    {
      "inputs": [
        {
          "internalType": "address",
          "name": "addr",
          "type": "address"
        }
      ],
      "name": "isWhitelisted",
      "outputs": [
        {
          "internalType": "bool",
          "name": "",
          "type": "bool"
        }
      ],
      "stateMutability": "view",
      "type": "function"
    },
    {
      "inputs": [
        {
          "internalType": "uint32",
          "name": "_poolId",
          "type": "uint32"
        },
        {
          "internalType": "address",
          "name": "addr",
          "type": "address"
        },
        {
          "internalType": "uint32",
          "name": "_index",
          "type": "uint32"
        }
      ],
      "name": "pendingReward",
      "outputs": [
        {
          "internalType": "uint256",
          "name": "",
          "type": "uint256"
        }
      ],
      "stateMutability": "view",
      "type": "function"
    },
    {
      "inputs": [
        {
          "internalType": "uint256",
          "name": "",
          "type": "uint256"
        }
      ],
      "name": "pools",
      "outputs": [
        {
          "internalType": "string",
          "name": "name",
          "type": "string"
        },
        {
          "internalType": "contract IERC20",
          "name": "stakingToken",
          "type": "address"
        },
        {
          "internalType": "uint256",
          "name": "stakedAmountInPool",
          "type": "uint256"
        },
        {
          "internalType": "uint256",
          "name": "totalDistribute",
          "type": "uint256"
        },
        {
          "internalType": "uint256",
          "name": "startTime",
          "type": "uint256"
        },
        {
          "internalType": "uint256",
          "name": "duration",
          "type": "uint256"
        },
        {
          "internalType": "uint256",
          "name": "acc0xBPerShare",
          "type": "uint256"
        },
        {
          "internalType": "uint256",
          "name": "lastRewardTimestamp",
          "type": "uint256"
        }
      ],
      "stateMutability": "view",
      "type": "function"
    },
    {
      "inputs": [
        {
          "internalType": "uint256[]",
          "name": "_newLevels",
          "type": "uint256[]"
        }
      ],
      "name": "setTaxLevels",
      "outputs": [],
      "stateMutability": "nonpayable",
      "type": "function"
    },
    {
      "inputs": [
        {
          "internalType": "address",
          "name": "_token",
          "type": "address"
        }
      ],
      "name": "setToken",
      "outputs": [],
      "stateMutability": "nonpayable",
      "type": "function"
    },
    {
      "inputs": [
        {
          "internalType": "address",
          "name": "_pool",
          "type": "address"
        }
      ],
      "name": "setWithdrawTaxPool",
      "outputs": [],
      "stateMutability": "nonpayable",
      "type": "function"
    },
    {
      "inputs": [
        {
          "internalType": "uint256",
          "name": "_timeout",
          "type": "uint256"
        }
      ],
      "name": "setWithdrawTimeout",
      "outputs": [],
      "stateMutability": "nonpayable",
      "type": "function"
    },
    {
      "inputs": [
        {
          "internalType": "uint256",
          "name": "_newLimit",
          "type": "uint256"
        }
      ],
      "name": "setstakingRecordsLimitPerPool",
      "outputs": [],
      "stateMutability": "nonpayable",
      "type": "function"
    },
    {
      "inputs": [],
      "name": "stakingRecordsLimitPerPool",
      "outputs": [
        {
          "internalType": "uint256",
          "name": "",
          "type": "uint256"
        }
      ],
      "stateMutability": "view",
      "type": "function"
    },
    {
      "inputs": [
        {
          "internalType": "uint32",
          "name": "_poolId",
          "type": "uint32"
        },
        {
          "internalType": "address",
          "name": "addr",
          "type": "address"
        },
        {
          "internalType": "uint32",
          "name": "_index",
          "type": "uint32"
        }
      ],
      "name": "taxOfEntity",
      "outputs": [
        {
          "internalType": "uint256",
          "name": "",
          "type": "uint256"
        }
      ],
      "stateMutability": "view",
      "type": "function"
    },
    {
      "inputs": [],
      "name": "token0xBAddress",
      "outputs": [
        {
          "internalType": "address",
          "name": "",
          "type": "address"
        }
      ],
      "stateMutability": "view",
      "type": "function"
    },
    {
      "inputs": [
        {
          "internalType": "uint32",
          "name": "_poolId",
          "type": "uint32"
        },
        {
          "internalType": "address",
          "name": "addr",
          "type": "address"
        }
      ],
      "name": "totalStakeOfUser",
      "outputs": [
        {
          "internalType": "uint256",
          "name": "totalStake",
          "type": "uint256"
        }
      ],
      "stateMutability": "view",
      "type": "function"
    },
    {
      "inputs": [
        {
          "internalType": "uint32",
          "name": "_poolId",
          "type": "uint32"
        }
      ],
      "name": "updatePool",
      "outputs": [],
      "stateMutability": "nonpayable",
      "type": "function"
    },
    {
      "inputs": [
        {
          "internalType": "uint32",
          "name": "",
          "type": "uint32"
        },
        {
          "internalType": "address",
          "name": "",
          "type": "address"
        }
      ],
      "name": "userInfo",
      "outputs": [
        {
          "internalType": "uint8",
          "name": "size",
          "type": "uint8"
        }
      ],
      "stateMutability": "view",
      "type": "function"
    },
    {
      "inputs": [
        {
          "internalType": "uint32",
          "name": "_poolId",
          "type": "uint32"
        },
        {
          "internalType": "uint8[]",
          "name": "_entityIndices",
          "type": "uint8[]"
        }
      ],
      "name": "withdraw",
      "outputs": [],
      "stateMutability": "nonpayable",
      "type": "function"
    },
    {
      "inputs": [
        {
          "internalType": "uint32",
          "name": "_poolId",
          "type": "uint32"
        }
      ],
      "name": "withdrawAll",
      "outputs": [],
      "stateMutability": "nonpayable",
      "type": "function"
    },
    {
      "inputs": [
        {
          "internalType": "uint256",
          "name": "",
          "type": "uint256"
        }
      ],
      "name": "withdrawTaxLevel",
      "outputs": [
        {
          "internalType": "uint256",
          "name": "",
          "type": "uint256"
        }
      ],
      "stateMutability": "view",
      "type": "function"
    },
    {
      "inputs": [
        {
          "internalType": "uint256",
          "name": "",
          "type": "uint256"
        }
      ],
      "name": "withdrawTaxPortion",
      "outputs": [
        {
          "internalType": "uint256",
          "name": "",
          "type": "uint256"
        }
      ],
      "stateMutability": "view",
      "type": "function"
    },
    {
      "inputs": [],
      "name": "withdrawTimeout",
      "outputs": [
        {
          "internalType": "uint256",
          "name": "",
          "type": "uint256"
        }
      ],
      "stateMutability": "view",
      "type": "function"
    },
    {
      "inputs": [
        {
          "internalType": "uint32",
          "name": "_poolId",
          "type": "uint32"
        },
        {
          "internalType": "address",
          "name": "addr",
          "type": "address"
        },
        {
          "internalType": "uint32",
          "name": "_index",
          "type": "uint32"
        }
      ],
      "name": "withdrawable",
      "outputs": [
        {
          "internalType": "bool",
          "name": "",
          "type": "bool"
        }
      ],
      "stateMutability": "view",
      "type": "function"
    },
    {
      "stateMutability": "payable",
      "type": "receive"
    }
  ],
  "transactionHash": "0xaef0df4bd68f429aa0f89c6f43437bad513914453ac115491d12296d8d9c9423",
  "args": [],
  "numDeployments": 3,
  "solcInputHash": "29ff3d64062573fa74910051cbe2f12a",
  "bytecode": "0x608060405234801561001057600080fd5b5061455e806100206000396000f3fe6080604052600436106102295760003560e01c8063992b10f411610123578063b2a17049116100ab578063d63c564b1161006f578063d63c564b146106b9578063db7c641f146106d9578063defd5307146106f9578063eed873c214610719578063f471f7361461073957600080fd5b8063b2a1704914610624578063b4ac686014610644578063c3e691b514610659578063cedb682a14610679578063d4491a061461069957600080fd5b8063a6503e76116100f2578063a6503e7614610570578063aaf1039814610590578063ac4afa38146105b0578063aeeacef1146105e4578063b0cdad261461060457600080fd5b8063992b10f4146104ec57806399e9de001461050c5780639c15d1a21461052c578063a494a0c01461054257600080fd5b806341c67a1d116101b1578063570bfc0111610175578063570bfc01146104625780635931583d1461048257806370a1b38c146104a257806372941460146104b75780638129fc1c146104d757600080fd5b806341c67a1d146103b5578063480729df146103e25780634b7ea33d146104025780634dc89ff8146104225780635643b4e31461044257600080fd5b80632f3ef5da116101f85780632f3ef5da146102d8578063303d50c2146102f85780633530f80a146103185780633af32abf146103655780633da3a82d1461039557600080fd5b80630584aecf14610235578063144fa6d71461027257806314b2f81a1461029457806329efdc41146102b857600080fd5b3661023057005b600080fd5b34801561024157600080fd5b50600a54610255906001600160a01b031681565b6040516001600160a01b0390911681526020015b60405180910390f35b34801561027e57600080fd5b5061029261028d3660046138a5565b610759565b005b3480156102a057600080fd5b506102aa60015481565b604051908152602001610269565b3480156102c457600080fd5b506102aa6102d3366004613add565b61081f565b3480156102e457600080fd5b506102926102f3366004613aa6565b610947565b34801561030457600080fd5b506102aa610313366004613add565b610bc4565b34801561032457600080fd5b50610353610333366004613ac1565b600760209081526000928352604080842090915290825290205460ff1681565b60405160ff9091168152602001610269565b34801561037157600080fd5b506103856103803660046138a5565b610e61565b6040519015158152602001610269565b3480156103a157600080fd5b506102aa6103b0366004613a8d565b610e7f565b3480156103c157600080fd5b506103d56103d0366004613ac1565b610ea0565b60405161026991906140ed565b3480156103ee57600080fd5b506102926103fd3660046138a5565b610fcd565b34801561040e57600080fd5b506103d561041d366004613ac1565b61107f565b34801561042e57600080fd5b506103d561043d366004613aa6565b6111a4565b34801561044e57600080fd5b506103d561045d36600461395d565b6114b2565b34801561046e57600080fd5b5061029261047d3660046138c0565b61167e565b34801561048e57600080fd5b506102aa61049d366004613a8d565b611856565b3480156104ae57600080fd5b506103d5611866565b3480156104c357600080fd5b506102926104d2366004613a8d565b611901565b3480156104e357600080fd5b50610292611954565b3480156104f857600080fd5b506103d5610507366004613997565b611ab3565b34801561051857600080fd5b50610292610527366004613b20565b611b80565b34801561053857600080fd5b506102aa60025481565b34801561054e57600080fd5b5061056261055d366004613ac1565b611e8c565b604051610269929190614154565b34801561057c57600080fd5b506102aa61058b366004613ac1565b611fba565b34801561059c57600080fd5b506102926105ab366004613bd8565b612053565b3480156105bc57600080fd5b506105d06105cb366004613a8d565b612317565b604051610269989796959493929190614100565b3480156105f057600080fd5b506103856105ff366004613add565b612403565b34801561061057600080fd5b5061056261061f366004613ac1565b6124ad565b34801561063057600080fd5b506102aa61063f366004613aa6565b6125da565b34801561065057600080fd5b506006546102aa565b34801561066557600080fd5b50610292610674366004613aa6565b61277d565b34801561068557600080fd5b50600954610255906001600160a01b031681565b3480156106a557600080fd5b50600554610255906001600160a01b031681565b3480156106c557600080fd5b506105626106d4366004613ac1565b61286d565b3480156106e557600080fd5b506102926106f4366004613aa6565b6129d3565b34801561070557600080fd5b50610292610714366004613b20565b612b14565b34801561072557600080fd5b506102926107343660046139cc565b61314a565b34801561074557600080fd5b50610292610754366004613a8d565b61337b565b6009546001600160a01b031633148061077c5750600a546001600160a01b031633145b8061078b575061078b33610e61565b6107b05760405162461bcd60e51b81526004016107a790614176565b60405180910390fd5b6001600160a01b0381166107fd5760405162461bcd60e51b81526020600482015260146024820152732722abafaa27a5a2a71d103d32b9379030b2323960611b60448201526064016107a7565b600980546001600160a01b0319166001600160a01b0392909216919091179055565b60065460009063ffffffff8516106108495760405162461bcd60e51b81526004016107a79061419e565b63ffffffff841660009081526007602090815260408083206001600160a01b0387168452825280832060ff86168452600190810183528184208251608081018452815481529181015493820193909352600283015491810182905260039092015460608301529091906108bc90426143b3565b6004549091506000906108d1906001906143b3565b90505b80156109385781600382815481106108ee576108ee614517565b906000526020600020015411610926576004818154811061091157610911614517565b90600052602060002001549350505050610940565b806109308161441d565b9150506108d4565b506000925050505b9392505050565b600060068263ffffffff168154811061096257610962614517565b906000526020600020906008020190506000610a6b826040518061010001604052908160008201805461099490614451565b80601f01602080910402602001604051908101604052809291908181526020018280546109c090614451565b8015610a0d5780601f106109e257610100808354040283529160200191610a0d565b820191906000526020600020905b8154815290600101906020018083116109f057829003601f168201915b505050918352505060018201546001600160a01b03166020820152600282015460408201526003820154606082015260048201546080820152600582015460a0820152600682015460c082015260079091015460e090910152613417565b905081600701548111610a7d57505050565b600282015480610a91575060079091015550565b6000610b8a8460405180610100016040529081600082018054610ab390614451565b80601f0160208091040260200160405190810160405280929190818152602001828054610adf90614451565b8015610b2c5780601f10610b0157610100808354040283529160200191610b2c565b820191906000526020600020905b815481529060010190602001808311610b0f57829003601f168201915b505050918352505060018201546001600160a01b03166020820152600282015460408201526003820154606082015260048201546080820152600582015460a0820152600682015460c082015260079091015460e090910152613446565b610b9885600701548561347e565b610ba29190614373565b9050808460060154610bb49190614215565b6006850155505060079091015550565b60065460009063ffffffff851610610bee5760405162461bcd60e51b81526004016107a79061419e565b600060068563ffffffff1681548110610c0957610c09614517565b906000526020600020906008020160405180610100016040529081600082018054610c3390614451565b80601f0160208091040260200160405190810160405280929190818152602001828054610c5f90614451565b8015610cac5780601f10610c8157610100808354040283529160200191610cac565b820191906000526020600020905b815481529060010190602001808311610c8f57829003601f168201915b505050505081526020016001820160009054906101000a90046001600160a01b03166001600160a01b03166001600160a01b03168152602001600282015481526020016003820154815260200160048201548152602001600582015481526020016006820154815260200160078201548152505090506000600760008763ffffffff1663ffffffff1681526020019081526020016000206000866001600160a01b03166001600160a01b03168152602001908152602001600020905060008160010160008660ff1660ff168152602001908152602001600020604051806080016040529081600082015481526020016001820154815260200160028201548152602001600382015481525050905060008360c0015190506000846040015190506000610dd786613417565b90508560e0015181118015610deb57508115155b15610e23576000610dfb87613446565b610e098860e001518461347e565b610e139190614373565b9050610e1f8185614215565b9350505b60208401518451670de0b6b3a764000090610e3f908690614373565b610e499190614252565b610e5391906143b3565b9a9950505050505050505050565b6001600160a01b031660009081526008602052604090205460ff1690565b60048181548110610e8f57600080fd5b600091825260209091200154905081565b60065460609063ffffffff841610610eea5760405162461bcd60e51b815260206004820152600d60248201526c1ddc9bdb99c81c1bdbdb081a59609a1b60448201526064016107a7565b610ef98363ffffffff1661348a565b604051602001610f099190614085565b604051602081830303815290604052905080610f2d610f288585611fba565b61348a565b604051602001610f3e929190613d57565b60405160208183030381529060405290506000610f5b8484611e8c565b91505081610f688261348a565b604051602001610f79929190613d0b565b60405160208183030381529060405291506000610f9685856124ad565b91505082610fa38261348a565b604051602001610fb4929190613df3565b6040516020818303038152906040529250505092915050565b6009546001600160a01b0316331480610ff05750600a546001600160a01b031633145b80610fff5750610fff33610e61565b61101b5760405162461bcd60e51b81526004016107a790614176565b6001600160a01b03811661105d5760405162461bcd60e51b81526020600482015260096024820152683d32b9379030b2323960b91b60448201526064016107a7565b600580546001600160a01b0319166001600160a01b0392909216919091179055565b60065460609063ffffffff8416106110a95760405162461bcd60e51b81526004016107a79061419e565b63ffffffff831660009081526007602090815260408083206001600160a01b03861684529091529020805460ff166110f157505060408051602081019091526000815261119e565b600080805260018201602052604090206003015461110e9061348a565b915060015b815460ff908116908216101561119b5782604051806040016040528060018152602001602360f81b8152506111658460010160008560ff1660ff1681526020019081526020016000206003015461348a565b60405160200161117793929190613c2e565b60405160208183030381529060405292508080611193906144cb565b915050611113565b50505b92915050565b60065460609063ffffffff8316106111ee5760405162461bcd60e51b815260206004820152600d60248201526c1ddc9bdb99c81c1bdbdb081a59609a1b60448201526064016107a7565b600060068363ffffffff168154811061120957611209614517565b90600052602060002090600802016040518061010001604052908160008201805461123390614451565b80601f016020809104026020016040519081016040528092919081815260200182805461125f90614451565b80156112ac5780601f10611281576101008083540402835291602001916112ac565b820191906000526020600020905b81548152906001019060200180831161128f57829003601f168201915b505050918352505060018201546001600160a01b03166020820152600282015460408201526003820154606082015260048201546080820152600582015460a0820152600682015460c082015260079091015460e090910152905061131663ffffffff841661348a565b604051602001611326919061403e565b60408051601f1981840301815290829052825190935061134b91849190602001613e86565b60405160208183030381529060405291508161136a82602001516135b3565b60405160200161137b929190613c71565b60405160208183030381529060405291508161139a826040015161348a565b6040516020016113ab929190613da4565b6040516020818303038152906040529150816113ca826060015161348a565b6040516020016113db929190613f2b565b6040516020818303038152906040529150816113fa826080015161348a565b60405160200161140b929190613cc3565b60405160208183030381529060405291508161142a8260a0015161348a565b60405160200161143b929190613edd565b60405160208183030381529060405291508161145a8260c0015161348a565b60405160200161146b929190613e2f565b60405160208183030381529060405291508161148a8260e0015161348a565b60405160200161149b929190613df3565b604051602081830303815290604052915050919050565b6040805180820190915260018152607b60f81b602082015260005b60065463ffffffff8216101561165657821580611602575061160260068263ffffffff168154811061150157611501614517565b90600052602060002090600802016040518061010001604052908160008201805461152b90614451565b80601f016020809104026020016040519081016040528092919081815260200182805461155790614451565b80156115a45780601f10611579576101008083540402835291602001916115a4565b820191906000526020600020905b81548152906001019060200180831161158757829003601f168201915b505050918352505060018201546001600160a01b03166020820152600282015460408201526003820154606082015260048201546080820152600582015460a0820152600682015460c082015260079091015460e0909101526136fa565b1561164457816116178263ffffffff1661348a565b611620836111a4565b60405160200161163293929190613f74565b60405160208183030381529060405291505b8061164e816144a7565b9150506114cd565b50806040516020016116689190613fe2565b6040516020818303038152906040529050919050565b6009546001600160a01b03163314806116a15750600a546001600160a01b031633145b806116b057506116b033610e61565b6116cc5760405162461bcd60e51b81526004016107a790614176565b80516004146117155760405162461bcd60e51b8152602060048201526015602482015274706c656173652077726974652034206c6576656c7360581b60448201526064016107a7565b8060008151811061172857611728614517565b6020026020010151600014801561177357508060008151811061174d5761174d614517565b60200260200101518160018151811061176857611768614517565b602002602001015110155b80156117b357508060018151811061178d5761178d614517565b6020026020010151816002815181106117a8576117a8614517565b602002602001015110155b80156117f35750806002815181106117cd576117cd614517565b6020026020010151816003815181106117e8576117e8614517565b602002602001015110155b61183f5760405162461bcd60e51b815260206004820152601d60248201527f6c6576656c73206d757374206265206e6f6e2d64656372656173696e6700000060448201526064016107a7565b8051611852906003906020840190613769565b5050565b60038181548110610e8f57600080fd5b604080516020810190915260008082525b60048160ff1610156118fd5781604051806040016040528060018152602001602360f81b8152506118c760038460ff16815481106118b7576118b7614517565b906000526020600020015461348a565b6040516020016118d993929190613c2e565b604051602081830303815290604052915080806118f5906144cb565b915050611877565b5090565b6009546001600160a01b03163314806119245750600a546001600160a01b031633145b80611933575061193333610e61565b61194f5760405162461bcd60e51b81526004016107a790614176565b600255565b600054610100900460ff1661196f5760005460ff1615611973565b303b155b6119d65760405162461bcd60e51b815260206004820152602e60248201527f496e697469616c697a61626c653a20636f6e747261637420697320616c72656160448201526d191e481a5b9a5d1a585b1a5e995960921b60648201526084016107a7565b600054610100900460ff161580156119f8576000805461ffff19166101011790555b600a80546001600160a01b03191633179055606460015560006002818155604080516080810182528381526020810193909352820190611a3b9062015180614252565b815262015180602090910152611a55906003906004613769565b5060408051608081018252624c4b408082526020820152622625a09181019190915260006060820152611a8b90600490816137b0565b50600580546001600160a01b031916331790558015611ab0576000805461ff00191690555b50565b6040805180820190915260018152607b60f81b602082015260005b60065463ffffffff82161015611b5757831580611b025750611b0260068263ffffffff168154811061150157611501614517565b15611b455781611b178263ffffffff1661348a565b611b218386610ea0565b604051602001611b3393929190613f74565b60405160208183030381529060405291505b80611b4f816144a7565b915050611ace565b5080604051602001611b699190614010565b604051602081830303815290604052905092915050565b60065463ffffffff831610611ba75760405162461bcd60e51b81526004016107a79061419e565b600060068363ffffffff1681548110611bc257611bc2614517565b90600052602060002090600802019050611cce8160405180610100016040529081600082018054611bf290614451565b80601f0160208091040260200160405190810160405280929190818152602001828054611c1e90614451565b8015611c6b5780601f10611c4057610100808354040283529160200191611c6b565b820191906000526020600020905b815481529060010190602001808311611c4e57829003601f168201915b505050918352505060018201546001600160a01b03166020820152600282015460408201526003820154606082015260048201546080820152600582015460a0820152600682015460c082015260079091015460e0909101526080015142101590565b611d155760405162461bcd60e51b81526020600482015260186024820152771c1bdbdb081a185cc81b9bdd081cdd185c9d1959081e595d60421b60448201526064016107a7565b63ffffffff83166000908152600760209081526040808320338085529252909120611d3f85610947565b600080805b86518160ff161015611dfd576000878260ff1681518110611d6757611d67614517565b6020026020010151905060008560010160008360ff1660ff16815260200190815260200160002090508060010154670de0b6b3a764000089600601548360000154611db29190614373565b611dbc9190614252565b611dc691906143b3565b9350611dd28486614215565b9450838160010154611de49190614215565b6001909101555080611df5816144cb565b915050611d44565b5060095460405163a9059cbb60e01b81526001600160a01b039091169063a9059cbb90611e3090879086906004016140d4565b602060405180830381600087803b158015611e4a57600080fd5b505af1158015611e5e573d6000803e3d6000fd5b505050506040513d601f19601f82011682018060405250810190611e82919061397a565b5050505050505050565b60065460609060009063ffffffff851610611eb95760405162461bcd60e51b81526004016107a79061419e565b63ffffffff841660009081526007602090815260408083206001600160a01b03871684529091529020805460ff16611f0557505060408051602081019091526000808252909150611fb3565b611f1185856000610bc4565b9150611f22610f2886866000610bc4565b925060015b815460ff9081169082161015611fb0576000611f4787878460ff16610bc4565b9050611f538185614215565b935084604051806040016040528060018152602001602360f81b815250611f798361348a565b604051602001611f8b93929190613c2e565b6040516020818303038152906040529450508080611fa8906144cb565b915050611f27565b50505b9250929050565b60065460009063ffffffff841610611fe45760405162461bcd60e51b81526004016107a79061419e565b5063ffffffff821660009081526007602090815260408083206001600160a01b03851684529091528120815b815460ff908116908216101561119b5760ff8116600090815260018301602052604090205461203f9084614215565b92508061204b816144cb565b915050612010565b60065463ffffffff83161061207a5760405162461bcd60e51b81526004016107a79061419e565b600081116120b95760405162461bcd60e51b815260206004820152600c60248201526b706c65617365207374616b6560a01b60448201526064016107a7565b63ffffffff82166000908152600760209081526040808320338085529252909120600154815460ff161061213f5760405162461bcd60e51b815260206004820152602760248201527f746f6f206d616e7920656e7469746965732c20706c6561736520776974686472604482015266617720736f6d6560c81b60648201526084016107a7565b600060068563ffffffff168154811061215a5761215a614517565b9060005260206000209060080201905061218a816040518061010001604052908160008201805461152b90614451565b6121c65760405162461bcd60e51b815260206004820152600d60248201526c706f6f6c20696e61637469766560981b60448201526064016107a7565b6121cf85610947565b60018101546040516323b872dd60e01b8152336004820152306024820152604481018690526001600160a01b03909116906323b872dd90606401602060405180830381600087803b15801561222357600080fd5b505af1158015612237573d6000803e3d6000fd5b505050506040513d601f19601f8201168201806040525081019061225b919061397a565b5083816002015461226c9190614215565b81600201819055506040518060800160405280858152602001670de0b6b3a764000083600601548761229e9190614373565b6122a89190614252565b81524260208083019190915260006040928301819052855460ff9081168252600180880184529184902085518155928501518383015592840151600283015560609093015160039091015583546123019291169061422d565b825460ff191660ff919091161790915550505050565b6006818154811061232757600080fd5b906000526020600020906008020160009150905080600001805461234a90614451565b80601f016020809104026020016040519081016040528092919081815260200182805461237690614451565b80156123c35780601f10612398576101008083540402835291602001916123c3565b820191906000526020600020905b8154815290600101906020018083116123a657829003601f168201915b5050505060018301546002840154600385015460048601546005870154600688015460079098015496976001600160a01b03909516969395509193909288565b60065460009063ffffffff85161061242d5760405162461bcd60e51b81526004016107a79061419e565b63ffffffff841660009081526007602090815260408083206001600160a01b0387168452825280832060ff86168452600190810183529281902081516080810183528154815293810154928401929092526002808301549184018290526003909201546060840152905442916124a39190614215565b1095945050505050565b60065460609060009063ffffffff8516106124da5760405162461bcd60e51b81526004016107a79061419e565b63ffffffff841660009081526007602090815260408083206001600160a01b03871684529091529020805460ff166125275750506040805160208101909152600081529050600019611fb3565b600080805260018201602052604090206002015491506125468261348a565b925060015b815460ff9081169082161015611fb05760ff8116600090815260018084016020908152604092839020600201548351808501909452918352602360f81b908301529085906125988361348a565b6040516020016125aa93929190613c2e565b6040516020818303038152906040529450838110156125c7578093505b50806125d2816144cb565b91505061254b565b60065460009063ffffffff8316106126045760405162461bcd60e51b81526004016107a79061419e565b600060068363ffffffff168154811061261f5761261f614517565b90600052602060002090600802016040518061010001604052908160008201805461264990614451565b80601f016020809104026020016040519081016040528092919081815260200182805461267590614451565b80156126c25780601f10612697576101008083540402835291602001916126c2565b820191906000526020600020905b8154815290600101906020018083116126a557829003601f168201915b505050505081526020016001820160009054906101000a90046001600160a01b03166001600160a01b03166001600160a01b031681526020016002820154815260200160038201548152602001600482015481526020016005820154815260200160068201548152602001600782015481525050905080604001518160a00151670de0b6b3a76400006301e13380846060015161275f9190614373565b6127699190614373565b6127739190614252565b6109409190614252565b60065463ffffffff8216106127a45760405162461bcd60e51b81526004016107a79061419e565b63ffffffff811660009081526007602090815260408083203384529091528120805490919060ff1667ffffffffffffffff8111156127e4576127e461452d565b60405190808252806020026020018201604052801561280d578160200160208202803683370190505b50905060005b825460ff908116908216101561285d5780828260ff168151811061283957612839614517565b60ff9092166020928302919091019091015280612855816144cb565b915050612813565b506128688382611b80565b505050565b60065460609060009063ffffffff85161061289a5760405162461bcd60e51b81526004016107a79061419e565b63ffffffff841660009081526007602090815260408083206001600160a01b03871684529091529020805460ff166128e657505060408051602081019091526000808252909150611fb3565b60008080526001820160205260409020600381015490546129079190614215565b600080805260018301602052604090206003810154905491935061292f91610f289190614215565b925060015b815460ff9081169082161015611fb05760ff811660009081526001830160205260408120600381015490546129699190614215565b905084604051806040016040528060018152602001602360f81b81525061298f8361348a565b6040516020016129a193929190613c2e565b60408051601f1981840301815291905294506129bd8185614215565b93505080806129cb906144cb565b915050612934565b60065463ffffffff8216106129fa5760405162461bcd60e51b81526004016107a79061419e565b63ffffffff811660009081526007602090815260408083203384529091528120805490919060ff1667ffffffffffffffff811115612a3a57612a3a61452d565b604051908082528060200260200182016040528015612a63578160200160208202803683370190505b50905060005b825460ff9081169082161015612b0d57612a8784338360ff16612403565b612ad35760405162461bcd60e51b815260206004820152601c60248201527f656e7469747920696e207769746864726177616c2074696d656f75740000000060448201526064016107a7565b80828260ff1681518110612ae957612ae9614517565b60ff9092166020928302919091019091015280612b05816144cb565b915050612a69565b5061286883825b60065463ffffffff831610612b3b5760405162461bcd60e51b81526004016107a79061419e565b60005b8151811015612c4d57612b6e8333848481518110612b5e57612b5e614517565b602002602001015160ff16612403565b612bba5760405162461bcd60e51b815260206004820152601c60248201527f656e7469747920696e207769746864726177616c2074696d656f75740000000060448201526064016107a7565b63ffffffff83166000908152600760209081526040808320338452909152902054825160ff90911690839083908110612bf557612bf5614517565b602002602001015160ff1610612c3b5760405162461bcd60e51b815260206004820152600b60248201526a0eee4dedcce40d2dcc8caf60ab1b60448201526064016107a7565b80612c458161448c565b915050612b3e565b5063ffffffff82166000908152600760209081526040808320338085529252909120612c7884610947565b600060068563ffffffff1681548110612c9357612c93614517565b906000526020600020906008020190506000806000808060005b8951811015612ddd5760008860010160008c8481518110612cd057612cd0614517565b602002602001015160ff1660ff1681526020019081526020016000209050806000015492508060010154670de0b6b3a764000089600601548360000154612d179190614373565b612d219190614252565b612d2b91906143b3565b9350612d378488614215565b96506305f5e100612d658d8c8e8681518110612d5557612d55614517565b602002602001015160ff1661081f565b612d6f9085614373565b612d799190614252565b612d839087614215565b9550612d8f8386614215565b9450838160010154612da19190614215565b60018201558054612db39084906143b3565b81556003810154612dc5908490614215565b60039091015580612dd58161448c565b915050612cad565b5060095460405163a9059cbb60e01b81526001600160a01b039091169063a9059cbb90612e10908b9089906004016140d4565b602060405180830381600087803b158015612e2a57600080fd5b505af1158015612e3e573d6000803e3d6000fd5b505050506040513d601f19601f82011682018060405250810190612e62919061397a565b5060008411612e72576000612efc565b600186015460055460405163a9059cbb60e01b81526001600160a01b039283169263a9059cbb92612eaa9291169088906004016140d4565b602060405180830381600087803b158015612ec457600080fd5b505af1158015612ed8573d6000803e3d6000fd5b505050506040513d601f19601f82011682018060405250810190612efc919061397a565b5060018601546001600160a01b031663a9059cbb89612f1b87876143b3565b6040518363ffffffff1660e01b8152600401612f389291906140d4565b602060405180830381600087803b158015612f5257600080fd5b505af1158015612f66573d6000803e3d6000fd5b505050506040513d601f19601f82011682018060405250810190612f8a919061397a565b50828660020154612f9b91906143b3565b600287015586546000908190612fb69060019060ff166143ca565b9050612fe36040518060800160405280600081526020016000815260200160008152602001600081525090565b895460ff90811690841610801561300d575060ff8316600090815260018b01602052604090205415155b15613024578261301c816144cb565b935050612fe3565b60ff8216600090815260018b01602052604090205461305c5760ff821661304a5761305c565b8161305481614434565b925050613024565b8160ff168360ff161061306e576130ff565b5060ff80821660009081526001808c016020818152604080852081516080810183528154815281860154818501908152600280840154838601908152600394850154606085019081529a8d168a529690955292909620865181559151948201949094559151908201559251920191909155826130e9816144cb565b93505081806130f790614434565b925050612fe3565b60ff8216600090815260018b016020526040902054156131295761312482600161422d565b61312c565b60005b8a5460ff191660ff9190911617909955505050505050505050505050565b6009546001600160a01b031633148061316d5750600a546001600160a01b031633145b8061317c575061317c33610e61565b6131985760405162461bcd60e51b81526004016107a790614176565b428210156131f35760405162461bcd60e51b815260206004820152602260248201527f73746172742074696d652073686f756c6420626520696e207468652066757475604482015261726560f01b60648201526084016107a7565b6009546040516323b872dd60e01b8152336004820152306024820152604481018590526001600160a01b03909116906323b872dd90606401602060405180830381600087803b15801561324557600080fd5b505af1158015613259573d6000803e3d6000fd5b505050506040513d601f19601f8201168201806040525081019061327d919061397a565b5060408051610100810182528681526001600160a01b0386166020808301919091526000928201839052606082018690526080820185905260a0820184905260c0820183905260e082018590526006805460018101825593528151805192936008027ff652222313e28459528d920b65115c16c04f3efc82aaedc97be59f3f377c0d3f019261330f92849201906137f2565b5060208201516001820180546001600160a01b0319166001600160a01b0390921691909117905560408201516002820155606082015160038201556080820151600482015560a0820151600582015560c0820151600682015560e0909101516007909101555050505050565b6009546001600160a01b031633148061339e5750600a546001600160a01b031633145b806133ad57506133ad33610e61565b6133c95760405162461bcd60e51b81526004016107a790614176565b600081116134125760405162461bcd60e51b81526020600482015260166024820152756c696d6974206d75737420626520706f73697469766560501b60448201526064016107a7565b600155565b6000613422826136fa565b61343f578160a00151826080015161343a9190614215565b61119e565b4292915050565b600081604001518260a00151670de0b6b3a7640000846060015161346a9190614373565b6134749190614252565b61119e9190614252565b600061094083836143b3565b6060816134ae5750506040805180820190915260018152600360fc1b602082015290565b8160005b81156134d857806134c28161448c565b91506134d19050600a83614252565b91506134b2565b60008167ffffffffffffffff8111156134f3576134f361452d565b6040519080825280601f01601f19166020018201604052801561351d576020820181803683370190505b509050815b85156135aa576135336001826143b3565b90506000613542600a88614252565b61354d90600a614373565b61355790886143b3565b61356290603061422d565b905060008160f81b90508084848151811061357f5761357f614517565b60200101906001600160f81b031916908160001a9053506135a1600a89614252565b97505050613522565b50949350505050565b60408051602880825260608281019093526000919060208201818036833701905050905060005b60148110156136f35760006135f08260136143b3565b6135fb906008614373565b6136069060026142cb565b613619906001600160a01b038716614252565b60f81b9050600060108260f81c6136309190614266565b60f81b905060008160f81c60106136479190614392565b8360f81c61365591906143ca565b60f81b90506136638261372e565b8561366f866002614373565b8151811061367f5761367f614517565b60200101906001600160f81b031916908160001a90535061369f8161372e565b856136ab866002614373565b6136b6906001614215565b815181106136c6576136c6614517565b60200101906001600160f81b031916908160001a90535050505080806136eb9061448c565b9150506135da565b5092915050565b600061370a826080015142101590565b801561119e57508160a0015182608001516137259190614215565b42111592915050565b6000600a60f883901c10156137555761374c60f883901c603061422d565b60f81b92915050565b61374c60f883901c605761422d565b919050565b8280548282559060005260206000209081019282156137a4579160200282015b828111156137a4578251825591602001919060010190613789565b506118fd929150613865565b8280548282559060005260206000209081019282156137a4579160200282015b828111156137a4578251829062ffffff169055916020019190600101906137d0565b8280546137fe90614451565b90600052602060002090601f01602090048101928261382057600085556137a4565b82601f1061383957805160ff19168380011785556137a4565b828001600101855582156137a457918201828111156137a4578251825591602001919060010190613789565b5b808211156118fd5760008155600101613866565b80356001600160a01b038116811461376457600080fd5b803563ffffffff8116811461376457600080fd5b6000602082840312156138b757600080fd5b6109408261387a565b600060208083850312156138d357600080fd5b823567ffffffffffffffff8111156138ea57600080fd5b8301601f810185136138fb57600080fd5b803561390e613909826141f1565b6141c0565b80828252848201915084840188868560051b870101111561392e57600080fd5b600094505b83851015613951578035835260019490940193918501918501613933565b50979650505050505050565b60006020828403121561396f57600080fd5b813561094081614543565b60006020828403121561398c57600080fd5b815161094081614543565b600080604083850312156139aa57600080fd5b82356139b581614543565b91506139c36020840161387a565b90509250929050565b600080600080600060a086880312156139e457600080fd5b853567ffffffffffffffff808211156139fc57600080fd5b818801915088601f830112613a1057600080fd5b8135602082821115613a2457613a2461452d565b613a36601f8301601f191682016141c0565b92508183528a81838601011115613a4c57600080fd5b81818501828501376000818385010152829850613a6a818b0161387a565b989b989a5050505060408701359660608101359660809091013595509350505050565b600060208284031215613a9f57600080fd5b5035919050565b600060208284031215613ab857600080fd5b61094082613891565b60008060408385031215613ad457600080fd5b6139b583613891565b600080600060608486031215613af257600080fd5b613afb84613891565b9250613b096020850161387a565b9150613b1760408501613891565b90509250925092565b60008060408385031215613b3357600080fd5b613b3c83613891565b915060208084013567ffffffffffffffff811115613b5957600080fd5b8401601f81018613613b6a57600080fd5b8035613b78613909826141f1565b80828252848201915084840189868560051b8701011115613b9857600080fd5b60009450845b84811015613bc857813560ff81168114613bb6578687fd5b84529286019290860190600101613b9e565b5096999098509650505050505050565b60008060408385031215613beb57600080fd5b613bf483613891565b946020939093013593505050565b60008151808452613c1a8160208601602086016143ed565b601f01601f19169290920160200192915050565b60008451613c408184602089016143ed565b845190830190613c548183602089016143ed565b8451910190613c678183602088016143ed565b0195945050505050565b60008351613c838184602088016143ed565b835190830190613c978183602088016143ed565b7711161139ba30b5b2b220b6b7bab73a24b72837b7b6111d1160411b9101908152601801949350505050565b60008351613cd58184602088016143ed565b835190830190613ce98183602088016143ed565b6d111611323ab930ba34b7b7111d1160911b9101908152600e01949350505050565b60008351613d1d8184602088016143ed565b835190830190613d318183602088016143ed565b7111161136b4b72a34b6b2b9ba30b6b8111d1160711b9101908152601201949350505050565b60008351613d698184602088016143ed565b835190830190613d7d8183602088016143ed565b721116113832b73234b733a932bbb0b932111d1160691b9101908152601301949350505050565b60008351613db68184602088016143ed565b835190830190613dca8183602088016143ed565b741116113a37ba30b62234b9ba3934b13aba32911d1160591b9101908152601501949350505050565b60008351613e058184602088016143ed565b835190830190613e198183602088016143ed565b61227d60f01b9101908152600201949350505050565b60008351613e418184602088016143ed565b835190830190613e558183602088016143ed565b7f222c226c61737452657761726454696d657374616d70223a22000000000000009101908152601901949350505050565b60008351613e988184602088016143ed565b835190830190613eac8183602088016143ed565b7f222c227374616b696e67546f6b656e41646472657373223a22000000000000009101908152601901949350505050565b60008351613eef8184602088016143ed565b835190830190613f038183602088016143ed565b7311161130b1b1983c212832b929b430b932911d1160611b9101908152601401949350505050565b60008351613f3d8184602088016143ed565b835190830190613f518183602088016143ed565b6e11161139ba30b93a2a34b6b2911d1160891b9101908152600f01949350505050565b60008451613f868184602089016143ed565b601160f91b9083019081528451613fa48160018401602089016143ed565b61111d60f11b600192909101918201528351613fc78160038401602088016143ed565b600b60fa1b6003929091019182015260040195945050505050565b60008251613ff48184602087016143ed565b6922696e666f223a22227d60b01b920191825250600a01919050565b600082516140228184602087016143ed565b692275736572223a22227d60b01b920191825250600a01919050565b693d9134b73232bc111d1160b11b8152815160009061406481600a8501602087016143ed565b691116113730b6b2911d1160b11b600a939091019283015250601401919050565b693d9134b73232bc111d1160b11b815281516000906140ab81600a8501602087016143ed565b7111161139ba30b5b2b220b6b7bab73a111d1160711b600a939091019283015250601c01919050565b6001600160a01b03929092168252602082015260400190565b6020815260006109406020830184613c02565b60006101008083526141148184018c613c02565b6001600160a01b039a909a166020840152505060408101969096526060860194909452608085019290925260a084015260c083015260e090910152919050565b6040815260006141676040830185613c02565b90508260208301529392505050565b6020808252600e908201526d4163636573732044656e6965642160901b604082015260600190565b6020808252600890820152671ddc9bdb99c81a5960c21b604082015260600190565b604051601f8201601f1916810167ffffffffffffffff811182821017156141e9576141e961452d565b604052919050565b600067ffffffffffffffff82111561420b5761420b61452d565b5060051b60200190565b60008219821115614228576142286144eb565b500190565b600060ff821660ff84168060ff0382111561424a5761424a6144eb565b019392505050565b60008261426157614261614501565b500490565b600060ff83168061427957614279614501565b8060ff84160491505092915050565b600181815b808511156142c35781600019048211156142a9576142a96144eb565b808516156142b657918102915b93841c939080029061428d565b509250929050565b600061094083836000826142e15750600161119e565b816142ee5750600061119e565b8160018114614304576002811461430e5761432a565b600191505061119e565b60ff84111561431f5761431f6144eb565b50506001821b61119e565b5060208310610133831016604e8410600b841016171561434d575081810a61119e565b6143578383614288565b806000190482111561436b5761436b6144eb565b029392505050565b600081600019048311821515161561438d5761438d6144eb565b500290565b600060ff821660ff84168160ff048111821515161561436b5761436b6144eb565b6000828210156143c5576143c56144eb565b500390565b600060ff821660ff8416808210156143e4576143e46144eb565b90039392505050565b60005b838110156144085781810151838201526020016143f0565b83811115614417576000848401525b50505050565b60008161442c5761442c6144eb565b506000190190565b600060ff821680614447576144476144eb565b6000190192915050565b600181811c9082168061446557607f821691505b6020821081141561448657634e487b7160e01b600052602260045260246000fd5b50919050565b60006000198214156144a0576144a06144eb565b5060010190565b600063ffffffff808316818114156144c1576144c16144eb565b6001019392505050565b600060ff821660ff8114156144e2576144e26144eb565b60010192915050565b634e487b7160e01b600052601160045260246000fd5b634e487b7160e01b600052601260045260246000fd5b634e487b7160e01b600052603260045260246000fd5b634e487b7160e01b600052604160045260246000fd5b8015158114611ab057600080fdfea164736f6c6343000807000a",
  "devdoc": {
    "kind": "dev",
    "methods": {
      "addPool(string,address,uint256,uint256,uint256)": {
        "params": {
          "_duration": "duration of pool",
          "_startTime": "timestamp to start pool",
          "_token": "address of token",
          "_totalDistribute": "total distribution in 0xB for this pool"
        }
      },
      "claimAllReward(uint32)": {
        "details": "update reward debt and send reward to user",
        "params": {
          "_poolId": "index of pool"
        }
      },
      "claimReward(uint32,uint8[])": {
        "details": "update reward debt and send reward to user",
        "params": {
          "_indices": "indices of entities",
          "_poolId": "index of pool"
        }
      },
      "deposit(uint32,uint256)": {
        "details": "add new entity to control staking timestamp and taxes, never add token to older entities. Set rewardDebt to amount of reward currently.",
        "params": {
          "_amount": "amount to stake",
          "_poolId": "index of one pool"
        }
      },
      "getAPR(uint32)": {
        "params": {
          "_poolId": "index of pool"
        },
        "returns": {
          "apr": "current APR of a pool"
        }
      },
      "getJSONAllPoolsInfo(bool)": {
        "params": {
          "_onlyActive": "decide if only return info of active pool"
        },
        "returns": {
          "res": "JSON"
        }
      },
      "getJSONAllPoolsUser(bool,address)": {
        "params": {
          "_onlyActive": "decide if only return info of active pool",
          "_user": "address of an user"
        },
        "returns": {
          "res": "JSON"
        }
      },
      "getJSONSinglePoolInfo(uint32)": {
        "params": {
          "_poolId": "index of pool"
        },
        "returns": {
          "res": "JSON"
        }
      },
      "getJSONSinglePoolUser(uint32,address)": {
        "params": {
          "_poolId": "index of pool",
          "_user": "address of an user"
        },
        "returns": {
          "res": "JSON"
        }
      },
      "getPoolsCount()": {
        "returns": {
          "_0": "len number of pools"
        }
      },
      "getTaxLevels()": {
        "returns": {
          "res": "levels of pools, separated by SEPARATOR"
        }
      },
      "getUserPendingReward(uint32,address)": {
        "details": "result is returned as a string, which entities is separated with SEPARATOR",
        "params": {
          "_poolId": "index of pool",
          "addr": "address of user"
        },
        "returns": {
          "res": "result as a string"
        }
      },
      "getUserStakeAmounts(uint32,address)": {
        "details": "result is returned as a string, which entities is separated with SEPARATORfor each entity, the amount staked at first is separated into 2 variable: amount + withdrawn",
        "params": {
          "_poolId": "index of pool",
          "addr": "address of user"
        },
        "returns": {
          "res": "result as a string"
        }
      },
      "getUserTimestamps(uint32,address)": {
        "details": "result is returned as a string, which entities is separated with SEPARATOR",
        "params": {
          "_poolId": "index of pool",
          "addr": "address of user"
        },
        "returns": {
          "res": "result as a string"
        }
      },
      "getUserUnstakedAmount(uint32,address)": {
        "details": "result is returned as a string, which entities is separated with SEPARATOR",
        "params": {
          "_poolId": "index of pool",
          "addr": "address of user"
        },
        "returns": {
          "res": "result as a string"
        }
      },
      "isWhitelisted(address)": {
        "params": {
          "addr": "address to query"
        },
        "returns": {
          "_0": "isWhitelisted true if `addr` is whitelisted"
        }
      },
      "pendingReward(uint32,address,uint32)": {
        "details": "the accumulated reward per share is considered, add with reward from latest pool updateusing current state of pool (total token in pool).the formula is: (a * n) + delta(now - l) * c - rewardDebta: accumulatedRewardPerShare in pool, n: total share, delta(now - l): seconds since last updatec: current reward per share per second, rewardDebt: reward already claimed by user in this pool",
        "params": {
          "_index": "index of some entity",
          "_poolId": "id of pool",
          "addr": "address of user"
        },
        "returns": {
          "_0": "reward pending reward of user"
        }
      },
      "setTaxLevels(uint256[])": {
        "params": {
          "_newLevels": "levels of new taxes"
        }
      },
      "setToken(address)": {
        "params": {
          "_token": "address of 0xB"
        }
      },
      "setWithdrawTaxPool(address)": {
        "params": {
          "_pool": "new tax pool"
        }
      },
      "setWithdrawTimeout(uint256)": {
        "params": {
          "_timeout": "new timeout"
        }
      },
      "setstakingRecordsLimitPerPool(uint256)": {
        "params": {
          "_newLimit": "new limit"
        }
      },
      "taxOfEntity(uint32,address,uint32)": {
        "params": {
          "_index": "index of entity",
          "_poolId": "index of a pool",
          "addr": "address of an entity owner"
        },
        "returns": {
          "_0": "tax amount of tax of an entity"
        }
      },
      "totalStakeOfUser(uint32,address)": {
        "params": {
          "_poolId": "index of pool",
          "addr": "address of the user"
        },
        "returns": {
          "totalStake": "total amount of token staked in the user"
        }
      },
      "updatePool(uint32)": {
        "details": "update accumulated reward per share of a pool for sake of reward optimization",
        "params": {
          "_poolId": "index of pool"
        }
      },
      "withdraw(uint32,uint8[])": {
        "details": "same as withdraw, relocations of entities from an user is required",
        "params": {
          "_entityIndices": "indices of entities to withdraw",
          "_poolId": "index of pool"
        }
      },
      "withdrawAll(uint32)": {
        "details": "call withdraw() with second params being all withdraw.",
        "params": {
          "_poolId": "index of pool"
        }
      },
      "withdrawable(uint32,address,uint32)": {
        "params": {
          "_index": "index of entity",
          "_poolId": "index of a pool",
          "addr": "address of an entity owner"
        },
        "returns": {
          "_0": "withdrawable true if the entity is withdrawable"
        }
      }
    },
    "version": 1
  },
  "userdoc": {
    "kind": "user",
    "methods": {
      "addPool(string,address,uint256,uint256,uint256)": {
        "notice": "add new pool to stake token"
      },
      "claimAllReward(uint32)": {
        "notice": "claim all reward from all entity of pool"
      },
      "claimReward(uint32,uint8[])": {
        "notice": "claim all reward from some entities "
      },
      "deposit(uint32,uint256)": {
        "notice": "deposit _amount of token to the pool with index _poolId to start new entity of staking"
      },
      "getAPR(uint32)": {
        "notice": "calculate the current APR of one pool"
      },
      "getJSONAllPoolsInfo(bool)": {
        "notice": "return a JSON includes info of all pool, can choose to get only active pools or not"
      },
      "getJSONAllPoolsUser(bool,address)": {
        "notice": "return a JSON includes info of all pool that specific to an user, can choose to get only active pools or not"
      },
      "getJSONSinglePoolInfo(uint32)": {
        "notice": "return a JSON includes all info of a pool"
      },
      "getJSONSinglePoolUser(uint32,address)": {
        "notice": "return a JSON includes all info of an user in a pool"
      },
      "getPoolsCount()": {
        "notice": "number of pools "
      },
      "getTaxLevels()": {
        "notice": "tax levels as a string"
      },
      "getUserPendingReward(uint32,address)": {
        "notice": "get the pending rewards of every entity that user staked in one pool"
      },
      "getUserStakeAmounts(uint32,address)": {
        "notice": "get the stake amount of every entity that user staked in one pool"
      },
      "getUserTimestamps(uint32,address)": {
        "notice": "get the timestamps of every entity that user staked in one pool"
      },
      "getUserUnstakedAmount(uint32,address)": {
        "notice": "get the unstaked amount of every entity that user staked in one pool"
      },
      "isWhitelisted(address)": {
        "notice": "show if an address is whitelisted to create a pool"
      },
      "pendingReward(uint32,address,uint32)": {
        "notice": "calculate the unclaimed reward of a user in one entity"
      },
      "setTaxLevels(uint256[])": {
        "notice": "set tax levels"
      },
      "setToken(address)": {
        "notice": "set address of 0xB token"
      },
      "setWithdrawTaxPool(address)": {
        "notice": "set new withdrawal tax pool"
      },
      "setWithdrawTimeout(uint256)": {
        "notice": "set new withdrawal timeout"
      },
      "setstakingRecordsLimitPerPool(uint256)": {
        "notice": "set new staking entities limit"
      },
      "taxOfEntity(uint32,address,uint32)": {
        "notice": "return current tax of an entity"
      },
      "totalStakeOfUser(uint32,address)": {
        "notice": "calculate total stake of one address in a pool"
      },
      "updatePool(uint32)": {
        "notice": "update data in a staking pool"
      },
      "withdraw(uint32,uint8[])": {
        "notice": "withdraw all tokens from some entity."
      },
      "withdrawAll(uint32)": {
        "notice": "withdraw all entities of an user."
      },
      "withdrawable(uint32,address,uint32)": {
        "notice": "show if an entity is withdrawable"
      }
    },
    "version": 1
  },
  "storageLayout": {
    "storage": [
      {
        "astId": 598,
        "contract": "contracts/dependencies/Staking.sol:Staking",
        "label": "_initialized",
        "offset": 0,
        "slot": "0",
        "type": "t_bool"
      },
      {
        "astId": 601,
        "contract": "contracts/dependencies/Staking.sol:Staking",
        "label": "_initializing",
        "offset": 1,
        "slot": "0",
        "type": "t_bool"
      },
      {
        "astId": 8878,
        "contract": "contracts/dependencies/Staking.sol:Staking",
        "label": "stakingRecordsLimitPerPool",
        "offset": 0,
        "slot": "1",
        "type": "t_uint256"
      },
      {
        "astId": 8880,
        "contract": "contracts/dependencies/Staking.sol:Staking",
        "label": "withdrawTimeout",
        "offset": 0,
        "slot": "2",
        "type": "t_uint256"
      },
      {
        "astId": 8883,
        "contract": "contracts/dependencies/Staking.sol:Staking",
        "label": "withdrawTaxLevel",
        "offset": 0,
        "slot": "3",
        "type": "t_array(t_uint256)dyn_storage"
      },
      {
        "astId": 8886,
        "contract": "contracts/dependencies/Staking.sol:Staking",
        "label": "withdrawTaxPortion",
        "offset": 0,
        "slot": "4",
        "type": "t_array(t_uint256)dyn_storage"
      },
      {
        "astId": 8888,
        "contract": "contracts/dependencies/Staking.sol:Staking",
        "label": "earlyWithdrawTaxPool",
        "offset": 0,
        "slot": "5",
        "type": "t_address"
      },
      {
        "astId": 8892,
        "contract": "contracts/dependencies/Staking.sol:Staking",
        "label": "pools",
        "offset": 0,
        "slot": "6",
        "type": "t_array(t_struct(PoolInfo)8876_storage)dyn_storage"
      },
      {
        "astId": 8899,
        "contract": "contracts/dependencies/Staking.sol:Staking",
        "label": "userInfo",
        "offset": 0,
        "slot": "7",
        "type": "t_mapping(t_uint32,t_mapping(t_address,t_struct(UserStakeInfo)8858_storage))"
      },
      {
        "astId": 8903,
        "contract": "contracts/dependencies/Staking.sol:Staking",
        "label": "whitelistAuthorities",
        "offset": 0,
        "slot": "8",
        "type": "t_mapping(t_address,t_bool)"
      },
      {
        "astId": 8905,
        "contract": "contracts/dependencies/Staking.sol:Staking",
        "label": "token0xBAddress",
        "offset": 0,
        "slot": "9",
        "type": "t_address"
      },
      {
        "astId": 8907,
        "contract": "contracts/dependencies/Staking.sol:Staking",
        "label": "admin0xB",
        "offset": 0,
        "slot": "10",
        "type": "t_address"
      }
    ],
    "types": {
      "t_address": {
        "encoding": "inplace",
        "label": "address",
        "numberOfBytes": "20"
      },
      "t_array(t_struct(PoolInfo)8876_storage)dyn_storage": {
        "base": "t_struct(PoolInfo)8876_storage",
        "encoding": "dynamic_array",
        "label": "struct Staking.PoolInfo[]",
        "numberOfBytes": "32"
      },
      "t_array(t_uint256)dyn_storage": {
        "base": "t_uint256",
        "encoding": "dynamic_array",
        "label": "uint256[]",
        "numberOfBytes": "32"
      },
      "t_bool": {
        "encoding": "inplace",
        "label": "bool",
        "numberOfBytes": "1"
      },
      "t_contract(IERC20)2517": {
        "encoding": "inplace",
        "label": "contract IERC20",
        "numberOfBytes": "20"
      },
      "t_mapping(t_address,t_bool)": {
        "encoding": "mapping",
        "key": "t_address",
        "label": "mapping(address => bool)",
        "numberOfBytes": "32",
        "value": "t_bool"
      },
      "t_mapping(t_address,t_struct(UserStakeInfo)8858_storage)": {
        "encoding": "mapping",
        "key": "t_address",
        "label": "mapping(address => struct Staking.UserStakeInfo)",
        "numberOfBytes": "32",
        "value": "t_struct(UserStakeInfo)8858_storage"
      },
      "t_mapping(t_uint32,t_mapping(t_address,t_struct(UserStakeInfo)8858_storage))": {
        "encoding": "mapping",
        "key": "t_uint32",
        "label": "mapping(uint32 => mapping(address => struct Staking.UserStakeInfo))",
        "numberOfBytes": "32",
        "value": "t_mapping(t_address,t_struct(UserStakeInfo)8858_storage)"
      },
      "t_mapping(t_uint8,t_struct(StakeEntity)8850_storage)": {
        "encoding": "mapping",
        "key": "t_uint8",
        "label": "mapping(uint8 => struct Staking.StakeEntity)",
        "numberOfBytes": "32",
        "value": "t_struct(StakeEntity)8850_storage"
      },
      "t_string_storage": {
        "encoding": "bytes",
        "label": "string",
        "numberOfBytes": "32"
      },
      "t_struct(PoolInfo)8876_storage": {
        "encoding": "inplace",
        "label": "struct Staking.PoolInfo",
        "members": [
          {
            "astId": 8860,
            "contract": "contracts/dependencies/Staking.sol:Staking",
            "label": "name",
            "offset": 0,
            "slot": "0",
            "type": "t_string_storage"
          },
          {
            "astId": 8863,
            "contract": "contracts/dependencies/Staking.sol:Staking",
            "label": "stakingToken",
            "offset": 0,
            "slot": "1",
            "type": "t_contract(IERC20)2517"
          },
          {
            "astId": 8865,
            "contract": "contracts/dependencies/Staking.sol:Staking",
            "label": "stakedAmountInPool",
            "offset": 0,
            "slot": "2",
            "type": "t_uint256"
          },
          {
            "astId": 8867,
            "contract": "contracts/dependencies/Staking.sol:Staking",
            "label": "totalDistribute",
            "offset": 0,
            "slot": "3",
            "type": "t_uint256"
          },
          {
            "astId": 8869,
            "contract": "contracts/dependencies/Staking.sol:Staking",
            "label": "startTime",
            "offset": 0,
            "slot": "4",
            "type": "t_uint256"
          },
          {
            "astId": 8871,
            "contract": "contracts/dependencies/Staking.sol:Staking",
            "label": "duration",
            "offset": 0,
            "slot": "5",
            "type": "t_uint256"
          },
          {
            "astId": 8873,
            "contract": "contracts/dependencies/Staking.sol:Staking",
            "label": "acc0xBPerShare",
            "offset": 0,
            "slot": "6",
            "type": "t_uint256"
          },
          {
            "astId": 8875,
            "contract": "contracts/dependencies/Staking.sol:Staking",
            "label": "lastRewardTimestamp",
            "offset": 0,
            "slot": "7",
            "type": "t_uint256"
          }
        ],
        "numberOfBytes": "256"
      },
      "t_struct(StakeEntity)8850_storage": {
        "encoding": "inplace",
        "label": "struct Staking.StakeEntity",
        "members": [
          {
            "astId": 8843,
            "contract": "contracts/dependencies/Staking.sol:Staking",
            "label": "amount",
            "offset": 0,
            "slot": "0",
            "type": "t_uint256"
          },
          {
            "astId": 8845,
            "contract": "contracts/dependencies/Staking.sol:Staking",
            "label": "rewardDebt",
            "offset": 0,
            "slot": "1",
            "type": "t_uint256"
          },
          {
            "astId": 8847,
            "contract": "contracts/dependencies/Staking.sol:Staking",
            "label": "creationTime",
            "offset": 0,
            "slot": "2",
            "type": "t_uint256"
          },
          {
            "astId": 8849,
            "contract": "contracts/dependencies/Staking.sol:Staking",
            "label": "withdrawn",
            "offset": 0,
            "slot": "3",
            "type": "t_uint256"
          }
        ],
        "numberOfBytes": "128"
      },
      "t_struct(UserStakeInfo)8858_storage": {
        "encoding": "inplace",
        "label": "struct Staking.UserStakeInfo",
        "members": [
          {
            "astId": 8852,
            "contract": "contracts/dependencies/Staking.sol:Staking",
            "label": "size",
            "offset": 0,
            "slot": "0",
            "type": "t_uint8"
          },
          {
            "astId": 8857,
            "contract": "contracts/dependencies/Staking.sol:Staking",
            "label": "entities",
            "offset": 0,
            "slot": "1",
            "type": "t_mapping(t_uint8,t_struct(StakeEntity)8850_storage)"
          }
        ],
        "numberOfBytes": "64"
      },
      "t_uint256": {
        "encoding": "inplace",
        "label": "uint256",
        "numberOfBytes": "32"
      },
      "t_uint32": {
        "encoding": "inplace",
        "label": "uint32",
        "numberOfBytes": "4"
      },
      "t_uint8": {
        "encoding": "inplace",
        "label": "uint8",
        "numberOfBytes": "1"
      }
    }
  }
}