{
  "address": "0x47D6800862a82Eb8c241b2e7Df1291a5EfB12108",
  "abi": [
    {
      "inputs": [
        {
          "internalType": "string",
          "name": "_name",
          "type": "string"
        },
        {
          "internalType": "address",
          "name": "_token",
          "type": "address"
        },
        {
          "internalType": "uint256",
          "name": "_totalDistribute",
          "type": "uint256"
        },
        {
          "internalType": "uint256",
          "name": "_startTime",
          "type": "uint256"
        },
        {
          "internalType": "uint256",
          "name": "_duration",
          "type": "uint256"
        }
      ],
      "name": "addPool",
      "outputs": [],
      "stateMutability": "nonpayable",
      "type": "function"
    },
    {
      "inputs": [],
      "name": "admin0xB",
      "outputs": [
        {
          "internalType": "address",
          "name": "",
          "type": "address"
        }
      ],
      "stateMutability": "view",
      "type": "function"
    },
    {
      "inputs": [
        {
          "internalType": "uint32",
          "name": "_poolId",
          "type": "uint32"
        }
      ],
      "name": "claimAllReward",
      "outputs": [],
      "stateMutability": "nonpayable",
      "type": "function"
    },
    {
      "inputs": [
        {
          "internalType": "uint32",
          "name": "_poolId",
          "type": "uint32"
        },
        {
          "internalType": "uint8[]",
          "name": "_indices",
          "type": "uint8[]"
        }
      ],
      "name": "claimReward",
      "outputs": [],
      "stateMutability": "nonpayable",
      "type": "function"
    },
    {
      "inputs": [
        {
          "internalType": "uint32",
          "name": "_poolId",
          "type": "uint32"
        },
        {
          "internalType": "uint256",
          "name": "_amount",
          "type": "uint256"
        }
      ],
      "name": "deposit",
      "outputs": [],
      "stateMutability": "nonpayable",
      "type": "function"
    },
    {
      "inputs": [],
      "name": "earlyWithdrawTaxPool",
      "outputs": [
        {
          "internalType": "address",
          "name": "",
          "type": "address"
        }
      ],
      "stateMutability": "view",
      "type": "function"
    },
    {
      "inputs": [
        {
          "internalType": "uint32",
          "name": "_poolId",
          "type": "uint32"
        }
      ],
      "name": "getAPR",
      "outputs": [
        {
          "internalType": "uint256",
          "name": "apr",
          "type": "uint256"
        }
      ],
      "stateMutability": "view",
      "type": "function"
    },
    {
      "inputs": [
        {
          "internalType": "bool",
          "name": "_onlyActive",
          "type": "bool"
        }
      ],
      "name": "getJSONAllPoolsInfo",
      "outputs": [
        {
          "internalType": "string",
          "name": "res",
          "type": "string"
        }
      ],
      "stateMutability": "view",
      "type": "function"
    },
    {
      "inputs": [
        {
          "internalType": "bool",
          "name": "_onlyActive",
          "type": "bool"
        },
        {
          "internalType": "address",
          "name": "_user",
          "type": "address"
        }
      ],
      "name": "getJSONAllPoolsUser",
      "outputs": [
        {
          "internalType": "string",
          "name": "res",
          "type": "string"
        }
      ],
      "stateMutability": "view",
      "type": "function"
    },
    {
      "inputs": [
        {
          "internalType": "uint32",
          "name": "_poolId",
          "type": "uint32"
        }
      ],
      "name": "getJSONSinglePoolInfo",
      "outputs": [
        {
          "internalType": "string",
          "name": "res",
          "type": "string"
        }
      ],
      "stateMutability": "view",
      "type": "function"
    },
    {
      "inputs": [
        {
          "internalType": "uint32",
          "name": "_poolId",
          "type": "uint32"
        },
        {
          "internalType": "address",
          "name": "_user",
          "type": "address"
        }
      ],
      "name": "getJSONSinglePoolUser",
      "outputs": [
        {
          "internalType": "string",
          "name": "res",
          "type": "string"
        }
      ],
      "stateMutability": "view",
      "type": "function"
    },
    {
      "inputs": [],
      "name": "getPoolsCount",
      "outputs": [
        {
          "internalType": "uint256",
          "name": "",
          "type": "uint256"
        }
      ],
      "stateMutability": "view",
      "type": "function"
    },
    {
      "inputs": [],
      "name": "getTaxLevels",
      "outputs": [
        {
          "internalType": "string",
          "name": "res",
          "type": "string"
        }
      ],
      "stateMutability": "view",
      "type": "function"
    },
    {
      "inputs": [
        {
          "internalType": "uint32",
          "name": "_poolId",
          "type": "uint32"
        },
        {
          "internalType": "address",
          "name": "addr",
          "type": "address"
        }
      ],
      "name": "getUserPendingReward",
      "outputs": [
        {
          "internalType": "string",
          "name": "res",
          "type": "string"
        },
        {
          "internalType": "uint256",
          "name": "ttl",
          "type": "uint256"
        }
      ],
      "stateMutability": "view",
      "type": "function"
    },
    {
      "inputs": [
        {
          "internalType": "uint32",
          "name": "_poolId",
          "type": "uint32"
        },
        {
          "internalType": "address",
          "name": "addr",
          "type": "address"
        }
      ],
      "name": "getUserStakeAmounts",
      "outputs": [
        {
          "internalType": "string",
          "name": "res",
          "type": "string"
        },
        {
          "internalType": "uint256",
          "name": "ttl",
          "type": "uint256"
        }
      ],
      "stateMutability": "view",
      "type": "function"
    },
    {
      "inputs": [
        {
          "internalType": "uint32",
          "name": "_poolId",
          "type": "uint32"
        },
        {
          "internalType": "address",
          "name": "addr",
          "type": "address"
        }
      ],
      "name": "getUserTimestamps",
      "outputs": [
        {
          "internalType": "string",
          "name": "res",
          "type": "string"
        },
        {
          "internalType": "uint256",
          "name": "minTs",
          "type": "uint256"
        }
      ],
      "stateMutability": "view",
      "type": "function"
    },
    {
      "inputs": [
        {
          "internalType": "uint32",
          "name": "_poolId",
          "type": "uint32"
        },
        {
          "internalType": "address",
          "name": "addr",
          "type": "address"
        }
      ],
      "name": "getUserUnstakedAmount",
      "outputs": [
        {
          "internalType": "string",
          "name": "res",
          "type": "string"
        }
      ],
      "stateMutability": "view",
      "type": "function"
    },
    {
      "inputs": [],
      "name": "initialize",
      "outputs": [],
      "stateMutability": "nonpayable",
      "type": "function"
    },
    {
      "inputs": [
        {
          "internalType": "address",
          "name": "addr",
          "type": "address"
        }
      ],
      "name": "isWhitelisted",
      "outputs": [
        {
          "internalType": "bool",
          "name": "",
          "type": "bool"
        }
      ],
      "stateMutability": "view",
      "type": "function"
    },
    {
      "inputs": [
        {
          "internalType": "uint32",
          "name": "_poolId",
          "type": "uint32"
        },
        {
          "internalType": "address",
          "name": "addr",
          "type": "address"
        },
        {
          "internalType": "uint32",
          "name": "_index",
          "type": "uint32"
        }
      ],
      "name": "pendingReward",
      "outputs": [
        {
          "internalType": "uint256",
          "name": "",
          "type": "uint256"
        }
      ],
      "stateMutability": "view",
      "type": "function"
    },
    {
      "inputs": [
        {
          "internalType": "uint256",
          "name": "",
          "type": "uint256"
        }
      ],
      "name": "pools",
      "outputs": [
        {
          "internalType": "string",
          "name": "name",
          "type": "string"
        },
        {
          "internalType": "contract IERC20",
          "name": "stakingToken",
          "type": "address"
        },
        {
          "internalType": "uint256",
          "name": "stakedAmountInPool",
          "type": "uint256"
        },
        {
          "internalType": "uint256",
          "name": "totalDistribute",
          "type": "uint256"
        },
        {
          "internalType": "uint256",
          "name": "startTime",
          "type": "uint256"
        },
        {
          "internalType": "uint256",
          "name": "duration",
          "type": "uint256"
        },
        {
          "internalType": "uint256",
          "name": "acc0xBPerShare",
          "type": "uint256"
        },
        {
          "internalType": "uint256",
          "name": "lastRewardTimestamp",
          "type": "uint256"
        }
      ],
      "stateMutability": "view",
      "type": "function"
    },
    {
      "inputs": [
        {
          "internalType": "uint256[]",
          "name": "_newLevels",
          "type": "uint256[]"
        }
      ],
      "name": "setTaxLevels",
      "outputs": [],
      "stateMutability": "nonpayable",
      "type": "function"
    },
    {
      "inputs": [
        {
          "internalType": "address",
          "name": "_token",
          "type": "address"
        }
      ],
      "name": "setToken",
      "outputs": [],
      "stateMutability": "nonpayable",
      "type": "function"
    },
    {
      "inputs": [
        {
          "internalType": "address",
          "name": "_pool",
          "type": "address"
        }
      ],
      "name": "setWithdrawTaxPool",
      "outputs": [],
      "stateMutability": "nonpayable",
      "type": "function"
    },
    {
      "inputs": [
        {
          "internalType": "uint256",
          "name": "_timeout",
          "type": "uint256"
        }
      ],
      "name": "setWithdrawTimeout",
      "outputs": [],
      "stateMutability": "nonpayable",
      "type": "function"
    },
    {
      "inputs": [
        {
          "internalType": "uint256",
          "name": "_newLimit",
          "type": "uint256"
        }
      ],
      "name": "setstakingRecordsLimitPerPool",
      "outputs": [],
      "stateMutability": "nonpayable",
      "type": "function"
    },
    {
      "inputs": [],
      "name": "stakingRecordsLimitPerPool",
      "outputs": [
        {
          "internalType": "uint256",
          "name": "",
          "type": "uint256"
        }
      ],
      "stateMutability": "view",
      "type": "function"
    },
    {
      "inputs": [
        {
          "internalType": "uint32",
          "name": "_poolId",
          "type": "uint32"
        },
        {
          "internalType": "address",
          "name": "addr",
          "type": "address"
        },
        {
          "internalType": "uint32",
          "name": "_index",
          "type": "uint32"
        }
      ],
      "name": "taxOfEntity",
      "outputs": [
        {
          "internalType": "uint256",
          "name": "",
          "type": "uint256"
        }
      ],
      "stateMutability": "view",
      "type": "function"
    },
    {
      "inputs": [],
      "name": "token0xBAddress",
      "outputs": [
        {
          "internalType": "address",
          "name": "",
          "type": "address"
        }
      ],
      "stateMutability": "view",
      "type": "function"
    },
    {
      "inputs": [
        {
          "internalType": "uint32",
          "name": "_poolId",
          "type": "uint32"
        },
        {
          "internalType": "address",
          "name": "addr",
          "type": "address"
        }
      ],
      "name": "totalStakeOfUser",
      "outputs": [
        {
          "internalType": "uint256",
          "name": "totalStake",
          "type": "uint256"
        }
      ],
      "stateMutability": "view",
      "type": "function"
    },
    {
      "inputs": [
        {
          "internalType": "address payable",
          "name": "newAdmin",
          "type": "address"
        }
      ],
      "name": "updateAdmin0xB",
      "outputs": [],
      "stateMutability": "nonpayable",
      "type": "function"
    },
    {
      "inputs": [
        {
          "internalType": "uint32",
          "name": "_poolId",
          "type": "uint32"
        }
      ],
      "name": "updatePool",
      "outputs": [],
      "stateMutability": "nonpayable",
      "type": "function"
    },
    {
      "inputs": [
        {
          "internalType": "uint32",
          "name": "",
          "type": "uint32"
        },
        {
          "internalType": "address",
          "name": "",
          "type": "address"
        }
      ],
      "name": "userInfo",
      "outputs": [
        {
          "internalType": "uint8",
          "name": "size",
          "type": "uint8"
        }
      ],
      "stateMutability": "view",
      "type": "function"
    },
    {
      "inputs": [
        {
          "internalType": "uint32",
          "name": "_poolId",
          "type": "uint32"
        },
        {
          "internalType": "uint8[]",
          "name": "_entityIndices",
          "type": "uint8[]"
        }
      ],
      "name": "withdraw",
      "outputs": [],
      "stateMutability": "nonpayable",
      "type": "function"
    },
    {
      "inputs": [
        {
          "internalType": "uint32",
          "name": "_poolId",
          "type": "uint32"
        }
      ],
      "name": "withdrawAll",
      "outputs": [],
      "stateMutability": "nonpayable",
      "type": "function"
    },
    {
      "inputs": [
        {
          "internalType": "uint256",
          "name": "",
          "type": "uint256"
        }
      ],
      "name": "withdrawTaxLevel",
      "outputs": [
        {
          "internalType": "uint256",
          "name": "",
          "type": "uint256"
        }
      ],
      "stateMutability": "view",
      "type": "function"
    },
    {
      "inputs": [
        {
          "internalType": "uint256",
          "name": "",
          "type": "uint256"
        }
      ],
      "name": "withdrawTaxPortion",
      "outputs": [
        {
          "internalType": "uint256",
          "name": "",
          "type": "uint256"
        }
      ],
      "stateMutability": "view",
      "type": "function"
    },
    {
      "inputs": [],
      "name": "withdrawTimeout",
      "outputs": [
        {
          "internalType": "uint256",
          "name": "",
          "type": "uint256"
        }
      ],
      "stateMutability": "view",
      "type": "function"
    },
    {
      "inputs": [
        {
          "internalType": "uint32",
          "name": "_poolId",
          "type": "uint32"
        },
        {
          "internalType": "address",
          "name": "addr",
          "type": "address"
        },
        {
          "internalType": "uint32",
          "name": "_index",
          "type": "uint32"
        }
      ],
      "name": "withdrawable",
      "outputs": [
        {
          "internalType": "bool",
          "name": "",
          "type": "bool"
        }
      ],
      "stateMutability": "view",
      "type": "function"
    },
    {
      "stateMutability": "payable",
      "type": "receive"
    }
  ],
  "transactionHash": "0x89b0cb79aed788155cf339466bbd6d096b3c6726f85dc556d0388073a2bf44f3",
  "args": [],
  "numDeployments": 4,
  "solcInputHash": "aa2fafca3ff81473fe0849379c09aad7",
  "bytecode": "0x608060405234801561001057600080fd5b50614657806100206000396000f3fe6080604052600436106102345760003560e01c80638129fc1c1161012e578063b2a17049116100ab578063d63c564b1161006f578063d63c564b146106e4578063db7c641f14610704578063defd530714610724578063eed873c214610744578063f471f7361461076457600080fd5b8063b2a170491461064f578063b4ac68601461066f578063c3e691b514610684578063cedb682a146106a4578063d4491a06146106c457600080fd5b8063a6503e76116100f2578063a6503e761461059b578063aaf10398146105bb578063ac4afa38146105db578063aeeacef11461060f578063b0cdad261461062f57600080fd5b80638129fc1c14610502578063992b10f41461051757806399e9de00146105375780639c15d1a214610557578063a494a0c01461056d57600080fd5b80633da3a82d116101bc5780635643b4e3116101805780635643b4e31461046d578063570bfc011461048d5780635931583d146104ad57806370a1b38c146104cd57806372941460146104e257600080fd5b80633da3a82d146103c057806341c67a1d146103e0578063480729df1461040d5780634b7ea33d1461042d5780634dc89ff81461044d57600080fd5b806329efdc411161020357806329efdc41146102e35780632f3ef5da14610303578063303d50c2146103235780633530f80a146103435780633af32abf1461039057600080fd5b80630584aecf14610240578063144fa6d71461027d57806314b2f81a1461029f5780631c293de5146102c357600080fd5b3661023b57005b600080fd5b34801561024c57600080fd5b50600a54610260906001600160a01b031681565b6040516001600160a01b0390911681526020015b60405180910390f35b34801561028957600080fd5b5061029d610298366004613981565b610784565b005b3480156102ab57600080fd5b506102b560015481565b604051908152602001610274565b3480156102cf57600080fd5b5061029d6102de366004613981565b61084a565b3480156102ef57600080fd5b506102b56102fe366004613bbf565b610907565b34801561030f57600080fd5b5061029d61031e366004613b88565b610a2f565b34801561032f57600080fd5b506102b561033e366004613bbf565b610cac565b34801561034f57600080fd5b5061037e61035e366004613ba3565b600760209081526000928352604080842090915290825290205460ff1681565b60405160ff9091168152602001610274565b34801561039c57600080fd5b506103b06103ab366004613981565b610f49565b6040519015158152602001610274565b3480156103cc57600080fd5b506102b56103db366004613b6f565b610f67565b3480156103ec57600080fd5b506104006103fb366004613ba3565b610f88565b60405161027491906141d1565b34801561041957600080fd5b5061029d610428366004613981565b6110b5565b34801561043957600080fd5b50610400610448366004613ba3565b611167565b34801561045957600080fd5b50610400610468366004613b88565b61128c565b34801561047957600080fd5b50610400610488366004613a3b565b61159a565b34801561049957600080fd5b5061029d6104a836600461399e565b611766565b3480156104b957600080fd5b506102b56104c8366004613b6f565b61193e565b3480156104d957600080fd5b5061040061194e565b3480156104ee57600080fd5b5061029d6104fd366004613b6f565b6119e9565b34801561050e57600080fd5b5061029d611a3c565b34801561052357600080fd5b50610400610532366004613a75565b611b9b565b34801561054357600080fd5b5061029d610552366004613c04565b611c68565b34801561056357600080fd5b506102b560025481565b34801561057957600080fd5b5061058d610588366004613ba3565b611f74565b604051610274929190614238565b3480156105a757600080fd5b506102b56105b6366004613ba3565b6120a2565b3480156105c757600080fd5b5061029d6105d6366004613cbc565b61213b565b3480156105e757600080fd5b506105fb6105f6366004613b6f565b6123ff565b6040516102749897969594939291906141e4565b34801561061b57600080fd5b506103b061062a366004613bbf565b6124eb565b34801561063b57600080fd5b5061058d61064a366004613ba3565b612595565b34801561065b57600080fd5b506102b561066a366004613b88565b6126c2565b34801561067b57600080fd5b506006546102b5565b34801561069057600080fd5b5061029d61069f366004613b88565b612865565b3480156106b057600080fd5b50600954610260906001600160a01b031681565b3480156106d057600080fd5b50600554610260906001600160a01b031681565b3480156106f057600080fd5b5061058d6106ff366004613ba3565b612955565b34801561071057600080fd5b5061029d61071f366004613b88565b612abb565b34801561073057600080fd5b5061029d61073f366004613c04565b612bfc565b34801561075057600080fd5b5061029d61075f366004613aae565b613232565b34801561077057600080fd5b5061029d61077f366004613b6f565b613463565b6009546001600160a01b03163314806107a75750600a546001600160a01b031633145b806107b657506107b633610f49565b6107db5760405162461bcd60e51b81526004016107d29061425a565b60405180910390fd5b6001600160a01b0381166108285760405162461bcd60e51b81526020600482015260146024820152732722abafaa27a5a2a71d103d32b9379030b2323960611b60448201526064016107d2565b600980546001600160a01b0319166001600160a01b0392909216919091179055565b6009546001600160a01b031633148061086d5750600a546001600160a01b031633145b8061087c575061087c33610f49565b6108985760405162461bcd60e51b81526004016107d29061425a565b6001600160a01b0381166108e55760405162461bcd60e51b81526020600482015260146024820152732aa8222fa0a226a4a71d103d32b9379030b2323960611b60448201526064016107d2565b600a80546001600160a01b0319166001600160a01b0392909216919091179055565b60065460009063ffffffff8516106109315760405162461bcd60e51b81526004016107d290614282565b63ffffffff841660009081526007602090815260408083206001600160a01b0387168452825280832060ff86168452600190810183528184208251608081018452815481529181015493820193909352600283015491810182905260039092015460608301529091906109a49042614497565b6004549091506000906109b990600190614497565b90505b8015610a205781600382815481106109d6576109d66145fb565b906000526020600020015411610a0e57600481815481106109f9576109f96145fb565b90600052602060002001549350505050610a28565b80610a1881614501565b9150506109bc565b506000925050505b9392505050565b600060068263ffffffff1681548110610a4a57610a4a6145fb565b906000526020600020906008020190506000610b538260405180610100016040529081600082018054610a7c90614535565b80601f0160208091040260200160405190810160405280929190818152602001828054610aa890614535565b8015610af55780601f10610aca57610100808354040283529160200191610af5565b820191906000526020600020905b815481529060010190602001808311610ad857829003601f168201915b505050918352505060018201546001600160a01b03166020820152600282015460408201526003820154606082015260048201546080820152600582015460a0820152600682015460c082015260079091015460e0909101526134ff565b905081600701548111610b6557505050565b600282015480610b79575060079091015550565b6000610c728460405180610100016040529081600082018054610b9b90614535565b80601f0160208091040260200160405190810160405280929190818152602001828054610bc790614535565b8015610c145780601f10610be957610100808354040283529160200191610c14565b820191906000526020600020905b815481529060010190602001808311610bf757829003601f168201915b505050918352505060018201546001600160a01b03166020820152600282015460408201526003820154606082015260048201546080820152600582015460a0820152600682015460c082015260079091015460e09091015261352e565b610c80856007015485613566565b610c8a9190614457565b9050808460060154610c9c91906142f9565b6006850155505060079091015550565b60065460009063ffffffff851610610cd65760405162461bcd60e51b81526004016107d290614282565b600060068563ffffffff1681548110610cf157610cf16145fb565b906000526020600020906008020160405180610100016040529081600082018054610d1b90614535565b80601f0160208091040260200160405190810160405280929190818152602001828054610d4790614535565b8015610d945780601f10610d6957610100808354040283529160200191610d94565b820191906000526020600020905b815481529060010190602001808311610d7757829003601f168201915b505050505081526020016001820160009054906101000a90046001600160a01b03166001600160a01b03166001600160a01b03168152602001600282015481526020016003820154815260200160048201548152602001600582015481526020016006820154815260200160078201548152505090506000600760008763ffffffff1663ffffffff1681526020019081526020016000206000866001600160a01b03166001600160a01b03168152602001908152602001600020905060008160010160008660ff1660ff168152602001908152602001600020604051806080016040529081600082015481526020016001820154815260200160028201548152602001600382015481525050905060008360c0015190506000846040015190506000610ebf866134ff565b90508560e0015181118015610ed357508115155b15610f0b576000610ee38761352e565b610ef18860e0015184613566565b610efb9190614457565b9050610f0781856142f9565b9350505b60208401518451670de0b6b3a764000090610f27908690614457565b610f319190614336565b610f3b9190614497565b9a9950505050505050505050565b6001600160a01b031660009081526008602052604090205460ff1690565b60048181548110610f7757600080fd5b600091825260209091200154905081565b60065460609063ffffffff841610610fd25760405162461bcd60e51b815260206004820152600d60248201526c1ddc9bdb99c81c1bdbdb081a59609a1b60448201526064016107d2565b610fe18363ffffffff16613572565b604051602001610ff19190614169565b60405160208183030381529060405290508061101561101085856120a2565b613572565b604051602001611026929190613e3b565b604051602081830303815290604052905060006110438484611f74565b9150508161105082613572565b604051602001611061929190613def565b6040516020818303038152906040529150600061107e8585612595565b9150508261108b82613572565b60405160200161109c929190613ed7565b6040516020818303038152906040529250505092915050565b6009546001600160a01b03163314806110d85750600a546001600160a01b031633145b806110e757506110e733610f49565b6111035760405162461bcd60e51b81526004016107d29061425a565b6001600160a01b0381166111455760405162461bcd60e51b81526020600482015260096024820152683d32b9379030b2323960b91b60448201526064016107d2565b600580546001600160a01b0319166001600160a01b0392909216919091179055565b60065460609063ffffffff8416106111915760405162461bcd60e51b81526004016107d290614282565b63ffffffff831660009081526007602090815260408083206001600160a01b03861684529091529020805460ff166111d9575050604080516020810190915260008152611286565b60008080526001820160205260409020600301546111f690613572565b915060015b815460ff90811690821610156112835782604051806040016040528060018152602001602360f81b81525061124d8460010160008560ff1660ff16815260200190815260200160002060030154613572565b60405160200161125f93929190613d12565b6040516020818303038152906040529250808061127b906145af565b9150506111fb565b50505b92915050565b60065460609063ffffffff8316106112d65760405162461bcd60e51b815260206004820152600d60248201526c1ddc9bdb99c81c1bdbdb081a59609a1b60448201526064016107d2565b600060068363ffffffff16815481106112f1576112f16145fb565b90600052602060002090600802016040518061010001604052908160008201805461131b90614535565b80601f016020809104026020016040519081016040528092919081815260200182805461134790614535565b80156113945780601f1061136957610100808354040283529160200191611394565b820191906000526020600020905b81548152906001019060200180831161137757829003601f168201915b505050918352505060018201546001600160a01b03166020820152600282015460408201526003820154606082015260048201546080820152600582015460a0820152600682015460c082015260079091015460e09091015290506113fe63ffffffff8416613572565b60405160200161140e9190614122565b60408051601f1981840301815290829052825190935061143391849190602001613f6a565b604051602081830303815290604052915081611452826020015161369b565b604051602001611463929190613d55565b6040516020818303038152906040529150816114828260400151613572565b604051602001611493929190613e88565b6040516020818303038152906040529150816114b28260600151613572565b6040516020016114c392919061400f565b6040516020818303038152906040529150816114e28260800151613572565b6040516020016114f3929190613da7565b6040516020818303038152906040529150816115128260a00151613572565b604051602001611523929190613fc1565b6040516020818303038152906040529150816115428260c00151613572565b604051602001611553929190613f13565b6040516020818303038152906040529150816115728260e00151613572565b604051602001611583929190613ed7565b604051602081830303815290604052915050919050565b6040805180820190915260018152607b60f81b602082015260005b60065463ffffffff8216101561173e578215806116ea57506116ea60068263ffffffff16815481106115e9576115e96145fb565b90600052602060002090600802016040518061010001604052908160008201805461161390614535565b80601f016020809104026020016040519081016040528092919081815260200182805461163f90614535565b801561168c5780601f106116615761010080835404028352916020019161168c565b820191906000526020600020905b81548152906001019060200180831161166f57829003601f168201915b505050918352505060018201546001600160a01b03166020820152600282015460408201526003820154606082015260048201546080820152600582015460a0820152600682015460c082015260079091015460e0909101526137e2565b1561172c57816116ff8263ffffffff16613572565b6117088361128c565b60405160200161171a93929190614058565b60405160208183030381529060405291505b806117368161458b565b9150506115b5565b508060405160200161175091906140c6565b6040516020818303038152906040529050919050565b6009546001600160a01b03163314806117895750600a546001600160a01b031633145b80611798575061179833610f49565b6117b45760405162461bcd60e51b81526004016107d29061425a565b80516004146117fd5760405162461bcd60e51b8152602060048201526015602482015274706c656173652077726974652034206c6576656c7360581b60448201526064016107d2565b80600081518110611810576118106145fb565b6020026020010151600014801561185b575080600081518110611835576118356145fb565b602002602001015181600181518110611850576118506145fb565b602002602001015110155b801561189b575080600181518110611875576118756145fb565b602002602001015181600281518110611890576118906145fb565b602002602001015110155b80156118db5750806002815181106118b5576118b56145fb565b6020026020010151816003815181106118d0576118d06145fb565b602002602001015110155b6119275760405162461bcd60e51b815260206004820152601d60248201527f6c6576656c73206d757374206265206e6f6e2d64656372656173696e6700000060448201526064016107d2565b805161193a906003906020840190613851565b5050565b60038181548110610f7757600080fd5b604080516020810190915260008082525b60048160ff1610156119e55781604051806040016040528060018152602001602360f81b8152506119af60038460ff168154811061199f5761199f6145fb565b9060005260206000200154613572565b6040516020016119c193929190613d12565b604051602081830303815290604052915080806119dd906145af565b91505061195f565b5090565b6009546001600160a01b0316331480611a0c5750600a546001600160a01b031633145b80611a1b5750611a1b33610f49565b611a375760405162461bcd60e51b81526004016107d29061425a565b600255565b600054610100900460ff16611a575760005460ff1615611a5b565b303b155b611abe5760405162461bcd60e51b815260206004820152602e60248201527f496e697469616c697a61626c653a20636f6e747261637420697320616c72656160448201526d191e481a5b9a5d1a585b1a5e995960921b60648201526084016107d2565b600054610100900460ff16158015611ae0576000805461ffff19166101011790555b600a80546001600160a01b03191633179055606460015560006002818155604080516080810182528381526020810193909352820190611b239062015180614336565b815262015180602090910152611b3d906003906004613851565b5060408051608081018252624c4b408082526020820152622625a09181019190915260006060820152611b739060049081613898565b50600580546001600160a01b031916331790558015611b98576000805461ff00191690555b50565b6040805180820190915260018152607b60f81b602082015260005b60065463ffffffff82161015611c3f57831580611bea5750611bea60068263ffffffff16815481106115e9576115e96145fb565b15611c2d5781611bff8263ffffffff16613572565b611c098386610f88565b604051602001611c1b93929190614058565b60405160208183030381529060405291505b80611c378161458b565b915050611bb6565b5080604051602001611c5191906140f4565b604051602081830303815290604052905092915050565b60065463ffffffff831610611c8f5760405162461bcd60e51b81526004016107d290614282565b600060068363ffffffff1681548110611caa57611caa6145fb565b90600052602060002090600802019050611db68160405180610100016040529081600082018054611cda90614535565b80601f0160208091040260200160405190810160405280929190818152602001828054611d0690614535565b8015611d535780601f10611d2857610100808354040283529160200191611d53565b820191906000526020600020905b815481529060010190602001808311611d3657829003601f168201915b505050918352505060018201546001600160a01b03166020820152600282015460408201526003820154606082015260048201546080820152600582015460a0820152600682015460c082015260079091015460e0909101526080015142101590565b611dfd5760405162461bcd60e51b81526020600482015260186024820152771c1bdbdb081a185cc81b9bdd081cdd185c9d1959081e595d60421b60448201526064016107d2565b63ffffffff83166000908152600760209081526040808320338085529252909120611e2785610a2f565b600080805b86518160ff161015611ee5576000878260ff1681518110611e4f57611e4f6145fb565b6020026020010151905060008560010160008360ff1660ff16815260200190815260200160002090508060010154670de0b6b3a764000089600601548360000154611e9a9190614457565b611ea49190614336565b611eae9190614497565b9350611eba84866142f9565b9450838160010154611ecc91906142f9565b6001909101555080611edd816145af565b915050611e2c565b5060095460405163a9059cbb60e01b81526001600160a01b039091169063a9059cbb90611f1890879086906004016141b8565b602060405180830381600087803b158015611f3257600080fd5b505af1158015611f46573d6000803e3d6000fd5b505050506040513d601f19601f82011682018060405250810190611f6a9190613a58565b5050505050505050565b60065460609060009063ffffffff851610611fa15760405162461bcd60e51b81526004016107d290614282565b63ffffffff841660009081526007602090815260408083206001600160a01b03871684529091529020805460ff16611fed5750506040805160208101909152600080825290915061209b565b611ff985856000610cac565b915061200a61101086866000610cac565b925060015b815460ff908116908216101561209857600061202f87878460ff16610cac565b905061203b81856142f9565b935084604051806040016040528060018152602001602360f81b81525061206183613572565b60405160200161207393929190613d12565b6040516020818303038152906040529450508080612090906145af565b91505061200f565b50505b9250929050565b60065460009063ffffffff8416106120cc5760405162461bcd60e51b81526004016107d290614282565b5063ffffffff821660009081526007602090815260408083206001600160a01b03851684529091528120815b815460ff90811690821610156112835760ff8116600090815260018301602052604090205461212790846142f9565b925080612133816145af565b9150506120f8565b60065463ffffffff8316106121625760405162461bcd60e51b81526004016107d290614282565b600081116121a15760405162461bcd60e51b815260206004820152600c60248201526b706c65617365207374616b6560a01b60448201526064016107d2565b63ffffffff82166000908152600760209081526040808320338085529252909120600154815460ff16106122275760405162461bcd60e51b815260206004820152602760248201527f746f6f206d616e7920656e7469746965732c20706c6561736520776974686472604482015266617720736f6d6560c81b60648201526084016107d2565b600060068563ffffffff1681548110612242576122426145fb565b90600052602060002090600802019050612272816040518061010001604052908160008201805461161390614535565b6122ae5760405162461bcd60e51b815260206004820152600d60248201526c706f6f6c20696e61637469766560981b60448201526064016107d2565b6122b785610a2f565b60018101546040516323b872dd60e01b8152336004820152306024820152604481018690526001600160a01b03909116906323b872dd90606401602060405180830381600087803b15801561230b57600080fd5b505af115801561231f573d6000803e3d6000fd5b505050506040513d601f19601f820116820180604052508101906123439190613a58565b5083816002015461235491906142f9565b81600201819055506040518060800160405280858152602001670de0b6b3a76400008360060154876123869190614457565b6123909190614336565b81524260208083019190915260006040928301819052855460ff9081168252600180880184529184902085518155928501518383015592840151600283015560609093015160039091015583546123e992911690614311565b825460ff191660ff919091161790915550505050565b6006818154811061240f57600080fd5b906000526020600020906008020160009150905080600001805461243290614535565b80601f016020809104026020016040519081016040528092919081815260200182805461245e90614535565b80156124ab5780601f10612480576101008083540402835291602001916124ab565b820191906000526020600020905b81548152906001019060200180831161248e57829003601f168201915b5050505060018301546002840154600385015460048601546005870154600688015460079098015496976001600160a01b03909516969395509193909288565b60065460009063ffffffff8516106125155760405162461bcd60e51b81526004016107d290614282565b63ffffffff841660009081526007602090815260408083206001600160a01b0387168452825280832060ff861684526001908101835292819020815160808101835281548152938101549284019290925260028083015491840182905260039092015460608401529054429161258b91906142f9565b1095945050505050565b60065460609060009063ffffffff8516106125c25760405162461bcd60e51b81526004016107d290614282565b63ffffffff841660009081526007602090815260408083206001600160a01b03871684529091529020805460ff1661260f575050604080516020810190915260008152905060001961209b565b6000808052600182016020526040902060020154915061262e82613572565b925060015b815460ff90811690821610156120985760ff8116600090815260018084016020908152604092839020600201548351808501909452918352602360f81b9083015290859061268083613572565b60405160200161269293929190613d12565b6040516020818303038152906040529450838110156126af578093505b50806126ba816145af565b915050612633565b60065460009063ffffffff8316106126ec5760405162461bcd60e51b81526004016107d290614282565b600060068363ffffffff1681548110612707576127076145fb565b90600052602060002090600802016040518061010001604052908160008201805461273190614535565b80601f016020809104026020016040519081016040528092919081815260200182805461275d90614535565b80156127aa5780601f1061277f576101008083540402835291602001916127aa565b820191906000526020600020905b81548152906001019060200180831161278d57829003601f168201915b505050505081526020016001820160009054906101000a90046001600160a01b03166001600160a01b03166001600160a01b031681526020016002820154815260200160038201548152602001600482015481526020016005820154815260200160068201548152602001600782015481525050905080604001518160a00151670de0b6b3a76400006301e1338084606001516128479190614457565b6128519190614457565b61285b9190614336565b610a289190614336565b60065463ffffffff82161061288c5760405162461bcd60e51b81526004016107d290614282565b63ffffffff811660009081526007602090815260408083203384529091528120805490919060ff1667ffffffffffffffff8111156128cc576128cc614611565b6040519080825280602002602001820160405280156128f5578160200160208202803683370190505b50905060005b825460ff90811690821610156129455780828260ff1681518110612921576129216145fb565b60ff909216602092830291909101909101528061293d816145af565b9150506128fb565b506129508382611c68565b505050565b60065460609060009063ffffffff8516106129825760405162461bcd60e51b81526004016107d290614282565b63ffffffff841660009081526007602090815260408083206001600160a01b03871684529091529020805460ff166129ce5750506040805160208101909152600080825290915061209b565b60008080526001820160205260409020600381015490546129ef91906142f9565b6000808052600183016020526040902060038101549054919350612a179161101091906142f9565b925060015b815460ff90811690821610156120985760ff81166000908152600183016020526040812060038101549054612a5191906142f9565b905084604051806040016040528060018152602001602360f81b815250612a7783613572565b604051602001612a8993929190613d12565b60408051601f198184030181529190529450612aa581856142f9565b9350508080612ab3906145af565b915050612a1c565b60065463ffffffff821610612ae25760405162461bcd60e51b81526004016107d290614282565b63ffffffff811660009081526007602090815260408083203384529091528120805490919060ff1667ffffffffffffffff811115612b2257612b22614611565b604051908082528060200260200182016040528015612b4b578160200160208202803683370190505b50905060005b825460ff9081169082161015612bf557612b6f84338360ff166124eb565b612bbb5760405162461bcd60e51b815260206004820152601c60248201527f656e7469747920696e207769746864726177616c2074696d656f75740000000060448201526064016107d2565b80828260ff1681518110612bd157612bd16145fb565b60ff9092166020928302919091019091015280612bed816145af565b915050612b51565b5061295083825b60065463ffffffff831610612c235760405162461bcd60e51b81526004016107d290614282565b60005b8151811015612d3557612c568333848481518110612c4657612c466145fb565b602002602001015160ff166124eb565b612ca25760405162461bcd60e51b815260206004820152601c60248201527f656e7469747920696e207769746864726177616c2074696d656f75740000000060448201526064016107d2565b63ffffffff83166000908152600760209081526040808320338452909152902054825160ff90911690839083908110612cdd57612cdd6145fb565b602002602001015160ff1610612d235760405162461bcd60e51b815260206004820152600b60248201526a0eee4dedcce40d2dcc8caf60ab1b60448201526064016107d2565b80612d2d81614570565b915050612c26565b5063ffffffff82166000908152600760209081526040808320338085529252909120612d6084610a2f565b600060068563ffffffff1681548110612d7b57612d7b6145fb565b906000526020600020906008020190506000806000808060005b8951811015612ec55760008860010160008c8481518110612db857612db86145fb565b602002602001015160ff1660ff1681526020019081526020016000209050806000015492508060010154670de0b6b3a764000089600601548360000154612dff9190614457565b612e099190614336565b612e139190614497565b9350612e1f84886142f9565b96506305f5e100612e4d8d8c8e8681518110612e3d57612e3d6145fb565b602002602001015160ff16610907565b612e579085614457565b612e619190614336565b612e6b90876142f9565b9550612e7783866142f9565b9450838160010154612e8991906142f9565b60018201558054612e9b908490614497565b81556003810154612ead9084906142f9565b60039091015580612ebd81614570565b915050612d95565b5060095460405163a9059cbb60e01b81526001600160a01b039091169063a9059cbb90612ef8908b9089906004016141b8565b602060405180830381600087803b158015612f1257600080fd5b505af1158015612f26573d6000803e3d6000fd5b505050506040513d601f19601f82011682018060405250810190612f4a9190613a58565b5060008411612f5a576000612fe4565b600186015460055460405163a9059cbb60e01b81526001600160a01b039283169263a9059cbb92612f929291169088906004016141b8565b602060405180830381600087803b158015612fac57600080fd5b505af1158015612fc0573d6000803e3d6000fd5b505050506040513d601f19601f82011682018060405250810190612fe49190613a58565b5060018601546001600160a01b031663a9059cbb896130038787614497565b6040518363ffffffff1660e01b81526004016130209291906141b8565b602060405180830381600087803b15801561303a57600080fd5b505af115801561304e573d6000803e3d6000fd5b505050506040513d601f19601f820116820180604052508101906130729190613a58565b508286600201546130839190614497565b60028701558654600090819061309e9060019060ff166144ae565b90506130cb6040518060800160405280600081526020016000815260200160008152602001600081525090565b895460ff9081169084161080156130f5575060ff8316600090815260018b01602052604090205415155b1561310c5782613104816145af565b9350506130cb565b60ff8216600090815260018b0160205260409020546131445760ff821661313257613144565b8161313c81614518565b92505061310c565b8160ff168360ff1610613156576131e7565b5060ff80821660009081526001808c016020818152604080852081516080810183528154815281860154818501908152600280840154838601908152600394850154606085019081529a8d168a529690955292909620865181559151948201949094559151908201559251920191909155826131d1816145af565b93505081806131df90614518565b9250506130cb565b60ff8216600090815260018b016020526040902054156132115761320c826001614311565b613214565b60005b8a5460ff191660ff9190911617909955505050505050505050505050565b6009546001600160a01b03163314806132555750600a546001600160a01b031633145b80613264575061326433610f49565b6132805760405162461bcd60e51b81526004016107d29061425a565b428210156132db5760405162461bcd60e51b815260206004820152602260248201527f73746172742074696d652073686f756c6420626520696e207468652066757475604482015261726560f01b60648201526084016107d2565b6009546040516323b872dd60e01b8152336004820152306024820152604481018590526001600160a01b03909116906323b872dd90606401602060405180830381600087803b15801561332d57600080fd5b505af1158015613341573d6000803e3d6000fd5b505050506040513d601f19601f820116820180604052508101906133659190613a58565b5060408051610100810182528681526001600160a01b0386166020808301919091526000928201839052606082018690526080820185905260a0820184905260c0820183905260e082018590526006805460018101825593528151805192936008027ff652222313e28459528d920b65115c16c04f3efc82aaedc97be59f3f377c0d3f01926133f792849201906138da565b5060208201516001820180546001600160a01b0319166001600160a01b0390921691909117905560408201516002820155606082015160038201556080820151600482015560a0820151600582015560c0820151600682015560e0909101516007909101555050505050565b6009546001600160a01b03163314806134865750600a546001600160a01b031633145b80613495575061349533610f49565b6134b15760405162461bcd60e51b81526004016107d29061425a565b600081116134fa5760405162461bcd60e51b81526020600482015260166024820152756c696d6974206d75737420626520706f73697469766560501b60448201526064016107d2565b600155565b600061350a826137e2565b613527578160a00151826080015161352291906142f9565b611286565b4292915050565b600081604001518260a00151670de0b6b3a764000084606001516135529190614457565b61355c9190614336565b6112869190614336565b6000610a288383614497565b6060816135965750506040805180820190915260018152600360fc1b602082015290565b8160005b81156135c057806135aa81614570565b91506135b99050600a83614336565b915061359a565b60008167ffffffffffffffff8111156135db576135db614611565b6040519080825280601f01601f191660200182016040528015613605576020820181803683370190505b509050815b85156136925761361b600182614497565b9050600061362a600a88614336565b61363590600a614457565b61363f9088614497565b61364a906030614311565b905060008160f81b905080848481518110613667576136676145fb565b60200101906001600160f81b031916908160001a905350613689600a89614336565b9750505061360a565b50949350505050565b60408051602880825260608281019093526000919060208201818036833701905050905060005b60148110156137db5760006136d8826013614497565b6136e3906008614457565b6136ee9060026143af565b613701906001600160a01b038716614336565b60f81b9050600060108260f81c613718919061434a565b60f81b905060008160f81c601061372f9190614476565b8360f81c61373d91906144ae565b60f81b905061374b82613816565b85613757866002614457565b81518110613767576137676145fb565b60200101906001600160f81b031916908160001a90535061378781613816565b85613793866002614457565b61379e9060016142f9565b815181106137ae576137ae6145fb565b60200101906001600160f81b031916908160001a90535050505080806137d390614570565b9150506136c2565b5092915050565b60006137f2826080015142101590565b801561128657508160a00151826080015161380d91906142f9565b42111592915050565b6000600a60f883901c101561383d5761383460f883901c6030614311565b60f81b92915050565b61383460f883901c6057614311565b919050565b82805482825590600052602060002090810192821561388c579160200282015b8281111561388c578251825591602001919060010190613871565b506119e592915061394d565b82805482825590600052602060002090810192821561388c579160200282015b8281111561388c578251829062ffffff169055916020019190600101906138b8565b8280546138e690614535565b90600052602060002090601f016020900481019282613908576000855561388c565b82601f1061392157805160ff191683800117855561388c565b8280016001018555821561388c579182018281111561388c578251825591602001919060010190613871565b5b808211156119e5576000815560010161394e565b803561384c81614627565b803563ffffffff8116811461384c57600080fd5b60006020828403121561399357600080fd5b8135610a2881614627565b600060208083850312156139b157600080fd5b823567ffffffffffffffff8111156139c857600080fd5b8301601f810185136139d957600080fd5b80356139ec6139e7826142d5565b6142a4565b80828252848201915084840188868560051b8701011115613a0c57600080fd5b600094505b83851015613a2f578035835260019490940193918501918501613a11565b50979650505050505050565b600060208284031215613a4d57600080fd5b8135610a288161463c565b600060208284031215613a6a57600080fd5b8151610a288161463c565b60008060408385031215613a8857600080fd5b8235613a938161463c565b91506020830135613aa381614627565b809150509250929050565b600080600080600060a08688031215613ac657600080fd5b853567ffffffffffffffff80821115613ade57600080fd5b818801915088601f830112613af257600080fd5b8135602082821115613b0657613b06614611565b613b18601f8301601f191682016142a4565b92508183528a81838601011115613b2e57600080fd5b81818501828501376000818385010152829850613b4c818b01613962565b989b989a5050505060408701359660608101359660809091013595509350505050565b600060208284031215613b8157600080fd5b5035919050565b600060208284031215613b9a57600080fd5b610a288261396d565b60008060408385031215613bb657600080fd5b613a938361396d565b600080600060608486031215613bd457600080fd5b613bdd8461396d565b92506020840135613bed81614627565b9150613bfb6040850161396d565b90509250925092565b60008060408385031215613c1757600080fd5b613c208361396d565b915060208084013567ffffffffffffffff811115613c3d57600080fd5b8401601f81018613613c4e57600080fd5b8035613c5c6139e7826142d5565b80828252848201915084840189868560051b8701011115613c7c57600080fd5b60009450845b84811015613cac57813560ff81168114613c9a578687fd5b84529286019290860190600101613c82565b5096999098509650505050505050565b60008060408385031215613ccf57600080fd5b613cd88361396d565b946020939093013593505050565b60008151808452613cfe8160208601602086016144d1565b601f01601f19169290920160200192915050565b60008451613d248184602089016144d1565b845190830190613d388183602089016144d1565b8451910190613d4b8183602088016144d1565b0195945050505050565b60008351613d678184602088016144d1565b835190830190613d7b8183602088016144d1565b7711161139ba30b5b2b220b6b7bab73a24b72837b7b6111d1160411b9101908152601801949350505050565b60008351613db98184602088016144d1565b835190830190613dcd8183602088016144d1565b6d111611323ab930ba34b7b7111d1160911b9101908152600e01949350505050565b60008351613e018184602088016144d1565b835190830190613e158183602088016144d1565b7111161136b4b72a34b6b2b9ba30b6b8111d1160711b9101908152601201949350505050565b60008351613e4d8184602088016144d1565b835190830190613e618183602088016144d1565b721116113832b73234b733a932bbb0b932111d1160691b9101908152601301949350505050565b60008351613e9a8184602088016144d1565b835190830190613eae8183602088016144d1565b741116113a37ba30b62234b9ba3934b13aba32911d1160591b9101908152601501949350505050565b60008351613ee98184602088016144d1565b835190830190613efd8183602088016144d1565b61227d60f01b9101908152600201949350505050565b60008351613f258184602088016144d1565b835190830190613f398183602088016144d1565b7f222c226c61737452657761726454696d657374616d70223a22000000000000009101908152601901949350505050565b60008351613f7c8184602088016144d1565b835190830190613f908183602088016144d1565b7f222c227374616b696e67546f6b656e41646472657373223a22000000000000009101908152601901949350505050565b60008351613fd38184602088016144d1565b835190830190613fe78183602088016144d1565b7311161130b1b1983c212832b929b430b932911d1160611b9101908152601401949350505050565b600083516140218184602088016144d1565b8351908301906140358183602088016144d1565b6e11161139ba30b93a2a34b6b2911d1160891b9101908152600f01949350505050565b6000845161406a8184602089016144d1565b601160f91b90830190815284516140888160018401602089016144d1565b61111d60f11b6001929091019182015283516140ab8160038401602088016144d1565b600b60fa1b6003929091019182015260040195945050505050565b600082516140d88184602087016144d1565b6922696e666f223a22227d60b01b920191825250600a01919050565b600082516141068184602087016144d1565b692275736572223a22227d60b01b920191825250600a01919050565b693d9134b73232bc111d1160b11b8152815160009061414881600a8501602087016144d1565b691116113730b6b2911d1160b11b600a939091019283015250601401919050565b693d9134b73232bc111d1160b11b8152815160009061418f81600a8501602087016144d1565b7111161139ba30b5b2b220b6b7bab73a111d1160711b600a939091019283015250601c01919050565b6001600160a01b03929092168252602082015260400190565b602081526000610a286020830184613ce6565b60006101008083526141f88184018c613ce6565b6001600160a01b039a909a166020840152505060408101969096526060860194909452608085019290925260a084015260c083015260e090910152919050565b60408152600061424b6040830185613ce6565b90508260208301529392505050565b6020808252600e908201526d4163636573732044656e6965642160901b604082015260600190565b6020808252600890820152671ddc9bdb99c81a5960c21b604082015260600190565b604051601f8201601f1916810167ffffffffffffffff811182821017156142cd576142cd614611565b604052919050565b600067ffffffffffffffff8211156142ef576142ef614611565b5060051b60200190565b6000821982111561430c5761430c6145cf565b500190565b600060ff821660ff84168060ff0382111561432e5761432e6145cf565b019392505050565b600082614345576143456145e5565b500490565b600060ff83168061435d5761435d6145e5565b8060ff84160491505092915050565b600181815b808511156143a757816000190482111561438d5761438d6145cf565b8085161561439a57918102915b93841c9390800290614371565b509250929050565b6000610a2883836000826143c557506001611286565b816143d257506000611286565b81600181146143e857600281146143f25761440e565b6001915050611286565b60ff841115614403576144036145cf565b50506001821b611286565b5060208310610133831016604e8410600b8410161715614431575081810a611286565b61443b838361436c565b806000190482111561444f5761444f6145cf565b029392505050565b6000816000190483118215151615614471576144716145cf565b500290565b600060ff821660ff84168160ff048111821515161561444f5761444f6145cf565b6000828210156144a9576144a96145cf565b500390565b600060ff821660ff8416808210156144c8576144c86145cf565b90039392505050565b60005b838110156144ec5781810151838201526020016144d4565b838111156144fb576000848401525b50505050565b600081614510576145106145cf565b506000190190565b600060ff82168061452b5761452b6145cf565b6000190192915050565b600181811c9082168061454957607f821691505b6020821081141561456a57634e487b7160e01b600052602260045260246000fd5b50919050565b6000600019821415614584576145846145cf565b5060010190565b600063ffffffff808316818114156145a5576145a56145cf565b6001019392505050565b600060ff821660ff8114156145c6576145c66145cf565b60010192915050565b634e487b7160e01b600052601160045260246000fd5b634e487b7160e01b600052601260045260246000fd5b634e487b7160e01b600052603260045260246000fd5b634e487b7160e01b600052604160045260246000fd5b6001600160a01b0381168114611b9857600080fd5b8015158114611b9857600080fdfea164736f6c6343000807000a",
  "devdoc": {
    "kind": "dev",
    "methods": {
      "addPool(string,address,uint256,uint256,uint256)": {
        "params": {
          "_duration": "duration of pool",
          "_startTime": "timestamp to start pool",
          "_token": "address of token",
          "_totalDistribute": "total distribution in 0xB for this pool"
        }
      },
      "claimAllReward(uint32)": {
        "details": "update reward debt and send reward to user",
        "params": {
          "_poolId": "index of pool"
        }
      },
      "claimReward(uint32,uint8[])": {
        "details": "update reward debt and send reward to user",
        "params": {
          "_indices": "indices of entities",
          "_poolId": "index of pool"
        }
      },
      "deposit(uint32,uint256)": {
        "details": "add new entity to control staking timestamp and taxes, never add token to older entities. Set rewardDebt to amount of reward currently.",
        "params": {
          "_amount": "amount to stake",
          "_poolId": "index of one pool"
        }
      },
      "getAPR(uint32)": {
        "params": {
          "_poolId": "index of pool"
        },
        "returns": {
          "apr": "current APR of a pool"
        }
      },
      "getJSONAllPoolsInfo(bool)": {
        "params": {
          "_onlyActive": "decide if only return info of active pool"
        },
        "returns": {
          "res": "JSON"
        }
      },
      "getJSONAllPoolsUser(bool,address)": {
        "params": {
          "_onlyActive": "decide if only return info of active pool",
          "_user": "address of an user"
        },
        "returns": {
          "res": "JSON"
        }
      },
      "getJSONSinglePoolInfo(uint32)": {
        "params": {
          "_poolId": "index of pool"
        },
        "returns": {
          "res": "JSON"
        }
      },
      "getJSONSinglePoolUser(uint32,address)": {
        "params": {
          "_poolId": "index of pool",
          "_user": "address of an user"
        },
        "returns": {
          "res": "JSON"
        }
      },
      "getPoolsCount()": {
        "returns": {
          "_0": "len number of pools"
        }
      },
      "getTaxLevels()": {
        "returns": {
          "res": "levels of pools, separated by SEPARATOR"
        }
      },
      "getUserPendingReward(uint32,address)": {
        "details": "result is returned as a string, which entities is separated with SEPARATOR",
        "params": {
          "_poolId": "index of pool",
          "addr": "address of user"
        },
        "returns": {
          "res": "result as a string"
        }
      },
      "getUserStakeAmounts(uint32,address)": {
        "details": "result is returned as a string, which entities is separated with SEPARATORfor each entity, the amount staked at first is separated into 2 variable: amount + withdrawn",
        "params": {
          "_poolId": "index of pool",
          "addr": "address of user"
        },
        "returns": {
          "res": "result as a string"
        }
      },
      "getUserTimestamps(uint32,address)": {
        "details": "result is returned as a string, which entities is separated with SEPARATOR",
        "params": {
          "_poolId": "index of pool",
          "addr": "address of user"
        },
        "returns": {
          "res": "result as a string"
        }
      },
      "getUserUnstakedAmount(uint32,address)": {
        "details": "result is returned as a string, which entities is separated with SEPARATOR",
        "params": {
          "_poolId": "index of pool",
          "addr": "address of user"
        },
        "returns": {
          "res": "result as a string"
        }
      },
      "isWhitelisted(address)": {
        "params": {
          "addr": "address to query"
        },
        "returns": {
          "_0": "isWhitelisted true if `addr` is whitelisted"
        }
      },
      "pendingReward(uint32,address,uint32)": {
        "details": "the accumulated reward per share is considered, add with reward from latest pool updateusing current state of pool (total token in pool).the formula is: (a * n) + delta(now - l) * c - rewardDebta: accumulatedRewardPerShare in pool, n: total share, delta(now - l): seconds since last updatec: current reward per share per second, rewardDebt: reward already claimed by user in this pool",
        "params": {
          "_index": "index of some entity",
          "_poolId": "id of pool",
          "addr": "address of user"
        },
        "returns": {
          "_0": "reward pending reward of user"
        }
      },
      "setTaxLevels(uint256[])": {
        "params": {
          "_newLevels": "levels of new taxes"
        }
      },
      "setToken(address)": {
        "params": {
          "_token": "address of 0xB"
        }
      },
      "setWithdrawTaxPool(address)": {
        "params": {
          "_pool": "new tax pool"
        }
      },
      "setWithdrawTimeout(uint256)": {
        "params": {
          "_timeout": "new timeout"
        }
      },
      "setstakingRecordsLimitPerPool(uint256)": {
        "params": {
          "_newLimit": "new limit"
        }
      },
      "taxOfEntity(uint32,address,uint32)": {
        "params": {
          "_index": "index of entity",
          "_poolId": "index of a pool",
          "addr": "address of an entity owner"
        },
        "returns": {
          "_0": "tax amount of tax of an entity"
        }
      },
      "totalStakeOfUser(uint32,address)": {
        "params": {
          "_poolId": "index of pool",
          "addr": "address of the user"
        },
        "returns": {
          "totalStake": "total amount of token staked in the user"
        }
      },
      "updatePool(uint32)": {
        "details": "update accumulated reward per share of a pool for sake of reward optimization",
        "params": {
          "_poolId": "index of pool"
        }
      },
      "withdraw(uint32,uint8[])": {
        "details": "same as withdraw, relocations of entities from an user is required",
        "params": {
          "_entityIndices": "indices of entities to withdraw",
          "_poolId": "index of pool"
        }
      },
      "withdrawAll(uint32)": {
        "details": "call withdraw() with second params being all withdraw.",
        "params": {
          "_poolId": "index of pool"
        }
      },
      "withdrawable(uint32,address,uint32)": {
        "params": {
          "_index": "index of entity",
          "_poolId": "index of a pool",
          "addr": "address of an entity owner"
        },
        "returns": {
          "_0": "withdrawable true if the entity is withdrawable"
        }
      }
    },
    "version": 1
  },
  "userdoc": {
    "kind": "user",
    "methods": {
      "addPool(string,address,uint256,uint256,uint256)": {
        "notice": "add new pool to stake token"
      },
      "claimAllReward(uint32)": {
        "notice": "claim all reward from all entity of pool"
      },
      "claimReward(uint32,uint8[])": {
        "notice": "claim all reward from some entities "
      },
      "deposit(uint32,uint256)": {
        "notice": "deposit _amount of token to the pool with index _poolId to start new entity of staking"
      },
      "getAPR(uint32)": {
        "notice": "calculate the current APR of one pool"
      },
      "getJSONAllPoolsInfo(bool)": {
        "notice": "return a JSON includes info of all pool, can choose to get only active pools or not"
      },
      "getJSONAllPoolsUser(bool,address)": {
        "notice": "return a JSON includes info of all pool that specific to an user, can choose to get only active pools or not"
      },
      "getJSONSinglePoolInfo(uint32)": {
        "notice": "return a JSON includes all info of a pool"
      },
      "getJSONSinglePoolUser(uint32,address)": {
        "notice": "return a JSON includes all info of an user in a pool"
      },
      "getPoolsCount()": {
        "notice": "number of pools "
      },
      "getTaxLevels()": {
        "notice": "tax levels as a string"
      },
      "getUserPendingReward(uint32,address)": {
        "notice": "get the pending rewards of every entity that user staked in one pool"
      },
      "getUserStakeAmounts(uint32,address)": {
        "notice": "get the stake amount of every entity that user staked in one pool"
      },
      "getUserTimestamps(uint32,address)": {
        "notice": "get the timestamps of every entity that user staked in one pool"
      },
      "getUserUnstakedAmount(uint32,address)": {
        "notice": "get the unstaked amount of every entity that user staked in one pool"
      },
      "isWhitelisted(address)": {
        "notice": "show if an address is whitelisted to create a pool"
      },
      "pendingReward(uint32,address,uint32)": {
        "notice": "calculate the unclaimed reward of a user in one entity"
      },
      "setTaxLevels(uint256[])": {
        "notice": "set tax levels"
      },
      "setToken(address)": {
        "notice": "set address of 0xB token"
      },
      "setWithdrawTaxPool(address)": {
        "notice": "set new withdrawal tax pool"
      },
      "setWithdrawTimeout(uint256)": {
        "notice": "set new withdrawal timeout"
      },
      "setstakingRecordsLimitPerPool(uint256)": {
        "notice": "set new staking entities limit"
      },
      "taxOfEntity(uint32,address,uint32)": {
        "notice": "return current tax of an entity"
      },
      "totalStakeOfUser(uint32,address)": {
        "notice": "calculate total stake of one address in a pool"
      },
      "updatePool(uint32)": {
        "notice": "update data in a staking pool"
      },
      "withdraw(uint32,uint8[])": {
        "notice": "withdraw all tokens from some entity."
      },
      "withdrawAll(uint32)": {
        "notice": "withdraw all entities of an user."
      },
      "withdrawable(uint32,address,uint32)": {
        "notice": "show if an entity is withdrawable"
      }
    },
    "version": 1
  },
  "storageLayout": {
    "storage": [
      {
        "astId": 598,
        "contract": "contracts/dependencies/Staking.sol:Staking",
        "label": "_initialized",
        "offset": 0,
        "slot": "0",
        "type": "t_bool"
      },
      {
        "astId": 601,
        "contract": "contracts/dependencies/Staking.sol:Staking",
        "label": "_initializing",
        "offset": 1,
        "slot": "0",
        "type": "t_bool"
      },
      {
        "astId": 10232,
        "contract": "contracts/dependencies/Staking.sol:Staking",
        "label": "stakingRecordsLimitPerPool",
        "offset": 0,
        "slot": "1",
        "type": "t_uint256"
      },
      {
        "astId": 10234,
        "contract": "contracts/dependencies/Staking.sol:Staking",
        "label": "withdrawTimeout",
        "offset": 0,
        "slot": "2",
        "type": "t_uint256"
      },
      {
        "astId": 10237,
        "contract": "contracts/dependencies/Staking.sol:Staking",
        "label": "withdrawTaxLevel",
        "offset": 0,
        "slot": "3",
        "type": "t_array(t_uint256)dyn_storage"
      },
      {
        "astId": 10240,
        "contract": "contracts/dependencies/Staking.sol:Staking",
        "label": "withdrawTaxPortion",
        "offset": 0,
        "slot": "4",
        "type": "t_array(t_uint256)dyn_storage"
      },
      {
        "astId": 10242,
        "contract": "contracts/dependencies/Staking.sol:Staking",
        "label": "earlyWithdrawTaxPool",
        "offset": 0,
        "slot": "5",
        "type": "t_address"
      },
      {
        "astId": 10246,
        "contract": "contracts/dependencies/Staking.sol:Staking",
        "label": "pools",
        "offset": 0,
        "slot": "6",
        "type": "t_array(t_struct(PoolInfo)10230_storage)dyn_storage"
      },
      {
        "astId": 10253,
        "contract": "contracts/dependencies/Staking.sol:Staking",
        "label": "userInfo",
        "offset": 0,
        "slot": "7",
        "type": "t_mapping(t_uint32,t_mapping(t_address,t_struct(UserStakeInfo)10212_storage))"
      },
      {
        "astId": 10257,
        "contract": "contracts/dependencies/Staking.sol:Staking",
        "label": "whitelistAuthorities",
        "offset": 0,
        "slot": "8",
        "type": "t_mapping(t_address,t_bool)"
      },
      {
        "astId": 10259,
        "contract": "contracts/dependencies/Staking.sol:Staking",
        "label": "token0xBAddress",
        "offset": 0,
        "slot": "9",
        "type": "t_address"
      },
      {
        "astId": 10261,
        "contract": "contracts/dependencies/Staking.sol:Staking",
        "label": "admin0xB",
        "offset": 0,
        "slot": "10",
        "type": "t_address"
      }
    ],
    "types": {
      "t_address": {
        "encoding": "inplace",
        "label": "address",
        "numberOfBytes": "20"
      },
      "t_array(t_struct(PoolInfo)10230_storage)dyn_storage": {
        "base": "t_struct(PoolInfo)10230_storage",
        "encoding": "dynamic_array",
        "label": "struct Staking.PoolInfo[]",
        "numberOfBytes": "32"
      },
      "t_array(t_uint256)dyn_storage": {
        "base": "t_uint256",
        "encoding": "dynamic_array",
        "label": "uint256[]",
        "numberOfBytes": "32"
      },
      "t_bool": {
        "encoding": "inplace",
        "label": "bool",
        "numberOfBytes": "1"
      },
      "t_contract(IERC20)2517": {
        "encoding": "inplace",
        "label": "contract IERC20",
        "numberOfBytes": "20"
      },
      "t_mapping(t_address,t_bool)": {
        "encoding": "mapping",
        "key": "t_address",
        "label": "mapping(address => bool)",
        "numberOfBytes": "32",
        "value": "t_bool"
      },
      "t_mapping(t_address,t_struct(UserStakeInfo)10212_storage)": {
        "encoding": "mapping",
        "key": "t_address",
        "label": "mapping(address => struct Staking.UserStakeInfo)",
        "numberOfBytes": "32",
        "value": "t_struct(UserStakeInfo)10212_storage"
      },
      "t_mapping(t_uint32,t_mapping(t_address,t_struct(UserStakeInfo)10212_storage))": {
        "encoding": "mapping",
        "key": "t_uint32",
        "label": "mapping(uint32 => mapping(address => struct Staking.UserStakeInfo))",
        "numberOfBytes": "32",
        "value": "t_mapping(t_address,t_struct(UserStakeInfo)10212_storage)"
      },
      "t_mapping(t_uint8,t_struct(StakeEntity)10204_storage)": {
        "encoding": "mapping",
        "key": "t_uint8",
        "label": "mapping(uint8 => struct Staking.StakeEntity)",
        "numberOfBytes": "32",
        "value": "t_struct(StakeEntity)10204_storage"
      },
      "t_string_storage": {
        "encoding": "bytes",
        "label": "string",
        "numberOfBytes": "32"
      },
      "t_struct(PoolInfo)10230_storage": {
        "encoding": "inplace",
        "label": "struct Staking.PoolInfo",
        "members": [
          {
            "astId": 10214,
            "contract": "contracts/dependencies/Staking.sol:Staking",
            "label": "name",
            "offset": 0,
            "slot": "0",
            "type": "t_string_storage"
          },
          {
            "astId": 10217,
            "contract": "contracts/dependencies/Staking.sol:Staking",
            "label": "stakingToken",
            "offset": 0,
            "slot": "1",
            "type": "t_contract(IERC20)2517"
          },
          {
            "astId": 10219,
            "contract": "contracts/dependencies/Staking.sol:Staking",
            "label": "stakedAmountInPool",
            "offset": 0,
            "slot": "2",
            "type": "t_uint256"
          },
          {
            "astId": 10221,
            "contract": "contracts/dependencies/Staking.sol:Staking",
            "label": "totalDistribute",
            "offset": 0,
            "slot": "3",
            "type": "t_uint256"
          },
          {
            "astId": 10223,
            "contract": "contracts/dependencies/Staking.sol:Staking",
            "label": "startTime",
            "offset": 0,
            "slot": "4",
            "type": "t_uint256"
          },
          {
            "astId": 10225,
            "contract": "contracts/dependencies/Staking.sol:Staking",
            "label": "duration",
            "offset": 0,
            "slot": "5",
            "type": "t_uint256"
          },
          {
            "astId": 10227,
            "contract": "contracts/dependencies/Staking.sol:Staking",
            "label": "acc0xBPerShare",
            "offset": 0,
            "slot": "6",
            "type": "t_uint256"
          },
          {
            "astId": 10229,
            "contract": "contracts/dependencies/Staking.sol:Staking",
            "label": "lastRewardTimestamp",
            "offset": 0,
            "slot": "7",
            "type": "t_uint256"
          }
        ],
        "numberOfBytes": "256"
      },
      "t_struct(StakeEntity)10204_storage": {
        "encoding": "inplace",
        "label": "struct Staking.StakeEntity",
        "members": [
          {
            "astId": 10197,
            "contract": "contracts/dependencies/Staking.sol:Staking",
            "label": "amount",
            "offset": 0,
            "slot": "0",
            "type": "t_uint256"
          },
          {
            "astId": 10199,
            "contract": "contracts/dependencies/Staking.sol:Staking",
            "label": "rewardDebt",
            "offset": 0,
            "slot": "1",
            "type": "t_uint256"
          },
          {
            "astId": 10201,
            "contract": "contracts/dependencies/Staking.sol:Staking",
            "label": "creationTime",
            "offset": 0,
            "slot": "2",
            "type": "t_uint256"
          },
          {
            "astId": 10203,
            "contract": "contracts/dependencies/Staking.sol:Staking",
            "label": "withdrawn",
            "offset": 0,
            "slot": "3",
            "type": "t_uint256"
          }
        ],
        "numberOfBytes": "128"
      },
      "t_struct(UserStakeInfo)10212_storage": {
        "encoding": "inplace",
        "label": "struct Staking.UserStakeInfo",
        "members": [
          {
            "astId": 10206,
            "contract": "contracts/dependencies/Staking.sol:Staking",
            "label": "size",
            "offset": 0,
            "slot": "0",
            "type": "t_uint8"
          },
          {
            "astId": 10211,
            "contract": "contracts/dependencies/Staking.sol:Staking",
            "label": "entities",
            "offset": 0,
            "slot": "1",
            "type": "t_mapping(t_uint8,t_struct(StakeEntity)10204_storage)"
          }
        ],
        "numberOfBytes": "64"
      },
      "t_uint256": {
        "encoding": "inplace",
        "label": "uint256",
        "numberOfBytes": "32"
      },
      "t_uint32": {
        "encoding": "inplace",
        "label": "uint32",
        "numberOfBytes": "4"
      },
      "t_uint8": {
        "encoding": "inplace",
        "label": "uint8",
        "numberOfBytes": "1"
      }
    }
  }
}