{
  "address": "0x8ED0a1A3c450c03A4F17fbd325653A9FEa89D963",
  "abi": [
    {
      "anonymous": false,
      "inputs": [
        {
          "indexed": true,
          "internalType": "address",
          "name": "previousOwner",
          "type": "address"
        },
        {
          "indexed": true,
          "internalType": "address",
          "name": "newOwner",
          "type": "address"
        }
      ],
      "name": "OwnershipTransferred",
      "type": "event"
    },
    {
      "anonymous": false,
      "inputs": [
        {
          "indexed": true,
          "internalType": "address",
          "name": "token",
          "type": "address"
        },
        {
          "indexed": true,
          "internalType": "address",
          "name": "lpToken",
          "type": "address"
        },
        {
          "indexed": true,
          "internalType": "uint256",
          "name": "amount",
          "type": "uint256"
        },
        {
          "indexed": false,
          "internalType": "bytes32",
          "name": "protocol",
          "type": "bytes32"
        }
      ],
      "name": "ZapIn",
      "type": "event"
    },
    {
      "anonymous": false,
      "inputs": [
        {
          "indexed": true,
          "internalType": "address",
          "name": "lpToken",
          "type": "address"
        },
        {
          "indexed": true,
          "internalType": "uint256",
          "name": "amount",
          "type": "uint256"
        },
        {
          "indexed": false,
          "internalType": "bytes32",
          "name": "protocol",
          "type": "bytes32"
        }
      ],
      "name": "ZapOut",
      "type": "event"
    },
    {
      "inputs": [
        {
          "internalType": "address",
          "name": "token_",
          "type": "address"
        }
      ],
      "name": "changeUSDCAddress",
      "outputs": [],
      "stateMutability": "nonpayable",
      "type": "function"
    },
    {
      "inputs": [
        {
          "internalType": "address",
          "name": "token_",
          "type": "address"
        }
      ],
      "name": "changeUSDTAddress",
      "outputs": [],
      "stateMutability": "nonpayable",
      "type": "function"
    },
    {
      "inputs": [
        {
          "internalType": "address",
          "name": "_usdtToken",
          "type": "address"
        },
        {
          "internalType": "address",
          "name": "_wrappedNative",
          "type": "address"
        },
        {
          "internalType": "address",
          "name": "_usdcToken",
          "type": "address"
        }
      ],
      "name": "initialize",
      "outputs": [],
      "stateMutability": "nonpayable",
      "type": "function"
    },
    {
      "inputs": [],
      "name": "owner",
      "outputs": [
        {
          "internalType": "address",
          "name": "",
          "type": "address"
        }
      ],
      "stateMutability": "view",
      "type": "function"
    },
    {
      "inputs": [
        {
          "internalType": "bytes32",
          "name": "",
          "type": "bytes32"
        }
      ],
      "name": "protocols",
      "outputs": [
        {
          "internalType": "address",
          "name": "router",
          "type": "address"
        },
        {
          "internalType": "address",
          "name": "factory",
          "type": "address"
        }
      ],
      "stateMutability": "view",
      "type": "function"
    },
    {
      "inputs": [],
      "name": "renounceOwnership",
      "outputs": [],
      "stateMutability": "nonpayable",
      "type": "function"
    },
    {
      "inputs": [
        {
          "internalType": "bytes32",
          "name": "_type",
          "type": "bytes32"
        },
        {
          "internalType": "address",
          "name": "_factory",
          "type": "address"
        },
        {
          "internalType": "address",
          "name": "_router",
          "type": "address"
        }
      ],
      "name": "setFactoryAndRouter",
      "outputs": [],
      "stateMutability": "nonpayable",
      "type": "function"
    },
    {
      "inputs": [
        {
          "internalType": "address",
          "name": "token_",
          "type": "address"
        }
      ],
      "name": "setToken",
      "outputs": [],
      "stateMutability": "nonpayable",
      "type": "function"
    },
    {
      "inputs": [
        {
          "internalType": "address",
          "name": "newOwner",
          "type": "address"
        }
      ],
      "name": "transferOwnership",
      "outputs": [],
      "stateMutability": "nonpayable",
      "type": "function"
    },
    {
      "inputs": [],
      "name": "usdcToken",
      "outputs": [
        {
          "internalType": "address",
          "name": "",
          "type": "address"
        }
      ],
      "stateMutability": "view",
      "type": "function"
    },
    {
      "inputs": [],
      "name": "usdtToken",
      "outputs": [
        {
          "internalType": "address",
          "name": "",
          "type": "address"
        }
      ],
      "stateMutability": "view",
      "type": "function"
    },
    {
      "inputs": [
        {
          "internalType": "address",
          "name": "_token",
          "type": "address"
        }
      ],
      "name": "withdraw",
      "outputs": [],
      "stateMutability": "nonpayable",
      "type": "function"
    },
    {
      "inputs": [],
      "name": "wrappedNative",
      "outputs": [
        {
          "internalType": "address",
          "name": "",
          "type": "address"
        }
      ],
      "stateMutability": "view",
      "type": "function"
    },
    {
      "inputs": [
        {
          "internalType": "bytes32",
          "name": "_type",
          "type": "bytes32"
        },
        {
          "internalType": "address",
          "name": "_to",
          "type": "address"
        },
        {
          "internalType": "address payable",
          "name": "_receiver",
          "type": "address"
        }
      ],
      "name": "zapIn",
      "outputs": [],
      "stateMutability": "payable",
      "type": "function"
    },
    {
      "inputs": [
        {
          "components": [
            {
              "internalType": "bytes32",
              "name": "protocolType",
              "type": "bytes32"
            },
            {
              "internalType": "address",
              "name": "from",
              "type": "address"
            },
            {
              "internalType": "uint256",
              "name": "amount",
              "type": "uint256"
            },
            {
              "internalType": "address",
              "name": "to",
              "type": "address"
            },
            {
              "internalType": "address",
              "name": "receiver",
              "type": "address"
            }
          ],
          "internalType": "struct Zap.ZapInForm",
          "name": "_params",
          "type": "tuple"
        }
      ],
      "name": "zapInToken",
      "outputs": [
        {
          "internalType": "uint256",
          "name": "liquidity",
          "type": "uint256"
        }
      ],
      "stateMutability": "nonpayable",
      "type": "function"
    },
    {
      "inputs": [
        {
          "internalType": "bytes32",
          "name": "_type",
          "type": "bytes32"
        },
        {
          "internalType": "address",
          "name": "_from",
          "type": "address"
        },
        {
          "internalType": "uint256",
          "name": "_amount",
          "type": "uint256"
        },
        {
          "internalType": "address",
          "name": "_to",
          "type": "address"
        },
        {
          "internalType": "address",
          "name": "_receiver",
          "type": "address"
        }
      ],
      "name": "zapOut",
      "outputs": [],
      "stateMutability": "nonpayable",
      "type": "function"
    },
    {
      "inputs": [],
      "name": "zeroXBlockToken",
      "outputs": [
        {
          "internalType": "address",
          "name": "",
          "type": "address"
        }
      ],
      "stateMutability": "view",
      "type": "function"
    },
    {
      "stateMutability": "payable",
      "type": "receive"
    }
  ],
  "transactionHash": "0xfb95341f89ef398f627251dd2dd322a465b30d8cae9f92059358e5ca57f2b494",
  "args": [],
  "numDeployments": 5,
  "solcInputHash": "13d08eefe8a0d8a3951200c48e049c38",
  "bytecode": "0x608060405234801561001057600080fd5b50612681806100206000396000f3fe6080604052600436106101025760003560e01c8063715018a611610095578063aee22b7811610064578063aee22b78146102bb578063bacccdb2146102e9578063c0c53b8b14610309578063eb6d3a1114610329578063f2fde38b1461034957600080fd5b8063715018a6146102555780638da5cb5b1461026a578063a908367014610288578063a98ad46c1461029b57600080fd5b806348cb5876116100d157806348cb5876146101a657806351cff8d9146101c6578063528accd6146101e65780635515fe0a1461020657600080fd5b80630bf3df0f1461010e57806311eac8551461013057806312d8e11014610166578063144fa6d71461018657600080fd5b3661010957005b600080fd5b34801561011a57600080fd5b5061012e61012936600461215a565b610369565b005b34801561013c57600080fd5b50606754610150906001600160a01b031681565b60405161015d9190612448565b60405180910390f35b34801561017257600080fd5b5061012e6101813660046122df565b6103e4565b34801561019257600080fd5b5061012e6101a136600461215a565b61044b565b3480156101b257600080fd5b50606854610150906001600160a01b031681565b3480156101d257600080fd5b5061012e6101e136600461215a565b6104bd565b3480156101f257600080fd5b5061012e61020136600461215a565b610650565b34801561021257600080fd5b506102476102213660046122c6565b606960205260009081526040902080546001909101546001600160a01b03918216911682565b60405161015d92919061245c565b34801561026157600080fd5b5061012e6106c2565b34801561027657600080fd5b506033546001600160a01b0316610150565b61012e6102963660046122df565b6106f8565b3480156102a757600080fd5b50606554610150906001600160a01b031681565b3480156102c757600080fd5b506102db6102d6366004612365565b610892565b60405190815260200161015d565b3480156102f557600080fd5b5061012e610304366004612306565b610b72565b34801561031557600080fd5b5061012e610324366004612194565b610e86565b34801561033557600080fd5b50606654610150906001600160a01b031681565b34801561035557600080fd5b5061012e61036436600461215a565b610feb565b6033546001600160a01b0316331461039c5760405162461bcd60e51b8152600401610393906124de565b60405180910390fd5b6001600160a01b0381166103c25760405162461bcd60e51b815260040161039390612513565b606580546001600160a01b0319166001600160a01b0392909216919091179055565b6033546001600160a01b0316331461040e5760405162461bcd60e51b8152600401610393906124de565b60009283526069602052604090922080546001600160a01b039384166001600160a01b031991821617825560019091018054929093169116179055565b6033546001600160a01b031633146104755760405162461bcd60e51b8152600401610393906124de565b6001600160a01b03811661049b5760405162461bcd60e51b815260040161039390612513565b606880546001600160a01b0319166001600160a01b0392909216919091179055565b6033546001600160a01b031633146104e75760405162461bcd60e51b8152600401610393906124de565b6001600160a01b038116610532576033546040516001600160a01b03909116904780156108fc02916000818181858888f1935050505015801561052e573d6000803e3d6000fd5b5050565b806001600160a01b031663a9059cbb6105536033546001600160a01b031690565b6040516370a0823160e01b81526001600160a01b038516906370a082319061057f903090600401612448565b60206040518083038186803b15801561059757600080fd5b505afa1580156105ab573d6000803e3d6000fd5b505050506040513d601f19601f820116820180604052508101906105cf919061237d565b6040516001600160e01b031960e085901b1681526001600160a01b0390921660048301526024820152604401602060405180830381600087803b15801561061557600080fd5b505af1158015610629573d6000803e3d6000fd5b505050506040513d601f19601f8201168201806040525081019061052e91906122a4565b50565b6033546001600160a01b0316331461067a5760405162461bcd60e51b8152600401610393906124de565b6001600160a01b0381166106a05760405162461bcd60e51b815260040161039390612513565b606780546001600160a01b0319166001600160a01b0392909216919091179055565b6033546001600160a01b031633146106ec5760405162461bcd60e51b8152600401610393906124de565b6106f6600061107f565b565b6000610706848434856110d1565b905060008390506000816001600160a01b0316630dfe16816040518163ffffffff1660e01b815260040160206040518083038186803b15801561074857600080fd5b505afa15801561075c573d6000803e3d6000fd5b505050506040513d601f19601f820116820180604052508101906107809190612177565b90506000826001600160a01b031663d21220a76040518163ffffffff1660e01b815260040160206040518083038186803b1580156107bd57600080fd5b505afa1580156107d1573d6000803e3d6000fd5b505050506040513d601f19601f820116820180604052508101906107f59190612177565b90506108018233611329565b61080b8133611329565b6040516001600160a01b0386169085156108fc029086906000818181858888f19350505050158015610841573d6000803e3d6000fd5b5060665460405188815234916001600160a01b03898116929116907fcc11f9b552b14f6b75b7a35a5afb402bd25f24d8216334d195e162c42f72d0269060200160405180910390a450505050505050565b60006108be3330604085018035906108ad906020880161215a565b6001600160a01b03169291906113c9565b8135600090815260696020908152604091829020546001600160a01b0316916108f79183916108f29190870190870161215a565b611434565b6000610909608085016060860161215a565b90506000816001600160a01b0316630dfe16816040518163ffffffff1660e01b815260040160206040518083038186803b15801561094657600080fd5b505afa15801561095a573d6000803e3d6000fd5b505050506040513d601f19601f8201168201806040525081019061097e9190612177565b90506000826001600160a01b031663d21220a76040518163ffffffff1660e01b815260040160206040518083038186803b1580156109bb57600080fd5b505afa1580156109cf573d6000803e3d6000fd5b505050506040513d601f19601f820116820180604052508101906109f39190612177565b9050610a268635610a0a6040890160208a0161215a565b60408901358585610a2160808d0160608e0161215a565b6114cc565b8535600090815260696020526040902054610b53906001600160a01b03168383610a5660a08b0160808c0161215a565b6040516370a0823160e01b81526001600160a01b038816906370a0823190610a82903090600401612448565b60206040518083038186803b158015610a9a57600080fd5b505afa158015610aae573d6000803e3d6000fd5b505050506040513d601f19601f82011682018060405250810190610ad2919061237d565b6040516370a0823160e01b81526001600160a01b038816906370a0823190610afe903090600401612448565b60206040518083038186803b158015610b1657600080fd5b505afa158015610b2a573d6000803e3d6000fd5b505050506040513d601f19601f82011682018060405250810190610b4e919061237d565b6115d7565b9450610b5f8233611329565b610b698133611329565b50505050919050565b610b876001600160a01b0385163330866113c9565b6000858152606960205260409020546001600160a01b0316610ba98186611434565b60008590506000816001600160a01b0316630dfe16816040518163ffffffff1660e01b815260040160206040518083038186803b158015610be957600080fd5b505afa158015610bfd573d6000803e3d6000fd5b505050506040513d601f19601f82011682018060405250810190610c219190612177565b90506000826001600160a01b031663d21220a76040518163ffffffff1660e01b815260040160206040518083038186803b158015610c5e57600080fd5b505afa158015610c72573d6000803e3d6000fd5b505050506040513d601f19601f82011682018060405250810190610c969190612177565b604051635d5155ef60e11b81526001600160a01b0384811660048301528083166024830152604482018a905260006064830181905260848301523060a48301524260c48301529192509085169063baa2abde9060e4016040805180830381600087803b158015610d0557600080fd5b505af1158015610d19573d6000803e3d6000fd5b505050506040513d601f19601f82011682018060405250810190610d3d9190612396565b5050856001600160a01b0316826001600160a01b031614610de257610de08983846001600160a01b03166370a08231306040518263ffffffff1660e01b8152600401610d899190612448565b60206040518083038186803b158015610da157600080fd5b505afa158015610db5573d6000803e3d6000fd5b505050506040513d601f19601f82011682018060405250810190610dd9919061237d565b89896116a7565b505b856001600160a01b0316816001600160a01b031614610e2e57610e2c8982836001600160a01b03166370a08231306040518263ffffffff1660e01b8152600401610d899190612448565b505b610e388686611329565b604051898152899088906001600160a01b038b16907f5312da833ca9ab61a63f7205eaa08ac243b9d2dc4518fb8b546fc26897209f949060200160405180910390a350505050505050505050565b600054610100900460ff16610ea15760005460ff1615610ea5565b303b155b610f085760405162461bcd60e51b815260206004820152602e60248201527f496e697469616c697a61626c653a20636f6e747261637420697320616c72656160448201526d191e481a5b9a5d1a585b1a5e995960921b6064820152608401610393565b600054610100900460ff16158015610f2a576000805461ffff19166101011790555b610f32611b18565b6000610f466033546001600160a01b031690565b6001600160a01b03161415610f965760405162461bcd60e51b815260206004820152601660248201527516985c0e881bdddb995c881b5d5cdd081899481cd95d60521b6044820152606401610393565b606780546001600160a01b038085166001600160a01b0319928316179092556065805487841690831617905560668054928616929091169190911790558015610fe5576000805461ff00191690555b50505050565b6033546001600160a01b031633146110155760405162461bcd60e51b8152600401610393906124de565b6001600160a01b03811661107a5760405162461bcd60e51b815260206004820152602660248201527f4f776e61626c653a206e6577206f776e657220697320746865207a65726f206160448201526564647265737360d01b6064820152608401610393565b61064d815b603380546001600160a01b038381166001600160a01b0319831681179093556040519116919082907f8be0079c531659141344cd1fd0a4f28419497f9722a3daafe3b4186f6b6457e090600090a35050565b6000848152606960209081526040808320548151630dfe168160e01b8152915187936001600160a01b03928316938693861692630dfe168192600480840193919291829003018186803b15801561112757600080fd5b505afa15801561113b573d6000803e3d6000fd5b505050506040513d601f19601f8201168201806040525081019061115f9190612177565b90506000836001600160a01b031663d21220a76040518163ffffffff1660e01b815260040160206040518083038186803b15801561119c57600080fd5b505afa1580156111b0573d6000803e3d6000fd5b505050506040513d601f19601f820116820180604052508101906111d49190612177565b6066549091506001600160a01b038381169116148061120057506066546001600160a01b038281169116145b156112ce576066546000906001600160a01b038481169116146112235782611225565b815b9050600061123460028a6125c0565b905060006112448c848430611b47565b90506112508684611434565b6040805160a08101825260006020820181905260808201526001600160a01b038b811660608301528881168252851691810191909152611290838c6125e2565b60208201526080810182905260006112a782611ca2565b9050806112b4858e6125e2565b6112be91906125e2565b9950505050505050505050611321565b60006112db6002896125c0565b905060006112eb8b858430611b47565b905060006113048c856112fe868e6125e2565b30611b47565b90506113148686868c86866115d7565b5050505060009450505050505b949350505050565b6040516370a0823160e01b81526000906001600160a01b038416906370a0823190611358903090600401612448565b60206040518083038186803b15801561137057600080fd5b505afa158015611384573d6000803e3d6000fd5b505050506040513d601f19601f820116820180604052508101906113a8919061237d565b905080156113c4576113c46001600160a01b0384168383611d62565b505050565b6040516001600160a01b0380851660248301528316604482015260648101829052610fe59085906323b872dd60e01b906084015b60408051601f198184030181529190526020810180516001600160e01b03166001600160e01b031990931692909217909152611d92565b604051636eb1769f60e11b81526001600160a01b0382169063dd62ed3e90611462903090869060040161245c565b60206040518083038186803b15801561147a57600080fd5b505afa15801561148e573d6000803e3d6000fd5b505050506040513d601f19601f820116820180604052508101906114b2919061237d565b61052e5761052e6001600160a01b03821683600019611e64565b826001600160a01b0316856001600160a01b031614806114fd5750816001600160a01b0316856001600160a01b0316145b1561154b576000836001600160a01b0316866001600160a01b0316146115235783611525565b825b905060006115346002876125c0565b905061154388888385306116a7565b505050611581565b60006115586002866125c0565b905061156787878387306116a7565b5061157e878761157784896125e2565b86306116a7565b50505b83816001600160a01b0316866001600160a01b03167fcc11f9b552b14f6b75b7a35a5afb402bd25f24d8216334d195e162c42f72d026896040516115c791815260200190565b60405180910390a4505050505050565b60006115e38787611434565b6115ed8786611434565b60405162e8e33760e81b81526001600160a01b0387811660048301528681166024830152604482018590526064820184905260006084830181905260a483015285811660c48301524260e483015288169063e8e337009061010401606060405180830381600087803b15801561166257600080fd5b505af1158015611676573d6000803e3d6000fd5b505050506040513d601f19601f8201168201806040525081019061169a91906123ba565b9998505050505050505050565b60008581526069602052604080822060010154905163e6a4390560e01b81526001600160a01b03909116908290829063e6a43905906116ec908a90899060040161245c565b60206040518083038186803b15801561170457600080fd5b505afa158015611718573d6000803e3d6000fd5b505050506040513d601f19601f8201168201806040525081019061173c9190612177565b905060606001600160a01b038216156117dc576040805160028082526060820183529091602083019080368337019050509050878160008151811061178357611783612633565b60200260200101906001600160a01b031690816001600160a01b03168152505085816001815181106117b7576117b7612633565b60200260200101906001600160a01b031690816001600160a01b031681525050611a0a565b604080516003808252608082019092529060208201606080368337019050509050878160008151811061181157611811612633565b60200260200101906001600160a01b031690816001600160a01b031681525050858160028151811061184557611845612633565b6001600160a01b03928316602091820292909201015260665461186c9185918b9116611f87565b801561188b575060665461188b9084906001600160a01b031688611f87565b156118b45760665481516001600160a01b0390911690829060019081106117b7576117b7612633565b6067546118cd9084908a906001600160a01b0316611f87565b80156118ec57506067546118ec9084906001600160a01b031688611f87565b156119155760675481516001600160a01b0390911690829060019081106117b7576117b7612633565b60655461192e9084908a906001600160a01b0316611f87565b801561194d575060655461194d9084906001600160a01b031688611f87565b156119765760655481516001600160a01b0390911690829060019081106117b7576117b7612633565b60685461198f9084908a906001600160a01b0316611f87565b80156119ae57506068546119ae9084906001600160a01b031688611f87565b156119d75760685481516001600160a01b0390911690829060019081106117b7576117b7612633565b60405162461bcd60e51b815260206004820152600860248201526705a41503a204e45560c41b6044820152606401610393565b6000898152606960205260408120548251611a46926001600160a01b03909216918491611a3957611a39612633565b6020026020010151611434565b6000898152606960205260408082205490516338ed173960e01b81526001600160a01b03909116906338ed173990611a8a908b90859087908c904290600401612584565b600060405180830381600087803b158015611aa457600080fd5b505af1158015611ab8573d6000803e3d6000fd5b505050506040513d6000823e601f3d908101601f19168201604052611ae091908101906121df565b90508060018251611af191906125e2565b81518110611b0157611b01612633565b602002602001015194505050505095945050505050565b600054610100900460ff16611b3f5760405162461bcd60e51b815260040161039390612539565b6106f661201f565b6040805160028082526060808301845260009390929190602083019080368337505060665482519293506001600160a01b031691839150600090611b8d57611b8d612633565b60200260200101906001600160a01b031690816001600160a01b0316815250508481600181518110611bc157611bc1612633565b6001600160a01b0392831660209182029290920181019190915260008881526069909152604080822054905163a2a1623d60e01b81529192169063a2a1623d908790611c1790859087908a904290600401612476565b6000604051808303818588803b158015611c3057600080fd5b505af1158015611c44573d6000803e3d6000fd5b50505050506040513d6000823e601f3d908101601f19168201604052611c6d91908101906121df565b90508060018251611c7e91906125e2565b81518110611c8e57611c8e612633565b602002602001015192505050949350505050565b80516020820151604080840151608085015160608601519251637c8d9fb960e11b81526001600160a01b03928316600482015260248101919091526000604482018190526064820181905292821660848201524260a48201529193169163f91b3f729160c4016060604051808303818588803b158015611d2157600080fd5b505af1158015611d35573d6000803e3d6000fd5b50505050506040513d601f19601f82011682018060405250810190611d5a91906123ba565b509392505050565b6040516001600160a01b0383166024820152604481018290526113c490849063a9059cbb60e01b906064016113fd565b6000611de7826040518060400160405280602081526020017f5361666545524332303a206c6f772d6c6576656c2063616c6c206661696c6564815250856001600160a01b031661204f9092919063ffffffff16565b8051909150156113c45780806020019051810190611e0591906122a4565b6113c45760405162461bcd60e51b815260206004820152602a60248201527f5361666545524332303a204552433230206f7065726174696f6e20646964206e6044820152691bdd081cdd58d8d9595960b21b6064820152608401610393565b801580611eec5750604051636eb1769f60e11b81526001600160a01b0384169063dd62ed3e90611e9a903090869060040161245c565b60206040518083038186803b158015611eb257600080fd5b505afa158015611ec6573d6000803e3d6000fd5b505050506040513d601f19601f82011682018060405250810190611eea919061237d565b155b611f575760405162461bcd60e51b815260206004820152603660248201527f5361666545524332303a20617070726f76652066726f6d206e6f6e2d7a65726f60448201527520746f206e6f6e2d7a65726f20616c6c6f77616e636560501b6064820152608401610393565b6040516001600160a01b0383166024820152604481018290526113c490849063095ea7b360e01b906064016113fd565b60405163e6a4390560e01b815260009081906001600160a01b0386169063e6a4390590611fba908790879060040161245c565b60206040518083038186803b158015611fd257600080fd5b505afa158015611fe6573d6000803e3d6000fd5b505050506040513d601f19601f8201168201806040525081019061200a9190612177565b6001600160a01b0316141590505b9392505050565b600054610100900460ff166120465760405162461bcd60e51b815260040161039390612539565b6106f63361107f565b6060611321848460008585843b6120a85760405162461bcd60e51b815260206004820152601d60248201527f416464726573733a2063616c6c20746f206e6f6e2d636f6e74726163740000006044820152606401610393565b600080866001600160a01b031685876040516120c4919061242c565b60006040518083038185875af1925050503d8060008114612101576040519150601f19603f3d011682016040523d82523d6000602084013e612106565b606091505b5091509150612116828286612121565b979650505050505050565b60608315612130575081612018565b8251156121405782518084602001fd5b8160405162461bcd60e51b815260040161039391906124ab565b60006020828403121561216c57600080fd5b81356120188161265f565b60006020828403121561218957600080fd5b81516120188161265f565b6000806000606084860312156121a957600080fd5b83356121b48161265f565b925060208401356121c48161265f565b915060408401356121d48161265f565b809150509250925092565b600060208083850312156121f257600080fd5b825167ffffffffffffffff8082111561220a57600080fd5b818501915085601f83011261221e57600080fd5b81518181111561223057612230612649565b8060051b604051601f19603f8301168101818110858211171561225557612255612649565b604052828152858101935084860182860187018a101561227457600080fd5b600095505b83861015612297578051855260019590950194938601938601612279565b5098975050505050505050565b6000602082840312156122b657600080fd5b8151801515811461201857600080fd5b6000602082840312156122d857600080fd5b5035919050565b6000806000606084860312156122f457600080fd5b8335925060208401356121c48161265f565b600080600080600060a0868803121561231e57600080fd5b8535945060208601356123308161265f565b93506040860135925060608601356123478161265f565b915060808601356123578161265f565b809150509295509295909350565b600060a0828403121561237757600080fd5b50919050565b60006020828403121561238f57600080fd5b5051919050565b600080604083850312156123a957600080fd5b505080516020909101519092909150565b6000806000606084860312156123cf57600080fd5b8351925060208401519150604084015190509250925092565b600081518084526020808501945080840160005b838110156124215781516001600160a01b0316875295820195908201906001016123fc565b509495945050505050565b6000825161243e818460208701612607565b9190910192915050565b6001600160a01b0391909116815260200190565b6001600160a01b0392831681529116602082015260400190565b84815260806020820152600061248f60808301866123e8565b6001600160a01b03949094166040830152506060015292915050565b60208152600082518060208401526124ca816040850160208701612607565b601f01601f19169190910160400192915050565b6020808252818101527f4f776e61626c653a2063616c6c6572206973206e6f7420746865206f776e6572604082015260600190565b6020808252600c908201526b7a65726f206164647265737360a01b604082015260600190565b6020808252602b908201527f496e697469616c697a61626c653a20636f6e7472616374206973206e6f74206960408201526a6e697469616c697a696e6760a81b606082015260800190565b85815284602082015260a0604082015260006125a360a08301866123e8565b6001600160a01b0394909416606083015250608001529392505050565b6000826125dd57634e487b7160e01b600052601260045260246000fd5b500490565b60008282101561260257634e487b7160e01b600052601160045260246000fd5b500390565b60005b8381101561262257818101518382015260200161260a565b83811115610fe55750506000910152565b634e487b7160e01b600052603260045260246000fd5b634e487b7160e01b600052604160045260246000fd5b6001600160a01b038116811461064d57600080fdfea164736f6c6343000807000a",
  "devdoc": {
    "kind": "dev",
    "methods": {
      "owner()": {
        "details": "Returns the address of the current owner."
      },
      "renounceOwnership()": {
        "details": "Leaves the contract without owner. It will not be possible to call `onlyOwner` functions anymore. Can only be called by the current owner. NOTE: Renouncing ownership will leave the contract without an owner, thereby removing any functionality that is only available to the owner."
      },
      "setFactoryAndRouter(bytes32,address,address)": {
        "params": {
          "_factory": "factory address",
          "_router": "router address",
          "_type": "protocol type"
        }
      },
      "transferOwnership(address)": {
        "details": "Transfers ownership of the contract to a new account (`newOwner`). Can only be called by the current owner."
      },
      "withdraw(address)": {
        "params": {
          "_token": "token address"
        }
      },
      "zapIn(bytes32,address,address)": {
        "params": {
          "_receiver": "receiver address",
          "_to": "lp token out",
          "_type": "protocol type"
        }
      },
      "zapInToken((bytes32,address,uint256,address,address))": {
        "params": {
          "_params": "zapIn params"
        }
      },
      "zapOut(bytes32,address,uint256,address,address)": {
        "params": {
          "_amount": "amount LP in",
          "_from": "lp token in",
          "_receiver": "receiver address",
          "_type": "protocol type"
        }
      }
    },
    "version": 1
  },
  "userdoc": {
    "kind": "user",
    "methods": {
      "withdraw(address)": {
        "notice": "withdraw token that contract hold"
      },
      "zapIn(bytes32,address,address)": {
        "notice": "zap in ETH to LP"
      },
      "zapInToken((bytes32,address,uint256,address,address))": {
        "notice": "zap in for token ERC20"
      }
    },
    "version": 1
  },
  "storageLayout": {
    "storage": [
      {
        "astId": 598,
        "contract": "contracts/dependencies/Zap.sol:Zap",
        "label": "_initialized",
        "offset": 0,
        "slot": "0",
        "type": "t_bool"
      },
      {
        "astId": 601,
        "contract": "contracts/dependencies/Zap.sol:Zap",
        "label": "_initializing",
        "offset": 1,
        "slot": "0",
        "type": "t_bool"
      },
      {
        "astId": 1889,
        "contract": "contracts/dependencies/Zap.sol:Zap",
        "label": "__gap",
        "offset": 0,
        "slot": "1",
        "type": "t_array(t_uint256)50_storage"
      },
      {
        "astId": 10,
        "contract": "contracts/dependencies/Zap.sol:Zap",
        "label": "_owner",
        "offset": 0,
        "slot": "51",
        "type": "t_address"
      },
      {
        "astId": 122,
        "contract": "contracts/dependencies/Zap.sol:Zap",
        "label": "__gap",
        "offset": 0,
        "slot": "52",
        "type": "t_array(t_uint256)49_storage"
      },
      {
        "astId": 11643,
        "contract": "contracts/dependencies/Zap.sol:Zap",
        "label": "usdtToken",
        "offset": 0,
        "slot": "101",
        "type": "t_address"
      },
      {
        "astId": 11645,
        "contract": "contracts/dependencies/Zap.sol:Zap",
        "label": "wrappedNative",
        "offset": 0,
        "slot": "102",
        "type": "t_address"
      },
      {
        "astId": 11647,
        "contract": "contracts/dependencies/Zap.sol:Zap",
        "label": "usdcToken",
        "offset": 0,
        "slot": "103",
        "type": "t_address"
      },
      {
        "astId": 11649,
        "contract": "contracts/dependencies/Zap.sol:Zap",
        "label": "zeroXBlockToken",
        "offset": 0,
        "slot": "104",
        "type": "t_address"
      },
      {
        "astId": 11654,
        "contract": "contracts/dependencies/Zap.sol:Zap",
        "label": "protocols",
        "offset": 0,
        "slot": "105",
        "type": "t_mapping(t_bytes32,t_struct(ProtocolStats)11619_storage)"
      }
    ],
    "types": {
      "t_address": {
        "encoding": "inplace",
        "label": "address",
        "numberOfBytes": "20"
      },
      "t_array(t_uint256)49_storage": {
        "base": "t_uint256",
        "encoding": "inplace",
        "label": "uint256[49]",
        "numberOfBytes": "1568"
      },
      "t_array(t_uint256)50_storage": {
        "base": "t_uint256",
        "encoding": "inplace",
        "label": "uint256[50]",
        "numberOfBytes": "1600"
      },
      "t_bool": {
        "encoding": "inplace",
        "label": "bool",
        "numberOfBytes": "1"
      },
      "t_bytes32": {
        "encoding": "inplace",
        "label": "bytes32",
        "numberOfBytes": "32"
      },
      "t_mapping(t_bytes32,t_struct(ProtocolStats)11619_storage)": {
        "encoding": "mapping",
        "key": "t_bytes32",
        "label": "mapping(bytes32 => struct Zap.ProtocolStats)",
        "numberOfBytes": "32",
        "value": "t_struct(ProtocolStats)11619_storage"
      },
      "t_struct(ProtocolStats)11619_storage": {
        "encoding": "inplace",
        "label": "struct Zap.ProtocolStats",
        "members": [
          {
            "astId": 11616,
            "contract": "contracts/dependencies/Zap.sol:Zap",
            "label": "router",
            "offset": 0,
            "slot": "0",
            "type": "t_address"
          },
          {
            "astId": 11618,
            "contract": "contracts/dependencies/Zap.sol:Zap",
            "label": "factory",
            "offset": 0,
            "slot": "1",
            "type": "t_address"
          }
        ],
        "numberOfBytes": "64"
      },
      "t_uint256": {
        "encoding": "inplace",
        "label": "uint256",
        "numberOfBytes": "32"
      }
    }
  }
}