{
  "address": "0x81755F18D8Ac872EB11d78a838F6c339A5f4038a",
  "abi": [
    {
      "anonymous": false,
      "inputs": [
        {
          "indexed": true,
          "internalType": "address",
          "name": "previousOwner",
          "type": "address"
        },
        {
          "indexed": true,
          "internalType": "address",
          "name": "newOwner",
          "type": "address"
        }
      ],
      "name": "OwnershipTransferred",
      "type": "event"
    },
    {
      "anonymous": false,
      "inputs": [
        {
          "indexed": true,
          "internalType": "address",
          "name": "token",
          "type": "address"
        },
        {
          "indexed": true,
          "internalType": "address",
          "name": "lpToken",
          "type": "address"
        },
        {
          "indexed": true,
          "internalType": "uint256",
          "name": "amount",
          "type": "uint256"
        },
        {
          "indexed": false,
          "internalType": "bytes32",
          "name": "protocol",
          "type": "bytes32"
        }
      ],
      "name": "ZapIn",
      "type": "event"
    },
    {
      "anonymous": false,
      "inputs": [
        {
          "indexed": true,
          "internalType": "address",
          "name": "lpToken",
          "type": "address"
        },
        {
          "indexed": true,
          "internalType": "uint256",
          "name": "amount",
          "type": "uint256"
        },
        {
          "indexed": false,
          "internalType": "bytes32",
          "name": "protocol",
          "type": "bytes32"
        }
      ],
      "name": "ZapOut",
      "type": "event"
    },
    {
      "inputs": [
        {
          "internalType": "address",
          "name": "token_",
          "type": "address"
        }
      ],
      "name": "changeUSDCAddress",
      "outputs": [],
      "stateMutability": "nonpayable",
      "type": "function"
    },
    {
      "inputs": [
        {
          "internalType": "address",
          "name": "token_",
          "type": "address"
        }
      ],
      "name": "changeUSDTAddress",
      "outputs": [],
      "stateMutability": "nonpayable",
      "type": "function"
    },
    {
      "inputs": [
        {
          "internalType": "address",
          "name": "_usdtToken",
          "type": "address"
        },
        {
          "internalType": "address",
          "name": "_wrappedNative",
          "type": "address"
        },
        {
          "internalType": "address",
          "name": "_usdcToken",
          "type": "address"
        }
      ],
      "name": "initialize",
      "outputs": [],
      "stateMutability": "nonpayable",
      "type": "function"
    },
    {
      "inputs": [],
      "name": "owner",
      "outputs": [
        {
          "internalType": "address",
          "name": "",
          "type": "address"
        }
      ],
      "stateMutability": "view",
      "type": "function"
    },
    {
      "inputs": [
        {
          "internalType": "bytes32",
          "name": "",
          "type": "bytes32"
        }
      ],
      "name": "protocols",
      "outputs": [
        {
          "internalType": "address",
          "name": "router",
          "type": "address"
        },
        {
          "internalType": "address",
          "name": "factory",
          "type": "address"
        }
      ],
      "stateMutability": "view",
      "type": "function"
    },
    {
      "inputs": [],
      "name": "renounceOwnership",
      "outputs": [],
      "stateMutability": "nonpayable",
      "type": "function"
    },
    {
      "inputs": [
        {
          "internalType": "bytes32",
          "name": "_type",
          "type": "bytes32"
        },
        {
          "internalType": "address",
          "name": "_factory",
          "type": "address"
        },
        {
          "internalType": "address",
          "name": "_router",
          "type": "address"
        }
      ],
      "name": "setFactoryAndRouter",
      "outputs": [],
      "stateMutability": "nonpayable",
      "type": "function"
    },
    {
      "inputs": [
        {
          "internalType": "address",
          "name": "token_",
          "type": "address"
        }
      ],
      "name": "setToken",
      "outputs": [],
      "stateMutability": "nonpayable",
      "type": "function"
    },
    {
      "inputs": [
        {
          "internalType": "address",
          "name": "newOwner",
          "type": "address"
        }
      ],
      "name": "transferOwnership",
      "outputs": [],
      "stateMutability": "nonpayable",
      "type": "function"
    },
    {
      "inputs": [],
      "name": "usdcToken",
      "outputs": [
        {
          "internalType": "address",
          "name": "",
          "type": "address"
        }
      ],
      "stateMutability": "view",
      "type": "function"
    },
    {
      "inputs": [],
      "name": "usdtToken",
      "outputs": [
        {
          "internalType": "address",
          "name": "",
          "type": "address"
        }
      ],
      "stateMutability": "view",
      "type": "function"
    },
    {
      "inputs": [
        {
          "internalType": "address",
          "name": "_token",
          "type": "address"
        }
      ],
      "name": "withdraw",
      "outputs": [],
      "stateMutability": "nonpayable",
      "type": "function"
    },
    {
      "inputs": [],
      "name": "wrappedNative",
      "outputs": [
        {
          "internalType": "address",
          "name": "",
          "type": "address"
        }
      ],
      "stateMutability": "view",
      "type": "function"
    },
    {
      "inputs": [
        {
          "internalType": "bytes32",
          "name": "_type",
          "type": "bytes32"
        },
        {
          "internalType": "address",
          "name": "_to",
          "type": "address"
        },
        {
          "internalType": "address",
          "name": "_receiver",
          "type": "address"
        }
      ],
      "name": "zapIn",
      "outputs": [],
      "stateMutability": "payable",
      "type": "function"
    },
    {
      "inputs": [
        {
          "components": [
            {
              "internalType": "bytes32",
              "name": "protocolType",
              "type": "bytes32"
            },
            {
              "internalType": "address",
              "name": "from",
              "type": "address"
            },
            {
              "internalType": "uint256",
              "name": "amount",
              "type": "uint256"
            },
            {
              "internalType": "address",
              "name": "to",
              "type": "address"
            },
            {
              "internalType": "address",
              "name": "receiver",
              "type": "address"
            }
          ],
          "internalType": "struct Zap.ZapInForm",
          "name": "_params",
          "type": "tuple"
        }
      ],
      "name": "zapInToken",
      "outputs": [
        {
          "internalType": "uint256",
          "name": "liquidity",
          "type": "uint256"
        }
      ],
      "stateMutability": "nonpayable",
      "type": "function"
    },
    {
      "inputs": [
        {
          "internalType": "bytes32",
          "name": "_type",
          "type": "bytes32"
        },
        {
          "internalType": "address",
          "name": "_from",
          "type": "address"
        },
        {
          "internalType": "uint256",
          "name": "_amount",
          "type": "uint256"
        },
        {
          "internalType": "address",
          "name": "_to",
          "type": "address"
        },
        {
          "internalType": "address",
          "name": "_receiver",
          "type": "address"
        }
      ],
      "name": "zapOut",
      "outputs": [],
      "stateMutability": "nonpayable",
      "type": "function"
    },
    {
      "inputs": [],
      "name": "zeroXBlockToken",
      "outputs": [
        {
          "internalType": "address",
          "name": "",
          "type": "address"
        }
      ],
      "stateMutability": "view",
      "type": "function"
    },
    {
      "stateMutability": "payable",
      "type": "receive"
    }
  ],
  "transactionHash": "0x424350320da7f25dfdeda6e98cdf4f4a509d05aa547e7ad0795687d85be631eb",
  "args": [],
  "numDeployments": 2,
  "solcInputHash": "21aad0a7feb0528e36c2005adb96bb90",
  "bytecode": "0x608060405234801561001057600080fd5b506128f3806100206000396000f3fe6080604052600436106101025760003560e01c8063715018a611610095578063aee22b7811610064578063aee22b78146102bb578063bacccdb2146102e9578063c0c53b8b14610309578063eb6d3a1114610329578063f2fde38b1461034957600080fd5b8063715018a6146102555780638da5cb5b1461026a578063a908367014610288578063a98ad46c1461029b57600080fd5b806348cb5876116100d157806348cb5876146101a657806351cff8d9146101c6578063528accd6146101e65780635515fe0a1461020657600080fd5b80630bf3df0f1461010e57806311eac8551461013057806312d8e11014610166578063144fa6d71461018657600080fd5b3661010957005b600080fd5b34801561011a57600080fd5b5061012e610129366004612383565b610369565b005b34801561013c57600080fd5b50606754610150906001600160a01b031681565b60405161015d9190612671565b60405180910390f35b34801561017257600080fd5b5061012e610181366004612508565b6103e4565b34801561019257600080fd5b5061012e6101a1366004612383565b61044b565b3480156101b257600080fd5b50606854610150906001600160a01b031681565b3480156101d257600080fd5b5061012e6101e1366004612383565b6104bd565b3480156101f257600080fd5b5061012e610201366004612383565b610650565b34801561021257600080fd5b506102476102213660046124ef565b606960205260009081526040902080546001909101546001600160a01b03918216911682565b60405161015d929190612685565b34801561026157600080fd5b5061012e6106c2565b34801561027657600080fd5b506033546001600160a01b0316610150565b61012e610296366004612508565b6106f8565b3480156102a757600080fd5b50606554610150906001600160a01b031681565b3480156102c757600080fd5b506102db6102d636600461258e565b610857565b60405190815260200161015d565b3480156102f557600080fd5b5061012e61030436600461252f565b610a3f565b34801561031557600080fd5b5061012e6103243660046123bd565b610f7f565b34801561033557600080fd5b50606654610150906001600160a01b031681565b34801561035557600080fd5b5061012e610364366004612383565b6110e4565b6033546001600160a01b0316331461039c5760405162461bcd60e51b815260040161039390612750565b60405180910390fd5b6001600160a01b0381166103c25760405162461bcd60e51b815260040161039390612785565b606580546001600160a01b0319166001600160a01b0392909216919091179055565b6033546001600160a01b0316331461040e5760405162461bcd60e51b815260040161039390612750565b60009283526069602052604090922080546001600160a01b039384166001600160a01b031991821617825560019091018054929093169116179055565b6033546001600160a01b031633146104755760405162461bcd60e51b815260040161039390612750565b6001600160a01b03811661049b5760405162461bcd60e51b815260040161039390612785565b606880546001600160a01b0319166001600160a01b0392909216919091179055565b6033546001600160a01b031633146104e75760405162461bcd60e51b815260040161039390612750565b6001600160a01b038116610532576033546040516001600160a01b03909116904780156108fc02916000818181858888f1935050505015801561052e573d6000803e3d6000fd5b5050565b806001600160a01b031663a9059cbb6105536033546001600160a01b031690565b6040516370a0823160e01b81526001600160a01b038516906370a082319061057f903090600401612671565b60206040518083038186803b15801561059757600080fd5b505afa1580156105ab573d6000803e3d6000fd5b505050506040513d601f19601f820116820180604052508101906105cf91906125a6565b6040516001600160e01b031960e085901b1681526001600160a01b0390921660048301526024820152604401602060405180830381600087803b15801561061557600080fd5b505af1158015610629573d6000803e3d6000fd5b505050506040513d601f19601f8201168201806040525081019061052e91906124cd565b50565b6033546001600160a01b0316331461067a5760405162461bcd60e51b815260040161039390612750565b6001600160a01b0381166106a05760405162461bcd60e51b815260040161039390612785565b606780546001600160a01b0319166001600160a01b0392909216919091179055565b6033546001600160a01b031633146106ec5760405162461bcd60e51b815260040161039390612750565b6106f66000611178565b565b610704838334846111ca565b60008290506000816001600160a01b0316630dfe16816040518163ffffffff1660e01b815260040160206040518083038186803b15801561074457600080fd5b505afa158015610758573d6000803e3d6000fd5b505050506040513d601f19601f8201168201806040525081019061077c91906123a0565b90506000826001600160a01b031663d21220a76040518163ffffffff1660e01b815260040160206040518083038186803b1580156107b957600080fd5b505afa1580156107cd573d6000803e3d6000fd5b505050506040513d601f19601f820116820180604052508101906107f191906123a0565b90506107fd82336114f1565b61080781336114f1565b60665460405187815234916001600160a01b03888116929116907fcc11f9b552b14f6b75b7a35a5afb402bd25f24d8216334d195e162c42f72d026906020015b60405180910390a4505050505050565b60006108833330604085018035906108729060208801612383565b6001600160a01b0316929190611591565b8135600090815260696020908152604091829020546001600160a01b0316916108bc9183916108b791908701908701612383565b6115fc565b60006108ce6080850160608601612383565b90506000816001600160a01b0316630dfe16816040518163ffffffff1660e01b815260040160206040518083038186803b15801561090b57600080fd5b505afa15801561091f573d6000803e3d6000fd5b505050506040513d601f19601f8201168201806040525081019061094391906123a0565b90506000826001600160a01b031663d21220a76040518163ffffffff1660e01b815260040160206040518083038186803b15801561098057600080fd5b505afa158015610994573d6000803e3d6000fd5b505050506040513d601f19601f820116820180604052508101906109b891906123a0565b90506109eb86356109cf6040890160208a01612383565b604089013585856109e660808d0160608e01612383565b611694565b8535600090815260696020526040902054610a20906001600160a01b03168383610a1b60a08b0160808c01612383565b61178f565b9450610a2c82336114f1565b610a3681336114f1565b50505050919050565b610a546001600160a01b038516333086611591565b6000858152606960205260409020546001600160a01b0316610a7681866115fc565b60008590506000816001600160a01b0316630dfe16816040518163ffffffff1660e01b815260040160206040518083038186803b158015610ab657600080fd5b505afa158015610aca573d6000803e3d6000fd5b505050506040513d601f19601f82011682018060405250810190610aee91906123a0565b90506000826001600160a01b031663d21220a76040518163ffffffff1660e01b815260040160206040518083038186803b158015610b2b57600080fd5b505afa158015610b3f573d6000803e3d6000fd5b505050506040513d601f19601f82011682018060405250810190610b6391906123a0565b604051635d5155ef60e11b81526001600160a01b0384811660048301528083166024830152604482018a905260006064830181905260848301523060a48301524260c48301529192509085169063baa2abde9060e4016040805180830381600087803b158015610bd257600080fd5b505af1158015610be6573d6000803e3d6000fd5b505050506040513d601f19601f82011682018060405250810190610c0a91906125bf565b50506040805160028082526060820183526000926020830190803683370190505090508281600081518110610c4157610c416128a5565b60200260200101906001600160a01b031690816001600160a01b0316815250508181600181518110610c7557610c756128a5565b60200260200101906001600160a01b031690816001600160a01b031681525050610c9f85846115fc565b846001600160a01b03166338ed1739846001600160a01b03166370a08231306040518263ffffffff1660e01b8152600401610cda9190612671565b60206040518083038186803b158015610cf257600080fd5b505afa158015610d06573d6000803e3d6000fd5b505050506040513d601f19601f82011682018060405250810190610d2a91906125a6565b6000848a426040518663ffffffff1660e01b8152600401610d4f9594939291906127f6565b600060405180830381600087803b158015610d6957600080fd5b505af1158015610d7d573d6000803e3d6000fd5b505050506040513d6000823e601f3d908101601f19168201604052610da59190810190612408565b50506040516370a0823160e01b81526000906001600160a01b038316906370a0823190610dd6903090600401612671565b60206040518083038186803b158015610dee57600080fd5b505afa158015610e02573d6000803e3d6000fd5b505050506040513d601f19601f82011682018060405250810190610e2691906125a6565b60408051600280825260608201835292935060009290916020830190803683370190505090508281600081518110610e6057610e606128a5565b60200260200101906001600160a01b031690816001600160a01b0316815250508781600181518110610e9457610e946128a5565b6001600160a01b0392831660209182029290920101526040516338ed173960e01b8152908716906338ed173990610ed890859060009086908d9042906004016127f6565b600060405180830381600087803b158015610ef257600080fd5b505af1158015610f06573d6000803e3d6000fd5b505050506040513d6000823e601f3d908101601f19168201604052610f2e9190810190612408565b506040518b81528b908a906001600160a01b038d16907f5312da833ca9ab61a63f7205eaa08ac243b9d2dc4518fb8b546fc26897209f949060200160405180910390a3505050505050505050505050565b600054610100900460ff16610f9a5760005460ff1615610f9e565b303b155b6110015760405162461bcd60e51b815260206004820152602e60248201527f496e697469616c697a61626c653a20636f6e747261637420697320616c72656160448201526d191e481a5b9a5d1a585b1a5e995960921b6064820152608401610393565b600054610100900460ff16158015611023576000805461ffff19166101011790555b61102b611933565b600061103f6033546001600160a01b031690565b6001600160a01b0316141561108f5760405162461bcd60e51b815260206004820152601660248201527516985c0e881bdddb995c881b5d5cdd081899481cd95d60521b6044820152606401610393565b606780546001600160a01b038085166001600160a01b03199283161790925560658054878416908316179055606680549286169290911691909117905580156110de576000805461ff00191690555b50505050565b6033546001600160a01b0316331461110e5760405162461bcd60e51b815260040161039390612750565b6001600160a01b0381166111735760405162461bcd60e51b815260206004820152602660248201527f4f776e61626c653a206e6577206f776e657220697320746865207a65726f206160448201526564647265737360d01b6064820152608401610393565b61064d815b603380546001600160a01b038381166001600160a01b0319831681179093556040519116919082907f8be0079c531659141344cd1fd0a4f28419497f9722a3daafe3b4186f6b6457e090600090a35050565b6000848152606960209081526040808320548151630dfe168160e01b8152915187946001600160a01b0392831694909392861692630dfe16819260048083019392829003018186803b15801561121f57600080fd5b505afa158015611233573d6000803e3d6000fd5b505050506040513d601f19601f8201168201806040525081019061125791906123a0565b90506000836001600160a01b031663d21220a76040518163ffffffff1660e01b815260040160206040518083038186803b15801561129457600080fd5b505afa1580156112a8573d6000803e3d6000fd5b505050506040513d601f19601f820116820180604052508101906112cc91906123a0565b6066549091506001600160a01b03838116911614806112f857506066546001600160a01b038281169116145b15611407576066546000906001600160a01b0384811691161461131b578261131d565b815b9050600061132c600289612832565b9050600061133c8b848430611962565b905061134886846115fc565b6001600160a01b03861663f91b3f72611361848c612854565b6040516001600160e01b031960e084901b1681526001600160a01b0380881660048301526024820186905260006044830181905260648301528c1660848201524260a482015260c4016060604051808303818588803b1580156113c357600080fd5b505af11580156113d7573d6000803e3d6000fd5b50505050506040513d601f19601f820116820180604052508101906113fc91906125e3565b5050505050506114e7565b6000611414600288612832565b905060006114248a858430611962565b9050600061143d8b85611437868d612854565b30611962565b905061144986866115fc565b61145386856115fc565b856001600160a01b031663e8e33700868685856000808f426040518963ffffffff1660e01b815260040161148e98979695949392919061269f565b606060405180830381600087803b1580156114a857600080fd5b505af11580156114bc573d6000803e3d6000fd5b505050506040513d601f19601f820116820180604052508101906114e091906125e3565b5050505050505b5050505050505050565b6040516370a0823160e01b81526000906001600160a01b038416906370a0823190611520903090600401612671565b60206040518083038186803b15801561153857600080fd5b505afa15801561154c573d6000803e3d6000fd5b505050506040513d601f19601f8201168201806040525081019061157091906125a6565b9050801561158c5761158c6001600160a01b0384168383611abd565b505050565b6040516001600160a01b03808516602483015283166044820152606481018290526110de9085906323b872dd60e01b906084015b60408051601f198184030181529190526020810180516001600160e01b03166001600160e01b031990931692909217909152611aed565b604051636eb1769f60e11b81526001600160a01b0382169063dd62ed3e9061162a9030908690600401612685565b60206040518083038186803b15801561164257600080fd5b505afa158015611656573d6000803e3d6000fd5b505050506040513d601f19601f8201168201806040525081019061167a91906125a6565b61052e5761052e6001600160a01b03821683600019611bbf565b826001600160a01b0316856001600160a01b031614806116c55750816001600160a01b0316856001600160a01b0316145b15611713576000836001600160a01b0316866001600160a01b0316146116eb57836116ed565b825b905060006116fc600287612832565b905061170b8888838530611ce2565b505050611749565b6000611720600286612832565b905061172f8787838730611ce2565b50611746878761173f8489612854565b8630611ce2565b50505b83816001600160a01b0316866001600160a01b03167fcc11f9b552b14f6b75b7a35a5afb402bd25f24d8216334d195e162c42f72d0268960405161084791815260200190565b600061179b85856115fc565b6117a585846115fc565b846001600160a01b031663e8e337008585876001600160a01b03166370a08231306040518263ffffffff1660e01b81526004016117e29190612671565b60206040518083038186803b1580156117fa57600080fd5b505afa15801561180e573d6000803e3d6000fd5b505050506040513d601f19601f8201168201806040525081019061183291906125a6565b6040516370a0823160e01b81526001600160a01b038916906370a082319061185e903090600401612671565b60206040518083038186803b15801561187657600080fd5b505afa15801561188a573d6000803e3d6000fd5b505050506040513d601f19601f820116820180604052508101906118ae91906125a6565b60008089426040518963ffffffff1660e01b81526004016118d698979695949392919061269f565b606060405180830381600087803b1580156118f057600080fd5b505af1158015611904573d6000803e3d6000fd5b505050506040513d601f19601f8201168201806040525081019061192891906125e3565b979650505050505050565b600054610100900460ff1661195a5760405162461bcd60e51b8152600401610393906127ab565b6106f6612153565b6040805160028082526060808301845260009390929190602083019080368337505060665482519293506001600160a01b0316918391506000906119a8576119a86128a5565b60200260200101906001600160a01b031690816001600160a01b03168152505084816001815181106119dc576119dc6128a5565b6001600160a01b0392831660209182029290920181019190915260008881526069909152604080822054905163a2a1623d60e01b81529192169063a2a1623d908790611a3290859087908a9042906004016126e8565b6000604051808303818588803b158015611a4b57600080fd5b505af1158015611a5f573d6000803e3d6000fd5b50505050506040513d6000823e601f3d908101601f19168201604052611a889190810190612408565b90508060018251611a999190612854565b81518110611aa957611aa96128a5565b602002602001015192505050949350505050565b6040516001600160a01b03831660248201526044810182905261158c90849063a9059cbb60e01b906064016115c5565b6000611b42826040518060400160405280602081526020017f5361666545524332303a206c6f772d6c6576656c2063616c6c206661696c6564815250856001600160a01b03166121839092919063ffffffff16565b80519091501561158c5780806020019051810190611b6091906124cd565b61158c5760405162461bcd60e51b815260206004820152602a60248201527f5361666545524332303a204552433230206f7065726174696f6e20646964206e6044820152691bdd081cdd58d8d9595960b21b6064820152608401610393565b801580611c475750604051636eb1769f60e11b81526001600160a01b0384169063dd62ed3e90611bf59030908690600401612685565b60206040518083038186803b158015611c0d57600080fd5b505afa158015611c21573d6000803e3d6000fd5b505050506040513d601f19601f82011682018060405250810190611c4591906125a6565b155b611cb25760405162461bcd60e51b815260206004820152603660248201527f5361666545524332303a20617070726f76652066726f6d206e6f6e2d7a65726f60448201527520746f206e6f6e2d7a65726f20616c6c6f77616e636560501b6064820152608401610393565b6040516001600160a01b03831660248201526044810182905261158c90849063095ea7b360e01b906064016115c5565b60008581526069602052604080822060010154905163e6a4390560e01b81526001600160a01b03909116908290829063e6a4390590611d27908a908990600401612685565b60206040518083038186803b158015611d3f57600080fd5b505afa158015611d53573d6000803e3d6000fd5b505050506040513d601f19601f82011682018060405250810190611d7791906123a0565b905060606001600160a01b03821615611e175760408051600280825260608201835290916020830190803683370190505090508781600081518110611dbe57611dbe6128a5565b60200260200101906001600160a01b031690816001600160a01b0316815250508581600181518110611df257611df26128a5565b60200260200101906001600160a01b031690816001600160a01b031681525050612045565b6040805160038082526080820190925290602082016060803683370190505090508781600081518110611e4c57611e4c6128a5565b60200260200101906001600160a01b031690816001600160a01b0316815250508581600281518110611e8057611e806128a5565b6001600160a01b039283166020918202929092010152606654611ea79185918b911661219c565b8015611ec65750606654611ec69084906001600160a01b03168861219c565b15611eef5760665481516001600160a01b039091169082906001908110611df257611df26128a5565b606754611f089084908a906001600160a01b031661219c565b8015611f275750606754611f279084906001600160a01b03168861219c565b15611f505760675481516001600160a01b039091169082906001908110611df257611df26128a5565b606554611f699084908a906001600160a01b031661219c565b8015611f885750606554611f889084906001600160a01b03168861219c565b15611fb15760655481516001600160a01b039091169082906001908110611df257611df26128a5565b606854611fca9084908a906001600160a01b031661219c565b8015611fe95750606854611fe99084906001600160a01b03168861219c565b156120125760685481516001600160a01b039091169082906001908110611df257611df26128a5565b60405162461bcd60e51b815260206004820152600860248201526705a41503a204e45560c41b6044820152606401610393565b6000898152606960205260408120548251612081926001600160a01b03909216918491612074576120746128a5565b60200260200101516115fc565b6000898152606960205260408082205490516338ed173960e01b81526001600160a01b03909116906338ed1739906120c5908b90859087908c9042906004016127f6565b600060405180830381600087803b1580156120df57600080fd5b505af11580156120f3573d6000803e3d6000fd5b505050506040513d6000823e601f3d908101601f1916820160405261211b9190810190612408565b9050806001825161212c9190612854565b8151811061213c5761213c6128a5565b602002602001015194505050505095945050505050565b600054610100900460ff1661217a5760405162461bcd60e51b8152600401610393906127ab565b6106f633611178565b60606121928484600085612232565b90505b9392505050565b60405163e6a4390560e01b815260009081906001600160a01b0386169063e6a43905906121cf9087908790600401612685565b60206040518083038186803b1580156121e757600080fd5b505afa1580156121fb573d6000803e3d6000fd5b505050506040513d601f19601f8201168201806040525081019061221f91906123a0565b6001600160a01b03161415949350505050565b6060824710156122935760405162461bcd60e51b815260206004820152602660248201527f416464726573733a20696e73756666696369656e742062616c616e636520666f6044820152651c8818d85b1b60d21b6064820152608401610393565b843b6122e15760405162461bcd60e51b815260206004820152601d60248201527f416464726573733a2063616c6c20746f206e6f6e2d636f6e74726163740000006044820152606401610393565b600080866001600160a01b031685876040516122fd9190612655565b60006040518083038185875af1925050503d806000811461233a576040519150601f19603f3d011682016040523d82523d6000602084013e61233f565b606091505b509150915061192882828660608315612359575081612195565b8251156123695782518084602001fd5b8160405162461bcd60e51b8152600401610393919061271d565b60006020828403121561239557600080fd5b8135612195816128d1565b6000602082840312156123b257600080fd5b8151612195816128d1565b6000806000606084860312156123d257600080fd5b83356123dd816128d1565b925060208401356123ed816128d1565b915060408401356123fd816128d1565b809150509250925092565b6000602080838503121561241b57600080fd5b825167ffffffffffffffff8082111561243357600080fd5b818501915085601f83011261244757600080fd5b815181811115612459576124596128bb565b8060051b604051601f19603f8301168101818110858211171561247e5761247e6128bb565b604052828152858101935084860182860187018a101561249d57600080fd5b600095505b838610156124c05780518552600195909501949386019386016124a2565b5098975050505050505050565b6000602082840312156124df57600080fd5b8151801515811461219557600080fd5b60006020828403121561250157600080fd5b5035919050565b60008060006060848603121561251d57600080fd5b8335925060208401356123ed816128d1565b600080600080600060a0868803121561254757600080fd5b853594506020860135612559816128d1565b9350604086013592506060860135612570816128d1565b91506080860135612580816128d1565b809150509295509295909350565b600060a082840312156125a057600080fd5b50919050565b6000602082840312156125b857600080fd5b5051919050565b600080604083850312156125d257600080fd5b505080516020909101519092909150565b6000806000606084860312156125f857600080fd5b8351925060208401519150604084015190509250925092565b600081518084526020808501945080840160005b8381101561264a5781516001600160a01b031687529582019590820190600101612625565b509495945050505050565b60008251612667818460208701612879565b9190910192915050565b6001600160a01b0391909116815260200190565b6001600160a01b0392831681529116602082015260400190565b6001600160a01b039889168152968816602088015260408701959095526060860193909352608085019190915260a084015290921660c082015260e08101919091526101000190565b8481526080602082015260006127016080830186612611565b6001600160a01b03949094166040830152506060015292915050565b602081526000825180602084015261273c816040850160208701612879565b601f01601f19169190910160400192915050565b6020808252818101527f4f776e61626c653a2063616c6c6572206973206e6f7420746865206f776e6572604082015260600190565b6020808252600c908201526b7a65726f206164647265737360a01b604082015260600190565b6020808252602b908201527f496e697469616c697a61626c653a20636f6e7472616374206973206e6f74206960408201526a6e697469616c697a696e6760a81b606082015260800190565b85815284602082015260a06040820152600061281560a0830186612611565b6001600160a01b0394909416606083015250608001529392505050565b60008261284f57634e487b7160e01b600052601260045260246000fd5b500490565b60008282101561287457634e487b7160e01b600052601160045260246000fd5b500390565b60005b8381101561289457818101518382015260200161287c565b838111156110de5750506000910152565b634e487b7160e01b600052603260045260246000fd5b634e487b7160e01b600052604160045260246000fd5b6001600160a01b038116811461064d57600080fdfea164736f6c6343000807000a",
  "devdoc": {
    "kind": "dev",
    "methods": {
      "owner()": {
        "details": "Returns the address of the current owner."
      },
      "renounceOwnership()": {
        "details": "Leaves the contract without owner. It will not be possible to call `onlyOwner` functions anymore. Can only be called by the current owner. NOTE: Renouncing ownership will leave the contract without an owner, thereby removing any functionality that is only available to the owner."
      },
      "setFactoryAndRouter(bytes32,address,address)": {
        "params": {
          "_factory": "factory address",
          "_router": "router address",
          "_type": "protocol type"
        }
      },
      "transferOwnership(address)": {
        "details": "Transfers ownership of the contract to a new account (`newOwner`). Can only be called by the current owner."
      },
      "withdraw(address)": {
        "params": {
          "_token": "token address"
        }
      },
      "zapIn(bytes32,address,address)": {
        "params": {
          "_receiver": "receiver address",
          "_to": "lp token out",
          "_type": "protocol type"
        }
      },
      "zapInToken((bytes32,address,uint256,address,address))": {
        "params": {
          "_params": "zapIn params"
        }
      },
      "zapOut(bytes32,address,uint256,address,address)": {
        "params": {
          "_amount": "amount LP in",
          "_from": "lp token in",
          "_receiver": "receiver address",
          "_type": "protocol type"
        }
      }
    },
    "version": 1
  },
  "userdoc": {
    "kind": "user",
    "methods": {
      "withdraw(address)": {
        "notice": "withdraw token that contract hold"
      },
      "zapIn(bytes32,address,address)": {
        "notice": "zap in ETH to LP"
      },
      "zapInToken((bytes32,address,uint256,address,address))": {
        "notice": "zap in for token ERC20"
      }
    },
    "version": 1
  },
  "storageLayout": {
    "storage": [
      {
        "astId": 598,
        "contract": "contracts/dependencies/Zap.sol:Zap",
        "label": "_initialized",
        "offset": 0,
        "slot": "0",
        "type": "t_bool"
      },
      {
        "astId": 601,
        "contract": "contracts/dependencies/Zap.sol:Zap",
        "label": "_initializing",
        "offset": 1,
        "slot": "0",
        "type": "t_bool"
      },
      {
        "astId": 1889,
        "contract": "contracts/dependencies/Zap.sol:Zap",
        "label": "__gap",
        "offset": 0,
        "slot": "1",
        "type": "t_array(t_uint256)50_storage"
      },
      {
        "astId": 10,
        "contract": "contracts/dependencies/Zap.sol:Zap",
        "label": "_owner",
        "offset": 0,
        "slot": "51",
        "type": "t_address"
      },
      {
        "astId": 122,
        "contract": "contracts/dependencies/Zap.sol:Zap",
        "label": "__gap",
        "offset": 0,
        "slot": "52",
        "type": "t_array(t_uint256)49_storage"
      },
      {
        "astId": 8908,
        "contract": "contracts/dependencies/Zap.sol:Zap",
        "label": "usdtToken",
        "offset": 0,
        "slot": "101",
        "type": "t_address"
      },
      {
        "astId": 8910,
        "contract": "contracts/dependencies/Zap.sol:Zap",
        "label": "wrappedNative",
        "offset": 0,
        "slot": "102",
        "type": "t_address"
      },
      {
        "astId": 8912,
        "contract": "contracts/dependencies/Zap.sol:Zap",
        "label": "usdcToken",
        "offset": 0,
        "slot": "103",
        "type": "t_address"
      },
      {
        "astId": 8914,
        "contract": "contracts/dependencies/Zap.sol:Zap",
        "label": "zeroXBlockToken",
        "offset": 0,
        "slot": "104",
        "type": "t_address"
      },
      {
        "astId": 8919,
        "contract": "contracts/dependencies/Zap.sol:Zap",
        "label": "protocols",
        "offset": 0,
        "slot": "105",
        "type": "t_mapping(t_bytes32,t_struct(ProtocolStats)8895_storage)"
      }
    ],
    "types": {
      "t_address": {
        "encoding": "inplace",
        "label": "address",
        "numberOfBytes": "20"
      },
      "t_array(t_uint256)49_storage": {
        "base": "t_uint256",
        "encoding": "inplace",
        "label": "uint256[49]",
        "numberOfBytes": "1568"
      },
      "t_array(t_uint256)50_storage": {
        "base": "t_uint256",
        "encoding": "inplace",
        "label": "uint256[50]",
        "numberOfBytes": "1600"
      },
      "t_bool": {
        "encoding": "inplace",
        "label": "bool",
        "numberOfBytes": "1"
      },
      "t_bytes32": {
        "encoding": "inplace",
        "label": "bytes32",
        "numberOfBytes": "32"
      },
      "t_mapping(t_bytes32,t_struct(ProtocolStats)8895_storage)": {
        "encoding": "mapping",
        "key": "t_bytes32",
        "label": "mapping(bytes32 => struct Zap.ProtocolStats)",
        "numberOfBytes": "32",
        "value": "t_struct(ProtocolStats)8895_storage"
      },
      "t_struct(ProtocolStats)8895_storage": {
        "encoding": "inplace",
        "label": "struct Zap.ProtocolStats",
        "members": [
          {
            "astId": 8892,
            "contract": "contracts/dependencies/Zap.sol:Zap",
            "label": "router",
            "offset": 0,
            "slot": "0",
            "type": "t_address"
          },
          {
            "astId": 8894,
            "contract": "contracts/dependencies/Zap.sol:Zap",
            "label": "factory",
            "offset": 0,
            "slot": "1",
            "type": "t_address"
          }
        ],
        "numberOfBytes": "64"
      },
      "t_uint256": {
        "encoding": "inplace",
        "label": "uint256",
        "numberOfBytes": "32"
      }
    }
  }
}