{
  "address": "0x9D02eFe618d0A2c13AFa272cD890eDf3Ecb3cd31",
  "abi": [
    {
      "anonymous": false,
      "inputs": [
        {
          "indexed": true,
          "internalType": "address",
          "name": "previousOwner",
          "type": "address"
        },
        {
          "indexed": true,
          "internalType": "address",
          "name": "newOwner",
          "type": "address"
        }
      ],
      "name": "OwnershipTransferred",
      "type": "event"
    },
    {
      "anonymous": false,
      "inputs": [
        {
          "indexed": true,
          "internalType": "address",
          "name": "token",
          "type": "address"
        },
        {
          "indexed": true,
          "internalType": "address",
          "name": "lpToken",
          "type": "address"
        },
        {
          "indexed": true,
          "internalType": "uint256",
          "name": "amount",
          "type": "uint256"
        },
        {
          "indexed": false,
          "internalType": "bytes32",
          "name": "protocol",
          "type": "bytes32"
        }
      ],
      "name": "ZapIn",
      "type": "event"
    },
    {
      "anonymous": false,
      "inputs": [
        {
          "indexed": true,
          "internalType": "address",
          "name": "lpToken",
          "type": "address"
        },
        {
          "indexed": true,
          "internalType": "uint256",
          "name": "amount",
          "type": "uint256"
        },
        {
          "indexed": false,
          "internalType": "bytes32",
          "name": "protocol",
          "type": "bytes32"
        }
      ],
      "name": "ZapOut",
      "type": "event"
    },
    {
      "inputs": [
        {
          "internalType": "address",
          "name": "_usdtToken",
          "type": "address"
        },
        {
          "internalType": "address",
          "name": "_wrappedNative",
          "type": "address"
        },
        {
          "internalType": "address",
          "name": "_usdcToken",
          "type": "address"
        }
      ],
      "name": "initialize",
      "outputs": [],
      "stateMutability": "nonpayable",
      "type": "function"
    },
    {
      "inputs": [],
      "name": "owner",
      "outputs": [
        {
          "internalType": "address",
          "name": "",
          "type": "address"
        }
      ],
      "stateMutability": "view",
      "type": "function"
    },
    {
      "inputs": [
        {
          "internalType": "bytes32",
          "name": "",
          "type": "bytes32"
        }
      ],
      "name": "protocols",
      "outputs": [
        {
          "internalType": "address",
          "name": "router",
          "type": "address"
        },
        {
          "internalType": "address",
          "name": "factory",
          "type": "address"
        }
      ],
      "stateMutability": "view",
      "type": "function"
    },
    {
      "inputs": [],
      "name": "renounceOwnership",
      "outputs": [],
      "stateMutability": "nonpayable",
      "type": "function"
    },
    {
      "inputs": [
        {
          "internalType": "bytes32",
          "name": "_type",
          "type": "bytes32"
        },
        {
          "internalType": "address",
          "name": "_factory",
          "type": "address"
        },
        {
          "internalType": "address",
          "name": "_router",
          "type": "address"
        }
      ],
      "name": "setFactoryAndRouter",
      "outputs": [],
      "stateMutability": "nonpayable",
      "type": "function"
    },
    {
      "inputs": [
        {
          "internalType": "address",
          "name": "token_",
          "type": "address"
        }
      ],
      "name": "setToken",
      "outputs": [],
      "stateMutability": "nonpayable",
      "type": "function"
    },
    {
      "inputs": [
        {
          "internalType": "address",
          "name": "newOwner",
          "type": "address"
        }
      ],
      "name": "transferOwnership",
      "outputs": [],
      "stateMutability": "nonpayable",
      "type": "function"
    },
    {
      "inputs": [],
      "name": "usdcToken",
      "outputs": [
        {
          "internalType": "address",
          "name": "",
          "type": "address"
        }
      ],
      "stateMutability": "view",
      "type": "function"
    },
    {
      "inputs": [],
      "name": "usdtToken",
      "outputs": [
        {
          "internalType": "address",
          "name": "",
          "type": "address"
        }
      ],
      "stateMutability": "view",
      "type": "function"
    },
    {
      "inputs": [
        {
          "internalType": "address",
          "name": "_token",
          "type": "address"
        }
      ],
      "name": "withdraw",
      "outputs": [],
      "stateMutability": "nonpayable",
      "type": "function"
    },
    {
      "inputs": [],
      "name": "wrappedNative",
      "outputs": [
        {
          "internalType": "address",
          "name": "",
          "type": "address"
        }
      ],
      "stateMutability": "view",
      "type": "function"
    },
    {
      "inputs": [
        {
          "internalType": "bytes32",
          "name": "_type",
          "type": "bytes32"
        },
        {
          "internalType": "address",
          "name": "_to",
          "type": "address"
        },
        {
          "internalType": "address",
          "name": "_receiver",
          "type": "address"
        }
      ],
      "name": "zapIn",
      "outputs": [],
      "stateMutability": "payable",
      "type": "function"
    },
    {
      "inputs": [
        {
          "components": [
            {
              "internalType": "bytes32",
              "name": "protocolType",
              "type": "bytes32"
            },
            {
              "internalType": "address",
              "name": "from",
              "type": "address"
            },
            {
              "internalType": "uint256",
              "name": "amount",
              "type": "uint256"
            },
            {
              "internalType": "address",
              "name": "to",
              "type": "address"
            },
            {
              "internalType": "address",
              "name": "receiver",
              "type": "address"
            }
          ],
          "internalType": "struct Zap.ZapInForm",
          "name": "_params",
          "type": "tuple"
        }
      ],
      "name": "zapInToken",
      "outputs": [
        {
          "internalType": "uint256",
          "name": "liquidity",
          "type": "uint256"
        }
      ],
      "stateMutability": "nonpayable",
      "type": "function"
    },
    {
      "inputs": [
        {
          "internalType": "bytes32",
          "name": "_type",
          "type": "bytes32"
        },
        {
          "internalType": "address",
          "name": "_from",
          "type": "address"
        },
        {
          "internalType": "uint256",
          "name": "_amount",
          "type": "uint256"
        },
        {
          "internalType": "address",
          "name": "_to",
          "type": "address"
        },
        {
          "internalType": "address",
          "name": "_receiver",
          "type": "address"
        }
      ],
      "name": "zapOut",
      "outputs": [],
      "stateMutability": "nonpayable",
      "type": "function"
    },
    {
      "inputs": [],
      "name": "zeroXBlockToken",
      "outputs": [
        {
          "internalType": "address",
          "name": "",
          "type": "address"
        }
      ],
      "stateMutability": "view",
      "type": "function"
    },
    {
      "stateMutability": "payable",
      "type": "receive"
    }
  ],
  "transactionHash": "0xa242a5e2ee041886d894d17dbf8a4664a7a6c43dc8bdef92ed68664cd6ed1bf2",
  "args": [],
  "numDeployments": 1,
  "solcInputHash": "c04d8e5b374999a2c0db764f83e64056",
  "bytecode": "0x608060405234801561001057600080fd5b506127a2806100206000396000f3fe6080604052600436106100dc5760003560e01c80638da5cb5b1161008a578063bacccdb211610059578063bacccdb214610283578063c0c53b8b146102a3578063eb6d3a11146102c3578063f2fde38b146102e357600080fd5b80638da5cb5b14610204578063a908367014610222578063a98ad46c14610235578063aee22b781461025557600080fd5b806311eac855146100e857806312d8e1101461011e578063144fa6d71461014057806348cb58761461016057806351cff8d9146101805780635515fe0a146101a0578063715018a6146101ef57600080fd5b366100e357005b600080fd5b3480156100f457600080fd5b50606754610108906001600160a01b031681565b6040516101159190612546565b60405180910390f35b34801561012a57600080fd5b5061013e6101393660046123dd565b610303565b005b34801561014c57600080fd5b5061013e61015b366004612258565b610373565b34801561016c57600080fd5b50606854610108906001600160a01b031681565b34801561018c57600080fd5b5061013e61019b366004612258565b610404565b3480156101ac57600080fd5b506101e16101bb3660046123c4565b606960205260009081526040902080546001909101546001600160a01b03918216911682565b60405161011592919061255a565b3480156101fb57600080fd5b5061013e610597565b34801561021057600080fd5b506033546001600160a01b0316610108565b61013e6102303660046123dd565b6105cd565b34801561024157600080fd5b50606554610108906001600160a01b031681565b34801561026157600080fd5b50610275610270366004612463565b61072c565b604051908152602001610115565b34801561028f57600080fd5b5061013e61029e366004612404565b610914565b3480156102af57600080fd5b5061013e6102be366004612292565b610e54565b3480156102cf57600080fd5b50606654610108906001600160a01b031681565b3480156102ef57600080fd5b5061013e6102fe366004612258565b610fb9565b6033546001600160a01b031633146103365760405162461bcd60e51b815260040161032d90612625565b60405180910390fd5b60009283526069602052604090922080546001600160a01b039384166001600160a01b031991821617825560019091018054929093169116179055565b6033546001600160a01b0316331461039d5760405162461bcd60e51b815260040161032d90612625565b6001600160a01b0381166103e25760405162461bcd60e51b815260206004820152600c60248201526b7a65726f206164647265737360a01b604482015260640161032d565b606880546001600160a01b0319166001600160a01b0392909216919091179055565b6033546001600160a01b0316331461042e5760405162461bcd60e51b815260040161032d90612625565b6001600160a01b038116610479576033546040516001600160a01b03909116904780156108fc02916000818181858888f19350505050158015610475573d6000803e3d6000fd5b5050565b806001600160a01b031663a9059cbb61049a6033546001600160a01b031690565b6040516370a0823160e01b81526001600160a01b038516906370a08231906104c6903090600401612546565b60206040518083038186803b1580156104de57600080fd5b505afa1580156104f2573d6000803e3d6000fd5b505050506040513d601f19601f82011682018060405250810190610516919061247b565b6040516001600160e01b031960e085901b1681526001600160a01b0390921660048301526024820152604401602060405180830381600087803b15801561055c57600080fd5b505af1158015610570573d6000803e3d6000fd5b505050506040513d601f19601f8201168201806040525081019061047591906123a2565b50565b6033546001600160a01b031633146105c15760405162461bcd60e51b815260040161032d90612625565b6105cb600061104d565b565b6105d98383348461109f565b60008290506000816001600160a01b0316630dfe16816040518163ffffffff1660e01b815260040160206040518083038186803b15801561061957600080fd5b505afa15801561062d573d6000803e3d6000fd5b505050506040513d601f19601f820116820180604052508101906106519190612275565b90506000826001600160a01b031663d21220a76040518163ffffffff1660e01b815260040160206040518083038186803b15801561068e57600080fd5b505afa1580156106a2573d6000803e3d6000fd5b505050506040513d601f19601f820116820180604052508101906106c69190612275565b90506106d282336113c6565b6106dc81336113c6565b60665460405187815234916001600160a01b03888116929116907fcc11f9b552b14f6b75b7a35a5afb402bd25f24d8216334d195e162c42f72d026906020015b60405180910390a4505050505050565b60006107583330604085018035906107479060208801612258565b6001600160a01b0316929190611466565b8135600090815260696020908152604091829020546001600160a01b03169161079191839161078c91908701908701612258565b6114d1565b60006107a36080850160608601612258565b90506000816001600160a01b0316630dfe16816040518163ffffffff1660e01b815260040160206040518083038186803b1580156107e057600080fd5b505afa1580156107f4573d6000803e3d6000fd5b505050506040513d601f19601f820116820180604052508101906108189190612275565b90506000826001600160a01b031663d21220a76040518163ffffffff1660e01b815260040160206040518083038186803b15801561085557600080fd5b505afa158015610869573d6000803e3d6000fd5b505050506040513d601f19601f8201168201806040525081019061088d9190612275565b90506108c086356108a46040890160208a01612258565b604089013585856108bb60808d0160608e01612258565b611569565b85356000908152606960205260409020546108f5906001600160a01b031683836108f060a08b0160808c01612258565b611664565b945061090182336113c6565b61090b81336113c6565b50505050919050565b6109296001600160a01b038516333086611466565b6000858152606960205260409020546001600160a01b031661094b81866114d1565b60008590506000816001600160a01b0316630dfe16816040518163ffffffff1660e01b815260040160206040518083038186803b15801561098b57600080fd5b505afa15801561099f573d6000803e3d6000fd5b505050506040513d601f19601f820116820180604052508101906109c39190612275565b90506000826001600160a01b031663d21220a76040518163ffffffff1660e01b815260040160206040518083038186803b158015610a0057600080fd5b505afa158015610a14573d6000803e3d6000fd5b505050506040513d601f19601f82011682018060405250810190610a389190612275565b604051635d5155ef60e11b81526001600160a01b0384811660048301528083166024830152604482018a905260006064830181905260848301523060a48301524260c48301529192509085169063baa2abde9060e4016040805180830381600087803b158015610aa757600080fd5b505af1158015610abb573d6000803e3d6000fd5b505050506040513d601f19601f82011682018060405250810190610adf9190612494565b50506040805160028082526060820183526000926020830190803683370190505090508281600081518110610b1657610b16612754565b60200260200101906001600160a01b031690816001600160a01b0316815250508181600181518110610b4a57610b4a612754565b60200260200101906001600160a01b031690816001600160a01b031681525050610b7485846114d1565b846001600160a01b03166338ed1739846001600160a01b03166370a08231306040518263ffffffff1660e01b8152600401610baf9190612546565b60206040518083038186803b158015610bc757600080fd5b505afa158015610bdb573d6000803e3d6000fd5b505050506040513d601f19601f82011682018060405250810190610bff919061247b565b6000848a426040518663ffffffff1660e01b8152600401610c249594939291906126a5565b600060405180830381600087803b158015610c3e57600080fd5b505af1158015610c52573d6000803e3d6000fd5b505050506040513d6000823e601f3d908101601f19168201604052610c7a91908101906122dd565b50506040516370a0823160e01b81526000906001600160a01b038316906370a0823190610cab903090600401612546565b60206040518083038186803b158015610cc357600080fd5b505afa158015610cd7573d6000803e3d6000fd5b505050506040513d601f19601f82011682018060405250810190610cfb919061247b565b60408051600280825260608201835292935060009290916020830190803683370190505090508281600081518110610d3557610d35612754565b60200260200101906001600160a01b031690816001600160a01b0316815250508781600181518110610d6957610d69612754565b6001600160a01b0392831660209182029290920101526040516338ed173960e01b8152908716906338ed173990610dad90859060009086908d9042906004016126a5565b600060405180830381600087803b158015610dc757600080fd5b505af1158015610ddb573d6000803e3d6000fd5b505050506040513d6000823e601f3d908101601f19168201604052610e0391908101906122dd565b506040518b81528b908a906001600160a01b038d16907f5312da833ca9ab61a63f7205eaa08ac243b9d2dc4518fb8b546fc26897209f949060200160405180910390a3505050505050505050505050565b600054610100900460ff16610e6f5760005460ff1615610e73565b303b155b610ed65760405162461bcd60e51b815260206004820152602e60248201527f496e697469616c697a61626c653a20636f6e747261637420697320616c72656160448201526d191e481a5b9a5d1a585b1a5e995960921b606482015260840161032d565b600054610100900460ff16158015610ef8576000805461ffff19166101011790555b610f00611808565b6000610f146033546001600160a01b031690565b6001600160a01b03161415610f645760405162461bcd60e51b815260206004820152601660248201527516985c0e881bdddb995c881b5d5cdd081899481cd95d60521b604482015260640161032d565b606780546001600160a01b038085166001600160a01b0319928316179092556065805487841690831617905560668054928616929091169190911790558015610fb3576000805461ff00191690555b50505050565b6033546001600160a01b03163314610fe35760405162461bcd60e51b815260040161032d90612625565b6001600160a01b0381166110485760405162461bcd60e51b815260206004820152602660248201527f4f776e61626c653a206e6577206f776e657220697320746865207a65726f206160448201526564647265737360d01b606482015260840161032d565b610594815b603380546001600160a01b038381166001600160a01b0319831681179093556040519116919082907f8be0079c531659141344cd1fd0a4f28419497f9722a3daafe3b4186f6b6457e090600090a35050565b6000848152606960209081526040808320548151630dfe168160e01b8152915187946001600160a01b0392831694909392861692630dfe16819260048083019392829003018186803b1580156110f457600080fd5b505afa158015611108573d6000803e3d6000fd5b505050506040513d601f19601f8201168201806040525081019061112c9190612275565b90506000836001600160a01b031663d21220a76040518163ffffffff1660e01b815260040160206040518083038186803b15801561116957600080fd5b505afa15801561117d573d6000803e3d6000fd5b505050506040513d601f19601f820116820180604052508101906111a19190612275565b6066549091506001600160a01b03838116911614806111cd57506066546001600160a01b038281169116145b156112dc576066546000906001600160a01b038481169116146111f057826111f2565b815b905060006112016002896126e1565b905060006112118b848430611837565b905061121d86846114d1565b6001600160a01b03861663f91b3f72611236848c612703565b6040516001600160e01b031960e084901b1681526001600160a01b0380881660048301526024820186905260006044830181905260648301528c1660848201524260a482015260c4016060604051808303818588803b15801561129857600080fd5b505af11580156112ac573d6000803e3d6000fd5b50505050506040513d601f19601f820116820180604052508101906112d191906124b8565b5050505050506113bc565b60006112e96002886126e1565b905060006112f98a858430611837565b905060006113128b8561130c868d612703565b30611837565b905061131e86866114d1565b61132886856114d1565b856001600160a01b031663e8e33700868685856000808f426040518963ffffffff1660e01b8152600401611363989796959493929190612574565b606060405180830381600087803b15801561137d57600080fd5b505af1158015611391573d6000803e3d6000fd5b505050506040513d601f19601f820116820180604052508101906113b591906124b8565b5050505050505b5050505050505050565b6040516370a0823160e01b81526000906001600160a01b038416906370a08231906113f5903090600401612546565b60206040518083038186803b15801561140d57600080fd5b505afa158015611421573d6000803e3d6000fd5b505050506040513d601f19601f82011682018060405250810190611445919061247b565b90508015611461576114616001600160a01b0384168383611992565b505050565b6040516001600160a01b0380851660248301528316604482015260648101829052610fb39085906323b872dd60e01b906084015b60408051601f198184030181529190526020810180516001600160e01b03166001600160e01b0319909316929092179091526119c2565b604051636eb1769f60e11b81526001600160a01b0382169063dd62ed3e906114ff903090869060040161255a565b60206040518083038186803b15801561151757600080fd5b505afa15801561152b573d6000803e3d6000fd5b505050506040513d601f19601f8201168201806040525081019061154f919061247b565b610475576104756001600160a01b03821683600019611a94565b826001600160a01b0316856001600160a01b0316148061159a5750816001600160a01b0316856001600160a01b0316145b156115e8576000836001600160a01b0316866001600160a01b0316146115c057836115c2565b825b905060006115d16002876126e1565b90506115e08888838530611bb7565b50505061161e565b60006115f56002866126e1565b90506116048787838730611bb7565b5061161b87876116148489612703565b8630611bb7565b50505b83816001600160a01b0316866001600160a01b03167fcc11f9b552b14f6b75b7a35a5afb402bd25f24d8216334d195e162c42f72d0268960405161071c91815260200190565b600061167085856114d1565b61167a85846114d1565b846001600160a01b031663e8e337008585876001600160a01b03166370a08231306040518263ffffffff1660e01b81526004016116b79190612546565b60206040518083038186803b1580156116cf57600080fd5b505afa1580156116e3573d6000803e3d6000fd5b505050506040513d601f19601f82011682018060405250810190611707919061247b565b6040516370a0823160e01b81526001600160a01b038916906370a0823190611733903090600401612546565b60206040518083038186803b15801561174b57600080fd5b505afa15801561175f573d6000803e3d6000fd5b505050506040513d601f19601f82011682018060405250810190611783919061247b565b60008089426040518963ffffffff1660e01b81526004016117ab989796959493929190612574565b606060405180830381600087803b1580156117c557600080fd5b505af11580156117d9573d6000803e3d6000fd5b505050506040513d601f19601f820116820180604052508101906117fd91906124b8565b979650505050505050565b600054610100900460ff1661182f5760405162461bcd60e51b815260040161032d9061265a565b6105cb612028565b6040805160028082526060808301845260009390929190602083019080368337505060665482519293506001600160a01b03169183915060009061187d5761187d612754565b60200260200101906001600160a01b031690816001600160a01b03168152505084816001815181106118b1576118b1612754565b6001600160a01b0392831660209182029290920181019190915260008881526069909152604080822054905163a2a1623d60e01b81529192169063a2a1623d90879061190790859087908a9042906004016125bd565b6000604051808303818588803b15801561192057600080fd5b505af1158015611934573d6000803e3d6000fd5b50505050506040513d6000823e601f3d908101601f1916820160405261195d91908101906122dd565b9050806001825161196e9190612703565b8151811061197e5761197e612754565b602002602001015192505050949350505050565b6040516001600160a01b03831660248201526044810182905261146190849063a9059cbb60e01b9060640161149a565b6000611a17826040518060400160405280602081526020017f5361666545524332303a206c6f772d6c6576656c2063616c6c206661696c6564815250856001600160a01b03166120589092919063ffffffff16565b8051909150156114615780806020019051810190611a3591906123a2565b6114615760405162461bcd60e51b815260206004820152602a60248201527f5361666545524332303a204552433230206f7065726174696f6e20646964206e6044820152691bdd081cdd58d8d9595960b21b606482015260840161032d565b801580611b1c5750604051636eb1769f60e11b81526001600160a01b0384169063dd62ed3e90611aca903090869060040161255a565b60206040518083038186803b158015611ae257600080fd5b505afa158015611af6573d6000803e3d6000fd5b505050506040513d601f19601f82011682018060405250810190611b1a919061247b565b155b611b875760405162461bcd60e51b815260206004820152603660248201527f5361666545524332303a20617070726f76652066726f6d206e6f6e2d7a65726f60448201527520746f206e6f6e2d7a65726f20616c6c6f77616e636560501b606482015260840161032d565b6040516001600160a01b03831660248201526044810182905261146190849063095ea7b360e01b9060640161149a565b60008581526069602052604080822060010154905163e6a4390560e01b81526001600160a01b03909116908290829063e6a4390590611bfc908a90899060040161255a565b60206040518083038186803b158015611c1457600080fd5b505afa158015611c28573d6000803e3d6000fd5b505050506040513d601f19601f82011682018060405250810190611c4c9190612275565b905060606001600160a01b03821615611cec5760408051600280825260608201835290916020830190803683370190505090508781600081518110611c9357611c93612754565b60200260200101906001600160a01b031690816001600160a01b0316815250508581600181518110611cc757611cc7612754565b60200260200101906001600160a01b031690816001600160a01b031681525050611f1a565b6040805160038082526080820190925290602082016060803683370190505090508781600081518110611d2157611d21612754565b60200260200101906001600160a01b031690816001600160a01b0316815250508581600281518110611d5557611d55612754565b6001600160a01b039283166020918202929092010152606654611d7c9185918b9116612071565b8015611d9b5750606654611d9b9084906001600160a01b031688612071565b15611dc45760665481516001600160a01b039091169082906001908110611cc757611cc7612754565b606754611ddd9084908a906001600160a01b0316612071565b8015611dfc5750606754611dfc9084906001600160a01b031688612071565b15611e255760675481516001600160a01b039091169082906001908110611cc757611cc7612754565b606554611e3e9084908a906001600160a01b0316612071565b8015611e5d5750606554611e5d9084906001600160a01b031688612071565b15611e865760655481516001600160a01b039091169082906001908110611cc757611cc7612754565b606854611e9f9084908a906001600160a01b0316612071565b8015611ebe5750606854611ebe9084906001600160a01b031688612071565b15611ee75760685481516001600160a01b039091169082906001908110611cc757611cc7612754565b60405162461bcd60e51b815260206004820152600860248201526705a41503a204e45560c41b604482015260640161032d565b6000898152606960205260408120548251611f56926001600160a01b03909216918491611f4957611f49612754565b60200260200101516114d1565b6000898152606960205260408082205490516338ed173960e01b81526001600160a01b03909116906338ed173990611f9a908b90859087908c9042906004016126a5565b600060405180830381600087803b158015611fb457600080fd5b505af1158015611fc8573d6000803e3d6000fd5b505050506040513d6000823e601f3d908101601f19168201604052611ff091908101906122dd565b905080600182516120019190612703565b8151811061201157612011612754565b602002602001015194505050505095945050505050565b600054610100900460ff1661204f5760405162461bcd60e51b815260040161032d9061265a565b6105cb3361104d565b60606120678484600085612107565b90505b9392505050565b60405163e6a4390560e01b815260009081906001600160a01b0386169063e6a43905906120a4908790879060040161255a565b60206040518083038186803b1580156120bc57600080fd5b505afa1580156120d0573d6000803e3d6000fd5b505050506040513d601f19601f820116820180604052508101906120f49190612275565b6001600160a01b03161415949350505050565b6060824710156121685760405162461bcd60e51b815260206004820152602660248201527f416464726573733a20696e73756666696369656e742062616c616e636520666f6044820152651c8818d85b1b60d21b606482015260840161032d565b843b6121b65760405162461bcd60e51b815260206004820152601d60248201527f416464726573733a2063616c6c20746f206e6f6e2d636f6e7472616374000000604482015260640161032d565b600080866001600160a01b031685876040516121d2919061252a565b60006040518083038185875af1925050503d806000811461220f576040519150601f19603f3d011682016040523d82523d6000602084013e612214565b606091505b50915091506117fd8282866060831561222e57508161206a565b82511561223e5782518084602001fd5b8160405162461bcd60e51b815260040161032d91906125f2565b60006020828403121561226a57600080fd5b813561206a81612780565b60006020828403121561228757600080fd5b815161206a81612780565b6000806000606084860312156122a757600080fd5b83356122b281612780565b925060208401356122c281612780565b915060408401356122d281612780565b809150509250925092565b600060208083850312156122f057600080fd5b825167ffffffffffffffff8082111561230857600080fd5b818501915085601f83011261231c57600080fd5b81518181111561232e5761232e61276a565b8060051b604051601f19603f830116810181811085821117156123535761235361276a565b604052828152858101935084860182860187018a101561237257600080fd5b600095505b83861015612395578051855260019590950194938601938601612377565b5098975050505050505050565b6000602082840312156123b457600080fd5b8151801515811461206a57600080fd5b6000602082840312156123d657600080fd5b5035919050565b6000806000606084860312156123f257600080fd5b8335925060208401356122c281612780565b600080600080600060a0868803121561241c57600080fd5b85359450602086013561242e81612780565b935060408601359250606086013561244581612780565b9150608086013561245581612780565b809150509295509295909350565b600060a0828403121561247557600080fd5b50919050565b60006020828403121561248d57600080fd5b5051919050565b600080604083850312156124a757600080fd5b505080516020909101519092909150565b6000806000606084860312156124cd57600080fd5b8351925060208401519150604084015190509250925092565b600081518084526020808501945080840160005b8381101561251f5781516001600160a01b0316875295820195908201906001016124fa565b509495945050505050565b6000825161253c818460208701612728565b9190910192915050565b6001600160a01b0391909116815260200190565b6001600160a01b0392831681529116602082015260400190565b6001600160a01b039889168152968816602088015260408701959095526060860193909352608085019190915260a084015290921660c082015260e08101919091526101000190565b8481526080602082015260006125d660808301866124e6565b6001600160a01b03949094166040830152506060015292915050565b6020815260008251806020840152612611816040850160208701612728565b601f01601f19169190910160400192915050565b6020808252818101527f4f776e61626c653a2063616c6c6572206973206e6f7420746865206f776e6572604082015260600190565b6020808252602b908201527f496e697469616c697a61626c653a20636f6e7472616374206973206e6f74206960408201526a6e697469616c697a696e6760a81b606082015260800190565b85815284602082015260a0604082015260006126c460a08301866124e6565b6001600160a01b0394909416606083015250608001529392505050565b6000826126fe57634e487b7160e01b600052601260045260246000fd5b500490565b60008282101561272357634e487b7160e01b600052601160045260246000fd5b500390565b60005b8381101561274357818101518382015260200161272b565b83811115610fb35750506000910152565b634e487b7160e01b600052603260045260246000fd5b634e487b7160e01b600052604160045260246000fd5b6001600160a01b038116811461059457600080fdfea164736f6c6343000807000a",
  "devdoc": {
    "kind": "dev",
    "methods": {
      "owner()": {
        "details": "Returns the address of the current owner."
      },
      "renounceOwnership()": {
        "details": "Leaves the contract without owner. It will not be possible to call `onlyOwner` functions anymore. Can only be called by the current owner. NOTE: Renouncing ownership will leave the contract without an owner, thereby removing any functionality that is only available to the owner."
      },
      "setFactoryAndRouter(bytes32,address,address)": {
        "params": {
          "_factory": "factory address",
          "_router": "router address",
          "_type": "protocol type"
        }
      },
      "transferOwnership(address)": {
        "details": "Transfers ownership of the contract to a new account (`newOwner`). Can only be called by the current owner."
      },
      "withdraw(address)": {
        "params": {
          "_token": "token address"
        }
      },
      "zapIn(bytes32,address,address)": {
        "params": {
          "_receiver": "receiver address",
          "_to": "lp token out",
          "_type": "protocol type"
        }
      },
      "zapInToken((bytes32,address,uint256,address,address))": {
        "params": {
          "_params": "zapIn params"
        }
      },
      "zapOut(bytes32,address,uint256,address,address)": {
        "params": {
          "_amount": "amount LP in",
          "_from": "lp token in",
          "_receiver": "receiver address",
          "_type": "protocol type"
        }
      }
    },
    "version": 1
  },
  "userdoc": {
    "kind": "user",
    "methods": {
      "withdraw(address)": {
        "notice": "withdraw token that contract hold"
      },
      "zapIn(bytes32,address,address)": {
        "notice": "zap in ETH to LP"
      },
      "zapInToken((bytes32,address,uint256,address,address))": {
        "notice": "zap in for token ERC20"
      }
    },
    "version": 1
  },
  "storageLayout": {
    "storage": [
      {
        "astId": 598,
        "contract": "contracts/dependencies/Zap.sol:Zap",
        "label": "_initialized",
        "offset": 0,
        "slot": "0",
        "type": "t_bool"
      },
      {
        "astId": 601,
        "contract": "contracts/dependencies/Zap.sol:Zap",
        "label": "_initializing",
        "offset": 1,
        "slot": "0",
        "type": "t_bool"
      },
      {
        "astId": 1889,
        "contract": "contracts/dependencies/Zap.sol:Zap",
        "label": "__gap",
        "offset": 0,
        "slot": "1",
        "type": "t_array(t_uint256)50_storage"
      },
      {
        "astId": 10,
        "contract": "contracts/dependencies/Zap.sol:Zap",
        "label": "_owner",
        "offset": 0,
        "slot": "51",
        "type": "t_address"
      },
      {
        "astId": 122,
        "contract": "contracts/dependencies/Zap.sol:Zap",
        "label": "__gap",
        "offset": 0,
        "slot": "52",
        "type": "t_array(t_uint256)49_storage"
      },
      {
        "astId": 8908,
        "contract": "contracts/dependencies/Zap.sol:Zap",
        "label": "usdtToken",
        "offset": 0,
        "slot": "101",
        "type": "t_address"
      },
      {
        "astId": 8910,
        "contract": "contracts/dependencies/Zap.sol:Zap",
        "label": "wrappedNative",
        "offset": 0,
        "slot": "102",
        "type": "t_address"
      },
      {
        "astId": 8912,
        "contract": "contracts/dependencies/Zap.sol:Zap",
        "label": "usdcToken",
        "offset": 0,
        "slot": "103",
        "type": "t_address"
      },
      {
        "astId": 8914,
        "contract": "contracts/dependencies/Zap.sol:Zap",
        "label": "zeroXBlockToken",
        "offset": 0,
        "slot": "104",
        "type": "t_address"
      },
      {
        "astId": 8919,
        "contract": "contracts/dependencies/Zap.sol:Zap",
        "label": "protocols",
        "offset": 0,
        "slot": "105",
        "type": "t_mapping(t_bytes32,t_struct(ProtocolStats)8895_storage)"
      }
    ],
    "types": {
      "t_address": {
        "encoding": "inplace",
        "label": "address",
        "numberOfBytes": "20"
      },
      "t_array(t_uint256)49_storage": {
        "base": "t_uint256",
        "encoding": "inplace",
        "label": "uint256[49]",
        "numberOfBytes": "1568"
      },
      "t_array(t_uint256)50_storage": {
        "base": "t_uint256",
        "encoding": "inplace",
        "label": "uint256[50]",
        "numberOfBytes": "1600"
      },
      "t_bool": {
        "encoding": "inplace",
        "label": "bool",
        "numberOfBytes": "1"
      },
      "t_bytes32": {
        "encoding": "inplace",
        "label": "bytes32",
        "numberOfBytes": "32"
      },
      "t_mapping(t_bytes32,t_struct(ProtocolStats)8895_storage)": {
        "encoding": "mapping",
        "key": "t_bytes32",
        "label": "mapping(bytes32 => struct Zap.ProtocolStats)",
        "numberOfBytes": "32",
        "value": "t_struct(ProtocolStats)8895_storage"
      },
      "t_struct(ProtocolStats)8895_storage": {
        "encoding": "inplace",
        "label": "struct Zap.ProtocolStats",
        "members": [
          {
            "astId": 8892,
            "contract": "contracts/dependencies/Zap.sol:Zap",
            "label": "router",
            "offset": 0,
            "slot": "0",
            "type": "t_address"
          },
          {
            "astId": 8894,
            "contract": "contracts/dependencies/Zap.sol:Zap",
            "label": "factory",
            "offset": 0,
            "slot": "1",
            "type": "t_address"
          }
        ],
        "numberOfBytes": "64"
      },
      "t_uint256": {
        "encoding": "inplace",
        "label": "uint256",
        "numberOfBytes": "32"
      }
    }
  }
}