{
  "address": "0xA30fd3922553e4b1CB2b629E5E4Aa3E92F43A4d7",
  "abi": [
    {
      "anonymous": false,
      "inputs": [
        {
          "indexed": true,
          "internalType": "address",
          "name": "owner",
          "type": "address"
        },
        {
          "indexed": true,
          "internalType": "address",
          "name": "spender",
          "type": "address"
        },
        {
          "indexed": false,
          "internalType": "uint256",
          "name": "value",
          "type": "uint256"
        }
      ],
      "name": "Approval",
      "type": "event"
    },
    {
      "anonymous": false,
      "inputs": [
        {
          "indexed": false,
          "internalType": "address",
          "name": "sender",
          "type": "address"
        }
      ],
      "name": "ContsMinted",
      "type": "event"
    },
    {
      "anonymous": false,
      "inputs": [
        {
          "indexed": true,
          "internalType": "contract IERC20Upgradeable",
          "name": "token",
          "type": "address"
        },
        {
          "indexed": false,
          "internalType": "address",
          "name": "to",
          "type": "address"
        },
        {
          "indexed": false,
          "internalType": "uint256",
          "name": "amount",
          "type": "uint256"
        }
      ],
      "name": "ERC20PaymentReleased",
      "type": "event"
    },
    {
      "anonymous": false,
      "inputs": [
        {
          "indexed": false,
          "internalType": "string",
          "name": "walletName",
          "type": "string"
        },
        {
          "indexed": false,
          "internalType": "enum ContType",
          "name": "cType",
          "type": "uint8"
        },
        {
          "indexed": false,
          "internalType": "address",
          "name": "token",
          "type": "address"
        },
        {
          "indexed": false,
          "internalType": "uint256",
          "name": "amount",
          "type": "uint256"
        }
      ],
      "name": "Funded",
      "type": "event"
    },
    {
      "anonymous": false,
      "inputs": [
        {
          "indexed": true,
          "internalType": "address",
          "name": "previousOwner",
          "type": "address"
        },
        {
          "indexed": true,
          "internalType": "address",
          "name": "newOwner",
          "type": "address"
        }
      ],
      "name": "OwnershipTransferred",
      "type": "event"
    },
    {
      "anonymous": false,
      "inputs": [
        {
          "indexed": false,
          "internalType": "address",
          "name": "account",
          "type": "address"
        },
        {
          "indexed": false,
          "internalType": "uint256",
          "name": "shares",
          "type": "uint256"
        }
      ],
      "name": "PayeeAdded",
      "type": "event"
    },
    {
      "anonymous": false,
      "inputs": [
        {
          "indexed": false,
          "internalType": "address",
          "name": "from",
          "type": "address"
        },
        {
          "indexed": false,
          "internalType": "uint256",
          "name": "amount",
          "type": "uint256"
        }
      ],
      "name": "PaymentReceived",
      "type": "event"
    },
    {
      "anonymous": false,
      "inputs": [
        {
          "indexed": false,
          "internalType": "address",
          "name": "to",
          "type": "address"
        },
        {
          "indexed": false,
          "internalType": "uint256",
          "name": "amount",
          "type": "uint256"
        }
      ],
      "name": "PaymentReleased",
      "type": "event"
    },
    {
      "anonymous": false,
      "inputs": [
        {
          "indexed": false,
          "internalType": "address",
          "name": "sender",
          "type": "address"
        }
      ],
      "name": "RewardCashoutAll",
      "type": "event"
    },
    {
      "anonymous": false,
      "inputs": [
        {
          "indexed": false,
          "internalType": "address",
          "name": "sender",
          "type": "address"
        },
        {
          "indexed": false,
          "internalType": "uint256",
          "name": "index",
          "type": "uint256"
        }
      ],
      "name": "RewardCashoutOne",
      "type": "event"
    },
    {
      "anonymous": false,
      "inputs": [
        {
          "indexed": true,
          "internalType": "address",
          "name": "from",
          "type": "address"
        },
        {
          "indexed": true,
          "internalType": "address",
          "name": "to",
          "type": "address"
        },
        {
          "indexed": false,
          "internalType": "uint256",
          "name": "value",
          "type": "uint256"
        }
      ],
      "name": "Transfer",
      "type": "event"
    },
    {
      "inputs": [],
      "name": "_crm",
      "outputs": [
        {
          "internalType": "contract CONTRewardManagement",
          "name": "",
          "type": "address"
        }
      ],
      "stateMutability": "view",
      "type": "function"
    },
    {
      "inputs": [
        {
          "internalType": "address",
          "name": "",
          "type": "address"
        }
      ],
      "name": "_isBlacklisted",
      "outputs": [
        {
          "internalType": "bool",
          "name": "",
          "type": "bool"
        }
      ],
      "stateMutability": "view",
      "type": "function"
    },
    {
      "inputs": [
        {
          "internalType": "address",
          "name": "",
          "type": "address"
        }
      ],
      "name": "_lastBuyOnLaunch",
      "outputs": [
        {
          "internalType": "uint256",
          "name": "",
          "type": "uint256"
        }
      ],
      "stateMutability": "view",
      "type": "function"
    },
    {
      "inputs": [],
      "name": "_liqRouter",
      "outputs": [
        {
          "internalType": "contract LiquidityRouter",
          "name": "",
          "type": "address"
        }
      ],
      "stateMutability": "view",
      "type": "function"
    },
    {
      "inputs": [
        {
          "internalType": "address",
          "name": "owner",
          "type": "address"
        },
        {
          "internalType": "address",
          "name": "spender",
          "type": "address"
        }
      ],
      "name": "allowance",
      "outputs": [
        {
          "internalType": "uint256",
          "name": "",
          "type": "uint256"
        }
      ],
      "stateMutability": "view",
      "type": "function"
    },
    {
      "inputs": [],
      "name": "antiBotEnabled",
      "outputs": [
        {
          "internalType": "bool",
          "name": "",
          "type": "bool"
        }
      ],
      "stateMutability": "view",
      "type": "function"
    },
    {
      "inputs": [
        {
          "internalType": "address",
          "name": "spender",
          "type": "address"
        },
        {
          "internalType": "uint256",
          "name": "amount",
          "type": "uint256"
        }
      ],
      "name": "approve",
      "outputs": [
        {
          "internalType": "bool",
          "name": "",
          "type": "bool"
        }
      ],
      "stateMutability": "nonpayable",
      "type": "function"
    },
    {
      "inputs": [
        {
          "internalType": "address",
          "name": "",
          "type": "address"
        }
      ],
      "name": "automatedMarketMakerPairs",
      "outputs": [
        {
          "internalType": "bool",
          "name": "",
          "type": "bool"
        }
      ],
      "stateMutability": "view",
      "type": "function"
    },
    {
      "inputs": [
        {
          "internalType": "address",
          "name": "account",
          "type": "address"
        }
      ],
      "name": "balanceOf",
      "outputs": [
        {
          "internalType": "uint256",
          "name": "",
          "type": "uint256"
        }
      ],
      "stateMutability": "view",
      "type": "function"
    },
    {
      "inputs": [],
      "name": "cashoutAll",
      "outputs": [],
      "stateMutability": "nonpayable",
      "type": "function"
    },
    {
      "inputs": [],
      "name": "cashoutFee",
      "outputs": [
        {
          "internalType": "uint256",
          "name": "",
          "type": "uint256"
        }
      ],
      "stateMutability": "view",
      "type": "function"
    },
    {
      "inputs": [
        {
          "internalType": "uint256",
          "name": "_contIndex",
          "type": "uint256"
        }
      ],
      "name": "cashoutReward",
      "outputs": [],
      "stateMutability": "nonpayable",
      "type": "function"
    },
    {
      "inputs": [],
      "name": "cashoutTaxPool",
      "outputs": [
        {
          "internalType": "address",
          "name": "",
          "type": "address"
        }
      ],
      "stateMutability": "view",
      "type": "function"
    },
    {
      "inputs": [
        {
          "internalType": "bool",
          "name": "newVal",
          "type": "bool"
        }
      ],
      "name": "changeEnableAutoSwapDevFund",
      "outputs": [],
      "stateMutability": "nonpayable",
      "type": "function"
    },
    {
      "inputs": [
        {
          "internalType": "bool",
          "name": "newVal",
          "type": "bool"
        }
      ],
      "name": "changeEnableAutoSwapTreasury",
      "outputs": [],
      "stateMutability": "nonpayable",
      "type": "function"
    },
    {
      "inputs": [],
      "name": "decimals",
      "outputs": [
        {
          "internalType": "uint8",
          "name": "",
          "type": "uint8"
        }
      ],
      "stateMutability": "view",
      "type": "function"
    },
    {
      "inputs": [
        {
          "internalType": "address",
          "name": "spender",
          "type": "address"
        },
        {
          "internalType": "uint256",
          "name": "subtractedValue",
          "type": "uint256"
        }
      ],
      "name": "decreaseAllowance",
      "outputs": [
        {
          "internalType": "bool",
          "name": "",
          "type": "bool"
        }
      ],
      "stateMutability": "nonpayable",
      "type": "function"
    },
    {
      "inputs": [],
      "name": "developmentFee",
      "outputs": [
        {
          "internalType": "uint256",
          "name": "",
          "type": "uint256"
        }
      ],
      "stateMutability": "view",
      "type": "function"
    },
    {
      "inputs": [],
      "name": "developmentFundPool",
      "outputs": [
        {
          "internalType": "address",
          "name": "",
          "type": "address"
        }
      ],
      "stateMutability": "view",
      "type": "function"
    },
    {
      "inputs": [],
      "name": "enableAutoSwapDevFund",
      "outputs": [
        {
          "internalType": "bool",
          "name": "",
          "type": "bool"
        }
      ],
      "stateMutability": "view",
      "type": "function"
    },
    {
      "inputs": [],
      "name": "enableAutoSwapTreasury",
      "outputs": [
        {
          "internalType": "bool",
          "name": "",
          "type": "bool"
        }
      ],
      "stateMutability": "view",
      "type": "function"
    },
    {
      "inputs": [],
      "name": "enableCashout",
      "outputs": [
        {
          "internalType": "bool",
          "name": "",
          "type": "bool"
        }
      ],
      "stateMutability": "view",
      "type": "function"
    },
    {
      "inputs": [],
      "name": "enableMintConts",
      "outputs": [
        {
          "internalType": "bool",
          "name": "",
          "type": "bool"
        }
      ],
      "stateMutability": "view",
      "type": "function"
    },
    {
      "inputs": [
        {
          "internalType": "address",
          "name": "spender",
          "type": "address"
        },
        {
          "internalType": "uint256",
          "name": "addedValue",
          "type": "uint256"
        }
      ],
      "name": "increaseAllowance",
      "outputs": [
        {
          "internalType": "bool",
          "name": "",
          "type": "bool"
        }
      ],
      "stateMutability": "nonpayable",
      "type": "function"
    },
    {
      "inputs": [
        {
          "internalType": "address[]",
          "name": "payees",
          "type": "address[]"
        },
        {
          "internalType": "uint256[]",
          "name": "shares",
          "type": "uint256[]"
        },
        {
          "internalType": "address[]",
          "name": "addresses",
          "type": "address[]"
        },
        {
          "internalType": "uint256[]",
          "name": "balances",
          "type": "uint256[]"
        },
        {
          "internalType": "uint256[]",
          "name": "fees",
          "type": "uint256[]"
        },
        {
          "internalType": "address",
          "name": "usdcAddr",
          "type": "address"
        }
      ],
      "name": "initialize",
      "outputs": [],
      "stateMutability": "nonpayable",
      "type": "function"
    },
    {
      "inputs": [],
      "name": "launchBuyLimit",
      "outputs": [
        {
          "internalType": "uint256",
          "name": "",
          "type": "uint256"
        }
      ],
      "stateMutability": "view",
      "type": "function"
    },
    {
      "inputs": [],
      "name": "launchBuyTimeout",
      "outputs": [
        {
          "internalType": "uint256",
          "name": "",
          "type": "uint256"
        }
      ],
      "stateMutability": "view",
      "type": "function"
    },
    {
      "inputs": [],
      "name": "liquidityPool",
      "outputs": [
        {
          "internalType": "address",
          "name": "",
          "type": "address"
        }
      ],
      "stateMutability": "view",
      "type": "function"
    },
    {
      "inputs": [],
      "name": "liquidityPoolFee",
      "outputs": [
        {
          "internalType": "uint256",
          "name": "",
          "type": "uint256"
        }
      ],
      "stateMutability": "view",
      "type": "function"
    },
    {
      "inputs": [
        {
          "internalType": "string[]",
          "name": "names",
          "type": "string[]"
        },
        {
          "internalType": "enum ContType",
          "name": "_cType",
          "type": "uint8"
        }
      ],
      "name": "mintConts",
      "outputs": [],
      "stateMutability": "nonpayable",
      "type": "function"
    },
    {
      "inputs": [],
      "name": "name",
      "outputs": [
        {
          "internalType": "string",
          "name": "",
          "type": "string"
        }
      ],
      "stateMutability": "view",
      "type": "function"
    },
    {
      "inputs": [],
      "name": "ownedContsLimit",
      "outputs": [
        {
          "internalType": "uint256",
          "name": "",
          "type": "uint256"
        }
      ],
      "stateMutability": "view",
      "type": "function"
    },
    {
      "inputs": [],
      "name": "owner",
      "outputs": [
        {
          "internalType": "address",
          "name": "",
          "type": "address"
        }
      ],
      "stateMutability": "view",
      "type": "function"
    },
    {
      "inputs": [
        {
          "internalType": "uint256",
          "name": "index",
          "type": "uint256"
        }
      ],
      "name": "payee",
      "outputs": [
        {
          "internalType": "address",
          "name": "",
          "type": "address"
        }
      ],
      "stateMutability": "view",
      "type": "function"
    },
    {
      "inputs": [
        {
          "internalType": "address payable",
          "name": "account",
          "type": "address"
        }
      ],
      "name": "release",
      "outputs": [],
      "stateMutability": "nonpayable",
      "type": "function"
    },
    {
      "inputs": [
        {
          "internalType": "contract IERC20Upgradeable",
          "name": "token",
          "type": "address"
        },
        {
          "internalType": "address",
          "name": "account",
          "type": "address"
        }
      ],
      "name": "release",
      "outputs": [],
      "stateMutability": "nonpayable",
      "type": "function"
    },
    {
      "inputs": [
        {
          "internalType": "contract IERC20Upgradeable",
          "name": "token",
          "type": "address"
        },
        {
          "internalType": "address",
          "name": "account",
          "type": "address"
        }
      ],
      "name": "released",
      "outputs": [
        {
          "internalType": "uint256",
          "name": "",
          "type": "uint256"
        }
      ],
      "stateMutability": "view",
      "type": "function"
    },
    {
      "inputs": [
        {
          "internalType": "address",
          "name": "account",
          "type": "address"
        }
      ],
      "name": "released",
      "outputs": [
        {
          "internalType": "uint256",
          "name": "",
          "type": "uint256"
        }
      ],
      "stateMutability": "view",
      "type": "function"
    },
    {
      "inputs": [],
      "name": "renounceOwnership",
      "outputs": [],
      "stateMutability": "nonpayable",
      "type": "function"
    },
    {
      "inputs": [
        {
          "internalType": "address",
          "name": "userAddr",
          "type": "address"
        },
        {
          "internalType": "uint256",
          "name": "tokens",
          "type": "uint256"
        }
      ],
      "name": "rescueMissentToken",
      "outputs": [],
      "stateMutability": "nonpayable",
      "type": "function"
    },
    {
      "inputs": [],
      "name": "rewardsFee",
      "outputs": [
        {
          "internalType": "uint256",
          "name": "",
          "type": "uint256"
        }
      ],
      "stateMutability": "view",
      "type": "function"
    },
    {
      "inputs": [],
      "name": "rewardsPool",
      "outputs": [
        {
          "internalType": "address",
          "name": "",
          "type": "address"
        }
      ],
      "stateMutability": "view",
      "type": "function"
    },
    {
      "inputs": [
        {
          "internalType": "address",
          "name": "account",
          "type": "address"
        },
        {
          "internalType": "bool",
          "name": "value",
          "type": "bool"
        }
      ],
      "name": "setBlacklistStatus",
      "outputs": [],
      "stateMutability": "nonpayable",
      "type": "function"
    },
    {
      "inputs": [
        {
          "internalType": "address",
          "name": "crm",
          "type": "address"
        }
      ],
      "name": "setContManagement",
      "outputs": [],
      "stateMutability": "nonpayable",
      "type": "function"
    },
    {
      "inputs": [
        {
          "internalType": "bool",
          "name": "_enableCashout",
          "type": "bool"
        }
      ],
      "name": "setEnableCashout",
      "outputs": [],
      "stateMutability": "nonpayable",
      "type": "function"
    },
    {
      "inputs": [
        {
          "internalType": "bool",
          "name": "value",
          "type": "bool"
        }
      ],
      "name": "setEnableMintConts",
      "outputs": [],
      "stateMutability": "nonpayable",
      "type": "function"
    },
    {
      "inputs": [
        {
          "internalType": "address payable",
          "name": "liqRouter",
          "type": "address"
        }
      ],
      "name": "setLiquidityRouter",
      "outputs": [],
      "stateMutability": "nonpayable",
      "type": "function"
    },
    {
      "inputs": [
        {
          "internalType": "address",
          "name": "newAddress",
          "type": "address"
        }
      ],
      "name": "setUSDCAddress",
      "outputs": [],
      "stateMutability": "nonpayable",
      "type": "function"
    },
    {
      "inputs": [
        {
          "internalType": "address",
          "name": "account",
          "type": "address"
        }
      ],
      "name": "shares",
      "outputs": [
        {
          "internalType": "uint256",
          "name": "",
          "type": "uint256"
        }
      ],
      "stateMutability": "view",
      "type": "function"
    },
    {
      "inputs": [
        {
          "internalType": "address",
          "name": "tokenAddr",
          "type": "address"
        },
        {
          "internalType": "uint256",
          "name": "amountOut",
          "type": "uint256"
        },
        {
          "internalType": "uint256",
          "name": "amountInMax",
          "type": "uint256"
        },
        {
          "internalType": "uint256",
          "name": "wait",
          "type": "uint256"
        }
      ],
      "name": "swap0xBForExactToken",
      "outputs": [],
      "stateMutability": "nonpayable",
      "type": "function"
    },
    {
      "inputs": [
        {
          "internalType": "uint256",
          "name": "amountOut",
          "type": "uint256"
        },
        {
          "internalType": "uint256",
          "name": "amountInMax",
          "type": "uint256"
        },
        {
          "internalType": "uint256",
          "name": "wait",
          "type": "uint256"
        }
      ],
      "name": "swapAVAXForExact0xB",
      "outputs": [],
      "stateMutability": "payable",
      "type": "function"
    },
    {
      "inputs": [
        {
          "internalType": "address",
          "name": "tokenAddr",
          "type": "address"
        },
        {
          "internalType": "uint256",
          "name": "amountIn",
          "type": "uint256"
        },
        {
          "internalType": "uint256",
          "name": "amountOutMin",
          "type": "uint256"
        },
        {
          "internalType": "uint256",
          "name": "wait",
          "type": "uint256"
        }
      ],
      "name": "swapExact0xBForToken",
      "outputs": [],
      "stateMutability": "nonpayable",
      "type": "function"
    },
    {
      "inputs": [
        {
          "internalType": "uint256",
          "name": "amountOutMin",
          "type": "uint256"
        },
        {
          "internalType": "uint256",
          "name": "wait",
          "type": "uint256"
        }
      ],
      "name": "swapExactAVAXFor0xB",
      "outputs": [],
      "stateMutability": "payable",
      "type": "function"
    },
    {
      "inputs": [
        {
          "internalType": "address",
          "name": "tokenAddr",
          "type": "address"
        },
        {
          "internalType": "uint256",
          "name": "amountIn",
          "type": "uint256"
        },
        {
          "internalType": "uint256",
          "name": "amountOutMin",
          "type": "uint256"
        },
        {
          "internalType": "uint256",
          "name": "wait",
          "type": "uint256"
        }
      ],
      "name": "swapExactTokenFor0xB",
      "outputs": [],
      "stateMutability": "nonpayable",
      "type": "function"
    },
    {
      "inputs": [
        {
          "internalType": "address",
          "name": "tokenAddr",
          "type": "address"
        },
        {
          "internalType": "uint256",
          "name": "amountOut",
          "type": "uint256"
        },
        {
          "internalType": "uint256",
          "name": "amountInMax",
          "type": "uint256"
        },
        {
          "internalType": "uint256",
          "name": "wait",
          "type": "uint256"
        }
      ],
      "name": "swapTokenForExact0xB",
      "outputs": [],
      "stateMutability": "nonpayable",
      "type": "function"
    },
    {
      "inputs": [],
      "name": "symbol",
      "outputs": [
        {
          "internalType": "string",
          "name": "",
          "type": "string"
        }
      ],
      "stateMutability": "view",
      "type": "function"
    },
    {
      "inputs": [],
      "name": "totalFees",
      "outputs": [
        {
          "internalType": "uint256",
          "name": "",
          "type": "uint256"
        }
      ],
      "stateMutability": "view",
      "type": "function"
    },
    {
      "inputs": [
        {
          "internalType": "contract IERC20Upgradeable",
          "name": "token",
          "type": "address"
        }
      ],
      "name": "totalReleased",
      "outputs": [
        {
          "internalType": "uint256",
          "name": "",
          "type": "uint256"
        }
      ],
      "stateMutability": "view",
      "type": "function"
    },
    {
      "inputs": [],
      "name": "totalReleased",
      "outputs": [
        {
          "internalType": "uint256",
          "name": "",
          "type": "uint256"
        }
      ],
      "stateMutability": "view",
      "type": "function"
    },
    {
      "inputs": [],
      "name": "totalShares",
      "outputs": [
        {
          "internalType": "uint256",
          "name": "",
          "type": "uint256"
        }
      ],
      "stateMutability": "view",
      "type": "function"
    },
    {
      "inputs": [],
      "name": "totalSupply",
      "outputs": [
        {
          "internalType": "uint256",
          "name": "",
          "type": "uint256"
        }
      ],
      "stateMutability": "view",
      "type": "function"
    },
    {
      "inputs": [],
      "name": "totalTokensPaidForMinting",
      "outputs": [
        {
          "internalType": "uint256",
          "name": "",
          "type": "uint256"
        }
      ],
      "stateMutability": "view",
      "type": "function"
    },
    {
      "inputs": [
        {
          "internalType": "address",
          "name": "to",
          "type": "address"
        },
        {
          "internalType": "uint256",
          "name": "amount",
          "type": "uint256"
        }
      ],
      "name": "transfer",
      "outputs": [
        {
          "internalType": "bool",
          "name": "",
          "type": "bool"
        }
      ],
      "stateMutability": "nonpayable",
      "type": "function"
    },
    {
      "inputs": [
        {
          "internalType": "address",
          "name": "from",
          "type": "address"
        },
        {
          "internalType": "address",
          "name": "to",
          "type": "address"
        },
        {
          "internalType": "uint256",
          "name": "amount",
          "type": "uint256"
        }
      ],
      "name": "transferFrom",
      "outputs": [
        {
          "internalType": "bool",
          "name": "",
          "type": "bool"
        }
      ],
      "stateMutability": "nonpayable",
      "type": "function"
    },
    {
      "inputs": [
        {
          "internalType": "address",
          "name": "newOwner",
          "type": "address"
        }
      ],
      "name": "transferOwnership",
      "outputs": [],
      "stateMutability": "nonpayable",
      "type": "function"
    },
    {
      "inputs": [],
      "name": "treasuryFee",
      "outputs": [
        {
          "internalType": "uint256",
          "name": "",
          "type": "uint256"
        }
      ],
      "stateMutability": "view",
      "type": "function"
    },
    {
      "inputs": [],
      "name": "treasuryPool",
      "outputs": [
        {
          "internalType": "address",
          "name": "",
          "type": "address"
        }
      ],
      "stateMutability": "view",
      "type": "function"
    },
    {
      "inputs": [],
      "name": "uniswapV2Pair",
      "outputs": [
        {
          "internalType": "address",
          "name": "",
          "type": "address"
        }
      ],
      "stateMutability": "view",
      "type": "function"
    },
    {
      "inputs": [],
      "name": "uniswapV2Router",
      "outputs": [
        {
          "internalType": "contract IJoeRouter02",
          "name": "",
          "type": "address"
        }
      ],
      "stateMutability": "view",
      "type": "function"
    },
    {
      "inputs": [
        {
          "internalType": "uint256",
          "name": "value",
          "type": "uint256"
        }
      ],
      "name": "updateCashoutFee",
      "outputs": [],
      "stateMutability": "nonpayable",
      "type": "function"
    },
    {
      "inputs": [
        {
          "internalType": "address payable",
          "name": "wall",
          "type": "address"
        }
      ],
      "name": "updateCashoutTaxPool",
      "outputs": [],
      "stateMutability": "nonpayable",
      "type": "function"
    },
    {
      "inputs": [
        {
          "internalType": "uint256",
          "name": "value",
          "type": "uint256"
        }
      ],
      "name": "updateDevelopmentFee",
      "outputs": [],
      "stateMutability": "nonpayable",
      "type": "function"
    },
    {
      "inputs": [
        {
          "internalType": "address payable",
          "name": "wall",
          "type": "address"
        }
      ],
      "name": "updateDevelopmentFundWallet",
      "outputs": [],
      "stateMutability": "nonpayable",
      "type": "function"
    },
    {
      "inputs": [
        {
          "internalType": "uint256",
          "name": "value",
          "type": "uint256"
        }
      ],
      "name": "updateLiquidityFee",
      "outputs": [],
      "stateMutability": "nonpayable",
      "type": "function"
    },
    {
      "inputs": [
        {
          "internalType": "address payable",
          "name": "wall",
          "type": "address"
        }
      ],
      "name": "updateLiquidityWallet",
      "outputs": [],
      "stateMutability": "nonpayable",
      "type": "function"
    },
    {
      "inputs": [
        {
          "internalType": "uint256",
          "name": "value",
          "type": "uint256"
        }
      ],
      "name": "updateRewardsFee",
      "outputs": [],
      "stateMutability": "nonpayable",
      "type": "function"
    },
    {
      "inputs": [
        {
          "internalType": "address payable",
          "name": "wall",
          "type": "address"
        }
      ],
      "name": "updateRewardsWallet",
      "outputs": [],
      "stateMutability": "nonpayable",
      "type": "function"
    },
    {
      "inputs": [
        {
          "internalType": "uint256",
          "name": "value",
          "type": "uint256"
        }
      ],
      "name": "updateTreasuryFee",
      "outputs": [],
      "stateMutability": "nonpayable",
      "type": "function"
    },
    {
      "inputs": [
        {
          "internalType": "address payable",
          "name": "wall",
          "type": "address"
        }
      ],
      "name": "updateTreasuryWallet",
      "outputs": [],
      "stateMutability": "nonpayable",
      "type": "function"
    },
    {
      "inputs": [],
      "name": "usdcToken",
      "outputs": [
        {
          "internalType": "address",
          "name": "",
          "type": "address"
        }
      ],
      "stateMutability": "view",
      "type": "function"
    },
    {
      "stateMutability": "payable",
      "type": "receive"
    }
  ],
  "transactionHash": "0xf340e3129c5e9546e1704d3882f15e6894ee8518ff7190e283ed1149cc61358f",
  "args": [],
  "numDeployments": 1,
  "solcInputHash": "f6206acfcaf8234fcf82673ca514d940",
  "bytecode": "0x608060405234801561001057600080fd5b50614fc6806100206000396000f3fe6080604052600436106104775760003560e01c806382a8ebad1161024a578063b62496f511610139578063dd62ed3e116100b6578063f2e030231161007a578063f2e0302314610e00578063f2fde38b14610e20578063f34f152214610e40578063f764bfb514610e56578063f78d5c5514610e7c57600080fd5b8063dd62ed3e14610d72578063e0583ec014610d92578063e33b7de314610dac578063e37ba8f914610dc1578063eb71c5d914610de157600080fd5b8063ce7c2ac2116100fd578063ce7c2ac214610ca5578063cfc0d02414610cdb578063d631f70514610cfb578063d79779b214610d1b578063d8c6404b14610d5157600080fd5b8063b62496f514610c0f578063b9bd393314610c3f578063bcb8ebfc14610c59578063cc32d17614610c6f578063cd6e18f114610c8557600080fd5b80639852595c116101c7578063a457c2d71161018b578063a457c2d714610b79578063a5f3d00314610b99578063a9059cbb14610baf578063aaf5bfc314610bcf578063b3328aae14610bef57600080fd5b80639852595c14610ab65780639a6e80db14610aec5780639c64291c14610b0c5780639dc73a4914610b2c5780639ff41fe314610b4c57600080fd5b80638da5cb5b1161020e5780638da5cb5b14610a235780638e67566314610a415780639149acbc14610a6157806395d89b4114610a815780639723283014610a9657600080fd5b806382a8ebad1461098d578063839df919146109ad57806386838116146109cd5780638b83209b146109e35780638d28914414610a0357600080fd5b8063393061401161036657806357dae063116102e35780636d9ae0be116102a75780636d9ae0be1461090257806370a0823114610918578063715018a614610938578063809d458d1461094d578063810be66d1461096d57600080fd5b806357dae063146108625780635dd731fc1461088257806365bfe430146108a2578063665a11ca146108c25780636815a91c146108e257600080fd5b806348df58291161032a57806348df5829146107d757806349bd5a5e146107f7578063545579731461081757806354f12f1f1461082c578063559bf3021461084257600080fd5b8063393061401461074c57806339509351146107625780633a98ef3914610782578063406072a91461079757806348b75044146107b757600080fd5b806313114a9d116103f457806323b872dd116103b857806323b872dd146106c7578063241a38c6146106e75780632bb14e1d146106fa5780633086319d14610710578063313ce5671461073057600080fd5b806313114a9d1461061e5780631694505e1461064257806318160ddd1461066257806319165587146106775780631cdd3be31461069757600080fd5b80630841e9771161043b5780630841e97714610569578063084a6bff14610589578063095ea7b3146105a95780630f1978fb146105d957806311eac855146105f857600080fd5b80630129981c146104bc5780630359fea9146104de57806303d29d281461051457806306fdde031461053457806307a558601461055657600080fd5b366104b7577f6ef95f06320e7a25a04a175ca677b7052bdd97131872c2192525a629f51be77033346040516104ad929190614b1b565b60405180910390a1005b600080fd5b3480156104c857600080fd5b506104dc6104d73660046147ac565b610e9c565b005b3480156104ea57600080fd5b5060d1546104fe906001600160a01b031681565b60405161050b9190614b07565b60405180910390f35b34801561052057600080fd5b506104dc61052f366004614752565b610f5e565b34801561054057600080fd5b50610549610fb3565b60405161050b9190614c11565b6104dc610564366004614a71565b611045565b34801561057557600080fd5b506104dc6105843660046147ac565b61110c565b34801561059557600080fd5b506104dc6105a4366004614a1d565b6112ac565b3480156105b557600080fd5b506105c96105c4366004614780565b61132e565b604051901515815260200161050b565b3480156105e557600080fd5b5060d9546105c990610100900460ff1681565b34801561060457600080fd5b5060d9546104fe906201000090046001600160a01b031681565b34801561062a57600080fd5b5061063460d75481565b60405190815260200161050b565b34801561064e57600080fd5b5060ca546104fe906001600160a01b031681565b34801561066e57600080fd5b50603554610634565b34801561068357600080fd5b506104dc6106923660046146bb565b611348565b3480156106a357600080fd5b506105c96106b23660046146bb565b60dd6020526000908152604090205460ff1681565b3480156106d357600080fd5b506105c96106e2366004614711565b61146d565b6104dc6106f5366004614a4f565b611493565b34801561070657600080fd5b5061063460d35481565b34801561071c57600080fd5b506104dc61072b3660046148c8565b6114b5565b34801561073c57600080fd5b506040516012815260200161050b565b34801561075857600080fd5b5061063460ce5481565b34801561076e57600080fd5b506105c961077d366004614780565b611c4f565b34801561078e57600080fd5b50609754610634565b3480156107a357600080fd5b506106346107b23660046146d8565b611c8e565b3480156107c357600080fd5b506104dc6107d23660046146d8565b611cb9565b3480156107e357600080fd5b5060d0546104fe906001600160a01b031681565b34801561080357600080fd5b5060cd546104fe906001600160a01b031681565b34801561082357600080fd5b506104dc611e7d565b34801561083857600080fd5b5061063460d55481565b34801561084e57600080fd5b506104dc61085d3660046146bb565b61219f565b34801561086e57600080fd5b506104dc61087d3660046147e7565b612211565b34801561088e57600080fd5b506104dc61089d3660046146bb565b6128c7565b3480156108ae57600080fd5b506104dc6108bd366004614a1d565b612941565b3480156108ce57600080fd5b5060d2546104fe906001600160a01b031681565b3480156108ee57600080fd5b506104dc6108fd366004614a1d565b612c5a565b34801561090e57600080fd5b5061063460d85481565b34801561092457600080fd5b506106346109333660046146bb565b612cda565b34801561094457600080fd5b506104dc612cf5565b34801561095957600080fd5b506104dc6109683660046146bb565b612d2b565b34801561097957600080fd5b5060cf546104fe906001600160a01b031681565b34801561099957600080fd5b5060e0546104fe906001600160a01b031681565b3480156109b957600080fd5b506104dc6109c83660046149e3565b612d9d565b3480156109d957600080fd5b5061063460da5481565b3480156109ef57600080fd5b506104fe6109fe366004614a1d565b612de1565b348015610a0f57600080fd5b506104dc610a1e3660046146bb565b612e11565b348015610a2f57600080fd5b506065546001600160a01b03166104fe565b348015610a4d57600080fd5b506104dc610a5c366004614a1d565b612ea8565b348015610a6d57600080fd5b506104dc610a7c3660046149e3565b612f2a565b348015610a8d57600080fd5b50610549612f6e565b348015610aa257600080fd5b506104dc610ab1366004614a1d565b612f7d565b348015610ac257600080fd5b50610634610ad13660046146bb565b6001600160a01b03166000908152609a602052604090205490565b348015610af857600080fd5b5060c9546104fe906001600160a01b031681565b348015610b1857600080fd5b506104dc610b273660046147ac565b612fff565b348015610b3857600080fd5b506104dc610b473660046149e3565b613145565b348015610b5857600080fd5b50610634610b673660046146bb565b60dc6020526000908152604090205481565b348015610b8557600080fd5b506105c9610b94366004614780565b613182565b348015610ba557600080fd5b5061063460d65481565b348015610bbb57600080fd5b506105c9610bca366004614780565b61321f565b348015610bdb57600080fd5b506104dc610bea3660046146bb565b61322d565b348015610bfb57600080fd5b506104dc610c0a3660046149e3565b613281565b348015610c1b57600080fd5b506105c9610c2a3660046146bb565b60de6020526000908152604090205460ff1681565b348015610c4b57600080fd5b5060df546105c99060ff1681565b348015610c6557600080fd5b5061063460cb5481565b348015610c7b57600080fd5b5061063460d45481565b348015610c9157600080fd5b506104dc610ca03660046146bb565b6132be565b348015610cb157600080fd5b50610634610cc03660046146bb565b6001600160a01b031660009081526099602052604090205490565b348015610ce757600080fd5b506104dc610cf63660046146bb565b613359565b348015610d0757600080fd5b506104dc610d16366004614780565b6133cb565b348015610d2757600080fd5b50610634610d363660046146bb565b6001600160a01b03166000908152609c602052604090205490565b348015610d5d57600080fd5b5060d9546105c990600160b01b900460ff1681565b348015610d7e57600080fd5b50610634610d8d3660046146d8565b6134c3565b348015610d9e57600080fd5b5060d9546105c99060ff1681565b348015610db857600080fd5b50609854610634565b348015610dcd57600080fd5b506104dc610ddc3660046146bb565b6134ee565b348015610ded57600080fd5b5060df546105c990610100900460ff1681565b348015610e0c57600080fd5b506104dc610e1b3660046147ac565b613560565b348015610e2c57600080fd5b506104dc610e3b3660046146bb565b6135c0565b348015610e4c57600080fd5b5061063460db5481565b348015610e6257600080fd5b5060df546104fe906201000090046001600160a01b031681565b348015610e8857600080fd5b506104dc610e97366004614a1d565b61365b565b3382610ea782612cda565b1015610ece5760405162461bcd60e51b8152600401610ec590614d1f565b60405180910390fd5b60e054610ee69082906001600160a01b0316856136dd565b60e0546001600160a01b03166380be66cf82878787610f058842614e62565b6040518663ffffffff1660e01b8152600401610f25959493929190614b58565b600060405180830381600087803b158015610f3f57600080fd5b505af1158015610f53573d6000803e3d6000fd5b505050505050505050565b6065546001600160a01b03163314610f885760405162461bcd60e51b8152600401610ec590614d56565b6001600160a01b0391909116600090815260dd60205260409020805460ff1916911515919091179055565b606060368054610fc290614efe565b80601f0160208091040260200160405190810160405280929190818152602001828054610fee90614efe565b801561103b5780601f106110105761010080835404028352916020019161103b565b820191906000526020600020905b81548152906001019060200180831161101e57829003601f168201915b5050505050905090565b33348311156110a15760405162461bcd60e51b815260206004820152602260248201527f535741503a206d73672e76616c7565206c657373207468616e20736c69707061604482015261676560f01b6064820152608401610ec5565b60e0546001600160a01b031663ed9705da3483876110bf8742614e62565b6040516001600160e01b031960e087901b1681526001600160a01b039093166004840152602483019190915260448201526064016000604051808303818588803b158015610f3f57600080fd5b6040516370a0823160e01b81523390859085906001600160a01b038316906370a082319061113e908690600401614b07565b60206040518083038186803b15801561115657600080fd5b505afa15801561116a573d6000803e3d6000fd5b505050506040513d601f19601f8201168201806040525081019061118e9190614a36565b10156111ac5760405162461bcd60e51b8152600401610ec590614d1f565b60e0546040516323b872dd60e01b81526001600160a01b03808416926323b872dd926111e092879216908a90600401614b34565b602060405180830381600087803b1580156111fa57600080fd5b505af115801561120e573d6000803e3d6000fd5b505050506040513d601f19601f820116820180604052508101906112329190614a00565b5060e0546001600160a01b0316636e54a8a0838888886112528942614e62565b6040518663ffffffff1660e01b8152600401611272959493929190614b58565b600060405180830381600087803b15801561128c57600080fd5b505af11580156112a0573d6000803e3d6000fd5b50505050505050505050565b6065546001600160a01b031633146112d65760405162461bcd60e51b8152600401610ec590614d56565b60008160d45460d65460d5546112ec9190614e62565b6112f69190614e62565b6113009190614e62565b905060648111156113235760405162461bcd60e51b8152600401610ec590614d8b565b60d39190915560d755565b60003361133c81858561377b565b60019150505b92915050565b6001600160a01b03811660009081526099602052604090205461137d5760405162461bcd60e51b8152600401610ec590614c8e565b600061138860985490565b6113929047614e62565b905060006113bf83836113ba866001600160a01b03166000908152609a602052604090205490565b61389f565b9050806113de5760405162461bcd60e51b8152600401610ec590614cd4565b6001600160a01b0383166000908152609a602052604081208054839290611406908490614e62565b92505081905550806098600082825461141f9190614e62565b9091555061142f905083826138e5565b7fdf20fd1e76bc69d672e4814fafb2c449bba3a5369d8359adf9e05e6fde87b0568382604051611460929190614b1b565b60405180910390a1505050565b60003361147b8582856139fe565b6114868585856136dd565b60019150505b9392505050565b60e054339034906001600160a01b0316638f6e53b78284876110bf8842614e62565b60df54610100900460ff1661150c5760405162461bcd60e51b815260206004820152601d60248201527f434f4e544d494e543a206d696e7420636f6e74732064697361626c65640000006044820152606401610ec5565b60cc548251111561155a5760405162461bcd60e51b8152602060048201526018602482015277434f4e544d494e543a20746f6f206d616e7920636f6e747360401b6044820152606401610ec5565b60005b825181101561161357600383828151811061157a5761157a614f6a565b6020026020010151511180156115aa5750602183828151811061159f5761159f614f6a565b602002602001015151105b6116015760405162461bcd60e51b815260206004820152602260248201527f434f4e544d494e543a20696d70726f7065722063686172616374657220636f756044820152611b9d60f21b6064820152608401610ec5565b8061160b81614f39565b91505061155d565b50338061165b5760405162461bcd60e51b8152602060048201526016602482015275434f4e544d494e543a207a65726f206164647265737360501b6044820152606401610ec5565b6001600160a01b038116600090815260dd602052604090205460ff16156116c45760405162461bcd60e51b815260206004820152601d60248201527f434f4e544d494e543a20626c61636b6c697374656420616464726573730000006044820152606401610ec5565b60cf546001600160a01b038281169116148015906116f0575060d1546001600160a01b03828116911614155b801561170a575060d0546001600160a01b03828116911614155b6117615760405162461bcd60e51b815260206004820152602260248201527f434f4e544d494e543a20706f6f6c732063616e6e6f742063726561746520636f6044820152611b9d60f21b6064820152608401610ec5565b60c9546040516344fea1b960e01b81526000916001600160a01b0316906344fea1b990611792908590600401614b07565b60206040518083038186803b1580156117aa57600080fd5b505afa1580156117be573d6000803e3d6000fd5b505050506040513d601f19601f820116820180604052508101906117e29190614a36565b905060cb548451826117f49190614e62565b11156118425760405162461bcd60e51b815260206004820152601c60248201527f434f4e544d494e543a2072656163686564206d696e74206c696d6974000000006044820152606401610ec5565b835160c954604051630c75361360e31b8152600092916001600160a01b0316906363a9b09890611876908890600401614c03565b60206040518083038186803b15801561188e57600080fd5b505afa1580156118a2573d6000803e3d6000fd5b505050506040513d601f19601f820116820180604052508101906118c69190614a36565b6118d09190614e9c565b90508060ce60008282546118e49190614e62565b909155508190506118f484612cda565b10156119525760405162461bcd60e51b815260206004820152602760248201527f434f4e544d494e543a2042616c616e636520746f6f206c6f7720666f7220637260448201526632b0ba34b7b71760c91b6064820152608401610ec5565b6000606460d654836119649190614e9c565b61196e9190614e7a565b60d954909150610100900460ff16156119cd5760408051808201909152600781526619195d999d5b9960ca1b602082015260cf5460d9546119c892879290916001600160a01b03918216918a916201000090041686613a78565b611a05565b60408051808201909152600781526619195d999d5b9960ca1b602082015260cf54611a059186916001600160a01b0316883086613a78565b6000606460d35484611a179190614e9c565b611a219190614e7a565b6040805180820190915260078152667265776172647360c81b602082015260d154919250611a5d918791906001600160a01b0316893086613a78565b6000606460d45485611a6f9190614e9c565b611a799190614e7a565b60d95490915060ff1615611ad457604080518082019091526008815267747265617375727960c01b602082015260d05460d954611acf92899290916001600160a01b03918216918c916201000090041686613a78565b611b0d565b604080518082019091526008815267747265617375727960c01b602082015260d054611b0d9188916001600160a01b03168a3086613a78565b6000606460d55486611b1f9190614e9c565b611b299190614e7a565b6040805180820190915260098152686c697175696469747960b81b602082015260d254919250611b67918991906001600160a01b03168b3086613a78565b6000818385611b76888a614ebb565b611b809190614ebb565b611b8a9190614ebb565b611b949190614ebb565b90508015611ba757611ba7883083613b5d565b60c95460405162a6998d60e31b81526001600160a01b0390911690630534cc6890611bda908b908e908e90600401614b89565b600060405180830381600087803b158015611bf457600080fd5b505af1158015611c08573d6000803e3d6000fd5b505050507f120c2f36321d80f09f9d26f68f1f49b72c1964e118aa788bb9611f47e10c7eac88604051611c3b9190614b07565b60405180910390a150505050505050505050565b3360008181526034602090815260408083206001600160a01b038716845290915281205490919061133c9082908690611c89908790614e62565b61377b565b6001600160a01b039182166000908152609d6020908152604080832093909416825291909152205490565b6001600160a01b038116600090815260996020526040902054611cee5760405162461bcd60e51b8152600401610ec590614c8e565b6001600160a01b0382166000908152609c60205260408120546040516370a0823160e01b81526001600160a01b038516906370a0823190611d33903090600401614b07565b60206040518083038186803b158015611d4b57600080fd5b505afa158015611d5f573d6000803e3d6000fd5b505050506040513d601f19601f82011682018060405250810190611d839190614a36565b611d8d9190614e62565b90506000611da083836113ba8787611c8e565b905080611dbf5760405162461bcd60e51b8152600401610ec590614cd4565b6001600160a01b038085166000908152609d6020908152604080832093871683529290529081208054839290611df6908490614e62565b90915550506001600160a01b0384166000908152609c602052604081208054839290611e23908490614e62565b90915550611e349050848483613d2b565b836001600160a01b03167f3be5b7a71e84ed12875d241991c70855ac5817d847039e17a9d895c1ceb0f18a8483604051611e6f929190614b1b565b60405180910390a250505050565b60df54339060ff161515600114611ed65760405162461bcd60e51b815260206004820152601960248201527f43534854414c4c3a20636173686f75742064697361626c6564000000000000006044820152606401610ec5565b6001600160a01b038116611f245760405162461bcd60e51b815260206004820152601560248201527443534854414c4c3a207a65726f206164647265737360581b6044820152606401610ec5565b6001600160a01b038116600090815260dd602052604090205460ff1615611f8d5760405162461bcd60e51b815260206004820152601c60248201527f43534854414c4c3a20626c61636b6c69737465642061646472657373000000006044820152606401610ec5565b60c9546040516330cd31af60e11b81526000916001600160a01b03169063619a635e90611fbe908590600401614b07565b60206040518083038186803b158015611fd657600080fd5b505afa158015611fea573d6000803e3d6000fd5b505050506040513d601f19601f8201168201806040525081019061200e9190614a36565b9050600081116120605760405162461bcd60e51b815260206004820152601960248201527f43534854414c4c3a20726577617264206e6f74207265616479000000000000006044820152606401610ec5565b60d854600090156120c957606460d8548361207b9190614e9c565b6120859190614e7a565b60df5460d1549192506201000090046001600160a01b039081169116146120c95760d15460df546120c9916001600160a01b039081169162010000900416846136dd565b6120d38183614ebb565b60d1549092506120ed906001600160a01b031684846136dd565b60c95460405163d094fa8d60e01b81526001600160a01b039091169063d094fa8d9061211d908690600401614b07565b602060405180830381600087803b15801561213757600080fd5b505af115801561214b573d6000803e3d6000fd5b505050506040513d601f19601f8201168201806040525081019061216f9190614a36565b507f564112c0ad2fbcae1bed83c58ed5d830128565d634cdc875bb02b065ad242343836040516114609190614b07565b6065546001600160a01b031633146121c95760405162461bcd60e51b8152600401610ec590614d56565b6001600160a01b0381166121ef5760405162461bcd60e51b8152600401610ec590614c61565b60cf80546001600160a01b0319166001600160a01b0392909216919091179055565b600054610100900460ff1661222c5760005460ff1615612230565b303b155b6122935760405162461bcd60e51b815260206004820152602e60248201527f496e697469616c697a61626c653a20636f6e747261637420697320616c72656160448201526d191e481a5b9a5d1a585b1a5e995960921b6064820152608401610ec5565b600054610100900460ff161580156122b5576000805461ffff19166101011790555b600085511180156122c7575060008451115b61230a5760405162461bcd60e51b815260206004820152601460248201527320a222291013102120a620a721a29022a92927a960611b6044820152606401610ec5565b612312613d81565b612356604051806040016040528060078152602001663078426c6f636b60c81b81525060405180604001604052806003815260200162183c2160e91b815250613db0565b6123608787613de1565b60006001600160a01b03168560018151811061237e5761237e614f6a565b60200260200101516001600160a01b0316141580156123ca575060006001600160a01b0316856002815181106123b6576123b6614f6a565b60200260200101516001600160a01b031614155b8015612403575060006001600160a01b0316856003815181106123ef576123ef614f6a565b60200260200101516001600160a01b031614155b801561243c575060006001600160a01b03168560048151811061242857612428614f6a565b60200260200101516001600160a01b031614155b61247a5760405162461bcd60e51b815260206004820152600f60248201526e1413d3d30816915493c81193d55391608a1b6044820152606401610ec5565b8460018151811061248d5761248d614f6a565b602002602001015160cf60006101000a8154816001600160a01b0302191690836001600160a01b03160217905550846002815181106124ce576124ce614f6a565b602002602001015160d260006101000a8154816001600160a01b0302191690836001600160a01b031602179055508460038151811061250f5761250f614f6a565b602002602001015160d060006101000a8154816001600160a01b0302191690836001600160a01b031602179055508460048151811061255057612550614f6a565b602090810291909101015160d180546001600160a01b0319166001600160a01b03909216918217905560df805462010000600160b01b031916620100009092029190911790558251600090849082906125ab576125ab614f6a565b60200260200101511180156125da57506000836001815181106125d0576125d0614f6a565b6020026020010151115b801561260057506000836002815181106125f6576125f6614f6a565b6020026020010151115b8015612626575060008360038151811061261c5761261c614f6a565b6020026020010151115b801561264c575060008360048151811061264257612642614f6a565b6020026020010151115b6126885760405162461bcd60e51b815260206004820152600d60248201526c0c094811915154c81193d55391609a1b6044820152606401610ec5565b8260008151811061269b5761269b614f6a565b602002602001015160d681905550826001815181106126bc576126bc614f6a565b602002602001015160d481905550826002815181106126dd576126dd614f6a565b602002602001015160d381905550826003815181106126fe576126fe614f6a565b602002602001015160d5819055508260048151811061271f5761271f614f6a565b602002602001015160d88190555060d45460d65460d55460d3546127439190614e62565b61274d9190614e62565b6127579190614e62565b60d75583518551146127a25760405162461bcd60e51b815260206004820152601460248201527320a222291013102120a620a721a29022a92927a960611b6044820152606401610ec5565b60005b855181101561280f576127fd8682815181106127c3576127c3614f6a565b60200260200101518683815181106127dd576127dd614f6a565b6020026020010151670de0b6b3a76400006127f89190614e9c565b613e12565b8061280781614f39565b9150506127a5565b5060355469d3c21bcecceda1000000146128635760405162461bcd60e51b81526020600482015260156024820152741515130814d5541413164811125191880c48135253605a1b6044820152606401610ec5565b60d98054606460cb55600a60cc5561ffff196001600160a01b038516620100000281166001600160b01b0319909216919091176101001790915560df8054610101921691909117905580156128be576000805461ff00191690555b50505050505050565b6065546001600160a01b031633146128f15760405162461bcd60e51b8152600401610ec590614d56565b6001600160a01b0381166129175760405162461bcd60e51b8152600401610ec590614c61565b60df80546001600160a01b03909216620100000262010000600160b01b0319909216919091179055565b60df54339060ff1615156001146129935760405162461bcd60e51b815260206004820152601660248201527510d4d2150e8810d85cda1bdd5d08111a5cd8589b195960521b6044820152606401610ec5565b6001600160a01b0381166129de5760405162461bcd60e51b8152602060048201526012602482015271435348543a207a65726f206164647265737360701b6044820152606401610ec5565b6001600160a01b038116600090815260dd602052604090205460ff1615612a3b5760405162461bcd60e51b815260206004820152601160248201527010d4d2150e88189b1858dadb1a5cdd1959607a1b6044820152606401610ec5565b60c9546040516329b8573160e21b81526000916001600160a01b03169063a6e15cc490612a6e9085908790600401614b1b565b60206040518083038186803b158015612a8657600080fd5b505afa158015612a9a573d6000803e3d6000fd5b505050506040513d601f19601f82011682018060405250810190612abe9190614a36565b905060008111612b095760405162461bcd60e51b8152602060048201526016602482015275435348543a20726577617264206e6f7420726561647960501b6044820152606401610ec5565b60d85460009015612b7257606460d85483612b249190614e9c565b612b2e9190614e7a565b60df5460d1549192506201000090046001600160a01b03908116911614612b725760d15460df54612b72916001600160a01b039081169162010000900416846136dd565b612b7c8183614ebb565b60d154909250612b96906001600160a01b031684846136dd565b60c95460405163611015b360e11b81526001600160a01b039091169063c2202b6690612bc89086908890600401614b1b565b602060405180830381600087803b158015612be257600080fd5b505af1158015612bf6573d6000803e3d6000fd5b505050506040513d601f19601f82011682018060405250810190612c1a9190614a36565b507f39f6d68d140e552a327d43ef814649947d78e76743e169e4f00d61b14f2f846d8385604051612c4c929190614b1b565b60405180910390a150505050565b6065546001600160a01b03163314612c845760405162461bcd60e51b8152600401610ec590614d56565b6064811115612cd55760405162461bcd60e51b815260206004820152601c60248201527f464545533a20636173686f757420657863656564696e672031303025000000006044820152606401610ec5565b60d855565b6001600160a01b031660009081526033602052604090205490565b6065546001600160a01b03163314612d1f5760405162461bcd60e51b8152600401610ec590614d56565b612d296000613ef1565b565b6065546001600160a01b03163314612d555760405162461bcd60e51b8152600401610ec590614d56565b6001600160a01b038116612d7b5760405162461bcd60e51b8152600401610ec590614c61565b60d080546001600160a01b0319166001600160a01b0392909216919091179055565b6065546001600160a01b03163314612dc75760405162461bcd60e51b8152600401610ec590614d56565b60d980549115156101000261ff0019909216919091179055565b6000609b8281548110612df657612df6614f6a565b6000918252602090912001546001600160a01b031692915050565b6065546001600160a01b03163314612e3b5760405162461bcd60e51b8152600401610ec590614d56565b6001600160a01b038116612e865760405162461bcd60e51b81526020600482015260126024820152712722abafa1a9269d103d32b9379030b2323960711b6044820152606401610ec5565b60c980546001600160a01b0319166001600160a01b0392909216919091179055565b6065546001600160a01b03163314612ed25760405162461bcd60e51b8152600401610ec590614d56565b60008160d45460d65460d354612ee89190614e62565b612ef29190614e62565b612efc9190614e62565b90506064811115612f1f5760405162461bcd60e51b8152600401610ec590614d8b565b60d59190915560d755565b6065546001600160a01b03163314612f545760405162461bcd60e51b8152600401610ec590614d56565b60df80549115156101000261ff0019909216919091179055565b606060378054610fc290614efe565b6065546001600160a01b03163314612fa75760405162461bcd60e51b8152600401610ec590614d56565b60008160d65460d55460d354612fbd9190614e62565b612fc79190614e62565b612fd19190614e62565b90506064811115612ff45760405162461bcd60e51b8152600401610ec590614d8b565b60d49190915560d755565b6040516370a0823160e01b81523390859084906001600160a01b038316906370a0823190613031908690600401614b07565b60206040518083038186803b15801561304957600080fd5b505afa15801561305d573d6000803e3d6000fd5b505050506040513d601f19601f820116820180604052508101906130819190614a36565b101561309f5760405162461bcd60e51b8152600401610ec590614d1f565b60e0546040516323b872dd60e01b81526001600160a01b03808416926323b872dd926130d392879216908990600401614b34565b602060405180830381600087803b1580156130ed57600080fd5b505af1158015613101573d6000803e3d6000fd5b505050506040513d601f19601f820116820180604052508101906131259190614a00565b5060e0546001600160a01b03166374cefd8a838888886112528942614e62565b6065546001600160a01b0316331461316f5760405162461bcd60e51b8152600401610ec590614d56565b60d9805460ff1916911515919091179055565b3360008181526034602090815260408083206001600160a01b0387168452909152812054909190838110156132075760405162461bcd60e51b815260206004820152602560248201527f45524332303a2064656372656173656420616c6c6f77616e63652062656c6f77604482015264207a65726f60d81b6064820152608401610ec5565b613214828686840361377b565b506001949350505050565b60003361133c8185856136dd565b6065546001600160a01b031633146132575760405162461bcd60e51b8152600401610ec590614d56565b60d980546001600160a01b03909216620100000262010000600160b01b0319909216919091179055565b6065546001600160a01b031633146132ab5760405162461bcd60e51b8152600401610ec590614d56565b60df805460ff1916911515919091179055565b6065546001600160a01b031633146132e85760405162461bcd60e51b8152600401610ec590614d56565b6001600160a01b0381166133375760405162461bcd60e51b81526020600482015260166024820152752722abafa62927aaaa22a91d103d32b9379030b2323960511b6044820152606401610ec5565b60e080546001600160a01b0319166001600160a01b0392909216919091179055565b6065546001600160a01b031633146133835760405162461bcd60e51b8152600401610ec590614d56565b6001600160a01b0381166133a95760405162461bcd60e51b8152600401610ec590614c61565b60d180546001600160a01b0319166001600160a01b0392909216919091179055565b6065546001600160a01b031633146133f55760405162461bcd60e51b8152600401610ec590614d56565b6133fe30612cda565b81111561345e5760405162461bcd60e51b815260206004820152602860248201527f534156455f4d495353454e543a20746f6b656e732065786365656420616464726044820152672062616c616e636560c01b6064820152608401610ec5565b6001600160a01b0382166134b45760405162461bcd60e51b815260206004820152601a60248201527f534156455f4d495353454e543a207a65726f5f616464726573730000000000006044820152606401610ec5565b6134bf3083836136dd565b5050565b6001600160a01b03918216600090815260346020908152604080832093909416825291909152205490565b6065546001600160a01b031633146135185760405162461bcd60e51b8152600401610ec590614d56565b6001600160a01b03811661353e5760405162461bcd60e51b8152600401610ec590614c61565b60d280546001600160a01b0319166001600160a01b0392909216919091179055565b338361356b82612cda565b10156135895760405162461bcd60e51b8152600401610ec590614d1f565b60e0546135a19082906001600160a01b0316866136dd565b60e0546001600160a01b03166388e5249f82878787610f058842614e62565b6065546001600160a01b031633146135ea5760405162461bcd60e51b8152600401610ec590614d56565b6001600160a01b03811661364f5760405162461bcd60e51b815260206004820152602660248201527f4f776e61626c653a206e6577206f776e657220697320746865207a65726f206160448201526564647265737360d01b6064820152608401610ec5565b61365881613ef1565b50565b6065546001600160a01b031633146136855760405162461bcd60e51b8152600401610ec590614d56565b60008160d45460d55460d35461369b9190614e62565b6136a59190614e62565b6136af9190614e62565b905060648111156136d25760405162461bcd60e51b8152600401610ec590614d8b565b60d69190915560d755565b6001600160a01b038316600090815260dd602052604090205460ff1615801561371f57506001600160a01b038216600090815260dd602052604090205460ff16155b61376b5760405162461bcd60e51b815260206004820152601a60248201527f45524332303a20426c61636b6c697374656420616464726573730000000000006044820152606401610ec5565b613776838383613b5d565b505050565b6001600160a01b0383166137dd5760405162461bcd60e51b8152602060048201526024808201527f45524332303a20617070726f76652066726f6d20746865207a65726f206164646044820152637265737360e01b6064820152608401610ec5565b6001600160a01b03821661383e5760405162461bcd60e51b815260206004820152602260248201527f45524332303a20617070726f766520746f20746865207a65726f206164647265604482015261737360f01b6064820152608401610ec5565b6001600160a01b0383811660008181526034602090815260408083209487168084529482529182902085905590518481527f8c5be1e5ebec7d5bd14f71427d1e84f3dd0314c0f7b2291e5b200ac8c7c3b925910160405180910390a3505050565b6097546001600160a01b038416600090815260996020526040812054909183916138c99086614e9c565b6138d39190614e7a565b6138dd9190614ebb565b949350505050565b804710156139355760405162461bcd60e51b815260206004820152601d60248201527f416464726573733a20696e73756666696369656e742062616c616e63650000006044820152606401610ec5565b6000826001600160a01b03168260405160006040518083038185875af1925050503d8060008114613982576040519150601f19603f3d011682016040523d82523d6000602084013e613987565b606091505b50509050806137765760405162461bcd60e51b815260206004820152603a60248201527f416464726573733a20756e61626c6520746f2073656e642076616c75652c207260448201527f6563697069656e74206d617920686176652072657665727465640000000000006064820152608401610ec5565b6000613a0a84846134c3565b90506000198114613a725781811015613a655760405162461bcd60e51b815260206004820152601d60248201527f45524332303a20696e73756666696369656e7420616c6c6f77616e63650000006044820152606401610ec5565b613a72848484840361377b565b50505050565b6001600160a01b038216301415613a9957613a948685836136dd565b613b18565b60e054613ab19087906001600160a01b0316836136dd565b60e054604051632da63c1160e21b81526001600160a01b039091169063b698f04490613ae590879086908690600401614b34565b600060405180830381600087803b158015613aff57600080fd5b505af1158015613b13573d6000803e3d6000fd5b505050505b7fae65b8cdcf70197aae9eec6cad9075662a0b1f140940b20a5d60413e1d05e8b885848484604051613b4d9493929190614c24565b60405180910390a1505050505050565b6001600160a01b038316613bc15760405162461bcd60e51b815260206004820152602560248201527f45524332303a207472616e736665722066726f6d20746865207a65726f206164604482015264647265737360d81b6064820152608401610ec5565b6001600160a01b038216613c235760405162461bcd60e51b815260206004820152602360248201527f45524332303a207472616e7366657220746f20746865207a65726f206164647260448201526265737360e81b6064820152608401610ec5565b6001600160a01b03831660009081526033602052604090205481811015613c9b5760405162461bcd60e51b815260206004820152602660248201527f45524332303a207472616e7366657220616d6f756e7420657863656564732062604482015265616c616e636560d01b6064820152608401610ec5565b6001600160a01b03808516600090815260336020526040808220858503905591851681529081208054849290613cd2908490614e62565b92505081905550826001600160a01b0316846001600160a01b03167fddf252ad1be2c89b69c2b068fc378daa952ba7f163c4a11628f55a4df523b3ef84604051613d1e91815260200190565b60405180910390a3613a72565b6137768363a9059cbb60e01b8484604051602401613d4a929190614b1b565b60408051601f198184030181529190526020810180516001600160e01b03166001600160e01b031990931692909217909152613f43565b600054610100900460ff16613da85760405162461bcd60e51b8152600401610ec590614dc2565b612d29614015565b600054610100900460ff16613dd75760405162461bcd60e51b8152600401610ec590614dc2565b6134bf8282614045565b600054610100900460ff16613e085760405162461bcd60e51b8152600401610ec590614dc2565b6134bf8282614093565b6001600160a01b038216613e685760405162461bcd60e51b815260206004820152601f60248201527f45524332303a206d696e7420746f20746865207a65726f2061646472657373006044820152606401610ec5565b8060356000828254613e7a9190614e62565b90915550506001600160a01b03821660009081526033602052604081208054839290613ea7908490614e62565b90915550506040518181526001600160a01b038316906000907fddf252ad1be2c89b69c2b068fc378daa952ba7f163c4a11628f55a4df523b3ef9060200160405180910390a35050565b606580546001600160a01b038381166001600160a01b0319831681179093556040519116919082907f8be0079c531659141344cd1fd0a4f28419497f9722a3daafe3b4186f6b6457e090600090a35050565b6000613f98826040518060400160405280602081526020017f5361666545524332303a206c6f772d6c6576656c2063616c6c206661696c6564815250856001600160a01b03166141d19092919063ffffffff16565b8051909150156137765780806020019051810190613fb69190614a00565b6137765760405162461bcd60e51b815260206004820152602a60248201527f5361666545524332303a204552433230206f7065726174696f6e20646964206e6044820152691bdd081cdd58d8d9595960b21b6064820152608401610ec5565b600054610100900460ff1661403c5760405162461bcd60e51b8152600401610ec590614dc2565b612d2933613ef1565b600054610100900460ff1661406c5760405162461bcd60e51b8152600401610ec590614dc2565b815161407f906036906020850190614528565b508051613776906037906020840190614528565b600054610100900460ff166140ba5760405162461bcd60e51b8152600401610ec590614dc2565b80518251146141265760405162461bcd60e51b815260206004820152603260248201527f5061796d656e7453706c69747465723a2070617965657320616e6420736861726044820152710cae640d8cadccee8d040dad2e6dac2e8c6d60731b6064820152608401610ec5565b60008251116141775760405162461bcd60e51b815260206004820152601a60248201527f5061796d656e7453706c69747465723a206e6f207061796565730000000000006044820152606401610ec5565b60005b8251811015613776576141bf83828151811061419857614198614f6a565b60200260200101518383815181106141b2576141b2614f6a565b60200260200101516141e0565b806141c981614f39565b91505061417a565b60606138dd84846000856143be565b6001600160a01b03821661424b5760405162461bcd60e51b815260206004820152602c60248201527f5061796d656e7453706c69747465723a206163636f756e74206973207468652060448201526b7a65726f206164647265737360a01b6064820152608401610ec5565b6000811161429b5760405162461bcd60e51b815260206004820152601d60248201527f5061796d656e7453706c69747465723a207368617265732061726520300000006044820152606401610ec5565b6001600160a01b038216600090815260996020526040902054156143155760405162461bcd60e51b815260206004820152602b60248201527f5061796d656e7453706c69747465723a206163636f756e7420616c726561647960448201526a206861732073686172657360a81b6064820152608401610ec5565b609b8054600181019091557fbba9db4cdbea0a37c207bbb83e20f828cd4441c49891101dc94fd20dc8efc3490180546001600160a01b0319166001600160a01b038416908117909155600090815260996020526040902081905560975461437d908290614e62565b6097556040517f40c340f65e17194d14ddddb073d3c9f888e3cb52b5aae0c6c7706b4fbc905fac906143b29084908490614b1b565b60405180910390a15050565b60608247101561441f5760405162461bcd60e51b815260206004820152602660248201527f416464726573733a20696e73756666696369656e742062616c616e636520666f6044820152651c8818d85b1b60d21b6064820152608401610ec5565b6001600160a01b0385163b6144765760405162461bcd60e51b815260206004820152601d60248201527f416464726573733a2063616c6c20746f206e6f6e2d636f6e74726163740000006044820152606401610ec5565b600080866001600160a01b031685876040516144929190614aeb565b60006040518083038185875af1925050503d80600081146144cf576040519150601f19603f3d011682016040523d82523d6000602084013e6144d4565b606091505b50915091506144e48282866144ef565b979650505050505050565b606083156144fe57508161148c565b82511561450e5782518084602001fd5b8160405162461bcd60e51b8152600401610ec59190614c11565b82805461453490614efe565b90600052602060002090601f016020900481019282614556576000855561459c565b82601f1061456f57805160ff191683800117855561459c565b8280016001018555821561459c579182015b8281111561459c578251825591602001919060010190614581565b506145a89291506145ac565b5090565b5b808211156145a857600081556001016145ad565b80356145cc81614f96565b919050565b600082601f8301126145e257600080fd5b813560206145f76145f283614e3e565b614e0d565b80838252828201915082860187848660051b890101111561461757600080fd5b60005b8581101561463f57813561462d81614f96565b8452928401929084019060010161461a565b5090979650505050505050565b600082601f83011261465d57600080fd5b8135602061466d6145f283614e3e565b80838252828201915082860187848660051b890101111561468d57600080fd5b60005b8581101561463f57813584529284019290840190600101614690565b8035600381106145cc57600080fd5b6000602082840312156146cd57600080fd5b813561148c81614f96565b600080604083850312156146eb57600080fd5b82356146f681614f96565b9150602083013561470681614f96565b809150509250929050565b60008060006060848603121561472657600080fd5b833561473181614f96565b9250602084013561474181614f96565b929592945050506040919091013590565b6000806040838503121561476557600080fd5b823561477081614f96565b9150602083013561470681614fab565b6000806040838503121561479357600080fd5b823561479e81614f96565b946020939093013593505050565b600080600080608085870312156147c257600080fd5b84356147cd81614f96565b966020860135965060408601359560600135945092505050565b60008060008060008060c0878903121561480057600080fd5b863567ffffffffffffffff8082111561481857600080fd5b6148248a838b016145d1565b9750602089013591508082111561483a57600080fd5b6148468a838b0161464c565b9650604089013591508082111561485c57600080fd5b6148688a838b016145d1565b9550606089013591508082111561487e57600080fd5b61488a8a838b0161464c565b945060808901359150808211156148a057600080fd5b506148ad89828a0161464c565b9250506148bc60a088016145c1565b90509295509295509295565b60008060408084860312156148dc57600080fd5b833567ffffffffffffffff808211156148f457600080fd5b818601915086601f83011261490857600080fd5b813560206149186145f283614e3e565b8083825282820191508286018b848660051b890101111561493857600080fd5b60005b858110156149c35781358781111561495257600080fd5b8801603f81018e1361496357600080fd5b858101358881111561497757614977614f80565b614989601f8201601f19168801614e0d565b8181528f8c83850101111561499d57600080fd5b818c8401898301376000918101880191909152855250928401929084019060010161493b565b505080985050506149d58189016146ac565b955050505050509250929050565b6000602082840312156149f557600080fd5b813561148c81614fab565b600060208284031215614a1257600080fd5b815161148c81614fab565b600060208284031215614a2f57600080fd5b5035919050565b600060208284031215614a4857600080fd5b5051919050565b60008060408385031215614a6257600080fd5b50508035926020909101359150565b600080600060608486031215614a8657600080fd5b505081359360208301359350604090920135919050565b60038110614abb57634e487b7160e01b600052602160045260246000fd5b9052565b60008151808452614ad7816020860160208601614ed2565b601f01601f19169290920160200192915050565b60008251614afd818460208701614ed2565b9190910192915050565b6001600160a01b0391909116815260200190565b6001600160a01b03929092168252602082015260400190565b6001600160a01b039384168152919092166020820152604081019190915260600190565b6001600160a01b03958616815293909416602084015260408301919091526060820152608081019190915260a00190565b60006060820160018060a01b0386168352602060608185015281865180845260808601915060808160051b870101935082880160005b82811015614bed57607f19888703018452614bdb868351614abf565b95509284019290840190600101614bbf565b5050505050809150506138dd6040830184614a9d565b602081016113428284614a9d565b60208152600061148c6020830184614abf565b608081526000614c376080830187614abf565b9050614c466020830186614a9d565b6001600160a01b039390931660408201526060015292915050565b6020808252601390820152722aa8222faba0a6261d103d32b9379030b2323960691b604082015260600190565b60208082526026908201527f5061796d656e7453706c69747465723a206163636f756e7420686173206e6f2060408201526573686172657360d01b606082015260800190565b6020808252602b908201527f5061796d656e7453706c69747465723a206163636f756e74206973206e6f742060408201526a191d59481c185e5b595b9d60aa1b606082015260800190565b6020808252601a908201527f535741503a20696e73756666696369656e742062616c616e6365000000000000604082015260600190565b6020808252818101527f4f776e61626c653a2063616c6c6572206973206e6f7420746865206f776e6572604082015260600190565b6020808252601a908201527f464545533a20746f74616c20657863656564696e672031303025000000000000604082015260600190565b6020808252602b908201527f496e697469616c697a61626c653a20636f6e7472616374206973206e6f74206960408201526a6e697469616c697a696e6760a81b606082015260800190565b604051601f8201601f1916810167ffffffffffffffff81118282101715614e3657614e36614f80565b604052919050565b600067ffffffffffffffff821115614e5857614e58614f80565b5060051b60200190565b60008219821115614e7557614e75614f54565b500190565b600082614e9757634e487b7160e01b600052601260045260246000fd5b500490565b6000816000190483118215151615614eb657614eb6614f54565b500290565b600082821015614ecd57614ecd614f54565b500390565b60005b83811015614eed578181015183820152602001614ed5565b83811115613a725750506000910152565b600181811c90821680614f1257607f821691505b60208210811415614f3357634e487b7160e01b600052602260045260246000fd5b50919050565b6000600019821415614f4d57614f4d614f54565b5060010190565b634e487b7160e01b600052601160045260246000fd5b634e487b7160e01b600052603260045260246000fd5b634e487b7160e01b600052604160045260246000fd5b6001600160a01b038116811461365857600080fd5b801515811461365857600080fdfea164736f6c6343000807000a",
  "devdoc": {
    "kind": "dev",
    "methods": {
      "allowance(address,address)": {
        "details": "See {IERC20-allowance}."
      },
      "approve(address,uint256)": {
        "details": "See {IERC20-approve}. NOTE: If `amount` is the maximum `uint256`, the allowance is not updated on `transferFrom`. This is semantically equivalent to an infinite approval. Requirements: - `spender` cannot be the zero address."
      },
      "balanceOf(address)": {
        "details": "See {IERC20-balanceOf}."
      },
      "decimals()": {
        "details": "Returns the number of decimals used to get its user representation. For example, if `decimals` equals `2`, a balance of `505` tokens should be displayed to a user as `5.05` (`505 / 10 ** 2`). Tokens usually opt for a value of 18, imitating the relationship between Ether and Wei. This is the value {ERC20} uses, unless this function is overridden; NOTE: This information is only used for _display_ purposes: it in no way affects any of the arithmetic of the contract, including {IERC20-balanceOf} and {IERC20-transfer}."
      },
      "decreaseAllowance(address,uint256)": {
        "details": "Atomically decreases the allowance granted to `spender` by the caller. This is an alternative to {approve} that can be used as a mitigation for problems described in {IERC20-approve}. Emits an {Approval} event indicating the updated allowance. Requirements: - `spender` cannot be the zero address. - `spender` must have allowance for the caller of at least `subtractedValue`."
      },
      "increaseAllowance(address,uint256)": {
        "details": "Atomically increases the allowance granted to `spender` by the caller. This is an alternative to {approve} that can be used as a mitigation for problems described in {IERC20-approve}. Emits an {Approval} event indicating the updated allowance. Requirements: - `spender` cannot be the zero address."
      },
      "name()": {
        "details": "Returns the name of the token."
      },
      "owner()": {
        "details": "Returns the address of the current owner."
      },
      "payee(uint256)": {
        "details": "Getter for the address of the payee number `index`."
      },
      "release(address)": {
        "details": "Triggers a transfer to `account` of the amount of Ether they are owed, according to their percentage of the total shares and their previous withdrawals."
      },
      "release(address,address)": {
        "details": "Triggers a transfer to `account` of the amount of `token` tokens they are owed, according to their percentage of the total shares and their previous withdrawals. `token` must be the address of an IERC20 contract."
      },
      "released(address)": {
        "details": "Getter for the amount of Ether already released to a payee."
      },
      "released(address,address)": {
        "details": "Getter for the amount of `token` tokens already released to a payee. `token` should be the address of an IERC20 contract."
      },
      "renounceOwnership()": {
        "details": "Leaves the contract without owner. It will not be possible to call `onlyOwner` functions anymore. Can only be called by the current owner. NOTE: Renouncing ownership will leave the contract without an owner, thereby removing any functionality that is only available to the owner."
      },
      "shares(address)": {
        "details": "Getter for the amount of shares held by an account."
      },
      "symbol()": {
        "details": "Returns the symbol of the token, usually a shorter version of the name."
      },
      "totalReleased()": {
        "details": "Getter for the total amount of Ether already released."
      },
      "totalReleased(address)": {
        "details": "Getter for the total amount of `token` already released. `token` should be the address of an IERC20 contract."
      },
      "totalShares()": {
        "details": "Getter for the total shares held by payees."
      },
      "totalSupply()": {
        "details": "See {IERC20-totalSupply}."
      },
      "transfer(address,uint256)": {
        "details": "See {IERC20-transfer}. Requirements: - `to` cannot be the zero address. - the caller must have a balance of at least `amount`."
      },
      "transferFrom(address,address,uint256)": {
        "details": "See {IERC20-transferFrom}. Emits an {Approval} event indicating the updated allowance. This is not required by the EIP. See the note at the beginning of {ERC20}. NOTE: Does not update the allowance if the current allowance is the maximum `uint256`. Requirements: - `from` and `to` cannot be the zero address. - `from` must have a balance of at least `amount`. - the caller must have allowance for ``from``'s tokens of at least `amount`."
      },
      "transferOwnership(address)": {
        "details": "Transfers ownership of the contract to a new account (`newOwner`). Can only be called by the current owner."
      }
    },
    "version": 1
  },
  "userdoc": {
    "kind": "user",
    "methods": {},
    "version": 1
  },
  "storageLayout": {
    "storage": [
      {
        "astId": 598,
        "contract": "contracts/ZeroXBlock.sol:ZeroXBlock",
        "label": "_initialized",
        "offset": 0,
        "slot": "0",
        "type": "t_bool"
      },
      {
        "astId": 601,
        "contract": "contracts/ZeroXBlock.sol:ZeroXBlock",
        "label": "_initializing",
        "offset": 1,
        "slot": "0",
        "type": "t_bool"
      },
      {
        "astId": 1889,
        "contract": "contracts/ZeroXBlock.sol:ZeroXBlock",
        "label": "__gap",
        "offset": 0,
        "slot": "1",
        "type": "t_array(t_uint256)50_storage"
      },
      {
        "astId": 684,
        "contract": "contracts/ZeroXBlock.sol:ZeroXBlock",
        "label": "_balances",
        "offset": 0,
        "slot": "51",
        "type": "t_mapping(t_address,t_uint256)"
      },
      {
        "astId": 690,
        "contract": "contracts/ZeroXBlock.sol:ZeroXBlock",
        "label": "_allowances",
        "offset": 0,
        "slot": "52",
        "type": "t_mapping(t_address,t_mapping(t_address,t_uint256))"
      },
      {
        "astId": 692,
        "contract": "contracts/ZeroXBlock.sol:ZeroXBlock",
        "label": "_totalSupply",
        "offset": 0,
        "slot": "53",
        "type": "t_uint256"
      },
      {
        "astId": 694,
        "contract": "contracts/ZeroXBlock.sol:ZeroXBlock",
        "label": "_name",
        "offset": 0,
        "slot": "54",
        "type": "t_string_storage"
      },
      {
        "astId": 696,
        "contract": "contracts/ZeroXBlock.sol:ZeroXBlock",
        "label": "_symbol",
        "offset": 0,
        "slot": "55",
        "type": "t_string_storage"
      },
      {
        "astId": 1277,
        "contract": "contracts/ZeroXBlock.sol:ZeroXBlock",
        "label": "__gap",
        "offset": 0,
        "slot": "56",
        "type": "t_array(t_uint256)45_storage"
      },
      {
        "astId": 10,
        "contract": "contracts/ZeroXBlock.sol:ZeroXBlock",
        "label": "_owner",
        "offset": 0,
        "slot": "101",
        "type": "t_address"
      },
      {
        "astId": 122,
        "contract": "contracts/ZeroXBlock.sol:ZeroXBlock",
        "label": "__gap",
        "offset": 0,
        "slot": "102",
        "type": "t_array(t_uint256)49_storage"
      },
      {
        "astId": 163,
        "contract": "contracts/ZeroXBlock.sol:ZeroXBlock",
        "label": "_totalShares",
        "offset": 0,
        "slot": "151",
        "type": "t_uint256"
      },
      {
        "astId": 165,
        "contract": "contracts/ZeroXBlock.sol:ZeroXBlock",
        "label": "_totalReleased",
        "offset": 0,
        "slot": "152",
        "type": "t_uint256"
      },
      {
        "astId": 169,
        "contract": "contracts/ZeroXBlock.sol:ZeroXBlock",
        "label": "_shares",
        "offset": 0,
        "slot": "153",
        "type": "t_mapping(t_address,t_uint256)"
      },
      {
        "astId": 173,
        "contract": "contracts/ZeroXBlock.sol:ZeroXBlock",
        "label": "_released",
        "offset": 0,
        "slot": "154",
        "type": "t_mapping(t_address,t_uint256)"
      },
      {
        "astId": 176,
        "contract": "contracts/ZeroXBlock.sol:ZeroXBlock",
        "label": "_payees",
        "offset": 0,
        "slot": "155",
        "type": "t_array(t_address)dyn_storage"
      },
      {
        "astId": 181,
        "contract": "contracts/ZeroXBlock.sol:ZeroXBlock",
        "label": "_erc20TotalReleased",
        "offset": 0,
        "slot": "156",
        "type": "t_mapping(t_contract(IERC20Upgradeable)1356,t_uint256)"
      },
      {
        "astId": 188,
        "contract": "contracts/ZeroXBlock.sol:ZeroXBlock",
        "label": "_erc20Released",
        "offset": 0,
        "slot": "157",
        "type": "t_mapping(t_contract(IERC20Upgradeable)1356,t_mapping(t_address,t_uint256))"
      },
      {
        "astId": 590,
        "contract": "contracts/ZeroXBlock.sol:ZeroXBlock",
        "label": "__gap",
        "offset": 0,
        "slot": "158",
        "type": "t_array(t_uint256)43_storage"
      },
      {
        "astId": 2586,
        "contract": "contracts/ZeroXBlock.sol:ZeroXBlock",
        "label": "_crm",
        "offset": 0,
        "slot": "201",
        "type": "t_contract(CONTRewardManagement)6259"
      },
      {
        "astId": 2589,
        "contract": "contracts/ZeroXBlock.sol:ZeroXBlock",
        "label": "uniswapV2Router",
        "offset": 0,
        "slot": "202",
        "type": "t_contract(IJoeRouter02)8070"
      },
      {
        "astId": 2594,
        "contract": "contracts/ZeroXBlock.sol:ZeroXBlock",
        "label": "ownedContsLimit",
        "offset": 0,
        "slot": "203",
        "type": "t_uint256"
      },
      {
        "astId": 2596,
        "contract": "contracts/ZeroXBlock.sol:ZeroXBlock",
        "label": "mintContLimit",
        "offset": 0,
        "slot": "204",
        "type": "t_uint256"
      },
      {
        "astId": 2598,
        "contract": "contracts/ZeroXBlock.sol:ZeroXBlock",
        "label": "uniswapV2Pair",
        "offset": 0,
        "slot": "205",
        "type": "t_address"
      },
      {
        "astId": 2600,
        "contract": "contracts/ZeroXBlock.sol:ZeroXBlock",
        "label": "totalTokensPaidForMinting",
        "offset": 0,
        "slot": "206",
        "type": "t_uint256"
      },
      {
        "astId": 2602,
        "contract": "contracts/ZeroXBlock.sol:ZeroXBlock",
        "label": "developmentFundPool",
        "offset": 0,
        "slot": "207",
        "type": "t_address"
      },
      {
        "astId": 2604,
        "contract": "contracts/ZeroXBlock.sol:ZeroXBlock",
        "label": "treasuryPool",
        "offset": 0,
        "slot": "208",
        "type": "t_address"
      },
      {
        "astId": 2606,
        "contract": "contracts/ZeroXBlock.sol:ZeroXBlock",
        "label": "rewardsPool",
        "offset": 0,
        "slot": "209",
        "type": "t_address"
      },
      {
        "astId": 2608,
        "contract": "contracts/ZeroXBlock.sol:ZeroXBlock",
        "label": "liquidityPool",
        "offset": 0,
        "slot": "210",
        "type": "t_address"
      },
      {
        "astId": 2610,
        "contract": "contracts/ZeroXBlock.sol:ZeroXBlock",
        "label": "rewardsFee",
        "offset": 0,
        "slot": "211",
        "type": "t_uint256"
      },
      {
        "astId": 2612,
        "contract": "contracts/ZeroXBlock.sol:ZeroXBlock",
        "label": "treasuryFee",
        "offset": 0,
        "slot": "212",
        "type": "t_uint256"
      },
      {
        "astId": 2614,
        "contract": "contracts/ZeroXBlock.sol:ZeroXBlock",
        "label": "liquidityPoolFee",
        "offset": 0,
        "slot": "213",
        "type": "t_uint256"
      },
      {
        "astId": 2616,
        "contract": "contracts/ZeroXBlock.sol:ZeroXBlock",
        "label": "developmentFee",
        "offset": 0,
        "slot": "214",
        "type": "t_uint256"
      },
      {
        "astId": 2618,
        "contract": "contracts/ZeroXBlock.sol:ZeroXBlock",
        "label": "totalFees",
        "offset": 0,
        "slot": "215",
        "type": "t_uint256"
      },
      {
        "astId": 2620,
        "contract": "contracts/ZeroXBlock.sol:ZeroXBlock",
        "label": "cashoutFee",
        "offset": 0,
        "slot": "216",
        "type": "t_uint256"
      },
      {
        "astId": 2622,
        "contract": "contracts/ZeroXBlock.sol:ZeroXBlock",
        "label": "enableAutoSwapTreasury",
        "offset": 0,
        "slot": "217",
        "type": "t_bool"
      },
      {
        "astId": 2624,
        "contract": "contracts/ZeroXBlock.sol:ZeroXBlock",
        "label": "enableAutoSwapDevFund",
        "offset": 1,
        "slot": "217",
        "type": "t_bool"
      },
      {
        "astId": 2626,
        "contract": "contracts/ZeroXBlock.sol:ZeroXBlock",
        "label": "usdcToken",
        "offset": 2,
        "slot": "217",
        "type": "t_address"
      },
      {
        "astId": 2628,
        "contract": "contracts/ZeroXBlock.sol:ZeroXBlock",
        "label": "antiBotEnabled",
        "offset": 22,
        "slot": "217",
        "type": "t_bool"
      },
      {
        "astId": 2630,
        "contract": "contracts/ZeroXBlock.sol:ZeroXBlock",
        "label": "launchBuyLimit",
        "offset": 0,
        "slot": "218",
        "type": "t_uint256"
      },
      {
        "astId": 2632,
        "contract": "contracts/ZeroXBlock.sol:ZeroXBlock",
        "label": "launchBuyTimeout",
        "offset": 0,
        "slot": "219",
        "type": "t_uint256"
      },
      {
        "astId": 2636,
        "contract": "contracts/ZeroXBlock.sol:ZeroXBlock",
        "label": "_lastBuyOnLaunch",
        "offset": 0,
        "slot": "220",
        "type": "t_mapping(t_address,t_uint256)"
      },
      {
        "astId": 2640,
        "contract": "contracts/ZeroXBlock.sol:ZeroXBlock",
        "label": "_isBlacklisted",
        "offset": 0,
        "slot": "221",
        "type": "t_mapping(t_address,t_bool)"
      },
      {
        "astId": 2644,
        "contract": "contracts/ZeroXBlock.sol:ZeroXBlock",
        "label": "automatedMarketMakerPairs",
        "offset": 0,
        "slot": "222",
        "type": "t_mapping(t_address,t_bool)"
      },
      {
        "astId": 2646,
        "contract": "contracts/ZeroXBlock.sol:ZeroXBlock",
        "label": "enableCashout",
        "offset": 0,
        "slot": "223",
        "type": "t_bool"
      },
      {
        "astId": 2648,
        "contract": "contracts/ZeroXBlock.sol:ZeroXBlock",
        "label": "enableMintConts",
        "offset": 1,
        "slot": "223",
        "type": "t_bool"
      },
      {
        "astId": 2650,
        "contract": "contracts/ZeroXBlock.sol:ZeroXBlock",
        "label": "cashoutTaxPool",
        "offset": 2,
        "slot": "223",
        "type": "t_address"
      },
      {
        "astId": 2653,
        "contract": "contracts/ZeroXBlock.sol:ZeroXBlock",
        "label": "_liqRouter",
        "offset": 0,
        "slot": "224",
        "type": "t_contract(LiquidityRouter)7601"
      }
    ],
    "types": {
      "t_address": {
        "encoding": "inplace",
        "label": "address",
        "numberOfBytes": "20"
      },
      "t_array(t_address)dyn_storage": {
        "base": "t_address",
        "encoding": "dynamic_array",
        "label": "address[]",
        "numberOfBytes": "32"
      },
      "t_array(t_uint256)43_storage": {
        "base": "t_uint256",
        "encoding": "inplace",
        "label": "uint256[43]",
        "numberOfBytes": "1376"
      },
      "t_array(t_uint256)45_storage": {
        "base": "t_uint256",
        "encoding": "inplace",
        "label": "uint256[45]",
        "numberOfBytes": "1440"
      },
      "t_array(t_uint256)49_storage": {
        "base": "t_uint256",
        "encoding": "inplace",
        "label": "uint256[49]",
        "numberOfBytes": "1568"
      },
      "t_array(t_uint256)50_storage": {
        "base": "t_uint256",
        "encoding": "inplace",
        "label": "uint256[50]",
        "numberOfBytes": "1600"
      },
      "t_bool": {
        "encoding": "inplace",
        "label": "bool",
        "numberOfBytes": "1"
      },
      "t_contract(CONTRewardManagement)6259": {
        "encoding": "inplace",
        "label": "contract CONTRewardManagement",
        "numberOfBytes": "20"
      },
      "t_contract(IERC20Upgradeable)1356": {
        "encoding": "inplace",
        "label": "contract IERC20Upgradeable",
        "numberOfBytes": "20"
      },
      "t_contract(IJoeRouter02)8070": {
        "encoding": "inplace",
        "label": "contract IJoeRouter02",
        "numberOfBytes": "20"
      },
      "t_contract(LiquidityRouter)7601": {
        "encoding": "inplace",
        "label": "contract LiquidityRouter",
        "numberOfBytes": "20"
      },
      "t_mapping(t_address,t_bool)": {
        "encoding": "mapping",
        "key": "t_address",
        "label": "mapping(address => bool)",
        "numberOfBytes": "32",
        "value": "t_bool"
      },
      "t_mapping(t_address,t_mapping(t_address,t_uint256))": {
        "encoding": "mapping",
        "key": "t_address",
        "label": "mapping(address => mapping(address => uint256))",
        "numberOfBytes": "32",
        "value": "t_mapping(t_address,t_uint256)"
      },
      "t_mapping(t_address,t_uint256)": {
        "encoding": "mapping",
        "key": "t_address",
        "label": "mapping(address => uint256)",
        "numberOfBytes": "32",
        "value": "t_uint256"
      },
      "t_mapping(t_contract(IERC20Upgradeable)1356,t_mapping(t_address,t_uint256))": {
        "encoding": "mapping",
        "key": "t_contract(IERC20Upgradeable)1356",
        "label": "mapping(contract IERC20Upgradeable => mapping(address => uint256))",
        "numberOfBytes": "32",
        "value": "t_mapping(t_address,t_uint256)"
      },
      "t_mapping(t_contract(IERC20Upgradeable)1356,t_uint256)": {
        "encoding": "mapping",
        "key": "t_contract(IERC20Upgradeable)1356",
        "label": "mapping(contract IERC20Upgradeable => uint256)",
        "numberOfBytes": "32",
        "value": "t_uint256"
      },
      "t_string_storage": {
        "encoding": "bytes",
        "label": "string",
        "numberOfBytes": "32"
      },
      "t_uint256": {
        "encoding": "inplace",
        "label": "uint256",
        "numberOfBytes": "32"
      }
    }
  }
}