{
  "address": "0x6380F997a7fED591e31919D44cE23422E017F4Ce",
  "abi": [
    {
      "anonymous": false,
      "inputs": [
        {
          "indexed": true,
          "internalType": "address",
          "name": "owner",
          "type": "address"
        },
        {
          "indexed": true,
          "internalType": "address",
          "name": "spender",
          "type": "address"
        },
        {
          "indexed": false,
          "internalType": "uint256",
          "name": "value",
          "type": "uint256"
        }
      ],
      "name": "Approval",
      "type": "event"
    },
    {
      "anonymous": false,
      "inputs": [
        {
          "indexed": false,
          "internalType": "address",
          "name": "sender",
          "type": "address"
        }
      ],
      "name": "ContsMinted",
      "type": "event"
    },
    {
      "anonymous": false,
      "inputs": [
        {
          "indexed": true,
          "internalType": "contract IERC20Upgradeable",
          "name": "token",
          "type": "address"
        },
        {
          "indexed": false,
          "internalType": "address",
          "name": "to",
          "type": "address"
        },
        {
          "indexed": false,
          "internalType": "uint256",
          "name": "amount",
          "type": "uint256"
        }
      ],
      "name": "ERC20PaymentReleased",
      "type": "event"
    },
    {
      "anonymous": false,
      "inputs": [
        {
          "indexed": true,
          "internalType": "address",
          "name": "previousOwner",
          "type": "address"
        },
        {
          "indexed": true,
          "internalType": "address",
          "name": "newOwner",
          "type": "address"
        }
      ],
      "name": "OwnershipTransferred",
      "type": "event"
    },
    {
      "anonymous": false,
      "inputs": [
        {
          "indexed": false,
          "internalType": "address",
          "name": "account",
          "type": "address"
        },
        {
          "indexed": false,
          "internalType": "uint256",
          "name": "shares",
          "type": "uint256"
        }
      ],
      "name": "PayeeAdded",
      "type": "event"
    },
    {
      "anonymous": false,
      "inputs": [
        {
          "indexed": false,
          "internalType": "address",
          "name": "from",
          "type": "address"
        },
        {
          "indexed": false,
          "internalType": "uint256",
          "name": "amount",
          "type": "uint256"
        }
      ],
      "name": "PaymentReceived",
      "type": "event"
    },
    {
      "anonymous": false,
      "inputs": [
        {
          "indexed": false,
          "internalType": "address",
          "name": "to",
          "type": "address"
        },
        {
          "indexed": false,
          "internalType": "uint256",
          "name": "amount",
          "type": "uint256"
        }
      ],
      "name": "PaymentReleased",
      "type": "event"
    },
    {
      "anonymous": false,
      "inputs": [
        {
          "indexed": false,
          "internalType": "address",
          "name": "sender",
          "type": "address"
        }
      ],
      "name": "RewardCashoutAll",
      "type": "event"
    },
    {
      "anonymous": false,
      "inputs": [
        {
          "indexed": false,
          "internalType": "address",
          "name": "sender",
          "type": "address"
        },
        {
          "indexed": false,
          "internalType": "uint256",
          "name": "index",
          "type": "uint256"
        }
      ],
      "name": "RewardCashoutOne",
      "type": "event"
    },
    {
      "anonymous": false,
      "inputs": [
        {
          "indexed": true,
          "internalType": "address",
          "name": "from",
          "type": "address"
        },
        {
          "indexed": true,
          "internalType": "address",
          "name": "to",
          "type": "address"
        },
        {
          "indexed": false,
          "internalType": "uint256",
          "name": "value",
          "type": "uint256"
        }
      ],
      "name": "Transfer",
      "type": "event"
    },
    {
      "inputs": [],
      "name": "_crm",
      "outputs": [
        {
          "internalType": "contract CONTRewardManagement",
          "name": "",
          "type": "address"
        }
      ],
      "stateMutability": "view",
      "type": "function"
    },
    {
      "inputs": [
        {
          "internalType": "address",
          "name": "",
          "type": "address"
        }
      ],
      "name": "_isBlacklisted",
      "outputs": [
        {
          "internalType": "bool",
          "name": "",
          "type": "bool"
        }
      ],
      "stateMutability": "view",
      "type": "function"
    },
    {
      "inputs": [
        {
          "internalType": "address",
          "name": "",
          "type": "address"
        }
      ],
      "name": "_lastBuyOnLaunch",
      "outputs": [
        {
          "internalType": "uint256",
          "name": "",
          "type": "uint256"
        }
      ],
      "stateMutability": "view",
      "type": "function"
    },
    {
      "inputs": [],
      "name": "_liqRouter",
      "outputs": [
        {
          "internalType": "contract LiquidityRouter",
          "name": "",
          "type": "address"
        }
      ],
      "stateMutability": "view",
      "type": "function"
    },
    {
      "inputs": [
        {
          "internalType": "address",
          "name": "owner",
          "type": "address"
        },
        {
          "internalType": "address",
          "name": "spender",
          "type": "address"
        }
      ],
      "name": "allowance",
      "outputs": [
        {
          "internalType": "uint256",
          "name": "",
          "type": "uint256"
        }
      ],
      "stateMutability": "view",
      "type": "function"
    },
    {
      "inputs": [],
      "name": "antiBotEnabled",
      "outputs": [
        {
          "internalType": "bool",
          "name": "",
          "type": "bool"
        }
      ],
      "stateMutability": "view",
      "type": "function"
    },
    {
      "inputs": [
        {
          "internalType": "address",
          "name": "spender",
          "type": "address"
        },
        {
          "internalType": "uint256",
          "name": "amount",
          "type": "uint256"
        }
      ],
      "name": "approve",
      "outputs": [
        {
          "internalType": "bool",
          "name": "",
          "type": "bool"
        }
      ],
      "stateMutability": "nonpayable",
      "type": "function"
    },
    {
      "inputs": [
        {
          "internalType": "address",
          "name": "",
          "type": "address"
        }
      ],
      "name": "automatedMarketMakerPairs",
      "outputs": [
        {
          "internalType": "bool",
          "name": "",
          "type": "bool"
        }
      ],
      "stateMutability": "view",
      "type": "function"
    },
    {
      "inputs": [
        {
          "internalType": "address",
          "name": "account",
          "type": "address"
        }
      ],
      "name": "balanceOf",
      "outputs": [
        {
          "internalType": "uint256",
          "name": "",
          "type": "uint256"
        }
      ],
      "stateMutability": "view",
      "type": "function"
    },
    {
      "inputs": [
        {
          "internalType": "enum ContType",
          "name": "_ct",
          "type": "uint8"
        }
      ],
      "name": "breakevenPerType",
      "outputs": [
        {
          "internalType": "uint256",
          "name": "",
          "type": "uint256"
        }
      ],
      "stateMutability": "view",
      "type": "function"
    },
    {
      "inputs": [],
      "name": "cashoutAll",
      "outputs": [],
      "stateMutability": "nonpayable",
      "type": "function"
    },
    {
      "inputs": [],
      "name": "cashoutFee",
      "outputs": [
        {
          "internalType": "uint256",
          "name": "",
          "type": "uint256"
        }
      ],
      "stateMutability": "view",
      "type": "function"
    },
    {
      "inputs": [
        {
          "internalType": "uint256",
          "name": "_contIndex",
          "type": "uint256"
        }
      ],
      "name": "cashoutReward",
      "outputs": [],
      "stateMutability": "nonpayable",
      "type": "function"
    },
    {
      "inputs": [],
      "name": "cashoutTaxPool",
      "outputs": [
        {
          "internalType": "address",
          "name": "",
          "type": "address"
        }
      ],
      "stateMutability": "view",
      "type": "function"
    },
    {
      "inputs": [
        {
          "internalType": "bool",
          "name": "newVal",
          "type": "bool"
        }
      ],
      "name": "changeEnableAutoSwapDevFund",
      "outputs": [],
      "stateMutability": "nonpayable",
      "type": "function"
    },
    {
      "inputs": [
        {
          "internalType": "bool",
          "name": "newVal",
          "type": "bool"
        }
      ],
      "name": "changeEnableAutoSwapTreasury",
      "outputs": [],
      "stateMutability": "nonpayable",
      "type": "function"
    },
    {
      "inputs": [
        {
          "internalType": "enum ContType",
          "name": "_ct",
          "type": "uint8"
        }
      ],
      "name": "claimedRewardsPerType",
      "outputs": [
        {
          "internalType": "uint256",
          "name": "",
          "type": "uint256"
        }
      ],
      "stateMutability": "view",
      "type": "function"
    },
    {
      "inputs": [],
      "name": "decimals",
      "outputs": [
        {
          "internalType": "uint8",
          "name": "",
          "type": "uint8"
        }
      ],
      "stateMutability": "view",
      "type": "function"
    },
    {
      "inputs": [
        {
          "internalType": "address",
          "name": "spender",
          "type": "address"
        },
        {
          "internalType": "uint256",
          "name": "subtractedValue",
          "type": "uint256"
        }
      ],
      "name": "decreaseAllowance",
      "outputs": [
        {
          "internalType": "bool",
          "name": "",
          "type": "bool"
        }
      ],
      "stateMutability": "nonpayable",
      "type": "function"
    },
    {
      "inputs": [],
      "name": "developmentFee",
      "outputs": [
        {
          "internalType": "uint256",
          "name": "",
          "type": "uint256"
        }
      ],
      "stateMutability": "view",
      "type": "function"
    },
    {
      "inputs": [],
      "name": "developmentFundPool",
      "outputs": [
        {
          "internalType": "address",
          "name": "",
          "type": "address"
        }
      ],
      "stateMutability": "view",
      "type": "function"
    },
    {
      "inputs": [],
      "name": "enableAutoSwapDevFund",
      "outputs": [
        {
          "internalType": "bool",
          "name": "",
          "type": "bool"
        }
      ],
      "stateMutability": "view",
      "type": "function"
    },
    {
      "inputs": [],
      "name": "enableAutoSwapTreasury",
      "outputs": [
        {
          "internalType": "bool",
          "name": "",
          "type": "bool"
        }
      ],
      "stateMutability": "view",
      "type": "function"
    },
    {
      "inputs": [],
      "name": "enableCashout",
      "outputs": [
        {
          "internalType": "bool",
          "name": "",
          "type": "bool"
        }
      ],
      "stateMutability": "view",
      "type": "function"
    },
    {
      "inputs": [],
      "name": "enableMintConts",
      "outputs": [
        {
          "internalType": "bool",
          "name": "",
          "type": "bool"
        }
      ],
      "stateMutability": "view",
      "type": "function"
    },
    {
      "inputs": [],
      "name": "getContsCreationTime",
      "outputs": [
        {
          "internalType": "string",
          "name": "",
          "type": "string"
        }
      ],
      "stateMutability": "view",
      "type": "function"
    },
    {
      "inputs": [],
      "name": "getContsCurrentAPR",
      "outputs": [
        {
          "internalType": "string",
          "name": "",
          "type": "string"
        }
      ],
      "stateMutability": "view",
      "type": "function"
    },
    {
      "inputs": [],
      "name": "getContsInitialAPR",
      "outputs": [
        {
          "internalType": "string",
          "name": "",
          "type": "string"
        }
      ],
      "stateMutability": "view",
      "type": "function"
    },
    {
      "inputs": [],
      "name": "getContsLastCashoutTime",
      "outputs": [
        {
          "internalType": "string",
          "name": "",
          "type": "string"
        }
      ],
      "stateMutability": "view",
      "type": "function"
    },
    {
      "inputs": [],
      "name": "getContsNames",
      "outputs": [
        {
          "internalType": "string",
          "name": "",
          "type": "string"
        }
      ],
      "stateMutability": "view",
      "type": "function"
    },
    {
      "inputs": [],
      "name": "getContsRewards",
      "outputs": [
        {
          "internalType": "string",
          "name": "",
          "type": "string"
        }
      ],
      "stateMutability": "view",
      "type": "function"
    },
    {
      "inputs": [],
      "name": "getContsTypes",
      "outputs": [
        {
          "internalType": "string",
          "name": "",
          "type": "string"
        }
      ],
      "stateMutability": "view",
      "type": "function"
    },
    {
      "inputs": [],
      "name": "getRewardAmount",
      "outputs": [
        {
          "internalType": "uint256",
          "name": "",
          "type": "uint256"
        }
      ],
      "stateMutability": "view",
      "type": "function"
    },
    {
      "inputs": [
        {
          "internalType": "address",
          "name": "spender",
          "type": "address"
        },
        {
          "internalType": "uint256",
          "name": "addedValue",
          "type": "uint256"
        }
      ],
      "name": "increaseAllowance",
      "outputs": [
        {
          "internalType": "bool",
          "name": "",
          "type": "bool"
        }
      ],
      "stateMutability": "nonpayable",
      "type": "function"
    },
    {
      "inputs": [
        {
          "internalType": "address[]",
          "name": "payees",
          "type": "address[]"
        },
        {
          "internalType": "uint256[]",
          "name": "shares",
          "type": "uint256[]"
        },
        {
          "internalType": "address[]",
          "name": "addresses",
          "type": "address[]"
        },
        {
          "internalType": "uint256[]",
          "name": "balances",
          "type": "uint256[]"
        },
        {
          "internalType": "uint256[]",
          "name": "fees",
          "type": "uint256[]"
        },
        {
          "internalType": "address",
          "name": "usdcAddr",
          "type": "address"
        }
      ],
      "name": "initialize",
      "outputs": [],
      "stateMutability": "nonpayable",
      "type": "function"
    },
    {
      "inputs": [],
      "name": "launchBuyLimit",
      "outputs": [
        {
          "internalType": "uint256",
          "name": "",
          "type": "uint256"
        }
      ],
      "stateMutability": "view",
      "type": "function"
    },
    {
      "inputs": [],
      "name": "launchBuyTimeout",
      "outputs": [
        {
          "internalType": "uint256",
          "name": "",
          "type": "uint256"
        }
      ],
      "stateMutability": "view",
      "type": "function"
    },
    {
      "inputs": [],
      "name": "liquidityPool",
      "outputs": [
        {
          "internalType": "address",
          "name": "",
          "type": "address"
        }
      ],
      "stateMutability": "view",
      "type": "function"
    },
    {
      "inputs": [],
      "name": "liquidityPoolFee",
      "outputs": [
        {
          "internalType": "uint256",
          "name": "",
          "type": "uint256"
        }
      ],
      "stateMutability": "view",
      "type": "function"
    },
    {
      "inputs": [
        {
          "internalType": "string[]",
          "name": "names",
          "type": "string[]"
        },
        {
          "internalType": "enum ContType",
          "name": "_cType",
          "type": "uint8"
        }
      ],
      "name": "mintConts",
      "outputs": [],
      "stateMutability": "nonpayable",
      "type": "function"
    },
    {
      "inputs": [],
      "name": "name",
      "outputs": [
        {
          "internalType": "string",
          "name": "",
          "type": "string"
        }
      ],
      "stateMutability": "view",
      "type": "function"
    },
    {
      "inputs": [],
      "name": "ownedContsLimit",
      "outputs": [
        {
          "internalType": "uint256",
          "name": "",
          "type": "uint256"
        }
      ],
      "stateMutability": "view",
      "type": "function"
    },
    {
      "inputs": [],
      "name": "owner",
      "outputs": [
        {
          "internalType": "address",
          "name": "",
          "type": "address"
        }
      ],
      "stateMutability": "view",
      "type": "function"
    },
    {
      "inputs": [
        {
          "internalType": "uint256",
          "name": "index",
          "type": "uint256"
        }
      ],
      "name": "payee",
      "outputs": [
        {
          "internalType": "address",
          "name": "",
          "type": "address"
        }
      ],
      "stateMutability": "view",
      "type": "function"
    },
    {
      "inputs": [
        {
          "internalType": "address payable",
          "name": "account",
          "type": "address"
        }
      ],
      "name": "release",
      "outputs": [],
      "stateMutability": "nonpayable",
      "type": "function"
    },
    {
      "inputs": [
        {
          "internalType": "contract IERC20Upgradeable",
          "name": "token",
          "type": "address"
        },
        {
          "internalType": "address",
          "name": "account",
          "type": "address"
        }
      ],
      "name": "release",
      "outputs": [],
      "stateMutability": "nonpayable",
      "type": "function"
    },
    {
      "inputs": [
        {
          "internalType": "contract IERC20Upgradeable",
          "name": "token",
          "type": "address"
        },
        {
          "internalType": "address",
          "name": "account",
          "type": "address"
        }
      ],
      "name": "released",
      "outputs": [
        {
          "internalType": "uint256",
          "name": "",
          "type": "uint256"
        }
      ],
      "stateMutability": "view",
      "type": "function"
    },
    {
      "inputs": [
        {
          "internalType": "address",
          "name": "account",
          "type": "address"
        }
      ],
      "name": "released",
      "outputs": [
        {
          "internalType": "uint256",
          "name": "",
          "type": "uint256"
        }
      ],
      "stateMutability": "view",
      "type": "function"
    },
    {
      "inputs": [],
      "name": "renounceOwnership",
      "outputs": [],
      "stateMutability": "nonpayable",
      "type": "function"
    },
    {
      "inputs": [
        {
          "internalType": "address",
          "name": "userAddr",
          "type": "address"
        },
        {
          "internalType": "uint256",
          "name": "tokens",
          "type": "uint256"
        }
      ],
      "name": "rescueMissentToken",
      "outputs": [],
      "stateMutability": "nonpayable",
      "type": "function"
    },
    {
      "inputs": [],
      "name": "rewardsFee",
      "outputs": [
        {
          "internalType": "uint256",
          "name": "",
          "type": "uint256"
        }
      ],
      "stateMutability": "view",
      "type": "function"
    },
    {
      "inputs": [],
      "name": "rewardsPool",
      "outputs": [
        {
          "internalType": "address",
          "name": "",
          "type": "address"
        }
      ],
      "stateMutability": "view",
      "type": "function"
    },
    {
      "inputs": [
        {
          "internalType": "address",
          "name": "account",
          "type": "address"
        },
        {
          "internalType": "bool",
          "name": "value",
          "type": "bool"
        }
      ],
      "name": "setBlacklistStatus",
      "outputs": [],
      "stateMutability": "nonpayable",
      "type": "function"
    },
    {
      "inputs": [
        {
          "internalType": "address",
          "name": "crm",
          "type": "address"
        }
      ],
      "name": "setContManagement",
      "outputs": [],
      "stateMutability": "nonpayable",
      "type": "function"
    },
    {
      "inputs": [
        {
          "internalType": "bool",
          "name": "_enableCashout",
          "type": "bool"
        }
      ],
      "name": "setEnableCashout",
      "outputs": [],
      "stateMutability": "nonpayable",
      "type": "function"
    },
    {
      "inputs": [
        {
          "internalType": "bool",
          "name": "value",
          "type": "bool"
        }
      ],
      "name": "setEnableMintConts",
      "outputs": [],
      "stateMutability": "nonpayable",
      "type": "function"
    },
    {
      "inputs": [
        {
          "internalType": "address payable",
          "name": "liqRouter",
          "type": "address"
        }
      ],
      "name": "setLiquidityRouter",
      "outputs": [],
      "stateMutability": "nonpayable",
      "type": "function"
    },
    {
      "inputs": [
        {
          "internalType": "address",
          "name": "newAddress",
          "type": "address"
        }
      ],
      "name": "setUSDCAddress",
      "outputs": [],
      "stateMutability": "nonpayable",
      "type": "function"
    },
    {
      "inputs": [
        {
          "internalType": "address",
          "name": "account",
          "type": "address"
        }
      ],
      "name": "shares",
      "outputs": [
        {
          "internalType": "uint256",
          "name": "",
          "type": "uint256"
        }
      ],
      "stateMutability": "view",
      "type": "function"
    },
    {
      "inputs": [
        {
          "internalType": "address",
          "name": "tokenAddr",
          "type": "address"
        },
        {
          "internalType": "uint256",
          "name": "amountOut",
          "type": "uint256"
        },
        {
          "internalType": "uint256",
          "name": "amountInMax",
          "type": "uint256"
        },
        {
          "internalType": "uint256",
          "name": "wait",
          "type": "uint256"
        }
      ],
      "name": "swap0xBForExactToken",
      "outputs": [],
      "stateMutability": "nonpayable",
      "type": "function"
    },
    {
      "inputs": [
        {
          "internalType": "uint256",
          "name": "amountOut",
          "type": "uint256"
        },
        {
          "internalType": "uint256",
          "name": "amountInMax",
          "type": "uint256"
        },
        {
          "internalType": "uint256",
          "name": "wait",
          "type": "uint256"
        }
      ],
      "name": "swapAVAXForExact0xB",
      "outputs": [],
      "stateMutability": "payable",
      "type": "function"
    },
    {
      "inputs": [
        {
          "internalType": "address",
          "name": "tokenAddr",
          "type": "address"
        },
        {
          "internalType": "uint256",
          "name": "amountIn",
          "type": "uint256"
        },
        {
          "internalType": "uint256",
          "name": "amountOutMin",
          "type": "uint256"
        },
        {
          "internalType": "uint256",
          "name": "wait",
          "type": "uint256"
        }
      ],
      "name": "swapExact0xBForToken",
      "outputs": [],
      "stateMutability": "nonpayable",
      "type": "function"
    },
    {
      "inputs": [
        {
          "internalType": "uint256",
          "name": "amountOutMin",
          "type": "uint256"
        },
        {
          "internalType": "uint256",
          "name": "wait",
          "type": "uint256"
        }
      ],
      "name": "swapExactAVAXFor0xB",
      "outputs": [],
      "stateMutability": "payable",
      "type": "function"
    },
    {
      "inputs": [
        {
          "internalType": "address",
          "name": "tokenAddr",
          "type": "address"
        },
        {
          "internalType": "uint256",
          "name": "amountIn",
          "type": "uint256"
        },
        {
          "internalType": "uint256",
          "name": "amountOutMin",
          "type": "uint256"
        },
        {
          "internalType": "uint256",
          "name": "wait",
          "type": "uint256"
        }
      ],
      "name": "swapExactTokenFor0xB",
      "outputs": [],
      "stateMutability": "nonpayable",
      "type": "function"
    },
    {
      "inputs": [
        {
          "internalType": "address",
          "name": "tokenAddr",
          "type": "address"
        },
        {
          "internalType": "uint256",
          "name": "amountOut",
          "type": "uint256"
        },
        {
          "internalType": "uint256",
          "name": "amountInMax",
          "type": "uint256"
        },
        {
          "internalType": "uint256",
          "name": "wait",
          "type": "uint256"
        }
      ],
      "name": "swapTokenForExact0xB",
      "outputs": [],
      "stateMutability": "nonpayable",
      "type": "function"
    },
    {
      "inputs": [],
      "name": "symbol",
      "outputs": [
        {
          "internalType": "string",
          "name": "",
          "type": "string"
        }
      ],
      "stateMutability": "view",
      "type": "function"
    },
    {
      "inputs": [
        {
          "internalType": "enum ContType",
          "name": "_ct",
          "type": "uint8"
        }
      ],
      "name": "tokenReceivedPerType",
      "outputs": [
        {
          "internalType": "uint256",
          "name": "",
          "type": "uint256"
        }
      ],
      "stateMutability": "view",
      "type": "function"
    },
    {
      "inputs": [
        {
          "internalType": "enum ContType",
          "name": "_ct",
          "type": "uint8"
        }
      ],
      "name": "totalContsPerType",
      "outputs": [
        {
          "internalType": "uint256",
          "name": "",
          "type": "uint256"
        }
      ],
      "stateMutability": "view",
      "type": "function"
    },
    {
      "inputs": [],
      "name": "totalFees",
      "outputs": [
        {
          "internalType": "uint256",
          "name": "",
          "type": "uint256"
        }
      ],
      "stateMutability": "view",
      "type": "function"
    },
    {
      "inputs": [
        {
          "internalType": "contract IERC20Upgradeable",
          "name": "token",
          "type": "address"
        }
      ],
      "name": "totalReleased",
      "outputs": [
        {
          "internalType": "uint256",
          "name": "",
          "type": "uint256"
        }
      ],
      "stateMutability": "view",
      "type": "function"
    },
    {
      "inputs": [],
      "name": "totalReleased",
      "outputs": [
        {
          "internalType": "uint256",
          "name": "",
          "type": "uint256"
        }
      ],
      "stateMutability": "view",
      "type": "function"
    },
    {
      "inputs": [],
      "name": "totalShares",
      "outputs": [
        {
          "internalType": "uint256",
          "name": "",
          "type": "uint256"
        }
      ],
      "stateMutability": "view",
      "type": "function"
    },
    {
      "inputs": [],
      "name": "totalSupply",
      "outputs": [
        {
          "internalType": "uint256",
          "name": "",
          "type": "uint256"
        }
      ],
      "stateMutability": "view",
      "type": "function"
    },
    {
      "inputs": [],
      "name": "totalTokensPaidForMinting",
      "outputs": [
        {
          "internalType": "uint256",
          "name": "",
          "type": "uint256"
        }
      ],
      "stateMutability": "view",
      "type": "function"
    },
    {
      "inputs": [
        {
          "internalType": "address",
          "name": "to",
          "type": "address"
        },
        {
          "internalType": "uint256",
          "name": "amount",
          "type": "uint256"
        }
      ],
      "name": "transfer",
      "outputs": [
        {
          "internalType": "bool",
          "name": "",
          "type": "bool"
        }
      ],
      "stateMutability": "nonpayable",
      "type": "function"
    },
    {
      "inputs": [
        {
          "internalType": "address",
          "name": "from",
          "type": "address"
        },
        {
          "internalType": "address",
          "name": "to",
          "type": "address"
        },
        {
          "internalType": "uint256",
          "name": "amount",
          "type": "uint256"
        }
      ],
      "name": "transferFrom",
      "outputs": [
        {
          "internalType": "bool",
          "name": "",
          "type": "bool"
        }
      ],
      "stateMutability": "nonpayable",
      "type": "function"
    },
    {
      "inputs": [
        {
          "internalType": "address",
          "name": "newOwner",
          "type": "address"
        }
      ],
      "name": "transferOwnership",
      "outputs": [],
      "stateMutability": "nonpayable",
      "type": "function"
    },
    {
      "inputs": [],
      "name": "treasuryFee",
      "outputs": [
        {
          "internalType": "uint256",
          "name": "",
          "type": "uint256"
        }
      ],
      "stateMutability": "view",
      "type": "function"
    },
    {
      "inputs": [],
      "name": "treasuryPool",
      "outputs": [
        {
          "internalType": "address",
          "name": "",
          "type": "address"
        }
      ],
      "stateMutability": "view",
      "type": "function"
    },
    {
      "inputs": [],
      "name": "uniswapV2Pair",
      "outputs": [
        {
          "internalType": "address",
          "name": "",
          "type": "address"
        }
      ],
      "stateMutability": "view",
      "type": "function"
    },
    {
      "inputs": [
        {
          "internalType": "uint256",
          "name": "value",
          "type": "uint256"
        }
      ],
      "name": "updateCashoutFee",
      "outputs": [],
      "stateMutability": "nonpayable",
      "type": "function"
    },
    {
      "inputs": [
        {
          "internalType": "address payable",
          "name": "wall",
          "type": "address"
        }
      ],
      "name": "updateCashoutTaxPool",
      "outputs": [],
      "stateMutability": "nonpayable",
      "type": "function"
    },
    {
      "inputs": [
        {
          "internalType": "uint256",
          "name": "value",
          "type": "uint256"
        }
      ],
      "name": "updateDevelopmentFee",
      "outputs": [],
      "stateMutability": "nonpayable",
      "type": "function"
    },
    {
      "inputs": [
        {
          "internalType": "address payable",
          "name": "wall",
          "type": "address"
        }
      ],
      "name": "updateDevelopmentFundWallet",
      "outputs": [],
      "stateMutability": "nonpayable",
      "type": "function"
    },
    {
      "inputs": [
        {
          "internalType": "uint256",
          "name": "value",
          "type": "uint256"
        }
      ],
      "name": "updateLiquidityFee",
      "outputs": [],
      "stateMutability": "nonpayable",
      "type": "function"
    },
    {
      "inputs": [
        {
          "internalType": "address payable",
          "name": "wall",
          "type": "address"
        }
      ],
      "name": "updateLiquidityWallet",
      "outputs": [],
      "stateMutability": "nonpayable",
      "type": "function"
    },
    {
      "inputs": [
        {
          "internalType": "uint256",
          "name": "value",
          "type": "uint256"
        }
      ],
      "name": "updateRewardsFee",
      "outputs": [],
      "stateMutability": "nonpayable",
      "type": "function"
    },
    {
      "inputs": [
        {
          "internalType": "address payable",
          "name": "wall",
          "type": "address"
        }
      ],
      "name": "updateRewardsWallet",
      "outputs": [],
      "stateMutability": "nonpayable",
      "type": "function"
    },
    {
      "inputs": [
        {
          "internalType": "uint256",
          "name": "value",
          "type": "uint256"
        }
      ],
      "name": "updateTreasuryFee",
      "outputs": [],
      "stateMutability": "nonpayable",
      "type": "function"
    },
    {
      "inputs": [
        {
          "internalType": "address payable",
          "name": "wall",
          "type": "address"
        }
      ],
      "name": "updateTreasuryWallet",
      "outputs": [],
      "stateMutability": "nonpayable",
      "type": "function"
    },
    {
      "inputs": [],
      "name": "usdcToken",
      "outputs": [
        {
          "internalType": "address",
          "name": "",
          "type": "address"
        }
      ],
      "stateMutability": "view",
      "type": "function"
    },
    {
      "stateMutability": "payable",
      "type": "receive"
    }
  ],
  "transactionHash": "0x1c75c5fa0914eaa888cdbddc23908593e28d48eea68699f150553da3620a0f95",
  "args": [],
  "numDeployments": 1,
  "solcInputHash": "9237759515ad28ec00eb8b39fdd42e0d",
  "bytecode": "0x608060405234801561001057600080fd5b506154a6806100206000396000f3fe6080604052600436106104f05760003560e01c80638161ab761161028c578063b3328aae1161015a578063d8c6404b116100cc578063eb71c5d911610085578063eb71c5d914610f62578063f2e0302314610f81578063f2fde38b14610fa1578063f34f152214610fc1578063f764bfb514610fd7578063f78d5c5514610ffd57600080fd5b8063d8c6404b14610ebd578063dd62ed3e14610ede578063e0583ec014610efe578063e22ee81314610f18578063e33b7de314610f2d578063e37ba8f914610f4257600080fd5b8063cd6e18f11161011e578063cd6e18f114610dd1578063ce7c2ac214610df1578063cfc0d02414610e27578063d631f70514610e47578063d75e277314610e67578063d79779b214610e8757600080fd5b8063b3328aae14610d3b578063b62496f514610d5b578063b9bd393314610d8b578063bcb8ebfc14610da5578063cc32d17614610dbb57600080fd5b806395d89b41116101fe5780639dc73a49116101b75780639dc73a4914610c785780639ff41fe314610c98578063a457c2d714610cc5578063a5f3d00314610ce5578063a9059cbb14610cfb578063aaf5bfc314610d1b57600080fd5b806395d89b4114610bb85780639723283014610bcd5780639852595c14610bed5780639a6e80db14610c235780639b03f44914610c435780639c64291c14610c5857600080fd5b80638b83209b116102505780638b83209b14610b055780638d28914414610b255780638da5cb5b14610b455780638e67566314610b635780638ea928f114610b835780639149acbc14610b9857600080fd5b80638161ab7614610a8557806382a8ebad14610a9a578063839df91914610aba57806384884e4414610ada5780638683811614610aef57600080fd5b806339306140116103c957806357dae0631161033b5780636d9ae0be116102f45780636d9ae0be146109da5780637091d108146109f057806370a0823114610a10578063715018a614610a30578063809d458d14610a45578063810be66d14610a6557600080fd5b806357dae063146109255780635dd731fc1461094557806365bfe43014610965578063665a11ca146109855780636815a91c146109a55780636b38c586146109c557600080fd5b806348b750441161038d57806348b750441461087a57806348df58291461089a57806349bd5a5e146108ba57806354557973146108da57806354f12f1f146108ef578063559bf3021461090557600080fd5b806339306140146107ef57806339509351146108055780633a98ef39146108255780633bf20e601461083a578063406072a91461085a57600080fd5b806310153e7b116104625780631cdd3be3116104265780631cdd3be31461073a57806323b872dd1461076a578063241a38c61461078a5780632bb14e1d1461079d5780633086319d146107b3578063313ce567146107d357600080fd5b806310153e7b146106b457806311eac855146106c957806313114a9d146106ef57806318160ddd14610705578063191655871461071a57600080fd5b80630841e977116104b45780630841e977146105e2578063084a6bff14610602578063095ea7b31461062257806309a69f57146106525780630cda832f146106755780630f1978fb1461069557600080fd5b80630129981c146105355780630359fea91461055757806303d29d281461058d57806306fdde03146105ad57806307a55860146105cf57600080fd5b36610530577f6ef95f06320e7a25a04a175ca677b7052bdd97131872c2192525a629f51be770333460405161052692919061501e565b60405180910390a1005b600080fd5b34801561054157600080fd5b50610555610550366004614c33565b61101d565b005b34801561056357600080fd5b5060d154610577906001600160a01b031681565b604051610584919061500a565b60405180910390f35b34801561059957600080fd5b506105556105a8366004614bd9565b6110df565b3480156105b957600080fd5b506105c2611134565b60405161058491906150f0565b6105556105dd366004614f74565b6111c6565b3480156105ee57600080fd5b506105556105fd366004614c33565b61128d565b34801561060e57600080fd5b5061055561061d366004614f20565b611435565b34801561062e57600080fd5b5061064261063d366004614c07565b6114b7565b6040519015158152602001610584565b34801561065e57600080fd5b506106676114d1565b604051908152602001610584565b34801561068157600080fd5b50610667610690366004614e8e565b611557565b3480156106a157600080fd5b5060d95461064290610100900460ff1681565b3480156106c057600080fd5b506105c26115f5565b3480156106d557600080fd5b5060d954610577906201000090046001600160a01b031681565b3480156106fb57600080fd5b5061066760d75481565b34801561071157600080fd5b50603554610667565b34801561072657600080fd5b50610555610735366004614b42565b61167b565b34801561074657600080fd5b50610642610755366004614b42565b60dd6020526000908152604090205460ff1681565b34801561077657600080fd5b50610642610785366004614b98565b6117a0565b610555610798366004614f52565b6117c6565b3480156107a957600080fd5b5061066760d35481565b3480156107bf57600080fd5b506105556107ce366004614d4f565b6117e8565b3480156107df57600080fd5b5060405160128152602001610584565b3480156107fb57600080fd5b5061066760ce5481565b34801561081157600080fd5b50610642610820366004614c07565b611f11565b34801561083157600080fd5b50609754610667565b34801561084657600080fd5b50610667610855366004614e8e565b611f50565b34801561086657600080fd5b50610667610875366004614b5f565b611fd1565b34801561088657600080fd5b50610555610895366004614b5f565b611ffc565b3480156108a657600080fd5b5060d054610577906001600160a01b031681565b3480156108c657600080fd5b5060cd54610577906001600160a01b031681565b3480156108e657600080fd5b506105556121c0565b3480156108fb57600080fd5b5061066760d55481565b34801561091157600080fd5b50610555610920366004614b42565b6124e2565b34801561093157600080fd5b50610555610940366004614c6e565b612554565b34801561095157600080fd5b50610555610960366004614b42565b612c0a565b34801561097157600080fd5b50610555610980366004614f20565b612c84565b34801561099157600080fd5b5060d254610577906001600160a01b031681565b3480156109b157600080fd5b506105556109c0366004614f20565b612f9d565b3480156109d157600080fd5b506105c261301d565b3480156109e657600080fd5b5061066760d85481565b3480156109fc57600080fd5b50610667610a0b366004614e8e565b613037565b348015610a1c57600080fd5b50610667610a2b366004614b42565b6130d5565b348015610a3c57600080fd5b506105556130f0565b348015610a5157600080fd5b50610555610a60366004614b42565b613126565b348015610a7157600080fd5b5060cf54610577906001600160a01b031681565b348015610a9157600080fd5b506105c2613198565b348015610aa657600080fd5b5060ca54610577906001600160a01b031681565b348015610ac657600080fd5b50610555610ad5366004614e54565b6131b2565b348015610ae657600080fd5b506105c26131f6565b348015610afb57600080fd5b5061066760da5481565b348015610b1157600080fd5b50610577610b20366004614f20565b613210565b348015610b3157600080fd5b50610555610b40366004614b42565b613240565b348015610b5157600080fd5b506065546001600160a01b0316610577565b348015610b6f57600080fd5b50610555610b7e366004614f20565b6132d7565b348015610b8f57600080fd5b506105c2613359565b348015610ba457600080fd5b50610555610bb3366004614e54565b613373565b348015610bc457600080fd5b506105c26133b7565b348015610bd957600080fd5b50610555610be8366004614f20565b6133c6565b348015610bf957600080fd5b50610667610c08366004614b42565b6001600160a01b03166000908152609a602052604090205490565b348015610c2f57600080fd5b5060c954610577906001600160a01b031681565b348015610c4f57600080fd5b506105c2613448565b348015610c6457600080fd5b50610555610c73366004614c33565b613462565b348015610c8457600080fd5b50610555610c93366004614e54565b6135b0565b348015610ca457600080fd5b50610667610cb3366004614b42565b60dc6020526000908152604090205481565b348015610cd157600080fd5b50610642610ce0366004614c07565b6135ed565b348015610cf157600080fd5b5061066760d65481565b348015610d0757600080fd5b50610642610d16366004614c07565b61368a565b348015610d2757600080fd5b50610555610d36366004614b42565b613698565b348015610d4757600080fd5b50610555610d56366004614e54565b6136ec565b348015610d6757600080fd5b50610642610d76366004614b42565b60de6020526000908152604090205460ff1681565b348015610d9757600080fd5b5060df546106429060ff1681565b348015610db157600080fd5b5061066760cb5481565b348015610dc757600080fd5b5061066760d45481565b348015610ddd57600080fd5b50610555610dec366004614b42565b613729565b348015610dfd57600080fd5b50610667610e0c366004614b42565b6001600160a01b031660009081526099602052604090205490565b348015610e3357600080fd5b50610555610e42366004614b42565b6137c4565b348015610e5357600080fd5b50610555610e62366004614c07565b613836565b348015610e7357600080fd5b50610667610e82366004614e8e565b61392e565b348015610e9357600080fd5b50610667610ea2366004614b42565b6001600160a01b03166000908152609c602052604090205490565b348015610ec957600080fd5b5060d95461064290600160b01b900460ff1681565b348015610eea57600080fd5b50610667610ef9366004614b5f565b6139cc565b348015610f0a57600080fd5b5060d9546106429060ff1681565b348015610f2457600080fd5b506105c26139f7565b348015610f3957600080fd5b50609854610667565b348015610f4e57600080fd5b50610555610f5d366004614b42565b613a11565b348015610f6e57600080fd5b5060df5461064290610100900460ff1681565b348015610f8d57600080fd5b50610555610f9c366004614c33565b613a83565b348015610fad57600080fd5b50610555610fbc366004614b42565b613ae3565b348015610fcd57600080fd5b5061066760db5481565b348015610fe357600080fd5b5060df54610577906201000090046001600160a01b031681565b34801561100957600080fd5b50610555611018366004614f20565b613b7e565b3382611028826130d5565b101561104f5760405162461bcd60e51b8152600401611046906151c1565b60405180910390fd5b60ca546110679082906001600160a01b031685613c00565b60ca546001600160a01b03166380be66cf82878787611086884261532c565b6040518663ffffffff1660e01b81526004016110a6959493929190615037565b600060405180830381600087803b1580156110c057600080fd5b505af11580156110d4573d6000803e3d6000fd5b505050505050505050565b6065546001600160a01b031633146111095760405162461bcd60e51b8152600401611046906151f8565b6001600160a01b0391909116600090815260dd60205260409020805460ff1916911515919091179055565b606060368054611143906153c8565b80601f016020809104026020016040519081016040528092919081815260200182805461116f906153c8565b80156111bc5780601f10611191576101008083540402835291602001916111bc565b820191906000526020600020905b81548152906001019060200180831161119f57829003601f168201915b5050505050905090565b33348311156112225760405162461bcd60e51b815260206004820152602260248201527f535741503a206d73672e76616c7565206c657373207468616e20736c69707061604482015261676560f01b6064820152608401611046565b60ca546001600160a01b031663ed9705da348387611240874261532c565b6040516001600160e01b031960e087901b1681526001600160a01b039093166004840152602483019190915260448201526064016000604051808303818588803b1580156110c057600080fd5b6040516370a0823160e01b81523390859085906001600160a01b038316906370a08231906112bf90869060040161500a565b60206040518083038186803b1580156112d757600080fd5b505afa1580156112eb573d6000803e3d6000fd5b505050506040513d601f19601f8201168201806040525081019061130f9190614f39565b101561132d5760405162461bcd60e51b8152600401611046906151c1565b60ca546040516323b872dd60e01b81526001600160a01b038481166004830152918216602482015260448101879052908216906323b872dd90606401602060405180830381600087803b15801561138357600080fd5b505af1158015611397573d6000803e3d6000fd5b505050506040513d601f19601f820116820180604052508101906113bb9190614e71565b5060ca546001600160a01b0316636e54a8a0838888886113db894261532c565b6040518663ffffffff1660e01b81526004016113fb959493929190615037565b600060405180830381600087803b15801561141557600080fd5b505af1158015611429573d6000803e3d6000fd5b50505050505050505050565b6065546001600160a01b0316331461145f5760405162461bcd60e51b8152600401611046906151f8565b60008160d45460d65460d554611475919061532c565b61147f919061532c565b611489919061532c565b905060648111156114ac5760405162461bcd60e51b81526004016110469061522d565b60d39190915560d755565b6000336114c5818585613c9e565b60019150505b92915050565b60c9546040516330cd31af60e11b81526000916001600160a01b03169063619a635e9061150290339060040161500a565b60206040518083038186803b15801561151a57600080fd5b505afa15801561152e573d6000803e3d6000fd5b505050506040513d601f19601f820116820180604052508101906115529190614f39565b905090565b600081600281111561156b5761156b615434565b60c95460405163ce6912a360e01b81526001600160a01b039091169063ce6912a39061159b9086906004016150e2565b60206040518083038186803b1580156115b357600080fd5b505afa1580156115c7573d6000803e3d6000fd5b505050506040513d601f19601f820116820180604052508101906115eb9190614f39565b6114cb9190615385565b60c9546060906001600160a01b0316635dbab6ed335b6040518263ffffffff1660e01b8152600401611627919061500a565b60006040518083038186803b15801561163f57600080fd5b505afa158015611653573d6000803e3d6000fd5b505050506040513d6000823e601f3d908101601f191682016040526115529190810190614ea9565b6001600160a01b0381166000908152609960205260409020546116b05760405162461bcd60e51b815260040161104690615130565b60006116bb60985490565b6116c5904761532c565b905060006116f283836116ed866001600160a01b03166000908152609a602052604090205490565b613dc2565b9050806117115760405162461bcd60e51b815260040161104690615176565b6001600160a01b0383166000908152609a60205260408120805483929061173990849061532c565b925050819055508060986000828254611752919061532c565b9091555061176290508382613e08565b7fdf20fd1e76bc69d672e4814fafb2c449bba3a5369d8359adf9e05e6fde87b056838260405161179392919061501e565b60405180910390a1505050565b6000336117ae858285613f21565b6117b9858585613c00565b60019150505b9392505050565b60ca54339034906001600160a01b0316638f6e53b7828487611240884261532c565b60df54610100900460ff1661183f5760405162461bcd60e51b815260206004820152601d60248201527f434f4e544d494e543a206d696e7420636f6e74732064697361626c65640000006044820152606401611046565b60cc548251111561188d5760405162461bcd60e51b8152602060048201526018602482015277434f4e544d494e543a20746f6f206d616e7920636f6e747360401b6044820152606401611046565b60005b82518110156119465760038382815181106118ad576118ad61544a565b6020026020010151511180156118dd575060218382815181106118d2576118d261544a565b602002602001015151105b6119345760405162461bcd60e51b815260206004820152602260248201527f434f4e544d494e543a20696d70726f7065722063686172616374657220636f756044820152611b9d60f21b6064820152608401611046565b8061193e81615403565b915050611890565b50338061198e5760405162461bcd60e51b8152602060048201526016602482015275434f4e544d494e543a207a65726f206164647265737360501b6044820152606401611046565b6001600160a01b038116600090815260dd602052604090205460ff16156119f75760405162461bcd60e51b815260206004820152601d60248201527f434f4e544d494e543a20626c61636b6c697374656420616464726573730000006044820152606401611046565b60cf546001600160a01b03828116911614801590611a23575060d1546001600160a01b03828116911614155b8015611a3d575060d0546001600160a01b03828116911614155b611a945760405162461bcd60e51b815260206004820152602260248201527f434f4e544d494e543a20706f6f6c732063616e6e6f742063726561746520636f6044820152611b9d60f21b6064820152608401611046565b6000611a9f82613f9b565b905060cb54845182611ab1919061532c565b1115611aff5760405162461bcd60e51b815260206004820152601c60248201527f434f4e544d494e543a2072656163686564206d696e74206c696d6974000000006044820152606401611046565b835160c954604051630c75361360e31b8152600092916001600160a01b0316906363a9b09890611b339088906004016150e2565b60206040518083038186803b158015611b4b57600080fd5b505afa158015611b5f573d6000803e3d6000fd5b505050506040513d601f19601f82011682018060405250810190611b839190614f39565b611b8d9190615366565b90508060ce6000828254611ba1919061532c565b90915550819050611bb1846130d5565b1015611c0f5760405162461bcd60e51b815260206004820152602760248201527f434f4e544d494e543a2042616c616e636520746f6f206c6f7720666f7220637260448201526632b0ba34b7b71760c91b6064820152608401611046565b6000606460d65483611c219190615366565b611c2b9190615344565b60d954909150610100900460ff1615611cd75760ca54611c569085906001600160a01b031683613fcc565b60ca5460cf5460d9546040516388e5249f60e01b81526001600160a01b03938416936388e5249f93611ca09390821692620100009091049091169086906000904290600401615037565b600060405180830381600087803b158015611cba57600080fd5b505af1158015611cce573d6000803e3d6000fd5b50505050611cef565b60cf54611cef9085906001600160a01b031683613fcc565b6000606460d35484611d019190615366565b611d0b9190615344565b60d154909150611d269086906001600160a01b031683613fcc565b6000606460d45485611d389190615366565b611d429190615344565b60d95490915060ff1615611de95760ca54611d689087906001600160a01b031683613fcc565b60ca5460d05460d9546040516388e5249f60e01b81526001600160a01b03938416936388e5249f93611db29390821692620100009091049091169086906000904290600401615037565b600060405180830381600087803b158015611dcc57600080fd5b505af1158015611de0573d6000803e3d6000fd5b50505050611e01565b60d054611e019087906001600160a01b031683613fcc565b6000606460d55486611e139190615366565b611e1d9190615344565b9050611e29878261419a565b6000818385611e38888a615385565b611e429190615385565b611e4c9190615385565b611e569190615385565b90508015611e6957611e69883083613fcc565b60c95460405162a6998d60e31b81526001600160a01b0390911690630534cc6890611e9c908b908e908e90600401615068565b600060405180830381600087803b158015611eb657600080fd5b505af1158015611eca573d6000803e3d6000fd5b505050507f120c2f36321d80f09f9d26f68f1f49b72c1964e118aa788bb9611f47e10c7eac88604051611efd919061500a565b60405180910390a150505050505050505050565b3360008181526034602090815260408083206001600160a01b03871684529091528120549091906114c59082908690611f4b90879061532c565b613c9e565b60c95460405163ce6912a360e01b81526000916001600160a01b03169063ce6912a390611f819085906004016150e2565b60206040518083038186803b158015611f9957600080fd5b505afa158015611fad573d6000803e3d6000fd5b505050506040513d601f19601f820116820180604052508101906114cb9190614f39565b6001600160a01b039182166000908152609d6020908152604080832093909416825291909152205490565b6001600160a01b0381166000908152609960205260409020546120315760405162461bcd60e51b815260040161104690615130565b6001600160a01b0382166000908152609c60205260408120546040516370a0823160e01b81526001600160a01b038516906370a082319061207690309060040161500a565b60206040518083038186803b15801561208e57600080fd5b505afa1580156120a2573d6000803e3d6000fd5b505050506040513d601f19601f820116820180604052508101906120c69190614f39565b6120d0919061532c565b905060006120e383836116ed8787611fd1565b9050806121025760405162461bcd60e51b815260040161104690615176565b6001600160a01b038085166000908152609d602090815260408083209387168352929052908120805483929061213990849061532c565b90915550506001600160a01b0384166000908152609c60205260408120805483929061216690849061532c565b9091555061217790508484836141b2565b836001600160a01b03167f3be5b7a71e84ed12875d241991c70855ac5817d847039e17a9d895c1ceb0f18a84836040516121b292919061501e565b60405180910390a250505050565b60df54339060ff1615156001146122195760405162461bcd60e51b815260206004820152601960248201527f43534854414c4c3a20636173686f75742064697361626c6564000000000000006044820152606401611046565b6001600160a01b0381166122675760405162461bcd60e51b815260206004820152601560248201527443534854414c4c3a207a65726f206164647265737360581b6044820152606401611046565b6001600160a01b038116600090815260dd602052604090205460ff16156122d05760405162461bcd60e51b815260206004820152601c60248201527f43534854414c4c3a20626c61636b6c69737465642061646472657373000000006044820152606401611046565b60c9546040516330cd31af60e11b81526000916001600160a01b03169063619a635e9061230190859060040161500a565b60206040518083038186803b15801561231957600080fd5b505afa15801561232d573d6000803e3d6000fd5b505050506040513d601f19601f820116820180604052508101906123519190614f39565b9050600081116123a35760405162461bcd60e51b815260206004820152601960248201527f43534854414c4c3a20726577617264206e6f74207265616479000000000000006044820152606401611046565b60d8546000901561240c57606460d854836123be9190615366565b6123c89190615344565b60df5460d1549192506201000090046001600160a01b0390811691161461240c5760d15460df5461240c916001600160a01b03908116916201000090041684613c00565b6124168183615385565b60d154909250612430906001600160a01b03168484613c00565b60c95460405163d094fa8d60e01b81526001600160a01b039091169063d094fa8d9061246090869060040161500a565b602060405180830381600087803b15801561247a57600080fd5b505af115801561248e573d6000803e3d6000fd5b505050506040513d601f19601f820116820180604052508101906124b29190614f39565b507f564112c0ad2fbcae1bed83c58ed5d830128565d634cdc875bb02b065ad24234383604051611793919061500a565b6065546001600160a01b0316331461250c5760405162461bcd60e51b8152600401611046906151f8565b6001600160a01b0381166125325760405162461bcd60e51b815260040161104690615103565b60cf80546001600160a01b0319166001600160a01b0392909216919091179055565b600054610100900460ff1661256f5760005460ff1615612573565b303b155b6125d65760405162461bcd60e51b815260206004820152602e60248201527f496e697469616c697a61626c653a20636f6e747261637420697320616c72656160448201526d191e481a5b9a5d1a585b1a5e995960921b6064820152608401611046565b600054610100900460ff161580156125f8576000805461ffff19166101011790555b6000855111801561260a575060008451115b61264d5760405162461bcd60e51b815260206004820152601460248201527320a222291013102120a620a721a29022a92927a960611b6044820152606401611046565b612655614208565b612699604051806040016040528060078152602001663078426c6f636b60c81b81525060405180604001604052806003815260200162183c2160e91b815250614237565b6126a38787614268565b60006001600160a01b0316856001815181106126c1576126c161544a565b60200260200101516001600160a01b03161415801561270d575060006001600160a01b0316856002815181106126f9576126f961544a565b60200260200101516001600160a01b031614155b8015612746575060006001600160a01b0316856003815181106127325761273261544a565b60200260200101516001600160a01b031614155b801561277f575060006001600160a01b03168560048151811061276b5761276b61544a565b60200260200101516001600160a01b031614155b6127bd5760405162461bcd60e51b815260206004820152600f60248201526e1413d3d30816915493c81193d55391608a1b6044820152606401611046565b846001815181106127d0576127d061544a565b602002602001015160cf60006101000a8154816001600160a01b0302191690836001600160a01b03160217905550846002815181106128115761281161544a565b602002602001015160d260006101000a8154816001600160a01b0302191690836001600160a01b03160217905550846003815181106128525761285261544a565b602002602001015160d060006101000a8154816001600160a01b0302191690836001600160a01b03160217905550846004815181106128935761289361544a565b602090810291909101015160d180546001600160a01b0319166001600160a01b03909216918217905560df805462010000600160b01b031916620100009092029190911790558251600090849082906128ee576128ee61544a565b602002602001015111801561291d57506000836001815181106129135761291361544a565b6020026020010151115b801561294357506000836002815181106129395761293961544a565b6020026020010151115b8015612969575060008360038151811061295f5761295f61544a565b6020026020010151115b801561298f57506000836004815181106129855761298561544a565b6020026020010151115b6129cb5760405162461bcd60e51b815260206004820152600d60248201526c0c094811915154c81193d55391609a1b6044820152606401611046565b826000815181106129de576129de61544a565b602002602001015160d681905550826001815181106129ff576129ff61544a565b602002602001015160d48190555082600281518110612a2057612a2061544a565b602002602001015160d38190555082600381518110612a4157612a4161544a565b602002602001015160d58190555082600481518110612a6257612a6261544a565b602002602001015160d88190555060d45460d65460d55460d354612a86919061532c565b612a90919061532c565b612a9a919061532c565b60d7558351855114612ae55760405162461bcd60e51b815260206004820152601460248201527320a222291013102120a620a721a29022a92927a960611b6044820152606401611046565b60005b8551811015612b5257612b40868281518110612b0657612b0661544a565b6020026020010151868381518110612b2057612b2061544a565b6020026020010151670de0b6b3a7640000612b3b9190615366565b614299565b80612b4a81615403565b915050612ae8565b5060355469d3c21bcecceda100000014612ba65760405162461bcd60e51b81526020600482015260156024820152741515130814d5541413164811125191880c48135253605a1b6044820152606401611046565b60d98054606460cb55600a60cc5561ffff196001600160a01b038516620100000281166001600160b01b0319909216919091176101001790915560df805461010192169190911790558015612c01576000805461ff00191690555b50505050505050565b6065546001600160a01b03163314612c345760405162461bcd60e51b8152600401611046906151f8565b6001600160a01b038116612c5a5760405162461bcd60e51b815260040161104690615103565b60df80546001600160a01b03909216620100000262010000600160b01b0319909216919091179055565b60df54339060ff161515600114612cd65760405162461bcd60e51b815260206004820152601660248201527510d4d2150e8810d85cda1bdd5d08111a5cd8589b195960521b6044820152606401611046565b6001600160a01b038116612d215760405162461bcd60e51b8152602060048201526012602482015271435348543a207a65726f206164647265737360701b6044820152606401611046565b6001600160a01b038116600090815260dd602052604090205460ff1615612d7e5760405162461bcd60e51b815260206004820152601160248201527010d4d2150e88189b1858dadb1a5cdd1959607a1b6044820152606401611046565b60c9546040516329b8573160e21b81526000916001600160a01b03169063a6e15cc490612db1908590879060040161501e565b60206040518083038186803b158015612dc957600080fd5b505afa158015612ddd573d6000803e3d6000fd5b505050506040513d601f19601f82011682018060405250810190612e019190614f39565b905060008111612e4c5760405162461bcd60e51b8152602060048201526016602482015275435348543a20726577617264206e6f7420726561647960501b6044820152606401611046565b60d85460009015612eb557606460d85483612e679190615366565b612e719190615344565b60df5460d1549192506201000090046001600160a01b03908116911614612eb55760d15460df54612eb5916001600160a01b03908116916201000090041684613c00565b612ebf8183615385565b60d154909250612ed9906001600160a01b03168484613c00565b60c95460405163611015b360e11b81526001600160a01b039091169063c2202b6690612f0b908690889060040161501e565b602060405180830381600087803b158015612f2557600080fd5b505af1158015612f39573d6000803e3d6000fd5b505050506040513d601f19601f82011682018060405250810190612f5d9190614f39565b507f39f6d68d140e552a327d43ef814649947d78e76743e169e4f00d61b14f2f846d8385604051612f8f92919061501e565b60405180910390a150505050565b6065546001600160a01b03163314612fc75760405162461bcd60e51b8152600401611046906151f8565b60648111156130185760405162461bcd60e51b815260206004820152601c60248201527f464545533a20636173686f757420657863656564696e672031303025000000006044820152606401611046565b60d855565b60c9546060906001600160a01b03166377ec78263361160b565b600081600281111561304b5761304b615434565b60c95460405163ce6912a360e01b81526001600160a01b039091169063ce6912a39061307b9086906004016150e2565b60206040518083038186803b15801561309357600080fd5b505afa1580156130a7573d6000803e3d6000fd5b505050506040513d601f19601f820116820180604052508101906130cb9190614f39565b6114cb9190615366565b6001600160a01b031660009081526033602052604090205490565b6065546001600160a01b0316331461311a5760405162461bcd60e51b8152600401611046906151f8565b6131246000614378565b565b6065546001600160a01b031633146131505760405162461bcd60e51b8152600401611046906151f8565b6001600160a01b0381166131765760405162461bcd60e51b815260040161104690615103565b60d080546001600160a01b0319166001600160a01b0392909216919091179055565b60c9546060906001600160a01b0316638bf145143361160b565b6065546001600160a01b031633146131dc5760405162461bcd60e51b8152600401611046906151f8565b60d980549115156101000261ff0019909216919091179055565b60c9546060906001600160a01b031663f743f3193361160b565b6000609b82815481106132255761322561544a565b6000918252602090912001546001600160a01b031692915050565b6065546001600160a01b0316331461326a5760405162461bcd60e51b8152600401611046906151f8565b6001600160a01b0381166132b55760405162461bcd60e51b81526020600482015260126024820152712722abafa1a9269d103d32b9379030b2323960711b6044820152606401611046565b60c980546001600160a01b0319166001600160a01b0392909216919091179055565b6065546001600160a01b031633146133015760405162461bcd60e51b8152600401611046906151f8565b60008160d45460d65460d354613317919061532c565b613321919061532c565b61332b919061532c565b9050606481111561334e5760405162461bcd60e51b81526004016110469061522d565b60d59190915560d755565b60c9546060906001600160a01b03166351bf120c3361160b565b6065546001600160a01b0316331461339d5760405162461bcd60e51b8152600401611046906151f8565b60df80549115156101000261ff0019909216919091179055565b606060378054611143906153c8565b6065546001600160a01b031633146133f05760405162461bcd60e51b8152600401611046906151f8565b60008160d65460d55460d354613406919061532c565b613410919061532c565b61341a919061532c565b9050606481111561343d5760405162461bcd60e51b81526004016110469061522d565b60d49190915560d755565b60c9546060906001600160a01b031663367fd0743361160b565b6040516370a0823160e01b81523390859084906001600160a01b038316906370a082319061349490869060040161500a565b60206040518083038186803b1580156134ac57600080fd5b505afa1580156134c0573d6000803e3d6000fd5b505050506040513d601f19601f820116820180604052508101906134e49190614f39565b10156135025760405162461bcd60e51b8152600401611046906151c1565b60ca546040516323b872dd60e01b81526001600160a01b038481166004830152918216602482015260448101869052908216906323b872dd90606401602060405180830381600087803b15801561355857600080fd5b505af115801561356c573d6000803e3d6000fd5b505050506040513d601f19601f820116820180604052508101906135909190614e71565b5060ca546001600160a01b03166374cefd8a838888886113db894261532c565b6065546001600160a01b031633146135da5760405162461bcd60e51b8152600401611046906151f8565b60d9805460ff1916911515919091179055565b3360008181526034602090815260408083206001600160a01b0387168452909152812054909190838110156136725760405162461bcd60e51b815260206004820152602560248201527f45524332303a2064656372656173656420616c6c6f77616e63652062656c6f77604482015264207a65726f60d81b6064820152608401611046565b61367f8286868403613c9e565b506001949350505050565b6000336114c5818585613c00565b6065546001600160a01b031633146136c25760405162461bcd60e51b8152600401611046906151f8565b60d980546001600160a01b03909216620100000262010000600160b01b0319909216919091179055565b6065546001600160a01b031633146137165760405162461bcd60e51b8152600401611046906151f8565b60df805460ff1916911515919091179055565b6065546001600160a01b031633146137535760405162461bcd60e51b8152600401611046906151f8565b6001600160a01b0381166137a25760405162461bcd60e51b81526020600482015260166024820152752722abafa62927aaaa22a91d103d32b9379030b2323960511b6044820152606401611046565b60ca80546001600160a01b0319166001600160a01b0392909216919091179055565b6065546001600160a01b031633146137ee5760405162461bcd60e51b8152600401611046906151f8565b6001600160a01b0381166138145760405162461bcd60e51b815260040161104690615103565b60d180546001600160a01b0319166001600160a01b0392909216919091179055565b6065546001600160a01b031633146138605760405162461bcd60e51b8152600401611046906151f8565b613869306130d5565b8111156138c95760405162461bcd60e51b815260206004820152602860248201527f534156455f4d495353454e543a20746f6b656e732065786365656420616464726044820152672062616c616e636560c01b6064820152608401611046565b6001600160a01b03821661391f5760405162461bcd60e51b815260206004820152601a60248201527f534156455f4d495353454e543a207a65726f5f616464726573730000000000006044820152606401611046565b61392a308383613c00565b5050565b600081600281111561394257613942615434565b60c95460405163ce6912a360e01b81526001600160a01b039091169063ce6912a3906139729086906004016150e2565b60206040518083038186803b15801561398a57600080fd5b505afa15801561399e573d6000803e3d6000fd5b505050506040513d601f19601f820116820180604052508101906139c29190614f39565b6114cb919061532c565b6001600160a01b03918216600090815260346020908152604080832093909416825291909152205490565b60c9546060906001600160a01b03166328cceb243361160b565b6065546001600160a01b03163314613a3b5760405162461bcd60e51b8152600401611046906151f8565b6001600160a01b038116613a615760405162461bcd60e51b815260040161104690615103565b60d280546001600160a01b0319166001600160a01b0392909216919091179055565b3383613a8e826130d5565b1015613aac5760405162461bcd60e51b8152600401611046906151c1565b60ca54613ac49082906001600160a01b031686613c00565b60ca546001600160a01b03166388e5249f82878787611086884261532c565b6065546001600160a01b03163314613b0d5760405162461bcd60e51b8152600401611046906151f8565b6001600160a01b038116613b725760405162461bcd60e51b815260206004820152602660248201527f4f776e61626c653a206e6577206f776e657220697320746865207a65726f206160448201526564647265737360d01b6064820152608401611046565b613b7b81614378565b50565b6065546001600160a01b03163314613ba85760405162461bcd60e51b8152600401611046906151f8565b60008160d45460d55460d354613bbe919061532c565b613bc8919061532c565b613bd2919061532c565b90506064811115613bf55760405162461bcd60e51b81526004016110469061522d565b60d69190915560d755565b6001600160a01b038316600090815260dd602052604090205460ff16158015613c4257506001600160a01b038216600090815260dd602052604090205460ff16155b613c8e5760405162461bcd60e51b815260206004820152601a60248201527f45524332303a20426c61636b6c697374656420616464726573730000000000006044820152606401611046565b613c99838383613fcc565b505050565b6001600160a01b038316613d005760405162461bcd60e51b8152602060048201526024808201527f45524332303a20617070726f76652066726f6d20746865207a65726f206164646044820152637265737360e01b6064820152608401611046565b6001600160a01b038216613d615760405162461bcd60e51b815260206004820152602260248201527f45524332303a20617070726f766520746f20746865207a65726f206164647265604482015261737360f01b6064820152608401611046565b6001600160a01b0383811660008181526034602090815260408083209487168084529482529182902085905590518481527f8c5be1e5ebec7d5bd14f71427d1e84f3dd0314c0f7b2291e5b200ac8c7c3b925910160405180910390a3505050565b6097546001600160a01b03841660009081526099602052604081205490918391613dec9086615366565b613df69190615344565b613e009190615385565b949350505050565b80471015613e585760405162461bcd60e51b815260206004820152601d60248201527f416464726573733a20696e73756666696369656e742062616c616e63650000006044820152606401611046565b6000826001600160a01b03168260405160006040518083038185875af1925050503d8060008114613ea5576040519150601f19603f3d011682016040523d82523d6000602084013e613eaa565b606091505b5050905080613c995760405162461bcd60e51b815260206004820152603a60248201527f416464726573733a20756e61626c6520746f2073656e642076616c75652c207260448201527f6563697069656e74206d617920686176652072657665727465640000000000006064820152608401611046565b6000613f2d84846139cc565b90506000198114613f955781811015613f885760405162461bcd60e51b815260206004820152601d60248201527f45524332303a20696e73756666696369656e7420616c6c6f77616e63650000006044820152606401611046565b613f958484848403613c9e565b50505050565b60c9546040516344fea1b960e01b81526000916001600160a01b0316906344fea1b990611f8190859060040161500a565b6001600160a01b0383166140305760405162461bcd60e51b815260206004820152602560248201527f45524332303a207472616e736665722066726f6d20746865207a65726f206164604482015264647265737360d81b6064820152608401611046565b6001600160a01b0382166140925760405162461bcd60e51b815260206004820152602360248201527f45524332303a207472616e7366657220746f20746865207a65726f206164647260448201526265737360e81b6064820152608401611046565b6001600160a01b0383166000908152603360205260409020548181101561410a5760405162461bcd60e51b815260206004820152602660248201527f45524332303a207472616e7366657220616d6f756e7420657863656564732062604482015265616c616e636560d01b6064820152608401611046565b6001600160a01b0380851660009081526033602052604080822085850390559185168152908120805484929061414190849061532c565b92505081905550826001600160a01b0316846001600160a01b03167fddf252ad1be2c89b69c2b068fc378daa952ba7f163c4a11628f55a4df523b3ef8460405161418d91815260200190565b60405180910390a3613f95565b60d25461392a9083906001600160a01b031683613fcc565b613c998363a9059cbb60e01b84846040516024016141d192919061501e565b60408051601f198184030181529190526020810180516001600160e01b03166001600160e01b0319909316929092179091526143ca565b600054610100900460ff1661422f5760405162461bcd60e51b815260040161104690615264565b61312461449c565b600054610100900460ff1661425e5760405162461bcd60e51b815260040161104690615264565b61392a82826144cc565b600054610100900460ff1661428f5760405162461bcd60e51b815260040161104690615264565b61392a828261451a565b6001600160a01b0382166142ef5760405162461bcd60e51b815260206004820152601f60248201527f45524332303a206d696e7420746f20746865207a65726f2061646472657373006044820152606401611046565b8060356000828254614301919061532c565b90915550506001600160a01b0382166000908152603360205260408120805483929061432e90849061532c565b90915550506040518181526001600160a01b038316906000907fddf252ad1be2c89b69c2b068fc378daa952ba7f163c4a11628f55a4df523b3ef9060200160405180910390a35050565b606580546001600160a01b038381166001600160a01b0319831681179093556040519116919082907f8be0079c531659141344cd1fd0a4f28419497f9722a3daafe3b4186f6b6457e090600090a35050565b600061441f826040518060400160405280602081526020017f5361666545524332303a206c6f772d6c6576656c2063616c6c206661696c6564815250856001600160a01b03166146589092919063ffffffff16565b805190915015613c99578080602001905181019061443d9190614e71565b613c995760405162461bcd60e51b815260206004820152602a60248201527f5361666545524332303a204552433230206f7065726174696f6e20646964206e6044820152691bdd081cdd58d8d9595960b21b6064820152608401611046565b600054610100900460ff166144c35760405162461bcd60e51b815260040161104690615264565b61312433614378565b600054610100900460ff166144f35760405162461bcd60e51b815260040161104690615264565b81516145069060369060208501906149af565b508051613c999060379060208401906149af565b600054610100900460ff166145415760405162461bcd60e51b815260040161104690615264565b80518251146145ad5760405162461bcd60e51b815260206004820152603260248201527f5061796d656e7453706c69747465723a2070617965657320616e6420736861726044820152710cae640d8cadccee8d040dad2e6dac2e8c6d60731b6064820152608401611046565b60008251116145fe5760405162461bcd60e51b815260206004820152601a60248201527f5061796d656e7453706c69747465723a206e6f207061796565730000000000006044820152606401611046565b60005b8251811015613c995761464683828151811061461f5761461f61544a565b60200260200101518383815181106146395761463961544a565b6020026020010151614667565b8061465081615403565b915050614601565b6060613e008484600085614845565b6001600160a01b0382166146d25760405162461bcd60e51b815260206004820152602c60248201527f5061796d656e7453706c69747465723a206163636f756e74206973207468652060448201526b7a65726f206164647265737360a01b6064820152608401611046565b600081116147225760405162461bcd60e51b815260206004820152601d60248201527f5061796d656e7453706c69747465723a207368617265732061726520300000006044820152606401611046565b6001600160a01b0382166000908152609960205260409020541561479c5760405162461bcd60e51b815260206004820152602b60248201527f5061796d656e7453706c69747465723a206163636f756e7420616c726561647960448201526a206861732073686172657360a81b6064820152608401611046565b609b8054600181019091557fbba9db4cdbea0a37c207bbb83e20f828cd4441c49891101dc94fd20dc8efc3490180546001600160a01b0319166001600160a01b038416908117909155600090815260996020526040902081905560975461480490829061532c565b6097556040517f40c340f65e17194d14ddddb073d3c9f888e3cb52b5aae0c6c7706b4fbc905fac90614839908490849061501e565b60405180910390a15050565b6060824710156148a65760405162461bcd60e51b815260206004820152602660248201527f416464726573733a20696e73756666696369656e742062616c616e636520666f6044820152651c8818d85b1b60d21b6064820152608401611046565b6001600160a01b0385163b6148fd5760405162461bcd60e51b815260206004820152601d60248201527f416464726573733a2063616c6c20746f206e6f6e2d636f6e74726163740000006044820152606401611046565b600080866001600160a01b031685876040516149199190614fee565b60006040518083038185875af1925050503d8060008114614956576040519150601f19603f3d011682016040523d82523d6000602084013e61495b565b606091505b509150915061496b828286614976565b979650505050505050565b606083156149855750816117bf565b8251156149955782518084602001fd5b8160405162461bcd60e51b815260040161104691906150f0565b8280546149bb906153c8565b90600052602060002090601f0160209004810192826149dd5760008555614a23565b82601f106149f657805160ff1916838001178555614a23565b82800160010185558215614a23579182015b82811115614a23578251825591602001919060010190614a08565b50614a2f929150614a33565b5090565b5b80821115614a2f5760008155600101614a34565b8035614a5381615476565b919050565b600082601f830112614a6957600080fd5b81356020614a7e614a79836152e0565b6152af565b80838252828201915082860187848660051b8901011115614a9e57600080fd5b60005b85811015614ac6578135614ab481615476565b84529284019290840190600101614aa1565b5090979650505050505050565b600082601f830112614ae457600080fd5b81356020614af4614a79836152e0565b80838252828201915082860187848660051b8901011115614b1457600080fd5b60005b85811015614ac657813584529284019290840190600101614b17565b803560038110614a5357600080fd5b600060208284031215614b5457600080fd5b81356117bf81615476565b60008060408385031215614b7257600080fd5b8235614b7d81615476565b91506020830135614b8d81615476565b809150509250929050565b600080600060608486031215614bad57600080fd5b8335614bb881615476565b92506020840135614bc881615476565b929592945050506040919091013590565b60008060408385031215614bec57600080fd5b8235614bf781615476565b91506020830135614b8d8161548b565b60008060408385031215614c1a57600080fd5b8235614c2581615476565b946020939093013593505050565b60008060008060808587031215614c4957600080fd5b8435614c5481615476565b966020860135965060408601359560600135945092505050565b60008060008060008060c08789031215614c8757600080fd5b863567ffffffffffffffff80821115614c9f57600080fd5b614cab8a838b01614a58565b97506020890135915080821115614cc157600080fd5b614ccd8a838b01614ad3565b96506040890135915080821115614ce357600080fd5b614cef8a838b01614a58565b95506060890135915080821115614d0557600080fd5b614d118a838b01614ad3565b94506080890135915080821115614d2757600080fd5b50614d3489828a01614ad3565b925050614d4360a08801614a48565b90509295509295509295565b6000806040808486031215614d6357600080fd5b833567ffffffffffffffff80821115614d7b57600080fd5b818601915086601f830112614d8f57600080fd5b81356020614d9f614a79836152e0565b8083825282820191508286018b848660051b8901011115614dbf57600080fd5b60005b85811015614e3457813587811115614dd957600080fd5b8801603f81018e13614dea57600080fd5b85810135614dfa614a7982615304565b8181528f8c838501011115614e0e57600080fd5b818c84018983013760009181018801919091528552509284019290840190600101614dc2565b50508098505050614e46818901614b33565b955050505050509250929050565b600060208284031215614e6657600080fd5b81356117bf8161548b565b600060208284031215614e8357600080fd5b81516117bf8161548b565b600060208284031215614ea057600080fd5b6117bf82614b33565b600060208284031215614ebb57600080fd5b815167ffffffffffffffff811115614ed257600080fd5b8201601f81018413614ee357600080fd5b8051614ef1614a7982615304565b818152856020838501011115614f0657600080fd5b614f1782602083016020860161539c565b95945050505050565b600060208284031215614f3257600080fd5b5035919050565b600060208284031215614f4b57600080fd5b5051919050565b60008060408385031215614f6557600080fd5b50508035926020909101359150565b600080600060608486031215614f8957600080fd5b505081359360208301359350604090920135919050565b60038110614fbe57634e487b7160e01b600052602160045260246000fd5b9052565b60008151808452614fda81602086016020860161539c565b601f01601f19169290920160200192915050565b6000825161500081846020870161539c565b9190910192915050565b6001600160a01b0391909116815260200190565b6001600160a01b03929092168252602082015260400190565b6001600160a01b03958616815293909416602084015260408301919091526060820152608081019190915260a00190565b60006060820160018060a01b0386168352602060608185015281865180845260808601915060808160051b870101935082880160005b828110156150cc57607f198887030184526150ba868351614fc2565b9550928401929084019060010161509e565b505050505080915050613e006040830184614fa0565b602081016114cb8284614fa0565b6020815260006117bf6020830184614fc2565b6020808252601390820152722aa8222faba0a6261d103d32b9379030b2323960691b604082015260600190565b60208082526026908201527f5061796d656e7453706c69747465723a206163636f756e7420686173206e6f2060408201526573686172657360d01b606082015260800190565b6020808252602b908201527f5061796d656e7453706c69747465723a206163636f756e74206973206e6f742060408201526a191d59481c185e5b595b9d60aa1b606082015260800190565b6020808252601a908201527f535741503a20696e73756666696369656e742062616c616e6365000000000000604082015260600190565b6020808252818101527f4f776e61626c653a2063616c6c6572206973206e6f7420746865206f776e6572604082015260600190565b6020808252601a908201527f464545533a20746f74616c20657863656564696e672031303025000000000000604082015260600190565b6020808252602b908201527f496e697469616c697a61626c653a20636f6e7472616374206973206e6f74206960408201526a6e697469616c697a696e6760a81b606082015260800190565b604051601f8201601f1916810167ffffffffffffffff811182821017156152d8576152d8615460565b604052919050565b600067ffffffffffffffff8211156152fa576152fa615460565b5060051b60200190565b600067ffffffffffffffff82111561531e5761531e615460565b50601f01601f191660200190565b6000821982111561533f5761533f61541e565b500190565b60008261536157634e487b7160e01b600052601260045260246000fd5b500490565b60008160001904831182151516156153805761538061541e565b500290565b6000828210156153975761539761541e565b500390565b60005b838110156153b757818101518382015260200161539f565b83811115613f955750506000910152565b600181811c908216806153dc57607f821691505b602082108114156153fd57634e487b7160e01b600052602260045260246000fd5b50919050565b60006000198214156154175761541761541e565b5060010190565b634e487b7160e01b600052601160045260246000fd5b634e487b7160e01b600052602160045260246000fd5b634e487b7160e01b600052603260045260246000fd5b634e487b7160e01b600052604160045260246000fd5b6001600160a01b0381168114613b7b57600080fd5b8015158114613b7b57600080fdfea164736f6c6343000807000a",
  "devdoc": {
    "kind": "dev",
    "methods": {
      "allowance(address,address)": {
        "details": "See {IERC20-allowance}."
      },
      "approve(address,uint256)": {
        "details": "See {IERC20-approve}. NOTE: If `amount` is the maximum `uint256`, the allowance is not updated on `transferFrom`. This is semantically equivalent to an infinite approval. Requirements: - `spender` cannot be the zero address."
      },
      "balanceOf(address)": {
        "details": "See {IERC20-balanceOf}."
      },
      "decimals()": {
        "details": "Returns the number of decimals used to get its user representation. For example, if `decimals` equals `2`, a balance of `505` tokens should be displayed to a user as `5.05` (`505 / 10 ** 2`). Tokens usually opt for a value of 18, imitating the relationship between Ether and Wei. This is the value {ERC20} uses, unless this function is overridden; NOTE: This information is only used for _display_ purposes: it in no way affects any of the arithmetic of the contract, including {IERC20-balanceOf} and {IERC20-transfer}."
      },
      "decreaseAllowance(address,uint256)": {
        "details": "Atomically decreases the allowance granted to `spender` by the caller. This is an alternative to {approve} that can be used as a mitigation for problems described in {IERC20-approve}. Emits an {Approval} event indicating the updated allowance. Requirements: - `spender` cannot be the zero address. - `spender` must have allowance for the caller of at least `subtractedValue`."
      },
      "increaseAllowance(address,uint256)": {
        "details": "Atomically increases the allowance granted to `spender` by the caller. This is an alternative to {approve} that can be used as a mitigation for problems described in {IERC20-approve}. Emits an {Approval} event indicating the updated allowance. Requirements: - `spender` cannot be the zero address."
      },
      "name()": {
        "details": "Returns the name of the token."
      },
      "owner()": {
        "details": "Returns the address of the current owner."
      },
      "payee(uint256)": {
        "details": "Getter for the address of the payee number `index`."
      },
      "release(address)": {
        "details": "Triggers a transfer to `account` of the amount of Ether they are owed, according to their percentage of the total shares and their previous withdrawals."
      },
      "release(address,address)": {
        "details": "Triggers a transfer to `account` of the amount of `token` tokens they are owed, according to their percentage of the total shares and their previous withdrawals. `token` must be the address of an IERC20 contract."
      },
      "released(address)": {
        "details": "Getter for the amount of Ether already released to a payee."
      },
      "released(address,address)": {
        "details": "Getter for the amount of `token` tokens already released to a payee. `token` should be the address of an IERC20 contract."
      },
      "renounceOwnership()": {
        "details": "Leaves the contract without owner. It will not be possible to call `onlyOwner` functions anymore. Can only be called by the current owner. NOTE: Renouncing ownership will leave the contract without an owner, thereby removing any functionality that is only available to the owner."
      },
      "shares(address)": {
        "details": "Getter for the amount of shares held by an account."
      },
      "symbol()": {
        "details": "Returns the symbol of the token, usually a shorter version of the name."
      },
      "totalReleased()": {
        "details": "Getter for the total amount of Ether already released."
      },
      "totalReleased(address)": {
        "details": "Getter for the total amount of `token` already released. `token` should be the address of an IERC20 contract."
      },
      "totalShares()": {
        "details": "Getter for the total shares held by payees."
      },
      "totalSupply()": {
        "details": "See {IERC20-totalSupply}."
      },
      "transfer(address,uint256)": {
        "details": "See {IERC20-transfer}. Requirements: - `to` cannot be the zero address. - the caller must have a balance of at least `amount`."
      },
      "transferFrom(address,address,uint256)": {
        "details": "See {IERC20-transferFrom}. Emits an {Approval} event indicating the updated allowance. This is not required by the EIP. See the note at the beginning of {ERC20}. NOTE: Does not update the allowance if the current allowance is the maximum `uint256`. Requirements: - `from` and `to` cannot be the zero address. - `from` must have a balance of at least `amount`. - the caller must have allowance for ``from``'s tokens of at least `amount`."
      },
      "transferOwnership(address)": {
        "details": "Transfers ownership of the contract to a new account (`newOwner`). Can only be called by the current owner."
      }
    },
    "version": 1
  },
  "userdoc": {
    "kind": "user",
    "methods": {},
    "version": 1
  },
  "storageLayout": {
    "storage": [
      {
        "astId": 598,
        "contract": "contracts/ZeroXBlock.sol:ZeroXBlock",
        "label": "_initialized",
        "offset": 0,
        "slot": "0",
        "type": "t_bool"
      },
      {
        "astId": 601,
        "contract": "contracts/ZeroXBlock.sol:ZeroXBlock",
        "label": "_initializing",
        "offset": 1,
        "slot": "0",
        "type": "t_bool"
      },
      {
        "astId": 1889,
        "contract": "contracts/ZeroXBlock.sol:ZeroXBlock",
        "label": "__gap",
        "offset": 0,
        "slot": "1",
        "type": "t_array(t_uint256)50_storage"
      },
      {
        "astId": 684,
        "contract": "contracts/ZeroXBlock.sol:ZeroXBlock",
        "label": "_balances",
        "offset": 0,
        "slot": "51",
        "type": "t_mapping(t_address,t_uint256)"
      },
      {
        "astId": 690,
        "contract": "contracts/ZeroXBlock.sol:ZeroXBlock",
        "label": "_allowances",
        "offset": 0,
        "slot": "52",
        "type": "t_mapping(t_address,t_mapping(t_address,t_uint256))"
      },
      {
        "astId": 692,
        "contract": "contracts/ZeroXBlock.sol:ZeroXBlock",
        "label": "_totalSupply",
        "offset": 0,
        "slot": "53",
        "type": "t_uint256"
      },
      {
        "astId": 694,
        "contract": "contracts/ZeroXBlock.sol:ZeroXBlock",
        "label": "_name",
        "offset": 0,
        "slot": "54",
        "type": "t_string_storage"
      },
      {
        "astId": 696,
        "contract": "contracts/ZeroXBlock.sol:ZeroXBlock",
        "label": "_symbol",
        "offset": 0,
        "slot": "55",
        "type": "t_string_storage"
      },
      {
        "astId": 1277,
        "contract": "contracts/ZeroXBlock.sol:ZeroXBlock",
        "label": "__gap",
        "offset": 0,
        "slot": "56",
        "type": "t_array(t_uint256)45_storage"
      },
      {
        "astId": 10,
        "contract": "contracts/ZeroXBlock.sol:ZeroXBlock",
        "label": "_owner",
        "offset": 0,
        "slot": "101",
        "type": "t_address"
      },
      {
        "astId": 122,
        "contract": "contracts/ZeroXBlock.sol:ZeroXBlock",
        "label": "__gap",
        "offset": 0,
        "slot": "102",
        "type": "t_array(t_uint256)49_storage"
      },
      {
        "astId": 163,
        "contract": "contracts/ZeroXBlock.sol:ZeroXBlock",
        "label": "_totalShares",
        "offset": 0,
        "slot": "151",
        "type": "t_uint256"
      },
      {
        "astId": 165,
        "contract": "contracts/ZeroXBlock.sol:ZeroXBlock",
        "label": "_totalReleased",
        "offset": 0,
        "slot": "152",
        "type": "t_uint256"
      },
      {
        "astId": 169,
        "contract": "contracts/ZeroXBlock.sol:ZeroXBlock",
        "label": "_shares",
        "offset": 0,
        "slot": "153",
        "type": "t_mapping(t_address,t_uint256)"
      },
      {
        "astId": 173,
        "contract": "contracts/ZeroXBlock.sol:ZeroXBlock",
        "label": "_released",
        "offset": 0,
        "slot": "154",
        "type": "t_mapping(t_address,t_uint256)"
      },
      {
        "astId": 176,
        "contract": "contracts/ZeroXBlock.sol:ZeroXBlock",
        "label": "_payees",
        "offset": 0,
        "slot": "155",
        "type": "t_array(t_address)dyn_storage"
      },
      {
        "astId": 181,
        "contract": "contracts/ZeroXBlock.sol:ZeroXBlock",
        "label": "_erc20TotalReleased",
        "offset": 0,
        "slot": "156",
        "type": "t_mapping(t_contract(IERC20Upgradeable)1356,t_uint256)"
      },
      {
        "astId": 188,
        "contract": "contracts/ZeroXBlock.sol:ZeroXBlock",
        "label": "_erc20Released",
        "offset": 0,
        "slot": "157",
        "type": "t_mapping(t_contract(IERC20Upgradeable)1356,t_mapping(t_address,t_uint256))"
      },
      {
        "astId": 590,
        "contract": "contracts/ZeroXBlock.sol:ZeroXBlock",
        "label": "__gap",
        "offset": 0,
        "slot": "158",
        "type": "t_array(t_uint256)43_storage"
      },
      {
        "astId": 2584,
        "contract": "contracts/ZeroXBlock.sol:ZeroXBlock",
        "label": "_crm",
        "offset": 0,
        "slot": "201",
        "type": "t_contract(CONTRewardManagement)6389"
      },
      {
        "astId": 2587,
        "contract": "contracts/ZeroXBlock.sol:ZeroXBlock",
        "label": "_liqRouter",
        "offset": 0,
        "slot": "202",
        "type": "t_contract(LiquidityRouter)7645"
      },
      {
        "astId": 2592,
        "contract": "contracts/ZeroXBlock.sol:ZeroXBlock",
        "label": "ownedContsLimit",
        "offset": 0,
        "slot": "203",
        "type": "t_uint256"
      },
      {
        "astId": 2594,
        "contract": "contracts/ZeroXBlock.sol:ZeroXBlock",
        "label": "mintContLimit",
        "offset": 0,
        "slot": "204",
        "type": "t_uint256"
      },
      {
        "astId": 2596,
        "contract": "contracts/ZeroXBlock.sol:ZeroXBlock",
        "label": "uniswapV2Pair",
        "offset": 0,
        "slot": "205",
        "type": "t_address"
      },
      {
        "astId": 2598,
        "contract": "contracts/ZeroXBlock.sol:ZeroXBlock",
        "label": "totalTokensPaidForMinting",
        "offset": 0,
        "slot": "206",
        "type": "t_uint256"
      },
      {
        "astId": 2600,
        "contract": "contracts/ZeroXBlock.sol:ZeroXBlock",
        "label": "developmentFundPool",
        "offset": 0,
        "slot": "207",
        "type": "t_address"
      },
      {
        "astId": 2602,
        "contract": "contracts/ZeroXBlock.sol:ZeroXBlock",
        "label": "treasuryPool",
        "offset": 0,
        "slot": "208",
        "type": "t_address"
      },
      {
        "astId": 2604,
        "contract": "contracts/ZeroXBlock.sol:ZeroXBlock",
        "label": "rewardsPool",
        "offset": 0,
        "slot": "209",
        "type": "t_address"
      },
      {
        "astId": 2606,
        "contract": "contracts/ZeroXBlock.sol:ZeroXBlock",
        "label": "liquidityPool",
        "offset": 0,
        "slot": "210",
        "type": "t_address"
      },
      {
        "astId": 2608,
        "contract": "contracts/ZeroXBlock.sol:ZeroXBlock",
        "label": "rewardsFee",
        "offset": 0,
        "slot": "211",
        "type": "t_uint256"
      },
      {
        "astId": 2610,
        "contract": "contracts/ZeroXBlock.sol:ZeroXBlock",
        "label": "treasuryFee",
        "offset": 0,
        "slot": "212",
        "type": "t_uint256"
      },
      {
        "astId": 2612,
        "contract": "contracts/ZeroXBlock.sol:ZeroXBlock",
        "label": "liquidityPoolFee",
        "offset": 0,
        "slot": "213",
        "type": "t_uint256"
      },
      {
        "astId": 2614,
        "contract": "contracts/ZeroXBlock.sol:ZeroXBlock",
        "label": "developmentFee",
        "offset": 0,
        "slot": "214",
        "type": "t_uint256"
      },
      {
        "astId": 2616,
        "contract": "contracts/ZeroXBlock.sol:ZeroXBlock",
        "label": "totalFees",
        "offset": 0,
        "slot": "215",
        "type": "t_uint256"
      },
      {
        "astId": 2618,
        "contract": "contracts/ZeroXBlock.sol:ZeroXBlock",
        "label": "cashoutFee",
        "offset": 0,
        "slot": "216",
        "type": "t_uint256"
      },
      {
        "astId": 2620,
        "contract": "contracts/ZeroXBlock.sol:ZeroXBlock",
        "label": "enableAutoSwapTreasury",
        "offset": 0,
        "slot": "217",
        "type": "t_bool"
      },
      {
        "astId": 2622,
        "contract": "contracts/ZeroXBlock.sol:ZeroXBlock",
        "label": "enableAutoSwapDevFund",
        "offset": 1,
        "slot": "217",
        "type": "t_bool"
      },
      {
        "astId": 2624,
        "contract": "contracts/ZeroXBlock.sol:ZeroXBlock",
        "label": "usdcToken",
        "offset": 2,
        "slot": "217",
        "type": "t_address"
      },
      {
        "astId": 2626,
        "contract": "contracts/ZeroXBlock.sol:ZeroXBlock",
        "label": "antiBotEnabled",
        "offset": 22,
        "slot": "217",
        "type": "t_bool"
      },
      {
        "astId": 2628,
        "contract": "contracts/ZeroXBlock.sol:ZeroXBlock",
        "label": "launchBuyLimit",
        "offset": 0,
        "slot": "218",
        "type": "t_uint256"
      },
      {
        "astId": 2630,
        "contract": "contracts/ZeroXBlock.sol:ZeroXBlock",
        "label": "launchBuyTimeout",
        "offset": 0,
        "slot": "219",
        "type": "t_uint256"
      },
      {
        "astId": 2634,
        "contract": "contracts/ZeroXBlock.sol:ZeroXBlock",
        "label": "_lastBuyOnLaunch",
        "offset": 0,
        "slot": "220",
        "type": "t_mapping(t_address,t_uint256)"
      },
      {
        "astId": 2638,
        "contract": "contracts/ZeroXBlock.sol:ZeroXBlock",
        "label": "_isBlacklisted",
        "offset": 0,
        "slot": "221",
        "type": "t_mapping(t_address,t_bool)"
      },
      {
        "astId": 2642,
        "contract": "contracts/ZeroXBlock.sol:ZeroXBlock",
        "label": "automatedMarketMakerPairs",
        "offset": 0,
        "slot": "222",
        "type": "t_mapping(t_address,t_bool)"
      },
      {
        "astId": 2644,
        "contract": "contracts/ZeroXBlock.sol:ZeroXBlock",
        "label": "enableCashout",
        "offset": 0,
        "slot": "223",
        "type": "t_bool"
      },
      {
        "astId": 2646,
        "contract": "contracts/ZeroXBlock.sol:ZeroXBlock",
        "label": "enableMintConts",
        "offset": 1,
        "slot": "223",
        "type": "t_bool"
      },
      {
        "astId": 2648,
        "contract": "contracts/ZeroXBlock.sol:ZeroXBlock",
        "label": "cashoutTaxPool",
        "offset": 2,
        "slot": "223",
        "type": "t_address"
      }
    ],
    "types": {
      "t_address": {
        "encoding": "inplace",
        "label": "address",
        "numberOfBytes": "20"
      },
      "t_array(t_address)dyn_storage": {
        "base": "t_address",
        "encoding": "dynamic_array",
        "label": "address[]",
        "numberOfBytes": "32"
      },
      "t_array(t_uint256)43_storage": {
        "base": "t_uint256",
        "encoding": "inplace",
        "label": "uint256[43]",
        "numberOfBytes": "1376"
      },
      "t_array(t_uint256)45_storage": {
        "base": "t_uint256",
        "encoding": "inplace",
        "label": "uint256[45]",
        "numberOfBytes": "1440"
      },
      "t_array(t_uint256)49_storage": {
        "base": "t_uint256",
        "encoding": "inplace",
        "label": "uint256[49]",
        "numberOfBytes": "1568"
      },
      "t_array(t_uint256)50_storage": {
        "base": "t_uint256",
        "encoding": "inplace",
        "label": "uint256[50]",
        "numberOfBytes": "1600"
      },
      "t_bool": {
        "encoding": "inplace",
        "label": "bool",
        "numberOfBytes": "1"
      },
      "t_contract(CONTRewardManagement)6389": {
        "encoding": "inplace",
        "label": "contract CONTRewardManagement",
        "numberOfBytes": "20"
      },
      "t_contract(IERC20Upgradeable)1356": {
        "encoding": "inplace",
        "label": "contract IERC20Upgradeable",
        "numberOfBytes": "20"
      },
      "t_contract(LiquidityRouter)7645": {
        "encoding": "inplace",
        "label": "contract LiquidityRouter",
        "numberOfBytes": "20"
      },
      "t_mapping(t_address,t_bool)": {
        "encoding": "mapping",
        "key": "t_address",
        "label": "mapping(address => bool)",
        "numberOfBytes": "32",
        "value": "t_bool"
      },
      "t_mapping(t_address,t_mapping(t_address,t_uint256))": {
        "encoding": "mapping",
        "key": "t_address",
        "label": "mapping(address => mapping(address => uint256))",
        "numberOfBytes": "32",
        "value": "t_mapping(t_address,t_uint256)"
      },
      "t_mapping(t_address,t_uint256)": {
        "encoding": "mapping",
        "key": "t_address",
        "label": "mapping(address => uint256)",
        "numberOfBytes": "32",
        "value": "t_uint256"
      },
      "t_mapping(t_contract(IERC20Upgradeable)1356,t_mapping(t_address,t_uint256))": {
        "encoding": "mapping",
        "key": "t_contract(IERC20Upgradeable)1356",
        "label": "mapping(contract IERC20Upgradeable => mapping(address => uint256))",
        "numberOfBytes": "32",
        "value": "t_mapping(t_address,t_uint256)"
      },
      "t_mapping(t_contract(IERC20Upgradeable)1356,t_uint256)": {
        "encoding": "mapping",
        "key": "t_contract(IERC20Upgradeable)1356",
        "label": "mapping(contract IERC20Upgradeable => uint256)",
        "numberOfBytes": "32",
        "value": "t_uint256"
      },
      "t_string_storage": {
        "encoding": "bytes",
        "label": "string",
        "numberOfBytes": "32"
      },
      "t_uint256": {
        "encoding": "inplace",
        "label": "uint256",
        "numberOfBytes": "32"
      }
    }
  }
}