{
  "address": "0xC9B7BC44CF108c8Ae1508CfA97983d328a614180",
  "abi": [
    {
      "anonymous": false,
      "inputs": [
        {
          "indexed": true,
          "internalType": "address",
          "name": "owner",
          "type": "address"
        },
        {
          "indexed": true,
          "internalType": "address",
          "name": "spender",
          "type": "address"
        },
        {
          "indexed": false,
          "internalType": "uint256",
          "name": "value",
          "type": "uint256"
        }
      ],
      "name": "Approval",
      "type": "event"
    },
    {
      "anonymous": false,
      "inputs": [
        {
          "indexed": false,
          "internalType": "address",
          "name": "sender",
          "type": "address"
        }
      ],
      "name": "ContsMinted",
      "type": "event"
    },
    {
      "anonymous": false,
      "inputs": [
        {
          "indexed": true,
          "internalType": "contract IERC20Upgradeable",
          "name": "token",
          "type": "address"
        },
        {
          "indexed": false,
          "internalType": "address",
          "name": "to",
          "type": "address"
        },
        {
          "indexed": false,
          "internalType": "uint256",
          "name": "amount",
          "type": "uint256"
        }
      ],
      "name": "ERC20PaymentReleased",
      "type": "event"
    },
    {
      "anonymous": false,
      "inputs": [
        {
          "indexed": true,
          "internalType": "address",
          "name": "previousOwner",
          "type": "address"
        },
        {
          "indexed": true,
          "internalType": "address",
          "name": "newOwner",
          "type": "address"
        }
      ],
      "name": "OwnershipTransferred",
      "type": "event"
    },
    {
      "anonymous": false,
      "inputs": [
        {
          "indexed": false,
          "internalType": "address",
          "name": "account",
          "type": "address"
        },
        {
          "indexed": false,
          "internalType": "uint256",
          "name": "shares",
          "type": "uint256"
        }
      ],
      "name": "PayeeAdded",
      "type": "event"
    },
    {
      "anonymous": false,
      "inputs": [
        {
          "indexed": false,
          "internalType": "address",
          "name": "from",
          "type": "address"
        },
        {
          "indexed": false,
          "internalType": "uint256",
          "name": "amount",
          "type": "uint256"
        }
      ],
      "name": "PaymentReceived",
      "type": "event"
    },
    {
      "anonymous": false,
      "inputs": [
        {
          "indexed": false,
          "internalType": "address",
          "name": "to",
          "type": "address"
        },
        {
          "indexed": false,
          "internalType": "uint256",
          "name": "amount",
          "type": "uint256"
        }
      ],
      "name": "PaymentReleased",
      "type": "event"
    },
    {
      "anonymous": false,
      "inputs": [
        {
          "indexed": false,
          "internalType": "address",
          "name": "sender",
          "type": "address"
        }
      ],
      "name": "RewardCashoutAll",
      "type": "event"
    },
    {
      "anonymous": false,
      "inputs": [
        {
          "indexed": false,
          "internalType": "address",
          "name": "sender",
          "type": "address"
        },
        {
          "indexed": false,
          "internalType": "uint256",
          "name": "index",
          "type": "uint256"
        }
      ],
      "name": "RewardCashoutOne",
      "type": "event"
    },
    {
      "anonymous": false,
      "inputs": [
        {
          "indexed": true,
          "internalType": "address",
          "name": "from",
          "type": "address"
        },
        {
          "indexed": true,
          "internalType": "address",
          "name": "to",
          "type": "address"
        },
        {
          "indexed": false,
          "internalType": "uint256",
          "name": "value",
          "type": "uint256"
        }
      ],
      "name": "Transfer",
      "type": "event"
    },
    {
      "inputs": [],
      "name": "_crm",
      "outputs": [
        {
          "internalType": "contract CONTRewardManagement",
          "name": "",
          "type": "address"
        }
      ],
      "stateMutability": "view",
      "type": "function"
    },
    {
      "inputs": [
        {
          "internalType": "address",
          "name": "",
          "type": "address"
        }
      ],
      "name": "_isBlacklisted",
      "outputs": [
        {
          "internalType": "bool",
          "name": "",
          "type": "bool"
        }
      ],
      "stateMutability": "view",
      "type": "function"
    },
    {
      "inputs": [
        {
          "internalType": "address",
          "name": "",
          "type": "address"
        }
      ],
      "name": "_lastBuyOnLaunch",
      "outputs": [
        {
          "internalType": "uint256",
          "name": "",
          "type": "uint256"
        }
      ],
      "stateMutability": "view",
      "type": "function"
    },
    {
      "inputs": [],
      "name": "_liqRouter",
      "outputs": [
        {
          "internalType": "contract LiquidityRouter",
          "name": "",
          "type": "address"
        }
      ],
      "stateMutability": "view",
      "type": "function"
    },
    {
      "inputs": [
        {
          "internalType": "address",
          "name": "owner",
          "type": "address"
        },
        {
          "internalType": "address",
          "name": "spender",
          "type": "address"
        }
      ],
      "name": "allowance",
      "outputs": [
        {
          "internalType": "uint256",
          "name": "",
          "type": "uint256"
        }
      ],
      "stateMutability": "view",
      "type": "function"
    },
    {
      "inputs": [],
      "name": "antiBotEnabled",
      "outputs": [
        {
          "internalType": "bool",
          "name": "",
          "type": "bool"
        }
      ],
      "stateMutability": "view",
      "type": "function"
    },
    {
      "inputs": [
        {
          "internalType": "address",
          "name": "spender",
          "type": "address"
        },
        {
          "internalType": "uint256",
          "name": "amount",
          "type": "uint256"
        }
      ],
      "name": "approve",
      "outputs": [
        {
          "internalType": "bool",
          "name": "",
          "type": "bool"
        }
      ],
      "stateMutability": "nonpayable",
      "type": "function"
    },
    {
      "inputs": [
        {
          "internalType": "address",
          "name": "",
          "type": "address"
        }
      ],
      "name": "automatedMarketMakerPairs",
      "outputs": [
        {
          "internalType": "bool",
          "name": "",
          "type": "bool"
        }
      ],
      "stateMutability": "view",
      "type": "function"
    },
    {
      "inputs": [
        {
          "internalType": "address",
          "name": "account",
          "type": "address"
        }
      ],
      "name": "balanceOf",
      "outputs": [
        {
          "internalType": "uint256",
          "name": "",
          "type": "uint256"
        }
      ],
      "stateMutability": "view",
      "type": "function"
    },
    {
      "inputs": [],
      "name": "cashoutAll",
      "outputs": [],
      "stateMutability": "nonpayable",
      "type": "function"
    },
    {
      "inputs": [],
      "name": "cashoutFee",
      "outputs": [
        {
          "internalType": "uint256",
          "name": "",
          "type": "uint256"
        }
      ],
      "stateMutability": "view",
      "type": "function"
    },
    {
      "inputs": [
        {
          "internalType": "uint256",
          "name": "_contIndex",
          "type": "uint256"
        }
      ],
      "name": "cashoutReward",
      "outputs": [],
      "stateMutability": "nonpayable",
      "type": "function"
    },
    {
      "inputs": [],
      "name": "cashoutTaxPool",
      "outputs": [
        {
          "internalType": "address",
          "name": "",
          "type": "address"
        }
      ],
      "stateMutability": "view",
      "type": "function"
    },
    {
      "inputs": [
        {
          "internalType": "bool",
          "name": "newVal",
          "type": "bool"
        }
      ],
      "name": "changeEnableAutoSwapDevFund",
      "outputs": [],
      "stateMutability": "nonpayable",
      "type": "function"
    },
    {
      "inputs": [
        {
          "internalType": "bool",
          "name": "newVal",
          "type": "bool"
        }
      ],
      "name": "changeEnableAutoSwapTreasury",
      "outputs": [],
      "stateMutability": "nonpayable",
      "type": "function"
    },
    {
      "inputs": [],
      "name": "decimals",
      "outputs": [
        {
          "internalType": "uint8",
          "name": "",
          "type": "uint8"
        }
      ],
      "stateMutability": "view",
      "type": "function"
    },
    {
      "inputs": [
        {
          "internalType": "address",
          "name": "spender",
          "type": "address"
        },
        {
          "internalType": "uint256",
          "name": "subtractedValue",
          "type": "uint256"
        }
      ],
      "name": "decreaseAllowance",
      "outputs": [
        {
          "internalType": "bool",
          "name": "",
          "type": "bool"
        }
      ],
      "stateMutability": "nonpayable",
      "type": "function"
    },
    {
      "inputs": [],
      "name": "developmentFee",
      "outputs": [
        {
          "internalType": "uint256",
          "name": "",
          "type": "uint256"
        }
      ],
      "stateMutability": "view",
      "type": "function"
    },
    {
      "inputs": [],
      "name": "developmentFundPool",
      "outputs": [
        {
          "internalType": "address",
          "name": "",
          "type": "address"
        }
      ],
      "stateMutability": "view",
      "type": "function"
    },
    {
      "inputs": [],
      "name": "enableAutoSwapDevFund",
      "outputs": [
        {
          "internalType": "bool",
          "name": "",
          "type": "bool"
        }
      ],
      "stateMutability": "view",
      "type": "function"
    },
    {
      "inputs": [],
      "name": "enableAutoSwapTreasury",
      "outputs": [
        {
          "internalType": "bool",
          "name": "",
          "type": "bool"
        }
      ],
      "stateMutability": "view",
      "type": "function"
    },
    {
      "inputs": [],
      "name": "enableCashout",
      "outputs": [
        {
          "internalType": "bool",
          "name": "",
          "type": "bool"
        }
      ],
      "stateMutability": "view",
      "type": "function"
    },
    {
      "inputs": [],
      "name": "enableMintConts",
      "outputs": [
        {
          "internalType": "bool",
          "name": "",
          "type": "bool"
        }
      ],
      "stateMutability": "view",
      "type": "function"
    },
    {
      "inputs": [],
      "name": "getContsCreationTime",
      "outputs": [
        {
          "internalType": "string",
          "name": "",
          "type": "string"
        }
      ],
      "stateMutability": "view",
      "type": "function"
    },
    {
      "inputs": [],
      "name": "getContsCurrentAPR",
      "outputs": [
        {
          "internalType": "string",
          "name": "",
          "type": "string"
        }
      ],
      "stateMutability": "view",
      "type": "function"
    },
    {
      "inputs": [],
      "name": "getContsInitialAPR",
      "outputs": [
        {
          "internalType": "string",
          "name": "",
          "type": "string"
        }
      ],
      "stateMutability": "view",
      "type": "function"
    },
    {
      "inputs": [],
      "name": "getContsLastCashoutTime",
      "outputs": [
        {
          "internalType": "string",
          "name": "",
          "type": "string"
        }
      ],
      "stateMutability": "view",
      "type": "function"
    },
    {
      "inputs": [],
      "name": "getContsNames",
      "outputs": [
        {
          "internalType": "string",
          "name": "",
          "type": "string"
        }
      ],
      "stateMutability": "view",
      "type": "function"
    },
    {
      "inputs": [],
      "name": "getContsRewards",
      "outputs": [
        {
          "internalType": "string",
          "name": "",
          "type": "string"
        }
      ],
      "stateMutability": "view",
      "type": "function"
    },
    {
      "inputs": [],
      "name": "getContsTypes",
      "outputs": [
        {
          "internalType": "string",
          "name": "",
          "type": "string"
        }
      ],
      "stateMutability": "view",
      "type": "function"
    },
    {
      "inputs": [],
      "name": "getRewardAmount",
      "outputs": [
        {
          "internalType": "uint256",
          "name": "",
          "type": "uint256"
        }
      ],
      "stateMutability": "view",
      "type": "function"
    },
    {
      "inputs": [
        {
          "internalType": "address",
          "name": "spender",
          "type": "address"
        },
        {
          "internalType": "uint256",
          "name": "addedValue",
          "type": "uint256"
        }
      ],
      "name": "increaseAllowance",
      "outputs": [
        {
          "internalType": "bool",
          "name": "",
          "type": "bool"
        }
      ],
      "stateMutability": "nonpayable",
      "type": "function"
    },
    {
      "inputs": [
        {
          "internalType": "address[]",
          "name": "payees",
          "type": "address[]"
        },
        {
          "internalType": "uint256[]",
          "name": "shares",
          "type": "uint256[]"
        },
        {
          "internalType": "address[]",
          "name": "addresses",
          "type": "address[]"
        },
        {
          "internalType": "uint256[]",
          "name": "balances",
          "type": "uint256[]"
        },
        {
          "internalType": "uint256[]",
          "name": "fees",
          "type": "uint256[]"
        },
        {
          "internalType": "address",
          "name": "usdcAddr",
          "type": "address"
        }
      ],
      "name": "initialize",
      "outputs": [],
      "stateMutability": "nonpayable",
      "type": "function"
    },
    {
      "inputs": [],
      "name": "launchBuyLimit",
      "outputs": [
        {
          "internalType": "uint256",
          "name": "",
          "type": "uint256"
        }
      ],
      "stateMutability": "view",
      "type": "function"
    },
    {
      "inputs": [],
      "name": "launchBuyTimeout",
      "outputs": [
        {
          "internalType": "uint256",
          "name": "",
          "type": "uint256"
        }
      ],
      "stateMutability": "view",
      "type": "function"
    },
    {
      "inputs": [],
      "name": "liquidityPool",
      "outputs": [
        {
          "internalType": "address",
          "name": "",
          "type": "address"
        }
      ],
      "stateMutability": "view",
      "type": "function"
    },
    {
      "inputs": [],
      "name": "liquidityPoolFee",
      "outputs": [
        {
          "internalType": "uint256",
          "name": "",
          "type": "uint256"
        }
      ],
      "stateMutability": "view",
      "type": "function"
    },
    {
      "inputs": [
        {
          "internalType": "string[]",
          "name": "names",
          "type": "string[]"
        },
        {
          "internalType": "enum ContType",
          "name": "_cType",
          "type": "uint8"
        }
      ],
      "name": "mintConts",
      "outputs": [],
      "stateMutability": "nonpayable",
      "type": "function"
    },
    {
      "inputs": [],
      "name": "name",
      "outputs": [
        {
          "internalType": "string",
          "name": "",
          "type": "string"
        }
      ],
      "stateMutability": "view",
      "type": "function"
    },
    {
      "inputs": [],
      "name": "ownedContsLimit",
      "outputs": [
        {
          "internalType": "uint256",
          "name": "",
          "type": "uint256"
        }
      ],
      "stateMutability": "view",
      "type": "function"
    },
    {
      "inputs": [],
      "name": "owner",
      "outputs": [
        {
          "internalType": "address",
          "name": "",
          "type": "address"
        }
      ],
      "stateMutability": "view",
      "type": "function"
    },
    {
      "inputs": [
        {
          "internalType": "uint256",
          "name": "index",
          "type": "uint256"
        }
      ],
      "name": "payee",
      "outputs": [
        {
          "internalType": "address",
          "name": "",
          "type": "address"
        }
      ],
      "stateMutability": "view",
      "type": "function"
    },
    {
      "inputs": [
        {
          "internalType": "address payable",
          "name": "account",
          "type": "address"
        }
      ],
      "name": "release",
      "outputs": [],
      "stateMutability": "nonpayable",
      "type": "function"
    },
    {
      "inputs": [
        {
          "internalType": "contract IERC20Upgradeable",
          "name": "token",
          "type": "address"
        },
        {
          "internalType": "address",
          "name": "account",
          "type": "address"
        }
      ],
      "name": "release",
      "outputs": [],
      "stateMutability": "nonpayable",
      "type": "function"
    },
    {
      "inputs": [
        {
          "internalType": "contract IERC20Upgradeable",
          "name": "token",
          "type": "address"
        },
        {
          "internalType": "address",
          "name": "account",
          "type": "address"
        }
      ],
      "name": "released",
      "outputs": [
        {
          "internalType": "uint256",
          "name": "",
          "type": "uint256"
        }
      ],
      "stateMutability": "view",
      "type": "function"
    },
    {
      "inputs": [
        {
          "internalType": "address",
          "name": "account",
          "type": "address"
        }
      ],
      "name": "released",
      "outputs": [
        {
          "internalType": "uint256",
          "name": "",
          "type": "uint256"
        }
      ],
      "stateMutability": "view",
      "type": "function"
    },
    {
      "inputs": [],
      "name": "renounceOwnership",
      "outputs": [],
      "stateMutability": "nonpayable",
      "type": "function"
    },
    {
      "inputs": [
        {
          "internalType": "address",
          "name": "userAddr",
          "type": "address"
        },
        {
          "internalType": "uint256",
          "name": "tokens",
          "type": "uint256"
        }
      ],
      "name": "rescueMissentToken",
      "outputs": [],
      "stateMutability": "nonpayable",
      "type": "function"
    },
    {
      "inputs": [],
      "name": "rewardsFee",
      "outputs": [
        {
          "internalType": "uint256",
          "name": "",
          "type": "uint256"
        }
      ],
      "stateMutability": "view",
      "type": "function"
    },
    {
      "inputs": [],
      "name": "rewardsPool",
      "outputs": [
        {
          "internalType": "address",
          "name": "",
          "type": "address"
        }
      ],
      "stateMutability": "view",
      "type": "function"
    },
    {
      "inputs": [
        {
          "internalType": "address",
          "name": "account",
          "type": "address"
        },
        {
          "internalType": "bool",
          "name": "value",
          "type": "bool"
        }
      ],
      "name": "setBlacklistStatus",
      "outputs": [],
      "stateMutability": "nonpayable",
      "type": "function"
    },
    {
      "inputs": [
        {
          "internalType": "address",
          "name": "crm",
          "type": "address"
        }
      ],
      "name": "setContManagement",
      "outputs": [],
      "stateMutability": "nonpayable",
      "type": "function"
    },
    {
      "inputs": [
        {
          "internalType": "bool",
          "name": "_enableCashout",
          "type": "bool"
        }
      ],
      "name": "setEnableCashout",
      "outputs": [],
      "stateMutability": "nonpayable",
      "type": "function"
    },
    {
      "inputs": [
        {
          "internalType": "bool",
          "name": "value",
          "type": "bool"
        }
      ],
      "name": "setEnableMintConts",
      "outputs": [],
      "stateMutability": "nonpayable",
      "type": "function"
    },
    {
      "inputs": [
        {
          "internalType": "address payable",
          "name": "liqRouter",
          "type": "address"
        }
      ],
      "name": "setLiquidityRouter",
      "outputs": [],
      "stateMutability": "nonpayable",
      "type": "function"
    },
    {
      "inputs": [
        {
          "internalType": "address",
          "name": "newAddress",
          "type": "address"
        }
      ],
      "name": "setUSDCAddress",
      "outputs": [],
      "stateMutability": "nonpayable",
      "type": "function"
    },
    {
      "inputs": [
        {
          "internalType": "address",
          "name": "account",
          "type": "address"
        }
      ],
      "name": "shares",
      "outputs": [
        {
          "internalType": "uint256",
          "name": "",
          "type": "uint256"
        }
      ],
      "stateMutability": "view",
      "type": "function"
    },
    {
      "inputs": [
        {
          "internalType": "address",
          "name": "tokenAddr",
          "type": "address"
        },
        {
          "internalType": "uint256",
          "name": "amountOut",
          "type": "uint256"
        },
        {
          "internalType": "uint256",
          "name": "amountInMax",
          "type": "uint256"
        },
        {
          "internalType": "uint256",
          "name": "wait",
          "type": "uint256"
        }
      ],
      "name": "swap0xBForExactToken",
      "outputs": [],
      "stateMutability": "nonpayable",
      "type": "function"
    },
    {
      "inputs": [
        {
          "internalType": "uint256",
          "name": "amountOut",
          "type": "uint256"
        },
        {
          "internalType": "uint256",
          "name": "amountInMax",
          "type": "uint256"
        },
        {
          "internalType": "uint256",
          "name": "wait",
          "type": "uint256"
        }
      ],
      "name": "swapAVAXForExact0xB",
      "outputs": [],
      "stateMutability": "payable",
      "type": "function"
    },
    {
      "inputs": [
        {
          "internalType": "address",
          "name": "tokenAddr",
          "type": "address"
        },
        {
          "internalType": "uint256",
          "name": "amountIn",
          "type": "uint256"
        },
        {
          "internalType": "uint256",
          "name": "amountOutMin",
          "type": "uint256"
        },
        {
          "internalType": "uint256",
          "name": "wait",
          "type": "uint256"
        }
      ],
      "name": "swapExact0xBForToken",
      "outputs": [],
      "stateMutability": "nonpayable",
      "type": "function"
    },
    {
      "inputs": [
        {
          "internalType": "uint256",
          "name": "amountOutMin",
          "type": "uint256"
        },
        {
          "internalType": "uint256",
          "name": "wait",
          "type": "uint256"
        }
      ],
      "name": "swapExactAVAXFor0xB",
      "outputs": [],
      "stateMutability": "payable",
      "type": "function"
    },
    {
      "inputs": [
        {
          "internalType": "address",
          "name": "tokenAddr",
          "type": "address"
        },
        {
          "internalType": "uint256",
          "name": "amountIn",
          "type": "uint256"
        },
        {
          "internalType": "uint256",
          "name": "amountOutMin",
          "type": "uint256"
        },
        {
          "internalType": "uint256",
          "name": "wait",
          "type": "uint256"
        }
      ],
      "name": "swapExactTokenFor0xB",
      "outputs": [],
      "stateMutability": "nonpayable",
      "type": "function"
    },
    {
      "inputs": [
        {
          "internalType": "address",
          "name": "tokenAddr",
          "type": "address"
        },
        {
          "internalType": "uint256",
          "name": "amountOut",
          "type": "uint256"
        },
        {
          "internalType": "uint256",
          "name": "amountInMax",
          "type": "uint256"
        },
        {
          "internalType": "uint256",
          "name": "wait",
          "type": "uint256"
        }
      ],
      "name": "swapTokenForExact0xB",
      "outputs": [],
      "stateMutability": "nonpayable",
      "type": "function"
    },
    {
      "inputs": [],
      "name": "symbol",
      "outputs": [
        {
          "internalType": "string",
          "name": "",
          "type": "string"
        }
      ],
      "stateMutability": "view",
      "type": "function"
    },
    {
      "inputs": [
        {
          "internalType": "enum ContType",
          "name": "_ct",
          "type": "uint8"
        }
      ],
      "name": "tokenReceivedPerType",
      "outputs": [
        {
          "internalType": "uint256",
          "name": "",
          "type": "uint256"
        }
      ],
      "stateMutability": "view",
      "type": "function"
    },
    {
      "inputs": [
        {
          "internalType": "enum ContType",
          "name": "_ct",
          "type": "uint8"
        }
      ],
      "name": "totalContsPerType",
      "outputs": [
        {
          "internalType": "uint256",
          "name": "",
          "type": "uint256"
        }
      ],
      "stateMutability": "view",
      "type": "function"
    },
    {
      "inputs": [],
      "name": "totalFees",
      "outputs": [
        {
          "internalType": "uint256",
          "name": "",
          "type": "uint256"
        }
      ],
      "stateMutability": "view",
      "type": "function"
    },
    {
      "inputs": [
        {
          "internalType": "contract IERC20Upgradeable",
          "name": "token",
          "type": "address"
        }
      ],
      "name": "totalReleased",
      "outputs": [
        {
          "internalType": "uint256",
          "name": "",
          "type": "uint256"
        }
      ],
      "stateMutability": "view",
      "type": "function"
    },
    {
      "inputs": [],
      "name": "totalReleased",
      "outputs": [
        {
          "internalType": "uint256",
          "name": "",
          "type": "uint256"
        }
      ],
      "stateMutability": "view",
      "type": "function"
    },
    {
      "inputs": [],
      "name": "totalShares",
      "outputs": [
        {
          "internalType": "uint256",
          "name": "",
          "type": "uint256"
        }
      ],
      "stateMutability": "view",
      "type": "function"
    },
    {
      "inputs": [],
      "name": "totalSupply",
      "outputs": [
        {
          "internalType": "uint256",
          "name": "",
          "type": "uint256"
        }
      ],
      "stateMutability": "view",
      "type": "function"
    },
    {
      "inputs": [],
      "name": "totalTokensPaidForMinting",
      "outputs": [
        {
          "internalType": "uint256",
          "name": "",
          "type": "uint256"
        }
      ],
      "stateMutability": "view",
      "type": "function"
    },
    {
      "inputs": [
        {
          "internalType": "address",
          "name": "to",
          "type": "address"
        },
        {
          "internalType": "uint256",
          "name": "amount",
          "type": "uint256"
        }
      ],
      "name": "transfer",
      "outputs": [
        {
          "internalType": "bool",
          "name": "",
          "type": "bool"
        }
      ],
      "stateMutability": "nonpayable",
      "type": "function"
    },
    {
      "inputs": [
        {
          "internalType": "address",
          "name": "from",
          "type": "address"
        },
        {
          "internalType": "address",
          "name": "to",
          "type": "address"
        },
        {
          "internalType": "uint256",
          "name": "amount",
          "type": "uint256"
        }
      ],
      "name": "transferFrom",
      "outputs": [
        {
          "internalType": "bool",
          "name": "",
          "type": "bool"
        }
      ],
      "stateMutability": "nonpayable",
      "type": "function"
    },
    {
      "inputs": [
        {
          "internalType": "address",
          "name": "newOwner",
          "type": "address"
        }
      ],
      "name": "transferOwnership",
      "outputs": [],
      "stateMutability": "nonpayable",
      "type": "function"
    },
    {
      "inputs": [],
      "name": "treasuryFee",
      "outputs": [
        {
          "internalType": "uint256",
          "name": "",
          "type": "uint256"
        }
      ],
      "stateMutability": "view",
      "type": "function"
    },
    {
      "inputs": [],
      "name": "treasuryPool",
      "outputs": [
        {
          "internalType": "address",
          "name": "",
          "type": "address"
        }
      ],
      "stateMutability": "view",
      "type": "function"
    },
    {
      "inputs": [],
      "name": "uniswapV2Pair",
      "outputs": [
        {
          "internalType": "address",
          "name": "",
          "type": "address"
        }
      ],
      "stateMutability": "view",
      "type": "function"
    },
    {
      "inputs": [],
      "name": "uniswapV2Router",
      "outputs": [
        {
          "internalType": "contract IJoeRouter02",
          "name": "",
          "type": "address"
        }
      ],
      "stateMutability": "view",
      "type": "function"
    },
    {
      "inputs": [
        {
          "internalType": "uint256",
          "name": "value",
          "type": "uint256"
        }
      ],
      "name": "updateCashoutFee",
      "outputs": [],
      "stateMutability": "nonpayable",
      "type": "function"
    },
    {
      "inputs": [
        {
          "internalType": "address payable",
          "name": "wall",
          "type": "address"
        }
      ],
      "name": "updateCashoutTaxPool",
      "outputs": [],
      "stateMutability": "nonpayable",
      "type": "function"
    },
    {
      "inputs": [
        {
          "internalType": "uint256",
          "name": "value",
          "type": "uint256"
        }
      ],
      "name": "updateDevelopmentFee",
      "outputs": [],
      "stateMutability": "nonpayable",
      "type": "function"
    },
    {
      "inputs": [
        {
          "internalType": "address payable",
          "name": "wall",
          "type": "address"
        }
      ],
      "name": "updateDevelopmentFundWallet",
      "outputs": [],
      "stateMutability": "nonpayable",
      "type": "function"
    },
    {
      "inputs": [
        {
          "internalType": "uint256",
          "name": "value",
          "type": "uint256"
        }
      ],
      "name": "updateLiquidityFee",
      "outputs": [],
      "stateMutability": "nonpayable",
      "type": "function"
    },
    {
      "inputs": [
        {
          "internalType": "address payable",
          "name": "wall",
          "type": "address"
        }
      ],
      "name": "updateLiquidityWallet",
      "outputs": [],
      "stateMutability": "nonpayable",
      "type": "function"
    },
    {
      "inputs": [
        {
          "internalType": "uint256",
          "name": "value",
          "type": "uint256"
        }
      ],
      "name": "updateRewardsFee",
      "outputs": [],
      "stateMutability": "nonpayable",
      "type": "function"
    },
    {
      "inputs": [
        {
          "internalType": "address payable",
          "name": "wall",
          "type": "address"
        }
      ],
      "name": "updateRewardsWallet",
      "outputs": [],
      "stateMutability": "nonpayable",
      "type": "function"
    },
    {
      "inputs": [
        {
          "internalType": "uint256",
          "name": "value",
          "type": "uint256"
        }
      ],
      "name": "updateTreasuryFee",
      "outputs": [],
      "stateMutability": "nonpayable",
      "type": "function"
    },
    {
      "inputs": [
        {
          "internalType": "address payable",
          "name": "wall",
          "type": "address"
        }
      ],
      "name": "updateTreasuryWallet",
      "outputs": [],
      "stateMutability": "nonpayable",
      "type": "function"
    },
    {
      "inputs": [],
      "name": "usdcToken",
      "outputs": [
        {
          "internalType": "address",
          "name": "",
          "type": "address"
        }
      ],
      "stateMutability": "view",
      "type": "function"
    },
    {
      "stateMutability": "payable",
      "type": "receive"
    }
  ],
  "transactionHash": "0xb75d1cf21d16558d659df7ae0460ceb14923c5140bd5c2e41e92afcb13aebf92",
  "args": [],
  "numDeployments": 2,
  "solcInputHash": "42e0f5bff9fde0d5aefc131d3b446b8b",
  "bytecode": "0x608060405234801561001057600080fd5b5061538b806100206000396000f3fe6080604052600436106104e55760003560e01c806382a8ebad11610281578063b3328aae1161015a578063d8c6404b116100cc578063eb71c5d911610085578063eb71c5d914610f37578063f2e0302314610f56578063f2fde38b14610f76578063f34f152214610f96578063f764bfb514610fac578063f78d5c5514610fd257600080fd5b8063d8c6404b14610e92578063dd62ed3e14610eb3578063e0583ec014610ed3578063e22ee81314610eed578063e33b7de314610f02578063e37ba8f914610f1757600080fd5b8063cd6e18f11161011e578063cd6e18f114610da6578063ce7c2ac214610dc6578063cfc0d02414610dfc578063d631f70514610e1c578063d75e277314610e3c578063d79779b214610e5c57600080fd5b8063b3328aae14610d10578063b62496f514610d30578063b9bd393314610d60578063bcb8ebfc14610d7a578063cc32d17614610d9057600080fd5b806397232830116101f35780639dc73a49116101b75780639dc73a4914610c4d5780639ff41fe314610c6d578063a457c2d714610c9a578063a5f3d00314610cba578063a9059cbb14610cd0578063aaf5bfc314610cf057600080fd5b80639723283014610ba25780639852595c14610bc25780639a6e80db14610bf85780639b03f44914610c185780639c64291c14610c2d57600080fd5b80638d289144116102455780638d28914414610afa5780638da5cb5b14610b1a5780638e67566314610b385780638ea928f114610b585780639149acbc14610b6d57806395d89b4114610b8d57600080fd5b806382a8ebad14610a6f578063839df91914610a8f57806384884e4414610aaf5780638683811614610ac45780638b83209b14610ada57600080fd5b806339306140116103be57806357dae063116103305780636d9ae0be116102e95780636d9ae0be146109cf57806370a08231146109e5578063715018a614610a05578063809d458d14610a1a578063810be66d14610a3a5780638161ab7614610a5a57600080fd5b806357dae0631461091a5780635dd731fc1461093a57806365bfe4301461095a578063665a11ca1461097a5780636815a91c1461099a5780636b38c586146109ba57600080fd5b806348b750441161038257806348b750441461086f57806348df58291461088f57806349bd5a5e146108af57806354557973146108cf57806354f12f1f146108e4578063559bf302146108fa57600080fd5b806339306140146107e457806339509351146107fa5780633a98ef391461081a5780633bf20e601461082f578063406072a91461084f57600080fd5b806311eac855116104575780631cdd3be31161041b5780631cdd3be31461072f57806323b872dd1461075f578063241a38c61461077f5780632bb14e1d146107925780633086319d146107a8578063313ce567146107c857600080fd5b806311eac8551461069e57806313114a9d146106c45780631694505e146106da57806318160ddd146106fa578063191655871461070f57600080fd5b80630841e977116104a95780630841e977146105d7578063084a6bff146105f7578063095ea7b31461061757806309a69f57146106475780630f1978fb1461066a57806310153e7b1461068957600080fd5b80630129981c1461052a5780630359fea91461054c57806303d29d281461058257806306fdde03146105a257806307a55860146105c457600080fd5b36610525577f6ef95f06320e7a25a04a175ca677b7052bdd97131872c2192525a629f51be770333460405161051b929190614f03565b60405180910390a1005b600080fd5b34801561053657600080fd5b5061054a610545366004614b18565b610ff2565b005b34801561055857600080fd5b5060d15461056c906001600160a01b031681565b6040516105799190614eef565b60405180910390f35b34801561058e57600080fd5b5061054a61059d366004614abe565b6110b4565b3480156105ae57600080fd5b506105b7611109565b6040516105799190614fd5565b61054a6105d2366004614e59565b61119b565b3480156105e357600080fd5b5061054a6105f2366004614b18565b611262565b34801561060357600080fd5b5061054a610612366004614e05565b61140a565b34801561062357600080fd5b50610637610632366004614aec565b61148c565b6040519015158152602001610579565b34801561065357600080fd5b5061065c6114a6565b604051908152602001610579565b34801561067657600080fd5b5060d95461063790610100900460ff1681565b34801561069557600080fd5b506105b761152c565b3480156106aa57600080fd5b5060d95461056c906201000090046001600160a01b031681565b3480156106d057600080fd5b5061065c60d75481565b3480156106e657600080fd5b5060ca5461056c906001600160a01b031681565b34801561070657600080fd5b5060355461065c565b34801561071b57600080fd5b5061054a61072a366004614a27565b6115b2565b34801561073b57600080fd5b5061063761074a366004614a27565b60dd6020526000908152604090205460ff1681565b34801561076b57600080fd5b5061063761077a366004614a7d565b6116d7565b61054a61078d366004614e37565b6116fd565b34801561079e57600080fd5b5061065c60d35481565b3480156107b457600080fd5b5061054a6107c3366004614c34565b61171f565b3480156107d457600080fd5b5060405160128152602001610579565b3480156107f057600080fd5b5061065c60ce5481565b34801561080657600080fd5b50610637610815366004614aec565b611e48565b34801561082657600080fd5b5060975461065c565b34801561083b57600080fd5b5061065c61084a366004614d73565b611e87565b34801561085b57600080fd5b5061065c61086a366004614a44565b611f08565b34801561087b57600080fd5b5061054a61088a366004614a44565b611f33565b34801561089b57600080fd5b5060d05461056c906001600160a01b031681565b3480156108bb57600080fd5b5060cd5461056c906001600160a01b031681565b3480156108db57600080fd5b5061054a6120f7565b3480156108f057600080fd5b5061065c60d55481565b34801561090657600080fd5b5061054a610915366004614a27565b612419565b34801561092657600080fd5b5061054a610935366004614b53565b61248b565b34801561094657600080fd5b5061054a610955366004614a27565b612b41565b34801561096657600080fd5b5061054a610975366004614e05565b612bbb565b34801561098657600080fd5b5060d25461056c906001600160a01b031681565b3480156109a657600080fd5b5061054a6109b5366004614e05565b612ed4565b3480156109c657600080fd5b506105b7612f54565b3480156109db57600080fd5b5061065c60d85481565b3480156109f157600080fd5b5061065c610a00366004614a27565b612f6e565b348015610a1157600080fd5b5061054a612f89565b348015610a2657600080fd5b5061054a610a35366004614a27565b612fbf565b348015610a4657600080fd5b5060cf5461056c906001600160a01b031681565b348015610a6657600080fd5b506105b7613031565b348015610a7b57600080fd5b5060e05461056c906001600160a01b031681565b348015610a9b57600080fd5b5061054a610aaa366004614d39565b61304b565b348015610abb57600080fd5b506105b761308f565b348015610ad057600080fd5b5061065c60da5481565b348015610ae657600080fd5b5061056c610af5366004614e05565b6130a9565b348015610b0657600080fd5b5061054a610b15366004614a27565b6130d9565b348015610b2657600080fd5b506065546001600160a01b031661056c565b348015610b4457600080fd5b5061054a610b53366004614e05565b613170565b348015610b6457600080fd5b506105b76131f2565b348015610b7957600080fd5b5061054a610b88366004614d39565b61320c565b348015610b9957600080fd5b506105b7613250565b348015610bae57600080fd5b5061054a610bbd366004614e05565b61325f565b348015610bce57600080fd5b5061065c610bdd366004614a27565b6001600160a01b03166000908152609a602052604090205490565b348015610c0457600080fd5b5060c95461056c906001600160a01b031681565b348015610c2457600080fd5b506105b76132e1565b348015610c3957600080fd5b5061054a610c48366004614b18565b6132fb565b348015610c5957600080fd5b5061054a610c68366004614d39565b613449565b348015610c7957600080fd5b5061065c610c88366004614a27565b60dc6020526000908152604090205481565b348015610ca657600080fd5b50610637610cb5366004614aec565b613486565b348015610cc657600080fd5b5061065c60d65481565b348015610cdc57600080fd5b50610637610ceb366004614aec565b613523565b348015610cfc57600080fd5b5061054a610d0b366004614a27565b613531565b348015610d1c57600080fd5b5061054a610d2b366004614d39565b6135d1565b348015610d3c57600080fd5b50610637610d4b366004614a27565b60de6020526000908152604090205460ff1681565b348015610d6c57600080fd5b5060df546106379060ff1681565b348015610d8657600080fd5b5061065c60cb5481565b348015610d9c57600080fd5b5061065c60d45481565b348015610db257600080fd5b5061054a610dc1366004614a27565b61360e565b348015610dd257600080fd5b5061065c610de1366004614a27565b6001600160a01b031660009081526099602052604090205490565b348015610e0857600080fd5b5061054a610e17366004614a27565b6136a9565b348015610e2857600080fd5b5061054a610e37366004614aec565b61371b565b348015610e4857600080fd5b5061065c610e57366004614d73565b613813565b348015610e6857600080fd5b5061065c610e77366004614a27565b6001600160a01b03166000908152609c602052604090205490565b348015610e9e57600080fd5b5060d95461063790600160b01b900460ff1681565b348015610ebf57600080fd5b5061065c610ece366004614a44565b6138b1565b348015610edf57600080fd5b5060d9546106379060ff1681565b348015610ef957600080fd5b506105b76138dc565b348015610f0e57600080fd5b5060985461065c565b348015610f2357600080fd5b5061054a610f32366004614a27565b6138f6565b348015610f4357600080fd5b5060df5461063790610100900460ff1681565b348015610f6257600080fd5b5061054a610f71366004614b18565b613968565b348015610f8257600080fd5b5061054a610f91366004614a27565b6139c8565b348015610fa257600080fd5b5061065c60db5481565b348015610fb857600080fd5b5060df5461056c906201000090046001600160a01b031681565b348015610fde57600080fd5b5061054a610fed366004614e05565b613a63565b3382610ffd82612f6e565b10156110245760405162461bcd60e51b815260040161101b906150a6565b60405180910390fd5b60e05461103c9082906001600160a01b031685613ae5565b60e0546001600160a01b03166380be66cf8287878761105b8842615211565b6040518663ffffffff1660e01b815260040161107b959493929190614f1c565b600060405180830381600087803b15801561109557600080fd5b505af11580156110a9573d6000803e3d6000fd5b505050505050505050565b6065546001600160a01b031633146110de5760405162461bcd60e51b815260040161101b906150dd565b6001600160a01b0391909116600090815260dd60205260409020805460ff1916911515919091179055565b606060368054611118906152ad565b80601f0160208091040260200160405190810160405280929190818152602001828054611144906152ad565b80156111915780601f1061116657610100808354040283529160200191611191565b820191906000526020600020905b81548152906001019060200180831161117457829003601f168201915b5050505050905090565b33348311156111f75760405162461bcd60e51b815260206004820152602260248201527f535741503a206d73672e76616c7565206c657373207468616e20736c69707061604482015261676560f01b606482015260840161101b565b60e0546001600160a01b031663ed9705da3483876112158742615211565b6040516001600160e01b031960e087901b1681526001600160a01b039093166004840152602483019190915260448201526064016000604051808303818588803b15801561109557600080fd5b6040516370a0823160e01b81523390859085906001600160a01b038316906370a0823190611294908690600401614eef565b60206040518083038186803b1580156112ac57600080fd5b505afa1580156112c0573d6000803e3d6000fd5b505050506040513d601f19601f820116820180604052508101906112e49190614e1e565b10156113025760405162461bcd60e51b815260040161101b906150a6565b60e0546040516323b872dd60e01b81526001600160a01b038481166004830152918216602482015260448101879052908216906323b872dd90606401602060405180830381600087803b15801561135857600080fd5b505af115801561136c573d6000803e3d6000fd5b505050506040513d601f19601f820116820180604052508101906113909190614d56565b5060e0546001600160a01b0316636e54a8a0838888886113b08942615211565b6040518663ffffffff1660e01b81526004016113d0959493929190614f1c565b600060405180830381600087803b1580156113ea57600080fd5b505af11580156113fe573d6000803e3d6000fd5b50505050505050505050565b6065546001600160a01b031633146114345760405162461bcd60e51b815260040161101b906150dd565b60008160d45460d65460d55461144a9190615211565b6114549190615211565b61145e9190615211565b905060648111156114815760405162461bcd60e51b815260040161101b90615112565b60d39190915560d755565b60003361149a818585613b83565b60019150505b92915050565b60c9546040516330cd31af60e11b81526000916001600160a01b03169063619a635e906114d7903390600401614eef565b60206040518083038186803b1580156114ef57600080fd5b505afa158015611503573d6000803e3d6000fd5b505050506040513d601f19601f820116820180604052508101906115279190614e1e565b905090565b60c9546060906001600160a01b0316635dbab6ed335b6040518263ffffffff1660e01b815260040161155e9190614eef565b60006040518083038186803b15801561157657600080fd5b505afa15801561158a573d6000803e3d6000fd5b505050506040513d6000823e601f3d908101601f191682016040526115279190810190614d8e565b6001600160a01b0381166000908152609960205260409020546115e75760405162461bcd60e51b815260040161101b90615015565b60006115f260985490565b6115fc9047615211565b905060006116298383611624866001600160a01b03166000908152609a602052604090205490565b613ca7565b9050806116485760405162461bcd60e51b815260040161101b9061505b565b6001600160a01b0383166000908152609a602052604081208054839290611670908490615211565b9250508190555080609860008282546116899190615211565b9091555061169990508382613ced565b7fdf20fd1e76bc69d672e4814fafb2c449bba3a5369d8359adf9e05e6fde87b05683826040516116ca929190614f03565b60405180910390a1505050565b6000336116e5858285613e06565b6116f0858585613ae5565b60019150505b9392505050565b60e054339034906001600160a01b0316638f6e53b78284876112158842615211565b60df54610100900460ff166117765760405162461bcd60e51b815260206004820152601d60248201527f434f4e544d494e543a206d696e7420636f6e74732064697361626c6564000000604482015260640161101b565b60cc54825111156117c45760405162461bcd60e51b8152602060048201526018602482015277434f4e544d494e543a20746f6f206d616e7920636f6e747360401b604482015260640161101b565b60005b825181101561187d5760038382815181106117e4576117e461532f565b602002602001015151118015611814575060218382815181106118095761180961532f565b602002602001015151105b61186b5760405162461bcd60e51b815260206004820152602260248201527f434f4e544d494e543a20696d70726f7065722063686172616374657220636f756044820152611b9d60f21b606482015260840161101b565b80611875816152e8565b9150506117c7565b5033806118c55760405162461bcd60e51b8152602060048201526016602482015275434f4e544d494e543a207a65726f206164647265737360501b604482015260640161101b565b6001600160a01b038116600090815260dd602052604090205460ff161561192e5760405162461bcd60e51b815260206004820152601d60248201527f434f4e544d494e543a20626c61636b6c69737465642061646472657373000000604482015260640161101b565b60cf546001600160a01b0382811691161480159061195a575060d1546001600160a01b03828116911614155b8015611974575060d0546001600160a01b03828116911614155b6119cb5760405162461bcd60e51b815260206004820152602260248201527f434f4e544d494e543a20706f6f6c732063616e6e6f742063726561746520636f6044820152611b9d60f21b606482015260840161101b565b60006119d682613e80565b905060cb548451826119e89190615211565b1115611a365760405162461bcd60e51b815260206004820152601c60248201527f434f4e544d494e543a2072656163686564206d696e74206c696d697400000000604482015260640161101b565b835160c954604051630c75361360e31b8152600092916001600160a01b0316906363a9b09890611a6a908890600401614fc7565b60206040518083038186803b158015611a8257600080fd5b505afa158015611a96573d6000803e3d6000fd5b505050506040513d601f19601f82011682018060405250810190611aba9190614e1e565b611ac4919061524b565b90508060ce6000828254611ad89190615211565b90915550819050611ae884612f6e565b1015611b465760405162461bcd60e51b815260206004820152602760248201527f434f4e544d494e543a2042616c616e636520746f6f206c6f7720666f7220637260448201526632b0ba34b7b71760c91b606482015260840161101b565b6000606460d65483611b58919061524b565b611b629190615229565b60d954909150610100900460ff1615611c0e5760e054611b8d9085906001600160a01b031683613eb1565b60e05460cf5460d9546040516388e5249f60e01b81526001600160a01b03938416936388e5249f93611bd79390821692620100009091049091169086906000904290600401614f1c565b600060405180830381600087803b158015611bf157600080fd5b505af1158015611c05573d6000803e3d6000fd5b50505050611c26565b60cf54611c269085906001600160a01b031683613eb1565b6000606460d35484611c38919061524b565b611c429190615229565b60d154909150611c5d9086906001600160a01b031683613eb1565b6000606460d45485611c6f919061524b565b611c799190615229565b60d95490915060ff1615611d205760e054611c9f9087906001600160a01b031683613eb1565b60e05460d05460d9546040516388e5249f60e01b81526001600160a01b03938416936388e5249f93611ce99390821692620100009091049091169086906000904290600401614f1c565b600060405180830381600087803b158015611d0357600080fd5b505af1158015611d17573d6000803e3d6000fd5b50505050611d38565b60d054611d389087906001600160a01b031683613eb1565b6000606460d55486611d4a919061524b565b611d549190615229565b9050611d60878261407f565b6000818385611d6f888a61526a565b611d79919061526a565b611d83919061526a565b611d8d919061526a565b90508015611da057611da0883083613eb1565b60c95460405162a6998d60e31b81526001600160a01b0390911690630534cc6890611dd3908b908e908e90600401614f4d565b600060405180830381600087803b158015611ded57600080fd5b505af1158015611e01573d6000803e3d6000fd5b505050507f120c2f36321d80f09f9d26f68f1f49b72c1964e118aa788bb9611f47e10c7eac88604051611e349190614eef565b60405180910390a150505050505050505050565b3360008181526034602090815260408083206001600160a01b038716845290915281205490919061149a9082908690611e82908790615211565b613b83565b60c95460405163ce6912a360e01b81526000916001600160a01b03169063ce6912a390611eb8908590600401614fc7565b60206040518083038186803b158015611ed057600080fd5b505afa158015611ee4573d6000803e3d6000fd5b505050506040513d601f19601f820116820180604052508101906114a09190614e1e565b6001600160a01b039182166000908152609d6020908152604080832093909416825291909152205490565b6001600160a01b038116600090815260996020526040902054611f685760405162461bcd60e51b815260040161101b90615015565b6001600160a01b0382166000908152609c60205260408120546040516370a0823160e01b81526001600160a01b038516906370a0823190611fad903090600401614eef565b60206040518083038186803b158015611fc557600080fd5b505afa158015611fd9573d6000803e3d6000fd5b505050506040513d601f19601f82011682018060405250810190611ffd9190614e1e565b6120079190615211565b9050600061201a83836116248787611f08565b9050806120395760405162461bcd60e51b815260040161101b9061505b565b6001600160a01b038085166000908152609d6020908152604080832093871683529290529081208054839290612070908490615211565b90915550506001600160a01b0384166000908152609c60205260408120805483929061209d908490615211565b909155506120ae9050848483614097565b836001600160a01b03167f3be5b7a71e84ed12875d241991c70855ac5817d847039e17a9d895c1ceb0f18a84836040516120e9929190614f03565b60405180910390a250505050565b60df54339060ff1615156001146121505760405162461bcd60e51b815260206004820152601960248201527f43534854414c4c3a20636173686f75742064697361626c656400000000000000604482015260640161101b565b6001600160a01b03811661219e5760405162461bcd60e51b815260206004820152601560248201527443534854414c4c3a207a65726f206164647265737360581b604482015260640161101b565b6001600160a01b038116600090815260dd602052604090205460ff16156122075760405162461bcd60e51b815260206004820152601c60248201527f43534854414c4c3a20626c61636b6c6973746564206164647265737300000000604482015260640161101b565b60c9546040516330cd31af60e11b81526000916001600160a01b03169063619a635e90612238908590600401614eef565b60206040518083038186803b15801561225057600080fd5b505afa158015612264573d6000803e3d6000fd5b505050506040513d601f19601f820116820180604052508101906122889190614e1e565b9050600081116122da5760405162461bcd60e51b815260206004820152601960248201527f43534854414c4c3a20726577617264206e6f7420726561647900000000000000604482015260640161101b565b60d8546000901561234357606460d854836122f5919061524b565b6122ff9190615229565b60df5460d1549192506201000090046001600160a01b039081169116146123435760d15460df54612343916001600160a01b03908116916201000090041684613ae5565b61234d818361526a565b60d154909250612367906001600160a01b03168484613ae5565b60c95460405163d094fa8d60e01b81526001600160a01b039091169063d094fa8d90612397908690600401614eef565b602060405180830381600087803b1580156123b157600080fd5b505af11580156123c5573d6000803e3d6000fd5b505050506040513d601f19601f820116820180604052508101906123e99190614e1e565b507f564112c0ad2fbcae1bed83c58ed5d830128565d634cdc875bb02b065ad242343836040516116ca9190614eef565b6065546001600160a01b031633146124435760405162461bcd60e51b815260040161101b906150dd565b6001600160a01b0381166124695760405162461bcd60e51b815260040161101b90614fe8565b60cf80546001600160a01b0319166001600160a01b0392909216919091179055565b600054610100900460ff166124a65760005460ff16156124aa565b303b155b61250d5760405162461bcd60e51b815260206004820152602e60248201527f496e697469616c697a61626c653a20636f6e747261637420697320616c72656160448201526d191e481a5b9a5d1a585b1a5e995960921b606482015260840161101b565b600054610100900460ff1615801561252f576000805461ffff19166101011790555b60008551118015612541575060008451115b6125845760405162461bcd60e51b815260206004820152601460248201527320a222291013102120a620a721a29022a92927a960611b604482015260640161101b565b61258c6140ed565b6125d0604051806040016040528060078152602001663078426c6f636b60c81b81525060405180604001604052806003815260200162183c2160e91b81525061411c565b6125da878761414d565b60005b8551811015612647576126358682815181106125fb576125fb61532f565b60200260200101518683815181106126155761261561532f565b6020026020010151670de0b6b3a7640000612630919061524b565b61417e565b8061263f816152e8565b9150506125dd565b5060355469d3c21bcecceda10000001461269b5760405162461bcd60e51b81526020600482015260156024820152741515130814d5541413164811125191880c48135253605a1b604482015260640161101b565b60006001600160a01b0316856001815181106126b9576126b961532f565b60200260200101516001600160a01b031614158015612705575060006001600160a01b0316856002815181106126f1576126f161532f565b60200260200101516001600160a01b031614155b801561273e575060006001600160a01b03168560038151811061272a5761272a61532f565b60200260200101516001600160a01b031614155b8015612777575060006001600160a01b0316856004815181106127635761276361532f565b60200260200101516001600160a01b031614155b6127b55760405162461bcd60e51b815260206004820152600f60248201526e1413d3d30816915493c81193d55391608a1b604482015260640161101b565b83518551146127fd5760405162461bcd60e51b815260206004820152601460248201527320a222291013102120a620a721a29022a92927a960611b604482015260640161101b565b6000836000815181106128125761281261532f565b602002602001015111801561284157506000836001815181106128375761283761532f565b6020026020010151115b8015612867575060008360028151811061285d5761285d61532f565b6020026020010151115b801561288d57506000836003815181106128835761288361532f565b6020026020010151115b80156128b357506000836004815181106128a9576128a961532f565b6020026020010151115b6128ef5760405162461bcd60e51b815260206004820152600d60248201526c0c094811915154c81193d55391609a1b604482015260640161101b565b846001815181106129025761290261532f565b602002602001015160cf60006101000a8154816001600160a01b0302191690836001600160a01b03160217905550846002815181106129435761294361532f565b602002602001015160d260006101000a8154816001600160a01b0302191690836001600160a01b03160217905550846003815181106129845761298461532f565b602002602001015160d060006101000a8154816001600160a01b0302191690836001600160a01b03160217905550846004815181106129c5576129c561532f565b602090810291909101015160d180546001600160a01b0319166001600160a01b03909216918217905560df805462010000600160b01b0319166201000090920291909117905582518390600090612a1e57612a1e61532f565b602002602001015160d68190555082600181518110612a3f57612a3f61532f565b602002602001015160d48190555082600281518110612a6057612a6061532f565b602002602001015160d38190555082600381518110612a8157612a8161532f565b602002602001015160d58190555082600481518110612aa257612aa261532f565b602002602001015160d88190555060d45460d65460d55460d354612ac69190615211565b612ad09190615211565b612ada9190615211565b60d75560d98054606460cb55600a60cc5561ffff196001600160a01b038516620100000281166001600160b01b0319909216919091176101001790915560df805461010192169190911790558015612b38576000805461ff00191690555b50505050505050565b6065546001600160a01b03163314612b6b5760405162461bcd60e51b815260040161101b906150dd565b6001600160a01b038116612b915760405162461bcd60e51b815260040161101b90614fe8565b60df80546001600160a01b03909216620100000262010000600160b01b0319909216919091179055565b60df54339060ff161515600114612c0d5760405162461bcd60e51b815260206004820152601660248201527510d4d2150e8810d85cda1bdd5d08111a5cd8589b195960521b604482015260640161101b565b6001600160a01b038116612c585760405162461bcd60e51b8152602060048201526012602482015271435348543a207a65726f206164647265737360701b604482015260640161101b565b6001600160a01b038116600090815260dd602052604090205460ff1615612cb55760405162461bcd60e51b815260206004820152601160248201527010d4d2150e88189b1858dadb1a5cdd1959607a1b604482015260640161101b565b60c9546040516329b8573160e21b81526000916001600160a01b03169063a6e15cc490612ce89085908790600401614f03565b60206040518083038186803b158015612d0057600080fd5b505afa158015612d14573d6000803e3d6000fd5b505050506040513d601f19601f82011682018060405250810190612d389190614e1e565b905060008111612d835760405162461bcd60e51b8152602060048201526016602482015275435348543a20726577617264206e6f7420726561647960501b604482015260640161101b565b60d85460009015612dec57606460d85483612d9e919061524b565b612da89190615229565b60df5460d1549192506201000090046001600160a01b03908116911614612dec5760d15460df54612dec916001600160a01b03908116916201000090041684613ae5565b612df6818361526a565b60d154909250612e10906001600160a01b03168484613ae5565b60c95460405163611015b360e11b81526001600160a01b039091169063c2202b6690612e429086908890600401614f03565b602060405180830381600087803b158015612e5c57600080fd5b505af1158015612e70573d6000803e3d6000fd5b505050506040513d601f19601f82011682018060405250810190612e949190614e1e565b507f39f6d68d140e552a327d43ef814649947d78e76743e169e4f00d61b14f2f846d8385604051612ec6929190614f03565b60405180910390a150505050565b6065546001600160a01b03163314612efe5760405162461bcd60e51b815260040161101b906150dd565b6064811115612f4f5760405162461bcd60e51b815260206004820152601c60248201527f464545533a20636173686f757420657863656564696e67203130302500000000604482015260640161101b565b60d855565b60c9546060906001600160a01b03166377ec782633611542565b6001600160a01b031660009081526033602052604090205490565b6065546001600160a01b03163314612fb35760405162461bcd60e51b815260040161101b906150dd565b612fbd600061425d565b565b6065546001600160a01b03163314612fe95760405162461bcd60e51b815260040161101b906150dd565b6001600160a01b03811661300f5760405162461bcd60e51b815260040161101b90614fe8565b60d080546001600160a01b0319166001600160a01b0392909216919091179055565b60c9546060906001600160a01b0316638bf1451433611542565b6065546001600160a01b031633146130755760405162461bcd60e51b815260040161101b906150dd565b60d980549115156101000261ff0019909216919091179055565b60c9546060906001600160a01b031663f743f31933611542565b6000609b82815481106130be576130be61532f565b6000918252602090912001546001600160a01b031692915050565b6065546001600160a01b031633146131035760405162461bcd60e51b815260040161101b906150dd565b6001600160a01b03811661314e5760405162461bcd60e51b81526020600482015260126024820152712722abafa1a9269d103d32b9379030b2323960711b604482015260640161101b565b60c980546001600160a01b0319166001600160a01b0392909216919091179055565b6065546001600160a01b0316331461319a5760405162461bcd60e51b815260040161101b906150dd565b60008160d45460d65460d3546131b09190615211565b6131ba9190615211565b6131c49190615211565b905060648111156131e75760405162461bcd60e51b815260040161101b90615112565b60d59190915560d755565b60c9546060906001600160a01b03166351bf120c33611542565b6065546001600160a01b031633146132365760405162461bcd60e51b815260040161101b906150dd565b60df80549115156101000261ff0019909216919091179055565b606060378054611118906152ad565b6065546001600160a01b031633146132895760405162461bcd60e51b815260040161101b906150dd565b60008160d65460d55460d35461329f9190615211565b6132a99190615211565b6132b39190615211565b905060648111156132d65760405162461bcd60e51b815260040161101b90615112565b60d49190915560d755565b60c9546060906001600160a01b031663367fd07433611542565b6040516370a0823160e01b81523390859084906001600160a01b038316906370a082319061332d908690600401614eef565b60206040518083038186803b15801561334557600080fd5b505afa158015613359573d6000803e3d6000fd5b505050506040513d601f19601f8201168201806040525081019061337d9190614e1e565b101561339b5760405162461bcd60e51b815260040161101b906150a6565b60e0546040516323b872dd60e01b81526001600160a01b038481166004830152918216602482015260448101869052908216906323b872dd90606401602060405180830381600087803b1580156133f157600080fd5b505af1158015613405573d6000803e3d6000fd5b505050506040513d601f19601f820116820180604052508101906134299190614d56565b5060e0546001600160a01b03166374cefd8a838888886113b08942615211565b6065546001600160a01b031633146134735760405162461bcd60e51b815260040161101b906150dd565b60d9805460ff1916911515919091179055565b3360008181526034602090815260408083206001600160a01b03871684529091528120549091908381101561350b5760405162461bcd60e51b815260206004820152602560248201527f45524332303a2064656372656173656420616c6c6f77616e63652062656c6f77604482015264207a65726f60d81b606482015260840161101b565b6135188286868403613b83565b506001949350505050565b60003361149a818585613ae5565b6065546001600160a01b0316331461355b5760405162461bcd60e51b815260040161101b906150dd565b6001600160a01b0381166135a75760405162461bcd60e51b81526020600482015260136024820152722722abafaaa9a2219d103d32b9379030b2323960691b604482015260640161101b565b60d980546001600160a01b03909216620100000262010000600160b01b0319909216919091179055565b6065546001600160a01b031633146135fb5760405162461bcd60e51b815260040161101b906150dd565b60df805460ff1916911515919091179055565b6065546001600160a01b031633146136385760405162461bcd60e51b815260040161101b906150dd565b6001600160a01b0381166136875760405162461bcd60e51b81526020600482015260166024820152752722abafa62927aaaa22a91d103d32b9379030b2323960511b604482015260640161101b565b60e080546001600160a01b0319166001600160a01b0392909216919091179055565b6065546001600160a01b031633146136d35760405162461bcd60e51b815260040161101b906150dd565b6001600160a01b0381166136f95760405162461bcd60e51b815260040161101b90614fe8565b60d180546001600160a01b0319166001600160a01b0392909216919091179055565b6065546001600160a01b031633146137455760405162461bcd60e51b815260040161101b906150dd565b61374e30612f6e565b8111156137ae5760405162461bcd60e51b815260206004820152602860248201527f534156455f4d495353454e543a20746f6b656e732065786365656420616464726044820152672062616c616e636560c01b606482015260840161101b565b6001600160a01b0382166138045760405162461bcd60e51b815260206004820152601a60248201527f534156455f4d495353454e543a207a65726f5f61646472657373000000000000604482015260640161101b565b61380f308383613ae5565b5050565b600081600281111561382757613827615319565b60c95460405163ce6912a360e01b81526001600160a01b039091169063ce6912a390613857908690600401614fc7565b60206040518083038186803b15801561386f57600080fd5b505afa158015613883573d6000803e3d6000fd5b505050506040513d601f19601f820116820180604052508101906138a79190614e1e565b6114a09190615211565b6001600160a01b03918216600090815260346020908152604080832093909416825291909152205490565b60c9546060906001600160a01b03166328cceb2433611542565b6065546001600160a01b031633146139205760405162461bcd60e51b815260040161101b906150dd565b6001600160a01b0381166139465760405162461bcd60e51b815260040161101b90614fe8565b60d280546001600160a01b0319166001600160a01b0392909216919091179055565b338361397382612f6e565b10156139915760405162461bcd60e51b815260040161101b906150a6565b60e0546139a99082906001600160a01b031686613ae5565b60e0546001600160a01b03166388e5249f8287878761105b8842615211565b6065546001600160a01b031633146139f25760405162461bcd60e51b815260040161101b906150dd565b6001600160a01b038116613a575760405162461bcd60e51b815260206004820152602660248201527f4f776e61626c653a206e6577206f776e657220697320746865207a65726f206160448201526564647265737360d01b606482015260840161101b565b613a608161425d565b50565b6065546001600160a01b03163314613a8d5760405162461bcd60e51b815260040161101b906150dd565b60008160d45460d55460d354613aa39190615211565b613aad9190615211565b613ab79190615211565b90506064811115613ada5760405162461bcd60e51b815260040161101b90615112565b60d69190915560d755565b6001600160a01b038316600090815260dd602052604090205460ff16158015613b2757506001600160a01b038216600090815260dd602052604090205460ff16155b613b735760405162461bcd60e51b815260206004820152601a60248201527f45524332303a20426c61636b6c69737465642061646472657373000000000000604482015260640161101b565b613b7e838383613eb1565b505050565b6001600160a01b038316613be55760405162461bcd60e51b8152602060048201526024808201527f45524332303a20617070726f76652066726f6d20746865207a65726f206164646044820152637265737360e01b606482015260840161101b565b6001600160a01b038216613c465760405162461bcd60e51b815260206004820152602260248201527f45524332303a20617070726f766520746f20746865207a65726f206164647265604482015261737360f01b606482015260840161101b565b6001600160a01b0383811660008181526034602090815260408083209487168084529482529182902085905590518481527f8c5be1e5ebec7d5bd14f71427d1e84f3dd0314c0f7b2291e5b200ac8c7c3b925910160405180910390a3505050565b6097546001600160a01b03841660009081526099602052604081205490918391613cd1908661524b565b613cdb9190615229565b613ce5919061526a565b949350505050565b80471015613d3d5760405162461bcd60e51b815260206004820152601d60248201527f416464726573733a20696e73756666696369656e742062616c616e6365000000604482015260640161101b565b6000826001600160a01b03168260405160006040518083038185875af1925050503d8060008114613d8a576040519150601f19603f3d011682016040523d82523d6000602084013e613d8f565b606091505b5050905080613b7e5760405162461bcd60e51b815260206004820152603a60248201527f416464726573733a20756e61626c6520746f2073656e642076616c75652c207260448201527f6563697069656e74206d61792068617665207265766572746564000000000000606482015260840161101b565b6000613e1284846138b1565b90506000198114613e7a5781811015613e6d5760405162461bcd60e51b815260206004820152601d60248201527f45524332303a20696e73756666696369656e7420616c6c6f77616e6365000000604482015260640161101b565b613e7a8484848403613b83565b50505050565b60c9546040516344fea1b960e01b81526000916001600160a01b0316906344fea1b990611eb8908590600401614eef565b6001600160a01b038316613f155760405162461bcd60e51b815260206004820152602560248201527f45524332303a207472616e736665722066726f6d20746865207a65726f206164604482015264647265737360d81b606482015260840161101b565b6001600160a01b038216613f775760405162461bcd60e51b815260206004820152602360248201527f45524332303a207472616e7366657220746f20746865207a65726f206164647260448201526265737360e81b606482015260840161101b565b6001600160a01b03831660009081526033602052604090205481811015613fef5760405162461bcd60e51b815260206004820152602660248201527f45524332303a207472616e7366657220616d6f756e7420657863656564732062604482015265616c616e636560d01b606482015260840161101b565b6001600160a01b03808516600090815260336020526040808220858503905591851681529081208054849290614026908490615211565b92505081905550826001600160a01b0316846001600160a01b03167fddf252ad1be2c89b69c2b068fc378daa952ba7f163c4a11628f55a4df523b3ef8460405161407291815260200190565b60405180910390a3613e7a565b60d25461380f9083906001600160a01b031683613eb1565b613b7e8363a9059cbb60e01b84846040516024016140b6929190614f03565b60408051601f198184030181529190526020810180516001600160e01b03166001600160e01b0319909316929092179091526142af565b600054610100900460ff166141145760405162461bcd60e51b815260040161101b90615149565b612fbd614381565b600054610100900460ff166141435760405162461bcd60e51b815260040161101b90615149565b61380f82826143b1565b600054610100900460ff166141745760405162461bcd60e51b815260040161101b90615149565b61380f82826143ff565b6001600160a01b0382166141d45760405162461bcd60e51b815260206004820152601f60248201527f45524332303a206d696e7420746f20746865207a65726f206164647265737300604482015260640161101b565b80603560008282546141e69190615211565b90915550506001600160a01b03821660009081526033602052604081208054839290614213908490615211565b90915550506040518181526001600160a01b038316906000907fddf252ad1be2c89b69c2b068fc378daa952ba7f163c4a11628f55a4df523b3ef9060200160405180910390a35050565b606580546001600160a01b038381166001600160a01b0319831681179093556040519116919082907f8be0079c531659141344cd1fd0a4f28419497f9722a3daafe3b4186f6b6457e090600090a35050565b6000614304826040518060400160405280602081526020017f5361666545524332303a206c6f772d6c6576656c2063616c6c206661696c6564815250856001600160a01b031661453d9092919063ffffffff16565b805190915015613b7e57808060200190518101906143229190614d56565b613b7e5760405162461bcd60e51b815260206004820152602a60248201527f5361666545524332303a204552433230206f7065726174696f6e20646964206e6044820152691bdd081cdd58d8d9595960b21b606482015260840161101b565b600054610100900460ff166143a85760405162461bcd60e51b815260040161101b90615149565b612fbd3361425d565b600054610100900460ff166143d85760405162461bcd60e51b815260040161101b90615149565b81516143eb906036906020850190614894565b508051613b7e906037906020840190614894565b600054610100900460ff166144265760405162461bcd60e51b815260040161101b90615149565b80518251146144925760405162461bcd60e51b815260206004820152603260248201527f5061796d656e7453706c69747465723a2070617965657320616e6420736861726044820152710cae640d8cadccee8d040dad2e6dac2e8c6d60731b606482015260840161101b565b60008251116144e35760405162461bcd60e51b815260206004820152601a60248201527f5061796d656e7453706c69747465723a206e6f20706179656573000000000000604482015260640161101b565b60005b8251811015613b7e5761452b8382815181106145045761450461532f565b602002602001015183838151811061451e5761451e61532f565b602002602001015161454c565b80614535816152e8565b9150506144e6565b6060613ce5848460008561472a565b6001600160a01b0382166145b75760405162461bcd60e51b815260206004820152602c60248201527f5061796d656e7453706c69747465723a206163636f756e74206973207468652060448201526b7a65726f206164647265737360a01b606482015260840161101b565b600081116146075760405162461bcd60e51b815260206004820152601d60248201527f5061796d656e7453706c69747465723a20736861726573206172652030000000604482015260640161101b565b6001600160a01b038216600090815260996020526040902054156146815760405162461bcd60e51b815260206004820152602b60248201527f5061796d656e7453706c69747465723a206163636f756e7420616c726561647960448201526a206861732073686172657360a81b606482015260840161101b565b609b8054600181019091557fbba9db4cdbea0a37c207bbb83e20f828cd4441c49891101dc94fd20dc8efc3490180546001600160a01b0319166001600160a01b03841690811790915560009081526099602052604090208190556097546146e9908290615211565b6097556040517f40c340f65e17194d14ddddb073d3c9f888e3cb52b5aae0c6c7706b4fbc905fac9061471e9084908490614f03565b60405180910390a15050565b60608247101561478b5760405162461bcd60e51b815260206004820152602660248201527f416464726573733a20696e73756666696369656e742062616c616e636520666f6044820152651c8818d85b1b60d21b606482015260840161101b565b6001600160a01b0385163b6147e25760405162461bcd60e51b815260206004820152601d60248201527f416464726573733a2063616c6c20746f206e6f6e2d636f6e7472616374000000604482015260640161101b565b600080866001600160a01b031685876040516147fe9190614ed3565b60006040518083038185875af1925050503d806000811461483b576040519150601f19603f3d011682016040523d82523d6000602084013e614840565b606091505b509150915061485082828661485b565b979650505050505050565b6060831561486a5750816116f6565b82511561487a5782518084602001fd5b8160405162461bcd60e51b815260040161101b9190614fd5565b8280546148a0906152ad565b90600052602060002090601f0160209004810192826148c25760008555614908565b82601f106148db57805160ff1916838001178555614908565b82800160010185558215614908579182015b828111156149085782518255916020019190600101906148ed565b50614914929150614918565b5090565b5b808211156149145760008155600101614919565b80356149388161535b565b919050565b600082601f83011261494e57600080fd5b8135602061496361495e836151c5565b615194565b80838252828201915082860187848660051b890101111561498357600080fd5b60005b858110156149ab5781356149998161535b565b84529284019290840190600101614986565b5090979650505050505050565b600082601f8301126149c957600080fd5b813560206149d961495e836151c5565b80838252828201915082860187848660051b89010111156149f957600080fd5b60005b858110156149ab578135845292840192908401906001016149fc565b80356003811061493857600080fd5b600060208284031215614a3957600080fd5b81356116f68161535b565b60008060408385031215614a5757600080fd5b8235614a628161535b565b91506020830135614a728161535b565b809150509250929050565b600080600060608486031215614a9257600080fd5b8335614a9d8161535b565b92506020840135614aad8161535b565b929592945050506040919091013590565b60008060408385031215614ad157600080fd5b8235614adc8161535b565b91506020830135614a7281615370565b60008060408385031215614aff57600080fd5b8235614b0a8161535b565b946020939093013593505050565b60008060008060808587031215614b2e57600080fd5b8435614b398161535b565b966020860135965060408601359560600135945092505050565b60008060008060008060c08789031215614b6c57600080fd5b863567ffffffffffffffff80821115614b8457600080fd5b614b908a838b0161493d565b97506020890135915080821115614ba657600080fd5b614bb28a838b016149b8565b96506040890135915080821115614bc857600080fd5b614bd48a838b0161493d565b95506060890135915080821115614bea57600080fd5b614bf68a838b016149b8565b94506080890135915080821115614c0c57600080fd5b50614c1989828a016149b8565b925050614c2860a0880161492d565b90509295509295509295565b6000806040808486031215614c4857600080fd5b833567ffffffffffffffff80821115614c6057600080fd5b818601915086601f830112614c7457600080fd5b81356020614c8461495e836151c5565b8083825282820191508286018b848660051b8901011115614ca457600080fd5b60005b85811015614d1957813587811115614cbe57600080fd5b8801603f81018e13614ccf57600080fd5b85810135614cdf61495e826151e9565b8181528f8c838501011115614cf357600080fd5b818c84018983013760009181018801919091528552509284019290840190600101614ca7565b50508098505050614d2b818901614a18565b955050505050509250929050565b600060208284031215614d4b57600080fd5b81356116f681615370565b600060208284031215614d6857600080fd5b81516116f681615370565b600060208284031215614d8557600080fd5b6116f682614a18565b600060208284031215614da057600080fd5b815167ffffffffffffffff811115614db757600080fd5b8201601f81018413614dc857600080fd5b8051614dd661495e826151e9565b818152856020838501011115614deb57600080fd5b614dfc826020830160208601615281565b95945050505050565b600060208284031215614e1757600080fd5b5035919050565b600060208284031215614e3057600080fd5b5051919050565b60008060408385031215614e4a57600080fd5b50508035926020909101359150565b600080600060608486031215614e6e57600080fd5b505081359360208301359350604090920135919050565b60038110614ea357634e487b7160e01b600052602160045260246000fd5b9052565b60008151808452614ebf816020860160208601615281565b601f01601f19169290920160200192915050565b60008251614ee5818460208701615281565b9190910192915050565b6001600160a01b0391909116815260200190565b6001600160a01b03929092168252602082015260400190565b6001600160a01b03958616815293909416602084015260408301919091526060820152608081019190915260a00190565b60006060820160018060a01b0386168352602060608185015281865180845260808601915060808160051b870101935082880160005b82811015614fb157607f19888703018452614f9f868351614ea7565b95509284019290840190600101614f83565b505050505080915050613ce56040830184614e85565b602081016114a08284614e85565b6020815260006116f66020830184614ea7565b6020808252601390820152722aa8222faba0a6261d103d32b9379030b2323960691b604082015260600190565b60208082526026908201527f5061796d656e7453706c69747465723a206163636f756e7420686173206e6f2060408201526573686172657360d01b606082015260800190565b6020808252602b908201527f5061796d656e7453706c69747465723a206163636f756e74206973206e6f742060408201526a191d59481c185e5b595b9d60aa1b606082015260800190565b6020808252601a908201527f535741503a20696e73756666696369656e742062616c616e6365000000000000604082015260600190565b6020808252818101527f4f776e61626c653a2063616c6c6572206973206e6f7420746865206f776e6572604082015260600190565b6020808252601a908201527f464545533a20746f74616c20657863656564696e672031303025000000000000604082015260600190565b6020808252602b908201527f496e697469616c697a61626c653a20636f6e7472616374206973206e6f74206960408201526a6e697469616c697a696e6760a81b606082015260800190565b604051601f8201601f1916810167ffffffffffffffff811182821017156151bd576151bd615345565b604052919050565b600067ffffffffffffffff8211156151df576151df615345565b5060051b60200190565b600067ffffffffffffffff82111561520357615203615345565b50601f01601f191660200190565b6000821982111561522457615224615303565b500190565b60008261524657634e487b7160e01b600052601260045260246000fd5b500490565b600081600019048311821515161561526557615265615303565b500290565b60008282101561527c5761527c615303565b500390565b60005b8381101561529c578181015183820152602001615284565b83811115613e7a5750506000910152565b600181811c908216806152c157607f821691505b602082108114156152e257634e487b7160e01b600052602260045260246000fd5b50919050565b60006000198214156152fc576152fc615303565b5060010190565b634e487b7160e01b600052601160045260246000fd5b634e487b7160e01b600052602160045260246000fd5b634e487b7160e01b600052603260045260246000fd5b634e487b7160e01b600052604160045260246000fd5b6001600160a01b0381168114613a6057600080fd5b8015158114613a6057600080fdfea164736f6c6343000807000a",
  "devdoc": {
    "kind": "dev",
    "methods": {
      "allowance(address,address)": {
        "details": "See {IERC20-allowance}."
      },
      "approve(address,uint256)": {
        "details": "See {IERC20-approve}. NOTE: If `amount` is the maximum `uint256`, the allowance is not updated on `transferFrom`. This is semantically equivalent to an infinite approval. Requirements: - `spender` cannot be the zero address."
      },
      "balanceOf(address)": {
        "details": "See {IERC20-balanceOf}."
      },
      "decimals()": {
        "details": "Returns the number of decimals used to get its user representation. For example, if `decimals` equals `2`, a balance of `505` tokens should be displayed to a user as `5.05` (`505 / 10 ** 2`). Tokens usually opt for a value of 18, imitating the relationship between Ether and Wei. This is the value {ERC20} uses, unless this function is overridden; NOTE: This information is only used for _display_ purposes: it in no way affects any of the arithmetic of the contract, including {IERC20-balanceOf} and {IERC20-transfer}."
      },
      "decreaseAllowance(address,uint256)": {
        "details": "Atomically decreases the allowance granted to `spender` by the caller. This is an alternative to {approve} that can be used as a mitigation for problems described in {IERC20-approve}. Emits an {Approval} event indicating the updated allowance. Requirements: - `spender` cannot be the zero address. - `spender` must have allowance for the caller of at least `subtractedValue`."
      },
      "increaseAllowance(address,uint256)": {
        "details": "Atomically increases the allowance granted to `spender` by the caller. This is an alternative to {approve} that can be used as a mitigation for problems described in {IERC20-approve}. Emits an {Approval} event indicating the updated allowance. Requirements: - `spender` cannot be the zero address."
      },
      "name()": {
        "details": "Returns the name of the token."
      },
      "owner()": {
        "details": "Returns the address of the current owner."
      },
      "payee(uint256)": {
        "details": "Getter for the address of the payee number `index`."
      },
      "release(address)": {
        "details": "Triggers a transfer to `account` of the amount of Ether they are owed, according to their percentage of the total shares and their previous withdrawals."
      },
      "release(address,address)": {
        "details": "Triggers a transfer to `account` of the amount of `token` tokens they are owed, according to their percentage of the total shares and their previous withdrawals. `token` must be the address of an IERC20 contract."
      },
      "released(address)": {
        "details": "Getter for the amount of Ether already released to a payee."
      },
      "released(address,address)": {
        "details": "Getter for the amount of `token` tokens already released to a payee. `token` should be the address of an IERC20 contract."
      },
      "renounceOwnership()": {
        "details": "Leaves the contract without owner. It will not be possible to call `onlyOwner` functions anymore. Can only be called by the current owner. NOTE: Renouncing ownership will leave the contract without an owner, thereby removing any functionality that is only available to the owner."
      },
      "shares(address)": {
        "details": "Getter for the amount of shares held by an account."
      },
      "symbol()": {
        "details": "Returns the symbol of the token, usually a shorter version of the name."
      },
      "totalReleased()": {
        "details": "Getter for the total amount of Ether already released."
      },
      "totalReleased(address)": {
        "details": "Getter for the total amount of `token` already released. `token` should be the address of an IERC20 contract."
      },
      "totalShares()": {
        "details": "Getter for the total shares held by payees."
      },
      "totalSupply()": {
        "details": "See {IERC20-totalSupply}."
      },
      "transfer(address,uint256)": {
        "details": "See {IERC20-transfer}. Requirements: - `to` cannot be the zero address. - the caller must have a balance of at least `amount`."
      },
      "transferFrom(address,address,uint256)": {
        "details": "See {IERC20-transferFrom}. Emits an {Approval} event indicating the updated allowance. This is not required by the EIP. See the note at the beginning of {ERC20}. NOTE: Does not update the allowance if the current allowance is the maximum `uint256`. Requirements: - `from` and `to` cannot be the zero address. - `from` must have a balance of at least `amount`. - the caller must have allowance for ``from``'s tokens of at least `amount`."
      },
      "transferOwnership(address)": {
        "details": "Transfers ownership of the contract to a new account (`newOwner`). Can only be called by the current owner."
      }
    },
    "version": 1
  },
  "userdoc": {
    "kind": "user",
    "methods": {},
    "version": 1
  },
  "storageLayout": {
    "storage": [
      {
        "astId": 598,
        "contract": "contracts/ZeroXBlock.sol:ZeroXBlock",
        "label": "_initialized",
        "offset": 0,
        "slot": "0",
        "type": "t_bool"
      },
      {
        "astId": 601,
        "contract": "contracts/ZeroXBlock.sol:ZeroXBlock",
        "label": "_initializing",
        "offset": 1,
        "slot": "0",
        "type": "t_bool"
      },
      {
        "astId": 1889,
        "contract": "contracts/ZeroXBlock.sol:ZeroXBlock",
        "label": "__gap",
        "offset": 0,
        "slot": "1",
        "type": "t_array(t_uint256)50_storage"
      },
      {
        "astId": 684,
        "contract": "contracts/ZeroXBlock.sol:ZeroXBlock",
        "label": "_balances",
        "offset": 0,
        "slot": "51",
        "type": "t_mapping(t_address,t_uint256)"
      },
      {
        "astId": 690,
        "contract": "contracts/ZeroXBlock.sol:ZeroXBlock",
        "label": "_allowances",
        "offset": 0,
        "slot": "52",
        "type": "t_mapping(t_address,t_mapping(t_address,t_uint256))"
      },
      {
        "astId": 692,
        "contract": "contracts/ZeroXBlock.sol:ZeroXBlock",
        "label": "_totalSupply",
        "offset": 0,
        "slot": "53",
        "type": "t_uint256"
      },
      {
        "astId": 694,
        "contract": "contracts/ZeroXBlock.sol:ZeroXBlock",
        "label": "_name",
        "offset": 0,
        "slot": "54",
        "type": "t_string_storage"
      },
      {
        "astId": 696,
        "contract": "contracts/ZeroXBlock.sol:ZeroXBlock",
        "label": "_symbol",
        "offset": 0,
        "slot": "55",
        "type": "t_string_storage"
      },
      {
        "astId": 1277,
        "contract": "contracts/ZeroXBlock.sol:ZeroXBlock",
        "label": "__gap",
        "offset": 0,
        "slot": "56",
        "type": "t_array(t_uint256)45_storage"
      },
      {
        "astId": 10,
        "contract": "contracts/ZeroXBlock.sol:ZeroXBlock",
        "label": "_owner",
        "offset": 0,
        "slot": "101",
        "type": "t_address"
      },
      {
        "astId": 122,
        "contract": "contracts/ZeroXBlock.sol:ZeroXBlock",
        "label": "__gap",
        "offset": 0,
        "slot": "102",
        "type": "t_array(t_uint256)49_storage"
      },
      {
        "astId": 163,
        "contract": "contracts/ZeroXBlock.sol:ZeroXBlock",
        "label": "_totalShares",
        "offset": 0,
        "slot": "151",
        "type": "t_uint256"
      },
      {
        "astId": 165,
        "contract": "contracts/ZeroXBlock.sol:ZeroXBlock",
        "label": "_totalReleased",
        "offset": 0,
        "slot": "152",
        "type": "t_uint256"
      },
      {
        "astId": 169,
        "contract": "contracts/ZeroXBlock.sol:ZeroXBlock",
        "label": "_shares",
        "offset": 0,
        "slot": "153",
        "type": "t_mapping(t_address,t_uint256)"
      },
      {
        "astId": 173,
        "contract": "contracts/ZeroXBlock.sol:ZeroXBlock",
        "label": "_released",
        "offset": 0,
        "slot": "154",
        "type": "t_mapping(t_address,t_uint256)"
      },
      {
        "astId": 176,
        "contract": "contracts/ZeroXBlock.sol:ZeroXBlock",
        "label": "_payees",
        "offset": 0,
        "slot": "155",
        "type": "t_array(t_address)dyn_storage"
      },
      {
        "astId": 181,
        "contract": "contracts/ZeroXBlock.sol:ZeroXBlock",
        "label": "_erc20TotalReleased",
        "offset": 0,
        "slot": "156",
        "type": "t_mapping(t_contract(IERC20Upgradeable)1356,t_uint256)"
      },
      {
        "astId": 188,
        "contract": "contracts/ZeroXBlock.sol:ZeroXBlock",
        "label": "_erc20Released",
        "offset": 0,
        "slot": "157",
        "type": "t_mapping(t_contract(IERC20Upgradeable)1356,t_mapping(t_address,t_uint256))"
      },
      {
        "astId": 590,
        "contract": "contracts/ZeroXBlock.sol:ZeroXBlock",
        "label": "__gap",
        "offset": 0,
        "slot": "158",
        "type": "t_array(t_uint256)43_storage"
      },
      {
        "astId": 2586,
        "contract": "contracts/ZeroXBlock.sol:ZeroXBlock",
        "label": "_crm",
        "offset": 0,
        "slot": "201",
        "type": "t_contract(CONTRewardManagement)6376"
      },
      {
        "astId": 2589,
        "contract": "contracts/ZeroXBlock.sol:ZeroXBlock",
        "label": "uniswapV2Router",
        "offset": 0,
        "slot": "202",
        "type": "t_contract(IJoeRouter02)8090"
      },
      {
        "astId": 2594,
        "contract": "contracts/ZeroXBlock.sol:ZeroXBlock",
        "label": "ownedContsLimit",
        "offset": 0,
        "slot": "203",
        "type": "t_uint256"
      },
      {
        "astId": 2596,
        "contract": "contracts/ZeroXBlock.sol:ZeroXBlock",
        "label": "mintContLimit",
        "offset": 0,
        "slot": "204",
        "type": "t_uint256"
      },
      {
        "astId": 2598,
        "contract": "contracts/ZeroXBlock.sol:ZeroXBlock",
        "label": "uniswapV2Pair",
        "offset": 0,
        "slot": "205",
        "type": "t_address"
      },
      {
        "astId": 2600,
        "contract": "contracts/ZeroXBlock.sol:ZeroXBlock",
        "label": "totalTokensPaidForMinting",
        "offset": 0,
        "slot": "206",
        "type": "t_uint256"
      },
      {
        "astId": 2602,
        "contract": "contracts/ZeroXBlock.sol:ZeroXBlock",
        "label": "developmentFundPool",
        "offset": 0,
        "slot": "207",
        "type": "t_address"
      },
      {
        "astId": 2604,
        "contract": "contracts/ZeroXBlock.sol:ZeroXBlock",
        "label": "treasuryPool",
        "offset": 0,
        "slot": "208",
        "type": "t_address"
      },
      {
        "astId": 2606,
        "contract": "contracts/ZeroXBlock.sol:ZeroXBlock",
        "label": "rewardsPool",
        "offset": 0,
        "slot": "209",
        "type": "t_address"
      },
      {
        "astId": 2608,
        "contract": "contracts/ZeroXBlock.sol:ZeroXBlock",
        "label": "liquidityPool",
        "offset": 0,
        "slot": "210",
        "type": "t_address"
      },
      {
        "astId": 2610,
        "contract": "contracts/ZeroXBlock.sol:ZeroXBlock",
        "label": "rewardsFee",
        "offset": 0,
        "slot": "211",
        "type": "t_uint256"
      },
      {
        "astId": 2612,
        "contract": "contracts/ZeroXBlock.sol:ZeroXBlock",
        "label": "treasuryFee",
        "offset": 0,
        "slot": "212",
        "type": "t_uint256"
      },
      {
        "astId": 2614,
        "contract": "contracts/ZeroXBlock.sol:ZeroXBlock",
        "label": "liquidityPoolFee",
        "offset": 0,
        "slot": "213",
        "type": "t_uint256"
      },
      {
        "astId": 2616,
        "contract": "contracts/ZeroXBlock.sol:ZeroXBlock",
        "label": "developmentFee",
        "offset": 0,
        "slot": "214",
        "type": "t_uint256"
      },
      {
        "astId": 2618,
        "contract": "contracts/ZeroXBlock.sol:ZeroXBlock",
        "label": "totalFees",
        "offset": 0,
        "slot": "215",
        "type": "t_uint256"
      },
      {
        "astId": 2620,
        "contract": "contracts/ZeroXBlock.sol:ZeroXBlock",
        "label": "cashoutFee",
        "offset": 0,
        "slot": "216",
        "type": "t_uint256"
      },
      {
        "astId": 2622,
        "contract": "contracts/ZeroXBlock.sol:ZeroXBlock",
        "label": "enableAutoSwapTreasury",
        "offset": 0,
        "slot": "217",
        "type": "t_bool"
      },
      {
        "astId": 2624,
        "contract": "contracts/ZeroXBlock.sol:ZeroXBlock",
        "label": "enableAutoSwapDevFund",
        "offset": 1,
        "slot": "217",
        "type": "t_bool"
      },
      {
        "astId": 2626,
        "contract": "contracts/ZeroXBlock.sol:ZeroXBlock",
        "label": "usdcToken",
        "offset": 2,
        "slot": "217",
        "type": "t_address"
      },
      {
        "astId": 2628,
        "contract": "contracts/ZeroXBlock.sol:ZeroXBlock",
        "label": "antiBotEnabled",
        "offset": 22,
        "slot": "217",
        "type": "t_bool"
      },
      {
        "astId": 2630,
        "contract": "contracts/ZeroXBlock.sol:ZeroXBlock",
        "label": "launchBuyLimit",
        "offset": 0,
        "slot": "218",
        "type": "t_uint256"
      },
      {
        "astId": 2632,
        "contract": "contracts/ZeroXBlock.sol:ZeroXBlock",
        "label": "launchBuyTimeout",
        "offset": 0,
        "slot": "219",
        "type": "t_uint256"
      },
      {
        "astId": 2636,
        "contract": "contracts/ZeroXBlock.sol:ZeroXBlock",
        "label": "_lastBuyOnLaunch",
        "offset": 0,
        "slot": "220",
        "type": "t_mapping(t_address,t_uint256)"
      },
      {
        "astId": 2640,
        "contract": "contracts/ZeroXBlock.sol:ZeroXBlock",
        "label": "_isBlacklisted",
        "offset": 0,
        "slot": "221",
        "type": "t_mapping(t_address,t_bool)"
      },
      {
        "astId": 2644,
        "contract": "contracts/ZeroXBlock.sol:ZeroXBlock",
        "label": "automatedMarketMakerPairs",
        "offset": 0,
        "slot": "222",
        "type": "t_mapping(t_address,t_bool)"
      },
      {
        "astId": 2646,
        "contract": "contracts/ZeroXBlock.sol:ZeroXBlock",
        "label": "enableCashout",
        "offset": 0,
        "slot": "223",
        "type": "t_bool"
      },
      {
        "astId": 2648,
        "contract": "contracts/ZeroXBlock.sol:ZeroXBlock",
        "label": "enableMintConts",
        "offset": 1,
        "slot": "223",
        "type": "t_bool"
      },
      {
        "astId": 2650,
        "contract": "contracts/ZeroXBlock.sol:ZeroXBlock",
        "label": "cashoutTaxPool",
        "offset": 2,
        "slot": "223",
        "type": "t_address"
      },
      {
        "astId": 2653,
        "contract": "contracts/ZeroXBlock.sol:ZeroXBlock",
        "label": "_liqRouter",
        "offset": 0,
        "slot": "224",
        "type": "t_contract(LiquidityRouter)7621"
      }
    ],
    "types": {
      "t_address": {
        "encoding": "inplace",
        "label": "address",
        "numberOfBytes": "20"
      },
      "t_array(t_address)dyn_storage": {
        "base": "t_address",
        "encoding": "dynamic_array",
        "label": "address[]",
        "numberOfBytes": "32"
      },
      "t_array(t_uint256)43_storage": {
        "base": "t_uint256",
        "encoding": "inplace",
        "label": "uint256[43]",
        "numberOfBytes": "1376"
      },
      "t_array(t_uint256)45_storage": {
        "base": "t_uint256",
        "encoding": "inplace",
        "label": "uint256[45]",
        "numberOfBytes": "1440"
      },
      "t_array(t_uint256)49_storage": {
        "base": "t_uint256",
        "encoding": "inplace",
        "label": "uint256[49]",
        "numberOfBytes": "1568"
      },
      "t_array(t_uint256)50_storage": {
        "base": "t_uint256",
        "encoding": "inplace",
        "label": "uint256[50]",
        "numberOfBytes": "1600"
      },
      "t_bool": {
        "encoding": "inplace",
        "label": "bool",
        "numberOfBytes": "1"
      },
      "t_contract(CONTRewardManagement)6376": {
        "encoding": "inplace",
        "label": "contract CONTRewardManagement",
        "numberOfBytes": "20"
      },
      "t_contract(IERC20Upgradeable)1356": {
        "encoding": "inplace",
        "label": "contract IERC20Upgradeable",
        "numberOfBytes": "20"
      },
      "t_contract(IJoeRouter02)8090": {
        "encoding": "inplace",
        "label": "contract IJoeRouter02",
        "numberOfBytes": "20"
      },
      "t_contract(LiquidityRouter)7621": {
        "encoding": "inplace",
        "label": "contract LiquidityRouter",
        "numberOfBytes": "20"
      },
      "t_mapping(t_address,t_bool)": {
        "encoding": "mapping",
        "key": "t_address",
        "label": "mapping(address => bool)",
        "numberOfBytes": "32",
        "value": "t_bool"
      },
      "t_mapping(t_address,t_mapping(t_address,t_uint256))": {
        "encoding": "mapping",
        "key": "t_address",
        "label": "mapping(address => mapping(address => uint256))",
        "numberOfBytes": "32",
        "value": "t_mapping(t_address,t_uint256)"
      },
      "t_mapping(t_address,t_uint256)": {
        "encoding": "mapping",
        "key": "t_address",
        "label": "mapping(address => uint256)",
        "numberOfBytes": "32",
        "value": "t_uint256"
      },
      "t_mapping(t_contract(IERC20Upgradeable)1356,t_mapping(t_address,t_uint256))": {
        "encoding": "mapping",
        "key": "t_contract(IERC20Upgradeable)1356",
        "label": "mapping(contract IERC20Upgradeable => mapping(address => uint256))",
        "numberOfBytes": "32",
        "value": "t_mapping(t_address,t_uint256)"
      },
      "t_mapping(t_contract(IERC20Upgradeable)1356,t_uint256)": {
        "encoding": "mapping",
        "key": "t_contract(IERC20Upgradeable)1356",
        "label": "mapping(contract IERC20Upgradeable => uint256)",
        "numberOfBytes": "32",
        "value": "t_uint256"
      },
      "t_string_storage": {
        "encoding": "bytes",
        "label": "string",
        "numberOfBytes": "32"
      },
      "t_uint256": {
        "encoding": "inplace",
        "label": "uint256",
        "numberOfBytes": "32"
      }
    }
  }
}