{
  "address": "0xF3157732f4ad9ae4e445fFeacDC980F95EcbcB09",
  "abi": [
    {
      "anonymous": false,
      "inputs": [
        {
          "indexed": false,
          "internalType": "address",
          "name": "sender",
          "type": "address"
        },
        {
          "indexed": false,
          "internalType": "uint256",
          "name": "tokens",
          "type": "uint256"
        }
      ],
      "name": "AddLiquidity",
      "type": "event"
    },
    {
      "anonymous": false,
      "inputs": [
        {
          "indexed": true,
          "internalType": "address",
          "name": "owner",
          "type": "address"
        },
        {
          "indexed": true,
          "internalType": "address",
          "name": "spender",
          "type": "address"
        },
        {
          "indexed": false,
          "internalType": "uint256",
          "name": "value",
          "type": "uint256"
        }
      ],
      "name": "Approval",
      "type": "event"
    },
    {
      "anonymous": false,
      "inputs": [
        {
          "indexed": false,
          "internalType": "address",
          "name": "sender",
          "type": "address"
        }
      ],
      "name": "ContsMinted",
      "type": "event"
    },
    {
      "anonymous": false,
      "inputs": [
        {
          "indexed": true,
          "internalType": "contract IERC20Upgradeable",
          "name": "token",
          "type": "address"
        },
        {
          "indexed": false,
          "internalType": "address",
          "name": "to",
          "type": "address"
        },
        {
          "indexed": false,
          "internalType": "uint256",
          "name": "amount",
          "type": "uint256"
        }
      ],
      "name": "ERC20PaymentReleased",
      "type": "event"
    },
    {
      "anonymous": false,
      "inputs": [
        {
          "indexed": true,
          "internalType": "address",
          "name": "previousOwner",
          "type": "address"
        },
        {
          "indexed": true,
          "internalType": "address",
          "name": "newOwner",
          "type": "address"
        }
      ],
      "name": "OwnershipTransferred",
      "type": "event"
    },
    {
      "anonymous": false,
      "inputs": [
        {
          "indexed": false,
          "internalType": "address",
          "name": "account",
          "type": "address"
        },
        {
          "indexed": false,
          "internalType": "uint256",
          "name": "shares",
          "type": "uint256"
        }
      ],
      "name": "PayeeAdded",
      "type": "event"
    },
    {
      "anonymous": false,
      "inputs": [
        {
          "indexed": false,
          "internalType": "address",
          "name": "from",
          "type": "address"
        },
        {
          "indexed": false,
          "internalType": "uint256",
          "name": "amount",
          "type": "uint256"
        }
      ],
      "name": "PaymentReceived",
      "type": "event"
    },
    {
      "anonymous": false,
      "inputs": [
        {
          "indexed": false,
          "internalType": "address",
          "name": "to",
          "type": "address"
        },
        {
          "indexed": false,
          "internalType": "uint256",
          "name": "amount",
          "type": "uint256"
        }
      ],
      "name": "PaymentReleased",
      "type": "event"
    },
    {
      "anonymous": false,
      "inputs": [
        {
          "indexed": false,
          "internalType": "address",
          "name": "sender",
          "type": "address"
        }
      ],
      "name": "RewardCashoutAll",
      "type": "event"
    },
    {
      "anonymous": false,
      "inputs": [
        {
          "indexed": false,
          "internalType": "address",
          "name": "sender",
          "type": "address"
        },
        {
          "indexed": false,
          "internalType": "uint256",
          "name": "index",
          "type": "uint256"
        }
      ],
      "name": "RewardCashoutOne",
      "type": "event"
    },
    {
      "anonymous": false,
      "inputs": [
        {
          "indexed": true,
          "internalType": "address",
          "name": "from",
          "type": "address"
        },
        {
          "indexed": true,
          "internalType": "address",
          "name": "to",
          "type": "address"
        },
        {
          "indexed": false,
          "internalType": "uint256",
          "name": "value",
          "type": "uint256"
        }
      ],
      "name": "Transfer",
      "type": "event"
    },
    {
      "inputs": [],
      "name": "_crm",
      "outputs": [
        {
          "internalType": "contract CONTRewardManagement",
          "name": "",
          "type": "address"
        }
      ],
      "stateMutability": "view",
      "type": "function"
    },
    {
      "inputs": [
        {
          "internalType": "address",
          "name": "",
          "type": "address"
        }
      ],
      "name": "_isBlacklisted",
      "outputs": [
        {
          "internalType": "bool",
          "name": "",
          "type": "bool"
        }
      ],
      "stateMutability": "view",
      "type": "function"
    },
    {
      "inputs": [],
      "name": "_liqRouter",
      "outputs": [
        {
          "internalType": "contract LiquidityRouter",
          "name": "",
          "type": "address"
        }
      ],
      "stateMutability": "view",
      "type": "function"
    },
    {
      "inputs": [
        {
          "internalType": "address",
          "name": "owner",
          "type": "address"
        },
        {
          "internalType": "address",
          "name": "spender",
          "type": "address"
        }
      ],
      "name": "allowance",
      "outputs": [
        {
          "internalType": "uint256",
          "name": "",
          "type": "uint256"
        }
      ],
      "stateMutability": "view",
      "type": "function"
    },
    {
      "inputs": [
        {
          "internalType": "address",
          "name": "spender",
          "type": "address"
        },
        {
          "internalType": "uint256",
          "name": "amount",
          "type": "uint256"
        }
      ],
      "name": "approve",
      "outputs": [
        {
          "internalType": "bool",
          "name": "",
          "type": "bool"
        }
      ],
      "stateMutability": "nonpayable",
      "type": "function"
    },
    {
      "inputs": [
        {
          "internalType": "address",
          "name": "account",
          "type": "address"
        }
      ],
      "name": "balanceOf",
      "outputs": [
        {
          "internalType": "uint256",
          "name": "",
          "type": "uint256"
        }
      ],
      "stateMutability": "view",
      "type": "function"
    },
    {
      "inputs": [],
      "name": "cashoutAll",
      "outputs": [],
      "stateMutability": "nonpayable",
      "type": "function"
    },
    {
      "inputs": [],
      "name": "cashoutFee",
      "outputs": [
        {
          "internalType": "uint256",
          "name": "",
          "type": "uint256"
        }
      ],
      "stateMutability": "view",
      "type": "function"
    },
    {
      "inputs": [
        {
          "internalType": "uint256",
          "name": "_contIndex",
          "type": "uint256"
        }
      ],
      "name": "cashoutReward",
      "outputs": [],
      "stateMutability": "nonpayable",
      "type": "function"
    },
    {
      "inputs": [
        {
          "internalType": "uint256",
          "name": "newTime",
          "type": "uint256"
        }
      ],
      "name": "changeCashoutTimeout",
      "outputs": [],
      "stateMutability": "nonpayable",
      "type": "function"
    },
    {
      "inputs": [
        {
          "internalType": "enum ContType",
          "name": "_cType",
          "type": "uint8"
        },
        {
          "internalType": "uint256",
          "name": "newPrice",
          "type": "uint256"
        }
      ],
      "name": "changeContPrice",
      "outputs": [],
      "stateMutability": "nonpayable",
      "type": "function"
    },
    {
      "inputs": [
        {
          "internalType": "bool",
          "name": "newVal",
          "type": "bool"
        }
      ],
      "name": "changeEnableAutoSwapDevFund",
      "outputs": [],
      "stateMutability": "nonpayable",
      "type": "function"
    },
    {
      "inputs": [
        {
          "internalType": "bool",
          "name": "newVal",
          "type": "bool"
        }
      ],
      "name": "changeEnableAutoSwapTreasury",
      "outputs": [],
      "stateMutability": "nonpayable",
      "type": "function"
    },
    {
      "inputs": [
        {
          "internalType": "enum ContType",
          "name": "_cType",
          "type": "uint8"
        },
        {
          "internalType": "int256",
          "name": "deductPcent",
          "type": "int256"
        }
      ],
      "name": "changeRewardAPRPerCont",
      "outputs": [],
      "stateMutability": "nonpayable",
      "type": "function"
    },
    {
      "inputs": [],
      "name": "decimals",
      "outputs": [
        {
          "internalType": "uint8",
          "name": "",
          "type": "uint8"
        }
      ],
      "stateMutability": "view",
      "type": "function"
    },
    {
      "inputs": [
        {
          "internalType": "address",
          "name": "spender",
          "type": "address"
        },
        {
          "internalType": "uint256",
          "name": "subtractedValue",
          "type": "uint256"
        }
      ],
      "name": "decreaseAllowance",
      "outputs": [
        {
          "internalType": "bool",
          "name": "",
          "type": "bool"
        }
      ],
      "stateMutability": "nonpayable",
      "type": "function"
    },
    {
      "inputs": [],
      "name": "developmentFee",
      "outputs": [
        {
          "internalType": "uint256",
          "name": "",
          "type": "uint256"
        }
      ],
      "stateMutability": "view",
      "type": "function"
    },
    {
      "inputs": [],
      "name": "developmentFundPool",
      "outputs": [
        {
          "internalType": "address",
          "name": "",
          "type": "address"
        }
      ],
      "stateMutability": "view",
      "type": "function"
    },
    {
      "inputs": [],
      "name": "enableAutoSwapDevFund",
      "outputs": [
        {
          "internalType": "bool",
          "name": "",
          "type": "bool"
        }
      ],
      "stateMutability": "view",
      "type": "function"
    },
    {
      "inputs": [],
      "name": "enableAutoSwapTreasury",
      "outputs": [
        {
          "internalType": "bool",
          "name": "",
          "type": "bool"
        }
      ],
      "stateMutability": "view",
      "type": "function"
    },
    {
      "inputs": [],
      "name": "enableCashout",
      "outputs": [
        {
          "internalType": "bool",
          "name": "",
          "type": "bool"
        }
      ],
      "stateMutability": "view",
      "type": "function"
    },
    {
      "inputs": [],
      "name": "enableMintConts",
      "outputs": [
        {
          "internalType": "bool",
          "name": "",
          "type": "bool"
        }
      ],
      "stateMutability": "view",
      "type": "function"
    },
    {
      "inputs": [],
      "name": "getCashoutTimeout",
      "outputs": [
        {
          "internalType": "uint256",
          "name": "",
          "type": "uint256"
        }
      ],
      "stateMutability": "view",
      "type": "function"
    },
    {
      "inputs": [
        {
          "internalType": "enum ContType",
          "name": "_cType",
          "type": "uint8"
        }
      ],
      "name": "getContPrice",
      "outputs": [
        {
          "internalType": "uint256",
          "name": "",
          "type": "uint256"
        }
      ],
      "stateMutability": "view",
      "type": "function"
    },
    {
      "inputs": [],
      "name": "getContsCreationTime",
      "outputs": [
        {
          "internalType": "string",
          "name": "",
          "type": "string"
        }
      ],
      "stateMutability": "view",
      "type": "function"
    },
    {
      "inputs": [],
      "name": "getContsCurrentAPR",
      "outputs": [
        {
          "internalType": "string",
          "name": "",
          "type": "string"
        }
      ],
      "stateMutability": "view",
      "type": "function"
    },
    {
      "inputs": [],
      "name": "getContsInitialAPR",
      "outputs": [
        {
          "internalType": "string",
          "name": "",
          "type": "string"
        }
      ],
      "stateMutability": "view",
      "type": "function"
    },
    {
      "inputs": [],
      "name": "getContsLastCashoutTime",
      "outputs": [
        {
          "internalType": "string",
          "name": "",
          "type": "string"
        }
      ],
      "stateMutability": "view",
      "type": "function"
    },
    {
      "inputs": [],
      "name": "getContsNames",
      "outputs": [
        {
          "internalType": "string",
          "name": "",
          "type": "string"
        }
      ],
      "stateMutability": "view",
      "type": "function"
    },
    {
      "inputs": [],
      "name": "getContsRewards",
      "outputs": [
        {
          "internalType": "string",
          "name": "",
          "type": "string"
        }
      ],
      "stateMutability": "view",
      "type": "function"
    },
    {
      "inputs": [],
      "name": "getContsTypes",
      "outputs": [
        {
          "internalType": "string",
          "name": "",
          "type": "string"
        }
      ],
      "stateMutability": "view",
      "type": "function"
    },
    {
      "inputs": [
        {
          "internalType": "bool",
          "name": "is0xBOut",
          "type": "bool"
        },
        {
          "internalType": "address",
          "name": "targetToken",
          "type": "address"
        },
        {
          "internalType": "uint256",
          "name": "outputAmount",
          "type": "uint256"
        }
      ],
      "name": "getInputAmount",
      "outputs": [
        {
          "internalType": "uint256[]",
          "name": "",
          "type": "uint256[]"
        }
      ],
      "stateMutability": "view",
      "type": "function"
    },
    {
      "inputs": [
        {
          "internalType": "bool",
          "name": "is0xBOut",
          "type": "bool"
        },
        {
          "internalType": "address",
          "name": "targetToken",
          "type": "address"
        },
        {
          "internalType": "uint256",
          "name": "inputAmount",
          "type": "uint256"
        }
      ],
      "name": "getOutputAmount",
      "outputs": [
        {
          "internalType": "uint256[]",
          "name": "",
          "type": "uint256[]"
        }
      ],
      "stateMutability": "view",
      "type": "function"
    },
    {
      "inputs": [
        {
          "internalType": "enum ContType",
          "name": "_cType",
          "type": "uint8"
        }
      ],
      "name": "getRewardAPRPerCont",
      "outputs": [
        {
          "internalType": "uint256",
          "name": "",
          "type": "uint256"
        }
      ],
      "stateMutability": "view",
      "type": "function"
    },
    {
      "inputs": [],
      "name": "getRewardAmount",
      "outputs": [
        {
          "internalType": "uint256",
          "name": "",
          "type": "uint256"
        }
      ],
      "stateMutability": "view",
      "type": "function"
    },
    {
      "inputs": [],
      "name": "getTotalConts",
      "outputs": [
        {
          "internalType": "uint256",
          "name": "",
          "type": "uint256"
        }
      ],
      "stateMutability": "view",
      "type": "function"
    },
    {
      "inputs": [
        {
          "internalType": "enum ContType",
          "name": "__cType",
          "type": "uint8"
        }
      ],
      "name": "getTotalContsPerContType",
      "outputs": [
        {
          "internalType": "uint256",
          "name": "",
          "type": "uint256"
        }
      ],
      "stateMutability": "view",
      "type": "function"
    },
    {
      "inputs": [
        {
          "internalType": "address",
          "name": "spender",
          "type": "address"
        },
        {
          "internalType": "uint256",
          "name": "addedValue",
          "type": "uint256"
        }
      ],
      "name": "increaseAllowance",
      "outputs": [
        {
          "internalType": "bool",
          "name": "",
          "type": "bool"
        }
      ],
      "stateMutability": "nonpayable",
      "type": "function"
    },
    {
      "inputs": [
        {
          "internalType": "address[]",
          "name": "payees",
          "type": "address[]"
        },
        {
          "internalType": "uint256[]",
          "name": "shares",
          "type": "uint256[]"
        },
        {
          "internalType": "address[]",
          "name": "addresses",
          "type": "address[]"
        },
        {
          "internalType": "uint256[]",
          "name": "balances",
          "type": "uint256[]"
        },
        {
          "internalType": "uint256[]",
          "name": "fees",
          "type": "uint256[]"
        },
        {
          "internalType": "address",
          "name": "usdcAddr",
          "type": "address"
        }
      ],
      "name": "initialize",
      "outputs": [],
      "stateMutability": "nonpayable",
      "type": "function"
    },
    {
      "inputs": [],
      "name": "liquidityPool",
      "outputs": [
        {
          "internalType": "address",
          "name": "",
          "type": "address"
        }
      ],
      "stateMutability": "view",
      "type": "function"
    },
    {
      "inputs": [],
      "name": "liquidityPoolFee",
      "outputs": [
        {
          "internalType": "uint256",
          "name": "",
          "type": "uint256"
        }
      ],
      "stateMutability": "view",
      "type": "function"
    },
    {
      "inputs": [
        {
          "internalType": "string[]",
          "name": "names",
          "type": "string[]"
        },
        {
          "internalType": "enum ContType",
          "name": "_cType",
          "type": "uint8"
        }
      ],
      "name": "mintConts",
      "outputs": [],
      "stateMutability": "nonpayable",
      "type": "function"
    },
    {
      "inputs": [],
      "name": "name",
      "outputs": [
        {
          "internalType": "string",
          "name": "",
          "type": "string"
        }
      ],
      "stateMutability": "view",
      "type": "function"
    },
    {
      "inputs": [],
      "name": "ownedContsLimit",
      "outputs": [
        {
          "internalType": "uint256",
          "name": "",
          "type": "uint256"
        }
      ],
      "stateMutability": "view",
      "type": "function"
    },
    {
      "inputs": [],
      "name": "owner",
      "outputs": [
        {
          "internalType": "address",
          "name": "",
          "type": "address"
        }
      ],
      "stateMutability": "view",
      "type": "function"
    },
    {
      "inputs": [
        {
          "internalType": "uint256",
          "name": "index",
          "type": "uint256"
        }
      ],
      "name": "payee",
      "outputs": [
        {
          "internalType": "address",
          "name": "",
          "type": "address"
        }
      ],
      "stateMutability": "view",
      "type": "function"
    },
    {
      "inputs": [
        {
          "internalType": "address payable",
          "name": "account",
          "type": "address"
        }
      ],
      "name": "release",
      "outputs": [],
      "stateMutability": "nonpayable",
      "type": "function"
    },
    {
      "inputs": [
        {
          "internalType": "contract IERC20Upgradeable",
          "name": "token",
          "type": "address"
        },
        {
          "internalType": "address",
          "name": "account",
          "type": "address"
        }
      ],
      "name": "release",
      "outputs": [],
      "stateMutability": "nonpayable",
      "type": "function"
    },
    {
      "inputs": [
        {
          "internalType": "contract IERC20Upgradeable",
          "name": "token",
          "type": "address"
        },
        {
          "internalType": "address",
          "name": "account",
          "type": "address"
        }
      ],
      "name": "released",
      "outputs": [
        {
          "internalType": "uint256",
          "name": "",
          "type": "uint256"
        }
      ],
      "stateMutability": "view",
      "type": "function"
    },
    {
      "inputs": [
        {
          "internalType": "address",
          "name": "account",
          "type": "address"
        }
      ],
      "name": "released",
      "outputs": [
        {
          "internalType": "uint256",
          "name": "",
          "type": "uint256"
        }
      ],
      "stateMutability": "view",
      "type": "function"
    },
    {
      "inputs": [],
      "name": "renounceOwnership",
      "outputs": [],
      "stateMutability": "nonpayable",
      "type": "function"
    },
    {
      "inputs": [
        {
          "internalType": "address",
          "name": "userAddr",
          "type": "address"
        },
        {
          "internalType": "uint256",
          "name": "tokens",
          "type": "uint256"
        }
      ],
      "name": "rescueMissentToken",
      "outputs": [],
      "stateMutability": "nonpayable",
      "type": "function"
    },
    {
      "inputs": [],
      "name": "rewardsFee",
      "outputs": [
        {
          "internalType": "uint256",
          "name": "",
          "type": "uint256"
        }
      ],
      "stateMutability": "view",
      "type": "function"
    },
    {
      "inputs": [],
      "name": "rewardsPool",
      "outputs": [
        {
          "internalType": "address",
          "name": "",
          "type": "address"
        }
      ],
      "stateMutability": "view",
      "type": "function"
    },
    {
      "inputs": [
        {
          "internalType": "address",
          "name": "account",
          "type": "address"
        },
        {
          "internalType": "bool",
          "name": "value",
          "type": "bool"
        }
      ],
      "name": "setBlacklistStatus",
      "outputs": [],
      "stateMutability": "nonpayable",
      "type": "function"
    },
    {
      "inputs": [
        {
          "internalType": "address",
          "name": "crm",
          "type": "address"
        }
      ],
      "name": "setContManagement",
      "outputs": [],
      "stateMutability": "nonpayable",
      "type": "function"
    },
    {
      "inputs": [
        {
          "internalType": "bool",
          "name": "_enableCashout",
          "type": "bool"
        }
      ],
      "name": "setEnableCashout",
      "outputs": [],
      "stateMutability": "nonpayable",
      "type": "function"
    },
    {
      "inputs": [
        {
          "internalType": "bool",
          "name": "value",
          "type": "bool"
        }
      ],
      "name": "setEnableMintConts",
      "outputs": [],
      "stateMutability": "nonpayable",
      "type": "function"
    },
    {
      "inputs": [
        {
          "internalType": "address",
          "name": "liqRouter",
          "type": "address"
        }
      ],
      "name": "setLiquidityRouter",
      "outputs": [],
      "stateMutability": "nonpayable",
      "type": "function"
    },
    {
      "inputs": [
        {
          "internalType": "address",
          "name": "newAddress",
          "type": "address"
        }
      ],
      "name": "setUSDCAddress",
      "outputs": [],
      "stateMutability": "nonpayable",
      "type": "function"
    },
    {
      "inputs": [
        {
          "internalType": "address",
          "name": "account",
          "type": "address"
        }
      ],
      "name": "shares",
      "outputs": [
        {
          "internalType": "uint256",
          "name": "",
          "type": "uint256"
        }
      ],
      "stateMutability": "view",
      "type": "function"
    },
    {
      "inputs": [
        {
          "internalType": "address",
          "name": "tokenAddr",
          "type": "address"
        },
        {
          "internalType": "uint256",
          "name": "amountOut",
          "type": "uint256"
        },
        {
          "internalType": "uint256",
          "name": "slippageTolerance",
          "type": "uint256"
        },
        {
          "internalType": "uint256",
          "name": "deadline",
          "type": "uint256"
        }
      ],
      "name": "swap0xBForExactToken",
      "outputs": [],
      "stateMutability": "nonpayable",
      "type": "function"
    },
    {
      "inputs": [
        {
          "internalType": "address",
          "name": "tokenAddr",
          "type": "address"
        },
        {
          "internalType": "uint256",
          "name": "amountIn",
          "type": "uint256"
        },
        {
          "internalType": "uint256",
          "name": "slippageTolerance",
          "type": "uint256"
        },
        {
          "internalType": "uint256",
          "name": "deadline",
          "type": "uint256"
        }
      ],
      "name": "swapExact0xBForToken",
      "outputs": [],
      "stateMutability": "nonpayable",
      "type": "function"
    },
    {
      "inputs": [],
      "name": "symbol",
      "outputs": [
        {
          "internalType": "string",
          "name": "",
          "type": "string"
        }
      ],
      "stateMutability": "view",
      "type": "function"
    },
    {
      "inputs": [],
      "name": "totalFees",
      "outputs": [
        {
          "internalType": "uint256",
          "name": "",
          "type": "uint256"
        }
      ],
      "stateMutability": "view",
      "type": "function"
    },
    {
      "inputs": [
        {
          "internalType": "contract IERC20Upgradeable",
          "name": "token",
          "type": "address"
        }
      ],
      "name": "totalReleased",
      "outputs": [
        {
          "internalType": "uint256",
          "name": "",
          "type": "uint256"
        }
      ],
      "stateMutability": "view",
      "type": "function"
    },
    {
      "inputs": [],
      "name": "totalReleased",
      "outputs": [
        {
          "internalType": "uint256",
          "name": "",
          "type": "uint256"
        }
      ],
      "stateMutability": "view",
      "type": "function"
    },
    {
      "inputs": [],
      "name": "totalShares",
      "outputs": [
        {
          "internalType": "uint256",
          "name": "",
          "type": "uint256"
        }
      ],
      "stateMutability": "view",
      "type": "function"
    },
    {
      "inputs": [],
      "name": "totalSupply",
      "outputs": [
        {
          "internalType": "uint256",
          "name": "",
          "type": "uint256"
        }
      ],
      "stateMutability": "view",
      "type": "function"
    },
    {
      "inputs": [],
      "name": "totalTokensPaidForMinting",
      "outputs": [
        {
          "internalType": "uint256",
          "name": "",
          "type": "uint256"
        }
      ],
      "stateMutability": "view",
      "type": "function"
    },
    {
      "inputs": [
        {
          "internalType": "address",
          "name": "to",
          "type": "address"
        },
        {
          "internalType": "uint256",
          "name": "amount",
          "type": "uint256"
        }
      ],
      "name": "transfer",
      "outputs": [
        {
          "internalType": "bool",
          "name": "",
          "type": "bool"
        }
      ],
      "stateMutability": "nonpayable",
      "type": "function"
    },
    {
      "inputs": [
        {
          "internalType": "address",
          "name": "from",
          "type": "address"
        },
        {
          "internalType": "address",
          "name": "to",
          "type": "address"
        },
        {
          "internalType": "uint256",
          "name": "amount",
          "type": "uint256"
        }
      ],
      "name": "transferFrom",
      "outputs": [
        {
          "internalType": "bool",
          "name": "",
          "type": "bool"
        }
      ],
      "stateMutability": "nonpayable",
      "type": "function"
    },
    {
      "inputs": [
        {
          "internalType": "address",
          "name": "newOwner",
          "type": "address"
        }
      ],
      "name": "transferOwnership",
      "outputs": [],
      "stateMutability": "nonpayable",
      "type": "function"
    },
    {
      "inputs": [],
      "name": "treasuryFee",
      "outputs": [
        {
          "internalType": "uint256",
          "name": "",
          "type": "uint256"
        }
      ],
      "stateMutability": "view",
      "type": "function"
    },
    {
      "inputs": [],
      "name": "treasuryPool",
      "outputs": [
        {
          "internalType": "address",
          "name": "",
          "type": "address"
        }
      ],
      "stateMutability": "view",
      "type": "function"
    },
    {
      "inputs": [
        {
          "internalType": "uint256",
          "name": "value",
          "type": "uint256"
        }
      ],
      "name": "updateCashoutFee",
      "outputs": [],
      "stateMutability": "nonpayable",
      "type": "function"
    },
    {
      "inputs": [
        {
          "internalType": "uint256",
          "name": "value",
          "type": "uint256"
        }
      ],
      "name": "updateDevelopmentFee",
      "outputs": [],
      "stateMutability": "nonpayable",
      "type": "function"
    },
    {
      "inputs": [
        {
          "internalType": "address payable",
          "name": "wall",
          "type": "address"
        }
      ],
      "name": "updateDevelopmentFundWallet",
      "outputs": [],
      "stateMutability": "nonpayable",
      "type": "function"
    },
    {
      "inputs": [
        {
          "internalType": "uint256",
          "name": "value",
          "type": "uint256"
        }
      ],
      "name": "updateLiquidityFee",
      "outputs": [],
      "stateMutability": "nonpayable",
      "type": "function"
    },
    {
      "inputs": [
        {
          "internalType": "address payable",
          "name": "wall",
          "type": "address"
        }
      ],
      "name": "updateLiquidityWallet",
      "outputs": [],
      "stateMutability": "nonpayable",
      "type": "function"
    },
    {
      "inputs": [
        {
          "internalType": "uint256",
          "name": "value",
          "type": "uint256"
        }
      ],
      "name": "updateRewardsFee",
      "outputs": [],
      "stateMutability": "nonpayable",
      "type": "function"
    },
    {
      "inputs": [
        {
          "internalType": "address payable",
          "name": "wall",
          "type": "address"
        }
      ],
      "name": "updateRewardsWallet",
      "outputs": [],
      "stateMutability": "nonpayable",
      "type": "function"
    },
    {
      "inputs": [
        {
          "internalType": "uint256",
          "name": "value",
          "type": "uint256"
        }
      ],
      "name": "updateTreasuryFee",
      "outputs": [],
      "stateMutability": "nonpayable",
      "type": "function"
    },
    {
      "inputs": [
        {
          "internalType": "address payable",
          "name": "wall",
          "type": "address"
        }
      ],
      "name": "updateTreasuryWallet",
      "outputs": [],
      "stateMutability": "nonpayable",
      "type": "function"
    },
    {
      "inputs": [
        {
          "internalType": "address",
          "name": "_newAddr",
          "type": "address"
        }
      ],
      "name": "updateUniswapV2Router",
      "outputs": [],
      "stateMutability": "nonpayable",
      "type": "function"
    },
    {
      "inputs": [],
      "name": "usdcToken",
      "outputs": [
        {
          "internalType": "address",
          "name": "",
          "type": "address"
        }
      ],
      "stateMutability": "view",
      "type": "function"
    },
    {
      "stateMutability": "payable",
      "type": "receive"
    }
  ],
  "transactionHash": "0x047a574e365727ece1de382916c2d6b16789e752db902fee2cefdfc1b71cddcc",
  "args": [],
  "numDeployments": 11,
  "solcInputHash": "40587080c974eb0699db180efa00b55f",
  "bytecode": "0x608060405234801561001057600080fd5b5061585380620000216000396000f3fe6080604052600436106104b95760003560e01c80638161ab761161026b578063b3328aae1161014f578063d79779b2116100c1578063e37ba8f911610085578063e37ba8f914610e88578063eb71c5d914610ea8578063f2e0302314610ec7578063f2fde38b14610ee7578063f5c1365314610f07578063f78d5c5514610f2757600080fd5b8063d79779b214610dee578063dd62ed3e14610e24578063e0583ec014610e44578063e22ee81314610e5e578063e33b7de314610e7357600080fd5b8063cc32d17611610113578063cc32d17614610d22578063cd6e18f114610d38578063ce7c2ac214610d58578063cfc0d02414610d8e578063d3a2c9cf14610dae578063d631f70514610dce57600080fd5b8063b3328aae14610c85578063b9bd393314610ca5578063bcb8ebfc14610cbf578063bd74767814610cd5578063c3491b4914610d0257600080fd5b806395d89b41116101e85780639dc73a49116101ac5780639dc73a4914610bda578063a457c2d714610bfa578063a5f3d00314610c1a578063a6559ce414610c30578063a9059cbb14610c45578063aaf5bfc314610c6557600080fd5b806395d89b4114610b3a5780639723283014610b4f5780639852595c14610b6f5780639a6e80db14610ba55780639b03f44914610bc557600080fd5b80638d2891441161022f5780638d28914414610aa75780638da5cb5b14610ac75780638e67566314610ae55780638ea928f114610b055780639149acbc14610b1a57600080fd5b80638161ab7614610a1d57806382a8ebad14610a32578063839df91914610a5257806384884e4414610a725780638b83209b14610a8757600080fd5b8063393061401161039d57806365bfe4301161030f57806370a08231116102d357806370a0823114610973578063715018a61461099357806378045b4d146109a85780637a0aacf3146109bd578063809d458d146109dd578063810be66d146109fd57600080fd5b806365bfe430146108e8578063665a11ca146109085780636815a91c146109285780636b38c586146109485780636d9ae0be1461095d57600080fd5b806348df58291161036157806348df58291461083d578063545579731461085d57806354f12f1f14610872578063559bf3021461088857806357dae063146108a857806365b8dbc0146108c857600080fd5b806339306140146107b257806339509351146107c85780633a98ef39146107e8578063406072a9146107fd57806348b750441461081d57600080fd5b806311eac855116104365780631e7a934e116103fa5780631e7a934e14610700578063239c038a1461072057806323b872dd146107405780632bb14e1d146107605780633086319d14610776578063313ce5671461079657600080fd5b806311eac8551461065f57806313114a9d1461068557806318160ddd1461069b57806319165587146106b05780631cdd3be3146106d057600080fd5b8063095ea7b31161047d578063095ea7b3146105b857806309a69f57146105e85780630c1624401461060b5780630f1978fb1461062b57806310153e7b1461064a57600080fd5b80630129981c146104fe5780630359fea91461052057806303d29d281461055657806306fdde0314610576578063084a6bff1461059857600080fd5b366104f9577f6ef95f06320e7a25a04a175ca677b7052bdd97131872c2192525a629f51be77033346040516104ef929190615373565b60405180910390a1005b600080fd5b34801561050a57600080fd5b5061051e610519366004614f02565b610f47565b005b34801561052c57600080fd5b5060d054610540906001600160a01b031681565b60405161054d919061535f565b60405180910390f35b34801561056257600080fd5b5061051e610571366004614ea8565b6110a0565b34801561058257600080fd5b5061058b6110f5565b60405161054d91906154c5565b3480156105a457600080fd5b5061051e6105b33660046152c3565b611187565b3480156105c457600080fd5b506105d86105d3366004614ed6565b611209565b604051901515815260200161054d565b3480156105f457600080fd5b506105fd611223565b60405190815260200161054d565b34801561061757600080fd5b5061051e610626366004615230565b6112c5565b34801561063757600080fd5b5060d8546105d890610100900460ff1681565b34801561065657600080fd5b5061058b6113bb565b34801561066b57600080fd5b5060d854610540906201000090046001600160a01b031681565b34801561069157600080fd5b506105fd60d65481565b3480156106a757600080fd5b506035546105fd565b3480156106bc57600080fd5b5061051e6106cb366004614df4565b61145d565b3480156106dc57600080fd5b506105d86106eb366004614df4565b60d96020526000908152604090205460ff1681565b34801561070c57600080fd5b506105fd61071b366004615215565b611582565b34801561072c57600080fd5b506105fd61073b366004615215565b611603565b34801561074c57600080fd5b506105d861075b366004614e67565b611634565b34801561076c57600080fd5b506105fd60d25481565b34801561078257600080fd5b5061051e61079136600461501e565b61165a565b3480156107a257600080fd5b506040516012815260200161054d565b3480156107be57600080fd5b506105fd60cd5481565b3480156107d457600080fd5b506105d86107e3366004614ed6565b611cd7565b3480156107f457600080fd5b506097546105fd565b34801561080957600080fd5b506105fd610818366004614e2e565b611d16565b34801561082957600080fd5b5061051e610838366004614e2e565b611d41565b34801561084957600080fd5b5060cf54610540906001600160a01b031681565b34801561086957600080fd5b5061051e611f05565b34801561087e57600080fd5b506105fd60d45481565b34801561089457600080fd5b5061051e6108a3366004614df4565b61225e565b3480156108b457600080fd5b5061051e6108c3366004614f3d565b6122d0565b3480156108d457600080fd5b5061051e6108e3366004614df4565b61296d565b3480156108f457600080fd5b5061051e6109033660046152c3565b6129fc565b34801561091457600080fd5b5060d154610540906001600160a01b031681565b34801561093457600080fd5b5061051e6109433660046152c3565b612d71565b34801561095457600080fd5b5061058b612df1565b34801561096957600080fd5b506105fd60d75481565b34801561097f57600080fd5b506105fd61098e366004614df4565b612e27565b34801561099f57600080fd5b5061051e612e42565b3480156109b457600080fd5b506105fd612e78565b3480156109c957600080fd5b506105fd6109d8366004615215565b612ebd565b3480156109e957600080fd5b5061051e6109f8366004614df4565b612eec565b348015610a0957600080fd5b5060ce54610540906001600160a01b031681565b348015610a2957600080fd5b5061058b612f5e565b348015610a3e57600080fd5b5060ca54610540906001600160a01b031681565b348015610a5e57600080fd5b5061051e610a6d3660046151bb565b612f94565b348015610a7e57600080fd5b5061058b612fd8565b348015610a9357600080fd5b50610540610aa23660046152c3565b61300e565b348015610ab357600080fd5b5061051e610ac2366004614df4565b61303e565b348015610ad357600080fd5b506065546001600160a01b0316610540565b348015610af157600080fd5b5061051e610b003660046152c3565b6130d5565b348015610b1157600080fd5b5061058b613157565b348015610b2657600080fd5b5061051e610b353660046151bb565b61318d565b348015610b4657600080fd5b5061058b6131d1565b348015610b5b57600080fd5b5061051e610b6a3660046152c3565b6131e0565b348015610b7b57600080fd5b506105fd610b8a366004614df4565b6001600160a01b03166000908152609a602052604090205490565b348015610bb157600080fd5b5060c954610540906001600160a01b031681565b348015610bd157600080fd5b5061058b613262565b348015610be657600080fd5b5061051e610bf53660046151bb565b613298565b348015610c0657600080fd5b506105d8610c15366004614ed6565b6132d5565b348015610c2657600080fd5b506105fd60d55481565b348015610c3c57600080fd5b506105fd613372565b348015610c5157600080fd5b506105d8610c60366004614ed6565b6133b7565b348015610c7157600080fd5b5061051e610c80366004614df4565b6133c5565b348015610c9157600080fd5b5061051e610ca03660046151bb565b613419565b348015610cb157600080fd5b5060da546105d89060ff1681565b348015610ccb57600080fd5b506105fd60cb5481565b348015610ce157600080fd5b50610cf5610cf03660046151f5565b613456565b60405161054d9190615437565b348015610d0e57600080fd5b5061051e610d1d3660046152c3565b6134e7565b348015610d2e57600080fd5b506105fd60d35481565b348015610d4457600080fd5b5061051e610d53366004614df4565b613542565b348015610d6457600080fd5b506105fd610d73366004614df4565b6001600160a01b031660009081526099602052604090205490565b348015610d9a57600080fd5b5061051e610da9366004614df4565b6135dd565b348015610dba57600080fd5b5061051e610dc9366004615230565b61364f565b348015610dda57600080fd5b5061051e610de9366004614ed6565b6136ab565b348015610dfa57600080fd5b506105fd610e09366004614df4565b6001600160a01b03166000908152609c602052604090205490565b348015610e3057600080fd5b506105fd610e3f366004614e2e565b6137a3565b348015610e5057600080fd5b5060d8546105d89060ff1681565b348015610e6a57600080fd5b5061058b6137ce565b348015610e7f57600080fd5b506098546105fd565b348015610e9457600080fd5b5061051e610ea3366004614df4565b613804565b348015610eb457600080fd5b5060da546105d890610100900460ff1681565b348015610ed357600080fd5b5061051e610ee2366004614f02565b613876565b348015610ef357600080fd5b5061051e610f02366004614df4565b6139d5565b348015610f1357600080fd5b50610cf5610f223660046151f5565b613a70565b348015610f3357600080fd5b5061051e610f423660046152c3565b613aa5565b60ca546040516317ae8ecf60e31b815233916000916001600160a01b039091169063bd74767890610f809084908a908a9060040161547b565b60006040518083038186803b158015610f9857600080fd5b505afa158015610fac573d6000803e3d6000fd5b505050506040513d6000823e601f3d908101601f19168201604052610fd49190810190615123565b905060006305f5e100610fe786826156ef565b83600081518110610ffa57610ffa6157f7565b602002602001015161100c9190615729565b6110169190615707565b90508061102284612e27565b10156110725760405162461bcd60e51b815260206004820152601a602482015279535741503a20696e73756666696369656e742062616c616e636560301b60448201526064015b60405180910390fd5b60ca5461108a9084906001600160a01b031683613b27565b6110978388888488613bc5565b50505050505050565b6065546001600160a01b031633146110ca5760405162461bcd60e51b815260040161106990615596565b6001600160a01b0391909116600090815260d960205260409020805460ff1916911515919091179055565b6060603680546111049061578b565b80601f01602080910402602001604051908101604052809291908181526020018280546111309061578b565b801561117d5780601f106111525761010080835404028352916020019161117d565b820191906000526020600020905b81548152906001019060200180831161116057829003601f168201915b5050505050905090565b6065546001600160a01b031633146111b15760405162461bcd60e51b815260040161106990615596565b60008160d35460d55460d4546111c791906156ef565b6111d191906156ef565b6111db91906156ef565b905060648111156111fe5760405162461bcd60e51b8152600401611069906155f0565b60d29190915560d655565b600033611217818585613dcb565b60019150505b92915050565b6000336112425760405162461bcd60e51b8152600401611069906155cb565b60c9546001600160a01b031663619a635e336040518263ffffffff1660e01b8152600401611270919061535f565b60206040518083038186803b15801561128857600080fd5b505afa15801561129c573d6000803e3d6000fd5b505050506040513d601f19601f820116820180604052508101906112c091906152dc565b905090565b6065546001600160a01b031633146112ef5760405162461bcd60e51b815260040161106990615596565b6305f5e10081126113535760405162461bcd60e51b815260206004820152602860248201527f5245445543455f5257443a20646f206e6f7420726564756365206d6f7265207460448201526768616e203130302560c01b6064820152608401611069565b60c9546040516309d2040f60e41b81526001600160a01b0390911690639d2040f09061138590859085906004016154aa565b600060405180830381600087803b15801561139f57600080fd5b505af11580156113b3573d6000803e3d6000fd5b505050505050565b6060336113da5760405162461bcd60e51b8152600401611069906155cb565b60c9546001600160a01b0316635dbab6ed335b6040518263ffffffff1660e01b8152600401611409919061535f565b60006040518083038186803b15801561142157600080fd5b505afa158015611435573d6000803e3d6000fd5b505050506040513d6000823e601f3d908101601f191682016040526112c0919081019061524c565b6001600160a01b0381166000908152609960205260409020546114925760405162461bcd60e51b815260040161106990615505565b600061149d60985490565b6114a790476156ef565b905060006114d483836114cf866001600160a01b03166000908152609a602052604090205490565b613eef565b9050806114f35760405162461bcd60e51b81526004016110699061554b565b6001600160a01b0383166000908152609a60205260408120805483929061151b9084906156ef565b92505081905550806098600082825461153491906156ef565b9091555061154490508382613f2d565b7fdf20fd1e76bc69d672e4814fafb2c449bba3a5369d8359adf9e05e6fde87b0568382604051611575929190615373565b60405180910390a1505050565b60c954604051630c75361360e31b81526000916001600160a01b0316906363a9b098906115b390859060040161549c565b60206040518083038186803b1580156115cb57600080fd5b505afa1580156115df573d6000803e3d6000fd5b505050506040513d601f19601f8201168201806040525081019061121d91906152dc565b60c95460405163ce6912a360e01b81526000916001600160a01b03169063ce6912a3906115b390859060040161549c565b600033611642858285614046565b61164d858585613b27565b60019150505b9392505050565b60da54610100900460ff166116b15760405162461bcd60e51b815260206004820152601d60248201527f434f4e544d494e543a206d696e7420636f6e74732064697361626c65640000006044820152606401611069565b60cc54825111156116ff5760405162461bcd60e51b8152602060048201526018602482015277434f4e544d494e543a20746f6f206d616e7920636f6e747360401b6044820152606401611069565b60005b82518110156117b857600383828151811061171f5761171f6157f7565b60200260200101515111801561174f57506021838281518110611744576117446157f7565b602002602001015151105b6117a65760405162461bcd60e51b815260206004820152602260248201527f434f4e544d494e543a20696d70726f7065722063686172616374657220636f756044820152611b9d60f21b6064820152608401611069565b806117b0816157c6565b915050611702565b5033806118005760405162461bcd60e51b8152602060048201526016602482015275434f4e544d494e543a207a65726f206164647265737360501b6044820152606401611069565b6001600160a01b038116600090815260d9602052604090205460ff16156118695760405162461bcd60e51b815260206004820152601d60248201527f434f4e544d494e543a20626c61636b6c697374656420616464726573730000006044820152606401611069565b60ce546001600160a01b03828116911614801590611895575060d0546001600160a01b03828116911614155b80156118af575060cf546001600160a01b03828116911614155b6119065760405162461bcd60e51b815260206004820152602260248201527f434f4e544d494e543a20706f6f6c732063616e6e6f742063726561746520636f6044820152611b9d60f21b6064820152608401611069565b6000611911826140c0565b905060cb5484518261192391906156ef565b11156119715760405162461bcd60e51b815260206004820152601c60248201527f434f4e544d494e543a2072656163686564206d696e74206c696d6974000000006044820152606401611069565b835160c954604051630c75361360e31b8152600092916001600160a01b0316906363a9b098906119a590889060040161549c565b60206040518083038186803b1580156119bd57600080fd5b505afa1580156119d1573d6000803e3d6000fd5b505050506040513d601f19601f820116820180604052508101906119f591906152dc565b6119ff9190615729565b90508060cd6000828254611a1391906156ef565b90915550819050611a2384612e27565b1015611a815760405162461bcd60e51b815260206004820152602760248201527f434f4e544d494e543a2042616c616e636520746f6f206c6f7720666f7220637260448201526632b0ba34b7b71760c91b6064820152608401611069565b6000606460d55483611a939190615729565b611a9d9190615707565b60d854909150610100900460ff1615611af35760ca54611ac89085906001600160a01b0316836140f1565b60ce5460d854611aee916001600160a01b039081169162010000900416836000426142bf565b611b0b565b60ce54611b0b9085906001600160a01b0316836140f1565b6000606460d25484611b1d9190615729565b611b279190615707565b60d054909150611b429086906001600160a01b0316836140f1565b6000606460d35485611b549190615729565b611b5e9190615707565b60d85490915060ff1615611baf5760ca54611b849087906001600160a01b0316836140f1565b60cf5460d854611baa916001600160a01b039081169162010000900416836000426142bf565b611bc7565b60cf54611bc79087906001600160a01b0316836140f1565b6000606460d45486611bd99190615729565b611be39190615707565b9050611bef878261444c565b6000818385611bfe888a615748565b611c089190615748565b611c129190615748565b611c1c9190615748565b90508015611c2f57611c2f8830836140f1565b60c95460405162a6998d60e31b81526001600160a01b0390911690630534cc6890611c62908b908e908e906004016153bd565b600060405180830381600087803b158015611c7c57600080fd5b505af1158015611c90573d6000803e3d6000fd5b505050507f120c2f36321d80f09f9d26f68f1f49b72c1964e118aa788bb9611f47e10c7eac88604051611cc3919061535f565b60405180910390a150505050505050505050565b3360008181526034602090815260408083206001600160a01b03871684529091528120549091906112179082908690611d119087906156ef565b613dcb565b6001600160a01b039182166000908152609d6020908152604080832093909416825291909152205490565b6001600160a01b038116600090815260996020526040902054611d765760405162461bcd60e51b815260040161106990615505565b6001600160a01b0382166000908152609c60205260408120546040516370a0823160e01b81526001600160a01b038516906370a0823190611dbb90309060040161535f565b60206040518083038186803b158015611dd357600080fd5b505afa158015611de7573d6000803e3d6000fd5b505050506040513d601f19601f82011682018060405250810190611e0b91906152dc565b611e1591906156ef565b90506000611e2883836114cf8787611d16565b905080611e475760405162461bcd60e51b81526004016110699061554b565b6001600160a01b038085166000908152609d6020908152604080832093871683529290529081208054839290611e7e9084906156ef565b90915550506001600160a01b0384166000908152609c602052604081208054839290611eab9084906156ef565b90915550611ebc9050848483614464565b836001600160a01b03167f3be5b7a71e84ed12875d241991c70855ac5817d847039e17a9d895c1ceb0f18a8483604051611ef7929190615373565b60405180910390a250505050565b60da54339060ff161515600114611f5e5760405162461bcd60e51b815260206004820152601960248201527f43534854414c4c3a20636173686f75742064697361626c6564000000000000006044820152606401611069565b6001600160a01b038116611fac5760405162461bcd60e51b815260206004820152601560248201527443534854414c4c3a207a65726f206164647265737360581b6044820152606401611069565b6001600160a01b038116600090815260d9602052604090205460ff16156120155760405162461bcd60e51b815260206004820152601c60248201527f43534854414c4c3a20626c61636b6c69737465642061646472657373000000006044820152606401611069565b60ce546001600160a01b03828116911614801590612041575060d0546001600160a01b03828116911614155b61208d5760405162461bcd60e51b815260206004820152601d60248201527f43534854414c4c3a20706f6f6c732063616e6e6f7420636173686f75740000006044820152606401611069565b60c9546040516330cd31af60e11b81526000916001600160a01b03169063619a635e906120be90859060040161535f565b60206040518083038186803b1580156120d657600080fd5b505afa1580156120ea573d6000803e3d6000fd5b505050506040513d601f19601f8201168201806040525081019061210e91906152dc565b9050600081116121605760405162461bcd60e51b815260206004820152601960248201527f43534854414c4c3a20726577617264206e6f74207265616479000000000000006044820152606401611069565b60d7546000901561218857606460d7548361217b9190615729565b6121859190615707565b90505b6121928183615748565b60d0549092506121ac906001600160a01b031684846140f1565b60c95460405163d094fa8d60e01b81526001600160a01b039091169063d094fa8d906121dc90869060040161535f565b602060405180830381600087803b1580156121f657600080fd5b505af115801561220a573d6000803e3d6000fd5b505050506040513d601f19601f8201168201806040525081019061222e91906152dc565b507f564112c0ad2fbcae1bed83c58ed5d830128565d634cdc875bb02b065ad24234383604051611575919061535f565b6065546001600160a01b031633146122885760405162461bcd60e51b815260040161106990615596565b6001600160a01b0381166122ae5760405162461bcd60e51b8152600401611069906154d8565b60ce80546001600160a01b0319166001600160a01b0392909216919091179055565b600054610100900460ff166122eb5760005460ff16156122ef565b303b155b6123525760405162461bcd60e51b815260206004820152602e60248201527f496e697469616c697a61626c653a20636f6e747261637420697320616c72656160448201526d191e481a5b9a5d1a585b1a5e995960921b6064820152608401611069565b600054610100900460ff16158015612374576000805461ffff19166101011790555b60008551118015612386575060008451115b6123c95760405162461bcd60e51b815260206004820152601460248201527320a222291013102120a620a721a29022a92927a960611b6044820152606401611069565b6123d16144ba565b612415604051806040016040528060078152602001663078426c6f636b60c81b81525060405180604001604052806003815260200162183c2160e91b8152506144e9565b61241f878761451a565b60006001600160a01b03168560018151811061243d5761243d6157f7565b60200260200101516001600160a01b031614158015612489575060006001600160a01b031685600281518110612475576124756157f7565b60200260200101516001600160a01b031614155b80156124c2575060006001600160a01b0316856003815181106124ae576124ae6157f7565b60200260200101516001600160a01b031614155b80156124fb575060006001600160a01b0316856004815181106124e7576124e76157f7565b60200260200101516001600160a01b031614155b6125395760405162461bcd60e51b815260206004820152600f60248201526e1413d3d30816915493c81193d55391608a1b6044820152606401611069565b8460018151811061254c5761254c6157f7565b602002602001015160ce60006101000a8154816001600160a01b0302191690836001600160a01b031602179055508460028151811061258d5761258d6157f7565b602002602001015160d160006101000a8154816001600160a01b0302191690836001600160a01b03160217905550846003815181106125ce576125ce6157f7565b602002602001015160cf60006101000a8154816001600160a01b0302191690836001600160a01b031602179055508460048151811061260f5761260f6157f7565b602002602001015160d060006101000a8154816001600160a01b0302191690836001600160a01b03160217905550600083600081518110612652576126526157f7565b60200260200101511180156126815750600083600181518110612677576126776157f7565b6020026020010151115b80156126a7575060008360028151811061269d5761269d6157f7565b6020026020010151115b80156126cd57506000836003815181106126c3576126c36157f7565b6020026020010151115b80156126f357506000836004815181106126e9576126e96157f7565b6020026020010151115b61272f5760405162461bcd60e51b815260206004820152600d60248201526c0c094811915154c81193d55391609a1b6044820152606401611069565b82600081518110612742576127426157f7565b602002602001015160d58190555082600181518110612763576127636157f7565b602002602001015160d38190555082600281518110612784576127846157f7565b602002602001015160d281905550826003815181106127a5576127a56157f7565b602002602001015160d481905550826004815181106127c6576127c66157f7565b602002602001015160d78190555060d35460d55460d45460d2546127ea91906156ef565b6127f491906156ef565b6127fe91906156ef565b60d65583518551146128495760405162461bcd60e51b815260206004820152601460248201527320a222291013102120a620a721a29022a92927a960611b6044820152606401611069565b60005b85518110156128b6576128a486828151811061286a5761286a6157f7565b6020026020010151868381518110612884576128846157f7565b6020026020010151670de0b6b3a764000061289f9190615729565b61454b565b806128ae816157c6565b91505061284c565b5060355469d3c21bcecceda10000001461290a5760405162461bcd60e51b81526020600482015260156024820152741515130814d5541413164811125191880c48135253605a1b6044820152606401611069565b60d88054606460cb55600a60cc5561ffff196001600160a01b038516620100000281166001600160b01b0319909216919091176101001790915560da805461010192169190911790558015611097576000805461ff001916905550505050505050565b6065546001600160a01b031633146129975760405162461bcd60e51b815260040161106990615596565b60ca54604051630196e36f60e61b81526001600160a01b03909116906365b8dbc0906129c790849060040161535f565b600060405180830381600087803b1580156129e157600080fd5b505af11580156129f5573d6000803e3d6000fd5b5050505050565b60da54339060ff161515600114612a4e5760405162461bcd60e51b815260206004820152601660248201527510d4d2150e8810d85cda1bdd5d08111a5cd8589b195960521b6044820152606401611069565b6001600160a01b038116612a995760405162461bcd60e51b8152602060048201526012602482015271435348543a207a65726f206164647265737360701b6044820152606401611069565b6001600160a01b038116600090815260d9602052604090205460ff1615612af65760405162461bcd60e51b815260206004820152601160248201527010d4d2150e88189b1858dadb1a5cdd1959607a1b6044820152606401611069565b60ce546001600160a01b03828116911614801590612b22575060d0546001600160a01b03828116911614155b8015612b3c575060cf546001600160a01b03828116911614155b612b935760405162461bcd60e51b815260206004820152602260248201527f435348543a20706f6f6c732063616e6e6f7420636173686f7574207265776172604482015261647360f01b6064820152608401611069565b60c9546040516329b8573160e21b81526000916001600160a01b03169063a6e15cc490612bc69085908790600401615373565b60206040518083038186803b158015612bde57600080fd5b505afa158015612bf2573d6000803e3d6000fd5b505050506040513d601f19601f82011682018060405250810190612c1691906152dc565b905060008111612c615760405162461bcd60e51b8152602060048201526016602482015275435348543a20726577617264206e6f7420726561647960501b6044820152606401611069565b60d75460009015612c8957606460d75483612c7c9190615729565b612c869190615707565b90505b612c938183615748565b60d054909250612cad906001600160a01b031684846140f1565b60c95460405163611015b360e11b81526001600160a01b039091169063c2202b6690612cdf9086908890600401615373565b602060405180830381600087803b158015612cf957600080fd5b505af1158015612d0d573d6000803e3d6000fd5b505050506040513d601f19601f82011682018060405250810190612d3191906152dc565b507f39f6d68d140e552a327d43ef814649947d78e76743e169e4f00d61b14f2f846d8385604051612d63929190615373565b60405180910390a150505050565b6065546001600160a01b03163314612d9b5760405162461bcd60e51b815260040161106990615596565b6064811115612dec5760405162461bcd60e51b815260206004820152601c60248201527f464545533a20636173686f757420657863656564696e672031303025000000006044820152606401611069565b60d755565b606033612e105760405162461bcd60e51b8152600401611069906155cb565b60c9546001600160a01b03166377ec7826336113ed565b6001600160a01b031660009081526033602052604090205490565b6065546001600160a01b03163314612e6c5760405162461bcd60e51b815260040161106990615596565b612e76600061462a565b565b60c9546040805163055a757d60e41b815290516000926001600160a01b0316916355a757d0916004808301926020929190829003018186803b15801561128857600080fd5b60c95460405162c73e4d60e01b81526000916001600160a01b03169062c73e4d906115b390859060040161549c565b6065546001600160a01b03163314612f165760405162461bcd60e51b815260040161106990615596565b6001600160a01b038116612f3c5760405162461bcd60e51b8152600401611069906154d8565b60cf80546001600160a01b0319166001600160a01b0392909216919091179055565b606033612f7d5760405162461bcd60e51b8152600401611069906155cb565b60c9546001600160a01b0316638bf14514336113ed565b6065546001600160a01b03163314612fbe5760405162461bcd60e51b815260040161106990615596565b60d880549115156101000261ff0019909216919091179055565b606033612ff75760405162461bcd60e51b8152600401611069906155cb565b60c9546001600160a01b031663f743f319336113ed565b6000609b8281548110613023576130236157f7565b6000918252602090912001546001600160a01b031692915050565b6065546001600160a01b031633146130685760405162461bcd60e51b815260040161106990615596565b6001600160a01b0381166130b35760405162461bcd60e51b81526020600482015260126024820152712722abafa1a9269d103d32b9379030b2323960711b6044820152606401611069565b60c980546001600160a01b0319166001600160a01b0392909216919091179055565b6065546001600160a01b031633146130ff5760405162461bcd60e51b815260040161106990615596565b60008160d35460d55460d25461311591906156ef565b61311f91906156ef565b61312991906156ef565b9050606481111561314c5760405162461bcd60e51b8152600401611069906155f0565b60d49190915560d655565b6060336131765760405162461bcd60e51b8152600401611069906155cb565b60c9546001600160a01b03166351bf120c336113ed565b6065546001600160a01b031633146131b75760405162461bcd60e51b815260040161106990615596565b60da80549115156101000261ff0019909216919091179055565b6060603780546111049061578b565b6065546001600160a01b0316331461320a5760405162461bcd60e51b815260040161106990615596565b60008160d55460d45460d25461322091906156ef565b61322a91906156ef565b61323491906156ef565b905060648111156132575760405162461bcd60e51b8152600401611069906155f0565b60d39190915560d655565b6060336132815760405162461bcd60e51b8152600401611069906155cb565b60c9546001600160a01b031663367fd074336113ed565b6065546001600160a01b031633146132c25760405162461bcd60e51b815260040161106990615596565b60d8805460ff1916911515919091179055565b3360008181526034602090815260408083206001600160a01b03871684529091528120549091908381101561335a5760405162461bcd60e51b815260206004820152602560248201527f45524332303a2064656372656173656420616c6c6f77616e63652062656c6f77604482015264207a65726f60d81b6064820152608401611069565b6133678286868403613dcb565b506001949350505050565b60c9546040805163e18f03ad60e01b815290516000926001600160a01b03169163e18f03ad916004808301926020929190829003018186803b15801561128857600080fd5b600033611217818585613b27565b6065546001600160a01b031633146133ef5760405162461bcd60e51b815260040161106990615596565b60d880546001600160a01b03909216620100000262010000600160b01b0319909216919091179055565b6065546001600160a01b031633146134435760405162461bcd60e51b815260040161106990615596565b60da805460ff1916911515919091179055565b60ca546040516317ae8ecf60e31b81526060916001600160a01b03169063bd7476789061348b9087908790879060040161547b565b60006040518083038186803b1580156134a357600080fd5b505afa1580156134b7573d6000803e3d6000fd5b505050506040513d6000823e601f3d908101601f191682016040526134df9190810190615123565b949350505050565b6065546001600160a01b031633146135115760405162461bcd60e51b815260040161106990615596565b60c954604051631c864c8f60e11b8152600481018390526001600160a01b039091169063390c991e906024016129c7565b6065546001600160a01b0316331461356c5760405162461bcd60e51b815260040161106990615596565b6001600160a01b0381166135bb5760405162461bcd60e51b81526020600482015260166024820152752722abafa62927aaaa22a91d103d32b9379030b2323960511b6044820152606401611069565b60ca80546001600160a01b0319166001600160a01b0392909216919091179055565b6065546001600160a01b031633146136075760405162461bcd60e51b815260040161106990615596565b6001600160a01b03811661362d5760405162461bcd60e51b8152600401611069906154d8565b60d080546001600160a01b0319166001600160a01b0392909216919091179055565b6065546001600160a01b031633146136795760405162461bcd60e51b815260040161106990615596565b60c954604051631d5a173160e01b81526001600160a01b0390911690631d5a17319061138590859085906004016154aa565b6065546001600160a01b031633146136d55760405162461bcd60e51b815260040161106990615596565b6136de30612e27565b81111561373e5760405162461bcd60e51b815260206004820152602860248201527f534156455f4d495353454e543a20746f6b656e732065786365656420616464726044820152672062616c616e636560c01b6064820152608401611069565b6001600160a01b0382166137945760405162461bcd60e51b815260206004820152601a60248201527f534156455f4d495353454e543a207a65726f5f616464726573730000000000006044820152606401611069565b61379f308383613b27565b5050565b6001600160a01b03918216600090815260346020908152604080832093909416825291909152205490565b6060336137ed5760405162461bcd60e51b8152600401611069906155cb565b60c9546001600160a01b03166328cceb24336113ed565b6065546001600160a01b0316331461382e5760405162461bcd60e51b815260040161106990615596565b6001600160a01b0381166138545760405162461bcd60e51b8152600401611069906154d8565b60d180546001600160a01b0319166001600160a01b0392909216919091179055565b60ca5460405163f5c1365360e01b815233916000916001600160a01b039091169063f5c13653906138af9084908a908a9060040161547b565b60006040518083038186803b1580156138c757600080fd5b505afa1580156138db573d6000803e3d6000fd5b505050506040513d6000823e601f3d908101601f191682016040526139039190810190615123565b9050600081600183516139169190615748565b81518110613926576139266157f7565b602002602001015190506305f5e100856305f5e1006139459190615748565b61394f9083615729565b6139599190615707565b90508561396584612e27565b10156139b05760405162461bcd60e51b815260206004820152601a602482015279535741503a20696e73756666696369656e742062616c616e636560301b6044820152606401611069565b60ca546139c89084906001600160a01b031688613b27565b61109783888884886142bf565b6065546001600160a01b031633146139ff5760405162461bcd60e51b815260040161106990615596565b6001600160a01b038116613a645760405162461bcd60e51b815260206004820152602660248201527f4f776e61626c653a206e6577206f776e657220697320746865207a65726f206160448201526564647265737360d01b6064820152608401611069565b613a6d8161462a565b50565b60ca5460405163f5c1365360e01b81526060916001600160a01b03169063f5c136539061348b9087908790879060040161547b565b6065546001600160a01b03163314613acf5760405162461bcd60e51b815260040161106990615596565b60008160d35460d45460d254613ae591906156ef565b613aef91906156ef565b613af991906156ef565b90506064811115613b1c5760405162461bcd60e51b8152600401611069906155f0565b60d59190915560d655565b6001600160a01b038316600090815260d9602052604090205460ff16158015613b6957506001600160a01b038216600090815260d9602052604090205460ff16155b613bb55760405162461bcd60e51b815260206004820152601a60248201527f45524332303a20426c61636b6c697374656420616464726573730000000000006044820152606401611069565b613bc08383836140f1565b505050565b60ca5460408051631934662b60e11b815290518492309263dd62ed3e926001600160a01b03909216918291633268cc56916004808301926020929190829003018186803b158015613c1557600080fd5b505afa158015613c29573d6000803e3d6000fd5b505050506040513d601f19601f82011682018060405250810190613c4d9190614e11565b6040516001600160e01b031960e085901b1681526001600160a01b0392831660048201529116602482015260440160206040518083038186803b158015613c9357600080fd5b505afa158015613ca7573d6000803e3d6000fd5b505050506040513d601f19601f82011682018060405250810190613ccb91906152dc565b1015613d5a5760ca5460408051631934662b60e11b81529051613d5a926001600160a01b0316918291633268cc5691600480820192602092909190829003018186803b158015613d1a57600080fd5b505afa158015613d2e573d6000803e3d6000fd5b505050506040513d601f19601f82011682018060405250810190613d529190614e11565b600019613dcb565b60ca546040516380be66cf60e01b81526001600160a01b03909116906380be66cf90613d92908890889088908890889060040161538c565b600060405180830381600087803b158015613dac57600080fd5b505af1158015613dc0573d6000803e3d6000fd5b505050505050505050565b6001600160a01b038316613e2d5760405162461bcd60e51b8152602060048201526024808201527f45524332303a20617070726f76652066726f6d20746865207a65726f206164646044820152637265737360e01b6064820152608401611069565b6001600160a01b038216613e8e5760405162461bcd60e51b815260206004820152602260248201527f45524332303a20617070726f766520746f20746865207a65726f206164647265604482015261737360f01b6064820152608401611069565b6001600160a01b0383811660008181526034602090815260408083209487168084529482529182902085905590518481527f8c5be1e5ebec7d5bd14f71427d1e84f3dd0314c0f7b2291e5b200ac8c7c3b925910160405180910390a3505050565b6097546001600160a01b03841660009081526099602052604081205490918391613f199086615729565b613f239190615707565b6134df9190615748565b80471015613f7d5760405162461bcd60e51b815260206004820152601d60248201527f416464726573733a20696e73756666696369656e742062616c616e63650000006044820152606401611069565b6000826001600160a01b03168260405160006040518083038185875af1925050503d8060008114613fca576040519150601f19603f3d011682016040523d82523d6000602084013e613fcf565b606091505b5050905080613bc05760405162461bcd60e51b815260206004820152603a60248201527f416464726573733a20756e61626c6520746f2073656e642076616c75652c207260448201527f6563697069656e74206d617920686176652072657665727465640000000000006064820152608401611069565b600061405284846137a3565b905060001981146140ba57818110156140ad5760405162461bcd60e51b815260206004820152601d60248201527f45524332303a20696e73756666696369656e7420616c6c6f77616e63650000006044820152606401611069565b6140ba8484848403613dcb565b50505050565b60c9546040516344fea1b960e01b81526000916001600160a01b0316906344fea1b9906115b390859060040161535f565b6001600160a01b0383166141555760405162461bcd60e51b815260206004820152602560248201527f45524332303a207472616e736665722066726f6d20746865207a65726f206164604482015264647265737360d81b6064820152608401611069565b6001600160a01b0382166141b75760405162461bcd60e51b815260206004820152602360248201527f45524332303a207472616e7366657220746f20746865207a65726f206164647260448201526265737360e81b6064820152608401611069565b6001600160a01b0383166000908152603360205260409020548181101561422f5760405162461bcd60e51b815260206004820152602660248201527f45524332303a207472616e7366657220616d6f756e7420657863656564732062604482015265616c616e636560d01b6064820152608401611069565b6001600160a01b038085166000908152603360205260408082208585039055918516815290812080548492906142669084906156ef565b92505081905550826001600160a01b0316846001600160a01b03167fddf252ad1be2c89b69c2b068fc378daa952ba7f163c4a11628f55a4df523b3ef846040516142b291815260200190565b60405180910390a36140ba565b60ca5460408051631934662b60e11b815290518592309263dd62ed3e926001600160a01b03909216918291633268cc56916004808301926020929190829003018186803b15801561430f57600080fd5b505afa158015614323573d6000803e3d6000fd5b505050506040513d601f19601f820116820180604052508101906143479190614e11565b6040516001600160e01b031960e085901b1681526001600160a01b0392831660048201529116602482015260440160206040518083038186803b15801561438d57600080fd5b505afa1580156143a1573d6000803e3d6000fd5b505050506040513d601f19601f820116820180604052508101906143c591906152dc565b10156144145760ca5460408051631934662b60e11b81529051614414926001600160a01b0316918291633268cc5691600480820192602092909190829003018186803b158015613d1a57600080fd5b60ca546040516388e5249f60e01b81526001600160a01b03909116906388e5249f90613d92908890889088908890889060040161538c565b60d15461379f9083906001600160a01b0316836140f1565b613bc08363a9059cbb60e01b8484604051602401614483929190615373565b60408051601f198184030181529190526020810180516001600160e01b03166001600160e01b03199093169290921790915261467c565b600054610100900460ff166144e15760405162461bcd60e51b815260040161106990615627565b612e7661474e565b600054610100900460ff166145105760405162461bcd60e51b815260040161106990615627565b61379f828261477e565b600054610100900460ff166145415760405162461bcd60e51b815260040161106990615627565b61379f82826147cc565b6001600160a01b0382166145a15760405162461bcd60e51b815260206004820152601f60248201527f45524332303a206d696e7420746f20746865207a65726f2061646472657373006044820152606401611069565b80603560008282546145b391906156ef565b90915550506001600160a01b038216600090815260336020526040812080548392906145e09084906156ef565b90915550506040518181526001600160a01b038316906000907fddf252ad1be2c89b69c2b068fc378daa952ba7f163c4a11628f55a4df523b3ef9060200160405180910390a35050565b606580546001600160a01b038381166001600160a01b0319831681179093556040519116919082907f8be0079c531659141344cd1fd0a4f28419497f9722a3daafe3b4186f6b6457e090600090a35050565b60006146d1826040518060400160405280602081526020017f5361666545524332303a206c6f772d6c6576656c2063616c6c206661696c6564815250856001600160a01b031661490a9092919063ffffffff16565b805190915015613bc057808060200190518101906146ef91906151d8565b613bc05760405162461bcd60e51b815260206004820152602a60248201527f5361666545524332303a204552433230206f7065726174696f6e20646964206e6044820152691bdd081cdd58d8d9595960b21b6064820152608401611069565b600054610100900460ff166147755760405162461bcd60e51b815260040161106990615627565b612e763361462a565b600054610100900460ff166147a55760405162461bcd60e51b815260040161106990615627565b81516147b8906036906020850190614c61565b508051613bc0906037906020840190614c61565b600054610100900460ff166147f35760405162461bcd60e51b815260040161106990615627565b805182511461485f5760405162461bcd60e51b815260206004820152603260248201527f5061796d656e7453706c69747465723a2070617965657320616e6420736861726044820152710cae640d8cadccee8d040dad2e6dac2e8c6d60731b6064820152608401611069565b60008251116148b05760405162461bcd60e51b815260206004820152601a60248201527f5061796d656e7453706c69747465723a206e6f207061796565730000000000006044820152606401611069565b60005b8251811015613bc0576148f88382815181106148d1576148d16157f7565b60200260200101518383815181106148eb576148eb6157f7565b6020026020010151614919565b80614902816157c6565b9150506148b3565b60606134df8484600085614af7565b6001600160a01b0382166149845760405162461bcd60e51b815260206004820152602c60248201527f5061796d656e7453706c69747465723a206163636f756e74206973207468652060448201526b7a65726f206164647265737360a01b6064820152608401611069565b600081116149d45760405162461bcd60e51b815260206004820152601d60248201527f5061796d656e7453706c69747465723a207368617265732061726520300000006044820152606401611069565b6001600160a01b03821660009081526099602052604090205415614a4e5760405162461bcd60e51b815260206004820152602b60248201527f5061796d656e7453706c69747465723a206163636f756e7420616c726561647960448201526a206861732073686172657360a81b6064820152608401611069565b609b8054600181019091557fbba9db4cdbea0a37c207bbb83e20f828cd4441c49891101dc94fd20dc8efc3490180546001600160a01b0319166001600160a01b0384169081179091556000908152609960205260409020819055609754614ab69082906156ef565b6097556040517f40c340f65e17194d14ddddb073d3c9f888e3cb52b5aae0c6c7706b4fbc905fac90614aeb9084908490615373565b60405180910390a15050565b606082471015614b585760405162461bcd60e51b815260206004820152602660248201527f416464726573733a20696e73756666696369656e742062616c616e636520666f6044820152651c8818d85b1b60d21b6064820152608401611069565b6001600160a01b0385163b614baf5760405162461bcd60e51b815260206004820152601d60248201527f416464726573733a2063616c6c20746f206e6f6e2d636f6e74726163740000006044820152606401611069565b600080866001600160a01b03168587604051614bcb9190615343565b60006040518083038185875af1925050503d8060008114614c08576040519150601f19603f3d011682016040523d82523d6000602084013e614c0d565b606091505b5091509150614c1d828286614c28565b979650505050505050565b60608315614c37575081611653565b825115614c475782518084602001fd5b8160405162461bcd60e51b815260040161106991906154c5565b828054614c6d9061578b565b90600052602060002090601f016020900481019282614c8f5760008555614cd5565b82601f10614ca857805160ff1916838001178555614cd5565b82800160010185558215614cd5579182015b82811115614cd5578251825591602001919060010190614cba565b50614ce1929150614ce5565b5090565b5b80821115614ce15760008155600101614ce6565b8035614d0581615823565b919050565b600082601f830112614d1b57600080fd5b81356020614d30614d2b836156a3565b615672565b80838252828201915082860187848660051b8901011115614d5057600080fd5b60005b85811015614d78578135614d6681615823565b84529284019290840190600101614d53565b5090979650505050505050565b600082601f830112614d9657600080fd5b81356020614da6614d2b836156a3565b80838252828201915082860187848660051b8901011115614dc657600080fd5b60005b85811015614d7857813584529284019290840190600101614dc9565b803560038110614d0557600080fd5b600060208284031215614e0657600080fd5b813561165381615823565b600060208284031215614e2357600080fd5b815161165381615823565b60008060408385031215614e4157600080fd5b8235614e4c81615823565b91506020830135614e5c81615823565b809150509250929050565b600080600060608486031215614e7c57600080fd5b8335614e8781615823565b92506020840135614e9781615823565b929592945050506040919091013590565b60008060408385031215614ebb57600080fd5b8235614ec681615823565b91506020830135614e5c81615838565b60008060408385031215614ee957600080fd5b8235614ef481615823565b946020939093013593505050565b60008060008060808587031215614f1857600080fd5b8435614f2381615823565b966020860135965060408601359560600135945092505050565b60008060008060008060c08789031215614f5657600080fd5b863567ffffffffffffffff80821115614f6e57600080fd5b614f7a8a838b01614d0a565b97506020890135915080821115614f9057600080fd5b614f9c8a838b01614d85565b96506040890135915080821115614fb257600080fd5b614fbe8a838b01614d0a565b95506060890135915080821115614fd457600080fd5b614fe08a838b01614d85565b94506080890135915080821115614ff657600080fd5b5061500389828a01614d85565b92505061501260a08801614cfa565b90509295509295509295565b600080604080848603121561503257600080fd5b833567ffffffffffffffff8082111561504a57600080fd5b818601915086601f83011261505e57600080fd5b8135602061506e614d2b836156a3565b8083825282820191508286018b848660051b890101111561508e57600080fd5b60005b85811015615103578135878111156150a857600080fd5b8801603f81018e136150b957600080fd5b858101356150c9614d2b826156c7565b8181528f8c8385010111156150dd57600080fd5b818c84018983013760009181018801919091528552509284019290840190600101615091565b50508098505050615115818901614de5565b955050505050509250929050565b6000602080838503121561513657600080fd5b825167ffffffffffffffff81111561514d57600080fd5b8301601f8101851361515e57600080fd5b805161516c614d2b826156a3565b80828252848201915084840188868560051b870101111561518c57600080fd5b600094505b838510156151af578051835260019490940193918501918501615191565b50979650505050505050565b6000602082840312156151cd57600080fd5b813561165381615838565b6000602082840312156151ea57600080fd5b815161165381615838565b60008060006060848603121561520a57600080fd5b8335614e8781615838565b60006020828403121561522757600080fd5b61165382614de5565b6000806040838503121561524357600080fd5b614ef483614de5565b60006020828403121561525e57600080fd5b815167ffffffffffffffff81111561527557600080fd5b8201601f8101841361528657600080fd5b8051615294614d2b826156c7565b8181528560208385010111156152a957600080fd5b6152ba82602083016020860161575f565b95945050505050565b6000602082840312156152d557600080fd5b5035919050565b6000602082840312156152ee57600080fd5b5051919050565b6003811061531357634e487b7160e01b600052602160045260246000fd5b9052565b6000815180845261532f81602086016020860161575f565b601f01601f19169290920160200192915050565b6000825161535581846020870161575f565b9190910192915050565b6001600160a01b0391909116815260200190565b6001600160a01b03929092168252602082015260400190565b6001600160a01b03958616815293909416602084015260408301919091526060820152608081019190915260a00190565b60006060820160018060a01b0386168352602060608185015281865180845260808601915060808160051b870101935082880160005b8281101561542157607f1988870301845261540f868351615317565b955092840192908401906001016153f3565b5050505050809150506134df60408301846152f5565b6020808252825182820181905260009190848201906040850190845b8181101561546f57835183529284019291840191600101615453565b50909695505050505050565b92151583526001600160a01b03919091166020830152604082015260600190565b6020810161121d82846152f5565b604081016154b882856152f5565b8260208301529392505050565b6020815260006116536020830184615317565b6020808252601390820152722aa8222faba0a6261d103d32b9379030b2323960691b604082015260600190565b60208082526026908201527f5061796d656e7453706c69747465723a206163636f756e7420686173206e6f2060408201526573686172657360d01b606082015260800190565b6020808252602b908201527f5061796d656e7453706c69747465723a206163636f756e74206973206e6f742060408201526a191d59481c185e5b595b9d60aa1b606082015260800190565b6020808252818101527f4f776e61626c653a2063616c6c6572206973206e6f7420746865206f776e6572604082015260600190565b6020808252600b908201526a053454e44455220495320360ac1b604082015260600190565b6020808252601a908201527f464545533a20746f74616c20657863656564696e672031303025000000000000604082015260600190565b6020808252602b908201527f496e697469616c697a61626c653a20636f6e7472616374206973206e6f74206960408201526a6e697469616c697a696e6760a81b606082015260800190565b604051601f8201601f1916810167ffffffffffffffff8111828210171561569b5761569b61580d565b604052919050565b600067ffffffffffffffff8211156156bd576156bd61580d565b5060051b60200190565b600067ffffffffffffffff8211156156e1576156e161580d565b50601f01601f191660200190565b60008219821115615702576157026157e1565b500190565b60008261572457634e487b7160e01b600052601260045260246000fd5b500490565b6000816000190483118215151615615743576157436157e1565b500290565b60008282101561575a5761575a6157e1565b500390565b60005b8381101561577a578181015183820152602001615762565b838111156140ba5750506000910152565b600181811c9082168061579f57607f821691505b602082108114156157c057634e487b7160e01b600052602260045260246000fd5b50919050565b60006000198214156157da576157da6157e1565b5060010190565b634e487b7160e01b600052601160045260246000fd5b634e487b7160e01b600052603260045260246000fd5b634e487b7160e01b600052604160045260246000fd5b6001600160a01b0381168114613a6d57600080fd5b8015158114613a6d57600080fdfea164736f6c6343000807000a",
  "devdoc": {
    "kind": "dev",
    "methods": {
      "allowance(address,address)": {
        "details": "See {IERC20-allowance}."
      },
      "approve(address,uint256)": {
        "details": "See {IERC20-approve}. NOTE: If `amount` is the maximum `uint256`, the allowance is not updated on `transferFrom`. This is semantically equivalent to an infinite approval. Requirements: - `spender` cannot be the zero address."
      },
      "balanceOf(address)": {
        "details": "See {IERC20-balanceOf}."
      },
      "decimals()": {
        "details": "Returns the number of decimals used to get its user representation. For example, if `decimals` equals `2`, a balance of `505` tokens should be displayed to a user as `5.05` (`505 / 10 ** 2`). Tokens usually opt for a value of 18, imitating the relationship between Ether and Wei. This is the value {ERC20} uses, unless this function is overridden; NOTE: This information is only used for _display_ purposes: it in no way affects any of the arithmetic of the contract, including {IERC20-balanceOf} and {IERC20-transfer}."
      },
      "decreaseAllowance(address,uint256)": {
        "details": "Atomically decreases the allowance granted to `spender` by the caller. This is an alternative to {approve} that can be used as a mitigation for problems described in {IERC20-approve}. Emits an {Approval} event indicating the updated allowance. Requirements: - `spender` cannot be the zero address. - `spender` must have allowance for the caller of at least `subtractedValue`."
      },
      "increaseAllowance(address,uint256)": {
        "details": "Atomically increases the allowance granted to `spender` by the caller. This is an alternative to {approve} that can be used as a mitigation for problems described in {IERC20-approve}. Emits an {Approval} event indicating the updated allowance. Requirements: - `spender` cannot be the zero address."
      },
      "name()": {
        "details": "Returns the name of the token."
      },
      "owner()": {
        "details": "Returns the address of the current owner."
      },
      "payee(uint256)": {
        "details": "Getter for the address of the payee number `index`."
      },
      "release(address)": {
        "details": "Triggers a transfer to `account` of the amount of Ether they are owed, according to their percentage of the total shares and their previous withdrawals."
      },
      "release(address,address)": {
        "details": "Triggers a transfer to `account` of the amount of `token` tokens they are owed, according to their percentage of the total shares and their previous withdrawals. `token` must be the address of an IERC20 contract."
      },
      "released(address)": {
        "details": "Getter for the amount of Ether already released to a payee."
      },
      "released(address,address)": {
        "details": "Getter for the amount of `token` tokens already released to a payee. `token` should be the address of an IERC20 contract."
      },
      "renounceOwnership()": {
        "details": "Leaves the contract without owner. It will not be possible to call `onlyOwner` functions anymore. Can only be called by the current owner. NOTE: Renouncing ownership will leave the contract without an owner, thereby removing any functionality that is only available to the owner."
      },
      "shares(address)": {
        "details": "Getter for the amount of shares held by an account."
      },
      "symbol()": {
        "details": "Returns the symbol of the token, usually a shorter version of the name."
      },
      "totalReleased()": {
        "details": "Getter for the total amount of Ether already released."
      },
      "totalReleased(address)": {
        "details": "Getter for the total amount of `token` already released. `token` should be the address of an IERC20 contract."
      },
      "totalShares()": {
        "details": "Getter for the total shares held by payees."
      },
      "totalSupply()": {
        "details": "See {IERC20-totalSupply}."
      },
      "transfer(address,uint256)": {
        "details": "See {IERC20-transfer}. Requirements: - `to` cannot be the zero address. - the caller must have a balance of at least `amount`."
      },
      "transferFrom(address,address,uint256)": {
        "details": "See {IERC20-transferFrom}. Emits an {Approval} event indicating the updated allowance. This is not required by the EIP. See the note at the beginning of {ERC20}. NOTE: Does not update the allowance if the current allowance is the maximum `uint256`. Requirements: - `from` and `to` cannot be the zero address. - `from` must have a balance of at least `amount`. - the caller must have allowance for ``from``'s tokens of at least `amount`."
      },
      "transferOwnership(address)": {
        "details": "Transfers ownership of the contract to a new account (`newOwner`). Can only be called by the current owner."
      }
    },
    "version": 1
  },
  "userdoc": {
    "kind": "user",
    "methods": {},
    "version": 1
  },
  "storageLayout": {
    "storage": [
      {
        "astId": 598,
        "contract": "contracts/ZeroXBlock.sol:ZeroXBlock",
        "label": "_initialized",
        "offset": 0,
        "slot": "0",
        "type": "t_bool"
      },
      {
        "astId": 601,
        "contract": "contracts/ZeroXBlock.sol:ZeroXBlock",
        "label": "_initializing",
        "offset": 1,
        "slot": "0",
        "type": "t_bool"
      },
      {
        "astId": 1889,
        "contract": "contracts/ZeroXBlock.sol:ZeroXBlock",
        "label": "__gap",
        "offset": 0,
        "slot": "1",
        "type": "t_array(t_uint256)50_storage"
      },
      {
        "astId": 684,
        "contract": "contracts/ZeroXBlock.sol:ZeroXBlock",
        "label": "_balances",
        "offset": 0,
        "slot": "51",
        "type": "t_mapping(t_address,t_uint256)"
      },
      {
        "astId": 690,
        "contract": "contracts/ZeroXBlock.sol:ZeroXBlock",
        "label": "_allowances",
        "offset": 0,
        "slot": "52",
        "type": "t_mapping(t_address,t_mapping(t_address,t_uint256))"
      },
      {
        "astId": 692,
        "contract": "contracts/ZeroXBlock.sol:ZeroXBlock",
        "label": "_totalSupply",
        "offset": 0,
        "slot": "53",
        "type": "t_uint256"
      },
      {
        "astId": 694,
        "contract": "contracts/ZeroXBlock.sol:ZeroXBlock",
        "label": "_name",
        "offset": 0,
        "slot": "54",
        "type": "t_string_storage"
      },
      {
        "astId": 696,
        "contract": "contracts/ZeroXBlock.sol:ZeroXBlock",
        "label": "_symbol",
        "offset": 0,
        "slot": "55",
        "type": "t_string_storage"
      },
      {
        "astId": 1277,
        "contract": "contracts/ZeroXBlock.sol:ZeroXBlock",
        "label": "__gap",
        "offset": 0,
        "slot": "56",
        "type": "t_array(t_uint256)45_storage"
      },
      {
        "astId": 10,
        "contract": "contracts/ZeroXBlock.sol:ZeroXBlock",
        "label": "_owner",
        "offset": 0,
        "slot": "101",
        "type": "t_address"
      },
      {
        "astId": 122,
        "contract": "contracts/ZeroXBlock.sol:ZeroXBlock",
        "label": "__gap",
        "offset": 0,
        "slot": "102",
        "type": "t_array(t_uint256)49_storage"
      },
      {
        "astId": 163,
        "contract": "contracts/ZeroXBlock.sol:ZeroXBlock",
        "label": "_totalShares",
        "offset": 0,
        "slot": "151",
        "type": "t_uint256"
      },
      {
        "astId": 165,
        "contract": "contracts/ZeroXBlock.sol:ZeroXBlock",
        "label": "_totalReleased",
        "offset": 0,
        "slot": "152",
        "type": "t_uint256"
      },
      {
        "astId": 169,
        "contract": "contracts/ZeroXBlock.sol:ZeroXBlock",
        "label": "_shares",
        "offset": 0,
        "slot": "153",
        "type": "t_mapping(t_address,t_uint256)"
      },
      {
        "astId": 173,
        "contract": "contracts/ZeroXBlock.sol:ZeroXBlock",
        "label": "_released",
        "offset": 0,
        "slot": "154",
        "type": "t_mapping(t_address,t_uint256)"
      },
      {
        "astId": 176,
        "contract": "contracts/ZeroXBlock.sol:ZeroXBlock",
        "label": "_payees",
        "offset": 0,
        "slot": "155",
        "type": "t_array(t_address)dyn_storage"
      },
      {
        "astId": 181,
        "contract": "contracts/ZeroXBlock.sol:ZeroXBlock",
        "label": "_erc20TotalReleased",
        "offset": 0,
        "slot": "156",
        "type": "t_mapping(t_contract(IERC20Upgradeable)1356,t_uint256)"
      },
      {
        "astId": 188,
        "contract": "contracts/ZeroXBlock.sol:ZeroXBlock",
        "label": "_erc20Released",
        "offset": 0,
        "slot": "157",
        "type": "t_mapping(t_contract(IERC20Upgradeable)1356,t_mapping(t_address,t_uint256))"
      },
      {
        "astId": 590,
        "contract": "contracts/ZeroXBlock.sol:ZeroXBlock",
        "label": "__gap",
        "offset": 0,
        "slot": "158",
        "type": "t_array(t_uint256)43_storage"
      },
      {
        "astId": 2584,
        "contract": "contracts/ZeroXBlock.sol:ZeroXBlock",
        "label": "_crm",
        "offset": 0,
        "slot": "201",
        "type": "t_contract(CONTRewardManagement)6523"
      },
      {
        "astId": 2587,
        "contract": "contracts/ZeroXBlock.sol:ZeroXBlock",
        "label": "_liqRouter",
        "offset": 0,
        "slot": "202",
        "type": "t_contract(LiquidityRouter)7085"
      },
      {
        "astId": 2592,
        "contract": "contracts/ZeroXBlock.sol:ZeroXBlock",
        "label": "ownedContsLimit",
        "offset": 0,
        "slot": "203",
        "type": "t_uint256"
      },
      {
        "astId": 2594,
        "contract": "contracts/ZeroXBlock.sol:ZeroXBlock",
        "label": "mintContLimit",
        "offset": 0,
        "slot": "204",
        "type": "t_uint256"
      },
      {
        "astId": 2596,
        "contract": "contracts/ZeroXBlock.sol:ZeroXBlock",
        "label": "totalTokensPaidForMinting",
        "offset": 0,
        "slot": "205",
        "type": "t_uint256"
      },
      {
        "astId": 2598,
        "contract": "contracts/ZeroXBlock.sol:ZeroXBlock",
        "label": "developmentFundPool",
        "offset": 0,
        "slot": "206",
        "type": "t_address"
      },
      {
        "astId": 2600,
        "contract": "contracts/ZeroXBlock.sol:ZeroXBlock",
        "label": "treasuryPool",
        "offset": 0,
        "slot": "207",
        "type": "t_address"
      },
      {
        "astId": 2602,
        "contract": "contracts/ZeroXBlock.sol:ZeroXBlock",
        "label": "rewardsPool",
        "offset": 0,
        "slot": "208",
        "type": "t_address"
      },
      {
        "astId": 2604,
        "contract": "contracts/ZeroXBlock.sol:ZeroXBlock",
        "label": "liquidityPool",
        "offset": 0,
        "slot": "209",
        "type": "t_address"
      },
      {
        "astId": 2606,
        "contract": "contracts/ZeroXBlock.sol:ZeroXBlock",
        "label": "rewardsFee",
        "offset": 0,
        "slot": "210",
        "type": "t_uint256"
      },
      {
        "astId": 2608,
        "contract": "contracts/ZeroXBlock.sol:ZeroXBlock",
        "label": "treasuryFee",
        "offset": 0,
        "slot": "211",
        "type": "t_uint256"
      },
      {
        "astId": 2610,
        "contract": "contracts/ZeroXBlock.sol:ZeroXBlock",
        "label": "liquidityPoolFee",
        "offset": 0,
        "slot": "212",
        "type": "t_uint256"
      },
      {
        "astId": 2612,
        "contract": "contracts/ZeroXBlock.sol:ZeroXBlock",
        "label": "developmentFee",
        "offset": 0,
        "slot": "213",
        "type": "t_uint256"
      },
      {
        "astId": 2614,
        "contract": "contracts/ZeroXBlock.sol:ZeroXBlock",
        "label": "totalFees",
        "offset": 0,
        "slot": "214",
        "type": "t_uint256"
      },
      {
        "astId": 2616,
        "contract": "contracts/ZeroXBlock.sol:ZeroXBlock",
        "label": "cashoutFee",
        "offset": 0,
        "slot": "215",
        "type": "t_uint256"
      },
      {
        "astId": 2618,
        "contract": "contracts/ZeroXBlock.sol:ZeroXBlock",
        "label": "enableAutoSwapTreasury",
        "offset": 0,
        "slot": "216",
        "type": "t_bool"
      },
      {
        "astId": 2620,
        "contract": "contracts/ZeroXBlock.sol:ZeroXBlock",
        "label": "enableAutoSwapDevFund",
        "offset": 1,
        "slot": "216",
        "type": "t_bool"
      },
      {
        "astId": 2622,
        "contract": "contracts/ZeroXBlock.sol:ZeroXBlock",
        "label": "usdcToken",
        "offset": 2,
        "slot": "216",
        "type": "t_address"
      },
      {
        "astId": 2626,
        "contract": "contracts/ZeroXBlock.sol:ZeroXBlock",
        "label": "_isBlacklisted",
        "offset": 0,
        "slot": "217",
        "type": "t_mapping(t_address,t_bool)"
      },
      {
        "astId": 2628,
        "contract": "contracts/ZeroXBlock.sol:ZeroXBlock",
        "label": "enableCashout",
        "offset": 0,
        "slot": "218",
        "type": "t_bool"
      },
      {
        "astId": 2630,
        "contract": "contracts/ZeroXBlock.sol:ZeroXBlock",
        "label": "enableMintConts",
        "offset": 1,
        "slot": "218",
        "type": "t_bool"
      }
    ],
    "types": {
      "t_address": {
        "encoding": "inplace",
        "label": "address",
        "numberOfBytes": "20"
      },
      "t_array(t_address)dyn_storage": {
        "base": "t_address",
        "encoding": "dynamic_array",
        "label": "address[]",
        "numberOfBytes": "32"
      },
      "t_array(t_uint256)43_storage": {
        "base": "t_uint256",
        "encoding": "inplace",
        "label": "uint256[43]",
        "numberOfBytes": "1376"
      },
      "t_array(t_uint256)45_storage": {
        "base": "t_uint256",
        "encoding": "inplace",
        "label": "uint256[45]",
        "numberOfBytes": "1440"
      },
      "t_array(t_uint256)49_storage": {
        "base": "t_uint256",
        "encoding": "inplace",
        "label": "uint256[49]",
        "numberOfBytes": "1568"
      },
      "t_array(t_uint256)50_storage": {
        "base": "t_uint256",
        "encoding": "inplace",
        "label": "uint256[50]",
        "numberOfBytes": "1600"
      },
      "t_bool": {
        "encoding": "inplace",
        "label": "bool",
        "numberOfBytes": "1"
      },
      "t_contract(CONTRewardManagement)6523": {
        "encoding": "inplace",
        "label": "contract CONTRewardManagement",
        "numberOfBytes": "20"
      },
      "t_contract(IERC20Upgradeable)1356": {
        "encoding": "inplace",
        "label": "contract IERC20Upgradeable",
        "numberOfBytes": "20"
      },
      "t_contract(LiquidityRouter)7085": {
        "encoding": "inplace",
        "label": "contract LiquidityRouter",
        "numberOfBytes": "20"
      },
      "t_mapping(t_address,t_bool)": {
        "encoding": "mapping",
        "key": "t_address",
        "label": "mapping(address => bool)",
        "numberOfBytes": "32",
        "value": "t_bool"
      },
      "t_mapping(t_address,t_mapping(t_address,t_uint256))": {
        "encoding": "mapping",
        "key": "t_address",
        "label": "mapping(address => mapping(address => uint256))",
        "numberOfBytes": "32",
        "value": "t_mapping(t_address,t_uint256)"
      },
      "t_mapping(t_address,t_uint256)": {
        "encoding": "mapping",
        "key": "t_address",
        "label": "mapping(address => uint256)",
        "numberOfBytes": "32",
        "value": "t_uint256"
      },
      "t_mapping(t_contract(IERC20Upgradeable)1356,t_mapping(t_address,t_uint256))": {
        "encoding": "mapping",
        "key": "t_contract(IERC20Upgradeable)1356",
        "label": "mapping(contract IERC20Upgradeable => mapping(address => uint256))",
        "numberOfBytes": "32",
        "value": "t_mapping(t_address,t_uint256)"
      },
      "t_mapping(t_contract(IERC20Upgradeable)1356,t_uint256)": {
        "encoding": "mapping",
        "key": "t_contract(IERC20Upgradeable)1356",
        "label": "mapping(contract IERC20Upgradeable => uint256)",
        "numberOfBytes": "32",
        "value": "t_uint256"
      },
      "t_string_storage": {
        "encoding": "bytes",
        "label": "string",
        "numberOfBytes": "32"
      },
      "t_uint256": {
        "encoding": "inplace",
        "label": "uint256",
        "numberOfBytes": "32"
      }
    }
  }
}