{
  "address": "0x2Dc0Ede2CB10c85E8B97EB79a038CfDe858a6571",
  "abi": [
    {
      "anonymous": false,
      "inputs": [
        {
          "indexed": true,
          "internalType": "address",
          "name": "owner",
          "type": "address"
        },
        {
          "indexed": true,
          "internalType": "address",
          "name": "spender",
          "type": "address"
        },
        {
          "indexed": false,
          "internalType": "uint256",
          "name": "value",
          "type": "uint256"
        }
      ],
      "name": "Approval",
      "type": "event"
    },
    {
      "anonymous": false,
      "inputs": [
        {
          "indexed": false,
          "internalType": "address",
          "name": "sender",
          "type": "address"
        }
      ],
      "name": "ContsMinted",
      "type": "event"
    },
    {
      "anonymous": false,
      "inputs": [
        {
          "indexed": true,
          "internalType": "contract IERC20Upgradeable",
          "name": "token",
          "type": "address"
        },
        {
          "indexed": false,
          "internalType": "address",
          "name": "to",
          "type": "address"
        },
        {
          "indexed": false,
          "internalType": "uint256",
          "name": "amount",
          "type": "uint256"
        }
      ],
      "name": "ERC20PaymentReleased",
      "type": "event"
    },
    {
      "anonymous": false,
      "inputs": [
        {
          "indexed": true,
          "internalType": "address",
          "name": "previousOwner",
          "type": "address"
        },
        {
          "indexed": true,
          "internalType": "address",
          "name": "newOwner",
          "type": "address"
        }
      ],
      "name": "OwnershipTransferred",
      "type": "event"
    },
    {
      "anonymous": false,
      "inputs": [
        {
          "indexed": false,
          "internalType": "address",
          "name": "account",
          "type": "address"
        },
        {
          "indexed": false,
          "internalType": "uint256",
          "name": "shares",
          "type": "uint256"
        }
      ],
      "name": "PayeeAdded",
      "type": "event"
    },
    {
      "anonymous": false,
      "inputs": [
        {
          "indexed": false,
          "internalType": "address",
          "name": "from",
          "type": "address"
        },
        {
          "indexed": false,
          "internalType": "uint256",
          "name": "amount",
          "type": "uint256"
        }
      ],
      "name": "PaymentReceived",
      "type": "event"
    },
    {
      "anonymous": false,
      "inputs": [
        {
          "indexed": false,
          "internalType": "address",
          "name": "to",
          "type": "address"
        },
        {
          "indexed": false,
          "internalType": "uint256",
          "name": "amount",
          "type": "uint256"
        }
      ],
      "name": "PaymentReleased",
      "type": "event"
    },
    {
      "anonymous": false,
      "inputs": [
        {
          "indexed": false,
          "internalType": "address",
          "name": "sender",
          "type": "address"
        }
      ],
      "name": "RewardCashoutAll",
      "type": "event"
    },
    {
      "anonymous": false,
      "inputs": [
        {
          "indexed": false,
          "internalType": "address",
          "name": "sender",
          "type": "address"
        },
        {
          "indexed": false,
          "internalType": "uint256",
          "name": "index",
          "type": "uint256"
        }
      ],
      "name": "RewardCashoutOne",
      "type": "event"
    },
    {
      "anonymous": false,
      "inputs": [
        {
          "indexed": true,
          "internalType": "address",
          "name": "from",
          "type": "address"
        },
        {
          "indexed": true,
          "internalType": "address",
          "name": "to",
          "type": "address"
        },
        {
          "indexed": false,
          "internalType": "uint256",
          "name": "value",
          "type": "uint256"
        }
      ],
      "name": "Transfer",
      "type": "event"
    },
    {
      "inputs": [],
      "name": "_crm",
      "outputs": [
        {
          "internalType": "contract CONTRewardManagement",
          "name": "",
          "type": "address"
        }
      ],
      "stateMutability": "view",
      "type": "function"
    },
    {
      "inputs": [
        {
          "internalType": "address",
          "name": "",
          "type": "address"
        }
      ],
      "name": "_isBlacklisted",
      "outputs": [
        {
          "internalType": "bool",
          "name": "",
          "type": "bool"
        }
      ],
      "stateMutability": "view",
      "type": "function"
    },
    {
      "inputs": [
        {
          "internalType": "address",
          "name": "owner",
          "type": "address"
        },
        {
          "internalType": "address",
          "name": "spender",
          "type": "address"
        }
      ],
      "name": "allowance",
      "outputs": [
        {
          "internalType": "uint256",
          "name": "",
          "type": "uint256"
        }
      ],
      "stateMutability": "view",
      "type": "function"
    },
    {
      "inputs": [],
      "name": "antiBotEnabled",
      "outputs": [
        {
          "internalType": "bool",
          "name": "",
          "type": "bool"
        }
      ],
      "stateMutability": "view",
      "type": "function"
    },
    {
      "inputs": [
        {
          "internalType": "address",
          "name": "spender",
          "type": "address"
        },
        {
          "internalType": "uint256",
          "name": "amount",
          "type": "uint256"
        }
      ],
      "name": "approve",
      "outputs": [
        {
          "internalType": "bool",
          "name": "",
          "type": "bool"
        }
      ],
      "stateMutability": "nonpayable",
      "type": "function"
    },
    {
      "inputs": [
        {
          "internalType": "address",
          "name": "",
          "type": "address"
        }
      ],
      "name": "automatedMarketMakerPairs",
      "outputs": [
        {
          "internalType": "bool",
          "name": "",
          "type": "bool"
        }
      ],
      "stateMutability": "view",
      "type": "function"
    },
    {
      "inputs": [
        {
          "internalType": "address",
          "name": "account",
          "type": "address"
        }
      ],
      "name": "balanceOf",
      "outputs": [
        {
          "internalType": "uint256",
          "name": "",
          "type": "uint256"
        }
      ],
      "stateMutability": "view",
      "type": "function"
    },
    {
      "inputs": [],
      "name": "cashoutAll",
      "outputs": [],
      "stateMutability": "nonpayable",
      "type": "function"
    },
    {
      "inputs": [],
      "name": "cashoutFee",
      "outputs": [
        {
          "internalType": "uint256",
          "name": "",
          "type": "uint256"
        }
      ],
      "stateMutability": "view",
      "type": "function"
    },
    {
      "inputs": [
        {
          "internalType": "uint256",
          "name": "_contIndex",
          "type": "uint256"
        }
      ],
      "name": "cashoutReward",
      "outputs": [],
      "stateMutability": "nonpayable",
      "type": "function"
    },
    {
      "inputs": [
        {
          "internalType": "address",
          "name": "newAddress",
          "type": "address"
        }
      ],
      "name": "changeAntiBotAddress",
      "outputs": [],
      "stateMutability": "nonpayable",
      "type": "function"
    },
    {
      "inputs": [
        {
          "internalType": "uint256",
          "name": "newTime",
          "type": "uint256"
        }
      ],
      "name": "changeCashoutTimeout",
      "outputs": [],
      "stateMutability": "nonpayable",
      "type": "function"
    },
    {
      "inputs": [
        {
          "internalType": "enum ContType",
          "name": "_cType",
          "type": "uint8"
        },
        {
          "internalType": "uint256",
          "name": "newPrice",
          "type": "uint256"
        }
      ],
      "name": "changeContPrice",
      "outputs": [],
      "stateMutability": "nonpayable",
      "type": "function"
    },
    {
      "inputs": [
        {
          "internalType": "bool",
          "name": "newVal",
          "type": "bool"
        }
      ],
      "name": "changeEnableAutoSwapDevFund",
      "outputs": [],
      "stateMutability": "nonpayable",
      "type": "function"
    },
    {
      "inputs": [
        {
          "internalType": "bool",
          "name": "newVal",
          "type": "bool"
        }
      ],
      "name": "changeEnableAutoSwapTreasury",
      "outputs": [],
      "stateMutability": "nonpayable",
      "type": "function"
    },
    {
      "inputs": [
        {
          "internalType": "enum ContType",
          "name": "_cType",
          "type": "uint8"
        },
        {
          "internalType": "int256",
          "name": "deductPcent",
          "type": "int256"
        }
      ],
      "name": "changeRewardAPRPerCont",
      "outputs": [],
      "stateMutability": "nonpayable",
      "type": "function"
    },
    {
      "inputs": [],
      "name": "decimals",
      "outputs": [
        {
          "internalType": "uint8",
          "name": "",
          "type": "uint8"
        }
      ],
      "stateMutability": "view",
      "type": "function"
    },
    {
      "inputs": [
        {
          "internalType": "address",
          "name": "spender",
          "type": "address"
        },
        {
          "internalType": "uint256",
          "name": "subtractedValue",
          "type": "uint256"
        }
      ],
      "name": "decreaseAllowance",
      "outputs": [
        {
          "internalType": "bool",
          "name": "",
          "type": "bool"
        }
      ],
      "stateMutability": "nonpayable",
      "type": "function"
    },
    {
      "inputs": [],
      "name": "developmentFee",
      "outputs": [
        {
          "internalType": "uint256",
          "name": "",
          "type": "uint256"
        }
      ],
      "stateMutability": "view",
      "type": "function"
    },
    {
      "inputs": [],
      "name": "developmentFundPool",
      "outputs": [
        {
          "internalType": "address",
          "name": "",
          "type": "address"
        }
      ],
      "stateMutability": "view",
      "type": "function"
    },
    {
      "inputs": [],
      "name": "enableAutoSwapDevFund",
      "outputs": [
        {
          "internalType": "bool",
          "name": "",
          "type": "bool"
        }
      ],
      "stateMutability": "view",
      "type": "function"
    },
    {
      "inputs": [],
      "name": "enableAutoSwapTreasury",
      "outputs": [
        {
          "internalType": "bool",
          "name": "",
          "type": "bool"
        }
      ],
      "stateMutability": "view",
      "type": "function"
    },
    {
      "inputs": [],
      "name": "enableCashout",
      "outputs": [
        {
          "internalType": "bool",
          "name": "",
          "type": "bool"
        }
      ],
      "stateMutability": "view",
      "type": "function"
    },
    {
      "inputs": [],
      "name": "enableMintConts",
      "outputs": [
        {
          "internalType": "bool",
          "name": "",
          "type": "bool"
        }
      ],
      "stateMutability": "view",
      "type": "function"
    },
    {
      "inputs": [],
      "name": "getCashoutTimeout",
      "outputs": [
        {
          "internalType": "uint256",
          "name": "",
          "type": "uint256"
        }
      ],
      "stateMutability": "view",
      "type": "function"
    },
    {
      "inputs": [
        {
          "internalType": "enum ContType",
          "name": "_cType",
          "type": "uint8"
        }
      ],
      "name": "getContPrice",
      "outputs": [
        {
          "internalType": "uint256",
          "name": "",
          "type": "uint256"
        }
      ],
      "stateMutability": "view",
      "type": "function"
    },
    {
      "inputs": [],
      "name": "getContsCreationTime",
      "outputs": [
        {
          "internalType": "string",
          "name": "",
          "type": "string"
        }
      ],
      "stateMutability": "view",
      "type": "function"
    },
    {
      "inputs": [],
      "name": "getContsCurrentAPR",
      "outputs": [
        {
          "internalType": "string",
          "name": "",
          "type": "string"
        }
      ],
      "stateMutability": "view",
      "type": "function"
    },
    {
      "inputs": [],
      "name": "getContsInitialAPR",
      "outputs": [
        {
          "internalType": "string",
          "name": "",
          "type": "string"
        }
      ],
      "stateMutability": "view",
      "type": "function"
    },
    {
      "inputs": [],
      "name": "getContsLastCashoutTime",
      "outputs": [
        {
          "internalType": "string",
          "name": "",
          "type": "string"
        }
      ],
      "stateMutability": "view",
      "type": "function"
    },
    {
      "inputs": [],
      "name": "getContsNames",
      "outputs": [
        {
          "internalType": "string",
          "name": "",
          "type": "string"
        }
      ],
      "stateMutability": "view",
      "type": "function"
    },
    {
      "inputs": [],
      "name": "getContsRewards",
      "outputs": [
        {
          "internalType": "string",
          "name": "",
          "type": "string"
        }
      ],
      "stateMutability": "view",
      "type": "function"
    },
    {
      "inputs": [],
      "name": "getContsTypes",
      "outputs": [
        {
          "internalType": "string",
          "name": "",
          "type": "string"
        }
      ],
      "stateMutability": "view",
      "type": "function"
    },
    {
      "inputs": [
        {
          "internalType": "enum ContType",
          "name": "_cType",
          "type": "uint8"
        }
      ],
      "name": "getRewardAPRPerCont",
      "outputs": [
        {
          "internalType": "uint256",
          "name": "",
          "type": "uint256"
        }
      ],
      "stateMutability": "view",
      "type": "function"
    },
    {
      "inputs": [],
      "name": "getRewardAmount",
      "outputs": [
        {
          "internalType": "uint256",
          "name": "",
          "type": "uint256"
        }
      ],
      "stateMutability": "view",
      "type": "function"
    },
    {
      "inputs": [],
      "name": "getTotalConts",
      "outputs": [
        {
          "internalType": "uint256",
          "name": "",
          "type": "uint256"
        }
      ],
      "stateMutability": "view",
      "type": "function"
    },
    {
      "inputs": [
        {
          "internalType": "enum ContType",
          "name": "__cType",
          "type": "uint8"
        }
      ],
      "name": "getTotalContsPerContType",
      "outputs": [
        {
          "internalType": "uint256",
          "name": "",
          "type": "uint256"
        }
      ],
      "stateMutability": "view",
      "type": "function"
    },
    {
      "inputs": [
        {
          "internalType": "address",
          "name": "spender",
          "type": "address"
        },
        {
          "internalType": "uint256",
          "name": "addedValue",
          "type": "uint256"
        }
      ],
      "name": "increaseAllowance",
      "outputs": [
        {
          "internalType": "bool",
          "name": "",
          "type": "bool"
        }
      ],
      "stateMutability": "nonpayable",
      "type": "function"
    },
    {
      "inputs": [
        {
          "internalType": "address[]",
          "name": "payees",
          "type": "address[]"
        },
        {
          "internalType": "uint256[]",
          "name": "shares",
          "type": "uint256[]"
        },
        {
          "internalType": "address[]",
          "name": "addresses",
          "type": "address[]"
        },
        {
          "internalType": "uint256[]",
          "name": "balances",
          "type": "uint256[]"
        },
        {
          "internalType": "uint256[]",
          "name": "fees",
          "type": "uint256[]"
        },
        {
          "internalType": "address",
          "name": "uniV2Router",
          "type": "address"
        },
        {
          "internalType": "address",
          "name": "pinkAntiBot_",
          "type": "address"
        },
        {
          "internalType": "address",
          "name": "usdcAddr",
          "type": "address"
        }
      ],
      "name": "initialize",
      "outputs": [],
      "stateMutability": "nonpayable",
      "type": "function"
    },
    {
      "inputs": [],
      "name": "liquidityPool",
      "outputs": [
        {
          "internalType": "address",
          "name": "",
          "type": "address"
        }
      ],
      "stateMutability": "view",
      "type": "function"
    },
    {
      "inputs": [],
      "name": "liquidityPoolFee",
      "outputs": [
        {
          "internalType": "uint256",
          "name": "",
          "type": "uint256"
        }
      ],
      "stateMutability": "view",
      "type": "function"
    },
    {
      "inputs": [
        {
          "internalType": "string[]",
          "name": "names",
          "type": "string[]"
        },
        {
          "internalType": "enum ContType",
          "name": "_cType",
          "type": "uint8"
        }
      ],
      "name": "mintConts",
      "outputs": [],
      "stateMutability": "nonpayable",
      "type": "function"
    },
    {
      "inputs": [],
      "name": "name",
      "outputs": [
        {
          "internalType": "string",
          "name": "",
          "type": "string"
        }
      ],
      "stateMutability": "view",
      "type": "function"
    },
    {
      "inputs": [],
      "name": "ownedContsLimit",
      "outputs": [
        {
          "internalType": "uint256",
          "name": "",
          "type": "uint256"
        }
      ],
      "stateMutability": "view",
      "type": "function"
    },
    {
      "inputs": [],
      "name": "owner",
      "outputs": [
        {
          "internalType": "address",
          "name": "",
          "type": "address"
        }
      ],
      "stateMutability": "view",
      "type": "function"
    },
    {
      "inputs": [
        {
          "internalType": "uint256",
          "name": "index",
          "type": "uint256"
        }
      ],
      "name": "payee",
      "outputs": [
        {
          "internalType": "address",
          "name": "",
          "type": "address"
        }
      ],
      "stateMutability": "view",
      "type": "function"
    },
    {
      "inputs": [],
      "name": "pinkAntiBot",
      "outputs": [
        {
          "internalType": "address",
          "name": "",
          "type": "address"
        }
      ],
      "stateMutability": "view",
      "type": "function"
    },
    {
      "inputs": [
        {
          "internalType": "uint256",
          "name": "tokens",
          "type": "uint256"
        }
      ],
      "name": "provideLiquidityPublic",
      "outputs": [],
      "stateMutability": "nonpayable",
      "type": "function"
    },
    {
      "inputs": [
        {
          "internalType": "address payable",
          "name": "account",
          "type": "address"
        }
      ],
      "name": "release",
      "outputs": [],
      "stateMutability": "nonpayable",
      "type": "function"
    },
    {
      "inputs": [
        {
          "internalType": "contract IERC20Upgradeable",
          "name": "token",
          "type": "address"
        },
        {
          "internalType": "address",
          "name": "account",
          "type": "address"
        }
      ],
      "name": "release",
      "outputs": [],
      "stateMutability": "nonpayable",
      "type": "function"
    },
    {
      "inputs": [
        {
          "internalType": "contract IERC20Upgradeable",
          "name": "token",
          "type": "address"
        },
        {
          "internalType": "address",
          "name": "account",
          "type": "address"
        }
      ],
      "name": "released",
      "outputs": [
        {
          "internalType": "uint256",
          "name": "",
          "type": "uint256"
        }
      ],
      "stateMutability": "view",
      "type": "function"
    },
    {
      "inputs": [
        {
          "internalType": "address",
          "name": "account",
          "type": "address"
        }
      ],
      "name": "released",
      "outputs": [
        {
          "internalType": "uint256",
          "name": "",
          "type": "uint256"
        }
      ],
      "stateMutability": "view",
      "type": "function"
    },
    {
      "inputs": [],
      "name": "renounceOwnership",
      "outputs": [],
      "stateMutability": "nonpayable",
      "type": "function"
    },
    {
      "inputs": [],
      "name": "rewardsFee",
      "outputs": [
        {
          "internalType": "uint256",
          "name": "",
          "type": "uint256"
        }
      ],
      "stateMutability": "view",
      "type": "function"
    },
    {
      "inputs": [],
      "name": "rewardsPool",
      "outputs": [
        {
          "internalType": "address",
          "name": "",
          "type": "address"
        }
      ],
      "stateMutability": "view",
      "type": "function"
    },
    {
      "inputs": [
        {
          "internalType": "address",
          "name": "pair",
          "type": "address"
        },
        {
          "internalType": "bool",
          "name": "value",
          "type": "bool"
        }
      ],
      "name": "setAutomatedMarketMakerPair",
      "outputs": [],
      "stateMutability": "nonpayable",
      "type": "function"
    },
    {
      "inputs": [
        {
          "internalType": "address",
          "name": "account",
          "type": "address"
        },
        {
          "internalType": "bool",
          "name": "value",
          "type": "bool"
        }
      ],
      "name": "setBlacklistStatus",
      "outputs": [],
      "stateMutability": "nonpayable",
      "type": "function"
    },
    {
      "inputs": [
        {
          "internalType": "address",
          "name": "crm",
          "type": "address"
        }
      ],
      "name": "setContManagement",
      "outputs": [],
      "stateMutability": "nonpayable",
      "type": "function"
    },
    {
      "inputs": [
        {
          "internalType": "bool",
          "name": "_enable",
          "type": "bool"
        }
      ],
      "name": "setEnableAntiBot",
      "outputs": [],
      "stateMutability": "nonpayable",
      "type": "function"
    },
    {
      "inputs": [
        {
          "internalType": "bool",
          "name": "_enableCashout",
          "type": "bool"
        }
      ],
      "name": "setEnableCashout",
      "outputs": [],
      "stateMutability": "nonpayable",
      "type": "function"
    },
    {
      "inputs": [
        {
          "internalType": "bool",
          "name": "value",
          "type": "bool"
        }
      ],
      "name": "setEnableMintConts",
      "outputs": [],
      "stateMutability": "nonpayable",
      "type": "function"
    },
    {
      "inputs": [
        {
          "internalType": "address",
          "name": "newAddress",
          "type": "address"
        }
      ],
      "name": "setUSDCAddress",
      "outputs": [],
      "stateMutability": "nonpayable",
      "type": "function"
    },
    {
      "inputs": [
        {
          "internalType": "address",
          "name": "account",
          "type": "address"
        }
      ],
      "name": "shares",
      "outputs": [
        {
          "internalType": "uint256",
          "name": "",
          "type": "uint256"
        }
      ],
      "stateMutability": "view",
      "type": "function"
    },
    {
      "inputs": [
        {
          "internalType": "uint256",
          "name": "tokens",
          "type": "uint256"
        }
      ],
      "name": "swapAVAX",
      "outputs": [],
      "stateMutability": "nonpayable",
      "type": "function"
    },
    {
      "inputs": [
        {
          "internalType": "uint256",
          "name": "tokens",
          "type": "uint256"
        }
      ],
      "name": "swapUSDC",
      "outputs": [],
      "stateMutability": "nonpayable",
      "type": "function"
    },
    {
      "inputs": [],
      "name": "symbol",
      "outputs": [
        {
          "internalType": "string",
          "name": "",
          "type": "string"
        }
      ],
      "stateMutability": "view",
      "type": "function"
    },
    {
      "inputs": [],
      "name": "totalFees",
      "outputs": [
        {
          "internalType": "uint256",
          "name": "",
          "type": "uint256"
        }
      ],
      "stateMutability": "view",
      "type": "function"
    },
    {
      "inputs": [
        {
          "internalType": "contract IERC20Upgradeable",
          "name": "token",
          "type": "address"
        }
      ],
      "name": "totalReleased",
      "outputs": [
        {
          "internalType": "uint256",
          "name": "",
          "type": "uint256"
        }
      ],
      "stateMutability": "view",
      "type": "function"
    },
    {
      "inputs": [],
      "name": "totalReleased",
      "outputs": [
        {
          "internalType": "uint256",
          "name": "",
          "type": "uint256"
        }
      ],
      "stateMutability": "view",
      "type": "function"
    },
    {
      "inputs": [],
      "name": "totalShares",
      "outputs": [
        {
          "internalType": "uint256",
          "name": "",
          "type": "uint256"
        }
      ],
      "stateMutability": "view",
      "type": "function"
    },
    {
      "inputs": [],
      "name": "totalSupply",
      "outputs": [
        {
          "internalType": "uint256",
          "name": "",
          "type": "uint256"
        }
      ],
      "stateMutability": "view",
      "type": "function"
    },
    {
      "inputs": [],
      "name": "totalTokensPaidForMinting",
      "outputs": [
        {
          "internalType": "uint256",
          "name": "",
          "type": "uint256"
        }
      ],
      "stateMutability": "view",
      "type": "function"
    },
    {
      "inputs": [
        {
          "internalType": "address",
          "name": "to",
          "type": "address"
        },
        {
          "internalType": "uint256",
          "name": "amount",
          "type": "uint256"
        }
      ],
      "name": "transfer",
      "outputs": [
        {
          "internalType": "bool",
          "name": "",
          "type": "bool"
        }
      ],
      "stateMutability": "nonpayable",
      "type": "function"
    },
    {
      "inputs": [
        {
          "internalType": "address",
          "name": "from",
          "type": "address"
        },
        {
          "internalType": "address",
          "name": "to",
          "type": "address"
        },
        {
          "internalType": "uint256",
          "name": "amount",
          "type": "uint256"
        }
      ],
      "name": "transferFrom",
      "outputs": [
        {
          "internalType": "bool",
          "name": "",
          "type": "bool"
        }
      ],
      "stateMutability": "nonpayable",
      "type": "function"
    },
    {
      "inputs": [
        {
          "internalType": "address",
          "name": "newOwner",
          "type": "address"
        }
      ],
      "name": "transferOwnership",
      "outputs": [],
      "stateMutability": "nonpayable",
      "type": "function"
    },
    {
      "inputs": [],
      "name": "treasuryFee",
      "outputs": [
        {
          "internalType": "uint256",
          "name": "",
          "type": "uint256"
        }
      ],
      "stateMutability": "view",
      "type": "function"
    },
    {
      "inputs": [],
      "name": "treasuryPool",
      "outputs": [
        {
          "internalType": "address",
          "name": "",
          "type": "address"
        }
      ],
      "stateMutability": "view",
      "type": "function"
    },
    {
      "inputs": [],
      "name": "uniswapV2Pair",
      "outputs": [
        {
          "internalType": "address",
          "name": "",
          "type": "address"
        }
      ],
      "stateMutability": "view",
      "type": "function"
    },
    {
      "inputs": [],
      "name": "uniswapV2Router",
      "outputs": [
        {
          "internalType": "contract IJoeRouter02",
          "name": "",
          "type": "address"
        }
      ],
      "stateMutability": "view",
      "type": "function"
    },
    {
      "inputs": [
        {
          "internalType": "uint256",
          "name": "value",
          "type": "uint256"
        }
      ],
      "name": "updateCashoutFee",
      "outputs": [],
      "stateMutability": "nonpayable",
      "type": "function"
    },
    {
      "inputs": [
        {
          "internalType": "uint256",
          "name": "value",
          "type": "uint256"
        }
      ],
      "name": "updateDevelopmentFee",
      "outputs": [],
      "stateMutability": "nonpayable",
      "type": "function"
    },
    {
      "inputs": [
        {
          "internalType": "address payable",
          "name": "wall",
          "type": "address"
        }
      ],
      "name": "updateDevelopmentFundWallet",
      "outputs": [],
      "stateMutability": "nonpayable",
      "type": "function"
    },
    {
      "inputs": [
        {
          "internalType": "uint256",
          "name": "value",
          "type": "uint256"
        }
      ],
      "name": "updateLiquidityFee",
      "outputs": [],
      "stateMutability": "nonpayable",
      "type": "function"
    },
    {
      "inputs": [
        {
          "internalType": "address payable",
          "name": "wall",
          "type": "address"
        }
      ],
      "name": "updateLiquidityWallet",
      "outputs": [],
      "stateMutability": "nonpayable",
      "type": "function"
    },
    {
      "inputs": [
        {
          "internalType": "uint256",
          "name": "value",
          "type": "uint256"
        }
      ],
      "name": "updateRewardsFee",
      "outputs": [],
      "stateMutability": "nonpayable",
      "type": "function"
    },
    {
      "inputs": [
        {
          "internalType": "address payable",
          "name": "wall",
          "type": "address"
        }
      ],
      "name": "updateRewardsWallet",
      "outputs": [],
      "stateMutability": "nonpayable",
      "type": "function"
    },
    {
      "inputs": [
        {
          "internalType": "uint256",
          "name": "value",
          "type": "uint256"
        }
      ],
      "name": "updateTreasuryFee",
      "outputs": [],
      "stateMutability": "nonpayable",
      "type": "function"
    },
    {
      "inputs": [
        {
          "internalType": "address payable",
          "name": "wall",
          "type": "address"
        }
      ],
      "name": "updateTreasuryWallet",
      "outputs": [],
      "stateMutability": "nonpayable",
      "type": "function"
    },
    {
      "inputs": [
        {
          "internalType": "address",
          "name": "newAddress",
          "type": "address"
        }
      ],
      "name": "updateUniswapV2Router",
      "outputs": [],
      "stateMutability": "nonpayable",
      "type": "function"
    },
    {
      "inputs": [],
      "name": "usdcToken",
      "outputs": [
        {
          "internalType": "address",
          "name": "",
          "type": "address"
        }
      ],
      "stateMutability": "view",
      "type": "function"
    },
    {
      "stateMutability": "payable",
      "type": "receive"
    }
  ],
  "transactionHash": "0xdcfd62e3bc2386d32381dd601b2396dfaf530c0ab567225e0cf21e375b20883c",
  "args": [],
  "numDeployments": 10,
  "solcInputHash": "6c24a406065df914ef4aca261edc0d9b",
  "bytecode": "0x608060405234801561001057600080fd5b50615bf280620000216000396000f3fe6080604052600436106104e55760003560e01c806378045b4d11610281578063a6559ce41161015a578063d3a2c9cf116100cc578063e33b7de311610085578063e33b7de314610f43578063e37ba8f914610f58578063eb71c5d914610f78578063f2fde38b14610f97578063f78d5c5514610fb7578063fad6496214610fd757600080fd5b8063d3a2c9cf14610e7d578063d79779b214610e9d578063d8c6404b14610ed3578063dd62ed3e14610ef4578063e0583ec014610f14578063e22ee81314610f2e57600080fd5b8063b9bd39331161011e578063b9bd393314610dc1578063bcb8ebfc14610ddb578063c3491b4914610df1578063cc32d17614610e11578063ce7c2ac214610e27578063cfc0d02414610e5d57600080fd5b8063a6559ce414610d1c578063a9059cbb14610d31578063aaf5bfc314610d51578063b3328aae14610d71578063b62496f514610d9157600080fd5b80638ea928f1116101f35780639a6e80db116101b75780639a6e80db14610c715780639a7a23d614610c915780639b03f44914610cb15780639dc73a4914610cc6578063a457c2d714610ce6578063a5f3d00314610d0657600080fd5b80638ea928f114610bd15780639149acbc14610be657806395d89b4114610c065780639723283014610c1b5780639852595c14610c3b57600080fd5b8063839df91911610245578063839df91914610b1e57806384884e4414610b3e5780638b83209b14610b535780638d28914414610b735780638da5cb5b14610b935780638e67566314610bb157600080fd5b806378045b4d14610a945780637a0aacf314610aa9578063809d458d14610ac9578063810be66d14610ae95780638161ab7614610b0957600080fd5b80633086319d116103be578063533ae31b11610330578063665a11ca116102e9578063665a11ca146109f45780636815a91c14610a145780636b38c58614610a345780636d9ae0be14610a4957806370a0823114610a5f578063715018a614610a7f57600080fd5b8063533ae31b14610949578063545579731461096957806354f12f1f1461097e578063559bf3021461099457806365b8dbc0146109b457806365bfe430146109d457600080fd5b8063406072a911610382578063406072a914610889578063407133d2146108a9578063472cc516146108c957806348b75044146108e957806348df58291461090957806349bd5a5e1461092957600080fd5b80633086319d14610802578063313ce56714610822578063393061401461083e57806339509351146108545780633a98ef391461087457600080fd5b80631694505e116104575780631e7a934e1161041b5780631e7a934e1461074c5780631f46b1c61461076c57806322f8f1151461078c578063239c038a146107ac57806323b872dd146107cc5780632bb14e1d146107ec57600080fd5b80631694505e146106a757806317ecbdae146106c757806318160ddd146106e757806319165587146106fc5780631cdd3be31461071c57600080fd5b806309a69f57116104a957806309a69f57146105f45780630c162440146106175780630f1978fb1461063757806310153e7b1461065657806311eac8551461066b57806313114a9d1461069157600080fd5b80630359fea91461052a57806303d29d281461056057806306fdde0314610582578063084a6bff146105a4578063095ea7b3146105c457600080fd5b36610525577f6ef95f06320e7a25a04a175ca677b7052bdd97131872c2192525a629f51be770333460405161051b92919061565e565b60405180910390a1005b600080fd5b34801561053657600080fd5b5060d15461054a906001600160a01b031681565b604051610557919061564a565b60405180910390f35b34801561056c57600080fd5b5061058061057b366004615235565b610ff7565b005b34801561058e57600080fd5b50610597611055565b6040516105579190615755565b3480156105b057600080fd5b506105806105bf366004615580565b6110e7565b3480156105d057600080fd5b506105e46105df366004615263565b611169565b6040519015158152602001610557565b34801561060057600080fd5b50610609611183565b604051908152602001610557565b34801561062357600080fd5b506105806106323660046154ed565b611225565b34801561064357600080fd5b5060d9546105e490610100900460ff1681565b34801561066257600080fd5b5061059761131b565b34801561067757600080fd5b5060d95461054a906201000090046001600160a01b031681565b34801561069d57600080fd5b5061060960d75481565b3480156106b357600080fd5b5060ca5461054a906001600160a01b031681565b3480156106d357600080fd5b506105806106e2366004615181565b6113bd565b3480156106f357600080fd5b50603554610609565b34801561070857600080fd5b50610580610717366004615181565b61145f565b34801561072857600080fd5b506105e4610737366004615181565b60db6020526000908152604090205460ff1681565b34801561075857600080fd5b506106096107673660046154d2565b611584565b34801561077857600080fd5b50610580610787366004615498565b611605565b34801561079857600080fd5b506105806107a7366004615580565b61164d565b3480156107b857600080fd5b506106096107c73660046154d2565b6116da565b3480156107d857600080fd5b506105e46107e73660046151f4565b61170b565b3480156107f857600080fd5b5061060960d35481565b34801561080e57600080fd5b5061058061081d366004615393565b611731565b34801561082e57600080fd5b5060405160128152602001610557565b34801561084a57600080fd5b5061060960ce5481565b34801561086057600080fd5b506105e461086f366004615263565b611d11565b34801561088057600080fd5b50609754610609565b34801561089557600080fd5b506106096108a43660046151bb565b611d50565b3480156108b557600080fd5b5060da5461054a906001600160a01b031681565b3480156108d557600080fd5b506105806108e436600461528f565b611d7b565b3480156108f557600080fd5b506105806109043660046151bb565b61262f565b34801561091557600080fd5b5060d05461054a906001600160a01b031681565b34801561093557600080fd5b5060cd5461054a906001600160a01b031681565b34801561095557600080fd5b50610580610964366004615580565b6127f3565b34801561097557600080fd5b5061058061287c565b34801561098a57600080fd5b5061060960d55481565b3480156109a057600080fd5b506105806109af366004615181565b612bd5565b3480156109c057600080fd5b506105806109cf366004615181565b612c47565b3480156109e057600080fd5b506105806109ef366004615580565b612ea8565b348015610a0057600080fd5b5060d25461054a906001600160a01b031681565b348015610a2057600080fd5b50610580610a2f366004615580565b613302565b348015610a4057600080fd5b50610597613382565b348015610a5557600080fd5b5061060960d85481565b348015610a6b57600080fd5b50610609610a7a366004615181565b6133b8565b348015610a8b57600080fd5b506105806133d3565b348015610aa057600080fd5b50610609613409565b348015610ab557600080fd5b50610609610ac43660046154d2565b61344e565b348015610ad557600080fd5b50610580610ae4366004615181565b61347d565b348015610af557600080fd5b5060cf5461054a906001600160a01b031681565b348015610b1557600080fd5b506105976134ef565b348015610b2a57600080fd5b50610580610b39366004615498565b613525565b348015610b4a57600080fd5b50610597613569565b348015610b5f57600080fd5b5061054a610b6e366004615580565b61359f565b348015610b7f57600080fd5b50610580610b8e366004615181565b6135cf565b348015610b9f57600080fd5b506065546001600160a01b031661054a565b348015610bbd57600080fd5b50610580610bcc366004615580565b613666565b348015610bdd57600080fd5b506105976136e8565b348015610bf257600080fd5b50610580610c01366004615498565b61371e565b348015610c1257600080fd5b50610597613762565b348015610c2757600080fd5b50610580610c36366004615580565b613771565b348015610c4757600080fd5b50610609610c56366004615181565b6001600160a01b03166000908152609a602052604090205490565b348015610c7d57600080fd5b5060c95461054a906001600160a01b031681565b348015610c9d57600080fd5b50610580610cac366004615235565b6137f3565b348015610cbd57600080fd5b50610597613899565b348015610cd257600080fd5b50610580610ce1366004615498565b6138cf565b348015610cf257600080fd5b506105e4610d01366004615263565b61390c565b348015610d1257600080fd5b5061060960d65481565b348015610d2857600080fd5b506106096139a9565b348015610d3d57600080fd5b506105e4610d4c366004615263565b6139ee565b348015610d5d57600080fd5b50610580610d6c366004615181565b6139fc565b348015610d7d57600080fd5b50610580610d8c366004615498565b613a50565b348015610d9d57600080fd5b506105e4610dac366004615181565b60dc6020526000908152604090205460ff1681565b348015610dcd57600080fd5b5060dd546105e49060ff1681565b348015610de757600080fd5b5061060960cb5481565b348015610dfd57600080fd5b50610580610e0c366004615580565b613a8d565b348015610e1d57600080fd5b5061060960d45481565b348015610e3357600080fd5b50610609610e42366004615181565b6001600160a01b031660009081526099602052604090205490565b348015610e6957600080fd5b50610580610e78366004615181565b613b18565b348015610e8957600080fd5b50610580610e983660046154ed565b613b8a565b348015610ea957600080fd5b50610609610eb8366004615181565b6001600160a01b03166000908152609c602052604090205490565b348015610edf57600080fd5b5060da546105e490600160a01b900460ff1681565b348015610f0057600080fd5b50610609610f0f3660046151bb565b613be6565b348015610f2057600080fd5b5060d9546105e49060ff1681565b348015610f3a57600080fd5b50610597613c11565b348015610f4f57600080fd5b50609854610609565b348015610f6457600080fd5b50610580610f73366004615181565b613c47565b348015610f8457600080fd5b5060dd546105e490610100900460ff1681565b348015610fa357600080fd5b50610580610fb2366004615181565b613cb9565b348015610fc357600080fd5b50610580610fd2366004615580565b613d54565b348015610fe357600080fd5b50610580610ff2366004615580565b613dd6565b6065546001600160a01b0316331461102a5760405162461bcd60e51b81526004016110219061588d565b60405180910390fd5b6001600160a01b0391909116600090815260db60205260409020805460ff1916911515919091179055565b60606036805461106490615b2a565b80601f016020809104026020016040519081016040528092919081815260200182805461109090615b2a565b80156110dd5780601f106110b2576101008083540402835291602001916110dd565b820191906000526020600020905b8154815290600101906020018083116110c057829003601f168201915b5050505050905090565b6065546001600160a01b031633146111115760405162461bcd60e51b81526004016110219061588d565b60008160d45460d65460d5546111279190615a8e565b6111319190615a8e565b61113b9190615a8e565b9050606481111561115e5760405162461bcd60e51b81526004016110219061591e565b60d39190915560d755565b600033611177818585613e6b565b60019150505b92915050565b6000336111a25760405162461bcd60e51b8152600401611021906158c2565b60c9546001600160a01b031663619a635e336040518263ffffffff1660e01b81526004016111d0919061564a565b60206040518083038186803b1580156111e857600080fd5b505afa1580156111fc573d6000803e3d6000fd5b505050506040513d601f19601f820116820180604052508101906112209190615599565b905090565b6065546001600160a01b0316331461124f5760405162461bcd60e51b81526004016110219061588d565b6305f5e10081126112b35760405162461bcd60e51b815260206004820152602860248201527f5245445543455f5257443a20646f206e6f7420726564756365206d6f7265207460448201526768616e203130302560c01b6064820152608401611021565b60c9546040516309d2040f60e41b81526001600160a01b0390911690639d2040f0906112e5908590859060040161573a565b600060405180830381600087803b1580156112ff57600080fd5b505af1158015611313573d6000803e3d6000fd5b505050505050565b60603361133a5760405162461bcd60e51b8152600401611021906158c2565b60c9546001600160a01b0316635dbab6ed335b6040518263ffffffff1660e01b8152600401611369919061564a565b60006040518083038186803b15801561138157600080fd5b505afa158015611395573d6000803e3d6000fd5b505050506040513d6000823e601f3d908101601f191682016040526112209190810190615509565b6065546001600160a01b031633146113e75760405162461bcd60e51b81526004016110219061588d565b6001600160a01b03811661143d5760405162461bcd60e51b815260206004820152601a60248201527f4e455720414e54492d424f543a207a65726f20616464726573730000000000006044820152606401611021565b60da80546001600160a01b0319166001600160a01b0392909216919091179055565b6001600160a01b0381166000908152609960205260409020546114945760405162461bcd60e51b815260040161102190615795565b600061149f60985490565b6114a99047615a8e565b905060006114d683836114d1866001600160a01b03166000908152609a602052604090205490565b613f8f565b9050806114f55760405162461bcd60e51b8152600401611021906157db565b6001600160a01b0383166000908152609a60205260408120805483929061151d908490615a8e565b9250508190555080609860008282546115369190615a8e565b9091555061154690508382613fd5565b7fdf20fd1e76bc69d672e4814fafb2c449bba3a5369d8359adf9e05e6fde87b056838260405161157792919061565e565b60405180910390a1505050565b60c954604051630c75361360e31b81526000916001600160a01b0316906363a9b098906115b590859060040161572c565b60206040518083038186803b1580156115cd57600080fd5b505afa1580156115e1573d6000803e3d6000fd5b505050506040513d601f19601f8201168201806040525081019061117d9190615599565b6065546001600160a01b0316331461162f5760405162461bcd60e51b81526004016110219061588d565b60da8054911515600160a01b0260ff60a01b19909216919091179055565b338061166b5760405162461bcd60e51b815260040161102190615826565b6001600160a01b038116600090815260db602052604090205460ff16156116a45760405162461bcd60e51b815260040161102190615856565b816116ae826133b8565b10156116cc5760405162461bcd60e51b8152600401611021906158e7565b6116d681836140f3565b5050565b60c95460405163ce6912a360e01b81526000916001600160a01b03169063ce6912a3906115b590859060040161572c565b60003361171985828561425d565b6117248585856142d7565b60019150505b9392505050565b60dd54610100900460ff166117885760405162461bcd60e51b815260206004820152601d60248201527f434f4e544d494e543a206d696e7420636f6e74732064697361626c65640000006044820152606401611021565b60cc54825111156117d65760405162461bcd60e51b8152602060048201526018602482015277434f4e544d494e543a20746f6f206d616e7920636f6e747360401b6044820152606401611021565b60005b825181101561188f5760038382815181106117f6576117f6615b96565b6020026020010151511180156118265750602183828151811061181b5761181b615b96565b602002602001015151105b61187d5760405162461bcd60e51b815260206004820152602260248201527f434f4e544d494e543a20696d70726f7065722063686172616374657220636f756044820152611b9d60f21b6064820152608401611021565b8061188781615b65565b9150506117d9565b5033806118ae5760405162461bcd60e51b815260040161102190615826565b6001600160a01b038116600090815260db602052604090205460ff16156118e75760405162461bcd60e51b815260040161102190615856565b60cf546001600160a01b03828116911614801590611913575060d1546001600160a01b03828116911614155b801561192d575060d0546001600160a01b03828116911614155b6119845760405162461bcd60e51b815260206004820152602260248201527f434f4e544d494e543a20706f6f6c732063616e6e6f742063726561746520636f6044820152611b9d60f21b6064820152608401611021565b600061198f82614370565b905060cb548451826119a19190615a8e565b11156119ef5760405162461bcd60e51b815260206004820152601c60248201527f434f4e544d494e543a2072656163686564206d696e74206c696d6974000000006044820152606401611021565b835160c954604051630c75361360e31b8152600092916001600160a01b0316906363a9b09890611a2390889060040161572c565b60206040518083038186803b158015611a3b57600080fd5b505afa158015611a4f573d6000803e3d6000fd5b505050506040513d601f19601f82011682018060405250810190611a739190615599565b611a7d9190615ac8565b90508060ce6000828254611a919190615a8e565b90915550819050611aa1846133b8565b1015611aff5760405162461bcd60e51b815260206004820152602760248201527f434f4e544d494e543a2042616c616e636520746f6f206c6f7720666f7220637260448201526632b0ba34b7b71760c91b6064820152608401611021565b6000606460d65483611b119190615ac8565b611b1b9190615aa6565b60d954909150610100900460ff1615611b5457611b398430836143a1565b60cf54611b4f906001600160a01b03168261456f565b611b6c565b60cf54611b6c9085906001600160a01b0316836143a1565b6000606460d35484611b7e9190615ac8565b611b889190615aa6565b60d154909150611ba39086906001600160a01b0316836143a1565b6000606460d45485611bb59190615ac8565b611bbf9190615aa6565b60d95490915060ff1615611bf357611bd88630836143a1565b60d054611bee906001600160a01b03168261456f565b611c0b565b60d054611c0b9087906001600160a01b0316836143a1565b6000606460d55486611c1d9190615ac8565b611c279190615aa6565b90506000818385611c38888a615ae7565b611c429190615ae7565b611c4c9190615ae7565b611c569190615ae7565b90508015611c6957611c698830836143a1565b60c95460405162a6998d60e31b81526001600160a01b0390911690630534cc6890611c9c908b908e908e90600401615677565b600060405180830381600087803b158015611cb657600080fd5b505af1158015611cca573d6000803e3d6000fd5b505050507f120c2f36321d80f09f9d26f68f1f49b72c1964e118aa788bb9611f47e10c7eac88604051611cfd919061564a565b60405180910390a150505050505050505050565b3360008181526034602090815260408083206001600160a01b03871684529091528120549091906111779082908690611d4b908790615a8e565b613e6b565b6001600160a01b039182166000908152609d6020908152604080832093909416825291909152205490565b600054610100900460ff16611d965760005460ff1615611d9a565b303b155b611dfd5760405162461bcd60e51b815260206004820152602e60248201527f496e697469616c697a61626c653a20636f6e747261637420697320616c72656160448201526d191e481a5b9a5d1a585b1a5e995960921b6064820152608401611021565b600054610100900460ff16158015611e1f576000805461ffff19166101011790555b60008751118015611e31575060008651115b611e745760405162461bcd60e51b815260206004820152601460248201527320a222291013102120a620a721a29022a92927a960611b6044820152606401611021565b611e7c6146dd565b611ec46040518060400160405280600b81526020016a3078426c6f636b7320763160a81b81525060405180604001604052806003815260200162182c2160e91b81525061470c565b611ece898961473d565b60006001600160a01b031687600181518110611eec57611eec615b96565b60200260200101516001600160a01b031614158015611f38575060006001600160a01b031687600281518110611f2457611f24615b96565b60200260200101516001600160a01b031614155b8015611f71575060006001600160a01b031687600381518110611f5d57611f5d615b96565b60200260200101516001600160a01b031614155b8015611faa575060006001600160a01b031687600481518110611f9657611f96615b96565b60200260200101516001600160a01b031614155b611fe85760405162461bcd60e51b815260206004820152600f60248201526e1413d3d30816915493c81193d55391608a1b6044820152606401611021565b86600181518110611ffb57611ffb615b96565b602002602001015160cf60006101000a8154816001600160a01b0302191690836001600160a01b031602179055508660028151811061203c5761203c615b96565b602002602001015160d260006101000a8154816001600160a01b0302191690836001600160a01b031602179055508660038151811061207d5761207d615b96565b602002602001015160d060006101000a8154816001600160a01b0302191690836001600160a01b03160217905550866004815181106120be576120be615b96565b602090810291909101015160d180546001600160a01b0319166001600160a01b0392831617905584166121215760405162461bcd60e51b815260206004820152600b60248201526a524f55544552205a45524f60a81b6044820152606401611021565b60008490506000816001600160a01b031663c45a01556040518163ffffffff1660e01b815260040160206040518083038186803b15801561216157600080fd5b505afa158015612175573d6000803e3d6000fd5b505050506040513d601f19601f82011682018060405250810190612199919061519e565b6001600160a01b031663c9c6539630846001600160a01b03166373b295c26040518163ffffffff1660e01b815260040160206040518083038186803b1580156121e157600080fd5b505afa1580156121f5573d6000803e3d6000fd5b505050506040513d601f19601f82011682018060405250810190612219919061519e565b6040516001600160e01b031960e085901b1681526001600160a01b03928316600482015291166024820152604401602060405180830381600087803b15801561226157600080fd5b505af1158015612275573d6000803e3d6000fd5b505050506040513d601f19601f82011682018060405250810190612299919061519e565b60ca80546001600160a01b038086166001600160a01b03199283161790925560cd80549284169290911691909117905590506122d681600161476e565b6000876000815181106122eb576122eb615b96565b602002602001015111801561231a575060008760018151811061231057612310615b96565b6020026020010151115b8015612340575060008760028151811061233657612336615b96565b6020026020010151115b8015612366575060008760038151811061235c5761235c615b96565b6020026020010151115b801561238c575060008760048151811061238257612382615b96565b6020026020010151115b6123c85760405162461bcd60e51b815260206004820152600d60248201526c0c094811915154c81193d55391609a1b6044820152606401611021565b866000815181106123db576123db615b96565b602002602001015160d681905550866001815181106123fc576123fc615b96565b602002602001015160d4819055508660028151811061241d5761241d615b96565b602002602001015160d3819055508660038151811061243e5761243e615b96565b602002602001015160d5819055508660048151811061245f5761245f615b96565b602002602001015160d88190555060d45460d65460d55460d3546124839190615a8e565b61248d9190615a8e565b6124979190615a8e565b60d75587518951146124e25760405162461bcd60e51b815260206004820152601460248201527320a222291013102120a620a721a29022a92927a960611b6044820152606401611021565b60005b895181101561254f5761253d8a828151811061250357612503615b96565b60200260200101518a838151811061251d5761251d615b96565b6020026020010151670de0b6b3a76400006125389190615ac8565b61482e565b8061254781615b65565b9150506124e5565b5060355469d65f55192a50a6440000146125a35760405162461bcd60e51b81526020600482015260156024820152741515130814d5541413164811125191880c48135253605a1b6044820152606401611021565b505060d98054606460cb55600a60cc5561ff001960ff196001600160a01b0380871662010000029190911661ff01600160b01b031990931692909217600117166101001790915560dd805461010161ffff1990911617905560da80546001600160a81b0319169185169190911790558015612624576000805461ff00191690555b505050505050505050565b6001600160a01b0381166000908152609960205260409020546126645760405162461bcd60e51b815260040161102190615795565b6001600160a01b0382166000908152609c60205260408120546040516370a0823160e01b81526001600160a01b038516906370a08231906126a990309060040161564a565b60206040518083038186803b1580156126c157600080fd5b505afa1580156126d5573d6000803e3d6000fd5b505050506040513d601f19601f820116820180604052508101906126f99190615599565b6127039190615a8e565b9050600061271683836114d18787611d50565b9050806127355760405162461bcd60e51b8152600401611021906157db565b6001600160a01b038085166000908152609d602090815260408083209387168352929052908120805483929061276c908490615a8e565b90915550506001600160a01b0384166000908152609c602052604081208054839290612799908490615a8e565b909155506127aa905084848361490d565b836001600160a01b03167f3be5b7a71e84ed12875d241991c70855ac5817d847039e17a9d895c1ceb0f18a84836040516127e592919061565e565b60405180910390a250505050565b33806128115760405162461bcd60e51b815260040161102190615826565b6001600160a01b038116600090815260db602052604090205460ff161561284a5760405162461bcd60e51b815260040161102190615856565b81612854826133b8565b10156128725760405162461bcd60e51b8152600401611021906158e7565b6116d6818361456f565b60dd54339060ff1615156001146128d55760405162461bcd60e51b815260206004820152601960248201527f43534854414c4c3a20636173686f75742064697361626c6564000000000000006044820152606401611021565b6001600160a01b0381166129235760405162461bcd60e51b815260206004820152601560248201527443534854414c4c3a207a65726f206164647265737360581b6044820152606401611021565b6001600160a01b038116600090815260db602052604090205460ff161561298c5760405162461bcd60e51b815260206004820152601c60248201527f43534854414c4c3a20626c61636b6c69737465642061646472657373000000006044820152606401611021565b60cf546001600160a01b038281169116148015906129b8575060d1546001600160a01b03828116911614155b612a045760405162461bcd60e51b815260206004820152601d60248201527f43534854414c4c3a20706f6f6c732063616e6e6f7420636173686f75740000006044820152606401611021565b60c9546040516330cd31af60e11b81526000916001600160a01b03169063619a635e90612a3590859060040161564a565b60206040518083038186803b158015612a4d57600080fd5b505afa158015612a61573d6000803e3d6000fd5b505050506040513d601f19601f82011682018060405250810190612a859190615599565b905060008111612ad75760405162461bcd60e51b815260206004820152601960248201527f43534854414c4c3a20726577617264206e6f74207265616479000000000000006044820152606401611021565b60d85460009015612aff57606460d85483612af29190615ac8565b612afc9190615aa6565b90505b612b098183615ae7565b60d154909250612b23906001600160a01b031684846143a1565b60c95460405163d094fa8d60e01b81526001600160a01b039091169063d094fa8d90612b5390869060040161564a565b602060405180830381600087803b158015612b6d57600080fd5b505af1158015612b81573d6000803e3d6000fd5b505050506040513d601f19601f82011682018060405250810190612ba59190615599565b507f564112c0ad2fbcae1bed83c58ed5d830128565d634cdc875bb02b065ad24234383604051611577919061564a565b6065546001600160a01b03163314612bff5760405162461bcd60e51b81526004016110219061588d565b6001600160a01b038116612c255760405162461bcd60e51b815260040161102190615768565b60cf80546001600160a01b0319166001600160a01b0392909216919091179055565b6065546001600160a01b03163314612c715760405162461bcd60e51b81526004016110219061588d565b60ca546001600160a01b0382811691161415612ce05760405162461bcd60e51b815260206004820152602860248201527f544b4e3a2054686520726f7574657220616c7265616479206861732074686174604482015267206164647265737360c01b6064820152608401611021565b60ca80546001600160a01b0319166001600160a01b0383169081179091556040805163c45a015560e01b815290516000929163c45a0155916004808301926020929190829003018186803b158015612d3757600080fd5b505afa158015612d4b573d6000803e3d6000fd5b505050506040513d601f19601f82011682018060405250810190612d6f919061519e565b6001600160a01b031663c9c653963060ca60009054906101000a90046001600160a01b03166001600160a01b03166373b295c26040518163ffffffff1660e01b815260040160206040518083038186803b158015612dcc57600080fd5b505afa158015612de0573d6000803e3d6000fd5b505050506040513d601f19601f82011682018060405250810190612e04919061519e565b6040516001600160e01b031960e085901b1681526001600160a01b03928316600482015291166024820152604401602060405180830381600087803b158015612e4c57600080fd5b505af1158015612e60573d6000803e3d6000fd5b505050506040513d601f19601f82011682018060405250810190612e84919061519e565b60cd80546001600160a01b0319166001600160a01b03929092169190911790555050565b60dd54339060ff161515600114612efa5760405162461bcd60e51b815260206004820152601660248201527510d4d2150e8810d85cda1bdd5d08111a5cd8589b195960521b6044820152606401611021565b6001600160a01b038116612f455760405162461bcd60e51b8152602060048201526012602482015271435348543a207a65726f206164647265737360701b6044820152606401611021565b6001600160a01b038116600090815260db602052604090205460ff1615612fbe5760405162461bcd60e51b815260206004820152602760248201527f435348543a2074686973206164647265737320686173206265656e20626c61636044820152661adb1a5cdd195960ca1b6064820152608401611021565b60cf546001600160a01b03828116911614801590612fea575060d1546001600160a01b03828116911614155b8015613004575060d0546001600160a01b03828116911614155b61306d5760405162461bcd60e51b815260206004820152603460248201527f435348543a2066757475726520616e642072657761726420706f6f6c732063616044820152736e6e6f7420636173686f7574207265776172647360601b6064820152608401611021565b60c9546040516329b8573160e21b81526000916001600160a01b03169063a6e15cc4906130a0908590879060040161565e565b60206040518083038186803b1580156130b857600080fd5b505afa1580156130cc573d6000803e3d6000fd5b505050506040513d601f19601f820116820180604052508101906130f09190615599565b90506000811161314d5760405162461bcd60e51b815260206004820152602260248201527f435348543a20796f757220726577617264206973206e6f742072656164792079604482015261195d60f21b6064820152608401611021565b60d8546000901561321a57606460d854836131689190615ac8565b6131729190615aa6565b60ca5460d2549192506001600160a01b039081169163f91b3f7291309185916000918291166131a342610168615a8e565b6040518763ffffffff1660e01b81526004016131c4969594939291906156f1565b606060405180830381600087803b1580156131de57600080fd5b505af11580156131f2573d6000803e3d6000fd5b505050506040513d601f19601f8201168201806040525081019061321691906155b2565b5050505b6132248183615ae7565b60d15490925061323e906001600160a01b031684846143a1565b60c95460405163611015b360e11b81526001600160a01b039091169063c2202b6690613270908690889060040161565e565b602060405180830381600087803b15801561328a57600080fd5b505af115801561329e573d6000803e3d6000fd5b505050506040513d601f19601f820116820180604052508101906132c29190615599565b507f39f6d68d140e552a327d43ef814649947d78e76743e169e4f00d61b14f2f846d83856040516132f492919061565e565b60405180910390a150505050565b6065546001600160a01b0316331461332c5760405162461bcd60e51b81526004016110219061588d565b606481111561337d5760405162461bcd60e51b815260206004820152601c60248201527f464545533a20636173686f757420657863656564696e672031303025000000006044820152606401611021565b60d855565b6060336133a15760405162461bcd60e51b8152600401611021906158c2565b60c9546001600160a01b03166377ec78263361134d565b6001600160a01b031660009081526033602052604090205490565b6065546001600160a01b031633146133fd5760405162461bcd60e51b81526004016110219061588d565b6134076000614963565b565b60c9546040805163055a757d60e41b815290516000926001600160a01b0316916355a757d0916004808301926020929190829003018186803b1580156111e857600080fd5b60c95460405162c73e4d60e01b81526000916001600160a01b03169062c73e4d906115b590859060040161572c565b6065546001600160a01b031633146134a75760405162461bcd60e51b81526004016110219061588d565b6001600160a01b0381166134cd5760405162461bcd60e51b815260040161102190615768565b60d080546001600160a01b0319166001600160a01b0392909216919091179055565b60603361350e5760405162461bcd60e51b8152600401611021906158c2565b60c9546001600160a01b0316638bf145143361134d565b6065546001600160a01b0316331461354f5760405162461bcd60e51b81526004016110219061588d565b60d980549115156101000261ff0019909216919091179055565b6060336135885760405162461bcd60e51b8152600401611021906158c2565b60c9546001600160a01b031663f743f3193361134d565b6000609b82815481106135b4576135b4615b96565b6000918252602090912001546001600160a01b031692915050565b6065546001600160a01b031633146135f95760405162461bcd60e51b81526004016110219061588d565b6001600160a01b0381166136445760405162461bcd60e51b81526020600482015260126024820152712722abafa1a9269d103d32b9379030b2323960711b6044820152606401611021565b60c980546001600160a01b0319166001600160a01b0392909216919091179055565b6065546001600160a01b031633146136905760405162461bcd60e51b81526004016110219061588d565b60008160d45460d65460d3546136a69190615a8e565b6136b09190615a8e565b6136ba9190615a8e565b905060648111156136dd5760405162461bcd60e51b81526004016110219061591e565b60d59190915560d755565b6060336137075760405162461bcd60e51b8152600401611021906158c2565b60c9546001600160a01b03166351bf120c3361134d565b6065546001600160a01b031633146137485760405162461bcd60e51b81526004016110219061588d565b60dd80549115156101000261ff0019909216919091179055565b60606037805461106490615b2a565b6065546001600160a01b0316331461379b5760405162461bcd60e51b81526004016110219061588d565b60008160d65460d55460d3546137b19190615a8e565b6137bb9190615a8e565b6137c59190615a8e565b905060648111156137e85760405162461bcd60e51b81526004016110219061591e565b60d49190915560d755565b6065546001600160a01b0316331461381d5760405162461bcd60e51b81526004016110219061588d565b60cd546001600160a01b038381169116141561388f5760405162461bcd60e51b815260206004820152602b60248201527f544b4e3a205468652050616e63616b655377617020706169722063616e6e6f7460448201526a081899481c995b5bdd995960aa1b6064820152608401611021565b6116d6828261476e565b6060336138b85760405162461bcd60e51b8152600401611021906158c2565b60c9546001600160a01b031663367fd0743361134d565b6065546001600160a01b031633146138f95760405162461bcd60e51b81526004016110219061588d565b60d9805460ff1916911515919091179055565b3360008181526034602090815260408083206001600160a01b0387168452909152812054909190838110156139915760405162461bcd60e51b815260206004820152602560248201527f45524332303a2064656372656173656420616c6c6f77616e63652062656c6f77604482015264207a65726f60d81b6064820152608401611021565b61399e8286868403613e6b565b506001949350505050565b60c9546040805163e18f03ad60e01b815290516000926001600160a01b03169163e18f03ad916004808301926020929190829003018186803b1580156111e857600080fd5b6000336111778185856142d7565b6065546001600160a01b03163314613a265760405162461bcd60e51b81526004016110219061588d565b60d980546001600160a01b03909216620100000262010000600160b01b0319909216919091179055565b6065546001600160a01b03163314613a7a5760405162461bcd60e51b81526004016110219061588d565b60dd805460ff1916911515919091179055565b6065546001600160a01b03163314613ab75760405162461bcd60e51b81526004016110219061588d565b60c954604051631c864c8f60e11b8152600481018390526001600160a01b039091169063390c991e90602401600060405180830381600087803b158015613afd57600080fd5b505af1158015613b11573d6000803e3d6000fd5b5050505050565b6065546001600160a01b03163314613b425760405162461bcd60e51b81526004016110219061588d565b6001600160a01b038116613b685760405162461bcd60e51b815260040161102190615768565b60d180546001600160a01b0319166001600160a01b0392909216919091179055565b6065546001600160a01b03163314613bb45760405162461bcd60e51b81526004016110219061588d565b60c954604051631d5a173160e01b81526001600160a01b0390911690631d5a1731906112e5908590859060040161573a565b6001600160a01b03918216600090815260346020908152604080832093909416825291909152205490565b606033613c305760405162461bcd60e51b8152600401611021906158c2565b60c9546001600160a01b03166328cceb243361134d565b6065546001600160a01b03163314613c715760405162461bcd60e51b81526004016110219061588d565b6001600160a01b038116613c975760405162461bcd60e51b815260040161102190615768565b60d280546001600160a01b0319166001600160a01b0392909216919091179055565b6065546001600160a01b03163314613ce35760405162461bcd60e51b81526004016110219061588d565b6001600160a01b038116613d485760405162461bcd60e51b815260206004820152602660248201527f4f776e61626c653a206e6577206f776e657220697320746865207a65726f206160448201526564647265737360d01b6064820152608401611021565b613d5181614963565b50565b6065546001600160a01b03163314613d7e5760405162461bcd60e51b81526004016110219061588d565b60008160d45460d55460d354613d949190615a8e565b613d9e9190615a8e565b613da89190615a8e565b90506064811115613dcb5760405162461bcd60e51b81526004016110219061591e565b60d69190915560d755565b3380613df45760405162461bcd60e51b815260040161102190615826565b6001600160a01b038116600090815260db602052604090205460ff1615613e2d5760405162461bcd60e51b815260040161102190615856565b81613e37826133b8565b1015613e555760405162461bcd60e51b8152600401611021906158e7565b613e608130846142d7565b6116d68182846149b5565b6001600160a01b038316613ecd5760405162461bcd60e51b8152602060048201526024808201527f45524332303a20617070726f76652066726f6d20746865207a65726f206164646044820152637265737360e01b6064820152608401611021565b6001600160a01b038216613f2e5760405162461bcd60e51b815260206004820152602260248201527f45524332303a20617070726f766520746f20746865207a65726f206164647265604482015261737360f01b6064820152608401611021565b6001600160a01b0383811660008181526034602090815260408083209487168084529482529182902085905590518481527f8c5be1e5ebec7d5bd14f71427d1e84f3dd0314c0f7b2291e5b200ac8c7c3b925910160405180910390a3505050565b6097546001600160a01b03841660009081526099602052604081205490918391613fb99086615ac8565b613fc39190615aa6565b613fcd9190615ae7565b949350505050565b804710156140255760405162461bcd60e51b815260206004820152601d60248201527f416464726573733a20696e73756666696369656e742062616c616e63650000006044820152606401611021565b6000826001600160a01b03168260405160006040518083038185875af1925050503d8060008114614072576040519150601f19603f3d011682016040523d82523d6000602084013e614077565b606091505b50509050806140ee5760405162461bcd60e51b815260206004820152603a60248201527f416464726573733a20756e61626c6520746f2073656e642076616c75652c207260448201527f6563697069656e74206d617920686176652072657665727465640000000000006064820152608401611021565b505050565b604080516002808252606082018352600092602083019080368337019050509050308160008151811061412857614128615b96565b6001600160a01b0392831660209182029290920181019190915260ca54604080516339d94ae160e11b8152905191909316926373b295c2926004808301939192829003018186803b15801561417c57600080fd5b505afa158015614190573d6000803e3d6000fd5b505050506040513d601f19601f820116820180604052508101906141b4919061519e565b816001815181106141c7576141c7615b96565b6001600160a01b03928316602091820292909201015260ca546141ed9130911684613e6b565b60ca54604051633b158ab160e11b81526001600160a01b039091169063762b1562906142269085906000908690899042906004016159a0565b600060405180830381600087803b15801561424057600080fd5b505af1158015614254573d6000803e3d6000fd5b50505050505050565b60006142698484613be6565b905060001981146142d157818110156142c45760405162461bcd60e51b815260206004820152601d60248201527f45524332303a20696e73756666696369656e7420616c6c6f77616e63650000006044820152606401611021565b6142d18484848403613e6b565b50505050565b6001600160a01b038316600090815260db602052604090205460ff1615801561431957506001600160a01b038216600090815260db602052604090205460ff16155b6143655760405162461bcd60e51b815260206004820152601a60248201527f45524332303a20426c61636b6c697374656420616464726573730000000000006044820152606401611021565b6140ee8383836143a1565b60c9546040516344fea1b960e01b81526000916001600160a01b0316906344fea1b9906115b590859060040161564a565b6001600160a01b0383166144055760405162461bcd60e51b815260206004820152602560248201527f45524332303a207472616e736665722066726f6d20746865207a65726f206164604482015264647265737360d81b6064820152608401611021565b6001600160a01b0382166144675760405162461bcd60e51b815260206004820152602360248201527f45524332303a207472616e7366657220746f20746865207a65726f206164647260448201526265737360e81b6064820152608401611021565b6001600160a01b038316600090815260336020526040902054818110156144df5760405162461bcd60e51b815260206004820152602660248201527f45524332303a207472616e7366657220616d6f756e7420657863656564732062604482015265616c616e636560d01b6064820152608401611021565b6001600160a01b03808516600090815260336020526040808220858503905591851681529081208054849290614516908490615a8e565b92505081905550826001600160a01b0316846001600160a01b03167fddf252ad1be2c89b69c2b068fc378daa952ba7f163c4a11628f55a4df523b3ef8460405161456291815260200190565b60405180910390a36142d1565b604080516003808252608082019092526000916020820160608036833701905050905030816000815181106145a6576145a6615b96565b6001600160a01b0392831660209182029290920181019190915260ca54604080516339d94ae160e11b8152905191909316926373b295c2926004808301939192829003018186803b1580156145fa57600080fd5b505afa15801561460e573d6000803e3d6000fd5b505050506040513d601f19601f82011682018060405250810190614632919061519e565b8160018151811061464557614645615b96565b6001600160a01b03928316602091820292909201015260d954825162010000909104909116908290600290811061467e5761467e615b96565b6001600160a01b03928316602091820292909201015260ca546146a49130911684613e6b565b60ca54604051635c11d79560e01b81526001600160a01b0390911690635c11d795906142269085906000908690899042906004016159a0565b600054610100900460ff166147045760405162461bcd60e51b815260040161102190615955565b613407614a6e565b600054610100900460ff166147335760405162461bcd60e51b815260040161102190615955565b6116d68282614a9e565b600054610100900460ff166147645760405162461bcd60e51b815260040161102190615955565b6116d68282614aec565b6001600160a01b038216600090815260dc602052604090205460ff16151581151514156148035760405162461bcd60e51b815260206004820152603d60248201527f544b4e3a204175746f6d61746564206d61726b6574206d616b6572207061697260448201527f20697320616c72656164792073657420746f20746861742076616c75650000006064820152608401611021565b6001600160a01b0391909116600090815260dc60205260409020805460ff1916911515919091179055565b6001600160a01b0382166148845760405162461bcd60e51b815260206004820152601f60248201527f45524332303a206d696e7420746f20746865207a65726f2061646472657373006044820152606401611021565b80603560008282546148969190615a8e565b90915550506001600160a01b038216600090815260336020526040812080548392906148c3908490615a8e565b90915550506040518181526001600160a01b038316906000907fddf252ad1be2c89b69c2b068fc378daa952ba7f163c4a11628f55a4df523b3ef9060200160405180910390a35050565b6140ee8363a9059cbb60e01b848460405160240161492c92919061565e565b60408051601f198184030181529190526020810180516001600160e01b03166001600160e01b031990931692909217909152614c2a565b606580546001600160a01b038381166001600160a01b0319831681179093556040519116919082907f8be0079c531659141344cd1fd0a4f28419497f9722a3daafe3b4186f6b6457e090600090a35050565b60ca546149cd9084906001600160a01b031683613e6b565b60ca546001600160a01b031663f91b3f723083600080876149ef426078615a8e565b6149fb906103e8615ac8565b6040518763ffffffff1660e01b8152600401614a1c969594939291906156f1565b606060405180830381600087803b158015614a3657600080fd5b505af1158015614a4a573d6000803e3d6000fd5b505050506040513d601f19601f8201168201806040525081019061131391906155b2565b600054610100900460ff16614a955760405162461bcd60e51b815260040161102190615955565b61340733614963565b600054610100900460ff16614ac55760405162461bcd60e51b815260040161102190615955565b8151614ad8906036906020850190614fee565b5080516140ee906037906020840190614fee565b600054610100900460ff16614b135760405162461bcd60e51b815260040161102190615955565b8051825114614b7f5760405162461bcd60e51b815260206004820152603260248201527f5061796d656e7453706c69747465723a2070617965657320616e6420736861726044820152710cae640d8cadccee8d040dad2e6dac2e8c6d60731b6064820152608401611021565b6000825111614bd05760405162461bcd60e51b815260206004820152601a60248201527f5061796d656e7453706c69747465723a206e6f207061796565730000000000006044820152606401611021565b60005b82518110156140ee57614c18838281518110614bf157614bf1615b96565b6020026020010151838381518110614c0b57614c0b615b96565b6020026020010151614cfc565b80614c2281615b65565b915050614bd3565b6000614c7f826040518060400160405280602081526020017f5361666545524332303a206c6f772d6c6576656c2063616c6c206661696c6564815250856001600160a01b0316614eda9092919063ffffffff16565b8051909150156140ee5780806020019051810190614c9d91906154b5565b6140ee5760405162461bcd60e51b815260206004820152602a60248201527f5361666545524332303a204552433230206f7065726174696f6e20646964206e6044820152691bdd081cdd58d8d9595960b21b6064820152608401611021565b6001600160a01b038216614d675760405162461bcd60e51b815260206004820152602c60248201527f5061796d656e7453706c69747465723a206163636f756e74206973207468652060448201526b7a65726f206164647265737360a01b6064820152608401611021565b60008111614db75760405162461bcd60e51b815260206004820152601d60248201527f5061796d656e7453706c69747465723a207368617265732061726520300000006044820152606401611021565b6001600160a01b03821660009081526099602052604090205415614e315760405162461bcd60e51b815260206004820152602b60248201527f5061796d656e7453706c69747465723a206163636f756e7420616c726561647960448201526a206861732073686172657360a81b6064820152608401611021565b609b8054600181019091557fbba9db4cdbea0a37c207bbb83e20f828cd4441c49891101dc94fd20dc8efc3490180546001600160a01b0319166001600160a01b0384169081179091556000908152609960205260409020819055609754614e99908290615a8e565b6097556040517f40c340f65e17194d14ddddb073d3c9f888e3cb52b5aae0c6c7706b4fbc905fac90614ece908490849061565e565b60405180910390a15050565b6060613fcd8484600085856001600160a01b0385163b614f3c5760405162461bcd60e51b815260206004820152601d60248201527f416464726573733a2063616c6c20746f206e6f6e2d636f6e74726163740000006044820152606401611021565b600080866001600160a01b03168587604051614f58919061562e565b60006040518083038185875af1925050503d8060008114614f95576040519150601f19603f3d011682016040523d82523d6000602084013e614f9a565b606091505b5091509150614faa828286614fb5565b979650505050505050565b60608315614fc457508161172a565b825115614fd45782518084602001fd5b8160405162461bcd60e51b81526004016110219190615755565b828054614ffa90615b2a565b90600052602060002090601f01602090048101928261501c5760008555615062565b82601f1061503557805160ff1916838001178555615062565b82800160010185558215615062579182015b82811115615062578251825591602001919060010190615047565b5061506e929150615072565b5090565b5b8082111561506e5760008155600101615073565b803561509281615bc2565b919050565b600082601f8301126150a857600080fd5b813560206150bd6150b883615a42565b615a11565b80838252828201915082860187848660051b89010111156150dd57600080fd5b60005b858110156151055781356150f381615bc2565b845292840192908401906001016150e0565b5090979650505050505050565b600082601f83011261512357600080fd5b813560206151336150b883615a42565b80838252828201915082860187848660051b890101111561515357600080fd5b60005b8581101561510557813584529284019290840190600101615156565b80356003811061509257600080fd5b60006020828403121561519357600080fd5b813561172a81615bc2565b6000602082840312156151b057600080fd5b815161172a81615bc2565b600080604083850312156151ce57600080fd5b82356151d981615bc2565b915060208301356151e981615bc2565b809150509250929050565b60008060006060848603121561520957600080fd5b833561521481615bc2565b9250602084013561522481615bc2565b929592945050506040919091013590565b6000806040838503121561524857600080fd5b823561525381615bc2565b915060208301356151e981615bd7565b6000806040838503121561527657600080fd5b823561528181615bc2565b946020939093013593505050565b600080600080600080600080610100898b0312156152ac57600080fd5b883567ffffffffffffffff808211156152c457600080fd5b6152d08c838d01615097565b995060208b01359150808211156152e657600080fd5b6152f28c838d01615112565b985060408b013591508082111561530857600080fd5b6153148c838d01615097565b975060608b013591508082111561532a57600080fd5b6153368c838d01615112565b965060808b013591508082111561534c57600080fd5b506153598b828c01615112565b94505061536860a08a01615087565b925061537660c08a01615087565b915061538460e08a01615087565b90509295985092959890939650565b60008060408084860312156153a757600080fd5b833567ffffffffffffffff808211156153bf57600080fd5b818601915086601f8301126153d357600080fd5b813560206153e36150b883615a42565b8083825282820191508286018b848660051b890101111561540357600080fd5b60005b858110156154785781358781111561541d57600080fd5b8801603f81018e1361542e57600080fd5b8581013561543e6150b882615a66565b8181528f8c83850101111561545257600080fd5b818c84018983013760009181018801919091528552509284019290840190600101615406565b5050809850505061548a818901615172565b955050505050509250929050565b6000602082840312156154aa57600080fd5b813561172a81615bd7565b6000602082840312156154c757600080fd5b815161172a81615bd7565b6000602082840312156154e457600080fd5b61172a82615172565b6000806040838503121561550057600080fd5b61528183615172565b60006020828403121561551b57600080fd5b815167ffffffffffffffff81111561553257600080fd5b8201601f8101841361554357600080fd5b80516155516150b882615a66565b81815285602083850101111561556657600080fd5b615577826020830160208601615afe565b95945050505050565b60006020828403121561559257600080fd5b5035919050565b6000602082840312156155ab57600080fd5b5051919050565b6000806000606084860312156155c757600080fd5b8351925060208401519150604084015190509250925092565b600381106155fe57634e487b7160e01b600052602160045260246000fd5b9052565b6000815180845261561a816020860160208601615afe565b601f01601f19169290920160200192915050565b60008251615640818460208701615afe565b9190910192915050565b6001600160a01b0391909116815260200190565b6001600160a01b03929092168252602082015260400190565b60006060820160018060a01b0386168352602060608185015281865180845260808601915060808160051b870101935082880160005b828110156156db57607f198887030184526156c9868351615602565b955092840192908401906001016156ad565b505050505080915050613fcd60408301846155e0565b6001600160a01b039687168152602081019590955260408501939093526060840191909152909216608082015260a081019190915260c00190565b6020810161117d82846155e0565b6040810161574882856155e0565b8260208301529392505050565b60208152600061172a6020830184615602565b6020808252601390820152722aa8222faba0a6261d103d32b9379030b2323960691b604082015260600190565b60208082526026908201527f5061796d656e7453706c69747465723a206163636f756e7420686173206e6f2060408201526573686172657360d01b606082015260800190565b6020808252602b908201527f5061796d656e7453706c69747465723a206163636f756e74206973206e6f742060408201526a191d59481c185e5b595b9d60aa1b606082015260800190565b602080825260169082015275434f4e544d494e543a207a65726f206164647265737360501b604082015260600190565b6020808252601d908201527f434f4e544d494e543a20626c61636b6c69737465642061646472657373000000604082015260600190565b6020808252818101527f4f776e61626c653a2063616c6c6572206973206e6f7420746865206f776e6572604082015260600190565b6020808252600b908201526a053454e44455220495320360ac1b604082015260600190565b60208082526019908201527f434f4e544d494e543a2042616c616e636520746f6f206c6f7700000000000000604082015260600190565b6020808252601a908201527f464545533a20746f74616c20657863656564696e672031303025000000000000604082015260600190565b6020808252602b908201527f496e697469616c697a61626c653a20636f6e7472616374206973206e6f74206960408201526a6e697469616c697a696e6760a81b606082015260800190565b600060a082018783526020878185015260a0604085015281875180845260c086019150828901935060005b818110156159f05784516001600160a01b0316835293830193918301916001016159cb565b50506001600160a01b03969096166060850152505050608001529392505050565b604051601f8201601f1916810167ffffffffffffffff81118282101715615a3a57615a3a615bac565b604052919050565b600067ffffffffffffffff821115615a5c57615a5c615bac565b5060051b60200190565b600067ffffffffffffffff821115615a8057615a80615bac565b50601f01601f191660200190565b60008219821115615aa157615aa1615b80565b500190565b600082615ac357634e487b7160e01b600052601260045260246000fd5b500490565b6000816000190483118215151615615ae257615ae2615b80565b500290565b600082821015615af957615af9615b80565b500390565b60005b83811015615b19578181015183820152602001615b01565b838111156142d15750506000910152565b600181811c90821680615b3e57607f821691505b60208210811415615b5f57634e487b7160e01b600052602260045260246000fd5b50919050565b6000600019821415615b7957615b79615b80565b5060010190565b634e487b7160e01b600052601160045260246000fd5b634e487b7160e01b600052603260045260246000fd5b634e487b7160e01b600052604160045260246000fd5b6001600160a01b0381168114613d5157600080fd5b8015158114613d5157600080fdfea164736f6c6343000807000a",
  "devdoc": {
    "kind": "dev",
    "methods": {
      "allowance(address,address)": {
        "details": "See {IERC20-allowance}."
      },
      "approve(address,uint256)": {
        "details": "See {IERC20-approve}. NOTE: If `amount` is the maximum `uint256`, the allowance is not updated on `transferFrom`. This is semantically equivalent to an infinite approval. Requirements: - `spender` cannot be the zero address."
      },
      "balanceOf(address)": {
        "details": "See {IERC20-balanceOf}."
      },
      "decimals()": {
        "details": "Returns the number of decimals used to get its user representation. For example, if `decimals` equals `2`, a balance of `505` tokens should be displayed to a user as `5.05` (`505 / 10 ** 2`). Tokens usually opt for a value of 18, imitating the relationship between Ether and Wei. This is the value {ERC20} uses, unless this function is overridden; NOTE: This information is only used for _display_ purposes: it in no way affects any of the arithmetic of the contract, including {IERC20-balanceOf} and {IERC20-transfer}."
      },
      "decreaseAllowance(address,uint256)": {
        "details": "Atomically decreases the allowance granted to `spender` by the caller. This is an alternative to {approve} that can be used as a mitigation for problems described in {IERC20-approve}. Emits an {Approval} event indicating the updated allowance. Requirements: - `spender` cannot be the zero address. - `spender` must have allowance for the caller of at least `subtractedValue`."
      },
      "increaseAllowance(address,uint256)": {
        "details": "Atomically increases the allowance granted to `spender` by the caller. This is an alternative to {approve} that can be used as a mitigation for problems described in {IERC20-approve}. Emits an {Approval} event indicating the updated allowance. Requirements: - `spender` cannot be the zero address."
      },
      "name()": {
        "details": "Returns the name of the token."
      },
      "owner()": {
        "details": "Returns the address of the current owner."
      },
      "payee(uint256)": {
        "details": "Getter for the address of the payee number `index`."
      },
      "release(address)": {
        "details": "Triggers a transfer to `account` of the amount of Ether they are owed, according to their percentage of the total shares and their previous withdrawals."
      },
      "release(address,address)": {
        "details": "Triggers a transfer to `account` of the amount of `token` tokens they are owed, according to their percentage of the total shares and their previous withdrawals. `token` must be the address of an IERC20 contract."
      },
      "released(address)": {
        "details": "Getter for the amount of Ether already released to a payee."
      },
      "released(address,address)": {
        "details": "Getter for the amount of `token` tokens already released to a payee. `token` should be the address of an IERC20 contract."
      },
      "renounceOwnership()": {
        "details": "Leaves the contract without owner. It will not be possible to call `onlyOwner` functions anymore. Can only be called by the current owner. NOTE: Renouncing ownership will leave the contract without an owner, thereby removing any functionality that is only available to the owner."
      },
      "shares(address)": {
        "details": "Getter for the amount of shares held by an account."
      },
      "symbol()": {
        "details": "Returns the symbol of the token, usually a shorter version of the name."
      },
      "totalReleased()": {
        "details": "Getter for the total amount of Ether already released."
      },
      "totalReleased(address)": {
        "details": "Getter for the total amount of `token` already released. `token` should be the address of an IERC20 contract."
      },
      "totalShares()": {
        "details": "Getter for the total shares held by payees."
      },
      "totalSupply()": {
        "details": "See {IERC20-totalSupply}."
      },
      "transfer(address,uint256)": {
        "details": "See {IERC20-transfer}. Requirements: - `to` cannot be the zero address. - the caller must have a balance of at least `amount`."
      },
      "transferFrom(address,address,uint256)": {
        "details": "See {IERC20-transferFrom}. Emits an {Approval} event indicating the updated allowance. This is not required by the EIP. See the note at the beginning of {ERC20}. NOTE: Does not update the allowance if the current allowance is the maximum `uint256`. Requirements: - `from` and `to` cannot be the zero address. - `from` must have a balance of at least `amount`. - the caller must have allowance for ``from``'s tokens of at least `amount`."
      },
      "transferOwnership(address)": {
        "details": "Transfers ownership of the contract to a new account (`newOwner`). Can only be called by the current owner."
      }
    },
    "version": 1
  },
  "userdoc": {
    "kind": "user",
    "methods": {},
    "version": 1
  },
  "storageLayout": {
    "storage": [
      {
        "astId": 598,
        "contract": "contracts/ZeroXBlocksV1.sol:ZeroXBlocksV1",
        "label": "_initialized",
        "offset": 0,
        "slot": "0",
        "type": "t_bool"
      },
      {
        "astId": 601,
        "contract": "contracts/ZeroXBlocksV1.sol:ZeroXBlocksV1",
        "label": "_initializing",
        "offset": 1,
        "slot": "0",
        "type": "t_bool"
      },
      {
        "astId": 1889,
        "contract": "contracts/ZeroXBlocksV1.sol:ZeroXBlocksV1",
        "label": "__gap",
        "offset": 0,
        "slot": "1",
        "type": "t_array(t_uint256)50_storage"
      },
      {
        "astId": 684,
        "contract": "contracts/ZeroXBlocksV1.sol:ZeroXBlocksV1",
        "label": "_balances",
        "offset": 0,
        "slot": "51",
        "type": "t_mapping(t_address,t_uint256)"
      },
      {
        "astId": 690,
        "contract": "contracts/ZeroXBlocksV1.sol:ZeroXBlocksV1",
        "label": "_allowances",
        "offset": 0,
        "slot": "52",
        "type": "t_mapping(t_address,t_mapping(t_address,t_uint256))"
      },
      {
        "astId": 692,
        "contract": "contracts/ZeroXBlocksV1.sol:ZeroXBlocksV1",
        "label": "_totalSupply",
        "offset": 0,
        "slot": "53",
        "type": "t_uint256"
      },
      {
        "astId": 694,
        "contract": "contracts/ZeroXBlocksV1.sol:ZeroXBlocksV1",
        "label": "_name",
        "offset": 0,
        "slot": "54",
        "type": "t_string_storage"
      },
      {
        "astId": 696,
        "contract": "contracts/ZeroXBlocksV1.sol:ZeroXBlocksV1",
        "label": "_symbol",
        "offset": 0,
        "slot": "55",
        "type": "t_string_storage"
      },
      {
        "astId": 1277,
        "contract": "contracts/ZeroXBlocksV1.sol:ZeroXBlocksV1",
        "label": "__gap",
        "offset": 0,
        "slot": "56",
        "type": "t_array(t_uint256)45_storage"
      },
      {
        "astId": 10,
        "contract": "contracts/ZeroXBlocksV1.sol:ZeroXBlocksV1",
        "label": "_owner",
        "offset": 0,
        "slot": "101",
        "type": "t_address"
      },
      {
        "astId": 122,
        "contract": "contracts/ZeroXBlocksV1.sol:ZeroXBlocksV1",
        "label": "__gap",
        "offset": 0,
        "slot": "102",
        "type": "t_array(t_uint256)49_storage"
      },
      {
        "astId": 163,
        "contract": "contracts/ZeroXBlocksV1.sol:ZeroXBlocksV1",
        "label": "_totalShares",
        "offset": 0,
        "slot": "151",
        "type": "t_uint256"
      },
      {
        "astId": 165,
        "contract": "contracts/ZeroXBlocksV1.sol:ZeroXBlocksV1",
        "label": "_totalReleased",
        "offset": 0,
        "slot": "152",
        "type": "t_uint256"
      },
      {
        "astId": 169,
        "contract": "contracts/ZeroXBlocksV1.sol:ZeroXBlocksV1",
        "label": "_shares",
        "offset": 0,
        "slot": "153",
        "type": "t_mapping(t_address,t_uint256)"
      },
      {
        "astId": 173,
        "contract": "contracts/ZeroXBlocksV1.sol:ZeroXBlocksV1",
        "label": "_released",
        "offset": 0,
        "slot": "154",
        "type": "t_mapping(t_address,t_uint256)"
      },
      {
        "astId": 176,
        "contract": "contracts/ZeroXBlocksV1.sol:ZeroXBlocksV1",
        "label": "_payees",
        "offset": 0,
        "slot": "155",
        "type": "t_array(t_address)dyn_storage"
      },
      {
        "astId": 181,
        "contract": "contracts/ZeroXBlocksV1.sol:ZeroXBlocksV1",
        "label": "_erc20TotalReleased",
        "offset": 0,
        "slot": "156",
        "type": "t_mapping(t_contract(IERC20Upgradeable)1356,t_uint256)"
      },
      {
        "astId": 188,
        "contract": "contracts/ZeroXBlocksV1.sol:ZeroXBlocksV1",
        "label": "_erc20Released",
        "offset": 0,
        "slot": "157",
        "type": "t_mapping(t_contract(IERC20Upgradeable)1356,t_mapping(t_address,t_uint256))"
      },
      {
        "astId": 590,
        "contract": "contracts/ZeroXBlocksV1.sol:ZeroXBlocksV1",
        "label": "__gap",
        "offset": 0,
        "slot": "158",
        "type": "t_array(t_uint256)43_storage"
      },
      {
        "astId": 1911,
        "contract": "contracts/ZeroXBlocksV1.sol:ZeroXBlocksV1",
        "label": "_crm",
        "offset": 0,
        "slot": "201",
        "type": "t_contract(CONTRewardManagement)5953"
      },
      {
        "astId": 1914,
        "contract": "contracts/ZeroXBlocksV1.sol:ZeroXBlocksV1",
        "label": "uniswapV2Router",
        "offset": 0,
        "slot": "202",
        "type": "t_contract(IJoeRouter02)6422"
      },
      {
        "astId": 1919,
        "contract": "contracts/ZeroXBlocksV1.sol:ZeroXBlocksV1",
        "label": "ownedContsLimit",
        "offset": 0,
        "slot": "203",
        "type": "t_uint256"
      },
      {
        "astId": 1921,
        "contract": "contracts/ZeroXBlocksV1.sol:ZeroXBlocksV1",
        "label": "mintContLimit",
        "offset": 0,
        "slot": "204",
        "type": "t_uint256"
      },
      {
        "astId": 1923,
        "contract": "contracts/ZeroXBlocksV1.sol:ZeroXBlocksV1",
        "label": "uniswapV2Pair",
        "offset": 0,
        "slot": "205",
        "type": "t_address"
      },
      {
        "astId": 1925,
        "contract": "contracts/ZeroXBlocksV1.sol:ZeroXBlocksV1",
        "label": "totalTokensPaidForMinting",
        "offset": 0,
        "slot": "206",
        "type": "t_uint256"
      },
      {
        "astId": 1927,
        "contract": "contracts/ZeroXBlocksV1.sol:ZeroXBlocksV1",
        "label": "developmentFundPool",
        "offset": 0,
        "slot": "207",
        "type": "t_address"
      },
      {
        "astId": 1929,
        "contract": "contracts/ZeroXBlocksV1.sol:ZeroXBlocksV1",
        "label": "treasuryPool",
        "offset": 0,
        "slot": "208",
        "type": "t_address"
      },
      {
        "astId": 1931,
        "contract": "contracts/ZeroXBlocksV1.sol:ZeroXBlocksV1",
        "label": "rewardsPool",
        "offset": 0,
        "slot": "209",
        "type": "t_address"
      },
      {
        "astId": 1933,
        "contract": "contracts/ZeroXBlocksV1.sol:ZeroXBlocksV1",
        "label": "liquidityPool",
        "offset": 0,
        "slot": "210",
        "type": "t_address"
      },
      {
        "astId": 1935,
        "contract": "contracts/ZeroXBlocksV1.sol:ZeroXBlocksV1",
        "label": "rewardsFee",
        "offset": 0,
        "slot": "211",
        "type": "t_uint256"
      },
      {
        "astId": 1937,
        "contract": "contracts/ZeroXBlocksV1.sol:ZeroXBlocksV1",
        "label": "treasuryFee",
        "offset": 0,
        "slot": "212",
        "type": "t_uint256"
      },
      {
        "astId": 1939,
        "contract": "contracts/ZeroXBlocksV1.sol:ZeroXBlocksV1",
        "label": "liquidityPoolFee",
        "offset": 0,
        "slot": "213",
        "type": "t_uint256"
      },
      {
        "astId": 1941,
        "contract": "contracts/ZeroXBlocksV1.sol:ZeroXBlocksV1",
        "label": "developmentFee",
        "offset": 0,
        "slot": "214",
        "type": "t_uint256"
      },
      {
        "astId": 1943,
        "contract": "contracts/ZeroXBlocksV1.sol:ZeroXBlocksV1",
        "label": "totalFees",
        "offset": 0,
        "slot": "215",
        "type": "t_uint256"
      },
      {
        "astId": 1945,
        "contract": "contracts/ZeroXBlocksV1.sol:ZeroXBlocksV1",
        "label": "cashoutFee",
        "offset": 0,
        "slot": "216",
        "type": "t_uint256"
      },
      {
        "astId": 1947,
        "contract": "contracts/ZeroXBlocksV1.sol:ZeroXBlocksV1",
        "label": "enableAutoSwapTreasury",
        "offset": 0,
        "slot": "217",
        "type": "t_bool"
      },
      {
        "astId": 1949,
        "contract": "contracts/ZeroXBlocksV1.sol:ZeroXBlocksV1",
        "label": "enableAutoSwapDevFund",
        "offset": 1,
        "slot": "217",
        "type": "t_bool"
      },
      {
        "astId": 1951,
        "contract": "contracts/ZeroXBlocksV1.sol:ZeroXBlocksV1",
        "label": "usdcToken",
        "offset": 2,
        "slot": "217",
        "type": "t_address"
      },
      {
        "astId": 1953,
        "contract": "contracts/ZeroXBlocksV1.sol:ZeroXBlocksV1",
        "label": "pinkAntiBot",
        "offset": 0,
        "slot": "218",
        "type": "t_address"
      },
      {
        "astId": 1955,
        "contract": "contracts/ZeroXBlocksV1.sol:ZeroXBlocksV1",
        "label": "antiBotEnabled",
        "offset": 20,
        "slot": "218",
        "type": "t_bool"
      },
      {
        "astId": 1959,
        "contract": "contracts/ZeroXBlocksV1.sol:ZeroXBlocksV1",
        "label": "_isBlacklisted",
        "offset": 0,
        "slot": "219",
        "type": "t_mapping(t_address,t_bool)"
      },
      {
        "astId": 1963,
        "contract": "contracts/ZeroXBlocksV1.sol:ZeroXBlocksV1",
        "label": "automatedMarketMakerPairs",
        "offset": 0,
        "slot": "220",
        "type": "t_mapping(t_address,t_bool)"
      },
      {
        "astId": 1965,
        "contract": "contracts/ZeroXBlocksV1.sol:ZeroXBlocksV1",
        "label": "enableCashout",
        "offset": 0,
        "slot": "221",
        "type": "t_bool"
      },
      {
        "astId": 1967,
        "contract": "contracts/ZeroXBlocksV1.sol:ZeroXBlocksV1",
        "label": "enableMintConts",
        "offset": 1,
        "slot": "221",
        "type": "t_bool"
      }
    ],
    "types": {
      "t_address": {
        "encoding": "inplace",
        "label": "address",
        "numberOfBytes": "20"
      },
      "t_array(t_address)dyn_storage": {
        "base": "t_address",
        "encoding": "dynamic_array",
        "label": "address[]",
        "numberOfBytes": "32"
      },
      "t_array(t_uint256)43_storage": {
        "base": "t_uint256",
        "encoding": "inplace",
        "label": "uint256[43]",
        "numberOfBytes": "1376"
      },
      "t_array(t_uint256)45_storage": {
        "base": "t_uint256",
        "encoding": "inplace",
        "label": "uint256[45]",
        "numberOfBytes": "1440"
      },
      "t_array(t_uint256)49_storage": {
        "base": "t_uint256",
        "encoding": "inplace",
        "label": "uint256[49]",
        "numberOfBytes": "1568"
      },
      "t_array(t_uint256)50_storage": {
        "base": "t_uint256",
        "encoding": "inplace",
        "label": "uint256[50]",
        "numberOfBytes": "1600"
      },
      "t_bool": {
        "encoding": "inplace",
        "label": "bool",
        "numberOfBytes": "1"
      },
      "t_contract(CONTRewardManagement)5953": {
        "encoding": "inplace",
        "label": "contract CONTRewardManagement",
        "numberOfBytes": "20"
      },
      "t_contract(IERC20Upgradeable)1356": {
        "encoding": "inplace",
        "label": "contract IERC20Upgradeable",
        "numberOfBytes": "20"
      },
      "t_contract(IJoeRouter02)6422": {
        "encoding": "inplace",
        "label": "contract IJoeRouter02",
        "numberOfBytes": "20"
      },
      "t_mapping(t_address,t_bool)": {
        "encoding": "mapping",
        "key": "t_address",
        "label": "mapping(address => bool)",
        "numberOfBytes": "32",
        "value": "t_bool"
      },
      "t_mapping(t_address,t_mapping(t_address,t_uint256))": {
        "encoding": "mapping",
        "key": "t_address",
        "label": "mapping(address => mapping(address => uint256))",
        "numberOfBytes": "32",
        "value": "t_mapping(t_address,t_uint256)"
      },
      "t_mapping(t_address,t_uint256)": {
        "encoding": "mapping",
        "key": "t_address",
        "label": "mapping(address => uint256)",
        "numberOfBytes": "32",
        "value": "t_uint256"
      },
      "t_mapping(t_contract(IERC20Upgradeable)1356,t_mapping(t_address,t_uint256))": {
        "encoding": "mapping",
        "key": "t_contract(IERC20Upgradeable)1356",
        "label": "mapping(contract IERC20Upgradeable => mapping(address => uint256))",
        "numberOfBytes": "32",
        "value": "t_mapping(t_address,t_uint256)"
      },
      "t_mapping(t_contract(IERC20Upgradeable)1356,t_uint256)": {
        "encoding": "mapping",
        "key": "t_contract(IERC20Upgradeable)1356",
        "label": "mapping(contract IERC20Upgradeable => uint256)",
        "numberOfBytes": "32",
        "value": "t_uint256"
      },
      "t_string_storage": {
        "encoding": "bytes",
        "label": "string",
        "numberOfBytes": "32"
      },
      "t_uint256": {
        "encoding": "inplace",
        "label": "uint256",
        "numberOfBytes": "32"
      }
    }
  }
}