{
  "address": "0x446935BC326665fC1cAa8F5EB4837c605BBf186a",
  "abi": [
    {
      "anonymous": false,
      "inputs": [
        {
          "indexed": false,
          "internalType": "address",
          "name": "sender",
          "type": "address"
        },
        {
          "indexed": false,
          "internalType": "uint256",
          "name": "tokens",
          "type": "uint256"
        }
      ],
      "name": "AddLiquidity",
      "type": "event"
    },
    {
      "anonymous": false,
      "inputs": [
        {
          "indexed": true,
          "internalType": "address",
          "name": "owner",
          "type": "address"
        },
        {
          "indexed": true,
          "internalType": "address",
          "name": "spender",
          "type": "address"
        },
        {
          "indexed": false,
          "internalType": "uint256",
          "name": "value",
          "type": "uint256"
        }
      ],
      "name": "Approval",
      "type": "event"
    },
    {
      "anonymous": false,
      "inputs": [
        {
          "indexed": false,
          "internalType": "address",
          "name": "sender",
          "type": "address"
        }
      ],
      "name": "ContsMinted",
      "type": "event"
    },
    {
      "anonymous": false,
      "inputs": [
        {
          "indexed": true,
          "internalType": "contract IERC20Upgradeable",
          "name": "token",
          "type": "address"
        },
        {
          "indexed": false,
          "internalType": "address",
          "name": "to",
          "type": "address"
        },
        {
          "indexed": false,
          "internalType": "uint256",
          "name": "amount",
          "type": "uint256"
        }
      ],
      "name": "ERC20PaymentReleased",
      "type": "event"
    },
    {
      "anonymous": false,
      "inputs": [
        {
          "indexed": true,
          "internalType": "address",
          "name": "previousOwner",
          "type": "address"
        },
        {
          "indexed": true,
          "internalType": "address",
          "name": "newOwner",
          "type": "address"
        }
      ],
      "name": "OwnershipTransferred",
      "type": "event"
    },
    {
      "anonymous": false,
      "inputs": [
        {
          "indexed": false,
          "internalType": "address",
          "name": "account",
          "type": "address"
        },
        {
          "indexed": false,
          "internalType": "uint256",
          "name": "shares",
          "type": "uint256"
        }
      ],
      "name": "PayeeAdded",
      "type": "event"
    },
    {
      "anonymous": false,
      "inputs": [
        {
          "indexed": false,
          "internalType": "address",
          "name": "from",
          "type": "address"
        },
        {
          "indexed": false,
          "internalType": "uint256",
          "name": "amount",
          "type": "uint256"
        }
      ],
      "name": "PaymentReceived",
      "type": "event"
    },
    {
      "anonymous": false,
      "inputs": [
        {
          "indexed": false,
          "internalType": "address",
          "name": "to",
          "type": "address"
        },
        {
          "indexed": false,
          "internalType": "uint256",
          "name": "amount",
          "type": "uint256"
        }
      ],
      "name": "PaymentReleased",
      "type": "event"
    },
    {
      "anonymous": false,
      "inputs": [
        {
          "indexed": false,
          "internalType": "address",
          "name": "sender",
          "type": "address"
        }
      ],
      "name": "RewardCashoutAll",
      "type": "event"
    },
    {
      "anonymous": false,
      "inputs": [
        {
          "indexed": false,
          "internalType": "address",
          "name": "sender",
          "type": "address"
        },
        {
          "indexed": false,
          "internalType": "uint256",
          "name": "index",
          "type": "uint256"
        }
      ],
      "name": "RewardCashoutOne",
      "type": "event"
    },
    {
      "anonymous": false,
      "inputs": [
        {
          "indexed": true,
          "internalType": "address",
          "name": "from",
          "type": "address"
        },
        {
          "indexed": true,
          "internalType": "address",
          "name": "to",
          "type": "address"
        },
        {
          "indexed": false,
          "internalType": "uint256",
          "name": "value",
          "type": "uint256"
        }
      ],
      "name": "Transfer",
      "type": "event"
    },
    {
      "inputs": [],
      "name": "_crm",
      "outputs": [
        {
          "internalType": "contract CONTRewardManagement",
          "name": "",
          "type": "address"
        }
      ],
      "stateMutability": "view",
      "type": "function"
    },
    {
      "inputs": [
        {
          "internalType": "address",
          "name": "",
          "type": "address"
        }
      ],
      "name": "_isBlacklisted",
      "outputs": [
        {
          "internalType": "bool",
          "name": "",
          "type": "bool"
        }
      ],
      "stateMutability": "view",
      "type": "function"
    },
    {
      "inputs": [],
      "name": "_liqRouter",
      "outputs": [
        {
          "internalType": "contract LiquidityRouter",
          "name": "",
          "type": "address"
        }
      ],
      "stateMutability": "view",
      "type": "function"
    },
    {
      "inputs": [
        {
          "internalType": "address",
          "name": "owner",
          "type": "address"
        },
        {
          "internalType": "address",
          "name": "spender",
          "type": "address"
        }
      ],
      "name": "allowance",
      "outputs": [
        {
          "internalType": "uint256",
          "name": "",
          "type": "uint256"
        }
      ],
      "stateMutability": "view",
      "type": "function"
    },
    {
      "inputs": [
        {
          "internalType": "address",
          "name": "spender",
          "type": "address"
        },
        {
          "internalType": "uint256",
          "name": "amount",
          "type": "uint256"
        }
      ],
      "name": "approve",
      "outputs": [
        {
          "internalType": "bool",
          "name": "",
          "type": "bool"
        }
      ],
      "stateMutability": "nonpayable",
      "type": "function"
    },
    {
      "inputs": [
        {
          "internalType": "address",
          "name": "account",
          "type": "address"
        }
      ],
      "name": "balanceOf",
      "outputs": [
        {
          "internalType": "uint256",
          "name": "",
          "type": "uint256"
        }
      ],
      "stateMutability": "view",
      "type": "function"
    },
    {
      "inputs": [],
      "name": "cashoutAll",
      "outputs": [],
      "stateMutability": "nonpayable",
      "type": "function"
    },
    {
      "inputs": [],
      "name": "cashoutFee",
      "outputs": [
        {
          "internalType": "uint256",
          "name": "",
          "type": "uint256"
        }
      ],
      "stateMutability": "view",
      "type": "function"
    },
    {
      "inputs": [
        {
          "internalType": "uint256",
          "name": "_contIndex",
          "type": "uint256"
        }
      ],
      "name": "cashoutReward",
      "outputs": [],
      "stateMutability": "nonpayable",
      "type": "function"
    },
    {
      "inputs": [
        {
          "internalType": "uint256",
          "name": "newTime",
          "type": "uint256"
        }
      ],
      "name": "changeCashoutTimeout",
      "outputs": [],
      "stateMutability": "nonpayable",
      "type": "function"
    },
    {
      "inputs": [
        {
          "internalType": "enum ContType",
          "name": "_cType",
          "type": "uint8"
        },
        {
          "internalType": "uint256",
          "name": "newPrice",
          "type": "uint256"
        }
      ],
      "name": "changeContPrice",
      "outputs": [],
      "stateMutability": "nonpayable",
      "type": "function"
    },
    {
      "inputs": [
        {
          "internalType": "bool",
          "name": "newVal",
          "type": "bool"
        }
      ],
      "name": "changeEnableAutoSwapDevFund",
      "outputs": [],
      "stateMutability": "nonpayable",
      "type": "function"
    },
    {
      "inputs": [
        {
          "internalType": "bool",
          "name": "newVal",
          "type": "bool"
        }
      ],
      "name": "changeEnableAutoSwapTreasury",
      "outputs": [],
      "stateMutability": "nonpayable",
      "type": "function"
    },
    {
      "inputs": [
        {
          "internalType": "enum ContType",
          "name": "_cType",
          "type": "uint8"
        },
        {
          "internalType": "int256",
          "name": "deductPcent",
          "type": "int256"
        }
      ],
      "name": "changeRewardAPRPerCont",
      "outputs": [],
      "stateMutability": "nonpayable",
      "type": "function"
    },
    {
      "inputs": [],
      "name": "decimals",
      "outputs": [
        {
          "internalType": "uint8",
          "name": "",
          "type": "uint8"
        }
      ],
      "stateMutability": "view",
      "type": "function"
    },
    {
      "inputs": [
        {
          "internalType": "address",
          "name": "spender",
          "type": "address"
        },
        {
          "internalType": "uint256",
          "name": "subtractedValue",
          "type": "uint256"
        }
      ],
      "name": "decreaseAllowance",
      "outputs": [
        {
          "internalType": "bool",
          "name": "",
          "type": "bool"
        }
      ],
      "stateMutability": "nonpayable",
      "type": "function"
    },
    {
      "inputs": [],
      "name": "developmentFee",
      "outputs": [
        {
          "internalType": "uint256",
          "name": "",
          "type": "uint256"
        }
      ],
      "stateMutability": "view",
      "type": "function"
    },
    {
      "inputs": [],
      "name": "developmentFundPool",
      "outputs": [
        {
          "internalType": "address",
          "name": "",
          "type": "address"
        }
      ],
      "stateMutability": "view",
      "type": "function"
    },
    {
      "inputs": [],
      "name": "enableAutoSwapDevFund",
      "outputs": [
        {
          "internalType": "bool",
          "name": "",
          "type": "bool"
        }
      ],
      "stateMutability": "view",
      "type": "function"
    },
    {
      "inputs": [],
      "name": "enableAutoSwapTreasury",
      "outputs": [
        {
          "internalType": "bool",
          "name": "",
          "type": "bool"
        }
      ],
      "stateMutability": "view",
      "type": "function"
    },
    {
      "inputs": [],
      "name": "enableCashout",
      "outputs": [
        {
          "internalType": "bool",
          "name": "",
          "type": "bool"
        }
      ],
      "stateMutability": "view",
      "type": "function"
    },
    {
      "inputs": [],
      "name": "enableMintConts",
      "outputs": [
        {
          "internalType": "bool",
          "name": "",
          "type": "bool"
        }
      ],
      "stateMutability": "view",
      "type": "function"
    },
    {
      "inputs": [],
      "name": "getCashoutTimeout",
      "outputs": [
        {
          "internalType": "uint256",
          "name": "",
          "type": "uint256"
        }
      ],
      "stateMutability": "view",
      "type": "function"
    },
    {
      "inputs": [
        {
          "internalType": "enum ContType",
          "name": "_cType",
          "type": "uint8"
        }
      ],
      "name": "getContPrice",
      "outputs": [
        {
          "internalType": "uint256",
          "name": "",
          "type": "uint256"
        }
      ],
      "stateMutability": "view",
      "type": "function"
    },
    {
      "inputs": [],
      "name": "getContsCreationTime",
      "outputs": [
        {
          "internalType": "string",
          "name": "",
          "type": "string"
        }
      ],
      "stateMutability": "view",
      "type": "function"
    },
    {
      "inputs": [],
      "name": "getContsCurrentAPR",
      "outputs": [
        {
          "internalType": "string",
          "name": "",
          "type": "string"
        }
      ],
      "stateMutability": "view",
      "type": "function"
    },
    {
      "inputs": [],
      "name": "getContsInitialAPR",
      "outputs": [
        {
          "internalType": "string",
          "name": "",
          "type": "string"
        }
      ],
      "stateMutability": "view",
      "type": "function"
    },
    {
      "inputs": [],
      "name": "getContsLastCashoutTime",
      "outputs": [
        {
          "internalType": "string",
          "name": "",
          "type": "string"
        }
      ],
      "stateMutability": "view",
      "type": "function"
    },
    {
      "inputs": [],
      "name": "getContsNames",
      "outputs": [
        {
          "internalType": "string",
          "name": "",
          "type": "string"
        }
      ],
      "stateMutability": "view",
      "type": "function"
    },
    {
      "inputs": [],
      "name": "getContsRewards",
      "outputs": [
        {
          "internalType": "string",
          "name": "",
          "type": "string"
        }
      ],
      "stateMutability": "view",
      "type": "function"
    },
    {
      "inputs": [],
      "name": "getContsTypes",
      "outputs": [
        {
          "internalType": "string",
          "name": "",
          "type": "string"
        }
      ],
      "stateMutability": "view",
      "type": "function"
    },
    {
      "inputs": [
        {
          "internalType": "bool",
          "name": "is0xBOut",
          "type": "bool"
        },
        {
          "internalType": "address",
          "name": "targetToken",
          "type": "address"
        },
        {
          "internalType": "uint256",
          "name": "outputAmount",
          "type": "uint256"
        }
      ],
      "name": "getInputAmount",
      "outputs": [
        {
          "internalType": "uint256[]",
          "name": "",
          "type": "uint256[]"
        }
      ],
      "stateMutability": "view",
      "type": "function"
    },
    {
      "inputs": [
        {
          "internalType": "bool",
          "name": "is0xBOut",
          "type": "bool"
        },
        {
          "internalType": "address",
          "name": "targetToken",
          "type": "address"
        },
        {
          "internalType": "uint256",
          "name": "inputAmount",
          "type": "uint256"
        }
      ],
      "name": "getOutputAmount",
      "outputs": [
        {
          "internalType": "uint256[]",
          "name": "",
          "type": "uint256[]"
        }
      ],
      "stateMutability": "view",
      "type": "function"
    },
    {
      "inputs": [
        {
          "internalType": "enum ContType",
          "name": "_cType",
          "type": "uint8"
        }
      ],
      "name": "getRewardAPRPerCont",
      "outputs": [
        {
          "internalType": "uint256",
          "name": "",
          "type": "uint256"
        }
      ],
      "stateMutability": "view",
      "type": "function"
    },
    {
      "inputs": [],
      "name": "getRewardAmount",
      "outputs": [
        {
          "internalType": "uint256",
          "name": "",
          "type": "uint256"
        }
      ],
      "stateMutability": "view",
      "type": "function"
    },
    {
      "inputs": [],
      "name": "getTotalConts",
      "outputs": [
        {
          "internalType": "uint256",
          "name": "",
          "type": "uint256"
        }
      ],
      "stateMutability": "view",
      "type": "function"
    },
    {
      "inputs": [
        {
          "internalType": "enum ContType",
          "name": "__cType",
          "type": "uint8"
        }
      ],
      "name": "getTotalContsPerContType",
      "outputs": [
        {
          "internalType": "uint256",
          "name": "",
          "type": "uint256"
        }
      ],
      "stateMutability": "view",
      "type": "function"
    },
    {
      "inputs": [
        {
          "internalType": "address",
          "name": "spender",
          "type": "address"
        },
        {
          "internalType": "uint256",
          "name": "addedValue",
          "type": "uint256"
        }
      ],
      "name": "increaseAllowance",
      "outputs": [
        {
          "internalType": "bool",
          "name": "",
          "type": "bool"
        }
      ],
      "stateMutability": "nonpayable",
      "type": "function"
    },
    {
      "inputs": [
        {
          "internalType": "address[]",
          "name": "payees",
          "type": "address[]"
        },
        {
          "internalType": "uint256[]",
          "name": "shares",
          "type": "uint256[]"
        },
        {
          "internalType": "address[]",
          "name": "addresses",
          "type": "address[]"
        },
        {
          "internalType": "uint256[]",
          "name": "balances",
          "type": "uint256[]"
        },
        {
          "internalType": "uint256[]",
          "name": "fees",
          "type": "uint256[]"
        },
        {
          "internalType": "address",
          "name": "usdcAddr",
          "type": "address"
        }
      ],
      "name": "initialize",
      "outputs": [],
      "stateMutability": "nonpayable",
      "type": "function"
    },
    {
      "inputs": [],
      "name": "liquidityPool",
      "outputs": [
        {
          "internalType": "address",
          "name": "",
          "type": "address"
        }
      ],
      "stateMutability": "view",
      "type": "function"
    },
    {
      "inputs": [],
      "name": "liquidityPoolFee",
      "outputs": [
        {
          "internalType": "uint256",
          "name": "",
          "type": "uint256"
        }
      ],
      "stateMutability": "view",
      "type": "function"
    },
    {
      "inputs": [
        {
          "internalType": "string[]",
          "name": "names",
          "type": "string[]"
        },
        {
          "internalType": "enum ContType",
          "name": "_cType",
          "type": "uint8"
        }
      ],
      "name": "mintConts",
      "outputs": [],
      "stateMutability": "nonpayable",
      "type": "function"
    },
    {
      "inputs": [],
      "name": "name",
      "outputs": [
        {
          "internalType": "string",
          "name": "",
          "type": "string"
        }
      ],
      "stateMutability": "view",
      "type": "function"
    },
    {
      "inputs": [],
      "name": "ownedContsLimit",
      "outputs": [
        {
          "internalType": "uint256",
          "name": "",
          "type": "uint256"
        }
      ],
      "stateMutability": "view",
      "type": "function"
    },
    {
      "inputs": [],
      "name": "owner",
      "outputs": [
        {
          "internalType": "address",
          "name": "",
          "type": "address"
        }
      ],
      "stateMutability": "view",
      "type": "function"
    },
    {
      "inputs": [
        {
          "internalType": "uint256",
          "name": "index",
          "type": "uint256"
        }
      ],
      "name": "payee",
      "outputs": [
        {
          "internalType": "address",
          "name": "",
          "type": "address"
        }
      ],
      "stateMutability": "view",
      "type": "function"
    },
    {
      "inputs": [
        {
          "internalType": "address payable",
          "name": "account",
          "type": "address"
        }
      ],
      "name": "release",
      "outputs": [],
      "stateMutability": "nonpayable",
      "type": "function"
    },
    {
      "inputs": [
        {
          "internalType": "contract IERC20Upgradeable",
          "name": "token",
          "type": "address"
        },
        {
          "internalType": "address",
          "name": "account",
          "type": "address"
        }
      ],
      "name": "release",
      "outputs": [],
      "stateMutability": "nonpayable",
      "type": "function"
    },
    {
      "inputs": [
        {
          "internalType": "contract IERC20Upgradeable",
          "name": "token",
          "type": "address"
        },
        {
          "internalType": "address",
          "name": "account",
          "type": "address"
        }
      ],
      "name": "released",
      "outputs": [
        {
          "internalType": "uint256",
          "name": "",
          "type": "uint256"
        }
      ],
      "stateMutability": "view",
      "type": "function"
    },
    {
      "inputs": [
        {
          "internalType": "address",
          "name": "account",
          "type": "address"
        }
      ],
      "name": "released",
      "outputs": [
        {
          "internalType": "uint256",
          "name": "",
          "type": "uint256"
        }
      ],
      "stateMutability": "view",
      "type": "function"
    },
    {
      "inputs": [],
      "name": "renounceOwnership",
      "outputs": [],
      "stateMutability": "nonpayable",
      "type": "function"
    },
    {
      "inputs": [
        {
          "internalType": "address",
          "name": "userAddr",
          "type": "address"
        },
        {
          "internalType": "uint256",
          "name": "tokens",
          "type": "uint256"
        }
      ],
      "name": "rescueMissentToken",
      "outputs": [],
      "stateMutability": "nonpayable",
      "type": "function"
    },
    {
      "inputs": [],
      "name": "rewardsFee",
      "outputs": [
        {
          "internalType": "uint256",
          "name": "",
          "type": "uint256"
        }
      ],
      "stateMutability": "view",
      "type": "function"
    },
    {
      "inputs": [],
      "name": "rewardsPool",
      "outputs": [
        {
          "internalType": "address",
          "name": "",
          "type": "address"
        }
      ],
      "stateMutability": "view",
      "type": "function"
    },
    {
      "inputs": [
        {
          "internalType": "address",
          "name": "account",
          "type": "address"
        },
        {
          "internalType": "bool",
          "name": "value",
          "type": "bool"
        }
      ],
      "name": "setBlacklistStatus",
      "outputs": [],
      "stateMutability": "nonpayable",
      "type": "function"
    },
    {
      "inputs": [
        {
          "internalType": "address",
          "name": "crm",
          "type": "address"
        }
      ],
      "name": "setContManagement",
      "outputs": [],
      "stateMutability": "nonpayable",
      "type": "function"
    },
    {
      "inputs": [
        {
          "internalType": "bool",
          "name": "_enableCashout",
          "type": "bool"
        }
      ],
      "name": "setEnableCashout",
      "outputs": [],
      "stateMutability": "nonpayable",
      "type": "function"
    },
    {
      "inputs": [
        {
          "internalType": "bool",
          "name": "value",
          "type": "bool"
        }
      ],
      "name": "setEnableMintConts",
      "outputs": [],
      "stateMutability": "nonpayable",
      "type": "function"
    },
    {
      "inputs": [
        {
          "internalType": "address",
          "name": "liqRouter",
          "type": "address"
        }
      ],
      "name": "setLiquidityRouter",
      "outputs": [],
      "stateMutability": "nonpayable",
      "type": "function"
    },
    {
      "inputs": [
        {
          "internalType": "address",
          "name": "newAddress",
          "type": "address"
        }
      ],
      "name": "setUSDCAddress",
      "outputs": [],
      "stateMutability": "nonpayable",
      "type": "function"
    },
    {
      "inputs": [
        {
          "internalType": "address",
          "name": "account",
          "type": "address"
        }
      ],
      "name": "shares",
      "outputs": [
        {
          "internalType": "uint256",
          "name": "",
          "type": "uint256"
        }
      ],
      "stateMutability": "view",
      "type": "function"
    },
    {
      "inputs": [
        {
          "internalType": "address",
          "name": "tokenAddr",
          "type": "address"
        },
        {
          "internalType": "uint256",
          "name": "amountOut",
          "type": "uint256"
        }
      ],
      "name": "swap0xBForExactToken",
      "outputs": [],
      "stateMutability": "nonpayable",
      "type": "function"
    },
    {
      "inputs": [
        {
          "internalType": "address",
          "name": "tokenAddr",
          "type": "address"
        },
        {
          "internalType": "uint256",
          "name": "amountIn",
          "type": "uint256"
        }
      ],
      "name": "swapExact0xBForToken",
      "outputs": [],
      "stateMutability": "nonpayable",
      "type": "function"
    },
    {
      "inputs": [],
      "name": "symbol",
      "outputs": [
        {
          "internalType": "string",
          "name": "",
          "type": "string"
        }
      ],
      "stateMutability": "view",
      "type": "function"
    },
    {
      "inputs": [],
      "name": "totalFees",
      "outputs": [
        {
          "internalType": "uint256",
          "name": "",
          "type": "uint256"
        }
      ],
      "stateMutability": "view",
      "type": "function"
    },
    {
      "inputs": [
        {
          "internalType": "contract IERC20Upgradeable",
          "name": "token",
          "type": "address"
        }
      ],
      "name": "totalReleased",
      "outputs": [
        {
          "internalType": "uint256",
          "name": "",
          "type": "uint256"
        }
      ],
      "stateMutability": "view",
      "type": "function"
    },
    {
      "inputs": [],
      "name": "totalReleased",
      "outputs": [
        {
          "internalType": "uint256",
          "name": "",
          "type": "uint256"
        }
      ],
      "stateMutability": "view",
      "type": "function"
    },
    {
      "inputs": [],
      "name": "totalShares",
      "outputs": [
        {
          "internalType": "uint256",
          "name": "",
          "type": "uint256"
        }
      ],
      "stateMutability": "view",
      "type": "function"
    },
    {
      "inputs": [],
      "name": "totalSupply",
      "outputs": [
        {
          "internalType": "uint256",
          "name": "",
          "type": "uint256"
        }
      ],
      "stateMutability": "view",
      "type": "function"
    },
    {
      "inputs": [],
      "name": "totalTokensPaidForMinting",
      "outputs": [
        {
          "internalType": "uint256",
          "name": "",
          "type": "uint256"
        }
      ],
      "stateMutability": "view",
      "type": "function"
    },
    {
      "inputs": [
        {
          "internalType": "address",
          "name": "to",
          "type": "address"
        },
        {
          "internalType": "uint256",
          "name": "amount",
          "type": "uint256"
        }
      ],
      "name": "transfer",
      "outputs": [
        {
          "internalType": "bool",
          "name": "",
          "type": "bool"
        }
      ],
      "stateMutability": "nonpayable",
      "type": "function"
    },
    {
      "inputs": [
        {
          "internalType": "address",
          "name": "from",
          "type": "address"
        },
        {
          "internalType": "address",
          "name": "to",
          "type": "address"
        },
        {
          "internalType": "uint256",
          "name": "amount",
          "type": "uint256"
        }
      ],
      "name": "transferFrom",
      "outputs": [
        {
          "internalType": "bool",
          "name": "",
          "type": "bool"
        }
      ],
      "stateMutability": "nonpayable",
      "type": "function"
    },
    {
      "inputs": [
        {
          "internalType": "address",
          "name": "newOwner",
          "type": "address"
        }
      ],
      "name": "transferOwnership",
      "outputs": [],
      "stateMutability": "nonpayable",
      "type": "function"
    },
    {
      "inputs": [],
      "name": "treasuryFee",
      "outputs": [
        {
          "internalType": "uint256",
          "name": "",
          "type": "uint256"
        }
      ],
      "stateMutability": "view",
      "type": "function"
    },
    {
      "inputs": [],
      "name": "treasuryPool",
      "outputs": [
        {
          "internalType": "address",
          "name": "",
          "type": "address"
        }
      ],
      "stateMutability": "view",
      "type": "function"
    },
    {
      "inputs": [
        {
          "internalType": "uint256",
          "name": "value",
          "type": "uint256"
        }
      ],
      "name": "updateCashoutFee",
      "outputs": [],
      "stateMutability": "nonpayable",
      "type": "function"
    },
    {
      "inputs": [
        {
          "internalType": "uint256",
          "name": "value",
          "type": "uint256"
        }
      ],
      "name": "updateDevelopmentFee",
      "outputs": [],
      "stateMutability": "nonpayable",
      "type": "function"
    },
    {
      "inputs": [
        {
          "internalType": "address payable",
          "name": "wall",
          "type": "address"
        }
      ],
      "name": "updateDevelopmentFundWallet",
      "outputs": [],
      "stateMutability": "nonpayable",
      "type": "function"
    },
    {
      "inputs": [
        {
          "internalType": "uint256",
          "name": "value",
          "type": "uint256"
        }
      ],
      "name": "updateLiquidityFee",
      "outputs": [],
      "stateMutability": "nonpayable",
      "type": "function"
    },
    {
      "inputs": [
        {
          "internalType": "address payable",
          "name": "wall",
          "type": "address"
        }
      ],
      "name": "updateLiquidityWallet",
      "outputs": [],
      "stateMutability": "nonpayable",
      "type": "function"
    },
    {
      "inputs": [
        {
          "internalType": "uint256",
          "name": "value",
          "type": "uint256"
        }
      ],
      "name": "updateRewardsFee",
      "outputs": [],
      "stateMutability": "nonpayable",
      "type": "function"
    },
    {
      "inputs": [
        {
          "internalType": "address payable",
          "name": "wall",
          "type": "address"
        }
      ],
      "name": "updateRewardsWallet",
      "outputs": [],
      "stateMutability": "nonpayable",
      "type": "function"
    },
    {
      "inputs": [
        {
          "internalType": "uint256",
          "name": "value",
          "type": "uint256"
        }
      ],
      "name": "updateTreasuryFee",
      "outputs": [],
      "stateMutability": "nonpayable",
      "type": "function"
    },
    {
      "inputs": [
        {
          "internalType": "address payable",
          "name": "wall",
          "type": "address"
        }
      ],
      "name": "updateTreasuryWallet",
      "outputs": [],
      "stateMutability": "nonpayable",
      "type": "function"
    },
    {
      "inputs": [
        {
          "internalType": "address",
          "name": "_newAddr",
          "type": "address"
        }
      ],
      "name": "updateUniswapV2Router",
      "outputs": [],
      "stateMutability": "nonpayable",
      "type": "function"
    },
    {
      "inputs": [],
      "name": "usdcToken",
      "outputs": [
        {
          "internalType": "address",
          "name": "",
          "type": "address"
        }
      ],
      "stateMutability": "view",
      "type": "function"
    },
    {
      "stateMutability": "payable",
      "type": "receive"
    }
  ],
  "transactionHash": "0x38995404b09aca26bbd67e9e65b78808b8a4d96b00d013bbad1e4eb2939455ba",
  "args": [],
  "numDeployments": 7,
  "solcInputHash": "eb116ebbea2213b5395f4d3dafd61578",
  "bytecode": "0x608060405234801561001057600080fd5b5061542b806100206000396000f3fe6080604052600436106104b95760003560e01c806382a8ebad1161026b578063b3328aae1161014f578063d631f705116100c1578063e33b7de311610085578063e33b7de314610e93578063e37ba8f914610ea8578063eb71c5d914610ec8578063f2fde38b14610ee7578063f5c1365314610f07578063f78d5c5514610f2757600080fd5b8063d631f70514610dee578063d79779b214610e0e578063dd62ed3e14610e44578063e0583ec014610e64578063e22ee81314610e7e57600080fd5b8063cbf1704411610113578063cbf1704414610d22578063cc32d17614610d42578063cd6e18f114610d58578063ce7c2ac214610d78578063cfc0d02414610dae578063d3a2c9cf14610dce57600080fd5b8063b3328aae14610c85578063b9bd393314610ca5578063bcb8ebfc14610cbf578063bd74767814610cd5578063c3491b4914610d0257600080fd5b806397232830116101e8578063a432697a116101ac578063a432697a14610bda578063a457c2d714610bfa578063a5f3d00314610c1a578063a6559ce414610c30578063a9059cbb14610c45578063aaf5bfc314610c6557600080fd5b80639723283014610b2f5780639852595c14610b4f5780639a6e80db14610b855780639b03f44914610ba55780639dc73a4914610bba57600080fd5b80638da5cb5b1161022f5780638da5cb5b14610aa75780638e67566314610ac55780638ea928f114610ae55780639149acbc14610afa57806395d89b4114610b1a57600080fd5b806382a8ebad14610a12578063839df91914610a3257806384884e4414610a525780638b83209b14610a675780638d28914414610a8757600080fd5b8063395093511161039d578063665a11ca1161030f578063715018a6116102d3578063715018a61461097357806378045b4d146109885780637a0aacf31461099d578063809d458d146109bd578063810be66d146109dd5780638161ab76146109fd57600080fd5b8063665a11ca146108e85780636815a91c146109085780636b38c586146109285780636d9ae0be1461093d57806370a082311461095357600080fd5b80635455797311610361578063545579731461083d57806354f12f1f14610852578063559bf3021461086857806357dae0631461088857806365b8dbc0146108a857806365bfe430146108c857600080fd5b806339509351146107a85780633a98ef39146107c8578063406072a9146107dd57806348b75044146107fd57806348df58291461081d57600080fd5b806313114a9d11610436578063239c038a116103fa578063239c038a1461070057806323b872dd146107205780632bb14e1d146107405780633086319d14610756578063313ce56714610776578063393061401461079257600080fd5b806313114a9d1461066557806318160ddd1461067b57806319165587146106905780631cdd3be3146106b05780631e7a934e146106e057600080fd5b806309a69f571161047d57806309a69f57146105c85780630c162440146105eb5780630f1978fb1461060b57806310153e7b1461062a57806311eac8551461063f57600080fd5b80630359fea9146104fe57806303d29d281461053457806306fdde0314610556578063084a6bff14610578578063095ea7b31461059857600080fd5b366104f9577f6ef95f06320e7a25a04a175ca677b7052bdd97131872c2192525a629f51be77033346040516104ef929190614f7c565b60405180910390a1005b600080fd5b34801561050a57600080fd5b5060d05461051e906001600160a01b031681565b60405161052b9190614f68565b60405180910390f35b34801561054057600080fd5b5061055461054f366004614aec565b610f47565b005b34801561056257600080fd5b5061056b610fa5565b60405161052b919061509d565b34801561058457600080fd5b50610554610593366004614ecc565b611037565b3480156105a457600080fd5b506105b86105b3366004614b1a565b6110b9565b604051901515815260200161052b565b3480156105d457600080fd5b506105dd6110d3565b60405190815260200161052b565b3480156105f757600080fd5b50610554610606366004614e39565b611175565b34801561061757600080fd5b5060d8546105b890610100900460ff1681565b34801561063657600080fd5b5061056b61126b565b34801561064b57600080fd5b5060d85461051e906201000090046001600160a01b031681565b34801561067157600080fd5b506105dd60d65481565b34801561068757600080fd5b506035546105dd565b34801561069c57600080fd5b506105546106ab366004614a38565b61130d565b3480156106bc57600080fd5b506105b86106cb366004614a38565b60d96020526000908152604090205460ff1681565b3480156106ec57600080fd5b506105dd6106fb366004614e1e565b611432565b34801561070c57600080fd5b506105dd61071b366004614e1e565b6114b3565b34801561072c57600080fd5b506105b861073b366004614aab565b6114e4565b34801561074c57600080fd5b506105dd60d25481565b34801561076257600080fd5b50610554610771366004614c27565b61150a565b34801561078257600080fd5b506040516012815260200161052b565b34801561079e57600080fd5b506105dd60cd5481565b3480156107b457600080fd5b506105b86107c3366004614b1a565b611b81565b3480156107d457600080fd5b506097546105dd565b3480156107e957600080fd5b506105dd6107f8366004614a72565b611bc0565b34801561080957600080fd5b50610554610818366004614a72565b611beb565b34801561082957600080fd5b5060cf5461051e906001600160a01b031681565b34801561084957600080fd5b50610554611daf565b34801561085e57600080fd5b506105dd60d45481565b34801561087457600080fd5b50610554610883366004614a38565b612108565b34801561089457600080fd5b506105546108a3366004614b46565b61217a565b3480156108b457600080fd5b506105546108c3366004614a38565b612818565b3480156108d457600080fd5b506105546108e3366004614ecc565b6128a7565b3480156108f457600080fd5b5060d15461051e906001600160a01b031681565b34801561091457600080fd5b50610554610923366004614ecc565b612c1c565b34801561093457600080fd5b5061056b612c9c565b34801561094957600080fd5b506105dd60d75481565b34801561095f57600080fd5b506105dd61096e366004614a38565b612cd2565b34801561097f57600080fd5b50610554612ced565b34801561099457600080fd5b506105dd612d23565b3480156109a957600080fd5b506105dd6109b8366004614e1e565b612d68565b3480156109c957600080fd5b506105546109d8366004614a38565b612d97565b3480156109e957600080fd5b5060ce5461051e906001600160a01b031681565b348015610a0957600080fd5b5061056b612e09565b348015610a1e57600080fd5b5060ca5461051e906001600160a01b031681565b348015610a3e57600080fd5b50610554610a4d366004614dc4565b612e3f565b348015610a5e57600080fd5b5061056b612e83565b348015610a7357600080fd5b5061051e610a82366004614ecc565b612eb9565b348015610a9357600080fd5b50610554610aa2366004614a38565b612ee9565b348015610ab357600080fd5b506065546001600160a01b031661051e565b348015610ad157600080fd5b50610554610ae0366004614ecc565b612f80565b348015610af157600080fd5b5061056b613002565b348015610b0657600080fd5b50610554610b15366004614dc4565b613038565b348015610b2657600080fd5b5061056b61307c565b348015610b3b57600080fd5b50610554610b4a366004614ecc565b61308b565b348015610b5b57600080fd5b506105dd610b6a366004614a38565b6001600160a01b03166000908152609a602052604090205490565b348015610b9157600080fd5b5060c95461051e906001600160a01b031681565b348015610bb157600080fd5b5061056b61310d565b348015610bc657600080fd5b50610554610bd5366004614dc4565b613143565b348015610be657600080fd5b50610554610bf5366004614b1a565b613180565b348015610c0657600080fd5b506105b8610c15366004614b1a565b6131fe565b348015610c2657600080fd5b506105dd60d55481565b348015610c3c57600080fd5b506105dd61329b565b348015610c5157600080fd5b506105b8610c60366004614b1a565b6132e0565b348015610c7157600080fd5b50610554610c80366004614a38565b6132ee565b348015610c9157600080fd5b50610554610ca0366004614dc4565b613342565b348015610cb157600080fd5b5060da546105b89060ff1681565b348015610ccb57600080fd5b506105dd60cb5481565b348015610ce157600080fd5b50610cf5610cf0366004614dfe565b61337f565b60405161052b919061500f565b348015610d0e57600080fd5b50610554610d1d366004614ecc565b613410565b348015610d2e57600080fd5b50610554610d3d366004614b1a565b61346b565b348015610d4e57600080fd5b506105dd60d35481565b348015610d6457600080fd5b50610554610d73366004614a38565b613592565b348015610d8457600080fd5b506105dd610d93366004614a38565b6001600160a01b031660009081526099602052604090205490565b348015610dba57600080fd5b50610554610dc9366004614a38565b61362d565b348015610dda57600080fd5b50610554610de9366004614e39565b61369f565b348015610dfa57600080fd5b50610554610e09366004614b1a565b6136fb565b348015610e1a57600080fd5b506105dd610e29366004614a38565b6001600160a01b03166000908152609c602052604090205490565b348015610e5057600080fd5b506105dd610e5f366004614a72565b6137f3565b348015610e7057600080fd5b5060d8546105b89060ff1681565b348015610e8a57600080fd5b5061056b61381e565b348015610e9f57600080fd5b506098546105dd565b348015610eb457600080fd5b50610554610ec3366004614a38565b613854565b348015610ed457600080fd5b5060da546105b890610100900460ff1681565b348015610ef357600080fd5b50610554610f02366004614a38565b6138c6565b348015610f1357600080fd5b50610cf5610f22366004614dfe565b613961565b348015610f3357600080fd5b50610554610f42366004614ecc565b613996565b6065546001600160a01b03163314610f7a5760405162461bcd60e51b8152600401610f719061516e565b60405180910390fd5b6001600160a01b0391909116600090815260d960205260409020805460ff1916911515919091179055565b606060368054610fb490615363565b80601f0160208091040260200160405190810160405280929190818152602001828054610fe090615363565b801561102d5780601f106110025761010080835404028352916020019161102d565b820191906000526020600020905b81548152906001019060200180831161101057829003601f168201915b5050505050905090565b6065546001600160a01b031633146110615760405162461bcd60e51b8152600401610f719061516e565b60008160d35460d55460d45461107791906152c7565b61108191906152c7565b61108b91906152c7565b905060648111156110ae5760405162461bcd60e51b8152600401610f71906151c8565b60d29190915560d655565b6000336110c7818585613a18565b60019150505b92915050565b6000336110f25760405162461bcd60e51b8152600401610f71906151a3565b60c9546001600160a01b031663619a635e336040518263ffffffff1660e01b81526004016111209190614f68565b60206040518083038186803b15801561113857600080fd5b505afa15801561114c573d6000803e3d6000fd5b505050506040513d601f19601f820116820180604052508101906111709190614ee5565b905090565b6065546001600160a01b0316331461119f5760405162461bcd60e51b8152600401610f719061516e565b6305f5e10081126112035760405162461bcd60e51b815260206004820152602860248201527f5245445543455f5257443a20646f206e6f7420726564756365206d6f7265207460448201526768616e203130302560c01b6064820152608401610f71565b60c9546040516309d2040f60e41b81526001600160a01b0390911690639d2040f0906112359085908590600401615082565b600060405180830381600087803b15801561124f57600080fd5b505af1158015611263573d6000803e3d6000fd5b505050505050565b60603361128a5760405162461bcd60e51b8152600401610f71906151a3565b60c9546001600160a01b0316635dbab6ed335b6040518263ffffffff1660e01b81526004016112b99190614f68565b60006040518083038186803b1580156112d157600080fd5b505afa1580156112e5573d6000803e3d6000fd5b505050506040513d6000823e601f3d908101601f191682016040526111709190810190614e55565b6001600160a01b0381166000908152609960205260409020546113425760405162461bcd60e51b8152600401610f71906150dd565b600061134d60985490565b61135790476152c7565b90506000611384838361137f866001600160a01b03166000908152609a602052604090205490565b613b3c565b9050806113a35760405162461bcd60e51b8152600401610f7190615123565b6001600160a01b0383166000908152609a6020526040812080548392906113cb9084906152c7565b9250508190555080609860008282546113e491906152c7565b909155506113f490508382613b7a565b7fdf20fd1e76bc69d672e4814fafb2c449bba3a5369d8359adf9e05e6fde87b0568382604051611425929190614f7c565b60405180910390a1505050565b60c954604051630c75361360e31b81526000916001600160a01b0316906363a9b09890611463908590600401615074565b60206040518083038186803b15801561147b57600080fd5b505afa15801561148f573d6000803e3d6000fd5b505050506040513d601f19601f820116820180604052508101906110cd9190614ee5565b60c95460405163ce6912a360e01b81526000916001600160a01b03169063ce6912a390611463908590600401615074565b6000336114f2858285613c93565b6114fd858585613d07565b60019150505b9392505050565b60da54610100900460ff166115615760405162461bcd60e51b815260206004820152601d60248201527f434f4e544d494e543a206d696e7420636f6e74732064697361626c65640000006044820152606401610f71565b60cc54825111156115af5760405162461bcd60e51b8152602060048201526018602482015277434f4e544d494e543a20746f6f206d616e7920636f6e747360401b6044820152606401610f71565b60005b82518110156116685760038382815181106115cf576115cf6153cf565b6020026020010151511180156115ff575060218382815181106115f4576115f46153cf565b602002602001015151105b6116565760405162461bcd60e51b815260206004820152602260248201527f434f4e544d494e543a20696d70726f7065722063686172616374657220636f756044820152611b9d60f21b6064820152608401610f71565b806116608161539e565b9150506115b2565b5033806116b05760405162461bcd60e51b8152602060048201526016602482015275434f4e544d494e543a207a65726f206164647265737360501b6044820152606401610f71565b6001600160a01b038116600090815260d9602052604090205460ff16156117195760405162461bcd60e51b815260206004820152601d60248201527f434f4e544d494e543a20626c61636b6c697374656420616464726573730000006044820152606401610f71565b60ce546001600160a01b03828116911614801590611745575060d0546001600160a01b03828116911614155b801561175f575060cf546001600160a01b03828116911614155b6117b65760405162461bcd60e51b815260206004820152602260248201527f434f4e544d494e543a20706f6f6c732063616e6e6f742063726561746520636f6044820152611b9d60f21b6064820152608401610f71565b60006117c182613da0565b905060cb548451826117d391906152c7565b11156118215760405162461bcd60e51b815260206004820152601c60248201527f434f4e544d494e543a2072656163686564206d696e74206c696d6974000000006044820152606401610f71565b835160c954604051630c75361360e31b8152600092916001600160a01b0316906363a9b09890611855908890600401615074565b60206040518083038186803b15801561186d57600080fd5b505afa158015611881573d6000803e3d6000fd5b505050506040513d601f19601f820116820180604052508101906118a59190614ee5565b6118af9190615301565b90508060cd60008282546118c391906152c7565b909155508190506118d384612cd2565b10156119315760405162461bcd60e51b815260206004820152602760248201527f434f4e544d494e543a2042616c616e636520746f6f206c6f7720666f7220637260448201526632b0ba34b7b71760c91b6064820152608401610f71565b6000606460d554836119439190615301565b61194d91906152df565b60d854909150610100900460ff16156119a05760ca546119789085906001600160a01b031683613dd1565b60d85460ce5461199b916001600160a01b03620100009091048116911683613f9f565b6119b8565b60ce546119b89085906001600160a01b031683613dd1565b6000606460d254846119ca9190615301565b6119d491906152df565b60d0549091506119ef9086906001600160a01b031683613dd1565b6000606460d35485611a019190615301565b611a0b91906152df565b60d85490915060ff1615611a595760ca54611a319087906001600160a01b031683613dd1565b60d85460cf54611a54916001600160a01b03620100009091048116911683613f9f565b611a71565b60cf54611a719087906001600160a01b031683613dd1565b6000606460d45486611a839190615301565b611a8d91906152df565b9050611a998782614090565b6000818385611aa8888a615320565b611ab29190615320565b611abc9190615320565b611ac69190615320565b90508015611ad957611ad9883083613dd1565b60c95460405162a6998d60e31b81526001600160a01b0390911690630534cc6890611b0c908b908e908e90600401614f95565b600060405180830381600087803b158015611b2657600080fd5b505af1158015611b3a573d6000803e3d6000fd5b505050507f120c2f36321d80f09f9d26f68f1f49b72c1964e118aa788bb9611f47e10c7eac88604051611b6d9190614f68565b60405180910390a150505050505050505050565b3360008181526034602090815260408083206001600160a01b03871684529091528120549091906110c79082908690611bbb9087906152c7565b613a18565b6001600160a01b039182166000908152609d6020908152604080832093909416825291909152205490565b6001600160a01b038116600090815260996020526040902054611c205760405162461bcd60e51b8152600401610f71906150dd565b6001600160a01b0382166000908152609c60205260408120546040516370a0823160e01b81526001600160a01b038516906370a0823190611c65903090600401614f68565b60206040518083038186803b158015611c7d57600080fd5b505afa158015611c91573d6000803e3d6000fd5b505050506040513d601f19601f82011682018060405250810190611cb59190614ee5565b611cbf91906152c7565b90506000611cd2838361137f8787611bc0565b905080611cf15760405162461bcd60e51b8152600401610f7190615123565b6001600160a01b038085166000908152609d6020908152604080832093871683529290529081208054839290611d289084906152c7565b90915550506001600160a01b0384166000908152609c602052604081208054839290611d559084906152c7565b90915550611d6690508484836140a8565b836001600160a01b03167f3be5b7a71e84ed12875d241991c70855ac5817d847039e17a9d895c1ceb0f18a8483604051611da1929190614f7c565b60405180910390a250505050565b60da54339060ff161515600114611e085760405162461bcd60e51b815260206004820152601960248201527f43534854414c4c3a20636173686f75742064697361626c6564000000000000006044820152606401610f71565b6001600160a01b038116611e565760405162461bcd60e51b815260206004820152601560248201527443534854414c4c3a207a65726f206164647265737360581b6044820152606401610f71565b6001600160a01b038116600090815260d9602052604090205460ff1615611ebf5760405162461bcd60e51b815260206004820152601c60248201527f43534854414c4c3a20626c61636b6c69737465642061646472657373000000006044820152606401610f71565b60ce546001600160a01b03828116911614801590611eeb575060d0546001600160a01b03828116911614155b611f375760405162461bcd60e51b815260206004820152601d60248201527f43534854414c4c3a20706f6f6c732063616e6e6f7420636173686f75740000006044820152606401610f71565b60c9546040516330cd31af60e11b81526000916001600160a01b03169063619a635e90611f68908590600401614f68565b60206040518083038186803b158015611f8057600080fd5b505afa158015611f94573d6000803e3d6000fd5b505050506040513d601f19601f82011682018060405250810190611fb89190614ee5565b90506000811161200a5760405162461bcd60e51b815260206004820152601960248201527f43534854414c4c3a20726577617264206e6f74207265616479000000000000006044820152606401610f71565b60d7546000901561203257606460d754836120259190615301565b61202f91906152df565b90505b61203c8183615320565b60d054909250612056906001600160a01b03168484613dd1565b60c95460405163d094fa8d60e01b81526001600160a01b039091169063d094fa8d90612086908690600401614f68565b602060405180830381600087803b1580156120a057600080fd5b505af11580156120b4573d6000803e3d6000fd5b505050506040513d601f19601f820116820180604052508101906120d89190614ee5565b507f564112c0ad2fbcae1bed83c58ed5d830128565d634cdc875bb02b065ad242343836040516114259190614f68565b6065546001600160a01b031633146121325760405162461bcd60e51b8152600401610f719061516e565b6001600160a01b0381166121585760405162461bcd60e51b8152600401610f71906150b0565b60ce80546001600160a01b0319166001600160a01b0392909216919091179055565b600054610100900460ff166121955760005460ff1615612199565b303b155b6121fc5760405162461bcd60e51b815260206004820152602e60248201527f496e697469616c697a61626c653a20636f6e747261637420697320616c72656160448201526d191e481a5b9a5d1a585b1a5e995960921b6064820152608401610f71565b600054610100900460ff1615801561221e576000805461ffff19166101011790555b60008551118015612230575060008451115b6122735760405162461bcd60e51b815260206004820152601460248201527320a222291013102120a620a721a29022a92927a960611b6044820152606401610f71565b61227b6140fe565b6122bf604051806040016040528060078152602001663078426c6f636b60c81b81525060405180604001604052806003815260200162183c2160e91b81525061412d565b6122c9878761415e565b60006001600160a01b0316856001815181106122e7576122e76153cf565b60200260200101516001600160a01b031614158015612333575060006001600160a01b03168560028151811061231f5761231f6153cf565b60200260200101516001600160a01b031614155b801561236c575060006001600160a01b031685600381518110612358576123586153cf565b60200260200101516001600160a01b031614155b80156123a5575060006001600160a01b031685600481518110612391576123916153cf565b60200260200101516001600160a01b031614155b6123e35760405162461bcd60e51b815260206004820152600f60248201526e1413d3d30816915493c81193d55391608a1b6044820152606401610f71565b846001815181106123f6576123f66153cf565b602002602001015160ce60006101000a8154816001600160a01b0302191690836001600160a01b0316021790555084600281518110612437576124376153cf565b602002602001015160d160006101000a8154816001600160a01b0302191690836001600160a01b0316021790555084600381518110612478576124786153cf565b602002602001015160cf60006101000a8154816001600160a01b0302191690836001600160a01b03160217905550846004815181106124b9576124b96153cf565b602002602001015160d060006101000a8154816001600160a01b0302191690836001600160a01b031602179055506000836000815181106124fc576124fc6153cf565b602002602001015111801561252b5750600083600181518110612521576125216153cf565b6020026020010151115b80156125515750600083600281518110612547576125476153cf565b6020026020010151115b8015612577575060008360038151811061256d5761256d6153cf565b6020026020010151115b801561259d5750600083600481518110612593576125936153cf565b6020026020010151115b6125d95760405162461bcd60e51b815260206004820152600d60248201526c0c094811915154c81193d55391609a1b6044820152606401610f71565b826000815181106125ec576125ec6153cf565b602002602001015160d5819055508260018151811061260d5761260d6153cf565b602002602001015160d3819055508260028151811061262e5761262e6153cf565b602002602001015160d2819055508260038151811061264f5761264f6153cf565b602002602001015160d48190555082600481518110612670576126706153cf565b602002602001015160d78190555060d35460d55460d45460d25461269491906152c7565b61269e91906152c7565b6126a891906152c7565b60d65583518551146126f35760405162461bcd60e51b815260206004820152601460248201527320a222291013102120a620a721a29022a92927a960611b6044820152606401610f71565b60005b85518110156127605761274e868281518110612714576127146153cf565b602002602001015186838151811061272e5761272e6153cf565b6020026020010151670de0b6b3a76400006127499190615301565b61418f565b806127588161539e565b9150506126f6565b5060355469d3c21bcecceda1000000146127b45760405162461bcd60e51b81526020600482015260156024820152741515130814d5541413164811125191880c48135253605a1b6044820152606401610f71565b60d88054606460cb55600a60cc5561ffff196001600160a01b038516620100000281166001600160b01b0319909216919091176101001790915560da80546101019216919091179055801561280f576000805461ff00191690555b50505050505050565b6065546001600160a01b031633146128425760405162461bcd60e51b8152600401610f719061516e565b60ca54604051630196e36f60e61b81526001600160a01b03909116906365b8dbc090612872908490600401614f68565b600060405180830381600087803b15801561288c57600080fd5b505af11580156128a0573d6000803e3d6000fd5b5050505050565b60da54339060ff1615156001146128f95760405162461bcd60e51b815260206004820152601660248201527510d4d2150e8810d85cda1bdd5d08111a5cd8589b195960521b6044820152606401610f71565b6001600160a01b0381166129445760405162461bcd60e51b8152602060048201526012602482015271435348543a207a65726f206164647265737360701b6044820152606401610f71565b6001600160a01b038116600090815260d9602052604090205460ff16156129a15760405162461bcd60e51b815260206004820152601160248201527010d4d2150e88189b1858dadb1a5cdd1959607a1b6044820152606401610f71565b60ce546001600160a01b038281169116148015906129cd575060d0546001600160a01b03828116911614155b80156129e7575060cf546001600160a01b03828116911614155b612a3e5760405162461bcd60e51b815260206004820152602260248201527f435348543a20706f6f6c732063616e6e6f7420636173686f7574207265776172604482015261647360f01b6064820152608401610f71565b60c9546040516329b8573160e21b81526000916001600160a01b03169063a6e15cc490612a719085908790600401614f7c565b60206040518083038186803b158015612a8957600080fd5b505afa158015612a9d573d6000803e3d6000fd5b505050506040513d601f19601f82011682018060405250810190612ac19190614ee5565b905060008111612b0c5760405162461bcd60e51b8152602060048201526016602482015275435348543a20726577617264206e6f7420726561647960501b6044820152606401610f71565b60d75460009015612b3457606460d75483612b279190615301565b612b3191906152df565b90505b612b3e8183615320565b60d054909250612b58906001600160a01b03168484613dd1565b60c95460405163611015b360e11b81526001600160a01b039091169063c2202b6690612b8a9086908890600401614f7c565b602060405180830381600087803b158015612ba457600080fd5b505af1158015612bb8573d6000803e3d6000fd5b505050506040513d601f19601f82011682018060405250810190612bdc9190614ee5565b507f39f6d68d140e552a327d43ef814649947d78e76743e169e4f00d61b14f2f846d8385604051612c0e929190614f7c565b60405180910390a150505050565b6065546001600160a01b03163314612c465760405162461bcd60e51b8152600401610f719061516e565b6064811115612c975760405162461bcd60e51b815260206004820152601c60248201527f464545533a20636173686f757420657863656564696e672031303025000000006044820152606401610f71565b60d755565b606033612cbb5760405162461bcd60e51b8152600401610f71906151a3565b60c9546001600160a01b03166377ec78263361129d565b6001600160a01b031660009081526033602052604090205490565b6065546001600160a01b03163314612d175760405162461bcd60e51b8152600401610f719061516e565b612d21600061426e565b565b60c9546040805163055a757d60e41b815290516000926001600160a01b0316916355a757d0916004808301926020929190829003018186803b15801561113857600080fd5b60c95460405162c73e4d60e01b81526000916001600160a01b03169062c73e4d90611463908590600401615074565b6065546001600160a01b03163314612dc15760405162461bcd60e51b8152600401610f719061516e565b6001600160a01b038116612de75760405162461bcd60e51b8152600401610f71906150b0565b60cf80546001600160a01b0319166001600160a01b0392909216919091179055565b606033612e285760405162461bcd60e51b8152600401610f71906151a3565b60c9546001600160a01b0316638bf145143361129d565b6065546001600160a01b03163314612e695760405162461bcd60e51b8152600401610f719061516e565b60d880549115156101000261ff0019909216919091179055565b606033612ea25760405162461bcd60e51b8152600401610f71906151a3565b60c9546001600160a01b031663f743f3193361129d565b6000609b8281548110612ece57612ece6153cf565b6000918252602090912001546001600160a01b031692915050565b6065546001600160a01b03163314612f135760405162461bcd60e51b8152600401610f719061516e565b6001600160a01b038116612f5e5760405162461bcd60e51b81526020600482015260126024820152712722abafa1a9269d103d32b9379030b2323960711b6044820152606401610f71565b60c980546001600160a01b0319166001600160a01b0392909216919091179055565b6065546001600160a01b03163314612faa5760405162461bcd60e51b8152600401610f719061516e565b60008160d35460d55460d254612fc091906152c7565b612fca91906152c7565b612fd491906152c7565b90506064811115612ff75760405162461bcd60e51b8152600401610f71906151c8565b60d49190915560d655565b6060336130215760405162461bcd60e51b8152600401610f71906151a3565b60c9546001600160a01b03166351bf120c3361129d565b6065546001600160a01b031633146130625760405162461bcd60e51b8152600401610f719061516e565b60da80549115156101000261ff0019909216919091179055565b606060378054610fb490615363565b6065546001600160a01b031633146130b55760405162461bcd60e51b8152600401610f719061516e565b60008160d55460d45460d2546130cb91906152c7565b6130d591906152c7565b6130df91906152c7565b905060648111156131025760405162461bcd60e51b8152600401610f71906151c8565b60d39190915560d655565b60603361312c5760405162461bcd60e51b8152600401610f71906151a3565b60c9546001600160a01b031663367fd0743361129d565b6065546001600160a01b0316331461316d5760405162461bcd60e51b8152600401610f719061516e565b60d8805460ff1916911515919091179055565b338161318b82612cd2565b10156131d65760405162461bcd60e51b815260206004820152601a602482015279535741503a20696e73756666696369656e742062616c616e636560301b6044820152606401610f71565b60ca546131ee9082906001600160a01b031684613d07565b6131f9838284613f9f565b505050565b3360008181526034602090815260408083206001600160a01b0387168452909152812054909190838110156132835760405162461bcd60e51b815260206004820152602560248201527f45524332303a2064656372656173656420616c6c6f77616e63652062656c6f77604482015264207a65726f60d81b6064820152608401610f71565b6132908286868403613a18565b506001949350505050565b60c9546040805163e18f03ad60e01b815290516000926001600160a01b03169163e18f03ad916004808301926020929190829003018186803b15801561113857600080fd5b6000336110c7818585613d07565b6065546001600160a01b031633146133185760405162461bcd60e51b8152600401610f719061516e565b60d880546001600160a01b03909216620100000262010000600160b01b0319909216919091179055565b6065546001600160a01b0316331461336c5760405162461bcd60e51b8152600401610f719061516e565b60da805460ff1916911515919091179055565b60ca546040516317ae8ecf60e31b81526060916001600160a01b03169063bd747678906133b490879087908790600401615053565b60006040518083038186803b1580156133cc57600080fd5b505afa1580156133e0573d6000803e3d6000fd5b505050506040513d6000823e601f3d908101601f191682016040526134089190810190614d2c565b949350505050565b6065546001600160a01b0316331461343a5760405162461bcd60e51b8152600401610f719061516e565b60c954604051631c864c8f60e11b8152600481018390526001600160a01b039091169063390c991e90602401612872565b60ca546040516317ae8ecf60e31b815233916000916001600160a01b039091169063bd747678906134a490849088908890600401615053565b60006040518083038186803b1580156134bc57600080fd5b505afa1580156134d0573d6000803e3d6000fd5b505050506040513d6000823e601f3d908101601f191682016040526134f89190810190614d2c565b60008151811061350a5761350a6153cf565b602002602001015190508061351e83612cd2565b10156135695760405162461bcd60e51b815260206004820152601a602482015279535741503a20696e73756666696369656e742062616c616e636560301b6044820152606401610f71565b60ca546135819083906001600160a01b031683613d07565b61358c848383613f9f565b50505050565b6065546001600160a01b031633146135bc5760405162461bcd60e51b8152600401610f719061516e565b6001600160a01b03811661360b5760405162461bcd60e51b81526020600482015260166024820152752722abafa62927aaaa22a91d103d32b9379030b2323960511b6044820152606401610f71565b60ca80546001600160a01b0319166001600160a01b0392909216919091179055565b6065546001600160a01b031633146136575760405162461bcd60e51b8152600401610f719061516e565b6001600160a01b03811661367d5760405162461bcd60e51b8152600401610f71906150b0565b60d080546001600160a01b0319166001600160a01b0392909216919091179055565b6065546001600160a01b031633146136c95760405162461bcd60e51b8152600401610f719061516e565b60c954604051631d5a173160e01b81526001600160a01b0390911690631d5a1731906112359085908590600401615082565b6065546001600160a01b031633146137255760405162461bcd60e51b8152600401610f719061516e565b61372e30612cd2565b81111561378e5760405162461bcd60e51b815260206004820152602860248201527f534156455f4d495353454e543a20746f6b656e732065786365656420616464726044820152672062616c616e636560c01b6064820152608401610f71565b6001600160a01b0382166137e45760405162461bcd60e51b815260206004820152601a60248201527f534156455f4d495353454e543a207a65726f5f616464726573730000000000006044820152606401610f71565b6137ef308383613d07565b5050565b6001600160a01b03918216600090815260346020908152604080832093909416825291909152205490565b60603361383d5760405162461bcd60e51b8152600401610f71906151a3565b60c9546001600160a01b03166328cceb243361129d565b6065546001600160a01b0316331461387e5760405162461bcd60e51b8152600401610f719061516e565b6001600160a01b0381166138a45760405162461bcd60e51b8152600401610f71906150b0565b60d180546001600160a01b0319166001600160a01b0392909216919091179055565b6065546001600160a01b031633146138f05760405162461bcd60e51b8152600401610f719061516e565b6001600160a01b0381166139555760405162461bcd60e51b815260206004820152602660248201527f4f776e61626c653a206e6577206f776e657220697320746865207a65726f206160448201526564647265737360d01b6064820152608401610f71565b61395e8161426e565b50565b60ca5460405163f5c1365360e01b81526060916001600160a01b03169063f5c13653906133b490879087908790600401615053565b6065546001600160a01b031633146139c05760405162461bcd60e51b8152600401610f719061516e565b60008160d35460d45460d2546139d691906152c7565b6139e091906152c7565b6139ea91906152c7565b90506064811115613a0d5760405162461bcd60e51b8152600401610f71906151c8565b60d59190915560d655565b6001600160a01b038316613a7a5760405162461bcd60e51b8152602060048201526024808201527f45524332303a20617070726f76652066726f6d20746865207a65726f206164646044820152637265737360e01b6064820152608401610f71565b6001600160a01b038216613adb5760405162461bcd60e51b815260206004820152602260248201527f45524332303a20617070726f766520746f20746865207a65726f206164647265604482015261737360f01b6064820152608401610f71565b6001600160a01b0383811660008181526034602090815260408083209487168084529482529182902085905590518481527f8c5be1e5ebec7d5bd14f71427d1e84f3dd0314c0f7b2291e5b200ac8c7c3b925910160405180910390a3505050565b6097546001600160a01b03841660009081526099602052604081205490918391613b669086615301565b613b7091906152df565b6134089190615320565b80471015613bca5760405162461bcd60e51b815260206004820152601d60248201527f416464726573733a20696e73756666696369656e742062616c616e63650000006044820152606401610f71565b6000826001600160a01b03168260405160006040518083038185875af1925050503d8060008114613c17576040519150601f19603f3d011682016040523d82523d6000602084013e613c1c565b606091505b50509050806131f95760405162461bcd60e51b815260206004820152603a60248201527f416464726573733a20756e61626c6520746f2073656e642076616c75652c207260448201527f6563697069656e74206d617920686176652072657665727465640000000000006064820152608401610f71565b6000613c9f84846137f3565b9050600019811461358c5781811015613cfa5760405162461bcd60e51b815260206004820152601d60248201527f45524332303a20696e73756666696369656e7420616c6c6f77616e63650000006044820152606401610f71565b61358c8484848403613a18565b6001600160a01b038316600090815260d9602052604090205460ff16158015613d4957506001600160a01b038216600090815260d9602052604090205460ff16155b613d955760405162461bcd60e51b815260206004820152601a60248201527f45524332303a20426c61636b6c697374656420616464726573730000000000006044820152606401610f71565b6131f9838383613dd1565b60c9546040516344fea1b960e01b81526000916001600160a01b0316906344fea1b990611463908590600401614f68565b6001600160a01b038316613e355760405162461bcd60e51b815260206004820152602560248201527f45524332303a207472616e736665722066726f6d20746865207a65726f206164604482015264647265737360d81b6064820152608401610f71565b6001600160a01b038216613e975760405162461bcd60e51b815260206004820152602360248201527f45524332303a207472616e7366657220746f20746865207a65726f206164647260448201526265737360e81b6064820152608401610f71565b6001600160a01b03831660009081526033602052604090205481811015613f0f5760405162461bcd60e51b815260206004820152602660248201527f45524332303a207472616e7366657220616d6f756e7420657863656564732062604482015265616c616e636560d01b6064820152608401610f71565b6001600160a01b03808516600090815260336020526040808220858503905591851681529081208054849290613f469084906152c7565b92505081905550826001600160a01b0316846001600160a01b03167fddf252ad1be2c89b69c2b068fc378daa952ba7f163c4a11628f55a4df523b3ef84604051613f9291815260200190565b60405180910390a361358c565b60ca5460408051631934662b60e11b81529051614026926001600160a01b0316918291633268cc5691600480820192602092909190829003018186803b158015613fe857600080fd5b505afa158015613ffc573d6000803e3d6000fd5b505050506040513d601f19601f820116820180604052508101906140209190614a55565b83613a18565b60ca54604051639caf326f60e01b81526001600160a01b03858116600483015284811660248301526044820184905290911690639caf326f90606401600060405180830381600087803b15801561407c57600080fd5b505af115801561280f573d6000803e3d6000fd5b60d1546137ef9083906001600160a01b031683613dd1565b6131f98363a9059cbb60e01b84846040516024016140c7929190614f7c565b60408051601f198184030181529190526020810180516001600160e01b03166001600160e01b0319909316929092179091526142c0565b600054610100900460ff166141255760405162461bcd60e51b8152600401610f71906151ff565b612d21614392565b600054610100900460ff166141545760405162461bcd60e51b8152600401610f71906151ff565b6137ef82826143c2565b600054610100900460ff166141855760405162461bcd60e51b8152600401610f71906151ff565b6137ef8282614410565b6001600160a01b0382166141e55760405162461bcd60e51b815260206004820152601f60248201527f45524332303a206d696e7420746f20746865207a65726f2061646472657373006044820152606401610f71565b80603560008282546141f791906152c7565b90915550506001600160a01b038216600090815260336020526040812080548392906142249084906152c7565b90915550506040518181526001600160a01b038316906000907fddf252ad1be2c89b69c2b068fc378daa952ba7f163c4a11628f55a4df523b3ef9060200160405180910390a35050565b606580546001600160a01b038381166001600160a01b0319831681179093556040519116919082907f8be0079c531659141344cd1fd0a4f28419497f9722a3daafe3b4186f6b6457e090600090a35050565b6000614315826040518060400160405280602081526020017f5361666545524332303a206c6f772d6c6576656c2063616c6c206661696c6564815250856001600160a01b031661454e9092919063ffffffff16565b8051909150156131f957808060200190518101906143339190614de1565b6131f95760405162461bcd60e51b815260206004820152602a60248201527f5361666545524332303a204552433230206f7065726174696f6e20646964206e6044820152691bdd081cdd58d8d9595960b21b6064820152608401610f71565b600054610100900460ff166143b95760405162461bcd60e51b8152600401610f71906151ff565b612d213361426e565b600054610100900460ff166143e95760405162461bcd60e51b8152600401610f71906151ff565b81516143fc9060369060208501906148a5565b5080516131f99060379060208401906148a5565b600054610100900460ff166144375760405162461bcd60e51b8152600401610f71906151ff565b80518251146144a35760405162461bcd60e51b815260206004820152603260248201527f5061796d656e7453706c69747465723a2070617965657320616e6420736861726044820152710cae640d8cadccee8d040dad2e6dac2e8c6d60731b6064820152608401610f71565b60008251116144f45760405162461bcd60e51b815260206004820152601a60248201527f5061796d656e7453706c69747465723a206e6f207061796565730000000000006044820152606401610f71565b60005b82518110156131f95761453c838281518110614515576145156153cf565b602002602001015183838151811061452f5761452f6153cf565b602002602001015161455d565b806145468161539e565b9150506144f7565b6060613408848460008561473b565b6001600160a01b0382166145c85760405162461bcd60e51b815260206004820152602c60248201527f5061796d656e7453706c69747465723a206163636f756e74206973207468652060448201526b7a65726f206164647265737360a01b6064820152608401610f71565b600081116146185760405162461bcd60e51b815260206004820152601d60248201527f5061796d656e7453706c69747465723a207368617265732061726520300000006044820152606401610f71565b6001600160a01b038216600090815260996020526040902054156146925760405162461bcd60e51b815260206004820152602b60248201527f5061796d656e7453706c69747465723a206163636f756e7420616c726561647960448201526a206861732073686172657360a81b6064820152608401610f71565b609b8054600181019091557fbba9db4cdbea0a37c207bbb83e20f828cd4441c49891101dc94fd20dc8efc3490180546001600160a01b0319166001600160a01b03841690811790915560009081526099602052604090208190556097546146fa9082906152c7565b6097556040517f40c340f65e17194d14ddddb073d3c9f888e3cb52b5aae0c6c7706b4fbc905fac9061472f9084908490614f7c565b60405180910390a15050565b60608247101561479c5760405162461bcd60e51b815260206004820152602660248201527f416464726573733a20696e73756666696369656e742062616c616e636520666f6044820152651c8818d85b1b60d21b6064820152608401610f71565b6001600160a01b0385163b6147f35760405162461bcd60e51b815260206004820152601d60248201527f416464726573733a2063616c6c20746f206e6f6e2d636f6e74726163740000006044820152606401610f71565b600080866001600160a01b0316858760405161480f9190614f4c565b60006040518083038185875af1925050503d806000811461484c576040519150601f19603f3d011682016040523d82523d6000602084013e614851565b606091505b509150915061486182828661486c565b979650505050505050565b6060831561487b575081611503565b82511561488b5782518084602001fd5b8160405162461bcd60e51b8152600401610f71919061509d565b8280546148b190615363565b90600052602060002090601f0160209004810192826148d35760008555614919565b82601f106148ec57805160ff1916838001178555614919565b82800160010185558215614919579182015b828111156149195782518255916020019190600101906148fe565b50614925929150614929565b5090565b5b80821115614925576000815560010161492a565b8035614949816153fb565b919050565b600082601f83011261495f57600080fd5b8135602061497461496f8361527b565b61524a565b80838252828201915082860187848660051b890101111561499457600080fd5b60005b858110156149bc5781356149aa816153fb565b84529284019290840190600101614997565b5090979650505050505050565b600082601f8301126149da57600080fd5b813560206149ea61496f8361527b565b80838252828201915082860187848660051b8901011115614a0a57600080fd5b60005b858110156149bc57813584529284019290840190600101614a0d565b80356003811061494957600080fd5b600060208284031215614a4a57600080fd5b8135611503816153fb565b600060208284031215614a6757600080fd5b8151611503816153fb565b60008060408385031215614a8557600080fd5b8235614a90816153fb565b91506020830135614aa0816153fb565b809150509250929050565b600080600060608486031215614ac057600080fd5b8335614acb816153fb565b92506020840135614adb816153fb565b929592945050506040919091013590565b60008060408385031215614aff57600080fd5b8235614b0a816153fb565b91506020830135614aa081615410565b60008060408385031215614b2d57600080fd5b8235614b38816153fb565b946020939093013593505050565b60008060008060008060c08789031215614b5f57600080fd5b863567ffffffffffffffff80821115614b7757600080fd5b614b838a838b0161494e565b97506020890135915080821115614b9957600080fd5b614ba58a838b016149c9565b96506040890135915080821115614bbb57600080fd5b614bc78a838b0161494e565b95506060890135915080821115614bdd57600080fd5b614be98a838b016149c9565b94506080890135915080821115614bff57600080fd5b50614c0c89828a016149c9565b925050614c1b60a0880161493e565b90509295509295509295565b6000806040808486031215614c3b57600080fd5b833567ffffffffffffffff80821115614c5357600080fd5b818601915086601f830112614c6757600080fd5b81356020614c7761496f8361527b565b8083825282820191508286018b848660051b8901011115614c9757600080fd5b60005b85811015614d0c57813587811115614cb157600080fd5b8801603f81018e13614cc257600080fd5b85810135614cd261496f8261529f565b8181528f8c838501011115614ce657600080fd5b818c84018983013760009181018801919091528552509284019290840190600101614c9a565b50508098505050614d1e818901614a29565b955050505050509250929050565b60006020808385031215614d3f57600080fd5b825167ffffffffffffffff811115614d5657600080fd5b8301601f81018513614d6757600080fd5b8051614d7561496f8261527b565b80828252848201915084840188868560051b8701011115614d9557600080fd5b600094505b83851015614db8578051835260019490940193918501918501614d9a565b50979650505050505050565b600060208284031215614dd657600080fd5b813561150381615410565b600060208284031215614df357600080fd5b815161150381615410565b600080600060608486031215614e1357600080fd5b8335614acb81615410565b600060208284031215614e3057600080fd5b61150382614a29565b60008060408385031215614e4c57600080fd5b614b3883614a29565b600060208284031215614e6757600080fd5b815167ffffffffffffffff811115614e7e57600080fd5b8201601f81018413614e8f57600080fd5b8051614e9d61496f8261529f565b818152856020838501011115614eb257600080fd5b614ec3826020830160208601615337565b95945050505050565b600060208284031215614ede57600080fd5b5035919050565b600060208284031215614ef757600080fd5b5051919050565b60038110614f1c57634e487b7160e01b600052602160045260246000fd5b9052565b60008151808452614f38816020860160208601615337565b601f01601f19169290920160200192915050565b60008251614f5e818460208701615337565b9190910192915050565b6001600160a01b0391909116815260200190565b6001600160a01b03929092168252602082015260400190565b60006060820160018060a01b0386168352602060608185015281865180845260808601915060808160051b870101935082880160005b82811015614ff957607f19888703018452614fe7868351614f20565b95509284019290840190600101614fcb565b5050505050809150506134086040830184614efe565b6020808252825182820181905260009190848201906040850190845b818110156150475783518352928401929184019160010161502b565b50909695505050505050565b92151583526001600160a01b03919091166020830152604082015260600190565b602081016110cd8284614efe565b604081016150908285614efe565b8260208301529392505050565b6020815260006115036020830184614f20565b6020808252601390820152722aa8222faba0a6261d103d32b9379030b2323960691b604082015260600190565b60208082526026908201527f5061796d656e7453706c69747465723a206163636f756e7420686173206e6f2060408201526573686172657360d01b606082015260800190565b6020808252602b908201527f5061796d656e7453706c69747465723a206163636f756e74206973206e6f742060408201526a191d59481c185e5b595b9d60aa1b606082015260800190565b6020808252818101527f4f776e61626c653a2063616c6c6572206973206e6f7420746865206f776e6572604082015260600190565b6020808252600b908201526a053454e44455220495320360ac1b604082015260600190565b6020808252601a908201527f464545533a20746f74616c20657863656564696e672031303025000000000000604082015260600190565b6020808252602b908201527f496e697469616c697a61626c653a20636f6e7472616374206973206e6f74206960408201526a6e697469616c697a696e6760a81b606082015260800190565b604051601f8201601f1916810167ffffffffffffffff81118282101715615273576152736153e5565b604052919050565b600067ffffffffffffffff821115615295576152956153e5565b5060051b60200190565b600067ffffffffffffffff8211156152b9576152b96153e5565b50601f01601f191660200190565b600082198211156152da576152da6153b9565b500190565b6000826152fc57634e487b7160e01b600052601260045260246000fd5b500490565b600081600019048311821515161561531b5761531b6153b9565b500290565b600082821015615332576153326153b9565b500390565b60005b8381101561535257818101518382015260200161533a565b8381111561358c5750506000910152565b600181811c9082168061537757607f821691505b6020821081141561539857634e487b7160e01b600052602260045260246000fd5b50919050565b60006000198214156153b2576153b26153b9565b5060010190565b634e487b7160e01b600052601160045260246000fd5b634e487b7160e01b600052603260045260246000fd5b634e487b7160e01b600052604160045260246000fd5b6001600160a01b038116811461395e57600080fd5b801515811461395e57600080fdfea164736f6c6343000807000a",
  "devdoc": {
    "kind": "dev",
    "methods": {
      "allowance(address,address)": {
        "details": "See {IERC20-allowance}."
      },
      "approve(address,uint256)": {
        "details": "See {IERC20-approve}. NOTE: If `amount` is the maximum `uint256`, the allowance is not updated on `transferFrom`. This is semantically equivalent to an infinite approval. Requirements: - `spender` cannot be the zero address."
      },
      "balanceOf(address)": {
        "details": "See {IERC20-balanceOf}."
      },
      "decimals()": {
        "details": "Returns the number of decimals used to get its user representation. For example, if `decimals` equals `2`, a balance of `505` tokens should be displayed to a user as `5.05` (`505 / 10 ** 2`). Tokens usually opt for a value of 18, imitating the relationship between Ether and Wei. This is the value {ERC20} uses, unless this function is overridden; NOTE: This information is only used for _display_ purposes: it in no way affects any of the arithmetic of the contract, including {IERC20-balanceOf} and {IERC20-transfer}."
      },
      "decreaseAllowance(address,uint256)": {
        "details": "Atomically decreases the allowance granted to `spender` by the caller. This is an alternative to {approve} that can be used as a mitigation for problems described in {IERC20-approve}. Emits an {Approval} event indicating the updated allowance. Requirements: - `spender` cannot be the zero address. - `spender` must have allowance for the caller of at least `subtractedValue`."
      },
      "increaseAllowance(address,uint256)": {
        "details": "Atomically increases the allowance granted to `spender` by the caller. This is an alternative to {approve} that can be used as a mitigation for problems described in {IERC20-approve}. Emits an {Approval} event indicating the updated allowance. Requirements: - `spender` cannot be the zero address."
      },
      "name()": {
        "details": "Returns the name of the token."
      },
      "owner()": {
        "details": "Returns the address of the current owner."
      },
      "payee(uint256)": {
        "details": "Getter for the address of the payee number `index`."
      },
      "release(address)": {
        "details": "Triggers a transfer to `account` of the amount of Ether they are owed, according to their percentage of the total shares and their previous withdrawals."
      },
      "release(address,address)": {
        "details": "Triggers a transfer to `account` of the amount of `token` tokens they are owed, according to their percentage of the total shares and their previous withdrawals. `token` must be the address of an IERC20 contract."
      },
      "released(address)": {
        "details": "Getter for the amount of Ether already released to a payee."
      },
      "released(address,address)": {
        "details": "Getter for the amount of `token` tokens already released to a payee. `token` should be the address of an IERC20 contract."
      },
      "renounceOwnership()": {
        "details": "Leaves the contract without owner. It will not be possible to call `onlyOwner` functions anymore. Can only be called by the current owner. NOTE: Renouncing ownership will leave the contract without an owner, thereby removing any functionality that is only available to the owner."
      },
      "shares(address)": {
        "details": "Getter for the amount of shares held by an account."
      },
      "symbol()": {
        "details": "Returns the symbol of the token, usually a shorter version of the name."
      },
      "totalReleased()": {
        "details": "Getter for the total amount of Ether already released."
      },
      "totalReleased(address)": {
        "details": "Getter for the total amount of `token` already released. `token` should be the address of an IERC20 contract."
      },
      "totalShares()": {
        "details": "Getter for the total shares held by payees."
      },
      "totalSupply()": {
        "details": "See {IERC20-totalSupply}."
      },
      "transfer(address,uint256)": {
        "details": "See {IERC20-transfer}. Requirements: - `to` cannot be the zero address. - the caller must have a balance of at least `amount`."
      },
      "transferFrom(address,address,uint256)": {
        "details": "See {IERC20-transferFrom}. Emits an {Approval} event indicating the updated allowance. This is not required by the EIP. See the note at the beginning of {ERC20}. NOTE: Does not update the allowance if the current allowance is the maximum `uint256`. Requirements: - `from` and `to` cannot be the zero address. - `from` must have a balance of at least `amount`. - the caller must have allowance for ``from``'s tokens of at least `amount`."
      },
      "transferOwnership(address)": {
        "details": "Transfers ownership of the contract to a new account (`newOwner`). Can only be called by the current owner."
      }
    },
    "version": 1
  },
  "userdoc": {
    "kind": "user",
    "methods": {},
    "version": 1
  },
  "storageLayout": {
    "storage": [
      {
        "astId": 598,
        "contract": "contracts/ZeroXBlock.sol:ZeroXBlock",
        "label": "_initialized",
        "offset": 0,
        "slot": "0",
        "type": "t_bool"
      },
      {
        "astId": 601,
        "contract": "contracts/ZeroXBlock.sol:ZeroXBlock",
        "label": "_initializing",
        "offset": 1,
        "slot": "0",
        "type": "t_bool"
      },
      {
        "astId": 1889,
        "contract": "contracts/ZeroXBlock.sol:ZeroXBlock",
        "label": "__gap",
        "offset": 0,
        "slot": "1",
        "type": "t_array(t_uint256)50_storage"
      },
      {
        "astId": 684,
        "contract": "contracts/ZeroXBlock.sol:ZeroXBlock",
        "label": "_balances",
        "offset": 0,
        "slot": "51",
        "type": "t_mapping(t_address,t_uint256)"
      },
      {
        "astId": 690,
        "contract": "contracts/ZeroXBlock.sol:ZeroXBlock",
        "label": "_allowances",
        "offset": 0,
        "slot": "52",
        "type": "t_mapping(t_address,t_mapping(t_address,t_uint256))"
      },
      {
        "astId": 692,
        "contract": "contracts/ZeroXBlock.sol:ZeroXBlock",
        "label": "_totalSupply",
        "offset": 0,
        "slot": "53",
        "type": "t_uint256"
      },
      {
        "astId": 694,
        "contract": "contracts/ZeroXBlock.sol:ZeroXBlock",
        "label": "_name",
        "offset": 0,
        "slot": "54",
        "type": "t_string_storage"
      },
      {
        "astId": 696,
        "contract": "contracts/ZeroXBlock.sol:ZeroXBlock",
        "label": "_symbol",
        "offset": 0,
        "slot": "55",
        "type": "t_string_storage"
      },
      {
        "astId": 1277,
        "contract": "contracts/ZeroXBlock.sol:ZeroXBlock",
        "label": "__gap",
        "offset": 0,
        "slot": "56",
        "type": "t_array(t_uint256)45_storage"
      },
      {
        "astId": 10,
        "contract": "contracts/ZeroXBlock.sol:ZeroXBlock",
        "label": "_owner",
        "offset": 0,
        "slot": "101",
        "type": "t_address"
      },
      {
        "astId": 122,
        "contract": "contracts/ZeroXBlock.sol:ZeroXBlock",
        "label": "__gap",
        "offset": 0,
        "slot": "102",
        "type": "t_array(t_uint256)49_storage"
      },
      {
        "astId": 163,
        "contract": "contracts/ZeroXBlock.sol:ZeroXBlock",
        "label": "_totalShares",
        "offset": 0,
        "slot": "151",
        "type": "t_uint256"
      },
      {
        "astId": 165,
        "contract": "contracts/ZeroXBlock.sol:ZeroXBlock",
        "label": "_totalReleased",
        "offset": 0,
        "slot": "152",
        "type": "t_uint256"
      },
      {
        "astId": 169,
        "contract": "contracts/ZeroXBlock.sol:ZeroXBlock",
        "label": "_shares",
        "offset": 0,
        "slot": "153",
        "type": "t_mapping(t_address,t_uint256)"
      },
      {
        "astId": 173,
        "contract": "contracts/ZeroXBlock.sol:ZeroXBlock",
        "label": "_released",
        "offset": 0,
        "slot": "154",
        "type": "t_mapping(t_address,t_uint256)"
      },
      {
        "astId": 176,
        "contract": "contracts/ZeroXBlock.sol:ZeroXBlock",
        "label": "_payees",
        "offset": 0,
        "slot": "155",
        "type": "t_array(t_address)dyn_storage"
      },
      {
        "astId": 181,
        "contract": "contracts/ZeroXBlock.sol:ZeroXBlock",
        "label": "_erc20TotalReleased",
        "offset": 0,
        "slot": "156",
        "type": "t_mapping(t_contract(IERC20Upgradeable)1356,t_uint256)"
      },
      {
        "astId": 188,
        "contract": "contracts/ZeroXBlock.sol:ZeroXBlock",
        "label": "_erc20Released",
        "offset": 0,
        "slot": "157",
        "type": "t_mapping(t_contract(IERC20Upgradeable)1356,t_mapping(t_address,t_uint256))"
      },
      {
        "astId": 590,
        "contract": "contracts/ZeroXBlock.sol:ZeroXBlock",
        "label": "__gap",
        "offset": 0,
        "slot": "158",
        "type": "t_array(t_uint256)43_storage"
      },
      {
        "astId": 1909,
        "contract": "contracts/ZeroXBlock.sol:ZeroXBlock",
        "label": "_crm",
        "offset": 0,
        "slot": "201",
        "type": "t_contract(CONTRewardManagement)5701"
      },
      {
        "astId": 1912,
        "contract": "contracts/ZeroXBlock.sol:ZeroXBlock",
        "label": "_liqRouter",
        "offset": 0,
        "slot": "202",
        "type": "t_contract(LiquidityRouter)6204"
      },
      {
        "astId": 1917,
        "contract": "contracts/ZeroXBlock.sol:ZeroXBlock",
        "label": "ownedContsLimit",
        "offset": 0,
        "slot": "203",
        "type": "t_uint256"
      },
      {
        "astId": 1919,
        "contract": "contracts/ZeroXBlock.sol:ZeroXBlock",
        "label": "mintContLimit",
        "offset": 0,
        "slot": "204",
        "type": "t_uint256"
      },
      {
        "astId": 1921,
        "contract": "contracts/ZeroXBlock.sol:ZeroXBlock",
        "label": "totalTokensPaidForMinting",
        "offset": 0,
        "slot": "205",
        "type": "t_uint256"
      },
      {
        "astId": 1923,
        "contract": "contracts/ZeroXBlock.sol:ZeroXBlock",
        "label": "developmentFundPool",
        "offset": 0,
        "slot": "206",
        "type": "t_address"
      },
      {
        "astId": 1925,
        "contract": "contracts/ZeroXBlock.sol:ZeroXBlock",
        "label": "treasuryPool",
        "offset": 0,
        "slot": "207",
        "type": "t_address"
      },
      {
        "astId": 1927,
        "contract": "contracts/ZeroXBlock.sol:ZeroXBlock",
        "label": "rewardsPool",
        "offset": 0,
        "slot": "208",
        "type": "t_address"
      },
      {
        "astId": 1929,
        "contract": "contracts/ZeroXBlock.sol:ZeroXBlock",
        "label": "liquidityPool",
        "offset": 0,
        "slot": "209",
        "type": "t_address"
      },
      {
        "astId": 1931,
        "contract": "contracts/ZeroXBlock.sol:ZeroXBlock",
        "label": "rewardsFee",
        "offset": 0,
        "slot": "210",
        "type": "t_uint256"
      },
      {
        "astId": 1933,
        "contract": "contracts/ZeroXBlock.sol:ZeroXBlock",
        "label": "treasuryFee",
        "offset": 0,
        "slot": "211",
        "type": "t_uint256"
      },
      {
        "astId": 1935,
        "contract": "contracts/ZeroXBlock.sol:ZeroXBlock",
        "label": "liquidityPoolFee",
        "offset": 0,
        "slot": "212",
        "type": "t_uint256"
      },
      {
        "astId": 1937,
        "contract": "contracts/ZeroXBlock.sol:ZeroXBlock",
        "label": "developmentFee",
        "offset": 0,
        "slot": "213",
        "type": "t_uint256"
      },
      {
        "astId": 1939,
        "contract": "contracts/ZeroXBlock.sol:ZeroXBlock",
        "label": "totalFees",
        "offset": 0,
        "slot": "214",
        "type": "t_uint256"
      },
      {
        "astId": 1941,
        "contract": "contracts/ZeroXBlock.sol:ZeroXBlock",
        "label": "cashoutFee",
        "offset": 0,
        "slot": "215",
        "type": "t_uint256"
      },
      {
        "astId": 1943,
        "contract": "contracts/ZeroXBlock.sol:ZeroXBlock",
        "label": "enableAutoSwapTreasury",
        "offset": 0,
        "slot": "216",
        "type": "t_bool"
      },
      {
        "astId": 1945,
        "contract": "contracts/ZeroXBlock.sol:ZeroXBlock",
        "label": "enableAutoSwapDevFund",
        "offset": 1,
        "slot": "216",
        "type": "t_bool"
      },
      {
        "astId": 1947,
        "contract": "contracts/ZeroXBlock.sol:ZeroXBlock",
        "label": "usdcToken",
        "offset": 2,
        "slot": "216",
        "type": "t_address"
      },
      {
        "astId": 1951,
        "contract": "contracts/ZeroXBlock.sol:ZeroXBlock",
        "label": "_isBlacklisted",
        "offset": 0,
        "slot": "217",
        "type": "t_mapping(t_address,t_bool)"
      },
      {
        "astId": 1953,
        "contract": "contracts/ZeroXBlock.sol:ZeroXBlock",
        "label": "enableCashout",
        "offset": 0,
        "slot": "218",
        "type": "t_bool"
      },
      {
        "astId": 1955,
        "contract": "contracts/ZeroXBlock.sol:ZeroXBlock",
        "label": "enableMintConts",
        "offset": 1,
        "slot": "218",
        "type": "t_bool"
      }
    ],
    "types": {
      "t_address": {
        "encoding": "inplace",
        "label": "address",
        "numberOfBytes": "20"
      },
      "t_array(t_address)dyn_storage": {
        "base": "t_address",
        "encoding": "dynamic_array",
        "label": "address[]",
        "numberOfBytes": "32"
      },
      "t_array(t_uint256)43_storage": {
        "base": "t_uint256",
        "encoding": "inplace",
        "label": "uint256[43]",
        "numberOfBytes": "1376"
      },
      "t_array(t_uint256)45_storage": {
        "base": "t_uint256",
        "encoding": "inplace",
        "label": "uint256[45]",
        "numberOfBytes": "1440"
      },
      "t_array(t_uint256)49_storage": {
        "base": "t_uint256",
        "encoding": "inplace",
        "label": "uint256[49]",
        "numberOfBytes": "1568"
      },
      "t_array(t_uint256)50_storage": {
        "base": "t_uint256",
        "encoding": "inplace",
        "label": "uint256[50]",
        "numberOfBytes": "1600"
      },
      "t_bool": {
        "encoding": "inplace",
        "label": "bool",
        "numberOfBytes": "1"
      },
      "t_contract(CONTRewardManagement)5701": {
        "encoding": "inplace",
        "label": "contract CONTRewardManagement",
        "numberOfBytes": "20"
      },
      "t_contract(IERC20Upgradeable)1356": {
        "encoding": "inplace",
        "label": "contract IERC20Upgradeable",
        "numberOfBytes": "20"
      },
      "t_contract(LiquidityRouter)6204": {
        "encoding": "inplace",
        "label": "contract LiquidityRouter",
        "numberOfBytes": "20"
      },
      "t_mapping(t_address,t_bool)": {
        "encoding": "mapping",
        "key": "t_address",
        "label": "mapping(address => bool)",
        "numberOfBytes": "32",
        "value": "t_bool"
      },
      "t_mapping(t_address,t_mapping(t_address,t_uint256))": {
        "encoding": "mapping",
        "key": "t_address",
        "label": "mapping(address => mapping(address => uint256))",
        "numberOfBytes": "32",
        "value": "t_mapping(t_address,t_uint256)"
      },
      "t_mapping(t_address,t_uint256)": {
        "encoding": "mapping",
        "key": "t_address",
        "label": "mapping(address => uint256)",
        "numberOfBytes": "32",
        "value": "t_uint256"
      },
      "t_mapping(t_contract(IERC20Upgradeable)1356,t_mapping(t_address,t_uint256))": {
        "encoding": "mapping",
        "key": "t_contract(IERC20Upgradeable)1356",
        "label": "mapping(contract IERC20Upgradeable => mapping(address => uint256))",
        "numberOfBytes": "32",
        "value": "t_mapping(t_address,t_uint256)"
      },
      "t_mapping(t_contract(IERC20Upgradeable)1356,t_uint256)": {
        "encoding": "mapping",
        "key": "t_contract(IERC20Upgradeable)1356",
        "label": "mapping(contract IERC20Upgradeable => uint256)",
        "numberOfBytes": "32",
        "value": "t_uint256"
      },
      "t_string_storage": {
        "encoding": "bytes",
        "label": "string",
        "numberOfBytes": "32"
      },
      "t_uint256": {
        "encoding": "inplace",
        "label": "uint256",
        "numberOfBytes": "32"
      }
    }
  }
}