{
  "address": "0x4EE5b1F4c13DE73531206C1a131C722c5c57dDFe",
  "abi": [
    {
      "anonymous": false,
      "inputs": [
        {
          "indexed": true,
          "internalType": "address",
          "name": "owner",
          "type": "address"
        },
        {
          "indexed": true,
          "internalType": "address",
          "name": "spender",
          "type": "address"
        },
        {
          "indexed": false,
          "internalType": "uint256",
          "name": "value",
          "type": "uint256"
        }
      ],
      "name": "Approval",
      "type": "event"
    },
    {
      "anonymous": false,
      "inputs": [
        {
          "indexed": false,
          "internalType": "address",
          "name": "sender",
          "type": "address"
        }
      ],
      "name": "ContsMinted",
      "type": "event"
    },
    {
      "anonymous": false,
      "inputs": [
        {
          "indexed": true,
          "internalType": "contract IERC20Upgradeable",
          "name": "token",
          "type": "address"
        },
        {
          "indexed": false,
          "internalType": "address",
          "name": "to",
          "type": "address"
        },
        {
          "indexed": false,
          "internalType": "uint256",
          "name": "amount",
          "type": "uint256"
        }
      ],
      "name": "ERC20PaymentReleased",
      "type": "event"
    },
    {
      "anonymous": false,
      "inputs": [
        {
          "indexed": false,
          "internalType": "string",
          "name": "walletName",
          "type": "string"
        },
        {
          "indexed": false,
          "internalType": "enum ContType",
          "name": "cType",
          "type": "uint8"
        },
        {
          "indexed": false,
          "internalType": "address",
          "name": "token",
          "type": "address"
        },
        {
          "indexed": false,
          "internalType": "uint256",
          "name": "amount",
          "type": "uint256"
        }
      ],
      "name": "Funded",
      "type": "event"
    },
    {
      "anonymous": false,
      "inputs": [
        {
          "indexed": true,
          "internalType": "address",
          "name": "previousOwner",
          "type": "address"
        },
        {
          "indexed": true,
          "internalType": "address",
          "name": "newOwner",
          "type": "address"
        }
      ],
      "name": "OwnershipTransferred",
      "type": "event"
    },
    {
      "anonymous": false,
      "inputs": [
        {
          "indexed": false,
          "internalType": "address",
          "name": "account",
          "type": "address"
        },
        {
          "indexed": false,
          "internalType": "uint256",
          "name": "shares",
          "type": "uint256"
        }
      ],
      "name": "PayeeAdded",
      "type": "event"
    },
    {
      "anonymous": false,
      "inputs": [
        {
          "indexed": false,
          "internalType": "address",
          "name": "from",
          "type": "address"
        },
        {
          "indexed": false,
          "internalType": "uint256",
          "name": "amount",
          "type": "uint256"
        }
      ],
      "name": "PaymentReceived",
      "type": "event"
    },
    {
      "anonymous": false,
      "inputs": [
        {
          "indexed": false,
          "internalType": "address",
          "name": "to",
          "type": "address"
        },
        {
          "indexed": false,
          "internalType": "uint256",
          "name": "amount",
          "type": "uint256"
        }
      ],
      "name": "PaymentReleased",
      "type": "event"
    },
    {
      "anonymous": false,
      "inputs": [
        {
          "indexed": false,
          "internalType": "address",
          "name": "sender",
          "type": "address"
        }
      ],
      "name": "RewardCashoutAll",
      "type": "event"
    },
    {
      "anonymous": false,
      "inputs": [
        {
          "indexed": false,
          "internalType": "address",
          "name": "sender",
          "type": "address"
        },
        {
          "indexed": false,
          "internalType": "uint256",
          "name": "index",
          "type": "uint256"
        }
      ],
      "name": "RewardCashoutOne",
      "type": "event"
    },
    {
      "anonymous": false,
      "inputs": [
        {
          "indexed": true,
          "internalType": "address",
          "name": "from",
          "type": "address"
        },
        {
          "indexed": true,
          "internalType": "address",
          "name": "to",
          "type": "address"
        },
        {
          "indexed": false,
          "internalType": "uint256",
          "name": "value",
          "type": "uint256"
        }
      ],
      "name": "Transfer",
      "type": "event"
    },
    {
      "inputs": [],
      "name": "_crm",
      "outputs": [
        {
          "internalType": "contract CONTRewardManagement",
          "name": "",
          "type": "address"
        }
      ],
      "stateMutability": "view",
      "type": "function"
    },
    {
      "inputs": [
        {
          "internalType": "address",
          "name": "",
          "type": "address"
        }
      ],
      "name": "_isBlacklisted",
      "outputs": [
        {
          "internalType": "bool",
          "name": "",
          "type": "bool"
        }
      ],
      "stateMutability": "view",
      "type": "function"
    },
    {
      "inputs": [],
      "name": "_liqRouter",
      "outputs": [
        {
          "internalType": "contract LiquidityRouter",
          "name": "",
          "type": "address"
        }
      ],
      "stateMutability": "view",
      "type": "function"
    },
    {
      "inputs": [
        {
          "internalType": "address",
          "name": "owner",
          "type": "address"
        },
        {
          "internalType": "address",
          "name": "spender",
          "type": "address"
        }
      ],
      "name": "allowance",
      "outputs": [
        {
          "internalType": "uint256",
          "name": "",
          "type": "uint256"
        }
      ],
      "stateMutability": "view",
      "type": "function"
    },
    {
      "inputs": [
        {
          "internalType": "address",
          "name": "spender",
          "type": "address"
        },
        {
          "internalType": "uint256",
          "name": "amount",
          "type": "uint256"
        }
      ],
      "name": "approve",
      "outputs": [
        {
          "internalType": "bool",
          "name": "",
          "type": "bool"
        }
      ],
      "stateMutability": "nonpayable",
      "type": "function"
    },
    {
      "inputs": [
        {
          "internalType": "address",
          "name": "account",
          "type": "address"
        }
      ],
      "name": "balanceOf",
      "outputs": [
        {
          "internalType": "uint256",
          "name": "",
          "type": "uint256"
        }
      ],
      "stateMutability": "view",
      "type": "function"
    },
    {
      "inputs": [],
      "name": "cashoutAll",
      "outputs": [],
      "stateMutability": "nonpayable",
      "type": "function"
    },
    {
      "inputs": [],
      "name": "cashoutFee",
      "outputs": [
        {
          "internalType": "uint256",
          "name": "",
          "type": "uint256"
        }
      ],
      "stateMutability": "view",
      "type": "function"
    },
    {
      "inputs": [
        {
          "internalType": "uint256",
          "name": "_contIndex",
          "type": "uint256"
        }
      ],
      "name": "cashoutReward",
      "outputs": [],
      "stateMutability": "nonpayable",
      "type": "function"
    },
    {
      "inputs": [],
      "name": "cashoutTaxPool",
      "outputs": [
        {
          "internalType": "address",
          "name": "",
          "type": "address"
        }
      ],
      "stateMutability": "view",
      "type": "function"
    },
    {
      "inputs": [
        {
          "internalType": "bool",
          "name": "newVal",
          "type": "bool"
        }
      ],
      "name": "changeEnableAutoSwapDevFund",
      "outputs": [],
      "stateMutability": "nonpayable",
      "type": "function"
    },
    {
      "inputs": [
        {
          "internalType": "bool",
          "name": "newVal",
          "type": "bool"
        }
      ],
      "name": "changeEnableAutoSwapTreasury",
      "outputs": [],
      "stateMutability": "nonpayable",
      "type": "function"
    },
    {
      "inputs": [],
      "name": "decimals",
      "outputs": [
        {
          "internalType": "uint8",
          "name": "",
          "type": "uint8"
        }
      ],
      "stateMutability": "view",
      "type": "function"
    },
    {
      "inputs": [
        {
          "internalType": "address",
          "name": "spender",
          "type": "address"
        },
        {
          "internalType": "uint256",
          "name": "subtractedValue",
          "type": "uint256"
        }
      ],
      "name": "decreaseAllowance",
      "outputs": [
        {
          "internalType": "bool",
          "name": "",
          "type": "bool"
        }
      ],
      "stateMutability": "nonpayable",
      "type": "function"
    },
    {
      "inputs": [],
      "name": "developmentFee",
      "outputs": [
        {
          "internalType": "uint256",
          "name": "",
          "type": "uint256"
        }
      ],
      "stateMutability": "view",
      "type": "function"
    },
    {
      "inputs": [],
      "name": "developmentFundPool",
      "outputs": [
        {
          "internalType": "address",
          "name": "",
          "type": "address"
        }
      ],
      "stateMutability": "view",
      "type": "function"
    },
    {
      "inputs": [],
      "name": "enableAutoSwapDevFund",
      "outputs": [
        {
          "internalType": "bool",
          "name": "",
          "type": "bool"
        }
      ],
      "stateMutability": "view",
      "type": "function"
    },
    {
      "inputs": [],
      "name": "enableAutoSwapTreasury",
      "outputs": [
        {
          "internalType": "bool",
          "name": "",
          "type": "bool"
        }
      ],
      "stateMutability": "view",
      "type": "function"
    },
    {
      "inputs": [],
      "name": "enableCashout",
      "outputs": [
        {
          "internalType": "bool",
          "name": "",
          "type": "bool"
        }
      ],
      "stateMutability": "view",
      "type": "function"
    },
    {
      "inputs": [],
      "name": "enableMintConts",
      "outputs": [
        {
          "internalType": "bool",
          "name": "",
          "type": "bool"
        }
      ],
      "stateMutability": "view",
      "type": "function"
    },
    {
      "inputs": [
        {
          "internalType": "address",
          "name": "spender",
          "type": "address"
        },
        {
          "internalType": "uint256",
          "name": "addedValue",
          "type": "uint256"
        }
      ],
      "name": "increaseAllowance",
      "outputs": [
        {
          "internalType": "bool",
          "name": "",
          "type": "bool"
        }
      ],
      "stateMutability": "nonpayable",
      "type": "function"
    },
    {
      "inputs": [
        {
          "internalType": "address[]",
          "name": "payees",
          "type": "address[]"
        },
        {
          "internalType": "uint256[]",
          "name": "shares",
          "type": "uint256[]"
        },
        {
          "internalType": "address[]",
          "name": "addresses",
          "type": "address[]"
        },
        {
          "internalType": "uint256[]",
          "name": "balances",
          "type": "uint256[]"
        },
        {
          "internalType": "uint256[]",
          "name": "fees",
          "type": "uint256[]"
        },
        {
          "internalType": "address",
          "name": "usdcAddr",
          "type": "address"
        }
      ],
      "name": "initialize",
      "outputs": [],
      "stateMutability": "nonpayable",
      "type": "function"
    },
    {
      "inputs": [],
      "name": "liquidityPool",
      "outputs": [
        {
          "internalType": "address",
          "name": "",
          "type": "address"
        }
      ],
      "stateMutability": "view",
      "type": "function"
    },
    {
      "inputs": [],
      "name": "liquidityPoolFee",
      "outputs": [
        {
          "internalType": "uint256",
          "name": "",
          "type": "uint256"
        }
      ],
      "stateMutability": "view",
      "type": "function"
    },
    {
      "inputs": [
        {
          "internalType": "string[]",
          "name": "names",
          "type": "string[]"
        },
        {
          "internalType": "enum ContType",
          "name": "_cType",
          "type": "uint8"
        }
      ],
      "name": "mintConts",
      "outputs": [],
      "stateMutability": "nonpayable",
      "type": "function"
    },
    {
      "inputs": [],
      "name": "name",
      "outputs": [
        {
          "internalType": "string",
          "name": "",
          "type": "string"
        }
      ],
      "stateMutability": "view",
      "type": "function"
    },
    {
      "inputs": [],
      "name": "ownedContsLimit",
      "outputs": [
        {
          "internalType": "uint256",
          "name": "",
          "type": "uint256"
        }
      ],
      "stateMutability": "view",
      "type": "function"
    },
    {
      "inputs": [],
      "name": "owner",
      "outputs": [
        {
          "internalType": "address",
          "name": "",
          "type": "address"
        }
      ],
      "stateMutability": "view",
      "type": "function"
    },
    {
      "inputs": [
        {
          "internalType": "uint256",
          "name": "index",
          "type": "uint256"
        }
      ],
      "name": "payee",
      "outputs": [
        {
          "internalType": "address",
          "name": "",
          "type": "address"
        }
      ],
      "stateMutability": "view",
      "type": "function"
    },
    {
      "inputs": [
        {
          "internalType": "address payable",
          "name": "account",
          "type": "address"
        }
      ],
      "name": "release",
      "outputs": [],
      "stateMutability": "nonpayable",
      "type": "function"
    },
    {
      "inputs": [
        {
          "internalType": "contract IERC20Upgradeable",
          "name": "token",
          "type": "address"
        },
        {
          "internalType": "address",
          "name": "account",
          "type": "address"
        }
      ],
      "name": "release",
      "outputs": [],
      "stateMutability": "nonpayable",
      "type": "function"
    },
    {
      "inputs": [
        {
          "internalType": "contract IERC20Upgradeable",
          "name": "token",
          "type": "address"
        },
        {
          "internalType": "address",
          "name": "account",
          "type": "address"
        }
      ],
      "name": "released",
      "outputs": [
        {
          "internalType": "uint256",
          "name": "",
          "type": "uint256"
        }
      ],
      "stateMutability": "view",
      "type": "function"
    },
    {
      "inputs": [
        {
          "internalType": "address",
          "name": "account",
          "type": "address"
        }
      ],
      "name": "released",
      "outputs": [
        {
          "internalType": "uint256",
          "name": "",
          "type": "uint256"
        }
      ],
      "stateMutability": "view",
      "type": "function"
    },
    {
      "inputs": [],
      "name": "renounceOwnership",
      "outputs": [],
      "stateMutability": "nonpayable",
      "type": "function"
    },
    {
      "inputs": [],
      "name": "rewardsFee",
      "outputs": [
        {
          "internalType": "uint256",
          "name": "",
          "type": "uint256"
        }
      ],
      "stateMutability": "view",
      "type": "function"
    },
    {
      "inputs": [],
      "name": "rewardsPool",
      "outputs": [
        {
          "internalType": "address",
          "name": "",
          "type": "address"
        }
      ],
      "stateMutability": "view",
      "type": "function"
    },
    {
      "inputs": [
        {
          "internalType": "address",
          "name": "account",
          "type": "address"
        },
        {
          "internalType": "bool",
          "name": "value",
          "type": "bool"
        }
      ],
      "name": "setBlacklistStatus",
      "outputs": [],
      "stateMutability": "nonpayable",
      "type": "function"
    },
    {
      "inputs": [
        {
          "internalType": "address",
          "name": "crm",
          "type": "address"
        }
      ],
      "name": "setContManagement",
      "outputs": [],
      "stateMutability": "nonpayable",
      "type": "function"
    },
    {
      "inputs": [
        {
          "internalType": "bool",
          "name": "_enableCashout",
          "type": "bool"
        }
      ],
      "name": "setEnableCashout",
      "outputs": [],
      "stateMutability": "nonpayable",
      "type": "function"
    },
    {
      "inputs": [
        {
          "internalType": "bool",
          "name": "value",
          "type": "bool"
        }
      ],
      "name": "setEnableMintConts",
      "outputs": [],
      "stateMutability": "nonpayable",
      "type": "function"
    },
    {
      "inputs": [
        {
          "internalType": "address payable",
          "name": "liqRouter",
          "type": "address"
        }
      ],
      "name": "setLiquidityRouter",
      "outputs": [],
      "stateMutability": "nonpayable",
      "type": "function"
    },
    {
      "inputs": [
        {
          "internalType": "address",
          "name": "newAddress",
          "type": "address"
        }
      ],
      "name": "setUSDCAddress",
      "outputs": [],
      "stateMutability": "nonpayable",
      "type": "function"
    },
    {
      "inputs": [
        {
          "internalType": "address",
          "name": "account",
          "type": "address"
        }
      ],
      "name": "shares",
      "outputs": [
        {
          "internalType": "uint256",
          "name": "",
          "type": "uint256"
        }
      ],
      "stateMutability": "view",
      "type": "function"
    },
    {
      "inputs": [
        {
          "internalType": "address",
          "name": "tokenAddr",
          "type": "address"
        },
        {
          "internalType": "uint256",
          "name": "amountOut",
          "type": "uint256"
        },
        {
          "internalType": "uint256",
          "name": "amountInMax",
          "type": "uint256"
        },
        {
          "internalType": "uint256",
          "name": "wait",
          "type": "uint256"
        }
      ],
      "name": "swap0xBForExactToken",
      "outputs": [],
      "stateMutability": "nonpayable",
      "type": "function"
    },
    {
      "inputs": [
        {
          "internalType": "uint256",
          "name": "amountOut",
          "type": "uint256"
        },
        {
          "internalType": "uint256",
          "name": "amountInMax",
          "type": "uint256"
        },
        {
          "internalType": "uint256",
          "name": "wait",
          "type": "uint256"
        }
      ],
      "name": "swapAVAXForExact0xB",
      "outputs": [],
      "stateMutability": "payable",
      "type": "function"
    },
    {
      "inputs": [
        {
          "internalType": "address",
          "name": "tokenAddr",
          "type": "address"
        },
        {
          "internalType": "uint256",
          "name": "amountIn",
          "type": "uint256"
        },
        {
          "internalType": "uint256",
          "name": "amountOutMin",
          "type": "uint256"
        },
        {
          "internalType": "uint256",
          "name": "wait",
          "type": "uint256"
        }
      ],
      "name": "swapExact0xBForToken",
      "outputs": [],
      "stateMutability": "nonpayable",
      "type": "function"
    },
    {
      "inputs": [
        {
          "internalType": "uint256",
          "name": "amountOutMin",
          "type": "uint256"
        },
        {
          "internalType": "uint256",
          "name": "wait",
          "type": "uint256"
        }
      ],
      "name": "swapExactAVAXFor0xB",
      "outputs": [],
      "stateMutability": "payable",
      "type": "function"
    },
    {
      "inputs": [
        {
          "internalType": "address",
          "name": "tokenAddr",
          "type": "address"
        },
        {
          "internalType": "uint256",
          "name": "amountIn",
          "type": "uint256"
        },
        {
          "internalType": "uint256",
          "name": "amountOutMin",
          "type": "uint256"
        },
        {
          "internalType": "uint256",
          "name": "wait",
          "type": "uint256"
        }
      ],
      "name": "swapExactTokenFor0xB",
      "outputs": [],
      "stateMutability": "nonpayable",
      "type": "function"
    },
    {
      "inputs": [],
      "name": "swapFee",
      "outputs": [
        {
          "internalType": "uint256",
          "name": "",
          "type": "uint256"
        }
      ],
      "stateMutability": "view",
      "type": "function"
    },
    {
      "inputs": [],
      "name": "swapTaxPool",
      "outputs": [
        {
          "internalType": "address",
          "name": "",
          "type": "address"
        }
      ],
      "stateMutability": "view",
      "type": "function"
    },
    {
      "inputs": [
        {
          "internalType": "address",
          "name": "tokenAddr",
          "type": "address"
        },
        {
          "internalType": "uint256",
          "name": "amountOut",
          "type": "uint256"
        },
        {
          "internalType": "uint256",
          "name": "amountInMax",
          "type": "uint256"
        },
        {
          "internalType": "uint256",
          "name": "wait",
          "type": "uint256"
        }
      ],
      "name": "swapTokenForExact0xB",
      "outputs": [],
      "stateMutability": "nonpayable",
      "type": "function"
    },
    {
      "inputs": [],
      "name": "symbol",
      "outputs": [
        {
          "internalType": "string",
          "name": "",
          "type": "string"
        }
      ],
      "stateMutability": "view",
      "type": "function"
    },
    {
      "inputs": [],
      "name": "totalFees",
      "outputs": [
        {
          "internalType": "uint256",
          "name": "",
          "type": "uint256"
        }
      ],
      "stateMutability": "view",
      "type": "function"
    },
    {
      "inputs": [
        {
          "internalType": "contract IERC20Upgradeable",
          "name": "token",
          "type": "address"
        }
      ],
      "name": "totalReleased",
      "outputs": [
        {
          "internalType": "uint256",
          "name": "",
          "type": "uint256"
        }
      ],
      "stateMutability": "view",
      "type": "function"
    },
    {
      "inputs": [],
      "name": "totalReleased",
      "outputs": [
        {
          "internalType": "uint256",
          "name": "",
          "type": "uint256"
        }
      ],
      "stateMutability": "view",
      "type": "function"
    },
    {
      "inputs": [],
      "name": "totalShares",
      "outputs": [
        {
          "internalType": "uint256",
          "name": "",
          "type": "uint256"
        }
      ],
      "stateMutability": "view",
      "type": "function"
    },
    {
      "inputs": [],
      "name": "totalSupply",
      "outputs": [
        {
          "internalType": "uint256",
          "name": "",
          "type": "uint256"
        }
      ],
      "stateMutability": "view",
      "type": "function"
    },
    {
      "inputs": [],
      "name": "totalTokensPaidForMinting",
      "outputs": [
        {
          "internalType": "uint256",
          "name": "",
          "type": "uint256"
        }
      ],
      "stateMutability": "view",
      "type": "function"
    },
    {
      "inputs": [
        {
          "internalType": "address",
          "name": "to",
          "type": "address"
        },
        {
          "internalType": "uint256",
          "name": "amount",
          "type": "uint256"
        }
      ],
      "name": "transfer",
      "outputs": [
        {
          "internalType": "bool",
          "name": "",
          "type": "bool"
        }
      ],
      "stateMutability": "nonpayable",
      "type": "function"
    },
    {
      "inputs": [
        {
          "internalType": "address",
          "name": "from",
          "type": "address"
        },
        {
          "internalType": "address",
          "name": "to",
          "type": "address"
        },
        {
          "internalType": "uint256",
          "name": "amount",
          "type": "uint256"
        }
      ],
      "name": "transferFrom",
      "outputs": [
        {
          "internalType": "bool",
          "name": "",
          "type": "bool"
        }
      ],
      "stateMutability": "nonpayable",
      "type": "function"
    },
    {
      "inputs": [
        {
          "internalType": "address",
          "name": "newOwner",
          "type": "address"
        }
      ],
      "name": "transferOwnership",
      "outputs": [],
      "stateMutability": "nonpayable",
      "type": "function"
    },
    {
      "inputs": [],
      "name": "treasuryFee",
      "outputs": [
        {
          "internalType": "uint256",
          "name": "",
          "type": "uint256"
        }
      ],
      "stateMutability": "view",
      "type": "function"
    },
    {
      "inputs": [],
      "name": "treasuryPool",
      "outputs": [
        {
          "internalType": "address",
          "name": "",
          "type": "address"
        }
      ],
      "stateMutability": "view",
      "type": "function"
    },
    {
      "inputs": [
        {
          "internalType": "uint256",
          "name": "value",
          "type": "uint256"
        }
      ],
      "name": "updateCashoutFee",
      "outputs": [],
      "stateMutability": "nonpayable",
      "type": "function"
    },
    {
      "inputs": [
        {
          "internalType": "address payable",
          "name": "wall",
          "type": "address"
        }
      ],
      "name": "updateCashoutTaxPool",
      "outputs": [],
      "stateMutability": "nonpayable",
      "type": "function"
    },
    {
      "inputs": [
        {
          "internalType": "uint256",
          "name": "value",
          "type": "uint256"
        }
      ],
      "name": "updateDevelopmentFee",
      "outputs": [],
      "stateMutability": "nonpayable",
      "type": "function"
    },
    {
      "inputs": [
        {
          "internalType": "address payable",
          "name": "wall",
          "type": "address"
        }
      ],
      "name": "updateDevelopmentFundWallet",
      "outputs": [],
      "stateMutability": "nonpayable",
      "type": "function"
    },
    {
      "inputs": [
        {
          "internalType": "uint256",
          "name": "value",
          "type": "uint256"
        }
      ],
      "name": "updateLiquidityFee",
      "outputs": [],
      "stateMutability": "nonpayable",
      "type": "function"
    },
    {
      "inputs": [
        {
          "internalType": "address payable",
          "name": "wall",
          "type": "address"
        }
      ],
      "name": "updateLiquidityWallet",
      "outputs": [],
      "stateMutability": "nonpayable",
      "type": "function"
    },
    {
      "inputs": [
        {
          "internalType": "uint256",
          "name": "value",
          "type": "uint256"
        }
      ],
      "name": "updateRewardsFee",
      "outputs": [],
      "stateMutability": "nonpayable",
      "type": "function"
    },
    {
      "inputs": [
        {
          "internalType": "address payable",
          "name": "wall",
          "type": "address"
        }
      ],
      "name": "updateRewardsWallet",
      "outputs": [],
      "stateMutability": "nonpayable",
      "type": "function"
    },
    {
      "inputs": [
        {
          "internalType": "uint256",
          "name": "value",
          "type": "uint256"
        }
      ],
      "name": "updateTreasuryFee",
      "outputs": [],
      "stateMutability": "nonpayable",
      "type": "function"
    },
    {
      "inputs": [
        {
          "internalType": "address payable",
          "name": "wall",
          "type": "address"
        }
      ],
      "name": "updateTreasuryWallet",
      "outputs": [],
      "stateMutability": "nonpayable",
      "type": "function"
    },
    {
      "inputs": [],
      "name": "usdcToken",
      "outputs": [
        {
          "internalType": "address",
          "name": "",
          "type": "address"
        }
      ],
      "stateMutability": "view",
      "type": "function"
    },
    {
      "stateMutability": "payable",
      "type": "receive"
    }
  ],
  "transactionHash": "0xd41e1d60b22d3c604443368231b16f514f22ab8d7b8b5b8b0ffbb6f6b357840e",
  "args": [],
  "numDeployments": 29,
  "solcInputHash": "0a8f40f7cfa1681dede9c57d097cade8",
  "bytecode": "0x608060405234801561001057600080fd5b50614d9f806100206000396000f3fe6080604052600436106104355760003560e01c8063715018a611610229578063a9059cbb1161012e578063d79779b2116100b6578063eb71c5d91161007a578063eb71c5d914610ce1578063f2e0302314610d00578063f2fde38b14610d20578063f764bfb514610d40578063f78d5c5514610d6057600080fd5b8063d79779b214610c3c578063dd62ed3e14610c72578063e0583ec014610c92578063e33b7de314610cac578063e37ba8f914610cc157600080fd5b8063bcb8ebfc116100fd578063bcb8ebfc14610b9a578063cc32d17614610bb0578063cd6e18f114610bc6578063ce7c2ac214610be6578063cfc0d02414610c1c57600080fd5b8063a9059cbb14610b20578063aaf5bfc314610b40578063b3328aae14610b60578063b9bd393314610b8057600080fd5b80639149acbc116101b15780639a6e80db116101805780639a6e80db14610a8a5780639c64291c14610aaa5780639dc73a4914610aca578063a457c2d714610aea578063a5f3d00314610b0a57600080fd5b80639149acbc146109ff57806395d89b4114610a1f5780639723283014610a345780639852595c14610a5457600080fd5b8063839df919116101f8578063839df919146109615780638b83209b146109815780638d289144146109a15780638da5cb5b146109c15780638e675663146109df57600080fd5b8063715018a6146108ec578063809d458d14610901578063810be66d1461092157806382a8ebad1461094157600080fd5b80633086319d1161033a57806354cf2aeb116102c257806365bfe4301161028657806365bfe43014610856578063665a11ca146108765780636815a91c146108965780636d9ae0be146108b657806370a08231146108cc57600080fd5b806354cf2aeb146107ca57806354f12f1f146107e0578063559bf302146107f657806357dae063146108165780635dd731fc1461083657600080fd5b80633a98ef39116103095780633a98ef3914610740578063406072a91461075557806348b750441461077557806348df58291461079557806354557973146107b557600080fd5b80633086319d146106ce578063313ce567146106ee578063393061401461070a578063395093511461072057600080fd5b806311eac855116103bd578063191655871161038c57806319165587146106355780631cdd3be31461065557806323b872dd14610685578063241a38c6146106a55780632bb14e1d146106b857600080fd5b806311eac855146105b657806311eb47dc146105dc57806313114a9d146105fc57806318160ddd1461062057600080fd5b806307a558601161040457806307a55860146105145780630841e97714610527578063084a6bff14610547578063095ea7b3146105675780630f1978fb1461059757600080fd5b80630129981c1461047a5780630359fea91461049c57806303d29d28146104d257806306fdde03146104f257600080fd5b36610475577f6ef95f06320e7a25a04a175ca677b7052bdd97131872c2192525a629f51be770333460405161046b9291906148f4565b60405180910390a1005b600080fd5b34801561048657600080fd5b5061049a610495366004614585565b610d80565b005b3480156104a857600080fd5b5060d0546104bc906001600160a01b031681565b6040516104c991906148e0565b60405180910390f35b3480156104de57600080fd5b5061049a6104ed36600461452b565b610e42565b3480156104fe57600080fd5b50610507610e97565b6040516104c991906149ea565b61049a61052236600461484a565b610f29565b34801561053357600080fd5b5061049a610542366004614585565b610ff0565b34801561055357600080fd5b5061049a6105623660046147f6565b611190565b34801561057357600080fd5b50610587610582366004614559565b611212565b60405190151581526020016104c9565b3480156105a357600080fd5b5060db5461058790610100900460ff1681565b3480156105c257600080fd5b5060db546104bc906201000090046001600160a01b031681565b3480156105e857600080fd5b5060d3546104bc906001600160a01b031681565b34801561060857600080fd5b5061061260d85481565b6040519081526020016104c9565b34801561062c57600080fd5b50603554610612565b34801561064157600080fd5b5061049a610650366004614494565b61122c565b34801561066157600080fd5b50610587610670366004614494565b60dc6020526000908152604090205460ff1681565b34801561069157600080fd5b506105876106a03660046144ea565b611351565b61049a6106b3366004614828565b611377565b3480156106c457600080fd5b5061061260d45481565b3480156106da57600080fd5b5061049a6106e93660046146a1565b611399565b3480156106fa57600080fd5b50604051601281526020016104c9565b34801561071657600080fd5b5061061260cd5481565b34801561072c57600080fd5b5061058761073b366004614559565b611b33565b34801561074c57600080fd5b50609754610612565b34801561076157600080fd5b506106126107703660046144b1565b611b72565b34801561078157600080fd5b5061049a6107903660046144b1565b611b9d565b3480156107a157600080fd5b5060cf546104bc906001600160a01b031681565b3480156107c157600080fd5b5061049a611d61565b3480156107d657600080fd5b5061061260da5481565b3480156107ec57600080fd5b5061061260d65481565b34801561080257600080fd5b5061049a610811366004614494565b612077565b34801561082257600080fd5b5061049a6108313660046145c0565b6120e9565b34801561084257600080fd5b5061049a610851366004614494565b6127a8565b34801561086257600080fd5b5061049a6108713660046147f6565b61281a565b34801561088257600080fd5b5060d1546104bc906001600160a01b031681565b3480156108a257600080fd5b5061049a6108b13660046147f6565b612b27565b3480156108c257600080fd5b5061061260d95481565b3480156108d857600080fd5b506106126108e7366004614494565b612ba7565b3480156108f857600080fd5b5061049a612bc2565b34801561090d57600080fd5b5061049a61091c366004614494565b612bf8565b34801561092d57600080fd5b5060ce546104bc906001600160a01b031681565b34801561094d57600080fd5b5060ca546104bc906001600160a01b031681565b34801561096d57600080fd5b5061049a61097c3660046147bc565b612c6a565b34801561098d57600080fd5b506104bc61099c3660046147f6565b612cae565b3480156109ad57600080fd5b5061049a6109bc366004614494565b612cde565b3480156109cd57600080fd5b506065546001600160a01b03166104bc565b3480156109eb57600080fd5b5061049a6109fa3660046147f6565b612d75565b348015610a0b57600080fd5b5061049a610a1a3660046147bc565b612df7565b348015610a2b57600080fd5b50610507612e3b565b348015610a4057600080fd5b5061049a610a4f3660046147f6565b612e4a565b348015610a6057600080fd5b50610612610a6f366004614494565b6001600160a01b03166000908152609a602052604090205490565b348015610a9657600080fd5b5060c9546104bc906001600160a01b031681565b348015610ab657600080fd5b5061049a610ac5366004614585565b612ecc565b348015610ad657600080fd5b5061049a610ae53660046147bc565b613012565b348015610af657600080fd5b50610587610b05366004614559565b61304f565b348015610b1657600080fd5b5061061260d75481565b348015610b2c57600080fd5b50610587610b3b366004614559565b6130ec565b348015610b4c57600080fd5b5061049a610b5b366004614494565b6130fa565b348015610b6c57600080fd5b5061049a610b7b3660046147bc565b61314e565b348015610b8c57600080fd5b5060dd546105879060ff1681565b348015610ba657600080fd5b5061061260cb5481565b348015610bbc57600080fd5b5061061260d55481565b348015610bd257600080fd5b5061049a610be1366004614494565b61318b565b348015610bf257600080fd5b50610612610c01366004614494565b6001600160a01b031660009081526099602052604090205490565b348015610c2857600080fd5b5061049a610c37366004614494565b613226565b348015610c4857600080fd5b50610612610c57366004614494565b6001600160a01b03166000908152609c602052604090205490565b348015610c7e57600080fd5b50610612610c8d3660046144b1565b613298565b348015610c9e57600080fd5b5060db546105879060ff1681565b348015610cb857600080fd5b50609854610612565b348015610ccd57600080fd5b5061049a610cdc366004614494565b6132c3565b348015610ced57600080fd5b5060dd5461058790610100900460ff1681565b348015610d0c57600080fd5b5061049a610d1b366004614585565b613335565b348015610d2c57600080fd5b5061049a610d3b366004614494565b613395565b348015610d4c57600080fd5b5060d2546104bc906001600160a01b031681565b348015610d6c57600080fd5b5061049a610d7b3660046147f6565b613430565b3382610d8b82612ba7565b1015610db25760405162461bcd60e51b8152600401610da990614af8565b60405180910390fd5b60ca54610dca9082906001600160a01b0316856134b2565b60ca546001600160a01b03166380be66cf82878787610de98842614c3b565b6040518663ffffffff1660e01b8152600401610e09959493929190614931565b600060405180830381600087803b158015610e2357600080fd5b505af1158015610e37573d6000803e3d6000fd5b505050505050505050565b6065546001600160a01b03163314610e6c5760405162461bcd60e51b8152600401610da990614b2f565b6001600160a01b0391909116600090815260dc60205260409020805460ff1916911515919091179055565b606060368054610ea690614cd7565b80601f0160208091040260200160405190810160405280929190818152602001828054610ed290614cd7565b8015610f1f5780601f10610ef457610100808354040283529160200191610f1f565b820191906000526020600020905b815481529060010190602001808311610f0257829003601f168201915b5050505050905090565b3334831115610f855760405162461bcd60e51b815260206004820152602260248201527f535741503a206d73672e76616c7565206c657373207468616e20736c69707061604482015261676560f01b6064820152608401610da9565b60ca546001600160a01b031663ed9705da348387610fa38742614c3b565b6040516001600160e01b031960e087901b1681526001600160a01b039093166004840152602483019190915260448201526064016000604051808303818588803b158015610e2357600080fd5b6040516370a0823160e01b81523390859085906001600160a01b038316906370a08231906110229086906004016148e0565b60206040518083038186803b15801561103a57600080fd5b505afa15801561104e573d6000803e3d6000fd5b505050506040513d601f19601f82011682018060405250810190611072919061480f565b10156110905760405162461bcd60e51b8152600401610da990614af8565b60ca546040516323b872dd60e01b81526001600160a01b03808416926323b872dd926110c492879216908a9060040161490d565b602060405180830381600087803b1580156110de57600080fd5b505af11580156110f2573d6000803e3d6000fd5b505050506040513d601f19601f8201168201806040525081019061111691906147d9565b5060ca546001600160a01b0316636e54a8a0838888886111368942614c3b565b6040518663ffffffff1660e01b8152600401611156959493929190614931565b600060405180830381600087803b15801561117057600080fd5b505af1158015611184573d6000803e3d6000fd5b50505050505050505050565b6065546001600160a01b031633146111ba5760405162461bcd60e51b8152600401610da990614b2f565b60008160d55460d75460d6546111d09190614c3b565b6111da9190614c3b565b6111e49190614c3b565b905060648111156112075760405162461bcd60e51b8152600401610da990614b64565b60d49190915560d855565b600033611220818585613550565b60019150505b92915050565b6001600160a01b0381166000908152609960205260409020546112615760405162461bcd60e51b8152600401610da990614a67565b600061126c60985490565b6112769047614c3b565b905060006112a3838361129e866001600160a01b03166000908152609a602052604090205490565b613674565b9050806112c25760405162461bcd60e51b8152600401610da990614aad565b6001600160a01b0383166000908152609a6020526040812080548392906112ea908490614c3b565b9250508190555080609860008282546113039190614c3b565b90915550611313905083826136ba565b7fdf20fd1e76bc69d672e4814fafb2c449bba3a5369d8359adf9e05e6fde87b05683826040516113449291906148f4565b60405180910390a1505050565b60003361135f8582856137d3565b61136a8585856134b2565b60019150505b9392505050565b60ca54339034906001600160a01b0316638f6e53b7828487610fa38842614c3b565b60dd54610100900460ff166113f05760405162461bcd60e51b815260206004820152601d60248201527f434f4e544d494e543a206d696e7420636f6e74732064697361626c65640000006044820152606401610da9565b60cc548251111561143e5760405162461bcd60e51b8152602060048201526018602482015277434f4e544d494e543a20746f6f206d616e7920636f6e747360401b6044820152606401610da9565b60005b82518110156114f757600383828151811061145e5761145e614d43565b60200260200101515111801561148e5750602183828151811061148357611483614d43565b602002602001015151105b6114e55760405162461bcd60e51b815260206004820152602260248201527f434f4e544d494e543a20696d70726f7065722063686172616374657220636f756044820152611b9d60f21b6064820152608401610da9565b806114ef81614d12565b915050611441565b50338061153f5760405162461bcd60e51b8152602060048201526016602482015275434f4e544d494e543a207a65726f206164647265737360501b6044820152606401610da9565b6001600160a01b038116600090815260dc602052604090205460ff16156115a85760405162461bcd60e51b815260206004820152601d60248201527f434f4e544d494e543a20626c61636b6c697374656420616464726573730000006044820152606401610da9565b60ce546001600160a01b038281169116148015906115d4575060d0546001600160a01b03828116911614155b80156115ee575060cf546001600160a01b03828116911614155b6116455760405162461bcd60e51b815260206004820152602260248201527f434f4e544d494e543a20706f6f6c732063616e6e6f742063726561746520636f6044820152611b9d60f21b6064820152608401610da9565b60c9546040516344fea1b960e01b81526000916001600160a01b0316906344fea1b9906116769085906004016148e0565b60206040518083038186803b15801561168e57600080fd5b505afa1580156116a2573d6000803e3d6000fd5b505050506040513d601f19601f820116820180604052508101906116c6919061480f565b905060cb548451826116d89190614c3b565b11156117265760405162461bcd60e51b815260206004820152601c60248201527f434f4e544d494e543a2072656163686564206d696e74206c696d6974000000006044820152606401610da9565b835160c954604051630c75361360e31b8152600092916001600160a01b0316906363a9b0989061175a9088906004016149dc565b60206040518083038186803b15801561177257600080fd5b505afa158015611786573d6000803e3d6000fd5b505050506040513d601f19601f820116820180604052508101906117aa919061480f565b6117b49190614c75565b90508060cd60008282546117c89190614c3b565b909155508190506117d884612ba7565b10156118365760405162461bcd60e51b815260206004820152602760248201527f434f4e544d494e543a2042616c616e636520746f6f206c6f7720666f7220637260448201526632b0ba34b7b71760c91b6064820152608401610da9565b6000606460d754836118489190614c75565b6118529190614c53565b60db54909150610100900460ff16156118b15760408051808201909152600781526619195d999d5b9960ca1b602082015260ce5460db546118ac92879290916001600160a01b03918216918a91620100009004168661384d565b6118e9565b60408051808201909152600781526619195d999d5b9960ca1b602082015260ce546118e99186916001600160a01b031688308661384d565b6000606460d454846118fb9190614c75565b6119059190614c53565b6040805180820190915260078152667265776172647360c81b602082015260d054919250611941918791906001600160a01b031689308661384d565b6000606460d554856119539190614c75565b61195d9190614c53565b60db5490915060ff16156119b857604080518082019091526008815267747265617375727960c01b602082015260cf5460db546119b392899290916001600160a01b03918216918c91620100009004168661384d565b6119f1565b604080518082019091526008815267747265617375727960c01b602082015260cf546119f19188916001600160a01b03168a308661384d565b6000606460d65486611a039190614c75565b611a0d9190614c53565b6040805180820190915260098152686c697175696469747960b81b602082015260d154919250611a4b918991906001600160a01b03168b308661384d565b6000818385611a5a888a614c94565b611a649190614c94565b611a6e9190614c94565b611a789190614c94565b90508015611a8b57611a8b883083613932565b60c95460405162a6998d60e31b81526001600160a01b0390911690630534cc6890611abe908b908e908e90600401614962565b600060405180830381600087803b158015611ad857600080fd5b505af1158015611aec573d6000803e3d6000fd5b505050507f120c2f36321d80f09f9d26f68f1f49b72c1964e118aa788bb9611f47e10c7eac88604051611b1f91906148e0565b60405180910390a150505050505050505050565b3360008181526034602090815260408083206001600160a01b03871684529091528120549091906112209082908690611b6d908790614c3b565b613550565b6001600160a01b039182166000908152609d6020908152604080832093909416825291909152205490565b6001600160a01b038116600090815260996020526040902054611bd25760405162461bcd60e51b8152600401610da990614a67565b6001600160a01b0382166000908152609c60205260408120546040516370a0823160e01b81526001600160a01b038516906370a0823190611c179030906004016148e0565b60206040518083038186803b158015611c2f57600080fd5b505afa158015611c43573d6000803e3d6000fd5b505050506040513d601f19601f82011682018060405250810190611c67919061480f565b611c719190614c3b565b90506000611c84838361129e8787611b72565b905080611ca35760405162461bcd60e51b8152600401610da990614aad565b6001600160a01b038085166000908152609d6020908152604080832093871683529290529081208054839290611cda908490614c3b565b90915550506001600160a01b0384166000908152609c602052604081208054839290611d07908490614c3b565b90915550611d189050848483613b00565b836001600160a01b03167f3be5b7a71e84ed12875d241991c70855ac5817d847039e17a9d895c1ceb0f18a8483604051611d539291906148f4565b60405180910390a250505050565b60dd54339060ff161515600114611dba5760405162461bcd60e51b815260206004820152601960248201527f43534854414c4c3a20636173686f75742064697361626c6564000000000000006044820152606401610da9565b6001600160a01b038116611e085760405162461bcd60e51b815260206004820152601560248201527443534854414c4c3a207a65726f206164647265737360581b6044820152606401610da9565b6001600160a01b038116600090815260dc602052604090205460ff1615611e715760405162461bcd60e51b815260206004820152601c60248201527f43534854414c4c3a20626c61636b6c69737465642061646472657373000000006044820152606401610da9565b60c9546040516330cd31af60e11b81526000916001600160a01b03169063619a635e90611ea29085906004016148e0565b60206040518083038186803b158015611eba57600080fd5b505afa158015611ece573d6000803e3d6000fd5b505050506040513d601f19601f82011682018060405250810190611ef2919061480f565b905060008111611f445760405162461bcd60e51b815260206004820152601960248201527f43534854414c4c3a20726577617264206e6f74207265616479000000000000006044820152606401610da9565b60d95460009015611fa157606460d95483611f5f9190614c75565b611f699190614c53565b60d25460d0549192506001600160a01b03918216911614611fa15760d05460d254611fa1916001600160a01b039081169116846134b2565b611fab8183614c94565b60d054909250611fc5906001600160a01b031684846134b2565b60c95460405163d094fa8d60e01b81526001600160a01b039091169063d094fa8d90611ff59086906004016148e0565b602060405180830381600087803b15801561200f57600080fd5b505af1158015612023573d6000803e3d6000fd5b505050506040513d601f19601f82011682018060405250810190612047919061480f565b507f564112c0ad2fbcae1bed83c58ed5d830128565d634cdc875bb02b065ad2423438360405161134491906148e0565b6065546001600160a01b031633146120a15760405162461bcd60e51b8152600401610da990614b2f565b6001600160a01b0381166120c75760405162461bcd60e51b8152600401610da990614a3a565b60ce80546001600160a01b0319166001600160a01b0392909216919091179055565b600054610100900460ff166121045760005460ff1615612108565b303b155b61216b5760405162461bcd60e51b815260206004820152602e60248201527f496e697469616c697a61626c653a20636f6e747261637420697320616c72656160448201526d191e481a5b9a5d1a585b1a5e995960921b6064820152608401610da9565b600054610100900460ff1615801561218d576000805461ffff19166101011790555b6000855111801561219f575060008451115b6121e25760405162461bcd60e51b815260206004820152601460248201527320a222291013102120a620a721a29022a92927a960611b6044820152606401610da9565b6121ea613b56565b61222e604051806040016040528060078152602001663078426c6f636b60c81b81525060405180604001604052806003815260200162183c2160e91b815250613b85565b6122388787613bba565b60006001600160a01b03168560018151811061225657612256614d43565b60200260200101516001600160a01b0316141580156122a2575060006001600160a01b03168560028151811061228e5761228e614d43565b60200260200101516001600160a01b031614155b80156122db575060006001600160a01b0316856003815181106122c7576122c7614d43565b60200260200101516001600160a01b031614155b8015612314575060006001600160a01b03168560048151811061230057612300614d43565b60200260200101516001600160a01b031614155b6123525760405162461bcd60e51b815260206004820152600f60248201526e1413d3d30816915493c81193d55391608a1b6044820152606401610da9565b8460018151811061236557612365614d43565b602002602001015160ce60006101000a8154816001600160a01b0302191690836001600160a01b03160217905550846002815181106123a6576123a6614d43565b602002602001015160d160006101000a8154816001600160a01b0302191690836001600160a01b03160217905550846003815181106123e7576123e7614d43565b602002602001015160cf60006101000a8154816001600160a01b0302191690836001600160a01b031602179055508460048151811061242857612428614d43565b602002602001015160d060006101000a8154816001600160a01b0302191690836001600160a01b0316021790555060008360008151811061246b5761246b614d43565b602002602001015111801561249a575060008360018151811061249057612490614d43565b6020026020010151115b80156124c057506000836002815181106124b6576124b6614d43565b6020026020010151115b80156124e657506000836003815181106124dc576124dc614d43565b6020026020010151115b801561250c575060008360048151811061250257612502614d43565b6020026020010151115b6125485760405162461bcd60e51b815260206004820152600d60248201526c0c094811915154c81193d55391609a1b6044820152606401610da9565b8260008151811061255b5761255b614d43565b602002602001015160d7819055508260018151811061257c5761257c614d43565b602002602001015160d5819055508260028151811061259d5761259d614d43565b602002602001015160d481905550826003815181106125be576125be614d43565b602002602001015160d681905550826004815181106125df576125df614d43565b602002602001015160d9819055508260058151811061260057612600614d43565b602002602001015160da8190555060d55460d75460d65460d4546126249190614c3b565b61262e9190614c3b565b6126389190614c3b565b60d85583518551146126835760405162461bcd60e51b815260206004820152601460248201527320a222291013102120a620a721a29022a92927a960611b6044820152606401610da9565b60005b85518110156126f0576126de8682815181106126a4576126a4614d43565b60200260200101518683815181106126be576126be614d43565b6020026020010151670de0b6b3a76400006126d99190614c75565b613beb565b806126e881614d12565b915050612686565b5060355469d3c21bcecceda1000000146127445760405162461bcd60e51b81526020600482015260156024820152741515130814d5541413164811125191880c48135253605a1b6044820152606401610da9565b60db8054606460cb55600a60cc5561ffff196001600160a01b038516620100000281166001600160b01b0319909216919091176101001790915560dd80546101019216919091179055801561279f576000805461ff00191690555b50505050505050565b6065546001600160a01b031633146127d25760405162461bcd60e51b8152600401610da990614b2f565b6001600160a01b0381166127f85760405162461bcd60e51b8152600401610da990614a3a565b60d280546001600160a01b0319166001600160a01b0392909216919091179055565b60dd54339060ff16151560011461286c5760405162461bcd60e51b815260206004820152601660248201527510d4d2150e8810d85cda1bdd5d08111a5cd8589b195960521b6044820152606401610da9565b6001600160a01b0381166128b75760405162461bcd60e51b8152602060048201526012602482015271435348543a207a65726f206164647265737360701b6044820152606401610da9565b6001600160a01b038116600090815260dc602052604090205460ff16156129145760405162461bcd60e51b815260206004820152601160248201527010d4d2150e88189b1858dadb1a5cdd1959607a1b6044820152606401610da9565b60c9546040516329b8573160e21b81526000916001600160a01b03169063a6e15cc49061294790859087906004016148f4565b60206040518083038186803b15801561295f57600080fd5b505afa158015612973573d6000803e3d6000fd5b505050506040513d601f19601f82011682018060405250810190612997919061480f565b9050600081116129e25760405162461bcd60e51b8152602060048201526016602482015275435348543a20726577617264206e6f7420726561647960501b6044820152606401610da9565b60d95460009015612a3f57606460d954836129fd9190614c75565b612a079190614c53565b60d25460d0549192506001600160a01b03918216911614612a3f5760d05460d254612a3f916001600160a01b039081169116846134b2565b612a498183614c94565b60d054909250612a63906001600160a01b031684846134b2565b60c95460405163611015b360e11b81526001600160a01b039091169063c2202b6690612a9590869088906004016148f4565b602060405180830381600087803b158015612aaf57600080fd5b505af1158015612ac3573d6000803e3d6000fd5b505050506040513d601f19601f82011682018060405250810190612ae7919061480f565b507f39f6d68d140e552a327d43ef814649947d78e76743e169e4f00d61b14f2f846d8385604051612b199291906148f4565b60405180910390a150505050565b6065546001600160a01b03163314612b515760405162461bcd60e51b8152600401610da990614b2f565b6064811115612ba25760405162461bcd60e51b815260206004820152601c60248201527f464545533a20636173686f757420657863656564696e672031303025000000006044820152606401610da9565b60d955565b6001600160a01b031660009081526033602052604090205490565b6065546001600160a01b03163314612bec5760405162461bcd60e51b8152600401610da990614b2f565b612bf66000613cca565b565b6065546001600160a01b03163314612c225760405162461bcd60e51b8152600401610da990614b2f565b6001600160a01b038116612c485760405162461bcd60e51b8152600401610da990614a3a565b60cf80546001600160a01b0319166001600160a01b0392909216919091179055565b6065546001600160a01b03163314612c945760405162461bcd60e51b8152600401610da990614b2f565b60db80549115156101000261ff0019909216919091179055565b6000609b8281548110612cc357612cc3614d43565b6000918252602090912001546001600160a01b031692915050565b6065546001600160a01b03163314612d085760405162461bcd60e51b8152600401610da990614b2f565b6001600160a01b038116612d535760405162461bcd60e51b81526020600482015260126024820152712722abafa1a9269d103d32b9379030b2323960711b6044820152606401610da9565b60c980546001600160a01b0319166001600160a01b0392909216919091179055565b6065546001600160a01b03163314612d9f5760405162461bcd60e51b8152600401610da990614b2f565b60008160d55460d75460d454612db59190614c3b565b612dbf9190614c3b565b612dc99190614c3b565b90506064811115612dec5760405162461bcd60e51b8152600401610da990614b64565b60d69190915560d855565b6065546001600160a01b03163314612e215760405162461bcd60e51b8152600401610da990614b2f565b60dd80549115156101000261ff0019909216919091179055565b606060378054610ea690614cd7565b6065546001600160a01b03163314612e745760405162461bcd60e51b8152600401610da990614b2f565b60008160d75460d65460d454612e8a9190614c3b565b612e949190614c3b565b612e9e9190614c3b565b90506064811115612ec15760405162461bcd60e51b8152600401610da990614b64565b60d59190915560d855565b6040516370a0823160e01b81523390859084906001600160a01b038316906370a0823190612efe9086906004016148e0565b60206040518083038186803b158015612f1657600080fd5b505afa158015612f2a573d6000803e3d6000fd5b505050506040513d601f19601f82011682018060405250810190612f4e919061480f565b1015612f6c5760405162461bcd60e51b8152600401610da990614af8565b60ca546040516323b872dd60e01b81526001600160a01b03808416926323b872dd92612fa09287921690899060040161490d565b602060405180830381600087803b158015612fba57600080fd5b505af1158015612fce573d6000803e3d6000fd5b505050506040513d601f19601f82011682018060405250810190612ff291906147d9565b5060ca546001600160a01b03166374cefd8a838888886111368942614c3b565b6065546001600160a01b0316331461303c5760405162461bcd60e51b8152600401610da990614b2f565b60db805460ff1916911515919091179055565b3360008181526034602090815260408083206001600160a01b0387168452909152812054909190838110156130d45760405162461bcd60e51b815260206004820152602560248201527f45524332303a2064656372656173656420616c6c6f77616e63652062656c6f77604482015264207a65726f60d81b6064820152608401610da9565b6130e18286868403613550565b506001949350505050565b6000336112208185856134b2565b6065546001600160a01b031633146131245760405162461bcd60e51b8152600401610da990614b2f565b60db80546001600160a01b03909216620100000262010000600160b01b0319909216919091179055565b6065546001600160a01b031633146131785760405162461bcd60e51b8152600401610da990614b2f565b60dd805460ff1916911515919091179055565b6065546001600160a01b031633146131b55760405162461bcd60e51b8152600401610da990614b2f565b6001600160a01b0381166132045760405162461bcd60e51b81526020600482015260166024820152752722abafa62927aaaa22a91d103d32b9379030b2323960511b6044820152606401610da9565b60ca80546001600160a01b0319166001600160a01b0392909216919091179055565b6065546001600160a01b031633146132505760405162461bcd60e51b8152600401610da990614b2f565b6001600160a01b0381166132765760405162461bcd60e51b8152600401610da990614a3a565b60d080546001600160a01b0319166001600160a01b0392909216919091179055565b6001600160a01b03918216600090815260346020908152604080832093909416825291909152205490565b6065546001600160a01b031633146132ed5760405162461bcd60e51b8152600401610da990614b2f565b6001600160a01b0381166133135760405162461bcd60e51b8152600401610da990614a3a565b60d180546001600160a01b0319166001600160a01b0392909216919091179055565b338361334082612ba7565b101561335e5760405162461bcd60e51b8152600401610da990614af8565b60ca546133769082906001600160a01b0316866134b2565b60ca546001600160a01b03166388e5249f82878787610de98842614c3b565b6065546001600160a01b031633146133bf5760405162461bcd60e51b8152600401610da990614b2f565b6001600160a01b0381166134245760405162461bcd60e51b815260206004820152602660248201527f4f776e61626c653a206e6577206f776e657220697320746865207a65726f206160448201526564647265737360d01b6064820152608401610da9565b61342d81613cca565b50565b6065546001600160a01b0316331461345a5760405162461bcd60e51b8152600401610da990614b2f565b60008160d55460d65460d4546134709190614c3b565b61347a9190614c3b565b6134849190614c3b565b905060648111156134a75760405162461bcd60e51b8152600401610da990614b64565b60d79190915560d855565b6001600160a01b038316600090815260dc602052604090205460ff161580156134f457506001600160a01b038216600090815260dc602052604090205460ff16155b6135405760405162461bcd60e51b815260206004820152601a60248201527f45524332303a20426c61636b6c697374656420616464726573730000000000006044820152606401610da9565b61354b838383613932565b505050565b6001600160a01b0383166135b25760405162461bcd60e51b8152602060048201526024808201527f45524332303a20617070726f76652066726f6d20746865207a65726f206164646044820152637265737360e01b6064820152608401610da9565b6001600160a01b0382166136135760405162461bcd60e51b815260206004820152602260248201527f45524332303a20617070726f766520746f20746865207a65726f206164647265604482015261737360f01b6064820152608401610da9565b6001600160a01b0383811660008181526034602090815260408083209487168084529482529182902085905590518481527f8c5be1e5ebec7d5bd14f71427d1e84f3dd0314c0f7b2291e5b200ac8c7c3b925910160405180910390a3505050565b6097546001600160a01b0384166000908152609960205260408120549091839161369e9086614c75565b6136a89190614c53565b6136b29190614c94565b949350505050565b8047101561370a5760405162461bcd60e51b815260206004820152601d60248201527f416464726573733a20696e73756666696369656e742062616c616e63650000006044820152606401610da9565b6000826001600160a01b03168260405160006040518083038185875af1925050503d8060008114613757576040519150601f19603f3d011682016040523d82523d6000602084013e61375c565b606091505b505090508061354b5760405162461bcd60e51b815260206004820152603a60248201527f416464726573733a20756e61626c6520746f2073656e642076616c75652c207260448201527f6563697069656e74206d617920686176652072657665727465640000000000006064820152608401610da9565b60006137df8484613298565b90506000198114613847578181101561383a5760405162461bcd60e51b815260206004820152601d60248201527f45524332303a20696e73756666696369656e7420616c6c6f77616e63650000006044820152606401610da9565b6138478484848403613550565b50505050565b6001600160a01b03821630141561386e576138698685836134b2565b6138ed565b60ca546138869087906001600160a01b0316836134b2565b60ca54604051632da63c1160e21b81526001600160a01b039091169063b698f044906138ba9087908690869060040161490d565b600060405180830381600087803b1580156138d457600080fd5b505af11580156138e8573d6000803e3d6000fd5b505050505b7fae65b8cdcf70197aae9eec6cad9075662a0b1f140940b20a5d60413e1d05e8b88584848460405161392294939291906149fd565b60405180910390a1505050505050565b6001600160a01b0383166139965760405162461bcd60e51b815260206004820152602560248201527f45524332303a207472616e736665722066726f6d20746865207a65726f206164604482015264647265737360d81b6064820152608401610da9565b6001600160a01b0382166139f85760405162461bcd60e51b815260206004820152602360248201527f45524332303a207472616e7366657220746f20746865207a65726f206164647260448201526265737360e81b6064820152608401610da9565b6001600160a01b03831660009081526033602052604090205481811015613a705760405162461bcd60e51b815260206004820152602660248201527f45524332303a207472616e7366657220616d6f756e7420657863656564732062604482015265616c616e636560d01b6064820152608401610da9565b6001600160a01b03808516600090815260336020526040808220858503905591851681529081208054849290613aa7908490614c3b565b92505081905550826001600160a01b0316846001600160a01b03167fddf252ad1be2c89b69c2b068fc378daa952ba7f163c4a11628f55a4df523b3ef84604051613af391815260200190565b60405180910390a3613847565b61354b8363a9059cbb60e01b8484604051602401613b1f9291906148f4565b60408051601f198184030181529190526020810180516001600160e01b03166001600160e01b031990931692909217909152613d1c565b600054610100900460ff16613b7d5760405162461bcd60e51b8152600401610da990614b9b565b612bf6613dee565b600054610100900460ff16613bac5760405162461bcd60e51b8152600401610da990614b9b565b613bb68282613e1e565b5050565b600054610100900460ff16613be15760405162461bcd60e51b8152600401610da990614b9b565b613bb68282613e6c565b6001600160a01b038216613c415760405162461bcd60e51b815260206004820152601f60248201527f45524332303a206d696e7420746f20746865207a65726f2061646472657373006044820152606401610da9565b8060356000828254613c539190614c3b565b90915550506001600160a01b03821660009081526033602052604081208054839290613c80908490614c3b565b90915550506040518181526001600160a01b038316906000907fddf252ad1be2c89b69c2b068fc378daa952ba7f163c4a11628f55a4df523b3ef9060200160405180910390a35050565b606580546001600160a01b038381166001600160a01b0319831681179093556040519116919082907f8be0079c531659141344cd1fd0a4f28419497f9722a3daafe3b4186f6b6457e090600090a35050565b6000613d71826040518060400160405280602081526020017f5361666545524332303a206c6f772d6c6576656c2063616c6c206661696c6564815250856001600160a01b0316613faa9092919063ffffffff16565b80519091501561354b5780806020019051810190613d8f91906147d9565b61354b5760405162461bcd60e51b815260206004820152602a60248201527f5361666545524332303a204552433230206f7065726174696f6e20646964206e6044820152691bdd081cdd58d8d9595960b21b6064820152608401610da9565b600054610100900460ff16613e155760405162461bcd60e51b8152600401610da990614b9b565b612bf633613cca565b600054610100900460ff16613e455760405162461bcd60e51b8152600401610da990614b9b565b8151613e58906036906020850190614301565b50805161354b906037906020840190614301565b600054610100900460ff16613e935760405162461bcd60e51b8152600401610da990614b9b565b8051825114613eff5760405162461bcd60e51b815260206004820152603260248201527f5061796d656e7453706c69747465723a2070617965657320616e6420736861726044820152710cae640d8cadccee8d040dad2e6dac2e8c6d60731b6064820152608401610da9565b6000825111613f505760405162461bcd60e51b815260206004820152601a60248201527f5061796d656e7453706c69747465723a206e6f207061796565730000000000006044820152606401610da9565b60005b825181101561354b57613f98838281518110613f7157613f71614d43565b6020026020010151838381518110613f8b57613f8b614d43565b6020026020010151613fb9565b80613fa281614d12565b915050613f53565b60606136b28484600085614197565b6001600160a01b0382166140245760405162461bcd60e51b815260206004820152602c60248201527f5061796d656e7453706c69747465723a206163636f756e74206973207468652060448201526b7a65726f206164647265737360a01b6064820152608401610da9565b600081116140745760405162461bcd60e51b815260206004820152601d60248201527f5061796d656e7453706c69747465723a207368617265732061726520300000006044820152606401610da9565b6001600160a01b038216600090815260996020526040902054156140ee5760405162461bcd60e51b815260206004820152602b60248201527f5061796d656e7453706c69747465723a206163636f756e7420616c726561647960448201526a206861732073686172657360a81b6064820152608401610da9565b609b8054600181019091557fbba9db4cdbea0a37c207bbb83e20f828cd4441c49891101dc94fd20dc8efc3490180546001600160a01b0319166001600160a01b0384169081179091556000908152609960205260409020819055609754614156908290614c3b565b6097556040517f40c340f65e17194d14ddddb073d3c9f888e3cb52b5aae0c6c7706b4fbc905fac9061418b90849084906148f4565b60405180910390a15050565b6060824710156141f85760405162461bcd60e51b815260206004820152602660248201527f416464726573733a20696e73756666696369656e742062616c616e636520666f6044820152651c8818d85b1b60d21b6064820152608401610da9565b6001600160a01b0385163b61424f5760405162461bcd60e51b815260206004820152601d60248201527f416464726573733a2063616c6c20746f206e6f6e2d636f6e74726163740000006044820152606401610da9565b600080866001600160a01b0316858760405161426b91906148c4565b60006040518083038185875af1925050503d80600081146142a8576040519150601f19603f3d011682016040523d82523d6000602084013e6142ad565b606091505b50915091506142bd8282866142c8565b979650505050505050565b606083156142d7575081611370565b8251156142e75782518084602001fd5b8160405162461bcd60e51b8152600401610da991906149ea565b82805461430d90614cd7565b90600052602060002090601f01602090048101928261432f5760008555614375565b82601f1061434857805160ff1916838001178555614375565b82800160010185558215614375579182015b8281111561437557825182559160200191906001019061435a565b50614381929150614385565b5090565b5b808211156143815760008155600101614386565b80356143a581614d6f565b919050565b600082601f8301126143bb57600080fd5b813560206143d06143cb83614c17565b614be6565b80838252828201915082860187848660051b89010111156143f057600080fd5b60005b8581101561441857813561440681614d6f565b845292840192908401906001016143f3565b5090979650505050505050565b600082601f83011261443657600080fd5b813560206144466143cb83614c17565b80838252828201915082860187848660051b890101111561446657600080fd5b60005b8581101561441857813584529284019290840190600101614469565b8035600381106143a557600080fd5b6000602082840312156144a657600080fd5b813561137081614d6f565b600080604083850312156144c457600080fd5b82356144cf81614d6f565b915060208301356144df81614d6f565b809150509250929050565b6000806000606084860312156144ff57600080fd5b833561450a81614d6f565b9250602084013561451a81614d6f565b929592945050506040919091013590565b6000806040838503121561453e57600080fd5b823561454981614d6f565b915060208301356144df81614d84565b6000806040838503121561456c57600080fd5b823561457781614d6f565b946020939093013593505050565b6000806000806080858703121561459b57600080fd5b84356145a681614d6f565b966020860135965060408601359560600135945092505050565b60008060008060008060c087890312156145d957600080fd5b863567ffffffffffffffff808211156145f157600080fd5b6145fd8a838b016143aa565b9750602089013591508082111561461357600080fd5b61461f8a838b01614425565b9650604089013591508082111561463557600080fd5b6146418a838b016143aa565b9550606089013591508082111561465757600080fd5b6146638a838b01614425565b9450608089013591508082111561467957600080fd5b5061468689828a01614425565b92505061469560a0880161439a565b90509295509295509295565b60008060408084860312156146b557600080fd5b833567ffffffffffffffff808211156146cd57600080fd5b818601915086601f8301126146e157600080fd5b813560206146f16143cb83614c17565b8083825282820191508286018b848660051b890101111561471157600080fd5b60005b8581101561479c5781358781111561472b57600080fd5b8801603f81018e1361473c57600080fd5b858101358881111561475057614750614d59565b614762601f8201601f19168801614be6565b8181528f8c83850101111561477657600080fd5b818c84018983013760009181018801919091528552509284019290840190600101614714565b505080985050506147ae818901614485565b955050505050509250929050565b6000602082840312156147ce57600080fd5b813561137081614d84565b6000602082840312156147eb57600080fd5b815161137081614d84565b60006020828403121561480857600080fd5b5035919050565b60006020828403121561482157600080fd5b5051919050565b6000806040838503121561483b57600080fd5b50508035926020909101359150565b60008060006060848603121561485f57600080fd5b505081359360208301359350604090920135919050565b6003811061489457634e487b7160e01b600052602160045260246000fd5b9052565b600081518084526148b0816020860160208601614cab565b601f01601f19169290920160200192915050565b600082516148d6818460208701614cab565b9190910192915050565b6001600160a01b0391909116815260200190565b6001600160a01b03929092168252602082015260400190565b6001600160a01b039384168152919092166020820152604081019190915260600190565b6001600160a01b03958616815293909416602084015260408301919091526060820152608081019190915260a00190565b60006060820160018060a01b0386168352602060608185015281865180845260808601915060808160051b870101935082880160005b828110156149c657607f198887030184526149b4868351614898565b95509284019290840190600101614998565b5050505050809150506136b26040830184614876565b602081016112268284614876565b6020815260006113706020830184614898565b608081526000614a106080830187614898565b9050614a1f6020830186614876565b6001600160a01b039390931660408201526060015292915050565b6020808252601390820152722aa8222faba0a6261d103d32b9379030b2323960691b604082015260600190565b60208082526026908201527f5061796d656e7453706c69747465723a206163636f756e7420686173206e6f2060408201526573686172657360d01b606082015260800190565b6020808252602b908201527f5061796d656e7453706c69747465723a206163636f756e74206973206e6f742060408201526a191d59481c185e5b595b9d60aa1b606082015260800190565b6020808252601a908201527f535741503a20696e73756666696369656e742062616c616e6365000000000000604082015260600190565b6020808252818101527f4f776e61626c653a2063616c6c6572206973206e6f7420746865206f776e6572604082015260600190565b6020808252601a908201527f464545533a20746f74616c20657863656564696e672031303025000000000000604082015260600190565b6020808252602b908201527f496e697469616c697a61626c653a20636f6e7472616374206973206e6f74206960408201526a6e697469616c697a696e6760a81b606082015260800190565b604051601f8201601f1916810167ffffffffffffffff81118282101715614c0f57614c0f614d59565b604052919050565b600067ffffffffffffffff821115614c3157614c31614d59565b5060051b60200190565b60008219821115614c4e57614c4e614d2d565b500190565b600082614c7057634e487b7160e01b600052601260045260246000fd5b500490565b6000816000190483118215151615614c8f57614c8f614d2d565b500290565b600082821015614ca657614ca6614d2d565b500390565b60005b83811015614cc6578181015183820152602001614cae565b838111156138475750506000910152565b600181811c90821680614ceb57607f821691505b60208210811415614d0c57634e487b7160e01b600052602260045260246000fd5b50919050565b6000600019821415614d2657614d26614d2d565b5060010190565b634e487b7160e01b600052601160045260246000fd5b634e487b7160e01b600052603260045260246000fd5b634e487b7160e01b600052604160045260246000fd5b6001600160a01b038116811461342d57600080fd5b801515811461342d57600080fdfea164736f6c6343000807000a",
  "devdoc": {
    "kind": "dev",
    "methods": {
      "allowance(address,address)": {
        "details": "See {IERC20-allowance}."
      },
      "approve(address,uint256)": {
        "details": "See {IERC20-approve}. NOTE: If `amount` is the maximum `uint256`, the allowance is not updated on `transferFrom`. This is semantically equivalent to an infinite approval. Requirements: - `spender` cannot be the zero address."
      },
      "balanceOf(address)": {
        "details": "See {IERC20-balanceOf}."
      },
      "decimals()": {
        "details": "Returns the number of decimals used to get its user representation. For example, if `decimals` equals `2`, a balance of `505` tokens should be displayed to a user as `5.05` (`505 / 10 ** 2`). Tokens usually opt for a value of 18, imitating the relationship between Ether and Wei. This is the value {ERC20} uses, unless this function is overridden; NOTE: This information is only used for _display_ purposes: it in no way affects any of the arithmetic of the contract, including {IERC20-balanceOf} and {IERC20-transfer}."
      },
      "decreaseAllowance(address,uint256)": {
        "details": "Atomically decreases the allowance granted to `spender` by the caller. This is an alternative to {approve} that can be used as a mitigation for problems described in {IERC20-approve}. Emits an {Approval} event indicating the updated allowance. Requirements: - `spender` cannot be the zero address. - `spender` must have allowance for the caller of at least `subtractedValue`."
      },
      "increaseAllowance(address,uint256)": {
        "details": "Atomically increases the allowance granted to `spender` by the caller. This is an alternative to {approve} that can be used as a mitigation for problems described in {IERC20-approve}. Emits an {Approval} event indicating the updated allowance. Requirements: - `spender` cannot be the zero address."
      },
      "name()": {
        "details": "Returns the name of the token."
      },
      "owner()": {
        "details": "Returns the address of the current owner."
      },
      "payee(uint256)": {
        "details": "Getter for the address of the payee number `index`."
      },
      "release(address)": {
        "details": "Triggers a transfer to `account` of the amount of Ether they are owed, according to their percentage of the total shares and their previous withdrawals."
      },
      "release(address,address)": {
        "details": "Triggers a transfer to `account` of the amount of `token` tokens they are owed, according to their percentage of the total shares and their previous withdrawals. `token` must be the address of an IERC20 contract."
      },
      "released(address)": {
        "details": "Getter for the amount of Ether already released to a payee."
      },
      "released(address,address)": {
        "details": "Getter for the amount of `token` tokens already released to a payee. `token` should be the address of an IERC20 contract."
      },
      "renounceOwnership()": {
        "details": "Leaves the contract without owner. It will not be possible to call `onlyOwner` functions anymore. Can only be called by the current owner. NOTE: Renouncing ownership will leave the contract without an owner, thereby removing any functionality that is only available to the owner."
      },
      "shares(address)": {
        "details": "Getter for the amount of shares held by an account."
      },
      "symbol()": {
        "details": "Returns the symbol of the token, usually a shorter version of the name."
      },
      "totalReleased()": {
        "details": "Getter for the total amount of Ether already released."
      },
      "totalReleased(address)": {
        "details": "Getter for the total amount of `token` already released. `token` should be the address of an IERC20 contract."
      },
      "totalShares()": {
        "details": "Getter for the total shares held by payees."
      },
      "totalSupply()": {
        "details": "See {IERC20-totalSupply}."
      },
      "transfer(address,uint256)": {
        "details": "See {IERC20-transfer}. Requirements: - `to` cannot be the zero address. - the caller must have a balance of at least `amount`."
      },
      "transferFrom(address,address,uint256)": {
        "details": "See {IERC20-transferFrom}. Emits an {Approval} event indicating the updated allowance. This is not required by the EIP. See the note at the beginning of {ERC20}. NOTE: Does not update the allowance if the current allowance is the maximum `uint256`. Requirements: - `from` and `to` cannot be the zero address. - `from` must have a balance of at least `amount`. - the caller must have allowance for ``from``'s tokens of at least `amount`."
      },
      "transferOwnership(address)": {
        "details": "Transfers ownership of the contract to a new account (`newOwner`). Can only be called by the current owner."
      }
    },
    "version": 1
  },
  "userdoc": {
    "kind": "user",
    "methods": {},
    "version": 1
  },
  "storageLayout": {
    "storage": [
      {
        "astId": 598,
        "contract": "contracts/ZeroXBlock.sol:ZeroXBlock",
        "label": "_initialized",
        "offset": 0,
        "slot": "0",
        "type": "t_bool"
      },
      {
        "astId": 601,
        "contract": "contracts/ZeroXBlock.sol:ZeroXBlock",
        "label": "_initializing",
        "offset": 1,
        "slot": "0",
        "type": "t_bool"
      },
      {
        "astId": 1889,
        "contract": "contracts/ZeroXBlock.sol:ZeroXBlock",
        "label": "__gap",
        "offset": 0,
        "slot": "1",
        "type": "t_array(t_uint256)50_storage"
      },
      {
        "astId": 684,
        "contract": "contracts/ZeroXBlock.sol:ZeroXBlock",
        "label": "_balances",
        "offset": 0,
        "slot": "51",
        "type": "t_mapping(t_address,t_uint256)"
      },
      {
        "astId": 690,
        "contract": "contracts/ZeroXBlock.sol:ZeroXBlock",
        "label": "_allowances",
        "offset": 0,
        "slot": "52",
        "type": "t_mapping(t_address,t_mapping(t_address,t_uint256))"
      },
      {
        "astId": 692,
        "contract": "contracts/ZeroXBlock.sol:ZeroXBlock",
        "label": "_totalSupply",
        "offset": 0,
        "slot": "53",
        "type": "t_uint256"
      },
      {
        "astId": 694,
        "contract": "contracts/ZeroXBlock.sol:ZeroXBlock",
        "label": "_name",
        "offset": 0,
        "slot": "54",
        "type": "t_string_storage"
      },
      {
        "astId": 696,
        "contract": "contracts/ZeroXBlock.sol:ZeroXBlock",
        "label": "_symbol",
        "offset": 0,
        "slot": "55",
        "type": "t_string_storage"
      },
      {
        "astId": 1277,
        "contract": "contracts/ZeroXBlock.sol:ZeroXBlock",
        "label": "__gap",
        "offset": 0,
        "slot": "56",
        "type": "t_array(t_uint256)45_storage"
      },
      {
        "astId": 10,
        "contract": "contracts/ZeroXBlock.sol:ZeroXBlock",
        "label": "_owner",
        "offset": 0,
        "slot": "101",
        "type": "t_address"
      },
      {
        "astId": 122,
        "contract": "contracts/ZeroXBlock.sol:ZeroXBlock",
        "label": "__gap",
        "offset": 0,
        "slot": "102",
        "type": "t_array(t_uint256)49_storage"
      },
      {
        "astId": 163,
        "contract": "contracts/ZeroXBlock.sol:ZeroXBlock",
        "label": "_totalShares",
        "offset": 0,
        "slot": "151",
        "type": "t_uint256"
      },
      {
        "astId": 165,
        "contract": "contracts/ZeroXBlock.sol:ZeroXBlock",
        "label": "_totalReleased",
        "offset": 0,
        "slot": "152",
        "type": "t_uint256"
      },
      {
        "astId": 169,
        "contract": "contracts/ZeroXBlock.sol:ZeroXBlock",
        "label": "_shares",
        "offset": 0,
        "slot": "153",
        "type": "t_mapping(t_address,t_uint256)"
      },
      {
        "astId": 173,
        "contract": "contracts/ZeroXBlock.sol:ZeroXBlock",
        "label": "_released",
        "offset": 0,
        "slot": "154",
        "type": "t_mapping(t_address,t_uint256)"
      },
      {
        "astId": 176,
        "contract": "contracts/ZeroXBlock.sol:ZeroXBlock",
        "label": "_payees",
        "offset": 0,
        "slot": "155",
        "type": "t_array(t_address)dyn_storage"
      },
      {
        "astId": 181,
        "contract": "contracts/ZeroXBlock.sol:ZeroXBlock",
        "label": "_erc20TotalReleased",
        "offset": 0,
        "slot": "156",
        "type": "t_mapping(t_contract(IERC20Upgradeable)1356,t_uint256)"
      },
      {
        "astId": 188,
        "contract": "contracts/ZeroXBlock.sol:ZeroXBlock",
        "label": "_erc20Released",
        "offset": 0,
        "slot": "157",
        "type": "t_mapping(t_contract(IERC20Upgradeable)1356,t_mapping(t_address,t_uint256))"
      },
      {
        "astId": 590,
        "contract": "contracts/ZeroXBlock.sol:ZeroXBlock",
        "label": "__gap",
        "offset": 0,
        "slot": "158",
        "type": "t_array(t_uint256)43_storage"
      },
      {
        "astId": 2584,
        "contract": "contracts/ZeroXBlock.sol:ZeroXBlock",
        "label": "_crm",
        "offset": 0,
        "slot": "201",
        "type": "t_contract(CONTRewardManagement)6203"
      },
      {
        "astId": 2587,
        "contract": "contracts/ZeroXBlock.sol:ZeroXBlock",
        "label": "_liqRouter",
        "offset": 0,
        "slot": "202",
        "type": "t_contract(LiquidityRouter)7533"
      },
      {
        "astId": 2592,
        "contract": "contracts/ZeroXBlock.sol:ZeroXBlock",
        "label": "ownedContsLimit",
        "offset": 0,
        "slot": "203",
        "type": "t_uint256"
      },
      {
        "astId": 2594,
        "contract": "contracts/ZeroXBlock.sol:ZeroXBlock",
        "label": "mintContLimit",
        "offset": 0,
        "slot": "204",
        "type": "t_uint256"
      },
      {
        "astId": 2596,
        "contract": "contracts/ZeroXBlock.sol:ZeroXBlock",
        "label": "totalTokensPaidForMinting",
        "offset": 0,
        "slot": "205",
        "type": "t_uint256"
      },
      {
        "astId": 2598,
        "contract": "contracts/ZeroXBlock.sol:ZeroXBlock",
        "label": "developmentFundPool",
        "offset": 0,
        "slot": "206",
        "type": "t_address"
      },
      {
        "astId": 2600,
        "contract": "contracts/ZeroXBlock.sol:ZeroXBlock",
        "label": "treasuryPool",
        "offset": 0,
        "slot": "207",
        "type": "t_address"
      },
      {
        "astId": 2602,
        "contract": "contracts/ZeroXBlock.sol:ZeroXBlock",
        "label": "rewardsPool",
        "offset": 0,
        "slot": "208",
        "type": "t_address"
      },
      {
        "astId": 2604,
        "contract": "contracts/ZeroXBlock.sol:ZeroXBlock",
        "label": "liquidityPool",
        "offset": 0,
        "slot": "209",
        "type": "t_address"
      },
      {
        "astId": 2606,
        "contract": "contracts/ZeroXBlock.sol:ZeroXBlock",
        "label": "cashoutTaxPool",
        "offset": 0,
        "slot": "210",
        "type": "t_address"
      },
      {
        "astId": 2608,
        "contract": "contracts/ZeroXBlock.sol:ZeroXBlock",
        "label": "swapTaxPool",
        "offset": 0,
        "slot": "211",
        "type": "t_address"
      },
      {
        "astId": 2610,
        "contract": "contracts/ZeroXBlock.sol:ZeroXBlock",
        "label": "rewardsFee",
        "offset": 0,
        "slot": "212",
        "type": "t_uint256"
      },
      {
        "astId": 2612,
        "contract": "contracts/ZeroXBlock.sol:ZeroXBlock",
        "label": "treasuryFee",
        "offset": 0,
        "slot": "213",
        "type": "t_uint256"
      },
      {
        "astId": 2614,
        "contract": "contracts/ZeroXBlock.sol:ZeroXBlock",
        "label": "liquidityPoolFee",
        "offset": 0,
        "slot": "214",
        "type": "t_uint256"
      },
      {
        "astId": 2616,
        "contract": "contracts/ZeroXBlock.sol:ZeroXBlock",
        "label": "developmentFee",
        "offset": 0,
        "slot": "215",
        "type": "t_uint256"
      },
      {
        "astId": 2618,
        "contract": "contracts/ZeroXBlock.sol:ZeroXBlock",
        "label": "totalFees",
        "offset": 0,
        "slot": "216",
        "type": "t_uint256"
      },
      {
        "astId": 2620,
        "contract": "contracts/ZeroXBlock.sol:ZeroXBlock",
        "label": "cashoutFee",
        "offset": 0,
        "slot": "217",
        "type": "t_uint256"
      },
      {
        "astId": 2622,
        "contract": "contracts/ZeroXBlock.sol:ZeroXBlock",
        "label": "swapFee",
        "offset": 0,
        "slot": "218",
        "type": "t_uint256"
      },
      {
        "astId": 2624,
        "contract": "contracts/ZeroXBlock.sol:ZeroXBlock",
        "label": "enableAutoSwapTreasury",
        "offset": 0,
        "slot": "219",
        "type": "t_bool"
      },
      {
        "astId": 2626,
        "contract": "contracts/ZeroXBlock.sol:ZeroXBlock",
        "label": "enableAutoSwapDevFund",
        "offset": 1,
        "slot": "219",
        "type": "t_bool"
      },
      {
        "astId": 2628,
        "contract": "contracts/ZeroXBlock.sol:ZeroXBlock",
        "label": "usdcToken",
        "offset": 2,
        "slot": "219",
        "type": "t_address"
      },
      {
        "astId": 2632,
        "contract": "contracts/ZeroXBlock.sol:ZeroXBlock",
        "label": "_isBlacklisted",
        "offset": 0,
        "slot": "220",
        "type": "t_mapping(t_address,t_bool)"
      },
      {
        "astId": 2634,
        "contract": "contracts/ZeroXBlock.sol:ZeroXBlock",
        "label": "enableCashout",
        "offset": 0,
        "slot": "221",
        "type": "t_bool"
      },
      {
        "astId": 2636,
        "contract": "contracts/ZeroXBlock.sol:ZeroXBlock",
        "label": "enableMintConts",
        "offset": 1,
        "slot": "221",
        "type": "t_bool"
      }
    ],
    "types": {
      "t_address": {
        "encoding": "inplace",
        "label": "address",
        "numberOfBytes": "20"
      },
      "t_array(t_address)dyn_storage": {
        "base": "t_address",
        "encoding": "dynamic_array",
        "label": "address[]",
        "numberOfBytes": "32"
      },
      "t_array(t_uint256)43_storage": {
        "base": "t_uint256",
        "encoding": "inplace",
        "label": "uint256[43]",
        "numberOfBytes": "1376"
      },
      "t_array(t_uint256)45_storage": {
        "base": "t_uint256",
        "encoding": "inplace",
        "label": "uint256[45]",
        "numberOfBytes": "1440"
      },
      "t_array(t_uint256)49_storage": {
        "base": "t_uint256",
        "encoding": "inplace",
        "label": "uint256[49]",
        "numberOfBytes": "1568"
      },
      "t_array(t_uint256)50_storage": {
        "base": "t_uint256",
        "encoding": "inplace",
        "label": "uint256[50]",
        "numberOfBytes": "1600"
      },
      "t_bool": {
        "encoding": "inplace",
        "label": "bool",
        "numberOfBytes": "1"
      },
      "t_contract(CONTRewardManagement)6203": {
        "encoding": "inplace",
        "label": "contract CONTRewardManagement",
        "numberOfBytes": "20"
      },
      "t_contract(IERC20Upgradeable)1356": {
        "encoding": "inplace",
        "label": "contract IERC20Upgradeable",
        "numberOfBytes": "20"
      },
      "t_contract(LiquidityRouter)7533": {
        "encoding": "inplace",
        "label": "contract LiquidityRouter",
        "numberOfBytes": "20"
      },
      "t_mapping(t_address,t_bool)": {
        "encoding": "mapping",
        "key": "t_address",
        "label": "mapping(address => bool)",
        "numberOfBytes": "32",
        "value": "t_bool"
      },
      "t_mapping(t_address,t_mapping(t_address,t_uint256))": {
        "encoding": "mapping",
        "key": "t_address",
        "label": "mapping(address => mapping(address => uint256))",
        "numberOfBytes": "32",
        "value": "t_mapping(t_address,t_uint256)"
      },
      "t_mapping(t_address,t_uint256)": {
        "encoding": "mapping",
        "key": "t_address",
        "label": "mapping(address => uint256)",
        "numberOfBytes": "32",
        "value": "t_uint256"
      },
      "t_mapping(t_contract(IERC20Upgradeable)1356,t_mapping(t_address,t_uint256))": {
        "encoding": "mapping",
        "key": "t_contract(IERC20Upgradeable)1356",
        "label": "mapping(contract IERC20Upgradeable => mapping(address => uint256))",
        "numberOfBytes": "32",
        "value": "t_mapping(t_address,t_uint256)"
      },
      "t_mapping(t_contract(IERC20Upgradeable)1356,t_uint256)": {
        "encoding": "mapping",
        "key": "t_contract(IERC20Upgradeable)1356",
        "label": "mapping(contract IERC20Upgradeable => uint256)",
        "numberOfBytes": "32",
        "value": "t_uint256"
      },
      "t_string_storage": {
        "encoding": "bytes",
        "label": "string",
        "numberOfBytes": "32"
      },
      "t_uint256": {
        "encoding": "inplace",
        "label": "uint256",
        "numberOfBytes": "32"
      }
    }
  }
}