{
  "address": "0x776AbB09C8329edE390f2ffd53c11D12f4122548",
  "abi": [
    {
      "anonymous": false,
      "inputs": [
        {
          "indexed": true,
          "internalType": "address",
          "name": "owner",
          "type": "address"
        },
        {
          "indexed": true,
          "internalType": "address",
          "name": "spender",
          "type": "address"
        },
        {
          "indexed": false,
          "internalType": "uint256",
          "name": "value",
          "type": "uint256"
        }
      ],
      "name": "Approval",
      "type": "event"
    },
    {
      "anonymous": false,
      "inputs": [
        {
          "indexed": false,
          "internalType": "address",
          "name": "sender",
          "type": "address"
        },
        {
          "indexed": false,
          "internalType": "enum ContType",
          "name": "cType",
          "type": "uint8"
        },
        {
          "indexed": false,
          "internalType": "uint256",
          "name": "contsCount",
          "type": "uint256"
        }
      ],
      "name": "ContsMinted",
      "type": "event"
    },
    {
      "anonymous": false,
      "inputs": [
        {
          "indexed": true,
          "internalType": "contract IERC20Upgradeable",
          "name": "token",
          "type": "address"
        },
        {
          "indexed": false,
          "internalType": "address",
          "name": "to",
          "type": "address"
        },
        {
          "indexed": false,
          "internalType": "uint256",
          "name": "amount",
          "type": "uint256"
        }
      ],
      "name": "ERC20PaymentReleased",
      "type": "event"
    },
    {
      "anonymous": false,
      "inputs": [
        {
          "indexed": false,
          "internalType": "string",
          "name": "walletName",
          "type": "string"
        },
        {
          "indexed": false,
          "internalType": "enum ContType",
          "name": "cType",
          "type": "uint8"
        },
        {
          "indexed": false,
          "internalType": "address",
          "name": "token",
          "type": "address"
        },
        {
          "indexed": false,
          "internalType": "uint256",
          "name": "amount",
          "type": "uint256"
        }
      ],
      "name": "Funded",
      "type": "event"
    },
    {
      "anonymous": false,
      "inputs": [
        {
          "indexed": true,
          "internalType": "address",
          "name": "previousOwner",
          "type": "address"
        },
        {
          "indexed": true,
          "internalType": "address",
          "name": "newOwner",
          "type": "address"
        }
      ],
      "name": "OwnershipTransferred",
      "type": "event"
    },
    {
      "anonymous": false,
      "inputs": [
        {
          "indexed": false,
          "internalType": "address",
          "name": "account",
          "type": "address"
        },
        {
          "indexed": false,
          "internalType": "uint256",
          "name": "shares",
          "type": "uint256"
        }
      ],
      "name": "PayeeAdded",
      "type": "event"
    },
    {
      "anonymous": false,
      "inputs": [
        {
          "indexed": false,
          "internalType": "address",
          "name": "from",
          "type": "address"
        },
        {
          "indexed": false,
          "internalType": "uint256",
          "name": "amount",
          "type": "uint256"
        }
      ],
      "name": "PaymentReceived",
      "type": "event"
    },
    {
      "anonymous": false,
      "inputs": [
        {
          "indexed": false,
          "internalType": "address",
          "name": "to",
          "type": "address"
        },
        {
          "indexed": false,
          "internalType": "uint256",
          "name": "amount",
          "type": "uint256"
        }
      ],
      "name": "PaymentReleased",
      "type": "event"
    },
    {
      "anonymous": false,
      "inputs": [
        {
          "indexed": false,
          "internalType": "address",
          "name": "sender",
          "type": "address"
        },
        {
          "indexed": false,
          "internalType": "uint256",
          "name": "amount",
          "type": "uint256"
        },
        {
          "indexed": false,
          "internalType": "uint256",
          "name": "squareAmount",
          "type": "uint256"
        },
        {
          "indexed": false,
          "internalType": "uint256",
          "name": "cubeAmount",
          "type": "uint256"
        },
        {
          "indexed": false,
          "internalType": "uint256",
          "name": "tessAmount",
          "type": "uint256"
        }
      ],
      "name": "RewardCashoutAll",
      "type": "event"
    },
    {
      "anonymous": false,
      "inputs": [
        {
          "indexed": false,
          "internalType": "address",
          "name": "sender",
          "type": "address"
        },
        {
          "indexed": false,
          "internalType": "uint256",
          "name": "index",
          "type": "uint256"
        },
        {
          "indexed": false,
          "internalType": "uint256",
          "name": "amount",
          "type": "uint256"
        },
        {
          "indexed": false,
          "internalType": "enum ContType",
          "name": "cType",
          "type": "uint8"
        }
      ],
      "name": "RewardCashoutOne",
      "type": "event"
    },
    {
      "anonymous": false,
      "inputs": [
        {
          "indexed": true,
          "internalType": "address",
          "name": "from",
          "type": "address"
        },
        {
          "indexed": true,
          "internalType": "address",
          "name": "to",
          "type": "address"
        },
        {
          "indexed": false,
          "internalType": "uint256",
          "name": "value",
          "type": "uint256"
        }
      ],
      "name": "Transfer",
      "type": "event"
    },
    {
      "inputs": [],
      "name": "_crm",
      "outputs": [
        {
          "internalType": "contract CONTRewardManagement",
          "name": "",
          "type": "address"
        }
      ],
      "stateMutability": "view",
      "type": "function"
    },
    {
      "inputs": [
        {
          "internalType": "address",
          "name": "",
          "type": "address"
        }
      ],
      "name": "_isBlacklisted",
      "outputs": [
        {
          "internalType": "bool",
          "name": "",
          "type": "bool"
        }
      ],
      "stateMutability": "view",
      "type": "function"
    },
    {
      "inputs": [
        {
          "internalType": "address",
          "name": "",
          "type": "address"
        }
      ],
      "name": "_lastBuyOnLaunch",
      "outputs": [
        {
          "internalType": "uint256",
          "name": "",
          "type": "uint256"
        }
      ],
      "stateMutability": "view",
      "type": "function"
    },
    {
      "inputs": [],
      "name": "_liqRouter",
      "outputs": [
        {
          "internalType": "contract LiquidityRouter",
          "name": "",
          "type": "address"
        }
      ],
      "stateMutability": "view",
      "type": "function"
    },
    {
      "inputs": [
        {
          "internalType": "address",
          "name": "addr",
          "type": "address"
        }
      ],
      "name": "_walletName",
      "outputs": [
        {
          "internalType": "string",
          "name": "",
          "type": "string"
        }
      ],
      "stateMutability": "view",
      "type": "function"
    },
    {
      "inputs": [
        {
          "internalType": "address",
          "name": "owner",
          "type": "address"
        },
        {
          "internalType": "address",
          "name": "spender",
          "type": "address"
        }
      ],
      "name": "allowance",
      "outputs": [
        {
          "internalType": "uint256",
          "name": "",
          "type": "uint256"
        }
      ],
      "stateMutability": "view",
      "type": "function"
    },
    {
      "inputs": [],
      "name": "antiBotEnabled",
      "outputs": [
        {
          "internalType": "bool",
          "name": "",
          "type": "bool"
        }
      ],
      "stateMutability": "view",
      "type": "function"
    },
    {
      "inputs": [
        {
          "internalType": "address",
          "name": "spender",
          "type": "address"
        },
        {
          "internalType": "uint256",
          "name": "amount",
          "type": "uint256"
        }
      ],
      "name": "approve",
      "outputs": [
        {
          "internalType": "bool",
          "name": "",
          "type": "bool"
        }
      ],
      "stateMutability": "nonpayable",
      "type": "function"
    },
    {
      "inputs": [
        {
          "internalType": "address",
          "name": "",
          "type": "address"
        }
      ],
      "name": "automatedMarketMakerPairs",
      "outputs": [
        {
          "internalType": "bool",
          "name": "",
          "type": "bool"
        }
      ],
      "stateMutability": "view",
      "type": "function"
    },
    {
      "inputs": [
        {
          "internalType": "address",
          "name": "account",
          "type": "address"
        }
      ],
      "name": "balanceOf",
      "outputs": [
        {
          "internalType": "uint256",
          "name": "",
          "type": "uint256"
        }
      ],
      "stateMutability": "view",
      "type": "function"
    },
    {
      "inputs": [],
      "name": "cashoutAll",
      "outputs": [],
      "stateMutability": "nonpayable",
      "type": "function"
    },
    {
      "inputs": [],
      "name": "cashoutFee",
      "outputs": [
        {
          "internalType": "uint256",
          "name": "",
          "type": "uint256"
        }
      ],
      "stateMutability": "view",
      "type": "function"
    },
    {
      "inputs": [
        {
          "internalType": "uint256",
          "name": "_contIndex",
          "type": "uint256"
        }
      ],
      "name": "cashoutReward",
      "outputs": [],
      "stateMutability": "nonpayable",
      "type": "function"
    },
    {
      "inputs": [],
      "name": "cashoutTaxPool",
      "outputs": [
        {
          "internalType": "address",
          "name": "",
          "type": "address"
        }
      ],
      "stateMutability": "view",
      "type": "function"
    },
    {
      "inputs": [
        {
          "internalType": "bool",
          "name": "newVal",
          "type": "bool"
        }
      ],
      "name": "changeEnableAutoSwapCashout",
      "outputs": [],
      "stateMutability": "nonpayable",
      "type": "function"
    },
    {
      "inputs": [
        {
          "internalType": "bool",
          "name": "newVal",
          "type": "bool"
        }
      ],
      "name": "changeEnableAutoSwapDevFund",
      "outputs": [],
      "stateMutability": "nonpayable",
      "type": "function"
    },
    {
      "inputs": [
        {
          "internalType": "bool",
          "name": "newVal",
          "type": "bool"
        }
      ],
      "name": "changeEnableAutoSwapTreasury",
      "outputs": [],
      "stateMutability": "nonpayable",
      "type": "function"
    },
    {
      "inputs": [],
      "name": "decimals",
      "outputs": [
        {
          "internalType": "uint8",
          "name": "",
          "type": "uint8"
        }
      ],
      "stateMutability": "view",
      "type": "function"
    },
    {
      "inputs": [
        {
          "internalType": "address",
          "name": "spender",
          "type": "address"
        },
        {
          "internalType": "uint256",
          "name": "subtractedValue",
          "type": "uint256"
        }
      ],
      "name": "decreaseAllowance",
      "outputs": [
        {
          "internalType": "bool",
          "name": "",
          "type": "bool"
        }
      ],
      "stateMutability": "nonpayable",
      "type": "function"
    },
    {
      "inputs": [],
      "name": "developmentFee",
      "outputs": [
        {
          "internalType": "uint256",
          "name": "",
          "type": "uint256"
        }
      ],
      "stateMutability": "view",
      "type": "function"
    },
    {
      "inputs": [],
      "name": "developmentFundPool",
      "outputs": [
        {
          "internalType": "address",
          "name": "",
          "type": "address"
        }
      ],
      "stateMutability": "view",
      "type": "function"
    },
    {
      "inputs": [],
      "name": "enableAutoSwapCashout",
      "outputs": [
        {
          "internalType": "bool",
          "name": "",
          "type": "bool"
        }
      ],
      "stateMutability": "view",
      "type": "function"
    },
    {
      "inputs": [],
      "name": "enableAutoSwapDevFund",
      "outputs": [
        {
          "internalType": "bool",
          "name": "",
          "type": "bool"
        }
      ],
      "stateMutability": "view",
      "type": "function"
    },
    {
      "inputs": [],
      "name": "enableAutoSwapTreasury",
      "outputs": [
        {
          "internalType": "bool",
          "name": "",
          "type": "bool"
        }
      ],
      "stateMutability": "view",
      "type": "function"
    },
    {
      "inputs": [],
      "name": "enableCashout",
      "outputs": [
        {
          "internalType": "bool",
          "name": "",
          "type": "bool"
        }
      ],
      "stateMutability": "view",
      "type": "function"
    },
    {
      "inputs": [],
      "name": "enableMintConts",
      "outputs": [
        {
          "internalType": "bool",
          "name": "",
          "type": "bool"
        }
      ],
      "stateMutability": "view",
      "type": "function"
    },
    {
      "inputs": [
        {
          "internalType": "address",
          "name": "spender",
          "type": "address"
        },
        {
          "internalType": "uint256",
          "name": "addedValue",
          "type": "uint256"
        }
      ],
      "name": "increaseAllowance",
      "outputs": [
        {
          "internalType": "bool",
          "name": "",
          "type": "bool"
        }
      ],
      "stateMutability": "nonpayable",
      "type": "function"
    },
    {
      "inputs": [
        {
          "internalType": "address[]",
          "name": "payees",
          "type": "address[]"
        },
        {
          "internalType": "uint256[]",
          "name": "shares",
          "type": "uint256[]"
        },
        {
          "internalType": "address[]",
          "name": "addresses",
          "type": "address[]"
        },
        {
          "internalType": "uint256[]",
          "name": "balances",
          "type": "uint256[]"
        },
        {
          "internalType": "uint256[]",
          "name": "fees",
          "type": "uint256[]"
        },
        {
          "internalType": "address",
          "name": "usdcAddr",
          "type": "address"
        }
      ],
      "name": "initialize",
      "outputs": [],
      "stateMutability": "nonpayable",
      "type": "function"
    },
    {
      "inputs": [],
      "name": "launchBuyLimit",
      "outputs": [
        {
          "internalType": "uint256",
          "name": "",
          "type": "uint256"
        }
      ],
      "stateMutability": "view",
      "type": "function"
    },
    {
      "inputs": [],
      "name": "launchBuyTimeout",
      "outputs": [
        {
          "internalType": "uint256",
          "name": "",
          "type": "uint256"
        }
      ],
      "stateMutability": "view",
      "type": "function"
    },
    {
      "inputs": [],
      "name": "liquidityPool",
      "outputs": [
        {
          "internalType": "address",
          "name": "",
          "type": "address"
        }
      ],
      "stateMutability": "view",
      "type": "function"
    },
    {
      "inputs": [],
      "name": "liquidityPoolFee",
      "outputs": [
        {
          "internalType": "uint256",
          "name": "",
          "type": "uint256"
        }
      ],
      "stateMutability": "view",
      "type": "function"
    },
    {
      "inputs": [
        {
          "internalType": "string[]",
          "name": "names",
          "type": "string[]"
        },
        {
          "internalType": "enum ContType",
          "name": "_cType",
          "type": "uint8"
        }
      ],
      "name": "mintConts",
      "outputs": [],
      "stateMutability": "nonpayable",
      "type": "function"
    },
    {
      "inputs": [],
      "name": "name",
      "outputs": [
        {
          "internalType": "string",
          "name": "",
          "type": "string"
        }
      ],
      "stateMutability": "view",
      "type": "function"
    },
    {
      "inputs": [],
      "name": "ownedContsLimit",
      "outputs": [
        {
          "internalType": "uint256",
          "name": "",
          "type": "uint256"
        }
      ],
      "stateMutability": "view",
      "type": "function"
    },
    {
      "inputs": [],
      "name": "owner",
      "outputs": [
        {
          "internalType": "address",
          "name": "",
          "type": "address"
        }
      ],
      "stateMutability": "view",
      "type": "function"
    },
    {
      "inputs": [
        {
          "internalType": "uint256",
          "name": "index",
          "type": "uint256"
        }
      ],
      "name": "payee",
      "outputs": [
        {
          "internalType": "address",
          "name": "",
          "type": "address"
        }
      ],
      "stateMutability": "view",
      "type": "function"
    },
    {
      "inputs": [
        {
          "internalType": "address payable",
          "name": "account",
          "type": "address"
        }
      ],
      "name": "release",
      "outputs": [],
      "stateMutability": "nonpayable",
      "type": "function"
    },
    {
      "inputs": [
        {
          "internalType": "contract IERC20Upgradeable",
          "name": "token",
          "type": "address"
        },
        {
          "internalType": "address",
          "name": "account",
          "type": "address"
        }
      ],
      "name": "release",
      "outputs": [],
      "stateMutability": "nonpayable",
      "type": "function"
    },
    {
      "inputs": [
        {
          "internalType": "contract IERC20Upgradeable",
          "name": "token",
          "type": "address"
        },
        {
          "internalType": "address",
          "name": "account",
          "type": "address"
        }
      ],
      "name": "released",
      "outputs": [
        {
          "internalType": "uint256",
          "name": "",
          "type": "uint256"
        }
      ],
      "stateMutability": "view",
      "type": "function"
    },
    {
      "inputs": [
        {
          "internalType": "address",
          "name": "account",
          "type": "address"
        }
      ],
      "name": "released",
      "outputs": [
        {
          "internalType": "uint256",
          "name": "",
          "type": "uint256"
        }
      ],
      "stateMutability": "view",
      "type": "function"
    },
    {
      "inputs": [],
      "name": "renounceOwnership",
      "outputs": [],
      "stateMutability": "nonpayable",
      "type": "function"
    },
    {
      "inputs": [
        {
          "internalType": "address",
          "name": "userAddr",
          "type": "address"
        },
        {
          "internalType": "uint256",
          "name": "tokens",
          "type": "uint256"
        }
      ],
      "name": "rescueMissentToken",
      "outputs": [],
      "stateMutability": "nonpayable",
      "type": "function"
    },
    {
      "inputs": [],
      "name": "rewardsFee",
      "outputs": [
        {
          "internalType": "uint256",
          "name": "",
          "type": "uint256"
        }
      ],
      "stateMutability": "view",
      "type": "function"
    },
    {
      "inputs": [],
      "name": "rewardsPool",
      "outputs": [
        {
          "internalType": "address",
          "name": "",
          "type": "address"
        }
      ],
      "stateMutability": "view",
      "type": "function"
    },
    {
      "inputs": [
        {
          "internalType": "address",
          "name": "account",
          "type": "address"
        },
        {
          "internalType": "bool",
          "name": "value",
          "type": "bool"
        }
      ],
      "name": "setBlacklistStatus",
      "outputs": [],
      "stateMutability": "nonpayable",
      "type": "function"
    },
    {
      "inputs": [
        {
          "internalType": "address",
          "name": "crm",
          "type": "address"
        }
      ],
      "name": "setContManagement",
      "outputs": [],
      "stateMutability": "nonpayable",
      "type": "function"
    },
    {
      "inputs": [
        {
          "internalType": "bool",
          "name": "_enableCashout",
          "type": "bool"
        }
      ],
      "name": "setEnableCashout",
      "outputs": [],
      "stateMutability": "nonpayable",
      "type": "function"
    },
    {
      "inputs": [
        {
          "internalType": "bool",
          "name": "value",
          "type": "bool"
        }
      ],
      "name": "setEnableMintConts",
      "outputs": [],
      "stateMutability": "nonpayable",
      "type": "function"
    },
    {
      "inputs": [
        {
          "internalType": "address payable",
          "name": "liqRouter",
          "type": "address"
        }
      ],
      "name": "setLiquidityRouter",
      "outputs": [],
      "stateMutability": "nonpayable",
      "type": "function"
    },
    {
      "inputs": [
        {
          "internalType": "address",
          "name": "newAddress",
          "type": "address"
        }
      ],
      "name": "setUSDCAddress",
      "outputs": [],
      "stateMutability": "nonpayable",
      "type": "function"
    },
    {
      "inputs": [
        {
          "internalType": "address",
          "name": "account",
          "type": "address"
        }
      ],
      "name": "shares",
      "outputs": [
        {
          "internalType": "uint256",
          "name": "",
          "type": "uint256"
        }
      ],
      "stateMutability": "view",
      "type": "function"
    },
    {
      "inputs": [
        {
          "internalType": "address",
          "name": "tokenAddr",
          "type": "address"
        },
        {
          "internalType": "uint256",
          "name": "amountOut",
          "type": "uint256"
        },
        {
          "internalType": "uint256",
          "name": "amountInMax",
          "type": "uint256"
        },
        {
          "internalType": "uint256",
          "name": "wait",
          "type": "uint256"
        }
      ],
      "name": "swap0xBForExactToken",
      "outputs": [],
      "stateMutability": "nonpayable",
      "type": "function"
    },
    {
      "inputs": [
        {
          "internalType": "uint256",
          "name": "amountOut",
          "type": "uint256"
        },
        {
          "internalType": "uint256",
          "name": "amountInMax",
          "type": "uint256"
        },
        {
          "internalType": "uint256",
          "name": "wait",
          "type": "uint256"
        }
      ],
      "name": "swapAVAXForExact0xB",
      "outputs": [],
      "stateMutability": "payable",
      "type": "function"
    },
    {
      "inputs": [
        {
          "internalType": "address",
          "name": "tokenAddr",
          "type": "address"
        },
        {
          "internalType": "uint256",
          "name": "amountIn",
          "type": "uint256"
        },
        {
          "internalType": "uint256",
          "name": "amountOutMin",
          "type": "uint256"
        },
        {
          "internalType": "uint256",
          "name": "wait",
          "type": "uint256"
        }
      ],
      "name": "swapExact0xBForToken",
      "outputs": [],
      "stateMutability": "nonpayable",
      "type": "function"
    },
    {
      "inputs": [
        {
          "internalType": "uint256",
          "name": "amountOutMin",
          "type": "uint256"
        },
        {
          "internalType": "uint256",
          "name": "wait",
          "type": "uint256"
        }
      ],
      "name": "swapExactAVAXFor0xB",
      "outputs": [],
      "stateMutability": "payable",
      "type": "function"
    },
    {
      "inputs": [
        {
          "internalType": "address",
          "name": "tokenAddr",
          "type": "address"
        },
        {
          "internalType": "uint256",
          "name": "amountIn",
          "type": "uint256"
        },
        {
          "internalType": "uint256",
          "name": "amountOutMin",
          "type": "uint256"
        },
        {
          "internalType": "uint256",
          "name": "wait",
          "type": "uint256"
        }
      ],
      "name": "swapExactTokenFor0xB",
      "outputs": [],
      "stateMutability": "nonpayable",
      "type": "function"
    },
    {
      "inputs": [
        {
          "internalType": "address",
          "name": "tokenAddr",
          "type": "address"
        },
        {
          "internalType": "uint256",
          "name": "amountOut",
          "type": "uint256"
        },
        {
          "internalType": "uint256",
          "name": "amountInMax",
          "type": "uint256"
        },
        {
          "internalType": "uint256",
          "name": "wait",
          "type": "uint256"
        }
      ],
      "name": "swapTokenForExact0xB",
      "outputs": [],
      "stateMutability": "nonpayable",
      "type": "function"
    },
    {
      "inputs": [],
      "name": "symbol",
      "outputs": [
        {
          "internalType": "string",
          "name": "",
          "type": "string"
        }
      ],
      "stateMutability": "view",
      "type": "function"
    },
    {
      "inputs": [],
      "name": "totalFees",
      "outputs": [
        {
          "internalType": "uint256",
          "name": "",
          "type": "uint256"
        }
      ],
      "stateMutability": "view",
      "type": "function"
    },
    {
      "inputs": [
        {
          "internalType": "contract IERC20Upgradeable",
          "name": "token",
          "type": "address"
        }
      ],
      "name": "totalReleased",
      "outputs": [
        {
          "internalType": "uint256",
          "name": "",
          "type": "uint256"
        }
      ],
      "stateMutability": "view",
      "type": "function"
    },
    {
      "inputs": [],
      "name": "totalReleased",
      "outputs": [
        {
          "internalType": "uint256",
          "name": "",
          "type": "uint256"
        }
      ],
      "stateMutability": "view",
      "type": "function"
    },
    {
      "inputs": [],
      "name": "totalShares",
      "outputs": [
        {
          "internalType": "uint256",
          "name": "",
          "type": "uint256"
        }
      ],
      "stateMutability": "view",
      "type": "function"
    },
    {
      "inputs": [],
      "name": "totalSupply",
      "outputs": [
        {
          "internalType": "uint256",
          "name": "",
          "type": "uint256"
        }
      ],
      "stateMutability": "view",
      "type": "function"
    },
    {
      "inputs": [],
      "name": "totalTokensPaidForMinting",
      "outputs": [
        {
          "internalType": "uint256",
          "name": "",
          "type": "uint256"
        }
      ],
      "stateMutability": "view",
      "type": "function"
    },
    {
      "inputs": [
        {
          "internalType": "address",
          "name": "to",
          "type": "address"
        },
        {
          "internalType": "uint256",
          "name": "amount",
          "type": "uint256"
        }
      ],
      "name": "transfer",
      "outputs": [
        {
          "internalType": "bool",
          "name": "",
          "type": "bool"
        }
      ],
      "stateMutability": "nonpayable",
      "type": "function"
    },
    {
      "inputs": [
        {
          "internalType": "address",
          "name": "from",
          "type": "address"
        },
        {
          "internalType": "address",
          "name": "to",
          "type": "address"
        },
        {
          "internalType": "uint256",
          "name": "amount",
          "type": "uint256"
        }
      ],
      "name": "transferFrom",
      "outputs": [
        {
          "internalType": "bool",
          "name": "",
          "type": "bool"
        }
      ],
      "stateMutability": "nonpayable",
      "type": "function"
    },
    {
      "inputs": [
        {
          "internalType": "address",
          "name": "newOwner",
          "type": "address"
        }
      ],
      "name": "transferOwnership",
      "outputs": [],
      "stateMutability": "nonpayable",
      "type": "function"
    },
    {
      "inputs": [],
      "name": "treasuryFee",
      "outputs": [
        {
          "internalType": "uint256",
          "name": "",
          "type": "uint256"
        }
      ],
      "stateMutability": "view",
      "type": "function"
    },
    {
      "inputs": [],
      "name": "treasuryPool",
      "outputs": [
        {
          "internalType": "address",
          "name": "",
          "type": "address"
        }
      ],
      "stateMutability": "view",
      "type": "function"
    },
    {
      "inputs": [],
      "name": "uniswapV2Pair",
      "outputs": [
        {
          "internalType": "address",
          "name": "",
          "type": "address"
        }
      ],
      "stateMutability": "view",
      "type": "function"
    },
    {
      "inputs": [],
      "name": "uniswapV2Router",
      "outputs": [
        {
          "internalType": "contract IJoeRouter02",
          "name": "",
          "type": "address"
        }
      ],
      "stateMutability": "view",
      "type": "function"
    },
    {
      "inputs": [
        {
          "internalType": "uint256",
          "name": "value",
          "type": "uint256"
        }
      ],
      "name": "updateCashoutFee",
      "outputs": [],
      "stateMutability": "nonpayable",
      "type": "function"
    },
    {
      "inputs": [
        {
          "internalType": "address payable",
          "name": "wall",
          "type": "address"
        }
      ],
      "name": "updateCashoutTaxPool",
      "outputs": [],
      "stateMutability": "nonpayable",
      "type": "function"
    },
    {
      "inputs": [
        {
          "internalType": "uint256",
          "name": "value",
          "type": "uint256"
        }
      ],
      "name": "updateDevelopmentFee",
      "outputs": [],
      "stateMutability": "nonpayable",
      "type": "function"
    },
    {
      "inputs": [
        {
          "internalType": "address payable",
          "name": "wall",
          "type": "address"
        }
      ],
      "name": "updateDevelopmentFundWallet",
      "outputs": [],
      "stateMutability": "nonpayable",
      "type": "function"
    },
    {
      "inputs": [
        {
          "internalType": "uint256",
          "name": "value",
          "type": "uint256"
        }
      ],
      "name": "updateLiquidityFee",
      "outputs": [],
      "stateMutability": "nonpayable",
      "type": "function"
    },
    {
      "inputs": [
        {
          "internalType": "address payable",
          "name": "wall",
          "type": "address"
        }
      ],
      "name": "updateLiquidityWallet",
      "outputs": [],
      "stateMutability": "nonpayable",
      "type": "function"
    },
    {
      "inputs": [
        {
          "internalType": "uint256",
          "name": "value",
          "type": "uint256"
        }
      ],
      "name": "updateRewardsFee",
      "outputs": [],
      "stateMutability": "nonpayable",
      "type": "function"
    },
    {
      "inputs": [
        {
          "internalType": "address payable",
          "name": "wall",
          "type": "address"
        }
      ],
      "name": "updateRewardsWallet",
      "outputs": [],
      "stateMutability": "nonpayable",
      "type": "function"
    },
    {
      "inputs": [
        {
          "internalType": "uint256",
          "name": "value",
          "type": "uint256"
        }
      ],
      "name": "updateTreasuryFee",
      "outputs": [],
      "stateMutability": "nonpayable",
      "type": "function"
    },
    {
      "inputs": [
        {
          "internalType": "address payable",
          "name": "wall",
          "type": "address"
        }
      ],
      "name": "updateTreasuryWallet",
      "outputs": [],
      "stateMutability": "nonpayable",
      "type": "function"
    },
    {
      "inputs": [],
      "name": "usdcToken",
      "outputs": [
        {
          "internalType": "address",
          "name": "",
          "type": "address"
        }
      ],
      "stateMutability": "view",
      "type": "function"
    },
    {
      "stateMutability": "payable",
      "type": "receive"
    }
  ],
  "transactionHash": "0xd9f42cdbe39ba56c20a4d40269d55208dda33670eff15997863e9f2e2875d510",
  "args": [],
  "numDeployments": 8,
  "solcInputHash": "c04d8e5b374999a2c0db764f83e64056",
  "bytecode": "0x608060405234801561001057600080fd5b5061585d80620000216000396000f3fe6080604052600436106104985760003560e01c806382a8ebad11610260578063b62496f511610144578063d8c6404b116100c1578063eb71c5d911610085578063eb71c5d914610e63578063f2e0302314610e82578063f2fde38b14610ea2578063f34f152214610ec2578063f764bfb514610ed8578063f78d5c5514610efe57600080fd5b8063d8c6404b14610dd3578063dd62ed3e14610df4578063e0583ec014610e14578063e33b7de314610e2e578063e37ba8f914610e4357600080fd5b8063cd6e18f111610108578063cd6e18f114610d07578063ce7c2ac214610d27578063cfc0d02414610d5d578063d631f70514610d7d578063d79779b214610d9d57600080fd5b8063b62496f514610c71578063b9bd393314610ca1578063ba2734d214610cbb578063bcb8ebfc14610cdb578063cc32d17614610cf157600080fd5b806397232830116101dd5780639ff41fe3116101a15780639ff41fe314610bae578063a457c2d714610bdb578063a5f3d00314610bfb578063a9059cbb14610c11578063aaf5bfc314610c31578063b3328aae14610c5157600080fd5b80639723283014610af85780639852595c14610b185780639a6e80db14610b4e5780639c64291c14610b6e5780639dc73a4914610b8e57600080fd5b80638d289144116102245780638d28914414610a655780638da5cb5b14610a855780638e67566314610aa35780639149acbc14610ac357806395d89b4114610ae357600080fd5b806382a8ebad146109cf578063839df919146109ef57806383dcd37614610a0f5780638683811614610a2f5780638b83209b14610a4557600080fd5b8063313ce56711610387578063559bf302116103045780636815a91c116102c85780636815a91c146109245780636d9ae0be1461094457806370a082311461095a578063715018a61461097a578063809d458d1461098f578063810be66d146109af57600080fd5b8063559bf3021461088457806357dae063146108a45780635dd731fc146108c457806365bfe430146108e4578063665a11ca1461090457600080fd5b806348b750441161034b57806348b75044146107f957806348df58291461081957806349bd5a5e14610839578063545579731461085957806354f12f1f1461086e57600080fd5b8063313ce56714610772578063393061401461078e57806339509351146107a45780633a98ef39146107c4578063406072a9146107d957600080fd5b806311eac855116104155780631cdd3be3116103d95780631cdd3be3146106d957806323b872dd14610709578063241a38c6146107295780632bb14e1d1461073c5780633086319d1461075257600080fd5b806311eac8551461063a57806313114a9d146106605780631694505e1461068457806318160ddd146106a457806319165587146106b957600080fd5b80630841e9771161045c5780630841e9771461058a578063084a6bff146105aa578063095ea7b3146105ca5780630db92449146105fa5780630f1978fb1461061b57600080fd5b80630129981c146104dd5780630359fea9146104ff57806303d29d281461053557806306fdde031461055557806307a558601461057757600080fd5b366104d8577f6ef95f06320e7a25a04a175ca677b7052bdd97131872c2192525a629f51be77033346040516104ce9291906152e0565b60405180910390a1005b600080fd5b3480156104e957600080fd5b506104fd6104f8366004614ef2565b610f1e565b005b34801561050b57600080fd5b5060d15461051f906001600160a01b031681565b60405161052c91906152cc565b60405180910390f35b34801561054157600080fd5b506104fd610550366004614e98565b6110bd565b34801561056157600080fd5b5061056a611112565b60405161052c9190615435565b6104fd610585366004615200565b6111a4565b34801561059657600080fd5b506104fd6105a5366004614ef2565b61132f565b3480156105b657600080fd5b506104fd6105c5366004615163565b611574565b3480156105d657600080fd5b506105ea6105e5366004614ec6565b6115f6565b604051901515815260200161052c565b34801561060657600080fd5b5060e0546105ea90600160a01b900460ff1681565b34801561062757600080fd5b5060d9546105ea90610100900460ff1681565b34801561064657600080fd5b5060d95461051f906201000090046001600160a01b031681565b34801561066c57600080fd5b5061067660d75481565b60405190815260200161052c565b34801561069057600080fd5b5060ca5461051f906001600160a01b031681565b3480156106b057600080fd5b50603554610676565b3480156106c557600080fd5b506104fd6106d4366004614de4565b611610565b3480156106e557600080fd5b506105ea6106f4366004614de4565b60dd6020526000908152604090205460ff1681565b34801561071557600080fd5b506105ea610724366004614e57565b611735565b6104fd6107373660046151ba565b61175b565b34801561074857600080fd5b5061067660d35481565b34801561075e57600080fd5b506104fd61076d36600461500e565b611780565b34801561077e57600080fd5b506040516012815260200161052c565b34801561079a57600080fd5b5061067660ce5481565b3480156107b057600080fd5b506105ea6107bf366004614ec6565b611e61565b3480156107d057600080fd5b50609754610676565b3480156107e557600080fd5b506106766107f4366004614e1e565b611ea0565b34801561080557600080fd5b506104fd610814366004614e1e565b611ecb565b34801561082557600080fd5b5060d05461051f906001600160a01b031681565b34801561084557600080fd5b5060cd5461051f906001600160a01b031681565b34801561086557600080fd5b506104fd61208f565b34801561087a57600080fd5b5061067660d55481565b34801561089057600080fd5b506104fd61089f366004614de4565b61267b565b3480156108b057600080fd5b506104fd6108bf366004614f2d565b6126ed565b3480156108d057600080fd5b506104fd6108df366004614de4565b612da3565b3480156108f057600080fd5b506104fd6108ff366004615163565b612e1d565b34801561091057600080fd5b5060d25461051f906001600160a01b031681565b34801561093057600080fd5b506104fd61093f366004615163565b6131a6565b34801561095057600080fd5b5061067660d85481565b34801561096657600080fd5b50610676610975366004614de4565b613226565b34801561098657600080fd5b506104fd613241565b34801561099b57600080fd5b506104fd6109aa366004614de4565b613277565b3480156109bb57600080fd5b5060cf5461051f906001600160a01b031681565b3480156109db57600080fd5b5060e05461051f906001600160a01b031681565b3480156109fb57600080fd5b506104fd610a0a366004615129565b6132e9565b348015610a1b57600080fd5b5061056a610a2a366004614de4565b61332d565b348015610a3b57600080fd5b5061067660da5481565b348015610a5157600080fd5b5061051f610a60366004615163565b613434565b348015610a7157600080fd5b506104fd610a80366004614de4565b613464565b348015610a9157600080fd5b506065546001600160a01b031661051f565b348015610aaf57600080fd5b506104fd610abe366004615163565b6134fb565b348015610acf57600080fd5b506104fd610ade366004615129565b61357d565b348015610aef57600080fd5b5061056a6135c1565b348015610b0457600080fd5b506104fd610b13366004615163565b6135d0565b348015610b2457600080fd5b50610676610b33366004614de4565b6001600160a01b03166000908152609a602052604090205490565b348015610b5a57600080fd5b5060c95461051f906001600160a01b031681565b348015610b7a57600080fd5b506104fd610b89366004614ef2565b613652565b348015610b9a57600080fd5b506104fd610ba9366004615129565b61379b565b348015610bba57600080fd5b50610676610bc9366004614de4565b60dc6020526000908152604090205481565b348015610be757600080fd5b506105ea610bf6366004614ec6565b6137d8565b348015610c0757600080fd5b5061067660d65481565b348015610c1d57600080fd5b506105ea610c2c366004614ec6565b613875565b348015610c3d57600080fd5b506104fd610c4c366004614de4565b613883565b348015610c5d57600080fd5b506104fd610c6c366004615129565b613923565b348015610c7d57600080fd5b506105ea610c8c366004614de4565b60de6020526000908152604090205460ff1681565b348015610cad57600080fd5b5060df546105ea9060ff1681565b348015610cc757600080fd5b506104fd610cd6366004615129565b613960565b348015610ce757600080fd5b5061067660cb5481565b348015610cfd57600080fd5b5061067660d45481565b348015610d1357600080fd5b506104fd610d22366004614de4565b6139a8565b348015610d3357600080fd5b50610676610d42366004614de4565b6001600160a01b031660009081526099602052604090205490565b348015610d6957600080fd5b506104fd610d78366004614de4565b613a43565b348015610d8957600080fd5b506104fd610d98366004614ec6565b613ab5565b348015610da957600080fd5b50610676610db8366004614de4565b6001600160a01b03166000908152609c602052604090205490565b348015610ddf57600080fd5b5060d9546105ea90600160b01b900460ff1681565b348015610e0057600080fd5b50610676610e0f366004614e1e565b613bad565b348015610e2057600080fd5b5060d9546105ea9060ff1681565b348015610e3a57600080fd5b50609854610676565b348015610e4f57600080fd5b506104fd610e5e366004614de4565b613bd8565b348015610e6f57600080fd5b5060df546105ea90610100900460ff1681565b348015610e8e57600080fd5b506104fd610e9d366004614ef2565b613c4a565b348015610eae57600080fd5b506104fd610ebd366004614de4565b613cad565b348015610ece57600080fd5b5061067660db5481565b348015610ee457600080fd5b5060df5461051f906201000090046001600160a01b031681565b348015610f0a57600080fd5b506104fd610f19366004615163565b613d48565b3382610f2982613226565b1015610f505760405162461bcd60e51b8152600401610f4790615589565b60405180910390fd5b60e054610f689082906001600160a01b031685613dca565b60e0546000906001600160a01b03166380be66cf83888888610f8a89426156cc565b6040518663ffffffff1660e01b8152600401610faa95949392919061531d565b6040805180830381600087803b158015610fc357600080fd5b505af1158015610fd7573d6000803e3d6000fd5b505050506040513d601f19601f82011682018060405250810190610ffb91906151dc565b90508091505060008051602061583183398151915261109960e060009054906101000a90046001600160a01b03166001600160a01b03166311eb47dc6040518163ffffffff1660e01b815260040160206040518083038186803b15801561106157600080fd5b505afa158015611075573d6000803e3d6000fd5b505050506040513d601f19601f82011682018060405250810190610a2a9190614e01565b600330846040516110ad9493929190615448565b60405180910390a1505050505050565b6065546001600160a01b031633146110e75760405162461bcd60e51b8152600401610f47906155c0565b6001600160a01b0391909116600090815260dd60205260409020805460ff1916911515919091179055565b60606036805461112190615768565b80601f016020809104026020016040519081016040528092919081815260200182805461114d90615768565b801561119a5780601f1061116f5761010080835404028352916020019161119a565b820191906000526020600020905b81548152906001019060200180831161117d57829003601f168201915b5050505050905090565b33348311156112005760405162461bcd60e51b815260206004820152602260248201527f535741503a206d73672e76616c7565206c657373207468616e20736c69707061604482015261676560f01b6064820152608401610f47565b60e0546000906001600160a01b031663ed9705da34848861122188426156cc565b6040516001600160e01b031960e087901b1681526001600160a01b0390931660048401526024830191909152604482015260640160408051808303818588803b15801561126d57600080fd5b505af1158015611281573d6000803e3d6000fd5b50505050506040513d601f19601f820116820180604052508101906112a691906151dc565b90508091505060008051602061583183398151915261130c60e060009054906101000a90046001600160a01b03166001600160a01b03166311eb47dc6040518163ffffffff1660e01b815260040160206040518083038186803b15801561106157600080fd5b600330846040516113209493929190615448565b60405180910390a15050505050565b6040516370a0823160e01b81523390859085906001600160a01b038316906370a08231906113619086906004016152cc565b60206040518083038186803b15801561137957600080fd5b505afa15801561138d573d6000803e3d6000fd5b505050506040513d601f19601f820116820180604052508101906113b1919061517c565b10156113cf5760405162461bcd60e51b8152600401610f4790615589565b60e0546040516323b872dd60e01b81526001600160a01b03808416926323b872dd9261140392879216908a906004016152f9565b602060405180830381600087803b15801561141d57600080fd5b505af1158015611431573d6000803e3d6000fd5b505050506040513d601f19601f820116820180604052508101906114559190615146565b5060e0546000906001600160a01b0316636e54a8a0848989896114788a426156cc565b6040518663ffffffff1660e01b815260040161149895949392919061531d565b6040805180830381600087803b1580156114b157600080fd5b505af11580156114c5573d6000803e3d6000fd5b505050506040513d601f19601f820116820180604052508101906114e991906151dc565b90508091505060008051602061583183398151915261154f60e060009054906101000a90046001600160a01b03166001600160a01b03166311eb47dc6040518163ffffffff1660e01b815260040160206040518083038186803b15801561106157600080fd5b600330846040516115639493929190615448565b60405180910390a150505050505050565b6065546001600160a01b0316331461159e5760405162461bcd60e51b8152600401610f47906155c0565b60008160d45460d65460d5546115b491906156cc565b6115be91906156cc565b6115c891906156cc565b905060648111156115eb5760405162461bcd60e51b8152600401610f47906155f5565b60d39190915560d755565b600033611604818585613e68565b60019150505b92915050565b6001600160a01b0381166000908152609960205260409020546116455760405162461bcd60e51b8152600401610f47906154f8565b600061165060985490565b61165a90476156cc565b905060006116878383611682866001600160a01b03166000908152609a602052604090205490565b613f8c565b9050806116a65760405162461bcd60e51b8152600401610f479061553e565b6001600160a01b0383166000908152609a6020526040812080548392906116ce9084906156cc565b9250508190555080609860008282546116e791906156cc565b909155506116f790508382613fd2565b7fdf20fd1e76bc69d672e4814fafb2c449bba3a5369d8359adf9e05e6fde87b05683826040516117289291906152e0565b60405180910390a1505050565b6000336117438582856140eb565b61174e858585613dca565b60019150505b9392505050565b60e054339034906000906001600160a01b0316638f6e53b783858861122189426156cc565b60df54610100900460ff166117d75760405162461bcd60e51b815260206004820152601d60248201527f434f4e544d494e543a206d696e7420636f6e74732064697361626c65640000006044820152606401610f47565b60cc54825111156118255760405162461bcd60e51b8152602060048201526018602482015277434f4e544d494e543a20746f6f206d616e7920636f6e747360401b6044820152606401610f47565b60005b82518110156118de576003838281518110611845576118456157d4565b6020026020010151511180156118755750602183828151811061186a5761186a6157d4565b602002602001015151105b6118cc5760405162461bcd60e51b815260206004820152602260248201527f434f4e544d494e543a20696d70726f7065722063686172616374657220636f756044820152611b9d60f21b6064820152608401610f47565b806118d6816157a3565b915050611828565b5033806119265760405162461bcd60e51b8152602060048201526016602482015275434f4e544d494e543a207a65726f206164647265737360501b6044820152606401610f47565b6001600160a01b038116600090815260dd602052604090205460ff161561198f5760405162461bcd60e51b815260206004820152601d60248201527f434f4e544d494e543a20626c61636b6c697374656420616464726573730000006044820152606401610f47565b60cf546001600160a01b038281169116148015906119bb575060d1546001600160a01b03828116911614155b80156119d5575060d0546001600160a01b03828116911614155b611a2c5760405162461bcd60e51b815260206004820152602260248201527f434f4e544d494e543a20706f6f6c732063616e6e6f742063726561746520636f6044820152611b9d60f21b6064820152608401610f47565b60c9546040516344fea1b960e01b81526000916001600160a01b0316906344fea1b990611a5d9085906004016152cc565b60206040518083038186803b158015611a7557600080fd5b505afa158015611a89573d6000803e3d6000fd5b505050506040513d601f19601f82011682018060405250810190611aad919061517c565b905060cb54845182611abf91906156cc565b1115611b0d5760405162461bcd60e51b815260206004820152601c60248201527f434f4e544d494e543a2072656163686564206d696e74206c696d6974000000006044820152606401610f47565b835160c954604051630c75361360e31b8152600092916001600160a01b0316906363a9b09890611b41908890600401615427565b60206040518083038186803b158015611b5957600080fd5b505afa158015611b6d573d6000803e3d6000fd5b505050506040513d601f19601f82011682018060405250810190611b91919061517c565b611b9b9190615706565b90508060ce6000828254611baf91906156cc565b90915550819050611bbf84613226565b1015611c1d5760405162461bcd60e51b815260206004820152602760248201527f434f4e544d494e543a2042616c616e636520746f6f206c6f7720666f7220637260448201526632b0ba34b7b71760c91b6064820152608401610f47565b6000606460d65483611c2f9190615706565b611c3991906156e4565b60d954909150610100900460ff1615611c785760cf5460d954611c739186916001600160a01b039182169189916201000090041685614165565b611c92565b60cf54611c929085906001600160a01b0316873085614165565b6000606460d35484611ca49190615706565b611cae91906156e4565b60d154909150611ccb9086906001600160a01b0316883085614165565b6000606460d45485611cdd9190615706565b611ce791906156e4565b60d95490915060ff1615611d215760d05460d954611d1c9188916001600160a01b03918216918b916201000090041685614165565b611d3b565b60d054611d3b9087906001600160a01b0316893085614165565b6000606460d55486611d4d9190615706565b611d5791906156e4565b60d254909150611d749088906001600160a01b03168a3085614165565b6000818385611d83888a615725565b611d8d9190615725565b611d979190615725565b611da19190615725565b90508015611db457611db488308361428a565b60c95460405162a6998d60e31b81526001600160a01b0390911690630534cc6890611de7908b908e908e9060040161534e565b600060405180830381600087803b158015611e0157600080fd5b505af1158015611e15573d6000803e3d6000fd5b505050507f9972942513a6d471ac125572d271f49ecc9652139451120363f1333713c42c43888a8c51604051611e4d939291906153c8565b60405180910390a150505050505050505050565b3360008181526034602090815260408083206001600160a01b03871684529091528120549091906116049082908690611e9b9087906156cc565b613e68565b6001600160a01b039182166000908152609d6020908152604080832093909416825291909152205490565b6001600160a01b038116600090815260996020526040902054611f005760405162461bcd60e51b8152600401610f47906154f8565b6001600160a01b0382166000908152609c60205260408120546040516370a0823160e01b81526001600160a01b038516906370a0823190611f459030906004016152cc565b60206040518083038186803b158015611f5d57600080fd5b505afa158015611f71573d6000803e3d6000fd5b505050506040513d601f19601f82011682018060405250810190611f95919061517c565b611f9f91906156cc565b90506000611fb283836116828787611ea0565b905080611fd15760405162461bcd60e51b8152600401610f479061553e565b6001600160a01b038085166000908152609d60209081526040808320938716835292905290812080548392906120089084906156cc565b90915550506001600160a01b0384166000908152609c6020526040812080548392906120359084906156cc565b909155506120469050848483614458565b836001600160a01b03167f3be5b7a71e84ed12875d241991c70855ac5817d847039e17a9d895c1ceb0f18a84836040516120819291906152e0565b60405180910390a250505050565b60df54339060ff1615156001146120e85760405162461bcd60e51b815260206004820152601960248201527f43534854414c4c3a20636173686f75742064697361626c6564000000000000006044820152606401610f47565b6001600160a01b0381166121365760405162461bcd60e51b815260206004820152601560248201527443534854414c4c3a207a65726f206164647265737360581b6044820152606401610f47565b6001600160a01b038116600090815260dd602052604090205460ff161561219f5760405162461bcd60e51b815260206004820152601c60248201527f43534854414c4c3a20626c61636b6c69737465642061646472657373000000006044820152606401610f47565b60c9546040516330cd31af60e11b81526000916001600160a01b03169063619a635e906121d09085906004016152cc565b60206040518083038186803b1580156121e857600080fd5b505afa1580156121fc573d6000803e3d6000fd5b505050506040513d601f19601f82011682018060405250810190612220919061517c565b9050600081116122725760405162461bcd60e51b815260206004820152601960248201527f43534854414c4c3a20726577617264206e6f74207265616479000000000000006044820152606401610f47565b60c95460405163d094fa8d60e01b8152600091829182916001600160a01b03169063d094fa8d906122a79088906004016152cc565b608060405180830381600087803b1580156122c157600080fd5b505af11580156122d5573d6000803e3d6000fd5b505050506040513d601f19601f820116820180604052508101906122f9919061522c565b60d854939750919550935091506000901561260257606460d8548661231e9190615706565b61232891906156e4565b60e054909150600160a01b900460ff161561240b5760d15460df5460d95460d85461238a936001600160a01b039081169362010000908190048216936000939190049091169060649061237b908b615706565b61238591906156e4565b614165565b60d15460df5460d95460d8546123c8936001600160a01b039081169362010000908190048216936001939190049091169060649061237b908a615706565b60d15460df5460d95460d854612406936001600160a01b039081169362010000908190048216936002939190049091169060649061237b9089615706565b61258c565b60d15460df546201000090046001600160a01b039081169116146124c25760d15460df5460d85461245c926001600160a01b03908116926201000090041690600090309060649061237b908b615706565b60d15460df5460d85461248f926001600160a01b03908116926201000090041690600190309060649061237b908a615706565b60d15460df5460d854612406926001600160a01b03908116926201000090041690600290309060649061237b9089615706565b600080516020615831833981519152600030606460d854886124e49190615706565b6124ee91906156e4565b6040516124fd939291906154b2565b60405180910390a1600080516020615831833981519152600130606460d854876125279190615706565b61253191906156e4565b604051612540939291906154b2565b60405180910390a1600080516020615831833981519152600230606460d8548661256a9190615706565b61257491906156e4565b604051612583939291906154b2565b60405180910390a15b606460d854606461259d9190615725565b6125a79086615706565b6125b191906156e4565b9350606460d85460646125c49190615725565b6125ce9085615706565b6125d891906156e4565b9250606460d85460646125eb9190615725565b6125f59084615706565b6125ff91906156e4565b91505b61260c8186615725565b60d154909550612626906001600160a01b03168787613dca565b604080516001600160a01b03881681526020810187905290810185905260608101849052608081018390527f6717635faad3367ddfa0564bf3540e74269b0c5dfef7720d5512f309dc1b6c869060a0016110ad565b6065546001600160a01b031633146126a55760405162461bcd60e51b8152600401610f47906155c0565b6001600160a01b0381166126cb5760405162461bcd60e51b8152600401610f4790615485565b60cf80546001600160a01b0319166001600160a01b0392909216919091179055565b600054610100900460ff166127085760005460ff161561270c565b303b155b61276f5760405162461bcd60e51b815260206004820152602e60248201527f496e697469616c697a61626c653a20636f6e747261637420697320616c72656160448201526d191e481a5b9a5d1a585b1a5e995960921b6064820152608401610f47565b600054610100900460ff16158015612791576000805461ffff19166101011790555b600085511180156127a3575060008451115b6127e65760405162461bcd60e51b815260206004820152601460248201527320a222291013102120a620a721a29022a92927a960611b6044820152606401610f47565b6127ee6144ae565b612832604051806040016040528060078152602001663078426c6f636b60c81b81525060405180604001604052806003815260200162183c2160e91b8152506144dd565b61283c878761450e565b60005b85518110156128a95761289786828151811061285d5761285d6157d4565b6020026020010151868381518110612877576128776157d4565b6020026020010151670de0b6b3a76400006128929190615706565b61453f565b806128a1816157a3565b91505061283f565b5060355469d3c21bcecceda1000000146128fd5760405162461bcd60e51b81526020600482015260156024820152741515130814d5541413164811125191880c48135253605a1b6044820152606401610f47565b60006001600160a01b03168560018151811061291b5761291b6157d4565b60200260200101516001600160a01b031614158015612967575060006001600160a01b031685600281518110612953576129536157d4565b60200260200101516001600160a01b031614155b80156129a0575060006001600160a01b03168560038151811061298c5761298c6157d4565b60200260200101516001600160a01b031614155b80156129d9575060006001600160a01b0316856004815181106129c5576129c56157d4565b60200260200101516001600160a01b031614155b612a175760405162461bcd60e51b815260206004820152600f60248201526e1413d3d30816915493c81193d55391608a1b6044820152606401610f47565b8351855114612a5f5760405162461bcd60e51b815260206004820152601460248201527320a222291013102120a620a721a29022a92927a960611b6044820152606401610f47565b600083600081518110612a7457612a746157d4565b6020026020010151118015612aa35750600083600181518110612a9957612a996157d4565b6020026020010151115b8015612ac95750600083600281518110612abf57612abf6157d4565b6020026020010151115b8015612aef5750600083600381518110612ae557612ae56157d4565b6020026020010151115b8015612b155750600083600481518110612b0b57612b0b6157d4565b6020026020010151115b612b515760405162461bcd60e51b815260206004820152600d60248201526c0c094811915154c81193d55391609a1b6044820152606401610f47565b84600181518110612b6457612b646157d4565b602002602001015160cf60006101000a8154816001600160a01b0302191690836001600160a01b0316021790555084600281518110612ba557612ba56157d4565b602002602001015160d260006101000a8154816001600160a01b0302191690836001600160a01b0316021790555084600381518110612be657612be66157d4565b602002602001015160d060006101000a8154816001600160a01b0302191690836001600160a01b0316021790555084600481518110612c2757612c276157d4565b602090810291909101015160d180546001600160a01b0319166001600160a01b03909216918217905560df805462010000600160b01b0319166201000090920291909117905582518390600090612c8057612c806157d4565b602002602001015160d68190555082600181518110612ca157612ca16157d4565b602002602001015160d48190555082600281518110612cc257612cc26157d4565b602002602001015160d38190555082600381518110612ce357612ce36157d4565b602002602001015160d58190555082600481518110612d0457612d046157d4565b602002602001015160d88190555060d45460d65460d55460d354612d2891906156cc565b612d3291906156cc565b612d3c91906156cc565b60d75560d98054606460cb55600a60cc5561ffff196001600160a01b038516620100000281166001600160b01b0319909216919091176101001790915560df805461010192169190911790558015612d9a576000805461ff00191690555b50505050505050565b6065546001600160a01b03163314612dcd5760405162461bcd60e51b8152600401610f47906155c0565b6001600160a01b038116612df35760405162461bcd60e51b8152600401610f4790615485565b60df80546001600160a01b03909216620100000262010000600160b01b0319909216919091179055565b60df54339060ff161515600114612e6f5760405162461bcd60e51b815260206004820152601660248201527510d4d2150e8810d85cda1bdd5d08111a5cd8589b195960521b6044820152606401610f47565b6001600160a01b038116612eba5760405162461bcd60e51b8152602060048201526012602482015271435348543a207a65726f206164647265737360701b6044820152606401610f47565b6001600160a01b038116600090815260dd602052604090205460ff1615612f175760405162461bcd60e51b815260206004820152601160248201527010d4d2150e88189b1858dadb1a5cdd1959607a1b6044820152606401610f47565b60c9546040516305cfb67f60e11b81526000916001600160a01b031690630b9f6cfe90612f4a90859087906004016152e0565b60206040518083038186803b158015612f6257600080fd5b505afa158015612f76573d6000803e3d6000fd5b505050506040513d601f19601f82011682018060405250810190612f9a919061517c565b905060008111612fe55760405162461bcd60e51b8152602060048201526016602482015275435348543a20726577617264206e6f7420726561647960501b6044820152606401610f47565b6000612ff18183615725565b60d15490925061300b906001600160a01b03168484613dca565b60c95460405163611015b360e11b815260009182916001600160a01b039091169063c2202b66906130429088908a906004016152e0565b6040805180830381600087803b15801561305b57600080fd5b505af115801561306f573d6000803e3d6000fd5b505050506040513d601f19601f820116820180604052508101906130939190615195565b60d85491935091501561317157606460d854856130b09190615706565b6130ba91906156e4565b60e054909350600160a01b900460ff16156131045760d15460df5460d9546130ff926001600160a01b0390811692620100009081900482169286929190041687614165565b613171565b60d15460df546201000090046001600160a01b039081169116146131475760d15460df546130ff916001600160a01b039081169162010000900416833087614165565b600080516020615831833981519152813085604051613168939291906154b2565b60405180910390a15b7f6df62f67bac1b205a7fb106e3dd59043cdec9d6f2825adf0e0670f3cbcf86ac8858786846040516110ad94939291906153f3565b6065546001600160a01b031633146131d05760405162461bcd60e51b8152600401610f47906155c0565b60648111156132215760405162461bcd60e51b815260206004820152601c60248201527f464545533a20636173686f757420657863656564696e672031303025000000006044820152606401610f47565b60d855565b6001600160a01b031660009081526033602052604090205490565b6065546001600160a01b0316331461326b5760405162461bcd60e51b8152600401610f47906155c0565b613275600061461e565b565b6065546001600160a01b031633146132a15760405162461bcd60e51b8152600401610f47906155c0565b6001600160a01b0381166132c75760405162461bcd60e51b8152600401610f4790615485565b60d080546001600160a01b0319166001600160a01b0392909216919091179055565b6065546001600160a01b031633146133135760405162461bcd60e51b8152600401610f47906155c0565b60d980549115156101000261ff0019909216919091179055565b60d1546060906001600160a01b03838116911614156133695750506040805180820190915260078152667265776172647360c81b602082015290565b60cf546001600160a01b03838116911614156133a257505060408051808201909152600781526619195d999d5b9960ca1b602082015290565b60d0546001600160a01b03838116911614156133dc575050604080518082019091526008815267747265617375727960c01b602082015290565b60d2546001600160a01b03838116911614156134175750506040805180820190915260098152686c697175696469747960b81b602082015290565b50506040805180820190915260018152605f60f81b602082015290565b6000609b8281548110613449576134496157d4565b6000918252602090912001546001600160a01b031692915050565b6065546001600160a01b0316331461348e5760405162461bcd60e51b8152600401610f47906155c0565b6001600160a01b0381166134d95760405162461bcd60e51b81526020600482015260126024820152712722abafa1a9269d103d32b9379030b2323960711b6044820152606401610f47565b60c980546001600160a01b0319166001600160a01b0392909216919091179055565b6065546001600160a01b031633146135255760405162461bcd60e51b8152600401610f47906155c0565b60008160d45460d65460d35461353b91906156cc565b61354591906156cc565b61354f91906156cc565b905060648111156135725760405162461bcd60e51b8152600401610f47906155f5565b60d59190915560d755565b6065546001600160a01b031633146135a75760405162461bcd60e51b8152600401610f47906155c0565b60df80549115156101000261ff0019909216919091179055565b60606037805461112190615768565b6065546001600160a01b031633146135fa5760405162461bcd60e51b8152600401610f47906155c0565b60008160d65460d55460d35461361091906156cc565b61361a91906156cc565b61362491906156cc565b905060648111156136475760405162461bcd60e51b8152600401610f47906155f5565b60d49190915560d755565b6040516370a0823160e01b81523390859084906001600160a01b038316906370a08231906136849086906004016152cc565b60206040518083038186803b15801561369c57600080fd5b505afa1580156136b0573d6000803e3d6000fd5b505050506040513d601f19601f820116820180604052508101906136d4919061517c565b10156136f25760405162461bcd60e51b8152600401610f4790615589565b60e0546040516323b872dd60e01b81526001600160a01b03808416926323b872dd92613726928792169089906004016152f9565b602060405180830381600087803b15801561374057600080fd5b505af1158015613754573d6000803e3d6000fd5b505050506040513d601f19601f820116820180604052508101906137789190615146565b5060e0546000906001600160a01b03166374cefd8a848989896114788a426156cc565b6065546001600160a01b031633146137c55760405162461bcd60e51b8152600401610f47906155c0565b60d9805460ff1916911515919091179055565b3360008181526034602090815260408083206001600160a01b03871684529091528120549091908381101561385d5760405162461bcd60e51b815260206004820152602560248201527f45524332303a2064656372656173656420616c6c6f77616e63652062656c6f77604482015264207a65726f60d81b6064820152608401610f47565b61386a8286868403613e68565b506001949350505050565b600033611604818585613dca565b6065546001600160a01b031633146138ad5760405162461bcd60e51b8152600401610f47906155c0565b6001600160a01b0381166138f95760405162461bcd60e51b81526020600482015260136024820152722722abafaaa9a2219d103d32b9379030b2323960691b6044820152606401610f47565b60d980546001600160a01b03909216620100000262010000600160b01b0319909216919091179055565b6065546001600160a01b0316331461394d5760405162461bcd60e51b8152600401610f47906155c0565b60df805460ff1916911515919091179055565b6065546001600160a01b0316331461398a5760405162461bcd60e51b8152600401610f47906155c0565b60e08054911515600160a01b0260ff60a01b19909216919091179055565b6065546001600160a01b031633146139d25760405162461bcd60e51b8152600401610f47906155c0565b6001600160a01b038116613a215760405162461bcd60e51b81526020600482015260166024820152752722abafa62927aaaa22a91d103d32b9379030b2323960511b6044820152606401610f47565b60e080546001600160a01b0319166001600160a01b0392909216919091179055565b6065546001600160a01b03163314613a6d5760405162461bcd60e51b8152600401610f47906155c0565b6001600160a01b038116613a935760405162461bcd60e51b8152600401610f4790615485565b60d180546001600160a01b0319166001600160a01b0392909216919091179055565b6065546001600160a01b03163314613adf5760405162461bcd60e51b8152600401610f47906155c0565b613ae830613226565b811115613b485760405162461bcd60e51b815260206004820152602860248201527f534156455f4d495353454e543a20746f6b656e732065786365656420616464726044820152672062616c616e636560c01b6064820152608401610f47565b6001600160a01b038216613b9e5760405162461bcd60e51b815260206004820152601a60248201527f534156455f4d495353454e543a207a65726f5f616464726573730000000000006044820152606401610f47565b613ba9308383613dca565b5050565b6001600160a01b03918216600090815260346020908152604080832093909416825291909152205490565b6065546001600160a01b03163314613c025760405162461bcd60e51b8152600401610f47906155c0565b6001600160a01b038116613c285760405162461bcd60e51b8152600401610f4790615485565b60d280546001600160a01b0319166001600160a01b0392909216919091179055565b3383613c5582613226565b1015613c735760405162461bcd60e51b8152600401610f4790615589565b60e054613c8b9082906001600160a01b031686613dca565b60e0546000906001600160a01b03166388e5249f83888888610f8a89426156cc565b6065546001600160a01b03163314613cd75760405162461bcd60e51b8152600401610f47906155c0565b6001600160a01b038116613d3c5760405162461bcd60e51b815260206004820152602660248201527f4f776e61626c653a206e6577206f776e657220697320746865207a65726f206160448201526564647265737360d01b6064820152608401610f47565b613d458161461e565b50565b6065546001600160a01b03163314613d725760405162461bcd60e51b8152600401610f47906155c0565b60008160d45460d55460d354613d8891906156cc565b613d9291906156cc565b613d9c91906156cc565b90506064811115613dbf5760405162461bcd60e51b8152600401610f47906155f5565b60d69190915560d755565b6001600160a01b038316600090815260dd602052604090205460ff16158015613e0c57506001600160a01b038216600090815260dd602052604090205460ff16155b613e585760405162461bcd60e51b815260206004820152601a60248201527f45524332303a20426c61636b6c697374656420616464726573730000000000006044820152606401610f47565b613e6383838361428a565b505050565b6001600160a01b038316613eca5760405162461bcd60e51b8152602060048201526024808201527f45524332303a20617070726f76652066726f6d20746865207a65726f206164646044820152637265737360e01b6064820152608401610f47565b6001600160a01b038216613f2b5760405162461bcd60e51b815260206004820152602260248201527f45524332303a20617070726f766520746f20746865207a65726f206164647265604482015261737360f01b6064820152608401610f47565b6001600160a01b0383811660008181526034602090815260408083209487168084529482529182902085905590518481527f8c5be1e5ebec7d5bd14f71427d1e84f3dd0314c0f7b2291e5b200ac8c7c3b925910160405180910390a3505050565b6097546001600160a01b03841660009081526099602052604081205490918391613fb69086615706565b613fc091906156e4565b613fca9190615725565b949350505050565b804710156140225760405162461bcd60e51b815260206004820152601d60248201527f416464726573733a20696e73756666696369656e742062616c616e63650000006044820152606401610f47565b6000826001600160a01b03168260405160006040518083038185875af1925050503d806000811461406f576040519150601f19603f3d011682016040523d82523d6000602084013e614074565b606091505b5050905080613e635760405162461bcd60e51b815260206004820152603a60248201527f416464726573733a20756e61626c6520746f2073656e642076616c75652c207260448201527f6563697069656e74206d617920686176652072657665727465640000000000006064820152608401610f47565b60006140f78484613bad565b9050600019811461415f57818110156141525760405162461bcd60e51b815260206004820152601d60248201527f45524332303a20696e73756666696369656e7420616c6c6f77616e63650000006044820152606401610f47565b61415f8484848403613e68565b50505050565b60006141708561332d565b90506001600160a01b0383163014156141be5761418e868684613dca565b600080516020615831833981519152818585856040516141b19493929190615448565b60405180910390a1614282565b60e0546141d69087906001600160a01b031684613dca565b60e054604051632da63c1160e21b81526000916001600160a01b03169063b698f0449061420b908990889088906004016152f9565b602060405180830381600087803b15801561422557600080fd5b505af1158015614239573d6000803e3d6000fd5b505050506040513d601f19601f8201168201806040525081019061425d919061517c565b9050600080516020615831833981519152828686846040516115639493929190615448565b505050505050565b6001600160a01b0383166142ee5760405162461bcd60e51b815260206004820152602560248201527f45524332303a207472616e736665722066726f6d20746865207a65726f206164604482015264647265737360d81b6064820152608401610f47565b6001600160a01b0382166143505760405162461bcd60e51b815260206004820152602360248201527f45524332303a207472616e7366657220746f20746865207a65726f206164647260448201526265737360e81b6064820152608401610f47565b6001600160a01b038316600090815260336020526040902054818110156143c85760405162461bcd60e51b815260206004820152602660248201527f45524332303a207472616e7366657220616d6f756e7420657863656564732062604482015265616c616e636560d01b6064820152608401610f47565b6001600160a01b038085166000908152603360205260408082208585039055918516815290812080548492906143ff9084906156cc565b92505081905550826001600160a01b0316846001600160a01b03167fddf252ad1be2c89b69c2b068fc378daa952ba7f163c4a11628f55a4df523b3ef8460405161444b91815260200190565b60405180910390a361415f565b613e638363a9059cbb60e01b84846040516024016144779291906152e0565b60408051601f198184030181529190526020810180516001600160e01b03166001600160e01b031990931692909217909152614670565b600054610100900460ff166144d55760405162461bcd60e51b8152600401610f479061562c565b613275614742565b600054610100900460ff166145045760405162461bcd60e51b8152600401610f479061562c565b613ba98282614772565b600054610100900460ff166145355760405162461bcd60e51b8152600401610f479061562c565b613ba982826147c0565b6001600160a01b0382166145955760405162461bcd60e51b815260206004820152601f60248201527f45524332303a206d696e7420746f20746865207a65726f2061646472657373006044820152606401610f47565b80603560008282546145a791906156cc565b90915550506001600160a01b038216600090815260336020526040812080548392906145d49084906156cc565b90915550506040518181526001600160a01b038316906000907fddf252ad1be2c89b69c2b068fc378daa952ba7f163c4a11628f55a4df523b3ef9060200160405180910390a35050565b606580546001600160a01b038381166001600160a01b0319831681179093556040519116919082907f8be0079c531659141344cd1fd0a4f28419497f9722a3daafe3b4186f6b6457e090600090a35050565b60006146c5826040518060400160405280602081526020017f5361666545524332303a206c6f772d6c6576656c2063616c6c206661696c6564815250856001600160a01b03166148fe9092919063ffffffff16565b805190915015613e6357808060200190518101906146e39190615146565b613e635760405162461bcd60e51b815260206004820152602a60248201527f5361666545524332303a204552433230206f7065726174696f6e20646964206e6044820152691bdd081cdd58d8d9595960b21b6064820152608401610f47565b600054610100900460ff166147695760405162461bcd60e51b8152600401610f479061562c565b6132753361461e565b600054610100900460ff166147995760405162461bcd60e51b8152600401610f479061562c565b81516147ac906036906020850190614c55565b508051613e63906037906020840190614c55565b600054610100900460ff166147e75760405162461bcd60e51b8152600401610f479061562c565b80518251146148535760405162461bcd60e51b815260206004820152603260248201527f5061796d656e7453706c69747465723a2070617965657320616e6420736861726044820152710cae640d8cadccee8d040dad2e6dac2e8c6d60731b6064820152608401610f47565b60008251116148a45760405162461bcd60e51b815260206004820152601a60248201527f5061796d656e7453706c69747465723a206e6f207061796565730000000000006044820152606401610f47565b60005b8251811015613e63576148ec8382815181106148c5576148c56157d4565b60200260200101518383815181106148df576148df6157d4565b602002602001015161490d565b806148f6816157a3565b9150506148a7565b6060613fca8484600085614aeb565b6001600160a01b0382166149785760405162461bcd60e51b815260206004820152602c60248201527f5061796d656e7453706c69747465723a206163636f756e74206973207468652060448201526b7a65726f206164647265737360a01b6064820152608401610f47565b600081116149c85760405162461bcd60e51b815260206004820152601d60248201527f5061796d656e7453706c69747465723a207368617265732061726520300000006044820152606401610f47565b6001600160a01b03821660009081526099602052604090205415614a425760405162461bcd60e51b815260206004820152602b60248201527f5061796d656e7453706c69747465723a206163636f756e7420616c726561647960448201526a206861732073686172657360a81b6064820152608401610f47565b609b8054600181019091557fbba9db4cdbea0a37c207bbb83e20f828cd4441c49891101dc94fd20dc8efc3490180546001600160a01b0319166001600160a01b0384169081179091556000908152609960205260409020819055609754614aaa9082906156cc565b6097556040517f40c340f65e17194d14ddddb073d3c9f888e3cb52b5aae0c6c7706b4fbc905fac90614adf90849084906152e0565b60405180910390a15050565b606082471015614b4c5760405162461bcd60e51b815260206004820152602660248201527f416464726573733a20696e73756666696369656e742062616c616e636520666f6044820152651c8818d85b1b60d21b6064820152608401610f47565b6001600160a01b0385163b614ba35760405162461bcd60e51b815260206004820152601d60248201527f416464726573733a2063616c6c20746f206e6f6e2d636f6e74726163740000006044820152606401610f47565b600080866001600160a01b03168587604051614bbf91906152b0565b60006040518083038185875af1925050503d8060008114614bfc576040519150601f19603f3d011682016040523d82523d6000602084013e614c01565b606091505b5091509150614c11828286614c1c565b979650505050505050565b60608315614c2b575081611754565b825115614c3b5782518084602001fd5b8160405162461bcd60e51b8152600401610f479190615435565b828054614c6190615768565b90600052602060002090601f016020900481019282614c835760008555614cc9565b82601f10614c9c57805160ff1916838001178555614cc9565b82800160010185558215614cc9579182015b82811115614cc9578251825591602001919060010190614cae565b50614cd5929150614cd9565b5090565b5b80821115614cd55760008155600101614cda565b8035614cf981615800565b919050565b600082601f830112614d0f57600080fd5b81356020614d24614d1f836156a8565b615677565b80838252828201915082860187848660051b8901011115614d4457600080fd5b60005b85811015614d6c578135614d5a81615800565b84529284019290840190600101614d47565b5090979650505050505050565b600082601f830112614d8a57600080fd5b81356020614d9a614d1f836156a8565b80838252828201915082860187848660051b8901011115614dba57600080fd5b60005b85811015614d6c57813584529284019290840190600101614dbd565b8035614cf981615823565b600060208284031215614df657600080fd5b813561175481615800565b600060208284031215614e1357600080fd5b815161175481615800565b60008060408385031215614e3157600080fd5b8235614e3c81615800565b91506020830135614e4c81615800565b809150509250929050565b600080600060608486031215614e6c57600080fd5b8335614e7781615800565b92506020840135614e8781615800565b929592945050506040919091013590565b60008060408385031215614eab57600080fd5b8235614eb681615800565b91506020830135614e4c81615815565b60008060408385031215614ed957600080fd5b8235614ee481615800565b946020939093013593505050565b60008060008060808587031215614f0857600080fd5b8435614f1381615800565b966020860135965060408601359560600135945092505050565b60008060008060008060c08789031215614f4657600080fd5b863567ffffffffffffffff80821115614f5e57600080fd5b614f6a8a838b01614cfe565b97506020890135915080821115614f8057600080fd5b614f8c8a838b01614d79565b96506040890135915080821115614fa257600080fd5b614fae8a838b01614cfe565b95506060890135915080821115614fc457600080fd5b614fd08a838b01614d79565b94506080890135915080821115614fe657600080fd5b50614ff389828a01614d79565b92505061500260a08801614cee565b90509295509295509295565b600080604080848603121561502257600080fd5b833567ffffffffffffffff8082111561503a57600080fd5b818601915086601f83011261504e57600080fd5b8135602061505e614d1f836156a8565b8083825282820191508286018b848660051b890101111561507e57600080fd5b60005b858110156151095781358781111561509857600080fd5b8801603f81018e136150a957600080fd5b85810135888111156150bd576150bd6157ea565b6150cf601f8201601f19168801615677565b8181528f8c8385010111156150e357600080fd5b818c84018983013760009181018801919091528552509284019290840190600101615081565b5050809850505061511b818901614dd9565b955050505050509250929050565b60006020828403121561513b57600080fd5b813561175481615815565b60006020828403121561515857600080fd5b815161175481615815565b60006020828403121561517557600080fd5b5035919050565b60006020828403121561518e57600080fd5b5051919050565b600080604083850312156151a857600080fd5b825191506020830151614e4c81615823565b600080604083850312156151cd57600080fd5b50508035926020909101359150565b600080604083850312156151ef57600080fd5b505080516020909101519092909150565b60008060006060848603121561521557600080fd5b505081359360208301359350604090920135919050565b6000806000806080858703121561524257600080fd5b505082516020840151604085015160609095015191969095509092509050565b6004811061528057634e487b7160e01b600052602160045260246000fd5b9052565b6000815180845261529c81602086016020860161573c565b601f01601f19169290920160200192915050565b600082516152c281846020870161573c565b9190910192915050565b6001600160a01b0391909116815260200190565b6001600160a01b03929092168252602082015260400190565b6001600160a01b039384168152919092166020820152604081019190915260600190565b6001600160a01b03958616815293909416602084015260408301919091526060820152608081019190915260a00190565b60006060820160018060a01b0386168352602060608185015281865180845260808601915060808160051b870101935082880160005b828110156153b257607f198887030184526153a0868351615284565b95509284019290840190600101615384565b505050505080915050613fca6040830184615262565b6001600160a01b0384168152606081016153e56020830185615262565b826040830152949350505050565b6001600160a01b038516815260208101849052604081018390526080810161541e6060830184615262565b95945050505050565b6020810161160a8284615262565b6020815260006117546020830184615284565b60808152600061545b6080830187615284565b905061546a6020830186615262565b6001600160a01b039390931660408201526060015292915050565b6020808252601390820152722aa8222faba0a6261d103d32b9379030b2323960691b604082015260600190565b6080808252600790820152667265776172647360c81b60a082015260c081016154de6020830186615262565b6001600160a01b0393909316604082015260600152919050565b60208082526026908201527f5061796d656e7453706c69747465723a206163636f756e7420686173206e6f2060408201526573686172657360d01b606082015260800190565b6020808252602b908201527f5061796d656e7453706c69747465723a206163636f756e74206973206e6f742060408201526a191d59481c185e5b595b9d60aa1b606082015260800190565b6020808252601a908201527f535741503a20696e73756666696369656e742062616c616e6365000000000000604082015260600190565b6020808252818101527f4f776e61626c653a2063616c6c6572206973206e6f7420746865206f776e6572604082015260600190565b6020808252601a908201527f464545533a20746f74616c20657863656564696e672031303025000000000000604082015260600190565b6020808252602b908201527f496e697469616c697a61626c653a20636f6e7472616374206973206e6f74206960408201526a6e697469616c697a696e6760a81b606082015260800190565b604051601f8201601f1916810167ffffffffffffffff811182821017156156a0576156a06157ea565b604052919050565b600067ffffffffffffffff8211156156c2576156c26157ea565b5060051b60200190565b600082198211156156df576156df6157be565b500190565b60008261570157634e487b7160e01b600052601260045260246000fd5b500490565b6000816000190483118215151615615720576157206157be565b500290565b600082821015615737576157376157be565b500390565b60005b8381101561575757818101518382015260200161573f565b8381111561415f5750506000910152565b600181811c9082168061577c57607f821691505b6020821081141561579d57634e487b7160e01b600052602260045260246000fd5b50919050565b60006000198214156157b7576157b76157be565b5060010190565b634e487b7160e01b600052601160045260246000fd5b634e487b7160e01b600052603260045260246000fd5b634e487b7160e01b600052604160045260246000fd5b6001600160a01b0381168114613d4557600080fd5b8015158114613d4557600080fd5b60048110613d4557600080fdfeae65b8cdcf70197aae9eec6cad9075662a0b1f140940b20a5d60413e1d05e8b8a164736f6c6343000807000a",
  "devdoc": {
    "kind": "dev",
    "methods": {
      "allowance(address,address)": {
        "details": "See {IERC20-allowance}."
      },
      "approve(address,uint256)": {
        "details": "See {IERC20-approve}. NOTE: If `amount` is the maximum `uint256`, the allowance is not updated on `transferFrom`. This is semantically equivalent to an infinite approval. Requirements: - `spender` cannot be the zero address."
      },
      "balanceOf(address)": {
        "details": "See {IERC20-balanceOf}."
      },
      "decimals()": {
        "details": "Returns the number of decimals used to get its user representation. For example, if `decimals` equals `2`, a balance of `505` tokens should be displayed to a user as `5.05` (`505 / 10 ** 2`). Tokens usually opt for a value of 18, imitating the relationship between Ether and Wei. This is the value {ERC20} uses, unless this function is overridden; NOTE: This information is only used for _display_ purposes: it in no way affects any of the arithmetic of the contract, including {IERC20-balanceOf} and {IERC20-transfer}."
      },
      "decreaseAllowance(address,uint256)": {
        "details": "Atomically decreases the allowance granted to `spender` by the caller. This is an alternative to {approve} that can be used as a mitigation for problems described in {IERC20-approve}. Emits an {Approval} event indicating the updated allowance. Requirements: - `spender` cannot be the zero address. - `spender` must have allowance for the caller of at least `subtractedValue`."
      },
      "increaseAllowance(address,uint256)": {
        "details": "Atomically increases the allowance granted to `spender` by the caller. This is an alternative to {approve} that can be used as a mitigation for problems described in {IERC20-approve}. Emits an {Approval} event indicating the updated allowance. Requirements: - `spender` cannot be the zero address."
      },
      "name()": {
        "details": "Returns the name of the token."
      },
      "owner()": {
        "details": "Returns the address of the current owner."
      },
      "payee(uint256)": {
        "details": "Getter for the address of the payee number `index`."
      },
      "release(address)": {
        "details": "Triggers a transfer to `account` of the amount of Ether they are owed, according to their percentage of the total shares and their previous withdrawals."
      },
      "release(address,address)": {
        "details": "Triggers a transfer to `account` of the amount of `token` tokens they are owed, according to their percentage of the total shares and their previous withdrawals. `token` must be the address of an IERC20 contract."
      },
      "released(address)": {
        "details": "Getter for the amount of Ether already released to a payee."
      },
      "released(address,address)": {
        "details": "Getter for the amount of `token` tokens already released to a payee. `token` should be the address of an IERC20 contract."
      },
      "renounceOwnership()": {
        "details": "Leaves the contract without owner. It will not be possible to call `onlyOwner` functions anymore. Can only be called by the current owner. NOTE: Renouncing ownership will leave the contract without an owner, thereby removing any functionality that is only available to the owner."
      },
      "shares(address)": {
        "details": "Getter for the amount of shares held by an account."
      },
      "symbol()": {
        "details": "Returns the symbol of the token, usually a shorter version of the name."
      },
      "totalReleased()": {
        "details": "Getter for the total amount of Ether already released."
      },
      "totalReleased(address)": {
        "details": "Getter for the total amount of `token` already released. `token` should be the address of an IERC20 contract."
      },
      "totalShares()": {
        "details": "Getter for the total shares held by payees."
      },
      "totalSupply()": {
        "details": "See {IERC20-totalSupply}."
      },
      "transfer(address,uint256)": {
        "details": "See {IERC20-transfer}. Requirements: - `to` cannot be the zero address. - the caller must have a balance of at least `amount`."
      },
      "transferFrom(address,address,uint256)": {
        "details": "See {IERC20-transferFrom}. Emits an {Approval} event indicating the updated allowance. This is not required by the EIP. See the note at the beginning of {ERC20}. NOTE: Does not update the allowance if the current allowance is the maximum `uint256`. Requirements: - `from` and `to` cannot be the zero address. - `from` must have a balance of at least `amount`. - the caller must have allowance for ``from``'s tokens of at least `amount`."
      },
      "transferOwnership(address)": {
        "details": "Transfers ownership of the contract to a new account (`newOwner`). Can only be called by the current owner."
      }
    },
    "version": 1
  },
  "userdoc": {
    "kind": "user",
    "methods": {},
    "version": 1
  },
  "storageLayout": {
    "storage": [
      {
        "astId": 598,
        "contract": "contracts/ZeroXBlock.sol:ZeroXBlock",
        "label": "_initialized",
        "offset": 0,
        "slot": "0",
        "type": "t_bool"
      },
      {
        "astId": 601,
        "contract": "contracts/ZeroXBlock.sol:ZeroXBlock",
        "label": "_initializing",
        "offset": 1,
        "slot": "0",
        "type": "t_bool"
      },
      {
        "astId": 1889,
        "contract": "contracts/ZeroXBlock.sol:ZeroXBlock",
        "label": "__gap",
        "offset": 0,
        "slot": "1",
        "type": "t_array(t_uint256)50_storage"
      },
      {
        "astId": 684,
        "contract": "contracts/ZeroXBlock.sol:ZeroXBlock",
        "label": "_balances",
        "offset": 0,
        "slot": "51",
        "type": "t_mapping(t_address,t_uint256)"
      },
      {
        "astId": 690,
        "contract": "contracts/ZeroXBlock.sol:ZeroXBlock",
        "label": "_allowances",
        "offset": 0,
        "slot": "52",
        "type": "t_mapping(t_address,t_mapping(t_address,t_uint256))"
      },
      {
        "astId": 692,
        "contract": "contracts/ZeroXBlock.sol:ZeroXBlock",
        "label": "_totalSupply",
        "offset": 0,
        "slot": "53",
        "type": "t_uint256"
      },
      {
        "astId": 694,
        "contract": "contracts/ZeroXBlock.sol:ZeroXBlock",
        "label": "_name",
        "offset": 0,
        "slot": "54",
        "type": "t_string_storage"
      },
      {
        "astId": 696,
        "contract": "contracts/ZeroXBlock.sol:ZeroXBlock",
        "label": "_symbol",
        "offset": 0,
        "slot": "55",
        "type": "t_string_storage"
      },
      {
        "astId": 1277,
        "contract": "contracts/ZeroXBlock.sol:ZeroXBlock",
        "label": "__gap",
        "offset": 0,
        "slot": "56",
        "type": "t_array(t_uint256)45_storage"
      },
      {
        "astId": 10,
        "contract": "contracts/ZeroXBlock.sol:ZeroXBlock",
        "label": "_owner",
        "offset": 0,
        "slot": "101",
        "type": "t_address"
      },
      {
        "astId": 122,
        "contract": "contracts/ZeroXBlock.sol:ZeroXBlock",
        "label": "__gap",
        "offset": 0,
        "slot": "102",
        "type": "t_array(t_uint256)49_storage"
      },
      {
        "astId": 163,
        "contract": "contracts/ZeroXBlock.sol:ZeroXBlock",
        "label": "_totalShares",
        "offset": 0,
        "slot": "151",
        "type": "t_uint256"
      },
      {
        "astId": 165,
        "contract": "contracts/ZeroXBlock.sol:ZeroXBlock",
        "label": "_totalReleased",
        "offset": 0,
        "slot": "152",
        "type": "t_uint256"
      },
      {
        "astId": 169,
        "contract": "contracts/ZeroXBlock.sol:ZeroXBlock",
        "label": "_shares",
        "offset": 0,
        "slot": "153",
        "type": "t_mapping(t_address,t_uint256)"
      },
      {
        "astId": 173,
        "contract": "contracts/ZeroXBlock.sol:ZeroXBlock",
        "label": "_released",
        "offset": 0,
        "slot": "154",
        "type": "t_mapping(t_address,t_uint256)"
      },
      {
        "astId": 176,
        "contract": "contracts/ZeroXBlock.sol:ZeroXBlock",
        "label": "_payees",
        "offset": 0,
        "slot": "155",
        "type": "t_array(t_address)dyn_storage"
      },
      {
        "astId": 181,
        "contract": "contracts/ZeroXBlock.sol:ZeroXBlock",
        "label": "_erc20TotalReleased",
        "offset": 0,
        "slot": "156",
        "type": "t_mapping(t_contract(IERC20Upgradeable)1356,t_uint256)"
      },
      {
        "astId": 188,
        "contract": "contracts/ZeroXBlock.sol:ZeroXBlock",
        "label": "_erc20Released",
        "offset": 0,
        "slot": "157",
        "type": "t_mapping(t_contract(IERC20Upgradeable)1356,t_mapping(t_address,t_uint256))"
      },
      {
        "astId": 590,
        "contract": "contracts/ZeroXBlock.sol:ZeroXBlock",
        "label": "__gap",
        "offset": 0,
        "slot": "158",
        "type": "t_array(t_uint256)43_storage"
      },
      {
        "astId": 3107,
        "contract": "contracts/ZeroXBlock.sol:ZeroXBlock",
        "label": "_crm",
        "offset": 0,
        "slot": "201",
        "type": "t_contract(CONTRewardManagement)7467"
      },
      {
        "astId": 3110,
        "contract": "contracts/ZeroXBlock.sol:ZeroXBlock",
        "label": "uniswapV2Router",
        "offset": 0,
        "slot": "202",
        "type": "t_contract(IJoeRouter02)10597"
      },
      {
        "astId": 3115,
        "contract": "contracts/ZeroXBlock.sol:ZeroXBlock",
        "label": "ownedContsLimit",
        "offset": 0,
        "slot": "203",
        "type": "t_uint256"
      },
      {
        "astId": 3117,
        "contract": "contracts/ZeroXBlock.sol:ZeroXBlock",
        "label": "mintContLimit",
        "offset": 0,
        "slot": "204",
        "type": "t_uint256"
      },
      {
        "astId": 3119,
        "contract": "contracts/ZeroXBlock.sol:ZeroXBlock",
        "label": "uniswapV2Pair",
        "offset": 0,
        "slot": "205",
        "type": "t_address"
      },
      {
        "astId": 3121,
        "contract": "contracts/ZeroXBlock.sol:ZeroXBlock",
        "label": "totalTokensPaidForMinting",
        "offset": 0,
        "slot": "206",
        "type": "t_uint256"
      },
      {
        "astId": 3123,
        "contract": "contracts/ZeroXBlock.sol:ZeroXBlock",
        "label": "developmentFundPool",
        "offset": 0,
        "slot": "207",
        "type": "t_address"
      },
      {
        "astId": 3125,
        "contract": "contracts/ZeroXBlock.sol:ZeroXBlock",
        "label": "treasuryPool",
        "offset": 0,
        "slot": "208",
        "type": "t_address"
      },
      {
        "astId": 3127,
        "contract": "contracts/ZeroXBlock.sol:ZeroXBlock",
        "label": "rewardsPool",
        "offset": 0,
        "slot": "209",
        "type": "t_address"
      },
      {
        "astId": 3129,
        "contract": "contracts/ZeroXBlock.sol:ZeroXBlock",
        "label": "liquidityPool",
        "offset": 0,
        "slot": "210",
        "type": "t_address"
      },
      {
        "astId": 3131,
        "contract": "contracts/ZeroXBlock.sol:ZeroXBlock",
        "label": "rewardsFee",
        "offset": 0,
        "slot": "211",
        "type": "t_uint256"
      },
      {
        "astId": 3133,
        "contract": "contracts/ZeroXBlock.sol:ZeroXBlock",
        "label": "treasuryFee",
        "offset": 0,
        "slot": "212",
        "type": "t_uint256"
      },
      {
        "astId": 3135,
        "contract": "contracts/ZeroXBlock.sol:ZeroXBlock",
        "label": "liquidityPoolFee",
        "offset": 0,
        "slot": "213",
        "type": "t_uint256"
      },
      {
        "astId": 3137,
        "contract": "contracts/ZeroXBlock.sol:ZeroXBlock",
        "label": "developmentFee",
        "offset": 0,
        "slot": "214",
        "type": "t_uint256"
      },
      {
        "astId": 3139,
        "contract": "contracts/ZeroXBlock.sol:ZeroXBlock",
        "label": "totalFees",
        "offset": 0,
        "slot": "215",
        "type": "t_uint256"
      },
      {
        "astId": 3141,
        "contract": "contracts/ZeroXBlock.sol:ZeroXBlock",
        "label": "cashoutFee",
        "offset": 0,
        "slot": "216",
        "type": "t_uint256"
      },
      {
        "astId": 3143,
        "contract": "contracts/ZeroXBlock.sol:ZeroXBlock",
        "label": "enableAutoSwapTreasury",
        "offset": 0,
        "slot": "217",
        "type": "t_bool"
      },
      {
        "astId": 3145,
        "contract": "contracts/ZeroXBlock.sol:ZeroXBlock",
        "label": "enableAutoSwapDevFund",
        "offset": 1,
        "slot": "217",
        "type": "t_bool"
      },
      {
        "astId": 3147,
        "contract": "contracts/ZeroXBlock.sol:ZeroXBlock",
        "label": "usdcToken",
        "offset": 2,
        "slot": "217",
        "type": "t_address"
      },
      {
        "astId": 3149,
        "contract": "contracts/ZeroXBlock.sol:ZeroXBlock",
        "label": "antiBotEnabled",
        "offset": 22,
        "slot": "217",
        "type": "t_bool"
      },
      {
        "astId": 3151,
        "contract": "contracts/ZeroXBlock.sol:ZeroXBlock",
        "label": "launchBuyLimit",
        "offset": 0,
        "slot": "218",
        "type": "t_uint256"
      },
      {
        "astId": 3153,
        "contract": "contracts/ZeroXBlock.sol:ZeroXBlock",
        "label": "launchBuyTimeout",
        "offset": 0,
        "slot": "219",
        "type": "t_uint256"
      },
      {
        "astId": 3157,
        "contract": "contracts/ZeroXBlock.sol:ZeroXBlock",
        "label": "_lastBuyOnLaunch",
        "offset": 0,
        "slot": "220",
        "type": "t_mapping(t_address,t_uint256)"
      },
      {
        "astId": 3161,
        "contract": "contracts/ZeroXBlock.sol:ZeroXBlock",
        "label": "_isBlacklisted",
        "offset": 0,
        "slot": "221",
        "type": "t_mapping(t_address,t_bool)"
      },
      {
        "astId": 3165,
        "contract": "contracts/ZeroXBlock.sol:ZeroXBlock",
        "label": "automatedMarketMakerPairs",
        "offset": 0,
        "slot": "222",
        "type": "t_mapping(t_address,t_bool)"
      },
      {
        "astId": 3167,
        "contract": "contracts/ZeroXBlock.sol:ZeroXBlock",
        "label": "enableCashout",
        "offset": 0,
        "slot": "223",
        "type": "t_bool"
      },
      {
        "astId": 3169,
        "contract": "contracts/ZeroXBlock.sol:ZeroXBlock",
        "label": "enableMintConts",
        "offset": 1,
        "slot": "223",
        "type": "t_bool"
      },
      {
        "astId": 3171,
        "contract": "contracts/ZeroXBlock.sol:ZeroXBlock",
        "label": "cashoutTaxPool",
        "offset": 2,
        "slot": "223",
        "type": "t_address"
      },
      {
        "astId": 3174,
        "contract": "contracts/ZeroXBlock.sol:ZeroXBlock",
        "label": "_liqRouter",
        "offset": 0,
        "slot": "224",
        "type": "t_contract(LiquidityRouter)8876"
      },
      {
        "astId": 3176,
        "contract": "contracts/ZeroXBlock.sol:ZeroXBlock",
        "label": "enableAutoSwapCashout",
        "offset": 20,
        "slot": "224",
        "type": "t_bool"
      }
    ],
    "types": {
      "t_address": {
        "encoding": "inplace",
        "label": "address",
        "numberOfBytes": "20"
      },
      "t_array(t_address)dyn_storage": {
        "base": "t_address",
        "encoding": "dynamic_array",
        "label": "address[]",
        "numberOfBytes": "32"
      },
      "t_array(t_uint256)43_storage": {
        "base": "t_uint256",
        "encoding": "inplace",
        "label": "uint256[43]",
        "numberOfBytes": "1376"
      },
      "t_array(t_uint256)45_storage": {
        "base": "t_uint256",
        "encoding": "inplace",
        "label": "uint256[45]",
        "numberOfBytes": "1440"
      },
      "t_array(t_uint256)49_storage": {
        "base": "t_uint256",
        "encoding": "inplace",
        "label": "uint256[49]",
        "numberOfBytes": "1568"
      },
      "t_array(t_uint256)50_storage": {
        "base": "t_uint256",
        "encoding": "inplace",
        "label": "uint256[50]",
        "numberOfBytes": "1600"
      },
      "t_bool": {
        "encoding": "inplace",
        "label": "bool",
        "numberOfBytes": "1"
      },
      "t_contract(CONTRewardManagement)7467": {
        "encoding": "inplace",
        "label": "contract CONTRewardManagement",
        "numberOfBytes": "20"
      },
      "t_contract(IERC20Upgradeable)1356": {
        "encoding": "inplace",
        "label": "contract IERC20Upgradeable",
        "numberOfBytes": "20"
      },
      "t_contract(IJoeRouter02)10597": {
        "encoding": "inplace",
        "label": "contract IJoeRouter02",
        "numberOfBytes": "20"
      },
      "t_contract(LiquidityRouter)8876": {
        "encoding": "inplace",
        "label": "contract LiquidityRouter",
        "numberOfBytes": "20"
      },
      "t_mapping(t_address,t_bool)": {
        "encoding": "mapping",
        "key": "t_address",
        "label": "mapping(address => bool)",
        "numberOfBytes": "32",
        "value": "t_bool"
      },
      "t_mapping(t_address,t_mapping(t_address,t_uint256))": {
        "encoding": "mapping",
        "key": "t_address",
        "label": "mapping(address => mapping(address => uint256))",
        "numberOfBytes": "32",
        "value": "t_mapping(t_address,t_uint256)"
      },
      "t_mapping(t_address,t_uint256)": {
        "encoding": "mapping",
        "key": "t_address",
        "label": "mapping(address => uint256)",
        "numberOfBytes": "32",
        "value": "t_uint256"
      },
      "t_mapping(t_contract(IERC20Upgradeable)1356,t_mapping(t_address,t_uint256))": {
        "encoding": "mapping",
        "key": "t_contract(IERC20Upgradeable)1356",
        "label": "mapping(contract IERC20Upgradeable => mapping(address => uint256))",
        "numberOfBytes": "32",
        "value": "t_mapping(t_address,t_uint256)"
      },
      "t_mapping(t_contract(IERC20Upgradeable)1356,t_uint256)": {
        "encoding": "mapping",
        "key": "t_contract(IERC20Upgradeable)1356",
        "label": "mapping(contract IERC20Upgradeable => uint256)",
        "numberOfBytes": "32",
        "value": "t_uint256"
      },
      "t_string_storage": {
        "encoding": "bytes",
        "label": "string",
        "numberOfBytes": "32"
      },
      "t_uint256": {
        "encoding": "inplace",
        "label": "uint256",
        "numberOfBytes": "32"
      }
    }
  }
}