{
  "address": "0x8fa35E5431Eb3F4402825a9Ae6235A57997302C3",
  "abi": [
    {
      "anonymous": false,
      "inputs": [
        {
          "indexed": true,
          "internalType": "address",
          "name": "owner",
          "type": "address"
        },
        {
          "indexed": true,
          "internalType": "address",
          "name": "spender",
          "type": "address"
        },
        {
          "indexed": false,
          "internalType": "uint256",
          "name": "value",
          "type": "uint256"
        }
      ],
      "name": "Approval",
      "type": "event"
    },
    {
      "anonymous": false,
      "inputs": [
        {
          "indexed": false,
          "internalType": "address",
          "name": "sender",
          "type": "address"
        }
      ],
      "name": "ContsMinted",
      "type": "event"
    },
    {
      "anonymous": false,
      "inputs": [
        {
          "indexed": true,
          "internalType": "contract IERC20Upgradeable",
          "name": "token",
          "type": "address"
        },
        {
          "indexed": false,
          "internalType": "address",
          "name": "to",
          "type": "address"
        },
        {
          "indexed": false,
          "internalType": "uint256",
          "name": "amount",
          "type": "uint256"
        }
      ],
      "name": "ERC20PaymentReleased",
      "type": "event"
    },
    {
      "anonymous": false,
      "inputs": [
        {
          "indexed": true,
          "internalType": "address",
          "name": "previousOwner",
          "type": "address"
        },
        {
          "indexed": true,
          "internalType": "address",
          "name": "newOwner",
          "type": "address"
        }
      ],
      "name": "OwnershipTransferred",
      "type": "event"
    },
    {
      "anonymous": false,
      "inputs": [
        {
          "indexed": false,
          "internalType": "address",
          "name": "account",
          "type": "address"
        },
        {
          "indexed": false,
          "internalType": "uint256",
          "name": "shares",
          "type": "uint256"
        }
      ],
      "name": "PayeeAdded",
      "type": "event"
    },
    {
      "anonymous": false,
      "inputs": [
        {
          "indexed": false,
          "internalType": "address",
          "name": "from",
          "type": "address"
        },
        {
          "indexed": false,
          "internalType": "uint256",
          "name": "amount",
          "type": "uint256"
        }
      ],
      "name": "PaymentReceived",
      "type": "event"
    },
    {
      "anonymous": false,
      "inputs": [
        {
          "indexed": false,
          "internalType": "address",
          "name": "to",
          "type": "address"
        },
        {
          "indexed": false,
          "internalType": "uint256",
          "name": "amount",
          "type": "uint256"
        }
      ],
      "name": "PaymentReleased",
      "type": "event"
    },
    {
      "anonymous": false,
      "inputs": [
        {
          "indexed": false,
          "internalType": "address",
          "name": "sender",
          "type": "address"
        }
      ],
      "name": "RewardCashoutAll",
      "type": "event"
    },
    {
      "anonymous": false,
      "inputs": [
        {
          "indexed": false,
          "internalType": "address",
          "name": "sender",
          "type": "address"
        },
        {
          "indexed": false,
          "internalType": "uint256",
          "name": "index",
          "type": "uint256"
        }
      ],
      "name": "RewardCashoutOne",
      "type": "event"
    },
    {
      "anonymous": false,
      "inputs": [
        {
          "indexed": true,
          "internalType": "address",
          "name": "from",
          "type": "address"
        },
        {
          "indexed": true,
          "internalType": "address",
          "name": "to",
          "type": "address"
        },
        {
          "indexed": false,
          "internalType": "uint256",
          "name": "value",
          "type": "uint256"
        }
      ],
      "name": "Transfer",
      "type": "event"
    },
    {
      "inputs": [],
      "name": "_crm",
      "outputs": [
        {
          "internalType": "contract CONTRewardManagement",
          "name": "",
          "type": "address"
        }
      ],
      "stateMutability": "view",
      "type": "function"
    },
    {
      "inputs": [
        {
          "internalType": "address",
          "name": "",
          "type": "address"
        }
      ],
      "name": "_isBlacklisted",
      "outputs": [
        {
          "internalType": "bool",
          "name": "",
          "type": "bool"
        }
      ],
      "stateMutability": "view",
      "type": "function"
    },
    {
      "inputs": [],
      "name": "_liqRouter",
      "outputs": [
        {
          "internalType": "contract LiquidityRouter",
          "name": "",
          "type": "address"
        }
      ],
      "stateMutability": "view",
      "type": "function"
    },
    {
      "inputs": [
        {
          "internalType": "address",
          "name": "owner",
          "type": "address"
        },
        {
          "internalType": "address",
          "name": "spender",
          "type": "address"
        }
      ],
      "name": "allowance",
      "outputs": [
        {
          "internalType": "uint256",
          "name": "",
          "type": "uint256"
        }
      ],
      "stateMutability": "view",
      "type": "function"
    },
    {
      "inputs": [
        {
          "internalType": "address",
          "name": "spender",
          "type": "address"
        },
        {
          "internalType": "uint256",
          "name": "amount",
          "type": "uint256"
        }
      ],
      "name": "approve",
      "outputs": [
        {
          "internalType": "bool",
          "name": "",
          "type": "bool"
        }
      ],
      "stateMutability": "nonpayable",
      "type": "function"
    },
    {
      "inputs": [
        {
          "internalType": "address",
          "name": "account",
          "type": "address"
        }
      ],
      "name": "balanceOf",
      "outputs": [
        {
          "internalType": "uint256",
          "name": "",
          "type": "uint256"
        }
      ],
      "stateMutability": "view",
      "type": "function"
    },
    {
      "inputs": [
        {
          "internalType": "enum ContType",
          "name": "_ct",
          "type": "uint8"
        }
      ],
      "name": "breakevenPerType",
      "outputs": [
        {
          "internalType": "uint256",
          "name": "",
          "type": "uint256"
        }
      ],
      "stateMutability": "view",
      "type": "function"
    },
    {
      "inputs": [],
      "name": "cashoutAll",
      "outputs": [],
      "stateMutability": "nonpayable",
      "type": "function"
    },
    {
      "inputs": [],
      "name": "cashoutFee",
      "outputs": [
        {
          "internalType": "uint256",
          "name": "",
          "type": "uint256"
        }
      ],
      "stateMutability": "view",
      "type": "function"
    },
    {
      "inputs": [
        {
          "internalType": "uint256",
          "name": "_contIndex",
          "type": "uint256"
        }
      ],
      "name": "cashoutReward",
      "outputs": [],
      "stateMutability": "nonpayable",
      "type": "function"
    },
    {
      "inputs": [
        {
          "internalType": "bool",
          "name": "newVal",
          "type": "bool"
        }
      ],
      "name": "changeEnableAutoSwapDevFund",
      "outputs": [],
      "stateMutability": "nonpayable",
      "type": "function"
    },
    {
      "inputs": [
        {
          "internalType": "bool",
          "name": "newVal",
          "type": "bool"
        }
      ],
      "name": "changeEnableAutoSwapTreasury",
      "outputs": [],
      "stateMutability": "nonpayable",
      "type": "function"
    },
    {
      "inputs": [
        {
          "internalType": "enum ContType",
          "name": "_ct",
          "type": "uint8"
        }
      ],
      "name": "claimedRewardsPerType",
      "outputs": [
        {
          "internalType": "uint256",
          "name": "",
          "type": "uint256"
        }
      ],
      "stateMutability": "view",
      "type": "function"
    },
    {
      "inputs": [],
      "name": "decimals",
      "outputs": [
        {
          "internalType": "uint8",
          "name": "",
          "type": "uint8"
        }
      ],
      "stateMutability": "view",
      "type": "function"
    },
    {
      "inputs": [
        {
          "internalType": "address",
          "name": "spender",
          "type": "address"
        },
        {
          "internalType": "uint256",
          "name": "subtractedValue",
          "type": "uint256"
        }
      ],
      "name": "decreaseAllowance",
      "outputs": [
        {
          "internalType": "bool",
          "name": "",
          "type": "bool"
        }
      ],
      "stateMutability": "nonpayable",
      "type": "function"
    },
    {
      "inputs": [],
      "name": "developmentFee",
      "outputs": [
        {
          "internalType": "uint256",
          "name": "",
          "type": "uint256"
        }
      ],
      "stateMutability": "view",
      "type": "function"
    },
    {
      "inputs": [],
      "name": "developmentFundPool",
      "outputs": [
        {
          "internalType": "address",
          "name": "",
          "type": "address"
        }
      ],
      "stateMutability": "view",
      "type": "function"
    },
    {
      "inputs": [],
      "name": "enableAutoSwapDevFund",
      "outputs": [
        {
          "internalType": "bool",
          "name": "",
          "type": "bool"
        }
      ],
      "stateMutability": "view",
      "type": "function"
    },
    {
      "inputs": [],
      "name": "enableAutoSwapTreasury",
      "outputs": [
        {
          "internalType": "bool",
          "name": "",
          "type": "bool"
        }
      ],
      "stateMutability": "view",
      "type": "function"
    },
    {
      "inputs": [],
      "name": "enableCashout",
      "outputs": [
        {
          "internalType": "bool",
          "name": "",
          "type": "bool"
        }
      ],
      "stateMutability": "view",
      "type": "function"
    },
    {
      "inputs": [],
      "name": "enableMintConts",
      "outputs": [
        {
          "internalType": "bool",
          "name": "",
          "type": "bool"
        }
      ],
      "stateMutability": "view",
      "type": "function"
    },
    {
      "inputs": [
        {
          "internalType": "enum ContType",
          "name": "_cType",
          "type": "uint8"
        }
      ],
      "name": "getContPrice",
      "outputs": [
        {
          "internalType": "uint256",
          "name": "",
          "type": "uint256"
        }
      ],
      "stateMutability": "view",
      "type": "function"
    },
    {
      "inputs": [],
      "name": "getContsCreationTime",
      "outputs": [
        {
          "internalType": "string",
          "name": "",
          "type": "string"
        }
      ],
      "stateMutability": "view",
      "type": "function"
    },
    {
      "inputs": [],
      "name": "getContsCurrentAPR",
      "outputs": [
        {
          "internalType": "string",
          "name": "",
          "type": "string"
        }
      ],
      "stateMutability": "view",
      "type": "function"
    },
    {
      "inputs": [],
      "name": "getContsInitialAPR",
      "outputs": [
        {
          "internalType": "string",
          "name": "",
          "type": "string"
        }
      ],
      "stateMutability": "view",
      "type": "function"
    },
    {
      "inputs": [],
      "name": "getContsLastCashoutTime",
      "outputs": [
        {
          "internalType": "string",
          "name": "",
          "type": "string"
        }
      ],
      "stateMutability": "view",
      "type": "function"
    },
    {
      "inputs": [],
      "name": "getContsNames",
      "outputs": [
        {
          "internalType": "string",
          "name": "",
          "type": "string"
        }
      ],
      "stateMutability": "view",
      "type": "function"
    },
    {
      "inputs": [],
      "name": "getContsRewards",
      "outputs": [
        {
          "internalType": "string",
          "name": "",
          "type": "string"
        }
      ],
      "stateMutability": "view",
      "type": "function"
    },
    {
      "inputs": [],
      "name": "getContsTypes",
      "outputs": [
        {
          "internalType": "string",
          "name": "",
          "type": "string"
        }
      ],
      "stateMutability": "view",
      "type": "function"
    },
    {
      "inputs": [
        {
          "internalType": "enum ContType",
          "name": "_cType",
          "type": "uint8"
        }
      ],
      "name": "getRewardAPRPerCont",
      "outputs": [
        {
          "internalType": "uint256",
          "name": "",
          "type": "uint256"
        }
      ],
      "stateMutability": "view",
      "type": "function"
    },
    {
      "inputs": [],
      "name": "getRewardAmount",
      "outputs": [
        {
          "internalType": "uint256",
          "name": "",
          "type": "uint256"
        }
      ],
      "stateMutability": "view",
      "type": "function"
    },
    {
      "inputs": [
        {
          "internalType": "address",
          "name": "spender",
          "type": "address"
        },
        {
          "internalType": "uint256",
          "name": "addedValue",
          "type": "uint256"
        }
      ],
      "name": "increaseAllowance",
      "outputs": [
        {
          "internalType": "bool",
          "name": "",
          "type": "bool"
        }
      ],
      "stateMutability": "nonpayable",
      "type": "function"
    },
    {
      "inputs": [
        {
          "internalType": "address[]",
          "name": "payees",
          "type": "address[]"
        },
        {
          "internalType": "uint256[]",
          "name": "shares",
          "type": "uint256[]"
        },
        {
          "internalType": "address[]",
          "name": "addresses",
          "type": "address[]"
        },
        {
          "internalType": "uint256[]",
          "name": "balances",
          "type": "uint256[]"
        },
        {
          "internalType": "uint256[]",
          "name": "fees",
          "type": "uint256[]"
        },
        {
          "internalType": "address",
          "name": "usdcAddr",
          "type": "address"
        }
      ],
      "name": "initialize",
      "outputs": [],
      "stateMutability": "nonpayable",
      "type": "function"
    },
    {
      "inputs": [],
      "name": "liquidityPool",
      "outputs": [
        {
          "internalType": "address",
          "name": "",
          "type": "address"
        }
      ],
      "stateMutability": "view",
      "type": "function"
    },
    {
      "inputs": [],
      "name": "liquidityPoolFee",
      "outputs": [
        {
          "internalType": "uint256",
          "name": "",
          "type": "uint256"
        }
      ],
      "stateMutability": "view",
      "type": "function"
    },
    {
      "inputs": [
        {
          "internalType": "string[]",
          "name": "names",
          "type": "string[]"
        },
        {
          "internalType": "enum ContType",
          "name": "_cType",
          "type": "uint8"
        }
      ],
      "name": "mintConts",
      "outputs": [],
      "stateMutability": "nonpayable",
      "type": "function"
    },
    {
      "inputs": [],
      "name": "name",
      "outputs": [
        {
          "internalType": "string",
          "name": "",
          "type": "string"
        }
      ],
      "stateMutability": "view",
      "type": "function"
    },
    {
      "inputs": [],
      "name": "ownedContsLimit",
      "outputs": [
        {
          "internalType": "uint256",
          "name": "",
          "type": "uint256"
        }
      ],
      "stateMutability": "view",
      "type": "function"
    },
    {
      "inputs": [],
      "name": "owner",
      "outputs": [
        {
          "internalType": "address",
          "name": "",
          "type": "address"
        }
      ],
      "stateMutability": "view",
      "type": "function"
    },
    {
      "inputs": [
        {
          "internalType": "uint256",
          "name": "index",
          "type": "uint256"
        }
      ],
      "name": "payee",
      "outputs": [
        {
          "internalType": "address",
          "name": "",
          "type": "address"
        }
      ],
      "stateMutability": "view",
      "type": "function"
    },
    {
      "inputs": [
        {
          "internalType": "address payable",
          "name": "account",
          "type": "address"
        }
      ],
      "name": "release",
      "outputs": [],
      "stateMutability": "nonpayable",
      "type": "function"
    },
    {
      "inputs": [
        {
          "internalType": "contract IERC20Upgradeable",
          "name": "token",
          "type": "address"
        },
        {
          "internalType": "address",
          "name": "account",
          "type": "address"
        }
      ],
      "name": "release",
      "outputs": [],
      "stateMutability": "nonpayable",
      "type": "function"
    },
    {
      "inputs": [
        {
          "internalType": "contract IERC20Upgradeable",
          "name": "token",
          "type": "address"
        },
        {
          "internalType": "address",
          "name": "account",
          "type": "address"
        }
      ],
      "name": "released",
      "outputs": [
        {
          "internalType": "uint256",
          "name": "",
          "type": "uint256"
        }
      ],
      "stateMutability": "view",
      "type": "function"
    },
    {
      "inputs": [
        {
          "internalType": "address",
          "name": "account",
          "type": "address"
        }
      ],
      "name": "released",
      "outputs": [
        {
          "internalType": "uint256",
          "name": "",
          "type": "uint256"
        }
      ],
      "stateMutability": "view",
      "type": "function"
    },
    {
      "inputs": [],
      "name": "renounceOwnership",
      "outputs": [],
      "stateMutability": "nonpayable",
      "type": "function"
    },
    {
      "inputs": [
        {
          "internalType": "address",
          "name": "userAddr",
          "type": "address"
        },
        {
          "internalType": "uint256",
          "name": "tokens",
          "type": "uint256"
        }
      ],
      "name": "rescueMissentToken",
      "outputs": [],
      "stateMutability": "nonpayable",
      "type": "function"
    },
    {
      "inputs": [],
      "name": "rewardsFee",
      "outputs": [
        {
          "internalType": "uint256",
          "name": "",
          "type": "uint256"
        }
      ],
      "stateMutability": "view",
      "type": "function"
    },
    {
      "inputs": [],
      "name": "rewardsPool",
      "outputs": [
        {
          "internalType": "address",
          "name": "",
          "type": "address"
        }
      ],
      "stateMutability": "view",
      "type": "function"
    },
    {
      "inputs": [
        {
          "internalType": "address",
          "name": "account",
          "type": "address"
        },
        {
          "internalType": "bool",
          "name": "value",
          "type": "bool"
        }
      ],
      "name": "setBlacklistStatus",
      "outputs": [],
      "stateMutability": "nonpayable",
      "type": "function"
    },
    {
      "inputs": [
        {
          "internalType": "address",
          "name": "crm",
          "type": "address"
        }
      ],
      "name": "setContManagement",
      "outputs": [],
      "stateMutability": "nonpayable",
      "type": "function"
    },
    {
      "inputs": [
        {
          "internalType": "bool",
          "name": "_enableCashout",
          "type": "bool"
        }
      ],
      "name": "setEnableCashout",
      "outputs": [],
      "stateMutability": "nonpayable",
      "type": "function"
    },
    {
      "inputs": [
        {
          "internalType": "bool",
          "name": "value",
          "type": "bool"
        }
      ],
      "name": "setEnableMintConts",
      "outputs": [],
      "stateMutability": "nonpayable",
      "type": "function"
    },
    {
      "inputs": [
        {
          "internalType": "address",
          "name": "liqRouter",
          "type": "address"
        }
      ],
      "name": "setLiquidityRouter",
      "outputs": [],
      "stateMutability": "nonpayable",
      "type": "function"
    },
    {
      "inputs": [
        {
          "internalType": "address",
          "name": "newAddress",
          "type": "address"
        }
      ],
      "name": "setUSDCAddress",
      "outputs": [],
      "stateMutability": "nonpayable",
      "type": "function"
    },
    {
      "inputs": [
        {
          "internalType": "address",
          "name": "account",
          "type": "address"
        }
      ],
      "name": "shares",
      "outputs": [
        {
          "internalType": "uint256",
          "name": "",
          "type": "uint256"
        }
      ],
      "stateMutability": "view",
      "type": "function"
    },
    {
      "inputs": [
        {
          "internalType": "address",
          "name": "tokenAddr",
          "type": "address"
        },
        {
          "internalType": "uint256",
          "name": "amountOut",
          "type": "uint256"
        },
        {
          "internalType": "uint256",
          "name": "slippageTolerance",
          "type": "uint256"
        },
        {
          "internalType": "uint256",
          "name": "wait",
          "type": "uint256"
        }
      ],
      "name": "swap0xBForExactToken",
      "outputs": [],
      "stateMutability": "nonpayable",
      "type": "function"
    },
    {
      "inputs": [
        {
          "internalType": "uint256",
          "name": "amountOut",
          "type": "uint256"
        },
        {
          "internalType": "uint256",
          "name": "slippageTolerance",
          "type": "uint256"
        },
        {
          "internalType": "uint256",
          "name": "wait",
          "type": "uint256"
        }
      ],
      "name": "swapAVAXForExact0xB",
      "outputs": [],
      "stateMutability": "payable",
      "type": "function"
    },
    {
      "inputs": [
        {
          "internalType": "address",
          "name": "tokenAddr",
          "type": "address"
        },
        {
          "internalType": "uint256",
          "name": "amountIn",
          "type": "uint256"
        },
        {
          "internalType": "uint256",
          "name": "slippageTolerance",
          "type": "uint256"
        },
        {
          "internalType": "uint256",
          "name": "wait",
          "type": "uint256"
        }
      ],
      "name": "swapExact0xBForToken",
      "outputs": [],
      "stateMutability": "nonpayable",
      "type": "function"
    },
    {
      "inputs": [
        {
          "internalType": "uint256",
          "name": "slippageTolerance",
          "type": "uint256"
        },
        {
          "internalType": "uint256",
          "name": "wait",
          "type": "uint256"
        }
      ],
      "name": "swapExactAVAXFor0xB",
      "outputs": [],
      "stateMutability": "payable",
      "type": "function"
    },
    {
      "inputs": [
        {
          "internalType": "address",
          "name": "tokenAddr",
          "type": "address"
        },
        {
          "internalType": "uint256",
          "name": "amountIn",
          "type": "uint256"
        },
        {
          "internalType": "uint256",
          "name": "slippageTolerance",
          "type": "uint256"
        },
        {
          "internalType": "uint256",
          "name": "wait",
          "type": "uint256"
        }
      ],
      "name": "swapExactTokenFor0xB",
      "outputs": [],
      "stateMutability": "nonpayable",
      "type": "function"
    },
    {
      "inputs": [],
      "name": "swapFee",
      "outputs": [
        {
          "internalType": "uint256",
          "name": "",
          "type": "uint256"
        }
      ],
      "stateMutability": "view",
      "type": "function"
    },
    {
      "inputs": [
        {
          "internalType": "address",
          "name": "tokenAddr",
          "type": "address"
        },
        {
          "internalType": "uint256",
          "name": "amountOut",
          "type": "uint256"
        },
        {
          "internalType": "uint256",
          "name": "slippageTolerance",
          "type": "uint256"
        },
        {
          "internalType": "uint256",
          "name": "wait",
          "type": "uint256"
        }
      ],
      "name": "swapTokenForExact0xB",
      "outputs": [],
      "stateMutability": "nonpayable",
      "type": "function"
    },
    {
      "inputs": [],
      "name": "symbol",
      "outputs": [
        {
          "internalType": "string",
          "name": "",
          "type": "string"
        }
      ],
      "stateMutability": "view",
      "type": "function"
    },
    {
      "inputs": [
        {
          "internalType": "enum ContType",
          "name": "_ct",
          "type": "uint8"
        }
      ],
      "name": "tokenReceivedPerType",
      "outputs": [
        {
          "internalType": "uint256",
          "name": "",
          "type": "uint256"
        }
      ],
      "stateMutability": "view",
      "type": "function"
    },
    {
      "inputs": [
        {
          "internalType": "enum ContType",
          "name": "_ct",
          "type": "uint8"
        }
      ],
      "name": "totalContsPerType",
      "outputs": [
        {
          "internalType": "uint256",
          "name": "",
          "type": "uint256"
        }
      ],
      "stateMutability": "view",
      "type": "function"
    },
    {
      "inputs": [],
      "name": "totalFees",
      "outputs": [
        {
          "internalType": "uint256",
          "name": "",
          "type": "uint256"
        }
      ],
      "stateMutability": "view",
      "type": "function"
    },
    {
      "inputs": [
        {
          "internalType": "contract IERC20Upgradeable",
          "name": "token",
          "type": "address"
        }
      ],
      "name": "totalReleased",
      "outputs": [
        {
          "internalType": "uint256",
          "name": "",
          "type": "uint256"
        }
      ],
      "stateMutability": "view",
      "type": "function"
    },
    {
      "inputs": [],
      "name": "totalReleased",
      "outputs": [
        {
          "internalType": "uint256",
          "name": "",
          "type": "uint256"
        }
      ],
      "stateMutability": "view",
      "type": "function"
    },
    {
      "inputs": [],
      "name": "totalShares",
      "outputs": [
        {
          "internalType": "uint256",
          "name": "",
          "type": "uint256"
        }
      ],
      "stateMutability": "view",
      "type": "function"
    },
    {
      "inputs": [],
      "name": "totalSupply",
      "outputs": [
        {
          "internalType": "uint256",
          "name": "",
          "type": "uint256"
        }
      ],
      "stateMutability": "view",
      "type": "function"
    },
    {
      "inputs": [],
      "name": "totalTokensPaidForMinting",
      "outputs": [
        {
          "internalType": "uint256",
          "name": "",
          "type": "uint256"
        }
      ],
      "stateMutability": "view",
      "type": "function"
    },
    {
      "inputs": [
        {
          "internalType": "address",
          "name": "to",
          "type": "address"
        },
        {
          "internalType": "uint256",
          "name": "amount",
          "type": "uint256"
        }
      ],
      "name": "transfer",
      "outputs": [
        {
          "internalType": "bool",
          "name": "",
          "type": "bool"
        }
      ],
      "stateMutability": "nonpayable",
      "type": "function"
    },
    {
      "inputs": [
        {
          "internalType": "address",
          "name": "from",
          "type": "address"
        },
        {
          "internalType": "address",
          "name": "to",
          "type": "address"
        },
        {
          "internalType": "uint256",
          "name": "amount",
          "type": "uint256"
        }
      ],
      "name": "transferFrom",
      "outputs": [
        {
          "internalType": "bool",
          "name": "",
          "type": "bool"
        }
      ],
      "stateMutability": "nonpayable",
      "type": "function"
    },
    {
      "inputs": [
        {
          "internalType": "address",
          "name": "newOwner",
          "type": "address"
        }
      ],
      "name": "transferOwnership",
      "outputs": [],
      "stateMutability": "nonpayable",
      "type": "function"
    },
    {
      "inputs": [],
      "name": "treasuryFee",
      "outputs": [
        {
          "internalType": "uint256",
          "name": "",
          "type": "uint256"
        }
      ],
      "stateMutability": "view",
      "type": "function"
    },
    {
      "inputs": [],
      "name": "treasuryPool",
      "outputs": [
        {
          "internalType": "address",
          "name": "",
          "type": "address"
        }
      ],
      "stateMutability": "view",
      "type": "function"
    },
    {
      "inputs": [
        {
          "internalType": "uint256",
          "name": "value",
          "type": "uint256"
        }
      ],
      "name": "updateCashoutFee",
      "outputs": [],
      "stateMutability": "nonpayable",
      "type": "function"
    },
    {
      "inputs": [
        {
          "internalType": "uint256",
          "name": "value",
          "type": "uint256"
        }
      ],
      "name": "updateDevelopmentFee",
      "outputs": [],
      "stateMutability": "nonpayable",
      "type": "function"
    },
    {
      "inputs": [
        {
          "internalType": "address payable",
          "name": "wall",
          "type": "address"
        }
      ],
      "name": "updateDevelopmentFundWallet",
      "outputs": [],
      "stateMutability": "nonpayable",
      "type": "function"
    },
    {
      "inputs": [
        {
          "internalType": "uint256",
          "name": "value",
          "type": "uint256"
        }
      ],
      "name": "updateLiquidityFee",
      "outputs": [],
      "stateMutability": "nonpayable",
      "type": "function"
    },
    {
      "inputs": [
        {
          "internalType": "address payable",
          "name": "wall",
          "type": "address"
        }
      ],
      "name": "updateLiquidityWallet",
      "outputs": [],
      "stateMutability": "nonpayable",
      "type": "function"
    },
    {
      "inputs": [
        {
          "internalType": "uint256",
          "name": "value",
          "type": "uint256"
        }
      ],
      "name": "updateRewardsFee",
      "outputs": [],
      "stateMutability": "nonpayable",
      "type": "function"
    },
    {
      "inputs": [
        {
          "internalType": "address payable",
          "name": "wall",
          "type": "address"
        }
      ],
      "name": "updateRewardsWallet",
      "outputs": [],
      "stateMutability": "nonpayable",
      "type": "function"
    },
    {
      "inputs": [
        {
          "internalType": "uint256",
          "name": "value",
          "type": "uint256"
        }
      ],
      "name": "updateSwapFee",
      "outputs": [],
      "stateMutability": "nonpayable",
      "type": "function"
    },
    {
      "inputs": [
        {
          "internalType": "uint256",
          "name": "value",
          "type": "uint256"
        }
      ],
      "name": "updateTreasuryFee",
      "outputs": [],
      "stateMutability": "nonpayable",
      "type": "function"
    },
    {
      "inputs": [
        {
          "internalType": "address payable",
          "name": "wall",
          "type": "address"
        }
      ],
      "name": "updateTreasuryWallet",
      "outputs": [],
      "stateMutability": "nonpayable",
      "type": "function"
    },
    {
      "inputs": [],
      "name": "usdcToken",
      "outputs": [
        {
          "internalType": "address",
          "name": "",
          "type": "address"
        }
      ],
      "stateMutability": "view",
      "type": "function"
    },
    {
      "stateMutability": "payable",
      "type": "receive"
    }
  ],
  "transactionHash": "0x854da0d1b899fb1b195c8456eb0781195fda2414620e2780a468e3aa20c7c8a9",
  "args": [],
  "numDeployments": 23,
  "solcInputHash": "01fff3bb56c8c129d91c3995c3550ee2",
  "bytecode": "0x608060405234801561001057600080fd5b50615f6a80620000216000396000f3fe6080604052600436106104c45760003560e01c80637a0aacf311610276578063a9059cbb1161014f578063d75e2773116100c1578063e33b7de311610085578063e33b7de314610ea3578063e37ba8f914610eb8578063eb71c5d914610ed8578063f2e0302314610ef7578063f2fde38b14610f17578063f78d5c5514610f3757600080fd5b8063d75e277314610dfe578063d79779b214610e1e578063dd62ed3e14610e54578063e0583ec014610e74578063e22ee81314610e8e57600080fd5b8063bf16f65a11610113578063bf16f65a14610d32578063cc32d17614610d52578063cd6e18f114610d68578063ce7c2ac214610d88578063cfc0d02414610dbe578063d631f70514610dde57600080fd5b8063a9059cbb14610ca2578063aaf5bfc314610cc2578063b3328aae14610ce2578063b9bd393314610d02578063bcb8ebfc14610d1c57600080fd5b80638ea928f1116101e85780639a6e80db116101ac5780639a6e80db14610bf75780639b03f44914610c175780639c64291c14610c2c5780639dc73a4914610c4c578063a457c2d714610c6c578063a5f3d00314610c8c57600080fd5b80638ea928f114610b575780639149acbc14610b6c57806395d89b4114610b8c5780639723283014610ba15780639852595c14610bc157600080fd5b8063839df9191161023a578063839df91914610aa457806384884e4414610ac45780638b83209b14610ad95780638d28914414610af95780638da5cb5b14610b195780638e67566314610b3757600080fd5b80637a0aacf314610a0f578063809d458d14610a2f578063810be66d14610a4f5780638161ab7614610a6f57806382a8ebad14610a8457600080fd5b80633086319d116103a857806354f12f1f1161031a5780636815a91c116102de5780636815a91c1461096f5780636b38c5861461098f5780636d9ae0be146109a45780637091d108146109ba57806370a08231146109da578063715018a6146109fa57600080fd5b806354f12f1f146108d9578063559bf302146108ef57806357dae0631461090f57806365bfe4301461092f578063665a11ca1461094f57600080fd5b80633bf20e601161036c5780633bf20e601461082e578063406072a91461084e57806348b750441461086e57806348df58291461088e57806354557973146108ae57806354cf2aeb146108c357600080fd5b80633086319d146107a7578063313ce567146107c757806339306140146107e357806339509351146107f95780633a98ef391461081957600080fd5b80630f1978fb11610441578063191655871161040557806319165587146106ee5780631cdd3be31461070e5780631e7a934e1461073e57806323b872dd1461075e578063241a38c61461077e5780632bb14e1d1461079157600080fd5b80630f1978fb1461066957806310153e7b1461068857806311eac8551461069d57806313114a9d146106c357806318160ddd146106d957600080fd5b80630841e977116104885780630841e977146105b6578063084a6bff146105d6578063095ea7b3146105f657806309a69f57146106265780630cda832f1461064957600080fd5b80630129981c146105095780630359fea91461052b57806303d29d281461056157806306fdde031461058157806307a55860146105a357600080fd5b36610504577f6ef95f06320e7a25a04a175ca677b7052bdd97131872c2192525a629f51be77033346040516104fa929190615a9d565b60405180910390a1005b600080fd5b34801561051557600080fd5b5061052961052436600461561a565b610f57565b005b34801561053757600080fd5b5060d05461054b906001600160a01b031681565b6040516105589190615a89565b60405180910390f35b34801561056d57600080fd5b5061052961057c3660046155c0565b61113a565b34801561058d57600080fd5b5061059661118f565b6040516105589190615bb4565b6105296105b13660046159f3565b611221565b3480156105c257600080fd5b506105296105d136600461561a565b6114dc565b3480156105e257600080fd5b506105296105f136600461599f565b61182a565b34801561060257600080fd5b506106166106113660046155ee565b6118ac565b6040519015158152602001610558565b34801561063257600080fd5b5061063b6118c6565b604051908152602001610558565b34801561065557600080fd5b5061063b61066436600461590d565b61194c565b34801561067557600080fd5b5060d95461061690610100900460ff1681565b34801561069457600080fd5b506105966119ea565b3480156106a957600080fd5b5060d95461054b906201000090046001600160a01b031681565b3480156106cf57600080fd5b5061063b60d65481565b3480156106e557600080fd5b5060355461063b565b3480156106fa57600080fd5b5061052961070936600461550c565b611a70565b34801561071a57600080fd5b5061061661072936600461550c565b60da6020526000908152604090205460ff1681565b34801561074a57600080fd5b5061063b61075936600461590d565b611b95565b34801561076a57600080fd5b5061061661077936600461557f565b611c16565b61052961078c3660046159d1565b611c3c565b34801561079d57600080fd5b5061063b60d25481565b3480156107b357600080fd5b506105296107c2366004615736565b611e6f565b3480156107d357600080fd5b5060405160128152602001610558565b3480156107ef57600080fd5b5061063b60cd5481565b34801561080557600080fd5b506106166108143660046155ee565b612598565b34801561082557600080fd5b5060975461063b565b34801561083a57600080fd5b5061063b61084936600461590d565b6125d7565b34801561085a57600080fd5b5061063b610869366004615546565b612608565b34801561087a57600080fd5b50610529610889366004615546565b612633565b34801561089a57600080fd5b5060cf5461054b906001600160a01b031681565b3480156108ba57600080fd5b506105296127f7565b3480156108cf57600080fd5b5061063b60d85481565b3480156108e557600080fd5b5061063b60d45481565b3480156108fb57600080fd5b5061052961090a36600461550c565b612b50565b34801561091b57600080fd5b5061052961092a366004615655565b612bc2565b34801561093b57600080fd5b5061052961094a36600461599f565b613281565b34801561095b57600080fd5b5060d15461054b906001600160a01b031681565b34801561097b57600080fd5b5061052961098a36600461599f565b6135f6565b34801561099b57600080fd5b50610596613676565b3480156109b057600080fd5b5061063b60d75481565b3480156109c657600080fd5b5061063b6109d536600461590d565b613690565b3480156109e657600080fd5b5061063b6109f536600461550c565b61372e565b348015610a0657600080fd5b50610529613749565b348015610a1b57600080fd5b5061063b610a2a36600461590d565b61377f565b348015610a3b57600080fd5b50610529610a4a36600461550c565b6137ae565b348015610a5b57600080fd5b5060ce5461054b906001600160a01b031681565b348015610a7b57600080fd5b50610596613820565b348015610a9057600080fd5b5060ca5461054b906001600160a01b031681565b348015610ab057600080fd5b50610529610abf3660046158d3565b61383a565b348015610ad057600080fd5b5061059661387e565b348015610ae557600080fd5b5061054b610af436600461599f565b613898565b348015610b0557600080fd5b50610529610b1436600461550c565b6138c8565b348015610b2557600080fd5b506065546001600160a01b031661054b565b348015610b4357600080fd5b50610529610b5236600461599f565b61395f565b348015610b6357600080fd5b506105966139e1565b348015610b7857600080fd5b50610529610b873660046158d3565b6139fb565b348015610b9857600080fd5b50610596613a3f565b348015610bad57600080fd5b50610529610bbc36600461599f565b613a4e565b348015610bcd57600080fd5b5061063b610bdc36600461550c565b6001600160a01b03166000908152609a602052604090205490565b348015610c0357600080fd5b5060c95461054b906001600160a01b031681565b348015610c2357600080fd5b50610596613ad0565b348015610c3857600080fd5b50610529610c4736600461561a565b613aea565b348015610c5857600080fd5b50610529610c673660046158d3565b613dcd565b348015610c7857600080fd5b50610616610c873660046155ee565b613e0a565b348015610c9857600080fd5b5061063b60d55481565b348015610cae57600080fd5b50610616610cbd3660046155ee565b613ea7565b348015610cce57600080fd5b50610529610cdd36600461550c565b613eb5565b348015610cee57600080fd5b50610529610cfd3660046158d3565b613f09565b348015610d0e57600080fd5b5060db546106169060ff1681565b348015610d2857600080fd5b5061063b60cb5481565b348015610d3e57600080fd5b50610529610d4d36600461599f565b613f46565b348015610d5e57600080fd5b5061063b60d35481565b348015610d7457600080fd5b50610529610d8336600461550c565b613fc9565b348015610d9457600080fd5b5061063b610da336600461550c565b6001600160a01b031660009081526099602052604090205490565b348015610dca57600080fd5b50610529610dd936600461550c565b614064565b348015610dea57600080fd5b50610529610df93660046155ee565b6140d6565b348015610e0a57600080fd5b5061063b610e1936600461590d565b6141ce565b348015610e2a57600080fd5b5061063b610e3936600461550c565b6001600160a01b03166000908152609c602052604090205490565b348015610e6057600080fd5b5061063b610e6f366004615546565b61426c565b348015610e8057600080fd5b5060d9546106169060ff1681565b348015610e9a57600080fd5b50610596614297565b348015610eaf57600080fd5b5060985461063b565b348015610ec457600080fd5b50610529610ed336600461550c565b6142b1565b348015610ee457600080fd5b5060db5461061690610100900460ff1681565b348015610f0357600080fd5b50610529610f1236600461561a565b614323565b348015610f2357600080fd5b50610529610f3236600461550c565b6144ad565b348015610f4357600080fd5b50610529610f5236600461599f565b614548565b60ca546040516317ae8ecf60e31b815233916000916001600160a01b039091169063bd74767890610f909084908a908a90600401615b85565b60006040518083038186803b158015610fa857600080fd5b505afa158015610fbc573d6000803e3d6000fd5b505050506040513d6000823e601f3d908101601f19168201604052610fe4919081019061583b565b905060006305f5e100610ff78682615df0565b8360008151811061100a5761100a615f0e565b602002602001015161101c9190615e2a565b6110269190615e08565b905060006305f5e10060d8548460008151811061104557611045615f0e565b60200260200101516110579190615e2a565b6110619190615e08565b905061106d8183615df0565b6110768561372e565b101561109d5760405162461bcd60e51b815260040161109490615c85565b60405180910390fd5b60ca546110b59085906001600160a01b0316846145ca565b6110bf8482614668565b60ca546001600160a01b03166380be66cf858a8a866110de8b42615df0565b6040518663ffffffff1660e01b81526004016110fe959493929190615ada565b600060405180830381600087803b15801561111857600080fd5b505af115801561112c573d6000803e3d6000fd5b505050505050505050505050565b6065546001600160a01b031633146111645760405162461bcd60e51b815260040161109490615cbc565b6001600160a01b0391909116600090815260da60205260409020805460ff1916911515919091179055565b60606036805461119e90615e8c565b80601f01602080910402602001604051908101604052809291908181526020018280546111ca90615e8c565b80156112175780601f106111ec57610100808354040283529160200191611217565b820191906000526020600020905b8154815290600101906020018083116111fa57829003601f168201915b5050505050905090565b60ca546040805163eb6d3a1160e01b8152905133926000926001600160a01b039091169163bd74767891600191849163eb6d3a11916004808301926020929190829003018186803b15801561127557600080fd5b505afa158015611289573d6000803e3d6000fd5b505050506040513d601f19601f820116820180604052508101906112ad9190615529565b886040518463ffffffff1660e01b81526004016112cc93929190615b85565b60006040518083038186803b1580156112e457600080fd5b505afa1580156112f8573d6000803e3d6000fd5b505050506040513d6000823e601f3d908101601f19168201604052611320919081019061583b565b905060008160008151811061133757611337615f0e565b602002602001015190506305f5e100856305f5e1006113569190615df0565b6113609083615e2a565b61136a9190615e08565b905060006305f5e10060d8548460008151811061138957611389615f0e565b602002602001015161139b9190615e2a565b6113a59190615e08565b90506113b18183615df0565b34101561140b5760405162461bcd60e51b815260206004820152602260248201527f535741503a206d73672e76616c7565206c657373207468616e20736c69707061604482015261676560f01b6064820152608401611094565b60ca546001600160a01b031663ed9705da6114268334615e49565b868a6114328a42615df0565b6040516001600160e01b031960e087901b1681526001600160a01b039093166004840152602483019190915260448201526064016000604051808303818588803b15801561147f57600080fd5b505af1158015611493573d6000803e3d6000fd5b505060d1546040516001600160a01b03909116935084156108fc0292508491506000818181858888f193505050501580156114d2573d6000803e3d6000fd5b5050505050505050565b60d85433906000906305f5e100906114f49087615e2a565b6114fe9190615e08565b60ca549091506000906001600160a01b031663f5c13653600189611522868b615e49565b6040518463ffffffff1660e01b815260040161154093929190615b85565b60006040518083038186803b15801561155857600080fd5b505afa15801561156c573d6000803e3d6000fd5b505050506040513d6000823e601f3d908101601f19168201604052611594919081019061583b565b9050600081600183516115a79190615e49565b815181106115b7576115b7615f0e565b602002602001015190506305f5e100866305f5e1006115d69190615e49565b6115e09083615e2a565b6115ea9190615e08565b6040516370a0823160e01b8152909150889088906001600160a01b038316906370a082319061161d908990600401615a89565b60206040518083038186803b15801561163557600080fd5b505afa158015611649573d6000803e3d6000fd5b505050506040513d601f19601f8201168201806040525081019061166d91906159b8565b101561168b5760405162461bcd60e51b815260040161109490615c85565b60ca546001600160a01b03808316916323b872dd918891166116ad888d615e49565b6040518463ffffffff1660e01b81526004016116cb93929190615ab6565b602060405180830381600087803b1580156116e557600080fd5b505af11580156116f9573d6000803e3d6000fd5b505050506040513d601f19601f8201168201806040525081019061171d91906158f0565b5060d1546040516323b872dd60e01b81526001600160a01b03808416926323b872dd92611752928a9216908990600401615ab6565b602060405180830381600087803b15801561176c57600080fd5b505af1158015611780573d6000803e3d6000fd5b505050506040513d601f19601f820116820180604052508101906117a491906158f0565b5060ca546001600160a01b0316636e54a8a0868b6117c2888d615e49565b866117cd8c42615df0565b6040518663ffffffff1660e01b81526004016117ed959493929190615ada565b600060405180830381600087803b15801561180757600080fd5b505af115801561181b573d6000803e3d6000fd5b50505050505050505050505050565b6065546001600160a01b031633146118545760405162461bcd60e51b815260040161109490615cbc565b60008160d35460d55460d45461186a9190615df0565b6118749190615df0565b61187e9190615df0565b905060648111156118a15760405162461bcd60e51b815260040161109490615cf1565b60d29190915560d655565b6000336118ba818585614680565b60019150505b92915050565b60c9546040516330cd31af60e11b81526000916001600160a01b03169063619a635e906118f7903390600401615a89565b60206040518083038186803b15801561190f57600080fd5b505afa158015611923573d6000803e3d6000fd5b505050506040513d601f19601f8201168201806040525081019061194791906159b8565b905090565b600081600281111561196057611960615ef8565b60c95460405163ce6912a360e01b81526001600160a01b039091169063ce6912a390611990908690600401615ba6565b60206040518083038186803b1580156119a857600080fd5b505afa1580156119bc573d6000803e3d6000fd5b505050506040513d601f19601f820116820180604052508101906119e091906159b8565b6118c09190615e49565b60c9546060906001600160a01b0316635dbab6ed335b6040518263ffffffff1660e01b8152600401611a1c9190615a89565b60006040518083038186803b158015611a3457600080fd5b505afa158015611a48573d6000803e3d6000fd5b505050506040513d6000823e601f3d908101601f191682016040526119479190810190615928565b6001600160a01b038116600090815260996020526040902054611aa55760405162461bcd60e51b815260040161109490615bf4565b6000611ab060985490565b611aba9047615df0565b90506000611ae78383611ae2866001600160a01b03166000908152609a602052604090205490565b6147a4565b905080611b065760405162461bcd60e51b815260040161109490615c3a565b6001600160a01b0383166000908152609a602052604081208054839290611b2e908490615df0565b925050819055508060986000828254611b479190615df0565b90915550611b57905083826147ea565b7fdf20fd1e76bc69d672e4814fafb2c449bba3a5369d8359adf9e05e6fde87b0568382604051611b88929190615a9d565b60405180910390a1505050565b60c954604051630c75361360e31b81526000916001600160a01b0316906363a9b09890611bc6908590600401615ba6565b60206040518083038186803b158015611bde57600080fd5b505afa158015611bf2573d6000803e3d6000fd5b505050506040513d601f19601f820116820180604052508101906118c091906159b8565b600033611c24858285614903565b611c2f8585856145ca565b60019150505b9392505050565b60d854339034906000906305f5e10090611c569084615e2a565b611c609190615e08565b60ca546040805163eb6d3a1160e01b815290519293506000926001600160a01b039092169163f5c1365391600191849163eb6d3a11916004808301926020929190829003018186803b158015611cb557600080fd5b505afa158015611cc9573d6000803e3d6000fd5b505050506040513d601f19601f82011682018060405250810190611ced9190615529565b611cf78688615e49565b6040518463ffffffff1660e01b8152600401611d1593929190615b85565b60006040518083038186803b158015611d2d57600080fd5b505afa158015611d41573d6000803e3d6000fd5b505050506040513d6000823e601f3d908101601f19168201604052611d69919081019061583b565b905060008160018351611d7c9190615e49565b81518110611d8c57611d8c615f0e565b602002602001015190506305f5e100876305f5e100611dab9190615e49565b611db59083615e2a565b611dbf9190615e08565b60d1546040519192506001600160a01b03169084156108fc029085906000818181858888f19350505050158015611dfa573d6000803e3d6000fd5b5060ca546001600160a01b0316638f6e53b7611e168587615e49565b8784611e228b42615df0565b6040516001600160e01b031960e087901b1681526001600160a01b039093166004840152602483019190915260448201526064016000604051808303818588803b15801561111857600080fd5b60db54610100900460ff16611ec65760405162461bcd60e51b815260206004820152601d60248201527f434f4e544d494e543a206d696e7420636f6e74732064697361626c65640000006044820152606401611094565b60cc5482511115611f145760405162461bcd60e51b8152602060048201526018602482015277434f4e544d494e543a20746f6f206d616e7920636f6e747360401b6044820152606401611094565b60005b8251811015611fcd576003838281518110611f3457611f34615f0e565b602002602001015151118015611f6457506021838281518110611f5957611f59615f0e565b602002602001015151105b611fbb5760405162461bcd60e51b815260206004820152602260248201527f434f4e544d494e543a20696d70726f7065722063686172616374657220636f756044820152611b9d60f21b6064820152608401611094565b80611fc581615ec7565b915050611f17565b5033806120155760405162461bcd60e51b8152602060048201526016602482015275434f4e544d494e543a207a65726f206164647265737360501b6044820152606401611094565b6001600160a01b038116600090815260da602052604090205460ff161561207e5760405162461bcd60e51b815260206004820152601d60248201527f434f4e544d494e543a20626c61636b6c697374656420616464726573730000006044820152606401611094565b60ce546001600160a01b038281169116148015906120aa575060d0546001600160a01b03828116911614155b80156120c4575060cf546001600160a01b03828116911614155b61211b5760405162461bcd60e51b815260206004820152602260248201527f434f4e544d494e543a20706f6f6c732063616e6e6f742063726561746520636f6044820152611b9d60f21b6064820152608401611094565b60006121268261497d565b905060cb548451826121389190615df0565b11156121865760405162461bcd60e51b815260206004820152601c60248201527f434f4e544d494e543a2072656163686564206d696e74206c696d6974000000006044820152606401611094565b835160c954604051630c75361360e31b8152600092916001600160a01b0316906363a9b098906121ba908890600401615ba6565b60206040518083038186803b1580156121d257600080fd5b505afa1580156121e6573d6000803e3d6000fd5b505050506040513d601f19601f8201168201806040525081019061220a91906159b8565b6122149190615e2a565b90508060cd60008282546122289190615df0565b909155508190506122388461372e565b10156122965760405162461bcd60e51b815260206004820152602760248201527f434f4e544d494e543a2042616c616e636520746f6f206c6f7720666f7220637260448201526632b0ba34b7b71760c91b6064820152608401611094565b6000606460d554836122a89190615e2a565b6122b29190615e08565b60d954909150610100900460ff161561235e5760ca546122dd9085906001600160a01b0316836149ae565b60ca5460ce5460d9546040516388e5249f60e01b81526001600160a01b03938416936388e5249f936123279390821692620100009091049091169086906000904290600401615ada565b600060405180830381600087803b15801561234157600080fd5b505af1158015612355573d6000803e3d6000fd5b50505050612376565b60ce546123769085906001600160a01b0316836149ae565b6000606460d254846123889190615e2a565b6123929190615e08565b60d0549091506123ad9086906001600160a01b0316836149ae565b6000606460d354856123bf9190615e2a565b6123c99190615e08565b60d95490915060ff16156124705760ca546123ef9087906001600160a01b0316836149ae565b60ca5460cf5460d9546040516388e5249f60e01b81526001600160a01b03938416936388e5249f936124399390821692620100009091049091169086906000904290600401615ada565b600060405180830381600087803b15801561245357600080fd5b505af1158015612467573d6000803e3d6000fd5b50505050612488565b60cf546124889087906001600160a01b0316836149ae565b6000606460d4548661249a9190615e2a565b6124a49190615e08565b90506124b08782614668565b60008183856124bf888a615e49565b6124c99190615e49565b6124d39190615e49565b6124dd9190615e49565b905080156124f0576124f08830836149ae565b60c95460405162a6998d60e31b81526001600160a01b0390911690630534cc6890612523908b908e908e90600401615b0b565b600060405180830381600087803b15801561253d57600080fd5b505af1158015612551573d6000803e3d6000fd5b505050507f120c2f36321d80f09f9d26f68f1f49b72c1964e118aa788bb9611f47e10c7eac886040516125849190615a89565b60405180910390a150505050505050505050565b3360008181526034602090815260408083206001600160a01b03871684529091528120549091906118ba90829086906125d2908790615df0565b614680565b60c95460405163ce6912a360e01b81526000916001600160a01b03169063ce6912a390611bc6908590600401615ba6565b6001600160a01b039182166000908152609d6020908152604080832093909416825291909152205490565b6001600160a01b0381166000908152609960205260409020546126685760405162461bcd60e51b815260040161109490615bf4565b6001600160a01b0382166000908152609c60205260408120546040516370a0823160e01b81526001600160a01b038516906370a08231906126ad903090600401615a89565b60206040518083038186803b1580156126c557600080fd5b505afa1580156126d9573d6000803e3d6000fd5b505050506040513d601f19601f820116820180604052508101906126fd91906159b8565b6127079190615df0565b9050600061271a8383611ae28787612608565b9050806127395760405162461bcd60e51b815260040161109490615c3a565b6001600160a01b038085166000908152609d6020908152604080832093871683529290529081208054839290612770908490615df0565b90915550506001600160a01b0384166000908152609c60205260408120805483929061279d908490615df0565b909155506127ae9050848483614b7c565b836001600160a01b03167f3be5b7a71e84ed12875d241991c70855ac5817d847039e17a9d895c1ceb0f18a84836040516127e9929190615a9d565b60405180910390a250505050565b60db54339060ff1615156001146128505760405162461bcd60e51b815260206004820152601960248201527f43534854414c4c3a20636173686f75742064697361626c6564000000000000006044820152606401611094565b6001600160a01b03811661289e5760405162461bcd60e51b815260206004820152601560248201527443534854414c4c3a207a65726f206164647265737360581b6044820152606401611094565b6001600160a01b038116600090815260da602052604090205460ff16156129075760405162461bcd60e51b815260206004820152601c60248201527f43534854414c4c3a20626c61636b6c69737465642061646472657373000000006044820152606401611094565b60ce546001600160a01b03828116911614801590612933575060d0546001600160a01b03828116911614155b61297f5760405162461bcd60e51b815260206004820152601d60248201527f43534854414c4c3a20706f6f6c732063616e6e6f7420636173686f75740000006044820152606401611094565b60c9546040516330cd31af60e11b81526000916001600160a01b03169063619a635e906129b0908590600401615a89565b60206040518083038186803b1580156129c857600080fd5b505afa1580156129dc573d6000803e3d6000fd5b505050506040513d601f19601f82011682018060405250810190612a0091906159b8565b905060008111612a525760405162461bcd60e51b815260206004820152601960248201527f43534854414c4c3a20726577617264206e6f74207265616479000000000000006044820152606401611094565b60d75460009015612a7a57606460d75483612a6d9190615e2a565b612a779190615e08565b90505b612a848183615e49565b60d054909250612a9e906001600160a01b031684846149ae565b60c95460405163d094fa8d60e01b81526001600160a01b039091169063d094fa8d90612ace908690600401615a89565b602060405180830381600087803b158015612ae857600080fd5b505af1158015612afc573d6000803e3d6000fd5b505050506040513d601f19601f82011682018060405250810190612b2091906159b8565b507f564112c0ad2fbcae1bed83c58ed5d830128565d634cdc875bb02b065ad24234383604051611b889190615a89565b6065546001600160a01b03163314612b7a5760405162461bcd60e51b815260040161109490615cbc565b6001600160a01b038116612ba05760405162461bcd60e51b815260040161109490615bc7565b60ce80546001600160a01b0319166001600160a01b0392909216919091179055565b600054610100900460ff16612bdd5760005460ff1615612be1565b303b155b612c445760405162461bcd60e51b815260206004820152602e60248201527f496e697469616c697a61626c653a20636f6e747261637420697320616c72656160448201526d191e481a5b9a5d1a585b1a5e995960921b6064820152608401611094565b600054610100900460ff16158015612c66576000805461ffff19166101011790555b60008551118015612c78575060008451115b612cbb5760405162461bcd60e51b815260206004820152601460248201527320a222291013102120a620a721a29022a92927a960611b6044820152606401611094565b612cc3614bd2565b612d07604051806040016040528060078152602001663078426c6f636b60c81b81525060405180604001604052806003815260200162183c2160e91b815250614c01565b612d118787614c32565b60006001600160a01b031685600181518110612d2f57612d2f615f0e565b60200260200101516001600160a01b031614158015612d7b575060006001600160a01b031685600281518110612d6757612d67615f0e565b60200260200101516001600160a01b031614155b8015612db4575060006001600160a01b031685600381518110612da057612da0615f0e565b60200260200101516001600160a01b031614155b8015612ded575060006001600160a01b031685600481518110612dd957612dd9615f0e565b60200260200101516001600160a01b031614155b612e2b5760405162461bcd60e51b815260206004820152600f60248201526e1413d3d30816915493c81193d55391608a1b6044820152606401611094565b84600181518110612e3e57612e3e615f0e565b602002602001015160ce60006101000a8154816001600160a01b0302191690836001600160a01b0316021790555084600281518110612e7f57612e7f615f0e565b602002602001015160d160006101000a8154816001600160a01b0302191690836001600160a01b0316021790555084600381518110612ec057612ec0615f0e565b602002602001015160cf60006101000a8154816001600160a01b0302191690836001600160a01b0316021790555084600481518110612f0157612f01615f0e565b602002602001015160d060006101000a8154816001600160a01b0302191690836001600160a01b03160217905550600083600081518110612f4457612f44615f0e565b6020026020010151118015612f735750600083600181518110612f6957612f69615f0e565b6020026020010151115b8015612f995750600083600281518110612f8f57612f8f615f0e565b6020026020010151115b8015612fbf5750600083600381518110612fb557612fb5615f0e565b6020026020010151115b8015612fe55750600083600481518110612fdb57612fdb615f0e565b6020026020010151115b6130215760405162461bcd60e51b815260206004820152600d60248201526c0c094811915154c81193d55391609a1b6044820152606401611094565b8260008151811061303457613034615f0e565b602002602001015160d5819055508260018151811061305557613055615f0e565b602002602001015160d3819055508260028151811061307657613076615f0e565b602002602001015160d2819055508260038151811061309757613097615f0e565b602002602001015160d481905550826004815181106130b8576130b8615f0e565b602002602001015160d781905550826005815181106130d9576130d9615f0e565b602002602001015160d88190555060d35460d55460d45460d2546130fd9190615df0565b6131079190615df0565b6131119190615df0565b60d655835185511461315c5760405162461bcd60e51b815260206004820152601460248201527320a222291013102120a620a721a29022a92927a960611b6044820152606401611094565b60005b85518110156131c9576131b786828151811061317d5761317d615f0e565b602002602001015186838151811061319757613197615f0e565b6020026020010151670de0b6b3a76400006131b29190615e2a565b614c63565b806131c181615ec7565b91505061315f565b5060355469d3c21bcecceda10000001461321d5760405162461bcd60e51b81526020600482015260156024820152741515130814d5541413164811125191880c48135253605a1b6044820152606401611094565b60d98054606460cb55600a60cc5561ffff196001600160a01b038516620100000281166001600160b01b0319909216919091176101001790915560db805461010192169190911790558015613278576000805461ff00191690555b50505050505050565b60db54339060ff1615156001146132d35760405162461bcd60e51b815260206004820152601660248201527510d4d2150e8810d85cda1bdd5d08111a5cd8589b195960521b6044820152606401611094565b6001600160a01b03811661331e5760405162461bcd60e51b8152602060048201526012602482015271435348543a207a65726f206164647265737360701b6044820152606401611094565b6001600160a01b038116600090815260da602052604090205460ff161561337b5760405162461bcd60e51b815260206004820152601160248201527010d4d2150e88189b1858dadb1a5cdd1959607a1b6044820152606401611094565b60ce546001600160a01b038281169116148015906133a7575060d0546001600160a01b03828116911614155b80156133c1575060cf546001600160a01b03828116911614155b6134185760405162461bcd60e51b815260206004820152602260248201527f435348543a20706f6f6c732063616e6e6f7420636173686f7574207265776172604482015261647360f01b6064820152608401611094565b60c9546040516329b8573160e21b81526000916001600160a01b03169063a6e15cc49061344b9085908790600401615a9d565b60206040518083038186803b15801561346357600080fd5b505afa158015613477573d6000803e3d6000fd5b505050506040513d601f19601f8201168201806040525081019061349b91906159b8565b9050600081116134e65760405162461bcd60e51b8152602060048201526016602482015275435348543a20726577617264206e6f7420726561647960501b6044820152606401611094565b60d7546000901561350e57606460d754836135019190615e2a565b61350b9190615e08565b90505b6135188183615e49565b60d054909250613532906001600160a01b031684846149ae565b60c95460405163611015b360e11b81526001600160a01b039091169063c2202b66906135649086908890600401615a9d565b602060405180830381600087803b15801561357e57600080fd5b505af1158015613592573d6000803e3d6000fd5b505050506040513d601f19601f820116820180604052508101906135b691906159b8565b507f39f6d68d140e552a327d43ef814649947d78e76743e169e4f00d61b14f2f846d83856040516135e8929190615a9d565b60405180910390a150505050565b6065546001600160a01b031633146136205760405162461bcd60e51b815260040161109490615cbc565b60648111156136715760405162461bcd60e51b815260206004820152601c60248201527f464545533a20636173686f757420657863656564696e672031303025000000006044820152606401611094565b60d755565b60c9546060906001600160a01b03166377ec782633611a00565b60008160028111156136a4576136a4615ef8565b60c95460405163ce6912a360e01b81526001600160a01b039091169063ce6912a3906136d4908690600401615ba6565b60206040518083038186803b1580156136ec57600080fd5b505afa158015613700573d6000803e3d6000fd5b505050506040513d601f19601f8201168201806040525081019061372491906159b8565b6118c09190615e2a565b6001600160a01b031660009081526033602052604090205490565b6065546001600160a01b031633146137735760405162461bcd60e51b815260040161109490615cbc565b61377d6000614d42565b565b60c95460405162c73e4d60e01b81526000916001600160a01b03169062c73e4d90611bc6908590600401615ba6565b6065546001600160a01b031633146137d85760405162461bcd60e51b815260040161109490615cbc565b6001600160a01b0381166137fe5760405162461bcd60e51b815260040161109490615bc7565b60cf80546001600160a01b0319166001600160a01b0392909216919091179055565b60c9546060906001600160a01b0316638bf1451433611a00565b6065546001600160a01b031633146138645760405162461bcd60e51b815260040161109490615cbc565b60d980549115156101000261ff0019909216919091179055565b60c9546060906001600160a01b031663f743f31933611a00565b6000609b82815481106138ad576138ad615f0e565b6000918252602090912001546001600160a01b031692915050565b6065546001600160a01b031633146138f25760405162461bcd60e51b815260040161109490615cbc565b6001600160a01b03811661393d5760405162461bcd60e51b81526020600482015260126024820152712722abafa1a9269d103d32b9379030b2323960711b6044820152606401611094565b60c980546001600160a01b0319166001600160a01b0392909216919091179055565b6065546001600160a01b031633146139895760405162461bcd60e51b815260040161109490615cbc565b60008160d35460d55460d25461399f9190615df0565b6139a99190615df0565b6139b39190615df0565b905060648111156139d65760405162461bcd60e51b815260040161109490615cf1565b60d49190915560d655565b60c9546060906001600160a01b03166351bf120c33611a00565b6065546001600160a01b03163314613a255760405162461bcd60e51b815260040161109490615cbc565b60db80549115156101000261ff0019909216919091179055565b60606037805461119e90615e8c565b6065546001600160a01b03163314613a785760405162461bcd60e51b815260040161109490615cbc565b60008160d55460d45460d254613a8e9190615df0565b613a989190615df0565b613aa29190615df0565b90506064811115613ac55760405162461bcd60e51b815260040161109490615cf1565b60d39190915560d655565b60c9546060906001600160a01b031663367fd07433611a00565b60ca546040516317ae8ecf60e31b815233916000916001600160a01b039091169063bd74767890613b24906001908a908a90600401615b85565b60006040518083038186803b158015613b3c57600080fd5b505afa158015613b50573d6000803e3d6000fd5b505050506040513d6000823e601f3d908101601f19168201604052613b78919081019061583b565b905060006305f5e100613b8b8682615df0565b83600081518110613b9e57613b9e615f0e565b6020026020010151613bb09190615e2a565b613bba9190615e08565b9050600087905060006305f5e10060d85485600081518110613bde57613bde615f0e565b6020026020010151613bf09190615e2a565b613bfa9190615e08565b9050613c068184615df0565b6040516370a0823160e01b81526001600160a01b038416906370a0823190613c32908990600401615a89565b60206040518083038186803b158015613c4a57600080fd5b505afa158015613c5e573d6000803e3d6000fd5b505050506040513d601f19601f82011682018060405250810190613c8291906159b8565b1015613ca05760405162461bcd60e51b815260040161109490615c85565b60ca546040516323b872dd60e01b81526001600160a01b03808516926323b872dd92613cd4928a9216908890600401615ab6565b602060405180830381600087803b158015613cee57600080fd5b505af1158015613d02573d6000803e3d6000fd5b505050506040513d601f19601f82011682018060405250810190613d2691906158f0565b5060d1546040516323b872dd60e01b81526001600160a01b03808516926323b872dd92613d5b928a9216908690600401615ab6565b602060405180830381600087803b158015613d7557600080fd5b505af1158015613d89573d6000803e3d6000fd5b505050506040513d601f19601f82011682018060405250810190613dad91906158f0565b5060ca546001600160a01b03166374cefd8a868b8b876117cd8c42615df0565b6065546001600160a01b03163314613df75760405162461bcd60e51b815260040161109490615cbc565b60d9805460ff1916911515919091179055565b3360008181526034602090815260408083206001600160a01b038716845290915281205490919083811015613e8f5760405162461bcd60e51b815260206004820152602560248201527f45524332303a2064656372656173656420616c6c6f77616e63652062656c6f77604482015264207a65726f60d81b6064820152608401611094565b613e9c8286868403614680565b506001949350505050565b6000336118ba8185856145ca565b6065546001600160a01b03163314613edf5760405162461bcd60e51b815260040161109490615cbc565b60d980546001600160a01b03909216620100000262010000600160b01b0319909216919091179055565b6065546001600160a01b03163314613f335760405162461bcd60e51b815260040161109490615cbc565b60db805460ff1916911515919091179055565b6065546001600160a01b03163314613f705760405162461bcd60e51b815260040161109490615cbc565b6305f5e100811115613fc45760405162461bcd60e51b815260206004820152601960248201527f464545533a207377617020657863656564696e672031303025000000000000006044820152606401611094565b60d855565b6065546001600160a01b03163314613ff35760405162461bcd60e51b815260040161109490615cbc565b6001600160a01b0381166140425760405162461bcd60e51b81526020600482015260166024820152752722abafa62927aaaa22a91d103d32b9379030b2323960511b6044820152606401611094565b60ca80546001600160a01b0319166001600160a01b0392909216919091179055565b6065546001600160a01b0316331461408e5760405162461bcd60e51b815260040161109490615cbc565b6001600160a01b0381166140b45760405162461bcd60e51b815260040161109490615bc7565b60d080546001600160a01b0319166001600160a01b0392909216919091179055565b6065546001600160a01b031633146141005760405162461bcd60e51b815260040161109490615cbc565b6141093061372e565b8111156141695760405162461bcd60e51b815260206004820152602860248201527f534156455f4d495353454e543a20746f6b656e732065786365656420616464726044820152672062616c616e636560c01b6064820152608401611094565b6001600160a01b0382166141bf5760405162461bcd60e51b815260206004820152601a60248201527f534156455f4d495353454e543a207a65726f5f616464726573730000000000006044820152606401611094565b6141ca3083836145ca565b5050565b60008160028111156141e2576141e2615ef8565b60c95460405163ce6912a360e01b81526001600160a01b039091169063ce6912a390614212908690600401615ba6565b60206040518083038186803b15801561422a57600080fd5b505afa15801561423e573d6000803e3d6000fd5b505050506040513d601f19601f8201168201806040525081019061426291906159b8565b6118c09190615df0565b6001600160a01b03918216600090815260346020908152604080832093909416825291909152205490565b60c9546060906001600160a01b03166328cceb2433611a00565b6065546001600160a01b031633146142db5760405162461bcd60e51b815260040161109490615cbc565b6001600160a01b0381166143015760405162461bcd60e51b815260040161109490615bc7565b60d180546001600160a01b0319166001600160a01b0392909216919091179055565b60d85433906000906305f5e1009061433b9087615e2a565b6143459190615e08565b60ca549091506000906001600160a01b031663f5c136538289614368868b615e49565b6040518463ffffffff1660e01b815260040161438693929190615b85565b60006040518083038186803b15801561439e57600080fd5b505afa1580156143b2573d6000803e3d6000fd5b505050506040513d6000823e601f3d908101601f191682016040526143da919081019061583b565b9050600081600183516143ed9190615e49565b815181106143fd576143fd615f0e565b602002602001015190506305f5e100866305f5e10061441c9190615e49565b6144269083615e2a565b6144309190615e08565b90508661443c8561372e565b101561445a5760405162461bcd60e51b815260040161109490615c85565b60ca5461447b9085906001600160a01b0316614476868b615e49565b6145ca565b6144858484614668565b60ca546001600160a01b03166388e5249f858a6144a2878c615e49565b856110de8b42615df0565b6065546001600160a01b031633146144d75760405162461bcd60e51b815260040161109490615cbc565b6001600160a01b03811661453c5760405162461bcd60e51b815260206004820152602660248201527f4f776e61626c653a206e6577206f776e657220697320746865207a65726f206160448201526564647265737360d01b6064820152608401611094565b61454581614d42565b50565b6065546001600160a01b031633146145725760405162461bcd60e51b815260040161109490615cbc565b60008160d35460d45460d2546145889190615df0565b6145929190615df0565b61459c9190615df0565b905060648111156145bf5760405162461bcd60e51b815260040161109490615cf1565b60d59190915560d655565b6001600160a01b038316600090815260da602052604090205460ff1615801561460c57506001600160a01b038216600090815260da602052604090205460ff16155b6146585760405162461bcd60e51b815260206004820152601a60248201527f45524332303a20426c61636b6c697374656420616464726573730000000000006044820152606401611094565b6146638383836149ae565b505050565b60d1546141ca9083906001600160a01b0316836149ae565b6001600160a01b0383166146e25760405162461bcd60e51b8152602060048201526024808201527f45524332303a20617070726f76652066726f6d20746865207a65726f206164646044820152637265737360e01b6064820152608401611094565b6001600160a01b0382166147435760405162461bcd60e51b815260206004820152602260248201527f45524332303a20617070726f766520746f20746865207a65726f206164647265604482015261737360f01b6064820152608401611094565b6001600160a01b0383811660008181526034602090815260408083209487168084529482529182902085905590518481527f8c5be1e5ebec7d5bd14f71427d1e84f3dd0314c0f7b2291e5b200ac8c7c3b925910160405180910390a3505050565b6097546001600160a01b038416600090815260996020526040812054909183916147ce9086615e2a565b6147d89190615e08565b6147e29190615e49565b949350505050565b8047101561483a5760405162461bcd60e51b815260206004820152601d60248201527f416464726573733a20696e73756666696369656e742062616c616e63650000006044820152606401611094565b6000826001600160a01b03168260405160006040518083038185875af1925050503d8060008114614887576040519150601f19603f3d011682016040523d82523d6000602084013e61488c565b606091505b50509050806146635760405162461bcd60e51b815260206004820152603a60248201527f416464726573733a20756e61626c6520746f2073656e642076616c75652c207260448201527f6563697069656e74206d617920686176652072657665727465640000000000006064820152608401611094565b600061490f848461426c565b90506000198114614977578181101561496a5760405162461bcd60e51b815260206004820152601d60248201527f45524332303a20696e73756666696369656e7420616c6c6f77616e63650000006044820152606401611094565b6149778484848403614680565b50505050565b60c9546040516344fea1b960e01b81526000916001600160a01b0316906344fea1b990611bc6908590600401615a89565b6001600160a01b038316614a125760405162461bcd60e51b815260206004820152602560248201527f45524332303a207472616e736665722066726f6d20746865207a65726f206164604482015264647265737360d81b6064820152608401611094565b6001600160a01b038216614a745760405162461bcd60e51b815260206004820152602360248201527f45524332303a207472616e7366657220746f20746865207a65726f206164647260448201526265737360e81b6064820152608401611094565b6001600160a01b03831660009081526033602052604090205481811015614aec5760405162461bcd60e51b815260206004820152602660248201527f45524332303a207472616e7366657220616d6f756e7420657863656564732062604482015265616c616e636560d01b6064820152608401611094565b6001600160a01b03808516600090815260336020526040808220858503905591851681529081208054849290614b23908490615df0565b92505081905550826001600160a01b0316846001600160a01b03167fddf252ad1be2c89b69c2b068fc378daa952ba7f163c4a11628f55a4df523b3ef84604051614b6f91815260200190565b60405180910390a3614977565b6146638363a9059cbb60e01b8484604051602401614b9b929190615a9d565b60408051601f198184030181529190526020810180516001600160e01b03166001600160e01b031990931692909217909152614d94565b600054610100900460ff16614bf95760405162461bcd60e51b815260040161109490615d28565b61377d614e66565b600054610100900460ff16614c285760405162461bcd60e51b815260040161109490615d28565b6141ca8282614e96565b600054610100900460ff16614c595760405162461bcd60e51b815260040161109490615d28565b6141ca8282614ee4565b6001600160a01b038216614cb95760405162461bcd60e51b815260206004820152601f60248201527f45524332303a206d696e7420746f20746865207a65726f2061646472657373006044820152606401611094565b8060356000828254614ccb9190615df0565b90915550506001600160a01b03821660009081526033602052604081208054839290614cf8908490615df0565b90915550506040518181526001600160a01b038316906000907fddf252ad1be2c89b69c2b068fc378daa952ba7f163c4a11628f55a4df523b3ef9060200160405180910390a35050565b606580546001600160a01b038381166001600160a01b0319831681179093556040519116919082907f8be0079c531659141344cd1fd0a4f28419497f9722a3daafe3b4186f6b6457e090600090a35050565b6000614de9826040518060400160405280602081526020017f5361666545524332303a206c6f772d6c6576656c2063616c6c206661696c6564815250856001600160a01b03166150229092919063ffffffff16565b8051909150156146635780806020019051810190614e0791906158f0565b6146635760405162461bcd60e51b815260206004820152602a60248201527f5361666545524332303a204552433230206f7065726174696f6e20646964206e6044820152691bdd081cdd58d8d9595960b21b6064820152608401611094565b600054610100900460ff16614e8d5760405162461bcd60e51b815260040161109490615d28565b61377d33614d42565b600054610100900460ff16614ebd5760405162461bcd60e51b815260040161109490615d28565b8151614ed0906036906020850190615379565b508051614663906037906020840190615379565b600054610100900460ff16614f0b5760405162461bcd60e51b815260040161109490615d28565b8051825114614f775760405162461bcd60e51b815260206004820152603260248201527f5061796d656e7453706c69747465723a2070617965657320616e6420736861726044820152710cae640d8cadccee8d040dad2e6dac2e8c6d60731b6064820152608401611094565b6000825111614fc85760405162461bcd60e51b815260206004820152601a60248201527f5061796d656e7453706c69747465723a206e6f207061796565730000000000006044820152606401611094565b60005b825181101561466357615010838281518110614fe957614fe9615f0e565b602002602001015183838151811061500357615003615f0e565b6020026020010151615031565b8061501a81615ec7565b915050614fcb565b60606147e2848460008561520f565b6001600160a01b03821661509c5760405162461bcd60e51b815260206004820152602c60248201527f5061796d656e7453706c69747465723a206163636f756e74206973207468652060448201526b7a65726f206164647265737360a01b6064820152608401611094565b600081116150ec5760405162461bcd60e51b815260206004820152601d60248201527f5061796d656e7453706c69747465723a207368617265732061726520300000006044820152606401611094565b6001600160a01b038216600090815260996020526040902054156151665760405162461bcd60e51b815260206004820152602b60248201527f5061796d656e7453706c69747465723a206163636f756e7420616c726561647960448201526a206861732073686172657360a81b6064820152608401611094565b609b8054600181019091557fbba9db4cdbea0a37c207bbb83e20f828cd4441c49891101dc94fd20dc8efc3490180546001600160a01b0319166001600160a01b03841690811790915560009081526099602052604090208190556097546151ce908290615df0565b6097556040517f40c340f65e17194d14ddddb073d3c9f888e3cb52b5aae0c6c7706b4fbc905fac906152039084908490615a9d565b60405180910390a15050565b6060824710156152705760405162461bcd60e51b815260206004820152602660248201527f416464726573733a20696e73756666696369656e742062616c616e636520666f6044820152651c8818d85b1b60d21b6064820152608401611094565b6001600160a01b0385163b6152c75760405162461bcd60e51b815260206004820152601d60248201527f416464726573733a2063616c6c20746f206e6f6e2d636f6e74726163740000006044820152606401611094565b600080866001600160a01b031685876040516152e39190615a6d565b60006040518083038185875af1925050503d8060008114615320576040519150601f19603f3d011682016040523d82523d6000602084013e615325565b606091505b5091509150615335828286615340565b979650505050505050565b6060831561534f575081611c35565b82511561535f5782518084602001fd5b8160405162461bcd60e51b81526004016110949190615bb4565b82805461538590615e8c565b90600052602060002090601f0160209004810192826153a757600085556153ed565b82601f106153c057805160ff19168380011785556153ed565b828001600101855582156153ed579182015b828111156153ed5782518255916020019190600101906153d2565b506153f99291506153fd565b5090565b5b808211156153f957600081556001016153fe565b803561541d81615f3a565b919050565b600082601f83011261543357600080fd5b8135602061544861544383615da4565b615d73565b80838252828201915082860187848660051b890101111561546857600080fd5b60005b8581101561549057813561547e81615f3a565b8452928401929084019060010161546b565b5090979650505050505050565b600082601f8301126154ae57600080fd5b813560206154be61544383615da4565b80838252828201915082860187848660051b89010111156154de57600080fd5b60005b85811015615490578135845292840192908401906001016154e1565b80356003811061541d57600080fd5b60006020828403121561551e57600080fd5b8135611c3581615f3a565b60006020828403121561553b57600080fd5b8151611c3581615f3a565b6000806040838503121561555957600080fd5b823561556481615f3a565b9150602083013561557481615f3a565b809150509250929050565b60008060006060848603121561559457600080fd5b833561559f81615f3a565b925060208401356155af81615f3a565b929592945050506040919091013590565b600080604083850312156155d357600080fd5b82356155de81615f3a565b9150602083013561557481615f4f565b6000806040838503121561560157600080fd5b823561560c81615f3a565b946020939093013593505050565b6000806000806080858703121561563057600080fd5b843561563b81615f3a565b966020860135965060408601359560600135945092505050565b60008060008060008060c0878903121561566e57600080fd5b863567ffffffffffffffff8082111561568657600080fd5b6156928a838b01615422565b975060208901359150808211156156a857600080fd5b6156b48a838b0161549d565b965060408901359150808211156156ca57600080fd5b6156d68a838b01615422565b955060608901359150808211156156ec57600080fd5b6156f88a838b0161549d565b9450608089013591508082111561570e57600080fd5b5061571b89828a0161549d565b92505061572a60a08801615412565b90509295509295509295565b600080604080848603121561574a57600080fd5b833567ffffffffffffffff8082111561576257600080fd5b818601915086601f83011261577657600080fd5b8135602061578661544383615da4565b8083825282820191508286018b848660051b89010111156157a657600080fd5b60005b8581101561581b578135878111156157c057600080fd5b8801603f81018e136157d157600080fd5b858101356157e161544382615dc8565b8181528f8c8385010111156157f557600080fd5b818c840189830137600091810188019190915285525092840192908401906001016157a9565b5050809850505061582d8189016154fd565b955050505050509250929050565b6000602080838503121561584e57600080fd5b825167ffffffffffffffff81111561586557600080fd5b8301601f8101851361587657600080fd5b805161588461544382615da4565b80828252848201915084840188868560051b87010111156158a457600080fd5b600094505b838510156158c75780518352600194909401939185019185016158a9565b50979650505050505050565b6000602082840312156158e557600080fd5b8135611c3581615f4f565b60006020828403121561590257600080fd5b8151611c3581615f4f565b60006020828403121561591f57600080fd5b611c35826154fd565b60006020828403121561593a57600080fd5b815167ffffffffffffffff81111561595157600080fd5b8201601f8101841361596257600080fd5b805161597061544382615dc8565b81815285602083850101111561598557600080fd5b615996826020830160208601615e60565b95945050505050565b6000602082840312156159b157600080fd5b5035919050565b6000602082840312156159ca57600080fd5b5051919050565b600080604083850312156159e457600080fd5b50508035926020909101359150565b600080600060608486031215615a0857600080fd5b505081359360208301359350604090920135919050565b60038110615a3d57634e487b7160e01b600052602160045260246000fd5b9052565b60008151808452615a59816020860160208601615e60565b601f01601f19169290920160200192915050565b60008251615a7f818460208701615e60565b9190910192915050565b6001600160a01b0391909116815260200190565b6001600160a01b03929092168252602082015260400190565b6001600160a01b039384168152919092166020820152604081019190915260600190565b6001600160a01b03958616815293909416602084015260408301919091526060820152608081019190915260a00190565b60006060820160018060a01b0386168352602060608185015281865180845260808601915060808160051b870101935082880160005b82811015615b6f57607f19888703018452615b5d868351615a41565b95509284019290840190600101615b41565b5050505050809150506147e26040830184615a1f565b92151583526001600160a01b03919091166020830152604082015260600190565b602081016118c08284615a1f565b602081526000611c356020830184615a41565b6020808252601390820152722aa8222faba0a6261d103d32b9379030b2323960691b604082015260600190565b60208082526026908201527f5061796d656e7453706c69747465723a206163636f756e7420686173206e6f2060408201526573686172657360d01b606082015260800190565b6020808252602b908201527f5061796d656e7453706c69747465723a206163636f756e74206973206e6f742060408201526a191d59481c185e5b595b9d60aa1b606082015260800190565b6020808252601a908201527f535741503a20696e73756666696369656e742062616c616e6365000000000000604082015260600190565b6020808252818101527f4f776e61626c653a2063616c6c6572206973206e6f7420746865206f776e6572604082015260600190565b6020808252601a908201527f464545533a20746f74616c20657863656564696e672031303025000000000000604082015260600190565b6020808252602b908201527f496e697469616c697a61626c653a20636f6e7472616374206973206e6f74206960408201526a6e697469616c697a696e6760a81b606082015260800190565b604051601f8201601f1916810167ffffffffffffffff81118282101715615d9c57615d9c615f24565b604052919050565b600067ffffffffffffffff821115615dbe57615dbe615f24565b5060051b60200190565b600067ffffffffffffffff821115615de257615de2615f24565b50601f01601f191660200190565b60008219821115615e0357615e03615ee2565b500190565b600082615e2557634e487b7160e01b600052601260045260246000fd5b500490565b6000816000190483118215151615615e4457615e44615ee2565b500290565b600082821015615e5b57615e5b615ee2565b500390565b60005b83811015615e7b578181015183820152602001615e63565b838111156149775750506000910152565b600181811c90821680615ea057607f821691505b60208210811415615ec157634e487b7160e01b600052602260045260246000fd5b50919050565b6000600019821415615edb57615edb615ee2565b5060010190565b634e487b7160e01b600052601160045260246000fd5b634e487b7160e01b600052602160045260246000fd5b634e487b7160e01b600052603260045260246000fd5b634e487b7160e01b600052604160045260246000fd5b6001600160a01b038116811461454557600080fd5b801515811461454557600080fdfea164736f6c6343000807000a",
  "devdoc": {
    "kind": "dev",
    "methods": {
      "allowance(address,address)": {
        "details": "See {IERC20-allowance}."
      },
      "approve(address,uint256)": {
        "details": "See {IERC20-approve}. NOTE: If `amount` is the maximum `uint256`, the allowance is not updated on `transferFrom`. This is semantically equivalent to an infinite approval. Requirements: - `spender` cannot be the zero address."
      },
      "balanceOf(address)": {
        "details": "See {IERC20-balanceOf}."
      },
      "decimals()": {
        "details": "Returns the number of decimals used to get its user representation. For example, if `decimals` equals `2`, a balance of `505` tokens should be displayed to a user as `5.05` (`505 / 10 ** 2`). Tokens usually opt for a value of 18, imitating the relationship between Ether and Wei. This is the value {ERC20} uses, unless this function is overridden; NOTE: This information is only used for _display_ purposes: it in no way affects any of the arithmetic of the contract, including {IERC20-balanceOf} and {IERC20-transfer}."
      },
      "decreaseAllowance(address,uint256)": {
        "details": "Atomically decreases the allowance granted to `spender` by the caller. This is an alternative to {approve} that can be used as a mitigation for problems described in {IERC20-approve}. Emits an {Approval} event indicating the updated allowance. Requirements: - `spender` cannot be the zero address. - `spender` must have allowance for the caller of at least `subtractedValue`."
      },
      "increaseAllowance(address,uint256)": {
        "details": "Atomically increases the allowance granted to `spender` by the caller. This is an alternative to {approve} that can be used as a mitigation for problems described in {IERC20-approve}. Emits an {Approval} event indicating the updated allowance. Requirements: - `spender` cannot be the zero address."
      },
      "name()": {
        "details": "Returns the name of the token."
      },
      "owner()": {
        "details": "Returns the address of the current owner."
      },
      "payee(uint256)": {
        "details": "Getter for the address of the payee number `index`."
      },
      "release(address)": {
        "details": "Triggers a transfer to `account` of the amount of Ether they are owed, according to their percentage of the total shares and their previous withdrawals."
      },
      "release(address,address)": {
        "details": "Triggers a transfer to `account` of the amount of `token` tokens they are owed, according to their percentage of the total shares and their previous withdrawals. `token` must be the address of an IERC20 contract."
      },
      "released(address)": {
        "details": "Getter for the amount of Ether already released to a payee."
      },
      "released(address,address)": {
        "details": "Getter for the amount of `token` tokens already released to a payee. `token` should be the address of an IERC20 contract."
      },
      "renounceOwnership()": {
        "details": "Leaves the contract without owner. It will not be possible to call `onlyOwner` functions anymore. Can only be called by the current owner. NOTE: Renouncing ownership will leave the contract without an owner, thereby removing any functionality that is only available to the owner."
      },
      "shares(address)": {
        "details": "Getter for the amount of shares held by an account."
      },
      "symbol()": {
        "details": "Returns the symbol of the token, usually a shorter version of the name."
      },
      "totalReleased()": {
        "details": "Getter for the total amount of Ether already released."
      },
      "totalReleased(address)": {
        "details": "Getter for the total amount of `token` already released. `token` should be the address of an IERC20 contract."
      },
      "totalShares()": {
        "details": "Getter for the total shares held by payees."
      },
      "totalSupply()": {
        "details": "See {IERC20-totalSupply}."
      },
      "transfer(address,uint256)": {
        "details": "See {IERC20-transfer}. Requirements: - `to` cannot be the zero address. - the caller must have a balance of at least `amount`."
      },
      "transferFrom(address,address,uint256)": {
        "details": "See {IERC20-transferFrom}. Emits an {Approval} event indicating the updated allowance. This is not required by the EIP. See the note at the beginning of {ERC20}. NOTE: Does not update the allowance if the current allowance is the maximum `uint256`. Requirements: - `from` and `to` cannot be the zero address. - `from` must have a balance of at least `amount`. - the caller must have allowance for ``from``'s tokens of at least `amount`."
      },
      "transferOwnership(address)": {
        "details": "Transfers ownership of the contract to a new account (`newOwner`). Can only be called by the current owner."
      }
    },
    "version": 1
  },
  "userdoc": {
    "kind": "user",
    "methods": {},
    "version": 1
  },
  "storageLayout": {
    "storage": [
      {
        "astId": 598,
        "contract": "contracts/ZeroXBlock.sol:ZeroXBlock",
        "label": "_initialized",
        "offset": 0,
        "slot": "0",
        "type": "t_bool"
      },
      {
        "astId": 601,
        "contract": "contracts/ZeroXBlock.sol:ZeroXBlock",
        "label": "_initializing",
        "offset": 1,
        "slot": "0",
        "type": "t_bool"
      },
      {
        "astId": 1889,
        "contract": "contracts/ZeroXBlock.sol:ZeroXBlock",
        "label": "__gap",
        "offset": 0,
        "slot": "1",
        "type": "t_array(t_uint256)50_storage"
      },
      {
        "astId": 684,
        "contract": "contracts/ZeroXBlock.sol:ZeroXBlock",
        "label": "_balances",
        "offset": 0,
        "slot": "51",
        "type": "t_mapping(t_address,t_uint256)"
      },
      {
        "astId": 690,
        "contract": "contracts/ZeroXBlock.sol:ZeroXBlock",
        "label": "_allowances",
        "offset": 0,
        "slot": "52",
        "type": "t_mapping(t_address,t_mapping(t_address,t_uint256))"
      },
      {
        "astId": 692,
        "contract": "contracts/ZeroXBlock.sol:ZeroXBlock",
        "label": "_totalSupply",
        "offset": 0,
        "slot": "53",
        "type": "t_uint256"
      },
      {
        "astId": 694,
        "contract": "contracts/ZeroXBlock.sol:ZeroXBlock",
        "label": "_name",
        "offset": 0,
        "slot": "54",
        "type": "t_string_storage"
      },
      {
        "astId": 696,
        "contract": "contracts/ZeroXBlock.sol:ZeroXBlock",
        "label": "_symbol",
        "offset": 0,
        "slot": "55",
        "type": "t_string_storage"
      },
      {
        "astId": 1277,
        "contract": "contracts/ZeroXBlock.sol:ZeroXBlock",
        "label": "__gap",
        "offset": 0,
        "slot": "56",
        "type": "t_array(t_uint256)45_storage"
      },
      {
        "astId": 10,
        "contract": "contracts/ZeroXBlock.sol:ZeroXBlock",
        "label": "_owner",
        "offset": 0,
        "slot": "101",
        "type": "t_address"
      },
      {
        "astId": 122,
        "contract": "contracts/ZeroXBlock.sol:ZeroXBlock",
        "label": "__gap",
        "offset": 0,
        "slot": "102",
        "type": "t_array(t_uint256)49_storage"
      },
      {
        "astId": 163,
        "contract": "contracts/ZeroXBlock.sol:ZeroXBlock",
        "label": "_totalShares",
        "offset": 0,
        "slot": "151",
        "type": "t_uint256"
      },
      {
        "astId": 165,
        "contract": "contracts/ZeroXBlock.sol:ZeroXBlock",
        "label": "_totalReleased",
        "offset": 0,
        "slot": "152",
        "type": "t_uint256"
      },
      {
        "astId": 169,
        "contract": "contracts/ZeroXBlock.sol:ZeroXBlock",
        "label": "_shares",
        "offset": 0,
        "slot": "153",
        "type": "t_mapping(t_address,t_uint256)"
      },
      {
        "astId": 173,
        "contract": "contracts/ZeroXBlock.sol:ZeroXBlock",
        "label": "_released",
        "offset": 0,
        "slot": "154",
        "type": "t_mapping(t_address,t_uint256)"
      },
      {
        "astId": 176,
        "contract": "contracts/ZeroXBlock.sol:ZeroXBlock",
        "label": "_payees",
        "offset": 0,
        "slot": "155",
        "type": "t_array(t_address)dyn_storage"
      },
      {
        "astId": 181,
        "contract": "contracts/ZeroXBlock.sol:ZeroXBlock",
        "label": "_erc20TotalReleased",
        "offset": 0,
        "slot": "156",
        "type": "t_mapping(t_contract(IERC20Upgradeable)1356,t_uint256)"
      },
      {
        "astId": 188,
        "contract": "contracts/ZeroXBlock.sol:ZeroXBlock",
        "label": "_erc20Released",
        "offset": 0,
        "slot": "157",
        "type": "t_mapping(t_contract(IERC20Upgradeable)1356,t_mapping(t_address,t_uint256))"
      },
      {
        "astId": 590,
        "contract": "contracts/ZeroXBlock.sol:ZeroXBlock",
        "label": "__gap",
        "offset": 0,
        "slot": "158",
        "type": "t_array(t_uint256)43_storage"
      },
      {
        "astId": 2584,
        "contract": "contracts/ZeroXBlock.sol:ZeroXBlock",
        "label": "_crm",
        "offset": 0,
        "slot": "201",
        "type": "t_contract(CONTRewardManagement)6719"
      },
      {
        "astId": 2587,
        "contract": "contracts/ZeroXBlock.sol:ZeroXBlock",
        "label": "_liqRouter",
        "offset": 0,
        "slot": "202",
        "type": "t_contract(LiquidityRouter)7639"
      },
      {
        "astId": 2592,
        "contract": "contracts/ZeroXBlock.sol:ZeroXBlock",
        "label": "ownedContsLimit",
        "offset": 0,
        "slot": "203",
        "type": "t_uint256"
      },
      {
        "astId": 2594,
        "contract": "contracts/ZeroXBlock.sol:ZeroXBlock",
        "label": "mintContLimit",
        "offset": 0,
        "slot": "204",
        "type": "t_uint256"
      },
      {
        "astId": 2596,
        "contract": "contracts/ZeroXBlock.sol:ZeroXBlock",
        "label": "totalTokensPaidForMinting",
        "offset": 0,
        "slot": "205",
        "type": "t_uint256"
      },
      {
        "astId": 2598,
        "contract": "contracts/ZeroXBlock.sol:ZeroXBlock",
        "label": "developmentFundPool",
        "offset": 0,
        "slot": "206",
        "type": "t_address"
      },
      {
        "astId": 2600,
        "contract": "contracts/ZeroXBlock.sol:ZeroXBlock",
        "label": "treasuryPool",
        "offset": 0,
        "slot": "207",
        "type": "t_address"
      },
      {
        "astId": 2602,
        "contract": "contracts/ZeroXBlock.sol:ZeroXBlock",
        "label": "rewardsPool",
        "offset": 0,
        "slot": "208",
        "type": "t_address"
      },
      {
        "astId": 2604,
        "contract": "contracts/ZeroXBlock.sol:ZeroXBlock",
        "label": "liquidityPool",
        "offset": 0,
        "slot": "209",
        "type": "t_address"
      },
      {
        "astId": 2606,
        "contract": "contracts/ZeroXBlock.sol:ZeroXBlock",
        "label": "rewardsFee",
        "offset": 0,
        "slot": "210",
        "type": "t_uint256"
      },
      {
        "astId": 2608,
        "contract": "contracts/ZeroXBlock.sol:ZeroXBlock",
        "label": "treasuryFee",
        "offset": 0,
        "slot": "211",
        "type": "t_uint256"
      },
      {
        "astId": 2610,
        "contract": "contracts/ZeroXBlock.sol:ZeroXBlock",
        "label": "liquidityPoolFee",
        "offset": 0,
        "slot": "212",
        "type": "t_uint256"
      },
      {
        "astId": 2612,
        "contract": "contracts/ZeroXBlock.sol:ZeroXBlock",
        "label": "developmentFee",
        "offset": 0,
        "slot": "213",
        "type": "t_uint256"
      },
      {
        "astId": 2614,
        "contract": "contracts/ZeroXBlock.sol:ZeroXBlock",
        "label": "totalFees",
        "offset": 0,
        "slot": "214",
        "type": "t_uint256"
      },
      {
        "astId": 2616,
        "contract": "contracts/ZeroXBlock.sol:ZeroXBlock",
        "label": "cashoutFee",
        "offset": 0,
        "slot": "215",
        "type": "t_uint256"
      },
      {
        "astId": 2618,
        "contract": "contracts/ZeroXBlock.sol:ZeroXBlock",
        "label": "swapFee",
        "offset": 0,
        "slot": "216",
        "type": "t_uint256"
      },
      {
        "astId": 2620,
        "contract": "contracts/ZeroXBlock.sol:ZeroXBlock",
        "label": "enableAutoSwapTreasury",
        "offset": 0,
        "slot": "217",
        "type": "t_bool"
      },
      {
        "astId": 2622,
        "contract": "contracts/ZeroXBlock.sol:ZeroXBlock",
        "label": "enableAutoSwapDevFund",
        "offset": 1,
        "slot": "217",
        "type": "t_bool"
      },
      {
        "astId": 2624,
        "contract": "contracts/ZeroXBlock.sol:ZeroXBlock",
        "label": "usdcToken",
        "offset": 2,
        "slot": "217",
        "type": "t_address"
      },
      {
        "astId": 2628,
        "contract": "contracts/ZeroXBlock.sol:ZeroXBlock",
        "label": "_isBlacklisted",
        "offset": 0,
        "slot": "218",
        "type": "t_mapping(t_address,t_bool)"
      },
      {
        "astId": 2630,
        "contract": "contracts/ZeroXBlock.sol:ZeroXBlock",
        "label": "enableCashout",
        "offset": 0,
        "slot": "219",
        "type": "t_bool"
      },
      {
        "astId": 2632,
        "contract": "contracts/ZeroXBlock.sol:ZeroXBlock",
        "label": "enableMintConts",
        "offset": 1,
        "slot": "219",
        "type": "t_bool"
      }
    ],
    "types": {
      "t_address": {
        "encoding": "inplace",
        "label": "address",
        "numberOfBytes": "20"
      },
      "t_array(t_address)dyn_storage": {
        "base": "t_address",
        "encoding": "dynamic_array",
        "label": "address[]",
        "numberOfBytes": "32"
      },
      "t_array(t_uint256)43_storage": {
        "base": "t_uint256",
        "encoding": "inplace",
        "label": "uint256[43]",
        "numberOfBytes": "1376"
      },
      "t_array(t_uint256)45_storage": {
        "base": "t_uint256",
        "encoding": "inplace",
        "label": "uint256[45]",
        "numberOfBytes": "1440"
      },
      "t_array(t_uint256)49_storage": {
        "base": "t_uint256",
        "encoding": "inplace",
        "label": "uint256[49]",
        "numberOfBytes": "1568"
      },
      "t_array(t_uint256)50_storage": {
        "base": "t_uint256",
        "encoding": "inplace",
        "label": "uint256[50]",
        "numberOfBytes": "1600"
      },
      "t_bool": {
        "encoding": "inplace",
        "label": "bool",
        "numberOfBytes": "1"
      },
      "t_contract(CONTRewardManagement)6719": {
        "encoding": "inplace",
        "label": "contract CONTRewardManagement",
        "numberOfBytes": "20"
      },
      "t_contract(IERC20Upgradeable)1356": {
        "encoding": "inplace",
        "label": "contract IERC20Upgradeable",
        "numberOfBytes": "20"
      },
      "t_contract(LiquidityRouter)7639": {
        "encoding": "inplace",
        "label": "contract LiquidityRouter",
        "numberOfBytes": "20"
      },
      "t_mapping(t_address,t_bool)": {
        "encoding": "mapping",
        "key": "t_address",
        "label": "mapping(address => bool)",
        "numberOfBytes": "32",
        "value": "t_bool"
      },
      "t_mapping(t_address,t_mapping(t_address,t_uint256))": {
        "encoding": "mapping",
        "key": "t_address",
        "label": "mapping(address => mapping(address => uint256))",
        "numberOfBytes": "32",
        "value": "t_mapping(t_address,t_uint256)"
      },
      "t_mapping(t_address,t_uint256)": {
        "encoding": "mapping",
        "key": "t_address",
        "label": "mapping(address => uint256)",
        "numberOfBytes": "32",
        "value": "t_uint256"
      },
      "t_mapping(t_contract(IERC20Upgradeable)1356,t_mapping(t_address,t_uint256))": {
        "encoding": "mapping",
        "key": "t_contract(IERC20Upgradeable)1356",
        "label": "mapping(contract IERC20Upgradeable => mapping(address => uint256))",
        "numberOfBytes": "32",
        "value": "t_mapping(t_address,t_uint256)"
      },
      "t_mapping(t_contract(IERC20Upgradeable)1356,t_uint256)": {
        "encoding": "mapping",
        "key": "t_contract(IERC20Upgradeable)1356",
        "label": "mapping(contract IERC20Upgradeable => uint256)",
        "numberOfBytes": "32",
        "value": "t_uint256"
      },
      "t_string_storage": {
        "encoding": "bytes",
        "label": "string",
        "numberOfBytes": "32"
      },
      "t_uint256": {
        "encoding": "inplace",
        "label": "uint256",
        "numberOfBytes": "32"
      }
    }
  }
}