{
  "address": "0x6357Ab57b771905325675317591518Af3A878a9E",
  "abi": [
    {
      "anonymous": false,
      "inputs": [
        {
          "indexed": true,
          "internalType": "address",
          "name": "owner",
          "type": "address"
        },
        {
          "indexed": true,
          "internalType": "address",
          "name": "spender",
          "type": "address"
        },
        {
          "indexed": false,
          "internalType": "uint256",
          "name": "value",
          "type": "uint256"
        }
      ],
      "name": "Approval",
      "type": "event"
    },
    {
      "anonymous": false,
      "inputs": [
        {
          "indexed": false,
          "internalType": "address",
          "name": "sender",
          "type": "address"
        }
      ],
      "name": "ContsMinted",
      "type": "event"
    },
    {
      "anonymous": false,
      "inputs": [
        {
          "indexed": true,
          "internalType": "contract IERC20Upgradeable",
          "name": "token",
          "type": "address"
        },
        {
          "indexed": false,
          "internalType": "address",
          "name": "to",
          "type": "address"
        },
        {
          "indexed": false,
          "internalType": "uint256",
          "name": "amount",
          "type": "uint256"
        }
      ],
      "name": "ERC20PaymentReleased",
      "type": "event"
    },
    {
      "anonymous": false,
      "inputs": [
        {
          "indexed": true,
          "internalType": "address",
          "name": "previousOwner",
          "type": "address"
        },
        {
          "indexed": true,
          "internalType": "address",
          "name": "newOwner",
          "type": "address"
        }
      ],
      "name": "OwnershipTransferred",
      "type": "event"
    },
    {
      "anonymous": false,
      "inputs": [
        {
          "indexed": false,
          "internalType": "address",
          "name": "account",
          "type": "address"
        },
        {
          "indexed": false,
          "internalType": "uint256",
          "name": "shares",
          "type": "uint256"
        }
      ],
      "name": "PayeeAdded",
      "type": "event"
    },
    {
      "anonymous": false,
      "inputs": [
        {
          "indexed": false,
          "internalType": "address",
          "name": "from",
          "type": "address"
        },
        {
          "indexed": false,
          "internalType": "uint256",
          "name": "amount",
          "type": "uint256"
        }
      ],
      "name": "PaymentReceived",
      "type": "event"
    },
    {
      "anonymous": false,
      "inputs": [
        {
          "indexed": false,
          "internalType": "address",
          "name": "to",
          "type": "address"
        },
        {
          "indexed": false,
          "internalType": "uint256",
          "name": "amount",
          "type": "uint256"
        }
      ],
      "name": "PaymentReleased",
      "type": "event"
    },
    {
      "anonymous": false,
      "inputs": [
        {
          "indexed": false,
          "internalType": "address",
          "name": "sender",
          "type": "address"
        }
      ],
      "name": "RewardCashoutAll",
      "type": "event"
    },
    {
      "anonymous": false,
      "inputs": [
        {
          "indexed": false,
          "internalType": "address",
          "name": "sender",
          "type": "address"
        },
        {
          "indexed": false,
          "internalType": "uint256",
          "name": "index",
          "type": "uint256"
        }
      ],
      "name": "RewardCashoutOne",
      "type": "event"
    },
    {
      "anonymous": false,
      "inputs": [
        {
          "indexed": true,
          "internalType": "address",
          "name": "from",
          "type": "address"
        },
        {
          "indexed": true,
          "internalType": "address",
          "name": "to",
          "type": "address"
        },
        {
          "indexed": false,
          "internalType": "uint256",
          "name": "value",
          "type": "uint256"
        }
      ],
      "name": "Transfer",
      "type": "event"
    },
    {
      "inputs": [],
      "name": "_crm",
      "outputs": [
        {
          "internalType": "contract CONTRewardManagement",
          "name": "",
          "type": "address"
        }
      ],
      "stateMutability": "view",
      "type": "function"
    },
    {
      "inputs": [
        {
          "internalType": "address",
          "name": "",
          "type": "address"
        }
      ],
      "name": "_isBlacklisted",
      "outputs": [
        {
          "internalType": "bool",
          "name": "",
          "type": "bool"
        }
      ],
      "stateMutability": "view",
      "type": "function"
    },
    {
      "inputs": [],
      "name": "_liqRouter",
      "outputs": [
        {
          "internalType": "contract LiquidityRouter",
          "name": "",
          "type": "address"
        }
      ],
      "stateMutability": "view",
      "type": "function"
    },
    {
      "inputs": [
        {
          "internalType": "address",
          "name": "owner",
          "type": "address"
        },
        {
          "internalType": "address",
          "name": "spender",
          "type": "address"
        }
      ],
      "name": "allowance",
      "outputs": [
        {
          "internalType": "uint256",
          "name": "",
          "type": "uint256"
        }
      ],
      "stateMutability": "view",
      "type": "function"
    },
    {
      "inputs": [
        {
          "internalType": "address",
          "name": "spender",
          "type": "address"
        },
        {
          "internalType": "uint256",
          "name": "amount",
          "type": "uint256"
        }
      ],
      "name": "approve",
      "outputs": [
        {
          "internalType": "bool",
          "name": "",
          "type": "bool"
        }
      ],
      "stateMutability": "nonpayable",
      "type": "function"
    },
    {
      "inputs": [
        {
          "internalType": "address",
          "name": "account",
          "type": "address"
        }
      ],
      "name": "balanceOf",
      "outputs": [
        {
          "internalType": "uint256",
          "name": "",
          "type": "uint256"
        }
      ],
      "stateMutability": "view",
      "type": "function"
    },
    {
      "inputs": [
        {
          "internalType": "enum ContType",
          "name": "_ct",
          "type": "uint8"
        }
      ],
      "name": "breakevenPerType",
      "outputs": [
        {
          "internalType": "uint256",
          "name": "",
          "type": "uint256"
        }
      ],
      "stateMutability": "view",
      "type": "function"
    },
    {
      "inputs": [],
      "name": "cashoutAll",
      "outputs": [],
      "stateMutability": "nonpayable",
      "type": "function"
    },
    {
      "inputs": [],
      "name": "cashoutFee",
      "outputs": [
        {
          "internalType": "uint256",
          "name": "",
          "type": "uint256"
        }
      ],
      "stateMutability": "view",
      "type": "function"
    },
    {
      "inputs": [
        {
          "internalType": "uint256",
          "name": "_contIndex",
          "type": "uint256"
        }
      ],
      "name": "cashoutReward",
      "outputs": [],
      "stateMutability": "nonpayable",
      "type": "function"
    },
    {
      "inputs": [],
      "name": "cashoutTaxPool",
      "outputs": [
        {
          "internalType": "address",
          "name": "",
          "type": "address"
        }
      ],
      "stateMutability": "view",
      "type": "function"
    },
    {
      "inputs": [
        {
          "internalType": "bool",
          "name": "newVal",
          "type": "bool"
        }
      ],
      "name": "changeEnableAutoSwapDevFund",
      "outputs": [],
      "stateMutability": "nonpayable",
      "type": "function"
    },
    {
      "inputs": [
        {
          "internalType": "bool",
          "name": "newVal",
          "type": "bool"
        }
      ],
      "name": "changeEnableAutoSwapTreasury",
      "outputs": [],
      "stateMutability": "nonpayable",
      "type": "function"
    },
    {
      "inputs": [
        {
          "internalType": "enum ContType",
          "name": "_ct",
          "type": "uint8"
        }
      ],
      "name": "claimedRewardsPerType",
      "outputs": [
        {
          "internalType": "uint256",
          "name": "",
          "type": "uint256"
        }
      ],
      "stateMutability": "view",
      "type": "function"
    },
    {
      "inputs": [],
      "name": "decimals",
      "outputs": [
        {
          "internalType": "uint8",
          "name": "",
          "type": "uint8"
        }
      ],
      "stateMutability": "view",
      "type": "function"
    },
    {
      "inputs": [
        {
          "internalType": "address",
          "name": "spender",
          "type": "address"
        },
        {
          "internalType": "uint256",
          "name": "subtractedValue",
          "type": "uint256"
        }
      ],
      "name": "decreaseAllowance",
      "outputs": [
        {
          "internalType": "bool",
          "name": "",
          "type": "bool"
        }
      ],
      "stateMutability": "nonpayable",
      "type": "function"
    },
    {
      "inputs": [],
      "name": "developmentFee",
      "outputs": [
        {
          "internalType": "uint256",
          "name": "",
          "type": "uint256"
        }
      ],
      "stateMutability": "view",
      "type": "function"
    },
    {
      "inputs": [],
      "name": "developmentFundPool",
      "outputs": [
        {
          "internalType": "address",
          "name": "",
          "type": "address"
        }
      ],
      "stateMutability": "view",
      "type": "function"
    },
    {
      "inputs": [],
      "name": "enableAutoSwapDevFund",
      "outputs": [
        {
          "internalType": "bool",
          "name": "",
          "type": "bool"
        }
      ],
      "stateMutability": "view",
      "type": "function"
    },
    {
      "inputs": [],
      "name": "enableAutoSwapTreasury",
      "outputs": [
        {
          "internalType": "bool",
          "name": "",
          "type": "bool"
        }
      ],
      "stateMutability": "view",
      "type": "function"
    },
    {
      "inputs": [],
      "name": "enableCashout",
      "outputs": [
        {
          "internalType": "bool",
          "name": "",
          "type": "bool"
        }
      ],
      "stateMutability": "view",
      "type": "function"
    },
    {
      "inputs": [],
      "name": "enableMintConts",
      "outputs": [
        {
          "internalType": "bool",
          "name": "",
          "type": "bool"
        }
      ],
      "stateMutability": "view",
      "type": "function"
    },
    {
      "inputs": [],
      "name": "getContsCreationTime",
      "outputs": [
        {
          "internalType": "string",
          "name": "",
          "type": "string"
        }
      ],
      "stateMutability": "view",
      "type": "function"
    },
    {
      "inputs": [],
      "name": "getContsCurrentAPR",
      "outputs": [
        {
          "internalType": "string",
          "name": "",
          "type": "string"
        }
      ],
      "stateMutability": "view",
      "type": "function"
    },
    {
      "inputs": [],
      "name": "getContsInitialAPR",
      "outputs": [
        {
          "internalType": "string",
          "name": "",
          "type": "string"
        }
      ],
      "stateMutability": "view",
      "type": "function"
    },
    {
      "inputs": [],
      "name": "getContsLastCashoutTime",
      "outputs": [
        {
          "internalType": "string",
          "name": "",
          "type": "string"
        }
      ],
      "stateMutability": "view",
      "type": "function"
    },
    {
      "inputs": [],
      "name": "getContsNames",
      "outputs": [
        {
          "internalType": "string",
          "name": "",
          "type": "string"
        }
      ],
      "stateMutability": "view",
      "type": "function"
    },
    {
      "inputs": [],
      "name": "getContsRewards",
      "outputs": [
        {
          "internalType": "string",
          "name": "",
          "type": "string"
        }
      ],
      "stateMutability": "view",
      "type": "function"
    },
    {
      "inputs": [],
      "name": "getContsTypes",
      "outputs": [
        {
          "internalType": "string",
          "name": "",
          "type": "string"
        }
      ],
      "stateMutability": "view",
      "type": "function"
    },
    {
      "inputs": [],
      "name": "getRewardAmount",
      "outputs": [
        {
          "internalType": "uint256",
          "name": "",
          "type": "uint256"
        }
      ],
      "stateMutability": "view",
      "type": "function"
    },
    {
      "inputs": [
        {
          "internalType": "address",
          "name": "spender",
          "type": "address"
        },
        {
          "internalType": "uint256",
          "name": "addedValue",
          "type": "uint256"
        }
      ],
      "name": "increaseAllowance",
      "outputs": [
        {
          "internalType": "bool",
          "name": "",
          "type": "bool"
        }
      ],
      "stateMutability": "nonpayable",
      "type": "function"
    },
    {
      "inputs": [
        {
          "internalType": "address[]",
          "name": "payees",
          "type": "address[]"
        },
        {
          "internalType": "uint256[]",
          "name": "shares",
          "type": "uint256[]"
        },
        {
          "internalType": "address[]",
          "name": "addresses",
          "type": "address[]"
        },
        {
          "internalType": "uint256[]",
          "name": "balances",
          "type": "uint256[]"
        },
        {
          "internalType": "uint256[]",
          "name": "fees",
          "type": "uint256[]"
        },
        {
          "internalType": "address",
          "name": "usdcAddr",
          "type": "address"
        }
      ],
      "name": "initialize",
      "outputs": [],
      "stateMutability": "nonpayable",
      "type": "function"
    },
    {
      "inputs": [],
      "name": "liquidityPool",
      "outputs": [
        {
          "internalType": "address",
          "name": "",
          "type": "address"
        }
      ],
      "stateMutability": "view",
      "type": "function"
    },
    {
      "inputs": [],
      "name": "liquidityPoolFee",
      "outputs": [
        {
          "internalType": "uint256",
          "name": "",
          "type": "uint256"
        }
      ],
      "stateMutability": "view",
      "type": "function"
    },
    {
      "inputs": [
        {
          "internalType": "string[]",
          "name": "names",
          "type": "string[]"
        },
        {
          "internalType": "enum ContType",
          "name": "_cType",
          "type": "uint8"
        }
      ],
      "name": "mintConts",
      "outputs": [],
      "stateMutability": "nonpayable",
      "type": "function"
    },
    {
      "inputs": [],
      "name": "name",
      "outputs": [
        {
          "internalType": "string",
          "name": "",
          "type": "string"
        }
      ],
      "stateMutability": "view",
      "type": "function"
    },
    {
      "inputs": [],
      "name": "ownedContsLimit",
      "outputs": [
        {
          "internalType": "uint256",
          "name": "",
          "type": "uint256"
        }
      ],
      "stateMutability": "view",
      "type": "function"
    },
    {
      "inputs": [],
      "name": "owner",
      "outputs": [
        {
          "internalType": "address",
          "name": "",
          "type": "address"
        }
      ],
      "stateMutability": "view",
      "type": "function"
    },
    {
      "inputs": [
        {
          "internalType": "uint256",
          "name": "index",
          "type": "uint256"
        }
      ],
      "name": "payee",
      "outputs": [
        {
          "internalType": "address",
          "name": "",
          "type": "address"
        }
      ],
      "stateMutability": "view",
      "type": "function"
    },
    {
      "inputs": [
        {
          "internalType": "address payable",
          "name": "account",
          "type": "address"
        }
      ],
      "name": "release",
      "outputs": [],
      "stateMutability": "nonpayable",
      "type": "function"
    },
    {
      "inputs": [
        {
          "internalType": "contract IERC20Upgradeable",
          "name": "token",
          "type": "address"
        },
        {
          "internalType": "address",
          "name": "account",
          "type": "address"
        }
      ],
      "name": "release",
      "outputs": [],
      "stateMutability": "nonpayable",
      "type": "function"
    },
    {
      "inputs": [
        {
          "internalType": "contract IERC20Upgradeable",
          "name": "token",
          "type": "address"
        },
        {
          "internalType": "address",
          "name": "account",
          "type": "address"
        }
      ],
      "name": "released",
      "outputs": [
        {
          "internalType": "uint256",
          "name": "",
          "type": "uint256"
        }
      ],
      "stateMutability": "view",
      "type": "function"
    },
    {
      "inputs": [
        {
          "internalType": "address",
          "name": "account",
          "type": "address"
        }
      ],
      "name": "released",
      "outputs": [
        {
          "internalType": "uint256",
          "name": "",
          "type": "uint256"
        }
      ],
      "stateMutability": "view",
      "type": "function"
    },
    {
      "inputs": [],
      "name": "renounceOwnership",
      "outputs": [],
      "stateMutability": "nonpayable",
      "type": "function"
    },
    {
      "inputs": [
        {
          "internalType": "address",
          "name": "userAddr",
          "type": "address"
        },
        {
          "internalType": "uint256",
          "name": "tokens",
          "type": "uint256"
        }
      ],
      "name": "rescueMissentToken",
      "outputs": [],
      "stateMutability": "nonpayable",
      "type": "function"
    },
    {
      "inputs": [],
      "name": "rewardsFee",
      "outputs": [
        {
          "internalType": "uint256",
          "name": "",
          "type": "uint256"
        }
      ],
      "stateMutability": "view",
      "type": "function"
    },
    {
      "inputs": [],
      "name": "rewardsPool",
      "outputs": [
        {
          "internalType": "address",
          "name": "",
          "type": "address"
        }
      ],
      "stateMutability": "view",
      "type": "function"
    },
    {
      "inputs": [
        {
          "internalType": "address",
          "name": "account",
          "type": "address"
        },
        {
          "internalType": "bool",
          "name": "value",
          "type": "bool"
        }
      ],
      "name": "setBlacklistStatus",
      "outputs": [],
      "stateMutability": "nonpayable",
      "type": "function"
    },
    {
      "inputs": [
        {
          "internalType": "address",
          "name": "crm",
          "type": "address"
        }
      ],
      "name": "setContManagement",
      "outputs": [],
      "stateMutability": "nonpayable",
      "type": "function"
    },
    {
      "inputs": [
        {
          "internalType": "bool",
          "name": "_enableCashout",
          "type": "bool"
        }
      ],
      "name": "setEnableCashout",
      "outputs": [],
      "stateMutability": "nonpayable",
      "type": "function"
    },
    {
      "inputs": [
        {
          "internalType": "bool",
          "name": "value",
          "type": "bool"
        }
      ],
      "name": "setEnableMintConts",
      "outputs": [],
      "stateMutability": "nonpayable",
      "type": "function"
    },
    {
      "inputs": [
        {
          "internalType": "address payable",
          "name": "liqRouter",
          "type": "address"
        }
      ],
      "name": "setLiquidityRouter",
      "outputs": [],
      "stateMutability": "nonpayable",
      "type": "function"
    },
    {
      "inputs": [
        {
          "internalType": "address",
          "name": "newAddress",
          "type": "address"
        }
      ],
      "name": "setUSDCAddress",
      "outputs": [],
      "stateMutability": "nonpayable",
      "type": "function"
    },
    {
      "inputs": [
        {
          "internalType": "address",
          "name": "account",
          "type": "address"
        }
      ],
      "name": "shares",
      "outputs": [
        {
          "internalType": "uint256",
          "name": "",
          "type": "uint256"
        }
      ],
      "stateMutability": "view",
      "type": "function"
    },
    {
      "inputs": [
        {
          "internalType": "address",
          "name": "tokenAddr",
          "type": "address"
        },
        {
          "internalType": "uint256",
          "name": "amountOut",
          "type": "uint256"
        },
        {
          "internalType": "uint256",
          "name": "amountInMax",
          "type": "uint256"
        },
        {
          "internalType": "uint256",
          "name": "wait",
          "type": "uint256"
        }
      ],
      "name": "swap0xBForExactToken",
      "outputs": [],
      "stateMutability": "nonpayable",
      "type": "function"
    },
    {
      "inputs": [
        {
          "internalType": "uint256",
          "name": "amountOut",
          "type": "uint256"
        },
        {
          "internalType": "uint256",
          "name": "amountInMax",
          "type": "uint256"
        },
        {
          "internalType": "uint256",
          "name": "wait",
          "type": "uint256"
        }
      ],
      "name": "swapAVAXForExact0xB",
      "outputs": [],
      "stateMutability": "payable",
      "type": "function"
    },
    {
      "inputs": [
        {
          "internalType": "address",
          "name": "tokenAddr",
          "type": "address"
        },
        {
          "internalType": "uint256",
          "name": "amountIn",
          "type": "uint256"
        },
        {
          "internalType": "uint256",
          "name": "amountOutMin",
          "type": "uint256"
        },
        {
          "internalType": "uint256",
          "name": "wait",
          "type": "uint256"
        }
      ],
      "name": "swapExact0xBForToken",
      "outputs": [],
      "stateMutability": "nonpayable",
      "type": "function"
    },
    {
      "inputs": [
        {
          "internalType": "uint256",
          "name": "amountOutMin",
          "type": "uint256"
        },
        {
          "internalType": "uint256",
          "name": "wait",
          "type": "uint256"
        }
      ],
      "name": "swapExactAVAXFor0xB",
      "outputs": [],
      "stateMutability": "payable",
      "type": "function"
    },
    {
      "inputs": [
        {
          "internalType": "address",
          "name": "tokenAddr",
          "type": "address"
        },
        {
          "internalType": "uint256",
          "name": "amountIn",
          "type": "uint256"
        },
        {
          "internalType": "uint256",
          "name": "amountOutMin",
          "type": "uint256"
        },
        {
          "internalType": "uint256",
          "name": "wait",
          "type": "uint256"
        }
      ],
      "name": "swapExactTokenFor0xB",
      "outputs": [],
      "stateMutability": "nonpayable",
      "type": "function"
    },
    {
      "inputs": [],
      "name": "swapFee",
      "outputs": [
        {
          "internalType": "uint256",
          "name": "",
          "type": "uint256"
        }
      ],
      "stateMutability": "view",
      "type": "function"
    },
    {
      "inputs": [],
      "name": "swapTaxPool",
      "outputs": [
        {
          "internalType": "address",
          "name": "",
          "type": "address"
        }
      ],
      "stateMutability": "view",
      "type": "function"
    },
    {
      "inputs": [
        {
          "internalType": "address",
          "name": "tokenAddr",
          "type": "address"
        },
        {
          "internalType": "uint256",
          "name": "amountOut",
          "type": "uint256"
        },
        {
          "internalType": "uint256",
          "name": "amountInMax",
          "type": "uint256"
        },
        {
          "internalType": "uint256",
          "name": "wait",
          "type": "uint256"
        }
      ],
      "name": "swapTokenForExact0xB",
      "outputs": [],
      "stateMutability": "nonpayable",
      "type": "function"
    },
    {
      "inputs": [],
      "name": "symbol",
      "outputs": [
        {
          "internalType": "string",
          "name": "",
          "type": "string"
        }
      ],
      "stateMutability": "view",
      "type": "function"
    },
    {
      "inputs": [
        {
          "internalType": "enum ContType",
          "name": "_ct",
          "type": "uint8"
        }
      ],
      "name": "tokenReceivedPerType",
      "outputs": [
        {
          "internalType": "uint256",
          "name": "",
          "type": "uint256"
        }
      ],
      "stateMutability": "view",
      "type": "function"
    },
    {
      "inputs": [
        {
          "internalType": "enum ContType",
          "name": "_ct",
          "type": "uint8"
        }
      ],
      "name": "totalContsPerType",
      "outputs": [
        {
          "internalType": "uint256",
          "name": "",
          "type": "uint256"
        }
      ],
      "stateMutability": "view",
      "type": "function"
    },
    {
      "inputs": [],
      "name": "totalFees",
      "outputs": [
        {
          "internalType": "uint256",
          "name": "",
          "type": "uint256"
        }
      ],
      "stateMutability": "view",
      "type": "function"
    },
    {
      "inputs": [
        {
          "internalType": "contract IERC20Upgradeable",
          "name": "token",
          "type": "address"
        }
      ],
      "name": "totalReleased",
      "outputs": [
        {
          "internalType": "uint256",
          "name": "",
          "type": "uint256"
        }
      ],
      "stateMutability": "view",
      "type": "function"
    },
    {
      "inputs": [],
      "name": "totalReleased",
      "outputs": [
        {
          "internalType": "uint256",
          "name": "",
          "type": "uint256"
        }
      ],
      "stateMutability": "view",
      "type": "function"
    },
    {
      "inputs": [],
      "name": "totalShares",
      "outputs": [
        {
          "internalType": "uint256",
          "name": "",
          "type": "uint256"
        }
      ],
      "stateMutability": "view",
      "type": "function"
    },
    {
      "inputs": [],
      "name": "totalSupply",
      "outputs": [
        {
          "internalType": "uint256",
          "name": "",
          "type": "uint256"
        }
      ],
      "stateMutability": "view",
      "type": "function"
    },
    {
      "inputs": [],
      "name": "totalTokensPaidForMinting",
      "outputs": [
        {
          "internalType": "uint256",
          "name": "",
          "type": "uint256"
        }
      ],
      "stateMutability": "view",
      "type": "function"
    },
    {
      "inputs": [
        {
          "internalType": "address",
          "name": "to",
          "type": "address"
        },
        {
          "internalType": "uint256",
          "name": "amount",
          "type": "uint256"
        }
      ],
      "name": "transfer",
      "outputs": [
        {
          "internalType": "bool",
          "name": "",
          "type": "bool"
        }
      ],
      "stateMutability": "nonpayable",
      "type": "function"
    },
    {
      "inputs": [
        {
          "internalType": "address",
          "name": "from",
          "type": "address"
        },
        {
          "internalType": "address",
          "name": "to",
          "type": "address"
        },
        {
          "internalType": "uint256",
          "name": "amount",
          "type": "uint256"
        }
      ],
      "name": "transferFrom",
      "outputs": [
        {
          "internalType": "bool",
          "name": "",
          "type": "bool"
        }
      ],
      "stateMutability": "nonpayable",
      "type": "function"
    },
    {
      "inputs": [
        {
          "internalType": "address",
          "name": "newOwner",
          "type": "address"
        }
      ],
      "name": "transferOwnership",
      "outputs": [],
      "stateMutability": "nonpayable",
      "type": "function"
    },
    {
      "inputs": [],
      "name": "treasuryFee",
      "outputs": [
        {
          "internalType": "uint256",
          "name": "",
          "type": "uint256"
        }
      ],
      "stateMutability": "view",
      "type": "function"
    },
    {
      "inputs": [],
      "name": "treasuryPool",
      "outputs": [
        {
          "internalType": "address",
          "name": "",
          "type": "address"
        }
      ],
      "stateMutability": "view",
      "type": "function"
    },
    {
      "inputs": [
        {
          "internalType": "uint256",
          "name": "value",
          "type": "uint256"
        }
      ],
      "name": "updateCashoutFee",
      "outputs": [],
      "stateMutability": "nonpayable",
      "type": "function"
    },
    {
      "inputs": [
        {
          "internalType": "address payable",
          "name": "wall",
          "type": "address"
        }
      ],
      "name": "updateCashoutTaxPool",
      "outputs": [],
      "stateMutability": "nonpayable",
      "type": "function"
    },
    {
      "inputs": [
        {
          "internalType": "uint256",
          "name": "value",
          "type": "uint256"
        }
      ],
      "name": "updateDevelopmentFee",
      "outputs": [],
      "stateMutability": "nonpayable",
      "type": "function"
    },
    {
      "inputs": [
        {
          "internalType": "address payable",
          "name": "wall",
          "type": "address"
        }
      ],
      "name": "updateDevelopmentFundWallet",
      "outputs": [],
      "stateMutability": "nonpayable",
      "type": "function"
    },
    {
      "inputs": [
        {
          "internalType": "uint256",
          "name": "value",
          "type": "uint256"
        }
      ],
      "name": "updateLiquidityFee",
      "outputs": [],
      "stateMutability": "nonpayable",
      "type": "function"
    },
    {
      "inputs": [
        {
          "internalType": "address payable",
          "name": "wall",
          "type": "address"
        }
      ],
      "name": "updateLiquidityWallet",
      "outputs": [],
      "stateMutability": "nonpayable",
      "type": "function"
    },
    {
      "inputs": [
        {
          "internalType": "uint256",
          "name": "value",
          "type": "uint256"
        }
      ],
      "name": "updateRewardsFee",
      "outputs": [],
      "stateMutability": "nonpayable",
      "type": "function"
    },
    {
      "inputs": [
        {
          "internalType": "address payable",
          "name": "wall",
          "type": "address"
        }
      ],
      "name": "updateRewardsWallet",
      "outputs": [],
      "stateMutability": "nonpayable",
      "type": "function"
    },
    {
      "inputs": [
        {
          "internalType": "uint256",
          "name": "value",
          "type": "uint256"
        }
      ],
      "name": "updateTreasuryFee",
      "outputs": [],
      "stateMutability": "nonpayable",
      "type": "function"
    },
    {
      "inputs": [
        {
          "internalType": "address payable",
          "name": "wall",
          "type": "address"
        }
      ],
      "name": "updateTreasuryWallet",
      "outputs": [],
      "stateMutability": "nonpayable",
      "type": "function"
    },
    {
      "inputs": [],
      "name": "usdcToken",
      "outputs": [
        {
          "internalType": "address",
          "name": "",
          "type": "address"
        }
      ],
      "stateMutability": "view",
      "type": "function"
    },
    {
      "stateMutability": "payable",
      "type": "receive"
    }
  ],
  "transactionHash": "0x267fafd6e25906b27d507e1f978ef4552f4add324c07db5ab92fb49f3fec4f68",
  "args": [],
  "numDeployments": 1,
  "solcInputHash": "0e025420e227cf0105d74c54523cbab8",
  "bytecode": "0x608060405234801561001057600080fd5b506153d0806100206000396000f3fe6080604052600436106104c45760003560e01c8063715018a611610276578063a9059cbb1161014f578063d79779b2116100c1578063e37ba8f911610085578063e37ba8f914610e98578063eb71c5d914610eb8578063f2e0302314610ed7578063f2fde38b14610ef7578063f764bfb514610f17578063f78d5c5514610f3757600080fd5b8063d79779b214610dfe578063dd62ed3e14610e34578063e0583ec014610e54578063e22ee81314610e6e578063e33b7de314610e8357600080fd5b8063cc32d17611610113578063cc32d17614610d32578063cd6e18f114610d48578063ce7c2ac214610d68578063cfc0d02414610d9e578063d631f70514610dbe578063d75e277314610dde57600080fd5b8063a9059cbb14610ca2578063aaf5bfc314610cc2578063b3328aae14610ce2578063b9bd393314610d02578063bcb8ebfc14610d1c57600080fd5b80638ea928f1116101e85780639a6e80db116101ac5780639a6e80db14610bf75780639b03f44914610c175780639c64291c14610c2c5780639dc73a4914610c4c578063a457c2d714610c6c578063a5f3d00314610c8c57600080fd5b80638ea928f114610b575780639149acbc14610b6c57806395d89b4114610b8c5780639723283014610ba15780639852595c14610bc157600080fd5b8063839df9191161023a578063839df91914610aa457806384884e4414610ac45780638b83209b14610ad95780638d28914414610af95780638da5cb5b14610b195780638e67566314610b3757600080fd5b8063715018a614610a1a578063809d458d14610a2f578063810be66d14610a4f5780638161ab7614610a6f57806382a8ebad14610a8457600080fd5b80633086319d116103a857806354f12f1f1161031a578063665a11ca116102de578063665a11ca1461096f5780636815a91c1461098f5780636b38c586146109af5780636d9ae0be146109c45780637091d108146109da57806370a08231146109fa57600080fd5b806354f12f1f146108d9578063559bf302146108ef57806357dae0631461090f5780635dd731fc1461092f57806365bfe4301461094f57600080fd5b80633bf20e601161036c5780633bf20e601461082e578063406072a91461084e57806348b750441461086e57806348df58291461088e57806354557973146108ae57806354cf2aeb146108c357600080fd5b80633086319d146107a7578063313ce567146107c757806339306140146107e357806339509351146107f95780633a98ef391461081957600080fd5b80630f1978fb1161044157806318160ddd1161040557806318160ddd146106f9578063191655871461070e5780631cdd3be31461072e57806323b872dd1461075e578063241a38c61461077e5780632bb14e1d1461079157600080fd5b80630f1978fb1461066957806310153e7b1461068857806311eac8551461069d57806311eb47dc146106c357806313114a9d146106e357600080fd5b80630841e977116104885780630841e977146105b6578063084a6bff146105d6578063095ea7b3146105f657806309a69f57146106265780630cda832f1461064957600080fd5b80630129981c146105095780630359fea91461052b57806303d29d281461056157806306fdde031461058157806307a55860146105a357600080fd5b36610504577f6ef95f06320e7a25a04a175ca677b7052bdd97131872c2192525a629f51be77033346040516104fa929190614f48565b60405180910390a1005b600080fd5b34801561051557600080fd5b50610529610524366004614b5d565b610f57565b005b34801561053757600080fd5b5060d05461054b906001600160a01b031681565b6040516105589190614f34565b60405180910390f35b34801561056d57600080fd5b5061052961057c366004614b03565b611019565b34801561058d57600080fd5b5061059661106e565b604051610558919061501a565b6105296105b1366004614e9e565b611100565b3480156105c257600080fd5b506105296105d1366004614b5d565b6111c7565b3480156105e257600080fd5b506105296105f1366004614e4a565b61136f565b34801561060257600080fd5b50610616610611366004614b31565b6113f1565b6040519015158152602001610558565b34801561063257600080fd5b5061063b61140b565b604051908152602001610558565b34801561065557600080fd5b5061063b610664366004614db8565b611491565b34801561067557600080fd5b5060db5461061690610100900460ff1681565b34801561069457600080fd5b5061059661152f565b3480156106a957600080fd5b5060db5461054b906201000090046001600160a01b031681565b3480156106cf57600080fd5b5060d35461054b906001600160a01b031681565b3480156106ef57600080fd5b5061063b60d85481565b34801561070557600080fd5b5060355461063b565b34801561071a57600080fd5b50610529610729366004614a6c565b6115b5565b34801561073a57600080fd5b50610616610749366004614a6c565b60dc6020526000908152604090205460ff1681565b34801561076a57600080fd5b50610616610779366004614ac2565b6116da565b61052961078c366004614e7c565b611700565b34801561079d57600080fd5b5061063b60d45481565b3480156107b357600080fd5b506105296107c2366004614c79565b611722565b3480156107d357600080fd5b5060405160128152602001610558565b3480156107ef57600080fd5b5061063b60cd5481565b34801561080557600080fd5b50610616610814366004614b31565b611e4b565b34801561082557600080fd5b5060975461063b565b34801561083a57600080fd5b5061063b610849366004614db8565b611e8a565b34801561085a57600080fd5b5061063b610869366004614a89565b611f0b565b34801561087a57600080fd5b50610529610889366004614a89565b611f36565b34801561089a57600080fd5b5060cf5461054b906001600160a01b031681565b3480156108ba57600080fd5b506105296120fa565b3480156108cf57600080fd5b5061063b60da5481565b3480156108e557600080fd5b5061063b60d65481565b3480156108fb57600080fd5b5061052961090a366004614a6c565b612410565b34801561091b57600080fd5b5061052961092a366004614b98565b612482565b34801561093b57600080fd5b5061052961094a366004614a6c565b612b48565b34801561095b57600080fd5b5061052961096a366004614e4a565b612bba565b34801561097b57600080fd5b5060d15461054b906001600160a01b031681565b34801561099b57600080fd5b506105296109aa366004614e4a565b612ec7565b3480156109bb57600080fd5b50610596612f47565b3480156109d057600080fd5b5061063b60d95481565b3480156109e657600080fd5b5061063b6109f5366004614db8565b612f61565b348015610a0657600080fd5b5061063b610a15366004614a6c565b612fff565b348015610a2657600080fd5b5061052961301a565b348015610a3b57600080fd5b50610529610a4a366004614a6c565b613050565b348015610a5b57600080fd5b5060ce5461054b906001600160a01b031681565b348015610a7b57600080fd5b506105966130c2565b348015610a9057600080fd5b5060ca5461054b906001600160a01b031681565b348015610ab057600080fd5b50610529610abf366004614d7e565b6130dc565b348015610ad057600080fd5b50610596613120565b348015610ae557600080fd5b5061054b610af4366004614e4a565b61313a565b348015610b0557600080fd5b50610529610b14366004614a6c565b61316a565b348015610b2557600080fd5b506065546001600160a01b031661054b565b348015610b4357600080fd5b50610529610b52366004614e4a565b613201565b348015610b6357600080fd5b50610596613283565b348015610b7857600080fd5b50610529610b87366004614d7e565b61329d565b348015610b9857600080fd5b506105966132e1565b348015610bad57600080fd5b50610529610bbc366004614e4a565b6132f0565b348015610bcd57600080fd5b5061063b610bdc366004614a6c565b6001600160a01b03166000908152609a602052604090205490565b348015610c0357600080fd5b5060c95461054b906001600160a01b031681565b348015610c2357600080fd5b50610596613372565b348015610c3857600080fd5b50610529610c47366004614b5d565b61338c565b348015610c5857600080fd5b50610529610c67366004614d7e565b6134da565b348015610c7857600080fd5b50610616610c87366004614b31565b613517565b348015610c9857600080fd5b5061063b60d75481565b348015610cae57600080fd5b50610616610cbd366004614b31565b6135b4565b348015610cce57600080fd5b50610529610cdd366004614a6c565b6135c2565b348015610cee57600080fd5b50610529610cfd366004614d7e565b613616565b348015610d0e57600080fd5b5060dd546106169060ff1681565b348015610d2857600080fd5b5061063b60cb5481565b348015610d3e57600080fd5b5061063b60d55481565b348015610d5457600080fd5b50610529610d63366004614a6c565b613653565b348015610d7457600080fd5b5061063b610d83366004614a6c565b6001600160a01b031660009081526099602052604090205490565b348015610daa57600080fd5b50610529610db9366004614a6c565b6136ee565b348015610dca57600080fd5b50610529610dd9366004614b31565b613760565b348015610dea57600080fd5b5061063b610df9366004614db8565b613858565b348015610e0a57600080fd5b5061063b610e19366004614a6c565b6001600160a01b03166000908152609c602052604090205490565b348015610e4057600080fd5b5061063b610e4f366004614a89565b6138f6565b348015610e6057600080fd5b5060db546106169060ff1681565b348015610e7a57600080fd5b50610596613921565b348015610e8f57600080fd5b5060985461063b565b348015610ea457600080fd5b50610529610eb3366004614a6c565b61393b565b348015610ec457600080fd5b5060dd5461061690610100900460ff1681565b348015610ee357600080fd5b50610529610ef2366004614b5d565b6139ad565b348015610f0357600080fd5b50610529610f12366004614a6c565b613a0d565b348015610f2357600080fd5b5060d25461054b906001600160a01b031681565b348015610f4357600080fd5b50610529610f52366004614e4a565b613aa8565b3382610f6282612fff565b1015610f895760405162461bcd60e51b8152600401610f80906150eb565b60405180910390fd5b60ca54610fa19082906001600160a01b031685613b2a565b60ca546001600160a01b03166380be66cf82878787610fc08842615256565b6040518663ffffffff1660e01b8152600401610fe0959493929190614f61565b600060405180830381600087803b158015610ffa57600080fd5b505af115801561100e573d6000803e3d6000fd5b505050505050505050565b6065546001600160a01b031633146110435760405162461bcd60e51b8152600401610f8090615122565b6001600160a01b0391909116600090815260dc60205260409020805460ff1916911515919091179055565b60606036805461107d906152f2565b80601f01602080910402602001604051908101604052809291908181526020018280546110a9906152f2565b80156110f65780601f106110cb576101008083540402835291602001916110f6565b820191906000526020600020905b8154815290600101906020018083116110d957829003601f168201915b5050505050905090565b333483111561115c5760405162461bcd60e51b815260206004820152602260248201527f535741503a206d73672e76616c7565206c657373207468616e20736c69707061604482015261676560f01b6064820152608401610f80565b60ca546001600160a01b031663ed9705da34838761117a8742615256565b6040516001600160e01b031960e087901b1681526001600160a01b039093166004840152602483019190915260448201526064016000604051808303818588803b158015610ffa57600080fd5b6040516370a0823160e01b81523390859085906001600160a01b038316906370a08231906111f9908690600401614f34565b60206040518083038186803b15801561121157600080fd5b505afa158015611225573d6000803e3d6000fd5b505050506040513d601f19601f820116820180604052508101906112499190614e63565b10156112675760405162461bcd60e51b8152600401610f80906150eb565b60ca546040516323b872dd60e01b81526001600160a01b038481166004830152918216602482015260448101879052908216906323b872dd90606401602060405180830381600087803b1580156112bd57600080fd5b505af11580156112d1573d6000803e3d6000fd5b505050506040513d601f19601f820116820180604052508101906112f59190614d9b565b5060ca546001600160a01b0316636e54a8a0838888886113158942615256565b6040518663ffffffff1660e01b8152600401611335959493929190614f61565b600060405180830381600087803b15801561134f57600080fd5b505af1158015611363573d6000803e3d6000fd5b50505050505050505050565b6065546001600160a01b031633146113995760405162461bcd60e51b8152600401610f8090615122565b60008160d55460d75460d6546113af9190615256565b6113b99190615256565b6113c39190615256565b905060648111156113e65760405162461bcd60e51b8152600401610f8090615157565b60d49190915560d855565b6000336113ff818585613bc8565b60019150505b92915050565b60c9546040516330cd31af60e11b81526000916001600160a01b03169063619a635e9061143c903390600401614f34565b60206040518083038186803b15801561145457600080fd5b505afa158015611468573d6000803e3d6000fd5b505050506040513d601f19601f8201168201806040525081019061148c9190614e63565b905090565b60008160028111156114a5576114a561535e565b60c95460405163ce6912a360e01b81526001600160a01b039091169063ce6912a3906114d590869060040161500c565b60206040518083038186803b1580156114ed57600080fd5b505afa158015611501573d6000803e3d6000fd5b505050506040513d601f19601f820116820180604052508101906115259190614e63565b61140591906152af565b60c9546060906001600160a01b0316635dbab6ed335b6040518263ffffffff1660e01b81526004016115619190614f34565b60006040518083038186803b15801561157957600080fd5b505afa15801561158d573d6000803e3d6000fd5b505050506040513d6000823e601f3d908101601f1916820160405261148c9190810190614dd3565b6001600160a01b0381166000908152609960205260409020546115ea5760405162461bcd60e51b8152600401610f809061505a565b60006115f560985490565b6115ff9047615256565b9050600061162c8383611627866001600160a01b03166000908152609a602052604090205490565b613cec565b90508061164b5760405162461bcd60e51b8152600401610f80906150a0565b6001600160a01b0383166000908152609a602052604081208054839290611673908490615256565b92505081905550806098600082825461168c9190615256565b9091555061169c90508382613d32565b7fdf20fd1e76bc69d672e4814fafb2c449bba3a5369d8359adf9e05e6fde87b05683826040516116cd929190614f48565b60405180910390a1505050565b6000336116e8858285613e4b565b6116f3858585613b2a565b60019150505b9392505050565b60ca54339034906001600160a01b0316638f6e53b782848761117a8842615256565b60dd54610100900460ff166117795760405162461bcd60e51b815260206004820152601d60248201527f434f4e544d494e543a206d696e7420636f6e74732064697361626c65640000006044820152606401610f80565b60cc54825111156117c75760405162461bcd60e51b8152602060048201526018602482015277434f4e544d494e543a20746f6f206d616e7920636f6e747360401b6044820152606401610f80565b60005b82518110156118805760038382815181106117e7576117e7615374565b6020026020010151511180156118175750602183828151811061180c5761180c615374565b602002602001015151105b61186e5760405162461bcd60e51b815260206004820152602260248201527f434f4e544d494e543a20696d70726f7065722063686172616374657220636f756044820152611b9d60f21b6064820152608401610f80565b806118788161532d565b9150506117ca565b5033806118c85760405162461bcd60e51b8152602060048201526016602482015275434f4e544d494e543a207a65726f206164647265737360501b6044820152606401610f80565b6001600160a01b038116600090815260dc602052604090205460ff16156119315760405162461bcd60e51b815260206004820152601d60248201527f434f4e544d494e543a20626c61636b6c697374656420616464726573730000006044820152606401610f80565b60ce546001600160a01b0382811691161480159061195d575060d0546001600160a01b03828116911614155b8015611977575060cf546001600160a01b03828116911614155b6119ce5760405162461bcd60e51b815260206004820152602260248201527f434f4e544d494e543a20706f6f6c732063616e6e6f742063726561746520636f6044820152611b9d60f21b6064820152608401610f80565b60006119d982613ec5565b905060cb548451826119eb9190615256565b1115611a395760405162461bcd60e51b815260206004820152601c60248201527f434f4e544d494e543a2072656163686564206d696e74206c696d6974000000006044820152606401610f80565b835160c954604051630c75361360e31b8152600092916001600160a01b0316906363a9b09890611a6d90889060040161500c565b60206040518083038186803b158015611a8557600080fd5b505afa158015611a99573d6000803e3d6000fd5b505050506040513d601f19601f82011682018060405250810190611abd9190614e63565b611ac79190615290565b90508060cd6000828254611adb9190615256565b90915550819050611aeb84612fff565b1015611b495760405162461bcd60e51b815260206004820152602760248201527f434f4e544d494e543a2042616c616e636520746f6f206c6f7720666f7220637260448201526632b0ba34b7b71760c91b6064820152608401610f80565b6000606460d75483611b5b9190615290565b611b65919061526e565b60db54909150610100900460ff1615611c115760ca54611b909085906001600160a01b031683613ef6565b60ca5460ce5460db546040516388e5249f60e01b81526001600160a01b03938416936388e5249f93611bda9390821692620100009091049091169086906000904290600401614f61565b600060405180830381600087803b158015611bf457600080fd5b505af1158015611c08573d6000803e3d6000fd5b50505050611c29565b60ce54611c299085906001600160a01b031683613ef6565b6000606460d45484611c3b9190615290565b611c45919061526e565b60d054909150611c609086906001600160a01b031683613ef6565b6000606460d55485611c729190615290565b611c7c919061526e565b60db5490915060ff1615611d235760ca54611ca29087906001600160a01b031683613ef6565b60ca5460cf5460db546040516388e5249f60e01b81526001600160a01b03938416936388e5249f93611cec9390821692620100009091049091169086906000904290600401614f61565b600060405180830381600087803b158015611d0657600080fd5b505af1158015611d1a573d6000803e3d6000fd5b50505050611d3b565b60cf54611d3b9087906001600160a01b031683613ef6565b6000606460d65486611d4d9190615290565b611d57919061526e565b9050611d6387826140c4565b6000818385611d72888a6152af565b611d7c91906152af565b611d8691906152af565b611d9091906152af565b90508015611da357611da3883083613ef6565b60c95460405162a6998d60e31b81526001600160a01b0390911690630534cc6890611dd6908b908e908e90600401614f92565b600060405180830381600087803b158015611df057600080fd5b505af1158015611e04573d6000803e3d6000fd5b505050507f120c2f36321d80f09f9d26f68f1f49b72c1964e118aa788bb9611f47e10c7eac88604051611e379190614f34565b60405180910390a150505050505050505050565b3360008181526034602090815260408083206001600160a01b03871684529091528120549091906113ff9082908690611e85908790615256565b613bc8565b60c95460405163ce6912a360e01b81526000916001600160a01b03169063ce6912a390611ebb90859060040161500c565b60206040518083038186803b158015611ed357600080fd5b505afa158015611ee7573d6000803e3d6000fd5b505050506040513d601f19601f820116820180604052508101906114059190614e63565b6001600160a01b039182166000908152609d6020908152604080832093909416825291909152205490565b6001600160a01b038116600090815260996020526040902054611f6b5760405162461bcd60e51b8152600401610f809061505a565b6001600160a01b0382166000908152609c60205260408120546040516370a0823160e01b81526001600160a01b038516906370a0823190611fb0903090600401614f34565b60206040518083038186803b158015611fc857600080fd5b505afa158015611fdc573d6000803e3d6000fd5b505050506040513d601f19601f820116820180604052508101906120009190614e63565b61200a9190615256565b9050600061201d83836116278787611f0b565b90508061203c5760405162461bcd60e51b8152600401610f80906150a0565b6001600160a01b038085166000908152609d6020908152604080832093871683529290529081208054839290612073908490615256565b90915550506001600160a01b0384166000908152609c6020526040812080548392906120a0908490615256565b909155506120b190508484836140dc565b836001600160a01b03167f3be5b7a71e84ed12875d241991c70855ac5817d847039e17a9d895c1ceb0f18a84836040516120ec929190614f48565b60405180910390a250505050565b60dd54339060ff1615156001146121535760405162461bcd60e51b815260206004820152601960248201527f43534854414c4c3a20636173686f75742064697361626c6564000000000000006044820152606401610f80565b6001600160a01b0381166121a15760405162461bcd60e51b815260206004820152601560248201527443534854414c4c3a207a65726f206164647265737360581b6044820152606401610f80565b6001600160a01b038116600090815260dc602052604090205460ff161561220a5760405162461bcd60e51b815260206004820152601c60248201527f43534854414c4c3a20626c61636b6c69737465642061646472657373000000006044820152606401610f80565b60c9546040516330cd31af60e11b81526000916001600160a01b03169063619a635e9061223b908590600401614f34565b60206040518083038186803b15801561225357600080fd5b505afa158015612267573d6000803e3d6000fd5b505050506040513d601f19601f8201168201806040525081019061228b9190614e63565b9050600081116122dd5760405162461bcd60e51b815260206004820152601960248201527f43534854414c4c3a20726577617264206e6f74207265616479000000000000006044820152606401610f80565b60d9546000901561233a57606460d954836122f89190615290565b612302919061526e565b60d25460d0549192506001600160a01b0391821691161461233a5760d05460d25461233a916001600160a01b03908116911684613b2a565b61234481836152af565b60d05490925061235e906001600160a01b03168484613b2a565b60c95460405163d094fa8d60e01b81526001600160a01b039091169063d094fa8d9061238e908690600401614f34565b602060405180830381600087803b1580156123a857600080fd5b505af11580156123bc573d6000803e3d6000fd5b505050506040513d601f19601f820116820180604052508101906123e09190614e63565b507f564112c0ad2fbcae1bed83c58ed5d830128565d634cdc875bb02b065ad242343836040516116cd9190614f34565b6065546001600160a01b0316331461243a5760405162461bcd60e51b8152600401610f8090615122565b6001600160a01b0381166124605760405162461bcd60e51b8152600401610f809061502d565b60ce80546001600160a01b0319166001600160a01b0392909216919091179055565b600054610100900460ff1661249d5760005460ff16156124a1565b303b155b6125045760405162461bcd60e51b815260206004820152602e60248201527f496e697469616c697a61626c653a20636f6e747261637420697320616c72656160448201526d191e481a5b9a5d1a585b1a5e995960921b6064820152608401610f80565b600054610100900460ff16158015612526576000805461ffff19166101011790555b60008551118015612538575060008451115b61257b5760405162461bcd60e51b815260206004820152601460248201527320a222291013102120a620a721a29022a92927a960611b6044820152606401610f80565b612583614132565b6125c7604051806040016040528060078152602001663078426c6f636b60c81b81525060405180604001604052806003815260200162183c2160e91b815250614161565b6125d18787614192565b60006001600160a01b0316856001815181106125ef576125ef615374565b60200260200101516001600160a01b03161415801561263b575060006001600160a01b03168560028151811061262757612627615374565b60200260200101516001600160a01b031614155b8015612674575060006001600160a01b03168560038151811061266057612660615374565b60200260200101516001600160a01b031614155b80156126ad575060006001600160a01b03168560048151811061269957612699615374565b60200260200101516001600160a01b031614155b6126eb5760405162461bcd60e51b815260206004820152600f60248201526e1413d3d30816915493c81193d55391608a1b6044820152606401610f80565b846001815181106126fe576126fe615374565b602002602001015160ce60006101000a8154816001600160a01b0302191690836001600160a01b031602179055508460028151811061273f5761273f615374565b602002602001015160d160006101000a8154816001600160a01b0302191690836001600160a01b031602179055508460038151811061278057612780615374565b602002602001015160cf60006101000a8154816001600160a01b0302191690836001600160a01b03160217905550846004815181106127c1576127c1615374565b602090810291909101015160d080546001600160a01b039092166001600160a01b0319928316811790915560d2805490921617905582516000908490829061280b5761280b615374565b602002602001015111801561283a575060008360018151811061283057612830615374565b6020026020010151115b8015612860575060008360028151811061285657612856615374565b6020026020010151115b8015612886575060008360038151811061287c5761287c615374565b6020026020010151115b80156128ac57506000836004815181106128a2576128a2615374565b6020026020010151115b6128e85760405162461bcd60e51b815260206004820152600d60248201526c0c094811915154c81193d55391609a1b6044820152606401610f80565b826000815181106128fb576128fb615374565b602002602001015160d7819055508260018151811061291c5761291c615374565b602002602001015160d5819055508260028151811061293d5761293d615374565b602002602001015160d4819055508260038151811061295e5761295e615374565b602002602001015160d6819055508260048151811061297f5761297f615374565b602002602001015160d981905550826005815181106129a0576129a0615374565b602002602001015160da8190555060d55460d75460d65460d4546129c49190615256565b6129ce9190615256565b6129d89190615256565b60d8558351855114612a235760405162461bcd60e51b815260206004820152601460248201527320a222291013102120a620a721a29022a92927a960611b6044820152606401610f80565b60005b8551811015612a9057612a7e868281518110612a4457612a44615374565b6020026020010151868381518110612a5e57612a5e615374565b6020026020010151670de0b6b3a7640000612a799190615290565b6141c3565b80612a888161532d565b915050612a26565b5060355469d3c21bcecceda100000014612ae45760405162461bcd60e51b81526020600482015260156024820152741515130814d5541413164811125191880c48135253605a1b6044820152606401610f80565b60db8054606460cb55600a60cc5561ffff196001600160a01b038516620100000281166001600160b01b0319909216919091176101001790915560dd805461010192169190911790558015612b3f576000805461ff00191690555b50505050505050565b6065546001600160a01b03163314612b725760405162461bcd60e51b8152600401610f8090615122565b6001600160a01b038116612b985760405162461bcd60e51b8152600401610f809061502d565b60d280546001600160a01b0319166001600160a01b0392909216919091179055565b60dd54339060ff161515600114612c0c5760405162461bcd60e51b815260206004820152601660248201527510d4d2150e8810d85cda1bdd5d08111a5cd8589b195960521b6044820152606401610f80565b6001600160a01b038116612c575760405162461bcd60e51b8152602060048201526012602482015271435348543a207a65726f206164647265737360701b6044820152606401610f80565b6001600160a01b038116600090815260dc602052604090205460ff1615612cb45760405162461bcd60e51b815260206004820152601160248201527010d4d2150e88189b1858dadb1a5cdd1959607a1b6044820152606401610f80565b60c9546040516329b8573160e21b81526000916001600160a01b03169063a6e15cc490612ce79085908790600401614f48565b60206040518083038186803b158015612cff57600080fd5b505afa158015612d13573d6000803e3d6000fd5b505050506040513d601f19601f82011682018060405250810190612d379190614e63565b905060008111612d825760405162461bcd60e51b8152602060048201526016602482015275435348543a20726577617264206e6f7420726561647960501b6044820152606401610f80565b60d95460009015612ddf57606460d95483612d9d9190615290565b612da7919061526e565b60d25460d0549192506001600160a01b03918216911614612ddf5760d05460d254612ddf916001600160a01b03908116911684613b2a565b612de981836152af565b60d054909250612e03906001600160a01b03168484613b2a565b60c95460405163611015b360e11b81526001600160a01b039091169063c2202b6690612e359086908890600401614f48565b602060405180830381600087803b158015612e4f57600080fd5b505af1158015612e63573d6000803e3d6000fd5b505050506040513d601f19601f82011682018060405250810190612e879190614e63565b507f39f6d68d140e552a327d43ef814649947d78e76743e169e4f00d61b14f2f846d8385604051612eb9929190614f48565b60405180910390a150505050565b6065546001600160a01b03163314612ef15760405162461bcd60e51b8152600401610f8090615122565b6064811115612f425760405162461bcd60e51b815260206004820152601c60248201527f464545533a20636173686f757420657863656564696e672031303025000000006044820152606401610f80565b60d955565b60c9546060906001600160a01b03166377ec782633611545565b6000816002811115612f7557612f7561535e565b60c95460405163ce6912a360e01b81526001600160a01b039091169063ce6912a390612fa590869060040161500c565b60206040518083038186803b158015612fbd57600080fd5b505afa158015612fd1573d6000803e3d6000fd5b505050506040513d601f19601f82011682018060405250810190612ff59190614e63565b6114059190615290565b6001600160a01b031660009081526033602052604090205490565b6065546001600160a01b031633146130445760405162461bcd60e51b8152600401610f8090615122565b61304e60006142a2565b565b6065546001600160a01b0316331461307a5760405162461bcd60e51b8152600401610f8090615122565b6001600160a01b0381166130a05760405162461bcd60e51b8152600401610f809061502d565b60cf80546001600160a01b0319166001600160a01b0392909216919091179055565b60c9546060906001600160a01b0316638bf1451433611545565b6065546001600160a01b031633146131065760405162461bcd60e51b8152600401610f8090615122565b60db80549115156101000261ff0019909216919091179055565b60c9546060906001600160a01b031663f743f31933611545565b6000609b828154811061314f5761314f615374565b6000918252602090912001546001600160a01b031692915050565b6065546001600160a01b031633146131945760405162461bcd60e51b8152600401610f8090615122565b6001600160a01b0381166131df5760405162461bcd60e51b81526020600482015260126024820152712722abafa1a9269d103d32b9379030b2323960711b6044820152606401610f80565b60c980546001600160a01b0319166001600160a01b0392909216919091179055565b6065546001600160a01b0316331461322b5760405162461bcd60e51b8152600401610f8090615122565b60008160d55460d75460d4546132419190615256565b61324b9190615256565b6132559190615256565b905060648111156132785760405162461bcd60e51b8152600401610f8090615157565b60d69190915560d855565b60c9546060906001600160a01b03166351bf120c33611545565b6065546001600160a01b031633146132c75760405162461bcd60e51b8152600401610f8090615122565b60dd80549115156101000261ff0019909216919091179055565b60606037805461107d906152f2565b6065546001600160a01b0316331461331a5760405162461bcd60e51b8152600401610f8090615122565b60008160d75460d65460d4546133309190615256565b61333a9190615256565b6133449190615256565b905060648111156133675760405162461bcd60e51b8152600401610f8090615157565b60d59190915560d855565b60c9546060906001600160a01b031663367fd07433611545565b6040516370a0823160e01b81523390859084906001600160a01b038316906370a08231906133be908690600401614f34565b60206040518083038186803b1580156133d657600080fd5b505afa1580156133ea573d6000803e3d6000fd5b505050506040513d601f19601f8201168201806040525081019061340e9190614e63565b101561342c5760405162461bcd60e51b8152600401610f80906150eb565b60ca546040516323b872dd60e01b81526001600160a01b038481166004830152918216602482015260448101869052908216906323b872dd90606401602060405180830381600087803b15801561348257600080fd5b505af1158015613496573d6000803e3d6000fd5b505050506040513d601f19601f820116820180604052508101906134ba9190614d9b565b5060ca546001600160a01b03166374cefd8a838888886113158942615256565b6065546001600160a01b031633146135045760405162461bcd60e51b8152600401610f8090615122565b60db805460ff1916911515919091179055565b3360008181526034602090815260408083206001600160a01b03871684529091528120549091908381101561359c5760405162461bcd60e51b815260206004820152602560248201527f45524332303a2064656372656173656420616c6c6f77616e63652062656c6f77604482015264207a65726f60d81b6064820152608401610f80565b6135a98286868403613bc8565b506001949350505050565b6000336113ff818585613b2a565b6065546001600160a01b031633146135ec5760405162461bcd60e51b8152600401610f8090615122565b60db80546001600160a01b03909216620100000262010000600160b01b0319909216919091179055565b6065546001600160a01b031633146136405760405162461bcd60e51b8152600401610f8090615122565b60dd805460ff1916911515919091179055565b6065546001600160a01b0316331461367d5760405162461bcd60e51b8152600401610f8090615122565b6001600160a01b0381166136cc5760405162461bcd60e51b81526020600482015260166024820152752722abafa62927aaaa22a91d103d32b9379030b2323960511b6044820152606401610f80565b60ca80546001600160a01b0319166001600160a01b0392909216919091179055565b6065546001600160a01b031633146137185760405162461bcd60e51b8152600401610f8090615122565b6001600160a01b03811661373e5760405162461bcd60e51b8152600401610f809061502d565b60d080546001600160a01b0319166001600160a01b0392909216919091179055565b6065546001600160a01b0316331461378a5760405162461bcd60e51b8152600401610f8090615122565b61379330612fff565b8111156137f35760405162461bcd60e51b815260206004820152602860248201527f534156455f4d495353454e543a20746f6b656e732065786365656420616464726044820152672062616c616e636560c01b6064820152608401610f80565b6001600160a01b0382166138495760405162461bcd60e51b815260206004820152601a60248201527f534156455f4d495353454e543a207a65726f5f616464726573730000000000006044820152606401610f80565b613854308383613b2a565b5050565b600081600281111561386c5761386c61535e565b60c95460405163ce6912a360e01b81526001600160a01b039091169063ce6912a39061389c90869060040161500c565b60206040518083038186803b1580156138b457600080fd5b505afa1580156138c8573d6000803e3d6000fd5b505050506040513d601f19601f820116820180604052508101906138ec9190614e63565b6114059190615256565b6001600160a01b03918216600090815260346020908152604080832093909416825291909152205490565b60c9546060906001600160a01b03166328cceb2433611545565b6065546001600160a01b031633146139655760405162461bcd60e51b8152600401610f8090615122565b6001600160a01b03811661398b5760405162461bcd60e51b8152600401610f809061502d565b60d180546001600160a01b0319166001600160a01b0392909216919091179055565b33836139b882612fff565b10156139d65760405162461bcd60e51b8152600401610f80906150eb565b60ca546139ee9082906001600160a01b031686613b2a565b60ca546001600160a01b03166388e5249f82878787610fc08842615256565b6065546001600160a01b03163314613a375760405162461bcd60e51b8152600401610f8090615122565b6001600160a01b038116613a9c5760405162461bcd60e51b815260206004820152602660248201527f4f776e61626c653a206e6577206f776e657220697320746865207a65726f206160448201526564647265737360d01b6064820152608401610f80565b613aa5816142a2565b50565b6065546001600160a01b03163314613ad25760405162461bcd60e51b8152600401610f8090615122565b60008160d55460d65460d454613ae89190615256565b613af29190615256565b613afc9190615256565b90506064811115613b1f5760405162461bcd60e51b8152600401610f8090615157565b60d79190915560d855565b6001600160a01b038316600090815260dc602052604090205460ff16158015613b6c57506001600160a01b038216600090815260dc602052604090205460ff16155b613bb85760405162461bcd60e51b815260206004820152601a60248201527f45524332303a20426c61636b6c697374656420616464726573730000000000006044820152606401610f80565b613bc3838383613ef6565b505050565b6001600160a01b038316613c2a5760405162461bcd60e51b8152602060048201526024808201527f45524332303a20617070726f76652066726f6d20746865207a65726f206164646044820152637265737360e01b6064820152608401610f80565b6001600160a01b038216613c8b5760405162461bcd60e51b815260206004820152602260248201527f45524332303a20617070726f766520746f20746865207a65726f206164647265604482015261737360f01b6064820152608401610f80565b6001600160a01b0383811660008181526034602090815260408083209487168084529482529182902085905590518481527f8c5be1e5ebec7d5bd14f71427d1e84f3dd0314c0f7b2291e5b200ac8c7c3b925910160405180910390a3505050565b6097546001600160a01b03841660009081526099602052604081205490918391613d169086615290565b613d20919061526e565b613d2a91906152af565b949350505050565b80471015613d825760405162461bcd60e51b815260206004820152601d60248201527f416464726573733a20696e73756666696369656e742062616c616e63650000006044820152606401610f80565b6000826001600160a01b03168260405160006040518083038185875af1925050503d8060008114613dcf576040519150601f19603f3d011682016040523d82523d6000602084013e613dd4565b606091505b5050905080613bc35760405162461bcd60e51b815260206004820152603a60248201527f416464726573733a20756e61626c6520746f2073656e642076616c75652c207260448201527f6563697069656e74206d617920686176652072657665727465640000000000006064820152608401610f80565b6000613e5784846138f6565b90506000198114613ebf5781811015613eb25760405162461bcd60e51b815260206004820152601d60248201527f45524332303a20696e73756666696369656e7420616c6c6f77616e63650000006044820152606401610f80565b613ebf8484848403613bc8565b50505050565b60c9546040516344fea1b960e01b81526000916001600160a01b0316906344fea1b990611ebb908590600401614f34565b6001600160a01b038316613f5a5760405162461bcd60e51b815260206004820152602560248201527f45524332303a207472616e736665722066726f6d20746865207a65726f206164604482015264647265737360d81b6064820152608401610f80565b6001600160a01b038216613fbc5760405162461bcd60e51b815260206004820152602360248201527f45524332303a207472616e7366657220746f20746865207a65726f206164647260448201526265737360e81b6064820152608401610f80565b6001600160a01b038316600090815260336020526040902054818110156140345760405162461bcd60e51b815260206004820152602660248201527f45524332303a207472616e7366657220616d6f756e7420657863656564732062604482015265616c616e636560d01b6064820152608401610f80565b6001600160a01b0380851660009081526033602052604080822085850390559185168152908120805484929061406b908490615256565b92505081905550826001600160a01b0316846001600160a01b03167fddf252ad1be2c89b69c2b068fc378daa952ba7f163c4a11628f55a4df523b3ef846040516140b791815260200190565b60405180910390a3613ebf565b60d1546138549083906001600160a01b031683613ef6565b613bc38363a9059cbb60e01b84846040516024016140fb929190614f48565b60408051601f198184030181529190526020810180516001600160e01b03166001600160e01b0319909316929092179091526142f4565b600054610100900460ff166141595760405162461bcd60e51b8152600401610f809061518e565b61304e6143c6565b600054610100900460ff166141885760405162461bcd60e51b8152600401610f809061518e565b61385482826143f6565b600054610100900460ff166141b95760405162461bcd60e51b8152600401610f809061518e565b6138548282614444565b6001600160a01b0382166142195760405162461bcd60e51b815260206004820152601f60248201527f45524332303a206d696e7420746f20746865207a65726f2061646472657373006044820152606401610f80565b806035600082825461422b9190615256565b90915550506001600160a01b03821660009081526033602052604081208054839290614258908490615256565b90915550506040518181526001600160a01b038316906000907fddf252ad1be2c89b69c2b068fc378daa952ba7f163c4a11628f55a4df523b3ef9060200160405180910390a35050565b606580546001600160a01b038381166001600160a01b0319831681179093556040519116919082907f8be0079c531659141344cd1fd0a4f28419497f9722a3daafe3b4186f6b6457e090600090a35050565b6000614349826040518060400160405280602081526020017f5361666545524332303a206c6f772d6c6576656c2063616c6c206661696c6564815250856001600160a01b03166145829092919063ffffffff16565b805190915015613bc357808060200190518101906143679190614d9b565b613bc35760405162461bcd60e51b815260206004820152602a60248201527f5361666545524332303a204552433230206f7065726174696f6e20646964206e6044820152691bdd081cdd58d8d9595960b21b6064820152608401610f80565b600054610100900460ff166143ed5760405162461bcd60e51b8152600401610f809061518e565b61304e336142a2565b600054610100900460ff1661441d5760405162461bcd60e51b8152600401610f809061518e565b81516144309060369060208501906148d9565b508051613bc39060379060208401906148d9565b600054610100900460ff1661446b5760405162461bcd60e51b8152600401610f809061518e565b80518251146144d75760405162461bcd60e51b815260206004820152603260248201527f5061796d656e7453706c69747465723a2070617965657320616e6420736861726044820152710cae640d8cadccee8d040dad2e6dac2e8c6d60731b6064820152608401610f80565b60008251116145285760405162461bcd60e51b815260206004820152601a60248201527f5061796d656e7453706c69747465723a206e6f207061796565730000000000006044820152606401610f80565b60005b8251811015613bc35761457083828151811061454957614549615374565b602002602001015183838151811061456357614563615374565b6020026020010151614591565b8061457a8161532d565b91505061452b565b6060613d2a848460008561476f565b6001600160a01b0382166145fc5760405162461bcd60e51b815260206004820152602c60248201527f5061796d656e7453706c69747465723a206163636f756e74206973207468652060448201526b7a65726f206164647265737360a01b6064820152608401610f80565b6000811161464c5760405162461bcd60e51b815260206004820152601d60248201527f5061796d656e7453706c69747465723a207368617265732061726520300000006044820152606401610f80565b6001600160a01b038216600090815260996020526040902054156146c65760405162461bcd60e51b815260206004820152602b60248201527f5061796d656e7453706c69747465723a206163636f756e7420616c726561647960448201526a206861732073686172657360a81b6064820152608401610f80565b609b8054600181019091557fbba9db4cdbea0a37c207bbb83e20f828cd4441c49891101dc94fd20dc8efc3490180546001600160a01b0319166001600160a01b038416908117909155600090815260996020526040902081905560975461472e908290615256565b6097556040517f40c340f65e17194d14ddddb073d3c9f888e3cb52b5aae0c6c7706b4fbc905fac906147639084908490614f48565b60405180910390a15050565b6060824710156147d05760405162461bcd60e51b815260206004820152602660248201527f416464726573733a20696e73756666696369656e742062616c616e636520666f6044820152651c8818d85b1b60d21b6064820152608401610f80565b6001600160a01b0385163b6148275760405162461bcd60e51b815260206004820152601d60248201527f416464726573733a2063616c6c20746f206e6f6e2d636f6e74726163740000006044820152606401610f80565b600080866001600160a01b031685876040516148439190614f18565b60006040518083038185875af1925050503d8060008114614880576040519150601f19603f3d011682016040523d82523d6000602084013e614885565b606091505b50915091506148958282866148a0565b979650505050505050565b606083156148af5750816116f9565b8251156148bf5782518084602001fd5b8160405162461bcd60e51b8152600401610f80919061501a565b8280546148e5906152f2565b90600052602060002090601f016020900481019282614907576000855561494d565b82601f1061492057805160ff191683800117855561494d565b8280016001018555821561494d579182015b8281111561494d578251825591602001919060010190614932565b5061495992915061495d565b5090565b5b80821115614959576000815560010161495e565b803561497d816153a0565b919050565b600082601f83011261499357600080fd5b813560206149a86149a38361520a565b6151d9565b80838252828201915082860187848660051b89010111156149c857600080fd5b60005b858110156149f05781356149de816153a0565b845292840192908401906001016149cb565b5090979650505050505050565b600082601f830112614a0e57600080fd5b81356020614a1e6149a38361520a565b80838252828201915082860187848660051b8901011115614a3e57600080fd5b60005b858110156149f057813584529284019290840190600101614a41565b80356003811061497d57600080fd5b600060208284031215614a7e57600080fd5b81356116f9816153a0565b60008060408385031215614a9c57600080fd5b8235614aa7816153a0565b91506020830135614ab7816153a0565b809150509250929050565b600080600060608486031215614ad757600080fd5b8335614ae2816153a0565b92506020840135614af2816153a0565b929592945050506040919091013590565b60008060408385031215614b1657600080fd5b8235614b21816153a0565b91506020830135614ab7816153b5565b60008060408385031215614b4457600080fd5b8235614b4f816153a0565b946020939093013593505050565b60008060008060808587031215614b7357600080fd5b8435614b7e816153a0565b966020860135965060408601359560600135945092505050565b60008060008060008060c08789031215614bb157600080fd5b863567ffffffffffffffff80821115614bc957600080fd5b614bd58a838b01614982565b97506020890135915080821115614beb57600080fd5b614bf78a838b016149fd565b96506040890135915080821115614c0d57600080fd5b614c198a838b01614982565b95506060890135915080821115614c2f57600080fd5b614c3b8a838b016149fd565b94506080890135915080821115614c5157600080fd5b50614c5e89828a016149fd565b925050614c6d60a08801614972565b90509295509295509295565b6000806040808486031215614c8d57600080fd5b833567ffffffffffffffff80821115614ca557600080fd5b818601915086601f830112614cb957600080fd5b81356020614cc96149a38361520a565b8083825282820191508286018b848660051b8901011115614ce957600080fd5b60005b85811015614d5e57813587811115614d0357600080fd5b8801603f81018e13614d1457600080fd5b85810135614d246149a38261522e565b8181528f8c838501011115614d3857600080fd5b818c84018983013760009181018801919091528552509284019290840190600101614cec565b50508098505050614d70818901614a5d565b955050505050509250929050565b600060208284031215614d9057600080fd5b81356116f9816153b5565b600060208284031215614dad57600080fd5b81516116f9816153b5565b600060208284031215614dca57600080fd5b6116f982614a5d565b600060208284031215614de557600080fd5b815167ffffffffffffffff811115614dfc57600080fd5b8201601f81018413614e0d57600080fd5b8051614e1b6149a38261522e565b818152856020838501011115614e3057600080fd5b614e418260208301602086016152c6565b95945050505050565b600060208284031215614e5c57600080fd5b5035919050565b600060208284031215614e7557600080fd5b5051919050565b60008060408385031215614e8f57600080fd5b50508035926020909101359150565b600080600060608486031215614eb357600080fd5b505081359360208301359350604090920135919050565b60038110614ee857634e487b7160e01b600052602160045260246000fd5b9052565b60008151808452614f048160208601602086016152c6565b601f01601f19169290920160200192915050565b60008251614f2a8184602087016152c6565b9190910192915050565b6001600160a01b0391909116815260200190565b6001600160a01b03929092168252602082015260400190565b6001600160a01b03958616815293909416602084015260408301919091526060820152608081019190915260a00190565b60006060820160018060a01b0386168352602060608185015281865180845260808601915060808160051b870101935082880160005b82811015614ff657607f19888703018452614fe4868351614eec565b95509284019290840190600101614fc8565b505050505080915050613d2a6040830184614eca565b602081016114058284614eca565b6020815260006116f96020830184614eec565b6020808252601390820152722aa8222faba0a6261d103d32b9379030b2323960691b604082015260600190565b60208082526026908201527f5061796d656e7453706c69747465723a206163636f756e7420686173206e6f2060408201526573686172657360d01b606082015260800190565b6020808252602b908201527f5061796d656e7453706c69747465723a206163636f756e74206973206e6f742060408201526a191d59481c185e5b595b9d60aa1b606082015260800190565b6020808252601a908201527f535741503a20696e73756666696369656e742062616c616e6365000000000000604082015260600190565b6020808252818101527f4f776e61626c653a2063616c6c6572206973206e6f7420746865206f776e6572604082015260600190565b6020808252601a908201527f464545533a20746f74616c20657863656564696e672031303025000000000000604082015260600190565b6020808252602b908201527f496e697469616c697a61626c653a20636f6e7472616374206973206e6f74206960408201526a6e697469616c697a696e6760a81b606082015260800190565b604051601f8201601f1916810167ffffffffffffffff811182821017156152025761520261538a565b604052919050565b600067ffffffffffffffff8211156152245761522461538a565b5060051b60200190565b600067ffffffffffffffff8211156152485761524861538a565b50601f01601f191660200190565b6000821982111561526957615269615348565b500190565b60008261528b57634e487b7160e01b600052601260045260246000fd5b500490565b60008160001904831182151516156152aa576152aa615348565b500290565b6000828210156152c1576152c1615348565b500390565b60005b838110156152e15781810151838201526020016152c9565b83811115613ebf5750506000910152565b600181811c9082168061530657607f821691505b6020821081141561532757634e487b7160e01b600052602260045260246000fd5b50919050565b600060001982141561534157615341615348565b5060010190565b634e487b7160e01b600052601160045260246000fd5b634e487b7160e01b600052602160045260246000fd5b634e487b7160e01b600052603260045260246000fd5b634e487b7160e01b600052604160045260246000fd5b6001600160a01b0381168114613aa557600080fd5b8015158114613aa557600080fdfea164736f6c6343000807000a",
  "devdoc": {
    "kind": "dev",
    "methods": {
      "allowance(address,address)": {
        "details": "See {IERC20-allowance}."
      },
      "approve(address,uint256)": {
        "details": "See {IERC20-approve}. NOTE: If `amount` is the maximum `uint256`, the allowance is not updated on `transferFrom`. This is semantically equivalent to an infinite approval. Requirements: - `spender` cannot be the zero address."
      },
      "balanceOf(address)": {
        "details": "See {IERC20-balanceOf}."
      },
      "decimals()": {
        "details": "Returns the number of decimals used to get its user representation. For example, if `decimals` equals `2`, a balance of `505` tokens should be displayed to a user as `5.05` (`505 / 10 ** 2`). Tokens usually opt for a value of 18, imitating the relationship between Ether and Wei. This is the value {ERC20} uses, unless this function is overridden; NOTE: This information is only used for _display_ purposes: it in no way affects any of the arithmetic of the contract, including {IERC20-balanceOf} and {IERC20-transfer}."
      },
      "decreaseAllowance(address,uint256)": {
        "details": "Atomically decreases the allowance granted to `spender` by the caller. This is an alternative to {approve} that can be used as a mitigation for problems described in {IERC20-approve}. Emits an {Approval} event indicating the updated allowance. Requirements: - `spender` cannot be the zero address. - `spender` must have allowance for the caller of at least `subtractedValue`."
      },
      "increaseAllowance(address,uint256)": {
        "details": "Atomically increases the allowance granted to `spender` by the caller. This is an alternative to {approve} that can be used as a mitigation for problems described in {IERC20-approve}. Emits an {Approval} event indicating the updated allowance. Requirements: - `spender` cannot be the zero address."
      },
      "name()": {
        "details": "Returns the name of the token."
      },
      "owner()": {
        "details": "Returns the address of the current owner."
      },
      "payee(uint256)": {
        "details": "Getter for the address of the payee number `index`."
      },
      "release(address)": {
        "details": "Triggers a transfer to `account` of the amount of Ether they are owed, according to their percentage of the total shares and their previous withdrawals."
      },
      "release(address,address)": {
        "details": "Triggers a transfer to `account` of the amount of `token` tokens they are owed, according to their percentage of the total shares and their previous withdrawals. `token` must be the address of an IERC20 contract."
      },
      "released(address)": {
        "details": "Getter for the amount of Ether already released to a payee."
      },
      "released(address,address)": {
        "details": "Getter for the amount of `token` tokens already released to a payee. `token` should be the address of an IERC20 contract."
      },
      "renounceOwnership()": {
        "details": "Leaves the contract without owner. It will not be possible to call `onlyOwner` functions anymore. Can only be called by the current owner. NOTE: Renouncing ownership will leave the contract without an owner, thereby removing any functionality that is only available to the owner."
      },
      "shares(address)": {
        "details": "Getter for the amount of shares held by an account."
      },
      "symbol()": {
        "details": "Returns the symbol of the token, usually a shorter version of the name."
      },
      "totalReleased()": {
        "details": "Getter for the total amount of Ether already released."
      },
      "totalReleased(address)": {
        "details": "Getter for the total amount of `token` already released. `token` should be the address of an IERC20 contract."
      },
      "totalShares()": {
        "details": "Getter for the total shares held by payees."
      },
      "totalSupply()": {
        "details": "See {IERC20-totalSupply}."
      },
      "transfer(address,uint256)": {
        "details": "See {IERC20-transfer}. Requirements: - `to` cannot be the zero address. - the caller must have a balance of at least `amount`."
      },
      "transferFrom(address,address,uint256)": {
        "details": "See {IERC20-transferFrom}. Emits an {Approval} event indicating the updated allowance. This is not required by the EIP. See the note at the beginning of {ERC20}. NOTE: Does not update the allowance if the current allowance is the maximum `uint256`. Requirements: - `from` and `to` cannot be the zero address. - `from` must have a balance of at least `amount`. - the caller must have allowance for ``from``'s tokens of at least `amount`."
      },
      "transferOwnership(address)": {
        "details": "Transfers ownership of the contract to a new account (`newOwner`). Can only be called by the current owner."
      }
    },
    "version": 1
  },
  "userdoc": {
    "kind": "user",
    "methods": {},
    "version": 1
  },
  "storageLayout": {
    "storage": [
      {
        "astId": 598,
        "contract": "contracts/ZeroXBlock.sol:ZeroXBlock",
        "label": "_initialized",
        "offset": 0,
        "slot": "0",
        "type": "t_bool"
      },
      {
        "astId": 601,
        "contract": "contracts/ZeroXBlock.sol:ZeroXBlock",
        "label": "_initializing",
        "offset": 1,
        "slot": "0",
        "type": "t_bool"
      },
      {
        "astId": 1889,
        "contract": "contracts/ZeroXBlock.sol:ZeroXBlock",
        "label": "__gap",
        "offset": 0,
        "slot": "1",
        "type": "t_array(t_uint256)50_storage"
      },
      {
        "astId": 684,
        "contract": "contracts/ZeroXBlock.sol:ZeroXBlock",
        "label": "_balances",
        "offset": 0,
        "slot": "51",
        "type": "t_mapping(t_address,t_uint256)"
      },
      {
        "astId": 690,
        "contract": "contracts/ZeroXBlock.sol:ZeroXBlock",
        "label": "_allowances",
        "offset": 0,
        "slot": "52",
        "type": "t_mapping(t_address,t_mapping(t_address,t_uint256))"
      },
      {
        "astId": 692,
        "contract": "contracts/ZeroXBlock.sol:ZeroXBlock",
        "label": "_totalSupply",
        "offset": 0,
        "slot": "53",
        "type": "t_uint256"
      },
      {
        "astId": 694,
        "contract": "contracts/ZeroXBlock.sol:ZeroXBlock",
        "label": "_name",
        "offset": 0,
        "slot": "54",
        "type": "t_string_storage"
      },
      {
        "astId": 696,
        "contract": "contracts/ZeroXBlock.sol:ZeroXBlock",
        "label": "_symbol",
        "offset": 0,
        "slot": "55",
        "type": "t_string_storage"
      },
      {
        "astId": 1277,
        "contract": "contracts/ZeroXBlock.sol:ZeroXBlock",
        "label": "__gap",
        "offset": 0,
        "slot": "56",
        "type": "t_array(t_uint256)45_storage"
      },
      {
        "astId": 10,
        "contract": "contracts/ZeroXBlock.sol:ZeroXBlock",
        "label": "_owner",
        "offset": 0,
        "slot": "101",
        "type": "t_address"
      },
      {
        "astId": 122,
        "contract": "contracts/ZeroXBlock.sol:ZeroXBlock",
        "label": "__gap",
        "offset": 0,
        "slot": "102",
        "type": "t_array(t_uint256)49_storage"
      },
      {
        "astId": 163,
        "contract": "contracts/ZeroXBlock.sol:ZeroXBlock",
        "label": "_totalShares",
        "offset": 0,
        "slot": "151",
        "type": "t_uint256"
      },
      {
        "astId": 165,
        "contract": "contracts/ZeroXBlock.sol:ZeroXBlock",
        "label": "_totalReleased",
        "offset": 0,
        "slot": "152",
        "type": "t_uint256"
      },
      {
        "astId": 169,
        "contract": "contracts/ZeroXBlock.sol:ZeroXBlock",
        "label": "_shares",
        "offset": 0,
        "slot": "153",
        "type": "t_mapping(t_address,t_uint256)"
      },
      {
        "astId": 173,
        "contract": "contracts/ZeroXBlock.sol:ZeroXBlock",
        "label": "_released",
        "offset": 0,
        "slot": "154",
        "type": "t_mapping(t_address,t_uint256)"
      },
      {
        "astId": 176,
        "contract": "contracts/ZeroXBlock.sol:ZeroXBlock",
        "label": "_payees",
        "offset": 0,
        "slot": "155",
        "type": "t_array(t_address)dyn_storage"
      },
      {
        "astId": 181,
        "contract": "contracts/ZeroXBlock.sol:ZeroXBlock",
        "label": "_erc20TotalReleased",
        "offset": 0,
        "slot": "156",
        "type": "t_mapping(t_contract(IERC20Upgradeable)1356,t_uint256)"
      },
      {
        "astId": 188,
        "contract": "contracts/ZeroXBlock.sol:ZeroXBlock",
        "label": "_erc20Released",
        "offset": 0,
        "slot": "157",
        "type": "t_mapping(t_contract(IERC20Upgradeable)1356,t_mapping(t_address,t_uint256))"
      },
      {
        "astId": 590,
        "contract": "contracts/ZeroXBlock.sol:ZeroXBlock",
        "label": "__gap",
        "offset": 0,
        "slot": "158",
        "type": "t_array(t_uint256)43_storage"
      },
      {
        "astId": 2584,
        "contract": "contracts/ZeroXBlock.sol:ZeroXBlock",
        "label": "_crm",
        "offset": 0,
        "slot": "201",
        "type": "t_contract(CONTRewardManagement)6383"
      },
      {
        "astId": 2587,
        "contract": "contracts/ZeroXBlock.sol:ZeroXBlock",
        "label": "_liqRouter",
        "offset": 0,
        "slot": "202",
        "type": "t_contract(LiquidityRouter)7639"
      },
      {
        "astId": 2592,
        "contract": "contracts/ZeroXBlock.sol:ZeroXBlock",
        "label": "ownedContsLimit",
        "offset": 0,
        "slot": "203",
        "type": "t_uint256"
      },
      {
        "astId": 2594,
        "contract": "contracts/ZeroXBlock.sol:ZeroXBlock",
        "label": "mintContLimit",
        "offset": 0,
        "slot": "204",
        "type": "t_uint256"
      },
      {
        "astId": 2596,
        "contract": "contracts/ZeroXBlock.sol:ZeroXBlock",
        "label": "totalTokensPaidForMinting",
        "offset": 0,
        "slot": "205",
        "type": "t_uint256"
      },
      {
        "astId": 2598,
        "contract": "contracts/ZeroXBlock.sol:ZeroXBlock",
        "label": "developmentFundPool",
        "offset": 0,
        "slot": "206",
        "type": "t_address"
      },
      {
        "astId": 2600,
        "contract": "contracts/ZeroXBlock.sol:ZeroXBlock",
        "label": "treasuryPool",
        "offset": 0,
        "slot": "207",
        "type": "t_address"
      },
      {
        "astId": 2602,
        "contract": "contracts/ZeroXBlock.sol:ZeroXBlock",
        "label": "rewardsPool",
        "offset": 0,
        "slot": "208",
        "type": "t_address"
      },
      {
        "astId": 2604,
        "contract": "contracts/ZeroXBlock.sol:ZeroXBlock",
        "label": "liquidityPool",
        "offset": 0,
        "slot": "209",
        "type": "t_address"
      },
      {
        "astId": 2606,
        "contract": "contracts/ZeroXBlock.sol:ZeroXBlock",
        "label": "cashoutTaxPool",
        "offset": 0,
        "slot": "210",
        "type": "t_address"
      },
      {
        "astId": 2608,
        "contract": "contracts/ZeroXBlock.sol:ZeroXBlock",
        "label": "swapTaxPool",
        "offset": 0,
        "slot": "211",
        "type": "t_address"
      },
      {
        "astId": 2610,
        "contract": "contracts/ZeroXBlock.sol:ZeroXBlock",
        "label": "rewardsFee",
        "offset": 0,
        "slot": "212",
        "type": "t_uint256"
      },
      {
        "astId": 2612,
        "contract": "contracts/ZeroXBlock.sol:ZeroXBlock",
        "label": "treasuryFee",
        "offset": 0,
        "slot": "213",
        "type": "t_uint256"
      },
      {
        "astId": 2614,
        "contract": "contracts/ZeroXBlock.sol:ZeroXBlock",
        "label": "liquidityPoolFee",
        "offset": 0,
        "slot": "214",
        "type": "t_uint256"
      },
      {
        "astId": 2616,
        "contract": "contracts/ZeroXBlock.sol:ZeroXBlock",
        "label": "developmentFee",
        "offset": 0,
        "slot": "215",
        "type": "t_uint256"
      },
      {
        "astId": 2618,
        "contract": "contracts/ZeroXBlock.sol:ZeroXBlock",
        "label": "totalFees",
        "offset": 0,
        "slot": "216",
        "type": "t_uint256"
      },
      {
        "astId": 2620,
        "contract": "contracts/ZeroXBlock.sol:ZeroXBlock",
        "label": "cashoutFee",
        "offset": 0,
        "slot": "217",
        "type": "t_uint256"
      },
      {
        "astId": 2622,
        "contract": "contracts/ZeroXBlock.sol:ZeroXBlock",
        "label": "swapFee",
        "offset": 0,
        "slot": "218",
        "type": "t_uint256"
      },
      {
        "astId": 2624,
        "contract": "contracts/ZeroXBlock.sol:ZeroXBlock",
        "label": "enableAutoSwapTreasury",
        "offset": 0,
        "slot": "219",
        "type": "t_bool"
      },
      {
        "astId": 2626,
        "contract": "contracts/ZeroXBlock.sol:ZeroXBlock",
        "label": "enableAutoSwapDevFund",
        "offset": 1,
        "slot": "219",
        "type": "t_bool"
      },
      {
        "astId": 2628,
        "contract": "contracts/ZeroXBlock.sol:ZeroXBlock",
        "label": "usdcToken",
        "offset": 2,
        "slot": "219",
        "type": "t_address"
      },
      {
        "astId": 2632,
        "contract": "contracts/ZeroXBlock.sol:ZeroXBlock",
        "label": "_isBlacklisted",
        "offset": 0,
        "slot": "220",
        "type": "t_mapping(t_address,t_bool)"
      },
      {
        "astId": 2634,
        "contract": "contracts/ZeroXBlock.sol:ZeroXBlock",
        "label": "enableCashout",
        "offset": 0,
        "slot": "221",
        "type": "t_bool"
      },
      {
        "astId": 2636,
        "contract": "contracts/ZeroXBlock.sol:ZeroXBlock",
        "label": "enableMintConts",
        "offset": 1,
        "slot": "221",
        "type": "t_bool"
      }
    ],
    "types": {
      "t_address": {
        "encoding": "inplace",
        "label": "address",
        "numberOfBytes": "20"
      },
      "t_array(t_address)dyn_storage": {
        "base": "t_address",
        "encoding": "dynamic_array",
        "label": "address[]",
        "numberOfBytes": "32"
      },
      "t_array(t_uint256)43_storage": {
        "base": "t_uint256",
        "encoding": "inplace",
        "label": "uint256[43]",
        "numberOfBytes": "1376"
      },
      "t_array(t_uint256)45_storage": {
        "base": "t_uint256",
        "encoding": "inplace",
        "label": "uint256[45]",
        "numberOfBytes": "1440"
      },
      "t_array(t_uint256)49_storage": {
        "base": "t_uint256",
        "encoding": "inplace",
        "label": "uint256[49]",
        "numberOfBytes": "1568"
      },
      "t_array(t_uint256)50_storage": {
        "base": "t_uint256",
        "encoding": "inplace",
        "label": "uint256[50]",
        "numberOfBytes": "1600"
      },
      "t_bool": {
        "encoding": "inplace",
        "label": "bool",
        "numberOfBytes": "1"
      },
      "t_contract(CONTRewardManagement)6383": {
        "encoding": "inplace",
        "label": "contract CONTRewardManagement",
        "numberOfBytes": "20"
      },
      "t_contract(IERC20Upgradeable)1356": {
        "encoding": "inplace",
        "label": "contract IERC20Upgradeable",
        "numberOfBytes": "20"
      },
      "t_contract(LiquidityRouter)7639": {
        "encoding": "inplace",
        "label": "contract LiquidityRouter",
        "numberOfBytes": "20"
      },
      "t_mapping(t_address,t_bool)": {
        "encoding": "mapping",
        "key": "t_address",
        "label": "mapping(address => bool)",
        "numberOfBytes": "32",
        "value": "t_bool"
      },
      "t_mapping(t_address,t_mapping(t_address,t_uint256))": {
        "encoding": "mapping",
        "key": "t_address",
        "label": "mapping(address => mapping(address => uint256))",
        "numberOfBytes": "32",
        "value": "t_mapping(t_address,t_uint256)"
      },
      "t_mapping(t_address,t_uint256)": {
        "encoding": "mapping",
        "key": "t_address",
        "label": "mapping(address => uint256)",
        "numberOfBytes": "32",
        "value": "t_uint256"
      },
      "t_mapping(t_contract(IERC20Upgradeable)1356,t_mapping(t_address,t_uint256))": {
        "encoding": "mapping",
        "key": "t_contract(IERC20Upgradeable)1356",
        "label": "mapping(contract IERC20Upgradeable => mapping(address => uint256))",
        "numberOfBytes": "32",
        "value": "t_mapping(t_address,t_uint256)"
      },
      "t_mapping(t_contract(IERC20Upgradeable)1356,t_uint256)": {
        "encoding": "mapping",
        "key": "t_contract(IERC20Upgradeable)1356",
        "label": "mapping(contract IERC20Upgradeable => uint256)",
        "numberOfBytes": "32",
        "value": "t_uint256"
      },
      "t_string_storage": {
        "encoding": "bytes",
        "label": "string",
        "numberOfBytes": "32"
      },
      "t_uint256": {
        "encoding": "inplace",
        "label": "uint256",
        "numberOfBytes": "32"
      }
    }
  }
}