{
  "address": "0xA5BDB23D86313119230A705c8D3E042dcDDbA65c",
  "abi": [
    {
      "anonymous": false,
      "inputs": [
        {
          "indexed": false,
          "internalType": "address",
          "name": "sender",
          "type": "address"
        },
        {
          "indexed": false,
          "internalType": "uint256",
          "name": "tokens",
          "type": "uint256"
        }
      ],
      "name": "AddLiquidity",
      "type": "event"
    },
    {
      "anonymous": false,
      "inputs": [
        {
          "indexed": true,
          "internalType": "address",
          "name": "owner",
          "type": "address"
        },
        {
          "indexed": true,
          "internalType": "address",
          "name": "spender",
          "type": "address"
        },
        {
          "indexed": false,
          "internalType": "uint256",
          "name": "value",
          "type": "uint256"
        }
      ],
      "name": "Approval",
      "type": "event"
    },
    {
      "anonymous": false,
      "inputs": [
        {
          "indexed": false,
          "internalType": "address",
          "name": "sender",
          "type": "address"
        }
      ],
      "name": "ContsMinted",
      "type": "event"
    },
    {
      "anonymous": false,
      "inputs": [
        {
          "indexed": true,
          "internalType": "contract IERC20Upgradeable",
          "name": "token",
          "type": "address"
        },
        {
          "indexed": false,
          "internalType": "address",
          "name": "to",
          "type": "address"
        },
        {
          "indexed": false,
          "internalType": "uint256",
          "name": "amount",
          "type": "uint256"
        }
      ],
      "name": "ERC20PaymentReleased",
      "type": "event"
    },
    {
      "anonymous": false,
      "inputs": [
        {
          "indexed": true,
          "internalType": "address",
          "name": "previousOwner",
          "type": "address"
        },
        {
          "indexed": true,
          "internalType": "address",
          "name": "newOwner",
          "type": "address"
        }
      ],
      "name": "OwnershipTransferred",
      "type": "event"
    },
    {
      "anonymous": false,
      "inputs": [
        {
          "indexed": false,
          "internalType": "address",
          "name": "account",
          "type": "address"
        },
        {
          "indexed": false,
          "internalType": "uint256",
          "name": "shares",
          "type": "uint256"
        }
      ],
      "name": "PayeeAdded",
      "type": "event"
    },
    {
      "anonymous": false,
      "inputs": [
        {
          "indexed": false,
          "internalType": "address",
          "name": "from",
          "type": "address"
        },
        {
          "indexed": false,
          "internalType": "uint256",
          "name": "amount",
          "type": "uint256"
        }
      ],
      "name": "PaymentReceived",
      "type": "event"
    },
    {
      "anonymous": false,
      "inputs": [
        {
          "indexed": false,
          "internalType": "address",
          "name": "to",
          "type": "address"
        },
        {
          "indexed": false,
          "internalType": "uint256",
          "name": "amount",
          "type": "uint256"
        }
      ],
      "name": "PaymentReleased",
      "type": "event"
    },
    {
      "anonymous": false,
      "inputs": [
        {
          "indexed": false,
          "internalType": "address",
          "name": "sender",
          "type": "address"
        }
      ],
      "name": "RewardCashoutAll",
      "type": "event"
    },
    {
      "anonymous": false,
      "inputs": [
        {
          "indexed": false,
          "internalType": "address",
          "name": "sender",
          "type": "address"
        },
        {
          "indexed": false,
          "internalType": "uint256",
          "name": "index",
          "type": "uint256"
        }
      ],
      "name": "RewardCashoutOne",
      "type": "event"
    },
    {
      "anonymous": false,
      "inputs": [
        {
          "indexed": true,
          "internalType": "address",
          "name": "from",
          "type": "address"
        },
        {
          "indexed": true,
          "internalType": "address",
          "name": "to",
          "type": "address"
        },
        {
          "indexed": false,
          "internalType": "uint256",
          "name": "value",
          "type": "uint256"
        }
      ],
      "name": "Transfer",
      "type": "event"
    },
    {
      "inputs": [],
      "name": "_crm",
      "outputs": [
        {
          "internalType": "contract CONTRewardManagement",
          "name": "",
          "type": "address"
        }
      ],
      "stateMutability": "view",
      "type": "function"
    },
    {
      "inputs": [
        {
          "internalType": "address",
          "name": "",
          "type": "address"
        }
      ],
      "name": "_isBlacklisted",
      "outputs": [
        {
          "internalType": "bool",
          "name": "",
          "type": "bool"
        }
      ],
      "stateMutability": "view",
      "type": "function"
    },
    {
      "inputs": [],
      "name": "_liqRouter",
      "outputs": [
        {
          "internalType": "contract LiquidityRouter",
          "name": "",
          "type": "address"
        }
      ],
      "stateMutability": "view",
      "type": "function"
    },
    {
      "inputs": [
        {
          "internalType": "address",
          "name": "owner",
          "type": "address"
        },
        {
          "internalType": "address",
          "name": "spender",
          "type": "address"
        }
      ],
      "name": "allowance",
      "outputs": [
        {
          "internalType": "uint256",
          "name": "",
          "type": "uint256"
        }
      ],
      "stateMutability": "view",
      "type": "function"
    },
    {
      "inputs": [
        {
          "internalType": "address",
          "name": "spender",
          "type": "address"
        },
        {
          "internalType": "uint256",
          "name": "amount",
          "type": "uint256"
        }
      ],
      "name": "approve",
      "outputs": [
        {
          "internalType": "bool",
          "name": "",
          "type": "bool"
        }
      ],
      "stateMutability": "nonpayable",
      "type": "function"
    },
    {
      "inputs": [
        {
          "internalType": "address",
          "name": "account",
          "type": "address"
        }
      ],
      "name": "balanceOf",
      "outputs": [
        {
          "internalType": "uint256",
          "name": "",
          "type": "uint256"
        }
      ],
      "stateMutability": "view",
      "type": "function"
    },
    {
      "inputs": [],
      "name": "cashoutAll",
      "outputs": [],
      "stateMutability": "nonpayable",
      "type": "function"
    },
    {
      "inputs": [],
      "name": "cashoutFee",
      "outputs": [
        {
          "internalType": "uint256",
          "name": "",
          "type": "uint256"
        }
      ],
      "stateMutability": "view",
      "type": "function"
    },
    {
      "inputs": [
        {
          "internalType": "uint256",
          "name": "_contIndex",
          "type": "uint256"
        }
      ],
      "name": "cashoutReward",
      "outputs": [],
      "stateMutability": "nonpayable",
      "type": "function"
    },
    {
      "inputs": [
        {
          "internalType": "uint256",
          "name": "newTime",
          "type": "uint256"
        }
      ],
      "name": "changeCashoutTimeout",
      "outputs": [],
      "stateMutability": "nonpayable",
      "type": "function"
    },
    {
      "inputs": [
        {
          "internalType": "enum ContType",
          "name": "_cType",
          "type": "uint8"
        },
        {
          "internalType": "uint256",
          "name": "newPrice",
          "type": "uint256"
        }
      ],
      "name": "changeContPrice",
      "outputs": [],
      "stateMutability": "nonpayable",
      "type": "function"
    },
    {
      "inputs": [
        {
          "internalType": "bool",
          "name": "newVal",
          "type": "bool"
        }
      ],
      "name": "changeEnableAutoSwapDevFund",
      "outputs": [],
      "stateMutability": "nonpayable",
      "type": "function"
    },
    {
      "inputs": [
        {
          "internalType": "bool",
          "name": "newVal",
          "type": "bool"
        }
      ],
      "name": "changeEnableAutoSwapTreasury",
      "outputs": [],
      "stateMutability": "nonpayable",
      "type": "function"
    },
    {
      "inputs": [
        {
          "internalType": "enum ContType",
          "name": "_cType",
          "type": "uint8"
        },
        {
          "internalType": "int256",
          "name": "deductPcent",
          "type": "int256"
        }
      ],
      "name": "changeRewardAPRPerCont",
      "outputs": [],
      "stateMutability": "nonpayable",
      "type": "function"
    },
    {
      "inputs": [],
      "name": "decimals",
      "outputs": [
        {
          "internalType": "uint8",
          "name": "",
          "type": "uint8"
        }
      ],
      "stateMutability": "view",
      "type": "function"
    },
    {
      "inputs": [
        {
          "internalType": "address",
          "name": "spender",
          "type": "address"
        },
        {
          "internalType": "uint256",
          "name": "subtractedValue",
          "type": "uint256"
        }
      ],
      "name": "decreaseAllowance",
      "outputs": [
        {
          "internalType": "bool",
          "name": "",
          "type": "bool"
        }
      ],
      "stateMutability": "nonpayable",
      "type": "function"
    },
    {
      "inputs": [],
      "name": "developmentFee",
      "outputs": [
        {
          "internalType": "uint256",
          "name": "",
          "type": "uint256"
        }
      ],
      "stateMutability": "view",
      "type": "function"
    },
    {
      "inputs": [],
      "name": "developmentFundPool",
      "outputs": [
        {
          "internalType": "address",
          "name": "",
          "type": "address"
        }
      ],
      "stateMutability": "view",
      "type": "function"
    },
    {
      "inputs": [],
      "name": "enableAutoSwapDevFund",
      "outputs": [
        {
          "internalType": "bool",
          "name": "",
          "type": "bool"
        }
      ],
      "stateMutability": "view",
      "type": "function"
    },
    {
      "inputs": [],
      "name": "enableAutoSwapTreasury",
      "outputs": [
        {
          "internalType": "bool",
          "name": "",
          "type": "bool"
        }
      ],
      "stateMutability": "view",
      "type": "function"
    },
    {
      "inputs": [],
      "name": "enableCashout",
      "outputs": [
        {
          "internalType": "bool",
          "name": "",
          "type": "bool"
        }
      ],
      "stateMutability": "view",
      "type": "function"
    },
    {
      "inputs": [],
      "name": "enableMintConts",
      "outputs": [
        {
          "internalType": "bool",
          "name": "",
          "type": "bool"
        }
      ],
      "stateMutability": "view",
      "type": "function"
    },
    {
      "inputs": [],
      "name": "getCashoutTimeout",
      "outputs": [
        {
          "internalType": "uint256",
          "name": "",
          "type": "uint256"
        }
      ],
      "stateMutability": "view",
      "type": "function"
    },
    {
      "inputs": [
        {
          "internalType": "enum ContType",
          "name": "_cType",
          "type": "uint8"
        }
      ],
      "name": "getContPrice",
      "outputs": [
        {
          "internalType": "uint256",
          "name": "",
          "type": "uint256"
        }
      ],
      "stateMutability": "view",
      "type": "function"
    },
    {
      "inputs": [],
      "name": "getContsCreationTime",
      "outputs": [
        {
          "internalType": "string",
          "name": "",
          "type": "string"
        }
      ],
      "stateMutability": "view",
      "type": "function"
    },
    {
      "inputs": [],
      "name": "getContsCurrentAPR",
      "outputs": [
        {
          "internalType": "string",
          "name": "",
          "type": "string"
        }
      ],
      "stateMutability": "view",
      "type": "function"
    },
    {
      "inputs": [],
      "name": "getContsInitialAPR",
      "outputs": [
        {
          "internalType": "string",
          "name": "",
          "type": "string"
        }
      ],
      "stateMutability": "view",
      "type": "function"
    },
    {
      "inputs": [],
      "name": "getContsLastCashoutTime",
      "outputs": [
        {
          "internalType": "string",
          "name": "",
          "type": "string"
        }
      ],
      "stateMutability": "view",
      "type": "function"
    },
    {
      "inputs": [],
      "name": "getContsNames",
      "outputs": [
        {
          "internalType": "string",
          "name": "",
          "type": "string"
        }
      ],
      "stateMutability": "view",
      "type": "function"
    },
    {
      "inputs": [],
      "name": "getContsRewards",
      "outputs": [
        {
          "internalType": "string",
          "name": "",
          "type": "string"
        }
      ],
      "stateMutability": "view",
      "type": "function"
    },
    {
      "inputs": [],
      "name": "getContsTypes",
      "outputs": [
        {
          "internalType": "string",
          "name": "",
          "type": "string"
        }
      ],
      "stateMutability": "view",
      "type": "function"
    },
    {
      "inputs": [
        {
          "internalType": "bool",
          "name": "is0xBOut",
          "type": "bool"
        },
        {
          "internalType": "address",
          "name": "targetToken",
          "type": "address"
        },
        {
          "internalType": "uint256",
          "name": "outputAmount",
          "type": "uint256"
        }
      ],
      "name": "getInputAmount",
      "outputs": [
        {
          "internalType": "uint256[]",
          "name": "",
          "type": "uint256[]"
        }
      ],
      "stateMutability": "view",
      "type": "function"
    },
    {
      "inputs": [
        {
          "internalType": "bool",
          "name": "is0xBOut",
          "type": "bool"
        },
        {
          "internalType": "address",
          "name": "targetToken",
          "type": "address"
        },
        {
          "internalType": "uint256",
          "name": "inputAmount",
          "type": "uint256"
        }
      ],
      "name": "getOutputAmount",
      "outputs": [
        {
          "internalType": "uint256[]",
          "name": "",
          "type": "uint256[]"
        }
      ],
      "stateMutability": "view",
      "type": "function"
    },
    {
      "inputs": [
        {
          "internalType": "enum ContType",
          "name": "_cType",
          "type": "uint8"
        }
      ],
      "name": "getRewardAPRPerCont",
      "outputs": [
        {
          "internalType": "uint256",
          "name": "",
          "type": "uint256"
        }
      ],
      "stateMutability": "view",
      "type": "function"
    },
    {
      "inputs": [],
      "name": "getRewardAmount",
      "outputs": [
        {
          "internalType": "uint256",
          "name": "",
          "type": "uint256"
        }
      ],
      "stateMutability": "view",
      "type": "function"
    },
    {
      "inputs": [],
      "name": "getTotalConts",
      "outputs": [
        {
          "internalType": "uint256",
          "name": "",
          "type": "uint256"
        }
      ],
      "stateMutability": "view",
      "type": "function"
    },
    {
      "inputs": [
        {
          "internalType": "enum ContType",
          "name": "__cType",
          "type": "uint8"
        }
      ],
      "name": "getTotalContsPerContType",
      "outputs": [
        {
          "internalType": "uint256",
          "name": "",
          "type": "uint256"
        }
      ],
      "stateMutability": "view",
      "type": "function"
    },
    {
      "inputs": [
        {
          "internalType": "address",
          "name": "spender",
          "type": "address"
        },
        {
          "internalType": "uint256",
          "name": "addedValue",
          "type": "uint256"
        }
      ],
      "name": "increaseAllowance",
      "outputs": [
        {
          "internalType": "bool",
          "name": "",
          "type": "bool"
        }
      ],
      "stateMutability": "nonpayable",
      "type": "function"
    },
    {
      "inputs": [
        {
          "internalType": "address[]",
          "name": "payees",
          "type": "address[]"
        },
        {
          "internalType": "uint256[]",
          "name": "shares",
          "type": "uint256[]"
        },
        {
          "internalType": "address[]",
          "name": "addresses",
          "type": "address[]"
        },
        {
          "internalType": "uint256[]",
          "name": "balances",
          "type": "uint256[]"
        },
        {
          "internalType": "uint256[]",
          "name": "fees",
          "type": "uint256[]"
        },
        {
          "internalType": "address",
          "name": "usdcAddr",
          "type": "address"
        }
      ],
      "name": "initialize",
      "outputs": [],
      "stateMutability": "nonpayable",
      "type": "function"
    },
    {
      "inputs": [],
      "name": "liquidityPool",
      "outputs": [
        {
          "internalType": "address",
          "name": "",
          "type": "address"
        }
      ],
      "stateMutability": "view",
      "type": "function"
    },
    {
      "inputs": [],
      "name": "liquidityPoolFee",
      "outputs": [
        {
          "internalType": "uint256",
          "name": "",
          "type": "uint256"
        }
      ],
      "stateMutability": "view",
      "type": "function"
    },
    {
      "inputs": [
        {
          "internalType": "string[]",
          "name": "names",
          "type": "string[]"
        },
        {
          "internalType": "enum ContType",
          "name": "_cType",
          "type": "uint8"
        }
      ],
      "name": "mintConts",
      "outputs": [],
      "stateMutability": "nonpayable",
      "type": "function"
    },
    {
      "inputs": [],
      "name": "name",
      "outputs": [
        {
          "internalType": "string",
          "name": "",
          "type": "string"
        }
      ],
      "stateMutability": "view",
      "type": "function"
    },
    {
      "inputs": [],
      "name": "ownedContsLimit",
      "outputs": [
        {
          "internalType": "uint256",
          "name": "",
          "type": "uint256"
        }
      ],
      "stateMutability": "view",
      "type": "function"
    },
    {
      "inputs": [],
      "name": "owner",
      "outputs": [
        {
          "internalType": "address",
          "name": "",
          "type": "address"
        }
      ],
      "stateMutability": "view",
      "type": "function"
    },
    {
      "inputs": [
        {
          "internalType": "uint256",
          "name": "index",
          "type": "uint256"
        }
      ],
      "name": "payee",
      "outputs": [
        {
          "internalType": "address",
          "name": "",
          "type": "address"
        }
      ],
      "stateMutability": "view",
      "type": "function"
    },
    {
      "inputs": [
        {
          "internalType": "address payable",
          "name": "account",
          "type": "address"
        }
      ],
      "name": "release",
      "outputs": [],
      "stateMutability": "nonpayable",
      "type": "function"
    },
    {
      "inputs": [
        {
          "internalType": "contract IERC20Upgradeable",
          "name": "token",
          "type": "address"
        },
        {
          "internalType": "address",
          "name": "account",
          "type": "address"
        }
      ],
      "name": "release",
      "outputs": [],
      "stateMutability": "nonpayable",
      "type": "function"
    },
    {
      "inputs": [
        {
          "internalType": "contract IERC20Upgradeable",
          "name": "token",
          "type": "address"
        },
        {
          "internalType": "address",
          "name": "account",
          "type": "address"
        }
      ],
      "name": "released",
      "outputs": [
        {
          "internalType": "uint256",
          "name": "",
          "type": "uint256"
        }
      ],
      "stateMutability": "view",
      "type": "function"
    },
    {
      "inputs": [
        {
          "internalType": "address",
          "name": "account",
          "type": "address"
        }
      ],
      "name": "released",
      "outputs": [
        {
          "internalType": "uint256",
          "name": "",
          "type": "uint256"
        }
      ],
      "stateMutability": "view",
      "type": "function"
    },
    {
      "inputs": [],
      "name": "renounceOwnership",
      "outputs": [],
      "stateMutability": "nonpayable",
      "type": "function"
    },
    {
      "inputs": [
        {
          "internalType": "address",
          "name": "userAddr",
          "type": "address"
        },
        {
          "internalType": "uint256",
          "name": "tokens",
          "type": "uint256"
        }
      ],
      "name": "rescueMissentToken",
      "outputs": [],
      "stateMutability": "nonpayable",
      "type": "function"
    },
    {
      "inputs": [],
      "name": "rewardsFee",
      "outputs": [
        {
          "internalType": "uint256",
          "name": "",
          "type": "uint256"
        }
      ],
      "stateMutability": "view",
      "type": "function"
    },
    {
      "inputs": [],
      "name": "rewardsPool",
      "outputs": [
        {
          "internalType": "address",
          "name": "",
          "type": "address"
        }
      ],
      "stateMutability": "view",
      "type": "function"
    },
    {
      "inputs": [
        {
          "internalType": "address",
          "name": "account",
          "type": "address"
        },
        {
          "internalType": "bool",
          "name": "value",
          "type": "bool"
        }
      ],
      "name": "setBlacklistStatus",
      "outputs": [],
      "stateMutability": "nonpayable",
      "type": "function"
    },
    {
      "inputs": [
        {
          "internalType": "address",
          "name": "crm",
          "type": "address"
        }
      ],
      "name": "setContManagement",
      "outputs": [],
      "stateMutability": "nonpayable",
      "type": "function"
    },
    {
      "inputs": [
        {
          "internalType": "bool",
          "name": "_enableCashout",
          "type": "bool"
        }
      ],
      "name": "setEnableCashout",
      "outputs": [],
      "stateMutability": "nonpayable",
      "type": "function"
    },
    {
      "inputs": [
        {
          "internalType": "bool",
          "name": "value",
          "type": "bool"
        }
      ],
      "name": "setEnableMintConts",
      "outputs": [],
      "stateMutability": "nonpayable",
      "type": "function"
    },
    {
      "inputs": [
        {
          "internalType": "address",
          "name": "liqRouter",
          "type": "address"
        }
      ],
      "name": "setLiquidityRouter",
      "outputs": [],
      "stateMutability": "nonpayable",
      "type": "function"
    },
    {
      "inputs": [
        {
          "internalType": "address",
          "name": "newAddress",
          "type": "address"
        }
      ],
      "name": "setUSDCAddress",
      "outputs": [],
      "stateMutability": "nonpayable",
      "type": "function"
    },
    {
      "inputs": [
        {
          "internalType": "address",
          "name": "account",
          "type": "address"
        }
      ],
      "name": "shares",
      "outputs": [
        {
          "internalType": "uint256",
          "name": "",
          "type": "uint256"
        }
      ],
      "stateMutability": "view",
      "type": "function"
    },
    {
      "inputs": [
        {
          "internalType": "address",
          "name": "tokenAddr",
          "type": "address"
        },
        {
          "internalType": "uint256",
          "name": "amountOut",
          "type": "uint256"
        }
      ],
      "name": "swap0xBForExactToken",
      "outputs": [],
      "stateMutability": "nonpayable",
      "type": "function"
    },
    {
      "inputs": [
        {
          "internalType": "address",
          "name": "tokenAddr",
          "type": "address"
        },
        {
          "internalType": "uint256",
          "name": "amountIn",
          "type": "uint256"
        }
      ],
      "name": "swapExact0xBForToken",
      "outputs": [],
      "stateMutability": "nonpayable",
      "type": "function"
    },
    {
      "inputs": [],
      "name": "symbol",
      "outputs": [
        {
          "internalType": "string",
          "name": "",
          "type": "string"
        }
      ],
      "stateMutability": "view",
      "type": "function"
    },
    {
      "inputs": [],
      "name": "totalFees",
      "outputs": [
        {
          "internalType": "uint256",
          "name": "",
          "type": "uint256"
        }
      ],
      "stateMutability": "view",
      "type": "function"
    },
    {
      "inputs": [
        {
          "internalType": "contract IERC20Upgradeable",
          "name": "token",
          "type": "address"
        }
      ],
      "name": "totalReleased",
      "outputs": [
        {
          "internalType": "uint256",
          "name": "",
          "type": "uint256"
        }
      ],
      "stateMutability": "view",
      "type": "function"
    },
    {
      "inputs": [],
      "name": "totalReleased",
      "outputs": [
        {
          "internalType": "uint256",
          "name": "",
          "type": "uint256"
        }
      ],
      "stateMutability": "view",
      "type": "function"
    },
    {
      "inputs": [],
      "name": "totalShares",
      "outputs": [
        {
          "internalType": "uint256",
          "name": "",
          "type": "uint256"
        }
      ],
      "stateMutability": "view",
      "type": "function"
    },
    {
      "inputs": [],
      "name": "totalSupply",
      "outputs": [
        {
          "internalType": "uint256",
          "name": "",
          "type": "uint256"
        }
      ],
      "stateMutability": "view",
      "type": "function"
    },
    {
      "inputs": [],
      "name": "totalTokensPaidForMinting",
      "outputs": [
        {
          "internalType": "uint256",
          "name": "",
          "type": "uint256"
        }
      ],
      "stateMutability": "view",
      "type": "function"
    },
    {
      "inputs": [
        {
          "internalType": "address",
          "name": "to",
          "type": "address"
        },
        {
          "internalType": "uint256",
          "name": "amount",
          "type": "uint256"
        }
      ],
      "name": "transfer",
      "outputs": [
        {
          "internalType": "bool",
          "name": "",
          "type": "bool"
        }
      ],
      "stateMutability": "nonpayable",
      "type": "function"
    },
    {
      "inputs": [
        {
          "internalType": "address",
          "name": "from",
          "type": "address"
        },
        {
          "internalType": "address",
          "name": "to",
          "type": "address"
        },
        {
          "internalType": "uint256",
          "name": "amount",
          "type": "uint256"
        }
      ],
      "name": "transferFrom",
      "outputs": [
        {
          "internalType": "bool",
          "name": "",
          "type": "bool"
        }
      ],
      "stateMutability": "nonpayable",
      "type": "function"
    },
    {
      "inputs": [
        {
          "internalType": "address",
          "name": "newOwner",
          "type": "address"
        }
      ],
      "name": "transferOwnership",
      "outputs": [],
      "stateMutability": "nonpayable",
      "type": "function"
    },
    {
      "inputs": [],
      "name": "treasuryFee",
      "outputs": [
        {
          "internalType": "uint256",
          "name": "",
          "type": "uint256"
        }
      ],
      "stateMutability": "view",
      "type": "function"
    },
    {
      "inputs": [],
      "name": "treasuryPool",
      "outputs": [
        {
          "internalType": "address",
          "name": "",
          "type": "address"
        }
      ],
      "stateMutability": "view",
      "type": "function"
    },
    {
      "inputs": [
        {
          "internalType": "uint256",
          "name": "value",
          "type": "uint256"
        }
      ],
      "name": "updateCashoutFee",
      "outputs": [],
      "stateMutability": "nonpayable",
      "type": "function"
    },
    {
      "inputs": [
        {
          "internalType": "uint256",
          "name": "value",
          "type": "uint256"
        }
      ],
      "name": "updateDevelopmentFee",
      "outputs": [],
      "stateMutability": "nonpayable",
      "type": "function"
    },
    {
      "inputs": [
        {
          "internalType": "address payable",
          "name": "wall",
          "type": "address"
        }
      ],
      "name": "updateDevelopmentFundWallet",
      "outputs": [],
      "stateMutability": "nonpayable",
      "type": "function"
    },
    {
      "inputs": [
        {
          "internalType": "uint256",
          "name": "value",
          "type": "uint256"
        }
      ],
      "name": "updateLiquidityFee",
      "outputs": [],
      "stateMutability": "nonpayable",
      "type": "function"
    },
    {
      "inputs": [
        {
          "internalType": "address payable",
          "name": "wall",
          "type": "address"
        }
      ],
      "name": "updateLiquidityWallet",
      "outputs": [],
      "stateMutability": "nonpayable",
      "type": "function"
    },
    {
      "inputs": [
        {
          "internalType": "uint256",
          "name": "value",
          "type": "uint256"
        }
      ],
      "name": "updateRewardsFee",
      "outputs": [],
      "stateMutability": "nonpayable",
      "type": "function"
    },
    {
      "inputs": [
        {
          "internalType": "address payable",
          "name": "wall",
          "type": "address"
        }
      ],
      "name": "updateRewardsWallet",
      "outputs": [],
      "stateMutability": "nonpayable",
      "type": "function"
    },
    {
      "inputs": [
        {
          "internalType": "uint256",
          "name": "value",
          "type": "uint256"
        }
      ],
      "name": "updateTreasuryFee",
      "outputs": [],
      "stateMutability": "nonpayable",
      "type": "function"
    },
    {
      "inputs": [
        {
          "internalType": "address payable",
          "name": "wall",
          "type": "address"
        }
      ],
      "name": "updateTreasuryWallet",
      "outputs": [],
      "stateMutability": "nonpayable",
      "type": "function"
    },
    {
      "inputs": [
        {
          "internalType": "address",
          "name": "_newAddr",
          "type": "address"
        }
      ],
      "name": "updateUniswapV2Router",
      "outputs": [],
      "stateMutability": "nonpayable",
      "type": "function"
    },
    {
      "inputs": [],
      "name": "usdcToken",
      "outputs": [
        {
          "internalType": "address",
          "name": "",
          "type": "address"
        }
      ],
      "stateMutability": "view",
      "type": "function"
    },
    {
      "stateMutability": "payable",
      "type": "receive"
    }
  ],
  "transactionHash": "0x9b501590f05b73a8ee78a5c02f6e993aad440a5077bde5cc825b269759507e6a",
  "args": [],
  "numDeployments": 4,
  "solcInputHash": "96540fe444d8cb584bc29eadd9684b4f",
  "bytecode": "0x608060405234801561001057600080fd5b5061527c806100206000396000f3fe6080604052600436106104b95760003560e01c806382a8ebad1161026b578063b3328aae1161014f578063d631f705116100c1578063e33b7de311610085578063e33b7de314610e89578063e37ba8f914610e9e578063eb71c5d914610ebe578063f2fde38b14610edd578063f5c1365314610efd578063f78d5c5514610f1d57600080fd5b8063d631f70514610de4578063d79779b214610e04578063dd62ed3e14610e3a578063e0583ec014610e5a578063e22ee81314610e7457600080fd5b8063cbf1704411610113578063cbf1704414610bf0578063cc32d17614610d38578063cd6e18f114610d4e578063ce7c2ac214610d6e578063cfc0d02414610da4578063d3a2c9cf14610dc457600080fd5b8063b3328aae14610c9b578063b9bd393314610cbb578063bcb8ebfc14610cd5578063bd74767814610ceb578063c3491b4914610d1857600080fd5b806397232830116101e8578063a432697a116101ac578063a432697a14610bf0578063a457c2d714610c10578063a5f3d00314610c30578063a6559ce414610c46578063a9059cbb14610c5b578063aaf5bfc314610c7b57600080fd5b80639723283014610b455780639852595c14610b655780639a6e80db14610b9b5780639b03f44914610bbb5780639dc73a4914610bd057600080fd5b80638da5cb5b1161022f5780638da5cb5b14610abd5780638e67566314610adb5780638ea928f114610afb5780639149acbc14610b1057806395d89b4114610b3057600080fd5b806382a8ebad14610a28578063839df91914610a4857806384884e4414610a685780638b83209b14610a7d5780638d28914414610a9d57600080fd5b8063395093511161039d578063665a11ca1161030f578063715018a6116102d3578063715018a61461098957806378045b4d1461099e5780637a0aacf3146109b3578063809d458d146109d3578063810be66d146109f35780638161ab7614610a1357600080fd5b8063665a11ca146108e85780636815a91c146109085780636b38c586146109285780636d9ae0be1461093d57806370a082311461095357600080fd5b80635455797311610361578063545579731461083d57806354f12f1f14610852578063559bf3021461086857806357dae0631461088857806365b8dbc0146108a857806365bfe430146108c857600080fd5b806339509351146107a85780633a98ef39146107c8578063406072a9146107dd57806348b75044146107fd57806348df58291461081d57600080fd5b806313114a9d11610436578063239c038a116103fa578063239c038a1461070057806323b872dd146107205780632bb14e1d146107405780633086319d14610756578063313ce56714610776578063393061401461079257600080fd5b806313114a9d1461066557806318160ddd1461067b57806319165587146106905780631cdd3be3146106b05780631e7a934e146106e057600080fd5b806309a69f571161047d57806309a69f57146105c85780630c162440146105eb5780630f1978fb1461060b57806310153e7b1461062a57806311eac8551461063f57600080fd5b80630359fea9146104fe57806303d29d281461053457806306fdde0314610556578063084a6bff14610578578063095ea7b31461059857600080fd5b366104f9577f6ef95f06320e7a25a04a175ca677b7052bdd97131872c2192525a629f51be77033346040516104ef929190614dee565b60405180910390a1005b600080fd5b34801561050a57600080fd5b5060d05461051e906001600160a01b031681565b60405161052b9190614dda565b60405180910390f35b34801561054057600080fd5b5061055461054f36600461495e565b610f3d565b005b34801561056257600080fd5b5061056b610f9b565b60405161052b9190614eee565b34801561058457600080fd5b50610554610593366004614d3e565b61102d565b3480156105a457600080fd5b506105b86105b336600461498c565b6110af565b604051901515815260200161052b565b3480156105d457600080fd5b506105dd6110c9565b60405190815260200161052b565b3480156105f757600080fd5b50610554610606366004614cab565b61116b565b34801561061757600080fd5b5060d8546105b890610100900460ff1681565b34801561063657600080fd5b5061056b611261565b34801561064b57600080fd5b5060d85461051e906201000090046001600160a01b031681565b34801561067157600080fd5b506105dd60d65481565b34801561068757600080fd5b506035546105dd565b34801561069c57600080fd5b506105546106ab3660046148aa565b611303565b3480156106bc57600080fd5b506105b86106cb3660046148aa565b60d96020526000908152604090205460ff1681565b3480156106ec57600080fd5b506105dd6106fb366004614c90565b611428565b34801561070c57600080fd5b506105dd61071b366004614c90565b6114a9565b34801561072c57600080fd5b506105b861073b36600461491d565b6114da565b34801561074c57600080fd5b506105dd60d25481565b34801561076257600080fd5b50610554610771366004614a99565b611500565b34801561078257600080fd5b506040516012815260200161052b565b34801561079e57600080fd5b506105dd60cd5481565b3480156107b457600080fd5b506105b86107c336600461498c565b611b6c565b3480156107d457600080fd5b506097546105dd565b3480156107e957600080fd5b506105dd6107f83660046148e4565b611bab565b34801561080957600080fd5b506105546108183660046148e4565b611bd6565b34801561082957600080fd5b5060cf5461051e906001600160a01b031681565b34801561084957600080fd5b50610554611d9a565b34801561085e57600080fd5b506105dd60d45481565b34801561087457600080fd5b506105546108833660046148aa565b6120f3565b34801561089457600080fd5b506105546108a33660046149b8565b612165565b3480156108b457600080fd5b506105546108c33660046148aa565b612803565b3480156108d457600080fd5b506105546108e3366004614d3e565b612892565b3480156108f457600080fd5b5060d15461051e906001600160a01b031681565b34801561091457600080fd5b50610554610923366004614d3e565b612c07565b34801561093457600080fd5b5061056b612c87565b34801561094957600080fd5b506105dd60d75481565b34801561095f57600080fd5b506105dd61096e3660046148aa565b6001600160a01b031660009081526033602052604090205490565b34801561099557600080fd5b50610554612cbd565b3480156109aa57600080fd5b506105dd612cf3565b3480156109bf57600080fd5b506105dd6109ce366004614c90565b612d38565b3480156109df57600080fd5b506105546109ee3660046148aa565b612d67565b3480156109ff57600080fd5b5060ce5461051e906001600160a01b031681565b348015610a1f57600080fd5b5061056b612dd9565b348015610a3457600080fd5b5060ca5461051e906001600160a01b031681565b348015610a5457600080fd5b50610554610a63366004614c36565b612e0f565b348015610a7457600080fd5b5061056b612e53565b348015610a8957600080fd5b5061051e610a98366004614d3e565b612e89565b348015610aa957600080fd5b50610554610ab83660046148aa565b612eb9565b348015610ac957600080fd5b506065546001600160a01b031661051e565b348015610ae757600080fd5b50610554610af6366004614d3e565b612f50565b348015610b0757600080fd5b5061056b612fd2565b348015610b1c57600080fd5b50610554610b2b366004614c36565b613008565b348015610b3c57600080fd5b5061056b61304c565b348015610b5157600080fd5b50610554610b60366004614d3e565b61305b565b348015610b7157600080fd5b506105dd610b803660046148aa565b6001600160a01b03166000908152609a602052604090205490565b348015610ba757600080fd5b5060c95461051e906001600160a01b031681565b348015610bc757600080fd5b5061056b6130dd565b348015610bdc57600080fd5b50610554610beb366004614c36565b613113565b348015610bfc57600080fd5b50610554610c0b36600461498c565b613150565b348015610c1c57600080fd5b506105b8610c2b36600461498c565b61316a565b348015610c3c57600080fd5b506105dd60d55481565b348015610c5257600080fd5b506105dd613207565b348015610c6757600080fd5b506105b8610c7636600461498c565b61324c565b348015610c8757600080fd5b50610554610c963660046148aa565b61325a565b348015610ca757600080fd5b50610554610cb6366004614c36565b6132ae565b348015610cc757600080fd5b5060da546105b89060ff1681565b348015610ce157600080fd5b506105dd60cb5481565b348015610cf757600080fd5b50610d0b610d06366004614c70565b6132eb565b60405161052b9190614e81565b348015610d2457600080fd5b50610554610d33366004614d3e565b613385565b348015610d4457600080fd5b506105dd60d35481565b348015610d5a57600080fd5b50610554610d693660046148aa565b6133e0565b348015610d7a57600080fd5b506105dd610d893660046148aa565b6001600160a01b031660009081526099602052604090205490565b348015610db057600080fd5b50610554610dbf3660046148aa565b61347b565b348015610dd057600080fd5b50610554610ddf366004614cab565b6134ed565b348015610df057600080fd5b50610554610dff36600461498c565b613549565b348015610e1057600080fd5b506105dd610e1f3660046148aa565b6001600160a01b03166000908152609c602052604090205490565b348015610e4657600080fd5b506105dd610e553660046148e4565b613644565b348015610e6657600080fd5b5060d8546105b89060ff1681565b348015610e8057600080fd5b5061056b61366f565b348015610e9557600080fd5b506098546105dd565b348015610eaa57600080fd5b50610554610eb93660046148aa565b6136a5565b348015610eca57600080fd5b5060da546105b890610100900460ff1681565b348015610ee957600080fd5b50610554610ef83660046148aa565b613717565b348015610f0957600080fd5b50610d0b610f18366004614c70565b6137b2565b348015610f2957600080fd5b50610554610f38366004614d3e565b6137f4565b6065546001600160a01b03163314610f705760405162461bcd60e51b8152600401610f6790614fbf565b60405180910390fd5b6001600160a01b0391909116600090815260d960205260409020805460ff1916911515919091179055565b606060368054610faa906151b4565b80601f0160208091040260200160405190810160405280929190818152602001828054610fd6906151b4565b80156110235780601f10610ff857610100808354040283529160200191611023565b820191906000526020600020905b81548152906001019060200180831161100657829003601f168201915b5050505050905090565b6065546001600160a01b031633146110575760405162461bcd60e51b8152600401610f6790614fbf565b60008160d35460d55460d45461106d9190615118565b6110779190615118565b6110819190615118565b905060648111156110a45760405162461bcd60e51b8152600401610f6790615019565b60d29190915560d655565b6000336110bd818585613876565b60019150505b92915050565b6000336110e85760405162461bcd60e51b8152600401610f6790614ff4565b60c9546001600160a01b031663619a635e336040518263ffffffff1660e01b81526004016111169190614dda565b60206040518083038186803b15801561112e57600080fd5b505afa158015611142573d6000803e3d6000fd5b505050506040513d601f19601f820116820180604052508101906111669190614d57565b905090565b6065546001600160a01b031633146111955760405162461bcd60e51b8152600401610f6790614fbf565b6305f5e10081126111f95760405162461bcd60e51b815260206004820152602860248201527f5245445543455f5257443a20646f206e6f7420726564756365206d6f7265207460448201526768616e203130302560c01b6064820152608401610f67565b60c9546040516309d2040f60e41b81526001600160a01b0390911690639d2040f09061122b9085908590600401614ed3565b600060405180830381600087803b15801561124557600080fd5b505af1158015611259573d6000803e3d6000fd5b505050505050565b6060336112805760405162461bcd60e51b8152600401610f6790614ff4565b60c9546001600160a01b0316635dbab6ed335b6040518263ffffffff1660e01b81526004016112af9190614dda565b60006040518083038186803b1580156112c757600080fd5b505afa1580156112db573d6000803e3d6000fd5b505050506040513d6000823e601f3d908101601f191682016040526111669190810190614cc7565b6001600160a01b0381166000908152609960205260409020546113385760405162461bcd60e51b8152600401610f6790614f2e565b600061134360985490565b61134d9047615118565b9050600061137a8383611375866001600160a01b03166000908152609a602052604090205490565b61399a565b9050806113995760405162461bcd60e51b8152600401610f6790614f74565b6001600160a01b0383166000908152609a6020526040812080548392906113c1908490615118565b9250508190555080609860008282546113da9190615118565b909155506113ea905083826139d8565b7fdf20fd1e76bc69d672e4814fafb2c449bba3a5369d8359adf9e05e6fde87b056838260405161141b929190614dee565b60405180910390a1505050565b60c954604051630c75361360e31b81526000916001600160a01b0316906363a9b09890611459908590600401614ec5565b60206040518083038186803b15801561147157600080fd5b505afa158015611485573d6000803e3d6000fd5b505050506040513d601f19601f820116820180604052508101906110c39190614d57565b60c95460405163ce6912a360e01b81526000916001600160a01b03169063ce6912a390611459908590600401614ec5565b6000336114e8858285613af6565b6114f3858585613b70565b60019150505b9392505050565b60da54610100900460ff166115575760405162461bcd60e51b815260206004820152601d60248201527f434f4e544d494e543a206d696e7420636f6e74732064697361626c65640000006044820152606401610f67565b60cc54825111156115a55760405162461bcd60e51b8152602060048201526018602482015277434f4e544d494e543a20746f6f206d616e7920636f6e747360401b6044820152606401610f67565b60005b825181101561165e5760038382815181106115c5576115c5615220565b6020026020010151511180156115f5575060218382815181106115ea576115ea615220565b602002602001015151105b61164c5760405162461bcd60e51b815260206004820152602260248201527f434f4e544d494e543a20696d70726f7065722063686172616374657220636f756044820152611b9d60f21b6064820152608401610f67565b80611656816151ef565b9150506115a8565b5033806116a65760405162461bcd60e51b8152602060048201526016602482015275434f4e544d494e543a207a65726f206164647265737360501b6044820152606401610f67565b6001600160a01b038116600090815260d9602052604090205460ff161561170f5760405162461bcd60e51b815260206004820152601d60248201527f434f4e544d494e543a20626c61636b6c697374656420616464726573730000006044820152606401610f67565b60ce546001600160a01b0382811691161480159061173b575060d0546001600160a01b03828116911614155b8015611755575060cf546001600160a01b03828116911614155b6117ac5760405162461bcd60e51b815260206004820152602260248201527f434f4e544d494e543a20706f6f6c732063616e6e6f742063726561746520636f6044820152611b9d60f21b6064820152608401610f67565b60006117b782613c09565b905060cb548451826117c99190615118565b11156118175760405162461bcd60e51b815260206004820152601c60248201527f434f4e544d494e543a2072656163686564206d696e74206c696d6974000000006044820152606401610f67565b835160c954604051630c75361360e31b8152600092916001600160a01b0316906363a9b0989061184b908890600401614ec5565b60206040518083038186803b15801561186357600080fd5b505afa158015611877573d6000803e3d6000fd5b505050506040513d601f19601f8201168201806040525081019061189b9190614d57565b6118a59190615152565b90508060cd60008282546118b99190615118565b90915550506001600160a01b0383166000908152603360205260409020548111156119365760405162461bcd60e51b815260206004820152602760248201527f434f4e544d494e543a2042616c616e636520746f6f206c6f7720666f7220637260448201526632b0ba34b7b71760c91b6064820152608401610f67565b6000606460d554836119489190615152565b6119529190615130565b60d854909150610100900460ff161561199857611970843083613c3a565b60d85460ce54611993916001600160a01b03620100009091048116911683613e08565b6119b0565b60ce546119b09085906001600160a01b031683613c3a565b6000606460d254846119c29190615152565b6119cc9190615130565b60d0549091506119e79086906001600160a01b031683613c3a565b6000606460d354856119f99190615152565b611a039190615130565b60d85490915060ff1615611a4457611a1c863083613c3a565b60d85460cf54611a3f916001600160a01b03620100009091048116911683613e08565b611a5c565b60cf54611a5c9087906001600160a01b031683613c3a565b6000606460d45486611a6e9190615152565b611a789190615130565b9050611a848782613f02565b6000818385611a93888a615171565b611a9d9190615171565b611aa79190615171565b611ab19190615171565b90508015611ac457611ac4883083613c3a565b60c95460405162a6998d60e31b81526001600160a01b0390911690630534cc6890611af7908b908e908e90600401614e07565b600060405180830381600087803b158015611b1157600080fd5b505af1158015611b25573d6000803e3d6000fd5b505050507f120c2f36321d80f09f9d26f68f1f49b72c1964e118aa788bb9611f47e10c7eac88604051611b589190614dda565b60405180910390a150505050505050505050565b3360008181526034602090815260408083206001600160a01b03871684529091528120549091906110bd9082908690611ba6908790615118565b613876565b6001600160a01b039182166000908152609d6020908152604080832093909416825291909152205490565b6001600160a01b038116600090815260996020526040902054611c0b5760405162461bcd60e51b8152600401610f6790614f2e565b6001600160a01b0382166000908152609c60205260408120546040516370a0823160e01b81526001600160a01b038516906370a0823190611c50903090600401614dda565b60206040518083038186803b158015611c6857600080fd5b505afa158015611c7c573d6000803e3d6000fd5b505050506040513d601f19601f82011682018060405250810190611ca09190614d57565b611caa9190615118565b90506000611cbd83836113758787611bab565b905080611cdc5760405162461bcd60e51b8152600401610f6790614f74565b6001600160a01b038085166000908152609d6020908152604080832093871683529290529081208054839290611d13908490615118565b90915550506001600160a01b0384166000908152609c602052604081208054839290611d40908490615118565b90915550611d519050848483613f1a565b836001600160a01b03167f3be5b7a71e84ed12875d241991c70855ac5817d847039e17a9d895c1ceb0f18a8483604051611d8c929190614dee565b60405180910390a250505050565b60da54339060ff161515600114611df35760405162461bcd60e51b815260206004820152601960248201527f43534854414c4c3a20636173686f75742064697361626c6564000000000000006044820152606401610f67565b6001600160a01b038116611e415760405162461bcd60e51b815260206004820152601560248201527443534854414c4c3a207a65726f206164647265737360581b6044820152606401610f67565b6001600160a01b038116600090815260d9602052604090205460ff1615611eaa5760405162461bcd60e51b815260206004820152601c60248201527f43534854414c4c3a20626c61636b6c69737465642061646472657373000000006044820152606401610f67565b60ce546001600160a01b03828116911614801590611ed6575060d0546001600160a01b03828116911614155b611f225760405162461bcd60e51b815260206004820152601d60248201527f43534854414c4c3a20706f6f6c732063616e6e6f7420636173686f75740000006044820152606401610f67565b60c9546040516330cd31af60e11b81526000916001600160a01b03169063619a635e90611f53908590600401614dda565b60206040518083038186803b158015611f6b57600080fd5b505afa158015611f7f573d6000803e3d6000fd5b505050506040513d601f19601f82011682018060405250810190611fa39190614d57565b905060008111611ff55760405162461bcd60e51b815260206004820152601960248201527f43534854414c4c3a20726577617264206e6f74207265616479000000000000006044820152606401610f67565b60d7546000901561201d57606460d754836120109190615152565b61201a9190615130565b90505b6120278183615171565b60d054909250612041906001600160a01b03168484613c3a565b60c95460405163d094fa8d60e01b81526001600160a01b039091169063d094fa8d90612071908690600401614dda565b602060405180830381600087803b15801561208b57600080fd5b505af115801561209f573d6000803e3d6000fd5b505050506040513d601f19601f820116820180604052508101906120c39190614d57565b507f564112c0ad2fbcae1bed83c58ed5d830128565d634cdc875bb02b065ad2423438360405161141b9190614dda565b6065546001600160a01b0316331461211d5760405162461bcd60e51b8152600401610f6790614fbf565b6001600160a01b0381166121435760405162461bcd60e51b8152600401610f6790614f01565b60ce80546001600160a01b0319166001600160a01b0392909216919091179055565b600054610100900460ff166121805760005460ff1615612184565b303b155b6121e75760405162461bcd60e51b815260206004820152602e60248201527f496e697469616c697a61626c653a20636f6e747261637420697320616c72656160448201526d191e481a5b9a5d1a585b1a5e995960921b6064820152608401610f67565b600054610100900460ff16158015612209576000805461ffff19166101011790555b6000855111801561221b575060008451115b61225e5760405162461bcd60e51b815260206004820152601460248201527320a222291013102120a620a721a29022a92927a960611b6044820152606401610f67565b612266613f70565b6122aa604051806040016040528060078152602001663078426c6f636b60c81b81525060405180604001604052806003815260200162183c2160e91b815250613f9f565b6122b48787613fd0565b60006001600160a01b0316856001815181106122d2576122d2615220565b60200260200101516001600160a01b03161415801561231e575060006001600160a01b03168560028151811061230a5761230a615220565b60200260200101516001600160a01b031614155b8015612357575060006001600160a01b03168560038151811061234357612343615220565b60200260200101516001600160a01b031614155b8015612390575060006001600160a01b03168560048151811061237c5761237c615220565b60200260200101516001600160a01b031614155b6123ce5760405162461bcd60e51b815260206004820152600f60248201526e1413d3d30816915493c81193d55391608a1b6044820152606401610f67565b846001815181106123e1576123e1615220565b602002602001015160ce60006101000a8154816001600160a01b0302191690836001600160a01b031602179055508460028151811061242257612422615220565b602002602001015160d160006101000a8154816001600160a01b0302191690836001600160a01b031602179055508460038151811061246357612463615220565b602002602001015160cf60006101000a8154816001600160a01b0302191690836001600160a01b03160217905550846004815181106124a4576124a4615220565b602002602001015160d060006101000a8154816001600160a01b0302191690836001600160a01b031602179055506000836000815181106124e7576124e7615220565b6020026020010151118015612516575060008360018151811061250c5761250c615220565b6020026020010151115b801561253c575060008360028151811061253257612532615220565b6020026020010151115b8015612562575060008360038151811061255857612558615220565b6020026020010151115b8015612588575060008360048151811061257e5761257e615220565b6020026020010151115b6125c45760405162461bcd60e51b815260206004820152600d60248201526c0c094811915154c81193d55391609a1b6044820152606401610f67565b826000815181106125d7576125d7615220565b602002602001015160d581905550826001815181106125f8576125f8615220565b602002602001015160d3819055508260028151811061261957612619615220565b602002602001015160d2819055508260038151811061263a5761263a615220565b602002602001015160d4819055508260048151811061265b5761265b615220565b602002602001015160d78190555060d35460d55460d45460d25461267f9190615118565b6126899190615118565b6126939190615118565b60d65583518551146126de5760405162461bcd60e51b815260206004820152601460248201527320a222291013102120a620a721a29022a92927a960611b6044820152606401610f67565b60005b855181101561274b576127398682815181106126ff576126ff615220565b602002602001015186838151811061271957612719615220565b6020026020010151670de0b6b3a76400006127349190615152565b614001565b80612743816151ef565b9150506126e1565b5060355469d3c21bcecceda10000001461279f5760405162461bcd60e51b81526020600482015260156024820152741515130814d5541413164811125191880c48135253605a1b6044820152606401610f67565b60d88054606460cb55600a60cc5561ffff196001600160a01b038516620100000281166001600160b01b0319909216919091176101001790915560da8054610101921691909117905580156127fa576000805461ff00191690555b50505050505050565b6065546001600160a01b0316331461282d5760405162461bcd60e51b8152600401610f6790614fbf565b60ca54604051630196e36f60e61b81526001600160a01b03909116906365b8dbc09061285d908490600401614dda565b600060405180830381600087803b15801561287757600080fd5b505af115801561288b573d6000803e3d6000fd5b5050505050565b60da54339060ff1615156001146128e45760405162461bcd60e51b815260206004820152601660248201527510d4d2150e8810d85cda1bdd5d08111a5cd8589b195960521b6044820152606401610f67565b6001600160a01b03811661292f5760405162461bcd60e51b8152602060048201526012602482015271435348543a207a65726f206164647265737360701b6044820152606401610f67565b6001600160a01b038116600090815260d9602052604090205460ff161561298c5760405162461bcd60e51b815260206004820152601160248201527010d4d2150e88189b1858dadb1a5cdd1959607a1b6044820152606401610f67565b60ce546001600160a01b038281169116148015906129b8575060d0546001600160a01b03828116911614155b80156129d2575060cf546001600160a01b03828116911614155b612a295760405162461bcd60e51b815260206004820152602260248201527f435348543a20706f6f6c732063616e6e6f7420636173686f7574207265776172604482015261647360f01b6064820152608401610f67565b60c9546040516329b8573160e21b81526000916001600160a01b03169063a6e15cc490612a5c9085908790600401614dee565b60206040518083038186803b158015612a7457600080fd5b505afa158015612a88573d6000803e3d6000fd5b505050506040513d601f19601f82011682018060405250810190612aac9190614d57565b905060008111612af75760405162461bcd60e51b8152602060048201526016602482015275435348543a20726577617264206e6f7420726561647960501b6044820152606401610f67565b60d75460009015612b1f57606460d75483612b129190615152565b612b1c9190615130565b90505b612b298183615171565b60d054909250612b43906001600160a01b03168484613c3a565b60c95460405163611015b360e11b81526001600160a01b039091169063c2202b6690612b759086908890600401614dee565b602060405180830381600087803b158015612b8f57600080fd5b505af1158015612ba3573d6000803e3d6000fd5b505050506040513d601f19601f82011682018060405250810190612bc79190614d57565b507f39f6d68d140e552a327d43ef814649947d78e76743e169e4f00d61b14f2f846d8385604051612bf9929190614dee565b60405180910390a150505050565b6065546001600160a01b03163314612c315760405162461bcd60e51b8152600401610f6790614fbf565b6064811115612c825760405162461bcd60e51b815260206004820152601c60248201527f464545533a20636173686f757420657863656564696e672031303025000000006044820152606401610f67565b60d755565b606033612ca65760405162461bcd60e51b8152600401610f6790614ff4565b60c9546001600160a01b03166377ec782633611293565b6065546001600160a01b03163314612ce75760405162461bcd60e51b8152600401610f6790614fbf565b612cf160006140e0565b565b60c9546040805163055a757d60e41b815290516000926001600160a01b0316916355a757d0916004808301926020929190829003018186803b15801561112e57600080fd5b60c95460405162c73e4d60e01b81526000916001600160a01b03169062c73e4d90611459908590600401614ec5565b6065546001600160a01b03163314612d915760405162461bcd60e51b8152600401610f6790614fbf565b6001600160a01b038116612db75760405162461bcd60e51b8152600401610f6790614f01565b60cf80546001600160a01b0319166001600160a01b0392909216919091179055565b606033612df85760405162461bcd60e51b8152600401610f6790614ff4565b60c9546001600160a01b0316638bf1451433611293565b6065546001600160a01b03163314612e395760405162461bcd60e51b8152600401610f6790614fbf565b60d880549115156101000261ff0019909216919091179055565b606033612e725760405162461bcd60e51b8152600401610f6790614ff4565b60c9546001600160a01b031663f743f31933611293565b6000609b8281548110612e9e57612e9e615220565b6000918252602090912001546001600160a01b031692915050565b6065546001600160a01b03163314612ee35760405162461bcd60e51b8152600401610f6790614fbf565b6001600160a01b038116612f2e5760405162461bcd60e51b81526020600482015260126024820152712722abafa1a9269d103d32b9379030b2323960711b6044820152606401610f67565b60c980546001600160a01b0319166001600160a01b0392909216919091179055565b6065546001600160a01b03163314612f7a5760405162461bcd60e51b8152600401610f6790614fbf565b60008160d35460d55460d254612f909190615118565b612f9a9190615118565b612fa49190615118565b90506064811115612fc75760405162461bcd60e51b8152600401610f6790615019565b60d49190915560d655565b606033612ff15760405162461bcd60e51b8152600401610f6790614ff4565b60c9546001600160a01b03166351bf120c33611293565b6065546001600160a01b031633146130325760405162461bcd60e51b8152600401610f6790614fbf565b60da80549115156101000261ff0019909216919091179055565b606060378054610faa906151b4565b6065546001600160a01b031633146130855760405162461bcd60e51b8152600401610f6790614fbf565b60008160d55460d45460d25461309b9190615118565b6130a59190615118565b6130af9190615118565b905060648111156130d25760405162461bcd60e51b8152600401610f6790615019565b60d39190915560d655565b6060336130fc5760405162461bcd60e51b8152600401610f6790614ff4565b60c9546001600160a01b031663367fd07433611293565b6065546001600160a01b0316331461313d5760405162461bcd60e51b8152600401610f6790614fbf565b60d8805460ff1916911515919091179055565b61315b333083613b70565b613166823383613e08565b5050565b3360008181526034602090815260408083206001600160a01b0387168452909152812054909190838110156131ef5760405162461bcd60e51b815260206004820152602560248201527f45524332303a2064656372656173656420616c6c6f77616e63652062656c6f77604482015264207a65726f60d81b6064820152608401610f67565b6131fc8286868403613876565b506001949350505050565b60c9546040805163e18f03ad60e01b815290516000926001600160a01b03169163e18f03ad916004808301926020929190829003018186803b15801561112e57600080fd5b6000336110bd818585613b70565b6065546001600160a01b031633146132845760405162461bcd60e51b8152600401610f6790614fbf565b60d880546001600160a01b03909216620100000262010000600160b01b0319909216919091179055565b6065546001600160a01b031633146132d85760405162461bcd60e51b8152600401610f6790614fbf565b60da805460ff1916911515919091179055565b60ca546040516317ae8ecf60e31b815284151560048201526001600160a01b03848116602483015260448201849052606092169063bd747678906064015b60006040518083038186803b15801561334157600080fd5b505afa158015613355573d6000803e3d6000fd5b505050506040513d6000823e601f3d908101601f1916820160405261337d9190810190614b9e565b949350505050565b6065546001600160a01b031633146133af5760405162461bcd60e51b8152600401610f6790614fbf565b60c954604051631c864c8f60e11b8152600481018390526001600160a01b039091169063390c991e9060240161285d565b6065546001600160a01b0316331461340a5760405162461bcd60e51b8152600401610f6790614fbf565b6001600160a01b0381166134595760405162461bcd60e51b81526020600482015260166024820152752722abafa62927aaaa22a91d103d32b9379030b2323960511b6044820152606401610f67565b60ca80546001600160a01b0319166001600160a01b0392909216919091179055565b6065546001600160a01b031633146134a55760405162461bcd60e51b8152600401610f6790614fbf565b6001600160a01b0381166134cb5760405162461bcd60e51b8152600401610f6790614f01565b60d080546001600160a01b0319166001600160a01b0392909216919091179055565b6065546001600160a01b031633146135175760405162461bcd60e51b8152600401610f6790614fbf565b60c954604051631d5a173160e01b81526001600160a01b0390911690631d5a17319061122b9085908590600401614ed3565b6065546001600160a01b031633146135735760405162461bcd60e51b8152600401610f6790614fbf565b306000908152603360205260409020548111156135e35760405162461bcd60e51b815260206004820152602860248201527f534156455f4d495353454e543a20746f6b656e732065786365656420616464726044820152672062616c616e636560c01b6064820152608401610f67565b6001600160a01b0382166136395760405162461bcd60e51b815260206004820152601a60248201527f534156455f4d495353454e543a207a65726f5f616464726573730000000000006044820152606401610f67565b613166308383613b70565b6001600160a01b03918216600090815260346020908152604080832093909416825291909152205490565b60603361368e5760405162461bcd60e51b8152600401610f6790614ff4565b60c9546001600160a01b03166328cceb2433611293565b6065546001600160a01b031633146136cf5760405162461bcd60e51b8152600401610f6790614fbf565b6001600160a01b0381166136f55760405162461bcd60e51b8152600401610f6790614f01565b60d180546001600160a01b0319166001600160a01b0392909216919091179055565b6065546001600160a01b031633146137415760405162461bcd60e51b8152600401610f6790614fbf565b6001600160a01b0381166137a65760405162461bcd60e51b815260206004820152602660248201527f4f776e61626c653a206e6577206f776e657220697320746865207a65726f206160448201526564647265737360d01b6064820152608401610f67565b6137af816140e0565b50565b60ca5460405163f5c1365360e01b815284151560048201526001600160a01b03848116602483015260448201849052606092169063f5c1365390606401613329565b6065546001600160a01b0316331461381e5760405162461bcd60e51b8152600401610f6790614fbf565b60008160d35460d45460d2546138349190615118565b61383e9190615118565b6138489190615118565b9050606481111561386b5760405162461bcd60e51b8152600401610f6790615019565b60d59190915560d655565b6001600160a01b0383166138d85760405162461bcd60e51b8152602060048201526024808201527f45524332303a20617070726f76652066726f6d20746865207a65726f206164646044820152637265737360e01b6064820152608401610f67565b6001600160a01b0382166139395760405162461bcd60e51b815260206004820152602260248201527f45524332303a20617070726f766520746f20746865207a65726f206164647265604482015261737360f01b6064820152608401610f67565b6001600160a01b0383811660008181526034602090815260408083209487168084529482529182902085905590518481527f8c5be1e5ebec7d5bd14f71427d1e84f3dd0314c0f7b2291e5b200ac8c7c3b925910160405180910390a3505050565b6097546001600160a01b038416600090815260996020526040812054909183916139c49086615152565b6139ce9190615130565b61337d9190615171565b80471015613a285760405162461bcd60e51b815260206004820152601d60248201527f416464726573733a20696e73756666696369656e742062616c616e63650000006044820152606401610f67565b6000826001600160a01b03168260405160006040518083038185875af1925050503d8060008114613a75576040519150601f19603f3d011682016040523d82523d6000602084013e613a7a565b606091505b5050905080613af15760405162461bcd60e51b815260206004820152603a60248201527f416464726573733a20756e61626c6520746f2073656e642076616c75652c207260448201527f6563697069656e74206d617920686176652072657665727465640000000000006064820152608401610f67565b505050565b6000613b028484613644565b90506000198114613b6a5781811015613b5d5760405162461bcd60e51b815260206004820152601d60248201527f45524332303a20696e73756666696369656e7420616c6c6f77616e63650000006044820152606401610f67565b613b6a8484848403613876565b50505050565b6001600160a01b038316600090815260d9602052604090205460ff16158015613bb257506001600160a01b038216600090815260d9602052604090205460ff16155b613bfe5760405162461bcd60e51b815260206004820152601a60248201527f45524332303a20426c61636b6c697374656420616464726573730000000000006044820152606401610f67565b613af1838383613c3a565b60c9546040516344fea1b960e01b81526000916001600160a01b0316906344fea1b990611459908590600401614dda565b6001600160a01b038316613c9e5760405162461bcd60e51b815260206004820152602560248201527f45524332303a207472616e736665722066726f6d20746865207a65726f206164604482015264647265737360d81b6064820152608401610f67565b6001600160a01b038216613d005760405162461bcd60e51b815260206004820152602360248201527f45524332303a207472616e7366657220746f20746865207a65726f206164647260448201526265737360e81b6064820152608401610f67565b6001600160a01b03831660009081526033602052604090205481811015613d785760405162461bcd60e51b815260206004820152602660248201527f45524332303a207472616e7366657220616d6f756e7420657863656564732062604482015265616c616e636560d01b6064820152608401610f67565b6001600160a01b03808516600090815260336020526040808220858503905591851681529081208054849290613daf908490615118565b92505081905550826001600160a01b0316846001600160a01b03167fddf252ad1be2c89b69c2b068fc378daa952ba7f163c4a11628f55a4df523b3ef84604051613dfb91815260200190565b60405180910390a3613b6a565b613e983060ca60009054906101000a90046001600160a01b03166001600160a01b0316633268cc566040518163ffffffff1660e01b815260040160206040518083038186803b158015613e5a57600080fd5b505afa158015613e6e573d6000803e3d6000fd5b505050506040513d601f19601f82011682018060405250810190613e9291906148c7565b83613876565b60ca54604051639caf326f60e01b81526001600160a01b03858116600483015284811660248301526044820184905290911690639caf326f90606401600060405180830381600087803b158015613eee57600080fd5b505af11580156127fa573d6000803e3d6000fd5b60d1546131669083906001600160a01b031683613c3a565b613af18363a9059cbb60e01b8484604051602401613f39929190614dee565b60408051601f198184030181529190526020810180516001600160e01b03166001600160e01b031990931692909217909152614132565b600054610100900460ff16613f975760405162461bcd60e51b8152600401610f6790615050565b612cf1614204565b600054610100900460ff16613fc65760405162461bcd60e51b8152600401610f6790615050565b6131668282614234565b600054610100900460ff16613ff75760405162461bcd60e51b8152600401610f6790615050565b6131668282614282565b6001600160a01b0382166140575760405162461bcd60e51b815260206004820152601f60248201527f45524332303a206d696e7420746f20746865207a65726f2061646472657373006044820152606401610f67565b80603560008282546140699190615118565b90915550506001600160a01b03821660009081526033602052604081208054839290614096908490615118565b90915550506040518181526001600160a01b038316906000907fddf252ad1be2c89b69c2b068fc378daa952ba7f163c4a11628f55a4df523b3ef9060200160405180910390a35050565b606580546001600160a01b038381166001600160a01b0319831681179093556040519116919082907f8be0079c531659141344cd1fd0a4f28419497f9722a3daafe3b4186f6b6457e090600090a35050565b6000614187826040518060400160405280602081526020017f5361666545524332303a206c6f772d6c6576656c2063616c6c206661696c6564815250856001600160a01b03166143c09092919063ffffffff16565b805190915015613af157808060200190518101906141a59190614c53565b613af15760405162461bcd60e51b815260206004820152602a60248201527f5361666545524332303a204552433230206f7065726174696f6e20646964206e6044820152691bdd081cdd58d8d9595960b21b6064820152608401610f67565b600054610100900460ff1661422b5760405162461bcd60e51b8152600401610f6790615050565b612cf1336140e0565b600054610100900460ff1661425b5760405162461bcd60e51b8152600401610f6790615050565b815161426e906036906020850190614717565b508051613af1906037906020840190614717565b600054610100900460ff166142a95760405162461bcd60e51b8152600401610f6790615050565b80518251146143155760405162461bcd60e51b815260206004820152603260248201527f5061796d656e7453706c69747465723a2070617965657320616e6420736861726044820152710cae640d8cadccee8d040dad2e6dac2e8c6d60731b6064820152608401610f67565b60008251116143665760405162461bcd60e51b815260206004820152601a60248201527f5061796d656e7453706c69747465723a206e6f207061796565730000000000006044820152606401610f67565b60005b8251811015613af1576143ae83828151811061438757614387615220565b60200260200101518383815181106143a1576143a1615220565b60200260200101516143cf565b806143b8816151ef565b915050614369565b606061337d84846000856145ad565b6001600160a01b03821661443a5760405162461bcd60e51b815260206004820152602c60248201527f5061796d656e7453706c69747465723a206163636f756e74206973207468652060448201526b7a65726f206164647265737360a01b6064820152608401610f67565b6000811161448a5760405162461bcd60e51b815260206004820152601d60248201527f5061796d656e7453706c69747465723a207368617265732061726520300000006044820152606401610f67565b6001600160a01b038216600090815260996020526040902054156145045760405162461bcd60e51b815260206004820152602b60248201527f5061796d656e7453706c69747465723a206163636f756e7420616c726561647960448201526a206861732073686172657360a81b6064820152608401610f67565b609b8054600181019091557fbba9db4cdbea0a37c207bbb83e20f828cd4441c49891101dc94fd20dc8efc3490180546001600160a01b0319166001600160a01b038416908117909155600090815260996020526040902081905560975461456c908290615118565b6097556040517f40c340f65e17194d14ddddb073d3c9f888e3cb52b5aae0c6c7706b4fbc905fac906145a19084908490614dee565b60405180910390a15050565b60608247101561460e5760405162461bcd60e51b815260206004820152602660248201527f416464726573733a20696e73756666696369656e742062616c616e636520666f6044820152651c8818d85b1b60d21b6064820152608401610f67565b6001600160a01b0385163b6146655760405162461bcd60e51b815260206004820152601d60248201527f416464726573733a2063616c6c20746f206e6f6e2d636f6e74726163740000006044820152606401610f67565b600080866001600160a01b031685876040516146819190614dbe565b60006040518083038185875af1925050503d80600081146146be576040519150601f19603f3d011682016040523d82523d6000602084013e6146c3565b606091505b50915091506146d38282866146de565b979650505050505050565b606083156146ed5750816114f9565b8251156146fd5782518084602001fd5b8160405162461bcd60e51b8152600401610f679190614eee565b828054614723906151b4565b90600052602060002090601f016020900481019282614745576000855561478b565b82601f1061475e57805160ff191683800117855561478b565b8280016001018555821561478b579182015b8281111561478b578251825591602001919060010190614770565b5061479792915061479b565b5090565b5b80821115614797576000815560010161479c565b80356147bb8161524c565b919050565b600082601f8301126147d157600080fd5b813560206147e66147e1836150cc565b61509b565b80838252828201915082860187848660051b890101111561480657600080fd5b60005b8581101561482e57813561481c8161524c565b84529284019290840190600101614809565b5090979650505050505050565b600082601f83011261484c57600080fd5b8135602061485c6147e1836150cc565b80838252828201915082860187848660051b890101111561487c57600080fd5b60005b8581101561482e5781358452928401929084019060010161487f565b8035600381106147bb57600080fd5b6000602082840312156148bc57600080fd5b81356114f98161524c565b6000602082840312156148d957600080fd5b81516114f98161524c565b600080604083850312156148f757600080fd5b82356149028161524c565b915060208301356149128161524c565b809150509250929050565b60008060006060848603121561493257600080fd5b833561493d8161524c565b9250602084013561494d8161524c565b929592945050506040919091013590565b6000806040838503121561497157600080fd5b823561497c8161524c565b9150602083013561491281615261565b6000806040838503121561499f57600080fd5b82356149aa8161524c565b946020939093013593505050565b60008060008060008060c087890312156149d157600080fd5b863567ffffffffffffffff808211156149e957600080fd5b6149f58a838b016147c0565b97506020890135915080821115614a0b57600080fd5b614a178a838b0161483b565b96506040890135915080821115614a2d57600080fd5b614a398a838b016147c0565b95506060890135915080821115614a4f57600080fd5b614a5b8a838b0161483b565b94506080890135915080821115614a7157600080fd5b50614a7e89828a0161483b565b925050614a8d60a088016147b0565b90509295509295509295565b6000806040808486031215614aad57600080fd5b833567ffffffffffffffff80821115614ac557600080fd5b818601915086601f830112614ad957600080fd5b81356020614ae96147e1836150cc565b8083825282820191508286018b848660051b8901011115614b0957600080fd5b60005b85811015614b7e57813587811115614b2357600080fd5b8801603f81018e13614b3457600080fd5b85810135614b446147e1826150f0565b8181528f8c838501011115614b5857600080fd5b818c84018983013760009181018801919091528552509284019290840190600101614b0c565b50508098505050614b9081890161489b565b955050505050509250929050565b60006020808385031215614bb157600080fd5b825167ffffffffffffffff811115614bc857600080fd5b8301601f81018513614bd957600080fd5b8051614be76147e1826150cc565b80828252848201915084840188868560051b8701011115614c0757600080fd5b600094505b83851015614c2a578051835260019490940193918501918501614c0c565b50979650505050505050565b600060208284031215614c4857600080fd5b81356114f981615261565b600060208284031215614c6557600080fd5b81516114f981615261565b600080600060608486031215614c8557600080fd5b833561493d81615261565b600060208284031215614ca257600080fd5b6114f98261489b565b60008060408385031215614cbe57600080fd5b6149aa8361489b565b600060208284031215614cd957600080fd5b815167ffffffffffffffff811115614cf057600080fd5b8201601f81018413614d0157600080fd5b8051614d0f6147e1826150f0565b818152856020838501011115614d2457600080fd5b614d35826020830160208601615188565b95945050505050565b600060208284031215614d5057600080fd5b5035919050565b600060208284031215614d6957600080fd5b5051919050565b60038110614d8e57634e487b7160e01b600052602160045260246000fd5b9052565b60008151808452614daa816020860160208601615188565b601f01601f19169290920160200192915050565b60008251614dd0818460208701615188565b9190910192915050565b6001600160a01b0391909116815260200190565b6001600160a01b03929092168252602082015260400190565b60006060820160018060a01b0386168352602060608185015281865180845260808601915060808160051b870101935082880160005b82811015614e6b57607f19888703018452614e59868351614d92565b95509284019290840190600101614e3d565b50505050508091505061337d6040830184614d70565b6020808252825182820181905260009190848201906040850190845b81811015614eb957835183529284019291840191600101614e9d565b50909695505050505050565b602081016110c38284614d70565b60408101614ee18285614d70565b8260208301529392505050565b6020815260006114f96020830184614d92565b6020808252601390820152722aa8222faba0a6261d103d32b9379030b2323960691b604082015260600190565b60208082526026908201527f5061796d656e7453706c69747465723a206163636f756e7420686173206e6f2060408201526573686172657360d01b606082015260800190565b6020808252602b908201527f5061796d656e7453706c69747465723a206163636f756e74206973206e6f742060408201526a191d59481c185e5b595b9d60aa1b606082015260800190565b6020808252818101527f4f776e61626c653a2063616c6c6572206973206e6f7420746865206f776e6572604082015260600190565b6020808252600b908201526a053454e44455220495320360ac1b604082015260600190565b6020808252601a908201527f464545533a20746f74616c20657863656564696e672031303025000000000000604082015260600190565b6020808252602b908201527f496e697469616c697a61626c653a20636f6e7472616374206973206e6f74206960408201526a6e697469616c697a696e6760a81b606082015260800190565b604051601f8201601f1916810167ffffffffffffffff811182821017156150c4576150c4615236565b604052919050565b600067ffffffffffffffff8211156150e6576150e6615236565b5060051b60200190565b600067ffffffffffffffff82111561510a5761510a615236565b50601f01601f191660200190565b6000821982111561512b5761512b61520a565b500190565b60008261514d57634e487b7160e01b600052601260045260246000fd5b500490565b600081600019048311821515161561516c5761516c61520a565b500290565b6000828210156151835761518361520a565b500390565b60005b838110156151a357818101518382015260200161518b565b83811115613b6a5750506000910152565b600181811c908216806151c857607f821691505b602082108114156151e957634e487b7160e01b600052602260045260246000fd5b50919050565b60006000198214156152035761520361520a565b5060010190565b634e487b7160e01b600052601160045260246000fd5b634e487b7160e01b600052603260045260246000fd5b634e487b7160e01b600052604160045260246000fd5b6001600160a01b03811681146137af57600080fd5b80151581146137af57600080fdfea164736f6c6343000807000a",
  "devdoc": {
    "kind": "dev",
    "methods": {
      "allowance(address,address)": {
        "details": "See {IERC20-allowance}."
      },
      "approve(address,uint256)": {
        "details": "See {IERC20-approve}. NOTE: If `amount` is the maximum `uint256`, the allowance is not updated on `transferFrom`. This is semantically equivalent to an infinite approval. Requirements: - `spender` cannot be the zero address."
      },
      "balanceOf(address)": {
        "details": "See {IERC20-balanceOf}."
      },
      "decimals()": {
        "details": "Returns the number of decimals used to get its user representation. For example, if `decimals` equals `2`, a balance of `505` tokens should be displayed to a user as `5.05` (`505 / 10 ** 2`). Tokens usually opt for a value of 18, imitating the relationship between Ether and Wei. This is the value {ERC20} uses, unless this function is overridden; NOTE: This information is only used for _display_ purposes: it in no way affects any of the arithmetic of the contract, including {IERC20-balanceOf} and {IERC20-transfer}."
      },
      "decreaseAllowance(address,uint256)": {
        "details": "Atomically decreases the allowance granted to `spender` by the caller. This is an alternative to {approve} that can be used as a mitigation for problems described in {IERC20-approve}. Emits an {Approval} event indicating the updated allowance. Requirements: - `spender` cannot be the zero address. - `spender` must have allowance for the caller of at least `subtractedValue`."
      },
      "increaseAllowance(address,uint256)": {
        "details": "Atomically increases the allowance granted to `spender` by the caller. This is an alternative to {approve} that can be used as a mitigation for problems described in {IERC20-approve}. Emits an {Approval} event indicating the updated allowance. Requirements: - `spender` cannot be the zero address."
      },
      "name()": {
        "details": "Returns the name of the token."
      },
      "owner()": {
        "details": "Returns the address of the current owner."
      },
      "payee(uint256)": {
        "details": "Getter for the address of the payee number `index`."
      },
      "release(address)": {
        "details": "Triggers a transfer to `account` of the amount of Ether they are owed, according to their percentage of the total shares and their previous withdrawals."
      },
      "release(address,address)": {
        "details": "Triggers a transfer to `account` of the amount of `token` tokens they are owed, according to their percentage of the total shares and their previous withdrawals. `token` must be the address of an IERC20 contract."
      },
      "released(address)": {
        "details": "Getter for the amount of Ether already released to a payee."
      },
      "released(address,address)": {
        "details": "Getter for the amount of `token` tokens already released to a payee. `token` should be the address of an IERC20 contract."
      },
      "renounceOwnership()": {
        "details": "Leaves the contract without owner. It will not be possible to call `onlyOwner` functions anymore. Can only be called by the current owner. NOTE: Renouncing ownership will leave the contract without an owner, thereby removing any functionality that is only available to the owner."
      },
      "shares(address)": {
        "details": "Getter for the amount of shares held by an account."
      },
      "symbol()": {
        "details": "Returns the symbol of the token, usually a shorter version of the name."
      },
      "totalReleased()": {
        "details": "Getter for the total amount of Ether already released."
      },
      "totalReleased(address)": {
        "details": "Getter for the total amount of `token` already released. `token` should be the address of an IERC20 contract."
      },
      "totalShares()": {
        "details": "Getter for the total shares held by payees."
      },
      "totalSupply()": {
        "details": "See {IERC20-totalSupply}."
      },
      "transfer(address,uint256)": {
        "details": "See {IERC20-transfer}. Requirements: - `to` cannot be the zero address. - the caller must have a balance of at least `amount`."
      },
      "transferFrom(address,address,uint256)": {
        "details": "See {IERC20-transferFrom}. Emits an {Approval} event indicating the updated allowance. This is not required by the EIP. See the note at the beginning of {ERC20}. NOTE: Does not update the allowance if the current allowance is the maximum `uint256`. Requirements: - `from` and `to` cannot be the zero address. - `from` must have a balance of at least `amount`. - the caller must have allowance for ``from``'s tokens of at least `amount`."
      },
      "transferOwnership(address)": {
        "details": "Transfers ownership of the contract to a new account (`newOwner`). Can only be called by the current owner."
      }
    },
    "version": 1
  },
  "userdoc": {
    "kind": "user",
    "methods": {},
    "version": 1
  },
  "storageLayout": {
    "storage": [
      {
        "astId": 598,
        "contract": "contracts/ZeroXBlock.sol:ZeroXBlock",
        "label": "_initialized",
        "offset": 0,
        "slot": "0",
        "type": "t_bool"
      },
      {
        "astId": 601,
        "contract": "contracts/ZeroXBlock.sol:ZeroXBlock",
        "label": "_initializing",
        "offset": 1,
        "slot": "0",
        "type": "t_bool"
      },
      {
        "astId": 1889,
        "contract": "contracts/ZeroXBlock.sol:ZeroXBlock",
        "label": "__gap",
        "offset": 0,
        "slot": "1",
        "type": "t_array(t_uint256)50_storage"
      },
      {
        "astId": 684,
        "contract": "contracts/ZeroXBlock.sol:ZeroXBlock",
        "label": "_balances",
        "offset": 0,
        "slot": "51",
        "type": "t_mapping(t_address,t_uint256)"
      },
      {
        "astId": 690,
        "contract": "contracts/ZeroXBlock.sol:ZeroXBlock",
        "label": "_allowances",
        "offset": 0,
        "slot": "52",
        "type": "t_mapping(t_address,t_mapping(t_address,t_uint256))"
      },
      {
        "astId": 692,
        "contract": "contracts/ZeroXBlock.sol:ZeroXBlock",
        "label": "_totalSupply",
        "offset": 0,
        "slot": "53",
        "type": "t_uint256"
      },
      {
        "astId": 694,
        "contract": "contracts/ZeroXBlock.sol:ZeroXBlock",
        "label": "_name",
        "offset": 0,
        "slot": "54",
        "type": "t_string_storage"
      },
      {
        "astId": 696,
        "contract": "contracts/ZeroXBlock.sol:ZeroXBlock",
        "label": "_symbol",
        "offset": 0,
        "slot": "55",
        "type": "t_string_storage"
      },
      {
        "astId": 1277,
        "contract": "contracts/ZeroXBlock.sol:ZeroXBlock",
        "label": "__gap",
        "offset": 0,
        "slot": "56",
        "type": "t_array(t_uint256)45_storage"
      },
      {
        "astId": 10,
        "contract": "contracts/ZeroXBlock.sol:ZeroXBlock",
        "label": "_owner",
        "offset": 0,
        "slot": "101",
        "type": "t_address"
      },
      {
        "astId": 122,
        "contract": "contracts/ZeroXBlock.sol:ZeroXBlock",
        "label": "__gap",
        "offset": 0,
        "slot": "102",
        "type": "t_array(t_uint256)49_storage"
      },
      {
        "astId": 163,
        "contract": "contracts/ZeroXBlock.sol:ZeroXBlock",
        "label": "_totalShares",
        "offset": 0,
        "slot": "151",
        "type": "t_uint256"
      },
      {
        "astId": 165,
        "contract": "contracts/ZeroXBlock.sol:ZeroXBlock",
        "label": "_totalReleased",
        "offset": 0,
        "slot": "152",
        "type": "t_uint256"
      },
      {
        "astId": 169,
        "contract": "contracts/ZeroXBlock.sol:ZeroXBlock",
        "label": "_shares",
        "offset": 0,
        "slot": "153",
        "type": "t_mapping(t_address,t_uint256)"
      },
      {
        "astId": 173,
        "contract": "contracts/ZeroXBlock.sol:ZeroXBlock",
        "label": "_released",
        "offset": 0,
        "slot": "154",
        "type": "t_mapping(t_address,t_uint256)"
      },
      {
        "astId": 176,
        "contract": "contracts/ZeroXBlock.sol:ZeroXBlock",
        "label": "_payees",
        "offset": 0,
        "slot": "155",
        "type": "t_array(t_address)dyn_storage"
      },
      {
        "astId": 181,
        "contract": "contracts/ZeroXBlock.sol:ZeroXBlock",
        "label": "_erc20TotalReleased",
        "offset": 0,
        "slot": "156",
        "type": "t_mapping(t_contract(IERC20Upgradeable)1356,t_uint256)"
      },
      {
        "astId": 188,
        "contract": "contracts/ZeroXBlock.sol:ZeroXBlock",
        "label": "_erc20Released",
        "offset": 0,
        "slot": "157",
        "type": "t_mapping(t_contract(IERC20Upgradeable)1356,t_mapping(t_address,t_uint256))"
      },
      {
        "astId": 590,
        "contract": "contracts/ZeroXBlock.sol:ZeroXBlock",
        "label": "__gap",
        "offset": 0,
        "slot": "158",
        "type": "t_array(t_uint256)43_storage"
      },
      {
        "astId": 1909,
        "contract": "contracts/ZeroXBlock.sol:ZeroXBlock",
        "label": "_crm",
        "offset": 0,
        "slot": "201",
        "type": "t_contract(CONTRewardManagement)5699"
      },
      {
        "astId": 1912,
        "contract": "contracts/ZeroXBlock.sol:ZeroXBlock",
        "label": "_liqRouter",
        "offset": 0,
        "slot": "202",
        "type": "t_contract(LiquidityRouter)6240"
      },
      {
        "astId": 1917,
        "contract": "contracts/ZeroXBlock.sol:ZeroXBlock",
        "label": "ownedContsLimit",
        "offset": 0,
        "slot": "203",
        "type": "t_uint256"
      },
      {
        "astId": 1919,
        "contract": "contracts/ZeroXBlock.sol:ZeroXBlock",
        "label": "mintContLimit",
        "offset": 0,
        "slot": "204",
        "type": "t_uint256"
      },
      {
        "astId": 1921,
        "contract": "contracts/ZeroXBlock.sol:ZeroXBlock",
        "label": "totalTokensPaidForMinting",
        "offset": 0,
        "slot": "205",
        "type": "t_uint256"
      },
      {
        "astId": 1923,
        "contract": "contracts/ZeroXBlock.sol:ZeroXBlock",
        "label": "developmentFundPool",
        "offset": 0,
        "slot": "206",
        "type": "t_address"
      },
      {
        "astId": 1925,
        "contract": "contracts/ZeroXBlock.sol:ZeroXBlock",
        "label": "treasuryPool",
        "offset": 0,
        "slot": "207",
        "type": "t_address"
      },
      {
        "astId": 1927,
        "contract": "contracts/ZeroXBlock.sol:ZeroXBlock",
        "label": "rewardsPool",
        "offset": 0,
        "slot": "208",
        "type": "t_address"
      },
      {
        "astId": 1929,
        "contract": "contracts/ZeroXBlock.sol:ZeroXBlock",
        "label": "liquidityPool",
        "offset": 0,
        "slot": "209",
        "type": "t_address"
      },
      {
        "astId": 1931,
        "contract": "contracts/ZeroXBlock.sol:ZeroXBlock",
        "label": "rewardsFee",
        "offset": 0,
        "slot": "210",
        "type": "t_uint256"
      },
      {
        "astId": 1933,
        "contract": "contracts/ZeroXBlock.sol:ZeroXBlock",
        "label": "treasuryFee",
        "offset": 0,
        "slot": "211",
        "type": "t_uint256"
      },
      {
        "astId": 1935,
        "contract": "contracts/ZeroXBlock.sol:ZeroXBlock",
        "label": "liquidityPoolFee",
        "offset": 0,
        "slot": "212",
        "type": "t_uint256"
      },
      {
        "astId": 1937,
        "contract": "contracts/ZeroXBlock.sol:ZeroXBlock",
        "label": "developmentFee",
        "offset": 0,
        "slot": "213",
        "type": "t_uint256"
      },
      {
        "astId": 1939,
        "contract": "contracts/ZeroXBlock.sol:ZeroXBlock",
        "label": "totalFees",
        "offset": 0,
        "slot": "214",
        "type": "t_uint256"
      },
      {
        "astId": 1941,
        "contract": "contracts/ZeroXBlock.sol:ZeroXBlock",
        "label": "cashoutFee",
        "offset": 0,
        "slot": "215",
        "type": "t_uint256"
      },
      {
        "astId": 1943,
        "contract": "contracts/ZeroXBlock.sol:ZeroXBlock",
        "label": "enableAutoSwapTreasury",
        "offset": 0,
        "slot": "216",
        "type": "t_bool"
      },
      {
        "astId": 1945,
        "contract": "contracts/ZeroXBlock.sol:ZeroXBlock",
        "label": "enableAutoSwapDevFund",
        "offset": 1,
        "slot": "216",
        "type": "t_bool"
      },
      {
        "astId": 1947,
        "contract": "contracts/ZeroXBlock.sol:ZeroXBlock",
        "label": "usdcToken",
        "offset": 2,
        "slot": "216",
        "type": "t_address"
      },
      {
        "astId": 1951,
        "contract": "contracts/ZeroXBlock.sol:ZeroXBlock",
        "label": "_isBlacklisted",
        "offset": 0,
        "slot": "217",
        "type": "t_mapping(t_address,t_bool)"
      },
      {
        "astId": 1953,
        "contract": "contracts/ZeroXBlock.sol:ZeroXBlock",
        "label": "enableCashout",
        "offset": 0,
        "slot": "218",
        "type": "t_bool"
      },
      {
        "astId": 1955,
        "contract": "contracts/ZeroXBlock.sol:ZeroXBlock",
        "label": "enableMintConts",
        "offset": 1,
        "slot": "218",
        "type": "t_bool"
      }
    ],
    "types": {
      "t_address": {
        "encoding": "inplace",
        "label": "address",
        "numberOfBytes": "20"
      },
      "t_array(t_address)dyn_storage": {
        "base": "t_address",
        "encoding": "dynamic_array",
        "label": "address[]",
        "numberOfBytes": "32"
      },
      "t_array(t_uint256)43_storage": {
        "base": "t_uint256",
        "encoding": "inplace",
        "label": "uint256[43]",
        "numberOfBytes": "1376"
      },
      "t_array(t_uint256)45_storage": {
        "base": "t_uint256",
        "encoding": "inplace",
        "label": "uint256[45]",
        "numberOfBytes": "1440"
      },
      "t_array(t_uint256)49_storage": {
        "base": "t_uint256",
        "encoding": "inplace",
        "label": "uint256[49]",
        "numberOfBytes": "1568"
      },
      "t_array(t_uint256)50_storage": {
        "base": "t_uint256",
        "encoding": "inplace",
        "label": "uint256[50]",
        "numberOfBytes": "1600"
      },
      "t_bool": {
        "encoding": "inplace",
        "label": "bool",
        "numberOfBytes": "1"
      },
      "t_contract(CONTRewardManagement)5699": {
        "encoding": "inplace",
        "label": "contract CONTRewardManagement",
        "numberOfBytes": "20"
      },
      "t_contract(IERC20Upgradeable)1356": {
        "encoding": "inplace",
        "label": "contract IERC20Upgradeable",
        "numberOfBytes": "20"
      },
      "t_contract(LiquidityRouter)6240": {
        "encoding": "inplace",
        "label": "contract LiquidityRouter",
        "numberOfBytes": "20"
      },
      "t_mapping(t_address,t_bool)": {
        "encoding": "mapping",
        "key": "t_address",
        "label": "mapping(address => bool)",
        "numberOfBytes": "32",
        "value": "t_bool"
      },
      "t_mapping(t_address,t_mapping(t_address,t_uint256))": {
        "encoding": "mapping",
        "key": "t_address",
        "label": "mapping(address => mapping(address => uint256))",
        "numberOfBytes": "32",
        "value": "t_mapping(t_address,t_uint256)"
      },
      "t_mapping(t_address,t_uint256)": {
        "encoding": "mapping",
        "key": "t_address",
        "label": "mapping(address => uint256)",
        "numberOfBytes": "32",
        "value": "t_uint256"
      },
      "t_mapping(t_contract(IERC20Upgradeable)1356,t_mapping(t_address,t_uint256))": {
        "encoding": "mapping",
        "key": "t_contract(IERC20Upgradeable)1356",
        "label": "mapping(contract IERC20Upgradeable => mapping(address => uint256))",
        "numberOfBytes": "32",
        "value": "t_mapping(t_address,t_uint256)"
      },
      "t_mapping(t_contract(IERC20Upgradeable)1356,t_uint256)": {
        "encoding": "mapping",
        "key": "t_contract(IERC20Upgradeable)1356",
        "label": "mapping(contract IERC20Upgradeable => uint256)",
        "numberOfBytes": "32",
        "value": "t_uint256"
      },
      "t_string_storage": {
        "encoding": "bytes",
        "label": "string",
        "numberOfBytes": "32"
      },
      "t_uint256": {
        "encoding": "inplace",
        "label": "uint256",
        "numberOfBytes": "32"
      }
    }
  }
}