{
  "address": "0x6EFd441B9A94bEeAa6F912e34f010bcA952D331F",
  "abi": [
    {
      "anonymous": false,
      "inputs": [
        {
          "indexed": false,
          "internalType": "address",
          "name": "sender",
          "type": "address"
        },
        {
          "indexed": false,
          "internalType": "uint256",
          "name": "tokens",
          "type": "uint256"
        }
      ],
      "name": "AddLiquidity",
      "type": "event"
    },
    {
      "anonymous": false,
      "inputs": [
        {
          "indexed": true,
          "internalType": "address",
          "name": "owner",
          "type": "address"
        },
        {
          "indexed": true,
          "internalType": "address",
          "name": "spender",
          "type": "address"
        },
        {
          "indexed": false,
          "internalType": "uint256",
          "name": "value",
          "type": "uint256"
        }
      ],
      "name": "Approval",
      "type": "event"
    },
    {
      "anonymous": false,
      "inputs": [
        {
          "indexed": false,
          "internalType": "address",
          "name": "sender",
          "type": "address"
        }
      ],
      "name": "ContsMinted",
      "type": "event"
    },
    {
      "anonymous": false,
      "inputs": [
        {
          "indexed": true,
          "internalType": "contract IERC20Upgradeable",
          "name": "token",
          "type": "address"
        },
        {
          "indexed": false,
          "internalType": "address",
          "name": "to",
          "type": "address"
        },
        {
          "indexed": false,
          "internalType": "uint256",
          "name": "amount",
          "type": "uint256"
        }
      ],
      "name": "ERC20PaymentReleased",
      "type": "event"
    },
    {
      "anonymous": false,
      "inputs": [
        {
          "indexed": true,
          "internalType": "address",
          "name": "previousOwner",
          "type": "address"
        },
        {
          "indexed": true,
          "internalType": "address",
          "name": "newOwner",
          "type": "address"
        }
      ],
      "name": "OwnershipTransferred",
      "type": "event"
    },
    {
      "anonymous": false,
      "inputs": [
        {
          "indexed": false,
          "internalType": "address",
          "name": "account",
          "type": "address"
        },
        {
          "indexed": false,
          "internalType": "uint256",
          "name": "shares",
          "type": "uint256"
        }
      ],
      "name": "PayeeAdded",
      "type": "event"
    },
    {
      "anonymous": false,
      "inputs": [
        {
          "indexed": false,
          "internalType": "address",
          "name": "from",
          "type": "address"
        },
        {
          "indexed": false,
          "internalType": "uint256",
          "name": "amount",
          "type": "uint256"
        }
      ],
      "name": "PaymentReceived",
      "type": "event"
    },
    {
      "anonymous": false,
      "inputs": [
        {
          "indexed": false,
          "internalType": "address",
          "name": "to",
          "type": "address"
        },
        {
          "indexed": false,
          "internalType": "uint256",
          "name": "amount",
          "type": "uint256"
        }
      ],
      "name": "PaymentReleased",
      "type": "event"
    },
    {
      "anonymous": false,
      "inputs": [
        {
          "indexed": false,
          "internalType": "address",
          "name": "sender",
          "type": "address"
        }
      ],
      "name": "RewardCashoutAll",
      "type": "event"
    },
    {
      "anonymous": false,
      "inputs": [
        {
          "indexed": false,
          "internalType": "address",
          "name": "sender",
          "type": "address"
        },
        {
          "indexed": false,
          "internalType": "uint256",
          "name": "index",
          "type": "uint256"
        }
      ],
      "name": "RewardCashoutOne",
      "type": "event"
    },
    {
      "anonymous": false,
      "inputs": [
        {
          "indexed": true,
          "internalType": "address",
          "name": "from",
          "type": "address"
        },
        {
          "indexed": true,
          "internalType": "address",
          "name": "to",
          "type": "address"
        },
        {
          "indexed": false,
          "internalType": "uint256",
          "name": "value",
          "type": "uint256"
        }
      ],
      "name": "Transfer",
      "type": "event"
    },
    {
      "inputs": [],
      "name": "_crm",
      "outputs": [
        {
          "internalType": "contract CONTRewardManagement",
          "name": "",
          "type": "address"
        }
      ],
      "stateMutability": "view",
      "type": "function"
    },
    {
      "inputs": [
        {
          "internalType": "address",
          "name": "",
          "type": "address"
        }
      ],
      "name": "_isBlacklisted",
      "outputs": [
        {
          "internalType": "bool",
          "name": "",
          "type": "bool"
        }
      ],
      "stateMutability": "view",
      "type": "function"
    },
    {
      "inputs": [],
      "name": "_liqRouter",
      "outputs": [
        {
          "internalType": "contract LiquidityRouter",
          "name": "",
          "type": "address"
        }
      ],
      "stateMutability": "view",
      "type": "function"
    },
    {
      "inputs": [
        {
          "internalType": "address",
          "name": "owner",
          "type": "address"
        },
        {
          "internalType": "address",
          "name": "spender",
          "type": "address"
        }
      ],
      "name": "allowance",
      "outputs": [
        {
          "internalType": "uint256",
          "name": "",
          "type": "uint256"
        }
      ],
      "stateMutability": "view",
      "type": "function"
    },
    {
      "inputs": [
        {
          "internalType": "address",
          "name": "spender",
          "type": "address"
        },
        {
          "internalType": "uint256",
          "name": "amount",
          "type": "uint256"
        }
      ],
      "name": "approve",
      "outputs": [
        {
          "internalType": "bool",
          "name": "",
          "type": "bool"
        }
      ],
      "stateMutability": "nonpayable",
      "type": "function"
    },
    {
      "inputs": [
        {
          "internalType": "address",
          "name": "account",
          "type": "address"
        }
      ],
      "name": "balanceOf",
      "outputs": [
        {
          "internalType": "uint256",
          "name": "",
          "type": "uint256"
        }
      ],
      "stateMutability": "view",
      "type": "function"
    },
    {
      "inputs": [],
      "name": "cashoutAll",
      "outputs": [],
      "stateMutability": "nonpayable",
      "type": "function"
    },
    {
      "inputs": [],
      "name": "cashoutFee",
      "outputs": [
        {
          "internalType": "uint256",
          "name": "",
          "type": "uint256"
        }
      ],
      "stateMutability": "view",
      "type": "function"
    },
    {
      "inputs": [
        {
          "internalType": "uint256",
          "name": "_contIndex",
          "type": "uint256"
        }
      ],
      "name": "cashoutReward",
      "outputs": [],
      "stateMutability": "nonpayable",
      "type": "function"
    },
    {
      "inputs": [
        {
          "internalType": "uint256",
          "name": "newTime",
          "type": "uint256"
        }
      ],
      "name": "changeCashoutTimeout",
      "outputs": [],
      "stateMutability": "nonpayable",
      "type": "function"
    },
    {
      "inputs": [
        {
          "internalType": "enum ContType",
          "name": "_cType",
          "type": "uint8"
        },
        {
          "internalType": "uint256",
          "name": "newPrice",
          "type": "uint256"
        }
      ],
      "name": "changeContPrice",
      "outputs": [],
      "stateMutability": "nonpayable",
      "type": "function"
    },
    {
      "inputs": [
        {
          "internalType": "bool",
          "name": "newVal",
          "type": "bool"
        }
      ],
      "name": "changeEnableAutoSwapDevFund",
      "outputs": [],
      "stateMutability": "nonpayable",
      "type": "function"
    },
    {
      "inputs": [
        {
          "internalType": "bool",
          "name": "newVal",
          "type": "bool"
        }
      ],
      "name": "changeEnableAutoSwapTreasury",
      "outputs": [],
      "stateMutability": "nonpayable",
      "type": "function"
    },
    {
      "inputs": [
        {
          "internalType": "enum ContType",
          "name": "_cType",
          "type": "uint8"
        },
        {
          "internalType": "int256",
          "name": "deductPcent",
          "type": "int256"
        }
      ],
      "name": "changeRewardAPRPerCont",
      "outputs": [],
      "stateMutability": "nonpayable",
      "type": "function"
    },
    {
      "inputs": [],
      "name": "decimals",
      "outputs": [
        {
          "internalType": "uint8",
          "name": "",
          "type": "uint8"
        }
      ],
      "stateMutability": "view",
      "type": "function"
    },
    {
      "inputs": [
        {
          "internalType": "address",
          "name": "spender",
          "type": "address"
        },
        {
          "internalType": "uint256",
          "name": "subtractedValue",
          "type": "uint256"
        }
      ],
      "name": "decreaseAllowance",
      "outputs": [
        {
          "internalType": "bool",
          "name": "",
          "type": "bool"
        }
      ],
      "stateMutability": "nonpayable",
      "type": "function"
    },
    {
      "inputs": [],
      "name": "developmentFee",
      "outputs": [
        {
          "internalType": "uint256",
          "name": "",
          "type": "uint256"
        }
      ],
      "stateMutability": "view",
      "type": "function"
    },
    {
      "inputs": [],
      "name": "developmentFundPool",
      "outputs": [
        {
          "internalType": "address",
          "name": "",
          "type": "address"
        }
      ],
      "stateMutability": "view",
      "type": "function"
    },
    {
      "inputs": [],
      "name": "enableAutoSwapDevFund",
      "outputs": [
        {
          "internalType": "bool",
          "name": "",
          "type": "bool"
        }
      ],
      "stateMutability": "view",
      "type": "function"
    },
    {
      "inputs": [],
      "name": "enableAutoSwapTreasury",
      "outputs": [
        {
          "internalType": "bool",
          "name": "",
          "type": "bool"
        }
      ],
      "stateMutability": "view",
      "type": "function"
    },
    {
      "inputs": [],
      "name": "enableCashout",
      "outputs": [
        {
          "internalType": "bool",
          "name": "",
          "type": "bool"
        }
      ],
      "stateMutability": "view",
      "type": "function"
    },
    {
      "inputs": [],
      "name": "enableMintConts",
      "outputs": [
        {
          "internalType": "bool",
          "name": "",
          "type": "bool"
        }
      ],
      "stateMutability": "view",
      "type": "function"
    },
    {
      "inputs": [],
      "name": "getCashoutTimeout",
      "outputs": [
        {
          "internalType": "uint256",
          "name": "",
          "type": "uint256"
        }
      ],
      "stateMutability": "view",
      "type": "function"
    },
    {
      "inputs": [
        {
          "internalType": "enum ContType",
          "name": "_cType",
          "type": "uint8"
        }
      ],
      "name": "getContPrice",
      "outputs": [
        {
          "internalType": "uint256",
          "name": "",
          "type": "uint256"
        }
      ],
      "stateMutability": "view",
      "type": "function"
    },
    {
      "inputs": [],
      "name": "getContsCreationTime",
      "outputs": [
        {
          "internalType": "string",
          "name": "",
          "type": "string"
        }
      ],
      "stateMutability": "view",
      "type": "function"
    },
    {
      "inputs": [],
      "name": "getContsCurrentAPR",
      "outputs": [
        {
          "internalType": "string",
          "name": "",
          "type": "string"
        }
      ],
      "stateMutability": "view",
      "type": "function"
    },
    {
      "inputs": [],
      "name": "getContsInitialAPR",
      "outputs": [
        {
          "internalType": "string",
          "name": "",
          "type": "string"
        }
      ],
      "stateMutability": "view",
      "type": "function"
    },
    {
      "inputs": [],
      "name": "getContsLastCashoutTime",
      "outputs": [
        {
          "internalType": "string",
          "name": "",
          "type": "string"
        }
      ],
      "stateMutability": "view",
      "type": "function"
    },
    {
      "inputs": [],
      "name": "getContsNames",
      "outputs": [
        {
          "internalType": "string",
          "name": "",
          "type": "string"
        }
      ],
      "stateMutability": "view",
      "type": "function"
    },
    {
      "inputs": [],
      "name": "getContsRewards",
      "outputs": [
        {
          "internalType": "string",
          "name": "",
          "type": "string"
        }
      ],
      "stateMutability": "view",
      "type": "function"
    },
    {
      "inputs": [],
      "name": "getContsTypes",
      "outputs": [
        {
          "internalType": "string",
          "name": "",
          "type": "string"
        }
      ],
      "stateMutability": "view",
      "type": "function"
    },
    {
      "inputs": [
        {
          "internalType": "bool",
          "name": "is0xBOut",
          "type": "bool"
        },
        {
          "internalType": "address",
          "name": "targetToken",
          "type": "address"
        },
        {
          "internalType": "uint256",
          "name": "outputAmount",
          "type": "uint256"
        }
      ],
      "name": "getInputAmount",
      "outputs": [
        {
          "internalType": "uint256[]",
          "name": "",
          "type": "uint256[]"
        }
      ],
      "stateMutability": "view",
      "type": "function"
    },
    {
      "inputs": [
        {
          "internalType": "bool",
          "name": "is0xBOut",
          "type": "bool"
        },
        {
          "internalType": "address",
          "name": "targetToken",
          "type": "address"
        },
        {
          "internalType": "uint256",
          "name": "inputAmount",
          "type": "uint256"
        }
      ],
      "name": "getOutputAmount",
      "outputs": [
        {
          "internalType": "uint256[]",
          "name": "",
          "type": "uint256[]"
        }
      ],
      "stateMutability": "view",
      "type": "function"
    },
    {
      "inputs": [
        {
          "internalType": "enum ContType",
          "name": "_cType",
          "type": "uint8"
        }
      ],
      "name": "getRewardAPRPerCont",
      "outputs": [
        {
          "internalType": "uint256",
          "name": "",
          "type": "uint256"
        }
      ],
      "stateMutability": "view",
      "type": "function"
    },
    {
      "inputs": [],
      "name": "getRewardAmount",
      "outputs": [
        {
          "internalType": "uint256",
          "name": "",
          "type": "uint256"
        }
      ],
      "stateMutability": "view",
      "type": "function"
    },
    {
      "inputs": [],
      "name": "getTotalConts",
      "outputs": [
        {
          "internalType": "uint256",
          "name": "",
          "type": "uint256"
        }
      ],
      "stateMutability": "view",
      "type": "function"
    },
    {
      "inputs": [
        {
          "internalType": "enum ContType",
          "name": "__cType",
          "type": "uint8"
        }
      ],
      "name": "getTotalContsPerContType",
      "outputs": [
        {
          "internalType": "uint256",
          "name": "",
          "type": "uint256"
        }
      ],
      "stateMutability": "view",
      "type": "function"
    },
    {
      "inputs": [
        {
          "internalType": "address",
          "name": "spender",
          "type": "address"
        },
        {
          "internalType": "uint256",
          "name": "addedValue",
          "type": "uint256"
        }
      ],
      "name": "increaseAllowance",
      "outputs": [
        {
          "internalType": "bool",
          "name": "",
          "type": "bool"
        }
      ],
      "stateMutability": "nonpayable",
      "type": "function"
    },
    {
      "inputs": [
        {
          "internalType": "address[]",
          "name": "payees",
          "type": "address[]"
        },
        {
          "internalType": "uint256[]",
          "name": "shares",
          "type": "uint256[]"
        },
        {
          "internalType": "address[]",
          "name": "addresses",
          "type": "address[]"
        },
        {
          "internalType": "uint256[]",
          "name": "balances",
          "type": "uint256[]"
        },
        {
          "internalType": "uint256[]",
          "name": "fees",
          "type": "uint256[]"
        },
        {
          "internalType": "address",
          "name": "usdcAddr",
          "type": "address"
        }
      ],
      "name": "initialize",
      "outputs": [],
      "stateMutability": "nonpayable",
      "type": "function"
    },
    {
      "inputs": [],
      "name": "liquidityPool",
      "outputs": [
        {
          "internalType": "address",
          "name": "",
          "type": "address"
        }
      ],
      "stateMutability": "view",
      "type": "function"
    },
    {
      "inputs": [],
      "name": "liquidityPoolFee",
      "outputs": [
        {
          "internalType": "uint256",
          "name": "",
          "type": "uint256"
        }
      ],
      "stateMutability": "view",
      "type": "function"
    },
    {
      "inputs": [
        {
          "internalType": "string[]",
          "name": "names",
          "type": "string[]"
        },
        {
          "internalType": "enum ContType",
          "name": "_cType",
          "type": "uint8"
        }
      ],
      "name": "mintConts",
      "outputs": [],
      "stateMutability": "nonpayable",
      "type": "function"
    },
    {
      "inputs": [],
      "name": "name",
      "outputs": [
        {
          "internalType": "string",
          "name": "",
          "type": "string"
        }
      ],
      "stateMutability": "view",
      "type": "function"
    },
    {
      "inputs": [],
      "name": "ownedContsLimit",
      "outputs": [
        {
          "internalType": "uint256",
          "name": "",
          "type": "uint256"
        }
      ],
      "stateMutability": "view",
      "type": "function"
    },
    {
      "inputs": [],
      "name": "owner",
      "outputs": [
        {
          "internalType": "address",
          "name": "",
          "type": "address"
        }
      ],
      "stateMutability": "view",
      "type": "function"
    },
    {
      "inputs": [
        {
          "internalType": "uint256",
          "name": "index",
          "type": "uint256"
        }
      ],
      "name": "payee",
      "outputs": [
        {
          "internalType": "address",
          "name": "",
          "type": "address"
        }
      ],
      "stateMutability": "view",
      "type": "function"
    },
    {
      "inputs": [
        {
          "internalType": "address payable",
          "name": "account",
          "type": "address"
        }
      ],
      "name": "release",
      "outputs": [],
      "stateMutability": "nonpayable",
      "type": "function"
    },
    {
      "inputs": [
        {
          "internalType": "contract IERC20Upgradeable",
          "name": "token",
          "type": "address"
        },
        {
          "internalType": "address",
          "name": "account",
          "type": "address"
        }
      ],
      "name": "release",
      "outputs": [],
      "stateMutability": "nonpayable",
      "type": "function"
    },
    {
      "inputs": [
        {
          "internalType": "contract IERC20Upgradeable",
          "name": "token",
          "type": "address"
        },
        {
          "internalType": "address",
          "name": "account",
          "type": "address"
        }
      ],
      "name": "released",
      "outputs": [
        {
          "internalType": "uint256",
          "name": "",
          "type": "uint256"
        }
      ],
      "stateMutability": "view",
      "type": "function"
    },
    {
      "inputs": [
        {
          "internalType": "address",
          "name": "account",
          "type": "address"
        }
      ],
      "name": "released",
      "outputs": [
        {
          "internalType": "uint256",
          "name": "",
          "type": "uint256"
        }
      ],
      "stateMutability": "view",
      "type": "function"
    },
    {
      "inputs": [],
      "name": "renounceOwnership",
      "outputs": [],
      "stateMutability": "nonpayable",
      "type": "function"
    },
    {
      "inputs": [
        {
          "internalType": "address",
          "name": "userAddr",
          "type": "address"
        },
        {
          "internalType": "uint256",
          "name": "tokens",
          "type": "uint256"
        }
      ],
      "name": "rescueMissentToken",
      "outputs": [],
      "stateMutability": "nonpayable",
      "type": "function"
    },
    {
      "inputs": [],
      "name": "rewardsFee",
      "outputs": [
        {
          "internalType": "uint256",
          "name": "",
          "type": "uint256"
        }
      ],
      "stateMutability": "view",
      "type": "function"
    },
    {
      "inputs": [],
      "name": "rewardsPool",
      "outputs": [
        {
          "internalType": "address",
          "name": "",
          "type": "address"
        }
      ],
      "stateMutability": "view",
      "type": "function"
    },
    {
      "inputs": [
        {
          "internalType": "address",
          "name": "account",
          "type": "address"
        },
        {
          "internalType": "bool",
          "name": "value",
          "type": "bool"
        }
      ],
      "name": "setBlacklistStatus",
      "outputs": [],
      "stateMutability": "nonpayable",
      "type": "function"
    },
    {
      "inputs": [
        {
          "internalType": "address",
          "name": "crm",
          "type": "address"
        }
      ],
      "name": "setContManagement",
      "outputs": [],
      "stateMutability": "nonpayable",
      "type": "function"
    },
    {
      "inputs": [
        {
          "internalType": "bool",
          "name": "_enableCashout",
          "type": "bool"
        }
      ],
      "name": "setEnableCashout",
      "outputs": [],
      "stateMutability": "nonpayable",
      "type": "function"
    },
    {
      "inputs": [
        {
          "internalType": "bool",
          "name": "value",
          "type": "bool"
        }
      ],
      "name": "setEnableMintConts",
      "outputs": [],
      "stateMutability": "nonpayable",
      "type": "function"
    },
    {
      "inputs": [
        {
          "internalType": "address",
          "name": "liqRouter",
          "type": "address"
        }
      ],
      "name": "setLiquidityRouter",
      "outputs": [],
      "stateMutability": "nonpayable",
      "type": "function"
    },
    {
      "inputs": [
        {
          "internalType": "address",
          "name": "newAddress",
          "type": "address"
        }
      ],
      "name": "setUSDCAddress",
      "outputs": [],
      "stateMutability": "nonpayable",
      "type": "function"
    },
    {
      "inputs": [
        {
          "internalType": "address",
          "name": "account",
          "type": "address"
        }
      ],
      "name": "shares",
      "outputs": [
        {
          "internalType": "uint256",
          "name": "",
          "type": "uint256"
        }
      ],
      "stateMutability": "view",
      "type": "function"
    },
    {
      "inputs": [
        {
          "internalType": "address",
          "name": "tokenAddr",
          "type": "address"
        },
        {
          "internalType": "uint256",
          "name": "amountOut",
          "type": "uint256"
        },
        {
          "internalType": "uint256",
          "name": "slippageTolerance",
          "type": "uint256"
        },
        {
          "internalType": "uint256",
          "name": "deadline",
          "type": "uint256"
        }
      ],
      "name": "swap0xBForExactToken",
      "outputs": [],
      "stateMutability": "nonpayable",
      "type": "function"
    },
    {
      "inputs": [
        {
          "internalType": "address",
          "name": "tokenAddr",
          "type": "address"
        },
        {
          "internalType": "uint256",
          "name": "amountIn",
          "type": "uint256"
        },
        {
          "internalType": "uint256",
          "name": "slippageTolerance",
          "type": "uint256"
        },
        {
          "internalType": "uint256",
          "name": "deadline",
          "type": "uint256"
        }
      ],
      "name": "swapExact0xBForToken",
      "outputs": [],
      "stateMutability": "nonpayable",
      "type": "function"
    },
    {
      "inputs": [
        {
          "internalType": "address",
          "name": "tokenAddr",
          "type": "address"
        },
        {
          "internalType": "uint256",
          "name": "amountIn",
          "type": "uint256"
        },
        {
          "internalType": "uint256",
          "name": "slippageTolerance",
          "type": "uint256"
        },
        {
          "internalType": "uint256",
          "name": "deadline",
          "type": "uint256"
        }
      ],
      "name": "swapExactTokenFor0xB",
      "outputs": [],
      "stateMutability": "nonpayable",
      "type": "function"
    },
    {
      "inputs": [
        {
          "internalType": "address",
          "name": "tokenAddr",
          "type": "address"
        },
        {
          "internalType": "uint256",
          "name": "amountOut",
          "type": "uint256"
        },
        {
          "internalType": "uint256",
          "name": "slippageTolerance",
          "type": "uint256"
        },
        {
          "internalType": "uint256",
          "name": "deadline",
          "type": "uint256"
        }
      ],
      "name": "swapTokenForExact0xB",
      "outputs": [],
      "stateMutability": "nonpayable",
      "type": "function"
    },
    {
      "inputs": [],
      "name": "symbol",
      "outputs": [
        {
          "internalType": "string",
          "name": "",
          "type": "string"
        }
      ],
      "stateMutability": "view",
      "type": "function"
    },
    {
      "inputs": [],
      "name": "totalFees",
      "outputs": [
        {
          "internalType": "uint256",
          "name": "",
          "type": "uint256"
        }
      ],
      "stateMutability": "view",
      "type": "function"
    },
    {
      "inputs": [
        {
          "internalType": "contract IERC20Upgradeable",
          "name": "token",
          "type": "address"
        }
      ],
      "name": "totalReleased",
      "outputs": [
        {
          "internalType": "uint256",
          "name": "",
          "type": "uint256"
        }
      ],
      "stateMutability": "view",
      "type": "function"
    },
    {
      "inputs": [],
      "name": "totalReleased",
      "outputs": [
        {
          "internalType": "uint256",
          "name": "",
          "type": "uint256"
        }
      ],
      "stateMutability": "view",
      "type": "function"
    },
    {
      "inputs": [],
      "name": "totalShares",
      "outputs": [
        {
          "internalType": "uint256",
          "name": "",
          "type": "uint256"
        }
      ],
      "stateMutability": "view",
      "type": "function"
    },
    {
      "inputs": [],
      "name": "totalSupply",
      "outputs": [
        {
          "internalType": "uint256",
          "name": "",
          "type": "uint256"
        }
      ],
      "stateMutability": "view",
      "type": "function"
    },
    {
      "inputs": [],
      "name": "totalTokensPaidForMinting",
      "outputs": [
        {
          "internalType": "uint256",
          "name": "",
          "type": "uint256"
        }
      ],
      "stateMutability": "view",
      "type": "function"
    },
    {
      "inputs": [
        {
          "internalType": "address",
          "name": "to",
          "type": "address"
        },
        {
          "internalType": "uint256",
          "name": "amount",
          "type": "uint256"
        }
      ],
      "name": "transfer",
      "outputs": [
        {
          "internalType": "bool",
          "name": "",
          "type": "bool"
        }
      ],
      "stateMutability": "nonpayable",
      "type": "function"
    },
    {
      "inputs": [
        {
          "internalType": "address",
          "name": "from",
          "type": "address"
        },
        {
          "internalType": "address",
          "name": "to",
          "type": "address"
        },
        {
          "internalType": "uint256",
          "name": "amount",
          "type": "uint256"
        }
      ],
      "name": "transferFrom",
      "outputs": [
        {
          "internalType": "bool",
          "name": "",
          "type": "bool"
        }
      ],
      "stateMutability": "nonpayable",
      "type": "function"
    },
    {
      "inputs": [
        {
          "internalType": "address",
          "name": "newOwner",
          "type": "address"
        }
      ],
      "name": "transferOwnership",
      "outputs": [],
      "stateMutability": "nonpayable",
      "type": "function"
    },
    {
      "inputs": [],
      "name": "treasuryFee",
      "outputs": [
        {
          "internalType": "uint256",
          "name": "",
          "type": "uint256"
        }
      ],
      "stateMutability": "view",
      "type": "function"
    },
    {
      "inputs": [],
      "name": "treasuryPool",
      "outputs": [
        {
          "internalType": "address",
          "name": "",
          "type": "address"
        }
      ],
      "stateMutability": "view",
      "type": "function"
    },
    {
      "inputs": [
        {
          "internalType": "uint256",
          "name": "value",
          "type": "uint256"
        }
      ],
      "name": "updateCashoutFee",
      "outputs": [],
      "stateMutability": "nonpayable",
      "type": "function"
    },
    {
      "inputs": [
        {
          "internalType": "uint256",
          "name": "value",
          "type": "uint256"
        }
      ],
      "name": "updateDevelopmentFee",
      "outputs": [],
      "stateMutability": "nonpayable",
      "type": "function"
    },
    {
      "inputs": [
        {
          "internalType": "address payable",
          "name": "wall",
          "type": "address"
        }
      ],
      "name": "updateDevelopmentFundWallet",
      "outputs": [],
      "stateMutability": "nonpayable",
      "type": "function"
    },
    {
      "inputs": [
        {
          "internalType": "uint256",
          "name": "value",
          "type": "uint256"
        }
      ],
      "name": "updateLiquidityFee",
      "outputs": [],
      "stateMutability": "nonpayable",
      "type": "function"
    },
    {
      "inputs": [
        {
          "internalType": "address payable",
          "name": "wall",
          "type": "address"
        }
      ],
      "name": "updateLiquidityWallet",
      "outputs": [],
      "stateMutability": "nonpayable",
      "type": "function"
    },
    {
      "inputs": [
        {
          "internalType": "uint256",
          "name": "value",
          "type": "uint256"
        }
      ],
      "name": "updateRewardsFee",
      "outputs": [],
      "stateMutability": "nonpayable",
      "type": "function"
    },
    {
      "inputs": [
        {
          "internalType": "address payable",
          "name": "wall",
          "type": "address"
        }
      ],
      "name": "updateRewardsWallet",
      "outputs": [],
      "stateMutability": "nonpayable",
      "type": "function"
    },
    {
      "inputs": [
        {
          "internalType": "uint256",
          "name": "value",
          "type": "uint256"
        }
      ],
      "name": "updateTreasuryFee",
      "outputs": [],
      "stateMutability": "nonpayable",
      "type": "function"
    },
    {
      "inputs": [
        {
          "internalType": "address payable",
          "name": "wall",
          "type": "address"
        }
      ],
      "name": "updateTreasuryWallet",
      "outputs": [],
      "stateMutability": "nonpayable",
      "type": "function"
    },
    {
      "inputs": [
        {
          "internalType": "address",
          "name": "_newAddr",
          "type": "address"
        }
      ],
      "name": "updateUniswapV2Router",
      "outputs": [],
      "stateMutability": "nonpayable",
      "type": "function"
    },
    {
      "inputs": [],
      "name": "usdcToken",
      "outputs": [
        {
          "internalType": "address",
          "name": "",
          "type": "address"
        }
      ],
      "stateMutability": "view",
      "type": "function"
    },
    {
      "stateMutability": "payable",
      "type": "receive"
    }
  ],
  "transactionHash": "0xf5e2328b3c4b651e13f513bf75d71d8eb1e724b8afeb801cb3fc5b941f9a0bcd",
  "args": [],
  "numDeployments": 15,
  "solcInputHash": "4e2440b933e25225e4a17dff72ed1f47",
  "bytecode": "0x608060405234801561001057600080fd5b50615e9680620000216000396000f3fe6080604052600436106104cf5760003560e01c80638161ab7611610276578063b3328aae1161014f578063d79779b2116100c1578063e37ba8f911610085578063e37ba8f914610ede578063eb71c5d914610efe578063f2e0302314610f1d578063f2fde38b14610f3d578063f5c1365314610f5d578063f78d5c5514610f7d57600080fd5b8063d79779b214610e44578063dd62ed3e14610e7a578063e0583ec014610e9a578063e22ee81314610eb4578063e33b7de314610ec957600080fd5b8063cc32d17611610113578063cc32d17614610d78578063cd6e18f114610d8e578063ce7c2ac214610dae578063cfc0d02414610de4578063d3a2c9cf14610e04578063d631f70514610e2457600080fd5b8063b3328aae14610cdb578063b9bd393314610cfb578063bcb8ebfc14610d15578063bd74767814610d2b578063c3491b4914610d5857600080fd5b806397232830116101e85780639dc73a49116101ac5780639dc73a4914610c30578063a457c2d714610c50578063a5f3d00314610c70578063a6559ce414610c86578063a9059cbb14610c9b578063aaf5bfc314610cbb57600080fd5b80639723283014610b855780639852595c14610ba55780639a6e80db14610bdb5780639b03f44914610bfb5780639c64291c14610c1057600080fd5b80638d2891441161023a5780638d28914414610add5780638da5cb5b14610afd5780638e67566314610b1b5780638ea928f114610b3b5780639149acbc14610b5057806395d89b4114610b7057600080fd5b80638161ab7614610a5357806382a8ebad14610a68578063839df91914610a8857806384884e4414610aa85780638b83209b14610abd57600080fd5b806339306140116103a857806365bfe4301161031a57806370a08231116102de57806370a08231146109a9578063715018a6146109c957806378045b4d146109de5780637a0aacf3146109f3578063809d458d14610a13578063810be66d14610a3357600080fd5b806365bfe4301461091e578063665a11ca1461093e5780636815a91c1461095e5780636b38c5861461097e5780636d9ae0be1461099357600080fd5b806348df58291161036c57806348df582914610873578063545579731461089357806354f12f1f146108a8578063559bf302146108be57806357dae063146108de57806365b8dbc0146108fe57600080fd5b806339306140146107e857806339509351146107fe5780633a98ef391461081e578063406072a91461083357806348b750441461085357600080fd5b806311eac855116104415780631e7a934e116104055780631e7a934e14610736578063239c038a1461075657806323b872dd146107765780632bb14e1d146107965780633086319d146107ac578063313ce567146107cc57600080fd5b806311eac8551461069557806313114a9d146106bb57806318160ddd146106d157806319165587146106e65780631cdd3be31461070657600080fd5b8063084a6bff11610493578063084a6bff146105ce578063095ea7b3146105ee57806309a69f571461061e5780630c162440146106415780630f1978fb1461066157806310153e7b1461068057600080fd5b80630129981c146105145780630359fea91461053657806303d29d281461056c57806306fdde031461058c5780630841e977146105ae57600080fd5b3661050f577f6ef95f06320e7a25a04a175ca677b7052bdd97131872c2192525a629f51be7703334604051610505929190615965565b60405180910390a1005b600080fd5b34801561052057600080fd5b5061053461052f3660046154f4565b610f9d565b005b34801561054257600080fd5b5060d054610556906001600160a01b031681565b6040516105639190615951565b60405180910390f35b34801561057857600080fd5b5061053461058736600461549a565b6110cd565b34801561059857600080fd5b506105a1611122565b6040516105639190615ad1565b3480156105ba57600080fd5b506105346105c93660046154f4565b6111b4565b3480156105da57600080fd5b506105346105e93660046158b5565b6114ad565b3480156105fa57600080fd5b5061060e6106093660046154c8565b61152f565b6040519015158152602001610563565b34801561062a57600080fd5b50610633611549565b604051908152602001610563565b34801561064d57600080fd5b5061053461065c366004615822565b6115eb565b34801561066d57600080fd5b5060d85461060e90610100900460ff1681565b34801561068c57600080fd5b506105a16116e1565b3480156106a157600080fd5b5060d854610556906201000090046001600160a01b031681565b3480156106c757600080fd5b5061063360d65481565b3480156106dd57600080fd5b50603554610633565b3480156106f257600080fd5b506105346107013660046153e6565b611783565b34801561071257600080fd5b5061060e6107213660046153e6565b60d96020526000908152604090205460ff1681565b34801561074257600080fd5b50610633610751366004615807565b6118a8565b34801561076257600080fd5b50610633610771366004615807565b611929565b34801561078257600080fd5b5061060e610791366004615459565b61195a565b3480156107a257600080fd5b5061063360d25481565b3480156107b857600080fd5b506105346107c7366004615610565b611980565b3480156107d857600080fd5b5060405160128152602001610563565b3480156107f457600080fd5b5061063360cd5481565b34801561080a57600080fd5b5061060e6108193660046154c8565b611ffd565b34801561082a57600080fd5b50609754610633565b34801561083f57600080fd5b5061063361084e366004615420565b61203c565b34801561085f57600080fd5b5061053461086e366004615420565b612067565b34801561087f57600080fd5b5060cf54610556906001600160a01b031681565b34801561089f57600080fd5b5061053461222b565b3480156108b457600080fd5b5061063360d45481565b3480156108ca57600080fd5b506105346108d93660046153e6565b612584565b3480156108ea57600080fd5b506105346108f936600461552f565b6125f6565b34801561090a57600080fd5b506105346109193660046153e6565b612c93565b34801561092a57600080fd5b506105346109393660046158b5565b612d22565b34801561094a57600080fd5b5060d154610556906001600160a01b031681565b34801561096a57600080fd5b506105346109793660046158b5565b613097565b34801561098a57600080fd5b506105a1613117565b34801561099f57600080fd5b5061063360d75481565b3480156109b557600080fd5b506106336109c43660046153e6565b61314d565b3480156109d557600080fd5b50610534613168565b3480156109ea57600080fd5b5061063361319e565b3480156109ff57600080fd5b50610633610a0e366004615807565b6131e3565b348015610a1f57600080fd5b50610534610a2e3660046153e6565b613212565b348015610a3f57600080fd5b5060ce54610556906001600160a01b031681565b348015610a5f57600080fd5b506105a1613284565b348015610a7457600080fd5b5060ca54610556906001600160a01b031681565b348015610a9457600080fd5b50610534610aa33660046157ad565b6132ba565b348015610ab457600080fd5b506105a16132fe565b348015610ac957600080fd5b50610556610ad83660046158b5565b613334565b348015610ae957600080fd5b50610534610af83660046153e6565b613364565b348015610b0957600080fd5b506065546001600160a01b0316610556565b348015610b2757600080fd5b50610534610b363660046158b5565b6133fb565b348015610b4757600080fd5b506105a161347d565b348015610b5c57600080fd5b50610534610b6b3660046157ad565b6134b3565b348015610b7c57600080fd5b506105a16134f7565b348015610b9157600080fd5b50610534610ba03660046158b5565b613506565b348015610bb157600080fd5b50610633610bc03660046153e6565b6001600160a01b03166000908152609a602052604090205490565b348015610be757600080fd5b5060c954610556906001600160a01b031681565b348015610c0757600080fd5b506105a1613588565b348015610c1c57600080fd5b50610534610c2b3660046154f4565b6135be565b348015610c3c57600080fd5b50610534610c4b3660046157ad565b613869565b348015610c5c57600080fd5b5061060e610c6b3660046154c8565b6138a6565b348015610c7c57600080fd5b5061063360d55481565b348015610c9257600080fd5b50610633613943565b348015610ca757600080fd5b5061060e610cb63660046154c8565b613988565b348015610cc757600080fd5b50610534610cd63660046153e6565b613996565b348015610ce757600080fd5b50610534610cf63660046157ad565b6139ea565b348015610d0757600080fd5b5060da5461060e9060ff1681565b348015610d2157600080fd5b5061063360cb5481565b348015610d3757600080fd5b50610d4b610d463660046157e7565b613a27565b6040516105639190615a43565b348015610d6457600080fd5b50610534610d733660046158b5565b613ab8565b348015610d8457600080fd5b5061063360d35481565b348015610d9a57600080fd5b50610534610da93660046153e6565b613b13565b348015610dba57600080fd5b50610633610dc93660046153e6565b6001600160a01b031660009081526099602052604090205490565b348015610df057600080fd5b50610534610dff3660046153e6565b613bae565b348015610e1057600080fd5b50610534610e1f366004615822565b613c20565b348015610e3057600080fd5b50610534610e3f3660046154c8565b613c7c565b348015610e5057600080fd5b50610633610e5f3660046153e6565b6001600160a01b03166000908152609c602052604090205490565b348015610e8657600080fd5b50610633610e95366004615420565b613d74565b348015610ea657600080fd5b5060d85461060e9060ff1681565b348015610ec057600080fd5b506105a1613d9f565b348015610ed557600080fd5b50609854610633565b348015610eea57600080fd5b50610534610ef93660046153e6565b613dd5565b348015610f0a57600080fd5b5060da5461060e90610100900460ff1681565b348015610f2957600080fd5b50610534610f383660046154f4565b613e47565b348015610f4957600080fd5b50610534610f583660046153e6565b613f79565b348015610f6957600080fd5b50610d4b610f783660046157e7565b614014565b348015610f8957600080fd5b50610534610f983660046158b5565b614049565b60ca546040516317ae8ecf60e31b815233916000916001600160a01b039091169063bd74767890610fd69084908a908a90600401615a87565b60006040518083038186803b158015610fee57600080fd5b505afa158015611002573d6000803e3d6000fd5b505050506040513d6000823e601f3d908101601f1916820160405261102a9190810190615715565b905060006305f5e10061103d8682615d32565b8360008151811061105057611050615e3a565b60200260200101516110629190615d6c565b61106c9190615d4a565b9050806110788461314d565b101561109f5760405162461bcd60e51b815260040161109690615ba2565b60405180910390fd5b60ca546110b79084906001600160a01b0316836140cb565b6110c48388888488614169565b50505050505050565b6065546001600160a01b031633146110f75760405162461bcd60e51b815260040161109690615bd9565b6001600160a01b0391909116600090815260d960205260409020805460ff1916911515919091179055565b60606036805461113190615dce565b80601f016020809104026020016040519081016040528092919081815260200182805461115d90615dce565b80156111aa5780601f1061117f576101008083540402835291602001916111aa565b820191906000526020600020905b81548152906001019060200180831161118d57829003601f168201915b5050505050905090565b60ca5460405163f5c1365360e01b815233916000916001600160a01b039091169063f5c13653906111ee906001908a908a90600401615a87565b60006040518083038186803b15801561120657600080fd5b505afa15801561121a573d6000803e3d6000fd5b505050506040513d6000823e601f3d908101601f191682016040526112429190810190615715565b9050600081600183516112559190615d8b565b8151811061126557611265615e3a565b602002602001015190506305f5e100856305f5e1006112849190615d8b565b61128e9083615d6c565b6112989190615d4a565b6040516370a0823160e01b8152909150879087906001600160a01b038316906370a08231906112cb908890600401615951565b60206040518083038186803b1580156112e357600080fd5b505afa1580156112f7573d6000803e3d6000fd5b505050506040513d601f19601f8201168201806040525081019061131b91906158ce565b10156113395760405162461bcd60e51b815260040161109690615ba2565b604051636eb1769f60e11b815287906001600160a01b0383169063dd62ed3e90611369908890309060040161597e565b60206040518083038186803b15801561138157600080fd5b505afa158015611395573d6000803e3d6000fd5b505050506040513d601f19601f820116820180604052508101906113b991906158ce565b10156114075760405162461bcd60e51b815260206004820152601b60248201527f535741503a206e65656420746f20617070726f766520666972737400000000006044820152606401611096565b60ca546040516323b872dd60e01b81526001600160a01b038681166004830152918216602482015260448101899052908216906323b872dd90606401602060405180830381600087803b15801561145d57600080fd5b505af1158015611471573d6000803e3d6000fd5b505050506040513d601f19601f8201168201806040525081019061149591906157ca565b506114a3848989858961435e565b5050505050505050565b6065546001600160a01b031633146114d75760405162461bcd60e51b815260040161109690615bd9565b60008160d35460d55460d4546114ed9190615d32565b6114f79190615d32565b6115019190615d32565b905060648111156115245760405162461bcd60e51b815260040161109690615c33565b60d29190915560d655565b60003361153d818585614396565b60019150505b92915050565b6000336115685760405162461bcd60e51b815260040161109690615c0e565b60c9546001600160a01b031663619a635e336040518263ffffffff1660e01b81526004016115969190615951565b60206040518083038186803b1580156115ae57600080fd5b505afa1580156115c2573d6000803e3d6000fd5b505050506040513d601f19601f820116820180604052508101906115e691906158ce565b905090565b6065546001600160a01b031633146116155760405162461bcd60e51b815260040161109690615bd9565b6305f5e10081126116795760405162461bcd60e51b815260206004820152602860248201527f5245445543455f5257443a20646f206e6f7420726564756365206d6f7265207460448201526768616e203130302560c01b6064820152608401611096565b60c9546040516309d2040f60e41b81526001600160a01b0390911690639d2040f0906116ab9085908590600401615ab6565b600060405180830381600087803b1580156116c557600080fd5b505af11580156116d9573d6000803e3d6000fd5b505050505050565b6060336117005760405162461bcd60e51b815260040161109690615c0e565b60c9546001600160a01b0316635dbab6ed335b6040518263ffffffff1660e01b815260040161172f9190615951565b60006040518083038186803b15801561174757600080fd5b505afa15801561175b573d6000803e3d6000fd5b505050506040513d6000823e601f3d908101601f191682016040526115e6919081019061583e565b6001600160a01b0381166000908152609960205260409020546117b85760405162461bcd60e51b815260040161109690615b11565b60006117c360985490565b6117cd9047615d32565b905060006117fa83836117f5866001600160a01b03166000908152609a602052604090205490565b6144ba565b9050806118195760405162461bcd60e51b815260040161109690615b57565b6001600160a01b0383166000908152609a602052604081208054839290611841908490615d32565b92505081905550806098600082825461185a9190615d32565b9091555061186a905083826144f8565b7fdf20fd1e76bc69d672e4814fafb2c449bba3a5369d8359adf9e05e6fde87b056838260405161189b929190615965565b60405180910390a1505050565b60c954604051630c75361360e31b81526000916001600160a01b0316906363a9b098906118d9908590600401615aa8565b60206040518083038186803b1580156118f157600080fd5b505afa158015611905573d6000803e3d6000fd5b505050506040513d601f19601f8201168201806040525081019061154391906158ce565b60c95460405163ce6912a360e01b81526000916001600160a01b03169063ce6912a3906118d9908590600401615aa8565b600033611968858285614611565b6119738585856140cb565b60019150505b9392505050565b60da54610100900460ff166119d75760405162461bcd60e51b815260206004820152601d60248201527f434f4e544d494e543a206d696e7420636f6e74732064697361626c65640000006044820152606401611096565b60cc5482511115611a255760405162461bcd60e51b8152602060048201526018602482015277434f4e544d494e543a20746f6f206d616e7920636f6e747360401b6044820152606401611096565b60005b8251811015611ade576003838281518110611a4557611a45615e3a565b602002602001015151118015611a7557506021838281518110611a6a57611a6a615e3a565b602002602001015151105b611acc5760405162461bcd60e51b815260206004820152602260248201527f434f4e544d494e543a20696d70726f7065722063686172616374657220636f756044820152611b9d60f21b6064820152608401611096565b80611ad681615e09565b915050611a28565b503380611b265760405162461bcd60e51b8152602060048201526016602482015275434f4e544d494e543a207a65726f206164647265737360501b6044820152606401611096565b6001600160a01b038116600090815260d9602052604090205460ff1615611b8f5760405162461bcd60e51b815260206004820152601d60248201527f434f4e544d494e543a20626c61636b6c697374656420616464726573730000006044820152606401611096565b60ce546001600160a01b03828116911614801590611bbb575060d0546001600160a01b03828116911614155b8015611bd5575060cf546001600160a01b03828116911614155b611c2c5760405162461bcd60e51b815260206004820152602260248201527f434f4e544d494e543a20706f6f6c732063616e6e6f742063726561746520636f6044820152611b9d60f21b6064820152608401611096565b6000611c378261468b565b905060cb54845182611c499190615d32565b1115611c975760405162461bcd60e51b815260206004820152601c60248201527f434f4e544d494e543a2072656163686564206d696e74206c696d6974000000006044820152606401611096565b835160c954604051630c75361360e31b8152600092916001600160a01b0316906363a9b09890611ccb908890600401615aa8565b60206040518083038186803b158015611ce357600080fd5b505afa158015611cf7573d6000803e3d6000fd5b505050506040513d601f19601f82011682018060405250810190611d1b91906158ce565b611d259190615d6c565b90508060cd6000828254611d399190615d32565b90915550819050611d498461314d565b1015611da75760405162461bcd60e51b815260206004820152602760248201527f434f4e544d494e543a2042616c616e636520746f6f206c6f7720666f7220637260448201526632b0ba34b7b71760c91b6064820152608401611096565b6000606460d55483611db99190615d6c565b611dc39190615d4a565b60d854909150610100900460ff1615611e195760ca54611dee9085906001600160a01b0316836146bc565b60ce5460d854611e14916001600160a01b0390811691620100009004168360004261488a565b611e31565b60ce54611e319085906001600160a01b0316836146bc565b6000606460d25484611e439190615d6c565b611e4d9190615d4a565b60d054909150611e689086906001600160a01b0316836146bc565b6000606460d35485611e7a9190615d6c565b611e849190615d4a565b60d85490915060ff1615611ed55760ca54611eaa9087906001600160a01b0316836146bc565b60cf5460d854611ed0916001600160a01b0390811691620100009004168360004261488a565b611eed565b60cf54611eed9087906001600160a01b0316836146bc565b6000606460d45486611eff9190615d6c565b611f099190615d4a565b9050611f158782614a06565b6000818385611f24888a615d8b565b611f2e9190615d8b565b611f389190615d8b565b611f429190615d8b565b90508015611f5557611f558830836146bc565b60c95460405162a6998d60e31b81526001600160a01b0390911690630534cc6890611f88908b908e908e906004016159c9565b600060405180830381600087803b158015611fa257600080fd5b505af1158015611fb6573d6000803e3d6000fd5b505050507f120c2f36321d80f09f9d26f68f1f49b72c1964e118aa788bb9611f47e10c7eac88604051611fe99190615951565b60405180910390a150505050505050505050565b3360008181526034602090815260408083206001600160a01b038716845290915281205490919061153d9082908690612037908790615d32565b614396565b6001600160a01b039182166000908152609d6020908152604080832093909416825291909152205490565b6001600160a01b03811660009081526099602052604090205461209c5760405162461bcd60e51b815260040161109690615b11565b6001600160a01b0382166000908152609c60205260408120546040516370a0823160e01b81526001600160a01b038516906370a08231906120e1903090600401615951565b60206040518083038186803b1580156120f957600080fd5b505afa15801561210d573d6000803e3d6000fd5b505050506040513d601f19601f8201168201806040525081019061213191906158ce565b61213b9190615d32565b9050600061214e83836117f5878761203c565b90508061216d5760405162461bcd60e51b815260040161109690615b57565b6001600160a01b038085166000908152609d60209081526040808320938716835292905290812080548392906121a4908490615d32565b90915550506001600160a01b0384166000908152609c6020526040812080548392906121d1908490615d32565b909155506121e29050848483614a1e565b836001600160a01b03167f3be5b7a71e84ed12875d241991c70855ac5817d847039e17a9d895c1ceb0f18a848360405161221d929190615965565b60405180910390a250505050565b60da54339060ff1615156001146122845760405162461bcd60e51b815260206004820152601960248201527f43534854414c4c3a20636173686f75742064697361626c6564000000000000006044820152606401611096565b6001600160a01b0381166122d25760405162461bcd60e51b815260206004820152601560248201527443534854414c4c3a207a65726f206164647265737360581b6044820152606401611096565b6001600160a01b038116600090815260d9602052604090205460ff161561233b5760405162461bcd60e51b815260206004820152601c60248201527f43534854414c4c3a20626c61636b6c69737465642061646472657373000000006044820152606401611096565b60ce546001600160a01b03828116911614801590612367575060d0546001600160a01b03828116911614155b6123b35760405162461bcd60e51b815260206004820152601d60248201527f43534854414c4c3a20706f6f6c732063616e6e6f7420636173686f75740000006044820152606401611096565b60c9546040516330cd31af60e11b81526000916001600160a01b03169063619a635e906123e4908590600401615951565b60206040518083038186803b1580156123fc57600080fd5b505afa158015612410573d6000803e3d6000fd5b505050506040513d601f19601f8201168201806040525081019061243491906158ce565b9050600081116124865760405162461bcd60e51b815260206004820152601960248201527f43534854414c4c3a20726577617264206e6f74207265616479000000000000006044820152606401611096565b60d754600090156124ae57606460d754836124a19190615d6c565b6124ab9190615d4a565b90505b6124b88183615d8b565b60d0549092506124d2906001600160a01b031684846146bc565b60c95460405163d094fa8d60e01b81526001600160a01b039091169063d094fa8d90612502908690600401615951565b602060405180830381600087803b15801561251c57600080fd5b505af1158015612530573d6000803e3d6000fd5b505050506040513d601f19601f8201168201806040525081019061255491906158ce565b507f564112c0ad2fbcae1bed83c58ed5d830128565d634cdc875bb02b065ad2423438360405161189b9190615951565b6065546001600160a01b031633146125ae5760405162461bcd60e51b815260040161109690615bd9565b6001600160a01b0381166125d45760405162461bcd60e51b815260040161109690615ae4565b60ce80546001600160a01b0319166001600160a01b0392909216919091179055565b600054610100900460ff166126115760005460ff1615612615565b303b155b6126785760405162461bcd60e51b815260206004820152602e60248201527f496e697469616c697a61626c653a20636f6e747261637420697320616c72656160448201526d191e481a5b9a5d1a585b1a5e995960921b6064820152608401611096565b600054610100900460ff1615801561269a576000805461ffff19166101011790555b600085511180156126ac575060008451115b6126ef5760405162461bcd60e51b815260206004820152601460248201527320a222291013102120a620a721a29022a92927a960611b6044820152606401611096565b6126f7614a74565b61273b604051806040016040528060078152602001663078426c6f636b60c81b81525060405180604001604052806003815260200162183c2160e91b815250614aa3565b6127458787614ad4565b60006001600160a01b03168560018151811061276357612763615e3a565b60200260200101516001600160a01b0316141580156127af575060006001600160a01b03168560028151811061279b5761279b615e3a565b60200260200101516001600160a01b031614155b80156127e8575060006001600160a01b0316856003815181106127d4576127d4615e3a565b60200260200101516001600160a01b031614155b8015612821575060006001600160a01b03168560048151811061280d5761280d615e3a565b60200260200101516001600160a01b031614155b61285f5760405162461bcd60e51b815260206004820152600f60248201526e1413d3d30816915493c81193d55391608a1b6044820152606401611096565b8460018151811061287257612872615e3a565b602002602001015160ce60006101000a8154816001600160a01b0302191690836001600160a01b03160217905550846002815181106128b3576128b3615e3a565b602002602001015160d160006101000a8154816001600160a01b0302191690836001600160a01b03160217905550846003815181106128f4576128f4615e3a565b602002602001015160cf60006101000a8154816001600160a01b0302191690836001600160a01b031602179055508460048151811061293557612935615e3a565b602002602001015160d060006101000a8154816001600160a01b0302191690836001600160a01b0316021790555060008360008151811061297857612978615e3a565b60200260200101511180156129a7575060008360018151811061299d5761299d615e3a565b6020026020010151115b80156129cd57506000836002815181106129c3576129c3615e3a565b6020026020010151115b80156129f357506000836003815181106129e9576129e9615e3a565b6020026020010151115b8015612a195750600083600481518110612a0f57612a0f615e3a565b6020026020010151115b612a555760405162461bcd60e51b815260206004820152600d60248201526c0c094811915154c81193d55391609a1b6044820152606401611096565b82600081518110612a6857612a68615e3a565b602002602001015160d58190555082600181518110612a8957612a89615e3a565b602002602001015160d38190555082600281518110612aaa57612aaa615e3a565b602002602001015160d28190555082600381518110612acb57612acb615e3a565b602002602001015160d48190555082600481518110612aec57612aec615e3a565b602002602001015160d78190555060d35460d55460d45460d254612b109190615d32565b612b1a9190615d32565b612b249190615d32565b60d6558351855114612b6f5760405162461bcd60e51b815260206004820152601460248201527320a222291013102120a620a721a29022a92927a960611b6044820152606401611096565b60005b8551811015612bdc57612bca868281518110612b9057612b90615e3a565b6020026020010151868381518110612baa57612baa615e3a565b6020026020010151670de0b6b3a7640000612bc59190615d6c565b614b05565b80612bd481615e09565b915050612b72565b5060355469d3c21bcecceda100000014612c305760405162461bcd60e51b81526020600482015260156024820152741515130814d5541413164811125191880c48135253605a1b6044820152606401611096565b60d88054606460cb55600a60cc5561ffff196001600160a01b038516620100000281166001600160b01b0319909216919091176101001790915560da8054610101921691909117905580156110c4576000805461ff001916905550505050505050565b6065546001600160a01b03163314612cbd5760405162461bcd60e51b815260040161109690615bd9565b60ca54604051630196e36f60e61b81526001600160a01b03909116906365b8dbc090612ced908490600401615951565b600060405180830381600087803b158015612d0757600080fd5b505af1158015612d1b573d6000803e3d6000fd5b5050505050565b60da54339060ff161515600114612d745760405162461bcd60e51b815260206004820152601660248201527510d4d2150e8810d85cda1bdd5d08111a5cd8589b195960521b6044820152606401611096565b6001600160a01b038116612dbf5760405162461bcd60e51b8152602060048201526012602482015271435348543a207a65726f206164647265737360701b6044820152606401611096565b6001600160a01b038116600090815260d9602052604090205460ff1615612e1c5760405162461bcd60e51b815260206004820152601160248201527010d4d2150e88189b1858dadb1a5cdd1959607a1b6044820152606401611096565b60ce546001600160a01b03828116911614801590612e48575060d0546001600160a01b03828116911614155b8015612e62575060cf546001600160a01b03828116911614155b612eb95760405162461bcd60e51b815260206004820152602260248201527f435348543a20706f6f6c732063616e6e6f7420636173686f7574207265776172604482015261647360f01b6064820152608401611096565b60c9546040516329b8573160e21b81526000916001600160a01b03169063a6e15cc490612eec9085908790600401615965565b60206040518083038186803b158015612f0457600080fd5b505afa158015612f18573d6000803e3d6000fd5b505050506040513d601f19601f82011682018060405250810190612f3c91906158ce565b905060008111612f875760405162461bcd60e51b8152602060048201526016602482015275435348543a20726577617264206e6f7420726561647960501b6044820152606401611096565b60d75460009015612faf57606460d75483612fa29190615d6c565b612fac9190615d4a565b90505b612fb98183615d8b565b60d054909250612fd3906001600160a01b031684846146bc565b60c95460405163611015b360e11b81526001600160a01b039091169063c2202b66906130059086908890600401615965565b602060405180830381600087803b15801561301f57600080fd5b505af1158015613033573d6000803e3d6000fd5b505050506040513d601f19601f8201168201806040525081019061305791906158ce565b507f39f6d68d140e552a327d43ef814649947d78e76743e169e4f00d61b14f2f846d8385604051613089929190615965565b60405180910390a150505050565b6065546001600160a01b031633146130c15760405162461bcd60e51b815260040161109690615bd9565b60648111156131125760405162461bcd60e51b815260206004820152601c60248201527f464545533a20636173686f757420657863656564696e672031303025000000006044820152606401611096565b60d755565b6060336131365760405162461bcd60e51b815260040161109690615c0e565b60c9546001600160a01b03166377ec782633611713565b6001600160a01b031660009081526033602052604090205490565b6065546001600160a01b031633146131925760405162461bcd60e51b815260040161109690615bd9565b61319c6000614be4565b565b60c9546040805163055a757d60e41b815290516000926001600160a01b0316916355a757d0916004808301926020929190829003018186803b1580156115ae57600080fd5b60c95460405162c73e4d60e01b81526000916001600160a01b03169062c73e4d906118d9908590600401615aa8565b6065546001600160a01b0316331461323c5760405162461bcd60e51b815260040161109690615bd9565b6001600160a01b0381166132625760405162461bcd60e51b815260040161109690615ae4565b60cf80546001600160a01b0319166001600160a01b0392909216919091179055565b6060336132a35760405162461bcd60e51b815260040161109690615c0e565b60c9546001600160a01b0316638bf1451433611713565b6065546001600160a01b031633146132e45760405162461bcd60e51b815260040161109690615bd9565b60d880549115156101000261ff0019909216919091179055565b60603361331d5760405162461bcd60e51b815260040161109690615c0e565b60c9546001600160a01b031663f743f31933611713565b6000609b828154811061334957613349615e3a565b6000918252602090912001546001600160a01b031692915050565b6065546001600160a01b0316331461338e5760405162461bcd60e51b815260040161109690615bd9565b6001600160a01b0381166133d95760405162461bcd60e51b81526020600482015260126024820152712722abafa1a9269d103d32b9379030b2323960711b6044820152606401611096565b60c980546001600160a01b0319166001600160a01b0392909216919091179055565b6065546001600160a01b031633146134255760405162461bcd60e51b815260040161109690615bd9565b60008160d35460d55460d25461343b9190615d32565b6134459190615d32565b61344f9190615d32565b905060648111156134725760405162461bcd60e51b815260040161109690615c33565b60d49190915560d655565b60603361349c5760405162461bcd60e51b815260040161109690615c0e565b60c9546001600160a01b03166351bf120c33611713565b6065546001600160a01b031633146134dd5760405162461bcd60e51b815260040161109690615bd9565b60da80549115156101000261ff0019909216919091179055565b60606037805461113190615dce565b6065546001600160a01b031633146135305760405162461bcd60e51b815260040161109690615bd9565b60008160d55460d45460d2546135469190615d32565b6135509190615d32565b61355a9190615d32565b9050606481111561357d5760405162461bcd60e51b815260040161109690615c33565b60d39190915560d655565b6060336135a75760405162461bcd60e51b815260040161109690615c0e565b60c9546001600160a01b031663367fd07433611713565b60ca546040516317ae8ecf60e31b815233916000916001600160a01b039091169063bd747678906135f8906001908a908a90600401615a87565b60006040518083038186803b15801561361057600080fd5b505afa158015613624573d6000803e3d6000fd5b505050506040513d6000823e601f3d908101601f1916820160405261364c9190810190615715565b905060006305f5e10061365f8682615d32565b8360008151811061367257613672615e3a565b60200260200101516136849190615d6c565b61368e9190615d4a565b6040516370a0823160e01b8152909150879082906001600160a01b038316906370a08231906136c1908890600401615951565b60206040518083038186803b1580156136d957600080fd5b505afa1580156136ed573d6000803e3d6000fd5b505050506040513d601f19601f8201168201806040525081019061371191906158ce565b101561372f5760405162461bcd60e51b815260040161109690615ba2565b604051636eb1769f60e11b815282906001600160a01b0383169063dd62ed3e9061375f908890309060040161597e565b60206040518083038186803b15801561377757600080fd5b505afa15801561378b573d6000803e3d6000fd5b505050506040513d601f19601f820116820180604052508101906137af91906158ce565b10156137cd5760405162461bcd60e51b815260040161109690615ba2565b60ca546040516323b872dd60e01b81526001600160a01b038681166004830152918216602482015260448101849052908216906323b872dd90606401602060405180830381600087803b15801561382357600080fd5b505af1158015613837573d6000803e3d6000fd5b505050506040513d601f19601f8201168201806040525081019061385b91906157ca565b506114a38489898589614c36565b6065546001600160a01b031633146138935760405162461bcd60e51b815260040161109690615bd9565b60d8805460ff1916911515919091179055565b3360008181526034602090815260408083206001600160a01b03871684529091528120549091908381101561392b5760405162461bcd60e51b815260206004820152602560248201527f45524332303a2064656372656173656420616c6c6f77616e63652062656c6f77604482015264207a65726f60d81b6064820152608401611096565b6139388286868403614396565b506001949350505050565b60c9546040805163e18f03ad60e01b815290516000926001600160a01b03169163e18f03ad916004808301926020929190829003018186803b1580156115ae57600080fd5b60003361153d8185856140cb565b6065546001600160a01b031633146139c05760405162461bcd60e51b815260040161109690615bd9565b60d880546001600160a01b03909216620100000262010000600160b01b0319909216919091179055565b6065546001600160a01b03163314613a145760405162461bcd60e51b815260040161109690615bd9565b60da805460ff1916911515919091179055565b60ca546040516317ae8ecf60e31b81526060916001600160a01b03169063bd74767890613a5c90879087908790600401615a87565b60006040518083038186803b158015613a7457600080fd5b505afa158015613a88573d6000803e3d6000fd5b505050506040513d6000823e601f3d908101601f19168201604052613ab09190810190615715565b949350505050565b6065546001600160a01b03163314613ae25760405162461bcd60e51b815260040161109690615bd9565b60c954604051631c864c8f60e11b8152600481018390526001600160a01b039091169063390c991e90602401612ced565b6065546001600160a01b03163314613b3d5760405162461bcd60e51b815260040161109690615bd9565b6001600160a01b038116613b8c5760405162461bcd60e51b81526020600482015260166024820152752722abafa62927aaaa22a91d103d32b9379030b2323960511b6044820152606401611096565b60ca80546001600160a01b0319166001600160a01b0392909216919091179055565b6065546001600160a01b03163314613bd85760405162461bcd60e51b815260040161109690615bd9565b6001600160a01b038116613bfe5760405162461bcd60e51b815260040161109690615ae4565b60d080546001600160a01b0319166001600160a01b0392909216919091179055565b6065546001600160a01b03163314613c4a5760405162461bcd60e51b815260040161109690615bd9565b60c954604051631d5a173160e01b81526001600160a01b0390911690631d5a1731906116ab9085908590600401615ab6565b6065546001600160a01b03163314613ca65760405162461bcd60e51b815260040161109690615bd9565b613caf3061314d565b811115613d0f5760405162461bcd60e51b815260206004820152602860248201527f534156455f4d495353454e543a20746f6b656e732065786365656420616464726044820152672062616c616e636560c01b6064820152608401611096565b6001600160a01b038216613d655760405162461bcd60e51b815260206004820152601a60248201527f534156455f4d495353454e543a207a65726f5f616464726573730000000000006044820152606401611096565b613d703083836140cb565b5050565b6001600160a01b03918216600090815260346020908152604080832093909416825291909152205490565b606033613dbe5760405162461bcd60e51b815260040161109690615c0e565b60c9546001600160a01b03166328cceb2433611713565b6065546001600160a01b03163314613dff5760405162461bcd60e51b815260040161109690615bd9565b6001600160a01b038116613e255760405162461bcd60e51b815260040161109690615ae4565b60d180546001600160a01b0319166001600160a01b0392909216919091179055565b60ca5460405163f5c1365360e01b815233916000916001600160a01b039091169063f5c1365390613e809084908a908a90600401615a87565b60006040518083038186803b158015613e9857600080fd5b505afa158015613eac573d6000803e3d6000fd5b505050506040513d6000823e601f3d908101601f19168201604052613ed49190810190615715565b905060008160018351613ee79190615d8b565b81518110613ef757613ef7615e3a565b602002602001015190506305f5e100856305f5e100613f169190615d8b565b613f209083615d6c565b613f2a9190615d4a565b905085613f368461314d565b1015613f545760405162461bcd60e51b815260040161109690615ba2565b60ca54613f6c9084906001600160a01b0316886140cb565b6110c4838888848861488a565b6065546001600160a01b03163314613fa35760405162461bcd60e51b815260040161109690615bd9565b6001600160a01b0381166140085760405162461bcd60e51b815260206004820152602660248201527f4f776e61626c653a206e6577206f776e657220697320746865207a65726f206160448201526564647265737360d01b6064820152608401611096565b61401181614be4565b50565b60ca5460405163f5c1365360e01b81526060916001600160a01b03169063f5c1365390613a5c90879087908790600401615a87565b6065546001600160a01b031633146140735760405162461bcd60e51b815260040161109690615bd9565b60008160d35460d45460d2546140899190615d32565b6140939190615d32565b61409d9190615d32565b905060648111156140c05760405162461bcd60e51b815260040161109690615c33565b60d59190915560d655565b6001600160a01b038316600090815260d9602052604090205460ff1615801561410d57506001600160a01b038216600090815260d9602052604090205460ff16155b6141595760405162461bcd60e51b815260206004820152601a60248201527f45524332303a20426c61636b6c697374656420616464726573730000000000006044820152606401611096565b6141648383836146bc565b505050565b60ca5460408051631934662b60e11b815290518492309263dd62ed3e926001600160a01b03909216918291633268cc56916004808301926020929190829003018186803b1580156141b957600080fd5b505afa1580156141cd573d6000803e3d6000fd5b505050506040513d601f19601f820116820180604052508101906141f19190615403565b6040518363ffffffff1660e01b815260040161420e92919061597e565b60206040518083038186803b15801561422657600080fd5b505afa15801561423a573d6000803e3d6000fd5b505050506040513d601f19601f8201168201806040525081019061425e91906158ce565b10156142ed5760ca5460408051631934662b60e11b815290516142ed926001600160a01b0316918291633268cc5691600480820192602092909190829003018186803b1580156142ad57600080fd5b505afa1580156142c1573d6000803e3d6000fd5b505050506040513d601f19601f820116820180604052508101906142e59190615403565b600019614396565b60ca546040516380be66cf60e01b81526001600160a01b03909116906380be66cf906143259088908890889088908890600401615998565b600060405180830381600087803b15801561433f57600080fd5b505af1158015614353573d6000803e3d6000fd5b505050505050505050565b60ca54604051630372a54560e51b81526001600160a01b0390911690636e54a8a0906143259088908890889088908890600401615998565b6001600160a01b0383166143f85760405162461bcd60e51b8152602060048201526024808201527f45524332303a20617070726f76652066726f6d20746865207a65726f206164646044820152637265737360e01b6064820152608401611096565b6001600160a01b0382166144595760405162461bcd60e51b815260206004820152602260248201527f45524332303a20617070726f766520746f20746865207a65726f206164647265604482015261737360f01b6064820152608401611096565b6001600160a01b0383811660008181526034602090815260408083209487168084529482529182902085905590518481527f8c5be1e5ebec7d5bd14f71427d1e84f3dd0314c0f7b2291e5b200ac8c7c3b925910160405180910390a3505050565b6097546001600160a01b038416600090815260996020526040812054909183916144e49086615d6c565b6144ee9190615d4a565b613ab09190615d8b565b804710156145485760405162461bcd60e51b815260206004820152601d60248201527f416464726573733a20696e73756666696369656e742062616c616e63650000006044820152606401611096565b6000826001600160a01b03168260405160006040518083038185875af1925050503d8060008114614595576040519150601f19603f3d011682016040523d82523d6000602084013e61459a565b606091505b50509050806141645760405162461bcd60e51b815260206004820152603a60248201527f416464726573733a20756e61626c6520746f2073656e642076616c75652c207260448201527f6563697069656e74206d617920686176652072657665727465640000000000006064820152608401611096565b600061461d8484613d74565b9050600019811461468557818110156146785760405162461bcd60e51b815260206004820152601d60248201527f45524332303a20696e73756666696369656e7420616c6c6f77616e63650000006044820152606401611096565b6146858484848403614396565b50505050565b60c9546040516344fea1b960e01b81526000916001600160a01b0316906344fea1b9906118d9908590600401615951565b6001600160a01b0383166147205760405162461bcd60e51b815260206004820152602560248201527f45524332303a207472616e736665722066726f6d20746865207a65726f206164604482015264647265737360d81b6064820152608401611096565b6001600160a01b0382166147825760405162461bcd60e51b815260206004820152602360248201527f45524332303a207472616e7366657220746f20746865207a65726f206164647260448201526265737360e81b6064820152608401611096565b6001600160a01b038316600090815260336020526040902054818110156147fa5760405162461bcd60e51b815260206004820152602660248201527f45524332303a207472616e7366657220616d6f756e7420657863656564732062604482015265616c616e636560d01b6064820152608401611096565b6001600160a01b03808516600090815260336020526040808220858503905591851681529081208054849290614831908490615d32565b92505081905550826001600160a01b0316846001600160a01b03167fddf252ad1be2c89b69c2b068fc378daa952ba7f163c4a11628f55a4df523b3ef8460405161487d91815260200190565b60405180910390a3614685565b60ca5460408051631934662b60e11b815290518592309263dd62ed3e926001600160a01b03909216918291633268cc56916004808301926020929190829003018186803b1580156148da57600080fd5b505afa1580156148ee573d6000803e3d6000fd5b505050506040513d601f19601f820116820180604052508101906149129190615403565b6040518363ffffffff1660e01b815260040161492f92919061597e565b60206040518083038186803b15801561494757600080fd5b505afa15801561495b573d6000803e3d6000fd5b505050506040513d601f19601f8201168201806040525081019061497f91906158ce565b10156149ce5760ca5460408051631934662b60e11b815290516149ce926001600160a01b0316918291633268cc5691600480820192602092909190829003018186803b1580156142ad57600080fd5b60ca546040516388e5249f60e01b81526001600160a01b03909116906388e5249f906143259088908890889088908890600401615998565b60d154613d709083906001600160a01b0316836146bc565b6141648363a9059cbb60e01b8484604051602401614a3d929190615965565b60408051601f198184030181529190526020810180516001600160e01b03166001600160e01b031990931692909217909152614c6e565b600054610100900460ff16614a9b5760405162461bcd60e51b815260040161109690615c6a565b61319c614d40565b600054610100900460ff16614aca5760405162461bcd60e51b815260040161109690615c6a565b613d708282614d70565b600054610100900460ff16614afb5760405162461bcd60e51b815260040161109690615c6a565b613d708282614dbe565b6001600160a01b038216614b5b5760405162461bcd60e51b815260206004820152601f60248201527f45524332303a206d696e7420746f20746865207a65726f2061646472657373006044820152606401611096565b8060356000828254614b6d9190615d32565b90915550506001600160a01b03821660009081526033602052604081208054839290614b9a908490615d32565b90915550506040518181526001600160a01b038316906000907fddf252ad1be2c89b69c2b068fc378daa952ba7f163c4a11628f55a4df523b3ef9060200160405180910390a35050565b606580546001600160a01b038381166001600160a01b0319831681179093556040519116919082907f8be0079c531659141344cd1fd0a4f28419497f9722a3daafe3b4186f6b6457e090600090a35050565b60ca54604051633a677ec560e11b81526001600160a01b03909116906374cefd8a906143259088908890889088908890600401615998565b6000614cc3826040518060400160405280602081526020017f5361666545524332303a206c6f772d6c6576656c2063616c6c206661696c6564815250856001600160a01b0316614efc9092919063ffffffff16565b8051909150156141645780806020019051810190614ce191906157ca565b6141645760405162461bcd60e51b815260206004820152602a60248201527f5361666545524332303a204552433230206f7065726174696f6e20646964206e6044820152691bdd081cdd58d8d9595960b21b6064820152608401611096565b600054610100900460ff16614d675760405162461bcd60e51b815260040161109690615c6a565b61319c33614be4565b600054610100900460ff16614d975760405162461bcd60e51b815260040161109690615c6a565b8151614daa906036906020850190615253565b508051614164906037906020840190615253565b600054610100900460ff16614de55760405162461bcd60e51b815260040161109690615c6a565b8051825114614e515760405162461bcd60e51b815260206004820152603260248201527f5061796d656e7453706c69747465723a2070617965657320616e6420736861726044820152710cae640d8cadccee8d040dad2e6dac2e8c6d60731b6064820152608401611096565b6000825111614ea25760405162461bcd60e51b815260206004820152601a60248201527f5061796d656e7453706c69747465723a206e6f207061796565730000000000006044820152606401611096565b60005b825181101561416457614eea838281518110614ec357614ec3615e3a565b6020026020010151838381518110614edd57614edd615e3a565b6020026020010151614f0b565b80614ef481615e09565b915050614ea5565b6060613ab084846000856150e9565b6001600160a01b038216614f765760405162461bcd60e51b815260206004820152602c60248201527f5061796d656e7453706c69747465723a206163636f756e74206973207468652060448201526b7a65726f206164647265737360a01b6064820152608401611096565b60008111614fc65760405162461bcd60e51b815260206004820152601d60248201527f5061796d656e7453706c69747465723a207368617265732061726520300000006044820152606401611096565b6001600160a01b038216600090815260996020526040902054156150405760405162461bcd60e51b815260206004820152602b60248201527f5061796d656e7453706c69747465723a206163636f756e7420616c726561647960448201526a206861732073686172657360a81b6064820152608401611096565b609b8054600181019091557fbba9db4cdbea0a37c207bbb83e20f828cd4441c49891101dc94fd20dc8efc3490180546001600160a01b0319166001600160a01b03841690811790915560009081526099602052604090208190556097546150a8908290615d32565b6097556040517f40c340f65e17194d14ddddb073d3c9f888e3cb52b5aae0c6c7706b4fbc905fac906150dd9084908490615965565b60405180910390a15050565b60608247101561514a5760405162461bcd60e51b815260206004820152602660248201527f416464726573733a20696e73756666696369656e742062616c616e636520666f6044820152651c8818d85b1b60d21b6064820152608401611096565b6001600160a01b0385163b6151a15760405162461bcd60e51b815260206004820152601d60248201527f416464726573733a2063616c6c20746f206e6f6e2d636f6e74726163740000006044820152606401611096565b600080866001600160a01b031685876040516151bd9190615935565b60006040518083038185875af1925050503d80600081146151fa576040519150601f19603f3d011682016040523d82523d6000602084013e6151ff565b606091505b509150915061520f82828661521a565b979650505050505050565b60608315615229575081611979565b8251156152395782518084602001fd5b8160405162461bcd60e51b81526004016110969190615ad1565b82805461525f90615dce565b90600052602060002090601f01602090048101928261528157600085556152c7565b82601f1061529a57805160ff19168380011785556152c7565b828001600101855582156152c7579182015b828111156152c75782518255916020019190600101906152ac565b506152d39291506152d7565b5090565b5b808211156152d357600081556001016152d8565b80356152f781615e66565b919050565b600082601f83011261530d57600080fd5b8135602061532261531d83615ce6565b615cb5565b80838252828201915082860187848660051b890101111561534257600080fd5b60005b8581101561536a57813561535881615e66565b84529284019290840190600101615345565b5090979650505050505050565b600082601f83011261538857600080fd5b8135602061539861531d83615ce6565b80838252828201915082860187848660051b89010111156153b857600080fd5b60005b8581101561536a578135845292840192908401906001016153bb565b8035600381106152f757600080fd5b6000602082840312156153f857600080fd5b813561197981615e66565b60006020828403121561541557600080fd5b815161197981615e66565b6000806040838503121561543357600080fd5b823561543e81615e66565b9150602083013561544e81615e66565b809150509250929050565b60008060006060848603121561546e57600080fd5b833561547981615e66565b9250602084013561548981615e66565b929592945050506040919091013590565b600080604083850312156154ad57600080fd5b82356154b881615e66565b9150602083013561544e81615e7b565b600080604083850312156154db57600080fd5b82356154e681615e66565b946020939093013593505050565b6000806000806080858703121561550a57600080fd5b843561551581615e66565b966020860135965060408601359560600135945092505050565b60008060008060008060c0878903121561554857600080fd5b863567ffffffffffffffff8082111561556057600080fd5b61556c8a838b016152fc565b9750602089013591508082111561558257600080fd5b61558e8a838b01615377565b965060408901359150808211156155a457600080fd5b6155b08a838b016152fc565b955060608901359150808211156155c657600080fd5b6155d28a838b01615377565b945060808901359150808211156155e857600080fd5b506155f589828a01615377565b92505061560460a088016152ec565b90509295509295509295565b600080604080848603121561562457600080fd5b833567ffffffffffffffff8082111561563c57600080fd5b818601915086601f83011261565057600080fd5b8135602061566061531d83615ce6565b8083825282820191508286018b848660051b890101111561568057600080fd5b60005b858110156156f55781358781111561569a57600080fd5b8801603f81018e136156ab57600080fd5b858101356156bb61531d82615d0a565b8181528f8c8385010111156156cf57600080fd5b818c84018983013760009181018801919091528552509284019290840190600101615683565b505080985050506157078189016153d7565b955050505050509250929050565b6000602080838503121561572857600080fd5b825167ffffffffffffffff81111561573f57600080fd5b8301601f8101851361575057600080fd5b805161575e61531d82615ce6565b80828252848201915084840188868560051b870101111561577e57600080fd5b600094505b838510156157a1578051835260019490940193918501918501615783565b50979650505050505050565b6000602082840312156157bf57600080fd5b813561197981615e7b565b6000602082840312156157dc57600080fd5b815161197981615e7b565b6000806000606084860312156157fc57600080fd5b833561547981615e7b565b60006020828403121561581957600080fd5b611979826153d7565b6000806040838503121561583557600080fd5b6154e6836153d7565b60006020828403121561585057600080fd5b815167ffffffffffffffff81111561586757600080fd5b8201601f8101841361587857600080fd5b805161588661531d82615d0a565b81815285602083850101111561589b57600080fd5b6158ac826020830160208601615da2565b95945050505050565b6000602082840312156158c757600080fd5b5035919050565b6000602082840312156158e057600080fd5b5051919050565b6003811061590557634e487b7160e01b600052602160045260246000fd5b9052565b60008151808452615921816020860160208601615da2565b601f01601f19169290920160200192915050565b60008251615947818460208701615da2565b9190910192915050565b6001600160a01b0391909116815260200190565b6001600160a01b03929092168252602082015260400190565b6001600160a01b0392831681529116602082015260400190565b6001600160a01b03958616815293909416602084015260408301919091526060820152608081019190915260a00190565b60006060820160018060a01b0386168352602060608185015281865180845260808601915060808160051b870101935082880160005b82811015615a2d57607f19888703018452615a1b868351615909565b955092840192908401906001016159ff565b505050505080915050613ab060408301846158e7565b6020808252825182820181905260009190848201906040850190845b81811015615a7b57835183529284019291840191600101615a5f565b50909695505050505050565b92151583526001600160a01b03919091166020830152604082015260600190565b6020810161154382846158e7565b60408101615ac482856158e7565b8260208301529392505050565b6020815260006119796020830184615909565b6020808252601390820152722aa8222faba0a6261d103d32b9379030b2323960691b604082015260600190565b60208082526026908201527f5061796d656e7453706c69747465723a206163636f756e7420686173206e6f2060408201526573686172657360d01b606082015260800190565b6020808252602b908201527f5061796d656e7453706c69747465723a206163636f756e74206973206e6f742060408201526a191d59481c185e5b595b9d60aa1b606082015260800190565b6020808252601a908201527f535741503a20696e73756666696369656e742062616c616e6365000000000000604082015260600190565b6020808252818101527f4f776e61626c653a2063616c6c6572206973206e6f7420746865206f776e6572604082015260600190565b6020808252600b908201526a053454e44455220495320360ac1b604082015260600190565b6020808252601a908201527f464545533a20746f74616c20657863656564696e672031303025000000000000604082015260600190565b6020808252602b908201527f496e697469616c697a61626c653a20636f6e7472616374206973206e6f74206960408201526a6e697469616c697a696e6760a81b606082015260800190565b604051601f8201601f1916810167ffffffffffffffff81118282101715615cde57615cde615e50565b604052919050565b600067ffffffffffffffff821115615d0057615d00615e50565b5060051b60200190565b600067ffffffffffffffff821115615d2457615d24615e50565b50601f01601f191660200190565b60008219821115615d4557615d45615e24565b500190565b600082615d6757634e487b7160e01b600052601260045260246000fd5b500490565b6000816000190483118215151615615d8657615d86615e24565b500290565b600082821015615d9d57615d9d615e24565b500390565b60005b83811015615dbd578181015183820152602001615da5565b838111156146855750506000910152565b600181811c90821680615de257607f821691505b60208210811415615e0357634e487b7160e01b600052602260045260246000fd5b50919050565b6000600019821415615e1d57615e1d615e24565b5060010190565b634e487b7160e01b600052601160045260246000fd5b634e487b7160e01b600052603260045260246000fd5b634e487b7160e01b600052604160045260246000fd5b6001600160a01b038116811461401157600080fd5b801515811461401157600080fdfea164736f6c6343000807000a",
  "devdoc": {
    "kind": "dev",
    "methods": {
      "allowance(address,address)": {
        "details": "See {IERC20-allowance}."
      },
      "approve(address,uint256)": {
        "details": "See {IERC20-approve}. NOTE: If `amount` is the maximum `uint256`, the allowance is not updated on `transferFrom`. This is semantically equivalent to an infinite approval. Requirements: - `spender` cannot be the zero address."
      },
      "balanceOf(address)": {
        "details": "See {IERC20-balanceOf}."
      },
      "decimals()": {
        "details": "Returns the number of decimals used to get its user representation. For example, if `decimals` equals `2`, a balance of `505` tokens should be displayed to a user as `5.05` (`505 / 10 ** 2`). Tokens usually opt for a value of 18, imitating the relationship between Ether and Wei. This is the value {ERC20} uses, unless this function is overridden; NOTE: This information is only used for _display_ purposes: it in no way affects any of the arithmetic of the contract, including {IERC20-balanceOf} and {IERC20-transfer}."
      },
      "decreaseAllowance(address,uint256)": {
        "details": "Atomically decreases the allowance granted to `spender` by the caller. This is an alternative to {approve} that can be used as a mitigation for problems described in {IERC20-approve}. Emits an {Approval} event indicating the updated allowance. Requirements: - `spender` cannot be the zero address. - `spender` must have allowance for the caller of at least `subtractedValue`."
      },
      "increaseAllowance(address,uint256)": {
        "details": "Atomically increases the allowance granted to `spender` by the caller. This is an alternative to {approve} that can be used as a mitigation for problems described in {IERC20-approve}. Emits an {Approval} event indicating the updated allowance. Requirements: - `spender` cannot be the zero address."
      },
      "name()": {
        "details": "Returns the name of the token."
      },
      "owner()": {
        "details": "Returns the address of the current owner."
      },
      "payee(uint256)": {
        "details": "Getter for the address of the payee number `index`."
      },
      "release(address)": {
        "details": "Triggers a transfer to `account` of the amount of Ether they are owed, according to their percentage of the total shares and their previous withdrawals."
      },
      "release(address,address)": {
        "details": "Triggers a transfer to `account` of the amount of `token` tokens they are owed, according to their percentage of the total shares and their previous withdrawals. `token` must be the address of an IERC20 contract."
      },
      "released(address)": {
        "details": "Getter for the amount of Ether already released to a payee."
      },
      "released(address,address)": {
        "details": "Getter for the amount of `token` tokens already released to a payee. `token` should be the address of an IERC20 contract."
      },
      "renounceOwnership()": {
        "details": "Leaves the contract without owner. It will not be possible to call `onlyOwner` functions anymore. Can only be called by the current owner. NOTE: Renouncing ownership will leave the contract without an owner, thereby removing any functionality that is only available to the owner."
      },
      "shares(address)": {
        "details": "Getter for the amount of shares held by an account."
      },
      "symbol()": {
        "details": "Returns the symbol of the token, usually a shorter version of the name."
      },
      "totalReleased()": {
        "details": "Getter for the total amount of Ether already released."
      },
      "totalReleased(address)": {
        "details": "Getter for the total amount of `token` already released. `token` should be the address of an IERC20 contract."
      },
      "totalShares()": {
        "details": "Getter for the total shares held by payees."
      },
      "totalSupply()": {
        "details": "See {IERC20-totalSupply}."
      },
      "transfer(address,uint256)": {
        "details": "See {IERC20-transfer}. Requirements: - `to` cannot be the zero address. - the caller must have a balance of at least `amount`."
      },
      "transferFrom(address,address,uint256)": {
        "details": "See {IERC20-transferFrom}. Emits an {Approval} event indicating the updated allowance. This is not required by the EIP. See the note at the beginning of {ERC20}. NOTE: Does not update the allowance if the current allowance is the maximum `uint256`. Requirements: - `from` and `to` cannot be the zero address. - `from` must have a balance of at least `amount`. - the caller must have allowance for ``from``'s tokens of at least `amount`."
      },
      "transferOwnership(address)": {
        "details": "Transfers ownership of the contract to a new account (`newOwner`). Can only be called by the current owner."
      }
    },
    "version": 1
  },
  "userdoc": {
    "kind": "user",
    "methods": {},
    "version": 1
  },
  "storageLayout": {
    "storage": [
      {
        "astId": 598,
        "contract": "contracts/ZeroXBlock.sol:ZeroXBlock",
        "label": "_initialized",
        "offset": 0,
        "slot": "0",
        "type": "t_bool"
      },
      {
        "astId": 601,
        "contract": "contracts/ZeroXBlock.sol:ZeroXBlock",
        "label": "_initializing",
        "offset": 1,
        "slot": "0",
        "type": "t_bool"
      },
      {
        "astId": 1889,
        "contract": "contracts/ZeroXBlock.sol:ZeroXBlock",
        "label": "__gap",
        "offset": 0,
        "slot": "1",
        "type": "t_array(t_uint256)50_storage"
      },
      {
        "astId": 684,
        "contract": "contracts/ZeroXBlock.sol:ZeroXBlock",
        "label": "_balances",
        "offset": 0,
        "slot": "51",
        "type": "t_mapping(t_address,t_uint256)"
      },
      {
        "astId": 690,
        "contract": "contracts/ZeroXBlock.sol:ZeroXBlock",
        "label": "_allowances",
        "offset": 0,
        "slot": "52",
        "type": "t_mapping(t_address,t_mapping(t_address,t_uint256))"
      },
      {
        "astId": 692,
        "contract": "contracts/ZeroXBlock.sol:ZeroXBlock",
        "label": "_totalSupply",
        "offset": 0,
        "slot": "53",
        "type": "t_uint256"
      },
      {
        "astId": 694,
        "contract": "contracts/ZeroXBlock.sol:ZeroXBlock",
        "label": "_name",
        "offset": 0,
        "slot": "54",
        "type": "t_string_storage"
      },
      {
        "astId": 696,
        "contract": "contracts/ZeroXBlock.sol:ZeroXBlock",
        "label": "_symbol",
        "offset": 0,
        "slot": "55",
        "type": "t_string_storage"
      },
      {
        "astId": 1277,
        "contract": "contracts/ZeroXBlock.sol:ZeroXBlock",
        "label": "__gap",
        "offset": 0,
        "slot": "56",
        "type": "t_array(t_uint256)45_storage"
      },
      {
        "astId": 10,
        "contract": "contracts/ZeroXBlock.sol:ZeroXBlock",
        "label": "_owner",
        "offset": 0,
        "slot": "101",
        "type": "t_address"
      },
      {
        "astId": 122,
        "contract": "contracts/ZeroXBlock.sol:ZeroXBlock",
        "label": "__gap",
        "offset": 0,
        "slot": "102",
        "type": "t_array(t_uint256)49_storage"
      },
      {
        "astId": 163,
        "contract": "contracts/ZeroXBlock.sol:ZeroXBlock",
        "label": "_totalShares",
        "offset": 0,
        "slot": "151",
        "type": "t_uint256"
      },
      {
        "astId": 165,
        "contract": "contracts/ZeroXBlock.sol:ZeroXBlock",
        "label": "_totalReleased",
        "offset": 0,
        "slot": "152",
        "type": "t_uint256"
      },
      {
        "astId": 169,
        "contract": "contracts/ZeroXBlock.sol:ZeroXBlock",
        "label": "_shares",
        "offset": 0,
        "slot": "153",
        "type": "t_mapping(t_address,t_uint256)"
      },
      {
        "astId": 173,
        "contract": "contracts/ZeroXBlock.sol:ZeroXBlock",
        "label": "_released",
        "offset": 0,
        "slot": "154",
        "type": "t_mapping(t_address,t_uint256)"
      },
      {
        "astId": 176,
        "contract": "contracts/ZeroXBlock.sol:ZeroXBlock",
        "label": "_payees",
        "offset": 0,
        "slot": "155",
        "type": "t_array(t_address)dyn_storage"
      },
      {
        "astId": 181,
        "contract": "contracts/ZeroXBlock.sol:ZeroXBlock",
        "label": "_erc20TotalReleased",
        "offset": 0,
        "slot": "156",
        "type": "t_mapping(t_contract(IERC20Upgradeable)1356,t_uint256)"
      },
      {
        "astId": 188,
        "contract": "contracts/ZeroXBlock.sol:ZeroXBlock",
        "label": "_erc20Released",
        "offset": 0,
        "slot": "157",
        "type": "t_mapping(t_contract(IERC20Upgradeable)1356,t_mapping(t_address,t_uint256))"
      },
      {
        "astId": 590,
        "contract": "contracts/ZeroXBlock.sol:ZeroXBlock",
        "label": "__gap",
        "offset": 0,
        "slot": "158",
        "type": "t_array(t_uint256)43_storage"
      },
      {
        "astId": 2584,
        "contract": "contracts/ZeroXBlock.sol:ZeroXBlock",
        "label": "_crm",
        "offset": 0,
        "slot": "201",
        "type": "t_contract(CONTRewardManagement)6766"
      },
      {
        "astId": 2587,
        "contract": "contracts/ZeroXBlock.sol:ZeroXBlock",
        "label": "_liqRouter",
        "offset": 0,
        "slot": "202",
        "type": "t_contract(LiquidityRouter)7457"
      },
      {
        "astId": 2592,
        "contract": "contracts/ZeroXBlock.sol:ZeroXBlock",
        "label": "ownedContsLimit",
        "offset": 0,
        "slot": "203",
        "type": "t_uint256"
      },
      {
        "astId": 2594,
        "contract": "contracts/ZeroXBlock.sol:ZeroXBlock",
        "label": "mintContLimit",
        "offset": 0,
        "slot": "204",
        "type": "t_uint256"
      },
      {
        "astId": 2596,
        "contract": "contracts/ZeroXBlock.sol:ZeroXBlock",
        "label": "totalTokensPaidForMinting",
        "offset": 0,
        "slot": "205",
        "type": "t_uint256"
      },
      {
        "astId": 2598,
        "contract": "contracts/ZeroXBlock.sol:ZeroXBlock",
        "label": "developmentFundPool",
        "offset": 0,
        "slot": "206",
        "type": "t_address"
      },
      {
        "astId": 2600,
        "contract": "contracts/ZeroXBlock.sol:ZeroXBlock",
        "label": "treasuryPool",
        "offset": 0,
        "slot": "207",
        "type": "t_address"
      },
      {
        "astId": 2602,
        "contract": "contracts/ZeroXBlock.sol:ZeroXBlock",
        "label": "rewardsPool",
        "offset": 0,
        "slot": "208",
        "type": "t_address"
      },
      {
        "astId": 2604,
        "contract": "contracts/ZeroXBlock.sol:ZeroXBlock",
        "label": "liquidityPool",
        "offset": 0,
        "slot": "209",
        "type": "t_address"
      },
      {
        "astId": 2606,
        "contract": "contracts/ZeroXBlock.sol:ZeroXBlock",
        "label": "rewardsFee",
        "offset": 0,
        "slot": "210",
        "type": "t_uint256"
      },
      {
        "astId": 2608,
        "contract": "contracts/ZeroXBlock.sol:ZeroXBlock",
        "label": "treasuryFee",
        "offset": 0,
        "slot": "211",
        "type": "t_uint256"
      },
      {
        "astId": 2610,
        "contract": "contracts/ZeroXBlock.sol:ZeroXBlock",
        "label": "liquidityPoolFee",
        "offset": 0,
        "slot": "212",
        "type": "t_uint256"
      },
      {
        "astId": 2612,
        "contract": "contracts/ZeroXBlock.sol:ZeroXBlock",
        "label": "developmentFee",
        "offset": 0,
        "slot": "213",
        "type": "t_uint256"
      },
      {
        "astId": 2614,
        "contract": "contracts/ZeroXBlock.sol:ZeroXBlock",
        "label": "totalFees",
        "offset": 0,
        "slot": "214",
        "type": "t_uint256"
      },
      {
        "astId": 2616,
        "contract": "contracts/ZeroXBlock.sol:ZeroXBlock",
        "label": "cashoutFee",
        "offset": 0,
        "slot": "215",
        "type": "t_uint256"
      },
      {
        "astId": 2618,
        "contract": "contracts/ZeroXBlock.sol:ZeroXBlock",
        "label": "enableAutoSwapTreasury",
        "offset": 0,
        "slot": "216",
        "type": "t_bool"
      },
      {
        "astId": 2620,
        "contract": "contracts/ZeroXBlock.sol:ZeroXBlock",
        "label": "enableAutoSwapDevFund",
        "offset": 1,
        "slot": "216",
        "type": "t_bool"
      },
      {
        "astId": 2622,
        "contract": "contracts/ZeroXBlock.sol:ZeroXBlock",
        "label": "usdcToken",
        "offset": 2,
        "slot": "216",
        "type": "t_address"
      },
      {
        "astId": 2626,
        "contract": "contracts/ZeroXBlock.sol:ZeroXBlock",
        "label": "_isBlacklisted",
        "offset": 0,
        "slot": "217",
        "type": "t_mapping(t_address,t_bool)"
      },
      {
        "astId": 2628,
        "contract": "contracts/ZeroXBlock.sol:ZeroXBlock",
        "label": "enableCashout",
        "offset": 0,
        "slot": "218",
        "type": "t_bool"
      },
      {
        "astId": 2630,
        "contract": "contracts/ZeroXBlock.sol:ZeroXBlock",
        "label": "enableMintConts",
        "offset": 1,
        "slot": "218",
        "type": "t_bool"
      }
    ],
    "types": {
      "t_address": {
        "encoding": "inplace",
        "label": "address",
        "numberOfBytes": "20"
      },
      "t_array(t_address)dyn_storage": {
        "base": "t_address",
        "encoding": "dynamic_array",
        "label": "address[]",
        "numberOfBytes": "32"
      },
      "t_array(t_uint256)43_storage": {
        "base": "t_uint256",
        "encoding": "inplace",
        "label": "uint256[43]",
        "numberOfBytes": "1376"
      },
      "t_array(t_uint256)45_storage": {
        "base": "t_uint256",
        "encoding": "inplace",
        "label": "uint256[45]",
        "numberOfBytes": "1440"
      },
      "t_array(t_uint256)49_storage": {
        "base": "t_uint256",
        "encoding": "inplace",
        "label": "uint256[49]",
        "numberOfBytes": "1568"
      },
      "t_array(t_uint256)50_storage": {
        "base": "t_uint256",
        "encoding": "inplace",
        "label": "uint256[50]",
        "numberOfBytes": "1600"
      },
      "t_bool": {
        "encoding": "inplace",
        "label": "bool",
        "numberOfBytes": "1"
      },
      "t_contract(CONTRewardManagement)6766": {
        "encoding": "inplace",
        "label": "contract CONTRewardManagement",
        "numberOfBytes": "20"
      },
      "t_contract(IERC20Upgradeable)1356": {
        "encoding": "inplace",
        "label": "contract IERC20Upgradeable",
        "numberOfBytes": "20"
      },
      "t_contract(LiquidityRouter)7457": {
        "encoding": "inplace",
        "label": "contract LiquidityRouter",
        "numberOfBytes": "20"
      },
      "t_mapping(t_address,t_bool)": {
        "encoding": "mapping",
        "key": "t_address",
        "label": "mapping(address => bool)",
        "numberOfBytes": "32",
        "value": "t_bool"
      },
      "t_mapping(t_address,t_mapping(t_address,t_uint256))": {
        "encoding": "mapping",
        "key": "t_address",
        "label": "mapping(address => mapping(address => uint256))",
        "numberOfBytes": "32",
        "value": "t_mapping(t_address,t_uint256)"
      },
      "t_mapping(t_address,t_uint256)": {
        "encoding": "mapping",
        "key": "t_address",
        "label": "mapping(address => uint256)",
        "numberOfBytes": "32",
        "value": "t_uint256"
      },
      "t_mapping(t_contract(IERC20Upgradeable)1356,t_mapping(t_address,t_uint256))": {
        "encoding": "mapping",
        "key": "t_contract(IERC20Upgradeable)1356",
        "label": "mapping(contract IERC20Upgradeable => mapping(address => uint256))",
        "numberOfBytes": "32",
        "value": "t_mapping(t_address,t_uint256)"
      },
      "t_mapping(t_contract(IERC20Upgradeable)1356,t_uint256)": {
        "encoding": "mapping",
        "key": "t_contract(IERC20Upgradeable)1356",
        "label": "mapping(contract IERC20Upgradeable => uint256)",
        "numberOfBytes": "32",
        "value": "t_uint256"
      },
      "t_string_storage": {
        "encoding": "bytes",
        "label": "string",
        "numberOfBytes": "32"
      },
      "t_uint256": {
        "encoding": "inplace",
        "label": "uint256",
        "numberOfBytes": "32"
      }
    }
  }
}