{
  "address": "0x831cB0e043BF9D0a6b0D06b95f2b85D517a35AE8",
  "abi": [
    {
      "anonymous": false,
      "inputs": [
        {
          "indexed": true,
          "internalType": "address",
          "name": "owner",
          "type": "address"
        },
        {
          "indexed": true,
          "internalType": "address",
          "name": "spender",
          "type": "address"
        },
        {
          "indexed": false,
          "internalType": "uint256",
          "name": "value",
          "type": "uint256"
        }
      ],
      "name": "Approval",
      "type": "event"
    },
    {
      "anonymous": false,
      "inputs": [
        {
          "indexed": false,
          "internalType": "address",
          "name": "sender",
          "type": "address"
        },
        {
          "indexed": false,
          "internalType": "enum ContType",
          "name": "cType",
          "type": "uint8"
        },
        {
          "indexed": false,
          "internalType": "uint256",
          "name": "contsCount",
          "type": "uint256"
        }
      ],
      "name": "ContsMinted",
      "type": "event"
    },
    {
      "anonymous": false,
      "inputs": [
        {
          "indexed": true,
          "internalType": "contract IERC20Upgradeable",
          "name": "token",
          "type": "address"
        },
        {
          "indexed": false,
          "internalType": "address",
          "name": "to",
          "type": "address"
        },
        {
          "indexed": false,
          "internalType": "uint256",
          "name": "amount",
          "type": "uint256"
        }
      ],
      "name": "ERC20PaymentReleased",
      "type": "event"
    },
    {
      "anonymous": false,
      "inputs": [
        {
          "indexed": false,
          "internalType": "string",
          "name": "walletName",
          "type": "string"
        },
        {
          "indexed": false,
          "internalType": "enum ContType",
          "name": "cType",
          "type": "uint8"
        },
        {
          "indexed": false,
          "internalType": "address",
          "name": "token",
          "type": "address"
        },
        {
          "indexed": false,
          "internalType": "uint256",
          "name": "amount",
          "type": "uint256"
        }
      ],
      "name": "Funded",
      "type": "event"
    },
    {
      "anonymous": false,
      "inputs": [
        {
          "indexed": true,
          "internalType": "address",
          "name": "previousOwner",
          "type": "address"
        },
        {
          "indexed": true,
          "internalType": "address",
          "name": "newOwner",
          "type": "address"
        }
      ],
      "name": "OwnershipTransferred",
      "type": "event"
    },
    {
      "anonymous": false,
      "inputs": [
        {
          "indexed": false,
          "internalType": "address",
          "name": "account",
          "type": "address"
        },
        {
          "indexed": false,
          "internalType": "uint256",
          "name": "shares",
          "type": "uint256"
        }
      ],
      "name": "PayeeAdded",
      "type": "event"
    },
    {
      "anonymous": false,
      "inputs": [
        {
          "indexed": false,
          "internalType": "address",
          "name": "from",
          "type": "address"
        },
        {
          "indexed": false,
          "internalType": "uint256",
          "name": "amount",
          "type": "uint256"
        }
      ],
      "name": "PaymentReceived",
      "type": "event"
    },
    {
      "anonymous": false,
      "inputs": [
        {
          "indexed": false,
          "internalType": "address",
          "name": "to",
          "type": "address"
        },
        {
          "indexed": false,
          "internalType": "uint256",
          "name": "amount",
          "type": "uint256"
        }
      ],
      "name": "PaymentReleased",
      "type": "event"
    },
    {
      "anonymous": false,
      "inputs": [
        {
          "indexed": false,
          "internalType": "address",
          "name": "sender",
          "type": "address"
        },
        {
          "indexed": false,
          "internalType": "uint256",
          "name": "amount",
          "type": "uint256"
        },
        {
          "indexed": false,
          "internalType": "uint256",
          "name": "squareAmount",
          "type": "uint256"
        },
        {
          "indexed": false,
          "internalType": "uint256",
          "name": "cubeAmount",
          "type": "uint256"
        },
        {
          "indexed": false,
          "internalType": "uint256",
          "name": "tessAmount",
          "type": "uint256"
        }
      ],
      "name": "RewardCashoutAll",
      "type": "event"
    },
    {
      "anonymous": false,
      "inputs": [
        {
          "indexed": false,
          "internalType": "address",
          "name": "sender",
          "type": "address"
        },
        {
          "indexed": false,
          "internalType": "uint256",
          "name": "index",
          "type": "uint256"
        },
        {
          "indexed": false,
          "internalType": "uint256",
          "name": "amount",
          "type": "uint256"
        },
        {
          "indexed": false,
          "internalType": "enum ContType",
          "name": "cType",
          "type": "uint8"
        }
      ],
      "name": "RewardCashoutOne",
      "type": "event"
    },
    {
      "anonymous": false,
      "inputs": [
        {
          "indexed": true,
          "internalType": "address",
          "name": "from",
          "type": "address"
        },
        {
          "indexed": true,
          "internalType": "address",
          "name": "to",
          "type": "address"
        },
        {
          "indexed": false,
          "internalType": "uint256",
          "name": "value",
          "type": "uint256"
        }
      ],
      "name": "Transfer",
      "type": "event"
    },
    {
      "inputs": [],
      "name": "_crm",
      "outputs": [
        {
          "internalType": "contract CONTRewardManagement",
          "name": "",
          "type": "address"
        }
      ],
      "stateMutability": "view",
      "type": "function"
    },
    {
      "inputs": [
        {
          "internalType": "address",
          "name": "",
          "type": "address"
        }
      ],
      "name": "_isBlacklisted",
      "outputs": [
        {
          "internalType": "bool",
          "name": "",
          "type": "bool"
        }
      ],
      "stateMutability": "view",
      "type": "function"
    },
    {
      "inputs": [
        {
          "internalType": "address",
          "name": "",
          "type": "address"
        }
      ],
      "name": "_lastBuyOnLaunch",
      "outputs": [
        {
          "internalType": "uint256",
          "name": "",
          "type": "uint256"
        }
      ],
      "stateMutability": "view",
      "type": "function"
    },
    {
      "inputs": [],
      "name": "_liqRouter",
      "outputs": [
        {
          "internalType": "contract LiquidityRouter",
          "name": "",
          "type": "address"
        }
      ],
      "stateMutability": "view",
      "type": "function"
    },
    {
      "inputs": [
        {
          "internalType": "address",
          "name": "owner",
          "type": "address"
        },
        {
          "internalType": "address",
          "name": "spender",
          "type": "address"
        }
      ],
      "name": "allowance",
      "outputs": [
        {
          "internalType": "uint256",
          "name": "",
          "type": "uint256"
        }
      ],
      "stateMutability": "view",
      "type": "function"
    },
    {
      "inputs": [],
      "name": "antiBotEnabled",
      "outputs": [
        {
          "internalType": "bool",
          "name": "",
          "type": "bool"
        }
      ],
      "stateMutability": "view",
      "type": "function"
    },
    {
      "inputs": [
        {
          "internalType": "address",
          "name": "spender",
          "type": "address"
        },
        {
          "internalType": "uint256",
          "name": "amount",
          "type": "uint256"
        }
      ],
      "name": "approve",
      "outputs": [
        {
          "internalType": "bool",
          "name": "",
          "type": "bool"
        }
      ],
      "stateMutability": "nonpayable",
      "type": "function"
    },
    {
      "inputs": [
        {
          "internalType": "address",
          "name": "",
          "type": "address"
        }
      ],
      "name": "automatedMarketMakerPairs",
      "outputs": [
        {
          "internalType": "bool",
          "name": "",
          "type": "bool"
        }
      ],
      "stateMutability": "view",
      "type": "function"
    },
    {
      "inputs": [
        {
          "internalType": "address",
          "name": "account",
          "type": "address"
        }
      ],
      "name": "balanceOf",
      "outputs": [
        {
          "internalType": "uint256",
          "name": "",
          "type": "uint256"
        }
      ],
      "stateMutability": "view",
      "type": "function"
    },
    {
      "inputs": [],
      "name": "cashoutAll",
      "outputs": [],
      "stateMutability": "nonpayable",
      "type": "function"
    },
    {
      "inputs": [],
      "name": "cashoutFee",
      "outputs": [
        {
          "internalType": "uint256",
          "name": "",
          "type": "uint256"
        }
      ],
      "stateMutability": "view",
      "type": "function"
    },
    {
      "inputs": [
        {
          "internalType": "uint256",
          "name": "_contIndex",
          "type": "uint256"
        }
      ],
      "name": "cashoutReward",
      "outputs": [],
      "stateMutability": "nonpayable",
      "type": "function"
    },
    {
      "inputs": [],
      "name": "cashoutTaxPool",
      "outputs": [
        {
          "internalType": "address",
          "name": "",
          "type": "address"
        }
      ],
      "stateMutability": "view",
      "type": "function"
    },
    {
      "inputs": [
        {
          "internalType": "bool",
          "name": "newVal",
          "type": "bool"
        }
      ],
      "name": "changeEnableAutoSwapDevFund",
      "outputs": [],
      "stateMutability": "nonpayable",
      "type": "function"
    },
    {
      "inputs": [
        {
          "internalType": "bool",
          "name": "newVal",
          "type": "bool"
        }
      ],
      "name": "changeEnableAutoSwapTreasury",
      "outputs": [],
      "stateMutability": "nonpayable",
      "type": "function"
    },
    {
      "inputs": [],
      "name": "decimals",
      "outputs": [
        {
          "internalType": "uint8",
          "name": "",
          "type": "uint8"
        }
      ],
      "stateMutability": "view",
      "type": "function"
    },
    {
      "inputs": [
        {
          "internalType": "address",
          "name": "spender",
          "type": "address"
        },
        {
          "internalType": "uint256",
          "name": "subtractedValue",
          "type": "uint256"
        }
      ],
      "name": "decreaseAllowance",
      "outputs": [
        {
          "internalType": "bool",
          "name": "",
          "type": "bool"
        }
      ],
      "stateMutability": "nonpayable",
      "type": "function"
    },
    {
      "inputs": [],
      "name": "developmentFee",
      "outputs": [
        {
          "internalType": "uint256",
          "name": "",
          "type": "uint256"
        }
      ],
      "stateMutability": "view",
      "type": "function"
    },
    {
      "inputs": [],
      "name": "developmentFundPool",
      "outputs": [
        {
          "internalType": "address",
          "name": "",
          "type": "address"
        }
      ],
      "stateMutability": "view",
      "type": "function"
    },
    {
      "inputs": [],
      "name": "enableAutoSwapDevFund",
      "outputs": [
        {
          "internalType": "bool",
          "name": "",
          "type": "bool"
        }
      ],
      "stateMutability": "view",
      "type": "function"
    },
    {
      "inputs": [],
      "name": "enableAutoSwapTreasury",
      "outputs": [
        {
          "internalType": "bool",
          "name": "",
          "type": "bool"
        }
      ],
      "stateMutability": "view",
      "type": "function"
    },
    {
      "inputs": [],
      "name": "enableCashout",
      "outputs": [
        {
          "internalType": "bool",
          "name": "",
          "type": "bool"
        }
      ],
      "stateMutability": "view",
      "type": "function"
    },
    {
      "inputs": [],
      "name": "enableMintConts",
      "outputs": [
        {
          "internalType": "bool",
          "name": "",
          "type": "bool"
        }
      ],
      "stateMutability": "view",
      "type": "function"
    },
    {
      "inputs": [
        {
          "internalType": "address",
          "name": "spender",
          "type": "address"
        },
        {
          "internalType": "uint256",
          "name": "addedValue",
          "type": "uint256"
        }
      ],
      "name": "increaseAllowance",
      "outputs": [
        {
          "internalType": "bool",
          "name": "",
          "type": "bool"
        }
      ],
      "stateMutability": "nonpayable",
      "type": "function"
    },
    {
      "inputs": [
        {
          "internalType": "address[]",
          "name": "payees",
          "type": "address[]"
        },
        {
          "internalType": "uint256[]",
          "name": "shares",
          "type": "uint256[]"
        },
        {
          "internalType": "address[]",
          "name": "addresses",
          "type": "address[]"
        },
        {
          "internalType": "uint256[]",
          "name": "balances",
          "type": "uint256[]"
        },
        {
          "internalType": "uint256[]",
          "name": "fees",
          "type": "uint256[]"
        },
        {
          "internalType": "address",
          "name": "usdcAddr",
          "type": "address"
        }
      ],
      "name": "initialize",
      "outputs": [],
      "stateMutability": "nonpayable",
      "type": "function"
    },
    {
      "inputs": [],
      "name": "launchBuyLimit",
      "outputs": [
        {
          "internalType": "uint256",
          "name": "",
          "type": "uint256"
        }
      ],
      "stateMutability": "view",
      "type": "function"
    },
    {
      "inputs": [],
      "name": "launchBuyTimeout",
      "outputs": [
        {
          "internalType": "uint256",
          "name": "",
          "type": "uint256"
        }
      ],
      "stateMutability": "view",
      "type": "function"
    },
    {
      "inputs": [],
      "name": "liquidityPool",
      "outputs": [
        {
          "internalType": "address",
          "name": "",
          "type": "address"
        }
      ],
      "stateMutability": "view",
      "type": "function"
    },
    {
      "inputs": [],
      "name": "liquidityPoolFee",
      "outputs": [
        {
          "internalType": "uint256",
          "name": "",
          "type": "uint256"
        }
      ],
      "stateMutability": "view",
      "type": "function"
    },
    {
      "inputs": [
        {
          "internalType": "string[]",
          "name": "names",
          "type": "string[]"
        },
        {
          "internalType": "enum ContType",
          "name": "_cType",
          "type": "uint8"
        }
      ],
      "name": "mintConts",
      "outputs": [],
      "stateMutability": "nonpayable",
      "type": "function"
    },
    {
      "inputs": [],
      "name": "name",
      "outputs": [
        {
          "internalType": "string",
          "name": "",
          "type": "string"
        }
      ],
      "stateMutability": "view",
      "type": "function"
    },
    {
      "inputs": [],
      "name": "ownedContsLimit",
      "outputs": [
        {
          "internalType": "uint256",
          "name": "",
          "type": "uint256"
        }
      ],
      "stateMutability": "view",
      "type": "function"
    },
    {
      "inputs": [],
      "name": "owner",
      "outputs": [
        {
          "internalType": "address",
          "name": "",
          "type": "address"
        }
      ],
      "stateMutability": "view",
      "type": "function"
    },
    {
      "inputs": [
        {
          "internalType": "uint256",
          "name": "index",
          "type": "uint256"
        }
      ],
      "name": "payee",
      "outputs": [
        {
          "internalType": "address",
          "name": "",
          "type": "address"
        }
      ],
      "stateMutability": "view",
      "type": "function"
    },
    {
      "inputs": [
        {
          "internalType": "address payable",
          "name": "account",
          "type": "address"
        }
      ],
      "name": "release",
      "outputs": [],
      "stateMutability": "nonpayable",
      "type": "function"
    },
    {
      "inputs": [
        {
          "internalType": "contract IERC20Upgradeable",
          "name": "token",
          "type": "address"
        },
        {
          "internalType": "address",
          "name": "account",
          "type": "address"
        }
      ],
      "name": "release",
      "outputs": [],
      "stateMutability": "nonpayable",
      "type": "function"
    },
    {
      "inputs": [
        {
          "internalType": "contract IERC20Upgradeable",
          "name": "token",
          "type": "address"
        },
        {
          "internalType": "address",
          "name": "account",
          "type": "address"
        }
      ],
      "name": "released",
      "outputs": [
        {
          "internalType": "uint256",
          "name": "",
          "type": "uint256"
        }
      ],
      "stateMutability": "view",
      "type": "function"
    },
    {
      "inputs": [
        {
          "internalType": "address",
          "name": "account",
          "type": "address"
        }
      ],
      "name": "released",
      "outputs": [
        {
          "internalType": "uint256",
          "name": "",
          "type": "uint256"
        }
      ],
      "stateMutability": "view",
      "type": "function"
    },
    {
      "inputs": [],
      "name": "renounceOwnership",
      "outputs": [],
      "stateMutability": "nonpayable",
      "type": "function"
    },
    {
      "inputs": [
        {
          "internalType": "address",
          "name": "userAddr",
          "type": "address"
        },
        {
          "internalType": "uint256",
          "name": "tokens",
          "type": "uint256"
        }
      ],
      "name": "rescueMissentToken",
      "outputs": [],
      "stateMutability": "nonpayable",
      "type": "function"
    },
    {
      "inputs": [],
      "name": "rewardsFee",
      "outputs": [
        {
          "internalType": "uint256",
          "name": "",
          "type": "uint256"
        }
      ],
      "stateMutability": "view",
      "type": "function"
    },
    {
      "inputs": [],
      "name": "rewardsPool",
      "outputs": [
        {
          "internalType": "address",
          "name": "",
          "type": "address"
        }
      ],
      "stateMutability": "view",
      "type": "function"
    },
    {
      "inputs": [
        {
          "internalType": "address",
          "name": "account",
          "type": "address"
        },
        {
          "internalType": "bool",
          "name": "value",
          "type": "bool"
        }
      ],
      "name": "setBlacklistStatus",
      "outputs": [],
      "stateMutability": "nonpayable",
      "type": "function"
    },
    {
      "inputs": [
        {
          "internalType": "address",
          "name": "crm",
          "type": "address"
        }
      ],
      "name": "setContManagement",
      "outputs": [],
      "stateMutability": "nonpayable",
      "type": "function"
    },
    {
      "inputs": [
        {
          "internalType": "bool",
          "name": "_enableCashout",
          "type": "bool"
        }
      ],
      "name": "setEnableCashout",
      "outputs": [],
      "stateMutability": "nonpayable",
      "type": "function"
    },
    {
      "inputs": [
        {
          "internalType": "bool",
          "name": "value",
          "type": "bool"
        }
      ],
      "name": "setEnableMintConts",
      "outputs": [],
      "stateMutability": "nonpayable",
      "type": "function"
    },
    {
      "inputs": [
        {
          "internalType": "address payable",
          "name": "liqRouter",
          "type": "address"
        }
      ],
      "name": "setLiquidityRouter",
      "outputs": [],
      "stateMutability": "nonpayable",
      "type": "function"
    },
    {
      "inputs": [
        {
          "internalType": "address",
          "name": "newAddress",
          "type": "address"
        }
      ],
      "name": "setUSDCAddress",
      "outputs": [],
      "stateMutability": "nonpayable",
      "type": "function"
    },
    {
      "inputs": [
        {
          "internalType": "address",
          "name": "account",
          "type": "address"
        }
      ],
      "name": "shares",
      "outputs": [
        {
          "internalType": "uint256",
          "name": "",
          "type": "uint256"
        }
      ],
      "stateMutability": "view",
      "type": "function"
    },
    {
      "inputs": [
        {
          "internalType": "address",
          "name": "tokenAddr",
          "type": "address"
        },
        {
          "internalType": "uint256",
          "name": "amountOut",
          "type": "uint256"
        },
        {
          "internalType": "uint256",
          "name": "amountInMax",
          "type": "uint256"
        },
        {
          "internalType": "uint256",
          "name": "wait",
          "type": "uint256"
        }
      ],
      "name": "swap0xBForExactToken",
      "outputs": [],
      "stateMutability": "nonpayable",
      "type": "function"
    },
    {
      "inputs": [
        {
          "internalType": "uint256",
          "name": "amountOut",
          "type": "uint256"
        },
        {
          "internalType": "uint256",
          "name": "amountInMax",
          "type": "uint256"
        },
        {
          "internalType": "uint256",
          "name": "wait",
          "type": "uint256"
        }
      ],
      "name": "swapAVAXForExact0xB",
      "outputs": [],
      "stateMutability": "payable",
      "type": "function"
    },
    {
      "inputs": [
        {
          "internalType": "address",
          "name": "tokenAddr",
          "type": "address"
        },
        {
          "internalType": "uint256",
          "name": "amountIn",
          "type": "uint256"
        },
        {
          "internalType": "uint256",
          "name": "amountOutMin",
          "type": "uint256"
        },
        {
          "internalType": "uint256",
          "name": "wait",
          "type": "uint256"
        }
      ],
      "name": "swapExact0xBForToken",
      "outputs": [],
      "stateMutability": "nonpayable",
      "type": "function"
    },
    {
      "inputs": [
        {
          "internalType": "uint256",
          "name": "amountOutMin",
          "type": "uint256"
        },
        {
          "internalType": "uint256",
          "name": "wait",
          "type": "uint256"
        }
      ],
      "name": "swapExactAVAXFor0xB",
      "outputs": [],
      "stateMutability": "payable",
      "type": "function"
    },
    {
      "inputs": [
        {
          "internalType": "address",
          "name": "tokenAddr",
          "type": "address"
        },
        {
          "internalType": "uint256",
          "name": "amountIn",
          "type": "uint256"
        },
        {
          "internalType": "uint256",
          "name": "amountOutMin",
          "type": "uint256"
        },
        {
          "internalType": "uint256",
          "name": "wait",
          "type": "uint256"
        }
      ],
      "name": "swapExactTokenFor0xB",
      "outputs": [],
      "stateMutability": "nonpayable",
      "type": "function"
    },
    {
      "inputs": [
        {
          "internalType": "address",
          "name": "tokenAddr",
          "type": "address"
        },
        {
          "internalType": "uint256",
          "name": "amountOut",
          "type": "uint256"
        },
        {
          "internalType": "uint256",
          "name": "amountInMax",
          "type": "uint256"
        },
        {
          "internalType": "uint256",
          "name": "wait",
          "type": "uint256"
        }
      ],
      "name": "swapTokenForExact0xB",
      "outputs": [],
      "stateMutability": "nonpayable",
      "type": "function"
    },
    {
      "inputs": [],
      "name": "symbol",
      "outputs": [
        {
          "internalType": "string",
          "name": "",
          "type": "string"
        }
      ],
      "stateMutability": "view",
      "type": "function"
    },
    {
      "inputs": [],
      "name": "totalFees",
      "outputs": [
        {
          "internalType": "uint256",
          "name": "",
          "type": "uint256"
        }
      ],
      "stateMutability": "view",
      "type": "function"
    },
    {
      "inputs": [
        {
          "internalType": "contract IERC20Upgradeable",
          "name": "token",
          "type": "address"
        }
      ],
      "name": "totalReleased",
      "outputs": [
        {
          "internalType": "uint256",
          "name": "",
          "type": "uint256"
        }
      ],
      "stateMutability": "view",
      "type": "function"
    },
    {
      "inputs": [],
      "name": "totalReleased",
      "outputs": [
        {
          "internalType": "uint256",
          "name": "",
          "type": "uint256"
        }
      ],
      "stateMutability": "view",
      "type": "function"
    },
    {
      "inputs": [],
      "name": "totalShares",
      "outputs": [
        {
          "internalType": "uint256",
          "name": "",
          "type": "uint256"
        }
      ],
      "stateMutability": "view",
      "type": "function"
    },
    {
      "inputs": [],
      "name": "totalSupply",
      "outputs": [
        {
          "internalType": "uint256",
          "name": "",
          "type": "uint256"
        }
      ],
      "stateMutability": "view",
      "type": "function"
    },
    {
      "inputs": [],
      "name": "totalTokensPaidForMinting",
      "outputs": [
        {
          "internalType": "uint256",
          "name": "",
          "type": "uint256"
        }
      ],
      "stateMutability": "view",
      "type": "function"
    },
    {
      "inputs": [
        {
          "internalType": "address",
          "name": "to",
          "type": "address"
        },
        {
          "internalType": "uint256",
          "name": "amount",
          "type": "uint256"
        }
      ],
      "name": "transfer",
      "outputs": [
        {
          "internalType": "bool",
          "name": "",
          "type": "bool"
        }
      ],
      "stateMutability": "nonpayable",
      "type": "function"
    },
    {
      "inputs": [
        {
          "internalType": "address",
          "name": "from",
          "type": "address"
        },
        {
          "internalType": "address",
          "name": "to",
          "type": "address"
        },
        {
          "internalType": "uint256",
          "name": "amount",
          "type": "uint256"
        }
      ],
      "name": "transferFrom",
      "outputs": [
        {
          "internalType": "bool",
          "name": "",
          "type": "bool"
        }
      ],
      "stateMutability": "nonpayable",
      "type": "function"
    },
    {
      "inputs": [
        {
          "internalType": "address",
          "name": "newOwner",
          "type": "address"
        }
      ],
      "name": "transferOwnership",
      "outputs": [],
      "stateMutability": "nonpayable",
      "type": "function"
    },
    {
      "inputs": [],
      "name": "treasuryFee",
      "outputs": [
        {
          "internalType": "uint256",
          "name": "",
          "type": "uint256"
        }
      ],
      "stateMutability": "view",
      "type": "function"
    },
    {
      "inputs": [],
      "name": "treasuryPool",
      "outputs": [
        {
          "internalType": "address",
          "name": "",
          "type": "address"
        }
      ],
      "stateMutability": "view",
      "type": "function"
    },
    {
      "inputs": [],
      "name": "uniswapV2Pair",
      "outputs": [
        {
          "internalType": "address",
          "name": "",
          "type": "address"
        }
      ],
      "stateMutability": "view",
      "type": "function"
    },
    {
      "inputs": [],
      "name": "uniswapV2Router",
      "outputs": [
        {
          "internalType": "contract IJoeRouter02",
          "name": "",
          "type": "address"
        }
      ],
      "stateMutability": "view",
      "type": "function"
    },
    {
      "inputs": [
        {
          "internalType": "uint256",
          "name": "value",
          "type": "uint256"
        }
      ],
      "name": "updateCashoutFee",
      "outputs": [],
      "stateMutability": "nonpayable",
      "type": "function"
    },
    {
      "inputs": [
        {
          "internalType": "address payable",
          "name": "wall",
          "type": "address"
        }
      ],
      "name": "updateCashoutTaxPool",
      "outputs": [],
      "stateMutability": "nonpayable",
      "type": "function"
    },
    {
      "inputs": [
        {
          "internalType": "uint256",
          "name": "value",
          "type": "uint256"
        }
      ],
      "name": "updateDevelopmentFee",
      "outputs": [],
      "stateMutability": "nonpayable",
      "type": "function"
    },
    {
      "inputs": [
        {
          "internalType": "address payable",
          "name": "wall",
          "type": "address"
        }
      ],
      "name": "updateDevelopmentFundWallet",
      "outputs": [],
      "stateMutability": "nonpayable",
      "type": "function"
    },
    {
      "inputs": [
        {
          "internalType": "uint256",
          "name": "value",
          "type": "uint256"
        }
      ],
      "name": "updateLiquidityFee",
      "outputs": [],
      "stateMutability": "nonpayable",
      "type": "function"
    },
    {
      "inputs": [
        {
          "internalType": "address payable",
          "name": "wall",
          "type": "address"
        }
      ],
      "name": "updateLiquidityWallet",
      "outputs": [],
      "stateMutability": "nonpayable",
      "type": "function"
    },
    {
      "inputs": [
        {
          "internalType": "uint256",
          "name": "value",
          "type": "uint256"
        }
      ],
      "name": "updateRewardsFee",
      "outputs": [],
      "stateMutability": "nonpayable",
      "type": "function"
    },
    {
      "inputs": [
        {
          "internalType": "address payable",
          "name": "wall",
          "type": "address"
        }
      ],
      "name": "updateRewardsWallet",
      "outputs": [],
      "stateMutability": "nonpayable",
      "type": "function"
    },
    {
      "inputs": [
        {
          "internalType": "uint256",
          "name": "value",
          "type": "uint256"
        }
      ],
      "name": "updateTreasuryFee",
      "outputs": [],
      "stateMutability": "nonpayable",
      "type": "function"
    },
    {
      "inputs": [
        {
          "internalType": "address payable",
          "name": "wall",
          "type": "address"
        }
      ],
      "name": "updateTreasuryWallet",
      "outputs": [],
      "stateMutability": "nonpayable",
      "type": "function"
    },
    {
      "inputs": [],
      "name": "usdcToken",
      "outputs": [
        {
          "internalType": "address",
          "name": "",
          "type": "address"
        }
      ],
      "stateMutability": "view",
      "type": "function"
    },
    {
      "stateMutability": "payable",
      "type": "receive"
    }
  ],
  "transactionHash": "0x82b989f27f4dd214c9982fee9b62782578cbfc649ce0d228b31b363d590bcbd1",
  "args": [],
  "numDeployments": 5,
  "solcInputHash": "e7486c273c53415f55ac23be561af459",
  "bytecode": "0x608060405234801561001057600080fd5b506151cb806100206000396000f3fe6080604052600436106104775760003560e01c806382a8ebad1161024a578063b62496f511610139578063dd62ed3e116100b6578063f2e030231161007a578063f2e0302314610e00578063f2fde38b14610e20578063f34f152214610e40578063f764bfb514610e56578063f78d5c5514610e7c57600080fd5b8063dd62ed3e14610d72578063e0583ec014610d92578063e33b7de314610dac578063e37ba8f914610dc1578063eb71c5d914610de157600080fd5b8063ce7c2ac2116100fd578063ce7c2ac214610ca5578063cfc0d02414610cdb578063d631f70514610cfb578063d79779b214610d1b578063d8c6404b14610d5157600080fd5b8063b62496f514610c0f578063b9bd393314610c3f578063bcb8ebfc14610c59578063cc32d17614610c6f578063cd6e18f114610c8557600080fd5b80639852595c116101c7578063a457c2d71161018b578063a457c2d714610b79578063a5f3d00314610b99578063a9059cbb14610baf578063aaf5bfc314610bcf578063b3328aae14610bef57600080fd5b80639852595c14610ab65780639a6e80db14610aec5780639c64291c14610b0c5780639dc73a4914610b2c5780639ff41fe314610b4c57600080fd5b80638da5cb5b1161020e5780638da5cb5b14610a235780638e67566314610a415780639149acbc14610a6157806395d89b4114610a815780639723283014610a9657600080fd5b806382a8ebad1461098d578063839df919146109ad57806386838116146109cd5780638b83209b146109e35780638d28914414610a0357600080fd5b8063393061401161036657806357dae063116102e35780636d9ae0be116102a75780636d9ae0be1461090257806370a0823114610918578063715018a614610938578063809d458d1461094d578063810be66d1461096d57600080fd5b806357dae063146108625780635dd731fc1461088257806365bfe430146108a2578063665a11ca146108c25780636815a91c146108e257600080fd5b806348df58291161032a57806348df5829146107d757806349bd5a5e146107f7578063545579731461081757806354f12f1f1461082c578063559bf3021461084257600080fd5b8063393061401461074c57806339509351146107625780633a98ef3914610782578063406072a91461079757806348b75044146107b757600080fd5b806313114a9d116103f457806323b872dd116103b857806323b872dd146106c7578063241a38c6146106e75780632bb14e1d146106fa5780633086319d14610710578063313ce5671461073057600080fd5b806313114a9d1461061e5780631694505e1461064257806318160ddd1461066257806319165587146106775780631cdd3be31461069757600080fd5b80630841e9771161043b5780630841e97714610569578063084a6bff14610589578063095ea7b3146105a95780630f1978fb146105d957806311eac855146105f857600080fd5b80630129981c146104bc5780630359fea9146104de57806303d29d281461051457806306fdde031461053457806307a558601461055657600080fd5b366104b7577f6ef95f06320e7a25a04a175ca677b7052bdd97131872c2192525a629f51be77033346040516104ad929190614cb4565b60405180910390a1005b600080fd5b3480156104c857600080fd5b506104dc6104d73660046148ea565b610e9c565b005b3480156104ea57600080fd5b5060d1546104fe906001600160a01b031681565b60405161050b9190614ca0565b60405180910390f35b34801561052057600080fd5b506104dc61052f366004614890565b610f5e565b34801561054057600080fd5b50610549610fb3565b60405161050b9190614e09565b6104dc610564366004614bd4565b611045565b34801561057557600080fd5b506104dc6105843660046148ea565b61110c565b34801561059557600080fd5b506104dc6105a4366004614b5b565b6112ac565b3480156105b557600080fd5b506105c96105c43660046148be565b61132e565b604051901515815260200161050b565b3480156105e557600080fd5b5060d9546105c990610100900460ff1681565b34801561060457600080fd5b5060d9546104fe906201000090046001600160a01b031681565b34801561062a57600080fd5b5061063460d75481565b60405190815260200161050b565b34801561064e57600080fd5b5060ca546104fe906001600160a01b031681565b34801561066e57600080fd5b50603554610634565b34801561068357600080fd5b506104dc6106923660046147f9565b611348565b3480156106a357600080fd5b506105c96106b23660046147f9565b60dd6020526000908152604090205460ff1681565b3480156106d357600080fd5b506105c96106e236600461484f565b61146d565b6104dc6106f5366004614bb2565b611493565b34801561070657600080fd5b5061063460d35481565b34801561071c57600080fd5b506104dc61072b366004614a06565b6114b5565b34801561073c57600080fd5b506040516012815260200161050b565b34801561075857600080fd5b5061063460ce5481565b34801561076e57600080fd5b506105c961077d3660046148be565b611c54565b34801561078e57600080fd5b50609754610634565b3480156107a357600080fd5b506106346107b2366004614816565b611c93565b3480156107c357600080fd5b506104dc6107d2366004614816565b611cbe565b3480156107e357600080fd5b5060d0546104fe906001600160a01b031681565b34801561080357600080fd5b5060cd546104fe906001600160a01b031681565b34801561082357600080fd5b506104dc611e82565b34801561083857600080fd5b5061063460d55481565b34801561084e57600080fd5b506104dc61085d3660046147f9565b612281565b34801561086e57600080fd5b506104dc61087d366004614925565b6122f3565b34801561088e57600080fd5b506104dc61089d3660046147f9565b6129a9565b3480156108ae57600080fd5b506104dc6108bd366004614b5b565b612a23565b3480156108ce57600080fd5b5060d2546104fe906001600160a01b031681565b3480156108ee57600080fd5b506104dc6108fd366004614b5b565b612d3b565b34801561090e57600080fd5b5061063460d85481565b34801561092457600080fd5b506106346109333660046147f9565b612dbb565b34801561094457600080fd5b506104dc612dd6565b34801561095957600080fd5b506104dc6109683660046147f9565b612e0c565b34801561097957600080fd5b5060cf546104fe906001600160a01b031681565b34801561099957600080fd5b5060e0546104fe906001600160a01b031681565b3480156109b957600080fd5b506104dc6109c8366004614b21565b612e7e565b3480156109d957600080fd5b5061063460da5481565b3480156109ef57600080fd5b506104fe6109fe366004614b5b565b612ec2565b348015610a0f57600080fd5b506104dc610a1e3660046147f9565b612ef2565b348015610a2f57600080fd5b506065546001600160a01b03166104fe565b348015610a4d57600080fd5b506104dc610a5c366004614b5b565b612f89565b348015610a6d57600080fd5b506104dc610a7c366004614b21565b61300b565b348015610a8d57600080fd5b5061054961304f565b348015610aa257600080fd5b506104dc610ab1366004614b5b565b61305e565b348015610ac257600080fd5b50610634610ad13660046147f9565b6001600160a01b03166000908152609a602052604090205490565b348015610af857600080fd5b5060c9546104fe906001600160a01b031681565b348015610b1857600080fd5b506104dc610b273660046148ea565b6130e0565b348015610b3857600080fd5b506104dc610b47366004614b21565b613226565b348015610b5857600080fd5b50610634610b673660046147f9565b60dc6020526000908152604090205481565b348015610b8557600080fd5b506105c9610b943660046148be565b613263565b348015610ba557600080fd5b5061063460d65481565b348015610bbb57600080fd5b506105c9610bca3660046148be565b613300565b348015610bdb57600080fd5b506104dc610bea3660046147f9565b61330e565b348015610bfb57600080fd5b506104dc610c0a366004614b21565b613362565b348015610c1b57600080fd5b506105c9610c2a3660046147f9565b60de6020526000908152604090205460ff1681565b348015610c4b57600080fd5b5060df546105c99060ff1681565b348015610c6557600080fd5b5061063460cb5481565b348015610c7b57600080fd5b5061063460d45481565b348015610c9157600080fd5b506104dc610ca03660046147f9565b61339f565b348015610cb157600080fd5b50610634610cc03660046147f9565b6001600160a01b031660009081526099602052604090205490565b348015610ce757600080fd5b506104dc610cf63660046147f9565b61343a565b348015610d0757600080fd5b506104dc610d163660046148be565b6134ac565b348015610d2757600080fd5b50610634610d363660046147f9565b6001600160a01b03166000908152609c602052604090205490565b348015610d5d57600080fd5b5060d9546105c990600160b01b900460ff1681565b348015610d7e57600080fd5b50610634610d8d366004614816565b6135a4565b348015610d9e57600080fd5b5060d9546105c99060ff1681565b348015610db857600080fd5b50609854610634565b348015610dcd57600080fd5b506104dc610ddc3660046147f9565b6135cf565b348015610ded57600080fd5b5060df546105c990610100900460ff1681565b348015610e0c57600080fd5b506104dc610e1b3660046148ea565b613641565b348015610e2c57600080fd5b506104dc610e3b3660046147f9565b6136a1565b348015610e4c57600080fd5b5061063460db5481565b348015610e6257600080fd5b5060df546104fe906201000090046001600160a01b031681565b348015610e8857600080fd5b506104dc610e97366004614b5b565b61373c565b3382610ea782612dbb565b1015610ece5760405162461bcd60e51b8152600401610ec590614f17565b60405180910390fd5b60e054610ee69082906001600160a01b0316856137be565b60e0546001600160a01b03166380be66cf82878787610f05884261505a565b6040518663ffffffff1660e01b8152600401610f25959493929190614cf1565b600060405180830381600087803b158015610f3f57600080fd5b505af1158015610f53573d6000803e3d6000fd5b505050505050505050565b6065546001600160a01b03163314610f885760405162461bcd60e51b8152600401610ec590614f4e565b6001600160a01b0391909116600090815260dd60205260409020805460ff1916911515919091179055565b606060368054610fc2906150f6565b80601f0160208091040260200160405190810160405280929190818152602001828054610fee906150f6565b801561103b5780601f106110105761010080835404028352916020019161103b565b820191906000526020600020905b81548152906001019060200180831161101e57829003601f168201915b5050505050905090565b33348311156110a15760405162461bcd60e51b815260206004820152602260248201527f535741503a206d73672e76616c7565206c657373207468616e20736c69707061604482015261676560f01b6064820152608401610ec5565b60e0546001600160a01b031663ed9705da3483876110bf874261505a565b6040516001600160e01b031960e087901b1681526001600160a01b039093166004840152602483019190915260448201526064016000604051808303818588803b158015610f3f57600080fd5b6040516370a0823160e01b81523390859085906001600160a01b038316906370a082319061113e908690600401614ca0565b60206040518083038186803b15801561115657600080fd5b505afa15801561116a573d6000803e3d6000fd5b505050506040513d601f19601f8201168201806040525081019061118e9190614b74565b10156111ac5760405162461bcd60e51b8152600401610ec590614f17565b60e0546040516323b872dd60e01b81526001600160a01b03808416926323b872dd926111e092879216908a90600401614ccd565b602060405180830381600087803b1580156111fa57600080fd5b505af115801561120e573d6000803e3d6000fd5b505050506040513d601f19601f820116820180604052508101906112329190614b3e565b5060e0546001600160a01b0316636e54a8a083888888611252894261505a565b6040518663ffffffff1660e01b8152600401611272959493929190614cf1565b600060405180830381600087803b15801561128c57600080fd5b505af11580156112a0573d6000803e3d6000fd5b50505050505050505050565b6065546001600160a01b031633146112d65760405162461bcd60e51b8152600401610ec590614f4e565b60008160d45460d65460d5546112ec919061505a565b6112f6919061505a565b611300919061505a565b905060648111156113235760405162461bcd60e51b8152600401610ec590614f83565b60d39190915560d755565b60003361133c81858561385c565b60019150505b92915050565b6001600160a01b03811660009081526099602052604090205461137d5760405162461bcd60e51b8152600401610ec590614e86565b600061138860985490565b611392904761505a565b905060006113bf83836113ba866001600160a01b03166000908152609a602052604090205490565b613980565b9050806113de5760405162461bcd60e51b8152600401610ec590614ecc565b6001600160a01b0383166000908152609a60205260408120805483929061140690849061505a565b92505081905550806098600082825461141f919061505a565b9091555061142f905083826139c6565b7fdf20fd1e76bc69d672e4814fafb2c449bba3a5369d8359adf9e05e6fde87b0568382604051611460929190614cb4565b60405180910390a1505050565b60003361147b858285613adf565b6114868585856137be565b60019150505b9392505050565b60e054339034906001600160a01b0316638f6e53b78284876110bf884261505a565b60df54610100900460ff1661150c5760405162461bcd60e51b815260206004820152601d60248201527f434f4e544d494e543a206d696e7420636f6e74732064697361626c65640000006044820152606401610ec5565b60cc548251111561155a5760405162461bcd60e51b8152602060048201526018602482015277434f4e544d494e543a20746f6f206d616e7920636f6e747360401b6044820152606401610ec5565b60005b825181101561161357600383828151811061157a5761157a615162565b6020026020010151511180156115aa5750602183828151811061159f5761159f615162565b602002602001015151105b6116015760405162461bcd60e51b815260206004820152602260248201527f434f4e544d494e543a20696d70726f7065722063686172616374657220636f756044820152611b9d60f21b6064820152608401610ec5565b8061160b81615131565b91505061155d565b50338061165b5760405162461bcd60e51b8152602060048201526016602482015275434f4e544d494e543a207a65726f206164647265737360501b6044820152606401610ec5565b6001600160a01b038116600090815260dd602052604090205460ff16156116c45760405162461bcd60e51b815260206004820152601d60248201527f434f4e544d494e543a20626c61636b6c697374656420616464726573730000006044820152606401610ec5565b60cf546001600160a01b038281169116148015906116f0575060d1546001600160a01b03828116911614155b801561170a575060d0546001600160a01b03828116911614155b6117615760405162461bcd60e51b815260206004820152602260248201527f434f4e544d494e543a20706f6f6c732063616e6e6f742063726561746520636f6044820152611b9d60f21b6064820152608401610ec5565b60c9546040516344fea1b960e01b81526000916001600160a01b0316906344fea1b990611792908590600401614ca0565b60206040518083038186803b1580156117aa57600080fd5b505afa1580156117be573d6000803e3d6000fd5b505050506040513d601f19601f820116820180604052508101906117e29190614b74565b905060cb548451826117f4919061505a565b11156118425760405162461bcd60e51b815260206004820152601c60248201527f434f4e544d494e543a2072656163686564206d696e74206c696d6974000000006044820152606401610ec5565b835160c954604051630c75361360e31b8152600092916001600160a01b0316906363a9b09890611876908890600401614dfb565b60206040518083038186803b15801561188e57600080fd5b505afa1580156118a2573d6000803e3d6000fd5b505050506040513d601f19601f820116820180604052508101906118c69190614b74565b6118d09190615094565b90508060ce60008282546118e4919061505a565b909155508190506118f484612dbb565b10156119525760405162461bcd60e51b815260206004820152602760248201527f434f4e544d494e543a2042616c616e636520746f6f206c6f7720666f7220637260448201526632b0ba34b7b71760c91b6064820152608401610ec5565b6000606460d654836119649190615094565b61196e9190615072565b60d954909150610100900460ff16156119cd5760408051808201909152600781526619195d999d5b9960ca1b602082015260cf5460d9546119c892879290916001600160a01b03918216918a916201000090041686613b59565b611a05565b60408051808201909152600781526619195d999d5b9960ca1b602082015260cf54611a059186916001600160a01b0316883086613b59565b6000606460d35484611a179190615094565b611a219190615072565b6040805180820190915260078152667265776172647360c81b602082015260d154919250611a5d918791906001600160a01b0316893086613b59565b6000606460d45485611a6f9190615094565b611a799190615072565b60d95490915060ff1615611ad457604080518082019091526008815267747265617375727960c01b602082015260d05460d954611acf92899290916001600160a01b03918216918c916201000090041686613b59565b611b0d565b604080518082019091526008815267747265617375727960c01b602082015260d054611b0d9188916001600160a01b03168a3086613b59565b6000606460d55486611b1f9190615094565b611b299190615072565b6040805180820190915260098152686c697175696469747960b81b602082015260d254919250611b67918991906001600160a01b03168b3086613b59565b6000818385611b76888a6150b3565b611b8091906150b3565b611b8a91906150b3565b611b9491906150b3565b90508015611ba757611ba7883083613c9f565b60c95460405162a6998d60e31b81526001600160a01b0390911690630534cc6890611bda908b908e908e90600401614d22565b600060405180830381600087803b158015611bf457600080fd5b505af1158015611c08573d6000803e3d6000fd5b505050507f9972942513a6d471ac125572d271f49ecc9652139451120363f1333713c42c43888a8c51604051611c4093929190614d9c565b60405180910390a150505050505050505050565b3360008181526034602090815260408083206001600160a01b038716845290915281205490919061133c9082908690611c8e90879061505a565b61385c565b6001600160a01b039182166000908152609d6020908152604080832093909416825291909152205490565b6001600160a01b038116600090815260996020526040902054611cf35760405162461bcd60e51b8152600401610ec590614e86565b6001600160a01b0382166000908152609c60205260408120546040516370a0823160e01b81526001600160a01b038516906370a0823190611d38903090600401614ca0565b60206040518083038186803b158015611d5057600080fd5b505afa158015611d64573d6000803e3d6000fd5b505050506040513d601f19601f82011682018060405250810190611d889190614b74565b611d92919061505a565b90506000611da583836113ba8787611c93565b905080611dc45760405162461bcd60e51b8152600401610ec590614ecc565b6001600160a01b038085166000908152609d6020908152604080832093871683529290529081208054839290611dfb90849061505a565b90915550506001600160a01b0384166000908152609c602052604081208054839290611e2890849061505a565b90915550611e399050848483613e6d565b836001600160a01b03167f3be5b7a71e84ed12875d241991c70855ac5817d847039e17a9d895c1ceb0f18a8483604051611e74929190614cb4565b60405180910390a250505050565b60df54339060ff161515600114611edb5760405162461bcd60e51b815260206004820152601960248201527f43534854414c4c3a20636173686f75742064697361626c6564000000000000006044820152606401610ec5565b6001600160a01b038116611f295760405162461bcd60e51b815260206004820152601560248201527443534854414c4c3a207a65726f206164647265737360581b6044820152606401610ec5565b6001600160a01b038116600090815260dd602052604090205460ff1615611f925760405162461bcd60e51b815260206004820152601c60248201527f43534854414c4c3a20626c61636b6c69737465642061646472657373000000006044820152606401610ec5565b60c9546040516330cd31af60e11b81526000916001600160a01b03169063619a635e90611fc3908590600401614ca0565b60206040518083038186803b158015611fdb57600080fd5b505afa158015611fef573d6000803e3d6000fd5b505050506040513d601f19601f820116820180604052508101906120139190614b74565b9050600081116120655760405162461bcd60e51b815260206004820152601960248201527f43534854414c4c3a20726577617264206e6f74207265616479000000000000006044820152606401610ec5565b60c95460405163d094fa8d60e01b8152600091829182916001600160a01b03169063d094fa8d9061209a908890600401614ca0565b608060405180830381600087803b1580156120b457600080fd5b505af11580156120c8573d6000803e3d6000fd5b505050506040513d601f19601f820116820180604052508101906120ec9190614c00565b60d8549397509195509350915060649061210690826150b3565b6121109085615094565b61211a9190615072565b925060008060d85411156121fc57606460d854866121389190615094565b6121429190615072565b60df5460d1549192506201000090046001600160a01b039081169116146121865760d15460df54612186916001600160a01b039081169162010000900416876137be565b606460d854606461219791906150b3565b6121a19086615094565b6121ab9190615072565b9350606460d85460646121be91906150b3565b6121c89085615094565b6121d29190615072565b9250606460d85460646121e591906150b3565b6121ef9084615094565b6121f99190615072565b91505b61220681866150b3565b60d154909550612220906001600160a01b031687876137be565b604080516001600160a01b03881681526020810187905290810185905260608101849052608081018390527f6717635faad3367ddfa0564bf3540e74269b0c5dfef7720d5512f309dc1b6c869060a0015b60405180910390a1505050505050565b6065546001600160a01b031633146122ab5760405162461bcd60e51b8152600401610ec590614f4e565b6001600160a01b0381166122d15760405162461bcd60e51b8152600401610ec590614e59565b60cf80546001600160a01b0319166001600160a01b0392909216919091179055565b600054610100900460ff1661230e5760005460ff1615612312565b303b155b6123755760405162461bcd60e51b815260206004820152602e60248201527f496e697469616c697a61626c653a20636f6e747261637420697320616c72656160448201526d191e481a5b9a5d1a585b1a5e995960921b6064820152608401610ec5565b600054610100900460ff16158015612397576000805461ffff19166101011790555b600085511180156123a9575060008451115b6123ec5760405162461bcd60e51b815260206004820152601460248201527320a222291013102120a620a721a29022a92927a960611b6044820152606401610ec5565b6123f4613ec3565b612438604051806040016040528060078152602001663078426c6f636b60c81b81525060405180604001604052806003815260200162183c2160e91b815250613ef2565b6124428787613f23565b60006001600160a01b03168560018151811061246057612460615162565b60200260200101516001600160a01b0316141580156124ac575060006001600160a01b03168560028151811061249857612498615162565b60200260200101516001600160a01b031614155b80156124e5575060006001600160a01b0316856003815181106124d1576124d1615162565b60200260200101516001600160a01b031614155b801561251e575060006001600160a01b03168560048151811061250a5761250a615162565b60200260200101516001600160a01b031614155b61255c5760405162461bcd60e51b815260206004820152600f60248201526e1413d3d30816915493c81193d55391608a1b6044820152606401610ec5565b8460018151811061256f5761256f615162565b602002602001015160cf60006101000a8154816001600160a01b0302191690836001600160a01b03160217905550846002815181106125b0576125b0615162565b602002602001015160d260006101000a8154816001600160a01b0302191690836001600160a01b03160217905550846003815181106125f1576125f1615162565b602002602001015160d060006101000a8154816001600160a01b0302191690836001600160a01b031602179055508460048151811061263257612632615162565b602090810291909101015160d180546001600160a01b0319166001600160a01b03909216918217905560df805462010000600160b01b0319166201000090920291909117905582516000908490829061268d5761268d615162565b60200260200101511180156126bc57506000836001815181106126b2576126b2615162565b6020026020010151115b80156126e257506000836002815181106126d8576126d8615162565b6020026020010151115b801561270857506000836003815181106126fe576126fe615162565b6020026020010151115b801561272e575060008360048151811061272457612724615162565b6020026020010151115b61276a5760405162461bcd60e51b815260206004820152600d60248201526c0c094811915154c81193d55391609a1b6044820152606401610ec5565b8260008151811061277d5761277d615162565b602002602001015160d6819055508260018151811061279e5761279e615162565b602002602001015160d481905550826002815181106127bf576127bf615162565b602002602001015160d381905550826003815181106127e0576127e0615162565b602002602001015160d5819055508260048151811061280157612801615162565b602002602001015160d88190555060d45460d65460d55460d354612825919061505a565b61282f919061505a565b612839919061505a565b60d75583518551146128845760405162461bcd60e51b815260206004820152601460248201527320a222291013102120a620a721a29022a92927a960611b6044820152606401610ec5565b60005b85518110156128f1576128df8682815181106128a5576128a5615162565b60200260200101518683815181106128bf576128bf615162565b6020026020010151670de0b6b3a76400006128da9190615094565b613f54565b806128e981615131565b915050612887565b5060355469d3c21bcecceda1000000146129455760405162461bcd60e51b81526020600482015260156024820152741515130814d5541413164811125191880c48135253605a1b6044820152606401610ec5565b60d98054606460cb55600a60cc5561ffff196001600160a01b038516620100000281166001600160b01b0319909216919091176101001790915560df8054610101921691909117905580156129a0576000805461ff00191690555b50505050505050565b6065546001600160a01b031633146129d35760405162461bcd60e51b8152600401610ec590614f4e565b6001600160a01b0381166129f95760405162461bcd60e51b8152600401610ec590614e59565b60df80546001600160a01b03909216620100000262010000600160b01b0319909216919091179055565b60df54339060ff161515600114612a755760405162461bcd60e51b815260206004820152601660248201527510d4d2150e8810d85cda1bdd5d08111a5cd8589b195960521b6044820152606401610ec5565b6001600160a01b038116612ac05760405162461bcd60e51b8152602060048201526012602482015271435348543a207a65726f206164647265737360701b6044820152606401610ec5565b6001600160a01b038116600090815260dd602052604090205460ff1615612b1d5760405162461bcd60e51b815260206004820152601160248201527010d4d2150e88189b1858dadb1a5cdd1959607a1b6044820152606401610ec5565b60c9546040516305cfb67f60e11b81526000916001600160a01b031690630b9f6cfe90612b509085908790600401614cb4565b60206040518083038186803b158015612b6857600080fd5b505afa158015612b7c573d6000803e3d6000fd5b505050506040513d601f19601f82011682018060405250810190612ba09190614b74565b905060008111612beb5760405162461bcd60e51b8152602060048201526016602482015275435348543a20726577617264206e6f7420726561647960501b6044820152606401610ec5565b60d85460009015612c5457606460d85483612c069190615094565b612c109190615072565b60df5460d1549192506201000090046001600160a01b03908116911614612c545760d15460df54612c54916001600160a01b039081169162010000900416846137be565b612c5e81836150b3565b60d154909250612c78906001600160a01b031684846137be565b60c95460405163611015b360e11b815260009182916001600160a01b039091169063c2202b6690612caf9088908a90600401614cb4565b6040805180830381600087803b158015612cc857600080fd5b505af1158015612cdc573d6000803e3d6000fd5b505050506040513d601f19601f82011682018060405250810190612d009190614b8d565b60405191935091507f6df62f67bac1b205a7fb106e3dd59043cdec9d6f2825adf0e0670f3cbcf86ac890612271908790899088908690614dc7565b6065546001600160a01b03163314612d655760405162461bcd60e51b8152600401610ec590614f4e565b6064811115612db65760405162461bcd60e51b815260206004820152601c60248201527f464545533a20636173686f757420657863656564696e672031303025000000006044820152606401610ec5565b60d855565b6001600160a01b031660009081526033602052604090205490565b6065546001600160a01b03163314612e005760405162461bcd60e51b8152600401610ec590614f4e565b612e0a6000614033565b565b6065546001600160a01b03163314612e365760405162461bcd60e51b8152600401610ec590614f4e565b6001600160a01b038116612e5c5760405162461bcd60e51b8152600401610ec590614e59565b60d080546001600160a01b0319166001600160a01b0392909216919091179055565b6065546001600160a01b03163314612ea85760405162461bcd60e51b8152600401610ec590614f4e565b60d980549115156101000261ff0019909216919091179055565b6000609b8281548110612ed757612ed7615162565b6000918252602090912001546001600160a01b031692915050565b6065546001600160a01b03163314612f1c5760405162461bcd60e51b8152600401610ec590614f4e565b6001600160a01b038116612f675760405162461bcd60e51b81526020600482015260126024820152712722abafa1a9269d103d32b9379030b2323960711b6044820152606401610ec5565b60c980546001600160a01b0319166001600160a01b0392909216919091179055565b6065546001600160a01b03163314612fb35760405162461bcd60e51b8152600401610ec590614f4e565b60008160d45460d65460d354612fc9919061505a565b612fd3919061505a565b612fdd919061505a565b905060648111156130005760405162461bcd60e51b8152600401610ec590614f83565b60d59190915560d755565b6065546001600160a01b031633146130355760405162461bcd60e51b8152600401610ec590614f4e565b60df80549115156101000261ff0019909216919091179055565b606060378054610fc2906150f6565b6065546001600160a01b031633146130885760405162461bcd60e51b8152600401610ec590614f4e565b60008160d65460d55460d35461309e919061505a565b6130a8919061505a565b6130b2919061505a565b905060648111156130d55760405162461bcd60e51b8152600401610ec590614f83565b60d49190915560d755565b6040516370a0823160e01b81523390859084906001600160a01b038316906370a0823190613112908690600401614ca0565b60206040518083038186803b15801561312a57600080fd5b505afa15801561313e573d6000803e3d6000fd5b505050506040513d601f19601f820116820180604052508101906131629190614b74565b10156131805760405162461bcd60e51b8152600401610ec590614f17565b60e0546040516323b872dd60e01b81526001600160a01b03808416926323b872dd926131b492879216908990600401614ccd565b602060405180830381600087803b1580156131ce57600080fd5b505af11580156131e2573d6000803e3d6000fd5b505050506040513d601f19601f820116820180604052508101906132069190614b3e565b5060e0546001600160a01b03166374cefd8a83888888611252894261505a565b6065546001600160a01b031633146132505760405162461bcd60e51b8152600401610ec590614f4e565b60d9805460ff1916911515919091179055565b3360008181526034602090815260408083206001600160a01b0387168452909152812054909190838110156132e85760405162461bcd60e51b815260206004820152602560248201527f45524332303a2064656372656173656420616c6c6f77616e63652062656c6f77604482015264207a65726f60d81b6064820152608401610ec5565b6132f5828686840361385c565b506001949350505050565b60003361133c8185856137be565b6065546001600160a01b031633146133385760405162461bcd60e51b8152600401610ec590614f4e565b60d980546001600160a01b03909216620100000262010000600160b01b0319909216919091179055565b6065546001600160a01b0316331461338c5760405162461bcd60e51b8152600401610ec590614f4e565b60df805460ff1916911515919091179055565b6065546001600160a01b031633146133c95760405162461bcd60e51b8152600401610ec590614f4e565b6001600160a01b0381166134185760405162461bcd60e51b81526020600482015260166024820152752722abafa62927aaaa22a91d103d32b9379030b2323960511b6044820152606401610ec5565b60e080546001600160a01b0319166001600160a01b0392909216919091179055565b6065546001600160a01b031633146134645760405162461bcd60e51b8152600401610ec590614f4e565b6001600160a01b03811661348a5760405162461bcd60e51b8152600401610ec590614e59565b60d180546001600160a01b0319166001600160a01b0392909216919091179055565b6065546001600160a01b031633146134d65760405162461bcd60e51b8152600401610ec590614f4e565b6134df30612dbb565b81111561353f5760405162461bcd60e51b815260206004820152602860248201527f534156455f4d495353454e543a20746f6b656e732065786365656420616464726044820152672062616c616e636560c01b6064820152608401610ec5565b6001600160a01b0382166135955760405162461bcd60e51b815260206004820152601a60248201527f534156455f4d495353454e543a207a65726f5f616464726573730000000000006044820152606401610ec5565b6135a03083836137be565b5050565b6001600160a01b03918216600090815260346020908152604080832093909416825291909152205490565b6065546001600160a01b031633146135f95760405162461bcd60e51b8152600401610ec590614f4e565b6001600160a01b03811661361f5760405162461bcd60e51b8152600401610ec590614e59565b60d280546001600160a01b0319166001600160a01b0392909216919091179055565b338361364c82612dbb565b101561366a5760405162461bcd60e51b8152600401610ec590614f17565b60e0546136829082906001600160a01b0316866137be565b60e0546001600160a01b03166388e5249f82878787610f05884261505a565b6065546001600160a01b031633146136cb5760405162461bcd60e51b8152600401610ec590614f4e565b6001600160a01b0381166137305760405162461bcd60e51b815260206004820152602660248201527f4f776e61626c653a206e6577206f776e657220697320746865207a65726f206160448201526564647265737360d01b6064820152608401610ec5565b61373981614033565b50565b6065546001600160a01b031633146137665760405162461bcd60e51b8152600401610ec590614f4e565b60008160d45460d55460d35461377c919061505a565b613786919061505a565b613790919061505a565b905060648111156137b35760405162461bcd60e51b8152600401610ec590614f83565b60d69190915560d755565b6001600160a01b038316600090815260dd602052604090205460ff1615801561380057506001600160a01b038216600090815260dd602052604090205460ff16155b61384c5760405162461bcd60e51b815260206004820152601a60248201527f45524332303a20426c61636b6c697374656420616464726573730000000000006044820152606401610ec5565b613857838383613c9f565b505050565b6001600160a01b0383166138be5760405162461bcd60e51b8152602060048201526024808201527f45524332303a20617070726f76652066726f6d20746865207a65726f206164646044820152637265737360e01b6064820152608401610ec5565b6001600160a01b03821661391f5760405162461bcd60e51b815260206004820152602260248201527f45524332303a20617070726f766520746f20746865207a65726f206164647265604482015261737360f01b6064820152608401610ec5565b6001600160a01b0383811660008181526034602090815260408083209487168084529482529182902085905590518481527f8c5be1e5ebec7d5bd14f71427d1e84f3dd0314c0f7b2291e5b200ac8c7c3b925910160405180910390a3505050565b6097546001600160a01b038416600090815260996020526040812054909183916139aa9086615094565b6139b49190615072565b6139be91906150b3565b949350505050565b80471015613a165760405162461bcd60e51b815260206004820152601d60248201527f416464726573733a20696e73756666696369656e742062616c616e63650000006044820152606401610ec5565b6000826001600160a01b03168260405160006040518083038185875af1925050503d8060008114613a63576040519150601f19603f3d011682016040523d82523d6000602084013e613a68565b606091505b50509050806138575760405162461bcd60e51b815260206004820152603a60248201527f416464726573733a20756e61626c6520746f2073656e642076616c75652c207260448201527f6563697069656e74206d617920686176652072657665727465640000000000006064820152608401610ec5565b6000613aeb84846135a4565b90506000198114613b535781811015613b465760405162461bcd60e51b815260206004820152601d60248201527f45524332303a20696e73756666696369656e7420616c6c6f77616e63650000006044820152606401610ec5565b613b53848484840361385c565b50505050565b6001600160a01b038216301415613bb757613b758685836137be565b7fae65b8cdcf70197aae9eec6cad9075662a0b1f140940b20a5d60413e1d05e8b885848484604051613baa9493929190614e1c565b60405180910390a1613c97565b60e054613bcf9087906001600160a01b0316836137be565b60e054604051632da63c1160e21b81526000916001600160a01b03169063b698f04490613c0490889087908790600401614ccd565b602060405180830381600087803b158015613c1e57600080fd5b505af1158015613c32573d6000803e3d6000fd5b505050506040513d601f19601f82011682018060405250810190613c569190614b74565b90507fae65b8cdcf70197aae9eec6cad9075662a0b1f140940b20a5d60413e1d05e8b886858584604051613c8d9493929190614e1c565b60405180910390a1505b505050505050565b6001600160a01b038316613d035760405162461bcd60e51b815260206004820152602560248201527f45524332303a207472616e736665722066726f6d20746865207a65726f206164604482015264647265737360d81b6064820152608401610ec5565b6001600160a01b038216613d655760405162461bcd60e51b815260206004820152602360248201527f45524332303a207472616e7366657220746f20746865207a65726f206164647260448201526265737360e81b6064820152608401610ec5565b6001600160a01b03831660009081526033602052604090205481811015613ddd5760405162461bcd60e51b815260206004820152602660248201527f45524332303a207472616e7366657220616d6f756e7420657863656564732062604482015265616c616e636560d01b6064820152608401610ec5565b6001600160a01b03808516600090815260336020526040808220858503905591851681529081208054849290613e1490849061505a565b92505081905550826001600160a01b0316846001600160a01b03167fddf252ad1be2c89b69c2b068fc378daa952ba7f163c4a11628f55a4df523b3ef84604051613e6091815260200190565b60405180910390a3613b53565b6138578363a9059cbb60e01b8484604051602401613e8c929190614cb4565b60408051601f198184030181529190526020810180516001600160e01b03166001600160e01b031990931692909217909152614085565b600054610100900460ff16613eea5760405162461bcd60e51b8152600401610ec590614fba565b612e0a614157565b600054610100900460ff16613f195760405162461bcd60e51b8152600401610ec590614fba565b6135a08282614187565b600054610100900460ff16613f4a5760405162461bcd60e51b8152600401610ec590614fba565b6135a082826141d5565b6001600160a01b038216613faa5760405162461bcd60e51b815260206004820152601f60248201527f45524332303a206d696e7420746f20746865207a65726f2061646472657373006044820152606401610ec5565b8060356000828254613fbc919061505a565b90915550506001600160a01b03821660009081526033602052604081208054839290613fe990849061505a565b90915550506040518181526001600160a01b038316906000907fddf252ad1be2c89b69c2b068fc378daa952ba7f163c4a11628f55a4df523b3ef9060200160405180910390a35050565b606580546001600160a01b038381166001600160a01b0319831681179093556040519116919082907f8be0079c531659141344cd1fd0a4f28419497f9722a3daafe3b4186f6b6457e090600090a35050565b60006140da826040518060400160405280602081526020017f5361666545524332303a206c6f772d6c6576656c2063616c6c206661696c6564815250856001600160a01b03166143139092919063ffffffff16565b80519091501561385757808060200190518101906140f89190614b3e565b6138575760405162461bcd60e51b815260206004820152602a60248201527f5361666545524332303a204552433230206f7065726174696f6e20646964206e6044820152691bdd081cdd58d8d9595960b21b6064820152608401610ec5565b600054610100900460ff1661417e5760405162461bcd60e51b8152600401610ec590614fba565b612e0a33614033565b600054610100900460ff166141ae5760405162461bcd60e51b8152600401610ec590614fba565b81516141c190603690602085019061466a565b50805161385790603790602084019061466a565b600054610100900460ff166141fc5760405162461bcd60e51b8152600401610ec590614fba565b80518251146142685760405162461bcd60e51b815260206004820152603260248201527f5061796d656e7453706c69747465723a2070617965657320616e6420736861726044820152710cae640d8cadccee8d040dad2e6dac2e8c6d60731b6064820152608401610ec5565b60008251116142b95760405162461bcd60e51b815260206004820152601a60248201527f5061796d656e7453706c69747465723a206e6f207061796565730000000000006044820152606401610ec5565b60005b8251811015613857576143018382815181106142da576142da615162565b60200260200101518383815181106142f4576142f4615162565b6020026020010151614322565b8061430b81615131565b9150506142bc565b60606139be8484600085614500565b6001600160a01b03821661438d5760405162461bcd60e51b815260206004820152602c60248201527f5061796d656e7453706c69747465723a206163636f756e74206973207468652060448201526b7a65726f206164647265737360a01b6064820152608401610ec5565b600081116143dd5760405162461bcd60e51b815260206004820152601d60248201527f5061796d656e7453706c69747465723a207368617265732061726520300000006044820152606401610ec5565b6001600160a01b038216600090815260996020526040902054156144575760405162461bcd60e51b815260206004820152602b60248201527f5061796d656e7453706c69747465723a206163636f756e7420616c726561647960448201526a206861732073686172657360a81b6064820152608401610ec5565b609b8054600181019091557fbba9db4cdbea0a37c207bbb83e20f828cd4441c49891101dc94fd20dc8efc3490180546001600160a01b0319166001600160a01b03841690811790915560009081526099602052604090208190556097546144bf90829061505a565b6097556040517f40c340f65e17194d14ddddb073d3c9f888e3cb52b5aae0c6c7706b4fbc905fac906144f49084908490614cb4565b60405180910390a15050565b6060824710156145615760405162461bcd60e51b815260206004820152602660248201527f416464726573733a20696e73756666696369656e742062616c616e636520666f6044820152651c8818d85b1b60d21b6064820152608401610ec5565b6001600160a01b0385163b6145b85760405162461bcd60e51b815260206004820152601d60248201527f416464726573733a2063616c6c20746f206e6f6e2d636f6e74726163740000006044820152606401610ec5565b600080866001600160a01b031685876040516145d49190614c84565b60006040518083038185875af1925050503d8060008114614611576040519150601f19603f3d011682016040523d82523d6000602084013e614616565b606091505b5091509150614626828286614631565b979650505050505050565b6060831561464057508161148c565b8251156146505782518084602001fd5b8160405162461bcd60e51b8152600401610ec59190614e09565b828054614676906150f6565b90600052602060002090601f01602090048101928261469857600085556146de565b82601f106146b157805160ff19168380011785556146de565b828001600101855582156146de579182015b828111156146de5782518255916020019190600101906146c3565b506146ea9291506146ee565b5090565b5b808211156146ea57600081556001016146ef565b803561470e8161518e565b919050565b600082601f83011261472457600080fd5b8135602061473961473483615036565b615005565b80838252828201915082860187848660051b890101111561475957600080fd5b60005b8581101561478157813561476f8161518e565b8452928401929084019060010161475c565b5090979650505050505050565b600082601f83011261479f57600080fd5b813560206147af61473483615036565b80838252828201915082860187848660051b89010111156147cf57600080fd5b60005b85811015614781578135845292840192908401906001016147d2565b803561470e816151b1565b60006020828403121561480b57600080fd5b813561148c8161518e565b6000806040838503121561482957600080fd5b82356148348161518e565b915060208301356148448161518e565b809150509250929050565b60008060006060848603121561486457600080fd5b833561486f8161518e565b9250602084013561487f8161518e565b929592945050506040919091013590565b600080604083850312156148a357600080fd5b82356148ae8161518e565b91506020830135614844816151a3565b600080604083850312156148d157600080fd5b82356148dc8161518e565b946020939093013593505050565b6000806000806080858703121561490057600080fd5b843561490b8161518e565b966020860135965060408601359560600135945092505050565b60008060008060008060c0878903121561493e57600080fd5b863567ffffffffffffffff8082111561495657600080fd5b6149628a838b01614713565b9750602089013591508082111561497857600080fd5b6149848a838b0161478e565b9650604089013591508082111561499a57600080fd5b6149a68a838b01614713565b955060608901359150808211156149bc57600080fd5b6149c88a838b0161478e565b945060808901359150808211156149de57600080fd5b506149eb89828a0161478e565b9250506149fa60a08801614703565b90509295509295509295565b6000806040808486031215614a1a57600080fd5b833567ffffffffffffffff80821115614a3257600080fd5b818601915086601f830112614a4657600080fd5b81356020614a5661473483615036565b8083825282820191508286018b848660051b8901011115614a7657600080fd5b60005b85811015614b0157813587811115614a9057600080fd5b8801603f81018e13614aa157600080fd5b8581013588811115614ab557614ab5615178565b614ac7601f8201601f19168801615005565b8181528f8c838501011115614adb57600080fd5b818c84018983013760009181018801919091528552509284019290840190600101614a79565b50508098505050614b138189016147ee565b955050505050509250929050565b600060208284031215614b3357600080fd5b813561148c816151a3565b600060208284031215614b5057600080fd5b815161148c816151a3565b600060208284031215614b6d57600080fd5b5035919050565b600060208284031215614b8657600080fd5b5051919050565b60008060408385031215614ba057600080fd5b825191506020830151614844816151b1565b60008060408385031215614bc557600080fd5b50508035926020909101359150565b600080600060608486031215614be957600080fd5b505081359360208301359350604090920135919050565b60008060008060808587031215614c1657600080fd5b505082516020840151604085015160609095015191969095509092509050565b60038110614c5457634e487b7160e01b600052602160045260246000fd5b9052565b60008151808452614c708160208601602086016150ca565b601f01601f19169290920160200192915050565b60008251614c968184602087016150ca565b9190910192915050565b6001600160a01b0391909116815260200190565b6001600160a01b03929092168252602082015260400190565b6001600160a01b039384168152919092166020820152604081019190915260600190565b6001600160a01b03958616815293909416602084015260408301919091526060820152608081019190915260a00190565b60006060820160018060a01b0386168352602060608185015281865180845260808601915060808160051b870101935082880160005b82811015614d8657607f19888703018452614d74868351614c58565b95509284019290840190600101614d58565b5050505050809150506139be6040830184614c36565b6001600160a01b038416815260608101614db96020830185614c36565b826040830152949350505050565b6001600160a01b0385168152602081018490526040810183905260808101614df26060830184614c36565b95945050505050565b602081016113428284614c36565b60208152600061148c6020830184614c58565b608081526000614e2f6080830187614c58565b9050614e3e6020830186614c36565b6001600160a01b039390931660408201526060015292915050565b6020808252601390820152722aa8222faba0a6261d103d32b9379030b2323960691b604082015260600190565b60208082526026908201527f5061796d656e7453706c69747465723a206163636f756e7420686173206e6f2060408201526573686172657360d01b606082015260800190565b6020808252602b908201527f5061796d656e7453706c69747465723a206163636f756e74206973206e6f742060408201526a191d59481c185e5b595b9d60aa1b606082015260800190565b6020808252601a908201527f535741503a20696e73756666696369656e742062616c616e6365000000000000604082015260600190565b6020808252818101527f4f776e61626c653a2063616c6c6572206973206e6f7420746865206f776e6572604082015260600190565b6020808252601a908201527f464545533a20746f74616c20657863656564696e672031303025000000000000604082015260600190565b6020808252602b908201527f496e697469616c697a61626c653a20636f6e7472616374206973206e6f74206960408201526a6e697469616c697a696e6760a81b606082015260800190565b604051601f8201601f1916810167ffffffffffffffff8111828210171561502e5761502e615178565b604052919050565b600067ffffffffffffffff82111561505057615050615178565b5060051b60200190565b6000821982111561506d5761506d61514c565b500190565b60008261508f57634e487b7160e01b600052601260045260246000fd5b500490565b60008160001904831182151516156150ae576150ae61514c565b500290565b6000828210156150c5576150c561514c565b500390565b60005b838110156150e55781810151838201526020016150cd565b83811115613b535750506000910152565b600181811c9082168061510a57607f821691505b6020821081141561512b57634e487b7160e01b600052602260045260246000fd5b50919050565b60006000198214156151455761514561514c565b5060010190565b634e487b7160e01b600052601160045260246000fd5b634e487b7160e01b600052603260045260246000fd5b634e487b7160e01b600052604160045260246000fd5b6001600160a01b038116811461373957600080fd5b801515811461373957600080fd5b6003811061373957600080fdfea164736f6c6343000807000a",
  "devdoc": {
    "kind": "dev",
    "methods": {
      "allowance(address,address)": {
        "details": "See {IERC20-allowance}."
      },
      "approve(address,uint256)": {
        "details": "See {IERC20-approve}. NOTE: If `amount` is the maximum `uint256`, the allowance is not updated on `transferFrom`. This is semantically equivalent to an infinite approval. Requirements: - `spender` cannot be the zero address."
      },
      "balanceOf(address)": {
        "details": "See {IERC20-balanceOf}."
      },
      "decimals()": {
        "details": "Returns the number of decimals used to get its user representation. For example, if `decimals` equals `2`, a balance of `505` tokens should be displayed to a user as `5.05` (`505 / 10 ** 2`). Tokens usually opt for a value of 18, imitating the relationship between Ether and Wei. This is the value {ERC20} uses, unless this function is overridden; NOTE: This information is only used for _display_ purposes: it in no way affects any of the arithmetic of the contract, including {IERC20-balanceOf} and {IERC20-transfer}."
      },
      "decreaseAllowance(address,uint256)": {
        "details": "Atomically decreases the allowance granted to `spender` by the caller. This is an alternative to {approve} that can be used as a mitigation for problems described in {IERC20-approve}. Emits an {Approval} event indicating the updated allowance. Requirements: - `spender` cannot be the zero address. - `spender` must have allowance for the caller of at least `subtractedValue`."
      },
      "increaseAllowance(address,uint256)": {
        "details": "Atomically increases the allowance granted to `spender` by the caller. This is an alternative to {approve} that can be used as a mitigation for problems described in {IERC20-approve}. Emits an {Approval} event indicating the updated allowance. Requirements: - `spender` cannot be the zero address."
      },
      "name()": {
        "details": "Returns the name of the token."
      },
      "owner()": {
        "details": "Returns the address of the current owner."
      },
      "payee(uint256)": {
        "details": "Getter for the address of the payee number `index`."
      },
      "release(address)": {
        "details": "Triggers a transfer to `account` of the amount of Ether they are owed, according to their percentage of the total shares and their previous withdrawals."
      },
      "release(address,address)": {
        "details": "Triggers a transfer to `account` of the amount of `token` tokens they are owed, according to their percentage of the total shares and their previous withdrawals. `token` must be the address of an IERC20 contract."
      },
      "released(address)": {
        "details": "Getter for the amount of Ether already released to a payee."
      },
      "released(address,address)": {
        "details": "Getter for the amount of `token` tokens already released to a payee. `token` should be the address of an IERC20 contract."
      },
      "renounceOwnership()": {
        "details": "Leaves the contract without owner. It will not be possible to call `onlyOwner` functions anymore. Can only be called by the current owner. NOTE: Renouncing ownership will leave the contract without an owner, thereby removing any functionality that is only available to the owner."
      },
      "shares(address)": {
        "details": "Getter for the amount of shares held by an account."
      },
      "symbol()": {
        "details": "Returns the symbol of the token, usually a shorter version of the name."
      },
      "totalReleased()": {
        "details": "Getter for the total amount of Ether already released."
      },
      "totalReleased(address)": {
        "details": "Getter for the total amount of `token` already released. `token` should be the address of an IERC20 contract."
      },
      "totalShares()": {
        "details": "Getter for the total shares held by payees."
      },
      "totalSupply()": {
        "details": "See {IERC20-totalSupply}."
      },
      "transfer(address,uint256)": {
        "details": "See {IERC20-transfer}. Requirements: - `to` cannot be the zero address. - the caller must have a balance of at least `amount`."
      },
      "transferFrom(address,address,uint256)": {
        "details": "See {IERC20-transferFrom}. Emits an {Approval} event indicating the updated allowance. This is not required by the EIP. See the note at the beginning of {ERC20}. NOTE: Does not update the allowance if the current allowance is the maximum `uint256`. Requirements: - `from` and `to` cannot be the zero address. - `from` must have a balance of at least `amount`. - the caller must have allowance for ``from``'s tokens of at least `amount`."
      },
      "transferOwnership(address)": {
        "details": "Transfers ownership of the contract to a new account (`newOwner`). Can only be called by the current owner."
      }
    },
    "version": 1
  },
  "userdoc": {
    "kind": "user",
    "methods": {},
    "version": 1
  },
  "storageLayout": {
    "storage": [
      {
        "astId": 598,
        "contract": "contracts/ZeroXBlock.sol:ZeroXBlock",
        "label": "_initialized",
        "offset": 0,
        "slot": "0",
        "type": "t_bool"
      },
      {
        "astId": 601,
        "contract": "contracts/ZeroXBlock.sol:ZeroXBlock",
        "label": "_initializing",
        "offset": 1,
        "slot": "0",
        "type": "t_bool"
      },
      {
        "astId": 1889,
        "contract": "contracts/ZeroXBlock.sol:ZeroXBlock",
        "label": "__gap",
        "offset": 0,
        "slot": "1",
        "type": "t_array(t_uint256)50_storage"
      },
      {
        "astId": 684,
        "contract": "contracts/ZeroXBlock.sol:ZeroXBlock",
        "label": "_balances",
        "offset": 0,
        "slot": "51",
        "type": "t_mapping(t_address,t_uint256)"
      },
      {
        "astId": 690,
        "contract": "contracts/ZeroXBlock.sol:ZeroXBlock",
        "label": "_allowances",
        "offset": 0,
        "slot": "52",
        "type": "t_mapping(t_address,t_mapping(t_address,t_uint256))"
      },
      {
        "astId": 692,
        "contract": "contracts/ZeroXBlock.sol:ZeroXBlock",
        "label": "_totalSupply",
        "offset": 0,
        "slot": "53",
        "type": "t_uint256"
      },
      {
        "astId": 694,
        "contract": "contracts/ZeroXBlock.sol:ZeroXBlock",
        "label": "_name",
        "offset": 0,
        "slot": "54",
        "type": "t_string_storage"
      },
      {
        "astId": 696,
        "contract": "contracts/ZeroXBlock.sol:ZeroXBlock",
        "label": "_symbol",
        "offset": 0,
        "slot": "55",
        "type": "t_string_storage"
      },
      {
        "astId": 1277,
        "contract": "contracts/ZeroXBlock.sol:ZeroXBlock",
        "label": "__gap",
        "offset": 0,
        "slot": "56",
        "type": "t_array(t_uint256)45_storage"
      },
      {
        "astId": 10,
        "contract": "contracts/ZeroXBlock.sol:ZeroXBlock",
        "label": "_owner",
        "offset": 0,
        "slot": "101",
        "type": "t_address"
      },
      {
        "astId": 122,
        "contract": "contracts/ZeroXBlock.sol:ZeroXBlock",
        "label": "__gap",
        "offset": 0,
        "slot": "102",
        "type": "t_array(t_uint256)49_storage"
      },
      {
        "astId": 163,
        "contract": "contracts/ZeroXBlock.sol:ZeroXBlock",
        "label": "_totalShares",
        "offset": 0,
        "slot": "151",
        "type": "t_uint256"
      },
      {
        "astId": 165,
        "contract": "contracts/ZeroXBlock.sol:ZeroXBlock",
        "label": "_totalReleased",
        "offset": 0,
        "slot": "152",
        "type": "t_uint256"
      },
      {
        "astId": 169,
        "contract": "contracts/ZeroXBlock.sol:ZeroXBlock",
        "label": "_shares",
        "offset": 0,
        "slot": "153",
        "type": "t_mapping(t_address,t_uint256)"
      },
      {
        "astId": 173,
        "contract": "contracts/ZeroXBlock.sol:ZeroXBlock",
        "label": "_released",
        "offset": 0,
        "slot": "154",
        "type": "t_mapping(t_address,t_uint256)"
      },
      {
        "astId": 176,
        "contract": "contracts/ZeroXBlock.sol:ZeroXBlock",
        "label": "_payees",
        "offset": 0,
        "slot": "155",
        "type": "t_array(t_address)dyn_storage"
      },
      {
        "astId": 181,
        "contract": "contracts/ZeroXBlock.sol:ZeroXBlock",
        "label": "_erc20TotalReleased",
        "offset": 0,
        "slot": "156",
        "type": "t_mapping(t_contract(IERC20Upgradeable)1356,t_uint256)"
      },
      {
        "astId": 188,
        "contract": "contracts/ZeroXBlock.sol:ZeroXBlock",
        "label": "_erc20Released",
        "offset": 0,
        "slot": "157",
        "type": "t_mapping(t_contract(IERC20Upgradeable)1356,t_mapping(t_address,t_uint256))"
      },
      {
        "astId": 590,
        "contract": "contracts/ZeroXBlock.sol:ZeroXBlock",
        "label": "__gap",
        "offset": 0,
        "slot": "158",
        "type": "t_array(t_uint256)43_storage"
      },
      {
        "astId": 2586,
        "contract": "contracts/ZeroXBlock.sol:ZeroXBlock",
        "label": "_crm",
        "offset": 0,
        "slot": "201",
        "type": "t_contract(CONTRewardManagement)6742"
      },
      {
        "astId": 2589,
        "contract": "contracts/ZeroXBlock.sol:ZeroXBlock",
        "label": "uniswapV2Router",
        "offset": 0,
        "slot": "202",
        "type": "t_contract(IJoeRouter02)8562"
      },
      {
        "astId": 2594,
        "contract": "contracts/ZeroXBlock.sol:ZeroXBlock",
        "label": "ownedContsLimit",
        "offset": 0,
        "slot": "203",
        "type": "t_uint256"
      },
      {
        "astId": 2596,
        "contract": "contracts/ZeroXBlock.sol:ZeroXBlock",
        "label": "mintContLimit",
        "offset": 0,
        "slot": "204",
        "type": "t_uint256"
      },
      {
        "astId": 2598,
        "contract": "contracts/ZeroXBlock.sol:ZeroXBlock",
        "label": "uniswapV2Pair",
        "offset": 0,
        "slot": "205",
        "type": "t_address"
      },
      {
        "astId": 2600,
        "contract": "contracts/ZeroXBlock.sol:ZeroXBlock",
        "label": "totalTokensPaidForMinting",
        "offset": 0,
        "slot": "206",
        "type": "t_uint256"
      },
      {
        "astId": 2602,
        "contract": "contracts/ZeroXBlock.sol:ZeroXBlock",
        "label": "developmentFundPool",
        "offset": 0,
        "slot": "207",
        "type": "t_address"
      },
      {
        "astId": 2604,
        "contract": "contracts/ZeroXBlock.sol:ZeroXBlock",
        "label": "treasuryPool",
        "offset": 0,
        "slot": "208",
        "type": "t_address"
      },
      {
        "astId": 2606,
        "contract": "contracts/ZeroXBlock.sol:ZeroXBlock",
        "label": "rewardsPool",
        "offset": 0,
        "slot": "209",
        "type": "t_address"
      },
      {
        "astId": 2608,
        "contract": "contracts/ZeroXBlock.sol:ZeroXBlock",
        "label": "liquidityPool",
        "offset": 0,
        "slot": "210",
        "type": "t_address"
      },
      {
        "astId": 2610,
        "contract": "contracts/ZeroXBlock.sol:ZeroXBlock",
        "label": "rewardsFee",
        "offset": 0,
        "slot": "211",
        "type": "t_uint256"
      },
      {
        "astId": 2612,
        "contract": "contracts/ZeroXBlock.sol:ZeroXBlock",
        "label": "treasuryFee",
        "offset": 0,
        "slot": "212",
        "type": "t_uint256"
      },
      {
        "astId": 2614,
        "contract": "contracts/ZeroXBlock.sol:ZeroXBlock",
        "label": "liquidityPoolFee",
        "offset": 0,
        "slot": "213",
        "type": "t_uint256"
      },
      {
        "astId": 2616,
        "contract": "contracts/ZeroXBlock.sol:ZeroXBlock",
        "label": "developmentFee",
        "offset": 0,
        "slot": "214",
        "type": "t_uint256"
      },
      {
        "astId": 2618,
        "contract": "contracts/ZeroXBlock.sol:ZeroXBlock",
        "label": "totalFees",
        "offset": 0,
        "slot": "215",
        "type": "t_uint256"
      },
      {
        "astId": 2620,
        "contract": "contracts/ZeroXBlock.sol:ZeroXBlock",
        "label": "cashoutFee",
        "offset": 0,
        "slot": "216",
        "type": "t_uint256"
      },
      {
        "astId": 2622,
        "contract": "contracts/ZeroXBlock.sol:ZeroXBlock",
        "label": "enableAutoSwapTreasury",
        "offset": 0,
        "slot": "217",
        "type": "t_bool"
      },
      {
        "astId": 2624,
        "contract": "contracts/ZeroXBlock.sol:ZeroXBlock",
        "label": "enableAutoSwapDevFund",
        "offset": 1,
        "slot": "217",
        "type": "t_bool"
      },
      {
        "astId": 2626,
        "contract": "contracts/ZeroXBlock.sol:ZeroXBlock",
        "label": "usdcToken",
        "offset": 2,
        "slot": "217",
        "type": "t_address"
      },
      {
        "astId": 2628,
        "contract": "contracts/ZeroXBlock.sol:ZeroXBlock",
        "label": "antiBotEnabled",
        "offset": 22,
        "slot": "217",
        "type": "t_bool"
      },
      {
        "astId": 2630,
        "contract": "contracts/ZeroXBlock.sol:ZeroXBlock",
        "label": "launchBuyLimit",
        "offset": 0,
        "slot": "218",
        "type": "t_uint256"
      },
      {
        "astId": 2632,
        "contract": "contracts/ZeroXBlock.sol:ZeroXBlock",
        "label": "launchBuyTimeout",
        "offset": 0,
        "slot": "219",
        "type": "t_uint256"
      },
      {
        "astId": 2636,
        "contract": "contracts/ZeroXBlock.sol:ZeroXBlock",
        "label": "_lastBuyOnLaunch",
        "offset": 0,
        "slot": "220",
        "type": "t_mapping(t_address,t_uint256)"
      },
      {
        "astId": 2640,
        "contract": "contracts/ZeroXBlock.sol:ZeroXBlock",
        "label": "_isBlacklisted",
        "offset": 0,
        "slot": "221",
        "type": "t_mapping(t_address,t_bool)"
      },
      {
        "astId": 2644,
        "contract": "contracts/ZeroXBlock.sol:ZeroXBlock",
        "label": "automatedMarketMakerPairs",
        "offset": 0,
        "slot": "222",
        "type": "t_mapping(t_address,t_bool)"
      },
      {
        "astId": 2646,
        "contract": "contracts/ZeroXBlock.sol:ZeroXBlock",
        "label": "enableCashout",
        "offset": 0,
        "slot": "223",
        "type": "t_bool"
      },
      {
        "astId": 2648,
        "contract": "contracts/ZeroXBlock.sol:ZeroXBlock",
        "label": "enableMintConts",
        "offset": 1,
        "slot": "223",
        "type": "t_bool"
      },
      {
        "astId": 2650,
        "contract": "contracts/ZeroXBlock.sol:ZeroXBlock",
        "label": "cashoutTaxPool",
        "offset": 2,
        "slot": "223",
        "type": "t_address"
      },
      {
        "astId": 2653,
        "contract": "contracts/ZeroXBlock.sol:ZeroXBlock",
        "label": "_liqRouter",
        "offset": 0,
        "slot": "224",
        "type": "t_contract(LiquidityRouter)8093"
      }
    ],
    "types": {
      "t_address": {
        "encoding": "inplace",
        "label": "address",
        "numberOfBytes": "20"
      },
      "t_array(t_address)dyn_storage": {
        "base": "t_address",
        "encoding": "dynamic_array",
        "label": "address[]",
        "numberOfBytes": "32"
      },
      "t_array(t_uint256)43_storage": {
        "base": "t_uint256",
        "encoding": "inplace",
        "label": "uint256[43]",
        "numberOfBytes": "1376"
      },
      "t_array(t_uint256)45_storage": {
        "base": "t_uint256",
        "encoding": "inplace",
        "label": "uint256[45]",
        "numberOfBytes": "1440"
      },
      "t_array(t_uint256)49_storage": {
        "base": "t_uint256",
        "encoding": "inplace",
        "label": "uint256[49]",
        "numberOfBytes": "1568"
      },
      "t_array(t_uint256)50_storage": {
        "base": "t_uint256",
        "encoding": "inplace",
        "label": "uint256[50]",
        "numberOfBytes": "1600"
      },
      "t_bool": {
        "encoding": "inplace",
        "label": "bool",
        "numberOfBytes": "1"
      },
      "t_contract(CONTRewardManagement)6742": {
        "encoding": "inplace",
        "label": "contract CONTRewardManagement",
        "numberOfBytes": "20"
      },
      "t_contract(IERC20Upgradeable)1356": {
        "encoding": "inplace",
        "label": "contract IERC20Upgradeable",
        "numberOfBytes": "20"
      },
      "t_contract(IJoeRouter02)8562": {
        "encoding": "inplace",
        "label": "contract IJoeRouter02",
        "numberOfBytes": "20"
      },
      "t_contract(LiquidityRouter)8093": {
        "encoding": "inplace",
        "label": "contract LiquidityRouter",
        "numberOfBytes": "20"
      },
      "t_mapping(t_address,t_bool)": {
        "encoding": "mapping",
        "key": "t_address",
        "label": "mapping(address => bool)",
        "numberOfBytes": "32",
        "value": "t_bool"
      },
      "t_mapping(t_address,t_mapping(t_address,t_uint256))": {
        "encoding": "mapping",
        "key": "t_address",
        "label": "mapping(address => mapping(address => uint256))",
        "numberOfBytes": "32",
        "value": "t_mapping(t_address,t_uint256)"
      },
      "t_mapping(t_address,t_uint256)": {
        "encoding": "mapping",
        "key": "t_address",
        "label": "mapping(address => uint256)",
        "numberOfBytes": "32",
        "value": "t_uint256"
      },
      "t_mapping(t_contract(IERC20Upgradeable)1356,t_mapping(t_address,t_uint256))": {
        "encoding": "mapping",
        "key": "t_contract(IERC20Upgradeable)1356",
        "label": "mapping(contract IERC20Upgradeable => mapping(address => uint256))",
        "numberOfBytes": "32",
        "value": "t_mapping(t_address,t_uint256)"
      },
      "t_mapping(t_contract(IERC20Upgradeable)1356,t_uint256)": {
        "encoding": "mapping",
        "key": "t_contract(IERC20Upgradeable)1356",
        "label": "mapping(contract IERC20Upgradeable => uint256)",
        "numberOfBytes": "32",
        "value": "t_uint256"
      },
      "t_string_storage": {
        "encoding": "bytes",
        "label": "string",
        "numberOfBytes": "32"
      },
      "t_uint256": {
        "encoding": "inplace",
        "label": "uint256",
        "numberOfBytes": "32"
      }
    }
  }
}