{
  "address": "0xDA368Dd36A0aE8D5098e1B71a46c8ec03B7a59Ce",
  "abi": [
    {
      "anonymous": false,
      "inputs": [
        {
          "indexed": true,
          "internalType": "address",
          "name": "owner",
          "type": "address"
        },
        {
          "indexed": true,
          "internalType": "address",
          "name": "spender",
          "type": "address"
        },
        {
          "indexed": false,
          "internalType": "uint256",
          "name": "value",
          "type": "uint256"
        }
      ],
      "name": "Approval",
      "type": "event"
    },
    {
      "anonymous": false,
      "inputs": [
        {
          "indexed": false,
          "internalType": "address",
          "name": "sender",
          "type": "address"
        },
        {
          "indexed": false,
          "internalType": "enum ContType",
          "name": "cType",
          "type": "uint8"
        },
        {
          "indexed": false,
          "internalType": "uint256",
          "name": "contsCount",
          "type": "uint256"
        }
      ],
      "name": "ContsMinted",
      "type": "event"
    },
    {
      "anonymous": false,
      "inputs": [
        {
          "indexed": true,
          "internalType": "contract IERC20Upgradeable",
          "name": "token",
          "type": "address"
        },
        {
          "indexed": false,
          "internalType": "address",
          "name": "to",
          "type": "address"
        },
        {
          "indexed": false,
          "internalType": "uint256",
          "name": "amount",
          "type": "uint256"
        }
      ],
      "name": "ERC20PaymentReleased",
      "type": "event"
    },
    {
      "anonymous": false,
      "inputs": [
        {
          "indexed": false,
          "internalType": "string",
          "name": "walletName",
          "type": "string"
        },
        {
          "indexed": false,
          "internalType": "enum ContType",
          "name": "cType",
          "type": "uint8"
        },
        {
          "indexed": false,
          "internalType": "address",
          "name": "token",
          "type": "address"
        },
        {
          "indexed": false,
          "internalType": "uint256",
          "name": "amount",
          "type": "uint256"
        }
      ],
      "name": "Funded",
      "type": "event"
    },
    {
      "anonymous": false,
      "inputs": [
        {
          "indexed": true,
          "internalType": "address",
          "name": "previousOwner",
          "type": "address"
        },
        {
          "indexed": true,
          "internalType": "address",
          "name": "newOwner",
          "type": "address"
        }
      ],
      "name": "OwnershipTransferred",
      "type": "event"
    },
    {
      "anonymous": false,
      "inputs": [
        {
          "indexed": false,
          "internalType": "address",
          "name": "account",
          "type": "address"
        },
        {
          "indexed": false,
          "internalType": "uint256",
          "name": "shares",
          "type": "uint256"
        }
      ],
      "name": "PayeeAdded",
      "type": "event"
    },
    {
      "anonymous": false,
      "inputs": [
        {
          "indexed": false,
          "internalType": "address",
          "name": "from",
          "type": "address"
        },
        {
          "indexed": false,
          "internalType": "uint256",
          "name": "amount",
          "type": "uint256"
        }
      ],
      "name": "PaymentReceived",
      "type": "event"
    },
    {
      "anonymous": false,
      "inputs": [
        {
          "indexed": false,
          "internalType": "address",
          "name": "to",
          "type": "address"
        },
        {
          "indexed": false,
          "internalType": "uint256",
          "name": "amount",
          "type": "uint256"
        }
      ],
      "name": "PaymentReleased",
      "type": "event"
    },
    {
      "anonymous": false,
      "inputs": [
        {
          "indexed": false,
          "internalType": "address",
          "name": "sender",
          "type": "address"
        },
        {
          "indexed": false,
          "internalType": "uint256",
          "name": "amount",
          "type": "uint256"
        },
        {
          "indexed": false,
          "internalType": "uint256",
          "name": "squareAmount",
          "type": "uint256"
        },
        {
          "indexed": false,
          "internalType": "uint256",
          "name": "cubeAmount",
          "type": "uint256"
        },
        {
          "indexed": false,
          "internalType": "uint256",
          "name": "tessAmount",
          "type": "uint256"
        }
      ],
      "name": "RewardCashoutAll",
      "type": "event"
    },
    {
      "anonymous": false,
      "inputs": [
        {
          "indexed": false,
          "internalType": "address",
          "name": "sender",
          "type": "address"
        },
        {
          "indexed": false,
          "internalType": "uint256",
          "name": "index",
          "type": "uint256"
        },
        {
          "indexed": false,
          "internalType": "uint256",
          "name": "amount",
          "type": "uint256"
        },
        {
          "indexed": false,
          "internalType": "enum ContType",
          "name": "cType",
          "type": "uint8"
        }
      ],
      "name": "RewardCashoutOne",
      "type": "event"
    },
    {
      "anonymous": false,
      "inputs": [
        {
          "indexed": true,
          "internalType": "address",
          "name": "from",
          "type": "address"
        },
        {
          "indexed": true,
          "internalType": "address",
          "name": "to",
          "type": "address"
        },
        {
          "indexed": false,
          "internalType": "uint256",
          "name": "value",
          "type": "uint256"
        }
      ],
      "name": "Transfer",
      "type": "event"
    },
    {
      "inputs": [],
      "name": "_crm",
      "outputs": [
        {
          "internalType": "contract CONTRewardManagement",
          "name": "",
          "type": "address"
        }
      ],
      "stateMutability": "view",
      "type": "function"
    },
    {
      "inputs": [
        {
          "internalType": "address",
          "name": "",
          "type": "address"
        }
      ],
      "name": "_isBlacklisted",
      "outputs": [
        {
          "internalType": "bool",
          "name": "",
          "type": "bool"
        }
      ],
      "stateMutability": "view",
      "type": "function"
    },
    {
      "inputs": [
        {
          "internalType": "address",
          "name": "",
          "type": "address"
        }
      ],
      "name": "_lastBuyOnLaunch",
      "outputs": [
        {
          "internalType": "uint256",
          "name": "",
          "type": "uint256"
        }
      ],
      "stateMutability": "view",
      "type": "function"
    },
    {
      "inputs": [],
      "name": "_liqRouter",
      "outputs": [
        {
          "internalType": "contract LiquidityRouter",
          "name": "",
          "type": "address"
        }
      ],
      "stateMutability": "view",
      "type": "function"
    },
    {
      "inputs": [
        {
          "internalType": "address",
          "name": "addr",
          "type": "address"
        }
      ],
      "name": "_walletName",
      "outputs": [
        {
          "internalType": "string",
          "name": "",
          "type": "string"
        }
      ],
      "stateMutability": "view",
      "type": "function"
    },
    {
      "inputs": [
        {
          "internalType": "address",
          "name": "owner",
          "type": "address"
        },
        {
          "internalType": "address",
          "name": "spender",
          "type": "address"
        }
      ],
      "name": "allowance",
      "outputs": [
        {
          "internalType": "uint256",
          "name": "",
          "type": "uint256"
        }
      ],
      "stateMutability": "view",
      "type": "function"
    },
    {
      "inputs": [],
      "name": "antiBotEnabled",
      "outputs": [
        {
          "internalType": "bool",
          "name": "",
          "type": "bool"
        }
      ],
      "stateMutability": "view",
      "type": "function"
    },
    {
      "inputs": [
        {
          "internalType": "address",
          "name": "spender",
          "type": "address"
        },
        {
          "internalType": "uint256",
          "name": "amount",
          "type": "uint256"
        }
      ],
      "name": "approve",
      "outputs": [
        {
          "internalType": "bool",
          "name": "",
          "type": "bool"
        }
      ],
      "stateMutability": "nonpayable",
      "type": "function"
    },
    {
      "inputs": [
        {
          "internalType": "address",
          "name": "",
          "type": "address"
        }
      ],
      "name": "automatedMarketMakerPairs",
      "outputs": [
        {
          "internalType": "bool",
          "name": "",
          "type": "bool"
        }
      ],
      "stateMutability": "view",
      "type": "function"
    },
    {
      "inputs": [
        {
          "internalType": "address",
          "name": "account",
          "type": "address"
        }
      ],
      "name": "balanceOf",
      "outputs": [
        {
          "internalType": "uint256",
          "name": "",
          "type": "uint256"
        }
      ],
      "stateMutability": "view",
      "type": "function"
    },
    {
      "inputs": [],
      "name": "cashoutAll",
      "outputs": [],
      "stateMutability": "nonpayable",
      "type": "function"
    },
    {
      "inputs": [],
      "name": "cashoutFee",
      "outputs": [
        {
          "internalType": "uint256",
          "name": "",
          "type": "uint256"
        }
      ],
      "stateMutability": "view",
      "type": "function"
    },
    {
      "inputs": [
        {
          "internalType": "uint256",
          "name": "_contIndex",
          "type": "uint256"
        }
      ],
      "name": "cashoutReward",
      "outputs": [],
      "stateMutability": "nonpayable",
      "type": "function"
    },
    {
      "inputs": [],
      "name": "cashoutTaxPool",
      "outputs": [
        {
          "internalType": "address",
          "name": "",
          "type": "address"
        }
      ],
      "stateMutability": "view",
      "type": "function"
    },
    {
      "inputs": [
        {
          "internalType": "bool",
          "name": "newVal",
          "type": "bool"
        }
      ],
      "name": "changeEnableAutoSwapCashout",
      "outputs": [],
      "stateMutability": "nonpayable",
      "type": "function"
    },
    {
      "inputs": [
        {
          "internalType": "bool",
          "name": "newVal",
          "type": "bool"
        }
      ],
      "name": "changeEnableAutoSwapDevFund",
      "outputs": [],
      "stateMutability": "nonpayable",
      "type": "function"
    },
    {
      "inputs": [
        {
          "internalType": "bool",
          "name": "newVal",
          "type": "bool"
        }
      ],
      "name": "changeEnableAutoSwapTreasury",
      "outputs": [],
      "stateMutability": "nonpayable",
      "type": "function"
    },
    {
      "inputs": [],
      "name": "decimals",
      "outputs": [
        {
          "internalType": "uint8",
          "name": "",
          "type": "uint8"
        }
      ],
      "stateMutability": "view",
      "type": "function"
    },
    {
      "inputs": [
        {
          "internalType": "address",
          "name": "spender",
          "type": "address"
        },
        {
          "internalType": "uint256",
          "name": "subtractedValue",
          "type": "uint256"
        }
      ],
      "name": "decreaseAllowance",
      "outputs": [
        {
          "internalType": "bool",
          "name": "",
          "type": "bool"
        }
      ],
      "stateMutability": "nonpayable",
      "type": "function"
    },
    {
      "inputs": [],
      "name": "developmentFee",
      "outputs": [
        {
          "internalType": "uint256",
          "name": "",
          "type": "uint256"
        }
      ],
      "stateMutability": "view",
      "type": "function"
    },
    {
      "inputs": [],
      "name": "developmentFundPool",
      "outputs": [
        {
          "internalType": "address",
          "name": "",
          "type": "address"
        }
      ],
      "stateMutability": "view",
      "type": "function"
    },
    {
      "inputs": [],
      "name": "enableAutoSwapCashout",
      "outputs": [
        {
          "internalType": "bool",
          "name": "",
          "type": "bool"
        }
      ],
      "stateMutability": "view",
      "type": "function"
    },
    {
      "inputs": [],
      "name": "enableAutoSwapDevFund",
      "outputs": [
        {
          "internalType": "bool",
          "name": "",
          "type": "bool"
        }
      ],
      "stateMutability": "view",
      "type": "function"
    },
    {
      "inputs": [],
      "name": "enableAutoSwapTreasury",
      "outputs": [
        {
          "internalType": "bool",
          "name": "",
          "type": "bool"
        }
      ],
      "stateMutability": "view",
      "type": "function"
    },
    {
      "inputs": [],
      "name": "enableCashout",
      "outputs": [
        {
          "internalType": "bool",
          "name": "",
          "type": "bool"
        }
      ],
      "stateMutability": "view",
      "type": "function"
    },
    {
      "inputs": [],
      "name": "enableMintConts",
      "outputs": [
        {
          "internalType": "bool",
          "name": "",
          "type": "bool"
        }
      ],
      "stateMutability": "view",
      "type": "function"
    },
    {
      "inputs": [
        {
          "internalType": "address",
          "name": "spender",
          "type": "address"
        },
        {
          "internalType": "uint256",
          "name": "addedValue",
          "type": "uint256"
        }
      ],
      "name": "increaseAllowance",
      "outputs": [
        {
          "internalType": "bool",
          "name": "",
          "type": "bool"
        }
      ],
      "stateMutability": "nonpayable",
      "type": "function"
    },
    {
      "inputs": [
        {
          "internalType": "address[]",
          "name": "payees",
          "type": "address[]"
        },
        {
          "internalType": "uint256[]",
          "name": "shares",
          "type": "uint256[]"
        },
        {
          "internalType": "address[]",
          "name": "addresses",
          "type": "address[]"
        },
        {
          "internalType": "uint256[]",
          "name": "balances",
          "type": "uint256[]"
        },
        {
          "internalType": "uint256[]",
          "name": "fees",
          "type": "uint256[]"
        },
        {
          "internalType": "address",
          "name": "usdcAddr",
          "type": "address"
        }
      ],
      "name": "initialize",
      "outputs": [],
      "stateMutability": "nonpayable",
      "type": "function"
    },
    {
      "inputs": [],
      "name": "launchBuyLimit",
      "outputs": [
        {
          "internalType": "uint256",
          "name": "",
          "type": "uint256"
        }
      ],
      "stateMutability": "view",
      "type": "function"
    },
    {
      "inputs": [],
      "name": "launchBuyTimeout",
      "outputs": [
        {
          "internalType": "uint256",
          "name": "",
          "type": "uint256"
        }
      ],
      "stateMutability": "view",
      "type": "function"
    },
    {
      "inputs": [],
      "name": "liquidityPool",
      "outputs": [
        {
          "internalType": "address",
          "name": "",
          "type": "address"
        }
      ],
      "stateMutability": "view",
      "type": "function"
    },
    {
      "inputs": [],
      "name": "liquidityPoolFee",
      "outputs": [
        {
          "internalType": "uint256",
          "name": "",
          "type": "uint256"
        }
      ],
      "stateMutability": "view",
      "type": "function"
    },
    {
      "inputs": [
        {
          "internalType": "string[]",
          "name": "names",
          "type": "string[]"
        },
        {
          "internalType": "enum ContType",
          "name": "_cType",
          "type": "uint8"
        }
      ],
      "name": "mintConts",
      "outputs": [],
      "stateMutability": "nonpayable",
      "type": "function"
    },
    {
      "inputs": [],
      "name": "name",
      "outputs": [
        {
          "internalType": "string",
          "name": "",
          "type": "string"
        }
      ],
      "stateMutability": "view",
      "type": "function"
    },
    {
      "inputs": [],
      "name": "ownedContsLimit",
      "outputs": [
        {
          "internalType": "uint256",
          "name": "",
          "type": "uint256"
        }
      ],
      "stateMutability": "view",
      "type": "function"
    },
    {
      "inputs": [],
      "name": "owner",
      "outputs": [
        {
          "internalType": "address",
          "name": "",
          "type": "address"
        }
      ],
      "stateMutability": "view",
      "type": "function"
    },
    {
      "inputs": [
        {
          "internalType": "uint256",
          "name": "index",
          "type": "uint256"
        }
      ],
      "name": "payee",
      "outputs": [
        {
          "internalType": "address",
          "name": "",
          "type": "address"
        }
      ],
      "stateMutability": "view",
      "type": "function"
    },
    {
      "inputs": [
        {
          "internalType": "address payable",
          "name": "account",
          "type": "address"
        }
      ],
      "name": "release",
      "outputs": [],
      "stateMutability": "nonpayable",
      "type": "function"
    },
    {
      "inputs": [
        {
          "internalType": "contract IERC20Upgradeable",
          "name": "token",
          "type": "address"
        },
        {
          "internalType": "address",
          "name": "account",
          "type": "address"
        }
      ],
      "name": "release",
      "outputs": [],
      "stateMutability": "nonpayable",
      "type": "function"
    },
    {
      "inputs": [
        {
          "internalType": "contract IERC20Upgradeable",
          "name": "token",
          "type": "address"
        },
        {
          "internalType": "address",
          "name": "account",
          "type": "address"
        }
      ],
      "name": "released",
      "outputs": [
        {
          "internalType": "uint256",
          "name": "",
          "type": "uint256"
        }
      ],
      "stateMutability": "view",
      "type": "function"
    },
    {
      "inputs": [
        {
          "internalType": "address",
          "name": "account",
          "type": "address"
        }
      ],
      "name": "released",
      "outputs": [
        {
          "internalType": "uint256",
          "name": "",
          "type": "uint256"
        }
      ],
      "stateMutability": "view",
      "type": "function"
    },
    {
      "inputs": [],
      "name": "renounceOwnership",
      "outputs": [],
      "stateMutability": "nonpayable",
      "type": "function"
    },
    {
      "inputs": [],
      "name": "rewardsFee",
      "outputs": [
        {
          "internalType": "uint256",
          "name": "",
          "type": "uint256"
        }
      ],
      "stateMutability": "view",
      "type": "function"
    },
    {
      "inputs": [],
      "name": "rewardsPool",
      "outputs": [
        {
          "internalType": "address",
          "name": "",
          "type": "address"
        }
      ],
      "stateMutability": "view",
      "type": "function"
    },
    {
      "inputs": [
        {
          "internalType": "address",
          "name": "account",
          "type": "address"
        },
        {
          "internalType": "bool",
          "name": "value",
          "type": "bool"
        }
      ],
      "name": "setBlacklistStatus",
      "outputs": [],
      "stateMutability": "nonpayable",
      "type": "function"
    },
    {
      "inputs": [
        {
          "internalType": "address",
          "name": "crm",
          "type": "address"
        }
      ],
      "name": "setContManagement",
      "outputs": [],
      "stateMutability": "nonpayable",
      "type": "function"
    },
    {
      "inputs": [
        {
          "internalType": "bool",
          "name": "_enableCashout",
          "type": "bool"
        }
      ],
      "name": "setEnableCashout",
      "outputs": [],
      "stateMutability": "nonpayable",
      "type": "function"
    },
    {
      "inputs": [
        {
          "internalType": "bool",
          "name": "value",
          "type": "bool"
        }
      ],
      "name": "setEnableMintConts",
      "outputs": [],
      "stateMutability": "nonpayable",
      "type": "function"
    },
    {
      "inputs": [
        {
          "internalType": "address payable",
          "name": "liqRouter",
          "type": "address"
        }
      ],
      "name": "setLiquidityRouter",
      "outputs": [],
      "stateMutability": "nonpayable",
      "type": "function"
    },
    {
      "inputs": [
        {
          "internalType": "address",
          "name": "newAddress",
          "type": "address"
        }
      ],
      "name": "setUSDCAddress",
      "outputs": [],
      "stateMutability": "nonpayable",
      "type": "function"
    },
    {
      "inputs": [
        {
          "internalType": "address",
          "name": "account",
          "type": "address"
        }
      ],
      "name": "shares",
      "outputs": [
        {
          "internalType": "uint256",
          "name": "",
          "type": "uint256"
        }
      ],
      "stateMutability": "view",
      "type": "function"
    },
    {
      "inputs": [
        {
          "internalType": "address",
          "name": "tokenAddr",
          "type": "address"
        },
        {
          "internalType": "uint256",
          "name": "amountOut",
          "type": "uint256"
        },
        {
          "internalType": "uint256",
          "name": "amountInMax",
          "type": "uint256"
        },
        {
          "internalType": "uint256",
          "name": "wait",
          "type": "uint256"
        }
      ],
      "name": "swap0xBForExactToken",
      "outputs": [],
      "stateMutability": "nonpayable",
      "type": "function"
    },
    {
      "inputs": [
        {
          "internalType": "uint256",
          "name": "amountOut",
          "type": "uint256"
        },
        {
          "internalType": "uint256",
          "name": "amountInMax",
          "type": "uint256"
        },
        {
          "internalType": "uint256",
          "name": "wait",
          "type": "uint256"
        }
      ],
      "name": "swapAVAXForExact0xB",
      "outputs": [],
      "stateMutability": "payable",
      "type": "function"
    },
    {
      "inputs": [
        {
          "internalType": "address",
          "name": "tokenAddr",
          "type": "address"
        },
        {
          "internalType": "uint256",
          "name": "amountIn",
          "type": "uint256"
        },
        {
          "internalType": "uint256",
          "name": "amountOutMin",
          "type": "uint256"
        },
        {
          "internalType": "uint256",
          "name": "wait",
          "type": "uint256"
        }
      ],
      "name": "swapExact0xBForToken",
      "outputs": [],
      "stateMutability": "nonpayable",
      "type": "function"
    },
    {
      "inputs": [
        {
          "internalType": "uint256",
          "name": "amountOutMin",
          "type": "uint256"
        },
        {
          "internalType": "uint256",
          "name": "wait",
          "type": "uint256"
        }
      ],
      "name": "swapExactAVAXFor0xB",
      "outputs": [],
      "stateMutability": "payable",
      "type": "function"
    },
    {
      "inputs": [
        {
          "internalType": "address",
          "name": "tokenAddr",
          "type": "address"
        },
        {
          "internalType": "uint256",
          "name": "amountIn",
          "type": "uint256"
        },
        {
          "internalType": "uint256",
          "name": "amountOutMin",
          "type": "uint256"
        },
        {
          "internalType": "uint256",
          "name": "wait",
          "type": "uint256"
        }
      ],
      "name": "swapExactTokenFor0xB",
      "outputs": [],
      "stateMutability": "nonpayable",
      "type": "function"
    },
    {
      "inputs": [
        {
          "internalType": "address",
          "name": "tokenAddr",
          "type": "address"
        },
        {
          "internalType": "uint256",
          "name": "amountOut",
          "type": "uint256"
        },
        {
          "internalType": "uint256",
          "name": "amountInMax",
          "type": "uint256"
        },
        {
          "internalType": "uint256",
          "name": "wait",
          "type": "uint256"
        }
      ],
      "name": "swapTokenForExact0xB",
      "outputs": [],
      "stateMutability": "nonpayable",
      "type": "function"
    },
    {
      "inputs": [],
      "name": "symbol",
      "outputs": [
        {
          "internalType": "string",
          "name": "",
          "type": "string"
        }
      ],
      "stateMutability": "view",
      "type": "function"
    },
    {
      "inputs": [],
      "name": "totalFees",
      "outputs": [
        {
          "internalType": "uint256",
          "name": "",
          "type": "uint256"
        }
      ],
      "stateMutability": "view",
      "type": "function"
    },
    {
      "inputs": [
        {
          "internalType": "contract IERC20Upgradeable",
          "name": "token",
          "type": "address"
        }
      ],
      "name": "totalReleased",
      "outputs": [
        {
          "internalType": "uint256",
          "name": "",
          "type": "uint256"
        }
      ],
      "stateMutability": "view",
      "type": "function"
    },
    {
      "inputs": [],
      "name": "totalReleased",
      "outputs": [
        {
          "internalType": "uint256",
          "name": "",
          "type": "uint256"
        }
      ],
      "stateMutability": "view",
      "type": "function"
    },
    {
      "inputs": [],
      "name": "totalShares",
      "outputs": [
        {
          "internalType": "uint256",
          "name": "",
          "type": "uint256"
        }
      ],
      "stateMutability": "view",
      "type": "function"
    },
    {
      "inputs": [],
      "name": "totalSupply",
      "outputs": [
        {
          "internalType": "uint256",
          "name": "",
          "type": "uint256"
        }
      ],
      "stateMutability": "view",
      "type": "function"
    },
    {
      "inputs": [],
      "name": "totalTokensPaidForMinting",
      "outputs": [
        {
          "internalType": "uint256",
          "name": "",
          "type": "uint256"
        }
      ],
      "stateMutability": "view",
      "type": "function"
    },
    {
      "inputs": [
        {
          "internalType": "address",
          "name": "to",
          "type": "address"
        },
        {
          "internalType": "uint256",
          "name": "amount",
          "type": "uint256"
        }
      ],
      "name": "transfer",
      "outputs": [
        {
          "internalType": "bool",
          "name": "",
          "type": "bool"
        }
      ],
      "stateMutability": "nonpayable",
      "type": "function"
    },
    {
      "inputs": [
        {
          "internalType": "address",
          "name": "from",
          "type": "address"
        },
        {
          "internalType": "address",
          "name": "to",
          "type": "address"
        },
        {
          "internalType": "uint256",
          "name": "amount",
          "type": "uint256"
        }
      ],
      "name": "transferFrom",
      "outputs": [
        {
          "internalType": "bool",
          "name": "",
          "type": "bool"
        }
      ],
      "stateMutability": "nonpayable",
      "type": "function"
    },
    {
      "inputs": [
        {
          "internalType": "address",
          "name": "newOwner",
          "type": "address"
        }
      ],
      "name": "transferOwnership",
      "outputs": [],
      "stateMutability": "nonpayable",
      "type": "function"
    },
    {
      "inputs": [],
      "name": "treasuryFee",
      "outputs": [
        {
          "internalType": "uint256",
          "name": "",
          "type": "uint256"
        }
      ],
      "stateMutability": "view",
      "type": "function"
    },
    {
      "inputs": [],
      "name": "treasuryPool",
      "outputs": [
        {
          "internalType": "address",
          "name": "",
          "type": "address"
        }
      ],
      "stateMutability": "view",
      "type": "function"
    },
    {
      "inputs": [],
      "name": "uniswapV2Pair",
      "outputs": [
        {
          "internalType": "address",
          "name": "",
          "type": "address"
        }
      ],
      "stateMutability": "view",
      "type": "function"
    },
    {
      "inputs": [],
      "name": "uniswapV2Router",
      "outputs": [
        {
          "internalType": "contract IJoeRouter02",
          "name": "",
          "type": "address"
        }
      ],
      "stateMutability": "view",
      "type": "function"
    },
    {
      "inputs": [
        {
          "internalType": "uint256",
          "name": "value",
          "type": "uint256"
        }
      ],
      "name": "updateCashoutFee",
      "outputs": [],
      "stateMutability": "nonpayable",
      "type": "function"
    },
    {
      "inputs": [
        {
          "internalType": "address payable",
          "name": "wall",
          "type": "address"
        }
      ],
      "name": "updateCashoutTaxPool",
      "outputs": [],
      "stateMutability": "nonpayable",
      "type": "function"
    },
    {
      "inputs": [
        {
          "internalType": "uint256",
          "name": "value",
          "type": "uint256"
        }
      ],
      "name": "updateDevelopmentFee",
      "outputs": [],
      "stateMutability": "nonpayable",
      "type": "function"
    },
    {
      "inputs": [
        {
          "internalType": "address payable",
          "name": "wall",
          "type": "address"
        }
      ],
      "name": "updateDevelopmentFundWallet",
      "outputs": [],
      "stateMutability": "nonpayable",
      "type": "function"
    },
    {
      "inputs": [
        {
          "internalType": "uint256",
          "name": "value",
          "type": "uint256"
        }
      ],
      "name": "updateLiquidityFee",
      "outputs": [],
      "stateMutability": "nonpayable",
      "type": "function"
    },
    {
      "inputs": [
        {
          "internalType": "address payable",
          "name": "wall",
          "type": "address"
        }
      ],
      "name": "updateLiquidityWallet",
      "outputs": [],
      "stateMutability": "nonpayable",
      "type": "function"
    },
    {
      "inputs": [
        {
          "internalType": "uint256",
          "name": "value",
          "type": "uint256"
        }
      ],
      "name": "updateRewardsFee",
      "outputs": [],
      "stateMutability": "nonpayable",
      "type": "function"
    },
    {
      "inputs": [
        {
          "internalType": "address payable",
          "name": "wall",
          "type": "address"
        }
      ],
      "name": "updateRewardsWallet",
      "outputs": [],
      "stateMutability": "nonpayable",
      "type": "function"
    },
    {
      "inputs": [
        {
          "internalType": "uint256",
          "name": "value",
          "type": "uint256"
        }
      ],
      "name": "updateTreasuryFee",
      "outputs": [],
      "stateMutability": "nonpayable",
      "type": "function"
    },
    {
      "inputs": [
        {
          "internalType": "address payable",
          "name": "wall",
          "type": "address"
        }
      ],
      "name": "updateTreasuryWallet",
      "outputs": [],
      "stateMutability": "nonpayable",
      "type": "function"
    },
    {
      "inputs": [],
      "name": "usdcToken",
      "outputs": [
        {
          "internalType": "address",
          "name": "",
          "type": "address"
        }
      ],
      "stateMutability": "view",
      "type": "function"
    },
    {
      "stateMutability": "payable",
      "type": "receive"
    }
  ],
  "transactionHash": "0x804bf9eb214cd18d59e0e7e9e4ed84954df9d49e2316ed378c75b5447b48f452",
  "args": [],
  "numDeployments": 11,
  "solcInputHash": "d7eeceee3136fec70dce362539db5897",
  "bytecode": "0x608060405234801561001057600080fd5b506157b880620000216000396000f3fe60806040526004361061048d5760003560e01c806382a8ebad11610255578063b3328aae11610144578063d8c6404b116100c1578063eb71c5d911610085578063eb71c5d914610e38578063f2e0302314610e57578063f2fde38b14610e77578063f34f152214610e97578063f764bfb514610ead578063f78d5c5514610ed357600080fd5b8063d8c6404b14610da8578063dd62ed3e14610dc9578063e0583ec014610de9578063e33b7de314610e03578063e37ba8f914610e1857600080fd5b8063cc32d17611610108578063cc32d17614610ce6578063cd6e18f114610cfc578063ce7c2ac214610d1c578063cfc0d02414610d52578063d79779b214610d7257600080fd5b8063b3328aae14610c46578063b62496f514610c66578063b9bd393314610c96578063ba2734d214610cb0578063bcb8ebfc14610cd057600080fd5b806397232830116101d25780639ff41fe3116101965780639ff41fe314610ba3578063a457c2d714610bd0578063a5f3d00314610bf0578063a9059cbb14610c06578063aaf5bfc314610c2657600080fd5b80639723283014610aed5780639852595c14610b0d5780639a6e80db14610b435780639c64291c14610b635780639dc73a4914610b8357600080fd5b80638d289144116102195780638d28914414610a5a5780638da5cb5b14610a7a5780638e67566314610a985780639149acbc14610ab857806395d89b4114610ad857600080fd5b806382a8ebad146109c4578063839df919146109e457806383dcd37614610a045780638683811614610a245780638b83209b14610a3a57600080fd5b8063313ce5671161037c578063559bf302116102f95780636815a91c116102bd5780636815a91c146109195780636d9ae0be1461093957806370a082311461094f578063715018a61461096f578063809d458d14610984578063810be66d146109a457600080fd5b8063559bf3021461087957806357dae063146108995780635dd731fc146108b957806365bfe430146108d9578063665a11ca146108f957600080fd5b806348b750441161034057806348b75044146107ee57806348df58291461080e57806349bd5a5e1461082e578063545579731461084e57806354f12f1f1461086357600080fd5b8063313ce56714610767578063393061401461078357806339509351146107995780633a98ef39146107b9578063406072a9146107ce57600080fd5b806311eac8551161040a5780631cdd3be3116103ce5780631cdd3be3146106ce57806323b872dd146106fe578063241a38c61461071e5780632bb14e1d146107315780633086319d1461074757600080fd5b806311eac8551461062f57806313114a9d146106555780631694505e1461067957806318160ddd1461069957806319165587146106ae57600080fd5b80630841e977116104515780630841e9771461057f578063084a6bff1461059f578063095ea7b3146105bf5780630db92449146105ef5780630f1978fb1461061057600080fd5b80630129981c146104d25780630359fea9146104f457806303d29d281461052a57806306fdde031461054a57806307a558601461056c57600080fd5b366104cd577f6ef95f06320e7a25a04a175ca677b7052bdd97131872c2192525a629f51be77033346040516104c392919061523b565b60405180910390a1005b600080fd5b3480156104de57600080fd5b506104f26104ed366004614e4d565b610ef3565b005b34801561050057600080fd5b5060d154610514906001600160a01b031681565b6040516105219190615227565b60405180910390f35b34801561053657600080fd5b506104f2610545366004614df3565b611092565b34801561055657600080fd5b5061055f6110e7565b6040516105219190615390565b6104f261057a36600461515b565b611179565b34801561058b57600080fd5b506104f261059a366004614e4d565b61137e565b3480156105ab57600080fd5b506104f26105ba3660046150be565b6115c3565b3480156105cb57600080fd5b506105df6105da366004614e21565b611645565b6040519015158152602001610521565b3480156105fb57600080fd5b5060e0546105df90600160a01b900460ff1681565b34801561061c57600080fd5b5060d9546105df90610100900460ff1681565b34801561063b57600080fd5b5060d954610514906201000090046001600160a01b031681565b34801561066157600080fd5b5061066b60d75481565b604051908152602001610521565b34801561068557600080fd5b5060ca54610514906001600160a01b031681565b3480156106a557600080fd5b5060355461066b565b3480156106ba57600080fd5b506104f26106c9366004614d3f565b61165f565b3480156106da57600080fd5b506105df6106e9366004614d3f565b60dd6020526000908152604090205460ff1681565b34801561070a57600080fd5b506105df610719366004614db2565b611784565b6104f261072c366004615115565b6117aa565b34801561073d57600080fd5b5061066b60d35481565b34801561075357600080fd5b506104f2610762366004614f69565b6117cf565b34801561077357600080fd5b5060405160128152602001610521565b34801561078f57600080fd5b5061066b60ce5481565b3480156107a557600080fd5b506105df6107b4366004614e21565b611eb0565b3480156107c557600080fd5b5060975461066b565b3480156107da57600080fd5b5061066b6107e9366004614d79565b611eef565b3480156107fa57600080fd5b506104f2610809366004614d79565b611f1a565b34801561081a57600080fd5b5060d054610514906001600160a01b031681565b34801561083a57600080fd5b5060cd54610514906001600160a01b031681565b34801561085a57600080fd5b506104f26120de565b34801561086f57600080fd5b5061066b60d55481565b34801561088557600080fd5b506104f2610894366004614d3f565b6126ca565b3480156108a557600080fd5b506104f26108b4366004614e88565b61273c565b3480156108c557600080fd5b506104f26108d4366004614d3f565b612df2565b3480156108e557600080fd5b506104f26108f43660046150be565b612e6c565b34801561090557600080fd5b5060d254610514906001600160a01b031681565b34801561092557600080fd5b506104f26109343660046150be565b6131f5565b34801561094557600080fd5b5061066b60d85481565b34801561095b57600080fd5b5061066b61096a366004614d3f565b613275565b34801561097b57600080fd5b506104f2613290565b34801561099057600080fd5b506104f261099f366004614d3f565b6132c6565b3480156109b057600080fd5b5060cf54610514906001600160a01b031681565b3480156109d057600080fd5b5060e054610514906001600160a01b031681565b3480156109f057600080fd5b506104f26109ff366004615084565b613338565b348015610a1057600080fd5b5061055f610a1f366004614d3f565b61337c565b348015610a3057600080fd5b5061066b60da5481565b348015610a4657600080fd5b50610514610a553660046150be565b613483565b348015610a6657600080fd5b506104f2610a75366004614d3f565b6134b3565b348015610a8657600080fd5b506065546001600160a01b0316610514565b348015610aa457600080fd5b506104f2610ab33660046150be565b61354a565b348015610ac457600080fd5b506104f2610ad3366004615084565b6135cc565b348015610ae457600080fd5b5061055f613610565b348015610af957600080fd5b506104f2610b083660046150be565b61361f565b348015610b1957600080fd5b5061066b610b28366004614d3f565b6001600160a01b03166000908152609a602052604090205490565b348015610b4f57600080fd5b5060c954610514906001600160a01b031681565b348015610b6f57600080fd5b506104f2610b7e366004614e4d565b6136a1565b348015610b8f57600080fd5b506104f2610b9e366004615084565b6137ea565b348015610baf57600080fd5b5061066b610bbe366004614d3f565b60dc6020526000908152604090205481565b348015610bdc57600080fd5b506105df610beb366004614e21565b613827565b348015610bfc57600080fd5b5061066b60d65481565b348015610c1257600080fd5b506105df610c21366004614e21565b6138c4565b348015610c3257600080fd5b506104f2610c41366004614d3f565b6138d2565b348015610c5257600080fd5b506104f2610c61366004615084565b613972565b348015610c7257600080fd5b506105df610c81366004614d3f565b60de6020526000908152604090205460ff1681565b348015610ca257600080fd5b5060df546105df9060ff1681565b348015610cbc57600080fd5b506104f2610ccb366004615084565b6139af565b348015610cdc57600080fd5b5061066b60cb5481565b348015610cf257600080fd5b5061066b60d45481565b348015610d0857600080fd5b506104f2610d17366004614d3f565b6139f7565b348015610d2857600080fd5b5061066b610d37366004614d3f565b6001600160a01b031660009081526099602052604090205490565b348015610d5e57600080fd5b506104f2610d6d366004614d3f565b613a92565b348015610d7e57600080fd5b5061066b610d8d366004614d3f565b6001600160a01b03166000908152609c602052604090205490565b348015610db457600080fd5b5060d9546105df90600160b01b900460ff1681565b348015610dd557600080fd5b5061066b610de4366004614d79565b613b04565b348015610df557600080fd5b5060d9546105df9060ff1681565b348015610e0f57600080fd5b5060985461066b565b348015610e2457600080fd5b506104f2610e33366004614d3f565b613b2f565b348015610e4457600080fd5b5060df546105df90610100900460ff1681565b348015610e6357600080fd5b506104f2610e72366004614e4d565b613ba1565b348015610e8357600080fd5b506104f2610e92366004614d3f565b613c04565b348015610ea357600080fd5b5061066b60db5481565b348015610eb957600080fd5b5060df54610514906201000090046001600160a01b031681565b348015610edf57600080fd5b506104f2610eee3660046150be565b613c9f565b3382610efe82613275565b1015610f255760405162461bcd60e51b8152600401610f1c906154e4565b60405180910390fd5b60e054610f3d9082906001600160a01b031685613d21565b60e0546000906001600160a01b03166380be66cf83888888610f5f8942615627565b6040518663ffffffff1660e01b8152600401610f7f959493929190615278565b6040805180830381600087803b158015610f9857600080fd5b505af1158015610fac573d6000803e3d6000fd5b505050506040513d601f19601f82011682018060405250810190610fd09190615137565b90508091505060008051602061578c83398151915261106e60e060009054906101000a90046001600160a01b03166001600160a01b03166311eb47dc6040518163ffffffff1660e01b815260040160206040518083038186803b15801561103657600080fd5b505afa15801561104a573d6000803e3d6000fd5b505050506040513d601f19601f82011682018060405250810190610a1f9190614d5c565b6003308460405161108294939291906153a3565b60405180910390a1505050505050565b6065546001600160a01b031633146110bc5760405162461bcd60e51b8152600401610f1c9061551b565b6001600160a01b0391909116600090815260dd60205260409020805460ff1916911515919091179055565b6060603680546110f6906156c3565b80601f0160208091040260200160405190810160405280929190818152602001828054611122906156c3565b801561116f5780601f106111445761010080835404028352916020019161116f565b820191906000526020600020905b81548152906001019060200180831161115257829003601f168201915b5050505050905090565b33348311156111d55760405162461bcd60e51b815260206004820152602260248201527f535741503a206d73672e76616c7565206c657373207468616e20736c69707061604482015261676560f01b6064820152608401610f1c565b60e0546000906001600160a01b031663ed9705da3484886111f68842615627565b6040516001600160e01b031960e087901b1681526001600160a01b0390931660048401526024830191909152604482015260640160408051808303818588803b15801561124257600080fd5b505af1158015611256573d6000803e3d6000fd5b50505050506040513d601f19601f8201168201806040525081019061127b9190615137565b90508091505060008051602061578c8339815191526112e160e060009054906101000a90046001600160a01b03166001600160a01b03166311eb47dc6040518163ffffffff1660e01b815260040160206040518083038186803b15801561103657600080fd5b60e0546040805163eb6d3a1160e01b815290516003926001600160a01b03169163eb6d3a11916004808301926020929190829003018186803b15801561132657600080fd5b505afa15801561133a573d6000803e3d6000fd5b505050506040513d601f19601f8201168201806040525081019061135e9190614d5c565b8460405161136f94939291906153a3565b60405180910390a15050505050565b6040516370a0823160e01b81523390859085906001600160a01b038316906370a08231906113b0908690600401615227565b60206040518083038186803b1580156113c857600080fd5b505afa1580156113dc573d6000803e3d6000fd5b505050506040513d601f19601f8201168201806040525081019061140091906150d7565b101561141e5760405162461bcd60e51b8152600401610f1c906154e4565b60e0546040516323b872dd60e01b81526001600160a01b03808416926323b872dd9261145292879216908a90600401615254565b602060405180830381600087803b15801561146c57600080fd5b505af1158015611480573d6000803e3d6000fd5b505050506040513d601f19601f820116820180604052508101906114a491906150a1565b5060e0546000906001600160a01b0316636e54a8a0848989896114c78a42615627565b6040518663ffffffff1660e01b81526004016114e7959493929190615278565b6040805180830381600087803b15801561150057600080fd5b505af1158015611514573d6000803e3d6000fd5b505050506040513d601f19601f820116820180604052508101906115389190615137565b90508091505060008051602061578c83398151915261159e60e060009054906101000a90046001600160a01b03166001600160a01b03166311eb47dc6040518163ffffffff1660e01b815260040160206040518083038186803b15801561103657600080fd5b600389846040516115b294939291906153a3565b60405180910390a150505050505050565b6065546001600160a01b031633146115ed5760405162461bcd60e51b8152600401610f1c9061551b565b60008160d45460d65460d5546116039190615627565b61160d9190615627565b6116179190615627565b9050606481111561163a5760405162461bcd60e51b8152600401610f1c90615550565b60d39190915560d755565b600033611653818585613dbf565b60019150505b92915050565b6001600160a01b0381166000908152609960205260409020546116945760405162461bcd60e51b8152600401610f1c90615453565b600061169f60985490565b6116a99047615627565b905060006116d683836116d1866001600160a01b03166000908152609a602052604090205490565b613ee3565b9050806116f55760405162461bcd60e51b8152600401610f1c90615499565b6001600160a01b0383166000908152609a60205260408120805483929061171d908490615627565b9250508190555080609860008282546117369190615627565b9091555061174690508382613f29565b7fdf20fd1e76bc69d672e4814fafb2c449bba3a5369d8359adf9e05e6fde87b056838260405161177792919061523b565b60405180910390a1505050565b600033611792858285614042565b61179d858585613d21565b60019150505b9392505050565b60e054339034906000906001600160a01b0316638f6e53b78385886111f68942615627565b60df54610100900460ff166118265760405162461bcd60e51b815260206004820152601d60248201527f434f4e544d494e543a206d696e7420636f6e74732064697361626c65640000006044820152606401610f1c565b60cc54825111156118745760405162461bcd60e51b8152602060048201526018602482015277434f4e544d494e543a20746f6f206d616e7920636f6e747360401b6044820152606401610f1c565b60005b825181101561192d5760038382815181106118945761189461572f565b6020026020010151511180156118c4575060218382815181106118b9576118b961572f565b602002602001015151105b61191b5760405162461bcd60e51b815260206004820152602260248201527f434f4e544d494e543a20696d70726f7065722063686172616374657220636f756044820152611b9d60f21b6064820152608401610f1c565b80611925816156fe565b915050611877565b5033806119755760405162461bcd60e51b8152602060048201526016602482015275434f4e544d494e543a207a65726f206164647265737360501b6044820152606401610f1c565b6001600160a01b038116600090815260dd602052604090205460ff16156119de5760405162461bcd60e51b815260206004820152601d60248201527f434f4e544d494e543a20626c61636b6c697374656420616464726573730000006044820152606401610f1c565b60cf546001600160a01b03828116911614801590611a0a575060d1546001600160a01b03828116911614155b8015611a24575060d0546001600160a01b03828116911614155b611a7b5760405162461bcd60e51b815260206004820152602260248201527f434f4e544d494e543a20706f6f6c732063616e6e6f742063726561746520636f6044820152611b9d60f21b6064820152608401610f1c565b60c9546040516344fea1b960e01b81526000916001600160a01b0316906344fea1b990611aac908590600401615227565b60206040518083038186803b158015611ac457600080fd5b505afa158015611ad8573d6000803e3d6000fd5b505050506040513d601f19601f82011682018060405250810190611afc91906150d7565b905060cb54845182611b0e9190615627565b1115611b5c5760405162461bcd60e51b815260206004820152601c60248201527f434f4e544d494e543a2072656163686564206d696e74206c696d6974000000006044820152606401610f1c565b835160c954604051630c75361360e31b8152600092916001600160a01b0316906363a9b09890611b90908890600401615382565b60206040518083038186803b158015611ba857600080fd5b505afa158015611bbc573d6000803e3d6000fd5b505050506040513d601f19601f82011682018060405250810190611be091906150d7565b611bea9190615661565b90508060ce6000828254611bfe9190615627565b90915550819050611c0e84613275565b1015611c6c5760405162461bcd60e51b815260206004820152602760248201527f434f4e544d494e543a2042616c616e636520746f6f206c6f7720666f7220637260448201526632b0ba34b7b71760c91b6064820152608401610f1c565b6000606460d65483611c7e9190615661565b611c88919061563f565b60d954909150610100900460ff1615611cc75760cf5460d954611cc29186916001600160a01b0391821691899162010000900416856140bc565b611ce1565b60cf54611ce19085906001600160a01b03168730856140bc565b6000606460d35484611cf39190615661565b611cfd919061563f565b60d154909150611d1a9086906001600160a01b03168830856140bc565b6000606460d45485611d2c9190615661565b611d36919061563f565b60d95490915060ff1615611d705760d05460d954611d6b9188916001600160a01b03918216918b9162010000900416856140bc565b611d8a565b60d054611d8a9087906001600160a01b03168930856140bc565b6000606460d55486611d9c9190615661565b611da6919061563f565b60d254909150611dc39088906001600160a01b03168a30856140bc565b6000818385611dd2888a615680565b611ddc9190615680565b611de69190615680565b611df09190615680565b90508015611e0357611e038830836141e1565b60c95460405162a6998d60e31b81526001600160a01b0390911690630534cc6890611e36908b908e908e906004016152a9565b600060405180830381600087803b158015611e5057600080fd5b505af1158015611e64573d6000803e3d6000fd5b505050507f9972942513a6d471ac125572d271f49ecc9652139451120363f1333713c42c43888a8c51604051611e9c93929190615323565b60405180910390a150505050505050505050565b3360008181526034602090815260408083206001600160a01b03871684529091528120549091906116539082908690611eea908790615627565b613dbf565b6001600160a01b039182166000908152609d6020908152604080832093909416825291909152205490565b6001600160a01b038116600090815260996020526040902054611f4f5760405162461bcd60e51b8152600401610f1c90615453565b6001600160a01b0382166000908152609c60205260408120546040516370a0823160e01b81526001600160a01b038516906370a0823190611f94903090600401615227565b60206040518083038186803b158015611fac57600080fd5b505afa158015611fc0573d6000803e3d6000fd5b505050506040513d601f19601f82011682018060405250810190611fe491906150d7565b611fee9190615627565b9050600061200183836116d18787611eef565b9050806120205760405162461bcd60e51b8152600401610f1c90615499565b6001600160a01b038085166000908152609d6020908152604080832093871683529290529081208054839290612057908490615627565b90915550506001600160a01b0384166000908152609c602052604081208054839290612084908490615627565b9091555061209590508484836143af565b836001600160a01b03167f3be5b7a71e84ed12875d241991c70855ac5817d847039e17a9d895c1ceb0f18a84836040516120d092919061523b565b60405180910390a250505050565b60df54339060ff1615156001146121375760405162461bcd60e51b815260206004820152601960248201527f43534854414c4c3a20636173686f75742064697361626c6564000000000000006044820152606401610f1c565b6001600160a01b0381166121855760405162461bcd60e51b815260206004820152601560248201527443534854414c4c3a207a65726f206164647265737360581b6044820152606401610f1c565b6001600160a01b038116600090815260dd602052604090205460ff16156121ee5760405162461bcd60e51b815260206004820152601c60248201527f43534854414c4c3a20626c61636b6c69737465642061646472657373000000006044820152606401610f1c565b60c9546040516330cd31af60e11b81526000916001600160a01b03169063619a635e9061221f908590600401615227565b60206040518083038186803b15801561223757600080fd5b505afa15801561224b573d6000803e3d6000fd5b505050506040513d601f19601f8201168201806040525081019061226f91906150d7565b9050600081116122c15760405162461bcd60e51b815260206004820152601960248201527f43534854414c4c3a20726577617264206e6f74207265616479000000000000006044820152606401610f1c565b60c95460405163d094fa8d60e01b8152600091829182916001600160a01b03169063d094fa8d906122f6908890600401615227565b608060405180830381600087803b15801561231057600080fd5b505af1158015612324573d6000803e3d6000fd5b505050506040513d601f19601f820116820180604052508101906123489190615187565b60d854939750919550935091506000901561265157606460d8548661236d9190615661565b612377919061563f565b60e054909150600160a01b900460ff161561245a5760d15460df5460d95460d8546123d9936001600160a01b03908116936201000090819004821693600093919004909116906064906123ca908b615661565b6123d4919061563f565b6140bc565b60d15460df5460d95460d854612417936001600160a01b03908116936201000090819004821693600193919004909116906064906123ca908a615661565b60d15460df5460d95460d854612455936001600160a01b03908116936201000090819004821693600293919004909116906064906123ca9089615661565b6125db565b60d15460df546201000090046001600160a01b039081169116146125115760d15460df5460d8546124ab926001600160a01b0390811692620100009004169060009030906064906123ca908b615661565b60d15460df5460d8546124de926001600160a01b0390811692620100009004169060019030906064906123ca908a615661565b60d15460df5460d854612455926001600160a01b0390811692620100009004169060029030906064906123ca9089615661565b60008051602061578c833981519152600030606460d854886125339190615661565b61253d919061563f565b60405161254c9392919061540d565b60405180910390a160008051602061578c833981519152600130606460d854876125769190615661565b612580919061563f565b60405161258f9392919061540d565b60405180910390a160008051602061578c833981519152600230606460d854866125b99190615661565b6125c3919061563f565b6040516125d29392919061540d565b60405180910390a15b606460d85460646125ec9190615680565b6125f69086615661565b612600919061563f565b9350606460d85460646126139190615680565b61261d9085615661565b612627919061563f565b9250606460d854606461263a9190615680565b6126449084615661565b61264e919061563f565b91505b61265b8186615680565b60d154909550612675906001600160a01b03168787613d21565b604080516001600160a01b03881681526020810187905290810185905260608101849052608081018390527f6717635faad3367ddfa0564bf3540e74269b0c5dfef7720d5512f309dc1b6c869060a001611082565b6065546001600160a01b031633146126f45760405162461bcd60e51b8152600401610f1c9061551b565b6001600160a01b03811661271a5760405162461bcd60e51b8152600401610f1c906153e0565b60cf80546001600160a01b0319166001600160a01b0392909216919091179055565b600054610100900460ff166127575760005460ff161561275b565b303b155b6127be5760405162461bcd60e51b815260206004820152602e60248201527f496e697469616c697a61626c653a20636f6e747261637420697320616c72656160448201526d191e481a5b9a5d1a585b1a5e995960921b6064820152608401610f1c565b600054610100900460ff161580156127e0576000805461ffff19166101011790555b600085511180156127f2575060008451115b6128355760405162461bcd60e51b815260206004820152601460248201527320a222291013102120a620a721a29022a92927a960611b6044820152606401610f1c565b61283d614405565b612881604051806040016040528060078152602001663078426c6f636b60c81b81525060405180604001604052806003815260200162183c2160e91b815250614434565b61288b8787614469565b60005b85518110156128f8576128e68682815181106128ac576128ac61572f565b60200260200101518683815181106128c6576128c661572f565b6020026020010151670de0b6b3a76400006128e19190615661565b61449a565b806128f0816156fe565b91505061288e565b5060355469d3c21bcecceda10000001461294c5760405162461bcd60e51b81526020600482015260156024820152741515130814d5541413164811125191880c48135253605a1b6044820152606401610f1c565b60006001600160a01b03168560018151811061296a5761296a61572f565b60200260200101516001600160a01b0316141580156129b6575060006001600160a01b0316856002815181106129a2576129a261572f565b60200260200101516001600160a01b031614155b80156129ef575060006001600160a01b0316856003815181106129db576129db61572f565b60200260200101516001600160a01b031614155b8015612a28575060006001600160a01b031685600481518110612a1457612a1461572f565b60200260200101516001600160a01b031614155b612a665760405162461bcd60e51b815260206004820152600f60248201526e1413d3d30816915493c81193d55391608a1b6044820152606401610f1c565b8351855114612aae5760405162461bcd60e51b815260206004820152601460248201527320a222291013102120a620a721a29022a92927a960611b6044820152606401610f1c565b600083600081518110612ac357612ac361572f565b6020026020010151118015612af25750600083600181518110612ae857612ae861572f565b6020026020010151115b8015612b185750600083600281518110612b0e57612b0e61572f565b6020026020010151115b8015612b3e5750600083600381518110612b3457612b3461572f565b6020026020010151115b8015612b645750600083600481518110612b5a57612b5a61572f565b6020026020010151115b612ba05760405162461bcd60e51b815260206004820152600d60248201526c0c094811915154c81193d55391609a1b6044820152606401610f1c565b84600181518110612bb357612bb361572f565b602002602001015160cf60006101000a8154816001600160a01b0302191690836001600160a01b0316021790555084600281518110612bf457612bf461572f565b602002602001015160d260006101000a8154816001600160a01b0302191690836001600160a01b0316021790555084600381518110612c3557612c3561572f565b602002602001015160d060006101000a8154816001600160a01b0302191690836001600160a01b0316021790555084600481518110612c7657612c7661572f565b602090810291909101015160d180546001600160a01b0319166001600160a01b03909216918217905560df805462010000600160b01b0319166201000090920291909117905582518390600090612ccf57612ccf61572f565b602002602001015160d68190555082600181518110612cf057612cf061572f565b602002602001015160d48190555082600281518110612d1157612d1161572f565b602002602001015160d38190555082600381518110612d3257612d3261572f565b602002602001015160d58190555082600481518110612d5357612d5361572f565b602002602001015160d88190555060d45460d65460d55460d354612d779190615627565b612d819190615627565b612d8b9190615627565b60d75560d98054606460cb55600a60cc5561ffff196001600160a01b038516620100000281166001600160b01b0319909216919091176101001790915560df805461010192169190911790558015612de9576000805461ff00191690555b50505050505050565b6065546001600160a01b03163314612e1c5760405162461bcd60e51b8152600401610f1c9061551b565b6001600160a01b038116612e425760405162461bcd60e51b8152600401610f1c906153e0565b60df80546001600160a01b03909216620100000262010000600160b01b0319909216919091179055565b60df54339060ff161515600114612ebe5760405162461bcd60e51b815260206004820152601660248201527510d4d2150e8810d85cda1bdd5d08111a5cd8589b195960521b6044820152606401610f1c565b6001600160a01b038116612f095760405162461bcd60e51b8152602060048201526012602482015271435348543a207a65726f206164647265737360701b6044820152606401610f1c565b6001600160a01b038116600090815260dd602052604090205460ff1615612f665760405162461bcd60e51b815260206004820152601160248201527010d4d2150e88189b1858dadb1a5cdd1959607a1b6044820152606401610f1c565b60c9546040516305cfb67f60e11b81526000916001600160a01b031690630b9f6cfe90612f99908590879060040161523b565b60206040518083038186803b158015612fb157600080fd5b505afa158015612fc5573d6000803e3d6000fd5b505050506040513d601f19601f82011682018060405250810190612fe991906150d7565b9050600081116130345760405162461bcd60e51b8152602060048201526016602482015275435348543a20726577617264206e6f7420726561647960501b6044820152606401610f1c565b60006130408183615680565b60d15490925061305a906001600160a01b03168484613d21565b60c95460405163611015b360e11b815260009182916001600160a01b039091169063c2202b66906130919088908a9060040161523b565b6040805180830381600087803b1580156130aa57600080fd5b505af11580156130be573d6000803e3d6000fd5b505050506040513d601f19601f820116820180604052508101906130e291906150f0565b60d8549193509150156131c057606460d854856130ff9190615661565b613109919061563f565b60e054909350600160a01b900460ff16156131535760d15460df5460d95461314e926001600160a01b03908116926201000090819004821692869291900416876140bc565b6131c0565b60d15460df546201000090046001600160a01b039081169116146131965760d15460df5461314e916001600160a01b0390811691620100009004168330876140bc565b60008051602061578c8339815191528130856040516131b79392919061540d565b60405180910390a15b7f6df62f67bac1b205a7fb106e3dd59043cdec9d6f2825adf0e0670f3cbcf86ac885878684604051611082949392919061534e565b6065546001600160a01b0316331461321f5760405162461bcd60e51b8152600401610f1c9061551b565b60648111156132705760405162461bcd60e51b815260206004820152601c60248201527f464545533a20636173686f757420657863656564696e672031303025000000006044820152606401610f1c565b60d855565b6001600160a01b031660009081526033602052604090205490565b6065546001600160a01b031633146132ba5760405162461bcd60e51b8152600401610f1c9061551b565b6132c46000614579565b565b6065546001600160a01b031633146132f05760405162461bcd60e51b8152600401610f1c9061551b565b6001600160a01b0381166133165760405162461bcd60e51b8152600401610f1c906153e0565b60d080546001600160a01b0319166001600160a01b0392909216919091179055565b6065546001600160a01b031633146133625760405162461bcd60e51b8152600401610f1c9061551b565b60d980549115156101000261ff0019909216919091179055565b60d1546060906001600160a01b03838116911614156133b85750506040805180820190915260078152667265776172647360c81b602082015290565b60cf546001600160a01b03838116911614156133f157505060408051808201909152600781526619195d999d5b9960ca1b602082015290565b60d0546001600160a01b038381169116141561342b575050604080518082019091526008815267747265617375727960c01b602082015290565b60d2546001600160a01b03838116911614156134665750506040805180820190915260098152686c697175696469747960b81b602082015290565b50506040805180820190915260018152605f60f81b602082015290565b6000609b82815481106134985761349861572f565b6000918252602090912001546001600160a01b031692915050565b6065546001600160a01b031633146134dd5760405162461bcd60e51b8152600401610f1c9061551b565b6001600160a01b0381166135285760405162461bcd60e51b81526020600482015260126024820152712722abafa1a9269d103d32b9379030b2323960711b6044820152606401610f1c565b60c980546001600160a01b0319166001600160a01b0392909216919091179055565b6065546001600160a01b031633146135745760405162461bcd60e51b8152600401610f1c9061551b565b60008160d45460d65460d35461358a9190615627565b6135949190615627565b61359e9190615627565b905060648111156135c15760405162461bcd60e51b8152600401610f1c90615550565b60d59190915560d755565b6065546001600160a01b031633146135f65760405162461bcd60e51b8152600401610f1c9061551b565b60df80549115156101000261ff0019909216919091179055565b6060603780546110f6906156c3565b6065546001600160a01b031633146136495760405162461bcd60e51b8152600401610f1c9061551b565b60008160d65460d55460d35461365f9190615627565b6136699190615627565b6136739190615627565b905060648111156136965760405162461bcd60e51b8152600401610f1c90615550565b60d49190915560d755565b6040516370a0823160e01b81523390859084906001600160a01b038316906370a08231906136d3908690600401615227565b60206040518083038186803b1580156136eb57600080fd5b505afa1580156136ff573d6000803e3d6000fd5b505050506040513d601f19601f8201168201806040525081019061372391906150d7565b10156137415760405162461bcd60e51b8152600401610f1c906154e4565b60e0546040516323b872dd60e01b81526001600160a01b03808416926323b872dd9261377592879216908990600401615254565b602060405180830381600087803b15801561378f57600080fd5b505af11580156137a3573d6000803e3d6000fd5b505050506040513d601f19601f820116820180604052508101906137c791906150a1565b5060e0546000906001600160a01b03166374cefd8a848989896114c78a42615627565b6065546001600160a01b031633146138145760405162461bcd60e51b8152600401610f1c9061551b565b60d9805460ff1916911515919091179055565b3360008181526034602090815260408083206001600160a01b0387168452909152812054909190838110156138ac5760405162461bcd60e51b815260206004820152602560248201527f45524332303a2064656372656173656420616c6c6f77616e63652062656c6f77604482015264207a65726f60d81b6064820152608401610f1c565b6138b98286868403613dbf565b506001949350505050565b600033611653818585613d21565b6065546001600160a01b031633146138fc5760405162461bcd60e51b8152600401610f1c9061551b565b6001600160a01b0381166139485760405162461bcd60e51b81526020600482015260136024820152722722abafaaa9a2219d103d32b9379030b2323960691b6044820152606401610f1c565b60d980546001600160a01b03909216620100000262010000600160b01b0319909216919091179055565b6065546001600160a01b0316331461399c5760405162461bcd60e51b8152600401610f1c9061551b565b60df805460ff1916911515919091179055565b6065546001600160a01b031633146139d95760405162461bcd60e51b8152600401610f1c9061551b565b60e08054911515600160a01b0260ff60a01b19909216919091179055565b6065546001600160a01b03163314613a215760405162461bcd60e51b8152600401610f1c9061551b565b6001600160a01b038116613a705760405162461bcd60e51b81526020600482015260166024820152752722abafa62927aaaa22a91d103d32b9379030b2323960511b6044820152606401610f1c565b60e080546001600160a01b0319166001600160a01b0392909216919091179055565b6065546001600160a01b03163314613abc5760405162461bcd60e51b8152600401610f1c9061551b565b6001600160a01b038116613ae25760405162461bcd60e51b8152600401610f1c906153e0565b60d180546001600160a01b0319166001600160a01b0392909216919091179055565b6001600160a01b03918216600090815260346020908152604080832093909416825291909152205490565b6065546001600160a01b03163314613b595760405162461bcd60e51b8152600401610f1c9061551b565b6001600160a01b038116613b7f5760405162461bcd60e51b8152600401610f1c906153e0565b60d280546001600160a01b0319166001600160a01b0392909216919091179055565b3383613bac82613275565b1015613bca5760405162461bcd60e51b8152600401610f1c906154e4565b60e054613be29082906001600160a01b031686613d21565b60e0546000906001600160a01b03166388e5249f83888888610f5f8942615627565b6065546001600160a01b03163314613c2e5760405162461bcd60e51b8152600401610f1c9061551b565b6001600160a01b038116613c935760405162461bcd60e51b815260206004820152602660248201527f4f776e61626c653a206e6577206f776e657220697320746865207a65726f206160448201526564647265737360d01b6064820152608401610f1c565b613c9c81614579565b50565b6065546001600160a01b03163314613cc95760405162461bcd60e51b8152600401610f1c9061551b565b60008160d45460d55460d354613cdf9190615627565b613ce99190615627565b613cf39190615627565b90506064811115613d165760405162461bcd60e51b8152600401610f1c90615550565b60d69190915560d755565b6001600160a01b038316600090815260dd602052604090205460ff16158015613d6357506001600160a01b038216600090815260dd602052604090205460ff16155b613daf5760405162461bcd60e51b815260206004820152601a60248201527f45524332303a20426c61636b6c697374656420616464726573730000000000006044820152606401610f1c565b613dba8383836141e1565b505050565b6001600160a01b038316613e215760405162461bcd60e51b8152602060048201526024808201527f45524332303a20617070726f76652066726f6d20746865207a65726f206164646044820152637265737360e01b6064820152608401610f1c565b6001600160a01b038216613e825760405162461bcd60e51b815260206004820152602260248201527f45524332303a20617070726f766520746f20746865207a65726f206164647265604482015261737360f01b6064820152608401610f1c565b6001600160a01b0383811660008181526034602090815260408083209487168084529482529182902085905590518481527f8c5be1e5ebec7d5bd14f71427d1e84f3dd0314c0f7b2291e5b200ac8c7c3b925910160405180910390a3505050565b6097546001600160a01b03841660009081526099602052604081205490918391613f0d9086615661565b613f17919061563f565b613f219190615680565b949350505050565b80471015613f795760405162461bcd60e51b815260206004820152601d60248201527f416464726573733a20696e73756666696369656e742062616c616e63650000006044820152606401610f1c565b6000826001600160a01b03168260405160006040518083038185875af1925050503d8060008114613fc6576040519150601f19603f3d011682016040523d82523d6000602084013e613fcb565b606091505b5050905080613dba5760405162461bcd60e51b815260206004820152603a60248201527f416464726573733a20756e61626c6520746f2073656e642076616c75652c207260448201527f6563697069656e74206d617920686176652072657665727465640000000000006064820152608401610f1c565b600061404e8484613b04565b905060001981146140b657818110156140a95760405162461bcd60e51b815260206004820152601d60248201527f45524332303a20696e73756666696369656e7420616c6c6f77616e63650000006044820152606401610f1c565b6140b68484848403613dbf565b50505050565b60006140c78561337c565b90506001600160a01b038316301415614115576140e5868684613d21565b60008051602061578c8339815191528185858560405161410894939291906153a3565b60405180910390a16141d9565b60e05461412d9087906001600160a01b031684613d21565b60e054604051632da63c1160e21b81526000916001600160a01b03169063b698f0449061416290899088908890600401615254565b602060405180830381600087803b15801561417c57600080fd5b505af1158015614190573d6000803e3d6000fd5b505050506040513d601f19601f820116820180604052508101906141b491906150d7565b905060008051602061578c833981519152828686846040516115b294939291906153a3565b505050505050565b6001600160a01b0383166142455760405162461bcd60e51b815260206004820152602560248201527f45524332303a207472616e736665722066726f6d20746865207a65726f206164604482015264647265737360d81b6064820152608401610f1c565b6001600160a01b0382166142a75760405162461bcd60e51b815260206004820152602360248201527f45524332303a207472616e7366657220746f20746865207a65726f206164647260448201526265737360e81b6064820152608401610f1c565b6001600160a01b0383166000908152603360205260409020548181101561431f5760405162461bcd60e51b815260206004820152602660248201527f45524332303a207472616e7366657220616d6f756e7420657863656564732062604482015265616c616e636560d01b6064820152608401610f1c565b6001600160a01b03808516600090815260336020526040808220858503905591851681529081208054849290614356908490615627565b92505081905550826001600160a01b0316846001600160a01b03167fddf252ad1be2c89b69c2b068fc378daa952ba7f163c4a11628f55a4df523b3ef846040516143a291815260200190565b60405180910390a36140b6565b613dba8363a9059cbb60e01b84846040516024016143ce92919061523b565b60408051601f198184030181529190526020810180516001600160e01b03166001600160e01b0319909316929092179091526145cb565b600054610100900460ff1661442c5760405162461bcd60e51b8152600401610f1c90615587565b6132c461469d565b600054610100900460ff1661445b5760405162461bcd60e51b8152600401610f1c90615587565b61446582826146cd565b5050565b600054610100900460ff166144905760405162461bcd60e51b8152600401610f1c90615587565b614465828261471b565b6001600160a01b0382166144f05760405162461bcd60e51b815260206004820152601f60248201527f45524332303a206d696e7420746f20746865207a65726f2061646472657373006044820152606401610f1c565b80603560008282546145029190615627565b90915550506001600160a01b0382166000908152603360205260408120805483929061452f908490615627565b90915550506040518181526001600160a01b038316906000907fddf252ad1be2c89b69c2b068fc378daa952ba7f163c4a11628f55a4df523b3ef9060200160405180910390a35050565b606580546001600160a01b038381166001600160a01b0319831681179093556040519116919082907f8be0079c531659141344cd1fd0a4f28419497f9722a3daafe3b4186f6b6457e090600090a35050565b6000614620826040518060400160405280602081526020017f5361666545524332303a206c6f772d6c6576656c2063616c6c206661696c6564815250856001600160a01b03166148599092919063ffffffff16565b805190915015613dba578080602001905181019061463e91906150a1565b613dba5760405162461bcd60e51b815260206004820152602a60248201527f5361666545524332303a204552433230206f7065726174696f6e20646964206e6044820152691bdd081cdd58d8d9595960b21b6064820152608401610f1c565b600054610100900460ff166146c45760405162461bcd60e51b8152600401610f1c90615587565b6132c433614579565b600054610100900460ff166146f45760405162461bcd60e51b8152600401610f1c90615587565b8151614707906036906020850190614bb0565b508051613dba906037906020840190614bb0565b600054610100900460ff166147425760405162461bcd60e51b8152600401610f1c90615587565b80518251146147ae5760405162461bcd60e51b815260206004820152603260248201527f5061796d656e7453706c69747465723a2070617965657320616e6420736861726044820152710cae640d8cadccee8d040dad2e6dac2e8c6d60731b6064820152608401610f1c565b60008251116147ff5760405162461bcd60e51b815260206004820152601a60248201527f5061796d656e7453706c69747465723a206e6f207061796565730000000000006044820152606401610f1c565b60005b8251811015613dba576148478382815181106148205761482061572f565b602002602001015183838151811061483a5761483a61572f565b6020026020010151614868565b80614851816156fe565b915050614802565b6060613f218484600085614a46565b6001600160a01b0382166148d35760405162461bcd60e51b815260206004820152602c60248201527f5061796d656e7453706c69747465723a206163636f756e74206973207468652060448201526b7a65726f206164647265737360a01b6064820152608401610f1c565b600081116149235760405162461bcd60e51b815260206004820152601d60248201527f5061796d656e7453706c69747465723a207368617265732061726520300000006044820152606401610f1c565b6001600160a01b0382166000908152609960205260409020541561499d5760405162461bcd60e51b815260206004820152602b60248201527f5061796d656e7453706c69747465723a206163636f756e7420616c726561647960448201526a206861732073686172657360a81b6064820152608401610f1c565b609b8054600181019091557fbba9db4cdbea0a37c207bbb83e20f828cd4441c49891101dc94fd20dc8efc3490180546001600160a01b0319166001600160a01b0384169081179091556000908152609960205260409020819055609754614a05908290615627565b6097556040517f40c340f65e17194d14ddddb073d3c9f888e3cb52b5aae0c6c7706b4fbc905fac90614a3a908490849061523b565b60405180910390a15050565b606082471015614aa75760405162461bcd60e51b815260206004820152602660248201527f416464726573733a20696e73756666696369656e742062616c616e636520666f6044820152651c8818d85b1b60d21b6064820152608401610f1c565b6001600160a01b0385163b614afe5760405162461bcd60e51b815260206004820152601d60248201527f416464726573733a2063616c6c20746f206e6f6e2d636f6e74726163740000006044820152606401610f1c565b600080866001600160a01b03168587604051614b1a919061520b565b60006040518083038185875af1925050503d8060008114614b57576040519150601f19603f3d011682016040523d82523d6000602084013e614b5c565b606091505b5091509150614b6c828286614b77565b979650505050505050565b60608315614b865750816117a3565b825115614b965782518084602001fd5b8160405162461bcd60e51b8152600401610f1c9190615390565b828054614bbc906156c3565b90600052602060002090601f016020900481019282614bde5760008555614c24565b82601f10614bf757805160ff1916838001178555614c24565b82800160010185558215614c24579182015b82811115614c24578251825591602001919060010190614c09565b50614c30929150614c34565b5090565b5b80821115614c305760008155600101614c35565b8035614c548161575b565b919050565b600082601f830112614c6a57600080fd5b81356020614c7f614c7a83615603565b6155d2565b80838252828201915082860187848660051b8901011115614c9f57600080fd5b60005b85811015614cc7578135614cb58161575b565b84529284019290840190600101614ca2565b5090979650505050505050565b600082601f830112614ce557600080fd5b81356020614cf5614c7a83615603565b80838252828201915082860187848660051b8901011115614d1557600080fd5b60005b85811015614cc757813584529284019290840190600101614d18565b8035614c548161577e565b600060208284031215614d5157600080fd5b81356117a38161575b565b600060208284031215614d6e57600080fd5b81516117a38161575b565b60008060408385031215614d8c57600080fd5b8235614d978161575b565b91506020830135614da78161575b565b809150509250929050565b600080600060608486031215614dc757600080fd5b8335614dd28161575b565b92506020840135614de28161575b565b929592945050506040919091013590565b60008060408385031215614e0657600080fd5b8235614e118161575b565b91506020830135614da781615770565b60008060408385031215614e3457600080fd5b8235614e3f8161575b565b946020939093013593505050565b60008060008060808587031215614e6357600080fd5b8435614e6e8161575b565b966020860135965060408601359560600135945092505050565b60008060008060008060c08789031215614ea157600080fd5b863567ffffffffffffffff80821115614eb957600080fd5b614ec58a838b01614c59565b97506020890135915080821115614edb57600080fd5b614ee78a838b01614cd4565b96506040890135915080821115614efd57600080fd5b614f098a838b01614c59565b95506060890135915080821115614f1f57600080fd5b614f2b8a838b01614cd4565b94506080890135915080821115614f4157600080fd5b50614f4e89828a01614cd4565b925050614f5d60a08801614c49565b90509295509295509295565b6000806040808486031215614f7d57600080fd5b833567ffffffffffffffff80821115614f9557600080fd5b818601915086601f830112614fa957600080fd5b81356020614fb9614c7a83615603565b8083825282820191508286018b848660051b8901011115614fd957600080fd5b60005b8581101561506457813587811115614ff357600080fd5b8801603f81018e1361500457600080fd5b858101358881111561501857615018615745565b61502a601f8201601f191688016155d2565b8181528f8c83850101111561503e57600080fd5b818c84018983013760009181018801919091528552509284019290840190600101614fdc565b50508098505050615076818901614d34565b955050505050509250929050565b60006020828403121561509657600080fd5b81356117a381615770565b6000602082840312156150b357600080fd5b81516117a381615770565b6000602082840312156150d057600080fd5b5035919050565b6000602082840312156150e957600080fd5b5051919050565b6000806040838503121561510357600080fd5b825191506020830151614da78161577e565b6000806040838503121561512857600080fd5b50508035926020909101359150565b6000806040838503121561514a57600080fd5b505080516020909101519092909150565b60008060006060848603121561517057600080fd5b505081359360208301359350604090920135919050565b6000806000806080858703121561519d57600080fd5b505082516020840151604085015160609095015191969095509092509050565b600481106151db57634e487b7160e01b600052602160045260246000fd5b9052565b600081518084526151f7816020860160208601615697565b601f01601f19169290920160200192915050565b6000825161521d818460208701615697565b9190910192915050565b6001600160a01b0391909116815260200190565b6001600160a01b03929092168252602082015260400190565b6001600160a01b039384168152919092166020820152604081019190915260600190565b6001600160a01b03958616815293909416602084015260408301919091526060820152608081019190915260a00190565b60006060820160018060a01b0386168352602060608185015281865180845260808601915060808160051b870101935082880160005b8281101561530d57607f198887030184526152fb8683516151df565b955092840192908401906001016152df565b505050505080915050613f2160408301846151bd565b6001600160a01b03841681526060810161534060208301856151bd565b826040830152949350505050565b6001600160a01b038516815260208101849052604081018390526080810161537960608301846151bd565b95945050505050565b6020810161165982846151bd565b6020815260006117a360208301846151df565b6080815260006153b660808301876151df565b90506153c560208301866151bd565b6001600160a01b039390931660408201526060015292915050565b6020808252601390820152722aa8222faba0a6261d103d32b9379030b2323960691b604082015260600190565b6080808252600790820152667265776172647360c81b60a082015260c0810161543960208301866151bd565b6001600160a01b0393909316604082015260600152919050565b60208082526026908201527f5061796d656e7453706c69747465723a206163636f756e7420686173206e6f2060408201526573686172657360d01b606082015260800190565b6020808252602b908201527f5061796d656e7453706c69747465723a206163636f756e74206973206e6f742060408201526a191d59481c185e5b595b9d60aa1b606082015260800190565b6020808252601a908201527f535741503a20696e73756666696369656e742062616c616e6365000000000000604082015260600190565b6020808252818101527f4f776e61626c653a2063616c6c6572206973206e6f7420746865206f776e6572604082015260600190565b6020808252601a908201527f464545533a20746f74616c20657863656564696e672031303025000000000000604082015260600190565b6020808252602b908201527f496e697469616c697a61626c653a20636f6e7472616374206973206e6f74206960408201526a6e697469616c697a696e6760a81b606082015260800190565b604051601f8201601f1916810167ffffffffffffffff811182821017156155fb576155fb615745565b604052919050565b600067ffffffffffffffff82111561561d5761561d615745565b5060051b60200190565b6000821982111561563a5761563a615719565b500190565b60008261565c57634e487b7160e01b600052601260045260246000fd5b500490565b600081600019048311821515161561567b5761567b615719565b500290565b60008282101561569257615692615719565b500390565b60005b838110156156b257818101518382015260200161569a565b838111156140b65750506000910152565b600181811c908216806156d757607f821691505b602082108114156156f857634e487b7160e01b600052602260045260246000fd5b50919050565b600060001982141561571257615712615719565b5060010190565b634e487b7160e01b600052601160045260246000fd5b634e487b7160e01b600052603260045260246000fd5b634e487b7160e01b600052604160045260246000fd5b6001600160a01b0381168114613c9c57600080fd5b8015158114613c9c57600080fd5b60048110613c9c57600080fdfeae65b8cdcf70197aae9eec6cad9075662a0b1f140940b20a5d60413e1d05e8b8a164736f6c6343000807000a",
  "devdoc": {
    "kind": "dev",
    "methods": {
      "allowance(address,address)": {
        "details": "See {IERC20-allowance}."
      },
      "approve(address,uint256)": {
        "details": "See {IERC20-approve}. NOTE: If `amount` is the maximum `uint256`, the allowance is not updated on `transferFrom`. This is semantically equivalent to an infinite approval. Requirements: - `spender` cannot be the zero address."
      },
      "balanceOf(address)": {
        "details": "See {IERC20-balanceOf}."
      },
      "cashoutAll()": {
        "details": "send rewards from reward wallet to user and the tax portion to the configured cashoutTax wallet."
      },
      "cashoutReward(uint256)": {
        "details": "send rewards from reward wallet to user and the tax portion to the configured cashoutTax wallet.",
        "params": {
          "_contIndex": "index of contract in list of contract of user"
        }
      },
      "changeEnableAutoSwapCashout(bool)": {
        "params": {
          "newVal": "set to true if enable cashout autoswap"
        }
      },
      "changeEnableAutoSwapDevFund(bool)": {
        "params": {
          "newVal": "set to true if enable dev/fund autoswap"
        }
      },
      "changeEnableAutoSwapTreasury(bool)": {
        "params": {
          "newVal": "set to true if enable treasury autoswap"
        }
      },
      "decimals()": {
        "details": "Returns the number of decimals used to get its user representation. For example, if `decimals` equals `2`, a balance of `505` tokens should be displayed to a user as `5.05` (`505 / 10 ** 2`). Tokens usually opt for a value of 18, imitating the relationship between Ether and Wei. This is the value {ERC20} uses, unless this function is overridden; NOTE: This information is only used for _display_ purposes: it in no way affects any of the arithmetic of the contract, including {IERC20-balanceOf} and {IERC20-transfer}."
      },
      "decreaseAllowance(address,uint256)": {
        "details": "Atomically decreases the allowance granted to `spender` by the caller. This is an alternative to {approve} that can be used as a mitigation for problems described in {IERC20-approve}. Emits an {Approval} event indicating the updated allowance. Requirements: - `spender` cannot be the zero address. - `spender` must have allowance for the caller of at least `subtractedValue`."
      },
      "increaseAllowance(address,uint256)": {
        "details": "Atomically increases the allowance granted to `spender` by the caller. This is an alternative to {approve} that can be used as a mitigation for problems described in {IERC20-approve}. Emits an {Approval} event indicating the updated allowance. Requirements: - `spender` cannot be the zero address."
      },
      "mintConts(string[],uint8)": {
        "details": "create new contract instances, take funds from user and distribute to admin wallets according to  SC configs.",
        "params": {
          "_cType": "type of new contracts.",
          "names": "list of names. The number of string in this list will be the count of new contracts."
        }
      },
      "name()": {
        "details": "Returns the name of the token."
      },
      "owner()": {
        "details": "Returns the address of the current owner."
      },
      "payee(uint256)": {
        "details": "Getter for the address of the payee number `index`."
      },
      "release(address)": {
        "details": "Triggers a transfer to `account` of the amount of Ether they are owed, according to their percentage of the total shares and their previous withdrawals."
      },
      "release(address,address)": {
        "details": "Triggers a transfer to `account` of the amount of `token` tokens they are owed, according to their percentage of the total shares and their previous withdrawals. `token` must be the address of an IERC20 contract."
      },
      "released(address)": {
        "details": "Getter for the amount of Ether already released to a payee."
      },
      "released(address,address)": {
        "details": "Getter for the amount of `token` tokens already released to a payee. `token` should be the address of an IERC20 contract."
      },
      "renounceOwnership()": {
        "details": "Leaves the contract without owner. It will not be possible to call `onlyOwner` functions anymore. Can only be called by the current owner. NOTE: Renouncing ownership will leave the contract without an owner, thereby removing any functionality that is only available to the owner."
      },
      "setBlacklistStatus(address,bool)": {
        "params": {
          "account": "account to change status",
          "value": "set to true if blacklisting"
        }
      },
      "setContManagement(address)": {
        "params": {
          "crm": "address of the new CRM"
        }
      },
      "setEnableCashout(bool)": {
        "params": {
          "_enableCashout": "true if user can cashout after this tx. false if otherwise"
        }
      },
      "setEnableMintConts(bool)": {
        "params": {
          "value": "true if user can mint new contracts"
        }
      },
      "setLiquidityRouter(address)": {
        "params": {
          "liqRouter": "new address of LiquidityRouter"
        }
      },
      "setUSDCAddress(address)": {
        "params": {
          "newAddress": "new usdc address"
        }
      },
      "shares(address)": {
        "details": "Getter for the amount of shares held by an account."
      },
      "swap0xBForExactToken(address,uint256,uint256,uint256)": {
        "params": {
          "amountInMax": "a maximum expected input. Will raise error if can't satisfy.",
          "amountOut": "an exact amount of output token",
          "tokenAddr": "output token",
          "wait": "maximum wait time"
        }
      },
      "swapAVAXForExact0xB(uint256,uint256,uint256)": {
        "details": "set msg.value as the maximum expected input amount of AVAX",
        "params": {
          "amountInMax": "set same as msg.value",
          "amountOut": "an exact amount of output 0xB.",
          "wait": "maximum wait time"
        }
      },
      "swapExact0xBForToken(address,uint256,uint256,uint256)": {
        "params": {
          "amountIn": "an exact amount of input 0xB",
          "amountOutMin": "a minimum expected output. Will raise error if can't satisfy.",
          "tokenAddr": "output token",
          "wait": "maximum wait time"
        }
      },
      "swapExactAVAXFor0xB(uint256,uint256)": {
        "details": "set msg.value as the exact input amount of AVAX",
        "params": {
          "amountOutMin": "a minimum expected output. Will raise error if can't satisfy.",
          "wait": "maximum wait time"
        }
      },
      "swapExactTokenFor0xB(address,uint256,uint256,uint256)": {
        "params": {
          "amountIn": "an exact amount of input token",
          "amountOutMin": "a minimum expected output 0xB. Will raise error if can't satisfy.",
          "tokenAddr": "input token",
          "wait": "maximum wait time"
        }
      },
      "swapTokenForExact0xB(address,uint256,uint256,uint256)": {
        "params": {
          "amountInMax": "a maximum expected amount of input token. Will raise error if can't satisfy.",
          "amountOut": "an exact amount of output 0xB",
          "tokenAddr": "input token",
          "wait": "maximum wait time"
        }
      },
      "symbol()": {
        "details": "Returns the symbol of the token, usually a shorter version of the name."
      },
      "totalReleased()": {
        "details": "Getter for the total amount of Ether already released."
      },
      "totalReleased(address)": {
        "details": "Getter for the total amount of `token` already released. `token` should be the address of an IERC20 contract."
      },
      "totalShares()": {
        "details": "Getter for the total shares held by payees."
      },
      "totalSupply()": {
        "details": "See {IERC20-totalSupply}."
      },
      "transfer(address,uint256)": {
        "details": "See {IERC20-transfer}. Requirements: - `to` cannot be the zero address. - the caller must have a balance of at least `amount`."
      },
      "transferFrom(address,address,uint256)": {
        "details": "See {IERC20-transferFrom}. Emits an {Approval} event indicating the updated allowance. This is not required by the EIP. See the note at the beginning of {ERC20}. NOTE: Does not update the allowance if the current allowance is the maximum `uint256`. Requirements: - `from` and `to` cannot be the zero address. - `from` must have a balance of at least `amount`. - the caller must have allowance for ``from``'s tokens of at least `amount`."
      },
      "transferOwnership(address)": {
        "details": "Transfers ownership of the contract to a new account (`newOwner`). Can only be called by the current owner."
      },
      "updateCashoutFee(uint256)": {
        "params": {
          "value": "new percentage (100 = 100%)"
        }
      },
      "updateCashoutTaxPool(address)": {
        "params": {
          "wall": "new target address for cashout tax"
        }
      },
      "updateDevelopmentFee(uint256)": {
        "params": {
          "value": "new percentage (100 = 100%)"
        }
      },
      "updateDevelopmentFundWallet(address)": {
        "params": {
          "wall": "new wallet address"
        }
      },
      "updateLiquidityFee(uint256)": {
        "params": {
          "value": "new percentage (100 = 100%)"
        }
      },
      "updateLiquidityWallet(address)": {
        "params": {
          "wall": "new wallet address"
        }
      },
      "updateRewardsFee(uint256)": {
        "params": {
          "value": "new percentage (100 = 100%)"
        }
      },
      "updateRewardsWallet(address)": {
        "params": {
          "wall": "new wallet address"
        }
      },
      "updateTreasuryFee(uint256)": {
        "params": {
          "value": "new percentage (100 = 100%)"
        }
      },
      "updateTreasuryWallet(address)": {
        "params": {
          "wall": "new wallet address"
        }
      }
    },
    "version": 1
  },
  "userdoc": {
    "kind": "user",
    "methods": {
      "_walletName(address)": {
        "notice": "return a string according to wallet name"
      },
      "cashoutAll()": {
        "notice": "cashout reward from all contracts"
      },
      "cashoutReward(uint256)": {
        "notice": "cashout reward from a single contract"
      },
      "changeEnableAutoSwapCashout(bool)": {
        "notice": "change autoswap mode for cashout"
      },
      "changeEnableAutoSwapDevFund(bool)": {
        "notice": "change autoswap mode for dev/fund wallet"
      },
      "changeEnableAutoSwapTreasury(bool)": {
        "notice": "change autoswap mode for treasury"
      },
      "mintConts(string[],uint8)": {
        "notice": "mint new contracts"
      },
      "setBlacklistStatus(address,bool)": {
        "notice": "blacklist/un-blacklist an account"
      },
      "setContManagement(address)": {
        "notice": "set new address of ContRewardManager"
      },
      "setEnableCashout(bool)": {
        "notice": "set if user can cashout"
      },
      "setEnableMintConts(bool)": {
        "notice": "set if user can mint new contract"
      },
      "setLiquidityRouter(address)": {
        "notice": "set new address of LiquidityRouter"
      },
      "setUSDCAddress(address)": {
        "notice": "set address of usdc"
      },
      "swap0xBForExactToken(address,uint256,uint256,uint256)": {
        "notice": "swap from an exact 0xB amount to an ERC20 tokens"
      },
      "swapAVAXForExact0xB(uint256,uint256,uint256)": {
        "notice": "swap from an exact 0xB amount to an ERC20 tokens"
      },
      "swapExact0xBForToken(address,uint256,uint256,uint256)": {
        "notice": "swap from an exact 0xB amount to an ERC20 tokens"
      },
      "swapExactAVAXFor0xB(uint256,uint256)": {
        "notice": "swap from an exact 0xB amount to an ERC20 tokens"
      },
      "swapExactTokenFor0xB(address,uint256,uint256,uint256)": {
        "notice": "swap from an exact amount of erc20 token to 0xB"
      },
      "swapTokenForExact0xB(address,uint256,uint256,uint256)": {
        "notice": "swap from an erc20 token to exact amount of 0xB"
      },
      "updateCashoutFee(uint256)": {
        "notice": "set percentage of contract mint to be sent to cashout wallet"
      },
      "updateCashoutTaxPool(address)": {
        "notice": "set new pool to send cashout tax to"
      },
      "updateDevelopmentFee(uint256)": {
        "notice": "set percentage of contract mint to be sent to dev/marketing pool"
      },
      "updateDevelopmentFundWallet(address)": {
        "notice": "set new wallet for development/marketing team"
      },
      "updateLiquidityFee(uint256)": {
        "notice": "set percentage of contract mint to be sent to liquidity"
      },
      "updateLiquidityWallet(address)": {
        "notice": "set new wallet for liquidity temporary pool"
      },
      "updateRewardsFee(uint256)": {
        "notice": "set percentage of contract mint to be sent to rewards pool"
      },
      "updateRewardsWallet(address)": {
        "notice": "set new wallet for rewards"
      },
      "updateTreasuryFee(uint256)": {
        "notice": "set percentage of contract mint to be sent to treasury pool"
      },
      "updateTreasuryWallet(address)": {
        "notice": "set new wallet for treasury"
      }
    },
    "version": 1
  },
  "storageLayout": {
    "storage": [
      {
        "astId": 598,
        "contract": "contracts/ZeroXBlock.sol:ZeroXBlock",
        "label": "_initialized",
        "offset": 0,
        "slot": "0",
        "type": "t_bool"
      },
      {
        "astId": 601,
        "contract": "contracts/ZeroXBlock.sol:ZeroXBlock",
        "label": "_initializing",
        "offset": 1,
        "slot": "0",
        "type": "t_bool"
      },
      {
        "astId": 1889,
        "contract": "contracts/ZeroXBlock.sol:ZeroXBlock",
        "label": "__gap",
        "offset": 0,
        "slot": "1",
        "type": "t_array(t_uint256)50_storage"
      },
      {
        "astId": 684,
        "contract": "contracts/ZeroXBlock.sol:ZeroXBlock",
        "label": "_balances",
        "offset": 0,
        "slot": "51",
        "type": "t_mapping(t_address,t_uint256)"
      },
      {
        "astId": 690,
        "contract": "contracts/ZeroXBlock.sol:ZeroXBlock",
        "label": "_allowances",
        "offset": 0,
        "slot": "52",
        "type": "t_mapping(t_address,t_mapping(t_address,t_uint256))"
      },
      {
        "astId": 692,
        "contract": "contracts/ZeroXBlock.sol:ZeroXBlock",
        "label": "_totalSupply",
        "offset": 0,
        "slot": "53",
        "type": "t_uint256"
      },
      {
        "astId": 694,
        "contract": "contracts/ZeroXBlock.sol:ZeroXBlock",
        "label": "_name",
        "offset": 0,
        "slot": "54",
        "type": "t_string_storage"
      },
      {
        "astId": 696,
        "contract": "contracts/ZeroXBlock.sol:ZeroXBlock",
        "label": "_symbol",
        "offset": 0,
        "slot": "55",
        "type": "t_string_storage"
      },
      {
        "astId": 1277,
        "contract": "contracts/ZeroXBlock.sol:ZeroXBlock",
        "label": "__gap",
        "offset": 0,
        "slot": "56",
        "type": "t_array(t_uint256)45_storage"
      },
      {
        "astId": 10,
        "contract": "contracts/ZeroXBlock.sol:ZeroXBlock",
        "label": "_owner",
        "offset": 0,
        "slot": "101",
        "type": "t_address"
      },
      {
        "astId": 122,
        "contract": "contracts/ZeroXBlock.sol:ZeroXBlock",
        "label": "__gap",
        "offset": 0,
        "slot": "102",
        "type": "t_array(t_uint256)49_storage"
      },
      {
        "astId": 163,
        "contract": "contracts/ZeroXBlock.sol:ZeroXBlock",
        "label": "_totalShares",
        "offset": 0,
        "slot": "151",
        "type": "t_uint256"
      },
      {
        "astId": 165,
        "contract": "contracts/ZeroXBlock.sol:ZeroXBlock",
        "label": "_totalReleased",
        "offset": 0,
        "slot": "152",
        "type": "t_uint256"
      },
      {
        "astId": 169,
        "contract": "contracts/ZeroXBlock.sol:ZeroXBlock",
        "label": "_shares",
        "offset": 0,
        "slot": "153",
        "type": "t_mapping(t_address,t_uint256)"
      },
      {
        "astId": 173,
        "contract": "contracts/ZeroXBlock.sol:ZeroXBlock",
        "label": "_released",
        "offset": 0,
        "slot": "154",
        "type": "t_mapping(t_address,t_uint256)"
      },
      {
        "astId": 176,
        "contract": "contracts/ZeroXBlock.sol:ZeroXBlock",
        "label": "_payees",
        "offset": 0,
        "slot": "155",
        "type": "t_array(t_address)dyn_storage"
      },
      {
        "astId": 181,
        "contract": "contracts/ZeroXBlock.sol:ZeroXBlock",
        "label": "_erc20TotalReleased",
        "offset": 0,
        "slot": "156",
        "type": "t_mapping(t_contract(IERC20Upgradeable)1356,t_uint256)"
      },
      {
        "astId": 188,
        "contract": "contracts/ZeroXBlock.sol:ZeroXBlock",
        "label": "_erc20Released",
        "offset": 0,
        "slot": "157",
        "type": "t_mapping(t_contract(IERC20Upgradeable)1356,t_mapping(t_address,t_uint256))"
      },
      {
        "astId": 590,
        "contract": "contracts/ZeroXBlock.sol:ZeroXBlock",
        "label": "__gap",
        "offset": 0,
        "slot": "158",
        "type": "t_array(t_uint256)43_storage"
      },
      {
        "astId": 3107,
        "contract": "contracts/ZeroXBlock.sol:ZeroXBlock",
        "label": "_crm",
        "offset": 0,
        "slot": "201",
        "type": "t_contract(CONTRewardManagement)7407"
      },
      {
        "astId": 3110,
        "contract": "contracts/ZeroXBlock.sol:ZeroXBlock",
        "label": "uniswapV2Router",
        "offset": 0,
        "slot": "202",
        "type": "t_contract(IJoeRouter02)12274"
      },
      {
        "astId": 3115,
        "contract": "contracts/ZeroXBlock.sol:ZeroXBlock",
        "label": "ownedContsLimit",
        "offset": 0,
        "slot": "203",
        "type": "t_uint256"
      },
      {
        "astId": 3117,
        "contract": "contracts/ZeroXBlock.sol:ZeroXBlock",
        "label": "mintContLimit",
        "offset": 0,
        "slot": "204",
        "type": "t_uint256"
      },
      {
        "astId": 3119,
        "contract": "contracts/ZeroXBlock.sol:ZeroXBlock",
        "label": "uniswapV2Pair",
        "offset": 0,
        "slot": "205",
        "type": "t_address"
      },
      {
        "astId": 3121,
        "contract": "contracts/ZeroXBlock.sol:ZeroXBlock",
        "label": "totalTokensPaidForMinting",
        "offset": 0,
        "slot": "206",
        "type": "t_uint256"
      },
      {
        "astId": 3123,
        "contract": "contracts/ZeroXBlock.sol:ZeroXBlock",
        "label": "developmentFundPool",
        "offset": 0,
        "slot": "207",
        "type": "t_address"
      },
      {
        "astId": 3125,
        "contract": "contracts/ZeroXBlock.sol:ZeroXBlock",
        "label": "treasuryPool",
        "offset": 0,
        "slot": "208",
        "type": "t_address"
      },
      {
        "astId": 3127,
        "contract": "contracts/ZeroXBlock.sol:ZeroXBlock",
        "label": "rewardsPool",
        "offset": 0,
        "slot": "209",
        "type": "t_address"
      },
      {
        "astId": 3129,
        "contract": "contracts/ZeroXBlock.sol:ZeroXBlock",
        "label": "liquidityPool",
        "offset": 0,
        "slot": "210",
        "type": "t_address"
      },
      {
        "astId": 3131,
        "contract": "contracts/ZeroXBlock.sol:ZeroXBlock",
        "label": "rewardsFee",
        "offset": 0,
        "slot": "211",
        "type": "t_uint256"
      },
      {
        "astId": 3133,
        "contract": "contracts/ZeroXBlock.sol:ZeroXBlock",
        "label": "treasuryFee",
        "offset": 0,
        "slot": "212",
        "type": "t_uint256"
      },
      {
        "astId": 3135,
        "contract": "contracts/ZeroXBlock.sol:ZeroXBlock",
        "label": "liquidityPoolFee",
        "offset": 0,
        "slot": "213",
        "type": "t_uint256"
      },
      {
        "astId": 3137,
        "contract": "contracts/ZeroXBlock.sol:ZeroXBlock",
        "label": "developmentFee",
        "offset": 0,
        "slot": "214",
        "type": "t_uint256"
      },
      {
        "astId": 3139,
        "contract": "contracts/ZeroXBlock.sol:ZeroXBlock",
        "label": "totalFees",
        "offset": 0,
        "slot": "215",
        "type": "t_uint256"
      },
      {
        "astId": 3141,
        "contract": "contracts/ZeroXBlock.sol:ZeroXBlock",
        "label": "cashoutFee",
        "offset": 0,
        "slot": "216",
        "type": "t_uint256"
      },
      {
        "astId": 3143,
        "contract": "contracts/ZeroXBlock.sol:ZeroXBlock",
        "label": "enableAutoSwapTreasury",
        "offset": 0,
        "slot": "217",
        "type": "t_bool"
      },
      {
        "astId": 3145,
        "contract": "contracts/ZeroXBlock.sol:ZeroXBlock",
        "label": "enableAutoSwapDevFund",
        "offset": 1,
        "slot": "217",
        "type": "t_bool"
      },
      {
        "astId": 3147,
        "contract": "contracts/ZeroXBlock.sol:ZeroXBlock",
        "label": "usdcToken",
        "offset": 2,
        "slot": "217",
        "type": "t_address"
      },
      {
        "astId": 3149,
        "contract": "contracts/ZeroXBlock.sol:ZeroXBlock",
        "label": "antiBotEnabled",
        "offset": 22,
        "slot": "217",
        "type": "t_bool"
      },
      {
        "astId": 3151,
        "contract": "contracts/ZeroXBlock.sol:ZeroXBlock",
        "label": "launchBuyLimit",
        "offset": 0,
        "slot": "218",
        "type": "t_uint256"
      },
      {
        "astId": 3153,
        "contract": "contracts/ZeroXBlock.sol:ZeroXBlock",
        "label": "launchBuyTimeout",
        "offset": 0,
        "slot": "219",
        "type": "t_uint256"
      },
      {
        "astId": 3157,
        "contract": "contracts/ZeroXBlock.sol:ZeroXBlock",
        "label": "_lastBuyOnLaunch",
        "offset": 0,
        "slot": "220",
        "type": "t_mapping(t_address,t_uint256)"
      },
      {
        "astId": 3161,
        "contract": "contracts/ZeroXBlock.sol:ZeroXBlock",
        "label": "_isBlacklisted",
        "offset": 0,
        "slot": "221",
        "type": "t_mapping(t_address,t_bool)"
      },
      {
        "astId": 3165,
        "contract": "contracts/ZeroXBlock.sol:ZeroXBlock",
        "label": "automatedMarketMakerPairs",
        "offset": 0,
        "slot": "222",
        "type": "t_mapping(t_address,t_bool)"
      },
      {
        "astId": 3167,
        "contract": "contracts/ZeroXBlock.sol:ZeroXBlock",
        "label": "enableCashout",
        "offset": 0,
        "slot": "223",
        "type": "t_bool"
      },
      {
        "astId": 3169,
        "contract": "contracts/ZeroXBlock.sol:ZeroXBlock",
        "label": "enableMintConts",
        "offset": 1,
        "slot": "223",
        "type": "t_bool"
      },
      {
        "astId": 3171,
        "contract": "contracts/ZeroXBlock.sol:ZeroXBlock",
        "label": "cashoutTaxPool",
        "offset": 2,
        "slot": "223",
        "type": "t_address"
      },
      {
        "astId": 3174,
        "contract": "contracts/ZeroXBlock.sol:ZeroXBlock",
        "label": "_liqRouter",
        "offset": 0,
        "slot": "224",
        "type": "t_contract(LiquidityRouter)10509"
      },
      {
        "astId": 3176,
        "contract": "contracts/ZeroXBlock.sol:ZeroXBlock",
        "label": "enableAutoSwapCashout",
        "offset": 20,
        "slot": "224",
        "type": "t_bool"
      }
    ],
    "types": {
      "t_address": {
        "encoding": "inplace",
        "label": "address",
        "numberOfBytes": "20"
      },
      "t_array(t_address)dyn_storage": {
        "base": "t_address",
        "encoding": "dynamic_array",
        "label": "address[]",
        "numberOfBytes": "32"
      },
      "t_array(t_uint256)43_storage": {
        "base": "t_uint256",
        "encoding": "inplace",
        "label": "uint256[43]",
        "numberOfBytes": "1376"
      },
      "t_array(t_uint256)45_storage": {
        "base": "t_uint256",
        "encoding": "inplace",
        "label": "uint256[45]",
        "numberOfBytes": "1440"
      },
      "t_array(t_uint256)49_storage": {
        "base": "t_uint256",
        "encoding": "inplace",
        "label": "uint256[49]",
        "numberOfBytes": "1568"
      },
      "t_array(t_uint256)50_storage": {
        "base": "t_uint256",
        "encoding": "inplace",
        "label": "uint256[50]",
        "numberOfBytes": "1600"
      },
      "t_bool": {
        "encoding": "inplace",
        "label": "bool",
        "numberOfBytes": "1"
      },
      "t_contract(CONTRewardManagement)7407": {
        "encoding": "inplace",
        "label": "contract CONTRewardManagement",
        "numberOfBytes": "20"
      },
      "t_contract(IERC20Upgradeable)1356": {
        "encoding": "inplace",
        "label": "contract IERC20Upgradeable",
        "numberOfBytes": "20"
      },
      "t_contract(IJoeRouter02)12274": {
        "encoding": "inplace",
        "label": "contract IJoeRouter02",
        "numberOfBytes": "20"
      },
      "t_contract(LiquidityRouter)10509": {
        "encoding": "inplace",
        "label": "contract LiquidityRouter",
        "numberOfBytes": "20"
      },
      "t_mapping(t_address,t_bool)": {
        "encoding": "mapping",
        "key": "t_address",
        "label": "mapping(address => bool)",
        "numberOfBytes": "32",
        "value": "t_bool"
      },
      "t_mapping(t_address,t_mapping(t_address,t_uint256))": {
        "encoding": "mapping",
        "key": "t_address",
        "label": "mapping(address => mapping(address => uint256))",
        "numberOfBytes": "32",
        "value": "t_mapping(t_address,t_uint256)"
      },
      "t_mapping(t_address,t_uint256)": {
        "encoding": "mapping",
        "key": "t_address",
        "label": "mapping(address => uint256)",
        "numberOfBytes": "32",
        "value": "t_uint256"
      },
      "t_mapping(t_contract(IERC20Upgradeable)1356,t_mapping(t_address,t_uint256))": {
        "encoding": "mapping",
        "key": "t_contract(IERC20Upgradeable)1356",
        "label": "mapping(contract IERC20Upgradeable => mapping(address => uint256))",
        "numberOfBytes": "32",
        "value": "t_mapping(t_address,t_uint256)"
      },
      "t_mapping(t_contract(IERC20Upgradeable)1356,t_uint256)": {
        "encoding": "mapping",
        "key": "t_contract(IERC20Upgradeable)1356",
        "label": "mapping(contract IERC20Upgradeable => uint256)",
        "numberOfBytes": "32",
        "value": "t_uint256"
      },
      "t_string_storage": {
        "encoding": "bytes",
        "label": "string",
        "numberOfBytes": "32"
      },
      "t_uint256": {
        "encoding": "inplace",
        "label": "uint256",
        "numberOfBytes": "32"
      }
    }
  }
}