{
  "address": "0x0c8f438C95a6D5fa4FF91578003EA9F114054989",
  "abi": [
    {
      "anonymous": false,
      "inputs": [
        {
          "indexed": false,
          "internalType": "address",
          "name": "sender",
          "type": "address"
        },
        {
          "indexed": false,
          "internalType": "uint256",
          "name": "tokens",
          "type": "uint256"
        }
      ],
      "name": "AddLiquidity",
      "type": "event"
    },
    {
      "anonymous": false,
      "inputs": [
        {
          "indexed": true,
          "internalType": "address",
          "name": "owner",
          "type": "address"
        },
        {
          "indexed": true,
          "internalType": "address",
          "name": "spender",
          "type": "address"
        },
        {
          "indexed": false,
          "internalType": "uint256",
          "name": "value",
          "type": "uint256"
        }
      ],
      "name": "Approval",
      "type": "event"
    },
    {
      "anonymous": false,
      "inputs": [
        {
          "indexed": false,
          "internalType": "address",
          "name": "sender",
          "type": "address"
        }
      ],
      "name": "ContsMinted",
      "type": "event"
    },
    {
      "anonymous": false,
      "inputs": [
        {
          "indexed": true,
          "internalType": "contract IERC20Upgradeable",
          "name": "token",
          "type": "address"
        },
        {
          "indexed": false,
          "internalType": "address",
          "name": "to",
          "type": "address"
        },
        {
          "indexed": false,
          "internalType": "uint256",
          "name": "amount",
          "type": "uint256"
        }
      ],
      "name": "ERC20PaymentReleased",
      "type": "event"
    },
    {
      "anonymous": false,
      "inputs": [
        {
          "indexed": true,
          "internalType": "address",
          "name": "previousOwner",
          "type": "address"
        },
        {
          "indexed": true,
          "internalType": "address",
          "name": "newOwner",
          "type": "address"
        }
      ],
      "name": "OwnershipTransferred",
      "type": "event"
    },
    {
      "anonymous": false,
      "inputs": [
        {
          "indexed": false,
          "internalType": "address",
          "name": "account",
          "type": "address"
        },
        {
          "indexed": false,
          "internalType": "uint256",
          "name": "shares",
          "type": "uint256"
        }
      ],
      "name": "PayeeAdded",
      "type": "event"
    },
    {
      "anonymous": false,
      "inputs": [
        {
          "indexed": false,
          "internalType": "address",
          "name": "from",
          "type": "address"
        },
        {
          "indexed": false,
          "internalType": "uint256",
          "name": "amount",
          "type": "uint256"
        }
      ],
      "name": "PaymentReceived",
      "type": "event"
    },
    {
      "anonymous": false,
      "inputs": [
        {
          "indexed": false,
          "internalType": "address",
          "name": "to",
          "type": "address"
        },
        {
          "indexed": false,
          "internalType": "uint256",
          "name": "amount",
          "type": "uint256"
        }
      ],
      "name": "PaymentReleased",
      "type": "event"
    },
    {
      "anonymous": false,
      "inputs": [
        {
          "indexed": false,
          "internalType": "address",
          "name": "sender",
          "type": "address"
        }
      ],
      "name": "RewardCashoutAll",
      "type": "event"
    },
    {
      "anonymous": false,
      "inputs": [
        {
          "indexed": false,
          "internalType": "address",
          "name": "sender",
          "type": "address"
        },
        {
          "indexed": false,
          "internalType": "uint256",
          "name": "index",
          "type": "uint256"
        }
      ],
      "name": "RewardCashoutOne",
      "type": "event"
    },
    {
      "anonymous": false,
      "inputs": [
        {
          "indexed": true,
          "internalType": "address",
          "name": "from",
          "type": "address"
        },
        {
          "indexed": true,
          "internalType": "address",
          "name": "to",
          "type": "address"
        },
        {
          "indexed": false,
          "internalType": "uint256",
          "name": "value",
          "type": "uint256"
        }
      ],
      "name": "Transfer",
      "type": "event"
    },
    {
      "inputs": [],
      "name": "_crm",
      "outputs": [
        {
          "internalType": "contract CONTRewardManagement",
          "name": "",
          "type": "address"
        }
      ],
      "stateMutability": "view",
      "type": "function"
    },
    {
      "inputs": [
        {
          "internalType": "address",
          "name": "",
          "type": "address"
        }
      ],
      "name": "_isBlacklisted",
      "outputs": [
        {
          "internalType": "bool",
          "name": "",
          "type": "bool"
        }
      ],
      "stateMutability": "view",
      "type": "function"
    },
    {
      "inputs": [],
      "name": "_liqRouter",
      "outputs": [
        {
          "internalType": "contract LiquidityRouter",
          "name": "",
          "type": "address"
        }
      ],
      "stateMutability": "view",
      "type": "function"
    },
    {
      "inputs": [
        {
          "internalType": "address",
          "name": "owner",
          "type": "address"
        },
        {
          "internalType": "address",
          "name": "spender",
          "type": "address"
        }
      ],
      "name": "allowance",
      "outputs": [
        {
          "internalType": "uint256",
          "name": "",
          "type": "uint256"
        }
      ],
      "stateMutability": "view",
      "type": "function"
    },
    {
      "inputs": [
        {
          "internalType": "address",
          "name": "spender",
          "type": "address"
        },
        {
          "internalType": "uint256",
          "name": "amount",
          "type": "uint256"
        }
      ],
      "name": "approve",
      "outputs": [
        {
          "internalType": "bool",
          "name": "",
          "type": "bool"
        }
      ],
      "stateMutability": "nonpayable",
      "type": "function"
    },
    {
      "inputs": [
        {
          "internalType": "address",
          "name": "account",
          "type": "address"
        }
      ],
      "name": "balanceOf",
      "outputs": [
        {
          "internalType": "uint256",
          "name": "",
          "type": "uint256"
        }
      ],
      "stateMutability": "view",
      "type": "function"
    },
    {
      "inputs": [],
      "name": "cashoutAll",
      "outputs": [],
      "stateMutability": "nonpayable",
      "type": "function"
    },
    {
      "inputs": [],
      "name": "cashoutFee",
      "outputs": [
        {
          "internalType": "uint256",
          "name": "",
          "type": "uint256"
        }
      ],
      "stateMutability": "view",
      "type": "function"
    },
    {
      "inputs": [
        {
          "internalType": "uint256",
          "name": "_contIndex",
          "type": "uint256"
        }
      ],
      "name": "cashoutReward",
      "outputs": [],
      "stateMutability": "nonpayable",
      "type": "function"
    },
    {
      "inputs": [
        {
          "internalType": "uint256",
          "name": "newTime",
          "type": "uint256"
        }
      ],
      "name": "changeCashoutTimeout",
      "outputs": [],
      "stateMutability": "nonpayable",
      "type": "function"
    },
    {
      "inputs": [
        {
          "internalType": "enum ContType",
          "name": "_cType",
          "type": "uint8"
        },
        {
          "internalType": "uint256",
          "name": "newPrice",
          "type": "uint256"
        }
      ],
      "name": "changeContPrice",
      "outputs": [],
      "stateMutability": "nonpayable",
      "type": "function"
    },
    {
      "inputs": [
        {
          "internalType": "bool",
          "name": "newVal",
          "type": "bool"
        }
      ],
      "name": "changeEnableAutoSwapDevFund",
      "outputs": [],
      "stateMutability": "nonpayable",
      "type": "function"
    },
    {
      "inputs": [
        {
          "internalType": "bool",
          "name": "newVal",
          "type": "bool"
        }
      ],
      "name": "changeEnableAutoSwapTreasury",
      "outputs": [],
      "stateMutability": "nonpayable",
      "type": "function"
    },
    {
      "inputs": [
        {
          "internalType": "enum ContType",
          "name": "_cType",
          "type": "uint8"
        },
        {
          "internalType": "int256",
          "name": "deductPcent",
          "type": "int256"
        }
      ],
      "name": "changeRewardAPRPerCont",
      "outputs": [],
      "stateMutability": "nonpayable",
      "type": "function"
    },
    {
      "inputs": [],
      "name": "decimals",
      "outputs": [
        {
          "internalType": "uint8",
          "name": "",
          "type": "uint8"
        }
      ],
      "stateMutability": "view",
      "type": "function"
    },
    {
      "inputs": [
        {
          "internalType": "address",
          "name": "spender",
          "type": "address"
        },
        {
          "internalType": "uint256",
          "name": "subtractedValue",
          "type": "uint256"
        }
      ],
      "name": "decreaseAllowance",
      "outputs": [
        {
          "internalType": "bool",
          "name": "",
          "type": "bool"
        }
      ],
      "stateMutability": "nonpayable",
      "type": "function"
    },
    {
      "inputs": [],
      "name": "developmentFee",
      "outputs": [
        {
          "internalType": "uint256",
          "name": "",
          "type": "uint256"
        }
      ],
      "stateMutability": "view",
      "type": "function"
    },
    {
      "inputs": [],
      "name": "developmentFundPool",
      "outputs": [
        {
          "internalType": "address",
          "name": "",
          "type": "address"
        }
      ],
      "stateMutability": "view",
      "type": "function"
    },
    {
      "inputs": [],
      "name": "enableAutoSwapDevFund",
      "outputs": [
        {
          "internalType": "bool",
          "name": "",
          "type": "bool"
        }
      ],
      "stateMutability": "view",
      "type": "function"
    },
    {
      "inputs": [],
      "name": "enableAutoSwapTreasury",
      "outputs": [
        {
          "internalType": "bool",
          "name": "",
          "type": "bool"
        }
      ],
      "stateMutability": "view",
      "type": "function"
    },
    {
      "inputs": [],
      "name": "enableCashout",
      "outputs": [
        {
          "internalType": "bool",
          "name": "",
          "type": "bool"
        }
      ],
      "stateMutability": "view",
      "type": "function"
    },
    {
      "inputs": [],
      "name": "enableMintConts",
      "outputs": [
        {
          "internalType": "bool",
          "name": "",
          "type": "bool"
        }
      ],
      "stateMutability": "view",
      "type": "function"
    },
    {
      "inputs": [],
      "name": "getCashoutTimeout",
      "outputs": [
        {
          "internalType": "uint256",
          "name": "",
          "type": "uint256"
        }
      ],
      "stateMutability": "view",
      "type": "function"
    },
    {
      "inputs": [
        {
          "internalType": "enum ContType",
          "name": "_cType",
          "type": "uint8"
        }
      ],
      "name": "getContPrice",
      "outputs": [
        {
          "internalType": "uint256",
          "name": "",
          "type": "uint256"
        }
      ],
      "stateMutability": "view",
      "type": "function"
    },
    {
      "inputs": [],
      "name": "getContsCreationTime",
      "outputs": [
        {
          "internalType": "string",
          "name": "",
          "type": "string"
        }
      ],
      "stateMutability": "view",
      "type": "function"
    },
    {
      "inputs": [],
      "name": "getContsCurrentAPR",
      "outputs": [
        {
          "internalType": "string",
          "name": "",
          "type": "string"
        }
      ],
      "stateMutability": "view",
      "type": "function"
    },
    {
      "inputs": [],
      "name": "getContsInitialAPR",
      "outputs": [
        {
          "internalType": "string",
          "name": "",
          "type": "string"
        }
      ],
      "stateMutability": "view",
      "type": "function"
    },
    {
      "inputs": [],
      "name": "getContsLastCashoutTime",
      "outputs": [
        {
          "internalType": "string",
          "name": "",
          "type": "string"
        }
      ],
      "stateMutability": "view",
      "type": "function"
    },
    {
      "inputs": [],
      "name": "getContsNames",
      "outputs": [
        {
          "internalType": "string",
          "name": "",
          "type": "string"
        }
      ],
      "stateMutability": "view",
      "type": "function"
    },
    {
      "inputs": [],
      "name": "getContsRewards",
      "outputs": [
        {
          "internalType": "string",
          "name": "",
          "type": "string"
        }
      ],
      "stateMutability": "view",
      "type": "function"
    },
    {
      "inputs": [],
      "name": "getContsTypes",
      "outputs": [
        {
          "internalType": "string",
          "name": "",
          "type": "string"
        }
      ],
      "stateMutability": "view",
      "type": "function"
    },
    {
      "inputs": [
        {
          "internalType": "bool",
          "name": "is0xBOut",
          "type": "bool"
        },
        {
          "internalType": "address",
          "name": "targetToken",
          "type": "address"
        },
        {
          "internalType": "uint256",
          "name": "outputAmount",
          "type": "uint256"
        }
      ],
      "name": "getInputAmount",
      "outputs": [
        {
          "internalType": "uint256[]",
          "name": "",
          "type": "uint256[]"
        }
      ],
      "stateMutability": "view",
      "type": "function"
    },
    {
      "inputs": [
        {
          "internalType": "bool",
          "name": "is0xBOut",
          "type": "bool"
        },
        {
          "internalType": "address",
          "name": "targetToken",
          "type": "address"
        },
        {
          "internalType": "uint256",
          "name": "inputAmount",
          "type": "uint256"
        }
      ],
      "name": "getOutputAmount",
      "outputs": [
        {
          "internalType": "uint256[]",
          "name": "",
          "type": "uint256[]"
        }
      ],
      "stateMutability": "view",
      "type": "function"
    },
    {
      "inputs": [
        {
          "internalType": "enum ContType",
          "name": "_cType",
          "type": "uint8"
        }
      ],
      "name": "getRewardAPRPerCont",
      "outputs": [
        {
          "internalType": "uint256",
          "name": "",
          "type": "uint256"
        }
      ],
      "stateMutability": "view",
      "type": "function"
    },
    {
      "inputs": [],
      "name": "getRewardAmount",
      "outputs": [
        {
          "internalType": "uint256",
          "name": "",
          "type": "uint256"
        }
      ],
      "stateMutability": "view",
      "type": "function"
    },
    {
      "inputs": [],
      "name": "getTotalConts",
      "outputs": [
        {
          "internalType": "uint256",
          "name": "",
          "type": "uint256"
        }
      ],
      "stateMutability": "view",
      "type": "function"
    },
    {
      "inputs": [
        {
          "internalType": "enum ContType",
          "name": "__cType",
          "type": "uint8"
        }
      ],
      "name": "getTotalContsPerContType",
      "outputs": [
        {
          "internalType": "uint256",
          "name": "",
          "type": "uint256"
        }
      ],
      "stateMutability": "view",
      "type": "function"
    },
    {
      "inputs": [
        {
          "internalType": "address",
          "name": "spender",
          "type": "address"
        },
        {
          "internalType": "uint256",
          "name": "addedValue",
          "type": "uint256"
        }
      ],
      "name": "increaseAllowance",
      "outputs": [
        {
          "internalType": "bool",
          "name": "",
          "type": "bool"
        }
      ],
      "stateMutability": "nonpayable",
      "type": "function"
    },
    {
      "inputs": [
        {
          "internalType": "address[]",
          "name": "payees",
          "type": "address[]"
        },
        {
          "internalType": "uint256[]",
          "name": "shares",
          "type": "uint256[]"
        },
        {
          "internalType": "address[]",
          "name": "addresses",
          "type": "address[]"
        },
        {
          "internalType": "uint256[]",
          "name": "balances",
          "type": "uint256[]"
        },
        {
          "internalType": "uint256[]",
          "name": "fees",
          "type": "uint256[]"
        },
        {
          "internalType": "address",
          "name": "usdcAddr",
          "type": "address"
        }
      ],
      "name": "initialize",
      "outputs": [],
      "stateMutability": "nonpayable",
      "type": "function"
    },
    {
      "inputs": [],
      "name": "liquidityPool",
      "outputs": [
        {
          "internalType": "address",
          "name": "",
          "type": "address"
        }
      ],
      "stateMutability": "view",
      "type": "function"
    },
    {
      "inputs": [],
      "name": "liquidityPoolFee",
      "outputs": [
        {
          "internalType": "uint256",
          "name": "",
          "type": "uint256"
        }
      ],
      "stateMutability": "view",
      "type": "function"
    },
    {
      "inputs": [
        {
          "internalType": "string[]",
          "name": "names",
          "type": "string[]"
        },
        {
          "internalType": "enum ContType",
          "name": "_cType",
          "type": "uint8"
        }
      ],
      "name": "mintConts",
      "outputs": [],
      "stateMutability": "nonpayable",
      "type": "function"
    },
    {
      "inputs": [],
      "name": "name",
      "outputs": [
        {
          "internalType": "string",
          "name": "",
          "type": "string"
        }
      ],
      "stateMutability": "view",
      "type": "function"
    },
    {
      "inputs": [],
      "name": "ownedContsLimit",
      "outputs": [
        {
          "internalType": "uint256",
          "name": "",
          "type": "uint256"
        }
      ],
      "stateMutability": "view",
      "type": "function"
    },
    {
      "inputs": [],
      "name": "owner",
      "outputs": [
        {
          "internalType": "address",
          "name": "",
          "type": "address"
        }
      ],
      "stateMutability": "view",
      "type": "function"
    },
    {
      "inputs": [
        {
          "internalType": "uint256",
          "name": "index",
          "type": "uint256"
        }
      ],
      "name": "payee",
      "outputs": [
        {
          "internalType": "address",
          "name": "",
          "type": "address"
        }
      ],
      "stateMutability": "view",
      "type": "function"
    },
    {
      "inputs": [
        {
          "internalType": "address payable",
          "name": "account",
          "type": "address"
        }
      ],
      "name": "release",
      "outputs": [],
      "stateMutability": "nonpayable",
      "type": "function"
    },
    {
      "inputs": [
        {
          "internalType": "contract IERC20Upgradeable",
          "name": "token",
          "type": "address"
        },
        {
          "internalType": "address",
          "name": "account",
          "type": "address"
        }
      ],
      "name": "release",
      "outputs": [],
      "stateMutability": "nonpayable",
      "type": "function"
    },
    {
      "inputs": [
        {
          "internalType": "contract IERC20Upgradeable",
          "name": "token",
          "type": "address"
        },
        {
          "internalType": "address",
          "name": "account",
          "type": "address"
        }
      ],
      "name": "released",
      "outputs": [
        {
          "internalType": "uint256",
          "name": "",
          "type": "uint256"
        }
      ],
      "stateMutability": "view",
      "type": "function"
    },
    {
      "inputs": [
        {
          "internalType": "address",
          "name": "account",
          "type": "address"
        }
      ],
      "name": "released",
      "outputs": [
        {
          "internalType": "uint256",
          "name": "",
          "type": "uint256"
        }
      ],
      "stateMutability": "view",
      "type": "function"
    },
    {
      "inputs": [],
      "name": "renounceOwnership",
      "outputs": [],
      "stateMutability": "nonpayable",
      "type": "function"
    },
    {
      "inputs": [],
      "name": "rewardsFee",
      "outputs": [
        {
          "internalType": "uint256",
          "name": "",
          "type": "uint256"
        }
      ],
      "stateMutability": "view",
      "type": "function"
    },
    {
      "inputs": [],
      "name": "rewardsPool",
      "outputs": [
        {
          "internalType": "address",
          "name": "",
          "type": "address"
        }
      ],
      "stateMutability": "view",
      "type": "function"
    },
    {
      "inputs": [
        {
          "internalType": "address",
          "name": "account",
          "type": "address"
        },
        {
          "internalType": "bool",
          "name": "value",
          "type": "bool"
        }
      ],
      "name": "setBlacklistStatus",
      "outputs": [],
      "stateMutability": "nonpayable",
      "type": "function"
    },
    {
      "inputs": [
        {
          "internalType": "address",
          "name": "crm",
          "type": "address"
        }
      ],
      "name": "setContManagement",
      "outputs": [],
      "stateMutability": "nonpayable",
      "type": "function"
    },
    {
      "inputs": [
        {
          "internalType": "bool",
          "name": "_enableCashout",
          "type": "bool"
        }
      ],
      "name": "setEnableCashout",
      "outputs": [],
      "stateMutability": "nonpayable",
      "type": "function"
    },
    {
      "inputs": [
        {
          "internalType": "bool",
          "name": "value",
          "type": "bool"
        }
      ],
      "name": "setEnableMintConts",
      "outputs": [],
      "stateMutability": "nonpayable",
      "type": "function"
    },
    {
      "inputs": [
        {
          "internalType": "address",
          "name": "liqRouter",
          "type": "address"
        }
      ],
      "name": "setLiquidityRouter",
      "outputs": [],
      "stateMutability": "nonpayable",
      "type": "function"
    },
    {
      "inputs": [
        {
          "internalType": "address",
          "name": "newAddress",
          "type": "address"
        }
      ],
      "name": "setUSDCAddress",
      "outputs": [],
      "stateMutability": "nonpayable",
      "type": "function"
    },
    {
      "inputs": [
        {
          "internalType": "address",
          "name": "account",
          "type": "address"
        }
      ],
      "name": "shares",
      "outputs": [
        {
          "internalType": "uint256",
          "name": "",
          "type": "uint256"
        }
      ],
      "stateMutability": "view",
      "type": "function"
    },
    {
      "inputs": [
        {
          "internalType": "address",
          "name": "tokenAddr",
          "type": "address"
        },
        {
          "internalType": "uint256",
          "name": "amountOut",
          "type": "uint256"
        }
      ],
      "name": "swap0xBForExactToken",
      "outputs": [],
      "stateMutability": "nonpayable",
      "type": "function"
    },
    {
      "inputs": [
        {
          "internalType": "address",
          "name": "tokenAddr",
          "type": "address"
        },
        {
          "internalType": "uint256",
          "name": "amountIn",
          "type": "uint256"
        }
      ],
      "name": "swapExact0xBForToken",
      "outputs": [],
      "stateMutability": "nonpayable",
      "type": "function"
    },
    {
      "inputs": [],
      "name": "symbol",
      "outputs": [
        {
          "internalType": "string",
          "name": "",
          "type": "string"
        }
      ],
      "stateMutability": "view",
      "type": "function"
    },
    {
      "inputs": [],
      "name": "totalFees",
      "outputs": [
        {
          "internalType": "uint256",
          "name": "",
          "type": "uint256"
        }
      ],
      "stateMutability": "view",
      "type": "function"
    },
    {
      "inputs": [
        {
          "internalType": "contract IERC20Upgradeable",
          "name": "token",
          "type": "address"
        }
      ],
      "name": "totalReleased",
      "outputs": [
        {
          "internalType": "uint256",
          "name": "",
          "type": "uint256"
        }
      ],
      "stateMutability": "view",
      "type": "function"
    },
    {
      "inputs": [],
      "name": "totalReleased",
      "outputs": [
        {
          "internalType": "uint256",
          "name": "",
          "type": "uint256"
        }
      ],
      "stateMutability": "view",
      "type": "function"
    },
    {
      "inputs": [],
      "name": "totalShares",
      "outputs": [
        {
          "internalType": "uint256",
          "name": "",
          "type": "uint256"
        }
      ],
      "stateMutability": "view",
      "type": "function"
    },
    {
      "inputs": [],
      "name": "totalSupply",
      "outputs": [
        {
          "internalType": "uint256",
          "name": "",
          "type": "uint256"
        }
      ],
      "stateMutability": "view",
      "type": "function"
    },
    {
      "inputs": [],
      "name": "totalTokensPaidForMinting",
      "outputs": [
        {
          "internalType": "uint256",
          "name": "",
          "type": "uint256"
        }
      ],
      "stateMutability": "view",
      "type": "function"
    },
    {
      "inputs": [
        {
          "internalType": "address",
          "name": "to",
          "type": "address"
        },
        {
          "internalType": "uint256",
          "name": "amount",
          "type": "uint256"
        }
      ],
      "name": "transfer",
      "outputs": [
        {
          "internalType": "bool",
          "name": "",
          "type": "bool"
        }
      ],
      "stateMutability": "nonpayable",
      "type": "function"
    },
    {
      "inputs": [
        {
          "internalType": "address",
          "name": "from",
          "type": "address"
        },
        {
          "internalType": "address",
          "name": "to",
          "type": "address"
        },
        {
          "internalType": "uint256",
          "name": "amount",
          "type": "uint256"
        }
      ],
      "name": "transferFrom",
      "outputs": [
        {
          "internalType": "bool",
          "name": "",
          "type": "bool"
        }
      ],
      "stateMutability": "nonpayable",
      "type": "function"
    },
    {
      "inputs": [
        {
          "internalType": "address",
          "name": "newOwner",
          "type": "address"
        }
      ],
      "name": "transferOwnership",
      "outputs": [],
      "stateMutability": "nonpayable",
      "type": "function"
    },
    {
      "inputs": [],
      "name": "treasuryFee",
      "outputs": [
        {
          "internalType": "uint256",
          "name": "",
          "type": "uint256"
        }
      ],
      "stateMutability": "view",
      "type": "function"
    },
    {
      "inputs": [],
      "name": "treasuryPool",
      "outputs": [
        {
          "internalType": "address",
          "name": "",
          "type": "address"
        }
      ],
      "stateMutability": "view",
      "type": "function"
    },
    {
      "inputs": [
        {
          "internalType": "uint256",
          "name": "value",
          "type": "uint256"
        }
      ],
      "name": "updateCashoutFee",
      "outputs": [],
      "stateMutability": "nonpayable",
      "type": "function"
    },
    {
      "inputs": [
        {
          "internalType": "uint256",
          "name": "value",
          "type": "uint256"
        }
      ],
      "name": "updateDevelopmentFee",
      "outputs": [],
      "stateMutability": "nonpayable",
      "type": "function"
    },
    {
      "inputs": [
        {
          "internalType": "address payable",
          "name": "wall",
          "type": "address"
        }
      ],
      "name": "updateDevelopmentFundWallet",
      "outputs": [],
      "stateMutability": "nonpayable",
      "type": "function"
    },
    {
      "inputs": [
        {
          "internalType": "uint256",
          "name": "value",
          "type": "uint256"
        }
      ],
      "name": "updateLiquidityFee",
      "outputs": [],
      "stateMutability": "nonpayable",
      "type": "function"
    },
    {
      "inputs": [
        {
          "internalType": "address payable",
          "name": "wall",
          "type": "address"
        }
      ],
      "name": "updateLiquidityWallet",
      "outputs": [],
      "stateMutability": "nonpayable",
      "type": "function"
    },
    {
      "inputs": [
        {
          "internalType": "uint256",
          "name": "value",
          "type": "uint256"
        }
      ],
      "name": "updateRewardsFee",
      "outputs": [],
      "stateMutability": "nonpayable",
      "type": "function"
    },
    {
      "inputs": [
        {
          "internalType": "address payable",
          "name": "wall",
          "type": "address"
        }
      ],
      "name": "updateRewardsWallet",
      "outputs": [],
      "stateMutability": "nonpayable",
      "type": "function"
    },
    {
      "inputs": [
        {
          "internalType": "uint256",
          "name": "value",
          "type": "uint256"
        }
      ],
      "name": "updateTreasuryFee",
      "outputs": [],
      "stateMutability": "nonpayable",
      "type": "function"
    },
    {
      "inputs": [
        {
          "internalType": "address payable",
          "name": "wall",
          "type": "address"
        }
      ],
      "name": "updateTreasuryWallet",
      "outputs": [],
      "stateMutability": "nonpayable",
      "type": "function"
    },
    {
      "inputs": [
        {
          "internalType": "address",
          "name": "_newAddr",
          "type": "address"
        }
      ],
      "name": "updateUniswapV2Router",
      "outputs": [],
      "stateMutability": "nonpayable",
      "type": "function"
    },
    {
      "inputs": [],
      "name": "usdcToken",
      "outputs": [
        {
          "internalType": "address",
          "name": "",
          "type": "address"
        }
      ],
      "stateMutability": "view",
      "type": "function"
    },
    {
      "stateMutability": "payable",
      "type": "receive"
    }
  ],
  "transactionHash": "0xee03ec5dddbeadd0d7012048a4f53b6606d1759401f63a675e7c973490932a7e",
  "args": [],
  "numDeployments": 3,
  "solcInputHash": "64aac7d3b67b1d1452cf0fc077c89f98",
  "bytecode": "0x608060405234801561001057600080fd5b50615168806100206000396000f3fe6080604052600436106104ae5760003560e01c80638161ab761161026b578063aaf5bfc31161014f578063d3a2c9cf116100c1578063e33b7de311610085578063e33b7de314610e5e578063e37ba8f914610e73578063eb71c5d914610e93578063f2fde38b14610eb2578063f5c1365314610ed2578063f78d5c5514610ef257600080fd5b8063d3a2c9cf14610db9578063d79779b214610dd9578063dd62ed3e14610e0f578063e0583ec014610e2f578063e22ee81314610e4957600080fd5b8063c3491b4911610113578063c3491b4914610d0d578063cbf1704414610be5578063cc32d17614610d2d578063cd6e18f114610d43578063ce7c2ac214610d63578063cfc0d02414610d9957600080fd5b8063aaf5bfc314610c70578063b3328aae14610c90578063b9bd393314610cb0578063bcb8ebfc14610cca578063bd74767814610ce057600080fd5b806395d89b41116101e85780639dc73a49116101ac5780639dc73a4914610bc5578063a432697a14610be5578063a457c2d714610c05578063a5f3d00314610c25578063a6559ce414610c3b578063a9059cbb14610c5057600080fd5b806395d89b4114610b255780639723283014610b3a5780639852595c14610b5a5780639a6e80db14610b905780639b03f44914610bb057600080fd5b80638d2891441161022f5780638d28914414610a925780638da5cb5b14610ab25780638e67566314610ad05780638ea928f114610af05780639149acbc14610b0557600080fd5b80638161ab7614610a0857806382a8ebad14610a1d578063839df91914610a3d57806384884e4414610a5d5780638b83209b14610a7257600080fd5b8063395093511161039257806365bfe4301161030f57806370a08231116102d357806370a0823114610948578063715018a61461097e57806378045b4d146109935780637a0aacf3146109a8578063809d458d146109c8578063810be66d146109e857600080fd5b806365bfe430146108bd578063665a11ca146108dd5780636815a91c146108fd5780636b38c5861461091d5780636d9ae0be1461093257600080fd5b80635455797311610356578063545579731461083257806354f12f1f14610847578063559bf3021461085d57806357dae0631461087d57806365b8dbc01461089d57600080fd5b8063395093511461079d5780633a98ef39146107bd578063406072a9146107d257806348b75044146107f257806348df58291461081257600080fd5b806313114a9d1161042b578063239c038a116103ef578063239c038a146106f557806323b872dd146107155780632bb14e1d146107355780633086319d1461074b578063313ce5671461076b578063393061401461078757600080fd5b806313114a9d1461065a57806318160ddd1461067057806319165587146106855780631cdd3be3146106a55780631e7a934e146106d557600080fd5b806309a69f571161047257806309a69f57146105bd5780630c162440146105e05780630f1978fb1461060057806310153e7b1461061f57806311eac8551461063457600080fd5b80630359fea9146104f357806303d29d281461052957806306fdde031461054b578063084a6bff1461056d578063095ea7b31461058d57600080fd5b366104ee577f6ef95f06320e7a25a04a175ca677b7052bdd97131872c2192525a629f51be77033346040516104e4929190614cda565b60405180910390a1005b600080fd5b3480156104ff57600080fd5b5060d054610513906001600160a01b031681565b6040516105209190614cc6565b60405180910390f35b34801561053557600080fd5b5061054961054436600461484a565b610f12565b005b34801561055757600080fd5b50610560610f70565b6040516105209190614dda565b34801561057957600080fd5b50610549610588366004614c2a565b611002565b34801561059957600080fd5b506105ad6105a8366004614878565b611084565b6040519015158152602001610520565b3480156105c957600080fd5b506105d261109e565b604051908152602001610520565b3480156105ec57600080fd5b506105496105fb366004614b97565b611140565b34801561060c57600080fd5b5060d8546105ad90610100900460ff1681565b34801561062b57600080fd5b50610560611236565b34801561064057600080fd5b5060d854610513906201000090046001600160a01b031681565b34801561066657600080fd5b506105d260d65481565b34801561067c57600080fd5b506035546105d2565b34801561069157600080fd5b506105496106a0366004614796565b6112d8565b3480156106b157600080fd5b506105ad6106c0366004614796565b60d96020526000908152604090205460ff1681565b3480156106e157600080fd5b506105d26106f0366004614b7c565b6113fd565b34801561070157600080fd5b506105d2610710366004614b7c565b61147e565b34801561072157600080fd5b506105ad610730366004614809565b6114af565b34801561074157600080fd5b506105d260d25481565b34801561075757600080fd5b50610549610766366004614985565b6114d5565b34801561077757600080fd5b5060405160128152602001610520565b34801561079357600080fd5b506105d260cd5481565b3480156107a957600080fd5b506105ad6107b8366004614878565b611b41565b3480156107c957600080fd5b506097546105d2565b3480156107de57600080fd5b506105d26107ed3660046147d0565b611b80565b3480156107fe57600080fd5b5061054961080d3660046147d0565b611bab565b34801561081e57600080fd5b5060cf54610513906001600160a01b031681565b34801561083e57600080fd5b50610549611d6f565b34801561085357600080fd5b506105d260d45481565b34801561086957600080fd5b50610549610878366004614796565b6120d1565b34801561088957600080fd5b506105496108983660046148a4565b612143565b3480156108a957600080fd5b506105496108b8366004614796565b6127e1565b3480156108c957600080fd5b506105496108d8366004614c2a565b612870565b3480156108e957600080fd5b5060d154610513906001600160a01b031681565b34801561090957600080fd5b50610549610918366004614c2a565b612bee565b34801561092957600080fd5b50610560612c6e565b34801561093e57600080fd5b506105d260d75481565b34801561095457600080fd5b506105d2610963366004614796565b6001600160a01b031660009081526033602052604090205490565b34801561098a57600080fd5b50610549612ca4565b34801561099f57600080fd5b506105d2612cda565b3480156109b457600080fd5b506105d26109c3366004614b7c565b612d1f565b3480156109d457600080fd5b506105496109e3366004614796565b612d4e565b3480156109f457600080fd5b5060ce54610513906001600160a01b031681565b348015610a1457600080fd5b50610560612dc0565b348015610a2957600080fd5b5060ca54610513906001600160a01b031681565b348015610a4957600080fd5b50610549610a58366004614b22565b612df6565b348015610a6957600080fd5b50610560612e3a565b348015610a7e57600080fd5b50610513610a8d366004614c2a565b612e70565b348015610a9e57600080fd5b50610549610aad366004614796565b612ea0565b348015610abe57600080fd5b506065546001600160a01b0316610513565b348015610adc57600080fd5b50610549610aeb366004614c2a565b612f37565b348015610afc57600080fd5b50610560612fb9565b348015610b1157600080fd5b50610549610b20366004614b22565b612fef565b348015610b3157600080fd5b50610560613033565b348015610b4657600080fd5b50610549610b55366004614c2a565b613042565b348015610b6657600080fd5b506105d2610b75366004614796565b6001600160a01b03166000908152609a602052604090205490565b348015610b9c57600080fd5b5060c954610513906001600160a01b031681565b348015610bbc57600080fd5b506105606130c4565b348015610bd157600080fd5b50610549610be0366004614b22565b6130fa565b348015610bf157600080fd5b50610549610c00366004614878565b613137565b348015610c1157600080fd5b506105ad610c20366004614878565b613151565b348015610c3157600080fd5b506105d260d55481565b348015610c4757600080fd5b506105d26131ee565b348015610c5c57600080fd5b506105ad610c6b366004614878565b613233565b348015610c7c57600080fd5b50610549610c8b366004614796565b613241565b348015610c9c57600080fd5b50610549610cab366004614b22565b613295565b348015610cbc57600080fd5b5060da546105ad9060ff1681565b348015610cd657600080fd5b506105d260cb5481565b348015610cec57600080fd5b50610d00610cfb366004614b5c565b6132d2565b6040516105209190614d6d565b348015610d1957600080fd5b50610549610d28366004614c2a565b61336c565b348015610d3957600080fd5b506105d260d35481565b348015610d4f57600080fd5b50610549610d5e366004614796565b6133c7565b348015610d6f57600080fd5b506105d2610d7e366004614796565b6001600160a01b031660009081526099602052604090205490565b348015610da557600080fd5b50610549610db4366004614796565b613462565b348015610dc557600080fd5b50610549610dd4366004614b97565b6134d4565b348015610de557600080fd5b506105d2610df4366004614796565b6001600160a01b03166000908152609c602052604090205490565b348015610e1b57600080fd5b506105d2610e2a3660046147d0565b613530565b348015610e3b57600080fd5b5060d8546105ad9060ff1681565b348015610e5557600080fd5b5061056061355b565b348015610e6a57600080fd5b506098546105d2565b348015610e7f57600080fd5b50610549610e8e366004614796565b613591565b348015610e9f57600080fd5b5060da546105ad90610100900460ff1681565b348015610ebe57600080fd5b50610549610ecd366004614796565b613603565b348015610ede57600080fd5b50610d00610eed366004614b5c565b61369e565b348015610efe57600080fd5b50610549610f0d366004614c2a565b6136e0565b6065546001600160a01b03163314610f455760405162461bcd60e51b8152600401610f3c90614eab565b60405180910390fd5b6001600160a01b0391909116600090815260d960205260409020805460ff1916911515919091179055565b606060368054610f7f906150a0565b80601f0160208091040260200160405190810160405280929190818152602001828054610fab906150a0565b8015610ff85780601f10610fcd57610100808354040283529160200191610ff8565b820191906000526020600020905b815481529060010190602001808311610fdb57829003601f168201915b5050505050905090565b6065546001600160a01b0316331461102c5760405162461bcd60e51b8152600401610f3c90614eab565b60008160d35460d55460d4546110429190615004565b61104c9190615004565b6110569190615004565b905060648111156110795760405162461bcd60e51b8152600401610f3c90614f05565b60d29190915560d655565b600033611092818585613762565b60019150505b92915050565b6000336110bd5760405162461bcd60e51b8152600401610f3c90614ee0565b60c9546001600160a01b031663619a635e336040518263ffffffff1660e01b81526004016110eb9190614cc6565b60206040518083038186803b15801561110357600080fd5b505afa158015611117573d6000803e3d6000fd5b505050506040513d601f19601f8201168201806040525081019061113b9190614c43565b905090565b6065546001600160a01b0316331461116a5760405162461bcd60e51b8152600401610f3c90614eab565b6305f5e10081126111ce5760405162461bcd60e51b815260206004820152602860248201527f5245445543455f5257443a20646f206e6f7420726564756365206d6f7265207460448201526768616e203130302560c01b6064820152608401610f3c565b60c9546040516309d2040f60e41b81526001600160a01b0390911690639d2040f0906112009085908590600401614dbf565b600060405180830381600087803b15801561121a57600080fd5b505af115801561122e573d6000803e3d6000fd5b505050505050565b6060336112555760405162461bcd60e51b8152600401610f3c90614ee0565b60c9546001600160a01b0316635dbab6ed335b6040518263ffffffff1660e01b81526004016112849190614cc6565b60006040518083038186803b15801561129c57600080fd5b505afa1580156112b0573d6000803e3d6000fd5b505050506040513d6000823e601f3d908101601f1916820160405261113b9190810190614bb3565b6001600160a01b03811660009081526099602052604090205461130d5760405162461bcd60e51b8152600401610f3c90614e1a565b600061131860985490565b6113229047615004565b9050600061134f838361134a866001600160a01b03166000908152609a602052604090205490565b613886565b90508061136e5760405162461bcd60e51b8152600401610f3c90614e60565b6001600160a01b0383166000908152609a602052604081208054839290611396908490615004565b9250508190555080609860008282546113af9190615004565b909155506113bf905083826138c4565b7fdf20fd1e76bc69d672e4814fafb2c449bba3a5369d8359adf9e05e6fde87b05683826040516113f0929190614cda565b60405180910390a1505050565b60c954604051630c75361360e31b81526000916001600160a01b0316906363a9b0989061142e908590600401614db1565b60206040518083038186803b15801561144657600080fd5b505afa15801561145a573d6000803e3d6000fd5b505050506040513d601f19601f820116820180604052508101906110989190614c43565b60c95460405163ce6912a360e01b81526000916001600160a01b03169063ce6912a39061142e908590600401614db1565b6000336114bd8582856139e2565b6114c8858585613a5c565b60019150505b9392505050565b60da54610100900460ff1661152c5760405162461bcd60e51b815260206004820152601d60248201527f434f4e544d494e543a206d696e7420636f6e74732064697361626c65640000006044820152606401610f3c565b60cc548251111561157a5760405162461bcd60e51b8152602060048201526018602482015277434f4e544d494e543a20746f6f206d616e7920636f6e747360401b6044820152606401610f3c565b60005b825181101561163357600383828151811061159a5761159a61510c565b6020026020010151511180156115ca575060218382815181106115bf576115bf61510c565b602002602001015151105b6116215760405162461bcd60e51b815260206004820152602260248201527f434f4e544d494e543a20696d70726f7065722063686172616374657220636f756044820152611b9d60f21b6064820152608401610f3c565b8061162b816150db565b91505061157d565b50338061167b5760405162461bcd60e51b8152602060048201526016602482015275434f4e544d494e543a207a65726f206164647265737360501b6044820152606401610f3c565b6001600160a01b038116600090815260d9602052604090205460ff16156116e45760405162461bcd60e51b815260206004820152601d60248201527f434f4e544d494e543a20626c61636b6c697374656420616464726573730000006044820152606401610f3c565b60ce546001600160a01b03828116911614801590611710575060d0546001600160a01b03828116911614155b801561172a575060cf546001600160a01b03828116911614155b6117815760405162461bcd60e51b815260206004820152602260248201527f434f4e544d494e543a20706f6f6c732063616e6e6f742063726561746520636f6044820152611b9d60f21b6064820152608401610f3c565b600061178c82613af5565b905060cb5484518261179e9190615004565b11156117ec5760405162461bcd60e51b815260206004820152601c60248201527f434f4e544d494e543a2072656163686564206d696e74206c696d6974000000006044820152606401610f3c565b835160c954604051630c75361360e31b8152600092916001600160a01b0316906363a9b09890611820908890600401614db1565b60206040518083038186803b15801561183857600080fd5b505afa15801561184c573d6000803e3d6000fd5b505050506040513d601f19601f820116820180604052508101906118709190614c43565b61187a919061503e565b90508060cd600082825461188e9190615004565b90915550506001600160a01b03831660009081526033602052604090205481111561190b5760405162461bcd60e51b815260206004820152602760248201527f434f4e544d494e543a2042616c616e636520746f6f206c6f7720666f7220637260448201526632b0ba34b7b71760c91b6064820152608401610f3c565b6000606460d5548361191d919061503e565b611927919061501c565b60d854909150610100900460ff161561196d57611945843083613b26565b60d85460ce54611968916001600160a01b03620100009091048116911683613cf4565b611985565b60ce546119859085906001600160a01b031683613b26565b6000606460d25484611997919061503e565b6119a1919061501c565b60d0549091506119bc9086906001600160a01b031683613b26565b6000606460d354856119ce919061503e565b6119d8919061501c565b60d85490915060ff1615611a19576119f1863083613b26565b60d85460cf54611a14916001600160a01b03620100009091048116911683613cf4565b611a31565b60cf54611a319087906001600160a01b031683613b26565b6000606460d45486611a43919061503e565b611a4d919061501c565b9050611a598782613dee565b6000818385611a68888a61505d565b611a72919061505d565b611a7c919061505d565b611a86919061505d565b90508015611a9957611a99883083613b26565b60c95460405162a6998d60e31b81526001600160a01b0390911690630534cc6890611acc908b908e908e90600401614cf3565b600060405180830381600087803b158015611ae657600080fd5b505af1158015611afa573d6000803e3d6000fd5b505050507f120c2f36321d80f09f9d26f68f1f49b72c1964e118aa788bb9611f47e10c7eac88604051611b2d9190614cc6565b60405180910390a150505050505050505050565b3360008181526034602090815260408083206001600160a01b03871684529091528120549091906110929082908690611b7b908790615004565b613762565b6001600160a01b039182166000908152609d6020908152604080832093909416825291909152205490565b6001600160a01b038116600090815260996020526040902054611be05760405162461bcd60e51b8152600401610f3c90614e1a565b6001600160a01b0382166000908152609c60205260408120546040516370a0823160e01b81526001600160a01b038516906370a0823190611c25903090600401614cc6565b60206040518083038186803b158015611c3d57600080fd5b505afa158015611c51573d6000803e3d6000fd5b505050506040513d601f19601f82011682018060405250810190611c759190614c43565b611c7f9190615004565b90506000611c92838361134a8787611b80565b905080611cb15760405162461bcd60e51b8152600401610f3c90614e60565b6001600160a01b038085166000908152609d6020908152604080832093871683529290529081208054839290611ce8908490615004565b90915550506001600160a01b0384166000908152609c602052604081208054839290611d15908490615004565b90915550611d269050848483613e06565b836001600160a01b03167f3be5b7a71e84ed12875d241991c70855ac5817d847039e17a9d895c1ceb0f18a8483604051611d61929190614cda565b60405180910390a250505050565b60da54339060ff161515600114611dc85760405162461bcd60e51b815260206004820152601960248201527f43534854414c4c3a20636173686f75742064697361626c6564000000000000006044820152606401610f3c565b6001600160a01b038116611e165760405162461bcd60e51b815260206004820152601560248201527443534854414c4c3a207a65726f206164647265737360581b6044820152606401610f3c565b6001600160a01b038116600090815260d9602052604090205460ff1615611e7f5760405162461bcd60e51b815260206004820152601c60248201527f43534854414c4c3a20626c61636b6c69737465642061646472657373000000006044820152606401610f3c565b60ce546001600160a01b03828116911614801590611eab575060d0546001600160a01b03828116911614155b611ef75760405162461bcd60e51b815260206004820152601d60248201527f43534854414c4c3a20706f6f6c732063616e6e6f7420636173686f75740000006044820152606401610f3c565b60c9546040516330cd31af60e11b81526000916001600160a01b03169063619a635e90611f28908590600401614cc6565b60206040518083038186803b158015611f4057600080fd5b505afa158015611f54573d6000803e3d6000fd5b505050506040513d601f19601f82011682018060405250810190611f789190614c43565b905060008111611fca5760405162461bcd60e51b815260206004820152601960248201527f43534854414c4c3a20726577617264206e6f74207265616479000000000000006044820152606401610f3c565b60d75460009015611ffb57606460d75483611fe5919061503e565b611fef919061501c565b9050611ffb8382613dee565b612005818361505d565b60d05490925061201f906001600160a01b03168484613b26565b60c95460405163d094fa8d60e01b81526001600160a01b039091169063d094fa8d9061204f908690600401614cc6565b602060405180830381600087803b15801561206957600080fd5b505af115801561207d573d6000803e3d6000fd5b505050506040513d601f19601f820116820180604052508101906120a19190614c43565b507f564112c0ad2fbcae1bed83c58ed5d830128565d634cdc875bb02b065ad242343836040516113f09190614cc6565b6065546001600160a01b031633146120fb5760405162461bcd60e51b8152600401610f3c90614eab565b6001600160a01b0381166121215760405162461bcd60e51b8152600401610f3c90614ded565b60ce80546001600160a01b0319166001600160a01b0392909216919091179055565b600054610100900460ff1661215e5760005460ff1615612162565b303b155b6121c55760405162461bcd60e51b815260206004820152602e60248201527f496e697469616c697a61626c653a20636f6e747261637420697320616c72656160448201526d191e481a5b9a5d1a585b1a5e995960921b6064820152608401610f3c565b600054610100900460ff161580156121e7576000805461ffff19166101011790555b600085511180156121f9575060008451115b61223c5760405162461bcd60e51b815260206004820152601460248201527320a222291013102120a620a721a29022a92927a960611b6044820152606401610f3c565b612244613e5c565b612288604051806040016040528060078152602001663078426c6f636b60c81b81525060405180604001604052806003815260200162183c2160e91b815250613e8b565b6122928787613ebc565b60006001600160a01b0316856001815181106122b0576122b061510c565b60200260200101516001600160a01b0316141580156122fc575060006001600160a01b0316856002815181106122e8576122e861510c565b60200260200101516001600160a01b031614155b8015612335575060006001600160a01b0316856003815181106123215761232161510c565b60200260200101516001600160a01b031614155b801561236e575060006001600160a01b03168560048151811061235a5761235a61510c565b60200260200101516001600160a01b031614155b6123ac5760405162461bcd60e51b815260206004820152600f60248201526e1413d3d30816915493c81193d55391608a1b6044820152606401610f3c565b846001815181106123bf576123bf61510c565b602002602001015160ce60006101000a8154816001600160a01b0302191690836001600160a01b03160217905550846002815181106124005761240061510c565b602002602001015160d160006101000a8154816001600160a01b0302191690836001600160a01b03160217905550846003815181106124415761244161510c565b602002602001015160cf60006101000a8154816001600160a01b0302191690836001600160a01b03160217905550846004815181106124825761248261510c565b602002602001015160d060006101000a8154816001600160a01b0302191690836001600160a01b031602179055506000836000815181106124c5576124c561510c565b60200260200101511180156124f457506000836001815181106124ea576124ea61510c565b6020026020010151115b801561251a57506000836002815181106125105761251061510c565b6020026020010151115b801561254057506000836003815181106125365761253661510c565b6020026020010151115b8015612566575060008360048151811061255c5761255c61510c565b6020026020010151115b6125a25760405162461bcd60e51b815260206004820152600d60248201526c0c094811915154c81193d55391609a1b6044820152606401610f3c565b826000815181106125b5576125b561510c565b602002602001015160d581905550826001815181106125d6576125d661510c565b602002602001015160d381905550826002815181106125f7576125f761510c565b602002602001015160d281905550826003815181106126185761261861510c565b602002602001015160d481905550826004815181106126395761263961510c565b602002602001015160d78190555060d35460d55460d45460d25461265d9190615004565b6126679190615004565b6126719190615004565b60d65583518551146126bc5760405162461bcd60e51b815260206004820152601460248201527320a222291013102120a620a721a29022a92927a960611b6044820152606401610f3c565b60005b8551811015612729576127178682815181106126dd576126dd61510c565b60200260200101518683815181106126f7576126f761510c565b6020026020010151670de0b6b3a7640000612712919061503e565b613eed565b80612721816150db565b9150506126bf565b5060355469d3c21bcecceda10000001461277d5760405162461bcd60e51b81526020600482015260156024820152741515130814d5541413164811125191880c48135253605a1b6044820152606401610f3c565b60d88054606460cb55600a60cc5561ffff196001600160a01b038516620100000281166001600160b01b0319909216919091176101001790915560da8054610101921691909117905580156127d8576000805461ff00191690555b50505050505050565b6065546001600160a01b0316331461280b5760405162461bcd60e51b8152600401610f3c90614eab565b60ca54604051630196e36f60e61b81526001600160a01b03909116906365b8dbc09061283b908490600401614cc6565b600060405180830381600087803b15801561285557600080fd5b505af1158015612869573d6000803e3d6000fd5b5050505050565b60da54339060ff1615156001146128c25760405162461bcd60e51b815260206004820152601660248201527510d4d2150e8810d85cda1bdd5d08111a5cd8589b195960521b6044820152606401610f3c565b6001600160a01b03811661290d5760405162461bcd60e51b8152602060048201526012602482015271435348543a207a65726f206164647265737360701b6044820152606401610f3c565b6001600160a01b038116600090815260d9602052604090205460ff161561296a5760405162461bcd60e51b815260206004820152601160248201527010d4d2150e88189b1858dadb1a5cdd1959607a1b6044820152606401610f3c565b60ce546001600160a01b03828116911614801590612996575060d0546001600160a01b03828116911614155b80156129b0575060cf546001600160a01b03828116911614155b612a075760405162461bcd60e51b815260206004820152602260248201527f435348543a20706f6f6c732063616e6e6f7420636173686f7574207265776172604482015261647360f01b6064820152608401610f3c565b60c9546040516329b8573160e21b81526000916001600160a01b03169063a6e15cc490612a3a9085908790600401614cda565b60206040518083038186803b158015612a5257600080fd5b505afa158015612a66573d6000803e3d6000fd5b505050506040513d601f19601f82011682018060405250810190612a8a9190614c43565b905060008111612ad55760405162461bcd60e51b8152602060048201526016602482015275435348543a20726577617264206e6f7420726561647960501b6044820152606401610f3c565b60d75460009015612b0657606460d75483612af0919061503e565b612afa919061501c565b9050612b068382613dee565b612b10818361505d565b60d054909250612b2a906001600160a01b03168484613b26565b60c95460405163611015b360e11b81526001600160a01b039091169063c2202b6690612b5c9086908890600401614cda565b602060405180830381600087803b158015612b7657600080fd5b505af1158015612b8a573d6000803e3d6000fd5b505050506040513d601f19601f82011682018060405250810190612bae9190614c43565b507f39f6d68d140e552a327d43ef814649947d78e76743e169e4f00d61b14f2f846d8385604051612be0929190614cda565b60405180910390a150505050565b6065546001600160a01b03163314612c185760405162461bcd60e51b8152600401610f3c90614eab565b6064811115612c695760405162461bcd60e51b815260206004820152601c60248201527f464545533a20636173686f757420657863656564696e672031303025000000006044820152606401610f3c565b60d755565b606033612c8d5760405162461bcd60e51b8152600401610f3c90614ee0565b60c9546001600160a01b03166377ec782633611268565b6065546001600160a01b03163314612cce5760405162461bcd60e51b8152600401610f3c90614eab565b612cd86000613fcc565b565b60c9546040805163055a757d60e41b815290516000926001600160a01b0316916355a757d0916004808301926020929190829003018186803b15801561110357600080fd5b60c95460405162c73e4d60e01b81526000916001600160a01b03169062c73e4d9061142e908590600401614db1565b6065546001600160a01b03163314612d785760405162461bcd60e51b8152600401610f3c90614eab565b6001600160a01b038116612d9e5760405162461bcd60e51b8152600401610f3c90614ded565b60cf80546001600160a01b0319166001600160a01b0392909216919091179055565b606033612ddf5760405162461bcd60e51b8152600401610f3c90614ee0565b60c9546001600160a01b0316638bf1451433611268565b6065546001600160a01b03163314612e205760405162461bcd60e51b8152600401610f3c90614eab565b60d880549115156101000261ff0019909216919091179055565b606033612e595760405162461bcd60e51b8152600401610f3c90614ee0565b60c9546001600160a01b031663f743f31933611268565b6000609b8281548110612e8557612e8561510c565b6000918252602090912001546001600160a01b031692915050565b6065546001600160a01b03163314612eca5760405162461bcd60e51b8152600401610f3c90614eab565b6001600160a01b038116612f155760405162461bcd60e51b81526020600482015260126024820152712722abafa1a9269d103d32b9379030b2323960711b6044820152606401610f3c565b60c980546001600160a01b0319166001600160a01b0392909216919091179055565b6065546001600160a01b03163314612f615760405162461bcd60e51b8152600401610f3c90614eab565b60008160d35460d55460d254612f779190615004565b612f819190615004565b612f8b9190615004565b90506064811115612fae5760405162461bcd60e51b8152600401610f3c90614f05565b60d49190915560d655565b606033612fd85760405162461bcd60e51b8152600401610f3c90614ee0565b60c9546001600160a01b03166351bf120c33611268565b6065546001600160a01b031633146130195760405162461bcd60e51b8152600401610f3c90614eab565b60da80549115156101000261ff0019909216919091179055565b606060378054610f7f906150a0565b6065546001600160a01b0316331461306c5760405162461bcd60e51b8152600401610f3c90614eab565b60008160d55460d45460d2546130829190615004565b61308c9190615004565b6130969190615004565b905060648111156130b95760405162461bcd60e51b8152600401610f3c90614f05565b60d39190915560d655565b6060336130e35760405162461bcd60e51b8152600401610f3c90614ee0565b60c9546001600160a01b031663367fd07433611268565b6065546001600160a01b031633146131245760405162461bcd60e51b8152600401610f3c90614eab565b60d8805460ff1916911515919091179055565b613142333083613a5c565b61314d823383613cf4565b5050565b3360008181526034602090815260408083206001600160a01b0387168452909152812054909190838110156131d65760405162461bcd60e51b815260206004820152602560248201527f45524332303a2064656372656173656420616c6c6f77616e63652062656c6f77604482015264207a65726f60d81b6064820152608401610f3c565b6131e38286868403613762565b506001949350505050565b60c9546040805163e18f03ad60e01b815290516000926001600160a01b03169163e18f03ad916004808301926020929190829003018186803b15801561110357600080fd5b600033611092818585613a5c565b6065546001600160a01b0316331461326b5760405162461bcd60e51b8152600401610f3c90614eab565b60d880546001600160a01b03909216620100000262010000600160b01b0319909216919091179055565b6065546001600160a01b031633146132bf5760405162461bcd60e51b8152600401610f3c90614eab565b60da805460ff1916911515919091179055565b60ca546040516317ae8ecf60e31b815284151560048201526001600160a01b03848116602483015260448201849052606092169063bd747678906064015b60006040518083038186803b15801561332857600080fd5b505afa15801561333c573d6000803e3d6000fd5b505050506040513d6000823e601f3d908101601f191682016040526133649190810190614a8a565b949350505050565b6065546001600160a01b031633146133965760405162461bcd60e51b8152600401610f3c90614eab565b60c954604051631c864c8f60e11b8152600481018390526001600160a01b039091169063390c991e9060240161283b565b6065546001600160a01b031633146133f15760405162461bcd60e51b8152600401610f3c90614eab565b6001600160a01b0381166134405760405162461bcd60e51b81526020600482015260166024820152752722abafa62927aaaa22a91d103d32b9379030b2323960511b6044820152606401610f3c565b60ca80546001600160a01b0319166001600160a01b0392909216919091179055565b6065546001600160a01b0316331461348c5760405162461bcd60e51b8152600401610f3c90614eab565b6001600160a01b0381166134b25760405162461bcd60e51b8152600401610f3c90614ded565b60d080546001600160a01b0319166001600160a01b0392909216919091179055565b6065546001600160a01b031633146134fe5760405162461bcd60e51b8152600401610f3c90614eab565b60c954604051631d5a173160e01b81526001600160a01b0390911690631d5a1731906112009085908590600401614dbf565b6001600160a01b03918216600090815260346020908152604080832093909416825291909152205490565b60603361357a5760405162461bcd60e51b8152600401610f3c90614ee0565b60c9546001600160a01b03166328cceb2433611268565b6065546001600160a01b031633146135bb5760405162461bcd60e51b8152600401610f3c90614eab565b6001600160a01b0381166135e15760405162461bcd60e51b8152600401610f3c90614ded565b60d180546001600160a01b0319166001600160a01b0392909216919091179055565b6065546001600160a01b0316331461362d5760405162461bcd60e51b8152600401610f3c90614eab565b6001600160a01b0381166136925760405162461bcd60e51b815260206004820152602660248201527f4f776e61626c653a206e6577206f776e657220697320746865207a65726f206160448201526564647265737360d01b6064820152608401610f3c565b61369b81613fcc565b50565b60ca5460405163f5c1365360e01b815284151560048201526001600160a01b03848116602483015260448201849052606092169063f5c1365390606401613310565b6065546001600160a01b0316331461370a5760405162461bcd60e51b8152600401610f3c90614eab565b60008160d35460d45460d2546137209190615004565b61372a9190615004565b6137349190615004565b905060648111156137575760405162461bcd60e51b8152600401610f3c90614f05565b60d59190915560d655565b6001600160a01b0383166137c45760405162461bcd60e51b8152602060048201526024808201527f45524332303a20617070726f76652066726f6d20746865207a65726f206164646044820152637265737360e01b6064820152608401610f3c565b6001600160a01b0382166138255760405162461bcd60e51b815260206004820152602260248201527f45524332303a20617070726f766520746f20746865207a65726f206164647265604482015261737360f01b6064820152608401610f3c565b6001600160a01b0383811660008181526034602090815260408083209487168084529482529182902085905590518481527f8c5be1e5ebec7d5bd14f71427d1e84f3dd0314c0f7b2291e5b200ac8c7c3b925910160405180910390a3505050565b6097546001600160a01b038416600090815260996020526040812054909183916138b0908661503e565b6138ba919061501c565b613364919061505d565b804710156139145760405162461bcd60e51b815260206004820152601d60248201527f416464726573733a20696e73756666696369656e742062616c616e63650000006044820152606401610f3c565b6000826001600160a01b03168260405160006040518083038185875af1925050503d8060008114613961576040519150601f19603f3d011682016040523d82523d6000602084013e613966565b606091505b50509050806139dd5760405162461bcd60e51b815260206004820152603a60248201527f416464726573733a20756e61626c6520746f2073656e642076616c75652c207260448201527f6563697069656e74206d617920686176652072657665727465640000000000006064820152608401610f3c565b505050565b60006139ee8484613530565b90506000198114613a565781811015613a495760405162461bcd60e51b815260206004820152601d60248201527f45524332303a20696e73756666696369656e7420616c6c6f77616e63650000006044820152606401610f3c565b613a568484848403613762565b50505050565b6001600160a01b038316600090815260d9602052604090205460ff16158015613a9e57506001600160a01b038216600090815260d9602052604090205460ff16155b613aea5760405162461bcd60e51b815260206004820152601a60248201527f45524332303a20426c61636b6c697374656420616464726573730000000000006044820152606401610f3c565b6139dd838383613b26565b60c9546040516344fea1b960e01b81526000916001600160a01b0316906344fea1b99061142e908590600401614cc6565b6001600160a01b038316613b8a5760405162461bcd60e51b815260206004820152602560248201527f45524332303a207472616e736665722066726f6d20746865207a65726f206164604482015264647265737360d81b6064820152608401610f3c565b6001600160a01b038216613bec5760405162461bcd60e51b815260206004820152602360248201527f45524332303a207472616e7366657220746f20746865207a65726f206164647260448201526265737360e81b6064820152608401610f3c565b6001600160a01b03831660009081526033602052604090205481811015613c645760405162461bcd60e51b815260206004820152602660248201527f45524332303a207472616e7366657220616d6f756e7420657863656564732062604482015265616c616e636560d01b6064820152608401610f3c565b6001600160a01b03808516600090815260336020526040808220858503905591851681529081208054849290613c9b908490615004565b92505081905550826001600160a01b0316846001600160a01b03167fddf252ad1be2c89b69c2b068fc378daa952ba7f163c4a11628f55a4df523b3ef84604051613ce791815260200190565b60405180910390a3613a56565b613d843060ca60009054906101000a90046001600160a01b03166001600160a01b0316633268cc566040518163ffffffff1660e01b815260040160206040518083038186803b158015613d4657600080fd5b505afa158015613d5a573d6000803e3d6000fd5b505050506040513d601f19601f82011682018060405250810190613d7e91906147b3565b83613762565b60ca54604051639caf326f60e01b81526001600160a01b03858116600483015284811660248301526044820184905290911690639caf326f90606401600060405180830381600087803b158015613dda57600080fd5b505af11580156127d8573d6000803e3d6000fd5b60d15461314d9083906001600160a01b031683613b26565b6139dd8363a9059cbb60e01b8484604051602401613e25929190614cda565b60408051601f198184030181529190526020810180516001600160e01b03166001600160e01b03199093169290921790915261401e565b600054610100900460ff16613e835760405162461bcd60e51b8152600401610f3c90614f3c565b612cd86140f0565b600054610100900460ff16613eb25760405162461bcd60e51b8152600401610f3c90614f3c565b61314d8282614120565b600054610100900460ff16613ee35760405162461bcd60e51b8152600401610f3c90614f3c565b61314d828261416e565b6001600160a01b038216613f435760405162461bcd60e51b815260206004820152601f60248201527f45524332303a206d696e7420746f20746865207a65726f2061646472657373006044820152606401610f3c565b8060356000828254613f559190615004565b90915550506001600160a01b03821660009081526033602052604081208054839290613f82908490615004565b90915550506040518181526001600160a01b038316906000907fddf252ad1be2c89b69c2b068fc378daa952ba7f163c4a11628f55a4df523b3ef9060200160405180910390a35050565b606580546001600160a01b038381166001600160a01b0319831681179093556040519116919082907f8be0079c531659141344cd1fd0a4f28419497f9722a3daafe3b4186f6b6457e090600090a35050565b6000614073826040518060400160405280602081526020017f5361666545524332303a206c6f772d6c6576656c2063616c6c206661696c6564815250856001600160a01b03166142ac9092919063ffffffff16565b8051909150156139dd57808060200190518101906140919190614b3f565b6139dd5760405162461bcd60e51b815260206004820152602a60248201527f5361666545524332303a204552433230206f7065726174696f6e20646964206e6044820152691bdd081cdd58d8d9595960b21b6064820152608401610f3c565b600054610100900460ff166141175760405162461bcd60e51b8152600401610f3c90614f3c565b612cd833613fcc565b600054610100900460ff166141475760405162461bcd60e51b8152600401610f3c90614f3c565b815161415a906036906020850190614603565b5080516139dd906037906020840190614603565b600054610100900460ff166141955760405162461bcd60e51b8152600401610f3c90614f3c565b80518251146142015760405162461bcd60e51b815260206004820152603260248201527f5061796d656e7453706c69747465723a2070617965657320616e6420736861726044820152710cae640d8cadccee8d040dad2e6dac2e8c6d60731b6064820152608401610f3c565b60008251116142525760405162461bcd60e51b815260206004820152601a60248201527f5061796d656e7453706c69747465723a206e6f207061796565730000000000006044820152606401610f3c565b60005b82518110156139dd5761429a8382815181106142735761427361510c565b602002602001015183838151811061428d5761428d61510c565b60200260200101516142bb565b806142a4816150db565b915050614255565b60606133648484600085614499565b6001600160a01b0382166143265760405162461bcd60e51b815260206004820152602c60248201527f5061796d656e7453706c69747465723a206163636f756e74206973207468652060448201526b7a65726f206164647265737360a01b6064820152608401610f3c565b600081116143765760405162461bcd60e51b815260206004820152601d60248201527f5061796d656e7453706c69747465723a207368617265732061726520300000006044820152606401610f3c565b6001600160a01b038216600090815260996020526040902054156143f05760405162461bcd60e51b815260206004820152602b60248201527f5061796d656e7453706c69747465723a206163636f756e7420616c726561647960448201526a206861732073686172657360a81b6064820152608401610f3c565b609b8054600181019091557fbba9db4cdbea0a37c207bbb83e20f828cd4441c49891101dc94fd20dc8efc3490180546001600160a01b0319166001600160a01b0384169081179091556000908152609960205260409020819055609754614458908290615004565b6097556040517f40c340f65e17194d14ddddb073d3c9f888e3cb52b5aae0c6c7706b4fbc905fac9061448d9084908490614cda565b60405180910390a15050565b6060824710156144fa5760405162461bcd60e51b815260206004820152602660248201527f416464726573733a20696e73756666696369656e742062616c616e636520666f6044820152651c8818d85b1b60d21b6064820152608401610f3c565b6001600160a01b0385163b6145515760405162461bcd60e51b815260206004820152601d60248201527f416464726573733a2063616c6c20746f206e6f6e2d636f6e74726163740000006044820152606401610f3c565b600080866001600160a01b0316858760405161456d9190614caa565b60006040518083038185875af1925050503d80600081146145aa576040519150601f19603f3d011682016040523d82523d6000602084013e6145af565b606091505b50915091506145bf8282866145ca565b979650505050505050565b606083156145d95750816114ce565b8251156145e95782518084602001fd5b8160405162461bcd60e51b8152600401610f3c9190614dda565b82805461460f906150a0565b90600052602060002090601f0160209004810192826146315760008555614677565b82601f1061464a57805160ff1916838001178555614677565b82800160010185558215614677579182015b8281111561467757825182559160200191906001019061465c565b50614683929150614687565b5090565b5b808211156146835760008155600101614688565b80356146a781615138565b919050565b600082601f8301126146bd57600080fd5b813560206146d26146cd83614fb8565b614f87565b80838252828201915082860187848660051b89010111156146f257600080fd5b60005b8581101561471a57813561470881615138565b845292840192908401906001016146f5565b5090979650505050505050565b600082601f83011261473857600080fd5b813560206147486146cd83614fb8565b80838252828201915082860187848660051b890101111561476857600080fd5b60005b8581101561471a5781358452928401929084019060010161476b565b8035600381106146a757600080fd5b6000602082840312156147a857600080fd5b81356114ce81615138565b6000602082840312156147c557600080fd5b81516114ce81615138565b600080604083850312156147e357600080fd5b82356147ee81615138565b915060208301356147fe81615138565b809150509250929050565b60008060006060848603121561481e57600080fd5b833561482981615138565b9250602084013561483981615138565b929592945050506040919091013590565b6000806040838503121561485d57600080fd5b823561486881615138565b915060208301356147fe8161514d565b6000806040838503121561488b57600080fd5b823561489681615138565b946020939093013593505050565b60008060008060008060c087890312156148bd57600080fd5b863567ffffffffffffffff808211156148d557600080fd5b6148e18a838b016146ac565b975060208901359150808211156148f757600080fd5b6149038a838b01614727565b9650604089013591508082111561491957600080fd5b6149258a838b016146ac565b9550606089013591508082111561493b57600080fd5b6149478a838b01614727565b9450608089013591508082111561495d57600080fd5b5061496a89828a01614727565b92505061497960a0880161469c565b90509295509295509295565b600080604080848603121561499957600080fd5b833567ffffffffffffffff808211156149b157600080fd5b818601915086601f8301126149c557600080fd5b813560206149d56146cd83614fb8565b8083825282820191508286018b848660051b89010111156149f557600080fd5b60005b85811015614a6a57813587811115614a0f57600080fd5b8801603f81018e13614a2057600080fd5b85810135614a306146cd82614fdc565b8181528f8c838501011115614a4457600080fd5b818c840189830137600091810188019190915285525092840192908401906001016149f8565b50508098505050614a7c818901614787565b955050505050509250929050565b60006020808385031215614a9d57600080fd5b825167ffffffffffffffff811115614ab457600080fd5b8301601f81018513614ac557600080fd5b8051614ad36146cd82614fb8565b80828252848201915084840188868560051b8701011115614af357600080fd5b600094505b83851015614b16578051835260019490940193918501918501614af8565b50979650505050505050565b600060208284031215614b3457600080fd5b81356114ce8161514d565b600060208284031215614b5157600080fd5b81516114ce8161514d565b600080600060608486031215614b7157600080fd5b83356148298161514d565b600060208284031215614b8e57600080fd5b6114ce82614787565b60008060408385031215614baa57600080fd5b61489683614787565b600060208284031215614bc557600080fd5b815167ffffffffffffffff811115614bdc57600080fd5b8201601f81018413614bed57600080fd5b8051614bfb6146cd82614fdc565b818152856020838501011115614c1057600080fd5b614c21826020830160208601615074565b95945050505050565b600060208284031215614c3c57600080fd5b5035919050565b600060208284031215614c5557600080fd5b5051919050565b60038110614c7a57634e487b7160e01b600052602160045260246000fd5b9052565b60008151808452614c96816020860160208601615074565b601f01601f19169290920160200192915050565b60008251614cbc818460208701615074565b9190910192915050565b6001600160a01b0391909116815260200190565b6001600160a01b03929092168252602082015260400190565b60006060820160018060a01b0386168352602060608185015281865180845260808601915060808160051b870101935082880160005b82811015614d5757607f19888703018452614d45868351614c7e565b95509284019290840190600101614d29565b5050505050809150506133646040830184614c5c565b6020808252825182820181905260009190848201906040850190845b81811015614da557835183529284019291840191600101614d89565b50909695505050505050565b602081016110988284614c5c565b60408101614dcd8285614c5c565b8260208301529392505050565b6020815260006114ce6020830184614c7e565b6020808252601390820152722aa8222faba0a6261d103d32b9379030b2323960691b604082015260600190565b60208082526026908201527f5061796d656e7453706c69747465723a206163636f756e7420686173206e6f2060408201526573686172657360d01b606082015260800190565b6020808252602b908201527f5061796d656e7453706c69747465723a206163636f756e74206973206e6f742060408201526a191d59481c185e5b595b9d60aa1b606082015260800190565b6020808252818101527f4f776e61626c653a2063616c6c6572206973206e6f7420746865206f776e6572604082015260600190565b6020808252600b908201526a053454e44455220495320360ac1b604082015260600190565b6020808252601a908201527f464545533a20746f74616c20657863656564696e672031303025000000000000604082015260600190565b6020808252602b908201527f496e697469616c697a61626c653a20636f6e7472616374206973206e6f74206960408201526a6e697469616c697a696e6760a81b606082015260800190565b604051601f8201601f1916810167ffffffffffffffff81118282101715614fb057614fb0615122565b604052919050565b600067ffffffffffffffff821115614fd257614fd2615122565b5060051b60200190565b600067ffffffffffffffff821115614ff657614ff6615122565b50601f01601f191660200190565b60008219821115615017576150176150f6565b500190565b60008261503957634e487b7160e01b600052601260045260246000fd5b500490565b6000816000190483118215151615615058576150586150f6565b500290565b60008282101561506f5761506f6150f6565b500390565b60005b8381101561508f578181015183820152602001615077565b83811115613a565750506000910152565b600181811c908216806150b457607f821691505b602082108114156150d557634e487b7160e01b600052602260045260246000fd5b50919050565b60006000198214156150ef576150ef6150f6565b5060010190565b634e487b7160e01b600052601160045260246000fd5b634e487b7160e01b600052603260045260246000fd5b634e487b7160e01b600052604160045260246000fd5b6001600160a01b038116811461369b57600080fd5b801515811461369b57600080fdfea164736f6c6343000807000a",
  "devdoc": {
    "kind": "dev",
    "methods": {
      "allowance(address,address)": {
        "details": "See {IERC20-allowance}."
      },
      "approve(address,uint256)": {
        "details": "See {IERC20-approve}. NOTE: If `amount` is the maximum `uint256`, the allowance is not updated on `transferFrom`. This is semantically equivalent to an infinite approval. Requirements: - `spender` cannot be the zero address."
      },
      "balanceOf(address)": {
        "details": "See {IERC20-balanceOf}."
      },
      "decimals()": {
        "details": "Returns the number of decimals used to get its user representation. For example, if `decimals` equals `2`, a balance of `505` tokens should be displayed to a user as `5.05` (`505 / 10 ** 2`). Tokens usually opt for a value of 18, imitating the relationship between Ether and Wei. This is the value {ERC20} uses, unless this function is overridden; NOTE: This information is only used for _display_ purposes: it in no way affects any of the arithmetic of the contract, including {IERC20-balanceOf} and {IERC20-transfer}."
      },
      "decreaseAllowance(address,uint256)": {
        "details": "Atomically decreases the allowance granted to `spender` by the caller. This is an alternative to {approve} that can be used as a mitigation for problems described in {IERC20-approve}. Emits an {Approval} event indicating the updated allowance. Requirements: - `spender` cannot be the zero address. - `spender` must have allowance for the caller of at least `subtractedValue`."
      },
      "increaseAllowance(address,uint256)": {
        "details": "Atomically increases the allowance granted to `spender` by the caller. This is an alternative to {approve} that can be used as a mitigation for problems described in {IERC20-approve}. Emits an {Approval} event indicating the updated allowance. Requirements: - `spender` cannot be the zero address."
      },
      "name()": {
        "details": "Returns the name of the token."
      },
      "owner()": {
        "details": "Returns the address of the current owner."
      },
      "payee(uint256)": {
        "details": "Getter for the address of the payee number `index`."
      },
      "release(address)": {
        "details": "Triggers a transfer to `account` of the amount of Ether they are owed, according to their percentage of the total shares and their previous withdrawals."
      },
      "release(address,address)": {
        "details": "Triggers a transfer to `account` of the amount of `token` tokens they are owed, according to their percentage of the total shares and their previous withdrawals. `token` must be the address of an IERC20 contract."
      },
      "released(address)": {
        "details": "Getter for the amount of Ether already released to a payee."
      },
      "released(address,address)": {
        "details": "Getter for the amount of `token` tokens already released to a payee. `token` should be the address of an IERC20 contract."
      },
      "renounceOwnership()": {
        "details": "Leaves the contract without owner. It will not be possible to call `onlyOwner` functions anymore. Can only be called by the current owner. NOTE: Renouncing ownership will leave the contract without an owner, thereby removing any functionality that is only available to the owner."
      },
      "shares(address)": {
        "details": "Getter for the amount of shares held by an account."
      },
      "symbol()": {
        "details": "Returns the symbol of the token, usually a shorter version of the name."
      },
      "totalReleased()": {
        "details": "Getter for the total amount of Ether already released."
      },
      "totalReleased(address)": {
        "details": "Getter for the total amount of `token` already released. `token` should be the address of an IERC20 contract."
      },
      "totalShares()": {
        "details": "Getter for the total shares held by payees."
      },
      "totalSupply()": {
        "details": "See {IERC20-totalSupply}."
      },
      "transfer(address,uint256)": {
        "details": "See {IERC20-transfer}. Requirements: - `to` cannot be the zero address. - the caller must have a balance of at least `amount`."
      },
      "transferFrom(address,address,uint256)": {
        "details": "See {IERC20-transferFrom}. Emits an {Approval} event indicating the updated allowance. This is not required by the EIP. See the note at the beginning of {ERC20}. NOTE: Does not update the allowance if the current allowance is the maximum `uint256`. Requirements: - `from` and `to` cannot be the zero address. - `from` must have a balance of at least `amount`. - the caller must have allowance for ``from``'s tokens of at least `amount`."
      },
      "transferOwnership(address)": {
        "details": "Transfers ownership of the contract to a new account (`newOwner`). Can only be called by the current owner."
      }
    },
    "version": 1
  },
  "userdoc": {
    "kind": "user",
    "methods": {},
    "version": 1
  },
  "storageLayout": {
    "storage": [
      {
        "astId": 598,
        "contract": "contracts/ZeroXBlock.sol:ZeroXBlock",
        "label": "_initialized",
        "offset": 0,
        "slot": "0",
        "type": "t_bool"
      },
      {
        "astId": 601,
        "contract": "contracts/ZeroXBlock.sol:ZeroXBlock",
        "label": "_initializing",
        "offset": 1,
        "slot": "0",
        "type": "t_bool"
      },
      {
        "astId": 1889,
        "contract": "contracts/ZeroXBlock.sol:ZeroXBlock",
        "label": "__gap",
        "offset": 0,
        "slot": "1",
        "type": "t_array(t_uint256)50_storage"
      },
      {
        "astId": 684,
        "contract": "contracts/ZeroXBlock.sol:ZeroXBlock",
        "label": "_balances",
        "offset": 0,
        "slot": "51",
        "type": "t_mapping(t_address,t_uint256)"
      },
      {
        "astId": 690,
        "contract": "contracts/ZeroXBlock.sol:ZeroXBlock",
        "label": "_allowances",
        "offset": 0,
        "slot": "52",
        "type": "t_mapping(t_address,t_mapping(t_address,t_uint256))"
      },
      {
        "astId": 692,
        "contract": "contracts/ZeroXBlock.sol:ZeroXBlock",
        "label": "_totalSupply",
        "offset": 0,
        "slot": "53",
        "type": "t_uint256"
      },
      {
        "astId": 694,
        "contract": "contracts/ZeroXBlock.sol:ZeroXBlock",
        "label": "_name",
        "offset": 0,
        "slot": "54",
        "type": "t_string_storage"
      },
      {
        "astId": 696,
        "contract": "contracts/ZeroXBlock.sol:ZeroXBlock",
        "label": "_symbol",
        "offset": 0,
        "slot": "55",
        "type": "t_string_storage"
      },
      {
        "astId": 1277,
        "contract": "contracts/ZeroXBlock.sol:ZeroXBlock",
        "label": "__gap",
        "offset": 0,
        "slot": "56",
        "type": "t_array(t_uint256)45_storage"
      },
      {
        "astId": 10,
        "contract": "contracts/ZeroXBlock.sol:ZeroXBlock",
        "label": "_owner",
        "offset": 0,
        "slot": "101",
        "type": "t_address"
      },
      {
        "astId": 122,
        "contract": "contracts/ZeroXBlock.sol:ZeroXBlock",
        "label": "__gap",
        "offset": 0,
        "slot": "102",
        "type": "t_array(t_uint256)49_storage"
      },
      {
        "astId": 163,
        "contract": "contracts/ZeroXBlock.sol:ZeroXBlock",
        "label": "_totalShares",
        "offset": 0,
        "slot": "151",
        "type": "t_uint256"
      },
      {
        "astId": 165,
        "contract": "contracts/ZeroXBlock.sol:ZeroXBlock",
        "label": "_totalReleased",
        "offset": 0,
        "slot": "152",
        "type": "t_uint256"
      },
      {
        "astId": 169,
        "contract": "contracts/ZeroXBlock.sol:ZeroXBlock",
        "label": "_shares",
        "offset": 0,
        "slot": "153",
        "type": "t_mapping(t_address,t_uint256)"
      },
      {
        "astId": 173,
        "contract": "contracts/ZeroXBlock.sol:ZeroXBlock",
        "label": "_released",
        "offset": 0,
        "slot": "154",
        "type": "t_mapping(t_address,t_uint256)"
      },
      {
        "astId": 176,
        "contract": "contracts/ZeroXBlock.sol:ZeroXBlock",
        "label": "_payees",
        "offset": 0,
        "slot": "155",
        "type": "t_array(t_address)dyn_storage"
      },
      {
        "astId": 181,
        "contract": "contracts/ZeroXBlock.sol:ZeroXBlock",
        "label": "_erc20TotalReleased",
        "offset": 0,
        "slot": "156",
        "type": "t_mapping(t_contract(IERC20Upgradeable)1356,t_uint256)"
      },
      {
        "astId": 188,
        "contract": "contracts/ZeroXBlock.sol:ZeroXBlock",
        "label": "_erc20Released",
        "offset": 0,
        "slot": "157",
        "type": "t_mapping(t_contract(IERC20Upgradeable)1356,t_mapping(t_address,t_uint256))"
      },
      {
        "astId": 590,
        "contract": "contracts/ZeroXBlock.sol:ZeroXBlock",
        "label": "__gap",
        "offset": 0,
        "slot": "158",
        "type": "t_array(t_uint256)43_storage"
      },
      {
        "astId": 1909,
        "contract": "contracts/ZeroXBlock.sol:ZeroXBlock",
        "label": "_crm",
        "offset": 0,
        "slot": "201",
        "type": "t_contract(CONTRewardManagement)5668"
      },
      {
        "astId": 1912,
        "contract": "contracts/ZeroXBlock.sol:ZeroXBlock",
        "label": "_liqRouter",
        "offset": 0,
        "slot": "202",
        "type": "t_contract(LiquidityRouter)6209"
      },
      {
        "astId": 1917,
        "contract": "contracts/ZeroXBlock.sol:ZeroXBlock",
        "label": "ownedContsLimit",
        "offset": 0,
        "slot": "203",
        "type": "t_uint256"
      },
      {
        "astId": 1919,
        "contract": "contracts/ZeroXBlock.sol:ZeroXBlock",
        "label": "mintContLimit",
        "offset": 0,
        "slot": "204",
        "type": "t_uint256"
      },
      {
        "astId": 1921,
        "contract": "contracts/ZeroXBlock.sol:ZeroXBlock",
        "label": "totalTokensPaidForMinting",
        "offset": 0,
        "slot": "205",
        "type": "t_uint256"
      },
      {
        "astId": 1923,
        "contract": "contracts/ZeroXBlock.sol:ZeroXBlock",
        "label": "developmentFundPool",
        "offset": 0,
        "slot": "206",
        "type": "t_address"
      },
      {
        "astId": 1925,
        "contract": "contracts/ZeroXBlock.sol:ZeroXBlock",
        "label": "treasuryPool",
        "offset": 0,
        "slot": "207",
        "type": "t_address"
      },
      {
        "astId": 1927,
        "contract": "contracts/ZeroXBlock.sol:ZeroXBlock",
        "label": "rewardsPool",
        "offset": 0,
        "slot": "208",
        "type": "t_address"
      },
      {
        "astId": 1929,
        "contract": "contracts/ZeroXBlock.sol:ZeroXBlock",
        "label": "liquidityPool",
        "offset": 0,
        "slot": "209",
        "type": "t_address"
      },
      {
        "astId": 1931,
        "contract": "contracts/ZeroXBlock.sol:ZeroXBlock",
        "label": "rewardsFee",
        "offset": 0,
        "slot": "210",
        "type": "t_uint256"
      },
      {
        "astId": 1933,
        "contract": "contracts/ZeroXBlock.sol:ZeroXBlock",
        "label": "treasuryFee",
        "offset": 0,
        "slot": "211",
        "type": "t_uint256"
      },
      {
        "astId": 1935,
        "contract": "contracts/ZeroXBlock.sol:ZeroXBlock",
        "label": "liquidityPoolFee",
        "offset": 0,
        "slot": "212",
        "type": "t_uint256"
      },
      {
        "astId": 1937,
        "contract": "contracts/ZeroXBlock.sol:ZeroXBlock",
        "label": "developmentFee",
        "offset": 0,
        "slot": "213",
        "type": "t_uint256"
      },
      {
        "astId": 1939,
        "contract": "contracts/ZeroXBlock.sol:ZeroXBlock",
        "label": "totalFees",
        "offset": 0,
        "slot": "214",
        "type": "t_uint256"
      },
      {
        "astId": 1941,
        "contract": "contracts/ZeroXBlock.sol:ZeroXBlock",
        "label": "cashoutFee",
        "offset": 0,
        "slot": "215",
        "type": "t_uint256"
      },
      {
        "astId": 1943,
        "contract": "contracts/ZeroXBlock.sol:ZeroXBlock",
        "label": "enableAutoSwapTreasury",
        "offset": 0,
        "slot": "216",
        "type": "t_bool"
      },
      {
        "astId": 1945,
        "contract": "contracts/ZeroXBlock.sol:ZeroXBlock",
        "label": "enableAutoSwapDevFund",
        "offset": 1,
        "slot": "216",
        "type": "t_bool"
      },
      {
        "astId": 1947,
        "contract": "contracts/ZeroXBlock.sol:ZeroXBlock",
        "label": "usdcToken",
        "offset": 2,
        "slot": "216",
        "type": "t_address"
      },
      {
        "astId": 1951,
        "contract": "contracts/ZeroXBlock.sol:ZeroXBlock",
        "label": "_isBlacklisted",
        "offset": 0,
        "slot": "217",
        "type": "t_mapping(t_address,t_bool)"
      },
      {
        "astId": 1953,
        "contract": "contracts/ZeroXBlock.sol:ZeroXBlock",
        "label": "enableCashout",
        "offset": 0,
        "slot": "218",
        "type": "t_bool"
      },
      {
        "astId": 1955,
        "contract": "contracts/ZeroXBlock.sol:ZeroXBlock",
        "label": "enableMintConts",
        "offset": 1,
        "slot": "218",
        "type": "t_bool"
      }
    ],
    "types": {
      "t_address": {
        "encoding": "inplace",
        "label": "address",
        "numberOfBytes": "20"
      },
      "t_array(t_address)dyn_storage": {
        "base": "t_address",
        "encoding": "dynamic_array",
        "label": "address[]",
        "numberOfBytes": "32"
      },
      "t_array(t_uint256)43_storage": {
        "base": "t_uint256",
        "encoding": "inplace",
        "label": "uint256[43]",
        "numberOfBytes": "1376"
      },
      "t_array(t_uint256)45_storage": {
        "base": "t_uint256",
        "encoding": "inplace",
        "label": "uint256[45]",
        "numberOfBytes": "1440"
      },
      "t_array(t_uint256)49_storage": {
        "base": "t_uint256",
        "encoding": "inplace",
        "label": "uint256[49]",
        "numberOfBytes": "1568"
      },
      "t_array(t_uint256)50_storage": {
        "base": "t_uint256",
        "encoding": "inplace",
        "label": "uint256[50]",
        "numberOfBytes": "1600"
      },
      "t_bool": {
        "encoding": "inplace",
        "label": "bool",
        "numberOfBytes": "1"
      },
      "t_contract(CONTRewardManagement)5668": {
        "encoding": "inplace",
        "label": "contract CONTRewardManagement",
        "numberOfBytes": "20"
      },
      "t_contract(IERC20Upgradeable)1356": {
        "encoding": "inplace",
        "label": "contract IERC20Upgradeable",
        "numberOfBytes": "20"
      },
      "t_contract(LiquidityRouter)6209": {
        "encoding": "inplace",
        "label": "contract LiquidityRouter",
        "numberOfBytes": "20"
      },
      "t_mapping(t_address,t_bool)": {
        "encoding": "mapping",
        "key": "t_address",
        "label": "mapping(address => bool)",
        "numberOfBytes": "32",
        "value": "t_bool"
      },
      "t_mapping(t_address,t_mapping(t_address,t_uint256))": {
        "encoding": "mapping",
        "key": "t_address",
        "label": "mapping(address => mapping(address => uint256))",
        "numberOfBytes": "32",
        "value": "t_mapping(t_address,t_uint256)"
      },
      "t_mapping(t_address,t_uint256)": {
        "encoding": "mapping",
        "key": "t_address",
        "label": "mapping(address => uint256)",
        "numberOfBytes": "32",
        "value": "t_uint256"
      },
      "t_mapping(t_contract(IERC20Upgradeable)1356,t_mapping(t_address,t_uint256))": {
        "encoding": "mapping",
        "key": "t_contract(IERC20Upgradeable)1356",
        "label": "mapping(contract IERC20Upgradeable => mapping(address => uint256))",
        "numberOfBytes": "32",
        "value": "t_mapping(t_address,t_uint256)"
      },
      "t_mapping(t_contract(IERC20Upgradeable)1356,t_uint256)": {
        "encoding": "mapping",
        "key": "t_contract(IERC20Upgradeable)1356",
        "label": "mapping(contract IERC20Upgradeable => uint256)",
        "numberOfBytes": "32",
        "value": "t_uint256"
      },
      "t_string_storage": {
        "encoding": "bytes",
        "label": "string",
        "numberOfBytes": "32"
      },
      "t_uint256": {
        "encoding": "inplace",
        "label": "uint256",
        "numberOfBytes": "32"
      }
    }
  }
}