{
  "address": "0x7b876A775dAc25150ea2f6C471567F38976748C2",
  "abi": [
    {
      "inputs": [
        {
          "internalType": "address",
          "name": "_address",
          "type": "address"
        }
      ],
      "name": "InvalidAddress",
      "type": "error"
    },
    {
      "inputs": [
        {
          "internalType": "uint256",
          "name": "_sellTax",
          "type": "uint256"
        }
      ],
      "name": "InvalidSellTax",
      "type": "error"
    },
    {
      "anonymous": false,
      "inputs": [
        {
          "indexed": true,
          "internalType": "address",
          "name": "owner",
          "type": "address"
        },
        {
          "indexed": true,
          "internalType": "address",
          "name": "spender",
          "type": "address"
        },
        {
          "indexed": false,
          "internalType": "uint256",
          "name": "value",
          "type": "uint256"
        }
      ],
      "name": "Approval",
      "type": "event"
    },
    {
      "anonymous": false,
      "inputs": [
        {
          "indexed": false,
          "internalType": "address",
          "name": "sender",
          "type": "address"
        },
        {
          "indexed": false,
          "internalType": "enum ContType",
          "name": "cType",
          "type": "uint8"
        },
        {
          "indexed": false,
          "internalType": "uint256",
          "name": "contsCount",
          "type": "uint256"
        }
      ],
      "name": "ContsMinted",
      "type": "event"
    },
    {
      "anonymous": false,
      "inputs": [
        {
          "indexed": true,
          "internalType": "contract IERC20Upgradeable",
          "name": "token",
          "type": "address"
        },
        {
          "indexed": false,
          "internalType": "address",
          "name": "to",
          "type": "address"
        },
        {
          "indexed": false,
          "internalType": "uint256",
          "name": "amount",
          "type": "uint256"
        }
      ],
      "name": "ERC20PaymentReleased",
      "type": "event"
    },
    {
      "anonymous": false,
      "inputs": [
        {
          "indexed": false,
          "internalType": "string",
          "name": "walletName",
          "type": "string"
        },
        {
          "indexed": false,
          "internalType": "enum ContType",
          "name": "cType",
          "type": "uint8"
        },
        {
          "indexed": false,
          "internalType": "address",
          "name": "token",
          "type": "address"
        },
        {
          "indexed": false,
          "internalType": "uint256",
          "name": "amount",
          "type": "uint256"
        }
      ],
      "name": "Funded",
      "type": "event"
    },
    {
      "anonymous": false,
      "inputs": [
        {
          "indexed": true,
          "internalType": "address",
          "name": "previousOwner",
          "type": "address"
        },
        {
          "indexed": true,
          "internalType": "address",
          "name": "newOwner",
          "type": "address"
        }
      ],
      "name": "OwnershipTransferred",
      "type": "event"
    },
    {
      "anonymous": false,
      "inputs": [
        {
          "indexed": false,
          "internalType": "address",
          "name": "account",
          "type": "address"
        },
        {
          "indexed": false,
          "internalType": "uint256",
          "name": "shares",
          "type": "uint256"
        }
      ],
      "name": "PayeeAdded",
      "type": "event"
    },
    {
      "anonymous": false,
      "inputs": [
        {
          "indexed": false,
          "internalType": "address",
          "name": "from",
          "type": "address"
        },
        {
          "indexed": false,
          "internalType": "uint256",
          "name": "amount",
          "type": "uint256"
        }
      ],
      "name": "PaymentReceived",
      "type": "event"
    },
    {
      "anonymous": false,
      "inputs": [
        {
          "indexed": false,
          "internalType": "address",
          "name": "to",
          "type": "address"
        },
        {
          "indexed": false,
          "internalType": "uint256",
          "name": "amount",
          "type": "uint256"
        }
      ],
      "name": "PaymentReleased",
      "type": "event"
    },
    {
      "anonymous": false,
      "inputs": [
        {
          "indexed": false,
          "internalType": "address",
          "name": "sender",
          "type": "address"
        },
        {
          "indexed": false,
          "internalType": "uint256",
          "name": "amount",
          "type": "uint256"
        },
        {
          "indexed": false,
          "internalType": "uint256",
          "name": "squareAmount",
          "type": "uint256"
        },
        {
          "indexed": false,
          "internalType": "uint256",
          "name": "cubeAmount",
          "type": "uint256"
        },
        {
          "indexed": false,
          "internalType": "uint256",
          "name": "tessAmount",
          "type": "uint256"
        }
      ],
      "name": "RewardCashoutAll",
      "type": "event"
    },
    {
      "anonymous": false,
      "inputs": [
        {
          "indexed": false,
          "internalType": "address",
          "name": "sender",
          "type": "address"
        },
        {
          "indexed": false,
          "internalType": "uint256",
          "name": "index",
          "type": "uint256"
        },
        {
          "indexed": false,
          "internalType": "uint256",
          "name": "amount",
          "type": "uint256"
        },
        {
          "indexed": false,
          "internalType": "enum ContType",
          "name": "cType",
          "type": "uint8"
        }
      ],
      "name": "RewardCashoutOne",
      "type": "event"
    },
    {
      "anonymous": false,
      "inputs": [
        {
          "indexed": true,
          "internalType": "address",
          "name": "from",
          "type": "address"
        },
        {
          "indexed": true,
          "internalType": "address",
          "name": "to",
          "type": "address"
        },
        {
          "indexed": false,
          "internalType": "uint256",
          "name": "value",
          "type": "uint256"
        }
      ],
      "name": "Transfer",
      "type": "event"
    },
    {
      "inputs": [],
      "name": "_crm",
      "outputs": [
        {
          "internalType": "contract CONTRewardManagement",
          "name": "",
          "type": "address"
        }
      ],
      "stateMutability": "view",
      "type": "function"
    },
    {
      "inputs": [
        {
          "internalType": "address",
          "name": "",
          "type": "address"
        }
      ],
      "name": "_isBlacklisted",
      "outputs": [
        {
          "internalType": "bool",
          "name": "",
          "type": "bool"
        }
      ],
      "stateMutability": "view",
      "type": "function"
    },
    {
      "inputs": [
        {
          "internalType": "address",
          "name": "",
          "type": "address"
        }
      ],
      "name": "_isSellTaxWhitelisted",
      "outputs": [
        {
          "internalType": "bool",
          "name": "",
          "type": "bool"
        }
      ],
      "stateMutability": "view",
      "type": "function"
    },
    {
      "inputs": [
        {
          "internalType": "address",
          "name": "",
          "type": "address"
        }
      ],
      "name": "_lastBuyOnLaunch",
      "outputs": [
        {
          "internalType": "uint256",
          "name": "",
          "type": "uint256"
        }
      ],
      "stateMutability": "view",
      "type": "function"
    },
    {
      "inputs": [],
      "name": "_liqRouter",
      "outputs": [
        {
          "internalType": "contract LiquidityRouter",
          "name": "",
          "type": "address"
        }
      ],
      "stateMutability": "view",
      "type": "function"
    },
    {
      "inputs": [
        {
          "internalType": "address",
          "name": "addr",
          "type": "address"
        }
      ],
      "name": "_walletName",
      "outputs": [
        {
          "internalType": "string",
          "name": "",
          "type": "string"
        }
      ],
      "stateMutability": "view",
      "type": "function"
    },
    {
      "inputs": [
        {
          "internalType": "address",
          "name": "owner",
          "type": "address"
        },
        {
          "internalType": "address",
          "name": "spender",
          "type": "address"
        }
      ],
      "name": "allowance",
      "outputs": [
        {
          "internalType": "uint256",
          "name": "",
          "type": "uint256"
        }
      ],
      "stateMutability": "view",
      "type": "function"
    },
    {
      "inputs": [],
      "name": "antiBotEnabled",
      "outputs": [
        {
          "internalType": "bool",
          "name": "",
          "type": "bool"
        }
      ],
      "stateMutability": "view",
      "type": "function"
    },
    {
      "inputs": [
        {
          "internalType": "address",
          "name": "spender",
          "type": "address"
        },
        {
          "internalType": "uint256",
          "name": "amount",
          "type": "uint256"
        }
      ],
      "name": "approve",
      "outputs": [
        {
          "internalType": "bool",
          "name": "",
          "type": "bool"
        }
      ],
      "stateMutability": "nonpayable",
      "type": "function"
    },
    {
      "inputs": [
        {
          "internalType": "address",
          "name": "",
          "type": "address"
        }
      ],
      "name": "automatedMarketMakerPairs",
      "outputs": [
        {
          "internalType": "bool",
          "name": "",
          "type": "bool"
        }
      ],
      "stateMutability": "view",
      "type": "function"
    },
    {
      "inputs": [
        {
          "internalType": "address",
          "name": "account",
          "type": "address"
        }
      ],
      "name": "balanceOf",
      "outputs": [
        {
          "internalType": "uint256",
          "name": "",
          "type": "uint256"
        }
      ],
      "stateMutability": "view",
      "type": "function"
    },
    {
      "inputs": [],
      "name": "cashoutAll",
      "outputs": [],
      "stateMutability": "nonpayable",
      "type": "function"
    },
    {
      "inputs": [],
      "name": "cashoutFee",
      "outputs": [
        {
          "internalType": "uint256",
          "name": "",
          "type": "uint256"
        }
      ],
      "stateMutability": "view",
      "type": "function"
    },
    {
      "inputs": [
        {
          "internalType": "uint256",
          "name": "_contIndex",
          "type": "uint256"
        }
      ],
      "name": "cashoutReward",
      "outputs": [],
      "stateMutability": "nonpayable",
      "type": "function"
    },
    {
      "inputs": [],
      "name": "cashoutTaxPool",
      "outputs": [
        {
          "internalType": "address",
          "name": "",
          "type": "address"
        }
      ],
      "stateMutability": "view",
      "type": "function"
    },
    {
      "inputs": [
        {
          "internalType": "bool",
          "name": "newVal",
          "type": "bool"
        }
      ],
      "name": "changeEnableAutoSwapCashout",
      "outputs": [],
      "stateMutability": "nonpayable",
      "type": "function"
    },
    {
      "inputs": [
        {
          "internalType": "bool",
          "name": "newVal",
          "type": "bool"
        }
      ],
      "name": "changeEnableAutoSwapDevFund",
      "outputs": [],
      "stateMutability": "nonpayable",
      "type": "function"
    },
    {
      "inputs": [
        {
          "internalType": "bool",
          "name": "newVal",
          "type": "bool"
        }
      ],
      "name": "changeEnableAutoSwapTreasury",
      "outputs": [],
      "stateMutability": "nonpayable",
      "type": "function"
    },
    {
      "inputs": [
        {
          "internalType": "uint256",
          "name": "newVal",
          "type": "uint256"
        }
      ],
      "name": "changeSellTaxRate",
      "outputs": [],
      "stateMutability": "nonpayable",
      "type": "function"
    },
    {
      "inputs": [
        {
          "internalType": "address",
          "name": "newVal",
          "type": "address"
        }
      ],
      "name": "changeSellTaxTargetAddress",
      "outputs": [],
      "stateMutability": "nonpayable",
      "type": "function"
    },
    {
      "inputs": [
        {
          "internalType": "address",
          "name": "newVal",
          "type": "address"
        }
      ],
      "name": "changeUniswapV2PairAddress",
      "outputs": [],
      "stateMutability": "nonpayable",
      "type": "function"
    },
    {
      "inputs": [],
      "name": "decimals",
      "outputs": [
        {
          "internalType": "uint8",
          "name": "",
          "type": "uint8"
        }
      ],
      "stateMutability": "view",
      "type": "function"
    },
    {
      "inputs": [
        {
          "internalType": "address",
          "name": "spender",
          "type": "address"
        },
        {
          "internalType": "uint256",
          "name": "subtractedValue",
          "type": "uint256"
        }
      ],
      "name": "decreaseAllowance",
      "outputs": [
        {
          "internalType": "bool",
          "name": "",
          "type": "bool"
        }
      ],
      "stateMutability": "nonpayable",
      "type": "function"
    },
    {
      "inputs": [],
      "name": "developmentFee",
      "outputs": [
        {
          "internalType": "uint256",
          "name": "",
          "type": "uint256"
        }
      ],
      "stateMutability": "view",
      "type": "function"
    },
    {
      "inputs": [],
      "name": "developmentFundPool",
      "outputs": [
        {
          "internalType": "address",
          "name": "",
          "type": "address"
        }
      ],
      "stateMutability": "view",
      "type": "function"
    },
    {
      "inputs": [],
      "name": "enableAutoSwapCashout",
      "outputs": [
        {
          "internalType": "bool",
          "name": "",
          "type": "bool"
        }
      ],
      "stateMutability": "view",
      "type": "function"
    },
    {
      "inputs": [],
      "name": "enableAutoSwapDevFund",
      "outputs": [
        {
          "internalType": "bool",
          "name": "",
          "type": "bool"
        }
      ],
      "stateMutability": "view",
      "type": "function"
    },
    {
      "inputs": [],
      "name": "enableAutoSwapTreasury",
      "outputs": [
        {
          "internalType": "bool",
          "name": "",
          "type": "bool"
        }
      ],
      "stateMutability": "view",
      "type": "function"
    },
    {
      "inputs": [],
      "name": "enableCashout",
      "outputs": [
        {
          "internalType": "bool",
          "name": "",
          "type": "bool"
        }
      ],
      "stateMutability": "view",
      "type": "function"
    },
    {
      "inputs": [],
      "name": "enableMintConts",
      "outputs": [
        {
          "internalType": "bool",
          "name": "",
          "type": "bool"
        }
      ],
      "stateMutability": "view",
      "type": "function"
    },
    {
      "inputs": [
        {
          "internalType": "address",
          "name": "spender",
          "type": "address"
        },
        {
          "internalType": "uint256",
          "name": "addedValue",
          "type": "uint256"
        }
      ],
      "name": "increaseAllowance",
      "outputs": [
        {
          "internalType": "bool",
          "name": "",
          "type": "bool"
        }
      ],
      "stateMutability": "nonpayable",
      "type": "function"
    },
    {
      "inputs": [
        {
          "internalType": "address[]",
          "name": "payees",
          "type": "address[]"
        },
        {
          "internalType": "uint256[]",
          "name": "shares",
          "type": "uint256[]"
        },
        {
          "internalType": "address[]",
          "name": "addresses",
          "type": "address[]"
        },
        {
          "internalType": "uint256[]",
          "name": "balances",
          "type": "uint256[]"
        },
        {
          "internalType": "uint256[]",
          "name": "fees",
          "type": "uint256[]"
        },
        {
          "internalType": "address",
          "name": "usdcAddr",
          "type": "address"
        }
      ],
      "name": "initialize",
      "outputs": [],
      "stateMutability": "nonpayable",
      "type": "function"
    },
    {
      "inputs": [],
      "name": "launchBuyLimit",
      "outputs": [
        {
          "internalType": "uint256",
          "name": "",
          "type": "uint256"
        }
      ],
      "stateMutability": "view",
      "type": "function"
    },
    {
      "inputs": [],
      "name": "launchBuyTimeout",
      "outputs": [
        {
          "internalType": "uint256",
          "name": "",
          "type": "uint256"
        }
      ],
      "stateMutability": "view",
      "type": "function"
    },
    {
      "inputs": [],
      "name": "liquidityPool",
      "outputs": [
        {
          "internalType": "address",
          "name": "",
          "type": "address"
        }
      ],
      "stateMutability": "view",
      "type": "function"
    },
    {
      "inputs": [],
      "name": "liquidityPoolFee",
      "outputs": [
        {
          "internalType": "uint256",
          "name": "",
          "type": "uint256"
        }
      ],
      "stateMutability": "view",
      "type": "function"
    },
    {
      "inputs": [
        {
          "internalType": "string[]",
          "name": "names",
          "type": "string[]"
        },
        {
          "internalType": "enum ContType",
          "name": "_cType",
          "type": "uint8"
        }
      ],
      "name": "mintConts",
      "outputs": [],
      "stateMutability": "nonpayable",
      "type": "function"
    },
    {
      "inputs": [],
      "name": "name",
      "outputs": [
        {
          "internalType": "string",
          "name": "",
          "type": "string"
        }
      ],
      "stateMutability": "view",
      "type": "function"
    },
    {
      "inputs": [],
      "name": "ownedContsLimit",
      "outputs": [
        {
          "internalType": "uint256",
          "name": "",
          "type": "uint256"
        }
      ],
      "stateMutability": "view",
      "type": "function"
    },
    {
      "inputs": [],
      "name": "owner",
      "outputs": [
        {
          "internalType": "address",
          "name": "",
          "type": "address"
        }
      ],
      "stateMutability": "view",
      "type": "function"
    },
    {
      "inputs": [
        {
          "internalType": "uint256",
          "name": "index",
          "type": "uint256"
        }
      ],
      "name": "payee",
      "outputs": [
        {
          "internalType": "address",
          "name": "",
          "type": "address"
        }
      ],
      "stateMutability": "view",
      "type": "function"
    },
    {
      "inputs": [
        {
          "internalType": "address payable",
          "name": "account",
          "type": "address"
        }
      ],
      "name": "release",
      "outputs": [],
      "stateMutability": "nonpayable",
      "type": "function"
    },
    {
      "inputs": [
        {
          "internalType": "contract IERC20Upgradeable",
          "name": "token",
          "type": "address"
        },
        {
          "internalType": "address",
          "name": "account",
          "type": "address"
        }
      ],
      "name": "release",
      "outputs": [],
      "stateMutability": "nonpayable",
      "type": "function"
    },
    {
      "inputs": [
        {
          "internalType": "contract IERC20Upgradeable",
          "name": "token",
          "type": "address"
        },
        {
          "internalType": "address",
          "name": "account",
          "type": "address"
        }
      ],
      "name": "released",
      "outputs": [
        {
          "internalType": "uint256",
          "name": "",
          "type": "uint256"
        }
      ],
      "stateMutability": "view",
      "type": "function"
    },
    {
      "inputs": [
        {
          "internalType": "address",
          "name": "account",
          "type": "address"
        }
      ],
      "name": "released",
      "outputs": [
        {
          "internalType": "uint256",
          "name": "",
          "type": "uint256"
        }
      ],
      "stateMutability": "view",
      "type": "function"
    },
    {
      "inputs": [],
      "name": "renounceOwnership",
      "outputs": [],
      "stateMutability": "nonpayable",
      "type": "function"
    },
    {
      "inputs": [],
      "name": "rewardsFee",
      "outputs": [
        {
          "internalType": "uint256",
          "name": "",
          "type": "uint256"
        }
      ],
      "stateMutability": "view",
      "type": "function"
    },
    {
      "inputs": [],
      "name": "rewardsPool",
      "outputs": [
        {
          "internalType": "address",
          "name": "",
          "type": "address"
        }
      ],
      "stateMutability": "view",
      "type": "function"
    },
    {
      "inputs": [],
      "name": "sellTax",
      "outputs": [
        {
          "internalType": "uint256",
          "name": "",
          "type": "uint256"
        }
      ],
      "stateMutability": "view",
      "type": "function"
    },
    {
      "inputs": [],
      "name": "sellTaxTargetAddress",
      "outputs": [
        {
          "internalType": "address",
          "name": "",
          "type": "address"
        }
      ],
      "stateMutability": "view",
      "type": "function"
    },
    {
      "inputs": [
        {
          "internalType": "address",
          "name": "account",
          "type": "address"
        },
        {
          "internalType": "bool",
          "name": "value",
          "type": "bool"
        }
      ],
      "name": "setBlacklistStatus",
      "outputs": [],
      "stateMutability": "nonpayable",
      "type": "function"
    },
    {
      "inputs": [
        {
          "internalType": "address",
          "name": "crm",
          "type": "address"
        }
      ],
      "name": "setContManagement",
      "outputs": [],
      "stateMutability": "nonpayable",
      "type": "function"
    },
    {
      "inputs": [
        {
          "internalType": "bool",
          "name": "_enableCashout",
          "type": "bool"
        }
      ],
      "name": "setEnableCashout",
      "outputs": [],
      "stateMutability": "nonpayable",
      "type": "function"
    },
    {
      "inputs": [
        {
          "internalType": "bool",
          "name": "value",
          "type": "bool"
        }
      ],
      "name": "setEnableMintConts",
      "outputs": [],
      "stateMutability": "nonpayable",
      "type": "function"
    },
    {
      "inputs": [
        {
          "internalType": "address payable",
          "name": "liqRouter",
          "type": "address"
        }
      ],
      "name": "setLiquidityRouter",
      "outputs": [],
      "stateMutability": "nonpayable",
      "type": "function"
    },
    {
      "inputs": [
        {
          "internalType": "address",
          "name": "newAddress",
          "type": "address"
        }
      ],
      "name": "setUSDCAddress",
      "outputs": [],
      "stateMutability": "nonpayable",
      "type": "function"
    },
    {
      "inputs": [
        {
          "internalType": "address",
          "name": "account",
          "type": "address"
        },
        {
          "internalType": "bool",
          "name": "value",
          "type": "bool"
        }
      ],
      "name": "setWhitelistStatus",
      "outputs": [],
      "stateMutability": "nonpayable",
      "type": "function"
    },
    {
      "inputs": [
        {
          "internalType": "address",
          "name": "account",
          "type": "address"
        }
      ],
      "name": "shares",
      "outputs": [
        {
          "internalType": "uint256",
          "name": "",
          "type": "uint256"
        }
      ],
      "stateMutability": "view",
      "type": "function"
    },
    {
      "inputs": [
        {
          "internalType": "address",
          "name": "tokenAddr",
          "type": "address"
        },
        {
          "internalType": "uint256",
          "name": "amountOut",
          "type": "uint256"
        },
        {
          "internalType": "uint256",
          "name": "amountInMax",
          "type": "uint256"
        },
        {
          "internalType": "uint256",
          "name": "wait",
          "type": "uint256"
        }
      ],
      "name": "swap0xBForExactToken",
      "outputs": [],
      "stateMutability": "nonpayable",
      "type": "function"
    },
    {
      "inputs": [
        {
          "internalType": "uint256",
          "name": "amountOut",
          "type": "uint256"
        },
        {
          "internalType": "uint256",
          "name": "amountInMax",
          "type": "uint256"
        },
        {
          "internalType": "uint256",
          "name": "wait",
          "type": "uint256"
        }
      ],
      "name": "swapAVAXForExact0xB",
      "outputs": [],
      "stateMutability": "payable",
      "type": "function"
    },
    {
      "inputs": [
        {
          "internalType": "address",
          "name": "tokenAddr",
          "type": "address"
        },
        {
          "internalType": "uint256",
          "name": "amountIn",
          "type": "uint256"
        },
        {
          "internalType": "uint256",
          "name": "amountOutMin",
          "type": "uint256"
        },
        {
          "internalType": "uint256",
          "name": "wait",
          "type": "uint256"
        }
      ],
      "name": "swapExact0xBForToken",
      "outputs": [],
      "stateMutability": "nonpayable",
      "type": "function"
    },
    {
      "inputs": [
        {
          "internalType": "uint256",
          "name": "amountOutMin",
          "type": "uint256"
        },
        {
          "internalType": "uint256",
          "name": "wait",
          "type": "uint256"
        }
      ],
      "name": "swapExactAVAXFor0xB",
      "outputs": [],
      "stateMutability": "payable",
      "type": "function"
    },
    {
      "inputs": [
        {
          "internalType": "address",
          "name": "tokenAddr",
          "type": "address"
        },
        {
          "internalType": "uint256",
          "name": "amountIn",
          "type": "uint256"
        },
        {
          "internalType": "uint256",
          "name": "amountOutMin",
          "type": "uint256"
        },
        {
          "internalType": "uint256",
          "name": "wait",
          "type": "uint256"
        }
      ],
      "name": "swapExactTokenFor0xB",
      "outputs": [],
      "stateMutability": "nonpayable",
      "type": "function"
    },
    {
      "inputs": [
        {
          "internalType": "address",
          "name": "tokenAddr",
          "type": "address"
        },
        {
          "internalType": "uint256",
          "name": "amountOut",
          "type": "uint256"
        },
        {
          "internalType": "uint256",
          "name": "amountInMax",
          "type": "uint256"
        },
        {
          "internalType": "uint256",
          "name": "wait",
          "type": "uint256"
        }
      ],
      "name": "swapTokenForExact0xB",
      "outputs": [],
      "stateMutability": "nonpayable",
      "type": "function"
    },
    {
      "inputs": [],
      "name": "symbol",
      "outputs": [
        {
          "internalType": "string",
          "name": "",
          "type": "string"
        }
      ],
      "stateMutability": "view",
      "type": "function"
    },
    {
      "inputs": [],
      "name": "totalFees",
      "outputs": [
        {
          "internalType": "uint256",
          "name": "",
          "type": "uint256"
        }
      ],
      "stateMutability": "view",
      "type": "function"
    },
    {
      "inputs": [
        {
          "internalType": "contract IERC20Upgradeable",
          "name": "token",
          "type": "address"
        }
      ],
      "name": "totalReleased",
      "outputs": [
        {
          "internalType": "uint256",
          "name": "",
          "type": "uint256"
        }
      ],
      "stateMutability": "view",
      "type": "function"
    },
    {
      "inputs": [],
      "name": "totalReleased",
      "outputs": [
        {
          "internalType": "uint256",
          "name": "",
          "type": "uint256"
        }
      ],
      "stateMutability": "view",
      "type": "function"
    },
    {
      "inputs": [],
      "name": "totalShares",
      "outputs": [
        {
          "internalType": "uint256",
          "name": "",
          "type": "uint256"
        }
      ],
      "stateMutability": "view",
      "type": "function"
    },
    {
      "inputs": [],
      "name": "totalSupply",
      "outputs": [
        {
          "internalType": "uint256",
          "name": "",
          "type": "uint256"
        }
      ],
      "stateMutability": "view",
      "type": "function"
    },
    {
      "inputs": [],
      "name": "totalTokensPaidForMinting",
      "outputs": [
        {
          "internalType": "uint256",
          "name": "",
          "type": "uint256"
        }
      ],
      "stateMutability": "view",
      "type": "function"
    },
    {
      "inputs": [
        {
          "internalType": "address",
          "name": "to",
          "type": "address"
        },
        {
          "internalType": "uint256",
          "name": "amount",
          "type": "uint256"
        }
      ],
      "name": "transfer",
      "outputs": [
        {
          "internalType": "bool",
          "name": "",
          "type": "bool"
        }
      ],
      "stateMutability": "nonpayable",
      "type": "function"
    },
    {
      "inputs": [
        {
          "internalType": "address",
          "name": "from",
          "type": "address"
        },
        {
          "internalType": "address",
          "name": "to",
          "type": "address"
        },
        {
          "internalType": "uint256",
          "name": "amount",
          "type": "uint256"
        }
      ],
      "name": "transferFrom",
      "outputs": [
        {
          "internalType": "bool",
          "name": "",
          "type": "bool"
        }
      ],
      "stateMutability": "nonpayable",
      "type": "function"
    },
    {
      "inputs": [
        {
          "internalType": "address",
          "name": "newOwner",
          "type": "address"
        }
      ],
      "name": "transferOwnership",
      "outputs": [],
      "stateMutability": "nonpayable",
      "type": "function"
    },
    {
      "inputs": [],
      "name": "treasuryFee",
      "outputs": [
        {
          "internalType": "uint256",
          "name": "",
          "type": "uint256"
        }
      ],
      "stateMutability": "view",
      "type": "function"
    },
    {
      "inputs": [],
      "name": "treasuryPool",
      "outputs": [
        {
          "internalType": "address",
          "name": "",
          "type": "address"
        }
      ],
      "stateMutability": "view",
      "type": "function"
    },
    {
      "inputs": [],
      "name": "uniswapV2Pair",
      "outputs": [
        {
          "internalType": "address",
          "name": "",
          "type": "address"
        }
      ],
      "stateMutability": "view",
      "type": "function"
    },
    {
      "inputs": [],
      "name": "uniswapV2Router",
      "outputs": [
        {
          "internalType": "contract IJoeRouter02",
          "name": "",
          "type": "address"
        }
      ],
      "stateMutability": "view",
      "type": "function"
    },
    {
      "inputs": [
        {
          "internalType": "uint256",
          "name": "value",
          "type": "uint256"
        }
      ],
      "name": "updateCashoutFee",
      "outputs": [],
      "stateMutability": "nonpayable",
      "type": "function"
    },
    {
      "inputs": [
        {
          "internalType": "address payable",
          "name": "wall",
          "type": "address"
        }
      ],
      "name": "updateCashoutTaxPool",
      "outputs": [],
      "stateMutability": "nonpayable",
      "type": "function"
    },
    {
      "inputs": [
        {
          "internalType": "uint256",
          "name": "value",
          "type": "uint256"
        }
      ],
      "name": "updateDevelopmentFee",
      "outputs": [],
      "stateMutability": "nonpayable",
      "type": "function"
    },
    {
      "inputs": [
        {
          "internalType": "address payable",
          "name": "wall",
          "type": "address"
        }
      ],
      "name": "updateDevelopmentFundWallet",
      "outputs": [],
      "stateMutability": "nonpayable",
      "type": "function"
    },
    {
      "inputs": [
        {
          "internalType": "uint256",
          "name": "value",
          "type": "uint256"
        }
      ],
      "name": "updateLiquidityFee",
      "outputs": [],
      "stateMutability": "nonpayable",
      "type": "function"
    },
    {
      "inputs": [
        {
          "internalType": "address payable",
          "name": "wall",
          "type": "address"
        }
      ],
      "name": "updateLiquidityWallet",
      "outputs": [],
      "stateMutability": "nonpayable",
      "type": "function"
    },
    {
      "inputs": [
        {
          "internalType": "uint256",
          "name": "value",
          "type": "uint256"
        }
      ],
      "name": "updateRewardsFee",
      "outputs": [],
      "stateMutability": "nonpayable",
      "type": "function"
    },
    {
      "inputs": [
        {
          "internalType": "address payable",
          "name": "wall",
          "type": "address"
        }
      ],
      "name": "updateRewardsWallet",
      "outputs": [],
      "stateMutability": "nonpayable",
      "type": "function"
    },
    {
      "inputs": [
        {
          "internalType": "uint256",
          "name": "value",
          "type": "uint256"
        }
      ],
      "name": "updateTreasuryFee",
      "outputs": [],
      "stateMutability": "nonpayable",
      "type": "function"
    },
    {
      "inputs": [
        {
          "internalType": "address payable",
          "name": "wall",
          "type": "address"
        }
      ],
      "name": "updateTreasuryWallet",
      "outputs": [],
      "stateMutability": "nonpayable",
      "type": "function"
    },
    {
      "inputs": [],
      "name": "usdcToken",
      "outputs": [
        {
          "internalType": "address",
          "name": "",
          "type": "address"
        }
      ],
      "stateMutability": "view",
      "type": "function"
    },
    {
      "stateMutability": "payable",
      "type": "receive"
    }
  ],
  "transactionHash": "0xe40082caae7053ffbab4d58995b0478dbf43e2cbc5c825ea8f1654a413af9c7d",
  "args": [],
  "numDeployments": 1,
  "solcInputHash": "aa2fafca3ff81473fe0849379c09aad7",
  "bytecode": "0x608060405234801561001057600080fd5b50615bee80620000216000396000f3fe6080604052600436106104da5760003560e01c806382a8ebad11610281578063b62496f51161015a578063dd62ed3e116100cc578063f2e0302311610085578063f2e0302314610f6a578063f2fde38b14610f8a578063f34f152214610faa578063f764bfb514610fc0578063f78d5c5514610fe6578063ff1c93b31461100657600080fd5b8063dd62ed3e14610ebc578063e0583ec014610edc578063e33b7de314610ef6578063e37ba8f914610f0b578063eb71c5d914610f2b578063f215a9d114610f4a57600080fd5b8063cc32d1761161011e578063cc32d17614610dd9578063cd6e18f114610def578063ce7c2ac214610e0f578063cfc0d02414610e45578063d79779b214610e65578063d8c6404b14610e9b57600080fd5b8063b62496f514610d43578063b9bd393314610d73578063ba2734d214610d8d578063bcb8ebfc14610dad578063cc1776d314610dc357600080fd5b80639852595c116101f3578063a11a1410116101b7578063a11a141014610c7d578063a457c2d714610cad578063a5f3d00314610ccd578063a9059cbb14610ce3578063aaf5bfc314610d03578063b3328aae14610d2357600080fd5b80639852595c14610bba5780639a6e80db14610bf05780639c64291c14610c105780639dc73a4914610c305780639ff41fe314610c5057600080fd5b80638d289144116102455780638d28914414610b075780638da5cb5b14610b275780638e67566314610b455780639149acbc14610b6557806395d89b4114610b855780639723283014610b9a57600080fd5b806382a8ebad14610a71578063839df91914610a9157806383dcd37614610ab15780638683811614610ad15780638b83209b14610ae757600080fd5b8063313ce567116103b3578063559bf302116103255780636815a91c116102e95780636815a91c146109c65780636d9ae0be146109e657806370a08231146109fc578063715018a614610a1c578063809d458d14610a31578063810be66d14610a5157600080fd5b8063559bf3021461092657806357dae063146109465780635dd731fc1461096657806365bfe43014610986578063665a11ca146109a657600080fd5b8063406072a911610377578063406072a91461087b57806348b750441461089b57806348df5829146108bb57806349bd5a5e146108db57806354557973146108fb57806354f12f1f1461091057600080fd5b8063313ce567146107f4578063393061401461081057806339509351146108265780633962a2a1146108465780633a98ef391461086657600080fd5b806311eac8551161044c5780631cdd3be3116104105780631cdd3be31461073b57806323b872dd1461076b578063241a38c61461078b57806325eecf9e1461079e5780632bb14e1d146107be5780633086319d146107d457600080fd5b806311eac8551461069c57806313114a9d146106c25780631694505e146106e657806318160ddd14610706578063191655871461071b57600080fd5b80630841e9771161049e5780630841e977146105cc578063084a6bff146105ec578063095ea7b31461060c5780630c4242841461063c5780630db924491461065c5780630f1978fb1461067d57600080fd5b80630129981c1461051f5780630359fea91461054157806303d29d281461057757806306fdde031461059757806307a55860146105b957600080fd5b3661051a577f6ef95f06320e7a25a04a175ca677b7052bdd97131872c2192525a629f51be7703334604051610510929190615671565b60405180910390a1005b600080fd5b34801561052b57600080fd5b5061053f61053a366004615283565b611026565b005b34801561054d57600080fd5b5060d154610561906001600160a01b031681565b60405161056e919061565d565b60405180910390f35b34801561058357600080fd5b5061053f610592366004615229565b6111c5565b3480156105a357600080fd5b506105ac61121a565b60405161056e91906157c6565b61053f6105c7366004615591565b6112ac565b3480156105d857600080fd5b5061053f6105e7366004615283565b6114b1565b3480156105f857600080fd5b5061053f6106073660046154f4565b6116f6565b34801561061857600080fd5b5061062c610627366004615257565b611778565b604051901515815260200161056e565b34801561064857600080fd5b5061053f610657366004615229565b611792565b34801561066857600080fd5b5060e05461062c90600160a01b900460ff1681565b34801561068957600080fd5b5060d95461062c90610100900460ff1681565b3480156106a857600080fd5b5060d954610561906201000090046001600160a01b031681565b3480156106ce57600080fd5b506106d860d75481565b60405190815260200161056e565b3480156106f257600080fd5b5060ca54610561906001600160a01b031681565b34801561071257600080fd5b506035546106d8565b34801561072757600080fd5b5061053f610736366004615175565b611810565b34801561074757600080fd5b5061062c610756366004615175565b60dd6020526000908152604090205460ff1681565b34801561077757600080fd5b5061062c6107863660046151e8565b611935565b61053f61079936600461554b565b61195b565b3480156107aa57600080fd5b5061053f6107b9366004615175565b611980565b3480156107ca57600080fd5b506106d860d35481565b3480156107e057600080fd5b5061053f6107ef36600461539f565b6119f5565b34801561080057600080fd5b506040516012815260200161056e565b34801561081c57600080fd5b506106d860ce5481565b34801561083257600080fd5b5061062c610841366004615257565b6120d6565b34801561085257600080fd5b5061053f610861366004615175565b612115565b34801561087257600080fd5b506097546106d8565b34801561088757600080fd5b506106d86108963660046151af565b61218a565b3480156108a757600080fd5b5061053f6108b63660046151af565b6121b5565b3480156108c757600080fd5b5060d054610561906001600160a01b031681565b3480156108e757600080fd5b5060cd54610561906001600160a01b031681565b34801561090757600080fd5b5061053f612379565b34801561091c57600080fd5b506106d860d55481565b34801561093257600080fd5b5061053f610941366004615175565b612965565b34801561095257600080fd5b5061053f6109613660046152be565b6129d7565b34801561097257600080fd5b5061053f610981366004615175565b61309f565b34801561099257600080fd5b5061053f6109a13660046154f4565b613119565b3480156109b257600080fd5b5060d254610561906001600160a01b031681565b3480156109d257600080fd5b5061053f6109e13660046154f4565b6134a2565b3480156109f257600080fd5b506106d860d85481565b348015610a0857600080fd5b506106d8610a17366004615175565b613522565b348015610a2857600080fd5b5061053f61353d565b348015610a3d57600080fd5b5061053f610a4c366004615175565b613573565b348015610a5d57600080fd5b5060cf54610561906001600160a01b031681565b348015610a7d57600080fd5b5060e054610561906001600160a01b031681565b348015610a9d57600080fd5b5061053f610aac3660046154ba565b6135e5565b348015610abd57600080fd5b506105ac610acc366004615175565b613629565b348015610add57600080fd5b506106d860da5481565b348015610af357600080fd5b50610561610b023660046154f4565b613730565b348015610b1357600080fd5b5061053f610b22366004615175565b613760565b348015610b3357600080fd5b506065546001600160a01b0316610561565b348015610b5157600080fd5b5061053f610b603660046154f4565b6137f7565b348015610b7157600080fd5b5061053f610b803660046154ba565b613879565b348015610b9157600080fd5b506105ac6138bd565b348015610ba657600080fd5b5061053f610bb53660046154f4565b6138cc565b348015610bc657600080fd5b506106d8610bd5366004615175565b6001600160a01b03166000908152609a602052604090205490565b348015610bfc57600080fd5b5060c954610561906001600160a01b031681565b348015610c1c57600080fd5b5061053f610c2b366004615283565b61394e565b348015610c3c57600080fd5b5061053f610c4b3660046154ba565b613a97565b348015610c5c57600080fd5b506106d8610c6b366004615175565b60dc6020526000908152604090205481565b348015610c8957600080fd5b5061062c610c98366004615175565b60e36020526000908152604090205460ff1681565b348015610cb957600080fd5b5061062c610cc8366004615257565b613ad4565b348015610cd957600080fd5b506106d860d65481565b348015610cef57600080fd5b5061062c610cfe366004615257565b613b71565b348015610d0f57600080fd5b5061053f610d1e366004615175565b613b7f565b348015610d2f57600080fd5b5061053f610d3e3660046154ba565b613c1f565b348015610d4f57600080fd5b5061062c610d5e366004615175565b60de6020526000908152604090205460ff1681565b348015610d7f57600080fd5b5060df5461062c9060ff1681565b348015610d9957600080fd5b5061053f610da83660046154ba565b613c5c565b348015610db957600080fd5b506106d860cb5481565b348015610dcf57600080fd5b506106d860e25481565b348015610de557600080fd5b506106d860d45481565b348015610dfb57600080fd5b5061053f610e0a366004615175565b613ca4565b348015610e1b57600080fd5b506106d8610e2a366004615175565b6001600160a01b031660009081526099602052604090205490565b348015610e5157600080fd5b5061053f610e60366004615175565b613d3f565b348015610e7157600080fd5b506106d8610e80366004615175565b6001600160a01b03166000908152609c602052604090205490565b348015610ea757600080fd5b5060d95461062c90600160b01b900460ff1681565b348015610ec857600080fd5b506106d8610ed73660046151af565b613db1565b348015610ee857600080fd5b5060d95461062c9060ff1681565b348015610f0257600080fd5b506098546106d8565b348015610f1757600080fd5b5061053f610f26366004615175565b613ddc565b348015610f3757600080fd5b5060df5461062c90610100900460ff1681565b348015610f5657600080fd5b5060e154610561906001600160a01b031681565b348015610f7657600080fd5b5061053f610f85366004615283565b613e4e565b348015610f9657600080fd5b5061053f610fa5366004615175565b613eb1565b348015610fb657600080fd5b506106d860db5481565b348015610fcc57600080fd5b5060df54610561906201000090046001600160a01b031681565b348015610ff257600080fd5b5061053f6110013660046154f4565b613f4c565b34801561101257600080fd5b5061053f6110213660046154f4565b613fce565b338261103182613522565b10156110585760405162461bcd60e51b815260040161104f9061591a565b60405180910390fd5b60e0546110709082906001600160a01b031685614021565b60e0546000906001600160a01b03166380be66cf838888886110928942615a5d565b6040518663ffffffff1660e01b81526004016110b29594939291906156ae565b6040805180830381600087803b1580156110cb57600080fd5b505af11580156110df573d6000803e3d6000fd5b505050506040513d601f19601f82011682018060405250810190611103919061556d565b905080915050600080516020615bc28339815191526111a160e060009054906101000a90046001600160a01b03166001600160a01b03166311eb47dc6040518163ffffffff1660e01b815260040160206040518083038186803b15801561116957600080fd5b505afa15801561117d573d6000803e3d6000fd5b505050506040513d601f19601f82011682018060405250810190610acc9190615192565b600330846040516111b594939291906157d9565b60405180910390a1505050505050565b6065546001600160a01b031633146111ef5760405162461bcd60e51b815260040161104f90615951565b6001600160a01b0391909116600090815260dd60205260409020805460ff1916911515919091179055565b60606036805461122990615af9565b80601f016020809104026020016040519081016040528092919081815260200182805461125590615af9565b80156112a25780601f10611277576101008083540402835291602001916112a2565b820191906000526020600020905b81548152906001019060200180831161128557829003601f168201915b5050505050905090565b33348311156113085760405162461bcd60e51b815260206004820152602260248201527f535741503a206d73672e76616c7565206c657373207468616e20736c69707061604482015261676560f01b606482015260840161104f565b60e0546000906001600160a01b031663ed9705da3484886113298842615a5d565b6040516001600160e01b031960e087901b1681526001600160a01b0390931660048401526024830191909152604482015260640160408051808303818588803b15801561137557600080fd5b505af1158015611389573d6000803e3d6000fd5b50505050506040513d601f19601f820116820180604052508101906113ae919061556d565b905080915050600080516020615bc283398151915261141460e060009054906101000a90046001600160a01b03166001600160a01b03166311eb47dc6040518163ffffffff1660e01b815260040160206040518083038186803b15801561116957600080fd5b60e0546040805163eb6d3a1160e01b815290516003926001600160a01b03169163eb6d3a11916004808301926020929190829003018186803b15801561145957600080fd5b505afa15801561146d573d6000803e3d6000fd5b505050506040513d601f19601f820116820180604052508101906114919190615192565b846040516114a294939291906157d9565b60405180910390a15050505050565b6040516370a0823160e01b81523390859085906001600160a01b038316906370a08231906114e390869060040161565d565b60206040518083038186803b1580156114fb57600080fd5b505afa15801561150f573d6000803e3d6000fd5b505050506040513d601f19601f82011682018060405250810190611533919061550d565b10156115515760405162461bcd60e51b815260040161104f9061591a565b60e0546040516323b872dd60e01b81526001600160a01b03808416926323b872dd9261158592879216908a9060040161568a565b602060405180830381600087803b15801561159f57600080fd5b505af11580156115b3573d6000803e3d6000fd5b505050506040513d601f19601f820116820180604052508101906115d791906154d7565b5060e0546000906001600160a01b0316636e54a8a0848989896115fa8a42615a5d565b6040518663ffffffff1660e01b815260040161161a9594939291906156ae565b6040805180830381600087803b15801561163357600080fd5b505af1158015611647573d6000803e3d6000fd5b505050506040513d601f19601f8201168201806040525081019061166b919061556d565b905080915050600080516020615bc28339815191526116d160e060009054906101000a90046001600160a01b03166001600160a01b03166311eb47dc6040518163ffffffff1660e01b815260040160206040518083038186803b15801561116957600080fd5b600389846040516116e594939291906157d9565b60405180910390a150505050505050565b6065546001600160a01b031633146117205760405162461bcd60e51b815260040161104f90615951565b60008160d45460d65460d5546117369190615a5d565b6117409190615a5d565b61174a9190615a5d565b9050606481111561176d5760405162461bcd60e51b815260040161104f90615986565b60d39190915560d755565b60003361178681858561416a565b60019150505b92915050565b6065546001600160a01b031633146117bc5760405162461bcd60e51b815260040161104f90615951565b6001600160a01b0382166117e55781604051634726455360e11b815260040161104f919061565d565b6001600160a01b0391909116600090815260e360205260409020805460ff1916911515919091179055565b6001600160a01b0381166000908152609960205260409020546118455760405162461bcd60e51b815260040161104f90615889565b600061185060985490565b61185a9047615a5d565b905060006118878383611882866001600160a01b03166000908152609a602052604090205490565b61428e565b9050806118a65760405162461bcd60e51b815260040161104f906158cf565b6001600160a01b0383166000908152609a6020526040812080548392906118ce908490615a5d565b9250508190555080609860008282546118e79190615a5d565b909155506118f7905083826142d4565b7fdf20fd1e76bc69d672e4814fafb2c449bba3a5369d8359adf9e05e6fde87b0568382604051611928929190615671565b60405180910390a1505050565b6000336119438582856143f2565b61194e858585614021565b60019150505b9392505050565b60e054339034906000906001600160a01b0316638f6e53b78385886113298942615a5d565b6065546001600160a01b031633146119aa5760405162461bcd60e51b815260040161104f90615951565b6001600160a01b0381166119d35780604051634726455360e11b815260040161104f919061565d565b60cd80546001600160a01b0319166001600160a01b0392909216919091179055565b60df54610100900460ff16611a4c5760405162461bcd60e51b815260206004820152601d60248201527f434f4e544d494e543a206d696e7420636f6e74732064697361626c6564000000604482015260640161104f565b60cc5482511115611a9a5760405162461bcd60e51b8152602060048201526018602482015277434f4e544d494e543a20746f6f206d616e7920636f6e747360401b604482015260640161104f565b60005b8251811015611b53576003838281518110611aba57611aba615b65565b602002602001015151118015611aea57506021838281518110611adf57611adf615b65565b602002602001015151105b611b415760405162461bcd60e51b815260206004820152602260248201527f434f4e544d494e543a20696d70726f7065722063686172616374657220636f756044820152611b9d60f21b606482015260840161104f565b80611b4b81615b34565b915050611a9d565b503380611b9b5760405162461bcd60e51b8152602060048201526016602482015275434f4e544d494e543a207a65726f206164647265737360501b604482015260640161104f565b6001600160a01b038116600090815260dd602052604090205460ff1615611c045760405162461bcd60e51b815260206004820152601d60248201527f434f4e544d494e543a20626c61636b6c69737465642061646472657373000000604482015260640161104f565b60cf546001600160a01b03828116911614801590611c30575060d1546001600160a01b03828116911614155b8015611c4a575060d0546001600160a01b03828116911614155b611ca15760405162461bcd60e51b815260206004820152602260248201527f434f4e544d494e543a20706f6f6c732063616e6e6f742063726561746520636f6044820152611b9d60f21b606482015260840161104f565b60c9546040516344fea1b960e01b81526000916001600160a01b0316906344fea1b990611cd290859060040161565d565b60206040518083038186803b158015611cea57600080fd5b505afa158015611cfe573d6000803e3d6000fd5b505050506040513d601f19601f82011682018060405250810190611d22919061550d565b905060cb54845182611d349190615a5d565b1115611d825760405162461bcd60e51b815260206004820152601c60248201527f434f4e544d494e543a2072656163686564206d696e74206c696d697400000000604482015260640161104f565b835160c954604051630c75361360e31b8152600092916001600160a01b0316906363a9b09890611db69088906004016157b8565b60206040518083038186803b158015611dce57600080fd5b505afa158015611de2573d6000803e3d6000fd5b505050506040513d601f19601f82011682018060405250810190611e06919061550d565b611e109190615a97565b90508060ce6000828254611e249190615a5d565b90915550819050611e3484613522565b1015611e925760405162461bcd60e51b815260206004820152602760248201527f434f4e544d494e543a2042616c616e636520746f6f206c6f7720666f7220637260448201526632b0ba34b7b71760c91b606482015260840161104f565b6000606460d65483611ea49190615a97565b611eae9190615a75565b60d954909150610100900460ff1615611eed5760cf5460d954611ee89186916001600160a01b03918216918991620100009004168561446c565b611f07565b60cf54611f079085906001600160a01b031687308561446c565b6000606460d35484611f199190615a97565b611f239190615a75565b60d154909150611f409086906001600160a01b031688308561446c565b6000606460d45485611f529190615a97565b611f5c9190615a75565b60d95490915060ff1615611f965760d05460d954611f919188916001600160a01b03918216918b91620100009004168561446c565b611fb0565b60d054611fb09087906001600160a01b031689308561446c565b6000606460d55486611fc29190615a97565b611fcc9190615a75565b60d254909150611fe99088906001600160a01b03168a308561446c565b6000818385611ff8888a615ab6565b6120029190615ab6565b61200c9190615ab6565b6120169190615ab6565b9050801561202957612029883083614617565b60c95460405162a6998d60e31b81526001600160a01b0390911690630534cc689061205c908b908e908e906004016156df565b600060405180830381600087803b15801561207657600080fd5b505af115801561208a573d6000803e3d6000fd5b505050507f9972942513a6d471ac125572d271f49ecc9652139451120363f1333713c42c43888a8c516040516120c293929190615759565b60405180910390a150505050505050505050565b3360008181526034602090815260408083206001600160a01b03871684529091528120549091906117869082908690612110908790615a5d565b61416a565b6065546001600160a01b0316331461213f5760405162461bcd60e51b815260040161104f90615951565b6001600160a01b0381166121685780604051634726455360e11b815260040161104f919061565d565b60e180546001600160a01b0319166001600160a01b0392909216919091179055565b6001600160a01b039182166000908152609d6020908152604080832093909416825291909152205490565b6001600160a01b0381166000908152609960205260409020546121ea5760405162461bcd60e51b815260040161104f90615889565b6001600160a01b0382166000908152609c60205260408120546040516370a0823160e01b81526001600160a01b038516906370a082319061222f90309060040161565d565b60206040518083038186803b15801561224757600080fd5b505afa15801561225b573d6000803e3d6000fd5b505050506040513d601f19601f8201168201806040525081019061227f919061550d565b6122899190615a5d565b9050600061229c8383611882878761218a565b9050806122bb5760405162461bcd60e51b815260040161104f906158cf565b6001600160a01b038085166000908152609d60209081526040808320938716835292905290812080548392906122f2908490615a5d565b90915550506001600160a01b0384166000908152609c60205260408120805483929061231f908490615a5d565b9091555061233090508484836147e5565b836001600160a01b03167f3be5b7a71e84ed12875d241991c70855ac5817d847039e17a9d895c1ceb0f18a848360405161236b929190615671565b60405180910390a250505050565b60df54339060ff1615156001146123d25760405162461bcd60e51b815260206004820152601960248201527f43534854414c4c3a20636173686f75742064697361626c656400000000000000604482015260640161104f565b6001600160a01b0381166124205760405162461bcd60e51b815260206004820152601560248201527443534854414c4c3a207a65726f206164647265737360581b604482015260640161104f565b6001600160a01b038116600090815260dd602052604090205460ff16156124895760405162461bcd60e51b815260206004820152601c60248201527f43534854414c4c3a20626c61636b6c6973746564206164647265737300000000604482015260640161104f565b60c9546040516330cd31af60e11b81526000916001600160a01b03169063619a635e906124ba90859060040161565d565b60206040518083038186803b1580156124d257600080fd5b505afa1580156124e6573d6000803e3d6000fd5b505050506040513d601f19601f8201168201806040525081019061250a919061550d565b90506000811161255c5760405162461bcd60e51b815260206004820152601960248201527f43534854414c4c3a20726577617264206e6f7420726561647900000000000000604482015260640161104f565b60c95460405163d094fa8d60e01b8152600091829182916001600160a01b03169063d094fa8d9061259190889060040161565d565b608060405180830381600087803b1580156125ab57600080fd5b505af11580156125bf573d6000803e3d6000fd5b505050506040513d601f19601f820116820180604052508101906125e391906155bd565b60d85493975091955093509150600090156128ec57606460d854866126089190615a97565b6126129190615a75565b60e054909150600160a01b900460ff16156126f55760d15460df5460d95460d854612674936001600160a01b0390811693620100009081900482169360009391900490911690606490612665908b615a97565b61266f9190615a75565b61446c565b60d15460df5460d95460d8546126b2936001600160a01b0390811693620100009081900482169360019391900490911690606490612665908a615a97565b60d15460df5460d95460d8546126f0936001600160a01b03908116936201000090819004821693600293919004909116906064906126659089615a97565b612876565b60d15460df546201000090046001600160a01b039081169116146127ac5760d15460df5460d854612746926001600160a01b039081169262010000900416906000903090606490612665908b615a97565b60d15460df5460d854612779926001600160a01b039081169262010000900416906001903090606490612665908a615a97565b60d15460df5460d8546126f0926001600160a01b0390811692620100009004169060029030906064906126659089615a97565b600080516020615bc2833981519152600030606460d854886127ce9190615a97565b6127d89190615a75565b6040516127e793929190615843565b60405180910390a1600080516020615bc2833981519152600130606460d854876128119190615a97565b61281b9190615a75565b60405161282a93929190615843565b60405180910390a1600080516020615bc2833981519152600230606460d854866128549190615a97565b61285e9190615a75565b60405161286d93929190615843565b60405180910390a15b606460d85460646128879190615ab6565b6128919086615a97565b61289b9190615a75565b9350606460d85460646128ae9190615ab6565b6128b89085615a97565b6128c29190615a75565b9250606460d85460646128d59190615ab6565b6128df9084615a97565b6128e99190615a75565b91505b6128f68186615ab6565b60d154909550612910906001600160a01b03168787614021565b604080516001600160a01b03881681526020810187905290810185905260608101849052608081018390527f6717635faad3367ddfa0564bf3540e74269b0c5dfef7720d5512f309dc1b6c869060a0016111b5565b6065546001600160a01b0316331461298f5760405162461bcd60e51b815260040161104f90615951565b6001600160a01b0381166129b55760405162461bcd60e51b815260040161104f90615816565b60cf80546001600160a01b0319166001600160a01b0392909216919091179055565b600054610100900460ff166129f25760005460ff16156129f6565b303b155b612a595760405162461bcd60e51b815260206004820152602e60248201527f496e697469616c697a61626c653a20636f6e747261637420697320616c72656160448201526d191e481a5b9a5d1a585b1a5e995960921b606482015260840161104f565b600054610100900460ff16158015612a7b576000805461ffff19166101011790555b60008551118015612a8d575060008451115b612ad05760405162461bcd60e51b815260206004820152601460248201527320a222291013102120a620a721a29022a92927a960611b604482015260640161104f565b612ad861483b565b612b1c604051806040016040528060078152602001663078426c6f636b60c81b81525060405180604001604052806003815260200162183c2160e91b81525061486a565b612b26878761489f565b60005b8551811015612b9357612b81868281518110612b4757612b47615b65565b6020026020010151868381518110612b6157612b61615b65565b6020026020010151670de0b6b3a7640000612b7c9190615a97565b6148d0565b80612b8b81615b34565b915050612b29565b5060355469d3c21bcecceda100000014612be75760405162461bcd60e51b81526020600482015260156024820152741515130814d5541413164811125191880c48135253605a1b604482015260640161104f565b60006001600160a01b031685600181518110612c0557612c05615b65565b60200260200101516001600160a01b031614158015612c51575060006001600160a01b031685600281518110612c3d57612c3d615b65565b60200260200101516001600160a01b031614155b8015612c8a575060006001600160a01b031685600381518110612c7657612c76615b65565b60200260200101516001600160a01b031614155b8015612cc3575060006001600160a01b031685600481518110612caf57612caf615b65565b60200260200101516001600160a01b031614155b612d015760405162461bcd60e51b815260206004820152600f60248201526e1413d3d30816915493c81193d55391608a1b604482015260640161104f565b8351855114612d495760405162461bcd60e51b815260206004820152601460248201527320a222291013102120a620a721a29022a92927a960611b604482015260640161104f565b600083600081518110612d5e57612d5e615b65565b6020026020010151118015612d8d5750600083600181518110612d8357612d83615b65565b6020026020010151115b8015612db35750600083600281518110612da957612da9615b65565b6020026020010151115b8015612dd95750600083600381518110612dcf57612dcf615b65565b6020026020010151115b8015612dff5750600083600481518110612df557612df5615b65565b6020026020010151115b612e3b5760405162461bcd60e51b815260206004820152600d60248201526c0c094811915154c81193d55391609a1b604482015260640161104f565b84600181518110612e4e57612e4e615b65565b602002602001015160cf60006101000a8154816001600160a01b0302191690836001600160a01b0316021790555084600281518110612e8f57612e8f615b65565b602002602001015160d260006101000a8154816001600160a01b0302191690836001600160a01b0316021790555084600381518110612ed057612ed0615b65565b602002602001015160d060006101000a8154816001600160a01b0302191690836001600160a01b0316021790555084600481518110612f1157612f11615b65565b602090810291909101015160d180546001600160a01b0319166001600160a01b03909216918217905560df805462010000600160b01b0319166201000090920291909117905582518390600090612f6a57612f6a615b65565b602002602001015160d68190555082600181518110612f8b57612f8b615b65565b602002602001015160d48190555082600281518110612fac57612fac615b65565b602002602001015160d38190555082600381518110612fcd57612fcd615b65565b602002602001015160d58190555082600481518110612fee57612fee615b65565b602002602001015160d88190555060d45460d65460d55460d3546130129190615a5d565b61301c9190615a5d565b6130269190615a5d565b60d75560d98054606460cb55600a60cc5561ffff196001600160a01b038516620100000281166001600160b01b0319909216919091176101001790915560df8054610101921691909117905560e180546001600160a01b031916331790558015613096576000805461ff00191690555b50505050505050565b6065546001600160a01b031633146130c95760405162461bcd60e51b815260040161104f90615951565b6001600160a01b0381166130ef5760405162461bcd60e51b815260040161104f90615816565b60df80546001600160a01b03909216620100000262010000600160b01b0319909216919091179055565b60df54339060ff16151560011461316b5760405162461bcd60e51b815260206004820152601660248201527510d4d2150e8810d85cda1bdd5d08111a5cd8589b195960521b604482015260640161104f565b6001600160a01b0381166131b65760405162461bcd60e51b8152602060048201526012602482015271435348543a207a65726f206164647265737360701b604482015260640161104f565b6001600160a01b038116600090815260dd602052604090205460ff16156132135760405162461bcd60e51b815260206004820152601160248201527010d4d2150e88189b1858dadb1a5cdd1959607a1b604482015260640161104f565b60c9546040516305cfb67f60e11b81526000916001600160a01b031690630b9f6cfe906132469085908790600401615671565b60206040518083038186803b15801561325e57600080fd5b505afa158015613272573d6000803e3d6000fd5b505050506040513d601f19601f82011682018060405250810190613296919061550d565b9050600081116132e15760405162461bcd60e51b8152602060048201526016602482015275435348543a20726577617264206e6f7420726561647960501b604482015260640161104f565b60006132ed8183615ab6565b60d154909250613307906001600160a01b03168484614021565b60c95460405163611015b360e11b815260009182916001600160a01b039091169063c2202b669061333e9088908a90600401615671565b6040805180830381600087803b15801561335757600080fd5b505af115801561336b573d6000803e3d6000fd5b505050506040513d601f19601f8201168201806040525081019061338f9190615526565b60d85491935091501561346d57606460d854856133ac9190615a97565b6133b69190615a75565b60e054909350600160a01b900460ff16156134005760d15460df5460d9546133fb926001600160a01b039081169262010000908190048216928692919004168761446c565b61346d565b60d15460df546201000090046001600160a01b039081169116146134435760d15460df546133fb916001600160a01b03908116916201000090041683308761446c565b600080516020615bc283398151915281308560405161346493929190615843565b60405180910390a15b7f6df62f67bac1b205a7fb106e3dd59043cdec9d6f2825adf0e0670f3cbcf86ac8858786846040516111b59493929190615784565b6065546001600160a01b031633146134cc5760405162461bcd60e51b815260040161104f90615951565b606481111561351d5760405162461bcd60e51b815260206004820152601c60248201527f464545533a20636173686f757420657863656564696e67203130302500000000604482015260640161104f565b60d855565b6001600160a01b031660009081526033602052604090205490565b6065546001600160a01b031633146135675760405162461bcd60e51b815260040161104f90615951565b61357160006149af565b565b6065546001600160a01b0316331461359d5760405162461bcd60e51b815260040161104f90615951565b6001600160a01b0381166135c35760405162461bcd60e51b815260040161104f90615816565b60d080546001600160a01b0319166001600160a01b0392909216919091179055565b6065546001600160a01b0316331461360f5760405162461bcd60e51b815260040161104f90615951565b60d980549115156101000261ff0019909216919091179055565b60d1546060906001600160a01b03838116911614156136655750506040805180820190915260078152667265776172647360c81b602082015290565b60cf546001600160a01b038381169116141561369e57505060408051808201909152600781526619195d999d5b9960ca1b602082015290565b60d0546001600160a01b03838116911614156136d8575050604080518082019091526008815267747265617375727960c01b602082015290565b60d2546001600160a01b03838116911614156137135750506040805180820190915260098152686c697175696469747960b81b602082015290565b50506040805180820190915260018152605f60f81b602082015290565b6000609b828154811061374557613745615b65565b6000918252602090912001546001600160a01b031692915050565b6065546001600160a01b0316331461378a5760405162461bcd60e51b815260040161104f90615951565b6001600160a01b0381166137d55760405162461bcd60e51b81526020600482015260126024820152712722abafa1a9269d103d32b9379030b2323960711b604482015260640161104f565b60c980546001600160a01b0319166001600160a01b0392909216919091179055565b6065546001600160a01b031633146138215760405162461bcd60e51b815260040161104f90615951565b60008160d45460d65460d3546138379190615a5d565b6138419190615a5d565b61384b9190615a5d565b9050606481111561386e5760405162461bcd60e51b815260040161104f90615986565b60d59190915560d755565b6065546001600160a01b031633146138a35760405162461bcd60e51b815260040161104f90615951565b60df80549115156101000261ff0019909216919091179055565b60606037805461122990615af9565b6065546001600160a01b031633146138f65760405162461bcd60e51b815260040161104f90615951565b60008160d65460d55460d35461390c9190615a5d565b6139169190615a5d565b6139209190615a5d565b905060648111156139435760405162461bcd60e51b815260040161104f90615986565b60d49190915560d755565b6040516370a0823160e01b81523390859084906001600160a01b038316906370a082319061398090869060040161565d565b60206040518083038186803b15801561399857600080fd5b505afa1580156139ac573d6000803e3d6000fd5b505050506040513d601f19601f820116820180604052508101906139d0919061550d565b10156139ee5760405162461bcd60e51b815260040161104f9061591a565b60e0546040516323b872dd60e01b81526001600160a01b03808416926323b872dd92613a229287921690899060040161568a565b602060405180830381600087803b158015613a3c57600080fd5b505af1158015613a50573d6000803e3d6000fd5b505050506040513d601f19601f82011682018060405250810190613a7491906154d7565b5060e0546000906001600160a01b03166374cefd8a848989896115fa8a42615a5d565b6065546001600160a01b03163314613ac15760405162461bcd60e51b815260040161104f90615951565b60d9805460ff1916911515919091179055565b3360008181526034602090815260408083206001600160a01b038716845290915281205490919083811015613b595760405162461bcd60e51b815260206004820152602560248201527f45524332303a2064656372656173656420616c6c6f77616e63652062656c6f77604482015264207a65726f60d81b606482015260840161104f565b613b66828686840361416a565b506001949350505050565b600033611786818585614021565b6065546001600160a01b03163314613ba95760405162461bcd60e51b815260040161104f90615951565b6001600160a01b038116613bf55760405162461bcd60e51b81526020600482015260136024820152722722abafaaa9a2219d103d32b9379030b2323960691b604482015260640161104f565b60d980546001600160a01b03909216620100000262010000600160b01b0319909216919091179055565b6065546001600160a01b03163314613c495760405162461bcd60e51b815260040161104f90615951565b60df805460ff1916911515919091179055565b6065546001600160a01b03163314613c865760405162461bcd60e51b815260040161104f90615951565b60e08054911515600160a01b0260ff60a01b19909216919091179055565b6065546001600160a01b03163314613cce5760405162461bcd60e51b815260040161104f90615951565b6001600160a01b038116613d1d5760405162461bcd60e51b81526020600482015260166024820152752722abafa62927aaaa22a91d103d32b9379030b2323960511b604482015260640161104f565b60e080546001600160a01b0319166001600160a01b0392909216919091179055565b6065546001600160a01b03163314613d695760405162461bcd60e51b815260040161104f90615951565b6001600160a01b038116613d8f5760405162461bcd60e51b815260040161104f90615816565b60d180546001600160a01b0319166001600160a01b0392909216919091179055565b6001600160a01b03918216600090815260346020908152604080832093909416825291909152205490565b6065546001600160a01b03163314613e065760405162461bcd60e51b815260040161104f90615951565b6001600160a01b038116613e2c5760405162461bcd60e51b815260040161104f90615816565b60d280546001600160a01b0319166001600160a01b0392909216919091179055565b3383613e5982613522565b1015613e775760405162461bcd60e51b815260040161104f9061591a565b60e054613e8f9082906001600160a01b031686614021565b60e0546000906001600160a01b03166388e5249f838888886110928942615a5d565b6065546001600160a01b03163314613edb5760405162461bcd60e51b815260040161104f90615951565b6001600160a01b038116613f405760405162461bcd60e51b815260206004820152602660248201527f4f776e61626c653a206e6577206f776e657220697320746865207a65726f206160448201526564647265737360d01b606482015260840161104f565b613f49816149af565b50565b6065546001600160a01b03163314613f765760405162461bcd60e51b815260040161104f90615951565b60008160d45460d55460d354613f8c9190615a5d565b613f969190615a5d565b613fa09190615a5d565b90506064811115613fc35760405162461bcd60e51b815260040161104f90615986565b60d69190915560d755565b6065546001600160a01b03163314613ff85760405162461bcd60e51b815260040161104f90615951565b6064811061401c5760405163356008cf60e01b81526004810182905260240161104f565b60e255565b6001600160a01b038316600090815260dd602052604090205460ff1615801561406357506001600160a01b038216600090815260dd602052604090205460ff16155b6140af5760405162461bcd60e51b815260206004820152601a60248201527f45524332303a20426c61636b6c69737465642061646472657373000000000000604482015260640161104f565b6000606460e254836140c19190615a97565b6140cb9190615a75565b90506000811180156140f657506001600160a01b038416600090815260e3602052604090205460ff16155b801561410f575060cd546001600160a01b038481169116145b1561412c5760e15461412c9085906001600160a01b031683614617565b60cd546000906001600160a01b03858116911614156141545761414f8284615ab6565b614156565b825b9050614163858583614617565b5050505050565b6001600160a01b0383166141cc5760405162461bcd60e51b8152602060048201526024808201527f45524332303a20617070726f76652066726f6d20746865207a65726f206164646044820152637265737360e01b606482015260840161104f565b6001600160a01b03821661422d5760405162461bcd60e51b815260206004820152602260248201527f45524332303a20617070726f766520746f20746865207a65726f206164647265604482015261737360f01b606482015260840161104f565b6001600160a01b0383811660008181526034602090815260408083209487168084529482529182902085905590518481527f8c5be1e5ebec7d5bd14f71427d1e84f3dd0314c0f7b2291e5b200ac8c7c3b925910160405180910390a3505050565b6097546001600160a01b038416600090815260996020526040812054909183916142b89086615a97565b6142c29190615a75565b6142cc9190615ab6565b949350505050565b804710156143245760405162461bcd60e51b815260206004820152601d60248201527f416464726573733a20696e73756666696369656e742062616c616e6365000000604482015260640161104f565b6000826001600160a01b03168260405160006040518083038185875af1925050503d8060008114614371576040519150601f19603f3d011682016040523d82523d6000602084013e614376565b606091505b50509050806143ed5760405162461bcd60e51b815260206004820152603a60248201527f416464726573733a20756e61626c6520746f2073656e642076616c75652c207260448201527f6563697069656e74206d61792068617665207265766572746564000000000000606482015260840161104f565b505050565b60006143fe8484613db1565b9050600019811461446657818110156144595760405162461bcd60e51b815260206004820152601d60248201527f45524332303a20696e73756666696369656e7420616c6c6f77616e6365000000604482015260640161104f565b614466848484840361416a565b50505050565b600061447785613629565b90506001600160a01b0383163014156144c557614495868684614021565b600080516020615bc2833981519152818585856040516144b894939291906157d9565b60405180910390a161460f565b60e0546144dd9087906001600160a01b031684614021565b60e054604051632da63c1160e21b81526001600160a01b039091169063b698f044906145119088908790879060040161568a565b600060405180830381600087803b15801561452b57600080fd5b505af115801561453f573d6000803e3d6000fd5b505060e25460e05460405163f5c1365360e01b8152600160048201526001600160a01b0388811660248301526044820188905260009550606494509091169063f5c1365390840160206040518083038186803b15801561459e57600080fd5b505afa1580156145b2573d6000803e3d6000fd5b505050506040513d601f19601f820116820180604052508101906145d6919061550d565b6145e09190615a97565b6145ea9190615a75565b9050600080516020615bc2833981519152828686846040516116e594939291906157d9565b505050505050565b6001600160a01b03831661467b5760405162461bcd60e51b815260206004820152602560248201527f45524332303a207472616e736665722066726f6d20746865207a65726f206164604482015264647265737360d81b606482015260840161104f565b6001600160a01b0382166146dd5760405162461bcd60e51b815260206004820152602360248201527f45524332303a207472616e7366657220746f20746865207a65726f206164647260448201526265737360e81b606482015260840161104f565b6001600160a01b038316600090815260336020526040902054818110156147555760405162461bcd60e51b815260206004820152602660248201527f45524332303a207472616e7366657220616d6f756e7420657863656564732062604482015265616c616e636560d01b606482015260840161104f565b6001600160a01b0380851660009081526033602052604080822085850390559185168152908120805484929061478c908490615a5d565b92505081905550826001600160a01b0316846001600160a01b03167fddf252ad1be2c89b69c2b068fc378daa952ba7f163c4a11628f55a4df523b3ef846040516147d891815260200190565b60405180910390a3614466565b6143ed8363a9059cbb60e01b8484604051602401614804929190615671565b60408051601f198184030181529190526020810180516001600160e01b03166001600160e01b031990931692909217909152614a01565b600054610100900460ff166148625760405162461bcd60e51b815260040161104f906159bd565b613571614ad3565b600054610100900460ff166148915760405162461bcd60e51b815260040161104f906159bd565b61489b8282614b03565b5050565b600054610100900460ff166148c65760405162461bcd60e51b815260040161104f906159bd565b61489b8282614b51565b6001600160a01b0382166149265760405162461bcd60e51b815260206004820152601f60248201527f45524332303a206d696e7420746f20746865207a65726f206164647265737300604482015260640161104f565b80603560008282546149389190615a5d565b90915550506001600160a01b03821660009081526033602052604081208054839290614965908490615a5d565b90915550506040518181526001600160a01b038316906000907fddf252ad1be2c89b69c2b068fc378daa952ba7f163c4a11628f55a4df523b3ef9060200160405180910390a35050565b606580546001600160a01b038381166001600160a01b0319831681179093556040519116919082907f8be0079c531659141344cd1fd0a4f28419497f9722a3daafe3b4186f6b6457e090600090a35050565b6000614a56826040518060400160405280602081526020017f5361666545524332303a206c6f772d6c6576656c2063616c6c206661696c6564815250856001600160a01b0316614c8f9092919063ffffffff16565b8051909150156143ed5780806020019051810190614a7491906154d7565b6143ed5760405162461bcd60e51b815260206004820152602a60248201527f5361666545524332303a204552433230206f7065726174696f6e20646964206e6044820152691bdd081cdd58d8d9595960b21b606482015260840161104f565b600054610100900460ff16614afa5760405162461bcd60e51b815260040161104f906159bd565b613571336149af565b600054610100900460ff16614b2a5760405162461bcd60e51b815260040161104f906159bd565b8151614b3d906036906020850190614fe6565b5080516143ed906037906020840190614fe6565b600054610100900460ff16614b785760405162461bcd60e51b815260040161104f906159bd565b8051825114614be45760405162461bcd60e51b815260206004820152603260248201527f5061796d656e7453706c69747465723a2070617965657320616e6420736861726044820152710cae640d8cadccee8d040dad2e6dac2e8c6d60731b606482015260840161104f565b6000825111614c355760405162461bcd60e51b815260206004820152601a60248201527f5061796d656e7453706c69747465723a206e6f20706179656573000000000000604482015260640161104f565b60005b82518110156143ed57614c7d838281518110614c5657614c56615b65565b6020026020010151838381518110614c7057614c70615b65565b6020026020010151614c9e565b80614c8781615b34565b915050614c38565b60606142cc8484600085614e7c565b6001600160a01b038216614d095760405162461bcd60e51b815260206004820152602c60248201527f5061796d656e7453706c69747465723a206163636f756e74206973207468652060448201526b7a65726f206164647265737360a01b606482015260840161104f565b60008111614d595760405162461bcd60e51b815260206004820152601d60248201527f5061796d656e7453706c69747465723a20736861726573206172652030000000604482015260640161104f565b6001600160a01b03821660009081526099602052604090205415614dd35760405162461bcd60e51b815260206004820152602b60248201527f5061796d656e7453706c69747465723a206163636f756e7420616c726561647960448201526a206861732073686172657360a81b606482015260840161104f565b609b8054600181019091557fbba9db4cdbea0a37c207bbb83e20f828cd4441c49891101dc94fd20dc8efc3490180546001600160a01b0319166001600160a01b0384169081179091556000908152609960205260409020819055609754614e3b908290615a5d565b6097556040517f40c340f65e17194d14ddddb073d3c9f888e3cb52b5aae0c6c7706b4fbc905fac90614e709084908490615671565b60405180910390a15050565b606082471015614edd5760405162461bcd60e51b815260206004820152602660248201527f416464726573733a20696e73756666696369656e742062616c616e636520666f6044820152651c8818d85b1b60d21b606482015260840161104f565b6001600160a01b0385163b614f345760405162461bcd60e51b815260206004820152601d60248201527f416464726573733a2063616c6c20746f206e6f6e2d636f6e7472616374000000604482015260640161104f565b600080866001600160a01b03168587604051614f509190615641565b60006040518083038185875af1925050503d8060008114614f8d576040519150601f19603f3d011682016040523d82523d6000602084013e614f92565b606091505b5091509150614fa2828286614fad565b979650505050505050565b60608315614fbc575081611954565b825115614fcc5782518084602001fd5b8160405162461bcd60e51b815260040161104f91906157c6565b828054614ff290615af9565b90600052602060002090601f016020900481019282615014576000855561505a565b82601f1061502d57805160ff191683800117855561505a565b8280016001018555821561505a579182015b8281111561505a57825182559160200191906001019061503f565b5061506692915061506a565b5090565b5b80821115615066576000815560010161506b565b803561508a81615b91565b919050565b600082601f8301126150a057600080fd5b813560206150b56150b083615a39565b615a08565b80838252828201915082860187848660051b89010111156150d557600080fd5b60005b858110156150fd5781356150eb81615b91565b845292840192908401906001016150d8565b5090979650505050505050565b600082601f83011261511b57600080fd5b8135602061512b6150b083615a39565b80838252828201915082860187848660051b890101111561514b57600080fd5b60005b858110156150fd5781358452928401929084019060010161514e565b803561508a81615bb4565b60006020828403121561518757600080fd5b813561195481615b91565b6000602082840312156151a457600080fd5b815161195481615b91565b600080604083850312156151c257600080fd5b82356151cd81615b91565b915060208301356151dd81615b91565b809150509250929050565b6000806000606084860312156151fd57600080fd5b833561520881615b91565b9250602084013561521881615b91565b929592945050506040919091013590565b6000806040838503121561523c57600080fd5b823561524781615b91565b915060208301356151dd81615ba6565b6000806040838503121561526a57600080fd5b823561527581615b91565b946020939093013593505050565b6000806000806080858703121561529957600080fd5b84356152a481615b91565b966020860135965060408601359560600135945092505050565b60008060008060008060c087890312156152d757600080fd5b863567ffffffffffffffff808211156152ef57600080fd5b6152fb8a838b0161508f565b9750602089013591508082111561531157600080fd5b61531d8a838b0161510a565b9650604089013591508082111561533357600080fd5b61533f8a838b0161508f565b9550606089013591508082111561535557600080fd5b6153618a838b0161510a565b9450608089013591508082111561537757600080fd5b5061538489828a0161510a565b92505061539360a0880161507f565b90509295509295509295565b60008060408084860312156153b357600080fd5b833567ffffffffffffffff808211156153cb57600080fd5b818601915086601f8301126153df57600080fd5b813560206153ef6150b083615a39565b8083825282820191508286018b848660051b890101111561540f57600080fd5b60005b8581101561549a5781358781111561542957600080fd5b8801603f81018e1361543a57600080fd5b858101358881111561544e5761544e615b7b565b615460601f8201601f19168801615a08565b8181528f8c83850101111561547457600080fd5b818c84018983013760009181018801919091528552509284019290840190600101615412565b505080985050506154ac81890161516a565b955050505050509250929050565b6000602082840312156154cc57600080fd5b813561195481615ba6565b6000602082840312156154e957600080fd5b815161195481615ba6565b60006020828403121561550657600080fd5b5035919050565b60006020828403121561551f57600080fd5b5051919050565b6000806040838503121561553957600080fd5b8251915060208301516151dd81615bb4565b6000806040838503121561555e57600080fd5b50508035926020909101359150565b6000806040838503121561558057600080fd5b505080516020909101519092909150565b6000806000606084860312156155a657600080fd5b505081359360208301359350604090920135919050565b600080600080608085870312156155d357600080fd5b505082516020840151604085015160609095015191969095509092509050565b6004811061561157634e487b7160e01b600052602160045260246000fd5b9052565b6000815180845261562d816020860160208601615acd565b601f01601f19169290920160200192915050565b60008251615653818460208701615acd565b9190910192915050565b6001600160a01b0391909116815260200190565b6001600160a01b03929092168252602082015260400190565b6001600160a01b039384168152919092166020820152604081019190915260600190565b6001600160a01b03958616815293909416602084015260408301919091526060820152608081019190915260a00190565b60006060820160018060a01b0386168352602060608185015281865180845260808601915060808160051b870101935082880160005b8281101561574357607f19888703018452615731868351615615565b95509284019290840190600101615715565b5050505050809150506142cc60408301846155f3565b6001600160a01b03841681526060810161577660208301856155f3565b826040830152949350505050565b6001600160a01b03851681526020810184905260408101839052608081016157af60608301846155f3565b95945050505050565b6020810161178c82846155f3565b6020815260006119546020830184615615565b6080815260006157ec6080830187615615565b90506157fb60208301866155f3565b6001600160a01b039390931660408201526060015292915050565b6020808252601390820152722aa8222faba0a6261d103d32b9379030b2323960691b604082015260600190565b6080808252600790820152667265776172647360c81b60a082015260c0810161586f60208301866155f3565b6001600160a01b0393909316604082015260600152919050565b60208082526026908201527f5061796d656e7453706c69747465723a206163636f756e7420686173206e6f2060408201526573686172657360d01b606082015260800190565b6020808252602b908201527f5061796d656e7453706c69747465723a206163636f756e74206973206e6f742060408201526a191d59481c185e5b595b9d60aa1b606082015260800190565b6020808252601a908201527f535741503a20696e73756666696369656e742062616c616e6365000000000000604082015260600190565b6020808252818101527f4f776e61626c653a2063616c6c6572206973206e6f7420746865206f776e6572604082015260600190565b6020808252601a908201527f464545533a20746f74616c20657863656564696e672031303025000000000000604082015260600190565b6020808252602b908201527f496e697469616c697a61626c653a20636f6e7472616374206973206e6f74206960408201526a6e697469616c697a696e6760a81b606082015260800190565b604051601f8201601f1916810167ffffffffffffffff81118282101715615a3157615a31615b7b565b604052919050565b600067ffffffffffffffff821115615a5357615a53615b7b565b5060051b60200190565b60008219821115615a7057615a70615b4f565b500190565b600082615a9257634e487b7160e01b600052601260045260246000fd5b500490565b6000816000190483118215151615615ab157615ab1615b4f565b500290565b600082821015615ac857615ac8615b4f565b500390565b60005b83811015615ae8578181015183820152602001615ad0565b838111156144665750506000910152565b600181811c90821680615b0d57607f821691505b60208210811415615b2e57634e487b7160e01b600052602260045260246000fd5b50919050565b6000600019821415615b4857615b48615b4f565b5060010190565b634e487b7160e01b600052601160045260246000fd5b634e487b7160e01b600052603260045260246000fd5b634e487b7160e01b600052604160045260246000fd5b6001600160a01b0381168114613f4957600080fd5b8015158114613f4957600080fd5b60048110613f4957600080fdfeae65b8cdcf70197aae9eec6cad9075662a0b1f140940b20a5d60413e1d05e8b8a164736f6c6343000807000a",
  "devdoc": {
    "kind": "dev",
    "methods": {
      "allowance(address,address)": {
        "details": "See {IERC20-allowance}."
      },
      "approve(address,uint256)": {
        "details": "See {IERC20-approve}. NOTE: If `amount` is the maximum `uint256`, the allowance is not updated on `transferFrom`. This is semantically equivalent to an infinite approval. Requirements: - `spender` cannot be the zero address."
      },
      "balanceOf(address)": {
        "details": "See {IERC20-balanceOf}."
      },
      "cashoutAll()": {
        "details": "send rewards from reward wallet to user and the tax portion to the configured cashoutTax wallet."
      },
      "cashoutReward(uint256)": {
        "details": "send rewards from reward wallet to user and the tax portion to the configured cashoutTax wallet.",
        "params": {
          "_contIndex": "index of contract in list of contract of user"
        }
      },
      "changeEnableAutoSwapCashout(bool)": {
        "params": {
          "newVal": "set to true if enable cashout autoswap"
        }
      },
      "changeEnableAutoSwapDevFund(bool)": {
        "params": {
          "newVal": "set to true if enable dev/fund autoswap"
        }
      },
      "changeEnableAutoSwapTreasury(bool)": {
        "params": {
          "newVal": "set to true if enable treasury autoswap"
        }
      },
      "changeSellTaxRate(uint256)": {
        "params": {
          "newVal": "new tax rate"
        }
      },
      "changeSellTaxTargetAddress(address)": {
        "params": {
          "newVal": "new admin address"
        }
      },
      "changeUniswapV2PairAddress(address)": {
        "params": {
          "newVal": "new uniswapV2Pair address"
        }
      },
      "decimals()": {
        "details": "Returns the number of decimals used to get its user representation. For example, if `decimals` equals `2`, a balance of `505` tokens should be displayed to a user as `5.05` (`505 / 10 ** 2`). Tokens usually opt for a value of 18, imitating the relationship between Ether and Wei. This is the value {ERC20} uses, unless this function is overridden; NOTE: This information is only used for _display_ purposes: it in no way affects any of the arithmetic of the contract, including {IERC20-balanceOf} and {IERC20-transfer}."
      },
      "decreaseAllowance(address,uint256)": {
        "details": "Atomically decreases the allowance granted to `spender` by the caller. This is an alternative to {approve} that can be used as a mitigation for problems described in {IERC20-approve}. Emits an {Approval} event indicating the updated allowance. Requirements: - `spender` cannot be the zero address. - `spender` must have allowance for the caller of at least `subtractedValue`."
      },
      "increaseAllowance(address,uint256)": {
        "details": "Atomically increases the allowance granted to `spender` by the caller. This is an alternative to {approve} that can be used as a mitigation for problems described in {IERC20-approve}. Emits an {Approval} event indicating the updated allowance. Requirements: - `spender` cannot be the zero address."
      },
      "mintConts(string[],uint8)": {
        "details": "create new contract instances, take funds from user and distribute to admin wallets according to SC configs.",
        "params": {
          "_cType": "type of new contracts.",
          "names": "list of names. The number of string in this list will be the count of new contracts."
        }
      },
      "name()": {
        "details": "Returns the name of the token."
      },
      "owner()": {
        "details": "Returns the address of the current owner."
      },
      "payee(uint256)": {
        "details": "Getter for the address of the payee number `index`."
      },
      "release(address)": {
        "details": "Triggers a transfer to `account` of the amount of Ether they are owed, according to their percentage of the total shares and their previous withdrawals."
      },
      "release(address,address)": {
        "details": "Triggers a transfer to `account` of the amount of `token` tokens they are owed, according to their percentage of the total shares and their previous withdrawals. `token` must be the address of an IERC20 contract."
      },
      "released(address)": {
        "details": "Getter for the amount of Ether already released to a payee."
      },
      "released(address,address)": {
        "details": "Getter for the amount of `token` tokens already released to a payee. `token` should be the address of an IERC20 contract."
      },
      "renounceOwnership()": {
        "details": "Leaves the contract without owner. It will not be possible to call `onlyOwner` functions anymore. Can only be called by the current owner. NOTE: Renouncing ownership will leave the contract without an owner, thereby removing any functionality that is only available to the owner."
      },
      "setBlacklistStatus(address,bool)": {
        "params": {
          "account": "account to change status",
          "value": "set to true if blacklisting"
        }
      },
      "setContManagement(address)": {
        "params": {
          "crm": "address of the new CRM"
        }
      },
      "setEnableCashout(bool)": {
        "params": {
          "_enableCashout": "true if user can cashout after this tx. false if otherwise"
        }
      },
      "setEnableMintConts(bool)": {
        "params": {
          "value": "true if user can mint new contracts"
        }
      },
      "setLiquidityRouter(address)": {
        "params": {
          "liqRouter": "new address of LiquidityRouter"
        }
      },
      "setUSDCAddress(address)": {
        "params": {
          "newAddress": "new usdc address"
        }
      },
      "setWhitelistStatus(address,bool)": {
        "params": {
          "account": "account to change status",
          "value": "set to true if whitelisting"
        }
      },
      "shares(address)": {
        "details": "Getter for the amount of shares held by an account."
      },
      "swap0xBForExactToken(address,uint256,uint256,uint256)": {
        "params": {
          "amountInMax": "a maximum expected input. Will raise error if can't satisfy.",
          "amountOut": "an exact amount of output token",
          "tokenAddr": "output token",
          "wait": "maximum wait time"
        }
      },
      "swapAVAXForExact0xB(uint256,uint256,uint256)": {
        "details": "set msg.value as the maximum expected input amount of AVAX",
        "params": {
          "amountInMax": "set same as msg.value",
          "amountOut": "an exact amount of output 0xB.",
          "wait": "maximum wait time"
        }
      },
      "swapExact0xBForToken(address,uint256,uint256,uint256)": {
        "params": {
          "amountIn": "an exact amount of input 0xB",
          "amountOutMin": "a minimum expected output. Will raise error if can't satisfy.",
          "tokenAddr": "output token",
          "wait": "maximum wait time"
        }
      },
      "swapExactAVAXFor0xB(uint256,uint256)": {
        "details": "set msg.value as the exact input amount of AVAX",
        "params": {
          "amountOutMin": "a minimum expected output. Will raise error if can't satisfy.",
          "wait": "maximum wait time"
        }
      },
      "swapExactTokenFor0xB(address,uint256,uint256,uint256)": {
        "params": {
          "amountIn": "an exact amount of input token",
          "amountOutMin": "a minimum expected output 0xB. Will raise error if can't satisfy.",
          "tokenAddr": "input token",
          "wait": "maximum wait time"
        }
      },
      "swapTokenForExact0xB(address,uint256,uint256,uint256)": {
        "params": {
          "amountInMax": "a maximum expected amount of input token. Will raise error if can't satisfy.",
          "amountOut": "an exact amount of output 0xB",
          "tokenAddr": "input token",
          "wait": "maximum wait time"
        }
      },
      "symbol()": {
        "details": "Returns the symbol of the token, usually a shorter version of the name."
      },
      "totalReleased()": {
        "details": "Getter for the total amount of Ether already released."
      },
      "totalReleased(address)": {
        "details": "Getter for the total amount of `token` already released. `token` should be the address of an IERC20 contract."
      },
      "totalShares()": {
        "details": "Getter for the total shares held by payees."
      },
      "totalSupply()": {
        "details": "See {IERC20-totalSupply}."
      },
      "transfer(address,uint256)": {
        "details": "See {IERC20-transfer}. Requirements: - `to` cannot be the zero address. - the caller must have a balance of at least `amount`."
      },
      "transferFrom(address,address,uint256)": {
        "details": "See {IERC20-transferFrom}. Emits an {Approval} event indicating the updated allowance. This is not required by the EIP. See the note at the beginning of {ERC20}. NOTE: Does not update the allowance if the current allowance is the maximum `uint256`. Requirements: - `from` and `to` cannot be the zero address. - `from` must have a balance of at least `amount`. - the caller must have allowance for ``from``'s tokens of at least `amount`."
      },
      "transferOwnership(address)": {
        "details": "Transfers ownership of the contract to a new account (`newOwner`). Can only be called by the current owner."
      },
      "updateCashoutFee(uint256)": {
        "params": {
          "value": "new percentage (100 = 100%)"
        }
      },
      "updateCashoutTaxPool(address)": {
        "params": {
          "wall": "new target address for cashout tax"
        }
      },
      "updateDevelopmentFee(uint256)": {
        "params": {
          "value": "new percentage (100 = 100%)"
        }
      },
      "updateDevelopmentFundWallet(address)": {
        "params": {
          "wall": "new wallet address"
        }
      },
      "updateLiquidityFee(uint256)": {
        "params": {
          "value": "new percentage (100 = 100%)"
        }
      },
      "updateLiquidityWallet(address)": {
        "params": {
          "wall": "new wallet address"
        }
      },
      "updateRewardsFee(uint256)": {
        "params": {
          "value": "new percentage (100 = 100%)"
        }
      },
      "updateRewardsWallet(address)": {
        "params": {
          "wall": "new wallet address"
        }
      },
      "updateTreasuryFee(uint256)": {
        "params": {
          "value": "new percentage (100 = 100%)"
        }
      },
      "updateTreasuryWallet(address)": {
        "params": {
          "wall": "new wallet address"
        }
      }
    },
    "version": 1
  },
  "userdoc": {
    "kind": "user",
    "methods": {
      "_walletName(address)": {
        "notice": "return a string according to wallet name"
      },
      "cashoutAll()": {
        "notice": "cashout reward from all contracts"
      },
      "cashoutReward(uint256)": {
        "notice": "cashout reward from a single contract"
      },
      "changeEnableAutoSwapCashout(bool)": {
        "notice": "change autoswap mode for cashout"
      },
      "changeEnableAutoSwapDevFund(bool)": {
        "notice": "change autoswap mode for dev/fund wallet"
      },
      "changeEnableAutoSwapTreasury(bool)": {
        "notice": "change autoswap mode for treasury"
      },
      "changeSellTaxRate(uint256)": {
        "notice": "change sell tax rate"
      },
      "changeSellTaxTargetAddress(address)": {
        "notice": "change admin address"
      },
      "changeUniswapV2PairAddress(address)": {
        "notice": "change uniswapV2Pair"
      },
      "mintConts(string[],uint8)": {
        "notice": "mint new contracts"
      },
      "setBlacklistStatus(address,bool)": {
        "notice": "blacklist/un-blacklist an account"
      },
      "setContManagement(address)": {
        "notice": "set new address of ContRewardManager"
      },
      "setEnableCashout(bool)": {
        "notice": "set if user can cashout"
      },
      "setEnableMintConts(bool)": {
        "notice": "set if user can mint new contract"
      },
      "setLiquidityRouter(address)": {
        "notice": "set new address of LiquidityRouter"
      },
      "setUSDCAddress(address)": {
        "notice": "set address of usdc"
      },
      "setWhitelistStatus(address,bool)": {
        "notice": "whitelist/un-whitelist an account"
      },
      "swap0xBForExactToken(address,uint256,uint256,uint256)": {
        "notice": "swap from an exact 0xB amount to an ERC20 tokens"
      },
      "swapAVAXForExact0xB(uint256,uint256,uint256)": {
        "notice": "swap from an exact 0xB amount to an ERC20 tokens"
      },
      "swapExact0xBForToken(address,uint256,uint256,uint256)": {
        "notice": "swap from an exact 0xB amount to an ERC20 tokens"
      },
      "swapExactAVAXFor0xB(uint256,uint256)": {
        "notice": "swap from an exact 0xB amount to an ERC20 tokens"
      },
      "swapExactTokenFor0xB(address,uint256,uint256,uint256)": {
        "notice": "swap from an exact amount of erc20 token to 0xB"
      },
      "swapTokenForExact0xB(address,uint256,uint256,uint256)": {
        "notice": "swap from an erc20 token to exact amount of 0xB"
      },
      "updateCashoutFee(uint256)": {
        "notice": "set percentage of contract mint to be sent to cashout wallet"
      },
      "updateCashoutTaxPool(address)": {
        "notice": "set new pool to send cashout tax to"
      },
      "updateDevelopmentFee(uint256)": {
        "notice": "set percentage of contract mint to be sent to dev/marketing pool"
      },
      "updateDevelopmentFundWallet(address)": {
        "notice": "set new wallet for development/marketing team"
      },
      "updateLiquidityFee(uint256)": {
        "notice": "set percentage of contract mint to be sent to liquidity"
      },
      "updateLiquidityWallet(address)": {
        "notice": "set new wallet for liquidity temporary pool"
      },
      "updateRewardsFee(uint256)": {
        "notice": "set percentage of contract mint to be sent to rewards pool"
      },
      "updateRewardsWallet(address)": {
        "notice": "set new wallet for rewards"
      },
      "updateTreasuryFee(uint256)": {
        "notice": "set percentage of contract mint to be sent to treasury pool"
      },
      "updateTreasuryWallet(address)": {
        "notice": "set new wallet for treasury"
      }
    },
    "version": 1
  },
  "storageLayout": {
    "storage": [
      {
        "astId": 598,
        "contract": "contracts/ZeroXBlock.sol:ZeroXBlock",
        "label": "_initialized",
        "offset": 0,
        "slot": "0",
        "type": "t_bool"
      },
      {
        "astId": 601,
        "contract": "contracts/ZeroXBlock.sol:ZeroXBlock",
        "label": "_initializing",
        "offset": 1,
        "slot": "0",
        "type": "t_bool"
      },
      {
        "astId": 1889,
        "contract": "contracts/ZeroXBlock.sol:ZeroXBlock",
        "label": "__gap",
        "offset": 0,
        "slot": "1",
        "type": "t_array(t_uint256)50_storage"
      },
      {
        "astId": 684,
        "contract": "contracts/ZeroXBlock.sol:ZeroXBlock",
        "label": "_balances",
        "offset": 0,
        "slot": "51",
        "type": "t_mapping(t_address,t_uint256)"
      },
      {
        "astId": 690,
        "contract": "contracts/ZeroXBlock.sol:ZeroXBlock",
        "label": "_allowances",
        "offset": 0,
        "slot": "52",
        "type": "t_mapping(t_address,t_mapping(t_address,t_uint256))"
      },
      {
        "astId": 692,
        "contract": "contracts/ZeroXBlock.sol:ZeroXBlock",
        "label": "_totalSupply",
        "offset": 0,
        "slot": "53",
        "type": "t_uint256"
      },
      {
        "astId": 694,
        "contract": "contracts/ZeroXBlock.sol:ZeroXBlock",
        "label": "_name",
        "offset": 0,
        "slot": "54",
        "type": "t_string_storage"
      },
      {
        "astId": 696,
        "contract": "contracts/ZeroXBlock.sol:ZeroXBlock",
        "label": "_symbol",
        "offset": 0,
        "slot": "55",
        "type": "t_string_storage"
      },
      {
        "astId": 1277,
        "contract": "contracts/ZeroXBlock.sol:ZeroXBlock",
        "label": "__gap",
        "offset": 0,
        "slot": "56",
        "type": "t_array(t_uint256)45_storage"
      },
      {
        "astId": 10,
        "contract": "contracts/ZeroXBlock.sol:ZeroXBlock",
        "label": "_owner",
        "offset": 0,
        "slot": "101",
        "type": "t_address"
      },
      {
        "astId": 122,
        "contract": "contracts/ZeroXBlock.sol:ZeroXBlock",
        "label": "__gap",
        "offset": 0,
        "slot": "102",
        "type": "t_array(t_uint256)49_storage"
      },
      {
        "astId": 163,
        "contract": "contracts/ZeroXBlock.sol:ZeroXBlock",
        "label": "_totalShares",
        "offset": 0,
        "slot": "151",
        "type": "t_uint256"
      },
      {
        "astId": 165,
        "contract": "contracts/ZeroXBlock.sol:ZeroXBlock",
        "label": "_totalReleased",
        "offset": 0,
        "slot": "152",
        "type": "t_uint256"
      },
      {
        "astId": 169,
        "contract": "contracts/ZeroXBlock.sol:ZeroXBlock",
        "label": "_shares",
        "offset": 0,
        "slot": "153",
        "type": "t_mapping(t_address,t_uint256)"
      },
      {
        "astId": 173,
        "contract": "contracts/ZeroXBlock.sol:ZeroXBlock",
        "label": "_released",
        "offset": 0,
        "slot": "154",
        "type": "t_mapping(t_address,t_uint256)"
      },
      {
        "astId": 176,
        "contract": "contracts/ZeroXBlock.sol:ZeroXBlock",
        "label": "_payees",
        "offset": 0,
        "slot": "155",
        "type": "t_array(t_address)dyn_storage"
      },
      {
        "astId": 181,
        "contract": "contracts/ZeroXBlock.sol:ZeroXBlock",
        "label": "_erc20TotalReleased",
        "offset": 0,
        "slot": "156",
        "type": "t_mapping(t_contract(IERC20Upgradeable)1356,t_uint256)"
      },
      {
        "astId": 188,
        "contract": "contracts/ZeroXBlock.sol:ZeroXBlock",
        "label": "_erc20Released",
        "offset": 0,
        "slot": "157",
        "type": "t_mapping(t_contract(IERC20Upgradeable)1356,t_mapping(t_address,t_uint256))"
      },
      {
        "astId": 590,
        "contract": "contracts/ZeroXBlock.sol:ZeroXBlock",
        "label": "__gap",
        "offset": 0,
        "slot": "158",
        "type": "t_array(t_uint256)43_storage"
      },
      {
        "astId": 3107,
        "contract": "contracts/ZeroXBlock.sol:ZeroXBlock",
        "label": "_crm",
        "offset": 0,
        "slot": "201",
        "type": "t_contract(CONTRewardManagement)8762"
      },
      {
        "astId": 3110,
        "contract": "contracts/ZeroXBlock.sol:ZeroXBlock",
        "label": "uniswapV2Router",
        "offset": 0,
        "slot": "202",
        "type": "t_contract(IJoeRouter02)14610"
      },
      {
        "astId": 3115,
        "contract": "contracts/ZeroXBlock.sol:ZeroXBlock",
        "label": "ownedContsLimit",
        "offset": 0,
        "slot": "203",
        "type": "t_uint256"
      },
      {
        "astId": 3117,
        "contract": "contracts/ZeroXBlock.sol:ZeroXBlock",
        "label": "mintContLimit",
        "offset": 0,
        "slot": "204",
        "type": "t_uint256"
      },
      {
        "astId": 3119,
        "contract": "contracts/ZeroXBlock.sol:ZeroXBlock",
        "label": "uniswapV2Pair",
        "offset": 0,
        "slot": "205",
        "type": "t_address"
      },
      {
        "astId": 3121,
        "contract": "contracts/ZeroXBlock.sol:ZeroXBlock",
        "label": "totalTokensPaidForMinting",
        "offset": 0,
        "slot": "206",
        "type": "t_uint256"
      },
      {
        "astId": 3123,
        "contract": "contracts/ZeroXBlock.sol:ZeroXBlock",
        "label": "developmentFundPool",
        "offset": 0,
        "slot": "207",
        "type": "t_address"
      },
      {
        "astId": 3125,
        "contract": "contracts/ZeroXBlock.sol:ZeroXBlock",
        "label": "treasuryPool",
        "offset": 0,
        "slot": "208",
        "type": "t_address"
      },
      {
        "astId": 3127,
        "contract": "contracts/ZeroXBlock.sol:ZeroXBlock",
        "label": "rewardsPool",
        "offset": 0,
        "slot": "209",
        "type": "t_address"
      },
      {
        "astId": 3129,
        "contract": "contracts/ZeroXBlock.sol:ZeroXBlock",
        "label": "liquidityPool",
        "offset": 0,
        "slot": "210",
        "type": "t_address"
      },
      {
        "astId": 3131,
        "contract": "contracts/ZeroXBlock.sol:ZeroXBlock",
        "label": "rewardsFee",
        "offset": 0,
        "slot": "211",
        "type": "t_uint256"
      },
      {
        "astId": 3133,
        "contract": "contracts/ZeroXBlock.sol:ZeroXBlock",
        "label": "treasuryFee",
        "offset": 0,
        "slot": "212",
        "type": "t_uint256"
      },
      {
        "astId": 3135,
        "contract": "contracts/ZeroXBlock.sol:ZeroXBlock",
        "label": "liquidityPoolFee",
        "offset": 0,
        "slot": "213",
        "type": "t_uint256"
      },
      {
        "astId": 3137,
        "contract": "contracts/ZeroXBlock.sol:ZeroXBlock",
        "label": "developmentFee",
        "offset": 0,
        "slot": "214",
        "type": "t_uint256"
      },
      {
        "astId": 3139,
        "contract": "contracts/ZeroXBlock.sol:ZeroXBlock",
        "label": "totalFees",
        "offset": 0,
        "slot": "215",
        "type": "t_uint256"
      },
      {
        "astId": 3141,
        "contract": "contracts/ZeroXBlock.sol:ZeroXBlock",
        "label": "cashoutFee",
        "offset": 0,
        "slot": "216",
        "type": "t_uint256"
      },
      {
        "astId": 3143,
        "contract": "contracts/ZeroXBlock.sol:ZeroXBlock",
        "label": "enableAutoSwapTreasury",
        "offset": 0,
        "slot": "217",
        "type": "t_bool"
      },
      {
        "astId": 3145,
        "contract": "contracts/ZeroXBlock.sol:ZeroXBlock",
        "label": "enableAutoSwapDevFund",
        "offset": 1,
        "slot": "217",
        "type": "t_bool"
      },
      {
        "astId": 3147,
        "contract": "contracts/ZeroXBlock.sol:ZeroXBlock",
        "label": "usdcToken",
        "offset": 2,
        "slot": "217",
        "type": "t_address"
      },
      {
        "astId": 3149,
        "contract": "contracts/ZeroXBlock.sol:ZeroXBlock",
        "label": "antiBotEnabled",
        "offset": 22,
        "slot": "217",
        "type": "t_bool"
      },
      {
        "astId": 3151,
        "contract": "contracts/ZeroXBlock.sol:ZeroXBlock",
        "label": "launchBuyLimit",
        "offset": 0,
        "slot": "218",
        "type": "t_uint256"
      },
      {
        "astId": 3153,
        "contract": "contracts/ZeroXBlock.sol:ZeroXBlock",
        "label": "launchBuyTimeout",
        "offset": 0,
        "slot": "219",
        "type": "t_uint256"
      },
      {
        "astId": 3157,
        "contract": "contracts/ZeroXBlock.sol:ZeroXBlock",
        "label": "_lastBuyOnLaunch",
        "offset": 0,
        "slot": "220",
        "type": "t_mapping(t_address,t_uint256)"
      },
      {
        "astId": 3161,
        "contract": "contracts/ZeroXBlock.sol:ZeroXBlock",
        "label": "_isBlacklisted",
        "offset": 0,
        "slot": "221",
        "type": "t_mapping(t_address,t_bool)"
      },
      {
        "astId": 3165,
        "contract": "contracts/ZeroXBlock.sol:ZeroXBlock",
        "label": "automatedMarketMakerPairs",
        "offset": 0,
        "slot": "222",
        "type": "t_mapping(t_address,t_bool)"
      },
      {
        "astId": 3167,
        "contract": "contracts/ZeroXBlock.sol:ZeroXBlock",
        "label": "enableCashout",
        "offset": 0,
        "slot": "223",
        "type": "t_bool"
      },
      {
        "astId": 3169,
        "contract": "contracts/ZeroXBlock.sol:ZeroXBlock",
        "label": "enableMintConts",
        "offset": 1,
        "slot": "223",
        "type": "t_bool"
      },
      {
        "astId": 3171,
        "contract": "contracts/ZeroXBlock.sol:ZeroXBlock",
        "label": "cashoutTaxPool",
        "offset": 2,
        "slot": "223",
        "type": "t_address"
      },
      {
        "astId": 3174,
        "contract": "contracts/ZeroXBlock.sol:ZeroXBlock",
        "label": "_liqRouter",
        "offset": 0,
        "slot": "224",
        "type": "t_contract(LiquidityRouter)10170"
      },
      {
        "astId": 3176,
        "contract": "contracts/ZeroXBlock.sol:ZeroXBlock",
        "label": "enableAutoSwapCashout",
        "offset": 20,
        "slot": "224",
        "type": "t_bool"
      },
      {
        "astId": 3178,
        "contract": "contracts/ZeroXBlock.sol:ZeroXBlock",
        "label": "sellTaxTargetAddress",
        "offset": 0,
        "slot": "225",
        "type": "t_address"
      },
      {
        "astId": 3180,
        "contract": "contracts/ZeroXBlock.sol:ZeroXBlock",
        "label": "sellTax",
        "offset": 0,
        "slot": "226",
        "type": "t_uint256"
      },
      {
        "astId": 3184,
        "contract": "contracts/ZeroXBlock.sol:ZeroXBlock",
        "label": "_isSellTaxWhitelisted",
        "offset": 0,
        "slot": "227",
        "type": "t_mapping(t_address,t_bool)"
      }
    ],
    "types": {
      "t_address": {
        "encoding": "inplace",
        "label": "address",
        "numberOfBytes": "20"
      },
      "t_array(t_address)dyn_storage": {
        "base": "t_address",
        "encoding": "dynamic_array",
        "label": "address[]",
        "numberOfBytes": "32"
      },
      "t_array(t_uint256)43_storage": {
        "base": "t_uint256",
        "encoding": "inplace",
        "label": "uint256[43]",
        "numberOfBytes": "1376"
      },
      "t_array(t_uint256)45_storage": {
        "base": "t_uint256",
        "encoding": "inplace",
        "label": "uint256[45]",
        "numberOfBytes": "1440"
      },
      "t_array(t_uint256)49_storage": {
        "base": "t_uint256",
        "encoding": "inplace",
        "label": "uint256[49]",
        "numberOfBytes": "1568"
      },
      "t_array(t_uint256)50_storage": {
        "base": "t_uint256",
        "encoding": "inplace",
        "label": "uint256[50]",
        "numberOfBytes": "1600"
      },
      "t_bool": {
        "encoding": "inplace",
        "label": "bool",
        "numberOfBytes": "1"
      },
      "t_contract(CONTRewardManagement)8762": {
        "encoding": "inplace",
        "label": "contract CONTRewardManagement",
        "numberOfBytes": "20"
      },
      "t_contract(IERC20Upgradeable)1356": {
        "encoding": "inplace",
        "label": "contract IERC20Upgradeable",
        "numberOfBytes": "20"
      },
      "t_contract(IJoeRouter02)14610": {
        "encoding": "inplace",
        "label": "contract IJoeRouter02",
        "numberOfBytes": "20"
      },
      "t_contract(LiquidityRouter)10170": {
        "encoding": "inplace",
        "label": "contract LiquidityRouter",
        "numberOfBytes": "20"
      },
      "t_mapping(t_address,t_bool)": {
        "encoding": "mapping",
        "key": "t_address",
        "label": "mapping(address => bool)",
        "numberOfBytes": "32",
        "value": "t_bool"
      },
      "t_mapping(t_address,t_mapping(t_address,t_uint256))": {
        "encoding": "mapping",
        "key": "t_address",
        "label": "mapping(address => mapping(address => uint256))",
        "numberOfBytes": "32",
        "value": "t_mapping(t_address,t_uint256)"
      },
      "t_mapping(t_address,t_uint256)": {
        "encoding": "mapping",
        "key": "t_address",
        "label": "mapping(address => uint256)",
        "numberOfBytes": "32",
        "value": "t_uint256"
      },
      "t_mapping(t_contract(IERC20Upgradeable)1356,t_mapping(t_address,t_uint256))": {
        "encoding": "mapping",
        "key": "t_contract(IERC20Upgradeable)1356",
        "label": "mapping(contract IERC20Upgradeable => mapping(address => uint256))",
        "numberOfBytes": "32",
        "value": "t_mapping(t_address,t_uint256)"
      },
      "t_mapping(t_contract(IERC20Upgradeable)1356,t_uint256)": {
        "encoding": "mapping",
        "key": "t_contract(IERC20Upgradeable)1356",
        "label": "mapping(contract IERC20Upgradeable => uint256)",
        "numberOfBytes": "32",
        "value": "t_uint256"
      },
      "t_string_storage": {
        "encoding": "bytes",
        "label": "string",
        "numberOfBytes": "32"
      },
      "t_uint256": {
        "encoding": "inplace",
        "label": "uint256",
        "numberOfBytes": "32"
      }
    }
  }
}