{
  "address": "0x072594DB5eb75A33861f93cA9A52d4D4B5A1D0f0",
  "abi": [
    {
      "anonymous": false,
      "inputs": [
        {
          "indexed": true,
          "internalType": "address",
          "name": "owner",
          "type": "address"
        },
        {
          "indexed": true,
          "internalType": "address",
          "name": "spender",
          "type": "address"
        },
        {
          "indexed": false,
          "internalType": "uint256",
          "name": "value",
          "type": "uint256"
        }
      ],
      "name": "Approval",
      "type": "event"
    },
    {
      "anonymous": false,
      "inputs": [
        {
          "indexed": false,
          "internalType": "address",
          "name": "sender",
          "type": "address"
        }
      ],
      "name": "ContsMinted",
      "type": "event"
    },
    {
      "anonymous": false,
      "inputs": [
        {
          "indexed": true,
          "internalType": "contract IERC20Upgradeable",
          "name": "token",
          "type": "address"
        },
        {
          "indexed": false,
          "internalType": "address",
          "name": "to",
          "type": "address"
        },
        {
          "indexed": false,
          "internalType": "uint256",
          "name": "amount",
          "type": "uint256"
        }
      ],
      "name": "ERC20PaymentReleased",
      "type": "event"
    },
    {
      "anonymous": false,
      "inputs": [
        {
          "indexed": true,
          "internalType": "address",
          "name": "previousOwner",
          "type": "address"
        },
        {
          "indexed": true,
          "internalType": "address",
          "name": "newOwner",
          "type": "address"
        }
      ],
      "name": "OwnershipTransferred",
      "type": "event"
    },
    {
      "anonymous": false,
      "inputs": [
        {
          "indexed": false,
          "internalType": "address",
          "name": "account",
          "type": "address"
        },
        {
          "indexed": false,
          "internalType": "uint256",
          "name": "shares",
          "type": "uint256"
        }
      ],
      "name": "PayeeAdded",
      "type": "event"
    },
    {
      "anonymous": false,
      "inputs": [
        {
          "indexed": false,
          "internalType": "address",
          "name": "from",
          "type": "address"
        },
        {
          "indexed": false,
          "internalType": "uint256",
          "name": "amount",
          "type": "uint256"
        }
      ],
      "name": "PaymentReceived",
      "type": "event"
    },
    {
      "anonymous": false,
      "inputs": [
        {
          "indexed": false,
          "internalType": "address",
          "name": "to",
          "type": "address"
        },
        {
          "indexed": false,
          "internalType": "uint256",
          "name": "amount",
          "type": "uint256"
        }
      ],
      "name": "PaymentReleased",
      "type": "event"
    },
    {
      "anonymous": false,
      "inputs": [
        {
          "indexed": false,
          "internalType": "address",
          "name": "sender",
          "type": "address"
        }
      ],
      "name": "RewardCashoutAll",
      "type": "event"
    },
    {
      "anonymous": false,
      "inputs": [
        {
          "indexed": false,
          "internalType": "address",
          "name": "sender",
          "type": "address"
        },
        {
          "indexed": false,
          "internalType": "uint256",
          "name": "index",
          "type": "uint256"
        }
      ],
      "name": "RewardCashoutOne",
      "type": "event"
    },
    {
      "anonymous": false,
      "inputs": [
        {
          "indexed": true,
          "internalType": "address",
          "name": "from",
          "type": "address"
        },
        {
          "indexed": true,
          "internalType": "address",
          "name": "to",
          "type": "address"
        },
        {
          "indexed": false,
          "internalType": "uint256",
          "name": "value",
          "type": "uint256"
        }
      ],
      "name": "Transfer",
      "type": "event"
    },
    {
      "inputs": [],
      "name": "_crm",
      "outputs": [
        {
          "internalType": "contract CONTRewardManagement",
          "name": "",
          "type": "address"
        }
      ],
      "stateMutability": "view",
      "type": "function"
    },
    {
      "inputs": [
        {
          "internalType": "address",
          "name": "",
          "type": "address"
        }
      ],
      "name": "_isBlacklisted",
      "outputs": [
        {
          "internalType": "bool",
          "name": "",
          "type": "bool"
        }
      ],
      "stateMutability": "view",
      "type": "function"
    },
    {
      "inputs": [
        {
          "internalType": "address",
          "name": "",
          "type": "address"
        }
      ],
      "name": "_lastBuyOnLaunch",
      "outputs": [
        {
          "internalType": "uint256",
          "name": "",
          "type": "uint256"
        }
      ],
      "stateMutability": "view",
      "type": "function"
    },
    {
      "inputs": [],
      "name": "_liqRouter",
      "outputs": [
        {
          "internalType": "contract LiquidityRouter",
          "name": "",
          "type": "address"
        }
      ],
      "stateMutability": "view",
      "type": "function"
    },
    {
      "inputs": [
        {
          "internalType": "address",
          "name": "owner",
          "type": "address"
        },
        {
          "internalType": "address",
          "name": "spender",
          "type": "address"
        }
      ],
      "name": "allowance",
      "outputs": [
        {
          "internalType": "uint256",
          "name": "",
          "type": "uint256"
        }
      ],
      "stateMutability": "view",
      "type": "function"
    },
    {
      "inputs": [],
      "name": "antiBotEnabled",
      "outputs": [
        {
          "internalType": "bool",
          "name": "",
          "type": "bool"
        }
      ],
      "stateMutability": "view",
      "type": "function"
    },
    {
      "inputs": [
        {
          "internalType": "address",
          "name": "spender",
          "type": "address"
        },
        {
          "internalType": "uint256",
          "name": "amount",
          "type": "uint256"
        }
      ],
      "name": "approve",
      "outputs": [
        {
          "internalType": "bool",
          "name": "",
          "type": "bool"
        }
      ],
      "stateMutability": "nonpayable",
      "type": "function"
    },
    {
      "inputs": [
        {
          "internalType": "address",
          "name": "",
          "type": "address"
        }
      ],
      "name": "automatedMarketMakerPairs",
      "outputs": [
        {
          "internalType": "bool",
          "name": "",
          "type": "bool"
        }
      ],
      "stateMutability": "view",
      "type": "function"
    },
    {
      "inputs": [
        {
          "internalType": "address",
          "name": "account",
          "type": "address"
        }
      ],
      "name": "balanceOf",
      "outputs": [
        {
          "internalType": "uint256",
          "name": "",
          "type": "uint256"
        }
      ],
      "stateMutability": "view",
      "type": "function"
    },
    {
      "inputs": [],
      "name": "cashoutAll",
      "outputs": [],
      "stateMutability": "nonpayable",
      "type": "function"
    },
    {
      "inputs": [],
      "name": "cashoutFee",
      "outputs": [
        {
          "internalType": "uint256",
          "name": "",
          "type": "uint256"
        }
      ],
      "stateMutability": "view",
      "type": "function"
    },
    {
      "inputs": [
        {
          "internalType": "uint256",
          "name": "_contIndex",
          "type": "uint256"
        }
      ],
      "name": "cashoutReward",
      "outputs": [],
      "stateMutability": "nonpayable",
      "type": "function"
    },
    {
      "inputs": [],
      "name": "cashoutTaxPool",
      "outputs": [
        {
          "internalType": "address",
          "name": "",
          "type": "address"
        }
      ],
      "stateMutability": "view",
      "type": "function"
    },
    {
      "inputs": [
        {
          "internalType": "bool",
          "name": "newVal",
          "type": "bool"
        }
      ],
      "name": "changeEnableAutoSwapCashout",
      "outputs": [],
      "stateMutability": "nonpayable",
      "type": "function"
    },
    {
      "inputs": [
        {
          "internalType": "bool",
          "name": "newVal",
          "type": "bool"
        }
      ],
      "name": "changeEnableAutoSwapDevFund",
      "outputs": [],
      "stateMutability": "nonpayable",
      "type": "function"
    },
    {
      "inputs": [
        {
          "internalType": "bool",
          "name": "newVal",
          "type": "bool"
        }
      ],
      "name": "changeEnableAutoSwapTreasury",
      "outputs": [],
      "stateMutability": "nonpayable",
      "type": "function"
    },
    {
      "inputs": [],
      "name": "decimals",
      "outputs": [
        {
          "internalType": "uint8",
          "name": "",
          "type": "uint8"
        }
      ],
      "stateMutability": "view",
      "type": "function"
    },
    {
      "inputs": [
        {
          "internalType": "address",
          "name": "spender",
          "type": "address"
        },
        {
          "internalType": "uint256",
          "name": "subtractedValue",
          "type": "uint256"
        }
      ],
      "name": "decreaseAllowance",
      "outputs": [
        {
          "internalType": "bool",
          "name": "",
          "type": "bool"
        }
      ],
      "stateMutability": "nonpayable",
      "type": "function"
    },
    {
      "inputs": [],
      "name": "developmentFee",
      "outputs": [
        {
          "internalType": "uint256",
          "name": "",
          "type": "uint256"
        }
      ],
      "stateMutability": "view",
      "type": "function"
    },
    {
      "inputs": [],
      "name": "developmentFundPool",
      "outputs": [
        {
          "internalType": "address",
          "name": "",
          "type": "address"
        }
      ],
      "stateMutability": "view",
      "type": "function"
    },
    {
      "inputs": [],
      "name": "enableAutoSwapCashout",
      "outputs": [
        {
          "internalType": "bool",
          "name": "",
          "type": "bool"
        }
      ],
      "stateMutability": "view",
      "type": "function"
    },
    {
      "inputs": [],
      "name": "enableAutoSwapDevFund",
      "outputs": [
        {
          "internalType": "bool",
          "name": "",
          "type": "bool"
        }
      ],
      "stateMutability": "view",
      "type": "function"
    },
    {
      "inputs": [],
      "name": "enableAutoSwapTreasury",
      "outputs": [
        {
          "internalType": "bool",
          "name": "",
          "type": "bool"
        }
      ],
      "stateMutability": "view",
      "type": "function"
    },
    {
      "inputs": [],
      "name": "enableCashout",
      "outputs": [
        {
          "internalType": "bool",
          "name": "",
          "type": "bool"
        }
      ],
      "stateMutability": "view",
      "type": "function"
    },
    {
      "inputs": [],
      "name": "enableMintConts",
      "outputs": [
        {
          "internalType": "bool",
          "name": "",
          "type": "bool"
        }
      ],
      "stateMutability": "view",
      "type": "function"
    },
    {
      "inputs": [],
      "name": "getContsCreationTime",
      "outputs": [
        {
          "internalType": "string",
          "name": "",
          "type": "string"
        }
      ],
      "stateMutability": "view",
      "type": "function"
    },
    {
      "inputs": [],
      "name": "getContsCurrentAPR",
      "outputs": [
        {
          "internalType": "string",
          "name": "",
          "type": "string"
        }
      ],
      "stateMutability": "view",
      "type": "function"
    },
    {
      "inputs": [],
      "name": "getContsInitialAPR",
      "outputs": [
        {
          "internalType": "string",
          "name": "",
          "type": "string"
        }
      ],
      "stateMutability": "view",
      "type": "function"
    },
    {
      "inputs": [],
      "name": "getContsLastCashoutTime",
      "outputs": [
        {
          "internalType": "string",
          "name": "",
          "type": "string"
        }
      ],
      "stateMutability": "view",
      "type": "function"
    },
    {
      "inputs": [],
      "name": "getContsNames",
      "outputs": [
        {
          "internalType": "string",
          "name": "",
          "type": "string"
        }
      ],
      "stateMutability": "view",
      "type": "function"
    },
    {
      "inputs": [],
      "name": "getContsRewards",
      "outputs": [
        {
          "internalType": "string",
          "name": "",
          "type": "string"
        }
      ],
      "stateMutability": "view",
      "type": "function"
    },
    {
      "inputs": [],
      "name": "getContsTypes",
      "outputs": [
        {
          "internalType": "string",
          "name": "",
          "type": "string"
        }
      ],
      "stateMutability": "view",
      "type": "function"
    },
    {
      "inputs": [],
      "name": "getRewardAmount",
      "outputs": [
        {
          "internalType": "uint256",
          "name": "",
          "type": "uint256"
        }
      ],
      "stateMutability": "view",
      "type": "function"
    },
    {
      "inputs": [
        {
          "internalType": "address",
          "name": "spender",
          "type": "address"
        },
        {
          "internalType": "uint256",
          "name": "addedValue",
          "type": "uint256"
        }
      ],
      "name": "increaseAllowance",
      "outputs": [
        {
          "internalType": "bool",
          "name": "",
          "type": "bool"
        }
      ],
      "stateMutability": "nonpayable",
      "type": "function"
    },
    {
      "inputs": [
        {
          "internalType": "address[]",
          "name": "payees",
          "type": "address[]"
        },
        {
          "internalType": "uint256[]",
          "name": "shares",
          "type": "uint256[]"
        },
        {
          "internalType": "address[]",
          "name": "addresses",
          "type": "address[]"
        },
        {
          "internalType": "uint256[]",
          "name": "balances",
          "type": "uint256[]"
        },
        {
          "internalType": "uint256[]",
          "name": "fees",
          "type": "uint256[]"
        },
        {
          "internalType": "address",
          "name": "usdcAddr",
          "type": "address"
        }
      ],
      "name": "initialize",
      "outputs": [],
      "stateMutability": "nonpayable",
      "type": "function"
    },
    {
      "inputs": [],
      "name": "launchBuyLimit",
      "outputs": [
        {
          "internalType": "uint256",
          "name": "",
          "type": "uint256"
        }
      ],
      "stateMutability": "view",
      "type": "function"
    },
    {
      "inputs": [],
      "name": "launchBuyTimeout",
      "outputs": [
        {
          "internalType": "uint256",
          "name": "",
          "type": "uint256"
        }
      ],
      "stateMutability": "view",
      "type": "function"
    },
    {
      "inputs": [],
      "name": "liquidityPool",
      "outputs": [
        {
          "internalType": "address",
          "name": "",
          "type": "address"
        }
      ],
      "stateMutability": "view",
      "type": "function"
    },
    {
      "inputs": [],
      "name": "liquidityPoolFee",
      "outputs": [
        {
          "internalType": "uint256",
          "name": "",
          "type": "uint256"
        }
      ],
      "stateMutability": "view",
      "type": "function"
    },
    {
      "inputs": [
        {
          "internalType": "string[]",
          "name": "names",
          "type": "string[]"
        },
        {
          "internalType": "enum ContType",
          "name": "_cType",
          "type": "uint8"
        }
      ],
      "name": "mintConts",
      "outputs": [],
      "stateMutability": "nonpayable",
      "type": "function"
    },
    {
      "inputs": [],
      "name": "name",
      "outputs": [
        {
          "internalType": "string",
          "name": "",
          "type": "string"
        }
      ],
      "stateMutability": "view",
      "type": "function"
    },
    {
      "inputs": [],
      "name": "ownedContsLimit",
      "outputs": [
        {
          "internalType": "uint256",
          "name": "",
          "type": "uint256"
        }
      ],
      "stateMutability": "view",
      "type": "function"
    },
    {
      "inputs": [],
      "name": "owner",
      "outputs": [
        {
          "internalType": "address",
          "name": "",
          "type": "address"
        }
      ],
      "stateMutability": "view",
      "type": "function"
    },
    {
      "inputs": [
        {
          "internalType": "uint256",
          "name": "index",
          "type": "uint256"
        }
      ],
      "name": "payee",
      "outputs": [
        {
          "internalType": "address",
          "name": "",
          "type": "address"
        }
      ],
      "stateMutability": "view",
      "type": "function"
    },
    {
      "inputs": [
        {
          "internalType": "address payable",
          "name": "account",
          "type": "address"
        }
      ],
      "name": "release",
      "outputs": [],
      "stateMutability": "nonpayable",
      "type": "function"
    },
    {
      "inputs": [
        {
          "internalType": "contract IERC20Upgradeable",
          "name": "token",
          "type": "address"
        },
        {
          "internalType": "address",
          "name": "account",
          "type": "address"
        }
      ],
      "name": "release",
      "outputs": [],
      "stateMutability": "nonpayable",
      "type": "function"
    },
    {
      "inputs": [
        {
          "internalType": "contract IERC20Upgradeable",
          "name": "token",
          "type": "address"
        },
        {
          "internalType": "address",
          "name": "account",
          "type": "address"
        }
      ],
      "name": "released",
      "outputs": [
        {
          "internalType": "uint256",
          "name": "",
          "type": "uint256"
        }
      ],
      "stateMutability": "view",
      "type": "function"
    },
    {
      "inputs": [
        {
          "internalType": "address",
          "name": "account",
          "type": "address"
        }
      ],
      "name": "released",
      "outputs": [
        {
          "internalType": "uint256",
          "name": "",
          "type": "uint256"
        }
      ],
      "stateMutability": "view",
      "type": "function"
    },
    {
      "inputs": [],
      "name": "renounceOwnership",
      "outputs": [],
      "stateMutability": "nonpayable",
      "type": "function"
    },
    {
      "inputs": [
        {
          "internalType": "address",
          "name": "userAddr",
          "type": "address"
        },
        {
          "internalType": "uint256",
          "name": "tokens",
          "type": "uint256"
        }
      ],
      "name": "rescueMissentToken",
      "outputs": [],
      "stateMutability": "nonpayable",
      "type": "function"
    },
    {
      "inputs": [],
      "name": "rewardsFee",
      "outputs": [
        {
          "internalType": "uint256",
          "name": "",
          "type": "uint256"
        }
      ],
      "stateMutability": "view",
      "type": "function"
    },
    {
      "inputs": [],
      "name": "rewardsPool",
      "outputs": [
        {
          "internalType": "address",
          "name": "",
          "type": "address"
        }
      ],
      "stateMutability": "view",
      "type": "function"
    },
    {
      "inputs": [
        {
          "internalType": "address",
          "name": "account",
          "type": "address"
        },
        {
          "internalType": "bool",
          "name": "value",
          "type": "bool"
        }
      ],
      "name": "setBlacklistStatus",
      "outputs": [],
      "stateMutability": "nonpayable",
      "type": "function"
    },
    {
      "inputs": [
        {
          "internalType": "address",
          "name": "crm",
          "type": "address"
        }
      ],
      "name": "setContManagement",
      "outputs": [],
      "stateMutability": "nonpayable",
      "type": "function"
    },
    {
      "inputs": [
        {
          "internalType": "bool",
          "name": "_enableCashout",
          "type": "bool"
        }
      ],
      "name": "setEnableCashout",
      "outputs": [],
      "stateMutability": "nonpayable",
      "type": "function"
    },
    {
      "inputs": [
        {
          "internalType": "bool",
          "name": "value",
          "type": "bool"
        }
      ],
      "name": "setEnableMintConts",
      "outputs": [],
      "stateMutability": "nonpayable",
      "type": "function"
    },
    {
      "inputs": [
        {
          "internalType": "address payable",
          "name": "liqRouter",
          "type": "address"
        }
      ],
      "name": "setLiquidityRouter",
      "outputs": [],
      "stateMutability": "nonpayable",
      "type": "function"
    },
    {
      "inputs": [
        {
          "internalType": "address",
          "name": "newAddress",
          "type": "address"
        }
      ],
      "name": "setUSDCAddress",
      "outputs": [],
      "stateMutability": "nonpayable",
      "type": "function"
    },
    {
      "inputs": [
        {
          "internalType": "address",
          "name": "account",
          "type": "address"
        }
      ],
      "name": "shares",
      "outputs": [
        {
          "internalType": "uint256",
          "name": "",
          "type": "uint256"
        }
      ],
      "stateMutability": "view",
      "type": "function"
    },
    {
      "inputs": [
        {
          "internalType": "address",
          "name": "tokenAddr",
          "type": "address"
        },
        {
          "internalType": "uint256",
          "name": "amountOut",
          "type": "uint256"
        },
        {
          "internalType": "uint256",
          "name": "amountInMax",
          "type": "uint256"
        },
        {
          "internalType": "uint256",
          "name": "wait",
          "type": "uint256"
        }
      ],
      "name": "swap0xBForExactToken",
      "outputs": [],
      "stateMutability": "nonpayable",
      "type": "function"
    },
    {
      "inputs": [
        {
          "internalType": "uint256",
          "name": "amountOut",
          "type": "uint256"
        },
        {
          "internalType": "uint256",
          "name": "amountInMax",
          "type": "uint256"
        },
        {
          "internalType": "uint256",
          "name": "wait",
          "type": "uint256"
        }
      ],
      "name": "swapAVAXForExact0xB",
      "outputs": [],
      "stateMutability": "payable",
      "type": "function"
    },
    {
      "inputs": [
        {
          "internalType": "address",
          "name": "tokenAddr",
          "type": "address"
        },
        {
          "internalType": "uint256",
          "name": "amountIn",
          "type": "uint256"
        },
        {
          "internalType": "uint256",
          "name": "amountOutMin",
          "type": "uint256"
        },
        {
          "internalType": "uint256",
          "name": "wait",
          "type": "uint256"
        }
      ],
      "name": "swapExact0xBForToken",
      "outputs": [],
      "stateMutability": "nonpayable",
      "type": "function"
    },
    {
      "inputs": [
        {
          "internalType": "uint256",
          "name": "amountOutMin",
          "type": "uint256"
        },
        {
          "internalType": "uint256",
          "name": "wait",
          "type": "uint256"
        }
      ],
      "name": "swapExactAVAXFor0xB",
      "outputs": [],
      "stateMutability": "payable",
      "type": "function"
    },
    {
      "inputs": [
        {
          "internalType": "address",
          "name": "tokenAddr",
          "type": "address"
        },
        {
          "internalType": "uint256",
          "name": "amountIn",
          "type": "uint256"
        },
        {
          "internalType": "uint256",
          "name": "amountOutMin",
          "type": "uint256"
        },
        {
          "internalType": "uint256",
          "name": "wait",
          "type": "uint256"
        }
      ],
      "name": "swapExactTokenFor0xB",
      "outputs": [],
      "stateMutability": "nonpayable",
      "type": "function"
    },
    {
      "inputs": [
        {
          "internalType": "address",
          "name": "tokenAddr",
          "type": "address"
        },
        {
          "internalType": "uint256",
          "name": "amountOut",
          "type": "uint256"
        },
        {
          "internalType": "uint256",
          "name": "amountInMax",
          "type": "uint256"
        },
        {
          "internalType": "uint256",
          "name": "wait",
          "type": "uint256"
        }
      ],
      "name": "swapTokenForExact0xB",
      "outputs": [],
      "stateMutability": "nonpayable",
      "type": "function"
    },
    {
      "inputs": [],
      "name": "symbol",
      "outputs": [
        {
          "internalType": "string",
          "name": "",
          "type": "string"
        }
      ],
      "stateMutability": "view",
      "type": "function"
    },
    {
      "inputs": [
        {
          "internalType": "enum ContType",
          "name": "_ct",
          "type": "uint8"
        }
      ],
      "name": "tokenReceivedPerType",
      "outputs": [
        {
          "internalType": "uint256",
          "name": "",
          "type": "uint256"
        }
      ],
      "stateMutability": "view",
      "type": "function"
    },
    {
      "inputs": [
        {
          "internalType": "enum ContType",
          "name": "_ct",
          "type": "uint8"
        }
      ],
      "name": "totalContsPerType",
      "outputs": [
        {
          "internalType": "uint256",
          "name": "",
          "type": "uint256"
        }
      ],
      "stateMutability": "view",
      "type": "function"
    },
    {
      "inputs": [],
      "name": "totalFees",
      "outputs": [
        {
          "internalType": "uint256",
          "name": "",
          "type": "uint256"
        }
      ],
      "stateMutability": "view",
      "type": "function"
    },
    {
      "inputs": [
        {
          "internalType": "contract IERC20Upgradeable",
          "name": "token",
          "type": "address"
        }
      ],
      "name": "totalReleased",
      "outputs": [
        {
          "internalType": "uint256",
          "name": "",
          "type": "uint256"
        }
      ],
      "stateMutability": "view",
      "type": "function"
    },
    {
      "inputs": [],
      "name": "totalReleased",
      "outputs": [
        {
          "internalType": "uint256",
          "name": "",
          "type": "uint256"
        }
      ],
      "stateMutability": "view",
      "type": "function"
    },
    {
      "inputs": [],
      "name": "totalShares",
      "outputs": [
        {
          "internalType": "uint256",
          "name": "",
          "type": "uint256"
        }
      ],
      "stateMutability": "view",
      "type": "function"
    },
    {
      "inputs": [],
      "name": "totalSupply",
      "outputs": [
        {
          "internalType": "uint256",
          "name": "",
          "type": "uint256"
        }
      ],
      "stateMutability": "view",
      "type": "function"
    },
    {
      "inputs": [],
      "name": "totalTokensPaidForMinting",
      "outputs": [
        {
          "internalType": "uint256",
          "name": "",
          "type": "uint256"
        }
      ],
      "stateMutability": "view",
      "type": "function"
    },
    {
      "inputs": [
        {
          "internalType": "address",
          "name": "to",
          "type": "address"
        },
        {
          "internalType": "uint256",
          "name": "amount",
          "type": "uint256"
        }
      ],
      "name": "transfer",
      "outputs": [
        {
          "internalType": "bool",
          "name": "",
          "type": "bool"
        }
      ],
      "stateMutability": "nonpayable",
      "type": "function"
    },
    {
      "inputs": [
        {
          "internalType": "address",
          "name": "from",
          "type": "address"
        },
        {
          "internalType": "address",
          "name": "to",
          "type": "address"
        },
        {
          "internalType": "uint256",
          "name": "amount",
          "type": "uint256"
        }
      ],
      "name": "transferFrom",
      "outputs": [
        {
          "internalType": "bool",
          "name": "",
          "type": "bool"
        }
      ],
      "stateMutability": "nonpayable",
      "type": "function"
    },
    {
      "inputs": [
        {
          "internalType": "address",
          "name": "newOwner",
          "type": "address"
        }
      ],
      "name": "transferOwnership",
      "outputs": [],
      "stateMutability": "nonpayable",
      "type": "function"
    },
    {
      "inputs": [],
      "name": "treasuryFee",
      "outputs": [
        {
          "internalType": "uint256",
          "name": "",
          "type": "uint256"
        }
      ],
      "stateMutability": "view",
      "type": "function"
    },
    {
      "inputs": [],
      "name": "treasuryPool",
      "outputs": [
        {
          "internalType": "address",
          "name": "",
          "type": "address"
        }
      ],
      "stateMutability": "view",
      "type": "function"
    },
    {
      "inputs": [],
      "name": "uniswapV2Pair",
      "outputs": [
        {
          "internalType": "address",
          "name": "",
          "type": "address"
        }
      ],
      "stateMutability": "view",
      "type": "function"
    },
    {
      "inputs": [],
      "name": "uniswapV2Router",
      "outputs": [
        {
          "internalType": "contract IJoeRouter02",
          "name": "",
          "type": "address"
        }
      ],
      "stateMutability": "view",
      "type": "function"
    },
    {
      "inputs": [
        {
          "internalType": "uint256",
          "name": "value",
          "type": "uint256"
        }
      ],
      "name": "updateCashoutFee",
      "outputs": [],
      "stateMutability": "nonpayable",
      "type": "function"
    },
    {
      "inputs": [
        {
          "internalType": "address payable",
          "name": "wall",
          "type": "address"
        }
      ],
      "name": "updateCashoutTaxPool",
      "outputs": [],
      "stateMutability": "nonpayable",
      "type": "function"
    },
    {
      "inputs": [
        {
          "internalType": "uint256",
          "name": "value",
          "type": "uint256"
        }
      ],
      "name": "updateDevelopmentFee",
      "outputs": [],
      "stateMutability": "nonpayable",
      "type": "function"
    },
    {
      "inputs": [
        {
          "internalType": "address payable",
          "name": "wall",
          "type": "address"
        }
      ],
      "name": "updateDevelopmentFundWallet",
      "outputs": [],
      "stateMutability": "nonpayable",
      "type": "function"
    },
    {
      "inputs": [
        {
          "internalType": "uint256",
          "name": "value",
          "type": "uint256"
        }
      ],
      "name": "updateLiquidityFee",
      "outputs": [],
      "stateMutability": "nonpayable",
      "type": "function"
    },
    {
      "inputs": [
        {
          "internalType": "address payable",
          "name": "wall",
          "type": "address"
        }
      ],
      "name": "updateLiquidityWallet",
      "outputs": [],
      "stateMutability": "nonpayable",
      "type": "function"
    },
    {
      "inputs": [
        {
          "internalType": "uint256",
          "name": "value",
          "type": "uint256"
        }
      ],
      "name": "updateRewardsFee",
      "outputs": [],
      "stateMutability": "nonpayable",
      "type": "function"
    },
    {
      "inputs": [
        {
          "internalType": "address payable",
          "name": "wall",
          "type": "address"
        }
      ],
      "name": "updateRewardsWallet",
      "outputs": [],
      "stateMutability": "nonpayable",
      "type": "function"
    },
    {
      "inputs": [
        {
          "internalType": "uint256",
          "name": "value",
          "type": "uint256"
        }
      ],
      "name": "updateTreasuryFee",
      "outputs": [],
      "stateMutability": "nonpayable",
      "type": "function"
    },
    {
      "inputs": [
        {
          "internalType": "address payable",
          "name": "wall",
          "type": "address"
        }
      ],
      "name": "updateTreasuryWallet",
      "outputs": [],
      "stateMutability": "nonpayable",
      "type": "function"
    },
    {
      "inputs": [],
      "name": "usdcToken",
      "outputs": [
        {
          "internalType": "address",
          "name": "",
          "type": "address"
        }
      ],
      "stateMutability": "view",
      "type": "function"
    },
    {
      "stateMutability": "payable",
      "type": "receive"
    }
  ],
  "transactionHash": "0x2331a9d1c00c4c87c72f049a95fdeffb6fadb4380067d029fff73ee3f3aa70eb",
  "args": [],
  "numDeployments": 3,
  "solcInputHash": "29a889fc99f2b48659c6220780f5f274",
  "bytecode": "0x608060405234801561001057600080fd5b506154d3806100206000396000f3fe6080604052600436106104fb5760003560e01c806382a8ebad1161028c578063b62496f51161015a578063d8c6404b116100cc578063eb71c5d911610085578063eb71c5d914610f8e578063f2e0302314610fad578063f2fde38b14610fcd578063f34f152214610fed578063f764bfb514611003578063f78d5c551461102957600080fd5b8063d8c6404b14610ee9578063dd62ed3e14610f0a578063e0583ec014610f2a578063e22ee81314610f44578063e33b7de314610f59578063e37ba8f914610f6e57600080fd5b8063cd6e18f11161011e578063cd6e18f114610dfd578063ce7c2ac214610e1d578063cfc0d02414610e53578063d631f70514610e73578063d75e277314610e93578063d79779b214610eb357600080fd5b8063b62496f514610d67578063b9bd393314610d97578063ba2734d214610db1578063bcb8ebfc14610dd1578063cc32d17614610de757600080fd5b806397232830116101fe5780639ff41fe3116101b75780639ff41fe314610ca4578063a457c2d714610cd1578063a5f3d00314610cf1578063a9059cbb14610d07578063aaf5bfc314610d27578063b3328aae14610d4757600080fd5b80639723283014610bd95780639852595c14610bf95780639a6e80db14610c2f5780639b03f44914610c4f5780639c64291c14610c645780639dc73a4914610c8457600080fd5b80638d289144116102505780638d28914414610b315780638da5cb5b14610b515780638e67566314610b6f5780638ea928f114610b8f5780639149acbc14610ba457806395d89b4114610bc457600080fd5b806382a8ebad14610aa6578063839df91914610ac657806384884e4414610ae65780638683811614610afb5780638b83209b14610b1157600080fd5b806339306140116103c957806357dae0631161033b5780636d9ae0be116102f45780636d9ae0be14610a0657806370a0823114610a1c578063715018a614610a3c578063809d458d14610a51578063810be66d14610a715780638161ab7614610a9157600080fd5b806357dae063146109515780635dd731fc1461097157806365bfe43014610991578063665a11ca146109b15780636815a91c146109d15780636b38c586146109f157600080fd5b806348b750441161038d57806348b75044146108a657806348df5829146108c657806349bd5a5e146108e6578063545579731461090657806354f12f1f1461091b578063559bf3021461093157600080fd5b8063393061401461081b57806339509351146108315780633a98ef39146108515780633bf20e6014610866578063406072a91461088657600080fd5b806310153e7b1161046d5780631cdd3be3116104265780631cdd3be31461076657806323b872dd14610796578063241a38c6146107b65780632bb14e1d146107c95780633086319d146107df578063313ce567146107ff57600080fd5b806310153e7b146106c057806311eac855146106d557806313114a9d146106fb5780631694505e1461071157806318160ddd14610731578063191655871461074657600080fd5b80630841e977116104bf5780630841e977146105ed578063084a6bff1461060d578063095ea7b31461062d57806309a69f571461065d5780630db92449146106805780630f1978fb146106a157600080fd5b80630129981c146105405780630359fea91461056257806303d29d281461059857806306fdde03146105b857806307a55860146105da57600080fd5b3661053b577f6ef95f06320e7a25a04a175ca677b7052bdd97131872c2192525a629f51be770333460405161053192919061504b565b60405180910390a1005b600080fd5b34801561054c57600080fd5b5061056061055b366004614c60565b611049565b005b34801561056e57600080fd5b5060d154610582906001600160a01b031681565b60405161058f9190615037565b60405180910390f35b3480156105a457600080fd5b506105606105b3366004614c06565b61110b565b3480156105c457600080fd5b506105cd611160565b60405161058f919061511d565b6105606105e8366004614fa1565b6111f2565b3480156105f957600080fd5b50610560610608366004614c60565b6112b9565b34801561061957600080fd5b50610560610628366004614f4d565b611461565b34801561063957600080fd5b5061064d610648366004614c34565b6114e3565b604051901515815260200161058f565b34801561066957600080fd5b506106726114fd565b60405190815260200161058f565b34801561068c57600080fd5b5060e05461064d90600160a01b900460ff1681565b3480156106ad57600080fd5b5060d95461064d90610100900460ff1681565b3480156106cc57600080fd5b506105cd611583565b3480156106e157600080fd5b5060d954610582906201000090046001600160a01b031681565b34801561070757600080fd5b5061067260d75481565b34801561071d57600080fd5b5060ca54610582906001600160a01b031681565b34801561073d57600080fd5b50603554610672565b34801561075257600080fd5b50610560610761366004614b6f565b611609565b34801561077257600080fd5b5061064d610781366004614b6f565b60dd6020526000908152604090205460ff1681565b3480156107a257600080fd5b5061064d6107b1366004614bc5565b61172e565b6105606107c4366004614f7f565b611754565b3480156107d557600080fd5b5061067260d35481565b3480156107eb57600080fd5b506105606107fa366004614d7c565b611776565b34801561080b57600080fd5b506040516012815260200161058f565b34801561082757600080fd5b5061067260ce5481565b34801561083d57600080fd5b5061064d61084c366004614c34565b611e9f565b34801561085d57600080fd5b50609754610672565b34801561087257600080fd5b50610672610881366004614ebb565b611ede565b34801561089257600080fd5b506106726108a1366004614b8c565b611f5f565b3480156108b257600080fd5b506105606108c1366004614b8c565b611f8a565b3480156108d257600080fd5b5060d054610582906001600160a01b031681565b3480156108f257600080fd5b5060cd54610582906001600160a01b031681565b34801561091257600080fd5b5061056061214e565b34801561092757600080fd5b5061067260d55481565b34801561093d57600080fd5b5061056061094c366004614b6f565b612470565b34801561095d57600080fd5b5061056061096c366004614c9b565b6124e2565b34801561097d57600080fd5b5061056061098c366004614b6f565b612b98565b34801561099d57600080fd5b506105606109ac366004614f4d565b612c12565b3480156109bd57600080fd5b5060d254610582906001600160a01b031681565b3480156109dd57600080fd5b506105606109ec366004614f4d565b612fd4565b3480156109fd57600080fd5b506105cd613054565b348015610a1257600080fd5b5061067260d85481565b348015610a2857600080fd5b50610672610a37366004614b6f565b61306e565b348015610a4857600080fd5b50610560613089565b348015610a5d57600080fd5b50610560610a6c366004614b6f565b6130bf565b348015610a7d57600080fd5b5060cf54610582906001600160a01b031681565b348015610a9d57600080fd5b506105cd613131565b348015610ab257600080fd5b5060e054610582906001600160a01b031681565b348015610ad257600080fd5b50610560610ae1366004614e81565b61314b565b348015610af257600080fd5b506105cd61318f565b348015610b0757600080fd5b5061067260da5481565b348015610b1d57600080fd5b50610582610b2c366004614f4d565b6131a9565b348015610b3d57600080fd5b50610560610b4c366004614b6f565b6131d9565b348015610b5d57600080fd5b506065546001600160a01b0316610582565b348015610b7b57600080fd5b50610560610b8a366004614f4d565b613270565b348015610b9b57600080fd5b506105cd6132f2565b348015610bb057600080fd5b50610560610bbf366004614e81565b61330c565b348015610bd057600080fd5b506105cd613350565b348015610be557600080fd5b50610560610bf4366004614f4d565b61335f565b348015610c0557600080fd5b50610672610c14366004614b6f565b6001600160a01b03166000908152609a602052604090205490565b348015610c3b57600080fd5b5060c954610582906001600160a01b031681565b348015610c5b57600080fd5b506105cd6133e1565b348015610c7057600080fd5b50610560610c7f366004614c60565b6133fb565b348015610c9057600080fd5b50610560610c9f366004614e81565b613549565b348015610cb057600080fd5b50610672610cbf366004614b6f565b60dc6020526000908152604090205481565b348015610cdd57600080fd5b5061064d610cec366004614c34565b613586565b348015610cfd57600080fd5b5061067260d65481565b348015610d1357600080fd5b5061064d610d22366004614c34565b613623565b348015610d3357600080fd5b50610560610d42366004614b6f565b613631565b348015610d5357600080fd5b50610560610d62366004614e81565b6136d1565b348015610d7357600080fd5b5061064d610d82366004614b6f565b60de6020526000908152604090205460ff1681565b348015610da357600080fd5b5060df5461064d9060ff1681565b348015610dbd57600080fd5b50610560610dcc366004614e81565b61370e565b348015610ddd57600080fd5b5061067260cb5481565b348015610df357600080fd5b5061067260d45481565b348015610e0957600080fd5b50610560610e18366004614b6f565b613756565b348015610e2957600080fd5b50610672610e38366004614b6f565b6001600160a01b031660009081526099602052604090205490565b348015610e5f57600080fd5b50610560610e6e366004614b6f565b6137f1565b348015610e7f57600080fd5b50610560610e8e366004614c34565b613863565b348015610e9f57600080fd5b50610672610eae366004614ebb565b61395b565b348015610ebf57600080fd5b50610672610ece366004614b6f565b6001600160a01b03166000908152609c602052604090205490565b348015610ef557600080fd5b5060d95461064d90600160b01b900460ff1681565b348015610f1657600080fd5b50610672610f25366004614b8c565b6139f9565b348015610f3657600080fd5b5060d95461064d9060ff1681565b348015610f5057600080fd5b506105cd613a24565b348015610f6557600080fd5b50609854610672565b348015610f7a57600080fd5b50610560610f89366004614b6f565b613a3e565b348015610f9a57600080fd5b5060df5461064d90610100900460ff1681565b348015610fb957600080fd5b50610560610fc8366004614c60565b613ab0565b348015610fd957600080fd5b50610560610fe8366004614b6f565b613b10565b348015610ff957600080fd5b5061067260db5481565b34801561100f57600080fd5b5060df54610582906201000090046001600160a01b031681565b34801561103557600080fd5b50610560611044366004614f4d565b613bab565b33826110548261306e565b101561107b5760405162461bcd60e51b8152600401611072906151ee565b60405180910390fd5b60e0546110939082906001600160a01b031685613c2d565b60e0546001600160a01b03166380be66cf828787876110b28842615359565b6040518663ffffffff1660e01b81526004016110d2959493929190615064565b600060405180830381600087803b1580156110ec57600080fd5b505af1158015611100573d6000803e3d6000fd5b505050505050505050565b6065546001600160a01b031633146111355760405162461bcd60e51b815260040161107290615225565b6001600160a01b0391909116600090815260dd60205260409020805460ff1916911515919091179055565b60606036805461116f906153f5565b80601f016020809104026020016040519081016040528092919081815260200182805461119b906153f5565b80156111e85780601f106111bd576101008083540402835291602001916111e8565b820191906000526020600020905b8154815290600101906020018083116111cb57829003601f168201915b5050505050905090565b333483111561124e5760405162461bcd60e51b815260206004820152602260248201527f535741503a206d73672e76616c7565206c657373207468616e20736c69707061604482015261676560f01b6064820152608401611072565b60e0546001600160a01b031663ed9705da34838761126c8742615359565b6040516001600160e01b031960e087901b1681526001600160a01b039093166004840152602483019190915260448201526064016000604051808303818588803b1580156110ec57600080fd5b6040516370a0823160e01b81523390859085906001600160a01b038316906370a08231906112eb908690600401615037565b60206040518083038186803b15801561130357600080fd5b505afa158015611317573d6000803e3d6000fd5b505050506040513d601f19601f8201168201806040525081019061133b9190614f66565b10156113595760405162461bcd60e51b8152600401611072906151ee565b60e0546040516323b872dd60e01b81526001600160a01b038481166004830152918216602482015260448101879052908216906323b872dd90606401602060405180830381600087803b1580156113af57600080fd5b505af11580156113c3573d6000803e3d6000fd5b505050506040513d601f19601f820116820180604052508101906113e79190614e9e565b5060e0546001600160a01b0316636e54a8a0838888886114078942615359565b6040518663ffffffff1660e01b8152600401611427959493929190615064565b600060405180830381600087803b15801561144157600080fd5b505af1158015611455573d6000803e3d6000fd5b50505050505050505050565b6065546001600160a01b0316331461148b5760405162461bcd60e51b815260040161107290615225565b60008160d45460d65460d5546114a19190615359565b6114ab9190615359565b6114b59190615359565b905060648111156114d85760405162461bcd60e51b81526004016110729061525a565b60d39190915560d755565b6000336114f1818585613ccb565b60019150505b92915050565b60c9546040516330cd31af60e11b81526000916001600160a01b03169063619a635e9061152e903390600401615037565b60206040518083038186803b15801561154657600080fd5b505afa15801561155a573d6000803e3d6000fd5b505050506040513d601f19601f8201168201806040525081019061157e9190614f66565b905090565b60c9546060906001600160a01b0316635dbab6ed335b6040518263ffffffff1660e01b81526004016115b59190615037565b60006040518083038186803b1580156115cd57600080fd5b505afa1580156115e1573d6000803e3d6000fd5b505050506040513d6000823e601f3d908101601f1916820160405261157e9190810190614ed6565b6001600160a01b03811660009081526099602052604090205461163e5760405162461bcd60e51b81526004016110729061515d565b600061164960985490565b6116539047615359565b90506000611680838361167b866001600160a01b03166000908152609a602052604090205490565b613def565b90508061169f5760405162461bcd60e51b8152600401611072906151a3565b6001600160a01b0383166000908152609a6020526040812080548392906116c7908490615359565b9250508190555080609860008282546116e09190615359565b909155506116f090508382613e35565b7fdf20fd1e76bc69d672e4814fafb2c449bba3a5369d8359adf9e05e6fde87b056838260405161172192919061504b565b60405180910390a1505050565b60003361173c858285613f4e565b611747858585613c2d565b60019150505b9392505050565b60e054339034906001600160a01b0316638f6e53b782848761126c8842615359565b60df54610100900460ff166117cd5760405162461bcd60e51b815260206004820152601d60248201527f434f4e544d494e543a206d696e7420636f6e74732064697361626c65640000006044820152606401611072565b60cc548251111561181b5760405162461bcd60e51b8152602060048201526018602482015277434f4e544d494e543a20746f6f206d616e7920636f6e747360401b6044820152606401611072565b60005b82518110156118d457600383828151811061183b5761183b615477565b60200260200101515111801561186b5750602183828151811061186057611860615477565b602002602001015151105b6118c25760405162461bcd60e51b815260206004820152602260248201527f434f4e544d494e543a20696d70726f7065722063686172616374657220636f756044820152611b9d60f21b6064820152608401611072565b806118cc81615430565b91505061181e565b50338061191c5760405162461bcd60e51b8152602060048201526016602482015275434f4e544d494e543a207a65726f206164647265737360501b6044820152606401611072565b6001600160a01b038116600090815260dd602052604090205460ff16156119855760405162461bcd60e51b815260206004820152601d60248201527f434f4e544d494e543a20626c61636b6c697374656420616464726573730000006044820152606401611072565b60cf546001600160a01b038281169116148015906119b1575060d1546001600160a01b03828116911614155b80156119cb575060d0546001600160a01b03828116911614155b611a225760405162461bcd60e51b815260206004820152602260248201527f434f4e544d494e543a20706f6f6c732063616e6e6f742063726561746520636f6044820152611b9d60f21b6064820152608401611072565b6000611a2d82613fc8565b905060cb54845182611a3f9190615359565b1115611a8d5760405162461bcd60e51b815260206004820152601c60248201527f434f4e544d494e543a2072656163686564206d696e74206c696d6974000000006044820152606401611072565b835160c954604051630c75361360e31b8152600092916001600160a01b0316906363a9b09890611ac190889060040161510f565b60206040518083038186803b158015611ad957600080fd5b505afa158015611aed573d6000803e3d6000fd5b505050506040513d601f19601f82011682018060405250810190611b119190614f66565b611b1b9190615393565b90508060ce6000828254611b2f9190615359565b90915550819050611b3f8461306e565b1015611b9d5760405162461bcd60e51b815260206004820152602760248201527f434f4e544d494e543a2042616c616e636520746f6f206c6f7720666f7220637260448201526632b0ba34b7b71760c91b6064820152608401611072565b6000606460d65483611baf9190615393565b611bb99190615371565b60d954909150610100900460ff1615611c655760e054611be49085906001600160a01b031683613ff9565b60e05460cf5460d9546040516388e5249f60e01b81526001600160a01b03938416936388e5249f93611c2e9390821692620100009091049091169086906000904290600401615064565b600060405180830381600087803b158015611c4857600080fd5b505af1158015611c5c573d6000803e3d6000fd5b50505050611c7d565b60cf54611c7d9085906001600160a01b031683613ff9565b6000606460d35484611c8f9190615393565b611c999190615371565b60d154909150611cb49086906001600160a01b031683613ff9565b6000606460d45485611cc69190615393565b611cd09190615371565b60d95490915060ff1615611d775760e054611cf69087906001600160a01b031683613ff9565b60e05460d05460d9546040516388e5249f60e01b81526001600160a01b03938416936388e5249f93611d409390821692620100009091049091169086906000904290600401615064565b600060405180830381600087803b158015611d5a57600080fd5b505af1158015611d6e573d6000803e3d6000fd5b50505050611d8f565b60d054611d8f9087906001600160a01b031683613ff9565b6000606460d55486611da19190615393565b611dab9190615371565b9050611db787826141c7565b6000818385611dc6888a6153b2565b611dd091906153b2565b611dda91906153b2565b611de491906153b2565b90508015611df757611df7883083613ff9565b60c95460405162a6998d60e31b81526001600160a01b0390911690630534cc6890611e2a908b908e908e90600401615095565b600060405180830381600087803b158015611e4457600080fd5b505af1158015611e58573d6000803e3d6000fd5b505050507f120c2f36321d80f09f9d26f68f1f49b72c1964e118aa788bb9611f47e10c7eac88604051611e8b9190615037565b60405180910390a150505050505050505050565b3360008181526034602090815260408083206001600160a01b03871684529091528120549091906114f19082908690611ed9908790615359565b613ccb565b60c95460405163ce6912a360e01b81526000916001600160a01b03169063ce6912a390611f0f90859060040161510f565b60206040518083038186803b158015611f2757600080fd5b505afa158015611f3b573d6000803e3d6000fd5b505050506040513d601f19601f820116820180604052508101906114f79190614f66565b6001600160a01b039182166000908152609d6020908152604080832093909416825291909152205490565b6001600160a01b038116600090815260996020526040902054611fbf5760405162461bcd60e51b81526004016110729061515d565b6001600160a01b0382166000908152609c60205260408120546040516370a0823160e01b81526001600160a01b038516906370a0823190612004903090600401615037565b60206040518083038186803b15801561201c57600080fd5b505afa158015612030573d6000803e3d6000fd5b505050506040513d601f19601f820116820180604052508101906120549190614f66565b61205e9190615359565b90506000612071838361167b8787611f5f565b9050806120905760405162461bcd60e51b8152600401611072906151a3565b6001600160a01b038085166000908152609d60209081526040808320938716835292905290812080548392906120c7908490615359565b90915550506001600160a01b0384166000908152609c6020526040812080548392906120f4908490615359565b9091555061210590508484836141df565b836001600160a01b03167f3be5b7a71e84ed12875d241991c70855ac5817d847039e17a9d895c1ceb0f18a848360405161214092919061504b565b60405180910390a250505050565b60df54339060ff1615156001146121a75760405162461bcd60e51b815260206004820152601960248201527f43534854414c4c3a20636173686f75742064697361626c6564000000000000006044820152606401611072565b6001600160a01b0381166121f55760405162461bcd60e51b815260206004820152601560248201527443534854414c4c3a207a65726f206164647265737360581b6044820152606401611072565b6001600160a01b038116600090815260dd602052604090205460ff161561225e5760405162461bcd60e51b815260206004820152601c60248201527f43534854414c4c3a20626c61636b6c69737465642061646472657373000000006044820152606401611072565b60c9546040516330cd31af60e11b81526000916001600160a01b03169063619a635e9061228f908590600401615037565b60206040518083038186803b1580156122a757600080fd5b505afa1580156122bb573d6000803e3d6000fd5b505050506040513d601f19601f820116820180604052508101906122df9190614f66565b9050600081116123315760405162461bcd60e51b815260206004820152601960248201527f43534854414c4c3a20726577617264206e6f74207265616479000000000000006044820152606401611072565b60d8546000901561239a57606460d8548361234c9190615393565b6123569190615371565b60df5460d1549192506201000090046001600160a01b0390811691161461239a5760d15460df5461239a916001600160a01b03908116916201000090041684613c2d565b6123a481836153b2565b60d1549092506123be906001600160a01b03168484613c2d565b60c95460405163d094fa8d60e01b81526001600160a01b039091169063d094fa8d906123ee908690600401615037565b602060405180830381600087803b15801561240857600080fd5b505af115801561241c573d6000803e3d6000fd5b505050506040513d601f19601f820116820180604052508101906124409190614f66565b507f564112c0ad2fbcae1bed83c58ed5d830128565d634cdc875bb02b065ad242343836040516117219190615037565b6065546001600160a01b0316331461249a5760405162461bcd60e51b815260040161107290615225565b6001600160a01b0381166124c05760405162461bcd60e51b815260040161107290615130565b60cf80546001600160a01b0319166001600160a01b0392909216919091179055565b600054610100900460ff166124fd5760005460ff1615612501565b303b155b6125645760405162461bcd60e51b815260206004820152602e60248201527f496e697469616c697a61626c653a20636f6e747261637420697320616c72656160448201526d191e481a5b9a5d1a585b1a5e995960921b6064820152608401611072565b600054610100900460ff16158015612586576000805461ffff19166101011790555b60008551118015612598575060008451115b6125db5760405162461bcd60e51b815260206004820152601460248201527320a222291013102120a620a721a29022a92927a960611b6044820152606401611072565b6125e3614235565b612627604051806040016040528060078152602001663078426c6f636b60c81b81525060405180604001604052806003815260200162183c2160e91b815250614264565b6126318787614295565b60005b855181101561269e5761268c86828151811061265257612652615477565b602002602001015186838151811061266c5761266c615477565b6020026020010151670de0b6b3a76400006126879190615393565b6142c6565b8061269681615430565b915050612634565b5060355469d3c21bcecceda1000000146126f25760405162461bcd60e51b81526020600482015260156024820152741515130814d5541413164811125191880c48135253605a1b6044820152606401611072565b60006001600160a01b03168560018151811061271057612710615477565b60200260200101516001600160a01b03161415801561275c575060006001600160a01b03168560028151811061274857612748615477565b60200260200101516001600160a01b031614155b8015612795575060006001600160a01b03168560038151811061278157612781615477565b60200260200101516001600160a01b031614155b80156127ce575060006001600160a01b0316856004815181106127ba576127ba615477565b60200260200101516001600160a01b031614155b61280c5760405162461bcd60e51b815260206004820152600f60248201526e1413d3d30816915493c81193d55391608a1b6044820152606401611072565b83518551146128545760405162461bcd60e51b815260206004820152601460248201527320a222291013102120a620a721a29022a92927a960611b6044820152606401611072565b60008360008151811061286957612869615477565b6020026020010151118015612898575060008360018151811061288e5761288e615477565b6020026020010151115b80156128be57506000836002815181106128b4576128b4615477565b6020026020010151115b80156128e457506000836003815181106128da576128da615477565b6020026020010151115b801561290a575060008360048151811061290057612900615477565b6020026020010151115b6129465760405162461bcd60e51b815260206004820152600d60248201526c0c094811915154c81193d55391609a1b6044820152606401611072565b8460018151811061295957612959615477565b602002602001015160cf60006101000a8154816001600160a01b0302191690836001600160a01b031602179055508460028151811061299a5761299a615477565b602002602001015160d260006101000a8154816001600160a01b0302191690836001600160a01b03160217905550846003815181106129db576129db615477565b602002602001015160d060006101000a8154816001600160a01b0302191690836001600160a01b0316021790555084600481518110612a1c57612a1c615477565b602090810291909101015160d180546001600160a01b0319166001600160a01b03909216918217905560df805462010000600160b01b0319166201000090920291909117905582518390600090612a7557612a75615477565b602002602001015160d68190555082600181518110612a9657612a96615477565b602002602001015160d48190555082600281518110612ab757612ab7615477565b602002602001015160d38190555082600381518110612ad857612ad8615477565b602002602001015160d58190555082600481518110612af957612af9615477565b602002602001015160d88190555060d45460d65460d55460d354612b1d9190615359565b612b279190615359565b612b319190615359565b60d75560d98054606460cb55600a60cc5561ffff196001600160a01b038516620100000281166001600160b01b0319909216919091176101001790915560df805461010192169190911790558015612b8f576000805461ff00191690555b50505050505050565b6065546001600160a01b03163314612bc25760405162461bcd60e51b815260040161107290615225565b6001600160a01b038116612be85760405162461bcd60e51b815260040161107290615130565b60df80546001600160a01b03909216620100000262010000600160b01b0319909216919091179055565b60df54339060ff161515600114612c645760405162461bcd60e51b815260206004820152601660248201527510d4d2150e8810d85cda1bdd5d08111a5cd8589b195960521b6044820152606401611072565b6001600160a01b038116612caf5760405162461bcd60e51b8152602060048201526012602482015271435348543a207a65726f206164647265737360701b6044820152606401611072565b6001600160a01b038116600090815260dd602052604090205460ff1615612d0c5760405162461bcd60e51b815260206004820152601160248201527010d4d2150e88189b1858dadb1a5cdd1959607a1b6044820152606401611072565b60c9546040516329b8573160e21b81526000916001600160a01b03169063a6e15cc490612d3f908590879060040161504b565b60206040518083038186803b158015612d5757600080fd5b505afa158015612d6b573d6000803e3d6000fd5b505050506040513d601f19601f82011682018060405250810190612d8f9190614f66565b905060008111612dda5760405162461bcd60e51b8152602060048201526016602482015275435348543a20726577617264206e6f7420726561647960501b6044820152606401611072565b60d85460009015612eec57606460d85483612df59190615393565b612dff9190615371565b60e054909150600160a01b900460ff1615612eb05760e054612e2c9084906001600160a01b031683613ff9565b60e05460df5460d9546040516388e5249f60e01b81526001600160a01b03938416936388e5249f93612e799362010000918290048316939190049091169086906000904290600401615064565b600060405180830381600087803b158015612e9357600080fd5b505af1158015612ea7573d6000803e3d6000fd5b50505050612eec565b60d15460df546201000090046001600160a01b03908116911614612eec5760df54612eec9084906201000090046001600160a01b031683613ff9565b612ef681836153b2565b60d154909250612f10906001600160a01b03168484613c2d565b60c95460405163611015b360e11b81526001600160a01b039091169063c2202b6690612f42908690889060040161504b565b602060405180830381600087803b158015612f5c57600080fd5b505af1158015612f70573d6000803e3d6000fd5b505050506040513d601f19601f82011682018060405250810190612f949190614f66565b507f39f6d68d140e552a327d43ef814649947d78e76743e169e4f00d61b14f2f846d8385604051612fc692919061504b565b60405180910390a150505050565b6065546001600160a01b03163314612ffe5760405162461bcd60e51b815260040161107290615225565b606481111561304f5760405162461bcd60e51b815260206004820152601c60248201527f464545533a20636173686f757420657863656564696e672031303025000000006044820152606401611072565b60d855565b60c9546060906001600160a01b03166377ec782633611599565b6001600160a01b031660009081526033602052604090205490565b6065546001600160a01b031633146130b35760405162461bcd60e51b815260040161107290615225565b6130bd60006143a5565b565b6065546001600160a01b031633146130e95760405162461bcd60e51b815260040161107290615225565b6001600160a01b03811661310f5760405162461bcd60e51b815260040161107290615130565b60d080546001600160a01b0319166001600160a01b0392909216919091179055565b60c9546060906001600160a01b0316638bf1451433611599565b6065546001600160a01b031633146131755760405162461bcd60e51b815260040161107290615225565b60d980549115156101000261ff0019909216919091179055565b60c9546060906001600160a01b031663f743f31933611599565b6000609b82815481106131be576131be615477565b6000918252602090912001546001600160a01b031692915050565b6065546001600160a01b031633146132035760405162461bcd60e51b815260040161107290615225565b6001600160a01b03811661324e5760405162461bcd60e51b81526020600482015260126024820152712722abafa1a9269d103d32b9379030b2323960711b6044820152606401611072565b60c980546001600160a01b0319166001600160a01b0392909216919091179055565b6065546001600160a01b0316331461329a5760405162461bcd60e51b815260040161107290615225565b60008160d45460d65460d3546132b09190615359565b6132ba9190615359565b6132c49190615359565b905060648111156132e75760405162461bcd60e51b81526004016110729061525a565b60d59190915560d755565b60c9546060906001600160a01b03166351bf120c33611599565b6065546001600160a01b031633146133365760405162461bcd60e51b815260040161107290615225565b60df80549115156101000261ff0019909216919091179055565b60606037805461116f906153f5565b6065546001600160a01b031633146133895760405162461bcd60e51b815260040161107290615225565b60008160d65460d55460d35461339f9190615359565b6133a99190615359565b6133b39190615359565b905060648111156133d65760405162461bcd60e51b81526004016110729061525a565b60d49190915560d755565b60c9546060906001600160a01b031663367fd07433611599565b6040516370a0823160e01b81523390859084906001600160a01b038316906370a082319061342d908690600401615037565b60206040518083038186803b15801561344557600080fd5b505afa158015613459573d6000803e3d6000fd5b505050506040513d601f19601f8201168201806040525081019061347d9190614f66565b101561349b5760405162461bcd60e51b8152600401611072906151ee565b60e0546040516323b872dd60e01b81526001600160a01b038481166004830152918216602482015260448101869052908216906323b872dd90606401602060405180830381600087803b1580156134f157600080fd5b505af1158015613505573d6000803e3d6000fd5b505050506040513d601f19601f820116820180604052508101906135299190614e9e565b5060e0546001600160a01b03166374cefd8a838888886114078942615359565b6065546001600160a01b031633146135735760405162461bcd60e51b815260040161107290615225565b60d9805460ff1916911515919091179055565b3360008181526034602090815260408083206001600160a01b03871684529091528120549091908381101561360b5760405162461bcd60e51b815260206004820152602560248201527f45524332303a2064656372656173656420616c6c6f77616e63652062656c6f77604482015264207a65726f60d81b6064820152608401611072565b6136188286868403613ccb565b506001949350505050565b6000336114f1818585613c2d565b6065546001600160a01b0316331461365b5760405162461bcd60e51b815260040161107290615225565b6001600160a01b0381166136a75760405162461bcd60e51b81526020600482015260136024820152722722abafaaa9a2219d103d32b9379030b2323960691b6044820152606401611072565b60d980546001600160a01b03909216620100000262010000600160b01b0319909216919091179055565b6065546001600160a01b031633146136fb5760405162461bcd60e51b815260040161107290615225565b60df805460ff1916911515919091179055565b6065546001600160a01b031633146137385760405162461bcd60e51b815260040161107290615225565b60e08054911515600160a01b0260ff60a01b19909216919091179055565b6065546001600160a01b031633146137805760405162461bcd60e51b815260040161107290615225565b6001600160a01b0381166137cf5760405162461bcd60e51b81526020600482015260166024820152752722abafa62927aaaa22a91d103d32b9379030b2323960511b6044820152606401611072565b60e080546001600160a01b0319166001600160a01b0392909216919091179055565b6065546001600160a01b0316331461381b5760405162461bcd60e51b815260040161107290615225565b6001600160a01b0381166138415760405162461bcd60e51b815260040161107290615130565b60d180546001600160a01b0319166001600160a01b0392909216919091179055565b6065546001600160a01b0316331461388d5760405162461bcd60e51b815260040161107290615225565b6138963061306e565b8111156138f65760405162461bcd60e51b815260206004820152602860248201527f534156455f4d495353454e543a20746f6b656e732065786365656420616464726044820152672062616c616e636560c01b6064820152608401611072565b6001600160a01b03821661394c5760405162461bcd60e51b815260206004820152601a60248201527f534156455f4d495353454e543a207a65726f5f616464726573730000000000006044820152606401611072565b613957308383613c2d565b5050565b600081600281111561396f5761396f615461565b60c95460405163ce6912a360e01b81526001600160a01b039091169063ce6912a39061399f90869060040161510f565b60206040518083038186803b1580156139b757600080fd5b505afa1580156139cb573d6000803e3d6000fd5b505050506040513d601f19601f820116820180604052508101906139ef9190614f66565b6114f79190615359565b6001600160a01b03918216600090815260346020908152604080832093909416825291909152205490565b60c9546060906001600160a01b03166328cceb2433611599565b6065546001600160a01b03163314613a685760405162461bcd60e51b815260040161107290615225565b6001600160a01b038116613a8e5760405162461bcd60e51b815260040161107290615130565b60d280546001600160a01b0319166001600160a01b0392909216919091179055565b3383613abb8261306e565b1015613ad95760405162461bcd60e51b8152600401611072906151ee565b60e054613af19082906001600160a01b031686613c2d565b60e0546001600160a01b03166388e5249f828787876110b28842615359565b6065546001600160a01b03163314613b3a5760405162461bcd60e51b815260040161107290615225565b6001600160a01b038116613b9f5760405162461bcd60e51b815260206004820152602660248201527f4f776e61626c653a206e6577206f776e657220697320746865207a65726f206160448201526564647265737360d01b6064820152608401611072565b613ba8816143a5565b50565b6065546001600160a01b03163314613bd55760405162461bcd60e51b815260040161107290615225565b60008160d45460d55460d354613beb9190615359565b613bf59190615359565b613bff9190615359565b90506064811115613c225760405162461bcd60e51b81526004016110729061525a565b60d69190915560d755565b6001600160a01b038316600090815260dd602052604090205460ff16158015613c6f57506001600160a01b038216600090815260dd602052604090205460ff16155b613cbb5760405162461bcd60e51b815260206004820152601a60248201527f45524332303a20426c61636b6c697374656420616464726573730000000000006044820152606401611072565b613cc6838383613ff9565b505050565b6001600160a01b038316613d2d5760405162461bcd60e51b8152602060048201526024808201527f45524332303a20617070726f76652066726f6d20746865207a65726f206164646044820152637265737360e01b6064820152608401611072565b6001600160a01b038216613d8e5760405162461bcd60e51b815260206004820152602260248201527f45524332303a20617070726f766520746f20746865207a65726f206164647265604482015261737360f01b6064820152608401611072565b6001600160a01b0383811660008181526034602090815260408083209487168084529482529182902085905590518481527f8c5be1e5ebec7d5bd14f71427d1e84f3dd0314c0f7b2291e5b200ac8c7c3b925910160405180910390a3505050565b6097546001600160a01b03841660009081526099602052604081205490918391613e199086615393565b613e239190615371565b613e2d91906153b2565b949350505050565b80471015613e855760405162461bcd60e51b815260206004820152601d60248201527f416464726573733a20696e73756666696369656e742062616c616e63650000006044820152606401611072565b6000826001600160a01b03168260405160006040518083038185875af1925050503d8060008114613ed2576040519150601f19603f3d011682016040523d82523d6000602084013e613ed7565b606091505b5050905080613cc65760405162461bcd60e51b815260206004820152603a60248201527f416464726573733a20756e61626c6520746f2073656e642076616c75652c207260448201527f6563697069656e74206d617920686176652072657665727465640000000000006064820152608401611072565b6000613f5a84846139f9565b90506000198114613fc25781811015613fb55760405162461bcd60e51b815260206004820152601d60248201527f45524332303a20696e73756666696369656e7420616c6c6f77616e63650000006044820152606401611072565b613fc28484848403613ccb565b50505050565b60c9546040516344fea1b960e01b81526000916001600160a01b0316906344fea1b990611f0f908590600401615037565b6001600160a01b03831661405d5760405162461bcd60e51b815260206004820152602560248201527f45524332303a207472616e736665722066726f6d20746865207a65726f206164604482015264647265737360d81b6064820152608401611072565b6001600160a01b0382166140bf5760405162461bcd60e51b815260206004820152602360248201527f45524332303a207472616e7366657220746f20746865207a65726f206164647260448201526265737360e81b6064820152608401611072565b6001600160a01b038316600090815260336020526040902054818110156141375760405162461bcd60e51b815260206004820152602660248201527f45524332303a207472616e7366657220616d6f756e7420657863656564732062604482015265616c616e636560d01b6064820152608401611072565b6001600160a01b0380851660009081526033602052604080822085850390559185168152908120805484929061416e908490615359565b92505081905550826001600160a01b0316846001600160a01b03167fddf252ad1be2c89b69c2b068fc378daa952ba7f163c4a11628f55a4df523b3ef846040516141ba91815260200190565b60405180910390a3613fc2565b60d2546139579083906001600160a01b031683613ff9565b613cc68363a9059cbb60e01b84846040516024016141fe92919061504b565b60408051601f198184030181529190526020810180516001600160e01b03166001600160e01b0319909316929092179091526143f7565b600054610100900460ff1661425c5760405162461bcd60e51b815260040161107290615291565b6130bd6144c9565b600054610100900460ff1661428b5760405162461bcd60e51b815260040161107290615291565b61395782826144f9565b600054610100900460ff166142bc5760405162461bcd60e51b815260040161107290615291565b6139578282614547565b6001600160a01b03821661431c5760405162461bcd60e51b815260206004820152601f60248201527f45524332303a206d696e7420746f20746865207a65726f2061646472657373006044820152606401611072565b806035600082825461432e9190615359565b90915550506001600160a01b0382166000908152603360205260408120805483929061435b908490615359565b90915550506040518181526001600160a01b038316906000907fddf252ad1be2c89b69c2b068fc378daa952ba7f163c4a11628f55a4df523b3ef9060200160405180910390a35050565b606580546001600160a01b038381166001600160a01b0319831681179093556040519116919082907f8be0079c531659141344cd1fd0a4f28419497f9722a3daafe3b4186f6b6457e090600090a35050565b600061444c826040518060400160405280602081526020017f5361666545524332303a206c6f772d6c6576656c2063616c6c206661696c6564815250856001600160a01b03166146859092919063ffffffff16565b805190915015613cc6578080602001905181019061446a9190614e9e565b613cc65760405162461bcd60e51b815260206004820152602a60248201527f5361666545524332303a204552433230206f7065726174696f6e20646964206e6044820152691bdd081cdd58d8d9595960b21b6064820152608401611072565b600054610100900460ff166144f05760405162461bcd60e51b815260040161107290615291565b6130bd336143a5565b600054610100900460ff166145205760405162461bcd60e51b815260040161107290615291565b81516145339060369060208501906149dc565b508051613cc69060379060208401906149dc565b600054610100900460ff1661456e5760405162461bcd60e51b815260040161107290615291565b80518251146145da5760405162461bcd60e51b815260206004820152603260248201527f5061796d656e7453706c69747465723a2070617965657320616e6420736861726044820152710cae640d8cadccee8d040dad2e6dac2e8c6d60731b6064820152608401611072565b600082511161462b5760405162461bcd60e51b815260206004820152601a60248201527f5061796d656e7453706c69747465723a206e6f207061796565730000000000006044820152606401611072565b60005b8251811015613cc65761467383828151811061464c5761464c615477565b602002602001015183838151811061466657614666615477565b6020026020010151614694565b8061467d81615430565b91505061462e565b6060613e2d8484600085614872565b6001600160a01b0382166146ff5760405162461bcd60e51b815260206004820152602c60248201527f5061796d656e7453706c69747465723a206163636f756e74206973207468652060448201526b7a65726f206164647265737360a01b6064820152608401611072565b6000811161474f5760405162461bcd60e51b815260206004820152601d60248201527f5061796d656e7453706c69747465723a207368617265732061726520300000006044820152606401611072565b6001600160a01b038216600090815260996020526040902054156147c95760405162461bcd60e51b815260206004820152602b60248201527f5061796d656e7453706c69747465723a206163636f756e7420616c726561647960448201526a206861732073686172657360a81b6064820152608401611072565b609b8054600181019091557fbba9db4cdbea0a37c207bbb83e20f828cd4441c49891101dc94fd20dc8efc3490180546001600160a01b0319166001600160a01b0384169081179091556000908152609960205260409020819055609754614831908290615359565b6097556040517f40c340f65e17194d14ddddb073d3c9f888e3cb52b5aae0c6c7706b4fbc905fac90614866908490849061504b565b60405180910390a15050565b6060824710156148d35760405162461bcd60e51b815260206004820152602660248201527f416464726573733a20696e73756666696369656e742062616c616e636520666f6044820152651c8818d85b1b60d21b6064820152608401611072565b6001600160a01b0385163b61492a5760405162461bcd60e51b815260206004820152601d60248201527f416464726573733a2063616c6c20746f206e6f6e2d636f6e74726163740000006044820152606401611072565b600080866001600160a01b03168587604051614946919061501b565b60006040518083038185875af1925050503d8060008114614983576040519150601f19603f3d011682016040523d82523d6000602084013e614988565b606091505b50915091506149988282866149a3565b979650505050505050565b606083156149b257508161174d565b8251156149c25782518084602001fd5b8160405162461bcd60e51b8152600401611072919061511d565b8280546149e8906153f5565b90600052602060002090601f016020900481019282614a0a5760008555614a50565b82601f10614a2357805160ff1916838001178555614a50565b82800160010185558215614a50579182015b82811115614a50578251825591602001919060010190614a35565b50614a5c929150614a60565b5090565b5b80821115614a5c5760008155600101614a61565b8035614a80816154a3565b919050565b600082601f830112614a9657600080fd5b81356020614aab614aa68361530d565b6152dc565b80838252828201915082860187848660051b8901011115614acb57600080fd5b60005b85811015614af3578135614ae1816154a3565b84529284019290840190600101614ace565b5090979650505050505050565b600082601f830112614b1157600080fd5b81356020614b21614aa68361530d565b80838252828201915082860187848660051b8901011115614b4157600080fd5b60005b85811015614af357813584529284019290840190600101614b44565b803560038110614a8057600080fd5b600060208284031215614b8157600080fd5b813561174d816154a3565b60008060408385031215614b9f57600080fd5b8235614baa816154a3565b91506020830135614bba816154a3565b809150509250929050565b600080600060608486031215614bda57600080fd5b8335614be5816154a3565b92506020840135614bf5816154a3565b929592945050506040919091013590565b60008060408385031215614c1957600080fd5b8235614c24816154a3565b91506020830135614bba816154b8565b60008060408385031215614c4757600080fd5b8235614c52816154a3565b946020939093013593505050565b60008060008060808587031215614c7657600080fd5b8435614c81816154a3565b966020860135965060408601359560600135945092505050565b60008060008060008060c08789031215614cb457600080fd5b863567ffffffffffffffff80821115614ccc57600080fd5b614cd88a838b01614a85565b97506020890135915080821115614cee57600080fd5b614cfa8a838b01614b00565b96506040890135915080821115614d1057600080fd5b614d1c8a838b01614a85565b95506060890135915080821115614d3257600080fd5b614d3e8a838b01614b00565b94506080890135915080821115614d5457600080fd5b50614d6189828a01614b00565b925050614d7060a08801614a75565b90509295509295509295565b6000806040808486031215614d9057600080fd5b833567ffffffffffffffff80821115614da857600080fd5b818601915086601f830112614dbc57600080fd5b81356020614dcc614aa68361530d565b8083825282820191508286018b848660051b8901011115614dec57600080fd5b60005b85811015614e6157813587811115614e0657600080fd5b8801603f81018e13614e1757600080fd5b85810135614e27614aa682615331565b8181528f8c838501011115614e3b57600080fd5b818c84018983013760009181018801919091528552509284019290840190600101614def565b50508098505050614e73818901614b60565b955050505050509250929050565b600060208284031215614e9357600080fd5b813561174d816154b8565b600060208284031215614eb057600080fd5b815161174d816154b8565b600060208284031215614ecd57600080fd5b61174d82614b60565b600060208284031215614ee857600080fd5b815167ffffffffffffffff811115614eff57600080fd5b8201601f81018413614f1057600080fd5b8051614f1e614aa682615331565b818152856020838501011115614f3357600080fd5b614f448260208301602086016153c9565b95945050505050565b600060208284031215614f5f57600080fd5b5035919050565b600060208284031215614f7857600080fd5b5051919050565b60008060408385031215614f9257600080fd5b50508035926020909101359150565b600080600060608486031215614fb657600080fd5b505081359360208301359350604090920135919050565b60038110614feb57634e487b7160e01b600052602160045260246000fd5b9052565b600081518084526150078160208601602086016153c9565b601f01601f19169290920160200192915050565b6000825161502d8184602087016153c9565b9190910192915050565b6001600160a01b0391909116815260200190565b6001600160a01b03929092168252602082015260400190565b6001600160a01b03958616815293909416602084015260408301919091526060820152608081019190915260a00190565b60006060820160018060a01b0386168352602060608185015281865180845260808601915060808160051b870101935082880160005b828110156150f957607f198887030184526150e7868351614fef565b955092840192908401906001016150cb565b505050505080915050613e2d6040830184614fcd565b602081016114f78284614fcd565b60208152600061174d6020830184614fef565b6020808252601390820152722aa8222faba0a6261d103d32b9379030b2323960691b604082015260600190565b60208082526026908201527f5061796d656e7453706c69747465723a206163636f756e7420686173206e6f2060408201526573686172657360d01b606082015260800190565b6020808252602b908201527f5061796d656e7453706c69747465723a206163636f756e74206973206e6f742060408201526a191d59481c185e5b595b9d60aa1b606082015260800190565b6020808252601a908201527f535741503a20696e73756666696369656e742062616c616e6365000000000000604082015260600190565b6020808252818101527f4f776e61626c653a2063616c6c6572206973206e6f7420746865206f776e6572604082015260600190565b6020808252601a908201527f464545533a20746f74616c20657863656564696e672031303025000000000000604082015260600190565b6020808252602b908201527f496e697469616c697a61626c653a20636f6e7472616374206973206e6f74206960408201526a6e697469616c697a696e6760a81b606082015260800190565b604051601f8201601f1916810167ffffffffffffffff811182821017156153055761530561548d565b604052919050565b600067ffffffffffffffff8211156153275761532761548d565b5060051b60200190565b600067ffffffffffffffff82111561534b5761534b61548d565b50601f01601f191660200190565b6000821982111561536c5761536c61544b565b500190565b60008261538e57634e487b7160e01b600052601260045260246000fd5b500490565b60008160001904831182151516156153ad576153ad61544b565b500290565b6000828210156153c4576153c461544b565b500390565b60005b838110156153e45781810151838201526020016153cc565b83811115613fc25750506000910152565b600181811c9082168061540957607f821691505b6020821081141561542a57634e487b7160e01b600052602260045260246000fd5b50919050565b60006000198214156154445761544461544b565b5060010190565b634e487b7160e01b600052601160045260246000fd5b634e487b7160e01b600052602160045260246000fd5b634e487b7160e01b600052603260045260246000fd5b634e487b7160e01b600052604160045260246000fd5b6001600160a01b0381168114613ba857600080fd5b8015158114613ba857600080fdfea164736f6c6343000807000a",
  "devdoc": {
    "kind": "dev",
    "methods": {
      "allowance(address,address)": {
        "details": "See {IERC20-allowance}."
      },
      "approve(address,uint256)": {
        "details": "See {IERC20-approve}. NOTE: If `amount` is the maximum `uint256`, the allowance is not updated on `transferFrom`. This is semantically equivalent to an infinite approval. Requirements: - `spender` cannot be the zero address."
      },
      "balanceOf(address)": {
        "details": "See {IERC20-balanceOf}."
      },
      "decimals()": {
        "details": "Returns the number of decimals used to get its user representation. For example, if `decimals` equals `2`, a balance of `505` tokens should be displayed to a user as `5.05` (`505 / 10 ** 2`). Tokens usually opt for a value of 18, imitating the relationship between Ether and Wei. This is the value {ERC20} uses, unless this function is overridden; NOTE: This information is only used for _display_ purposes: it in no way affects any of the arithmetic of the contract, including {IERC20-balanceOf} and {IERC20-transfer}."
      },
      "decreaseAllowance(address,uint256)": {
        "details": "Atomically decreases the allowance granted to `spender` by the caller. This is an alternative to {approve} that can be used as a mitigation for problems described in {IERC20-approve}. Emits an {Approval} event indicating the updated allowance. Requirements: - `spender` cannot be the zero address. - `spender` must have allowance for the caller of at least `subtractedValue`."
      },
      "increaseAllowance(address,uint256)": {
        "details": "Atomically increases the allowance granted to `spender` by the caller. This is an alternative to {approve} that can be used as a mitigation for problems described in {IERC20-approve}. Emits an {Approval} event indicating the updated allowance. Requirements: - `spender` cannot be the zero address."
      },
      "name()": {
        "details": "Returns the name of the token."
      },
      "owner()": {
        "details": "Returns the address of the current owner."
      },
      "payee(uint256)": {
        "details": "Getter for the address of the payee number `index`."
      },
      "release(address)": {
        "details": "Triggers a transfer to `account` of the amount of Ether they are owed, according to their percentage of the total shares and their previous withdrawals."
      },
      "release(address,address)": {
        "details": "Triggers a transfer to `account` of the amount of `token` tokens they are owed, according to their percentage of the total shares and their previous withdrawals. `token` must be the address of an IERC20 contract."
      },
      "released(address)": {
        "details": "Getter for the amount of Ether already released to a payee."
      },
      "released(address,address)": {
        "details": "Getter for the amount of `token` tokens already released to a payee. `token` should be the address of an IERC20 contract."
      },
      "renounceOwnership()": {
        "details": "Leaves the contract without owner. It will not be possible to call `onlyOwner` functions anymore. Can only be called by the current owner. NOTE: Renouncing ownership will leave the contract without an owner, thereby removing any functionality that is only available to the owner."
      },
      "shares(address)": {
        "details": "Getter for the amount of shares held by an account."
      },
      "symbol()": {
        "details": "Returns the symbol of the token, usually a shorter version of the name."
      },
      "totalReleased()": {
        "details": "Getter for the total amount of Ether already released."
      },
      "totalReleased(address)": {
        "details": "Getter for the total amount of `token` already released. `token` should be the address of an IERC20 contract."
      },
      "totalShares()": {
        "details": "Getter for the total shares held by payees."
      },
      "totalSupply()": {
        "details": "See {IERC20-totalSupply}."
      },
      "transfer(address,uint256)": {
        "details": "See {IERC20-transfer}. Requirements: - `to` cannot be the zero address. - the caller must have a balance of at least `amount`."
      },
      "transferFrom(address,address,uint256)": {
        "details": "See {IERC20-transferFrom}. Emits an {Approval} event indicating the updated allowance. This is not required by the EIP. See the note at the beginning of {ERC20}. NOTE: Does not update the allowance if the current allowance is the maximum `uint256`. Requirements: - `from` and `to` cannot be the zero address. - `from` must have a balance of at least `amount`. - the caller must have allowance for ``from``'s tokens of at least `amount`."
      },
      "transferOwnership(address)": {
        "details": "Transfers ownership of the contract to a new account (`newOwner`). Can only be called by the current owner."
      }
    },
    "version": 1
  },
  "userdoc": {
    "kind": "user",
    "methods": {},
    "version": 1
  },
  "storageLayout": {
    "storage": [
      {
        "astId": 598,
        "contract": "contracts/ZeroXBlock.sol:ZeroXBlock",
        "label": "_initialized",
        "offset": 0,
        "slot": "0",
        "type": "t_bool"
      },
      {
        "astId": 601,
        "contract": "contracts/ZeroXBlock.sol:ZeroXBlock",
        "label": "_initializing",
        "offset": 1,
        "slot": "0",
        "type": "t_bool"
      },
      {
        "astId": 1889,
        "contract": "contracts/ZeroXBlock.sol:ZeroXBlock",
        "label": "__gap",
        "offset": 0,
        "slot": "1",
        "type": "t_array(t_uint256)50_storage"
      },
      {
        "astId": 684,
        "contract": "contracts/ZeroXBlock.sol:ZeroXBlock",
        "label": "_balances",
        "offset": 0,
        "slot": "51",
        "type": "t_mapping(t_address,t_uint256)"
      },
      {
        "astId": 690,
        "contract": "contracts/ZeroXBlock.sol:ZeroXBlock",
        "label": "_allowances",
        "offset": 0,
        "slot": "52",
        "type": "t_mapping(t_address,t_mapping(t_address,t_uint256))"
      },
      {
        "astId": 692,
        "contract": "contracts/ZeroXBlock.sol:ZeroXBlock",
        "label": "_totalSupply",
        "offset": 0,
        "slot": "53",
        "type": "t_uint256"
      },
      {
        "astId": 694,
        "contract": "contracts/ZeroXBlock.sol:ZeroXBlock",
        "label": "_name",
        "offset": 0,
        "slot": "54",
        "type": "t_string_storage"
      },
      {
        "astId": 696,
        "contract": "contracts/ZeroXBlock.sol:ZeroXBlock",
        "label": "_symbol",
        "offset": 0,
        "slot": "55",
        "type": "t_string_storage"
      },
      {
        "astId": 1277,
        "contract": "contracts/ZeroXBlock.sol:ZeroXBlock",
        "label": "__gap",
        "offset": 0,
        "slot": "56",
        "type": "t_array(t_uint256)45_storage"
      },
      {
        "astId": 10,
        "contract": "contracts/ZeroXBlock.sol:ZeroXBlock",
        "label": "_owner",
        "offset": 0,
        "slot": "101",
        "type": "t_address"
      },
      {
        "astId": 122,
        "contract": "contracts/ZeroXBlock.sol:ZeroXBlock",
        "label": "__gap",
        "offset": 0,
        "slot": "102",
        "type": "t_array(t_uint256)49_storage"
      },
      {
        "astId": 163,
        "contract": "contracts/ZeroXBlock.sol:ZeroXBlock",
        "label": "_totalShares",
        "offset": 0,
        "slot": "151",
        "type": "t_uint256"
      },
      {
        "astId": 165,
        "contract": "contracts/ZeroXBlock.sol:ZeroXBlock",
        "label": "_totalReleased",
        "offset": 0,
        "slot": "152",
        "type": "t_uint256"
      },
      {
        "astId": 169,
        "contract": "contracts/ZeroXBlock.sol:ZeroXBlock",
        "label": "_shares",
        "offset": 0,
        "slot": "153",
        "type": "t_mapping(t_address,t_uint256)"
      },
      {
        "astId": 173,
        "contract": "contracts/ZeroXBlock.sol:ZeroXBlock",
        "label": "_released",
        "offset": 0,
        "slot": "154",
        "type": "t_mapping(t_address,t_uint256)"
      },
      {
        "astId": 176,
        "contract": "contracts/ZeroXBlock.sol:ZeroXBlock",
        "label": "_payees",
        "offset": 0,
        "slot": "155",
        "type": "t_array(t_address)dyn_storage"
      },
      {
        "astId": 181,
        "contract": "contracts/ZeroXBlock.sol:ZeroXBlock",
        "label": "_erc20TotalReleased",
        "offset": 0,
        "slot": "156",
        "type": "t_mapping(t_contract(IERC20Upgradeable)1356,t_uint256)"
      },
      {
        "astId": 188,
        "contract": "contracts/ZeroXBlock.sol:ZeroXBlock",
        "label": "_erc20Released",
        "offset": 0,
        "slot": "157",
        "type": "t_mapping(t_contract(IERC20Upgradeable)1356,t_mapping(t_address,t_uint256))"
      },
      {
        "astId": 590,
        "contract": "contracts/ZeroXBlock.sol:ZeroXBlock",
        "label": "__gap",
        "offset": 0,
        "slot": "158",
        "type": "t_array(t_uint256)43_storage"
      },
      {
        "astId": 2586,
        "contract": "contracts/ZeroXBlock.sol:ZeroXBlock",
        "label": "_crm",
        "offset": 0,
        "slot": "201",
        "type": "t_contract(CONTRewardManagement)6417"
      },
      {
        "astId": 2589,
        "contract": "contracts/ZeroXBlock.sol:ZeroXBlock",
        "label": "uniswapV2Router",
        "offset": 0,
        "slot": "202",
        "type": "t_contract(IJoeRouter02)8131"
      },
      {
        "astId": 2594,
        "contract": "contracts/ZeroXBlock.sol:ZeroXBlock",
        "label": "ownedContsLimit",
        "offset": 0,
        "slot": "203",
        "type": "t_uint256"
      },
      {
        "astId": 2596,
        "contract": "contracts/ZeroXBlock.sol:ZeroXBlock",
        "label": "mintContLimit",
        "offset": 0,
        "slot": "204",
        "type": "t_uint256"
      },
      {
        "astId": 2598,
        "contract": "contracts/ZeroXBlock.sol:ZeroXBlock",
        "label": "uniswapV2Pair",
        "offset": 0,
        "slot": "205",
        "type": "t_address"
      },
      {
        "astId": 2600,
        "contract": "contracts/ZeroXBlock.sol:ZeroXBlock",
        "label": "totalTokensPaidForMinting",
        "offset": 0,
        "slot": "206",
        "type": "t_uint256"
      },
      {
        "astId": 2602,
        "contract": "contracts/ZeroXBlock.sol:ZeroXBlock",
        "label": "developmentFundPool",
        "offset": 0,
        "slot": "207",
        "type": "t_address"
      },
      {
        "astId": 2604,
        "contract": "contracts/ZeroXBlock.sol:ZeroXBlock",
        "label": "treasuryPool",
        "offset": 0,
        "slot": "208",
        "type": "t_address"
      },
      {
        "astId": 2606,
        "contract": "contracts/ZeroXBlock.sol:ZeroXBlock",
        "label": "rewardsPool",
        "offset": 0,
        "slot": "209",
        "type": "t_address"
      },
      {
        "astId": 2608,
        "contract": "contracts/ZeroXBlock.sol:ZeroXBlock",
        "label": "liquidityPool",
        "offset": 0,
        "slot": "210",
        "type": "t_address"
      },
      {
        "astId": 2610,
        "contract": "contracts/ZeroXBlock.sol:ZeroXBlock",
        "label": "rewardsFee",
        "offset": 0,
        "slot": "211",
        "type": "t_uint256"
      },
      {
        "astId": 2612,
        "contract": "contracts/ZeroXBlock.sol:ZeroXBlock",
        "label": "treasuryFee",
        "offset": 0,
        "slot": "212",
        "type": "t_uint256"
      },
      {
        "astId": 2614,
        "contract": "contracts/ZeroXBlock.sol:ZeroXBlock",
        "label": "liquidityPoolFee",
        "offset": 0,
        "slot": "213",
        "type": "t_uint256"
      },
      {
        "astId": 2616,
        "contract": "contracts/ZeroXBlock.sol:ZeroXBlock",
        "label": "developmentFee",
        "offset": 0,
        "slot": "214",
        "type": "t_uint256"
      },
      {
        "astId": 2618,
        "contract": "contracts/ZeroXBlock.sol:ZeroXBlock",
        "label": "totalFees",
        "offset": 0,
        "slot": "215",
        "type": "t_uint256"
      },
      {
        "astId": 2620,
        "contract": "contracts/ZeroXBlock.sol:ZeroXBlock",
        "label": "cashoutFee",
        "offset": 0,
        "slot": "216",
        "type": "t_uint256"
      },
      {
        "astId": 2622,
        "contract": "contracts/ZeroXBlock.sol:ZeroXBlock",
        "label": "enableAutoSwapTreasury",
        "offset": 0,
        "slot": "217",
        "type": "t_bool"
      },
      {
        "astId": 2624,
        "contract": "contracts/ZeroXBlock.sol:ZeroXBlock",
        "label": "enableAutoSwapDevFund",
        "offset": 1,
        "slot": "217",
        "type": "t_bool"
      },
      {
        "astId": 2626,
        "contract": "contracts/ZeroXBlock.sol:ZeroXBlock",
        "label": "usdcToken",
        "offset": 2,
        "slot": "217",
        "type": "t_address"
      },
      {
        "astId": 2628,
        "contract": "contracts/ZeroXBlock.sol:ZeroXBlock",
        "label": "antiBotEnabled",
        "offset": 22,
        "slot": "217",
        "type": "t_bool"
      },
      {
        "astId": 2630,
        "contract": "contracts/ZeroXBlock.sol:ZeroXBlock",
        "label": "launchBuyLimit",
        "offset": 0,
        "slot": "218",
        "type": "t_uint256"
      },
      {
        "astId": 2632,
        "contract": "contracts/ZeroXBlock.sol:ZeroXBlock",
        "label": "launchBuyTimeout",
        "offset": 0,
        "slot": "219",
        "type": "t_uint256"
      },
      {
        "astId": 2636,
        "contract": "contracts/ZeroXBlock.sol:ZeroXBlock",
        "label": "_lastBuyOnLaunch",
        "offset": 0,
        "slot": "220",
        "type": "t_mapping(t_address,t_uint256)"
      },
      {
        "astId": 2640,
        "contract": "contracts/ZeroXBlock.sol:ZeroXBlock",
        "label": "_isBlacklisted",
        "offset": 0,
        "slot": "221",
        "type": "t_mapping(t_address,t_bool)"
      },
      {
        "astId": 2644,
        "contract": "contracts/ZeroXBlock.sol:ZeroXBlock",
        "label": "automatedMarketMakerPairs",
        "offset": 0,
        "slot": "222",
        "type": "t_mapping(t_address,t_bool)"
      },
      {
        "astId": 2646,
        "contract": "contracts/ZeroXBlock.sol:ZeroXBlock",
        "label": "enableCashout",
        "offset": 0,
        "slot": "223",
        "type": "t_bool"
      },
      {
        "astId": 2648,
        "contract": "contracts/ZeroXBlock.sol:ZeroXBlock",
        "label": "enableMintConts",
        "offset": 1,
        "slot": "223",
        "type": "t_bool"
      },
      {
        "astId": 2650,
        "contract": "contracts/ZeroXBlock.sol:ZeroXBlock",
        "label": "cashoutTaxPool",
        "offset": 2,
        "slot": "223",
        "type": "t_address"
      },
      {
        "astId": 2653,
        "contract": "contracts/ZeroXBlock.sol:ZeroXBlock",
        "label": "_liqRouter",
        "offset": 0,
        "slot": "224",
        "type": "t_contract(LiquidityRouter)7662"
      },
      {
        "astId": 2655,
        "contract": "contracts/ZeroXBlock.sol:ZeroXBlock",
        "label": "enableAutoSwapCashout",
        "offset": 20,
        "slot": "224",
        "type": "t_bool"
      }
    ],
    "types": {
      "t_address": {
        "encoding": "inplace",
        "label": "address",
        "numberOfBytes": "20"
      },
      "t_array(t_address)dyn_storage": {
        "base": "t_address",
        "encoding": "dynamic_array",
        "label": "address[]",
        "numberOfBytes": "32"
      },
      "t_array(t_uint256)43_storage": {
        "base": "t_uint256",
        "encoding": "inplace",
        "label": "uint256[43]",
        "numberOfBytes": "1376"
      },
      "t_array(t_uint256)45_storage": {
        "base": "t_uint256",
        "encoding": "inplace",
        "label": "uint256[45]",
        "numberOfBytes": "1440"
      },
      "t_array(t_uint256)49_storage": {
        "base": "t_uint256",
        "encoding": "inplace",
        "label": "uint256[49]",
        "numberOfBytes": "1568"
      },
      "t_array(t_uint256)50_storage": {
        "base": "t_uint256",
        "encoding": "inplace",
        "label": "uint256[50]",
        "numberOfBytes": "1600"
      },
      "t_bool": {
        "encoding": "inplace",
        "label": "bool",
        "numberOfBytes": "1"
      },
      "t_contract(CONTRewardManagement)6417": {
        "encoding": "inplace",
        "label": "contract CONTRewardManagement",
        "numberOfBytes": "20"
      },
      "t_contract(IERC20Upgradeable)1356": {
        "encoding": "inplace",
        "label": "contract IERC20Upgradeable",
        "numberOfBytes": "20"
      },
      "t_contract(IJoeRouter02)8131": {
        "encoding": "inplace",
        "label": "contract IJoeRouter02",
        "numberOfBytes": "20"
      },
      "t_contract(LiquidityRouter)7662": {
        "encoding": "inplace",
        "label": "contract LiquidityRouter",
        "numberOfBytes": "20"
      },
      "t_mapping(t_address,t_bool)": {
        "encoding": "mapping",
        "key": "t_address",
        "label": "mapping(address => bool)",
        "numberOfBytes": "32",
        "value": "t_bool"
      },
      "t_mapping(t_address,t_mapping(t_address,t_uint256))": {
        "encoding": "mapping",
        "key": "t_address",
        "label": "mapping(address => mapping(address => uint256))",
        "numberOfBytes": "32",
        "value": "t_mapping(t_address,t_uint256)"
      },
      "t_mapping(t_address,t_uint256)": {
        "encoding": "mapping",
        "key": "t_address",
        "label": "mapping(address => uint256)",
        "numberOfBytes": "32",
        "value": "t_uint256"
      },
      "t_mapping(t_contract(IERC20Upgradeable)1356,t_mapping(t_address,t_uint256))": {
        "encoding": "mapping",
        "key": "t_contract(IERC20Upgradeable)1356",
        "label": "mapping(contract IERC20Upgradeable => mapping(address => uint256))",
        "numberOfBytes": "32",
        "value": "t_mapping(t_address,t_uint256)"
      },
      "t_mapping(t_contract(IERC20Upgradeable)1356,t_uint256)": {
        "encoding": "mapping",
        "key": "t_contract(IERC20Upgradeable)1356",
        "label": "mapping(contract IERC20Upgradeable => uint256)",
        "numberOfBytes": "32",
        "value": "t_uint256"
      },
      "t_string_storage": {
        "encoding": "bytes",
        "label": "string",
        "numberOfBytes": "32"
      },
      "t_uint256": {
        "encoding": "inplace",
        "label": "uint256",
        "numberOfBytes": "32"
      }
    }
  }
}