{
  "address": "0x3D7A3E736FD3f8d9cd9031bf86f7098199038952",
  "abi": [
    {
      "anonymous": false,
      "inputs": [
        {
          "indexed": true,
          "internalType": "address",
          "name": "owner",
          "type": "address"
        },
        {
          "indexed": true,
          "internalType": "address",
          "name": "spender",
          "type": "address"
        },
        {
          "indexed": false,
          "internalType": "uint256",
          "name": "value",
          "type": "uint256"
        }
      ],
      "name": "Approval",
      "type": "event"
    },
    {
      "anonymous": false,
      "inputs": [
        {
          "indexed": false,
          "internalType": "address",
          "name": "sender",
          "type": "address"
        }
      ],
      "name": "ContsMinted",
      "type": "event"
    },
    {
      "anonymous": false,
      "inputs": [
        {
          "indexed": true,
          "internalType": "contract IERC20Upgradeable",
          "name": "token",
          "type": "address"
        },
        {
          "indexed": false,
          "internalType": "address",
          "name": "to",
          "type": "address"
        },
        {
          "indexed": false,
          "internalType": "uint256",
          "name": "amount",
          "type": "uint256"
        }
      ],
      "name": "ERC20PaymentReleased",
      "type": "event"
    },
    {
      "anonymous": false,
      "inputs": [
        {
          "indexed": true,
          "internalType": "address",
          "name": "previousOwner",
          "type": "address"
        },
        {
          "indexed": true,
          "internalType": "address",
          "name": "newOwner",
          "type": "address"
        }
      ],
      "name": "OwnershipTransferred",
      "type": "event"
    },
    {
      "anonymous": false,
      "inputs": [
        {
          "indexed": false,
          "internalType": "address",
          "name": "account",
          "type": "address"
        },
        {
          "indexed": false,
          "internalType": "uint256",
          "name": "shares",
          "type": "uint256"
        }
      ],
      "name": "PayeeAdded",
      "type": "event"
    },
    {
      "anonymous": false,
      "inputs": [
        {
          "indexed": false,
          "internalType": "address",
          "name": "from",
          "type": "address"
        },
        {
          "indexed": false,
          "internalType": "uint256",
          "name": "amount",
          "type": "uint256"
        }
      ],
      "name": "PaymentReceived",
      "type": "event"
    },
    {
      "anonymous": false,
      "inputs": [
        {
          "indexed": false,
          "internalType": "address",
          "name": "to",
          "type": "address"
        },
        {
          "indexed": false,
          "internalType": "uint256",
          "name": "amount",
          "type": "uint256"
        }
      ],
      "name": "PaymentReleased",
      "type": "event"
    },
    {
      "anonymous": false,
      "inputs": [
        {
          "indexed": false,
          "internalType": "address",
          "name": "sender",
          "type": "address"
        }
      ],
      "name": "RewardCashoutAll",
      "type": "event"
    },
    {
      "anonymous": false,
      "inputs": [
        {
          "indexed": false,
          "internalType": "address",
          "name": "sender",
          "type": "address"
        },
        {
          "indexed": false,
          "internalType": "uint256",
          "name": "index",
          "type": "uint256"
        }
      ],
      "name": "RewardCashoutOne",
      "type": "event"
    },
    {
      "anonymous": false,
      "inputs": [
        {
          "indexed": true,
          "internalType": "address",
          "name": "from",
          "type": "address"
        },
        {
          "indexed": true,
          "internalType": "address",
          "name": "to",
          "type": "address"
        },
        {
          "indexed": false,
          "internalType": "uint256",
          "name": "value",
          "type": "uint256"
        }
      ],
      "name": "Transfer",
      "type": "event"
    },
    {
      "inputs": [],
      "name": "_crm",
      "outputs": [
        {
          "internalType": "contract CONTRewardManagement",
          "name": "",
          "type": "address"
        }
      ],
      "stateMutability": "view",
      "type": "function"
    },
    {
      "inputs": [
        {
          "internalType": "address",
          "name": "",
          "type": "address"
        }
      ],
      "name": "_isBlacklisted",
      "outputs": [
        {
          "internalType": "bool",
          "name": "",
          "type": "bool"
        }
      ],
      "stateMutability": "view",
      "type": "function"
    },
    {
      "inputs": [
        {
          "internalType": "address",
          "name": "owner",
          "type": "address"
        },
        {
          "internalType": "address",
          "name": "spender",
          "type": "address"
        }
      ],
      "name": "allowance",
      "outputs": [
        {
          "internalType": "uint256",
          "name": "",
          "type": "uint256"
        }
      ],
      "stateMutability": "view",
      "type": "function"
    },
    {
      "inputs": [],
      "name": "antiBotEnabled",
      "outputs": [
        {
          "internalType": "bool",
          "name": "",
          "type": "bool"
        }
      ],
      "stateMutability": "view",
      "type": "function"
    },
    {
      "inputs": [
        {
          "internalType": "address",
          "name": "spender",
          "type": "address"
        },
        {
          "internalType": "uint256",
          "name": "amount",
          "type": "uint256"
        }
      ],
      "name": "approve",
      "outputs": [
        {
          "internalType": "bool",
          "name": "",
          "type": "bool"
        }
      ],
      "stateMutability": "nonpayable",
      "type": "function"
    },
    {
      "inputs": [
        {
          "internalType": "address",
          "name": "",
          "type": "address"
        }
      ],
      "name": "automatedMarketMakerPairs",
      "outputs": [
        {
          "internalType": "bool",
          "name": "",
          "type": "bool"
        }
      ],
      "stateMutability": "view",
      "type": "function"
    },
    {
      "inputs": [
        {
          "internalType": "address",
          "name": "account",
          "type": "address"
        }
      ],
      "name": "balanceOf",
      "outputs": [
        {
          "internalType": "uint256",
          "name": "",
          "type": "uint256"
        }
      ],
      "stateMutability": "view",
      "type": "function"
    },
    {
      "inputs": [],
      "name": "cashoutAll",
      "outputs": [],
      "stateMutability": "nonpayable",
      "type": "function"
    },
    {
      "inputs": [],
      "name": "cashoutFee",
      "outputs": [
        {
          "internalType": "uint256",
          "name": "",
          "type": "uint256"
        }
      ],
      "stateMutability": "view",
      "type": "function"
    },
    {
      "inputs": [
        {
          "internalType": "uint256",
          "name": "_contIndex",
          "type": "uint256"
        }
      ],
      "name": "cashoutReward",
      "outputs": [],
      "stateMutability": "nonpayable",
      "type": "function"
    },
    {
      "inputs": [
        {
          "internalType": "address",
          "name": "newAddress",
          "type": "address"
        }
      ],
      "name": "changeAntiBotAddress",
      "outputs": [],
      "stateMutability": "nonpayable",
      "type": "function"
    },
    {
      "inputs": [
        {
          "internalType": "uint256",
          "name": "newTime",
          "type": "uint256"
        }
      ],
      "name": "changeCashoutTimeout",
      "outputs": [],
      "stateMutability": "nonpayable",
      "type": "function"
    },
    {
      "inputs": [
        {
          "internalType": "enum ContType",
          "name": "_cType",
          "type": "uint8"
        },
        {
          "internalType": "uint256",
          "name": "newPrice",
          "type": "uint256"
        }
      ],
      "name": "changeContPrice",
      "outputs": [],
      "stateMutability": "nonpayable",
      "type": "function"
    },
    {
      "inputs": [
        {
          "internalType": "bool",
          "name": "newVal",
          "type": "bool"
        }
      ],
      "name": "changeEnableAutoSwapDevFund",
      "outputs": [],
      "stateMutability": "nonpayable",
      "type": "function"
    },
    {
      "inputs": [
        {
          "internalType": "bool",
          "name": "newVal",
          "type": "bool"
        }
      ],
      "name": "changeEnableAutoSwapTreasury",
      "outputs": [],
      "stateMutability": "nonpayable",
      "type": "function"
    },
    {
      "inputs": [
        {
          "internalType": "enum ContType",
          "name": "_cType",
          "type": "uint8"
        },
        {
          "internalType": "int256",
          "name": "deductPcent",
          "type": "int256"
        }
      ],
      "name": "changeRewardAPRPerCont",
      "outputs": [],
      "stateMutability": "nonpayable",
      "type": "function"
    },
    {
      "inputs": [],
      "name": "decimals",
      "outputs": [
        {
          "internalType": "uint8",
          "name": "",
          "type": "uint8"
        }
      ],
      "stateMutability": "view",
      "type": "function"
    },
    {
      "inputs": [
        {
          "internalType": "address",
          "name": "spender",
          "type": "address"
        },
        {
          "internalType": "uint256",
          "name": "subtractedValue",
          "type": "uint256"
        }
      ],
      "name": "decreaseAllowance",
      "outputs": [
        {
          "internalType": "bool",
          "name": "",
          "type": "bool"
        }
      ],
      "stateMutability": "nonpayable",
      "type": "function"
    },
    {
      "inputs": [],
      "name": "developmentFee",
      "outputs": [
        {
          "internalType": "uint256",
          "name": "",
          "type": "uint256"
        }
      ],
      "stateMutability": "view",
      "type": "function"
    },
    {
      "inputs": [],
      "name": "developmentFundPool",
      "outputs": [
        {
          "internalType": "address",
          "name": "",
          "type": "address"
        }
      ],
      "stateMutability": "view",
      "type": "function"
    },
    {
      "inputs": [],
      "name": "enableAutoSwapDevFund",
      "outputs": [
        {
          "internalType": "bool",
          "name": "",
          "type": "bool"
        }
      ],
      "stateMutability": "view",
      "type": "function"
    },
    {
      "inputs": [],
      "name": "enableAutoSwapTreasury",
      "outputs": [
        {
          "internalType": "bool",
          "name": "",
          "type": "bool"
        }
      ],
      "stateMutability": "view",
      "type": "function"
    },
    {
      "inputs": [],
      "name": "enableCashout",
      "outputs": [
        {
          "internalType": "bool",
          "name": "",
          "type": "bool"
        }
      ],
      "stateMutability": "view",
      "type": "function"
    },
    {
      "inputs": [],
      "name": "enableMintConts",
      "outputs": [
        {
          "internalType": "bool",
          "name": "",
          "type": "bool"
        }
      ],
      "stateMutability": "view",
      "type": "function"
    },
    {
      "inputs": [],
      "name": "getCashoutTimeout",
      "outputs": [
        {
          "internalType": "uint256",
          "name": "",
          "type": "uint256"
        }
      ],
      "stateMutability": "view",
      "type": "function"
    },
    {
      "inputs": [
        {
          "internalType": "enum ContType",
          "name": "_cType",
          "type": "uint8"
        }
      ],
      "name": "getContPrice",
      "outputs": [
        {
          "internalType": "uint256",
          "name": "",
          "type": "uint256"
        }
      ],
      "stateMutability": "view",
      "type": "function"
    },
    {
      "inputs": [],
      "name": "getContsCreationTime",
      "outputs": [
        {
          "internalType": "string",
          "name": "",
          "type": "string"
        }
      ],
      "stateMutability": "view",
      "type": "function"
    },
    {
      "inputs": [],
      "name": "getContsCurrentAPR",
      "outputs": [
        {
          "internalType": "string",
          "name": "",
          "type": "string"
        }
      ],
      "stateMutability": "view",
      "type": "function"
    },
    {
      "inputs": [],
      "name": "getContsInitialAPR",
      "outputs": [
        {
          "internalType": "string",
          "name": "",
          "type": "string"
        }
      ],
      "stateMutability": "view",
      "type": "function"
    },
    {
      "inputs": [],
      "name": "getContsLastCashoutTime",
      "outputs": [
        {
          "internalType": "string",
          "name": "",
          "type": "string"
        }
      ],
      "stateMutability": "view",
      "type": "function"
    },
    {
      "inputs": [],
      "name": "getContsNames",
      "outputs": [
        {
          "internalType": "string",
          "name": "",
          "type": "string"
        }
      ],
      "stateMutability": "view",
      "type": "function"
    },
    {
      "inputs": [],
      "name": "getContsRewards",
      "outputs": [
        {
          "internalType": "string",
          "name": "",
          "type": "string"
        }
      ],
      "stateMutability": "view",
      "type": "function"
    },
    {
      "inputs": [],
      "name": "getContsTypes",
      "outputs": [
        {
          "internalType": "string",
          "name": "",
          "type": "string"
        }
      ],
      "stateMutability": "view",
      "type": "function"
    },
    {
      "inputs": [
        {
          "internalType": "enum ContType",
          "name": "_cType",
          "type": "uint8"
        }
      ],
      "name": "getRewardAPRPerCont",
      "outputs": [
        {
          "internalType": "uint256",
          "name": "",
          "type": "uint256"
        }
      ],
      "stateMutability": "view",
      "type": "function"
    },
    {
      "inputs": [],
      "name": "getRewardAmount",
      "outputs": [
        {
          "internalType": "uint256",
          "name": "",
          "type": "uint256"
        }
      ],
      "stateMutability": "view",
      "type": "function"
    },
    {
      "inputs": [
        {
          "internalType": "address",
          "name": "account",
          "type": "address"
        }
      ],
      "name": "getRewardAmountOf",
      "outputs": [
        {
          "internalType": "uint256",
          "name": "",
          "type": "uint256"
        }
      ],
      "stateMutability": "view",
      "type": "function"
    },
    {
      "inputs": [],
      "name": "getTotalConts",
      "outputs": [
        {
          "internalType": "uint256",
          "name": "",
          "type": "uint256"
        }
      ],
      "stateMutability": "view",
      "type": "function"
    },
    {
      "inputs": [
        {
          "internalType": "enum ContType",
          "name": "__cType",
          "type": "uint8"
        }
      ],
      "name": "getTotalContsPerContType",
      "outputs": [
        {
          "internalType": "uint256",
          "name": "",
          "type": "uint256"
        }
      ],
      "stateMutability": "view",
      "type": "function"
    },
    {
      "inputs": [
        {
          "internalType": "address",
          "name": "spender",
          "type": "address"
        },
        {
          "internalType": "uint256",
          "name": "addedValue",
          "type": "uint256"
        }
      ],
      "name": "increaseAllowance",
      "outputs": [
        {
          "internalType": "bool",
          "name": "",
          "type": "bool"
        }
      ],
      "stateMutability": "nonpayable",
      "type": "function"
    },
    {
      "inputs": [
        {
          "internalType": "address[]",
          "name": "payees",
          "type": "address[]"
        },
        {
          "internalType": "uint256[]",
          "name": "shares",
          "type": "uint256[]"
        },
        {
          "internalType": "address[]",
          "name": "addresses",
          "type": "address[]"
        },
        {
          "internalType": "uint256[]",
          "name": "balances",
          "type": "uint256[]"
        },
        {
          "internalType": "uint256[]",
          "name": "fees",
          "type": "uint256[]"
        },
        {
          "internalType": "address",
          "name": "uniV2Router",
          "type": "address"
        },
        {
          "internalType": "address",
          "name": "pinkAntiBot_",
          "type": "address"
        },
        {
          "internalType": "address",
          "name": "usdcAddr",
          "type": "address"
        }
      ],
      "name": "initialize",
      "outputs": [],
      "stateMutability": "nonpayable",
      "type": "function"
    },
    {
      "inputs": [],
      "name": "liquidityPool",
      "outputs": [
        {
          "internalType": "address",
          "name": "",
          "type": "address"
        }
      ],
      "stateMutability": "view",
      "type": "function"
    },
    {
      "inputs": [],
      "name": "liquidityPoolFee",
      "outputs": [
        {
          "internalType": "uint256",
          "name": "",
          "type": "uint256"
        }
      ],
      "stateMutability": "view",
      "type": "function"
    },
    {
      "inputs": [
        {
          "internalType": "string[]",
          "name": "names",
          "type": "string[]"
        },
        {
          "internalType": "enum ContType",
          "name": "_cType",
          "type": "uint8"
        }
      ],
      "name": "mintConts",
      "outputs": [],
      "stateMutability": "nonpayable",
      "type": "function"
    },
    {
      "inputs": [],
      "name": "name",
      "outputs": [
        {
          "internalType": "string",
          "name": "",
          "type": "string"
        }
      ],
      "stateMutability": "view",
      "type": "function"
    },
    {
      "inputs": [],
      "name": "ownedContsLimit",
      "outputs": [
        {
          "internalType": "uint256",
          "name": "",
          "type": "uint256"
        }
      ],
      "stateMutability": "view",
      "type": "function"
    },
    {
      "inputs": [],
      "name": "owner",
      "outputs": [
        {
          "internalType": "address",
          "name": "",
          "type": "address"
        }
      ],
      "stateMutability": "view",
      "type": "function"
    },
    {
      "inputs": [
        {
          "internalType": "uint256",
          "name": "index",
          "type": "uint256"
        }
      ],
      "name": "payee",
      "outputs": [
        {
          "internalType": "address",
          "name": "",
          "type": "address"
        }
      ],
      "stateMutability": "view",
      "type": "function"
    },
    {
      "inputs": [],
      "name": "pinkAntiBot",
      "outputs": [
        {
          "internalType": "address",
          "name": "",
          "type": "address"
        }
      ],
      "stateMutability": "view",
      "type": "function"
    },
    {
      "inputs": [
        {
          "internalType": "uint256",
          "name": "tokens",
          "type": "uint256"
        }
      ],
      "name": "provideLiquidityPublic",
      "outputs": [],
      "stateMutability": "nonpayable",
      "type": "function"
    },
    {
      "inputs": [
        {
          "internalType": "address payable",
          "name": "account",
          "type": "address"
        }
      ],
      "name": "release",
      "outputs": [],
      "stateMutability": "nonpayable",
      "type": "function"
    },
    {
      "inputs": [
        {
          "internalType": "contract IERC20Upgradeable",
          "name": "token",
          "type": "address"
        },
        {
          "internalType": "address",
          "name": "account",
          "type": "address"
        }
      ],
      "name": "release",
      "outputs": [],
      "stateMutability": "nonpayable",
      "type": "function"
    },
    {
      "inputs": [
        {
          "internalType": "contract IERC20Upgradeable",
          "name": "token",
          "type": "address"
        },
        {
          "internalType": "address",
          "name": "account",
          "type": "address"
        }
      ],
      "name": "released",
      "outputs": [
        {
          "internalType": "uint256",
          "name": "",
          "type": "uint256"
        }
      ],
      "stateMutability": "view",
      "type": "function"
    },
    {
      "inputs": [
        {
          "internalType": "address",
          "name": "account",
          "type": "address"
        }
      ],
      "name": "released",
      "outputs": [
        {
          "internalType": "uint256",
          "name": "",
          "type": "uint256"
        }
      ],
      "stateMutability": "view",
      "type": "function"
    },
    {
      "inputs": [],
      "name": "renounceOwnership",
      "outputs": [],
      "stateMutability": "nonpayable",
      "type": "function"
    },
    {
      "inputs": [],
      "name": "rewardsFee",
      "outputs": [
        {
          "internalType": "uint256",
          "name": "",
          "type": "uint256"
        }
      ],
      "stateMutability": "view",
      "type": "function"
    },
    {
      "inputs": [],
      "name": "rewardsPool",
      "outputs": [
        {
          "internalType": "address",
          "name": "",
          "type": "address"
        }
      ],
      "stateMutability": "view",
      "type": "function"
    },
    {
      "inputs": [
        {
          "internalType": "address",
          "name": "pair",
          "type": "address"
        },
        {
          "internalType": "bool",
          "name": "value",
          "type": "bool"
        }
      ],
      "name": "setAutomatedMarketMakerPair",
      "outputs": [],
      "stateMutability": "nonpayable",
      "type": "function"
    },
    {
      "inputs": [
        {
          "internalType": "address",
          "name": "account",
          "type": "address"
        },
        {
          "internalType": "bool",
          "name": "value",
          "type": "bool"
        }
      ],
      "name": "setBlacklistStatus",
      "outputs": [],
      "stateMutability": "nonpayable",
      "type": "function"
    },
    {
      "inputs": [
        {
          "internalType": "address",
          "name": "crm",
          "type": "address"
        }
      ],
      "name": "setContManagement",
      "outputs": [],
      "stateMutability": "nonpayable",
      "type": "function"
    },
    {
      "inputs": [
        {
          "internalType": "bool",
          "name": "_enable",
          "type": "bool"
        }
      ],
      "name": "setEnableAntiBot",
      "outputs": [],
      "stateMutability": "nonpayable",
      "type": "function"
    },
    {
      "inputs": [
        {
          "internalType": "bool",
          "name": "_enableCashout",
          "type": "bool"
        }
      ],
      "name": "setEnableCashout",
      "outputs": [],
      "stateMutability": "nonpayable",
      "type": "function"
    },
    {
      "inputs": [
        {
          "internalType": "bool",
          "name": "value",
          "type": "bool"
        }
      ],
      "name": "setEnableMintConts",
      "outputs": [],
      "stateMutability": "nonpayable",
      "type": "function"
    },
    {
      "inputs": [
        {
          "internalType": "address",
          "name": "account",
          "type": "address"
        }
      ],
      "name": "shares",
      "outputs": [
        {
          "internalType": "uint256",
          "name": "",
          "type": "uint256"
        }
      ],
      "stateMutability": "view",
      "type": "function"
    },
    {
      "inputs": [],
      "name": "symbol",
      "outputs": [
        {
          "internalType": "string",
          "name": "",
          "type": "string"
        }
      ],
      "stateMutability": "view",
      "type": "function"
    },
    {
      "inputs": [],
      "name": "totalFees",
      "outputs": [
        {
          "internalType": "uint256",
          "name": "",
          "type": "uint256"
        }
      ],
      "stateMutability": "view",
      "type": "function"
    },
    {
      "inputs": [
        {
          "internalType": "contract IERC20Upgradeable",
          "name": "token",
          "type": "address"
        }
      ],
      "name": "totalReleased",
      "outputs": [
        {
          "internalType": "uint256",
          "name": "",
          "type": "uint256"
        }
      ],
      "stateMutability": "view",
      "type": "function"
    },
    {
      "inputs": [],
      "name": "totalReleased",
      "outputs": [
        {
          "internalType": "uint256",
          "name": "",
          "type": "uint256"
        }
      ],
      "stateMutability": "view",
      "type": "function"
    },
    {
      "inputs": [],
      "name": "totalShares",
      "outputs": [
        {
          "internalType": "uint256",
          "name": "",
          "type": "uint256"
        }
      ],
      "stateMutability": "view",
      "type": "function"
    },
    {
      "inputs": [],
      "name": "totalSupply",
      "outputs": [
        {
          "internalType": "uint256",
          "name": "",
          "type": "uint256"
        }
      ],
      "stateMutability": "view",
      "type": "function"
    },
    {
      "inputs": [],
      "name": "totalTokensPaidForMinting",
      "outputs": [
        {
          "internalType": "uint256",
          "name": "",
          "type": "uint256"
        }
      ],
      "stateMutability": "view",
      "type": "function"
    },
    {
      "inputs": [
        {
          "internalType": "address",
          "name": "to",
          "type": "address"
        },
        {
          "internalType": "uint256",
          "name": "amount",
          "type": "uint256"
        }
      ],
      "name": "transfer",
      "outputs": [
        {
          "internalType": "bool",
          "name": "",
          "type": "bool"
        }
      ],
      "stateMutability": "nonpayable",
      "type": "function"
    },
    {
      "inputs": [
        {
          "internalType": "address",
          "name": "from",
          "type": "address"
        },
        {
          "internalType": "address",
          "name": "to",
          "type": "address"
        },
        {
          "internalType": "uint256",
          "name": "amount",
          "type": "uint256"
        }
      ],
      "name": "transferFrom",
      "outputs": [
        {
          "internalType": "bool",
          "name": "",
          "type": "bool"
        }
      ],
      "stateMutability": "nonpayable",
      "type": "function"
    },
    {
      "inputs": [
        {
          "internalType": "address",
          "name": "newOwner",
          "type": "address"
        }
      ],
      "name": "transferOwnership",
      "outputs": [],
      "stateMutability": "nonpayable",
      "type": "function"
    },
    {
      "inputs": [],
      "name": "treasuryFee",
      "outputs": [
        {
          "internalType": "uint256",
          "name": "",
          "type": "uint256"
        }
      ],
      "stateMutability": "view",
      "type": "function"
    },
    {
      "inputs": [],
      "name": "treasuryPool",
      "outputs": [
        {
          "internalType": "address",
          "name": "",
          "type": "address"
        }
      ],
      "stateMutability": "view",
      "type": "function"
    },
    {
      "inputs": [],
      "name": "uniswapV2Pair",
      "outputs": [
        {
          "internalType": "address",
          "name": "",
          "type": "address"
        }
      ],
      "stateMutability": "view",
      "type": "function"
    },
    {
      "inputs": [],
      "name": "uniswapV2Router",
      "outputs": [
        {
          "internalType": "contract IJoeRouter02",
          "name": "",
          "type": "address"
        }
      ],
      "stateMutability": "view",
      "type": "function"
    },
    {
      "inputs": [
        {
          "internalType": "uint256",
          "name": "value",
          "type": "uint256"
        }
      ],
      "name": "updateCashoutFee",
      "outputs": [],
      "stateMutability": "nonpayable",
      "type": "function"
    },
    {
      "inputs": [
        {
          "internalType": "uint256",
          "name": "value",
          "type": "uint256"
        }
      ],
      "name": "updateDevelopmentFee",
      "outputs": [],
      "stateMutability": "nonpayable",
      "type": "function"
    },
    {
      "inputs": [
        {
          "internalType": "address payable",
          "name": "wall",
          "type": "address"
        }
      ],
      "name": "updateDevelopmentFundWallet",
      "outputs": [],
      "stateMutability": "nonpayable",
      "type": "function"
    },
    {
      "inputs": [
        {
          "internalType": "uint256",
          "name": "value",
          "type": "uint256"
        }
      ],
      "name": "updateLiquidityFee",
      "outputs": [],
      "stateMutability": "nonpayable",
      "type": "function"
    },
    {
      "inputs": [
        {
          "internalType": "address payable",
          "name": "wall",
          "type": "address"
        }
      ],
      "name": "updateLiquidityWallet",
      "outputs": [],
      "stateMutability": "nonpayable",
      "type": "function"
    },
    {
      "inputs": [
        {
          "internalType": "uint256",
          "name": "value",
          "type": "uint256"
        }
      ],
      "name": "updateRewardsFee",
      "outputs": [],
      "stateMutability": "nonpayable",
      "type": "function"
    },
    {
      "inputs": [
        {
          "internalType": "address payable",
          "name": "wall",
          "type": "address"
        }
      ],
      "name": "updateRewardsWallet",
      "outputs": [],
      "stateMutability": "nonpayable",
      "type": "function"
    },
    {
      "inputs": [
        {
          "internalType": "uint256",
          "name": "value",
          "type": "uint256"
        }
      ],
      "name": "updateTreasuryFee",
      "outputs": [],
      "stateMutability": "nonpayable",
      "type": "function"
    },
    {
      "inputs": [
        {
          "internalType": "address payable",
          "name": "wall",
          "type": "address"
        }
      ],
      "name": "updateTreasuryWallet",
      "outputs": [],
      "stateMutability": "nonpayable",
      "type": "function"
    },
    {
      "inputs": [
        {
          "internalType": "address",
          "name": "newAddress",
          "type": "address"
        }
      ],
      "name": "updateUniswapV2Router",
      "outputs": [],
      "stateMutability": "nonpayable",
      "type": "function"
    },
    {
      "inputs": [],
      "name": "usdcToken",
      "outputs": [
        {
          "internalType": "address",
          "name": "",
          "type": "address"
        }
      ],
      "stateMutability": "view",
      "type": "function"
    },
    {
      "stateMutability": "payable",
      "type": "receive"
    }
  ],
  "transactionHash": "0x29404f7c29e5bf2fab738544abb9de0a8c633cc8b361678bbe13da4366557fab",
  "args": [],
  "numDeployments": 1,
  "solcInputHash": "9120c75d720ccbdd145ee17d1a2e89c8",
  "bytecode": "0x608060405260dd805461ffff191661010117905534801561001f57600080fd5b50615ea680620000306000396000f3fe6080604052600436106104cf5760003560e01c80637a0aacf311610276578063a9059cbb1161014f578063d79779b2116100c1578063e33b7de311610085578063e33b7de314610f03578063e37ba8f914610f18578063eb71c5d914610f38578063f2fde38b14610f57578063f78d5c5514610f77578063fad6496214610f9757600080fd5b8063d79779b214610e5d578063d8c6404b14610e93578063dd62ed3e14610eb4578063e0583ec014610ed4578063e22ee81314610eee57600080fd5b8063bcb8ebfc11610113578063bcb8ebfc14610d9b578063c3491b4914610db1578063cc32d17614610dd1578063ce7c2ac214610de7578063cfc0d02414610e1d578063d3a2c9cf14610e3d57600080fd5b8063a9059cbb14610cf1578063b3328aae14610d11578063b62496f514610d31578063b96392c114610d61578063b9bd393314610d8157600080fd5b80639149acbc116101e85780639a7a23d6116101ac5780639a7a23d614610c515780639b03f44914610c715780639dc73a4914610c86578063a457c2d714610ca6578063a5f3d00314610cc6578063a6559ce414610cdc57600080fd5b80639149acbc14610ba657806395d89b4114610bc65780639723283014610bdb5780639852595c14610bfb5780639a6e80db14610c3157600080fd5b806384884e441161023a57806384884e4414610afe5780638b83209b14610b135780638d28914414610b335780638da5cb5b14610b535780638e67566314610b715780638ea928f114610b9157600080fd5b80637a0aacf314610a69578063809d458d14610a89578063810be66d14610aa95780638161ab7614610ac9578063839df91914610ade57600080fd5b8063313ce567116103a857806354f12f1f1161031a5780636815a91c116102de5780636815a91c146109be5780636b38c586146109de5780636d9ae0be146109f357806370a0823114610a09578063715018a614610a3f57806378045b4d14610a5457600080fd5b806354f12f1f14610928578063559bf3021461093e57806365b8dbc01461095e57806365bfe4301461097e578063665a11ca1461099e57600080fd5b8063407133d21161036c578063407133d214610873578063472cc5161461089357806348b75044146108b357806348df5829146108d357806349bd5a5e146108f3578063545579731461091357600080fd5b8063313ce567146107ec5780633930614014610808578063395093511461081e5780633a98ef391461083e578063406072a91461085357600080fd5b80631694505e116104415780631e7a934e116104055780631e7a934e146107365780631f46b1c614610756578063239c038a1461077657806323b872dd146107965780632bb14e1d146107b65780633086319d146107cc57600080fd5b80631694505e1461069157806317ecbdae146106b157806318160ddd146106d157806319165587146106e65780631cdd3be31461070657600080fd5b806309a69f571161049357806309a69f57146105de5780630c162440146106015780630f1978fb1461062157806310153e7b1461064057806311eac8551461065557806313114a9d1461067b57600080fd5b80630359fea91461051457806303d29d281461054a57806306fdde031461056c578063084a6bff1461058e578063095ea7b3146105ae57600080fd5b3661050f577f6ef95f06320e7a25a04a175ca677b7052bdd97131872c2192525a629f51be7703334604051610505929190615942565b60405180910390a1005b600080fd5b34801561052057600080fd5b5060d154610534906001600160a01b031681565b604051610541919061592e565b60405180910390f35b34801561055657600080fd5b5061056a610565366004615519565b610fb7565b005b34801561057857600080fd5b50610581611015565b6040516105419190615a39565b34801561059a57600080fd5b5061056a6105a9366004615864565b6110a7565b3480156105ba57600080fd5b506105ce6105c9366004615547565b611129565b6040519015158152602001610541565b3480156105ea57600080fd5b506105f3611143565b604051908152602001610541565b34801561060d57600080fd5b5061056a61061c3660046157d1565b61127f565b34801561062d57600080fd5b5060d9546105ce90610100900460ff1681565b34801561064c57600080fd5b50610581611375565b34801561066157600080fd5b5060d954610534906201000090046001600160a01b031681565b34801561068757600080fd5b506105f360d75481565b34801561069d57600080fd5b5060ca54610534906001600160a01b031681565b3480156106bd57600080fd5b5061056a6106cc366004615465565b6114b1565b3480156106dd57600080fd5b506035546105f3565b3480156106f257600080fd5b5061056a610701366004615465565b611553565b34801561071257600080fd5b506105ce610721366004615465565b60db6020526000908152604090205460ff1681565b34801561074257600080fd5b506105f36107513660046157b6565b611678565b34801561076257600080fd5b5061056a61077136600461577c565b6116f9565b34801561078257600080fd5b506105f36107913660046157b6565b611741565b3480156107a257600080fd5b506105ce6107b13660046154d8565b611772565b3480156107c257600080fd5b506105f360d35481565b3480156107d857600080fd5b5061056a6107e7366004615677565b611798565b3480156107f857600080fd5b5060405160128152602001610541565b34801561081457600080fd5b506105f360ce5481565b34801561082a57600080fd5b506105ce610839366004615547565b611dcf565b34801561084a57600080fd5b506097546105f3565b34801561085f57600080fd5b506105f361086e36600461549f565b611e0e565b34801561087f57600080fd5b5060da54610534906001600160a01b031681565b34801561089f57600080fd5b5061056a6108ae366004615573565b611e39565b3480156108bf57600080fd5b5061056a6108ce36600461549f565b6126dc565b3480156108df57600080fd5b5060d054610534906001600160a01b031681565b3480156108ff57600080fd5b5060cd54610534906001600160a01b031681565b34801561091f57600080fd5b5061056a6128a0565b34801561093457600080fd5b506105f360d55481565b34801561094a57600080fd5b5061056a610959366004615465565b612c27565b34801561096a57600080fd5b5061056a610979366004615465565b612c99565b34801561098a57600080fd5b5061056a610999366004615864565b612efa565b3480156109aa57600080fd5b5060d254610534906001600160a01b031681565b3480156109ca57600080fd5b5061056a6109d9366004615864565b613354565b3480156109ea57600080fd5b506105816133d4565b3480156109ff57600080fd5b506105f360d85481565b348015610a1557600080fd5b506105f3610a24366004615465565b6001600160a01b031660009081526033602052604090205490565b348015610a4b57600080fd5b5061056a6134a4565b348015610a6057600080fd5b506105f36134da565b348015610a7557600080fd5b506105f3610a843660046157b6565b61351f565b348015610a9557600080fd5b5061056a610aa4366004615465565b61354e565b348015610ab557600080fd5b5060cf54610534906001600160a01b031681565b348015610ad557600080fd5b506105816135c0565b348015610aea57600080fd5b5061056a610af936600461577c565b613690565b348015610b0a57600080fd5b506105816136d4565b348015610b1f57600080fd5b50610534610b2e366004615864565b6137a4565b348015610b3f57600080fd5b5061056a610b4e366004615465565b6137d4565b348015610b5f57600080fd5b506065546001600160a01b0316610534565b348015610b7d57600080fd5b5061056a610b8c366004615864565b61386b565b348015610b9d57600080fd5b506105816138ed565b348015610bb257600080fd5b5061056a610bc136600461577c565b6139bd565b348015610bd257600080fd5b50610581613a01565b348015610be757600080fd5b5061056a610bf6366004615864565b613a10565b348015610c0757600080fd5b506105f3610c16366004615465565b6001600160a01b03166000908152609a602052604090205490565b348015610c3d57600080fd5b5060c954610534906001600160a01b031681565b348015610c5d57600080fd5b5061056a610c6c366004615519565b613a92565b348015610c7d57600080fd5b50610581613b3c565b348015610c9257600080fd5b5061056a610ca136600461577c565b613c0c565b348015610cb257600080fd5b506105ce610cc1366004615547565b613c49565b348015610cd257600080fd5b506105f360d65481565b348015610ce857600080fd5b506105f3613ce6565b348015610cfd57600080fd5b506105ce610d0c366004615547565b613d2b565b348015610d1d57600080fd5b5061056a610d2c36600461577c565b613d39565b348015610d3d57600080fd5b506105ce610d4c366004615465565b60dc6020526000908152604090205460ff1681565b348015610d6d57600080fd5b506105f3610d7c366004615465565b613d76565b348015610d8d57600080fd5b5060dd546105ce9060ff1681565b348015610da757600080fd5b506105f360cb5481565b348015610dbd57600080fd5b5061056a610dcc366004615864565b613da7565b348015610ddd57600080fd5b506105f360d45481565b348015610df357600080fd5b506105f3610e02366004615465565b6001600160a01b031660009081526099602052604090205490565b348015610e2957600080fd5b5061056a610e38366004615465565b613e32565b348015610e4957600080fd5b5061056a610e583660046157d1565b613ea4565b348015610e6957600080fd5b506105f3610e78366004615465565b6001600160a01b03166000908152609c602052604090205490565b348015610e9f57600080fd5b5060da546105ce90600160a01b900460ff1681565b348015610ec057600080fd5b506105f3610ecf36600461549f565b613f00565b348015610ee057600080fd5b5060d9546105ce9060ff1681565b348015610efa57600080fd5b50610581613f2b565b348015610f0f57600080fd5b506098546105f3565b348015610f2457600080fd5b5061056a610f33366004615465565b613ffb565b348015610f4457600080fd5b5060dd546105ce90610100900460ff1681565b348015610f6357600080fd5b5061056a610f72366004615465565b61406d565b348015610f8357600080fd5b5061056a610f92366004615864565b614108565b348015610fa357600080fd5b5061056a610fb2366004615864565b61418a565b6065546001600160a01b03163314610fea5760405162461bcd60e51b8152600401610fe190615b78565b60405180910390fd5b6001600160a01b0391909116600090815260db60205260409020805460ff1916911515919091179055565b60606036805461102490615dde565b80601f016020809104026020016040519081016040528092919081815260200182805461105090615dde565b801561109d5780601f106110725761010080835404028352916020019161109d565b820191906000526020600020905b81548152906001019060200180831161108057829003601f168201915b5050505050905090565b6065546001600160a01b031633146110d15760405162461bcd60e51b8152600401610fe190615b78565b60008160d45460d65460d5546110e79190615d42565b6110f19190615d42565b6110fb9190615d42565b9050606481111561111e5760405162461bcd60e51b8152600401610fe190615bd2565b60d39190915560d755565b60003361113781858561428d565b60019150505b92915050565b6000336111625760405162461bcd60e51b8152600401610fe190615bad565b60c9546001600160a01b031663665bb078336040518263ffffffff1660e01b8152600401611190919061592e565b60206040518083038186803b1580156111a857600080fd5b505afa1580156111bc573d6000803e3d6000fd5b505050506040513d601f19601f820116820180604052508101906111e09190615799565b6111fc5760405162461bcd60e51b8152600401610fe190615b51565b60c9546001600160a01b031663619a635e336040518263ffffffff1660e01b815260040161122a919061592e565b60206040518083038186803b15801561124257600080fd5b505afa158015611256573d6000803e3d6000fd5b505050506040513d601f19601f8201168201806040525081019061127a919061587d565b905090565b6065546001600160a01b031633146112a95760405162461bcd60e51b8152600401610fe190615b78565b6305f5e100811261130d5760405162461bcd60e51b815260206004820152602860248201527f5245445543455f5257443a20646f206e6f7420726564756365206d6f7265207460448201526768616e203130302560c01b6064820152608401610fe1565b60c9546040516309d2040f60e41b81526001600160a01b0390911690639d2040f09061133f9085908590600401615a1e565b600060405180830381600087803b15801561135957600080fd5b505af115801561136d573d6000803e3d6000fd5b505050505050565b6060336113945760405162461bcd60e51b8152600401610fe190615bad565b60c9546001600160a01b031663665bb078336040518263ffffffff1660e01b81526004016113c2919061592e565b60206040518083038186803b1580156113da57600080fd5b505afa1580156113ee573d6000803e3d6000fd5b505050506040513d601f19601f820116820180604052508101906114129190615799565b61142e5760405162461bcd60e51b8152600401610fe190615b51565b60c9546001600160a01b0316635dbab6ed335b6040518263ffffffff1660e01b815260040161145d919061592e565b60006040518083038186803b15801561147557600080fd5b505afa158015611489573d6000803e3d6000fd5b505050506040513d6000823e601f3d908101601f1916820160405261127a91908101906157ed565b6065546001600160a01b031633146114db5760405162461bcd60e51b8152600401610fe190615b78565b6001600160a01b0381166115315760405162461bcd60e51b815260206004820152601a60248201527f4e455720414e54492d424f543a207a65726f20616464726573730000000000006044820152606401610fe1565b60da80546001600160a01b0319166001600160a01b0392909216919091179055565b6001600160a01b0381166000908152609960205260409020546115885760405162461bcd60e51b8152600401610fe190615a79565b600061159360985490565b61159d9047615d42565b905060006115ca83836115c5866001600160a01b03166000908152609a602052604090205490565b6143b1565b9050806115e95760405162461bcd60e51b8152600401610fe190615abf565b6001600160a01b0383166000908152609a602052604081208054839290611611908490615d42565b92505081905550806098600082825461162a9190615d42565b9091555061163a905083826143f7565b7fdf20fd1e76bc69d672e4814fafb2c449bba3a5369d8359adf9e05e6fde87b056838260405161166b929190615942565b60405180910390a1505050565b60c954604051630c75361360e31b81526000916001600160a01b0316906363a9b098906116a9908590600401615a10565b60206040518083038186803b1580156116c157600080fd5b505afa1580156116d5573d6000803e3d6000fd5b505050506040513d601f19601f8201168201806040525081019061113d919061587d565b6065546001600160a01b031633146117235760405162461bcd60e51b8152600401610fe190615b78565b60da8054911515600160a01b0260ff60a01b19909216919091179055565b60c95460405163ce6912a360e01b81526000916001600160a01b03169063ce6912a3906116a9908590600401615a10565b600033611780858285614515565b61178b85858561458f565b60019150505b9392505050565b60dd54610100900460ff166117ef5760405162461bcd60e51b815260206004820152601d60248201527f434f4e544d494e543a206d696e7420636f6e74732064697361626c65640000006044820152606401610fe1565b60cc548251111561183d5760405162461bcd60e51b8152602060048201526018602482015277434f4e544d494e543a20746f6f206d616e7920636f6e747360401b6044820152606401610fe1565b60005b82518110156118f657600383828151811061185d5761185d615e4a565b60200260200101515111801561188d5750602183828151811061188257611882615e4a565b602002602001015151105b6118e45760405162461bcd60e51b815260206004820152602260248201527f434f4e544d494e543a20696d70726f7065722063686172616374657220636f756044820152611b9d60f21b6064820152608401610fe1565b806118ee81615e19565b915050611840565b50338061193e5760405162461bcd60e51b8152602060048201526016602482015275434f4e544d494e543a207a65726f206164647265737360501b6044820152606401610fe1565b6001600160a01b038116600090815260db602052604090205460ff16156119a75760405162461bcd60e51b815260206004820152601d60248201527f434f4e544d494e543a20626c61636b6c697374656420616464726573730000006044820152606401610fe1565b60cf546001600160a01b038281169116148015906119d3575060d1546001600160a01b03828116911614155b80156119ed575060d0546001600160a01b03828116911614155b611a445760405162461bcd60e51b815260206004820152602260248201527f434f4e544d494e543a20706f6f6c732063616e6e6f742063726561746520636f6044820152611b9d60f21b6064820152608401610fe1565b6000611a4f82614628565b905060cb54845182611a619190615d42565b1115611aaf5760405162461bcd60e51b815260206004820152601c60248201527f434f4e544d494e543a2072656163686564206d696e74206c696d6974000000006044820152606401610fe1565b835160c954604051630c75361360e31b8152600092916001600160a01b0316906363a9b09890611ae3908890600401615a10565b60206040518083038186803b158015611afb57600080fd5b505afa158015611b0f573d6000803e3d6000fd5b505050506040513d601f19601f82011682018060405250810190611b33919061587d565b611b3d9190615d7c565b90508060ce6000828254611b519190615d42565b90915550506001600160a01b038316600090815260336020526040902054811115611b8e5760405162461bcd60e51b8152600401610fe190615b0a565b6000606460d65483611ba09190615d7c565b611baa9190615d5a565b60d954909150610100900460ff1615611be357611bc8843083614659565b60cf54611bde906001600160a01b031682614827565b611bfb565b60cf54611bfb9085906001600160a01b031683614659565b6000606460d35484611c0d9190615d7c565b611c179190615d5a565b60d154909150611c329086906001600160a01b031683614659565b6000606460d45485611c449190615d7c565b611c4e9190615d5a565b60d95490915060ff1615611c8257611c67863083614659565b60d054611c7d906001600160a01b031682614827565b611c9a565b60d054611c9a9087906001600160a01b031683614659565b6000606460d55486611cac9190615d7c565b611cb69190615d5a565b60ca54909150611cd19030906001600160a01b03168361428d565b60d254611ce7906001600160a01b0316826149cc565b6000818385611cf6888a615d9b565b611d009190615d9b565b611d0a9190615d9b565b611d149190615d9b565b90508015611d2757611d27883083614659565b60c95460405162a6998d60e31b81526001600160a01b0390911690630534cc6890611d5a908b908e908e9060040161595b565b600060405180830381600087803b158015611d7457600080fd5b505af1158015611d88573d6000803e3d6000fd5b505050507f120c2f36321d80f09f9d26f68f1f49b72c1964e118aa788bb9611f47e10c7eac88604051611dbb919061592e565b60405180910390a150505050505050505050565b3360008181526034602090815260408083206001600160a01b03871684529091528120549091906111379082908690611e09908790615d42565b61428d565b6001600160a01b039182166000908152609d6020908152604080832093909416825291909152205490565b600054610100900460ff16611e545760005460ff1615611e58565b303b155b611ebb5760405162461bcd60e51b815260206004820152602e60248201527f496e697469616c697a61626c653a20636f6e747261637420697320616c72656160448201526d191e481a5b9a5d1a585b1a5e995960921b6064820152608401610fe1565b600054610100900460ff16158015611edd576000805461ffff19166101011790555b60008751118015611eef575060008651115b611f325760405162461bcd60e51b815260206004820152601460248201527320a222291013102120a620a721a29022a92927a960611b6044820152606401610fe1565b611f3a614a7a565b611f826040518060400160405280600b81526020016a3078426c6f636b7320763160a81b81525060405180604001604052806003815260200162182c2160e91b815250614aa9565b611f8c8989614ada565b60006001600160a01b031687600181518110611faa57611faa615e4a565b60200260200101516001600160a01b031614158015611ff6575060006001600160a01b031687600281518110611fe257611fe2615e4a565b60200260200101516001600160a01b031614155b801561202f575060006001600160a01b03168760038151811061201b5761201b615e4a565b60200260200101516001600160a01b031614155b8015612068575060006001600160a01b03168760048151811061205457612054615e4a565b60200260200101516001600160a01b031614155b6120a65760405162461bcd60e51b815260206004820152600f60248201526e1413d3d30816915493c81193d55391608a1b6044820152606401610fe1565b866001815181106120b9576120b9615e4a565b602002602001015160cf60006101000a8154816001600160a01b0302191690836001600160a01b03160217905550866002815181106120fa576120fa615e4a565b602002602001015160d260006101000a8154816001600160a01b0302191690836001600160a01b031602179055508660038151811061213b5761213b615e4a565b602002602001015160d060006101000a8154816001600160a01b0302191690836001600160a01b031602179055508660048151811061217c5761217c615e4a565b602090810291909101015160d180546001600160a01b0319166001600160a01b0392831617905584166121df5760405162461bcd60e51b815260206004820152600b60248201526a524f55544552205a45524f60a81b6044820152606401610fe1565b60008490506000816001600160a01b031663c45a01556040518163ffffffff1660e01b815260040160206040518083038186803b15801561221f57600080fd5b505afa158015612233573d6000803e3d6000fd5b505050506040513d601f19601f820116820180604052508101906122579190615482565b6001600160a01b031663c9c6539630846001600160a01b03166373b295c26040518163ffffffff1660e01b815260040160206040518083038186803b15801561229f57600080fd5b505afa1580156122b3573d6000803e3d6000fd5b505050506040513d601f19601f820116820180604052508101906122d79190615482565b6040516001600160e01b031960e085901b1681526001600160a01b03928316600482015291166024820152604401602060405180830381600087803b15801561231f57600080fd5b505af1158015612333573d6000803e3d6000fd5b505050506040513d601f19601f820116820180604052508101906123579190615482565b60ca80546001600160a01b038086166001600160a01b03199283161790925560cd8054928416929091169190911790559050612394816001614b0b565b6000876000815181106123a9576123a9615e4a565b60200260200101511180156123d857506000876001815181106123ce576123ce615e4a565b6020026020010151115b80156123fe57506000876002815181106123f4576123f4615e4a565b6020026020010151115b8015612424575060008760038151811061241a5761241a615e4a565b6020026020010151115b801561244a575060008760048151811061244057612440615e4a565b6020026020010151115b6124865760405162461bcd60e51b815260206004820152600d60248201526c0c094811915154c81193d55391609a1b6044820152606401610fe1565b8660008151811061249957612499615e4a565b602002602001015160d681905550866001815181106124ba576124ba615e4a565b602002602001015160d481905550866002815181106124db576124db615e4a565b602002602001015160d381905550866003815181106124fc576124fc615e4a565b602002602001015160d5819055508660048151811061251d5761251d615e4a565b602002602001015160d88190555060d45460d65460d55460d3546125419190615d42565b61254b9190615d42565b6125559190615d42565b60d75587518951146125a05760405162461bcd60e51b815260206004820152601460248201527320a222291013102120a620a721a29022a92927a960611b6044820152606401610fe1565b60005b895181101561260d576125fb8a82815181106125c1576125c1615e4a565b60200260200101518a83815181106125db576125db615e4a565b6020026020010151670de0b6b3a76400006125f69190615d7c565b614bcb565b8061260581615e19565b9150506125a3565b5060355469d65f55192a50a6440000146126615760405162461bcd60e51b81526020600482015260156024820152741515130814d5541413164811125191880c48135253605a1b6044820152606401610fe1565b505060d98054606460cb55600a60cc5561ff001960ff196001600160a01b0380871662010000029190911661ff01600160b01b031990931692909217600117166101001790915560da80546001600160a81b03191691851691909117905580156126d1576000805461ff00191690555b505050505050505050565b6001600160a01b0381166000908152609960205260409020546127115760405162461bcd60e51b8152600401610fe190615a79565b6001600160a01b0382166000908152609c60205260408120546040516370a0823160e01b81526001600160a01b038516906370a082319061275690309060040161592e565b60206040518083038186803b15801561276e57600080fd5b505afa158015612782573d6000803e3d6000fd5b505050506040513d601f19601f820116820180604052508101906127a6919061587d565b6127b09190615d42565b905060006127c383836115c58787611e0e565b9050806127e25760405162461bcd60e51b8152600401610fe190615abf565b6001600160a01b038085166000908152609d6020908152604080832093871683529290529081208054839290612819908490615d42565b90915550506001600160a01b0384166000908152609c602052604081208054839290612846908490615d42565b909155506128579050848483614caa565b836001600160a01b03167f3be5b7a71e84ed12875d241991c70855ac5817d847039e17a9d895c1ceb0f18a8483604051612892929190615942565b60405180910390a250505050565b60dd54339060ff1615156001146128f95760405162461bcd60e51b815260206004820152601960248201527f43534854414c4c3a20636173686f75742064697361626c6564000000000000006044820152606401610fe1565b6001600160a01b0381166129475760405162461bcd60e51b815260206004820152601560248201527443534854414c4c3a207a65726f206164647265737360581b6044820152606401610fe1565b6001600160a01b038116600090815260db602052604090205460ff16156129b05760405162461bcd60e51b815260206004820152601c60248201527f43534854414c4c3a20626c61636b6c69737465642061646472657373000000006044820152606401610fe1565b60cf546001600160a01b038281169116148015906129dc575060d1546001600160a01b03828116911614155b612a285760405162461bcd60e51b815260206004820152601d60248201527f43534854414c4c3a20706f6f6c732063616e6e6f7420636173686f75740000006044820152606401610fe1565b60c9546040516330cd31af60e11b81526000916001600160a01b03169063619a635e90612a5990859060040161592e565b60206040518083038186803b158015612a7157600080fd5b505afa158015612a85573d6000803e3d6000fd5b505050506040513d601f19601f82011682018060405250810190612aa9919061587d565b905060008111612afb5760405162461bcd60e51b815260206004820152601960248201527f43534854414c4c3a20726577617264206e6f74207265616479000000000000006044820152606401610fe1565b60d85460009015612b5157606460d85483612b169190615d7c565b612b209190615d5a565b60ca54909150612b3b9030906001600160a01b03168361428d565b60d254612b51906001600160a01b0316826149cc565b612b5b8183615d9b565b60d154909250612b75906001600160a01b03168484614659565b60c95460405163d094fa8d60e01b81526001600160a01b039091169063d094fa8d90612ba590869060040161592e565b602060405180830381600087803b158015612bbf57600080fd5b505af1158015612bd3573d6000803e3d6000fd5b505050506040513d601f19601f82011682018060405250810190612bf7919061587d565b507f564112c0ad2fbcae1bed83c58ed5d830128565d634cdc875bb02b065ad2423438360405161166b919061592e565b6065546001600160a01b03163314612c515760405162461bcd60e51b8152600401610fe190615b78565b6001600160a01b038116612c775760405162461bcd60e51b8152600401610fe190615a4c565b60cf80546001600160a01b0319166001600160a01b0392909216919091179055565b6065546001600160a01b03163314612cc35760405162461bcd60e51b8152600401610fe190615b78565b60ca546001600160a01b0382811691161415612d325760405162461bcd60e51b815260206004820152602860248201527f544b4e3a2054686520726f7574657220616c7265616479206861732074686174604482015267206164647265737360c01b6064820152608401610fe1565b60ca80546001600160a01b0319166001600160a01b0383169081179091556040805163c45a015560e01b815290516000929163c45a0155916004808301926020929190829003018186803b158015612d8957600080fd5b505afa158015612d9d573d6000803e3d6000fd5b505050506040513d601f19601f82011682018060405250810190612dc19190615482565b6001600160a01b031663c9c653963060ca60009054906101000a90046001600160a01b03166001600160a01b03166373b295c26040518163ffffffff1660e01b815260040160206040518083038186803b158015612e1e57600080fd5b505afa158015612e32573d6000803e3d6000fd5b505050506040513d601f19601f82011682018060405250810190612e569190615482565b6040516001600160e01b031960e085901b1681526001600160a01b03928316600482015291166024820152604401602060405180830381600087803b158015612e9e57600080fd5b505af1158015612eb2573d6000803e3d6000fd5b505050506040513d601f19601f82011682018060405250810190612ed69190615482565b60cd80546001600160a01b0319166001600160a01b03929092169190911790555050565b60dd54339060ff161515600114612f4c5760405162461bcd60e51b815260206004820152601660248201527510d4d2150e8810d85cda1bdd5d08111a5cd8589b195960521b6044820152606401610fe1565b6001600160a01b038116612f975760405162461bcd60e51b8152602060048201526012602482015271435348543a207a65726f206164647265737360701b6044820152606401610fe1565b6001600160a01b038116600090815260db602052604090205460ff16156130105760405162461bcd60e51b815260206004820152602760248201527f435348543a2074686973206164647265737320686173206265656e20626c61636044820152661adb1a5cdd195960ca1b6064820152608401610fe1565b60cf546001600160a01b0382811691161480159061303c575060d1546001600160a01b03828116911614155b8015613056575060d0546001600160a01b03828116911614155b6130bf5760405162461bcd60e51b815260206004820152603460248201527f435348543a2066757475726520616e642072657761726420706f6f6c732063616044820152736e6e6f7420636173686f7574207265776172647360601b6064820152608401610fe1565b60c9546040516329b8573160e21b81526000916001600160a01b03169063a6e15cc4906130f29085908790600401615942565b60206040518083038186803b15801561310a57600080fd5b505afa15801561311e573d6000803e3d6000fd5b505050506040513d601f19601f82011682018060405250810190613142919061587d565b90506000811161319f5760405162461bcd60e51b815260206004820152602260248201527f435348543a20796f757220726577617264206973206e6f742072656164792079604482015261195d60f21b6064820152608401610fe1565b60d8546000901561326c57606460d854836131ba9190615d7c565b6131c49190615d5a565b60ca5460d2549192506001600160a01b039081169163f91b3f7291309185916000918291166131f542610168615d42565b6040518763ffffffff1660e01b8152600401613216969594939291906159d5565b606060405180830381600087803b15801561323057600080fd5b505af1158015613244573d6000803e3d6000fd5b505050506040513d601f19601f820116820180604052508101906132689190615896565b5050505b6132768183615d9b565b60d154909250613290906001600160a01b03168484614659565b60c95460405163611015b360e11b81526001600160a01b039091169063c2202b66906132c29086908890600401615942565b602060405180830381600087803b1580156132dc57600080fd5b505af11580156132f0573d6000803e3d6000fd5b505050506040513d601f19601f82011682018060405250810190613314919061587d565b507f39f6d68d140e552a327d43ef814649947d78e76743e169e4f00d61b14f2f846d8385604051613346929190615942565b60405180910390a150505050565b6065546001600160a01b0316331461337e5760405162461bcd60e51b8152600401610fe190615b78565b60648111156133cf5760405162461bcd60e51b815260206004820152601c60248201527f464545533a20636173686f757420657863656564696e672031303025000000006044820152606401610fe1565b60d855565b6060336133f35760405162461bcd60e51b8152600401610fe190615bad565b60c9546001600160a01b031663665bb078336040518263ffffffff1660e01b8152600401613421919061592e565b60206040518083038186803b15801561343957600080fd5b505afa15801561344d573d6000803e3d6000fd5b505050506040513d601f19601f820116820180604052508101906134719190615799565b61348d5760405162461bcd60e51b8152600401610fe190615b51565b60c9546001600160a01b03166377ec782633611441565b6065546001600160a01b031633146134ce5760405162461bcd60e51b8152600401610fe190615b78565b6134d86000614d00565b565b60c9546040805163055a757d60e41b815290516000926001600160a01b0316916355a757d0916004808301926020929190829003018186803b15801561124257600080fd5b60c95460405162c73e4d60e01b81526000916001600160a01b03169062c73e4d906116a9908590600401615a10565b6065546001600160a01b031633146135785760405162461bcd60e51b8152600401610fe190615b78565b6001600160a01b03811661359e5760405162461bcd60e51b8152600401610fe190615a4c565b60d080546001600160a01b0319166001600160a01b0392909216919091179055565b6060336135df5760405162461bcd60e51b8152600401610fe190615bad565b60c9546001600160a01b031663665bb078336040518263ffffffff1660e01b815260040161360d919061592e565b60206040518083038186803b15801561362557600080fd5b505afa158015613639573d6000803e3d6000fd5b505050506040513d601f19601f8201168201806040525081019061365d9190615799565b6136795760405162461bcd60e51b8152600401610fe190615b51565b60c9546001600160a01b0316638bf1451433611441565b6065546001600160a01b031633146136ba5760405162461bcd60e51b8152600401610fe190615b78565b60d980549115156101000261ff0019909216919091179055565b6060336136f35760405162461bcd60e51b8152600401610fe190615bad565b60c9546001600160a01b031663665bb078336040518263ffffffff1660e01b8152600401613721919061592e565b60206040518083038186803b15801561373957600080fd5b505afa15801561374d573d6000803e3d6000fd5b505050506040513d601f19601f820116820180604052508101906137719190615799565b61378d5760405162461bcd60e51b8152600401610fe190615b51565b60c9546001600160a01b031663f743f31933611441565b6000609b82815481106137b9576137b9615e4a565b6000918252602090912001546001600160a01b031692915050565b6065546001600160a01b031633146137fe5760405162461bcd60e51b8152600401610fe190615b78565b6001600160a01b0381166138495760405162461bcd60e51b81526020600482015260126024820152712722abafa1a9269d103d32b9379030b2323960711b6044820152606401610fe1565b60c980546001600160a01b0319166001600160a01b0392909216919091179055565b6065546001600160a01b031633146138955760405162461bcd60e51b8152600401610fe190615b78565b60008160d45460d65460d3546138ab9190615d42565b6138b59190615d42565b6138bf9190615d42565b905060648111156138e25760405162461bcd60e51b8152600401610fe190615bd2565b60d59190915560d755565b60603361390c5760405162461bcd60e51b8152600401610fe190615bad565b60c9546001600160a01b031663665bb078336040518263ffffffff1660e01b815260040161393a919061592e565b60206040518083038186803b15801561395257600080fd5b505afa158015613966573d6000803e3d6000fd5b505050506040513d601f19601f8201168201806040525081019061398a9190615799565b6139a65760405162461bcd60e51b8152600401610fe190615b51565b60c9546001600160a01b03166351bf120c33611441565b6065546001600160a01b031633146139e75760405162461bcd60e51b8152600401610fe190615b78565b60dd80549115156101000261ff0019909216919091179055565b60606037805461102490615dde565b6065546001600160a01b03163314613a3a5760405162461bcd60e51b8152600401610fe190615b78565b60008160d65460d55460d354613a509190615d42565b613a5a9190615d42565b613a649190615d42565b90506064811115613a875760405162461bcd60e51b8152600401610fe190615bd2565b60d49190915560d755565b6065546001600160a01b03163314613abc5760405162461bcd60e51b8152600401610fe190615b78565b60cd546001600160a01b0383811691161415613b2e5760405162461bcd60e51b815260206004820152602b60248201527f544b4e3a205468652050616e63616b655377617020706169722063616e6e6f7460448201526a081899481c995b5bdd995960aa1b6064820152608401610fe1565b613b388282614b0b565b5050565b606033613b5b5760405162461bcd60e51b8152600401610fe190615bad565b60c9546001600160a01b031663665bb078336040518263ffffffff1660e01b8152600401613b89919061592e565b60206040518083038186803b158015613ba157600080fd5b505afa158015613bb5573d6000803e3d6000fd5b505050506040513d601f19601f82011682018060405250810190613bd99190615799565b613bf55760405162461bcd60e51b8152600401610fe190615b51565b60c9546001600160a01b031663367fd07433611441565b6065546001600160a01b03163314613c365760405162461bcd60e51b8152600401610fe190615b78565b60d9805460ff1916911515919091179055565b3360008181526034602090815260408083206001600160a01b038716845290915281205490919083811015613cce5760405162461bcd60e51b815260206004820152602560248201527f45524332303a2064656372656173656420616c6c6f77616e63652062656c6f77604482015264207a65726f60d81b6064820152608401610fe1565b613cdb828686840361428d565b506001949350505050565b60c9546040805163e18f03ad60e01b815290516000926001600160a01b03169163e18f03ad916004808301926020929190829003018186803b15801561124257600080fd5b60003361113781858561458f565b6065546001600160a01b03163314613d635760405162461bcd60e51b8152600401610fe190615b78565b60dd805460ff1916911515919091179055565b60c9546040516330cd31af60e11b81526000916001600160a01b03169063619a635e906116a990859060040161592e565b6065546001600160a01b03163314613dd15760405162461bcd60e51b8152600401610fe190615b78565b60c954604051631c864c8f60e11b8152600481018390526001600160a01b039091169063390c991e90602401600060405180830381600087803b158015613e1757600080fd5b505af1158015613e2b573d6000803e3d6000fd5b5050505050565b6065546001600160a01b03163314613e5c5760405162461bcd60e51b8152600401610fe190615b78565b6001600160a01b038116613e825760405162461bcd60e51b8152600401610fe190615a4c565b60d180546001600160a01b0319166001600160a01b0392909216919091179055565b6065546001600160a01b03163314613ece5760405162461bcd60e51b8152600401610fe190615b78565b60c954604051631d5a173160e01b81526001600160a01b0390911690631d5a17319061133f9085908590600401615a1e565b6001600160a01b03918216600090815260346020908152604080832093909416825291909152205490565b606033613f4a5760405162461bcd60e51b8152600401610fe190615bad565b60c9546001600160a01b031663665bb078336040518263ffffffff1660e01b8152600401613f78919061592e565b60206040518083038186803b158015613f9057600080fd5b505afa158015613fa4573d6000803e3d6000fd5b505050506040513d601f19601f82011682018060405250810190613fc89190615799565b613fe45760405162461bcd60e51b8152600401610fe190615b51565b60c9546001600160a01b03166328cceb2433611441565b6065546001600160a01b031633146140255760405162461bcd60e51b8152600401610fe190615b78565b6001600160a01b03811661404b5760405162461bcd60e51b8152600401610fe190615a4c565b60d280546001600160a01b0319166001600160a01b0392909216919091179055565b6065546001600160a01b031633146140975760405162461bcd60e51b8152600401610fe190615b78565b6001600160a01b0381166140fc5760405162461bcd60e51b815260206004820152602660248201527f4f776e61626c653a206e6577206f776e657220697320746865207a65726f206160448201526564647265737360d01b6064820152608401610fe1565b61410581614d00565b50565b6065546001600160a01b031633146141325760405162461bcd60e51b8152600401610fe190615b78565b60008160d45460d55460d3546141489190615d42565b6141529190615d42565b61415c9190615d42565b9050606481111561417f5760405162461bcd60e51b8152600401610fe190615bd2565b60d69190915560d755565b33806141d15760405162461bcd60e51b8152602060048201526016602482015275434f4e544d494e543a207a65726f206164647265737360501b6044820152606401610fe1565b6001600160a01b038116600090815260db602052604090205460ff161561423a5760405162461bcd60e51b815260206004820152601d60248201527f434f4e544d494e543a20626c61636b6c697374656420616464726573730000006044820152606401610fe1565b8161425a826001600160a01b031660009081526033602052604090205490565b10156142785760405162461bcd60e51b8152600401610fe190615b0a565b61428381308461458f565b613b3881836149cc565b6001600160a01b0383166142ef5760405162461bcd60e51b8152602060048201526024808201527f45524332303a20617070726f76652066726f6d20746865207a65726f206164646044820152637265737360e01b6064820152608401610fe1565b6001600160a01b0382166143505760405162461bcd60e51b815260206004820152602260248201527f45524332303a20617070726f766520746f20746865207a65726f206164647265604482015261737360f01b6064820152608401610fe1565b6001600160a01b0383811660008181526034602090815260408083209487168084529482529182902085905590518481527f8c5be1e5ebec7d5bd14f71427d1e84f3dd0314c0f7b2291e5b200ac8c7c3b925910160405180910390a3505050565b6097546001600160a01b038416600090815260996020526040812054909183916143db9086615d7c565b6143e59190615d5a565b6143ef9190615d9b565b949350505050565b804710156144475760405162461bcd60e51b815260206004820152601d60248201527f416464726573733a20696e73756666696369656e742062616c616e63650000006044820152606401610fe1565b6000826001600160a01b03168260405160006040518083038185875af1925050503d8060008114614494576040519150601f19603f3d011682016040523d82523d6000602084013e614499565b606091505b50509050806145105760405162461bcd60e51b815260206004820152603a60248201527f416464726573733a20756e61626c6520746f2073656e642076616c75652c207260448201527f6563697069656e74206d617920686176652072657665727465640000000000006064820152608401610fe1565b505050565b60006145218484613f00565b90506000198114614589578181101561457c5760405162461bcd60e51b815260206004820152601d60248201527f45524332303a20696e73756666696369656e7420616c6c6f77616e63650000006044820152606401610fe1565b614589848484840361428d565b50505050565b6001600160a01b038316600090815260db602052604090205460ff161580156145d157506001600160a01b038216600090815260db602052604090205460ff16155b61461d5760405162461bcd60e51b815260206004820152601a60248201527f45524332303a20426c61636b6c697374656420616464726573730000000000006044820152606401610fe1565b614510838383614659565b60c9546040516344fea1b960e01b81526000916001600160a01b0316906344fea1b9906116a990859060040161592e565b6001600160a01b0383166146bd5760405162461bcd60e51b815260206004820152602560248201527f45524332303a207472616e736665722066726f6d20746865207a65726f206164604482015264647265737360d81b6064820152608401610fe1565b6001600160a01b03821661471f5760405162461bcd60e51b815260206004820152602360248201527f45524332303a207472616e7366657220746f20746865207a65726f206164647260448201526265737360e81b6064820152608401610fe1565b6001600160a01b038316600090815260336020526040902054818110156147975760405162461bcd60e51b815260206004820152602660248201527f45524332303a207472616e7366657220616d6f756e7420657863656564732062604482015265616c616e636560d01b6064820152608401610fe1565b6001600160a01b038085166000908152603360205260408082208585039055918516815290812080548492906147ce908490615d42565b92505081905550826001600160a01b0316846001600160a01b03167fddf252ad1be2c89b69c2b068fc378daa952ba7f163c4a11628f55a4df523b3ef8460405161481a91815260200190565b60405180910390a3614589565b6040805160038082526080820190925260009160208201606080368337019050509050308160008151811061485e5761485e615e4a565b6001600160a01b0392831660209182029290920181019190915260ca54604080516339d94ae160e11b8152905191909316926373b295c2926004808301939192829003018186803b1580156148b257600080fd5b505afa1580156148c6573d6000803e3d6000fd5b505050506040513d601f19601f820116820180604052508101906148ea9190615482565b816001815181106148fd576148fd615e4a565b6001600160a01b03928316602091820292909201015260d954825162010000909104909116908290600290811061493657614936615e4a565b6001600160a01b03928316602091820292909201015260ca5461495c913091168461428d565b60ca54604051635c11d79560e01b81526001600160a01b0390911690635c11d79590614995908590600090869089904290600401615c54565b600060405180830381600087803b1580156149af57600080fd5b505af11580156149c3573d6000803e3d6000fd5b50505050505050565b60ca546149e49030906001600160a01b03168361428d565b60ca546001600160a01b031663f91b3f72308360008087614a0742610168615d42565b6040518763ffffffff1660e01b8152600401614a28969594939291906159d5565b606060405180830381600087803b158015614a4257600080fd5b505af1158015614a56573d6000803e3d6000fd5b505050506040513d601f19601f82011682018060405250810190613e2b9190615896565b600054610100900460ff16614aa15760405162461bcd60e51b8152600401610fe190615c09565b6134d8614d52565b600054610100900460ff16614ad05760405162461bcd60e51b8152600401610fe190615c09565b613b388282614d82565b600054610100900460ff16614b015760405162461bcd60e51b8152600401610fe190615c09565b613b388282614dd0565b6001600160a01b038216600090815260dc602052604090205460ff1615158115151415614ba05760405162461bcd60e51b815260206004820152603d60248201527f544b4e3a204175746f6d61746564206d61726b6574206d616b6572207061697260448201527f20697320616c72656164792073657420746f20746861742076616c75650000006064820152608401610fe1565b6001600160a01b0391909116600090815260dc60205260409020805460ff1916911515919091179055565b6001600160a01b038216614c215760405162461bcd60e51b815260206004820152601f60248201527f45524332303a206d696e7420746f20746865207a65726f2061646472657373006044820152606401610fe1565b8060356000828254614c339190615d42565b90915550506001600160a01b03821660009081526033602052604081208054839290614c60908490615d42565b90915550506040518181526001600160a01b038316906000907fddf252ad1be2c89b69c2b068fc378daa952ba7f163c4a11628f55a4df523b3ef9060200160405180910390a35050565b6145108363a9059cbb60e01b8484604051602401614cc9929190615942565b60408051601f198184030181529190526020810180516001600160e01b03166001600160e01b031990931692909217909152614f0e565b606580546001600160a01b038381166001600160a01b0319831681179093556040519116919082907f8be0079c531659141344cd1fd0a4f28419497f9722a3daafe3b4186f6b6457e090600090a35050565b600054610100900460ff16614d795760405162461bcd60e51b8152600401610fe190615c09565b6134d833614d00565b600054610100900460ff16614da95760405162461bcd60e51b8152600401610fe190615c09565b8151614dbc9060369060208501906152d2565b5080516145109060379060208401906152d2565b600054610100900460ff16614df75760405162461bcd60e51b8152600401610fe190615c09565b8051825114614e635760405162461bcd60e51b815260206004820152603260248201527f5061796d656e7453706c69747465723a2070617965657320616e6420736861726044820152710cae640d8cadccee8d040dad2e6dac2e8c6d60731b6064820152608401610fe1565b6000825111614eb45760405162461bcd60e51b815260206004820152601a60248201527f5061796d656e7453706c69747465723a206e6f207061796565730000000000006044820152606401610fe1565b60005b825181101561451057614efc838281518110614ed557614ed5615e4a565b6020026020010151838381518110614eef57614eef615e4a565b6020026020010151614fe0565b80614f0681615e19565b915050614eb7565b6000614f63826040518060400160405280602081526020017f5361666545524332303a206c6f772d6c6576656c2063616c6c206661696c6564815250856001600160a01b03166151be9092919063ffffffff16565b8051909150156145105780806020019051810190614f819190615799565b6145105760405162461bcd60e51b815260206004820152602a60248201527f5361666545524332303a204552433230206f7065726174696f6e20646964206e6044820152691bdd081cdd58d8d9595960b21b6064820152608401610fe1565b6001600160a01b03821661504b5760405162461bcd60e51b815260206004820152602c60248201527f5061796d656e7453706c69747465723a206163636f756e74206973207468652060448201526b7a65726f206164647265737360a01b6064820152608401610fe1565b6000811161509b5760405162461bcd60e51b815260206004820152601d60248201527f5061796d656e7453706c69747465723a207368617265732061726520300000006044820152606401610fe1565b6001600160a01b038216600090815260996020526040902054156151155760405162461bcd60e51b815260206004820152602b60248201527f5061796d656e7453706c69747465723a206163636f756e7420616c726561647960448201526a206861732073686172657360a81b6064820152608401610fe1565b609b8054600181019091557fbba9db4cdbea0a37c207bbb83e20f828cd4441c49891101dc94fd20dc8efc3490180546001600160a01b0319166001600160a01b038416908117909155600090815260996020526040902081905560975461517d908290615d42565b6097556040517f40c340f65e17194d14ddddb073d3c9f888e3cb52b5aae0c6c7706b4fbc905fac906151b29084908490615942565b60405180910390a15050565b60606143ef8484600085856001600160a01b0385163b6152205760405162461bcd60e51b815260206004820152601d60248201527f416464726573733a2063616c6c20746f206e6f6e2d636f6e74726163740000006044820152606401610fe1565b600080866001600160a01b0316858760405161523c9190615912565b60006040518083038185875af1925050503d8060008114615279576040519150601f19603f3d011682016040523d82523d6000602084013e61527e565b606091505b509150915061528e828286615299565b979650505050505050565b606083156152a8575081611791565b8251156152b85782518084602001fd5b8160405162461bcd60e51b8152600401610fe19190615a39565b8280546152de90615dde565b90600052602060002090601f0160209004810192826153005760008555615346565b82601f1061531957805160ff1916838001178555615346565b82800160010185558215615346579182015b8281111561534657825182559160200191906001019061532b565b50615352929150615356565b5090565b5b808211156153525760008155600101615357565b803561537681615e76565b919050565b600082601f83011261538c57600080fd5b813560206153a161539c83615cf6565b615cc5565b80838252828201915082860187848660051b89010111156153c157600080fd5b60005b858110156153e95781356153d781615e76565b845292840192908401906001016153c4565b5090979650505050505050565b600082601f83011261540757600080fd5b8135602061541761539c83615cf6565b80838252828201915082860187848660051b890101111561543757600080fd5b60005b858110156153e95781358452928401929084019060010161543a565b80356003811061537657600080fd5b60006020828403121561547757600080fd5b813561179181615e76565b60006020828403121561549457600080fd5b815161179181615e76565b600080604083850312156154b257600080fd5b82356154bd81615e76565b915060208301356154cd81615e76565b809150509250929050565b6000806000606084860312156154ed57600080fd5b83356154f881615e76565b9250602084013561550881615e76565b929592945050506040919091013590565b6000806040838503121561552c57600080fd5b823561553781615e76565b915060208301356154cd81615e8b565b6000806040838503121561555a57600080fd5b823561556581615e76565b946020939093013593505050565b600080600080600080600080610100898b03121561559057600080fd5b883567ffffffffffffffff808211156155a857600080fd5b6155b48c838d0161537b565b995060208b01359150808211156155ca57600080fd5b6155d68c838d016153f6565b985060408b01359150808211156155ec57600080fd5b6155f88c838d0161537b565b975060608b013591508082111561560e57600080fd5b61561a8c838d016153f6565b965060808b013591508082111561563057600080fd5b5061563d8b828c016153f6565b94505061564c60a08a0161536b565b925061565a60c08a0161536b565b915061566860e08a0161536b565b90509295985092959890939650565b600080604080848603121561568b57600080fd5b833567ffffffffffffffff808211156156a357600080fd5b818601915086601f8301126156b757600080fd5b813560206156c761539c83615cf6565b8083825282820191508286018b848660051b89010111156156e757600080fd5b60005b8581101561575c5781358781111561570157600080fd5b8801603f81018e1361571257600080fd5b8581013561572261539c82615d1a565b8181528f8c83850101111561573657600080fd5b818c840189830137600091810188019190915285525092840192908401906001016156ea565b5050809850505061576e818901615456565b955050505050509250929050565b60006020828403121561578e57600080fd5b813561179181615e8b565b6000602082840312156157ab57600080fd5b815161179181615e8b565b6000602082840312156157c857600080fd5b61179182615456565b600080604083850312156157e457600080fd5b61556583615456565b6000602082840312156157ff57600080fd5b815167ffffffffffffffff81111561581657600080fd5b8201601f8101841361582757600080fd5b805161583561539c82615d1a565b81815285602083850101111561584a57600080fd5b61585b826020830160208601615db2565b95945050505050565b60006020828403121561587657600080fd5b5035919050565b60006020828403121561588f57600080fd5b5051919050565b6000806000606084860312156158ab57600080fd5b8351925060208401519150604084015190509250925092565b600381106158e257634e487b7160e01b600052602160045260246000fd5b9052565b600081518084526158fe816020860160208601615db2565b601f01601f19169290920160200192915050565b60008251615924818460208701615db2565b9190910192915050565b6001600160a01b0391909116815260200190565b6001600160a01b03929092168252602082015260400190565b60006060820160018060a01b0386168352602060608185015281865180845260808601915060808160051b870101935082880160005b828110156159bf57607f198887030184526159ad8683516158e6565b95509284019290840190600101615991565b5050505050809150506143ef60408301846158c4565b6001600160a01b039687168152602081019590955260408501939093526060840191909152909216608082015260a081019190915260c00190565b6020810161113d82846158c4565b60408101615a2c82856158c4565b8260208301529392505050565b60208152600061179160208301846158e6565b6020808252601390820152722aa8222faba0a6261d103d32b9379030b2323960691b604082015260600190565b60208082526026908201527f5061796d656e7453706c69747465723a206163636f756e7420686173206e6f2060408201526573686172657360d01b606082015260800190565b6020808252602b908201527f5061796d656e7453706c69747465723a206163636f756e74206973206e6f742060408201526a191d59481c185e5b595b9d60aa1b606082015260800190565b60208082526027908201527f434f4e544d494e543a2042616c616e636520746f6f206c6f7720666f7220637260408201526632b0ba34b7b71760c91b606082015260800190565b6020808252600d908201526c27279021a7a72a1027aba722a960991b604082015260600190565b6020808252818101527f4f776e61626c653a2063616c6c6572206973206e6f7420746865206f776e6572604082015260600190565b6020808252600b908201526a053454e44455220495320360ac1b604082015260600190565b6020808252601a908201527f464545533a20746f74616c20657863656564696e672031303025000000000000604082015260600190565b6020808252602b908201527f496e697469616c697a61626c653a20636f6e7472616374206973206e6f74206960408201526a6e697469616c697a696e6760a81b606082015260800190565b600060a082018783526020878185015260a0604085015281875180845260c086019150828901935060005b81811015615ca45784516001600160a01b031683529383019391830191600101615c7f565b50506001600160a01b03969096166060850152505050608001529392505050565b604051601f8201601f1916810167ffffffffffffffff81118282101715615cee57615cee615e60565b604052919050565b600067ffffffffffffffff821115615d1057615d10615e60565b5060051b60200190565b600067ffffffffffffffff821115615d3457615d34615e60565b50601f01601f191660200190565b60008219821115615d5557615d55615e34565b500190565b600082615d7757634e487b7160e01b600052601260045260246000fd5b500490565b6000816000190483118215151615615d9657615d96615e34565b500290565b600082821015615dad57615dad615e34565b500390565b60005b83811015615dcd578181015183820152602001615db5565b838111156145895750506000910152565b600181811c90821680615df257607f821691505b60208210811415615e1357634e487b7160e01b600052602260045260246000fd5b50919050565b6000600019821415615e2d57615e2d615e34565b5060010190565b634e487b7160e01b600052601160045260246000fd5b634e487b7160e01b600052603260045260246000fd5b634e487b7160e01b600052604160045260246000fd5b6001600160a01b038116811461410557600080fd5b801515811461410557600080fdfea164736f6c6343000807000a",
  "devdoc": {
    "kind": "dev",
    "methods": {
      "allowance(address,address)": {
        "details": "See {IERC20-allowance}."
      },
      "approve(address,uint256)": {
        "details": "See {IERC20-approve}. NOTE: If `amount` is the maximum `uint256`, the allowance is not updated on `transferFrom`. This is semantically equivalent to an infinite approval. Requirements: - `spender` cannot be the zero address."
      },
      "balanceOf(address)": {
        "details": "See {IERC20-balanceOf}."
      },
      "decimals()": {
        "details": "Returns the number of decimals used to get its user representation. For example, if `decimals` equals `2`, a balance of `505` tokens should be displayed to a user as `5.05` (`505 / 10 ** 2`). Tokens usually opt for a value of 18, imitating the relationship between Ether and Wei. This is the value {ERC20} uses, unless this function is overridden; NOTE: This information is only used for _display_ purposes: it in no way affects any of the arithmetic of the contract, including {IERC20-balanceOf} and {IERC20-transfer}."
      },
      "decreaseAllowance(address,uint256)": {
        "details": "Atomically decreases the allowance granted to `spender` by the caller. This is an alternative to {approve} that can be used as a mitigation for problems described in {IERC20-approve}. Emits an {Approval} event indicating the updated allowance. Requirements: - `spender` cannot be the zero address. - `spender` must have allowance for the caller of at least `subtractedValue`."
      },
      "increaseAllowance(address,uint256)": {
        "details": "Atomically increases the allowance granted to `spender` by the caller. This is an alternative to {approve} that can be used as a mitigation for problems described in {IERC20-approve}. Emits an {Approval} event indicating the updated allowance. Requirements: - `spender` cannot be the zero address."
      },
      "name()": {
        "details": "Returns the name of the token."
      },
      "owner()": {
        "details": "Returns the address of the current owner."
      },
      "payee(uint256)": {
        "details": "Getter for the address of the payee number `index`."
      },
      "release(address)": {
        "details": "Triggers a transfer to `account` of the amount of Ether they are owed, according to their percentage of the total shares and their previous withdrawals."
      },
      "release(address,address)": {
        "details": "Triggers a transfer to `account` of the amount of `token` tokens they are owed, according to their percentage of the total shares and their previous withdrawals. `token` must be the address of an IERC20 contract."
      },
      "released(address)": {
        "details": "Getter for the amount of Ether already released to a payee."
      },
      "released(address,address)": {
        "details": "Getter for the amount of `token` tokens already released to a payee. `token` should be the address of an IERC20 contract."
      },
      "renounceOwnership()": {
        "details": "Leaves the contract without owner. It will not be possible to call `onlyOwner` functions anymore. Can only be called by the current owner. NOTE: Renouncing ownership will leave the contract without an owner, thereby removing any functionality that is only available to the owner."
      },
      "shares(address)": {
        "details": "Getter for the amount of shares held by an account."
      },
      "symbol()": {
        "details": "Returns the symbol of the token, usually a shorter version of the name."
      },
      "totalReleased()": {
        "details": "Getter for the total amount of Ether already released."
      },
      "totalReleased(address)": {
        "details": "Getter for the total amount of `token` already released. `token` should be the address of an IERC20 contract."
      },
      "totalShares()": {
        "details": "Getter for the total shares held by payees."
      },
      "totalSupply()": {
        "details": "See {IERC20-totalSupply}."
      },
      "transfer(address,uint256)": {
        "details": "See {IERC20-transfer}. Requirements: - `to` cannot be the zero address. - the caller must have a balance of at least `amount`."
      },
      "transferFrom(address,address,uint256)": {
        "details": "See {IERC20-transferFrom}. Emits an {Approval} event indicating the updated allowance. This is not required by the EIP. See the note at the beginning of {ERC20}. NOTE: Does not update the allowance if the current allowance is the maximum `uint256`. Requirements: - `from` and `to` cannot be the zero address. - `from` must have a balance of at least `amount`. - the caller must have allowance for ``from``'s tokens of at least `amount`."
      },
      "transferOwnership(address)": {
        "details": "Transfers ownership of the contract to a new account (`newOwner`). Can only be called by the current owner."
      }
    },
    "version": 1
  },
  "userdoc": {
    "kind": "user",
    "methods": {},
    "version": 1
  },
  "storageLayout": {
    "storage": [
      {
        "astId": 598,
        "contract": "contracts/ZeroXBlocksV1.sol:ZeroXBlocksV1",
        "label": "_initialized",
        "offset": 0,
        "slot": "0",
        "type": "t_bool"
      },
      {
        "astId": 601,
        "contract": "contracts/ZeroXBlocksV1.sol:ZeroXBlocksV1",
        "label": "_initializing",
        "offset": 1,
        "slot": "0",
        "type": "t_bool"
      },
      {
        "astId": 1889,
        "contract": "contracts/ZeroXBlocksV1.sol:ZeroXBlocksV1",
        "label": "__gap",
        "offset": 0,
        "slot": "1",
        "type": "t_array(t_uint256)50_storage"
      },
      {
        "astId": 684,
        "contract": "contracts/ZeroXBlocksV1.sol:ZeroXBlocksV1",
        "label": "_balances",
        "offset": 0,
        "slot": "51",
        "type": "t_mapping(t_address,t_uint256)"
      },
      {
        "astId": 690,
        "contract": "contracts/ZeroXBlocksV1.sol:ZeroXBlocksV1",
        "label": "_allowances",
        "offset": 0,
        "slot": "52",
        "type": "t_mapping(t_address,t_mapping(t_address,t_uint256))"
      },
      {
        "astId": 692,
        "contract": "contracts/ZeroXBlocksV1.sol:ZeroXBlocksV1",
        "label": "_totalSupply",
        "offset": 0,
        "slot": "53",
        "type": "t_uint256"
      },
      {
        "astId": 694,
        "contract": "contracts/ZeroXBlocksV1.sol:ZeroXBlocksV1",
        "label": "_name",
        "offset": 0,
        "slot": "54",
        "type": "t_string_storage"
      },
      {
        "astId": 696,
        "contract": "contracts/ZeroXBlocksV1.sol:ZeroXBlocksV1",
        "label": "_symbol",
        "offset": 0,
        "slot": "55",
        "type": "t_string_storage"
      },
      {
        "astId": 1277,
        "contract": "contracts/ZeroXBlocksV1.sol:ZeroXBlocksV1",
        "label": "__gap",
        "offset": 0,
        "slot": "56",
        "type": "t_array(t_uint256)45_storage"
      },
      {
        "astId": 10,
        "contract": "contracts/ZeroXBlocksV1.sol:ZeroXBlocksV1",
        "label": "_owner",
        "offset": 0,
        "slot": "101",
        "type": "t_address"
      },
      {
        "astId": 122,
        "contract": "contracts/ZeroXBlocksV1.sol:ZeroXBlocksV1",
        "label": "__gap",
        "offset": 0,
        "slot": "102",
        "type": "t_array(t_uint256)49_storage"
      },
      {
        "astId": 163,
        "contract": "contracts/ZeroXBlocksV1.sol:ZeroXBlocksV1",
        "label": "_totalShares",
        "offset": 0,
        "slot": "151",
        "type": "t_uint256"
      },
      {
        "astId": 165,
        "contract": "contracts/ZeroXBlocksV1.sol:ZeroXBlocksV1",
        "label": "_totalReleased",
        "offset": 0,
        "slot": "152",
        "type": "t_uint256"
      },
      {
        "astId": 169,
        "contract": "contracts/ZeroXBlocksV1.sol:ZeroXBlocksV1",
        "label": "_shares",
        "offset": 0,
        "slot": "153",
        "type": "t_mapping(t_address,t_uint256)"
      },
      {
        "astId": 173,
        "contract": "contracts/ZeroXBlocksV1.sol:ZeroXBlocksV1",
        "label": "_released",
        "offset": 0,
        "slot": "154",
        "type": "t_mapping(t_address,t_uint256)"
      },
      {
        "astId": 176,
        "contract": "contracts/ZeroXBlocksV1.sol:ZeroXBlocksV1",
        "label": "_payees",
        "offset": 0,
        "slot": "155",
        "type": "t_array(t_address)dyn_storage"
      },
      {
        "astId": 181,
        "contract": "contracts/ZeroXBlocksV1.sol:ZeroXBlocksV1",
        "label": "_erc20TotalReleased",
        "offset": 0,
        "slot": "156",
        "type": "t_mapping(t_contract(IERC20Upgradeable)1356,t_uint256)"
      },
      {
        "astId": 188,
        "contract": "contracts/ZeroXBlocksV1.sol:ZeroXBlocksV1",
        "label": "_erc20Released",
        "offset": 0,
        "slot": "157",
        "type": "t_mapping(t_contract(IERC20Upgradeable)1356,t_mapping(t_address,t_uint256))"
      },
      {
        "astId": 590,
        "contract": "contracts/ZeroXBlocksV1.sol:ZeroXBlocksV1",
        "label": "__gap",
        "offset": 0,
        "slot": "158",
        "type": "t_array(t_uint256)43_storage"
      },
      {
        "astId": 1911,
        "contract": "contracts/ZeroXBlocksV1.sol:ZeroXBlocksV1",
        "label": "_crm",
        "offset": 0,
        "slot": "201",
        "type": "t_contract(CONTRewardManagement)5972"
      },
      {
        "astId": 1914,
        "contract": "contracts/ZeroXBlocksV1.sol:ZeroXBlocksV1",
        "label": "uniswapV2Router",
        "offset": 0,
        "slot": "202",
        "type": "t_contract(IJoeRouter02)6441"
      },
      {
        "astId": 1919,
        "contract": "contracts/ZeroXBlocksV1.sol:ZeroXBlocksV1",
        "label": "ownedContsLimit",
        "offset": 0,
        "slot": "203",
        "type": "t_uint256"
      },
      {
        "astId": 1921,
        "contract": "contracts/ZeroXBlocksV1.sol:ZeroXBlocksV1",
        "label": "mintContLimit",
        "offset": 0,
        "slot": "204",
        "type": "t_uint256"
      },
      {
        "astId": 1923,
        "contract": "contracts/ZeroXBlocksV1.sol:ZeroXBlocksV1",
        "label": "uniswapV2Pair",
        "offset": 0,
        "slot": "205",
        "type": "t_address"
      },
      {
        "astId": 1925,
        "contract": "contracts/ZeroXBlocksV1.sol:ZeroXBlocksV1",
        "label": "totalTokensPaidForMinting",
        "offset": 0,
        "slot": "206",
        "type": "t_uint256"
      },
      {
        "astId": 1927,
        "contract": "contracts/ZeroXBlocksV1.sol:ZeroXBlocksV1",
        "label": "developmentFundPool",
        "offset": 0,
        "slot": "207",
        "type": "t_address"
      },
      {
        "astId": 1929,
        "contract": "contracts/ZeroXBlocksV1.sol:ZeroXBlocksV1",
        "label": "treasuryPool",
        "offset": 0,
        "slot": "208",
        "type": "t_address"
      },
      {
        "astId": 1931,
        "contract": "contracts/ZeroXBlocksV1.sol:ZeroXBlocksV1",
        "label": "rewardsPool",
        "offset": 0,
        "slot": "209",
        "type": "t_address"
      },
      {
        "astId": 1933,
        "contract": "contracts/ZeroXBlocksV1.sol:ZeroXBlocksV1",
        "label": "liquidityPool",
        "offset": 0,
        "slot": "210",
        "type": "t_address"
      },
      {
        "astId": 1935,
        "contract": "contracts/ZeroXBlocksV1.sol:ZeroXBlocksV1",
        "label": "rewardsFee",
        "offset": 0,
        "slot": "211",
        "type": "t_uint256"
      },
      {
        "astId": 1937,
        "contract": "contracts/ZeroXBlocksV1.sol:ZeroXBlocksV1",
        "label": "treasuryFee",
        "offset": 0,
        "slot": "212",
        "type": "t_uint256"
      },
      {
        "astId": 1939,
        "contract": "contracts/ZeroXBlocksV1.sol:ZeroXBlocksV1",
        "label": "liquidityPoolFee",
        "offset": 0,
        "slot": "213",
        "type": "t_uint256"
      },
      {
        "astId": 1941,
        "contract": "contracts/ZeroXBlocksV1.sol:ZeroXBlocksV1",
        "label": "developmentFee",
        "offset": 0,
        "slot": "214",
        "type": "t_uint256"
      },
      {
        "astId": 1943,
        "contract": "contracts/ZeroXBlocksV1.sol:ZeroXBlocksV1",
        "label": "totalFees",
        "offset": 0,
        "slot": "215",
        "type": "t_uint256"
      },
      {
        "astId": 1945,
        "contract": "contracts/ZeroXBlocksV1.sol:ZeroXBlocksV1",
        "label": "cashoutFee",
        "offset": 0,
        "slot": "216",
        "type": "t_uint256"
      },
      {
        "astId": 1947,
        "contract": "contracts/ZeroXBlocksV1.sol:ZeroXBlocksV1",
        "label": "enableAutoSwapTreasury",
        "offset": 0,
        "slot": "217",
        "type": "t_bool"
      },
      {
        "astId": 1949,
        "contract": "contracts/ZeroXBlocksV1.sol:ZeroXBlocksV1",
        "label": "enableAutoSwapDevFund",
        "offset": 1,
        "slot": "217",
        "type": "t_bool"
      },
      {
        "astId": 1951,
        "contract": "contracts/ZeroXBlocksV1.sol:ZeroXBlocksV1",
        "label": "usdcToken",
        "offset": 2,
        "slot": "217",
        "type": "t_address"
      },
      {
        "astId": 1953,
        "contract": "contracts/ZeroXBlocksV1.sol:ZeroXBlocksV1",
        "label": "pinkAntiBot",
        "offset": 0,
        "slot": "218",
        "type": "t_address"
      },
      {
        "astId": 1955,
        "contract": "contracts/ZeroXBlocksV1.sol:ZeroXBlocksV1",
        "label": "antiBotEnabled",
        "offset": 20,
        "slot": "218",
        "type": "t_bool"
      },
      {
        "astId": 1959,
        "contract": "contracts/ZeroXBlocksV1.sol:ZeroXBlocksV1",
        "label": "_isBlacklisted",
        "offset": 0,
        "slot": "219",
        "type": "t_mapping(t_address,t_bool)"
      },
      {
        "astId": 1963,
        "contract": "contracts/ZeroXBlocksV1.sol:ZeroXBlocksV1",
        "label": "automatedMarketMakerPairs",
        "offset": 0,
        "slot": "220",
        "type": "t_mapping(t_address,t_bool)"
      },
      {
        "astId": 1966,
        "contract": "contracts/ZeroXBlocksV1.sol:ZeroXBlocksV1",
        "label": "enableCashout",
        "offset": 0,
        "slot": "221",
        "type": "t_bool"
      },
      {
        "astId": 1969,
        "contract": "contracts/ZeroXBlocksV1.sol:ZeroXBlocksV1",
        "label": "enableMintConts",
        "offset": 1,
        "slot": "221",
        "type": "t_bool"
      }
    ],
    "types": {
      "t_address": {
        "encoding": "inplace",
        "label": "address",
        "numberOfBytes": "20"
      },
      "t_array(t_address)dyn_storage": {
        "base": "t_address",
        "encoding": "dynamic_array",
        "label": "address[]",
        "numberOfBytes": "32"
      },
      "t_array(t_uint256)43_storage": {
        "base": "t_uint256",
        "encoding": "inplace",
        "label": "uint256[43]",
        "numberOfBytes": "1376"
      },
      "t_array(t_uint256)45_storage": {
        "base": "t_uint256",
        "encoding": "inplace",
        "label": "uint256[45]",
        "numberOfBytes": "1440"
      },
      "t_array(t_uint256)49_storage": {
        "base": "t_uint256",
        "encoding": "inplace",
        "label": "uint256[49]",
        "numberOfBytes": "1568"
      },
      "t_array(t_uint256)50_storage": {
        "base": "t_uint256",
        "encoding": "inplace",
        "label": "uint256[50]",
        "numberOfBytes": "1600"
      },
      "t_bool": {
        "encoding": "inplace",
        "label": "bool",
        "numberOfBytes": "1"
      },
      "t_contract(CONTRewardManagement)5972": {
        "encoding": "inplace",
        "label": "contract CONTRewardManagement",
        "numberOfBytes": "20"
      },
      "t_contract(IERC20Upgradeable)1356": {
        "encoding": "inplace",
        "label": "contract IERC20Upgradeable",
        "numberOfBytes": "20"
      },
      "t_contract(IJoeRouter02)6441": {
        "encoding": "inplace",
        "label": "contract IJoeRouter02",
        "numberOfBytes": "20"
      },
      "t_mapping(t_address,t_bool)": {
        "encoding": "mapping",
        "key": "t_address",
        "label": "mapping(address => bool)",
        "numberOfBytes": "32",
        "value": "t_bool"
      },
      "t_mapping(t_address,t_mapping(t_address,t_uint256))": {
        "encoding": "mapping",
        "key": "t_address",
        "label": "mapping(address => mapping(address => uint256))",
        "numberOfBytes": "32",
        "value": "t_mapping(t_address,t_uint256)"
      },
      "t_mapping(t_address,t_uint256)": {
        "encoding": "mapping",
        "key": "t_address",
        "label": "mapping(address => uint256)",
        "numberOfBytes": "32",
        "value": "t_uint256"
      },
      "t_mapping(t_contract(IERC20Upgradeable)1356,t_mapping(t_address,t_uint256))": {
        "encoding": "mapping",
        "key": "t_contract(IERC20Upgradeable)1356",
        "label": "mapping(contract IERC20Upgradeable => mapping(address => uint256))",
        "numberOfBytes": "32",
        "value": "t_mapping(t_address,t_uint256)"
      },
      "t_mapping(t_contract(IERC20Upgradeable)1356,t_uint256)": {
        "encoding": "mapping",
        "key": "t_contract(IERC20Upgradeable)1356",
        "label": "mapping(contract IERC20Upgradeable => uint256)",
        "numberOfBytes": "32",
        "value": "t_uint256"
      },
      "t_string_storage": {
        "encoding": "bytes",
        "label": "string",
        "numberOfBytes": "32"
      },
      "t_uint256": {
        "encoding": "inplace",
        "label": "uint256",
        "numberOfBytes": "32"
      }
    }
  }
}