{
  "address": "0x4023778850Ed904eA8861A05248C5042ccC7De58",
  "abi": [
    {
      "anonymous": false,
      "inputs": [
        {
          "indexed": false,
          "internalType": "address",
          "name": "sender",
          "type": "address"
        },
        {
          "indexed": false,
          "internalType": "uint256",
          "name": "tokens",
          "type": "uint256"
        }
      ],
      "name": "AddLiquidity",
      "type": "event"
    },
    {
      "anonymous": false,
      "inputs": [
        {
          "indexed": true,
          "internalType": "address",
          "name": "owner",
          "type": "address"
        },
        {
          "indexed": true,
          "internalType": "address",
          "name": "spender",
          "type": "address"
        },
        {
          "indexed": false,
          "internalType": "uint256",
          "name": "value",
          "type": "uint256"
        }
      ],
      "name": "Approval",
      "type": "event"
    },
    {
      "anonymous": false,
      "inputs": [
        {
          "indexed": false,
          "internalType": "address",
          "name": "sender",
          "type": "address"
        }
      ],
      "name": "ContsMinted",
      "type": "event"
    },
    {
      "anonymous": false,
      "inputs": [
        {
          "indexed": true,
          "internalType": "contract IERC20Upgradeable",
          "name": "token",
          "type": "address"
        },
        {
          "indexed": false,
          "internalType": "address",
          "name": "to",
          "type": "address"
        },
        {
          "indexed": false,
          "internalType": "uint256",
          "name": "amount",
          "type": "uint256"
        }
      ],
      "name": "ERC20PaymentReleased",
      "type": "event"
    },
    {
      "anonymous": false,
      "inputs": [
        {
          "indexed": true,
          "internalType": "address",
          "name": "previousOwner",
          "type": "address"
        },
        {
          "indexed": true,
          "internalType": "address",
          "name": "newOwner",
          "type": "address"
        }
      ],
      "name": "OwnershipTransferred",
      "type": "event"
    },
    {
      "anonymous": false,
      "inputs": [
        {
          "indexed": false,
          "internalType": "address",
          "name": "account",
          "type": "address"
        },
        {
          "indexed": false,
          "internalType": "uint256",
          "name": "shares",
          "type": "uint256"
        }
      ],
      "name": "PayeeAdded",
      "type": "event"
    },
    {
      "anonymous": false,
      "inputs": [
        {
          "indexed": false,
          "internalType": "address",
          "name": "from",
          "type": "address"
        },
        {
          "indexed": false,
          "internalType": "uint256",
          "name": "amount",
          "type": "uint256"
        }
      ],
      "name": "PaymentReceived",
      "type": "event"
    },
    {
      "anonymous": false,
      "inputs": [
        {
          "indexed": false,
          "internalType": "address",
          "name": "to",
          "type": "address"
        },
        {
          "indexed": false,
          "internalType": "uint256",
          "name": "amount",
          "type": "uint256"
        }
      ],
      "name": "PaymentReleased",
      "type": "event"
    },
    {
      "anonymous": false,
      "inputs": [
        {
          "indexed": false,
          "internalType": "address",
          "name": "sender",
          "type": "address"
        }
      ],
      "name": "RewardCashoutAll",
      "type": "event"
    },
    {
      "anonymous": false,
      "inputs": [
        {
          "indexed": false,
          "internalType": "address",
          "name": "sender",
          "type": "address"
        },
        {
          "indexed": false,
          "internalType": "uint256",
          "name": "index",
          "type": "uint256"
        }
      ],
      "name": "RewardCashoutOne",
      "type": "event"
    },
    {
      "anonymous": false,
      "inputs": [
        {
          "indexed": true,
          "internalType": "address",
          "name": "from",
          "type": "address"
        },
        {
          "indexed": true,
          "internalType": "address",
          "name": "to",
          "type": "address"
        },
        {
          "indexed": false,
          "internalType": "uint256",
          "name": "value",
          "type": "uint256"
        }
      ],
      "name": "Transfer",
      "type": "event"
    },
    {
      "inputs": [],
      "name": "_crm",
      "outputs": [
        {
          "internalType": "contract CONTRewardManagement",
          "name": "",
          "type": "address"
        }
      ],
      "stateMutability": "view",
      "type": "function"
    },
    {
      "inputs": [
        {
          "internalType": "address",
          "name": "",
          "type": "address"
        }
      ],
      "name": "_isBlacklisted",
      "outputs": [
        {
          "internalType": "bool",
          "name": "",
          "type": "bool"
        }
      ],
      "stateMutability": "view",
      "type": "function"
    },
    {
      "inputs": [],
      "name": "_liqRouter",
      "outputs": [
        {
          "internalType": "contract LiquidityRouter",
          "name": "",
          "type": "address"
        }
      ],
      "stateMutability": "view",
      "type": "function"
    },
    {
      "inputs": [
        {
          "internalType": "address",
          "name": "owner",
          "type": "address"
        },
        {
          "internalType": "address",
          "name": "spender",
          "type": "address"
        }
      ],
      "name": "allowance",
      "outputs": [
        {
          "internalType": "uint256",
          "name": "",
          "type": "uint256"
        }
      ],
      "stateMutability": "view",
      "type": "function"
    },
    {
      "inputs": [
        {
          "internalType": "address",
          "name": "spender",
          "type": "address"
        },
        {
          "internalType": "uint256",
          "name": "amount",
          "type": "uint256"
        }
      ],
      "name": "approve",
      "outputs": [
        {
          "internalType": "bool",
          "name": "",
          "type": "bool"
        }
      ],
      "stateMutability": "nonpayable",
      "type": "function"
    },
    {
      "inputs": [
        {
          "internalType": "address",
          "name": "account",
          "type": "address"
        }
      ],
      "name": "balanceOf",
      "outputs": [
        {
          "internalType": "uint256",
          "name": "",
          "type": "uint256"
        }
      ],
      "stateMutability": "view",
      "type": "function"
    },
    {
      "inputs": [],
      "name": "cashoutAll",
      "outputs": [],
      "stateMutability": "nonpayable",
      "type": "function"
    },
    {
      "inputs": [],
      "name": "cashoutFee",
      "outputs": [
        {
          "internalType": "uint256",
          "name": "",
          "type": "uint256"
        }
      ],
      "stateMutability": "view",
      "type": "function"
    },
    {
      "inputs": [
        {
          "internalType": "uint256",
          "name": "_contIndex",
          "type": "uint256"
        }
      ],
      "name": "cashoutReward",
      "outputs": [],
      "stateMutability": "nonpayable",
      "type": "function"
    },
    {
      "inputs": [
        {
          "internalType": "uint256",
          "name": "newTime",
          "type": "uint256"
        }
      ],
      "name": "changeCashoutTimeout",
      "outputs": [],
      "stateMutability": "nonpayable",
      "type": "function"
    },
    {
      "inputs": [
        {
          "internalType": "enum ContType",
          "name": "_cType",
          "type": "uint8"
        },
        {
          "internalType": "uint256",
          "name": "newPrice",
          "type": "uint256"
        }
      ],
      "name": "changeContPrice",
      "outputs": [],
      "stateMutability": "nonpayable",
      "type": "function"
    },
    {
      "inputs": [
        {
          "internalType": "bool",
          "name": "newVal",
          "type": "bool"
        }
      ],
      "name": "changeEnableAutoSwapDevFund",
      "outputs": [],
      "stateMutability": "nonpayable",
      "type": "function"
    },
    {
      "inputs": [
        {
          "internalType": "bool",
          "name": "newVal",
          "type": "bool"
        }
      ],
      "name": "changeEnableAutoSwapTreasury",
      "outputs": [],
      "stateMutability": "nonpayable",
      "type": "function"
    },
    {
      "inputs": [
        {
          "internalType": "enum ContType",
          "name": "_cType",
          "type": "uint8"
        },
        {
          "internalType": "int256",
          "name": "deductPcent",
          "type": "int256"
        }
      ],
      "name": "changeRewardAPRPerCont",
      "outputs": [],
      "stateMutability": "nonpayable",
      "type": "function"
    },
    {
      "inputs": [],
      "name": "decimals",
      "outputs": [
        {
          "internalType": "uint8",
          "name": "",
          "type": "uint8"
        }
      ],
      "stateMutability": "view",
      "type": "function"
    },
    {
      "inputs": [
        {
          "internalType": "address",
          "name": "spender",
          "type": "address"
        },
        {
          "internalType": "uint256",
          "name": "subtractedValue",
          "type": "uint256"
        }
      ],
      "name": "decreaseAllowance",
      "outputs": [
        {
          "internalType": "bool",
          "name": "",
          "type": "bool"
        }
      ],
      "stateMutability": "nonpayable",
      "type": "function"
    },
    {
      "inputs": [],
      "name": "developmentFee",
      "outputs": [
        {
          "internalType": "uint256",
          "name": "",
          "type": "uint256"
        }
      ],
      "stateMutability": "view",
      "type": "function"
    },
    {
      "inputs": [],
      "name": "developmentFundPool",
      "outputs": [
        {
          "internalType": "address",
          "name": "",
          "type": "address"
        }
      ],
      "stateMutability": "view",
      "type": "function"
    },
    {
      "inputs": [],
      "name": "enableAutoSwapDevFund",
      "outputs": [
        {
          "internalType": "bool",
          "name": "",
          "type": "bool"
        }
      ],
      "stateMutability": "view",
      "type": "function"
    },
    {
      "inputs": [],
      "name": "enableAutoSwapTreasury",
      "outputs": [
        {
          "internalType": "bool",
          "name": "",
          "type": "bool"
        }
      ],
      "stateMutability": "view",
      "type": "function"
    },
    {
      "inputs": [],
      "name": "enableCashout",
      "outputs": [
        {
          "internalType": "bool",
          "name": "",
          "type": "bool"
        }
      ],
      "stateMutability": "view",
      "type": "function"
    },
    {
      "inputs": [],
      "name": "enableMintConts",
      "outputs": [
        {
          "internalType": "bool",
          "name": "",
          "type": "bool"
        }
      ],
      "stateMutability": "view",
      "type": "function"
    },
    {
      "inputs": [],
      "name": "getCashoutTimeout",
      "outputs": [
        {
          "internalType": "uint256",
          "name": "",
          "type": "uint256"
        }
      ],
      "stateMutability": "view",
      "type": "function"
    },
    {
      "inputs": [
        {
          "internalType": "enum ContType",
          "name": "_cType",
          "type": "uint8"
        }
      ],
      "name": "getContPrice",
      "outputs": [
        {
          "internalType": "uint256",
          "name": "",
          "type": "uint256"
        }
      ],
      "stateMutability": "view",
      "type": "function"
    },
    {
      "inputs": [],
      "name": "getContsCreationTime",
      "outputs": [
        {
          "internalType": "string",
          "name": "",
          "type": "string"
        }
      ],
      "stateMutability": "view",
      "type": "function"
    },
    {
      "inputs": [],
      "name": "getContsCurrentAPR",
      "outputs": [
        {
          "internalType": "string",
          "name": "",
          "type": "string"
        }
      ],
      "stateMutability": "view",
      "type": "function"
    },
    {
      "inputs": [],
      "name": "getContsInitialAPR",
      "outputs": [
        {
          "internalType": "string",
          "name": "",
          "type": "string"
        }
      ],
      "stateMutability": "view",
      "type": "function"
    },
    {
      "inputs": [],
      "name": "getContsLastCashoutTime",
      "outputs": [
        {
          "internalType": "string",
          "name": "",
          "type": "string"
        }
      ],
      "stateMutability": "view",
      "type": "function"
    },
    {
      "inputs": [],
      "name": "getContsNames",
      "outputs": [
        {
          "internalType": "string",
          "name": "",
          "type": "string"
        }
      ],
      "stateMutability": "view",
      "type": "function"
    },
    {
      "inputs": [],
      "name": "getContsRewards",
      "outputs": [
        {
          "internalType": "string",
          "name": "",
          "type": "string"
        }
      ],
      "stateMutability": "view",
      "type": "function"
    },
    {
      "inputs": [],
      "name": "getContsTypes",
      "outputs": [
        {
          "internalType": "string",
          "name": "",
          "type": "string"
        }
      ],
      "stateMutability": "view",
      "type": "function"
    },
    {
      "inputs": [
        {
          "internalType": "address",
          "name": "inputToken",
          "type": "address"
        },
        {
          "internalType": "uint256",
          "name": "outputAmount",
          "type": "uint256"
        }
      ],
      "name": "getInputAmount",
      "outputs": [
        {
          "internalType": "uint256[]",
          "name": "",
          "type": "uint256[]"
        }
      ],
      "stateMutability": "view",
      "type": "function"
    },
    {
      "inputs": [
        {
          "internalType": "address",
          "name": "targetToken",
          "type": "address"
        },
        {
          "internalType": "uint256",
          "name": "inputAmount",
          "type": "uint256"
        }
      ],
      "name": "getOutputAmount",
      "outputs": [
        {
          "internalType": "uint256[]",
          "name": "",
          "type": "uint256[]"
        }
      ],
      "stateMutability": "view",
      "type": "function"
    },
    {
      "inputs": [
        {
          "internalType": "enum ContType",
          "name": "_cType",
          "type": "uint8"
        }
      ],
      "name": "getRewardAPRPerCont",
      "outputs": [
        {
          "internalType": "uint256",
          "name": "",
          "type": "uint256"
        }
      ],
      "stateMutability": "view",
      "type": "function"
    },
    {
      "inputs": [],
      "name": "getRewardAmount",
      "outputs": [
        {
          "internalType": "uint256",
          "name": "",
          "type": "uint256"
        }
      ],
      "stateMutability": "view",
      "type": "function"
    },
    {
      "inputs": [],
      "name": "getTotalConts",
      "outputs": [
        {
          "internalType": "uint256",
          "name": "",
          "type": "uint256"
        }
      ],
      "stateMutability": "view",
      "type": "function"
    },
    {
      "inputs": [
        {
          "internalType": "enum ContType",
          "name": "__cType",
          "type": "uint8"
        }
      ],
      "name": "getTotalContsPerContType",
      "outputs": [
        {
          "internalType": "uint256",
          "name": "",
          "type": "uint256"
        }
      ],
      "stateMutability": "view",
      "type": "function"
    },
    {
      "inputs": [
        {
          "internalType": "address",
          "name": "spender",
          "type": "address"
        },
        {
          "internalType": "uint256",
          "name": "addedValue",
          "type": "uint256"
        }
      ],
      "name": "increaseAllowance",
      "outputs": [
        {
          "internalType": "bool",
          "name": "",
          "type": "bool"
        }
      ],
      "stateMutability": "nonpayable",
      "type": "function"
    },
    {
      "inputs": [
        {
          "internalType": "address[]",
          "name": "payees",
          "type": "address[]"
        },
        {
          "internalType": "uint256[]",
          "name": "shares",
          "type": "uint256[]"
        },
        {
          "internalType": "address[]",
          "name": "addresses",
          "type": "address[]"
        },
        {
          "internalType": "uint256[]",
          "name": "balances",
          "type": "uint256[]"
        },
        {
          "internalType": "uint256[]",
          "name": "fees",
          "type": "uint256[]"
        },
        {
          "internalType": "address",
          "name": "usdcAddr",
          "type": "address"
        }
      ],
      "name": "initialize",
      "outputs": [],
      "stateMutability": "nonpayable",
      "type": "function"
    },
    {
      "inputs": [],
      "name": "liquidityPool",
      "outputs": [
        {
          "internalType": "address",
          "name": "",
          "type": "address"
        }
      ],
      "stateMutability": "view",
      "type": "function"
    },
    {
      "inputs": [],
      "name": "liquidityPoolFee",
      "outputs": [
        {
          "internalType": "uint256",
          "name": "",
          "type": "uint256"
        }
      ],
      "stateMutability": "view",
      "type": "function"
    },
    {
      "inputs": [
        {
          "internalType": "string[]",
          "name": "names",
          "type": "string[]"
        },
        {
          "internalType": "enum ContType",
          "name": "_cType",
          "type": "uint8"
        }
      ],
      "name": "mintConts",
      "outputs": [],
      "stateMutability": "nonpayable",
      "type": "function"
    },
    {
      "inputs": [],
      "name": "name",
      "outputs": [
        {
          "internalType": "string",
          "name": "",
          "type": "string"
        }
      ],
      "stateMutability": "view",
      "type": "function"
    },
    {
      "inputs": [],
      "name": "ownedContsLimit",
      "outputs": [
        {
          "internalType": "uint256",
          "name": "",
          "type": "uint256"
        }
      ],
      "stateMutability": "view",
      "type": "function"
    },
    {
      "inputs": [],
      "name": "owner",
      "outputs": [
        {
          "internalType": "address",
          "name": "",
          "type": "address"
        }
      ],
      "stateMutability": "view",
      "type": "function"
    },
    {
      "inputs": [
        {
          "internalType": "uint256",
          "name": "index",
          "type": "uint256"
        }
      ],
      "name": "payee",
      "outputs": [
        {
          "internalType": "address",
          "name": "",
          "type": "address"
        }
      ],
      "stateMutability": "view",
      "type": "function"
    },
    {
      "inputs": [
        {
          "internalType": "address payable",
          "name": "account",
          "type": "address"
        }
      ],
      "name": "release",
      "outputs": [],
      "stateMutability": "nonpayable",
      "type": "function"
    },
    {
      "inputs": [
        {
          "internalType": "contract IERC20Upgradeable",
          "name": "token",
          "type": "address"
        },
        {
          "internalType": "address",
          "name": "account",
          "type": "address"
        }
      ],
      "name": "release",
      "outputs": [],
      "stateMutability": "nonpayable",
      "type": "function"
    },
    {
      "inputs": [
        {
          "internalType": "contract IERC20Upgradeable",
          "name": "token",
          "type": "address"
        },
        {
          "internalType": "address",
          "name": "account",
          "type": "address"
        }
      ],
      "name": "released",
      "outputs": [
        {
          "internalType": "uint256",
          "name": "",
          "type": "uint256"
        }
      ],
      "stateMutability": "view",
      "type": "function"
    },
    {
      "inputs": [
        {
          "internalType": "address",
          "name": "account",
          "type": "address"
        }
      ],
      "name": "released",
      "outputs": [
        {
          "internalType": "uint256",
          "name": "",
          "type": "uint256"
        }
      ],
      "stateMutability": "view",
      "type": "function"
    },
    {
      "inputs": [],
      "name": "renounceOwnership",
      "outputs": [],
      "stateMutability": "nonpayable",
      "type": "function"
    },
    {
      "inputs": [],
      "name": "rewardsFee",
      "outputs": [
        {
          "internalType": "uint256",
          "name": "",
          "type": "uint256"
        }
      ],
      "stateMutability": "view",
      "type": "function"
    },
    {
      "inputs": [],
      "name": "rewardsPool",
      "outputs": [
        {
          "internalType": "address",
          "name": "",
          "type": "address"
        }
      ],
      "stateMutability": "view",
      "type": "function"
    },
    {
      "inputs": [
        {
          "internalType": "address",
          "name": "account",
          "type": "address"
        },
        {
          "internalType": "bool",
          "name": "value",
          "type": "bool"
        }
      ],
      "name": "setBlacklistStatus",
      "outputs": [],
      "stateMutability": "nonpayable",
      "type": "function"
    },
    {
      "inputs": [
        {
          "internalType": "address",
          "name": "crm",
          "type": "address"
        }
      ],
      "name": "setContManagement",
      "outputs": [],
      "stateMutability": "nonpayable",
      "type": "function"
    },
    {
      "inputs": [
        {
          "internalType": "bool",
          "name": "_enableCashout",
          "type": "bool"
        }
      ],
      "name": "setEnableCashout",
      "outputs": [],
      "stateMutability": "nonpayable",
      "type": "function"
    },
    {
      "inputs": [
        {
          "internalType": "bool",
          "name": "value",
          "type": "bool"
        }
      ],
      "name": "setEnableMintConts",
      "outputs": [],
      "stateMutability": "nonpayable",
      "type": "function"
    },
    {
      "inputs": [
        {
          "internalType": "address",
          "name": "liqRouter",
          "type": "address"
        }
      ],
      "name": "setLiquidityRouter",
      "outputs": [],
      "stateMutability": "nonpayable",
      "type": "function"
    },
    {
      "inputs": [
        {
          "internalType": "address",
          "name": "newAddress",
          "type": "address"
        }
      ],
      "name": "setUSDCAddress",
      "outputs": [],
      "stateMutability": "nonpayable",
      "type": "function"
    },
    {
      "inputs": [
        {
          "internalType": "address",
          "name": "account",
          "type": "address"
        }
      ],
      "name": "shares",
      "outputs": [
        {
          "internalType": "uint256",
          "name": "",
          "type": "uint256"
        }
      ],
      "stateMutability": "view",
      "type": "function"
    },
    {
      "inputs": [
        {
          "internalType": "address",
          "name": "tokenAddr",
          "type": "address"
        },
        {
          "internalType": "uint256",
          "name": "amountIn",
          "type": "uint256"
        }
      ],
      "name": "swapExact0xBForToken",
      "outputs": [],
      "stateMutability": "nonpayable",
      "type": "function"
    },
    {
      "inputs": [],
      "name": "symbol",
      "outputs": [
        {
          "internalType": "string",
          "name": "",
          "type": "string"
        }
      ],
      "stateMutability": "view",
      "type": "function"
    },
    {
      "inputs": [],
      "name": "totalFees",
      "outputs": [
        {
          "internalType": "uint256",
          "name": "",
          "type": "uint256"
        }
      ],
      "stateMutability": "view",
      "type": "function"
    },
    {
      "inputs": [
        {
          "internalType": "contract IERC20Upgradeable",
          "name": "token",
          "type": "address"
        }
      ],
      "name": "totalReleased",
      "outputs": [
        {
          "internalType": "uint256",
          "name": "",
          "type": "uint256"
        }
      ],
      "stateMutability": "view",
      "type": "function"
    },
    {
      "inputs": [],
      "name": "totalReleased",
      "outputs": [
        {
          "internalType": "uint256",
          "name": "",
          "type": "uint256"
        }
      ],
      "stateMutability": "view",
      "type": "function"
    },
    {
      "inputs": [],
      "name": "totalShares",
      "outputs": [
        {
          "internalType": "uint256",
          "name": "",
          "type": "uint256"
        }
      ],
      "stateMutability": "view",
      "type": "function"
    },
    {
      "inputs": [],
      "name": "totalSupply",
      "outputs": [
        {
          "internalType": "uint256",
          "name": "",
          "type": "uint256"
        }
      ],
      "stateMutability": "view",
      "type": "function"
    },
    {
      "inputs": [],
      "name": "totalTokensPaidForMinting",
      "outputs": [
        {
          "internalType": "uint256",
          "name": "",
          "type": "uint256"
        }
      ],
      "stateMutability": "view",
      "type": "function"
    },
    {
      "inputs": [
        {
          "internalType": "address",
          "name": "to",
          "type": "address"
        },
        {
          "internalType": "uint256",
          "name": "amount",
          "type": "uint256"
        }
      ],
      "name": "transfer",
      "outputs": [
        {
          "internalType": "bool",
          "name": "",
          "type": "bool"
        }
      ],
      "stateMutability": "nonpayable",
      "type": "function"
    },
    {
      "inputs": [
        {
          "internalType": "address",
          "name": "from",
          "type": "address"
        },
        {
          "internalType": "address",
          "name": "to",
          "type": "address"
        },
        {
          "internalType": "uint256",
          "name": "amount",
          "type": "uint256"
        }
      ],
      "name": "transferFrom",
      "outputs": [
        {
          "internalType": "bool",
          "name": "",
          "type": "bool"
        }
      ],
      "stateMutability": "nonpayable",
      "type": "function"
    },
    {
      "inputs": [
        {
          "internalType": "address",
          "name": "newOwner",
          "type": "address"
        }
      ],
      "name": "transferOwnership",
      "outputs": [],
      "stateMutability": "nonpayable",
      "type": "function"
    },
    {
      "inputs": [],
      "name": "treasuryFee",
      "outputs": [
        {
          "internalType": "uint256",
          "name": "",
          "type": "uint256"
        }
      ],
      "stateMutability": "view",
      "type": "function"
    },
    {
      "inputs": [],
      "name": "treasuryPool",
      "outputs": [
        {
          "internalType": "address",
          "name": "",
          "type": "address"
        }
      ],
      "stateMutability": "view",
      "type": "function"
    },
    {
      "inputs": [
        {
          "internalType": "uint256",
          "name": "value",
          "type": "uint256"
        }
      ],
      "name": "updateCashoutFee",
      "outputs": [],
      "stateMutability": "nonpayable",
      "type": "function"
    },
    {
      "inputs": [
        {
          "internalType": "uint256",
          "name": "value",
          "type": "uint256"
        }
      ],
      "name": "updateDevelopmentFee",
      "outputs": [],
      "stateMutability": "nonpayable",
      "type": "function"
    },
    {
      "inputs": [
        {
          "internalType": "address payable",
          "name": "wall",
          "type": "address"
        }
      ],
      "name": "updateDevelopmentFundWallet",
      "outputs": [],
      "stateMutability": "nonpayable",
      "type": "function"
    },
    {
      "inputs": [
        {
          "internalType": "uint256",
          "name": "value",
          "type": "uint256"
        }
      ],
      "name": "updateLiquidityFee",
      "outputs": [],
      "stateMutability": "nonpayable",
      "type": "function"
    },
    {
      "inputs": [
        {
          "internalType": "address payable",
          "name": "wall",
          "type": "address"
        }
      ],
      "name": "updateLiquidityWallet",
      "outputs": [],
      "stateMutability": "nonpayable",
      "type": "function"
    },
    {
      "inputs": [
        {
          "internalType": "uint256",
          "name": "value",
          "type": "uint256"
        }
      ],
      "name": "updateRewardsFee",
      "outputs": [],
      "stateMutability": "nonpayable",
      "type": "function"
    },
    {
      "inputs": [
        {
          "internalType": "address payable",
          "name": "wall",
          "type": "address"
        }
      ],
      "name": "updateRewardsWallet",
      "outputs": [],
      "stateMutability": "nonpayable",
      "type": "function"
    },
    {
      "inputs": [
        {
          "internalType": "uint256",
          "name": "value",
          "type": "uint256"
        }
      ],
      "name": "updateTreasuryFee",
      "outputs": [],
      "stateMutability": "nonpayable",
      "type": "function"
    },
    {
      "inputs": [
        {
          "internalType": "address payable",
          "name": "wall",
          "type": "address"
        }
      ],
      "name": "updateTreasuryWallet",
      "outputs": [],
      "stateMutability": "nonpayable",
      "type": "function"
    },
    {
      "inputs": [
        {
          "internalType": "address",
          "name": "_newAddr",
          "type": "address"
        }
      ],
      "name": "updateUniswapV2Router",
      "outputs": [],
      "stateMutability": "nonpayable",
      "type": "function"
    },
    {
      "inputs": [],
      "name": "usdcToken",
      "outputs": [
        {
          "internalType": "address",
          "name": "",
          "type": "address"
        }
      ],
      "stateMutability": "view",
      "type": "function"
    },
    {
      "stateMutability": "payable",
      "type": "receive"
    }
  ],
  "transactionHash": "0xc9374253be826dd9b6cd513921b746f8323e9c20ff28e60e833fc4e3675f7c96",
  "args": [],
  "numDeployments": 2,
  "solcInputHash": "29f4ed4215136e2b79fa897744d53ab5",
  "bytecode": "0x608060405234801561001057600080fd5b50615123806100206000396000f3fe6080604052600436106104a35760003560e01c8063810be66d11610260578063a9059cbb11610144578063cfc0d024116100c1578063e22ee81311610085578063e22ee81314610e5e578063e33b7de314610e73578063e37ba8f914610e88578063eb71c5d914610ea8578063f2fde38b14610ec7578063f78d5c5514610ee757600080fd5b8063cfc0d02414610dae578063d3a2c9cf14610dce578063d79779b214610dee578063dd62ed3e14610e24578063e0583ec014610e4457600080fd5b8063bcb8ebfc11610108578063bcb8ebfc14610d0c578063c3491b4914610d22578063cc32d17614610d42578063cd6e18f114610d58578063ce7c2ac214610d7857600080fd5b8063a9059cbb14610c72578063aaf5bfc314610c92578063ab8f06d014610cb2578063b3328aae14610cd2578063b9bd393314610cf257600080fd5b80639149acbc116101dd5780639b03f449116101a15780639b03f44914610bd25780639dc73a4914610be7578063a432697a14610c07578063a457c2d714610c27578063a5f3d00314610c47578063a6559ce414610c5d57600080fd5b80639149acbc14610b2757806395d89b4114610b475780639723283014610b5c5780639852595c14610b7c5780639a6e80db14610bb257600080fd5b80638b83209b116102245780638b83209b14610a945780638d28914414610ab45780638da5cb5b14610ad45780638e67566314610af25780638ea928f114610b1257600080fd5b8063810be66d14610a0a5780638161ab7614610a2a57806382a8ebad14610a3f578063839df91914610a5f57806384884e4414610a7f57600080fd5b8063395093511161038757806365bfe4301161030457806370a08231116102c857806370a082311461093d578063715018a61461097357806378045b4d146109885780637a0aacf31461099d5780637b07004b146109bd578063809d458d146109ea57600080fd5b806365bfe430146108b2578063665a11ca146108d25780636815a91c146108f25780636b38c586146109125780636d9ae0be1461092757600080fd5b8063545579731161034b578063545579731461082757806354f12f1f1461083c578063559bf3021461085257806357dae0631461087257806365b8dbc01461089257600080fd5b806339509351146107925780633a98ef39146107b2578063406072a9146107c757806348b75044146107e757806348df58291461080757600080fd5b806313114a9d11610420578063239c038a116103e4578063239c038a146106ea57806323b872dd1461070a5780632bb14e1d1461072a5780633086319d14610740578063313ce56714610760578063393061401461077c57600080fd5b806313114a9d1461064f57806318160ddd14610665578063191655871461067a5780631cdd3be31461069a5780631e7a934e146106ca57600080fd5b806309a69f571161046757806309a69f57146105b25780630c162440146105d55780630f1978fb146105f557806310153e7b1461061457806311eac8551461062957600080fd5b80630359fea9146104e857806303d29d281461051e57806306fdde0314610540578063084a6bff14610562578063095ea7b31461058257600080fd5b366104e3577f6ef95f06320e7a25a04a175ca677b7052bdd97131872c2192525a629f51be77033346040516104d9929190614c95565b60405180910390a1005b600080fd5b3480156104f457600080fd5b5060d054610508906001600160a01b031681565b6040516105159190614c81565b60405180910390f35b34801561052a57600080fd5b5061053e610539366004614825565b610f07565b005b34801561054c57600080fd5b50610555610f65565b6040516105159190614d95565b34801561056e57600080fd5b5061053e61057d366004614be5565b610ff7565b34801561058e57600080fd5b506105a261059d366004614853565b611079565b6040519015158152602001610515565b3480156105be57600080fd5b506105c7611093565b604051908152602001610515565b3480156105e157600080fd5b5061053e6105f0366004614b52565b611135565b34801561060157600080fd5b5060d8546105a290610100900460ff1681565b34801561062057600080fd5b5061055561122b565b34801561063557600080fd5b5060d854610508906201000090046001600160a01b031681565b34801561065b57600080fd5b506105c760d65481565b34801561067157600080fd5b506035546105c7565b34801561068657600080fd5b5061053e610695366004614771565b6112cd565b3480156106a657600080fd5b506105a26106b5366004614771565b60d96020526000908152604090205460ff1681565b3480156106d657600080fd5b506105c76106e5366004614b37565b6113f2565b3480156106f657600080fd5b506105c7610705366004614b37565b611473565b34801561071657600080fd5b506105a26107253660046147e4565b6114a4565b34801561073657600080fd5b506105c760d25481565b34801561074c57600080fd5b5061053e61075b366004614960565b6114ca565b34801561076c57600080fd5b5060405160128152602001610515565b34801561078857600080fd5b506105c760cd5481565b34801561079e57600080fd5b506105a26107ad366004614853565b611b36565b3480156107be57600080fd5b506097546105c7565b3480156107d357600080fd5b506105c76107e23660046147ab565b611b75565b3480156107f357600080fd5b5061053e6108023660046147ab565b611ba0565b34801561081357600080fd5b5060cf54610508906001600160a01b031681565b34801561083357600080fd5b5061053e611d64565b34801561084857600080fd5b506105c760d45481565b34801561085e57600080fd5b5061053e61086d366004614771565b6120c6565b34801561087e57600080fd5b5061053e61088d36600461487f565b612138565b34801561089e57600080fd5b5061053e6108ad366004614771565b6127d6565b3480156108be57600080fd5b5061053e6108cd366004614be5565b612865565b3480156108de57600080fd5b5060d154610508906001600160a01b031681565b3480156108fe57600080fd5b5061053e61090d366004614be5565b612be3565b34801561091e57600080fd5b50610555612c63565b34801561093357600080fd5b506105c760d75481565b34801561094957600080fd5b506105c7610958366004614771565b6001600160a01b031660009081526033602052604090205490565b34801561097f57600080fd5b5061053e612c99565b34801561099457600080fd5b506105c7612ccf565b3480156109a957600080fd5b506105c76109b8366004614b37565b612d14565b3480156109c957600080fd5b506109dd6109d8366004614853565b612d43565b6040516105159190614d28565b3480156109f657600080fd5b5061053e610a05366004614771565b612dca565b348015610a1657600080fd5b5060ce54610508906001600160a01b031681565b348015610a3657600080fd5b50610555612e3c565b348015610a4b57600080fd5b5060ca54610508906001600160a01b031681565b348015610a6b57600080fd5b5061053e610a7a366004614afd565b612e72565b348015610a8b57600080fd5b50610555612eb6565b348015610aa057600080fd5b50610508610aaf366004614be5565b612eec565b348015610ac057600080fd5b5061053e610acf366004614771565b612f1c565b348015610ae057600080fd5b506065546001600160a01b0316610508565b348015610afe57600080fd5b5061053e610b0d366004614be5565b612fb3565b348015610b1e57600080fd5b50610555613035565b348015610b3357600080fd5b5061053e610b42366004614afd565b61306b565b348015610b5357600080fd5b506105556130af565b348015610b6857600080fd5b5061053e610b77366004614be5565b6130be565b348015610b8857600080fd5b506105c7610b97366004614771565b6001600160a01b03166000908152609a602052604090205490565b348015610bbe57600080fd5b5060c954610508906001600160a01b031681565b348015610bde57600080fd5b50610555613140565b348015610bf357600080fd5b5061053e610c02366004614afd565b613176565b348015610c1357600080fd5b5061053e610c22366004614853565b6131b3565b348015610c3357600080fd5b506105a2610c42366004614853565b6131cd565b348015610c5357600080fd5b506105c760d55481565b348015610c6957600080fd5b506105c761326a565b348015610c7e57600080fd5b506105a2610c8d366004614853565b6132af565b348015610c9e57600080fd5b5061053e610cad366004614771565b6132bd565b348015610cbe57600080fd5b506109dd610ccd366004614853565b613311565b348015610cde57600080fd5b5061053e610ced366004614afd565b613344565b348015610cfe57600080fd5b5060da546105a29060ff1681565b348015610d1857600080fd5b506105c760cb5481565b348015610d2e57600080fd5b5061053e610d3d366004614be5565b613381565b348015610d4e57600080fd5b506105c760d35481565b348015610d6457600080fd5b5061053e610d73366004614771565b6133dc565b348015610d8457600080fd5b506105c7610d93366004614771565b6001600160a01b031660009081526099602052604090205490565b348015610dba57600080fd5b5061053e610dc9366004614771565b613477565b348015610dda57600080fd5b5061053e610de9366004614b52565b6134e9565b348015610dfa57600080fd5b506105c7610e09366004614771565b6001600160a01b03166000908152609c602052604090205490565b348015610e3057600080fd5b506105c7610e3f3660046147ab565b613545565b348015610e5057600080fd5b5060d8546105a29060ff1681565b348015610e6a57600080fd5b50610555613570565b348015610e7f57600080fd5b506098546105c7565b348015610e9457600080fd5b5061053e610ea3366004614771565b6135a6565b348015610eb457600080fd5b5060da546105a290610100900460ff1681565b348015610ed357600080fd5b5061053e610ee2366004614771565b613618565b348015610ef357600080fd5b5061053e610f02366004614be5565b6136b3565b6065546001600160a01b03163314610f3a5760405162461bcd60e51b8152600401610f3190614e66565b60405180910390fd5b6001600160a01b0391909116600090815260d960205260409020805460ff1916911515919091179055565b606060368054610f749061505b565b80601f0160208091040260200160405190810160405280929190818152602001828054610fa09061505b565b8015610fed5780601f10610fc257610100808354040283529160200191610fed565b820191906000526020600020905b815481529060010190602001808311610fd057829003601f168201915b5050505050905090565b6065546001600160a01b031633146110215760405162461bcd60e51b8152600401610f3190614e66565b60008160d35460d55460d4546110379190614fbf565b6110419190614fbf565b61104b9190614fbf565b9050606481111561106e5760405162461bcd60e51b8152600401610f3190614ec0565b60d29190915560d655565b600033611087818585613735565b60019150505b92915050565b6000336110b25760405162461bcd60e51b8152600401610f3190614e9b565b60c9546001600160a01b031663619a635e336040518263ffffffff1660e01b81526004016110e09190614c81565b60206040518083038186803b1580156110f857600080fd5b505afa15801561110c573d6000803e3d6000fd5b505050506040513d601f19601f820116820180604052508101906111309190614bfe565b905090565b6065546001600160a01b0316331461115f5760405162461bcd60e51b8152600401610f3190614e66565b6305f5e10081126111c35760405162461bcd60e51b815260206004820152602860248201527f5245445543455f5257443a20646f206e6f7420726564756365206d6f7265207460448201526768616e203130302560c01b6064820152608401610f31565b60c9546040516309d2040f60e41b81526001600160a01b0390911690639d2040f0906111f59085908590600401614d7a565b600060405180830381600087803b15801561120f57600080fd5b505af1158015611223573d6000803e3d6000fd5b505050505050565b60603361124a5760405162461bcd60e51b8152600401610f3190614e9b565b60c9546001600160a01b0316635dbab6ed335b6040518263ffffffff1660e01b81526004016112799190614c81565b60006040518083038186803b15801561129157600080fd5b505afa1580156112a5573d6000803e3d6000fd5b505050506040513d6000823e601f3d908101601f191682016040526111309190810190614b6e565b6001600160a01b0381166000908152609960205260409020546113025760405162461bcd60e51b8152600401610f3190614dd5565b600061130d60985490565b6113179047614fbf565b90506000611344838361133f866001600160a01b03166000908152609a602052604090205490565b613859565b9050806113635760405162461bcd60e51b8152600401610f3190614e1b565b6001600160a01b0383166000908152609a60205260408120805483929061138b908490614fbf565b9250508190555080609860008282546113a49190614fbf565b909155506113b49050838261389f565b7fdf20fd1e76bc69d672e4814fafb2c449bba3a5369d8359adf9e05e6fde87b05683826040516113e5929190614c95565b60405180910390a1505050565b60c954604051630c75361360e31b81526000916001600160a01b0316906363a9b09890611423908590600401614d6c565b60206040518083038186803b15801561143b57600080fd5b505afa15801561144f573d6000803e3d6000fd5b505050506040513d601f19601f8201168201806040525081019061108d9190614bfe565b60c95460405163ce6912a360e01b81526000916001600160a01b03169063ce6912a390611423908590600401614d6c565b6000336114b28582856139bd565b6114bd858585613a37565b60019150505b9392505050565b60da54610100900460ff166115215760405162461bcd60e51b815260206004820152601d60248201527f434f4e544d494e543a206d696e7420636f6e74732064697361626c65640000006044820152606401610f31565b60cc548251111561156f5760405162461bcd60e51b8152602060048201526018602482015277434f4e544d494e543a20746f6f206d616e7920636f6e747360401b6044820152606401610f31565b60005b825181101561162857600383828151811061158f5761158f6150c7565b6020026020010151511180156115bf575060218382815181106115b4576115b46150c7565b602002602001015151105b6116165760405162461bcd60e51b815260206004820152602260248201527f434f4e544d494e543a20696d70726f7065722063686172616374657220636f756044820152611b9d60f21b6064820152608401610f31565b8061162081615096565b915050611572565b5033806116705760405162461bcd60e51b8152602060048201526016602482015275434f4e544d494e543a207a65726f206164647265737360501b6044820152606401610f31565b6001600160a01b038116600090815260d9602052604090205460ff16156116d95760405162461bcd60e51b815260206004820152601d60248201527f434f4e544d494e543a20626c61636b6c697374656420616464726573730000006044820152606401610f31565b60ce546001600160a01b03828116911614801590611705575060d0546001600160a01b03828116911614155b801561171f575060cf546001600160a01b03828116911614155b6117765760405162461bcd60e51b815260206004820152602260248201527f434f4e544d494e543a20706f6f6c732063616e6e6f742063726561746520636f6044820152611b9d60f21b6064820152608401610f31565b600061178182613ad0565b905060cb548451826117939190614fbf565b11156117e15760405162461bcd60e51b815260206004820152601c60248201527f434f4e544d494e543a2072656163686564206d696e74206c696d6974000000006044820152606401610f31565b835160c954604051630c75361360e31b8152600092916001600160a01b0316906363a9b09890611815908890600401614d6c565b60206040518083038186803b15801561182d57600080fd5b505afa158015611841573d6000803e3d6000fd5b505050506040513d601f19601f820116820180604052508101906118659190614bfe565b61186f9190614ff9565b90508060cd60008282546118839190614fbf565b90915550506001600160a01b0383166000908152603360205260409020548111156119005760405162461bcd60e51b815260206004820152602760248201527f434f4e544d494e543a2042616c616e636520746f6f206c6f7720666f7220637260448201526632b0ba34b7b71760c91b6064820152608401610f31565b6000606460d554836119129190614ff9565b61191c9190614fd7565b60d854909150610100900460ff16156119625761193a843083613b01565b60d85460ce5461195d916001600160a01b03620100009091048116911683613ccf565b61197a565b60ce5461197a9085906001600160a01b031683613b01565b6000606460d2548461198c9190614ff9565b6119969190614fd7565b60d0549091506119b19086906001600160a01b031683613b01565b6000606460d354856119c39190614ff9565b6119cd9190614fd7565b60d85490915060ff1615611a0e576119e6863083613b01565b60d85460cf54611a09916001600160a01b03620100009091048116911683613ccf565b611a26565b60cf54611a269087906001600160a01b031683613b01565b6000606460d45486611a389190614ff9565b611a429190614fd7565b9050611a4e8782613dc9565b6000818385611a5d888a615018565b611a679190615018565b611a719190615018565b611a7b9190615018565b90508015611a8e57611a8e883083613b01565b60c95460405162a6998d60e31b81526001600160a01b0390911690630534cc6890611ac1908b908e908e90600401614cae565b600060405180830381600087803b158015611adb57600080fd5b505af1158015611aef573d6000803e3d6000fd5b505050507f120c2f36321d80f09f9d26f68f1f49b72c1964e118aa788bb9611f47e10c7eac88604051611b229190614c81565b60405180910390a150505050505050505050565b3360008181526034602090815260408083206001600160a01b03871684529091528120549091906110879082908690611b70908790614fbf565b613735565b6001600160a01b039182166000908152609d6020908152604080832093909416825291909152205490565b6001600160a01b038116600090815260996020526040902054611bd55760405162461bcd60e51b8152600401610f3190614dd5565b6001600160a01b0382166000908152609c60205260408120546040516370a0823160e01b81526001600160a01b038516906370a0823190611c1a903090600401614c81565b60206040518083038186803b158015611c3257600080fd5b505afa158015611c46573d6000803e3d6000fd5b505050506040513d601f19601f82011682018060405250810190611c6a9190614bfe565b611c749190614fbf565b90506000611c87838361133f8787611b75565b905080611ca65760405162461bcd60e51b8152600401610f3190614e1b565b6001600160a01b038085166000908152609d6020908152604080832093871683529290529081208054839290611cdd908490614fbf565b90915550506001600160a01b0384166000908152609c602052604081208054839290611d0a908490614fbf565b90915550611d1b9050848483613de1565b836001600160a01b03167f3be5b7a71e84ed12875d241991c70855ac5817d847039e17a9d895c1ceb0f18a8483604051611d56929190614c95565b60405180910390a250505050565b60da54339060ff161515600114611dbd5760405162461bcd60e51b815260206004820152601960248201527f43534854414c4c3a20636173686f75742064697361626c6564000000000000006044820152606401610f31565b6001600160a01b038116611e0b5760405162461bcd60e51b815260206004820152601560248201527443534854414c4c3a207a65726f206164647265737360581b6044820152606401610f31565b6001600160a01b038116600090815260d9602052604090205460ff1615611e745760405162461bcd60e51b815260206004820152601c60248201527f43534854414c4c3a20626c61636b6c69737465642061646472657373000000006044820152606401610f31565b60ce546001600160a01b03828116911614801590611ea0575060d0546001600160a01b03828116911614155b611eec5760405162461bcd60e51b815260206004820152601d60248201527f43534854414c4c3a20706f6f6c732063616e6e6f7420636173686f75740000006044820152606401610f31565b60c9546040516330cd31af60e11b81526000916001600160a01b03169063619a635e90611f1d908590600401614c81565b60206040518083038186803b158015611f3557600080fd5b505afa158015611f49573d6000803e3d6000fd5b505050506040513d601f19601f82011682018060405250810190611f6d9190614bfe565b905060008111611fbf5760405162461bcd60e51b815260206004820152601960248201527f43534854414c4c3a20726577617264206e6f74207265616479000000000000006044820152606401610f31565b60d75460009015611ff057606460d75483611fda9190614ff9565b611fe49190614fd7565b9050611ff08382613dc9565b611ffa8183615018565b60d054909250612014906001600160a01b03168484613b01565b60c95460405163d094fa8d60e01b81526001600160a01b039091169063d094fa8d90612044908690600401614c81565b602060405180830381600087803b15801561205e57600080fd5b505af1158015612072573d6000803e3d6000fd5b505050506040513d601f19601f820116820180604052508101906120969190614bfe565b507f564112c0ad2fbcae1bed83c58ed5d830128565d634cdc875bb02b065ad242343836040516113e59190614c81565b6065546001600160a01b031633146120f05760405162461bcd60e51b8152600401610f3190614e66565b6001600160a01b0381166121165760405162461bcd60e51b8152600401610f3190614da8565b60ce80546001600160a01b0319166001600160a01b0392909216919091179055565b600054610100900460ff166121535760005460ff1615612157565b303b155b6121ba5760405162461bcd60e51b815260206004820152602e60248201527f496e697469616c697a61626c653a20636f6e747261637420697320616c72656160448201526d191e481a5b9a5d1a585b1a5e995960921b6064820152608401610f31565b600054610100900460ff161580156121dc576000805461ffff19166101011790555b600085511180156121ee575060008451115b6122315760405162461bcd60e51b815260206004820152601460248201527320a222291013102120a620a721a29022a92927a960611b6044820152606401610f31565b612239613e37565b61227d604051806040016040528060078152602001663078426c6f636b60c81b81525060405180604001604052806003815260200162183c2160e91b815250613e66565b6122878787613e97565b60006001600160a01b0316856001815181106122a5576122a56150c7565b60200260200101516001600160a01b0316141580156122f1575060006001600160a01b0316856002815181106122dd576122dd6150c7565b60200260200101516001600160a01b031614155b801561232a575060006001600160a01b031685600381518110612316576123166150c7565b60200260200101516001600160a01b031614155b8015612363575060006001600160a01b03168560048151811061234f5761234f6150c7565b60200260200101516001600160a01b031614155b6123a15760405162461bcd60e51b815260206004820152600f60248201526e1413d3d30816915493c81193d55391608a1b6044820152606401610f31565b846001815181106123b4576123b46150c7565b602002602001015160ce60006101000a8154816001600160a01b0302191690836001600160a01b03160217905550846002815181106123f5576123f56150c7565b602002602001015160d160006101000a8154816001600160a01b0302191690836001600160a01b0316021790555084600381518110612436576124366150c7565b602002602001015160cf60006101000a8154816001600160a01b0302191690836001600160a01b0316021790555084600481518110612477576124776150c7565b602002602001015160d060006101000a8154816001600160a01b0302191690836001600160a01b031602179055506000836000815181106124ba576124ba6150c7565b60200260200101511180156124e957506000836001815181106124df576124df6150c7565b6020026020010151115b801561250f5750600083600281518110612505576125056150c7565b6020026020010151115b8015612535575060008360038151811061252b5761252b6150c7565b6020026020010151115b801561255b5750600083600481518110612551576125516150c7565b6020026020010151115b6125975760405162461bcd60e51b815260206004820152600d60248201526c0c094811915154c81193d55391609a1b6044820152606401610f31565b826000815181106125aa576125aa6150c7565b602002602001015160d581905550826001815181106125cb576125cb6150c7565b602002602001015160d381905550826002815181106125ec576125ec6150c7565b602002602001015160d2819055508260038151811061260d5761260d6150c7565b602002602001015160d4819055508260048151811061262e5761262e6150c7565b602002602001015160d78190555060d35460d55460d45460d2546126529190614fbf565b61265c9190614fbf565b6126669190614fbf565b60d65583518551146126b15760405162461bcd60e51b815260206004820152601460248201527320a222291013102120a620a721a29022a92927a960611b6044820152606401610f31565b60005b855181101561271e5761270c8682815181106126d2576126d26150c7565b60200260200101518683815181106126ec576126ec6150c7565b6020026020010151670de0b6b3a76400006127079190614ff9565b613ec8565b8061271681615096565b9150506126b4565b5060355469d3c21bcecceda1000000146127725760405162461bcd60e51b81526020600482015260156024820152741515130814d5541413164811125191880c48135253605a1b6044820152606401610f31565b60d88054606460cb55600a60cc5561ffff196001600160a01b038516620100000281166001600160b01b0319909216919091176101001790915560da8054610101921691909117905580156127cd576000805461ff00191690555b50505050505050565b6065546001600160a01b031633146128005760405162461bcd60e51b8152600401610f3190614e66565b60ca54604051630196e36f60e61b81526001600160a01b03909116906365b8dbc090612830908490600401614c81565b600060405180830381600087803b15801561284a57600080fd5b505af115801561285e573d6000803e3d6000fd5b5050505050565b60da54339060ff1615156001146128b75760405162461bcd60e51b815260206004820152601660248201527510d4d2150e8810d85cda1bdd5d08111a5cd8589b195960521b6044820152606401610f31565b6001600160a01b0381166129025760405162461bcd60e51b8152602060048201526012602482015271435348543a207a65726f206164647265737360701b6044820152606401610f31565b6001600160a01b038116600090815260d9602052604090205460ff161561295f5760405162461bcd60e51b815260206004820152601160248201527010d4d2150e88189b1858dadb1a5cdd1959607a1b6044820152606401610f31565b60ce546001600160a01b0382811691161480159061298b575060d0546001600160a01b03828116911614155b80156129a5575060cf546001600160a01b03828116911614155b6129fc5760405162461bcd60e51b815260206004820152602260248201527f435348543a20706f6f6c732063616e6e6f7420636173686f7574207265776172604482015261647360f01b6064820152608401610f31565b60c9546040516329b8573160e21b81526000916001600160a01b03169063a6e15cc490612a2f9085908790600401614c95565b60206040518083038186803b158015612a4757600080fd5b505afa158015612a5b573d6000803e3d6000fd5b505050506040513d601f19601f82011682018060405250810190612a7f9190614bfe565b905060008111612aca5760405162461bcd60e51b8152602060048201526016602482015275435348543a20726577617264206e6f7420726561647960501b6044820152606401610f31565b60d75460009015612afb57606460d75483612ae59190614ff9565b612aef9190614fd7565b9050612afb8382613dc9565b612b058183615018565b60d054909250612b1f906001600160a01b03168484613b01565b60c95460405163611015b360e11b81526001600160a01b039091169063c2202b6690612b519086908890600401614c95565b602060405180830381600087803b158015612b6b57600080fd5b505af1158015612b7f573d6000803e3d6000fd5b505050506040513d601f19601f82011682018060405250810190612ba39190614bfe565b507f39f6d68d140e552a327d43ef814649947d78e76743e169e4f00d61b14f2f846d8385604051612bd5929190614c95565b60405180910390a150505050565b6065546001600160a01b03163314612c0d5760405162461bcd60e51b8152600401610f3190614e66565b6064811115612c5e5760405162461bcd60e51b815260206004820152601c60248201527f464545533a20636173686f757420657863656564696e672031303025000000006044820152606401610f31565b60d755565b606033612c825760405162461bcd60e51b8152600401610f3190614e9b565b60c9546001600160a01b03166377ec78263361125d565b6065546001600160a01b03163314612cc35760405162461bcd60e51b8152600401610f3190614e66565b612ccd6000613fa7565b565b60c9546040805163055a757d60e41b815290516000926001600160a01b0316916355a757d0916004808301926020929190829003018186803b1580156110f857600080fd5b60c95460405162c73e4d60e01b81526000916001600160a01b03169062c73e4d90611423908590600401614d6c565b60ca54604051637b07004b60e01b81526060916001600160a01b031690637b07004b90612d769086908690600401614c95565b60006040518083038186803b158015612d8e57600080fd5b505afa158015612da2573d6000803e3d6000fd5b505050506040513d6000823e601f3d908101601f191682016040526114c39190810190614a65565b6065546001600160a01b03163314612df45760405162461bcd60e51b8152600401610f3190614e66565b6001600160a01b038116612e1a5760405162461bcd60e51b8152600401610f3190614da8565b60cf80546001600160a01b0319166001600160a01b0392909216919091179055565b606033612e5b5760405162461bcd60e51b8152600401610f3190614e9b565b60c9546001600160a01b0316638bf145143361125d565b6065546001600160a01b03163314612e9c5760405162461bcd60e51b8152600401610f3190614e66565b60d880549115156101000261ff0019909216919091179055565b606033612ed55760405162461bcd60e51b8152600401610f3190614e9b565b60c9546001600160a01b031663f743f3193361125d565b6000609b8281548110612f0157612f016150c7565b6000918252602090912001546001600160a01b031692915050565b6065546001600160a01b03163314612f465760405162461bcd60e51b8152600401610f3190614e66565b6001600160a01b038116612f915760405162461bcd60e51b81526020600482015260126024820152712722abafa1a9269d103d32b9379030b2323960711b6044820152606401610f31565b60c980546001600160a01b0319166001600160a01b0392909216919091179055565b6065546001600160a01b03163314612fdd5760405162461bcd60e51b8152600401610f3190614e66565b60008160d35460d55460d254612ff39190614fbf565b612ffd9190614fbf565b6130079190614fbf565b9050606481111561302a5760405162461bcd60e51b8152600401610f3190614ec0565b60d49190915560d655565b6060336130545760405162461bcd60e51b8152600401610f3190614e9b565b60c9546001600160a01b03166351bf120c3361125d565b6065546001600160a01b031633146130955760405162461bcd60e51b8152600401610f3190614e66565b60da80549115156101000261ff0019909216919091179055565b606060378054610f749061505b565b6065546001600160a01b031633146130e85760405162461bcd60e51b8152600401610f3190614e66565b60008160d55460d45460d2546130fe9190614fbf565b6131089190614fbf565b6131129190614fbf565b905060648111156131355760405162461bcd60e51b8152600401610f3190614ec0565b60d39190915560d655565b60603361315f5760405162461bcd60e51b8152600401610f3190614e9b565b60c9546001600160a01b031663367fd0743361125d565b6065546001600160a01b031633146131a05760405162461bcd60e51b8152600401610f3190614e66565b60d8805460ff1916911515919091179055565b6131be333083613a37565b6131c9823383613ccf565b5050565b3360008181526034602090815260408083206001600160a01b0387168452909152812054909190838110156132525760405162461bcd60e51b815260206004820152602560248201527f45524332303a2064656372656173656420616c6c6f77616e63652062656c6f77604482015264207a65726f60d81b6064820152608401610f31565b61325f8286868403613735565b506001949350505050565b60c9546040805163e18f03ad60e01b815290516000926001600160a01b03169163e18f03ad916004808301926020929190829003018186803b1580156110f857600080fd5b600033611087818585613a37565b6065546001600160a01b031633146132e75760405162461bcd60e51b8152600401610f3190614e66565b60d880546001600160a01b03909216620100000262010000600160b01b0319909216919091179055565b60ca54604051630ab8f06d60e41b81526060916001600160a01b03169063ab8f06d090612d769086908690600401614c95565b6065546001600160a01b0316331461336e5760405162461bcd60e51b8152600401610f3190614e66565b60da805460ff1916911515919091179055565b6065546001600160a01b031633146133ab5760405162461bcd60e51b8152600401610f3190614e66565b60c954604051631c864c8f60e11b8152600481018390526001600160a01b039091169063390c991e90602401612830565b6065546001600160a01b031633146134065760405162461bcd60e51b8152600401610f3190614e66565b6001600160a01b0381166134555760405162461bcd60e51b81526020600482015260166024820152752722abafa62927aaaa22a91d103d32b9379030b2323960511b6044820152606401610f31565b60ca80546001600160a01b0319166001600160a01b0392909216919091179055565b6065546001600160a01b031633146134a15760405162461bcd60e51b8152600401610f3190614e66565b6001600160a01b0381166134c75760405162461bcd60e51b8152600401610f3190614da8565b60d080546001600160a01b0319166001600160a01b0392909216919091179055565b6065546001600160a01b031633146135135760405162461bcd60e51b8152600401610f3190614e66565b60c954604051631d5a173160e01b81526001600160a01b0390911690631d5a1731906111f59085908590600401614d7a565b6001600160a01b03918216600090815260346020908152604080832093909416825291909152205490565b60603361358f5760405162461bcd60e51b8152600401610f3190614e9b565b60c9546001600160a01b03166328cceb243361125d565b6065546001600160a01b031633146135d05760405162461bcd60e51b8152600401610f3190614e66565b6001600160a01b0381166135f65760405162461bcd60e51b8152600401610f3190614da8565b60d180546001600160a01b0319166001600160a01b0392909216919091179055565b6065546001600160a01b031633146136425760405162461bcd60e51b8152600401610f3190614e66565b6001600160a01b0381166136a75760405162461bcd60e51b815260206004820152602660248201527f4f776e61626c653a206e6577206f776e657220697320746865207a65726f206160448201526564647265737360d01b6064820152608401610f31565b6136b081613fa7565b50565b6065546001600160a01b031633146136dd5760405162461bcd60e51b8152600401610f3190614e66565b60008160d35460d45460d2546136f39190614fbf565b6136fd9190614fbf565b6137079190614fbf565b9050606481111561372a5760405162461bcd60e51b8152600401610f3190614ec0565b60d59190915560d655565b6001600160a01b0383166137975760405162461bcd60e51b8152602060048201526024808201527f45524332303a20617070726f76652066726f6d20746865207a65726f206164646044820152637265737360e01b6064820152608401610f31565b6001600160a01b0382166137f85760405162461bcd60e51b815260206004820152602260248201527f45524332303a20617070726f766520746f20746865207a65726f206164647265604482015261737360f01b6064820152608401610f31565b6001600160a01b0383811660008181526034602090815260408083209487168084529482529182902085905590518481527f8c5be1e5ebec7d5bd14f71427d1e84f3dd0314c0f7b2291e5b200ac8c7c3b925910160405180910390a3505050565b6097546001600160a01b038416600090815260996020526040812054909183916138839086614ff9565b61388d9190614fd7565b6138979190615018565b949350505050565b804710156138ef5760405162461bcd60e51b815260206004820152601d60248201527f416464726573733a20696e73756666696369656e742062616c616e63650000006044820152606401610f31565b6000826001600160a01b03168260405160006040518083038185875af1925050503d806000811461393c576040519150601f19603f3d011682016040523d82523d6000602084013e613941565b606091505b50509050806139b85760405162461bcd60e51b815260206004820152603a60248201527f416464726573733a20756e61626c6520746f2073656e642076616c75652c207260448201527f6563697069656e74206d617920686176652072657665727465640000000000006064820152608401610f31565b505050565b60006139c98484613545565b90506000198114613a315781811015613a245760405162461bcd60e51b815260206004820152601d60248201527f45524332303a20696e73756666696369656e7420616c6c6f77616e63650000006044820152606401610f31565b613a318484848403613735565b50505050565b6001600160a01b038316600090815260d9602052604090205460ff16158015613a7957506001600160a01b038216600090815260d9602052604090205460ff16155b613ac55760405162461bcd60e51b815260206004820152601a60248201527f45524332303a20426c61636b6c697374656420616464726573730000000000006044820152606401610f31565b6139b8838383613b01565b60c9546040516344fea1b960e01b81526000916001600160a01b0316906344fea1b990611423908590600401614c81565b6001600160a01b038316613b655760405162461bcd60e51b815260206004820152602560248201527f45524332303a207472616e736665722066726f6d20746865207a65726f206164604482015264647265737360d81b6064820152608401610f31565b6001600160a01b038216613bc75760405162461bcd60e51b815260206004820152602360248201527f45524332303a207472616e7366657220746f20746865207a65726f206164647260448201526265737360e81b6064820152608401610f31565b6001600160a01b03831660009081526033602052604090205481811015613c3f5760405162461bcd60e51b815260206004820152602660248201527f45524332303a207472616e7366657220616d6f756e7420657863656564732062604482015265616c616e636560d01b6064820152608401610f31565b6001600160a01b03808516600090815260336020526040808220858503905591851681529081208054849290613c76908490614fbf565b92505081905550826001600160a01b0316846001600160a01b03167fddf252ad1be2c89b69c2b068fc378daa952ba7f163c4a11628f55a4df523b3ef84604051613cc291815260200190565b60405180910390a3613a31565b613d5f3060ca60009054906101000a90046001600160a01b03166001600160a01b0316633268cc566040518163ffffffff1660e01b815260040160206040518083038186803b158015613d2157600080fd5b505afa158015613d35573d6000803e3d6000fd5b505050506040513d601f19601f82011682018060405250810190613d59919061478e565b83613735565b60ca54604051639caf326f60e01b81526001600160a01b03858116600483015284811660248301526044820184905290911690639caf326f90606401600060405180830381600087803b158015613db557600080fd5b505af11580156127cd573d6000803e3d6000fd5b60d1546131c99083906001600160a01b031683613b01565b6139b88363a9059cbb60e01b8484604051602401613e00929190614c95565b60408051601f198184030181529190526020810180516001600160e01b03166001600160e01b031990931692909217909152613ff9565b600054610100900460ff16613e5e5760405162461bcd60e51b8152600401610f3190614ef7565b612ccd6140cb565b600054610100900460ff16613e8d5760405162461bcd60e51b8152600401610f3190614ef7565b6131c982826140fb565b600054610100900460ff16613ebe5760405162461bcd60e51b8152600401610f3190614ef7565b6131c98282614149565b6001600160a01b038216613f1e5760405162461bcd60e51b815260206004820152601f60248201527f45524332303a206d696e7420746f20746865207a65726f2061646472657373006044820152606401610f31565b8060356000828254613f309190614fbf565b90915550506001600160a01b03821660009081526033602052604081208054839290613f5d908490614fbf565b90915550506040518181526001600160a01b038316906000907fddf252ad1be2c89b69c2b068fc378daa952ba7f163c4a11628f55a4df523b3ef9060200160405180910390a35050565b606580546001600160a01b038381166001600160a01b0319831681179093556040519116919082907f8be0079c531659141344cd1fd0a4f28419497f9722a3daafe3b4186f6b6457e090600090a35050565b600061404e826040518060400160405280602081526020017f5361666545524332303a206c6f772d6c6576656c2063616c6c206661696c6564815250856001600160a01b03166142879092919063ffffffff16565b8051909150156139b8578080602001905181019061406c9190614b1a565b6139b85760405162461bcd60e51b815260206004820152602a60248201527f5361666545524332303a204552433230206f7065726174696f6e20646964206e6044820152691bdd081cdd58d8d9595960b21b6064820152608401610f31565b600054610100900460ff166140f25760405162461bcd60e51b8152600401610f3190614ef7565b612ccd33613fa7565b600054610100900460ff166141225760405162461bcd60e51b8152600401610f3190614ef7565b81516141359060369060208501906145de565b5080516139b89060379060208401906145de565b600054610100900460ff166141705760405162461bcd60e51b8152600401610f3190614ef7565b80518251146141dc5760405162461bcd60e51b815260206004820152603260248201527f5061796d656e7453706c69747465723a2070617965657320616e6420736861726044820152710cae640d8cadccee8d040dad2e6dac2e8c6d60731b6064820152608401610f31565b600082511161422d5760405162461bcd60e51b815260206004820152601a60248201527f5061796d656e7453706c69747465723a206e6f207061796565730000000000006044820152606401610f31565b60005b82518110156139b85761427583828151811061424e5761424e6150c7565b6020026020010151838381518110614268576142686150c7565b6020026020010151614296565b8061427f81615096565b915050614230565b60606138978484600085614474565b6001600160a01b0382166143015760405162461bcd60e51b815260206004820152602c60248201527f5061796d656e7453706c69747465723a206163636f756e74206973207468652060448201526b7a65726f206164647265737360a01b6064820152608401610f31565b600081116143515760405162461bcd60e51b815260206004820152601d60248201527f5061796d656e7453706c69747465723a207368617265732061726520300000006044820152606401610f31565b6001600160a01b038216600090815260996020526040902054156143cb5760405162461bcd60e51b815260206004820152602b60248201527f5061796d656e7453706c69747465723a206163636f756e7420616c726561647960448201526a206861732073686172657360a81b6064820152608401610f31565b609b8054600181019091557fbba9db4cdbea0a37c207bbb83e20f828cd4441c49891101dc94fd20dc8efc3490180546001600160a01b0319166001600160a01b0384169081179091556000908152609960205260409020819055609754614433908290614fbf565b6097556040517f40c340f65e17194d14ddddb073d3c9f888e3cb52b5aae0c6c7706b4fbc905fac906144689084908490614c95565b60405180910390a15050565b6060824710156144d55760405162461bcd60e51b815260206004820152602660248201527f416464726573733a20696e73756666696369656e742062616c616e636520666f6044820152651c8818d85b1b60d21b6064820152608401610f31565b6001600160a01b0385163b61452c5760405162461bcd60e51b815260206004820152601d60248201527f416464726573733a2063616c6c20746f206e6f6e2d636f6e74726163740000006044820152606401610f31565b600080866001600160a01b031685876040516145489190614c65565b60006040518083038185875af1925050503d8060008114614585576040519150601f19603f3d011682016040523d82523d6000602084013e61458a565b606091505b509150915061459a8282866145a5565b979650505050505050565b606083156145b45750816114c3565b8251156145c45782518084602001fd5b8160405162461bcd60e51b8152600401610f319190614d95565b8280546145ea9061505b565b90600052602060002090601f01602090048101928261460c5760008555614652565b82601f1061462557805160ff1916838001178555614652565b82800160010185558215614652579182015b82811115614652578251825591602001919060010190614637565b5061465e929150614662565b5090565b5b8082111561465e5760008155600101614663565b8035614682816150f3565b919050565b600082601f83011261469857600080fd5b813560206146ad6146a883614f73565b614f42565b80838252828201915082860187848660051b89010111156146cd57600080fd5b60005b858110156146f55781356146e3816150f3565b845292840192908401906001016146d0565b5090979650505050505050565b600082601f83011261471357600080fd5b813560206147236146a883614f73565b80838252828201915082860187848660051b890101111561474357600080fd5b60005b858110156146f557813584529284019290840190600101614746565b80356003811061468257600080fd5b60006020828403121561478357600080fd5b81356114c3816150f3565b6000602082840312156147a057600080fd5b81516114c3816150f3565b600080604083850312156147be57600080fd5b82356147c9816150f3565b915060208301356147d9816150f3565b809150509250929050565b6000806000606084860312156147f957600080fd5b8335614804816150f3565b92506020840135614814816150f3565b929592945050506040919091013590565b6000806040838503121561483857600080fd5b8235614843816150f3565b915060208301356147d981615108565b6000806040838503121561486657600080fd5b8235614871816150f3565b946020939093013593505050565b60008060008060008060c0878903121561489857600080fd5b863567ffffffffffffffff808211156148b057600080fd5b6148bc8a838b01614687565b975060208901359150808211156148d257600080fd5b6148de8a838b01614702565b965060408901359150808211156148f457600080fd5b6149008a838b01614687565b9550606089013591508082111561491657600080fd5b6149228a838b01614702565b9450608089013591508082111561493857600080fd5b5061494589828a01614702565b92505061495460a08801614677565b90509295509295509295565b600080604080848603121561497457600080fd5b833567ffffffffffffffff8082111561498c57600080fd5b818601915086601f8301126149a057600080fd5b813560206149b06146a883614f73565b8083825282820191508286018b848660051b89010111156149d057600080fd5b60005b85811015614a45578135878111156149ea57600080fd5b8801603f81018e136149fb57600080fd5b85810135614a0b6146a882614f97565b8181528f8c838501011115614a1f57600080fd5b818c840189830137600091810188019190915285525092840192908401906001016149d3565b50508098505050614a57818901614762565b955050505050509250929050565b60006020808385031215614a7857600080fd5b825167ffffffffffffffff811115614a8f57600080fd5b8301601f81018513614aa057600080fd5b8051614aae6146a882614f73565b80828252848201915084840188868560051b8701011115614ace57600080fd5b600094505b83851015614af1578051835260019490940193918501918501614ad3565b50979650505050505050565b600060208284031215614b0f57600080fd5b81356114c381615108565b600060208284031215614b2c57600080fd5b81516114c381615108565b600060208284031215614b4957600080fd5b6114c382614762565b60008060408385031215614b6557600080fd5b61487183614762565b600060208284031215614b8057600080fd5b815167ffffffffffffffff811115614b9757600080fd5b8201601f81018413614ba857600080fd5b8051614bb66146a882614f97565b818152856020838501011115614bcb57600080fd5b614bdc82602083016020860161502f565b95945050505050565b600060208284031215614bf757600080fd5b5035919050565b600060208284031215614c1057600080fd5b5051919050565b60038110614c3557634e487b7160e01b600052602160045260246000fd5b9052565b60008151808452614c5181602086016020860161502f565b601f01601f19169290920160200192915050565b60008251614c7781846020870161502f565b9190910192915050565b6001600160a01b0391909116815260200190565b6001600160a01b03929092168252602082015260400190565b60006060820160018060a01b0386168352602060608185015281865180845260808601915060808160051b870101935082880160005b82811015614d1257607f19888703018452614d00868351614c39565b95509284019290840190600101614ce4565b5050505050809150506138976040830184614c17565b6020808252825182820181905260009190848201906040850190845b81811015614d6057835183529284019291840191600101614d44565b50909695505050505050565b6020810161108d8284614c17565b60408101614d888285614c17565b8260208301529392505050565b6020815260006114c36020830184614c39565b6020808252601390820152722aa8222faba0a6261d103d32b9379030b2323960691b604082015260600190565b60208082526026908201527f5061796d656e7453706c69747465723a206163636f756e7420686173206e6f2060408201526573686172657360d01b606082015260800190565b6020808252602b908201527f5061796d656e7453706c69747465723a206163636f756e74206973206e6f742060408201526a191d59481c185e5b595b9d60aa1b606082015260800190565b6020808252818101527f4f776e61626c653a2063616c6c6572206973206e6f7420746865206f776e6572604082015260600190565b6020808252600b908201526a053454e44455220495320360ac1b604082015260600190565b6020808252601a908201527f464545533a20746f74616c20657863656564696e672031303025000000000000604082015260600190565b6020808252602b908201527f496e697469616c697a61626c653a20636f6e7472616374206973206e6f74206960408201526a6e697469616c697a696e6760a81b606082015260800190565b604051601f8201601f1916810167ffffffffffffffff81118282101715614f6b57614f6b6150dd565b604052919050565b600067ffffffffffffffff821115614f8d57614f8d6150dd565b5060051b60200190565b600067ffffffffffffffff821115614fb157614fb16150dd565b50601f01601f191660200190565b60008219821115614fd257614fd26150b1565b500190565b600082614ff457634e487b7160e01b600052601260045260246000fd5b500490565b6000816000190483118215151615615013576150136150b1565b500290565b60008282101561502a5761502a6150b1565b500390565b60005b8381101561504a578181015183820152602001615032565b83811115613a315750506000910152565b600181811c9082168061506f57607f821691505b6020821081141561509057634e487b7160e01b600052602260045260246000fd5b50919050565b60006000198214156150aa576150aa6150b1565b5060010190565b634e487b7160e01b600052601160045260246000fd5b634e487b7160e01b600052603260045260246000fd5b634e487b7160e01b600052604160045260246000fd5b6001600160a01b03811681146136b057600080fd5b80151581146136b057600080fdfea164736f6c6343000807000a",
  "devdoc": {
    "kind": "dev",
    "methods": {
      "allowance(address,address)": {
        "details": "See {IERC20-allowance}."
      },
      "approve(address,uint256)": {
        "details": "See {IERC20-approve}. NOTE: If `amount` is the maximum `uint256`, the allowance is not updated on `transferFrom`. This is semantically equivalent to an infinite approval. Requirements: - `spender` cannot be the zero address."
      },
      "balanceOf(address)": {
        "details": "See {IERC20-balanceOf}."
      },
      "decimals()": {
        "details": "Returns the number of decimals used to get its user representation. For example, if `decimals` equals `2`, a balance of `505` tokens should be displayed to a user as `5.05` (`505 / 10 ** 2`). Tokens usually opt for a value of 18, imitating the relationship between Ether and Wei. This is the value {ERC20} uses, unless this function is overridden; NOTE: This information is only used for _display_ purposes: it in no way affects any of the arithmetic of the contract, including {IERC20-balanceOf} and {IERC20-transfer}."
      },
      "decreaseAllowance(address,uint256)": {
        "details": "Atomically decreases the allowance granted to `spender` by the caller. This is an alternative to {approve} that can be used as a mitigation for problems described in {IERC20-approve}. Emits an {Approval} event indicating the updated allowance. Requirements: - `spender` cannot be the zero address. - `spender` must have allowance for the caller of at least `subtractedValue`."
      },
      "increaseAllowance(address,uint256)": {
        "details": "Atomically increases the allowance granted to `spender` by the caller. This is an alternative to {approve} that can be used as a mitigation for problems described in {IERC20-approve}. Emits an {Approval} event indicating the updated allowance. Requirements: - `spender` cannot be the zero address."
      },
      "name()": {
        "details": "Returns the name of the token."
      },
      "owner()": {
        "details": "Returns the address of the current owner."
      },
      "payee(uint256)": {
        "details": "Getter for the address of the payee number `index`."
      },
      "release(address)": {
        "details": "Triggers a transfer to `account` of the amount of Ether they are owed, according to their percentage of the total shares and their previous withdrawals."
      },
      "release(address,address)": {
        "details": "Triggers a transfer to `account` of the amount of `token` tokens they are owed, according to their percentage of the total shares and their previous withdrawals. `token` must be the address of an IERC20 contract."
      },
      "released(address)": {
        "details": "Getter for the amount of Ether already released to a payee."
      },
      "released(address,address)": {
        "details": "Getter for the amount of `token` tokens already released to a payee. `token` should be the address of an IERC20 contract."
      },
      "renounceOwnership()": {
        "details": "Leaves the contract without owner. It will not be possible to call `onlyOwner` functions anymore. Can only be called by the current owner. NOTE: Renouncing ownership will leave the contract without an owner, thereby removing any functionality that is only available to the owner."
      },
      "shares(address)": {
        "details": "Getter for the amount of shares held by an account."
      },
      "symbol()": {
        "details": "Returns the symbol of the token, usually a shorter version of the name."
      },
      "totalReleased()": {
        "details": "Getter for the total amount of Ether already released."
      },
      "totalReleased(address)": {
        "details": "Getter for the total amount of `token` already released. `token` should be the address of an IERC20 contract."
      },
      "totalShares()": {
        "details": "Getter for the total shares held by payees."
      },
      "totalSupply()": {
        "details": "See {IERC20-totalSupply}."
      },
      "transfer(address,uint256)": {
        "details": "See {IERC20-transfer}. Requirements: - `to` cannot be the zero address. - the caller must have a balance of at least `amount`."
      },
      "transferFrom(address,address,uint256)": {
        "details": "See {IERC20-transferFrom}. Emits an {Approval} event indicating the updated allowance. This is not required by the EIP. See the note at the beginning of {ERC20}. NOTE: Does not update the allowance if the current allowance is the maximum `uint256`. Requirements: - `from` and `to` cannot be the zero address. - `from` must have a balance of at least `amount`. - the caller must have allowance for ``from``'s tokens of at least `amount`."
      },
      "transferOwnership(address)": {
        "details": "Transfers ownership of the contract to a new account (`newOwner`). Can only be called by the current owner."
      }
    },
    "version": 1
  },
  "userdoc": {
    "kind": "user",
    "methods": {},
    "version": 1
  },
  "storageLayout": {
    "storage": [
      {
        "astId": 598,
        "contract": "contracts/ZeroXBlock.sol:ZeroXBlock",
        "label": "_initialized",
        "offset": 0,
        "slot": "0",
        "type": "t_bool"
      },
      {
        "astId": 601,
        "contract": "contracts/ZeroXBlock.sol:ZeroXBlock",
        "label": "_initializing",
        "offset": 1,
        "slot": "0",
        "type": "t_bool"
      },
      {
        "astId": 1889,
        "contract": "contracts/ZeroXBlock.sol:ZeroXBlock",
        "label": "__gap",
        "offset": 0,
        "slot": "1",
        "type": "t_array(t_uint256)50_storage"
      },
      {
        "astId": 684,
        "contract": "contracts/ZeroXBlock.sol:ZeroXBlock",
        "label": "_balances",
        "offset": 0,
        "slot": "51",
        "type": "t_mapping(t_address,t_uint256)"
      },
      {
        "astId": 690,
        "contract": "contracts/ZeroXBlock.sol:ZeroXBlock",
        "label": "_allowances",
        "offset": 0,
        "slot": "52",
        "type": "t_mapping(t_address,t_mapping(t_address,t_uint256))"
      },
      {
        "astId": 692,
        "contract": "contracts/ZeroXBlock.sol:ZeroXBlock",
        "label": "_totalSupply",
        "offset": 0,
        "slot": "53",
        "type": "t_uint256"
      },
      {
        "astId": 694,
        "contract": "contracts/ZeroXBlock.sol:ZeroXBlock",
        "label": "_name",
        "offset": 0,
        "slot": "54",
        "type": "t_string_storage"
      },
      {
        "astId": 696,
        "contract": "contracts/ZeroXBlock.sol:ZeroXBlock",
        "label": "_symbol",
        "offset": 0,
        "slot": "55",
        "type": "t_string_storage"
      },
      {
        "astId": 1277,
        "contract": "contracts/ZeroXBlock.sol:ZeroXBlock",
        "label": "__gap",
        "offset": 0,
        "slot": "56",
        "type": "t_array(t_uint256)45_storage"
      },
      {
        "astId": 10,
        "contract": "contracts/ZeroXBlock.sol:ZeroXBlock",
        "label": "_owner",
        "offset": 0,
        "slot": "101",
        "type": "t_address"
      },
      {
        "astId": 122,
        "contract": "contracts/ZeroXBlock.sol:ZeroXBlock",
        "label": "__gap",
        "offset": 0,
        "slot": "102",
        "type": "t_array(t_uint256)49_storage"
      },
      {
        "astId": 163,
        "contract": "contracts/ZeroXBlock.sol:ZeroXBlock",
        "label": "_totalShares",
        "offset": 0,
        "slot": "151",
        "type": "t_uint256"
      },
      {
        "astId": 165,
        "contract": "contracts/ZeroXBlock.sol:ZeroXBlock",
        "label": "_totalReleased",
        "offset": 0,
        "slot": "152",
        "type": "t_uint256"
      },
      {
        "astId": 169,
        "contract": "contracts/ZeroXBlock.sol:ZeroXBlock",
        "label": "_shares",
        "offset": 0,
        "slot": "153",
        "type": "t_mapping(t_address,t_uint256)"
      },
      {
        "astId": 173,
        "contract": "contracts/ZeroXBlock.sol:ZeroXBlock",
        "label": "_released",
        "offset": 0,
        "slot": "154",
        "type": "t_mapping(t_address,t_uint256)"
      },
      {
        "astId": 176,
        "contract": "contracts/ZeroXBlock.sol:ZeroXBlock",
        "label": "_payees",
        "offset": 0,
        "slot": "155",
        "type": "t_array(t_address)dyn_storage"
      },
      {
        "astId": 181,
        "contract": "contracts/ZeroXBlock.sol:ZeroXBlock",
        "label": "_erc20TotalReleased",
        "offset": 0,
        "slot": "156",
        "type": "t_mapping(t_contract(IERC20Upgradeable)1356,t_uint256)"
      },
      {
        "astId": 188,
        "contract": "contracts/ZeroXBlock.sol:ZeroXBlock",
        "label": "_erc20Released",
        "offset": 0,
        "slot": "157",
        "type": "t_mapping(t_contract(IERC20Upgradeable)1356,t_mapping(t_address,t_uint256))"
      },
      {
        "astId": 590,
        "contract": "contracts/ZeroXBlock.sol:ZeroXBlock",
        "label": "__gap",
        "offset": 0,
        "slot": "158",
        "type": "t_array(t_uint256)43_storage"
      },
      {
        "astId": 1909,
        "contract": "contracts/ZeroXBlock.sol:ZeroXBlock",
        "label": "_crm",
        "offset": 0,
        "slot": "201",
        "type": "t_contract(CONTRewardManagement)5604"
      },
      {
        "astId": 1912,
        "contract": "contracts/ZeroXBlock.sol:ZeroXBlock",
        "label": "_liqRouter",
        "offset": 0,
        "slot": "202",
        "type": "t_contract(LiquidityRouter)6025"
      },
      {
        "astId": 1917,
        "contract": "contracts/ZeroXBlock.sol:ZeroXBlock",
        "label": "ownedContsLimit",
        "offset": 0,
        "slot": "203",
        "type": "t_uint256"
      },
      {
        "astId": 1919,
        "contract": "contracts/ZeroXBlock.sol:ZeroXBlock",
        "label": "mintContLimit",
        "offset": 0,
        "slot": "204",
        "type": "t_uint256"
      },
      {
        "astId": 1921,
        "contract": "contracts/ZeroXBlock.sol:ZeroXBlock",
        "label": "totalTokensPaidForMinting",
        "offset": 0,
        "slot": "205",
        "type": "t_uint256"
      },
      {
        "astId": 1923,
        "contract": "contracts/ZeroXBlock.sol:ZeroXBlock",
        "label": "developmentFundPool",
        "offset": 0,
        "slot": "206",
        "type": "t_address"
      },
      {
        "astId": 1925,
        "contract": "contracts/ZeroXBlock.sol:ZeroXBlock",
        "label": "treasuryPool",
        "offset": 0,
        "slot": "207",
        "type": "t_address"
      },
      {
        "astId": 1927,
        "contract": "contracts/ZeroXBlock.sol:ZeroXBlock",
        "label": "rewardsPool",
        "offset": 0,
        "slot": "208",
        "type": "t_address"
      },
      {
        "astId": 1929,
        "contract": "contracts/ZeroXBlock.sol:ZeroXBlock",
        "label": "liquidityPool",
        "offset": 0,
        "slot": "209",
        "type": "t_address"
      },
      {
        "astId": 1931,
        "contract": "contracts/ZeroXBlock.sol:ZeroXBlock",
        "label": "rewardsFee",
        "offset": 0,
        "slot": "210",
        "type": "t_uint256"
      },
      {
        "astId": 1933,
        "contract": "contracts/ZeroXBlock.sol:ZeroXBlock",
        "label": "treasuryFee",
        "offset": 0,
        "slot": "211",
        "type": "t_uint256"
      },
      {
        "astId": 1935,
        "contract": "contracts/ZeroXBlock.sol:ZeroXBlock",
        "label": "liquidityPoolFee",
        "offset": 0,
        "slot": "212",
        "type": "t_uint256"
      },
      {
        "astId": 1937,
        "contract": "contracts/ZeroXBlock.sol:ZeroXBlock",
        "label": "developmentFee",
        "offset": 0,
        "slot": "213",
        "type": "t_uint256"
      },
      {
        "astId": 1939,
        "contract": "contracts/ZeroXBlock.sol:ZeroXBlock",
        "label": "totalFees",
        "offset": 0,
        "slot": "214",
        "type": "t_uint256"
      },
      {
        "astId": 1941,
        "contract": "contracts/ZeroXBlock.sol:ZeroXBlock",
        "label": "cashoutFee",
        "offset": 0,
        "slot": "215",
        "type": "t_uint256"
      },
      {
        "astId": 1943,
        "contract": "contracts/ZeroXBlock.sol:ZeroXBlock",
        "label": "enableAutoSwapTreasury",
        "offset": 0,
        "slot": "216",
        "type": "t_bool"
      },
      {
        "astId": 1945,
        "contract": "contracts/ZeroXBlock.sol:ZeroXBlock",
        "label": "enableAutoSwapDevFund",
        "offset": 1,
        "slot": "216",
        "type": "t_bool"
      },
      {
        "astId": 1947,
        "contract": "contracts/ZeroXBlock.sol:ZeroXBlock",
        "label": "usdcToken",
        "offset": 2,
        "slot": "216",
        "type": "t_address"
      },
      {
        "astId": 1951,
        "contract": "contracts/ZeroXBlock.sol:ZeroXBlock",
        "label": "_isBlacklisted",
        "offset": 0,
        "slot": "217",
        "type": "t_mapping(t_address,t_bool)"
      },
      {
        "astId": 1953,
        "contract": "contracts/ZeroXBlock.sol:ZeroXBlock",
        "label": "enableCashout",
        "offset": 0,
        "slot": "218",
        "type": "t_bool"
      },
      {
        "astId": 1955,
        "contract": "contracts/ZeroXBlock.sol:ZeroXBlock",
        "label": "enableMintConts",
        "offset": 1,
        "slot": "218",
        "type": "t_bool"
      }
    ],
    "types": {
      "t_address": {
        "encoding": "inplace",
        "label": "address",
        "numberOfBytes": "20"
      },
      "t_array(t_address)dyn_storage": {
        "base": "t_address",
        "encoding": "dynamic_array",
        "label": "address[]",
        "numberOfBytes": "32"
      },
      "t_array(t_uint256)43_storage": {
        "base": "t_uint256",
        "encoding": "inplace",
        "label": "uint256[43]",
        "numberOfBytes": "1376"
      },
      "t_array(t_uint256)45_storage": {
        "base": "t_uint256",
        "encoding": "inplace",
        "label": "uint256[45]",
        "numberOfBytes": "1440"
      },
      "t_array(t_uint256)49_storage": {
        "base": "t_uint256",
        "encoding": "inplace",
        "label": "uint256[49]",
        "numberOfBytes": "1568"
      },
      "t_array(t_uint256)50_storage": {
        "base": "t_uint256",
        "encoding": "inplace",
        "label": "uint256[50]",
        "numberOfBytes": "1600"
      },
      "t_bool": {
        "encoding": "inplace",
        "label": "bool",
        "numberOfBytes": "1"
      },
      "t_contract(CONTRewardManagement)5604": {
        "encoding": "inplace",
        "label": "contract CONTRewardManagement",
        "numberOfBytes": "20"
      },
      "t_contract(IERC20Upgradeable)1356": {
        "encoding": "inplace",
        "label": "contract IERC20Upgradeable",
        "numberOfBytes": "20"
      },
      "t_contract(LiquidityRouter)6025": {
        "encoding": "inplace",
        "label": "contract LiquidityRouter",
        "numberOfBytes": "20"
      },
      "t_mapping(t_address,t_bool)": {
        "encoding": "mapping",
        "key": "t_address",
        "label": "mapping(address => bool)",
        "numberOfBytes": "32",
        "value": "t_bool"
      },
      "t_mapping(t_address,t_mapping(t_address,t_uint256))": {
        "encoding": "mapping",
        "key": "t_address",
        "label": "mapping(address => mapping(address => uint256))",
        "numberOfBytes": "32",
        "value": "t_mapping(t_address,t_uint256)"
      },
      "t_mapping(t_address,t_uint256)": {
        "encoding": "mapping",
        "key": "t_address",
        "label": "mapping(address => uint256)",
        "numberOfBytes": "32",
        "value": "t_uint256"
      },
      "t_mapping(t_contract(IERC20Upgradeable)1356,t_mapping(t_address,t_uint256))": {
        "encoding": "mapping",
        "key": "t_contract(IERC20Upgradeable)1356",
        "label": "mapping(contract IERC20Upgradeable => mapping(address => uint256))",
        "numberOfBytes": "32",
        "value": "t_mapping(t_address,t_uint256)"
      },
      "t_mapping(t_contract(IERC20Upgradeable)1356,t_uint256)": {
        "encoding": "mapping",
        "key": "t_contract(IERC20Upgradeable)1356",
        "label": "mapping(contract IERC20Upgradeable => uint256)",
        "numberOfBytes": "32",
        "value": "t_uint256"
      },
      "t_string_storage": {
        "encoding": "bytes",
        "label": "string",
        "numberOfBytes": "32"
      },
      "t_uint256": {
        "encoding": "inplace",
        "label": "uint256",
        "numberOfBytes": "32"
      }
    }
  }
}