{
  "address": "0x7C50A6e9c1A70F16FC615356414886dd1B8BdEE6",
  "abi": [
    {
      "anonymous": false,
      "inputs": [
        {
          "indexed": false,
          "internalType": "address",
          "name": "sender",
          "type": "address"
        },
        {
          "indexed": false,
          "internalType": "uint256",
          "name": "tokens",
          "type": "uint256"
        }
      ],
      "name": "AddLiquidity",
      "type": "event"
    },
    {
      "anonymous": false,
      "inputs": [
        {
          "indexed": true,
          "internalType": "address",
          "name": "owner",
          "type": "address"
        },
        {
          "indexed": true,
          "internalType": "address",
          "name": "spender",
          "type": "address"
        },
        {
          "indexed": false,
          "internalType": "uint256",
          "name": "value",
          "type": "uint256"
        }
      ],
      "name": "Approval",
      "type": "event"
    },
    {
      "anonymous": false,
      "inputs": [
        {
          "indexed": false,
          "internalType": "address",
          "name": "sender",
          "type": "address"
        }
      ],
      "name": "ContsMinted",
      "type": "event"
    },
    {
      "anonymous": false,
      "inputs": [
        {
          "indexed": true,
          "internalType": "contract IERC20Upgradeable",
          "name": "token",
          "type": "address"
        },
        {
          "indexed": false,
          "internalType": "address",
          "name": "to",
          "type": "address"
        },
        {
          "indexed": false,
          "internalType": "uint256",
          "name": "amount",
          "type": "uint256"
        }
      ],
      "name": "ERC20PaymentReleased",
      "type": "event"
    },
    {
      "anonymous": false,
      "inputs": [
        {
          "indexed": true,
          "internalType": "address",
          "name": "previousOwner",
          "type": "address"
        },
        {
          "indexed": true,
          "internalType": "address",
          "name": "newOwner",
          "type": "address"
        }
      ],
      "name": "OwnershipTransferred",
      "type": "event"
    },
    {
      "anonymous": false,
      "inputs": [
        {
          "indexed": false,
          "internalType": "address",
          "name": "account",
          "type": "address"
        },
        {
          "indexed": false,
          "internalType": "uint256",
          "name": "shares",
          "type": "uint256"
        }
      ],
      "name": "PayeeAdded",
      "type": "event"
    },
    {
      "anonymous": false,
      "inputs": [
        {
          "indexed": false,
          "internalType": "address",
          "name": "from",
          "type": "address"
        },
        {
          "indexed": false,
          "internalType": "uint256",
          "name": "amount",
          "type": "uint256"
        }
      ],
      "name": "PaymentReceived",
      "type": "event"
    },
    {
      "anonymous": false,
      "inputs": [
        {
          "indexed": false,
          "internalType": "address",
          "name": "to",
          "type": "address"
        },
        {
          "indexed": false,
          "internalType": "uint256",
          "name": "amount",
          "type": "uint256"
        }
      ],
      "name": "PaymentReleased",
      "type": "event"
    },
    {
      "anonymous": false,
      "inputs": [
        {
          "indexed": false,
          "internalType": "address",
          "name": "sender",
          "type": "address"
        }
      ],
      "name": "RewardCashoutAll",
      "type": "event"
    },
    {
      "anonymous": false,
      "inputs": [
        {
          "indexed": false,
          "internalType": "address",
          "name": "sender",
          "type": "address"
        },
        {
          "indexed": false,
          "internalType": "uint256",
          "name": "index",
          "type": "uint256"
        }
      ],
      "name": "RewardCashoutOne",
      "type": "event"
    },
    {
      "anonymous": false,
      "inputs": [
        {
          "indexed": true,
          "internalType": "address",
          "name": "from",
          "type": "address"
        },
        {
          "indexed": true,
          "internalType": "address",
          "name": "to",
          "type": "address"
        },
        {
          "indexed": false,
          "internalType": "uint256",
          "name": "value",
          "type": "uint256"
        }
      ],
      "name": "Transfer",
      "type": "event"
    },
    {
      "inputs": [],
      "name": "_crm",
      "outputs": [
        {
          "internalType": "contract CONTRewardManagement",
          "name": "",
          "type": "address"
        }
      ],
      "stateMutability": "view",
      "type": "function"
    },
    {
      "inputs": [
        {
          "internalType": "address",
          "name": "",
          "type": "address"
        }
      ],
      "name": "_isBlacklisted",
      "outputs": [
        {
          "internalType": "bool",
          "name": "",
          "type": "bool"
        }
      ],
      "stateMutability": "view",
      "type": "function"
    },
    {
      "inputs": [],
      "name": "_liqRouter",
      "outputs": [
        {
          "internalType": "contract LiquidityRouter",
          "name": "",
          "type": "address"
        }
      ],
      "stateMutability": "view",
      "type": "function"
    },
    {
      "inputs": [
        {
          "internalType": "address",
          "name": "owner",
          "type": "address"
        },
        {
          "internalType": "address",
          "name": "spender",
          "type": "address"
        }
      ],
      "name": "allowance",
      "outputs": [
        {
          "internalType": "uint256",
          "name": "",
          "type": "uint256"
        }
      ],
      "stateMutability": "view",
      "type": "function"
    },
    {
      "inputs": [
        {
          "internalType": "address",
          "name": "spender",
          "type": "address"
        },
        {
          "internalType": "uint256",
          "name": "amount",
          "type": "uint256"
        }
      ],
      "name": "approve",
      "outputs": [
        {
          "internalType": "bool",
          "name": "",
          "type": "bool"
        }
      ],
      "stateMutability": "nonpayable",
      "type": "function"
    },
    {
      "inputs": [
        {
          "internalType": "address",
          "name": "account",
          "type": "address"
        }
      ],
      "name": "balanceOf",
      "outputs": [
        {
          "internalType": "uint256",
          "name": "",
          "type": "uint256"
        }
      ],
      "stateMutability": "view",
      "type": "function"
    },
    {
      "inputs": [],
      "name": "cashoutAll",
      "outputs": [],
      "stateMutability": "nonpayable",
      "type": "function"
    },
    {
      "inputs": [],
      "name": "cashoutFee",
      "outputs": [
        {
          "internalType": "uint256",
          "name": "",
          "type": "uint256"
        }
      ],
      "stateMutability": "view",
      "type": "function"
    },
    {
      "inputs": [
        {
          "internalType": "uint256",
          "name": "_contIndex",
          "type": "uint256"
        }
      ],
      "name": "cashoutReward",
      "outputs": [],
      "stateMutability": "nonpayable",
      "type": "function"
    },
    {
      "inputs": [
        {
          "internalType": "uint256",
          "name": "newTime",
          "type": "uint256"
        }
      ],
      "name": "changeCashoutTimeout",
      "outputs": [],
      "stateMutability": "nonpayable",
      "type": "function"
    },
    {
      "inputs": [
        {
          "internalType": "enum ContType",
          "name": "_cType",
          "type": "uint8"
        },
        {
          "internalType": "uint256",
          "name": "newPrice",
          "type": "uint256"
        }
      ],
      "name": "changeContPrice",
      "outputs": [],
      "stateMutability": "nonpayable",
      "type": "function"
    },
    {
      "inputs": [
        {
          "internalType": "bool",
          "name": "newVal",
          "type": "bool"
        }
      ],
      "name": "changeEnableAutoSwapDevFund",
      "outputs": [],
      "stateMutability": "nonpayable",
      "type": "function"
    },
    {
      "inputs": [
        {
          "internalType": "bool",
          "name": "newVal",
          "type": "bool"
        }
      ],
      "name": "changeEnableAutoSwapTreasury",
      "outputs": [],
      "stateMutability": "nonpayable",
      "type": "function"
    },
    {
      "inputs": [
        {
          "internalType": "enum ContType",
          "name": "_cType",
          "type": "uint8"
        },
        {
          "internalType": "int256",
          "name": "deductPcent",
          "type": "int256"
        }
      ],
      "name": "changeRewardAPRPerCont",
      "outputs": [],
      "stateMutability": "nonpayable",
      "type": "function"
    },
    {
      "inputs": [],
      "name": "decimals",
      "outputs": [
        {
          "internalType": "uint8",
          "name": "",
          "type": "uint8"
        }
      ],
      "stateMutability": "view",
      "type": "function"
    },
    {
      "inputs": [
        {
          "internalType": "address",
          "name": "spender",
          "type": "address"
        },
        {
          "internalType": "uint256",
          "name": "subtractedValue",
          "type": "uint256"
        }
      ],
      "name": "decreaseAllowance",
      "outputs": [
        {
          "internalType": "bool",
          "name": "",
          "type": "bool"
        }
      ],
      "stateMutability": "nonpayable",
      "type": "function"
    },
    {
      "inputs": [],
      "name": "developmentFee",
      "outputs": [
        {
          "internalType": "uint256",
          "name": "",
          "type": "uint256"
        }
      ],
      "stateMutability": "view",
      "type": "function"
    },
    {
      "inputs": [],
      "name": "developmentFundPool",
      "outputs": [
        {
          "internalType": "address",
          "name": "",
          "type": "address"
        }
      ],
      "stateMutability": "view",
      "type": "function"
    },
    {
      "inputs": [],
      "name": "enableAutoSwapDevFund",
      "outputs": [
        {
          "internalType": "bool",
          "name": "",
          "type": "bool"
        }
      ],
      "stateMutability": "view",
      "type": "function"
    },
    {
      "inputs": [],
      "name": "enableAutoSwapTreasury",
      "outputs": [
        {
          "internalType": "bool",
          "name": "",
          "type": "bool"
        }
      ],
      "stateMutability": "view",
      "type": "function"
    },
    {
      "inputs": [],
      "name": "enableCashout",
      "outputs": [
        {
          "internalType": "bool",
          "name": "",
          "type": "bool"
        }
      ],
      "stateMutability": "view",
      "type": "function"
    },
    {
      "inputs": [],
      "name": "enableMintConts",
      "outputs": [
        {
          "internalType": "bool",
          "name": "",
          "type": "bool"
        }
      ],
      "stateMutability": "view",
      "type": "function"
    },
    {
      "inputs": [],
      "name": "getCashoutTimeout",
      "outputs": [
        {
          "internalType": "uint256",
          "name": "",
          "type": "uint256"
        }
      ],
      "stateMutability": "view",
      "type": "function"
    },
    {
      "inputs": [
        {
          "internalType": "enum ContType",
          "name": "_cType",
          "type": "uint8"
        }
      ],
      "name": "getContPrice",
      "outputs": [
        {
          "internalType": "uint256",
          "name": "",
          "type": "uint256"
        }
      ],
      "stateMutability": "view",
      "type": "function"
    },
    {
      "inputs": [],
      "name": "getContsCreationTime",
      "outputs": [
        {
          "internalType": "string",
          "name": "",
          "type": "string"
        }
      ],
      "stateMutability": "view",
      "type": "function"
    },
    {
      "inputs": [],
      "name": "getContsCurrentAPR",
      "outputs": [
        {
          "internalType": "string",
          "name": "",
          "type": "string"
        }
      ],
      "stateMutability": "view",
      "type": "function"
    },
    {
      "inputs": [],
      "name": "getContsInitialAPR",
      "outputs": [
        {
          "internalType": "string",
          "name": "",
          "type": "string"
        }
      ],
      "stateMutability": "view",
      "type": "function"
    },
    {
      "inputs": [],
      "name": "getContsLastCashoutTime",
      "outputs": [
        {
          "internalType": "string",
          "name": "",
          "type": "string"
        }
      ],
      "stateMutability": "view",
      "type": "function"
    },
    {
      "inputs": [],
      "name": "getContsNames",
      "outputs": [
        {
          "internalType": "string",
          "name": "",
          "type": "string"
        }
      ],
      "stateMutability": "view",
      "type": "function"
    },
    {
      "inputs": [],
      "name": "getContsRewards",
      "outputs": [
        {
          "internalType": "string",
          "name": "",
          "type": "string"
        }
      ],
      "stateMutability": "view",
      "type": "function"
    },
    {
      "inputs": [],
      "name": "getContsTypes",
      "outputs": [
        {
          "internalType": "string",
          "name": "",
          "type": "string"
        }
      ],
      "stateMutability": "view",
      "type": "function"
    },
    {
      "inputs": [
        {
          "internalType": "bool",
          "name": "is0xBOut",
          "type": "bool"
        },
        {
          "internalType": "address",
          "name": "targetToken",
          "type": "address"
        },
        {
          "internalType": "uint256",
          "name": "outputAmount",
          "type": "uint256"
        }
      ],
      "name": "getInputAmount",
      "outputs": [
        {
          "internalType": "uint256[]",
          "name": "",
          "type": "uint256[]"
        }
      ],
      "stateMutability": "view",
      "type": "function"
    },
    {
      "inputs": [
        {
          "internalType": "bool",
          "name": "is0xBOut",
          "type": "bool"
        },
        {
          "internalType": "address",
          "name": "targetToken",
          "type": "address"
        },
        {
          "internalType": "uint256",
          "name": "inputAmount",
          "type": "uint256"
        }
      ],
      "name": "getOutputAmount",
      "outputs": [
        {
          "internalType": "uint256[]",
          "name": "",
          "type": "uint256[]"
        }
      ],
      "stateMutability": "view",
      "type": "function"
    },
    {
      "inputs": [
        {
          "internalType": "enum ContType",
          "name": "_cType",
          "type": "uint8"
        }
      ],
      "name": "getRewardAPRPerCont",
      "outputs": [
        {
          "internalType": "uint256",
          "name": "",
          "type": "uint256"
        }
      ],
      "stateMutability": "view",
      "type": "function"
    },
    {
      "inputs": [],
      "name": "getRewardAmount",
      "outputs": [
        {
          "internalType": "uint256",
          "name": "",
          "type": "uint256"
        }
      ],
      "stateMutability": "view",
      "type": "function"
    },
    {
      "inputs": [],
      "name": "getTotalConts",
      "outputs": [
        {
          "internalType": "uint256",
          "name": "",
          "type": "uint256"
        }
      ],
      "stateMutability": "view",
      "type": "function"
    },
    {
      "inputs": [
        {
          "internalType": "enum ContType",
          "name": "__cType",
          "type": "uint8"
        }
      ],
      "name": "getTotalContsPerContType",
      "outputs": [
        {
          "internalType": "uint256",
          "name": "",
          "type": "uint256"
        }
      ],
      "stateMutability": "view",
      "type": "function"
    },
    {
      "inputs": [
        {
          "internalType": "address",
          "name": "spender",
          "type": "address"
        },
        {
          "internalType": "uint256",
          "name": "addedValue",
          "type": "uint256"
        }
      ],
      "name": "increaseAllowance",
      "outputs": [
        {
          "internalType": "bool",
          "name": "",
          "type": "bool"
        }
      ],
      "stateMutability": "nonpayable",
      "type": "function"
    },
    {
      "inputs": [
        {
          "internalType": "address[]",
          "name": "payees",
          "type": "address[]"
        },
        {
          "internalType": "uint256[]",
          "name": "shares",
          "type": "uint256[]"
        },
        {
          "internalType": "address[]",
          "name": "addresses",
          "type": "address[]"
        },
        {
          "internalType": "uint256[]",
          "name": "balances",
          "type": "uint256[]"
        },
        {
          "internalType": "uint256[]",
          "name": "fees",
          "type": "uint256[]"
        },
        {
          "internalType": "address",
          "name": "usdcAddr",
          "type": "address"
        }
      ],
      "name": "initialize",
      "outputs": [],
      "stateMutability": "nonpayable",
      "type": "function"
    },
    {
      "inputs": [],
      "name": "liquidityPool",
      "outputs": [
        {
          "internalType": "address",
          "name": "",
          "type": "address"
        }
      ],
      "stateMutability": "view",
      "type": "function"
    },
    {
      "inputs": [],
      "name": "liquidityPoolFee",
      "outputs": [
        {
          "internalType": "uint256",
          "name": "",
          "type": "uint256"
        }
      ],
      "stateMutability": "view",
      "type": "function"
    },
    {
      "inputs": [
        {
          "internalType": "string[]",
          "name": "names",
          "type": "string[]"
        },
        {
          "internalType": "enum ContType",
          "name": "_cType",
          "type": "uint8"
        }
      ],
      "name": "mintConts",
      "outputs": [],
      "stateMutability": "nonpayable",
      "type": "function"
    },
    {
      "inputs": [],
      "name": "name",
      "outputs": [
        {
          "internalType": "string",
          "name": "",
          "type": "string"
        }
      ],
      "stateMutability": "view",
      "type": "function"
    },
    {
      "inputs": [],
      "name": "ownedContsLimit",
      "outputs": [
        {
          "internalType": "uint256",
          "name": "",
          "type": "uint256"
        }
      ],
      "stateMutability": "view",
      "type": "function"
    },
    {
      "inputs": [],
      "name": "owner",
      "outputs": [
        {
          "internalType": "address",
          "name": "",
          "type": "address"
        }
      ],
      "stateMutability": "view",
      "type": "function"
    },
    {
      "inputs": [
        {
          "internalType": "uint256",
          "name": "index",
          "type": "uint256"
        }
      ],
      "name": "payee",
      "outputs": [
        {
          "internalType": "address",
          "name": "",
          "type": "address"
        }
      ],
      "stateMutability": "view",
      "type": "function"
    },
    {
      "inputs": [
        {
          "internalType": "address payable",
          "name": "account",
          "type": "address"
        }
      ],
      "name": "release",
      "outputs": [],
      "stateMutability": "nonpayable",
      "type": "function"
    },
    {
      "inputs": [
        {
          "internalType": "contract IERC20Upgradeable",
          "name": "token",
          "type": "address"
        },
        {
          "internalType": "address",
          "name": "account",
          "type": "address"
        }
      ],
      "name": "release",
      "outputs": [],
      "stateMutability": "nonpayable",
      "type": "function"
    },
    {
      "inputs": [
        {
          "internalType": "contract IERC20Upgradeable",
          "name": "token",
          "type": "address"
        },
        {
          "internalType": "address",
          "name": "account",
          "type": "address"
        }
      ],
      "name": "released",
      "outputs": [
        {
          "internalType": "uint256",
          "name": "",
          "type": "uint256"
        }
      ],
      "stateMutability": "view",
      "type": "function"
    },
    {
      "inputs": [
        {
          "internalType": "address",
          "name": "account",
          "type": "address"
        }
      ],
      "name": "released",
      "outputs": [
        {
          "internalType": "uint256",
          "name": "",
          "type": "uint256"
        }
      ],
      "stateMutability": "view",
      "type": "function"
    },
    {
      "inputs": [],
      "name": "renounceOwnership",
      "outputs": [],
      "stateMutability": "nonpayable",
      "type": "function"
    },
    {
      "inputs": [
        {
          "internalType": "address",
          "name": "userAddr",
          "type": "address"
        },
        {
          "internalType": "uint256",
          "name": "tokens",
          "type": "uint256"
        }
      ],
      "name": "rescueMissentToken",
      "outputs": [],
      "stateMutability": "nonpayable",
      "type": "function"
    },
    {
      "inputs": [],
      "name": "rewardsFee",
      "outputs": [
        {
          "internalType": "uint256",
          "name": "",
          "type": "uint256"
        }
      ],
      "stateMutability": "view",
      "type": "function"
    },
    {
      "inputs": [],
      "name": "rewardsPool",
      "outputs": [
        {
          "internalType": "address",
          "name": "",
          "type": "address"
        }
      ],
      "stateMutability": "view",
      "type": "function"
    },
    {
      "inputs": [
        {
          "internalType": "address",
          "name": "account",
          "type": "address"
        },
        {
          "internalType": "bool",
          "name": "value",
          "type": "bool"
        }
      ],
      "name": "setBlacklistStatus",
      "outputs": [],
      "stateMutability": "nonpayable",
      "type": "function"
    },
    {
      "inputs": [
        {
          "internalType": "address",
          "name": "crm",
          "type": "address"
        }
      ],
      "name": "setContManagement",
      "outputs": [],
      "stateMutability": "nonpayable",
      "type": "function"
    },
    {
      "inputs": [
        {
          "internalType": "bool",
          "name": "_enableCashout",
          "type": "bool"
        }
      ],
      "name": "setEnableCashout",
      "outputs": [],
      "stateMutability": "nonpayable",
      "type": "function"
    },
    {
      "inputs": [
        {
          "internalType": "bool",
          "name": "value",
          "type": "bool"
        }
      ],
      "name": "setEnableMintConts",
      "outputs": [],
      "stateMutability": "nonpayable",
      "type": "function"
    },
    {
      "inputs": [
        {
          "internalType": "address",
          "name": "liqRouter",
          "type": "address"
        }
      ],
      "name": "setLiquidityRouter",
      "outputs": [],
      "stateMutability": "nonpayable",
      "type": "function"
    },
    {
      "inputs": [
        {
          "internalType": "address",
          "name": "newAddress",
          "type": "address"
        }
      ],
      "name": "setUSDCAddress",
      "outputs": [],
      "stateMutability": "nonpayable",
      "type": "function"
    },
    {
      "inputs": [
        {
          "internalType": "address",
          "name": "account",
          "type": "address"
        }
      ],
      "name": "shares",
      "outputs": [
        {
          "internalType": "uint256",
          "name": "",
          "type": "uint256"
        }
      ],
      "stateMutability": "view",
      "type": "function"
    },
    {
      "inputs": [
        {
          "internalType": "address",
          "name": "tokenAddr",
          "type": "address"
        },
        {
          "internalType": "uint256",
          "name": "amountOut",
          "type": "uint256"
        },
        {
          "internalType": "uint256",
          "name": "slippageTolerance",
          "type": "uint256"
        },
        {
          "internalType": "uint256",
          "name": "deadline",
          "type": "uint256"
        }
      ],
      "name": "swap0xBForExactToken",
      "outputs": [],
      "stateMutability": "nonpayable",
      "type": "function"
    },
    {
      "inputs": [
        {
          "internalType": "address",
          "name": "tokenAddr",
          "type": "address"
        },
        {
          "internalType": "uint256",
          "name": "amountIn",
          "type": "uint256"
        },
        {
          "internalType": "uint256",
          "name": "slippageTolerance",
          "type": "uint256"
        },
        {
          "internalType": "uint256",
          "name": "deadline",
          "type": "uint256"
        }
      ],
      "name": "swapExact0xBForToken",
      "outputs": [],
      "stateMutability": "nonpayable",
      "type": "function"
    },
    {
      "inputs": [
        {
          "internalType": "address",
          "name": "tokenAddr",
          "type": "address"
        },
        {
          "internalType": "uint256",
          "name": "amountIn",
          "type": "uint256"
        },
        {
          "internalType": "uint256",
          "name": "slippageTolerance",
          "type": "uint256"
        },
        {
          "internalType": "uint256",
          "name": "deadline",
          "type": "uint256"
        }
      ],
      "name": "swapExactTokenFor0xB",
      "outputs": [],
      "stateMutability": "nonpayable",
      "type": "function"
    },
    {
      "inputs": [],
      "name": "symbol",
      "outputs": [
        {
          "internalType": "string",
          "name": "",
          "type": "string"
        }
      ],
      "stateMutability": "view",
      "type": "function"
    },
    {
      "inputs": [],
      "name": "totalFees",
      "outputs": [
        {
          "internalType": "uint256",
          "name": "",
          "type": "uint256"
        }
      ],
      "stateMutability": "view",
      "type": "function"
    },
    {
      "inputs": [
        {
          "internalType": "contract IERC20Upgradeable",
          "name": "token",
          "type": "address"
        }
      ],
      "name": "totalReleased",
      "outputs": [
        {
          "internalType": "uint256",
          "name": "",
          "type": "uint256"
        }
      ],
      "stateMutability": "view",
      "type": "function"
    },
    {
      "inputs": [],
      "name": "totalReleased",
      "outputs": [
        {
          "internalType": "uint256",
          "name": "",
          "type": "uint256"
        }
      ],
      "stateMutability": "view",
      "type": "function"
    },
    {
      "inputs": [],
      "name": "totalShares",
      "outputs": [
        {
          "internalType": "uint256",
          "name": "",
          "type": "uint256"
        }
      ],
      "stateMutability": "view",
      "type": "function"
    },
    {
      "inputs": [],
      "name": "totalSupply",
      "outputs": [
        {
          "internalType": "uint256",
          "name": "",
          "type": "uint256"
        }
      ],
      "stateMutability": "view",
      "type": "function"
    },
    {
      "inputs": [],
      "name": "totalTokensPaidForMinting",
      "outputs": [
        {
          "internalType": "uint256",
          "name": "",
          "type": "uint256"
        }
      ],
      "stateMutability": "view",
      "type": "function"
    },
    {
      "inputs": [
        {
          "internalType": "address",
          "name": "to",
          "type": "address"
        },
        {
          "internalType": "uint256",
          "name": "amount",
          "type": "uint256"
        }
      ],
      "name": "transfer",
      "outputs": [
        {
          "internalType": "bool",
          "name": "",
          "type": "bool"
        }
      ],
      "stateMutability": "nonpayable",
      "type": "function"
    },
    {
      "inputs": [
        {
          "internalType": "address",
          "name": "from",
          "type": "address"
        },
        {
          "internalType": "address",
          "name": "to",
          "type": "address"
        },
        {
          "internalType": "uint256",
          "name": "amount",
          "type": "uint256"
        }
      ],
      "name": "transferFrom",
      "outputs": [
        {
          "internalType": "bool",
          "name": "",
          "type": "bool"
        }
      ],
      "stateMutability": "nonpayable",
      "type": "function"
    },
    {
      "inputs": [
        {
          "internalType": "address",
          "name": "newOwner",
          "type": "address"
        }
      ],
      "name": "transferOwnership",
      "outputs": [],
      "stateMutability": "nonpayable",
      "type": "function"
    },
    {
      "inputs": [],
      "name": "treasuryFee",
      "outputs": [
        {
          "internalType": "uint256",
          "name": "",
          "type": "uint256"
        }
      ],
      "stateMutability": "view",
      "type": "function"
    },
    {
      "inputs": [],
      "name": "treasuryPool",
      "outputs": [
        {
          "internalType": "address",
          "name": "",
          "type": "address"
        }
      ],
      "stateMutability": "view",
      "type": "function"
    },
    {
      "inputs": [
        {
          "internalType": "uint256",
          "name": "value",
          "type": "uint256"
        }
      ],
      "name": "updateCashoutFee",
      "outputs": [],
      "stateMutability": "nonpayable",
      "type": "function"
    },
    {
      "inputs": [
        {
          "internalType": "uint256",
          "name": "value",
          "type": "uint256"
        }
      ],
      "name": "updateDevelopmentFee",
      "outputs": [],
      "stateMutability": "nonpayable",
      "type": "function"
    },
    {
      "inputs": [
        {
          "internalType": "address payable",
          "name": "wall",
          "type": "address"
        }
      ],
      "name": "updateDevelopmentFundWallet",
      "outputs": [],
      "stateMutability": "nonpayable",
      "type": "function"
    },
    {
      "inputs": [
        {
          "internalType": "uint256",
          "name": "value",
          "type": "uint256"
        }
      ],
      "name": "updateLiquidityFee",
      "outputs": [],
      "stateMutability": "nonpayable",
      "type": "function"
    },
    {
      "inputs": [
        {
          "internalType": "address payable",
          "name": "wall",
          "type": "address"
        }
      ],
      "name": "updateLiquidityWallet",
      "outputs": [],
      "stateMutability": "nonpayable",
      "type": "function"
    },
    {
      "inputs": [
        {
          "internalType": "uint256",
          "name": "value",
          "type": "uint256"
        }
      ],
      "name": "updateRewardsFee",
      "outputs": [],
      "stateMutability": "nonpayable",
      "type": "function"
    },
    {
      "inputs": [
        {
          "internalType": "address payable",
          "name": "wall",
          "type": "address"
        }
      ],
      "name": "updateRewardsWallet",
      "outputs": [],
      "stateMutability": "nonpayable",
      "type": "function"
    },
    {
      "inputs": [
        {
          "internalType": "uint256",
          "name": "value",
          "type": "uint256"
        }
      ],
      "name": "updateTreasuryFee",
      "outputs": [],
      "stateMutability": "nonpayable",
      "type": "function"
    },
    {
      "inputs": [
        {
          "internalType": "address payable",
          "name": "wall",
          "type": "address"
        }
      ],
      "name": "updateTreasuryWallet",
      "outputs": [],
      "stateMutability": "nonpayable",
      "type": "function"
    },
    {
      "inputs": [
        {
          "internalType": "address",
          "name": "_newAddr",
          "type": "address"
        }
      ],
      "name": "updateUniswapV2Router",
      "outputs": [],
      "stateMutability": "nonpayable",
      "type": "function"
    },
    {
      "inputs": [],
      "name": "usdcToken",
      "outputs": [
        {
          "internalType": "address",
          "name": "",
          "type": "address"
        }
      ],
      "stateMutability": "view",
      "type": "function"
    },
    {
      "stateMutability": "payable",
      "type": "receive"
    }
  ],
  "transactionHash": "0xc6f0631627280c94cfc828dc2557dd6003367c6418ac1f9b6133b1c0615f0285",
  "args": [],
  "numDeployments": 13,
  "solcInputHash": "0c591da1b8214b58749d06d6f15daeca",
  "bytecode": "0x608060405234801561001057600080fd5b50615b9280620000216000396000f3fe6080604052600436106104c45760003560e01c8063810be66d11610276578063b3328aae1161014f578063d79779b2116100c1578063e37ba8f911610085578063e37ba8f914610eb3578063eb71c5d914610ed3578063f2e0302314610ef2578063f2fde38b14610f12578063f5c1365314610f32578063f78d5c5514610f5257600080fd5b8063d79779b214610e19578063dd62ed3e14610e4f578063e0583ec014610e6f578063e22ee81314610e89578063e33b7de314610e9e57600080fd5b8063cc32d17611610113578063cc32d17614610d4d578063cd6e18f114610d63578063ce7c2ac214610d83578063cfc0d02414610db9578063d3a2c9cf14610dd9578063d631f70514610df957600080fd5b8063b3328aae14610cb0578063b9bd393314610cd0578063bcb8ebfc14610cea578063bd74767814610d00578063c3491b4914610d2d57600080fd5b806395d89b41116101e85780639dc73a49116101ac5780639dc73a4914610c05578063a457c2d714610c25578063a5f3d00314610c45578063a6559ce414610c5b578063a9059cbb14610c70578063aaf5bfc314610c9057600080fd5b806395d89b4114610b655780639723283014610b7a5780639852595c14610b9a5780639a6e80db14610bd05780639b03f44914610bf057600080fd5b80638b83209b1161023a5780638b83209b14610ab25780638d28914414610ad25780638da5cb5b14610af25780638e67566314610b105780638ea928f114610b305780639149acbc14610b4557600080fd5b8063810be66d14610a285780638161ab7614610a4857806382a8ebad14610a5d578063839df91914610a7d57806384884e4414610a9d57600080fd5b8063313ce567116103a857806365b8dbc01161031a5780636d9ae0be116102de5780636d9ae0be1461098857806370a082311461099e578063715018a6146109be57806378045b4d146109d35780637a0aacf3146109e8578063809d458d14610a0857600080fd5b806365b8dbc0146108f357806365bfe43014610913578063665a11ca146109335780636815a91c146109535780636b38c5861461097357600080fd5b806348b750441161036c57806348b750441461084857806348df582914610868578063545579731461088857806354f12f1f1461089d578063559bf302146108b357806357dae063146108d357600080fd5b8063313ce567146107c157806339306140146107dd57806339509351146107f35780633a98ef3914610813578063406072a91461082857600080fd5b806310153e7b116104415780631cdd3be3116104055780631cdd3be3146106fb5780631e7a934e1461072b578063239c038a1461074b57806323b872dd1461076b5780632bb14e1d1461078b5780633086319d146107a157600080fd5b806310153e7b1461067557806311eac8551461068a57806313114a9d146106b057806318160ddd146106c657806319165587146106db57600080fd5b8063084a6bff11610488578063084a6bff146105c3578063095ea7b3146105e357806309a69f57146106135780630c162440146106365780630f1978fb1461065657600080fd5b80630129981c146105095780630359fea91461052b57806303d29d281461056157806306fdde03146105815780630841e977146105a357600080fd5b36610504577f6ef95f06320e7a25a04a175ca677b7052bdd97131872c2192525a629f51be77033346040516104fa92919061567b565b60405180910390a1005b600080fd5b34801561051557600080fd5b5061052961052436600461520a565b610f72565b005b34801561053757600080fd5b5060d05461054b906001600160a01b031681565b6040516105589190615667565b60405180910390f35b34801561056d57600080fd5b5061052961057c3660046151b0565b6110a2565b34801561058d57600080fd5b506105966110f7565b60405161055891906157cd565b3480156105af57600080fd5b506105296105be36600461520a565b611189565b3480156105cf57600080fd5b506105296105de3660046155cb565b611484565b3480156105ef57600080fd5b506106036105fe3660046151de565b611506565b6040519015158152602001610558565b34801561061f57600080fd5b50610628611520565b604051908152602001610558565b34801561064257600080fd5b50610529610651366004615538565b6115c2565b34801561066257600080fd5b5060d85461060390610100900460ff1681565b34801561068157600080fd5b506105966116b8565b34801561069657600080fd5b5060d85461054b906201000090046001600160a01b031681565b3480156106bc57600080fd5b5061062860d65481565b3480156106d257600080fd5b50603554610628565b3480156106e757600080fd5b506105296106f63660046150fc565b61175a565b34801561070757600080fd5b506106036107163660046150fc565b60d96020526000908152604090205460ff1681565b34801561073757600080fd5b5061062861074636600461551d565b61187f565b34801561075757600080fd5b5061062861076636600461551d565b611900565b34801561077757600080fd5b5061060361078636600461516f565b611931565b34801561079757600080fd5b5061062860d25481565b3480156107ad57600080fd5b506105296107bc366004615326565b611957565b3480156107cd57600080fd5b5060405160128152602001610558565b3480156107e957600080fd5b5061062860cd5481565b3480156107ff57600080fd5b5061060361080e3660046151de565b611fd4565b34801561081f57600080fd5b50609754610628565b34801561083457600080fd5b50610628610843366004615136565b612013565b34801561085457600080fd5b50610529610863366004615136565b61203e565b34801561087457600080fd5b5060cf5461054b906001600160a01b031681565b34801561089457600080fd5b50610529612202565b3480156108a957600080fd5b5061062860d45481565b3480156108bf57600080fd5b506105296108ce3660046150fc565b61255b565b3480156108df57600080fd5b506105296108ee366004615245565b6125cd565b3480156108ff57600080fd5b5061052961090e3660046150fc565b612c6a565b34801561091f57600080fd5b5061052961092e3660046155cb565b612cf9565b34801561093f57600080fd5b5060d15461054b906001600160a01b031681565b34801561095f57600080fd5b5061052961096e3660046155cb565b61306e565b34801561097f57600080fd5b506105966130ee565b34801561099457600080fd5b5061062860d75481565b3480156109aa57600080fd5b506106286109b93660046150fc565b613124565b3480156109ca57600080fd5b5061052961313f565b3480156109df57600080fd5b50610628613175565b3480156109f457600080fd5b50610628610a0336600461551d565b6131ba565b348015610a1457600080fd5b50610529610a233660046150fc565b6131e9565b348015610a3457600080fd5b5060ce5461054b906001600160a01b031681565b348015610a5457600080fd5b5061059661325b565b348015610a6957600080fd5b5060ca5461054b906001600160a01b031681565b348015610a8957600080fd5b50610529610a983660046154c3565b613291565b348015610aa957600080fd5b506105966132d5565b348015610abe57600080fd5b5061054b610acd3660046155cb565b61330b565b348015610ade57600080fd5b50610529610aed3660046150fc565b61333b565b348015610afe57600080fd5b506065546001600160a01b031661054b565b348015610b1c57600080fd5b50610529610b2b3660046155cb565b6133d2565b348015610b3c57600080fd5b50610596613454565b348015610b5157600080fd5b50610529610b603660046154c3565b61348a565b348015610b7157600080fd5b506105966134ce565b348015610b8657600080fd5b50610529610b953660046155cb565b6134dd565b348015610ba657600080fd5b50610628610bb53660046150fc565b6001600160a01b03166000908152609a602052604090205490565b348015610bdc57600080fd5b5060c95461054b906001600160a01b031681565b348015610bfc57600080fd5b5061059661355f565b348015610c1157600080fd5b50610529610c203660046154c3565b613595565b348015610c3157600080fd5b50610603610c403660046151de565b6135d2565b348015610c5157600080fd5b5061062860d55481565b348015610c6757600080fd5b5061062861366f565b348015610c7c57600080fd5b50610603610c8b3660046151de565b6136b4565b348015610c9c57600080fd5b50610529610cab3660046150fc565b6136c2565b348015610cbc57600080fd5b50610529610ccb3660046154c3565b613716565b348015610cdc57600080fd5b5060da546106039060ff1681565b348015610cf657600080fd5b5061062860cb5481565b348015610d0c57600080fd5b50610d20610d1b3660046154fd565b613753565b604051610558919061573f565b348015610d3957600080fd5b50610529610d483660046155cb565b6137e4565b348015610d5957600080fd5b5061062860d35481565b348015610d6f57600080fd5b50610529610d7e3660046150fc565b61383f565b348015610d8f57600080fd5b50610628610d9e3660046150fc565b6001600160a01b031660009081526099602052604090205490565b348015610dc557600080fd5b50610529610dd43660046150fc565b6138da565b348015610de557600080fd5b50610529610df4366004615538565b61394c565b348015610e0557600080fd5b50610529610e143660046151de565b6139a8565b348015610e2557600080fd5b50610628610e343660046150fc565b6001600160a01b03166000908152609c602052604090205490565b348015610e5b57600080fd5b50610628610e6a366004615136565b613aa0565b348015610e7b57600080fd5b5060d8546106039060ff1681565b348015610e9557600080fd5b50610596613acb565b348015610eaa57600080fd5b50609854610628565b348015610ebf57600080fd5b50610529610ece3660046150fc565b613b01565b348015610edf57600080fd5b5060da5461060390610100900460ff1681565b348015610efe57600080fd5b50610529610f0d36600461520a565b613b73565b348015610f1e57600080fd5b50610529610f2d3660046150fc565b613ca5565b348015610f3e57600080fd5b50610d20610f4d3660046154fd565b613d40565b348015610f5e57600080fd5b50610529610f6d3660046155cb565b613d75565b60ca546040516317ae8ecf60e31b815233916000916001600160a01b039091169063bd74767890610fab9084908a908a90600401615783565b60006040518083038186803b158015610fc357600080fd5b505afa158015610fd7573d6000803e3d6000fd5b505050506040513d6000823e601f3d908101601f19168201604052610fff919081019061542b565b905060006305f5e1006110128682615a2e565b8360008151811061102557611025615b36565b60200260200101516110379190615a68565b6110419190615a46565b90508061104d84613124565b10156110745760405162461bcd60e51b815260040161106b9061589e565b60405180910390fd5b60ca5461108c9084906001600160a01b031683613df7565b6110998388888488613e95565b50505050505050565b6065546001600160a01b031633146110cc5760405162461bcd60e51b815260040161106b906158d5565b6001600160a01b0391909116600090815260d960205260409020805460ff1916911515919091179055565b60606036805461110690615aca565b80601f016020809104026020016040519081016040528092919081815260200182805461113290615aca565b801561117f5780601f106111545761010080835404028352916020019161117f565b820191906000526020600020905b81548152906001019060200180831161116257829003601f168201915b5050505050905090565b60ca5460405163f5c1365360e01b815233916000916001600160a01b039091169063f5c13653906111c3906001908a908a90600401615783565b60006040518083038186803b1580156111db57600080fd5b505afa1580156111ef573d6000803e3d6000fd5b505050506040513d6000823e601f3d908101601f19168201604052611217919081019061542b565b90506000816001835161122a9190615a87565b8151811061123a5761123a615b36565b602002602001015190506305f5e100856305f5e1006112599190615a87565b6112639083615a68565b61126d9190615a46565b6040516370a0823160e01b8152909150879087906001600160a01b038316906370a08231906112a0908890600401615667565b60206040518083038186803b1580156112b857600080fd5b505afa1580156112cc573d6000803e3d6000fd5b505050506040513d601f19601f820116820180604052508101906112f091906155e4565b101561130e5760405162461bcd60e51b815260040161106b9061589e565b604051636eb1769f60e11b81526001600160a01b03858116600483015230602483015288919083169063dd62ed3e9060440160206040518083038186803b15801561135857600080fd5b505afa15801561136c573d6000803e3d6000fd5b505050506040513d601f19601f8201168201806040525081019061139091906155e4565b10156113de5760405162461bcd60e51b815260206004820152601b60248201527f535741503a206e65656420746f20617070726f76652066697273740000000000604482015260640161106b565b60ca546040516323b872dd60e01b81526001600160a01b038681166004830152918216602482015260448101899052908216906323b872dd90606401602060405180830381600087803b15801561143457600080fd5b505af1158015611448573d6000803e3d6000fd5b505050506040513d601f19601f8201168201806040525081019061146c91906154e0565b5061147a848989858961409b565b5050505050505050565b6065546001600160a01b031633146114ae5760405162461bcd60e51b815260040161106b906158d5565b60008160d35460d55460d4546114c49190615a2e565b6114ce9190615a2e565b6114d89190615a2e565b905060648111156114fb5760405162461bcd60e51b815260040161106b9061592f565b60d29190915560d655565b6000336115148185856140d3565b60019150505b92915050565b60003361153f5760405162461bcd60e51b815260040161106b9061590a565b60c9546001600160a01b031663619a635e336040518263ffffffff1660e01b815260040161156d9190615667565b60206040518083038186803b15801561158557600080fd5b505afa158015611599573d6000803e3d6000fd5b505050506040513d601f19601f820116820180604052508101906115bd91906155e4565b905090565b6065546001600160a01b031633146115ec5760405162461bcd60e51b815260040161106b906158d5565b6305f5e10081126116505760405162461bcd60e51b815260206004820152602860248201527f5245445543455f5257443a20646f206e6f7420726564756365206d6f7265207460448201526768616e203130302560c01b606482015260840161106b565b60c9546040516309d2040f60e41b81526001600160a01b0390911690639d2040f09061168290859085906004016157b2565b600060405180830381600087803b15801561169c57600080fd5b505af11580156116b0573d6000803e3d6000fd5b505050505050565b6060336116d75760405162461bcd60e51b815260040161106b9061590a565b60c9546001600160a01b0316635dbab6ed335b6040518263ffffffff1660e01b81526004016117069190615667565b60006040518083038186803b15801561171e57600080fd5b505afa158015611732573d6000803e3d6000fd5b505050506040513d6000823e601f3d908101601f191682016040526115bd9190810190615554565b6001600160a01b03811660009081526099602052604090205461178f5760405162461bcd60e51b815260040161106b9061580d565b600061179a60985490565b6117a49047615a2e565b905060006117d183836117cc866001600160a01b03166000908152609a602052604090205490565b6141f7565b9050806117f05760405162461bcd60e51b815260040161106b90615853565b6001600160a01b0383166000908152609a602052604081208054839290611818908490615a2e565b9250508190555080609860008282546118319190615a2e565b9091555061184190508382614235565b7fdf20fd1e76bc69d672e4814fafb2c449bba3a5369d8359adf9e05e6fde87b056838260405161187292919061567b565b60405180910390a1505050565b60c954604051630c75361360e31b81526000916001600160a01b0316906363a9b098906118b09085906004016157a4565b60206040518083038186803b1580156118c857600080fd5b505afa1580156118dc573d6000803e3d6000fd5b505050506040513d601f19601f8201168201806040525081019061151a91906155e4565b60c95460405163ce6912a360e01b81526000916001600160a01b03169063ce6912a3906118b09085906004016157a4565b60003361193f85828561434e565b61194a858585613df7565b60019150505b9392505050565b60da54610100900460ff166119ae5760405162461bcd60e51b815260206004820152601d60248201527f434f4e544d494e543a206d696e7420636f6e74732064697361626c6564000000604482015260640161106b565b60cc54825111156119fc5760405162461bcd60e51b8152602060048201526018602482015277434f4e544d494e543a20746f6f206d616e7920636f6e747360401b604482015260640161106b565b60005b8251811015611ab5576003838281518110611a1c57611a1c615b36565b602002602001015151118015611a4c57506021838281518110611a4157611a41615b36565b602002602001015151105b611aa35760405162461bcd60e51b815260206004820152602260248201527f434f4e544d494e543a20696d70726f7065722063686172616374657220636f756044820152611b9d60f21b606482015260840161106b565b80611aad81615b05565b9150506119ff565b503380611afd5760405162461bcd60e51b8152602060048201526016602482015275434f4e544d494e543a207a65726f206164647265737360501b604482015260640161106b565b6001600160a01b038116600090815260d9602052604090205460ff1615611b665760405162461bcd60e51b815260206004820152601d60248201527f434f4e544d494e543a20626c61636b6c69737465642061646472657373000000604482015260640161106b565b60ce546001600160a01b03828116911614801590611b92575060d0546001600160a01b03828116911614155b8015611bac575060cf546001600160a01b03828116911614155b611c035760405162461bcd60e51b815260206004820152602260248201527f434f4e544d494e543a20706f6f6c732063616e6e6f742063726561746520636f6044820152611b9d60f21b606482015260840161106b565b6000611c0e826143c8565b905060cb54845182611c209190615a2e565b1115611c6e5760405162461bcd60e51b815260206004820152601c60248201527f434f4e544d494e543a2072656163686564206d696e74206c696d697400000000604482015260640161106b565b835160c954604051630c75361360e31b8152600092916001600160a01b0316906363a9b09890611ca29088906004016157a4565b60206040518083038186803b158015611cba57600080fd5b505afa158015611cce573d6000803e3d6000fd5b505050506040513d601f19601f82011682018060405250810190611cf291906155e4565b611cfc9190615a68565b90508060cd6000828254611d109190615a2e565b90915550819050611d2084613124565b1015611d7e5760405162461bcd60e51b815260206004820152602760248201527f434f4e544d494e543a2042616c616e636520746f6f206c6f7720666f7220637260448201526632b0ba34b7b71760c91b606482015260840161106b565b6000606460d55483611d909190615a68565b611d9a9190615a46565b60d854909150610100900460ff1615611df05760ca54611dc59085906001600160a01b0316836143f9565b60ce5460d854611deb916001600160a01b039081169162010000900416836000426145c7565b611e08565b60ce54611e089085906001600160a01b0316836143f9565b6000606460d25484611e1a9190615a68565b611e249190615a46565b60d054909150611e3f9086906001600160a01b0316836143f9565b6000606460d35485611e519190615a68565b611e5b9190615a46565b60d85490915060ff1615611eac5760ca54611e819087906001600160a01b0316836143f9565b60cf5460d854611ea7916001600160a01b039081169162010000900416836000426145c7565b611ec4565b60cf54611ec49087906001600160a01b0316836143f9565b6000606460d45486611ed69190615a68565b611ee09190615a46565b9050611eec8782614754565b6000818385611efb888a615a87565b611f059190615a87565b611f0f9190615a87565b611f199190615a87565b90508015611f2c57611f2c8830836143f9565b60c95460405162a6998d60e31b81526001600160a01b0390911690630534cc6890611f5f908b908e908e906004016156c5565b600060405180830381600087803b158015611f7957600080fd5b505af1158015611f8d573d6000803e3d6000fd5b505050507f120c2f36321d80f09f9d26f68f1f49b72c1964e118aa788bb9611f47e10c7eac88604051611fc09190615667565b60405180910390a150505050505050505050565b3360008181526034602090815260408083206001600160a01b0387168452909152812054909190611514908290869061200e908790615a2e565b6140d3565b6001600160a01b039182166000908152609d6020908152604080832093909416825291909152205490565b6001600160a01b0381166000908152609960205260409020546120735760405162461bcd60e51b815260040161106b9061580d565b6001600160a01b0382166000908152609c60205260408120546040516370a0823160e01b81526001600160a01b038516906370a08231906120b8903090600401615667565b60206040518083038186803b1580156120d057600080fd5b505afa1580156120e4573d6000803e3d6000fd5b505050506040513d601f19601f8201168201806040525081019061210891906155e4565b6121129190615a2e565b9050600061212583836117cc8787612013565b9050806121445760405162461bcd60e51b815260040161106b90615853565b6001600160a01b038085166000908152609d602090815260408083209387168352929052908120805483929061217b908490615a2e565b90915550506001600160a01b0384166000908152609c6020526040812080548392906121a8908490615a2e565b909155506121b9905084848361476c565b836001600160a01b03167f3be5b7a71e84ed12875d241991c70855ac5817d847039e17a9d895c1ceb0f18a84836040516121f492919061567b565b60405180910390a250505050565b60da54339060ff16151560011461225b5760405162461bcd60e51b815260206004820152601960248201527f43534854414c4c3a20636173686f75742064697361626c656400000000000000604482015260640161106b565b6001600160a01b0381166122a95760405162461bcd60e51b815260206004820152601560248201527443534854414c4c3a207a65726f206164647265737360581b604482015260640161106b565b6001600160a01b038116600090815260d9602052604090205460ff16156123125760405162461bcd60e51b815260206004820152601c60248201527f43534854414c4c3a20626c61636b6c6973746564206164647265737300000000604482015260640161106b565b60ce546001600160a01b0382811691161480159061233e575060d0546001600160a01b03828116911614155b61238a5760405162461bcd60e51b815260206004820152601d60248201527f43534854414c4c3a20706f6f6c732063616e6e6f7420636173686f7574000000604482015260640161106b565b60c9546040516330cd31af60e11b81526000916001600160a01b03169063619a635e906123bb908590600401615667565b60206040518083038186803b1580156123d357600080fd5b505afa1580156123e7573d6000803e3d6000fd5b505050506040513d601f19601f8201168201806040525081019061240b91906155e4565b90506000811161245d5760405162461bcd60e51b815260206004820152601960248201527f43534854414c4c3a20726577617264206e6f7420726561647900000000000000604482015260640161106b565b60d7546000901561248557606460d754836124789190615a68565b6124829190615a46565b90505b61248f8183615a87565b60d0549092506124a9906001600160a01b031684846143f9565b60c95460405163d094fa8d60e01b81526001600160a01b039091169063d094fa8d906124d9908690600401615667565b602060405180830381600087803b1580156124f357600080fd5b505af1158015612507573d6000803e3d6000fd5b505050506040513d601f19601f8201168201806040525081019061252b91906155e4565b507f564112c0ad2fbcae1bed83c58ed5d830128565d634cdc875bb02b065ad242343836040516118729190615667565b6065546001600160a01b031633146125855760405162461bcd60e51b815260040161106b906158d5565b6001600160a01b0381166125ab5760405162461bcd60e51b815260040161106b906157e0565b60ce80546001600160a01b0319166001600160a01b0392909216919091179055565b600054610100900460ff166125e85760005460ff16156125ec565b303b155b61264f5760405162461bcd60e51b815260206004820152602e60248201527f496e697469616c697a61626c653a20636f6e747261637420697320616c72656160448201526d191e481a5b9a5d1a585b1a5e995960921b606482015260840161106b565b600054610100900460ff16158015612671576000805461ffff19166101011790555b60008551118015612683575060008451115b6126c65760405162461bcd60e51b815260206004820152601460248201527320a222291013102120a620a721a29022a92927a960611b604482015260640161106b565b6126ce6147c2565b612712604051806040016040528060078152602001663078426c6f636b60c81b81525060405180604001604052806003815260200162183c2160e91b8152506147f1565b61271c8787614822565b60006001600160a01b03168560018151811061273a5761273a615b36565b60200260200101516001600160a01b031614158015612786575060006001600160a01b03168560028151811061277257612772615b36565b60200260200101516001600160a01b031614155b80156127bf575060006001600160a01b0316856003815181106127ab576127ab615b36565b60200260200101516001600160a01b031614155b80156127f8575060006001600160a01b0316856004815181106127e4576127e4615b36565b60200260200101516001600160a01b031614155b6128365760405162461bcd60e51b815260206004820152600f60248201526e1413d3d30816915493c81193d55391608a1b604482015260640161106b565b8460018151811061284957612849615b36565b602002602001015160ce60006101000a8154816001600160a01b0302191690836001600160a01b031602179055508460028151811061288a5761288a615b36565b602002602001015160d160006101000a8154816001600160a01b0302191690836001600160a01b03160217905550846003815181106128cb576128cb615b36565b602002602001015160cf60006101000a8154816001600160a01b0302191690836001600160a01b031602179055508460048151811061290c5761290c615b36565b602002602001015160d060006101000a8154816001600160a01b0302191690836001600160a01b0316021790555060008360008151811061294f5761294f615b36565b602002602001015111801561297e575060008360018151811061297457612974615b36565b6020026020010151115b80156129a4575060008360028151811061299a5761299a615b36565b6020026020010151115b80156129ca57506000836003815181106129c0576129c0615b36565b6020026020010151115b80156129f057506000836004815181106129e6576129e6615b36565b6020026020010151115b612a2c5760405162461bcd60e51b815260206004820152600d60248201526c0c094811915154c81193d55391609a1b604482015260640161106b565b82600081518110612a3f57612a3f615b36565b602002602001015160d58190555082600181518110612a6057612a60615b36565b602002602001015160d38190555082600281518110612a8157612a81615b36565b602002602001015160d28190555082600381518110612aa257612aa2615b36565b602002602001015160d48190555082600481518110612ac357612ac3615b36565b602002602001015160d78190555060d35460d55460d45460d254612ae79190615a2e565b612af19190615a2e565b612afb9190615a2e565b60d6558351855114612b465760405162461bcd60e51b815260206004820152601460248201527320a222291013102120a620a721a29022a92927a960611b604482015260640161106b565b60005b8551811015612bb357612ba1868281518110612b6757612b67615b36565b6020026020010151868381518110612b8157612b81615b36565b6020026020010151670de0b6b3a7640000612b9c9190615a68565b614853565b80612bab81615b05565b915050612b49565b5060355469d3c21bcecceda100000014612c075760405162461bcd60e51b81526020600482015260156024820152741515130814d5541413164811125191880c48135253605a1b604482015260640161106b565b60d88054606460cb55600a60cc5561ffff196001600160a01b038516620100000281166001600160b01b0319909216919091176101001790915560da805461010192169190911790558015611099576000805461ff001916905550505050505050565b6065546001600160a01b03163314612c945760405162461bcd60e51b815260040161106b906158d5565b60ca54604051630196e36f60e61b81526001600160a01b03909116906365b8dbc090612cc4908490600401615667565b600060405180830381600087803b158015612cde57600080fd5b505af1158015612cf2573d6000803e3d6000fd5b5050505050565b60da54339060ff161515600114612d4b5760405162461bcd60e51b815260206004820152601660248201527510d4d2150e8810d85cda1bdd5d08111a5cd8589b195960521b604482015260640161106b565b6001600160a01b038116612d965760405162461bcd60e51b8152602060048201526012602482015271435348543a207a65726f206164647265737360701b604482015260640161106b565b6001600160a01b038116600090815260d9602052604090205460ff1615612df35760405162461bcd60e51b815260206004820152601160248201527010d4d2150e88189b1858dadb1a5cdd1959607a1b604482015260640161106b565b60ce546001600160a01b03828116911614801590612e1f575060d0546001600160a01b03828116911614155b8015612e39575060cf546001600160a01b03828116911614155b612e905760405162461bcd60e51b815260206004820152602260248201527f435348543a20706f6f6c732063616e6e6f7420636173686f7574207265776172604482015261647360f01b606482015260840161106b565b60c9546040516329b8573160e21b81526000916001600160a01b03169063a6e15cc490612ec3908590879060040161567b565b60206040518083038186803b158015612edb57600080fd5b505afa158015612eef573d6000803e3d6000fd5b505050506040513d601f19601f82011682018060405250810190612f1391906155e4565b905060008111612f5e5760405162461bcd60e51b8152602060048201526016602482015275435348543a20726577617264206e6f7420726561647960501b604482015260640161106b565b60d75460009015612f8657606460d75483612f799190615a68565b612f839190615a46565b90505b612f908183615a87565b60d054909250612faa906001600160a01b031684846143f9565b60c95460405163611015b360e11b81526001600160a01b039091169063c2202b6690612fdc908690889060040161567b565b602060405180830381600087803b158015612ff657600080fd5b505af115801561300a573d6000803e3d6000fd5b505050506040513d601f19601f8201168201806040525081019061302e91906155e4565b507f39f6d68d140e552a327d43ef814649947d78e76743e169e4f00d61b14f2f846d838560405161306092919061567b565b60405180910390a150505050565b6065546001600160a01b031633146130985760405162461bcd60e51b815260040161106b906158d5565b60648111156130e95760405162461bcd60e51b815260206004820152601c60248201527f464545533a20636173686f757420657863656564696e67203130302500000000604482015260640161106b565b60d755565b60603361310d5760405162461bcd60e51b815260040161106b9061590a565b60c9546001600160a01b03166377ec7826336116ea565b6001600160a01b031660009081526033602052604090205490565b6065546001600160a01b031633146131695760405162461bcd60e51b815260040161106b906158d5565b6131736000614932565b565b60c9546040805163055a757d60e41b815290516000926001600160a01b0316916355a757d0916004808301926020929190829003018186803b15801561158557600080fd5b60c95460405162c73e4d60e01b81526000916001600160a01b03169062c73e4d906118b09085906004016157a4565b6065546001600160a01b031633146132135760405162461bcd60e51b815260040161106b906158d5565b6001600160a01b0381166132395760405162461bcd60e51b815260040161106b906157e0565b60cf80546001600160a01b0319166001600160a01b0392909216919091179055565b60603361327a5760405162461bcd60e51b815260040161106b9061590a565b60c9546001600160a01b0316638bf14514336116ea565b6065546001600160a01b031633146132bb5760405162461bcd60e51b815260040161106b906158d5565b60d880549115156101000261ff0019909216919091179055565b6060336132f45760405162461bcd60e51b815260040161106b9061590a565b60c9546001600160a01b031663f743f319336116ea565b6000609b828154811061332057613320615b36565b6000918252602090912001546001600160a01b031692915050565b6065546001600160a01b031633146133655760405162461bcd60e51b815260040161106b906158d5565b6001600160a01b0381166133b05760405162461bcd60e51b81526020600482015260126024820152712722abafa1a9269d103d32b9379030b2323960711b604482015260640161106b565b60c980546001600160a01b0319166001600160a01b0392909216919091179055565b6065546001600160a01b031633146133fc5760405162461bcd60e51b815260040161106b906158d5565b60008160d35460d55460d2546134129190615a2e565b61341c9190615a2e565b6134269190615a2e565b905060648111156134495760405162461bcd60e51b815260040161106b9061592f565b60d49190915560d655565b6060336134735760405162461bcd60e51b815260040161106b9061590a565b60c9546001600160a01b03166351bf120c336116ea565b6065546001600160a01b031633146134b45760405162461bcd60e51b815260040161106b906158d5565b60da80549115156101000261ff0019909216919091179055565b60606037805461110690615aca565b6065546001600160a01b031633146135075760405162461bcd60e51b815260040161106b906158d5565b60008160d55460d45460d25461351d9190615a2e565b6135279190615a2e565b6135319190615a2e565b905060648111156135545760405162461bcd60e51b815260040161106b9061592f565b60d39190915560d655565b60603361357e5760405162461bcd60e51b815260040161106b9061590a565b60c9546001600160a01b031663367fd074336116ea565b6065546001600160a01b031633146135bf5760405162461bcd60e51b815260040161106b906158d5565b60d8805460ff1916911515919091179055565b3360008181526034602090815260408083206001600160a01b0387168452909152812054909190838110156136575760405162461bcd60e51b815260206004820152602560248201527f45524332303a2064656372656173656420616c6c6f77616e63652062656c6f77604482015264207a65726f60d81b606482015260840161106b565b61366482868684036140d3565b506001949350505050565b60c9546040805163e18f03ad60e01b815290516000926001600160a01b03169163e18f03ad916004808301926020929190829003018186803b15801561158557600080fd5b600033611514818585613df7565b6065546001600160a01b031633146136ec5760405162461bcd60e51b815260040161106b906158d5565b60d880546001600160a01b03909216620100000262010000600160b01b0319909216919091179055565b6065546001600160a01b031633146137405760405162461bcd60e51b815260040161106b906158d5565b60da805460ff1916911515919091179055565b60ca546040516317ae8ecf60e31b81526060916001600160a01b03169063bd7476789061378890879087908790600401615783565b60006040518083038186803b1580156137a057600080fd5b505afa1580156137b4573d6000803e3d6000fd5b505050506040513d6000823e601f3d908101601f191682016040526137dc919081019061542b565b949350505050565b6065546001600160a01b0316331461380e5760405162461bcd60e51b815260040161106b906158d5565b60c954604051631c864c8f60e11b8152600481018390526001600160a01b039091169063390c991e90602401612cc4565b6065546001600160a01b031633146138695760405162461bcd60e51b815260040161106b906158d5565b6001600160a01b0381166138b85760405162461bcd60e51b81526020600482015260166024820152752722abafa62927aaaa22a91d103d32b9379030b2323960511b604482015260640161106b565b60ca80546001600160a01b0319166001600160a01b0392909216919091179055565b6065546001600160a01b031633146139045760405162461bcd60e51b815260040161106b906158d5565b6001600160a01b03811661392a5760405162461bcd60e51b815260040161106b906157e0565b60d080546001600160a01b0319166001600160a01b0392909216919091179055565b6065546001600160a01b031633146139765760405162461bcd60e51b815260040161106b906158d5565b60c954604051631d5a173160e01b81526001600160a01b0390911690631d5a17319061168290859085906004016157b2565b6065546001600160a01b031633146139d25760405162461bcd60e51b815260040161106b906158d5565b6139db30613124565b811115613a3b5760405162461bcd60e51b815260206004820152602860248201527f534156455f4d495353454e543a20746f6b656e732065786365656420616464726044820152672062616c616e636560c01b606482015260840161106b565b6001600160a01b038216613a915760405162461bcd60e51b815260206004820152601a60248201527f534156455f4d495353454e543a207a65726f5f61646472657373000000000000604482015260640161106b565b613a9c308383613df7565b5050565b6001600160a01b03918216600090815260346020908152604080832093909416825291909152205490565b606033613aea5760405162461bcd60e51b815260040161106b9061590a565b60c9546001600160a01b03166328cceb24336116ea565b6065546001600160a01b03163314613b2b5760405162461bcd60e51b815260040161106b906158d5565b6001600160a01b038116613b515760405162461bcd60e51b815260040161106b906157e0565b60d180546001600160a01b0319166001600160a01b0392909216919091179055565b60ca5460405163f5c1365360e01b815233916000916001600160a01b039091169063f5c1365390613bac9084908a908a90600401615783565b60006040518083038186803b158015613bc457600080fd5b505afa158015613bd8573d6000803e3d6000fd5b505050506040513d6000823e601f3d908101601f19168201604052613c00919081019061542b565b905060008160018351613c139190615a87565b81518110613c2357613c23615b36565b602002602001015190506305f5e100856305f5e100613c429190615a87565b613c4c9083615a68565b613c569190615a46565b905085613c6284613124565b1015613c805760405162461bcd60e51b815260040161106b9061589e565b60ca54613c989084906001600160a01b031688613df7565b61109983888884886145c7565b6065546001600160a01b03163314613ccf5760405162461bcd60e51b815260040161106b906158d5565b6001600160a01b038116613d345760405162461bcd60e51b815260206004820152602660248201527f4f776e61626c653a206e6577206f776e657220697320746865207a65726f206160448201526564647265737360d01b606482015260840161106b565b613d3d81614932565b50565b60ca5460405163f5c1365360e01b81526060916001600160a01b03169063f5c136539061378890879087908790600401615783565b6065546001600160a01b03163314613d9f5760405162461bcd60e51b815260040161106b906158d5565b60008160d35460d45460d254613db59190615a2e565b613dbf9190615a2e565b613dc99190615a2e565b90506064811115613dec5760405162461bcd60e51b815260040161106b9061592f565b60d59190915560d655565b6001600160a01b038316600090815260d9602052604090205460ff16158015613e3957506001600160a01b038216600090815260d9602052604090205460ff16155b613e855760405162461bcd60e51b815260206004820152601a60248201527f45524332303a20426c61636b6c69737465642061646472657373000000000000604482015260640161106b565b613e908383836143f9565b505050565b60ca5460408051631934662b60e11b815290518492309263dd62ed3e926001600160a01b03909216918291633268cc56916004808301926020929190829003018186803b158015613ee557600080fd5b505afa158015613ef9573d6000803e3d6000fd5b505050506040513d601f19601f82011682018060405250810190613f1d9190615119565b6040516001600160e01b031960e085901b1681526001600160a01b0392831660048201529116602482015260440160206040518083038186803b158015613f6357600080fd5b505afa158015613f77573d6000803e3d6000fd5b505050506040513d601f19601f82011682018060405250810190613f9b91906155e4565b101561402a5760ca5460408051631934662b60e11b8152905161402a926001600160a01b0316918291633268cc5691600480820192602092909190829003018186803b158015613fea57600080fd5b505afa158015613ffe573d6000803e3d6000fd5b505050506040513d601f19601f820116820180604052508101906140229190615119565b6000196140d3565b60ca546040516380be66cf60e01b81526001600160a01b03909116906380be66cf906140629088908890889088908890600401615694565b600060405180830381600087803b15801561407c57600080fd5b505af1158015614090573d6000803e3d6000fd5b505050505050505050565b60ca54604051630372a54560e51b81526001600160a01b0390911690636e54a8a0906140629088908890889088908890600401615694565b6001600160a01b0383166141355760405162461bcd60e51b8152602060048201526024808201527f45524332303a20617070726f76652066726f6d20746865207a65726f206164646044820152637265737360e01b606482015260840161106b565b6001600160a01b0382166141965760405162461bcd60e51b815260206004820152602260248201527f45524332303a20617070726f766520746f20746865207a65726f206164647265604482015261737360f01b606482015260840161106b565b6001600160a01b0383811660008181526034602090815260408083209487168084529482529182902085905590518481527f8c5be1e5ebec7d5bd14f71427d1e84f3dd0314c0f7b2291e5b200ac8c7c3b925910160405180910390a3505050565b6097546001600160a01b038416600090815260996020526040812054909183916142219086615a68565b61422b9190615a46565b6137dc9190615a87565b804710156142855760405162461bcd60e51b815260206004820152601d60248201527f416464726573733a20696e73756666696369656e742062616c616e6365000000604482015260640161106b565b6000826001600160a01b03168260405160006040518083038185875af1925050503d80600081146142d2576040519150601f19603f3d011682016040523d82523d6000602084013e6142d7565b606091505b5050905080613e905760405162461bcd60e51b815260206004820152603a60248201527f416464726573733a20756e61626c6520746f2073656e642076616c75652c207260448201527f6563697069656e74206d61792068617665207265766572746564000000000000606482015260840161106b565b600061435a8484613aa0565b905060001981146143c257818110156143b55760405162461bcd60e51b815260206004820152601d60248201527f45524332303a20696e73756666696369656e7420616c6c6f77616e6365000000604482015260640161106b565b6143c284848484036140d3565b50505050565b60c9546040516344fea1b960e01b81526000916001600160a01b0316906344fea1b9906118b0908590600401615667565b6001600160a01b03831661445d5760405162461bcd60e51b815260206004820152602560248201527f45524332303a207472616e736665722066726f6d20746865207a65726f206164604482015264647265737360d81b606482015260840161106b565b6001600160a01b0382166144bf5760405162461bcd60e51b815260206004820152602360248201527f45524332303a207472616e7366657220746f20746865207a65726f206164647260448201526265737360e81b606482015260840161106b565b6001600160a01b038316600090815260336020526040902054818110156145375760405162461bcd60e51b815260206004820152602660248201527f45524332303a207472616e7366657220616d6f756e7420657863656564732062604482015265616c616e636560d01b606482015260840161106b565b6001600160a01b0380851660009081526033602052604080822085850390559185168152908120805484929061456e908490615a2e565b92505081905550826001600160a01b0316846001600160a01b03167fddf252ad1be2c89b69c2b068fc378daa952ba7f163c4a11628f55a4df523b3ef846040516145ba91815260200190565b60405180910390a36143c2565b60ca5460408051631934662b60e11b815290518592309263dd62ed3e926001600160a01b03909216918291633268cc56916004808301926020929190829003018186803b15801561461757600080fd5b505afa15801561462b573d6000803e3d6000fd5b505050506040513d601f19601f8201168201806040525081019061464f9190615119565b6040516001600160e01b031960e085901b1681526001600160a01b0392831660048201529116602482015260440160206040518083038186803b15801561469557600080fd5b505afa1580156146a9573d6000803e3d6000fd5b505050506040513d601f19601f820116820180604052508101906146cd91906155e4565b101561471c5760ca5460408051631934662b60e11b8152905161471c926001600160a01b0316918291633268cc5691600480820192602092909190829003018186803b158015613fea57600080fd5b60ca546040516388e5249f60e01b81526001600160a01b03909116906388e5249f906140629088908890889088908890600401615694565b60d154613a9c9083906001600160a01b0316836143f9565b613e908363a9059cbb60e01b848460405160240161478b92919061567b565b60408051601f198184030181529190526020810180516001600160e01b03166001600160e01b031990931692909217909152614984565b600054610100900460ff166147e95760405162461bcd60e51b815260040161106b90615966565b613173614a56565b600054610100900460ff166148185760405162461bcd60e51b815260040161106b90615966565b613a9c8282614a86565b600054610100900460ff166148495760405162461bcd60e51b815260040161106b90615966565b613a9c8282614ad4565b6001600160a01b0382166148a95760405162461bcd60e51b815260206004820152601f60248201527f45524332303a206d696e7420746f20746865207a65726f206164647265737300604482015260640161106b565b80603560008282546148bb9190615a2e565b90915550506001600160a01b038216600090815260336020526040812080548392906148e8908490615a2e565b90915550506040518181526001600160a01b038316906000907fddf252ad1be2c89b69c2b068fc378daa952ba7f163c4a11628f55a4df523b3ef9060200160405180910390a35050565b606580546001600160a01b038381166001600160a01b0319831681179093556040519116919082907f8be0079c531659141344cd1fd0a4f28419497f9722a3daafe3b4186f6b6457e090600090a35050565b60006149d9826040518060400160405280602081526020017f5361666545524332303a206c6f772d6c6576656c2063616c6c206661696c6564815250856001600160a01b0316614c129092919063ffffffff16565b805190915015613e9057808060200190518101906149f791906154e0565b613e905760405162461bcd60e51b815260206004820152602a60248201527f5361666545524332303a204552433230206f7065726174696f6e20646964206e6044820152691bdd081cdd58d8d9595960b21b606482015260840161106b565b600054610100900460ff16614a7d5760405162461bcd60e51b815260040161106b90615966565b61317333614932565b600054610100900460ff16614aad5760405162461bcd60e51b815260040161106b90615966565b8151614ac0906036906020850190614f69565b508051613e90906037906020840190614f69565b600054610100900460ff16614afb5760405162461bcd60e51b815260040161106b90615966565b8051825114614b675760405162461bcd60e51b815260206004820152603260248201527f5061796d656e7453706c69747465723a2070617965657320616e6420736861726044820152710cae640d8cadccee8d040dad2e6dac2e8c6d60731b606482015260840161106b565b6000825111614bb85760405162461bcd60e51b815260206004820152601a60248201527f5061796d656e7453706c69747465723a206e6f20706179656573000000000000604482015260640161106b565b60005b8251811015613e9057614c00838281518110614bd957614bd9615b36565b6020026020010151838381518110614bf357614bf3615b36565b6020026020010151614c21565b80614c0a81615b05565b915050614bbb565b60606137dc8484600085614dff565b6001600160a01b038216614c8c5760405162461bcd60e51b815260206004820152602c60248201527f5061796d656e7453706c69747465723a206163636f756e74206973207468652060448201526b7a65726f206164647265737360a01b606482015260840161106b565b60008111614cdc5760405162461bcd60e51b815260206004820152601d60248201527f5061796d656e7453706c69747465723a20736861726573206172652030000000604482015260640161106b565b6001600160a01b03821660009081526099602052604090205415614d565760405162461bcd60e51b815260206004820152602b60248201527f5061796d656e7453706c69747465723a206163636f756e7420616c726561647960448201526a206861732073686172657360a81b606482015260840161106b565b609b8054600181019091557fbba9db4cdbea0a37c207bbb83e20f828cd4441c49891101dc94fd20dc8efc3490180546001600160a01b0319166001600160a01b0384169081179091556000908152609960205260409020819055609754614dbe908290615a2e565b6097556040517f40c340f65e17194d14ddddb073d3c9f888e3cb52b5aae0c6c7706b4fbc905fac90614df3908490849061567b565b60405180910390a15050565b606082471015614e605760405162461bcd60e51b815260206004820152602660248201527f416464726573733a20696e73756666696369656e742062616c616e636520666f6044820152651c8818d85b1b60d21b606482015260840161106b565b6001600160a01b0385163b614eb75760405162461bcd60e51b815260206004820152601d60248201527f416464726573733a2063616c6c20746f206e6f6e2d636f6e7472616374000000604482015260640161106b565b600080866001600160a01b03168587604051614ed3919061564b565b60006040518083038185875af1925050503d8060008114614f10576040519150601f19603f3d011682016040523d82523d6000602084013e614f15565b606091505b5091509150614f25828286614f30565b979650505050505050565b60608315614f3f575081611950565b825115614f4f5782518084602001fd5b8160405162461bcd60e51b815260040161106b91906157cd565b828054614f7590615aca565b90600052602060002090601f016020900481019282614f975760008555614fdd565b82601f10614fb057805160ff1916838001178555614fdd565b82800160010185558215614fdd579182015b82811115614fdd578251825591602001919060010190614fc2565b50614fe9929150614fed565b5090565b5b80821115614fe95760008155600101614fee565b803561500d81615b62565b919050565b600082601f83011261502357600080fd5b81356020615038615033836159e2565b6159b1565b80838252828201915082860187848660051b890101111561505857600080fd5b60005b8581101561508057813561506e81615b62565b8452928401929084019060010161505b565b5090979650505050505050565b600082601f83011261509e57600080fd5b813560206150ae615033836159e2565b80838252828201915082860187848660051b89010111156150ce57600080fd5b60005b85811015615080578135845292840192908401906001016150d1565b80356003811061500d57600080fd5b60006020828403121561510e57600080fd5b813561195081615b62565b60006020828403121561512b57600080fd5b815161195081615b62565b6000806040838503121561514957600080fd5b823561515481615b62565b9150602083013561516481615b62565b809150509250929050565b60008060006060848603121561518457600080fd5b833561518f81615b62565b9250602084013561519f81615b62565b929592945050506040919091013590565b600080604083850312156151c357600080fd5b82356151ce81615b62565b9150602083013561516481615b77565b600080604083850312156151f157600080fd5b82356151fc81615b62565b946020939093013593505050565b6000806000806080858703121561522057600080fd5b843561522b81615b62565b966020860135965060408601359560600135945092505050565b60008060008060008060c0878903121561525e57600080fd5b863567ffffffffffffffff8082111561527657600080fd5b6152828a838b01615012565b9750602089013591508082111561529857600080fd5b6152a48a838b0161508d565b965060408901359150808211156152ba57600080fd5b6152c68a838b01615012565b955060608901359150808211156152dc57600080fd5b6152e88a838b0161508d565b945060808901359150808211156152fe57600080fd5b5061530b89828a0161508d565b92505061531a60a08801615002565b90509295509295509295565b600080604080848603121561533a57600080fd5b833567ffffffffffffffff8082111561535257600080fd5b818601915086601f83011261536657600080fd5b81356020615376615033836159e2565b8083825282820191508286018b848660051b890101111561539657600080fd5b60005b8581101561540b578135878111156153b057600080fd5b8801603f81018e136153c157600080fd5b858101356153d161503382615a06565b8181528f8c8385010111156153e557600080fd5b818c84018983013760009181018801919091528552509284019290840190600101615399565b5050809850505061541d8189016150ed565b955050505050509250929050565b6000602080838503121561543e57600080fd5b825167ffffffffffffffff81111561545557600080fd5b8301601f8101851361546657600080fd5b8051615474615033826159e2565b80828252848201915084840188868560051b870101111561549457600080fd5b600094505b838510156154b7578051835260019490940193918501918501615499565b50979650505050505050565b6000602082840312156154d557600080fd5b813561195081615b77565b6000602082840312156154f257600080fd5b815161195081615b77565b60008060006060848603121561551257600080fd5b833561518f81615b77565b60006020828403121561552f57600080fd5b611950826150ed565b6000806040838503121561554b57600080fd5b6151fc836150ed565b60006020828403121561556657600080fd5b815167ffffffffffffffff81111561557d57600080fd5b8201601f8101841361558e57600080fd5b805161559c61503382615a06565b8181528560208385010111156155b157600080fd5b6155c2826020830160208601615a9e565b95945050505050565b6000602082840312156155dd57600080fd5b5035919050565b6000602082840312156155f657600080fd5b5051919050565b6003811061561b57634e487b7160e01b600052602160045260246000fd5b9052565b60008151808452615637816020860160208601615a9e565b601f01601f19169290920160200192915050565b6000825161565d818460208701615a9e565b9190910192915050565b6001600160a01b0391909116815260200190565b6001600160a01b03929092168252602082015260400190565b6001600160a01b03958616815293909416602084015260408301919091526060820152608081019190915260a00190565b60006060820160018060a01b0386168352602060608185015281865180845260808601915060808160051b870101935082880160005b8281101561572957607f1988870301845261571786835161561f565b955092840192908401906001016156fb565b5050505050809150506137dc60408301846155fd565b6020808252825182820181905260009190848201906040850190845b818110156157775783518352928401929184019160010161575b565b50909695505050505050565b92151583526001600160a01b03919091166020830152604082015260600190565b6020810161151a82846155fd565b604081016157c082856155fd565b8260208301529392505050565b602081526000611950602083018461561f565b6020808252601390820152722aa8222faba0a6261d103d32b9379030b2323960691b604082015260600190565b60208082526026908201527f5061796d656e7453706c69747465723a206163636f756e7420686173206e6f2060408201526573686172657360d01b606082015260800190565b6020808252602b908201527f5061796d656e7453706c69747465723a206163636f756e74206973206e6f742060408201526a191d59481c185e5b595b9d60aa1b606082015260800190565b6020808252601a908201527f535741503a20696e73756666696369656e742062616c616e6365000000000000604082015260600190565b6020808252818101527f4f776e61626c653a2063616c6c6572206973206e6f7420746865206f776e6572604082015260600190565b6020808252600b908201526a053454e44455220495320360ac1b604082015260600190565b6020808252601a908201527f464545533a20746f74616c20657863656564696e672031303025000000000000604082015260600190565b6020808252602b908201527f496e697469616c697a61626c653a20636f6e7472616374206973206e6f74206960408201526a6e697469616c697a696e6760a81b606082015260800190565b604051601f8201601f1916810167ffffffffffffffff811182821017156159da576159da615b4c565b604052919050565b600067ffffffffffffffff8211156159fc576159fc615b4c565b5060051b60200190565b600067ffffffffffffffff821115615a2057615a20615b4c565b50601f01601f191660200190565b60008219821115615a4157615a41615b20565b500190565b600082615a6357634e487b7160e01b600052601260045260246000fd5b500490565b6000816000190483118215151615615a8257615a82615b20565b500290565b600082821015615a9957615a99615b20565b500390565b60005b83811015615ab9578181015183820152602001615aa1565b838111156143c25750506000910152565b600181811c90821680615ade57607f821691505b60208210811415615aff57634e487b7160e01b600052602260045260246000fd5b50919050565b6000600019821415615b1957615b19615b20565b5060010190565b634e487b7160e01b600052601160045260246000fd5b634e487b7160e01b600052603260045260246000fd5b634e487b7160e01b600052604160045260246000fd5b6001600160a01b0381168114613d3d57600080fd5b8015158114613d3d57600080fdfea164736f6c6343000807000a",
  "devdoc": {
    "kind": "dev",
    "methods": {
      "allowance(address,address)": {
        "details": "See {IERC20-allowance}."
      },
      "approve(address,uint256)": {
        "details": "See {IERC20-approve}. NOTE: If `amount` is the maximum `uint256`, the allowance is not updated on `transferFrom`. This is semantically equivalent to an infinite approval. Requirements: - `spender` cannot be the zero address."
      },
      "balanceOf(address)": {
        "details": "See {IERC20-balanceOf}."
      },
      "decimals()": {
        "details": "Returns the number of decimals used to get its user representation. For example, if `decimals` equals `2`, a balance of `505` tokens should be displayed to a user as `5.05` (`505 / 10 ** 2`). Tokens usually opt for a value of 18, imitating the relationship between Ether and Wei. This is the value {ERC20} uses, unless this function is overridden; NOTE: This information is only used for _display_ purposes: it in no way affects any of the arithmetic of the contract, including {IERC20-balanceOf} and {IERC20-transfer}."
      },
      "decreaseAllowance(address,uint256)": {
        "details": "Atomically decreases the allowance granted to `spender` by the caller. This is an alternative to {approve} that can be used as a mitigation for problems described in {IERC20-approve}. Emits an {Approval} event indicating the updated allowance. Requirements: - `spender` cannot be the zero address. - `spender` must have allowance for the caller of at least `subtractedValue`."
      },
      "increaseAllowance(address,uint256)": {
        "details": "Atomically increases the allowance granted to `spender` by the caller. This is an alternative to {approve} that can be used as a mitigation for problems described in {IERC20-approve}. Emits an {Approval} event indicating the updated allowance. Requirements: - `spender` cannot be the zero address."
      },
      "name()": {
        "details": "Returns the name of the token."
      },
      "owner()": {
        "details": "Returns the address of the current owner."
      },
      "payee(uint256)": {
        "details": "Getter for the address of the payee number `index`."
      },
      "release(address)": {
        "details": "Triggers a transfer to `account` of the amount of Ether they are owed, according to their percentage of the total shares and their previous withdrawals."
      },
      "release(address,address)": {
        "details": "Triggers a transfer to `account` of the amount of `token` tokens they are owed, according to their percentage of the total shares and their previous withdrawals. `token` must be the address of an IERC20 contract."
      },
      "released(address)": {
        "details": "Getter for the amount of Ether already released to a payee."
      },
      "released(address,address)": {
        "details": "Getter for the amount of `token` tokens already released to a payee. `token` should be the address of an IERC20 contract."
      },
      "renounceOwnership()": {
        "details": "Leaves the contract without owner. It will not be possible to call `onlyOwner` functions anymore. Can only be called by the current owner. NOTE: Renouncing ownership will leave the contract without an owner, thereby removing any functionality that is only available to the owner."
      },
      "shares(address)": {
        "details": "Getter for the amount of shares held by an account."
      },
      "symbol()": {
        "details": "Returns the symbol of the token, usually a shorter version of the name."
      },
      "totalReleased()": {
        "details": "Getter for the total amount of Ether already released."
      },
      "totalReleased(address)": {
        "details": "Getter for the total amount of `token` already released. `token` should be the address of an IERC20 contract."
      },
      "totalShares()": {
        "details": "Getter for the total shares held by payees."
      },
      "totalSupply()": {
        "details": "See {IERC20-totalSupply}."
      },
      "transfer(address,uint256)": {
        "details": "See {IERC20-transfer}. Requirements: - `to` cannot be the zero address. - the caller must have a balance of at least `amount`."
      },
      "transferFrom(address,address,uint256)": {
        "details": "See {IERC20-transferFrom}. Emits an {Approval} event indicating the updated allowance. This is not required by the EIP. See the note at the beginning of {ERC20}. NOTE: Does not update the allowance if the current allowance is the maximum `uint256`. Requirements: - `from` and `to` cannot be the zero address. - `from` must have a balance of at least `amount`. - the caller must have allowance for ``from``'s tokens of at least `amount`."
      },
      "transferOwnership(address)": {
        "details": "Transfers ownership of the contract to a new account (`newOwner`). Can only be called by the current owner."
      }
    },
    "version": 1
  },
  "userdoc": {
    "kind": "user",
    "methods": {},
    "version": 1
  },
  "storageLayout": {
    "storage": [
      {
        "astId": 598,
        "contract": "contracts/ZeroXBlock.sol:ZeroXBlock",
        "label": "_initialized",
        "offset": 0,
        "slot": "0",
        "type": "t_bool"
      },
      {
        "astId": 601,
        "contract": "contracts/ZeroXBlock.sol:ZeroXBlock",
        "label": "_initializing",
        "offset": 1,
        "slot": "0",
        "type": "t_bool"
      },
      {
        "astId": 1889,
        "contract": "contracts/ZeroXBlock.sol:ZeroXBlock",
        "label": "__gap",
        "offset": 0,
        "slot": "1",
        "type": "t_array(t_uint256)50_storage"
      },
      {
        "astId": 684,
        "contract": "contracts/ZeroXBlock.sol:ZeroXBlock",
        "label": "_balances",
        "offset": 0,
        "slot": "51",
        "type": "t_mapping(t_address,t_uint256)"
      },
      {
        "astId": 690,
        "contract": "contracts/ZeroXBlock.sol:ZeroXBlock",
        "label": "_allowances",
        "offset": 0,
        "slot": "52",
        "type": "t_mapping(t_address,t_mapping(t_address,t_uint256))"
      },
      {
        "astId": 692,
        "contract": "contracts/ZeroXBlock.sol:ZeroXBlock",
        "label": "_totalSupply",
        "offset": 0,
        "slot": "53",
        "type": "t_uint256"
      },
      {
        "astId": 694,
        "contract": "contracts/ZeroXBlock.sol:ZeroXBlock",
        "label": "_name",
        "offset": 0,
        "slot": "54",
        "type": "t_string_storage"
      },
      {
        "astId": 696,
        "contract": "contracts/ZeroXBlock.sol:ZeroXBlock",
        "label": "_symbol",
        "offset": 0,
        "slot": "55",
        "type": "t_string_storage"
      },
      {
        "astId": 1277,
        "contract": "contracts/ZeroXBlock.sol:ZeroXBlock",
        "label": "__gap",
        "offset": 0,
        "slot": "56",
        "type": "t_array(t_uint256)45_storage"
      },
      {
        "astId": 10,
        "contract": "contracts/ZeroXBlock.sol:ZeroXBlock",
        "label": "_owner",
        "offset": 0,
        "slot": "101",
        "type": "t_address"
      },
      {
        "astId": 122,
        "contract": "contracts/ZeroXBlock.sol:ZeroXBlock",
        "label": "__gap",
        "offset": 0,
        "slot": "102",
        "type": "t_array(t_uint256)49_storage"
      },
      {
        "astId": 163,
        "contract": "contracts/ZeroXBlock.sol:ZeroXBlock",
        "label": "_totalShares",
        "offset": 0,
        "slot": "151",
        "type": "t_uint256"
      },
      {
        "astId": 165,
        "contract": "contracts/ZeroXBlock.sol:ZeroXBlock",
        "label": "_totalReleased",
        "offset": 0,
        "slot": "152",
        "type": "t_uint256"
      },
      {
        "astId": 169,
        "contract": "contracts/ZeroXBlock.sol:ZeroXBlock",
        "label": "_shares",
        "offset": 0,
        "slot": "153",
        "type": "t_mapping(t_address,t_uint256)"
      },
      {
        "astId": 173,
        "contract": "contracts/ZeroXBlock.sol:ZeroXBlock",
        "label": "_released",
        "offset": 0,
        "slot": "154",
        "type": "t_mapping(t_address,t_uint256)"
      },
      {
        "astId": 176,
        "contract": "contracts/ZeroXBlock.sol:ZeroXBlock",
        "label": "_payees",
        "offset": 0,
        "slot": "155",
        "type": "t_array(t_address)dyn_storage"
      },
      {
        "astId": 181,
        "contract": "contracts/ZeroXBlock.sol:ZeroXBlock",
        "label": "_erc20TotalReleased",
        "offset": 0,
        "slot": "156",
        "type": "t_mapping(t_contract(IERC20Upgradeable)1356,t_uint256)"
      },
      {
        "astId": 188,
        "contract": "contracts/ZeroXBlock.sol:ZeroXBlock",
        "label": "_erc20Released",
        "offset": 0,
        "slot": "157",
        "type": "t_mapping(t_contract(IERC20Upgradeable)1356,t_mapping(t_address,t_uint256))"
      },
      {
        "astId": 590,
        "contract": "contracts/ZeroXBlock.sol:ZeroXBlock",
        "label": "__gap",
        "offset": 0,
        "slot": "158",
        "type": "t_array(t_uint256)43_storage"
      },
      {
        "astId": 2584,
        "contract": "contracts/ZeroXBlock.sol:ZeroXBlock",
        "label": "_crm",
        "offset": 0,
        "slot": "201",
        "type": "t_contract(CONTRewardManagement)6649"
      },
      {
        "astId": 2587,
        "contract": "contracts/ZeroXBlock.sol:ZeroXBlock",
        "label": "_liqRouter",
        "offset": 0,
        "slot": "202",
        "type": "t_contract(LiquidityRouter)7259"
      },
      {
        "astId": 2592,
        "contract": "contracts/ZeroXBlock.sol:ZeroXBlock",
        "label": "ownedContsLimit",
        "offset": 0,
        "slot": "203",
        "type": "t_uint256"
      },
      {
        "astId": 2594,
        "contract": "contracts/ZeroXBlock.sol:ZeroXBlock",
        "label": "mintContLimit",
        "offset": 0,
        "slot": "204",
        "type": "t_uint256"
      },
      {
        "astId": 2596,
        "contract": "contracts/ZeroXBlock.sol:ZeroXBlock",
        "label": "totalTokensPaidForMinting",
        "offset": 0,
        "slot": "205",
        "type": "t_uint256"
      },
      {
        "astId": 2598,
        "contract": "contracts/ZeroXBlock.sol:ZeroXBlock",
        "label": "developmentFundPool",
        "offset": 0,
        "slot": "206",
        "type": "t_address"
      },
      {
        "astId": 2600,
        "contract": "contracts/ZeroXBlock.sol:ZeroXBlock",
        "label": "treasuryPool",
        "offset": 0,
        "slot": "207",
        "type": "t_address"
      },
      {
        "astId": 2602,
        "contract": "contracts/ZeroXBlock.sol:ZeroXBlock",
        "label": "rewardsPool",
        "offset": 0,
        "slot": "208",
        "type": "t_address"
      },
      {
        "astId": 2604,
        "contract": "contracts/ZeroXBlock.sol:ZeroXBlock",
        "label": "liquidityPool",
        "offset": 0,
        "slot": "209",
        "type": "t_address"
      },
      {
        "astId": 2606,
        "contract": "contracts/ZeroXBlock.sol:ZeroXBlock",
        "label": "rewardsFee",
        "offset": 0,
        "slot": "210",
        "type": "t_uint256"
      },
      {
        "astId": 2608,
        "contract": "contracts/ZeroXBlock.sol:ZeroXBlock",
        "label": "treasuryFee",
        "offset": 0,
        "slot": "211",
        "type": "t_uint256"
      },
      {
        "astId": 2610,
        "contract": "contracts/ZeroXBlock.sol:ZeroXBlock",
        "label": "liquidityPoolFee",
        "offset": 0,
        "slot": "212",
        "type": "t_uint256"
      },
      {
        "astId": 2612,
        "contract": "contracts/ZeroXBlock.sol:ZeroXBlock",
        "label": "developmentFee",
        "offset": 0,
        "slot": "213",
        "type": "t_uint256"
      },
      {
        "astId": 2614,
        "contract": "contracts/ZeroXBlock.sol:ZeroXBlock",
        "label": "totalFees",
        "offset": 0,
        "slot": "214",
        "type": "t_uint256"
      },
      {
        "astId": 2616,
        "contract": "contracts/ZeroXBlock.sol:ZeroXBlock",
        "label": "cashoutFee",
        "offset": 0,
        "slot": "215",
        "type": "t_uint256"
      },
      {
        "astId": 2618,
        "contract": "contracts/ZeroXBlock.sol:ZeroXBlock",
        "label": "enableAutoSwapTreasury",
        "offset": 0,
        "slot": "216",
        "type": "t_bool"
      },
      {
        "astId": 2620,
        "contract": "contracts/ZeroXBlock.sol:ZeroXBlock",
        "label": "enableAutoSwapDevFund",
        "offset": 1,
        "slot": "216",
        "type": "t_bool"
      },
      {
        "astId": 2622,
        "contract": "contracts/ZeroXBlock.sol:ZeroXBlock",
        "label": "usdcToken",
        "offset": 2,
        "slot": "216",
        "type": "t_address"
      },
      {
        "astId": 2626,
        "contract": "contracts/ZeroXBlock.sol:ZeroXBlock",
        "label": "_isBlacklisted",
        "offset": 0,
        "slot": "217",
        "type": "t_mapping(t_address,t_bool)"
      },
      {
        "astId": 2628,
        "contract": "contracts/ZeroXBlock.sol:ZeroXBlock",
        "label": "enableCashout",
        "offset": 0,
        "slot": "218",
        "type": "t_bool"
      },
      {
        "astId": 2630,
        "contract": "contracts/ZeroXBlock.sol:ZeroXBlock",
        "label": "enableMintConts",
        "offset": 1,
        "slot": "218",
        "type": "t_bool"
      }
    ],
    "types": {
      "t_address": {
        "encoding": "inplace",
        "label": "address",
        "numberOfBytes": "20"
      },
      "t_array(t_address)dyn_storage": {
        "base": "t_address",
        "encoding": "dynamic_array",
        "label": "address[]",
        "numberOfBytes": "32"
      },
      "t_array(t_uint256)43_storage": {
        "base": "t_uint256",
        "encoding": "inplace",
        "label": "uint256[43]",
        "numberOfBytes": "1376"
      },
      "t_array(t_uint256)45_storage": {
        "base": "t_uint256",
        "encoding": "inplace",
        "label": "uint256[45]",
        "numberOfBytes": "1440"
      },
      "t_array(t_uint256)49_storage": {
        "base": "t_uint256",
        "encoding": "inplace",
        "label": "uint256[49]",
        "numberOfBytes": "1568"
      },
      "t_array(t_uint256)50_storage": {
        "base": "t_uint256",
        "encoding": "inplace",
        "label": "uint256[50]",
        "numberOfBytes": "1600"
      },
      "t_bool": {
        "encoding": "inplace",
        "label": "bool",
        "numberOfBytes": "1"
      },
      "t_contract(CONTRewardManagement)6649": {
        "encoding": "inplace",
        "label": "contract CONTRewardManagement",
        "numberOfBytes": "20"
      },
      "t_contract(IERC20Upgradeable)1356": {
        "encoding": "inplace",
        "label": "contract IERC20Upgradeable",
        "numberOfBytes": "20"
      },
      "t_contract(LiquidityRouter)7259": {
        "encoding": "inplace",
        "label": "contract LiquidityRouter",
        "numberOfBytes": "20"
      },
      "t_mapping(t_address,t_bool)": {
        "encoding": "mapping",
        "key": "t_address",
        "label": "mapping(address => bool)",
        "numberOfBytes": "32",
        "value": "t_bool"
      },
      "t_mapping(t_address,t_mapping(t_address,t_uint256))": {
        "encoding": "mapping",
        "key": "t_address",
        "label": "mapping(address => mapping(address => uint256))",
        "numberOfBytes": "32",
        "value": "t_mapping(t_address,t_uint256)"
      },
      "t_mapping(t_address,t_uint256)": {
        "encoding": "mapping",
        "key": "t_address",
        "label": "mapping(address => uint256)",
        "numberOfBytes": "32",
        "value": "t_uint256"
      },
      "t_mapping(t_contract(IERC20Upgradeable)1356,t_mapping(t_address,t_uint256))": {
        "encoding": "mapping",
        "key": "t_contract(IERC20Upgradeable)1356",
        "label": "mapping(contract IERC20Upgradeable => mapping(address => uint256))",
        "numberOfBytes": "32",
        "value": "t_mapping(t_address,t_uint256)"
      },
      "t_mapping(t_contract(IERC20Upgradeable)1356,t_uint256)": {
        "encoding": "mapping",
        "key": "t_contract(IERC20Upgradeable)1356",
        "label": "mapping(contract IERC20Upgradeable => uint256)",
        "numberOfBytes": "32",
        "value": "t_uint256"
      },
      "t_string_storage": {
        "encoding": "bytes",
        "label": "string",
        "numberOfBytes": "32"
      },
      "t_uint256": {
        "encoding": "inplace",
        "label": "uint256",
        "numberOfBytes": "32"
      }
    }
  }
}