{
  "address": "0x60a81971C37742172Ae08fB8fFAA3829646b4676",
  "abi": [
    {
      "anonymous": false,
      "inputs": [
        {
          "indexed": true,
          "internalType": "address",
          "name": "owner",
          "type": "address"
        },
        {
          "indexed": true,
          "internalType": "address",
          "name": "spender",
          "type": "address"
        },
        {
          "indexed": false,
          "internalType": "uint256",
          "name": "value",
          "type": "uint256"
        }
      ],
      "name": "Approval",
      "type": "event"
    },
    {
      "anonymous": false,
      "inputs": [
        {
          "indexed": false,
          "internalType": "address",
          "name": "sender",
          "type": "address"
        },
        {
          "indexed": false,
          "internalType": "enum ContType",
          "name": "cType",
          "type": "uint8"
        },
        {
          "indexed": false,
          "internalType": "uint256",
          "name": "contsCount",
          "type": "uint256"
        }
      ],
      "name": "ContsMinted",
      "type": "event"
    },
    {
      "anonymous": false,
      "inputs": [
        {
          "indexed": true,
          "internalType": "contract IERC20Upgradeable",
          "name": "token",
          "type": "address"
        },
        {
          "indexed": false,
          "internalType": "address",
          "name": "to",
          "type": "address"
        },
        {
          "indexed": false,
          "internalType": "uint256",
          "name": "amount",
          "type": "uint256"
        }
      ],
      "name": "ERC20PaymentReleased",
      "type": "event"
    },
    {
      "anonymous": false,
      "inputs": [
        {
          "indexed": false,
          "internalType": "string",
          "name": "walletName",
          "type": "string"
        },
        {
          "indexed": false,
          "internalType": "enum ContType",
          "name": "cType",
          "type": "uint8"
        },
        {
          "indexed": false,
          "internalType": "address",
          "name": "token",
          "type": "address"
        },
        {
          "indexed": false,
          "internalType": "uint256",
          "name": "amount",
          "type": "uint256"
        }
      ],
      "name": "Funded",
      "type": "event"
    },
    {
      "anonymous": false,
      "inputs": [
        {
          "indexed": true,
          "internalType": "address",
          "name": "previousOwner",
          "type": "address"
        },
        {
          "indexed": true,
          "internalType": "address",
          "name": "newOwner",
          "type": "address"
        }
      ],
      "name": "OwnershipTransferred",
      "type": "event"
    },
    {
      "anonymous": false,
      "inputs": [
        {
          "indexed": false,
          "internalType": "address",
          "name": "account",
          "type": "address"
        },
        {
          "indexed": false,
          "internalType": "uint256",
          "name": "shares",
          "type": "uint256"
        }
      ],
      "name": "PayeeAdded",
      "type": "event"
    },
    {
      "anonymous": false,
      "inputs": [
        {
          "indexed": false,
          "internalType": "address",
          "name": "from",
          "type": "address"
        },
        {
          "indexed": false,
          "internalType": "uint256",
          "name": "amount",
          "type": "uint256"
        }
      ],
      "name": "PaymentReceived",
      "type": "event"
    },
    {
      "anonymous": false,
      "inputs": [
        {
          "indexed": false,
          "internalType": "address",
          "name": "to",
          "type": "address"
        },
        {
          "indexed": false,
          "internalType": "uint256",
          "name": "amount",
          "type": "uint256"
        }
      ],
      "name": "PaymentReleased",
      "type": "event"
    },
    {
      "anonymous": false,
      "inputs": [
        {
          "indexed": false,
          "internalType": "address",
          "name": "sender",
          "type": "address"
        },
        {
          "indexed": false,
          "internalType": "uint256",
          "name": "amount",
          "type": "uint256"
        },
        {
          "indexed": false,
          "internalType": "uint256",
          "name": "squareAmount",
          "type": "uint256"
        },
        {
          "indexed": false,
          "internalType": "uint256",
          "name": "cubeAmount",
          "type": "uint256"
        },
        {
          "indexed": false,
          "internalType": "uint256",
          "name": "tessAmount",
          "type": "uint256"
        }
      ],
      "name": "RewardCashoutAll",
      "type": "event"
    },
    {
      "anonymous": false,
      "inputs": [
        {
          "indexed": false,
          "internalType": "address",
          "name": "sender",
          "type": "address"
        },
        {
          "indexed": false,
          "internalType": "uint256",
          "name": "index",
          "type": "uint256"
        },
        {
          "indexed": false,
          "internalType": "uint256",
          "name": "amount",
          "type": "uint256"
        },
        {
          "indexed": false,
          "internalType": "enum ContType",
          "name": "cType",
          "type": "uint8"
        }
      ],
      "name": "RewardCashoutOne",
      "type": "event"
    },
    {
      "anonymous": false,
      "inputs": [
        {
          "indexed": true,
          "internalType": "address",
          "name": "from",
          "type": "address"
        },
        {
          "indexed": true,
          "internalType": "address",
          "name": "to",
          "type": "address"
        },
        {
          "indexed": false,
          "internalType": "uint256",
          "name": "value",
          "type": "uint256"
        }
      ],
      "name": "Transfer",
      "type": "event"
    },
    {
      "inputs": [],
      "name": "_crm",
      "outputs": [
        {
          "internalType": "contract CONTRewardManagement",
          "name": "",
          "type": "address"
        }
      ],
      "stateMutability": "view",
      "type": "function"
    },
    {
      "inputs": [
        {
          "internalType": "address",
          "name": "",
          "type": "address"
        }
      ],
      "name": "_isBlacklisted",
      "outputs": [
        {
          "internalType": "bool",
          "name": "",
          "type": "bool"
        }
      ],
      "stateMutability": "view",
      "type": "function"
    },
    {
      "inputs": [
        {
          "internalType": "address",
          "name": "",
          "type": "address"
        }
      ],
      "name": "_lastBuyOnLaunch",
      "outputs": [
        {
          "internalType": "uint256",
          "name": "",
          "type": "uint256"
        }
      ],
      "stateMutability": "view",
      "type": "function"
    },
    {
      "inputs": [],
      "name": "_liqRouter",
      "outputs": [
        {
          "internalType": "contract LiquidityRouter",
          "name": "",
          "type": "address"
        }
      ],
      "stateMutability": "view",
      "type": "function"
    },
    {
      "inputs": [
        {
          "internalType": "address",
          "name": "addr",
          "type": "address"
        }
      ],
      "name": "_walletName",
      "outputs": [
        {
          "internalType": "string",
          "name": "",
          "type": "string"
        }
      ],
      "stateMutability": "view",
      "type": "function"
    },
    {
      "inputs": [
        {
          "internalType": "address",
          "name": "owner",
          "type": "address"
        },
        {
          "internalType": "address",
          "name": "spender",
          "type": "address"
        }
      ],
      "name": "allowance",
      "outputs": [
        {
          "internalType": "uint256",
          "name": "",
          "type": "uint256"
        }
      ],
      "stateMutability": "view",
      "type": "function"
    },
    {
      "inputs": [],
      "name": "antiBotEnabled",
      "outputs": [
        {
          "internalType": "bool",
          "name": "",
          "type": "bool"
        }
      ],
      "stateMutability": "view",
      "type": "function"
    },
    {
      "inputs": [
        {
          "internalType": "address",
          "name": "spender",
          "type": "address"
        },
        {
          "internalType": "uint256",
          "name": "amount",
          "type": "uint256"
        }
      ],
      "name": "approve",
      "outputs": [
        {
          "internalType": "bool",
          "name": "",
          "type": "bool"
        }
      ],
      "stateMutability": "nonpayable",
      "type": "function"
    },
    {
      "inputs": [
        {
          "internalType": "address",
          "name": "",
          "type": "address"
        }
      ],
      "name": "automatedMarketMakerPairs",
      "outputs": [
        {
          "internalType": "bool",
          "name": "",
          "type": "bool"
        }
      ],
      "stateMutability": "view",
      "type": "function"
    },
    {
      "inputs": [
        {
          "internalType": "address",
          "name": "account",
          "type": "address"
        }
      ],
      "name": "balanceOf",
      "outputs": [
        {
          "internalType": "uint256",
          "name": "",
          "type": "uint256"
        }
      ],
      "stateMutability": "view",
      "type": "function"
    },
    {
      "inputs": [],
      "name": "cashoutAll",
      "outputs": [],
      "stateMutability": "nonpayable",
      "type": "function"
    },
    {
      "inputs": [],
      "name": "cashoutFee",
      "outputs": [
        {
          "internalType": "uint256",
          "name": "",
          "type": "uint256"
        }
      ],
      "stateMutability": "view",
      "type": "function"
    },
    {
      "inputs": [
        {
          "internalType": "uint256",
          "name": "_contIndex",
          "type": "uint256"
        }
      ],
      "name": "cashoutReward",
      "outputs": [],
      "stateMutability": "nonpayable",
      "type": "function"
    },
    {
      "inputs": [],
      "name": "cashoutTaxPool",
      "outputs": [
        {
          "internalType": "address",
          "name": "",
          "type": "address"
        }
      ],
      "stateMutability": "view",
      "type": "function"
    },
    {
      "inputs": [
        {
          "internalType": "bool",
          "name": "newVal",
          "type": "bool"
        }
      ],
      "name": "changeEnableAutoSwapCashout",
      "outputs": [],
      "stateMutability": "nonpayable",
      "type": "function"
    },
    {
      "inputs": [
        {
          "internalType": "bool",
          "name": "newVal",
          "type": "bool"
        }
      ],
      "name": "changeEnableAutoSwapDevFund",
      "outputs": [],
      "stateMutability": "nonpayable",
      "type": "function"
    },
    {
      "inputs": [
        {
          "internalType": "bool",
          "name": "newVal",
          "type": "bool"
        }
      ],
      "name": "changeEnableAutoSwapTreasury",
      "outputs": [],
      "stateMutability": "nonpayable",
      "type": "function"
    },
    {
      "inputs": [],
      "name": "decimals",
      "outputs": [
        {
          "internalType": "uint8",
          "name": "",
          "type": "uint8"
        }
      ],
      "stateMutability": "view",
      "type": "function"
    },
    {
      "inputs": [
        {
          "internalType": "address",
          "name": "spender",
          "type": "address"
        },
        {
          "internalType": "uint256",
          "name": "subtractedValue",
          "type": "uint256"
        }
      ],
      "name": "decreaseAllowance",
      "outputs": [
        {
          "internalType": "bool",
          "name": "",
          "type": "bool"
        }
      ],
      "stateMutability": "nonpayable",
      "type": "function"
    },
    {
      "inputs": [],
      "name": "developmentFee",
      "outputs": [
        {
          "internalType": "uint256",
          "name": "",
          "type": "uint256"
        }
      ],
      "stateMutability": "view",
      "type": "function"
    },
    {
      "inputs": [],
      "name": "developmentFundPool",
      "outputs": [
        {
          "internalType": "address",
          "name": "",
          "type": "address"
        }
      ],
      "stateMutability": "view",
      "type": "function"
    },
    {
      "inputs": [],
      "name": "enableAutoSwapCashout",
      "outputs": [
        {
          "internalType": "bool",
          "name": "",
          "type": "bool"
        }
      ],
      "stateMutability": "view",
      "type": "function"
    },
    {
      "inputs": [],
      "name": "enableAutoSwapDevFund",
      "outputs": [
        {
          "internalType": "bool",
          "name": "",
          "type": "bool"
        }
      ],
      "stateMutability": "view",
      "type": "function"
    },
    {
      "inputs": [],
      "name": "enableAutoSwapTreasury",
      "outputs": [
        {
          "internalType": "bool",
          "name": "",
          "type": "bool"
        }
      ],
      "stateMutability": "view",
      "type": "function"
    },
    {
      "inputs": [],
      "name": "enableCashout",
      "outputs": [
        {
          "internalType": "bool",
          "name": "",
          "type": "bool"
        }
      ],
      "stateMutability": "view",
      "type": "function"
    },
    {
      "inputs": [],
      "name": "enableMintConts",
      "outputs": [
        {
          "internalType": "bool",
          "name": "",
          "type": "bool"
        }
      ],
      "stateMutability": "view",
      "type": "function"
    },
    {
      "inputs": [
        {
          "internalType": "address",
          "name": "spender",
          "type": "address"
        },
        {
          "internalType": "uint256",
          "name": "addedValue",
          "type": "uint256"
        }
      ],
      "name": "increaseAllowance",
      "outputs": [
        {
          "internalType": "bool",
          "name": "",
          "type": "bool"
        }
      ],
      "stateMutability": "nonpayable",
      "type": "function"
    },
    {
      "inputs": [
        {
          "internalType": "address[]",
          "name": "payees",
          "type": "address[]"
        },
        {
          "internalType": "uint256[]",
          "name": "shares",
          "type": "uint256[]"
        },
        {
          "internalType": "address[]",
          "name": "addresses",
          "type": "address[]"
        },
        {
          "internalType": "uint256[]",
          "name": "balances",
          "type": "uint256[]"
        },
        {
          "internalType": "uint256[]",
          "name": "fees",
          "type": "uint256[]"
        },
        {
          "internalType": "address",
          "name": "usdcAddr",
          "type": "address"
        }
      ],
      "name": "initialize",
      "outputs": [],
      "stateMutability": "nonpayable",
      "type": "function"
    },
    {
      "inputs": [],
      "name": "launchBuyLimit",
      "outputs": [
        {
          "internalType": "uint256",
          "name": "",
          "type": "uint256"
        }
      ],
      "stateMutability": "view",
      "type": "function"
    },
    {
      "inputs": [],
      "name": "launchBuyTimeout",
      "outputs": [
        {
          "internalType": "uint256",
          "name": "",
          "type": "uint256"
        }
      ],
      "stateMutability": "view",
      "type": "function"
    },
    {
      "inputs": [],
      "name": "liquidityPool",
      "outputs": [
        {
          "internalType": "address",
          "name": "",
          "type": "address"
        }
      ],
      "stateMutability": "view",
      "type": "function"
    },
    {
      "inputs": [],
      "name": "liquidityPoolFee",
      "outputs": [
        {
          "internalType": "uint256",
          "name": "",
          "type": "uint256"
        }
      ],
      "stateMutability": "view",
      "type": "function"
    },
    {
      "inputs": [
        {
          "internalType": "string[]",
          "name": "names",
          "type": "string[]"
        },
        {
          "internalType": "enum ContType",
          "name": "_cType",
          "type": "uint8"
        }
      ],
      "name": "mintConts",
      "outputs": [],
      "stateMutability": "nonpayable",
      "type": "function"
    },
    {
      "inputs": [],
      "name": "name",
      "outputs": [
        {
          "internalType": "string",
          "name": "",
          "type": "string"
        }
      ],
      "stateMutability": "view",
      "type": "function"
    },
    {
      "inputs": [],
      "name": "ownedContsLimit",
      "outputs": [
        {
          "internalType": "uint256",
          "name": "",
          "type": "uint256"
        }
      ],
      "stateMutability": "view",
      "type": "function"
    },
    {
      "inputs": [],
      "name": "owner",
      "outputs": [
        {
          "internalType": "address",
          "name": "",
          "type": "address"
        }
      ],
      "stateMutability": "view",
      "type": "function"
    },
    {
      "inputs": [
        {
          "internalType": "uint256",
          "name": "index",
          "type": "uint256"
        }
      ],
      "name": "payee",
      "outputs": [
        {
          "internalType": "address",
          "name": "",
          "type": "address"
        }
      ],
      "stateMutability": "view",
      "type": "function"
    },
    {
      "inputs": [
        {
          "internalType": "address payable",
          "name": "account",
          "type": "address"
        }
      ],
      "name": "release",
      "outputs": [],
      "stateMutability": "nonpayable",
      "type": "function"
    },
    {
      "inputs": [
        {
          "internalType": "contract IERC20Upgradeable",
          "name": "token",
          "type": "address"
        },
        {
          "internalType": "address",
          "name": "account",
          "type": "address"
        }
      ],
      "name": "release",
      "outputs": [],
      "stateMutability": "nonpayable",
      "type": "function"
    },
    {
      "inputs": [
        {
          "internalType": "contract IERC20Upgradeable",
          "name": "token",
          "type": "address"
        },
        {
          "internalType": "address",
          "name": "account",
          "type": "address"
        }
      ],
      "name": "released",
      "outputs": [
        {
          "internalType": "uint256",
          "name": "",
          "type": "uint256"
        }
      ],
      "stateMutability": "view",
      "type": "function"
    },
    {
      "inputs": [
        {
          "internalType": "address",
          "name": "account",
          "type": "address"
        }
      ],
      "name": "released",
      "outputs": [
        {
          "internalType": "uint256",
          "name": "",
          "type": "uint256"
        }
      ],
      "stateMutability": "view",
      "type": "function"
    },
    {
      "inputs": [],
      "name": "renounceOwnership",
      "outputs": [],
      "stateMutability": "nonpayable",
      "type": "function"
    },
    {
      "inputs": [
        {
          "internalType": "address",
          "name": "userAddr",
          "type": "address"
        },
        {
          "internalType": "uint256",
          "name": "tokens",
          "type": "uint256"
        }
      ],
      "name": "rescueMissentToken",
      "outputs": [],
      "stateMutability": "nonpayable",
      "type": "function"
    },
    {
      "inputs": [],
      "name": "rewardsFee",
      "outputs": [
        {
          "internalType": "uint256",
          "name": "",
          "type": "uint256"
        }
      ],
      "stateMutability": "view",
      "type": "function"
    },
    {
      "inputs": [],
      "name": "rewardsPool",
      "outputs": [
        {
          "internalType": "address",
          "name": "",
          "type": "address"
        }
      ],
      "stateMutability": "view",
      "type": "function"
    },
    {
      "inputs": [
        {
          "internalType": "address",
          "name": "account",
          "type": "address"
        },
        {
          "internalType": "bool",
          "name": "value",
          "type": "bool"
        }
      ],
      "name": "setBlacklistStatus",
      "outputs": [],
      "stateMutability": "nonpayable",
      "type": "function"
    },
    {
      "inputs": [
        {
          "internalType": "address",
          "name": "crm",
          "type": "address"
        }
      ],
      "name": "setContManagement",
      "outputs": [],
      "stateMutability": "nonpayable",
      "type": "function"
    },
    {
      "inputs": [
        {
          "internalType": "bool",
          "name": "_enableCashout",
          "type": "bool"
        }
      ],
      "name": "setEnableCashout",
      "outputs": [],
      "stateMutability": "nonpayable",
      "type": "function"
    },
    {
      "inputs": [
        {
          "internalType": "bool",
          "name": "value",
          "type": "bool"
        }
      ],
      "name": "setEnableMintConts",
      "outputs": [],
      "stateMutability": "nonpayable",
      "type": "function"
    },
    {
      "inputs": [
        {
          "internalType": "address payable",
          "name": "liqRouter",
          "type": "address"
        }
      ],
      "name": "setLiquidityRouter",
      "outputs": [],
      "stateMutability": "nonpayable",
      "type": "function"
    },
    {
      "inputs": [
        {
          "internalType": "address",
          "name": "newAddress",
          "type": "address"
        }
      ],
      "name": "setUSDCAddress",
      "outputs": [],
      "stateMutability": "nonpayable",
      "type": "function"
    },
    {
      "inputs": [
        {
          "internalType": "address",
          "name": "account",
          "type": "address"
        }
      ],
      "name": "shares",
      "outputs": [
        {
          "internalType": "uint256",
          "name": "",
          "type": "uint256"
        }
      ],
      "stateMutability": "view",
      "type": "function"
    },
    {
      "inputs": [
        {
          "internalType": "address",
          "name": "tokenAddr",
          "type": "address"
        },
        {
          "internalType": "uint256",
          "name": "amountOut",
          "type": "uint256"
        },
        {
          "internalType": "uint256",
          "name": "amountInMax",
          "type": "uint256"
        },
        {
          "internalType": "uint256",
          "name": "wait",
          "type": "uint256"
        }
      ],
      "name": "swap0xBForExactToken",
      "outputs": [],
      "stateMutability": "nonpayable",
      "type": "function"
    },
    {
      "inputs": [
        {
          "internalType": "uint256",
          "name": "amountOut",
          "type": "uint256"
        },
        {
          "internalType": "uint256",
          "name": "amountInMax",
          "type": "uint256"
        },
        {
          "internalType": "uint256",
          "name": "wait",
          "type": "uint256"
        }
      ],
      "name": "swapAVAXForExact0xB",
      "outputs": [],
      "stateMutability": "payable",
      "type": "function"
    },
    {
      "inputs": [
        {
          "internalType": "address",
          "name": "tokenAddr",
          "type": "address"
        },
        {
          "internalType": "uint256",
          "name": "amountIn",
          "type": "uint256"
        },
        {
          "internalType": "uint256",
          "name": "amountOutMin",
          "type": "uint256"
        },
        {
          "internalType": "uint256",
          "name": "wait",
          "type": "uint256"
        }
      ],
      "name": "swapExact0xBForToken",
      "outputs": [],
      "stateMutability": "nonpayable",
      "type": "function"
    },
    {
      "inputs": [
        {
          "internalType": "uint256",
          "name": "amountOutMin",
          "type": "uint256"
        },
        {
          "internalType": "uint256",
          "name": "wait",
          "type": "uint256"
        }
      ],
      "name": "swapExactAVAXFor0xB",
      "outputs": [],
      "stateMutability": "payable",
      "type": "function"
    },
    {
      "inputs": [
        {
          "internalType": "address",
          "name": "tokenAddr",
          "type": "address"
        },
        {
          "internalType": "uint256",
          "name": "amountIn",
          "type": "uint256"
        },
        {
          "internalType": "uint256",
          "name": "amountOutMin",
          "type": "uint256"
        },
        {
          "internalType": "uint256",
          "name": "wait",
          "type": "uint256"
        }
      ],
      "name": "swapExactTokenFor0xB",
      "outputs": [],
      "stateMutability": "nonpayable",
      "type": "function"
    },
    {
      "inputs": [
        {
          "internalType": "address",
          "name": "tokenAddr",
          "type": "address"
        },
        {
          "internalType": "uint256",
          "name": "amountOut",
          "type": "uint256"
        },
        {
          "internalType": "uint256",
          "name": "amountInMax",
          "type": "uint256"
        },
        {
          "internalType": "uint256",
          "name": "wait",
          "type": "uint256"
        }
      ],
      "name": "swapTokenForExact0xB",
      "outputs": [],
      "stateMutability": "nonpayable",
      "type": "function"
    },
    {
      "inputs": [],
      "name": "symbol",
      "outputs": [
        {
          "internalType": "string",
          "name": "",
          "type": "string"
        }
      ],
      "stateMutability": "view",
      "type": "function"
    },
    {
      "inputs": [],
      "name": "totalFees",
      "outputs": [
        {
          "internalType": "uint256",
          "name": "",
          "type": "uint256"
        }
      ],
      "stateMutability": "view",
      "type": "function"
    },
    {
      "inputs": [
        {
          "internalType": "contract IERC20Upgradeable",
          "name": "token",
          "type": "address"
        }
      ],
      "name": "totalReleased",
      "outputs": [
        {
          "internalType": "uint256",
          "name": "",
          "type": "uint256"
        }
      ],
      "stateMutability": "view",
      "type": "function"
    },
    {
      "inputs": [],
      "name": "totalReleased",
      "outputs": [
        {
          "internalType": "uint256",
          "name": "",
          "type": "uint256"
        }
      ],
      "stateMutability": "view",
      "type": "function"
    },
    {
      "inputs": [],
      "name": "totalShares",
      "outputs": [
        {
          "internalType": "uint256",
          "name": "",
          "type": "uint256"
        }
      ],
      "stateMutability": "view",
      "type": "function"
    },
    {
      "inputs": [],
      "name": "totalSupply",
      "outputs": [
        {
          "internalType": "uint256",
          "name": "",
          "type": "uint256"
        }
      ],
      "stateMutability": "view",
      "type": "function"
    },
    {
      "inputs": [],
      "name": "totalTokensPaidForMinting",
      "outputs": [
        {
          "internalType": "uint256",
          "name": "",
          "type": "uint256"
        }
      ],
      "stateMutability": "view",
      "type": "function"
    },
    {
      "inputs": [
        {
          "internalType": "address",
          "name": "to",
          "type": "address"
        },
        {
          "internalType": "uint256",
          "name": "amount",
          "type": "uint256"
        }
      ],
      "name": "transfer",
      "outputs": [
        {
          "internalType": "bool",
          "name": "",
          "type": "bool"
        }
      ],
      "stateMutability": "nonpayable",
      "type": "function"
    },
    {
      "inputs": [
        {
          "internalType": "address",
          "name": "from",
          "type": "address"
        },
        {
          "internalType": "address",
          "name": "to",
          "type": "address"
        },
        {
          "internalType": "uint256",
          "name": "amount",
          "type": "uint256"
        }
      ],
      "name": "transferFrom",
      "outputs": [
        {
          "internalType": "bool",
          "name": "",
          "type": "bool"
        }
      ],
      "stateMutability": "nonpayable",
      "type": "function"
    },
    {
      "inputs": [
        {
          "internalType": "address",
          "name": "newOwner",
          "type": "address"
        }
      ],
      "name": "transferOwnership",
      "outputs": [],
      "stateMutability": "nonpayable",
      "type": "function"
    },
    {
      "inputs": [],
      "name": "treasuryFee",
      "outputs": [
        {
          "internalType": "uint256",
          "name": "",
          "type": "uint256"
        }
      ],
      "stateMutability": "view",
      "type": "function"
    },
    {
      "inputs": [],
      "name": "treasuryPool",
      "outputs": [
        {
          "internalType": "address",
          "name": "",
          "type": "address"
        }
      ],
      "stateMutability": "view",
      "type": "function"
    },
    {
      "inputs": [],
      "name": "uniswapV2Pair",
      "outputs": [
        {
          "internalType": "address",
          "name": "",
          "type": "address"
        }
      ],
      "stateMutability": "view",
      "type": "function"
    },
    {
      "inputs": [],
      "name": "uniswapV2Router",
      "outputs": [
        {
          "internalType": "contract IJoeRouter02",
          "name": "",
          "type": "address"
        }
      ],
      "stateMutability": "view",
      "type": "function"
    },
    {
      "inputs": [
        {
          "internalType": "uint256",
          "name": "value",
          "type": "uint256"
        }
      ],
      "name": "updateCashoutFee",
      "outputs": [],
      "stateMutability": "nonpayable",
      "type": "function"
    },
    {
      "inputs": [
        {
          "internalType": "address payable",
          "name": "wall",
          "type": "address"
        }
      ],
      "name": "updateCashoutTaxPool",
      "outputs": [],
      "stateMutability": "nonpayable",
      "type": "function"
    },
    {
      "inputs": [
        {
          "internalType": "uint256",
          "name": "value",
          "type": "uint256"
        }
      ],
      "name": "updateDevelopmentFee",
      "outputs": [],
      "stateMutability": "nonpayable",
      "type": "function"
    },
    {
      "inputs": [
        {
          "internalType": "address payable",
          "name": "wall",
          "type": "address"
        }
      ],
      "name": "updateDevelopmentFundWallet",
      "outputs": [],
      "stateMutability": "nonpayable",
      "type": "function"
    },
    {
      "inputs": [
        {
          "internalType": "uint256",
          "name": "value",
          "type": "uint256"
        }
      ],
      "name": "updateLiquidityFee",
      "outputs": [],
      "stateMutability": "nonpayable",
      "type": "function"
    },
    {
      "inputs": [
        {
          "internalType": "address payable",
          "name": "wall",
          "type": "address"
        }
      ],
      "name": "updateLiquidityWallet",
      "outputs": [],
      "stateMutability": "nonpayable",
      "type": "function"
    },
    {
      "inputs": [
        {
          "internalType": "uint256",
          "name": "value",
          "type": "uint256"
        }
      ],
      "name": "updateRewardsFee",
      "outputs": [],
      "stateMutability": "nonpayable",
      "type": "function"
    },
    {
      "inputs": [
        {
          "internalType": "address payable",
          "name": "wall",
          "type": "address"
        }
      ],
      "name": "updateRewardsWallet",
      "outputs": [],
      "stateMutability": "nonpayable",
      "type": "function"
    },
    {
      "inputs": [
        {
          "internalType": "uint256",
          "name": "value",
          "type": "uint256"
        }
      ],
      "name": "updateTreasuryFee",
      "outputs": [],
      "stateMutability": "nonpayable",
      "type": "function"
    },
    {
      "inputs": [
        {
          "internalType": "address payable",
          "name": "wall",
          "type": "address"
        }
      ],
      "name": "updateTreasuryWallet",
      "outputs": [],
      "stateMutability": "nonpayable",
      "type": "function"
    },
    {
      "inputs": [],
      "name": "usdcToken",
      "outputs": [
        {
          "internalType": "address",
          "name": "",
          "type": "address"
        }
      ],
      "stateMutability": "view",
      "type": "function"
    },
    {
      "stateMutability": "payable",
      "type": "receive"
    }
  ],
  "transactionHash": "0xee87207aa50e1823bd338a00e0f2a3e02883725dd9f8251d0e0b8ebccf3391ea",
  "args": [],
  "numDeployments": 9,
  "solcInputHash": "14c88e5b59d04c3bc0cbe3590677b200",
  "bytecode": "0x608060405234801561001057600080fd5b506158d780620000216000396000f3fe6080604052600436106104985760003560e01c806382a8ebad11610260578063b62496f511610144578063d8c6404b116100c1578063eb71c5d911610085578063eb71c5d914610e63578063f2e0302314610e82578063f2fde38b14610ea2578063f34f152214610ec2578063f764bfb514610ed8578063f78d5c5514610efe57600080fd5b8063d8c6404b14610dd3578063dd62ed3e14610df4578063e0583ec014610e14578063e33b7de314610e2e578063e37ba8f914610e4357600080fd5b8063cd6e18f111610108578063cd6e18f114610d07578063ce7c2ac214610d27578063cfc0d02414610d5d578063d631f70514610d7d578063d79779b214610d9d57600080fd5b8063b62496f514610c71578063b9bd393314610ca1578063ba2734d214610cbb578063bcb8ebfc14610cdb578063cc32d17614610cf157600080fd5b806397232830116101dd5780639ff41fe3116101a15780639ff41fe314610bae578063a457c2d714610bdb578063a5f3d00314610bfb578063a9059cbb14610c11578063aaf5bfc314610c31578063b3328aae14610c5157600080fd5b80639723283014610af85780639852595c14610b185780639a6e80db14610b4e5780639c64291c14610b6e5780639dc73a4914610b8e57600080fd5b80638d289144116102245780638d28914414610a655780638da5cb5b14610a855780638e67566314610aa35780639149acbc14610ac357806395d89b4114610ae357600080fd5b806382a8ebad146109cf578063839df919146109ef57806383dcd37614610a0f5780638683811614610a2f5780638b83209b14610a4557600080fd5b8063313ce56711610387578063559bf302116103045780636815a91c116102c85780636815a91c146109245780636d9ae0be1461094457806370a082311461095a578063715018a61461097a578063809d458d1461098f578063810be66d146109af57600080fd5b8063559bf3021461088457806357dae063146108a45780635dd731fc146108c457806365bfe430146108e4578063665a11ca1461090457600080fd5b806348b750441161034b57806348b75044146107f957806348df58291461081957806349bd5a5e14610839578063545579731461085957806354f12f1f1461086e57600080fd5b8063313ce56714610772578063393061401461078e57806339509351146107a45780633a98ef39146107c4578063406072a9146107d957600080fd5b806311eac855116104155780631cdd3be3116103d95780631cdd3be3146106d957806323b872dd14610709578063241a38c6146107295780632bb14e1d1461073c5780633086319d1461075257600080fd5b806311eac8551461063a57806313114a9d146106605780631694505e1461068457806318160ddd146106a457806319165587146106b957600080fd5b80630841e9771161045c5780630841e9771461058a578063084a6bff146105aa578063095ea7b3146105ca5780630db92449146105fa5780630f1978fb1461061b57600080fd5b80630129981c146104dd5780630359fea9146104ff57806303d29d281461053557806306fdde031461055557806307a558601461057757600080fd5b366104d8577f6ef95f06320e7a25a04a175ca677b7052bdd97131872c2192525a629f51be77033346040516104ce92919061535a565b60405180910390a1005b600080fd5b3480156104e957600080fd5b506104fd6104f8366004614f6c565b610f1e565b005b34801561050b57600080fd5b5060d15461051f906001600160a01b031681565b60405161052c9190615346565b60405180910390f35b34801561054157600080fd5b506104fd610550366004614f12565b6110bd565b34801561056157600080fd5b5061056a611112565b60405161052c91906154af565b6104fd61058536600461527a565b6111a4565b34801561059657600080fd5b506104fd6105a5366004614f6c565b6113a9565b3480156105b657600080fd5b506104fd6105c53660046151dd565b6115ee565b3480156105d657600080fd5b506105ea6105e5366004614f40565b611670565b604051901515815260200161052c565b34801561060657600080fd5b5060e0546105ea90600160a01b900460ff1681565b34801561062757600080fd5b5060d9546105ea90610100900460ff1681565b34801561064657600080fd5b5060d95461051f906201000090046001600160a01b031681565b34801561066c57600080fd5b5061067660d75481565b60405190815260200161052c565b34801561069057600080fd5b5060ca5461051f906001600160a01b031681565b3480156106b057600080fd5b50603554610676565b3480156106c557600080fd5b506104fd6106d4366004614e5e565b61168a565b3480156106e557600080fd5b506105ea6106f4366004614e5e565b60dd6020526000908152604090205460ff1681565b34801561071557600080fd5b506105ea610724366004614ed1565b6117af565b6104fd610737366004615234565b6117d5565b34801561074857600080fd5b5061067660d35481565b34801561075e57600080fd5b506104fd61076d366004615088565b6117fa565b34801561077e57600080fd5b506040516012815260200161052c565b34801561079a57600080fd5b5061067660ce5481565b3480156107b057600080fd5b506105ea6107bf366004614f40565b611edb565b3480156107d057600080fd5b50609754610676565b3480156107e557600080fd5b506106766107f4366004614e98565b611f1a565b34801561080557600080fd5b506104fd610814366004614e98565b611f45565b34801561082557600080fd5b5060d05461051f906001600160a01b031681565b34801561084557600080fd5b5060cd5461051f906001600160a01b031681565b34801561086557600080fd5b506104fd612109565b34801561087a57600080fd5b5061067660d55481565b34801561089057600080fd5b506104fd61089f366004614e5e565b6126f5565b3480156108b057600080fd5b506104fd6108bf366004614fa7565b612767565b3480156108d057600080fd5b506104fd6108df366004614e5e565b612e1d565b3480156108f057600080fd5b506104fd6108ff3660046151dd565b612e97565b34801561091057600080fd5b5060d25461051f906001600160a01b031681565b34801561093057600080fd5b506104fd61093f3660046151dd565b613220565b34801561095057600080fd5b5061067660d85481565b34801561096657600080fd5b50610676610975366004614e5e565b6132a0565b34801561098657600080fd5b506104fd6132bb565b34801561099b57600080fd5b506104fd6109aa366004614e5e565b6132f1565b3480156109bb57600080fd5b5060cf5461051f906001600160a01b031681565b3480156109db57600080fd5b5060e05461051f906001600160a01b031681565b3480156109fb57600080fd5b506104fd610a0a3660046151a3565b613363565b348015610a1b57600080fd5b5061056a610a2a366004614e5e565b6133a7565b348015610a3b57600080fd5b5061067660da5481565b348015610a5157600080fd5b5061051f610a603660046151dd565b6134ae565b348015610a7157600080fd5b506104fd610a80366004614e5e565b6134de565b348015610a9157600080fd5b506065546001600160a01b031661051f565b348015610aaf57600080fd5b506104fd610abe3660046151dd565b613575565b348015610acf57600080fd5b506104fd610ade3660046151a3565b6135f7565b348015610aef57600080fd5b5061056a61363b565b348015610b0457600080fd5b506104fd610b133660046151dd565b61364a565b348015610b2457600080fd5b50610676610b33366004614e5e565b6001600160a01b03166000908152609a602052604090205490565b348015610b5a57600080fd5b5060c95461051f906001600160a01b031681565b348015610b7a57600080fd5b506104fd610b89366004614f6c565b6136cc565b348015610b9a57600080fd5b506104fd610ba93660046151a3565b613815565b348015610bba57600080fd5b50610676610bc9366004614e5e565b60dc6020526000908152604090205481565b348015610be757600080fd5b506105ea610bf6366004614f40565b613852565b348015610c0757600080fd5b5061067660d65481565b348015610c1d57600080fd5b506105ea610c2c366004614f40565b6138ef565b348015610c3d57600080fd5b506104fd610c4c366004614e5e565b6138fd565b348015610c5d57600080fd5b506104fd610c6c3660046151a3565b61399d565b348015610c7d57600080fd5b506105ea610c8c366004614e5e565b60de6020526000908152604090205460ff1681565b348015610cad57600080fd5b5060df546105ea9060ff1681565b348015610cc757600080fd5b506104fd610cd63660046151a3565b6139da565b348015610ce757600080fd5b5061067660cb5481565b348015610cfd57600080fd5b5061067660d45481565b348015610d1357600080fd5b506104fd610d22366004614e5e565b613a22565b348015610d3357600080fd5b50610676610d42366004614e5e565b6001600160a01b031660009081526099602052604090205490565b348015610d6957600080fd5b506104fd610d78366004614e5e565b613abd565b348015610d8957600080fd5b506104fd610d98366004614f40565b613b2f565b348015610da957600080fd5b50610676610db8366004614e5e565b6001600160a01b03166000908152609c602052604090205490565b348015610ddf57600080fd5b5060d9546105ea90600160b01b900460ff1681565b348015610e0057600080fd5b50610676610e0f366004614e98565b613c27565b348015610e2057600080fd5b5060d9546105ea9060ff1681565b348015610e3a57600080fd5b50609854610676565b348015610e4f57600080fd5b506104fd610e5e366004614e5e565b613c52565b348015610e6f57600080fd5b5060df546105ea90610100900460ff1681565b348015610e8e57600080fd5b506104fd610e9d366004614f6c565b613cc4565b348015610eae57600080fd5b506104fd610ebd366004614e5e565b613d27565b348015610ece57600080fd5b5061067660db5481565b348015610ee457600080fd5b5060df5461051f906201000090046001600160a01b031681565b348015610f0a57600080fd5b506104fd610f193660046151dd565b613dc2565b3382610f29826132a0565b1015610f505760405162461bcd60e51b8152600401610f4790615603565b60405180910390fd5b60e054610f689082906001600160a01b031685613e44565b60e0546000906001600160a01b03166380be66cf83888888610f8a8942615746565b6040518663ffffffff1660e01b8152600401610faa959493929190615397565b6040805180830381600087803b158015610fc357600080fd5b505af1158015610fd7573d6000803e3d6000fd5b505050506040513d601f19601f82011682018060405250810190610ffb9190615256565b9050809150506000805160206158ab83398151915261109960e060009054906101000a90046001600160a01b03166001600160a01b03166311eb47dc6040518163ffffffff1660e01b815260040160206040518083038186803b15801561106157600080fd5b505afa158015611075573d6000803e3d6000fd5b505050506040513d601f19601f82011682018060405250810190610a2a9190614e7b565b600330846040516110ad94939291906154c2565b60405180910390a1505050505050565b6065546001600160a01b031633146110e75760405162461bcd60e51b8152600401610f479061563a565b6001600160a01b0391909116600090815260dd60205260409020805460ff1916911515919091179055565b606060368054611121906157e2565b80601f016020809104026020016040519081016040528092919081815260200182805461114d906157e2565b801561119a5780601f1061116f5761010080835404028352916020019161119a565b820191906000526020600020905b81548152906001019060200180831161117d57829003601f168201915b5050505050905090565b33348311156112005760405162461bcd60e51b815260206004820152602260248201527f535741503a206d73672e76616c7565206c657373207468616e20736c69707061604482015261676560f01b6064820152608401610f47565b60e0546000906001600160a01b031663ed9705da3484886112218842615746565b6040516001600160e01b031960e087901b1681526001600160a01b0390931660048401526024830191909152604482015260640160408051808303818588803b15801561126d57600080fd5b505af1158015611281573d6000803e3d6000fd5b50505050506040513d601f19601f820116820180604052508101906112a69190615256565b9050809150506000805160206158ab83398151915261130c60e060009054906101000a90046001600160a01b03166001600160a01b03166311eb47dc6040518163ffffffff1660e01b815260040160206040518083038186803b15801561106157600080fd5b60ca54604080516339d94ae160e11b815290516003926001600160a01b0316916373b295c2916004808301926020929190829003018186803b15801561135157600080fd5b505afa158015611365573d6000803e3d6000fd5b505050506040513d601f19601f820116820180604052508101906113899190614e7b565b8460405161139a94939291906154c2565b60405180910390a15050505050565b6040516370a0823160e01b81523390859085906001600160a01b038316906370a08231906113db908690600401615346565b60206040518083038186803b1580156113f357600080fd5b505afa158015611407573d6000803e3d6000fd5b505050506040513d601f19601f8201168201806040525081019061142b91906151f6565b10156114495760405162461bcd60e51b8152600401610f4790615603565b60e0546040516323b872dd60e01b81526001600160a01b03808416926323b872dd9261147d92879216908a90600401615373565b602060405180830381600087803b15801561149757600080fd5b505af11580156114ab573d6000803e3d6000fd5b505050506040513d601f19601f820116820180604052508101906114cf91906151c0565b5060e0546000906001600160a01b0316636e54a8a0848989896114f28a42615746565b6040518663ffffffff1660e01b8152600401611512959493929190615397565b6040805180830381600087803b15801561152b57600080fd5b505af115801561153f573d6000803e3d6000fd5b505050506040513d601f19601f820116820180604052508101906115639190615256565b9050809150506000805160206158ab8339815191526115c960e060009054906101000a90046001600160a01b03166001600160a01b03166311eb47dc6040518163ffffffff1660e01b815260040160206040518083038186803b15801561106157600080fd5b600389846040516115dd94939291906154c2565b60405180910390a150505050505050565b6065546001600160a01b031633146116185760405162461bcd60e51b8152600401610f479061563a565b60008160d45460d65460d55461162e9190615746565b6116389190615746565b6116429190615746565b905060648111156116655760405162461bcd60e51b8152600401610f479061566f565b60d39190915560d755565b60003361167e818585613ee2565b60019150505b92915050565b6001600160a01b0381166000908152609960205260409020546116bf5760405162461bcd60e51b8152600401610f4790615572565b60006116ca60985490565b6116d49047615746565b9050600061170183836116fc866001600160a01b03166000908152609a602052604090205490565b614006565b9050806117205760405162461bcd60e51b8152600401610f47906155b8565b6001600160a01b0383166000908152609a602052604081208054839290611748908490615746565b9250508190555080609860008282546117619190615746565b909155506117719050838261404c565b7fdf20fd1e76bc69d672e4814fafb2c449bba3a5369d8359adf9e05e6fde87b05683826040516117a292919061535a565b60405180910390a1505050565b6000336117bd858285614165565b6117c8858585613e44565b60019150505b9392505050565b60e054339034906000906001600160a01b0316638f6e53b78385886112218942615746565b60df54610100900460ff166118515760405162461bcd60e51b815260206004820152601d60248201527f434f4e544d494e543a206d696e7420636f6e74732064697361626c65640000006044820152606401610f47565b60cc548251111561189f5760405162461bcd60e51b8152602060048201526018602482015277434f4e544d494e543a20746f6f206d616e7920636f6e747360401b6044820152606401610f47565b60005b82518110156119585760038382815181106118bf576118bf61584e565b6020026020010151511180156118ef575060218382815181106118e4576118e461584e565b602002602001015151105b6119465760405162461bcd60e51b815260206004820152602260248201527f434f4e544d494e543a20696d70726f7065722063686172616374657220636f756044820152611b9d60f21b6064820152608401610f47565b806119508161581d565b9150506118a2565b5033806119a05760405162461bcd60e51b8152602060048201526016602482015275434f4e544d494e543a207a65726f206164647265737360501b6044820152606401610f47565b6001600160a01b038116600090815260dd602052604090205460ff1615611a095760405162461bcd60e51b815260206004820152601d60248201527f434f4e544d494e543a20626c61636b6c697374656420616464726573730000006044820152606401610f47565b60cf546001600160a01b03828116911614801590611a35575060d1546001600160a01b03828116911614155b8015611a4f575060d0546001600160a01b03828116911614155b611aa65760405162461bcd60e51b815260206004820152602260248201527f434f4e544d494e543a20706f6f6c732063616e6e6f742063726561746520636f6044820152611b9d60f21b6064820152608401610f47565b60c9546040516344fea1b960e01b81526000916001600160a01b0316906344fea1b990611ad7908590600401615346565b60206040518083038186803b158015611aef57600080fd5b505afa158015611b03573d6000803e3d6000fd5b505050506040513d601f19601f82011682018060405250810190611b2791906151f6565b905060cb54845182611b399190615746565b1115611b875760405162461bcd60e51b815260206004820152601c60248201527f434f4e544d494e543a2072656163686564206d696e74206c696d6974000000006044820152606401610f47565b835160c954604051630c75361360e31b8152600092916001600160a01b0316906363a9b09890611bbb9088906004016154a1565b60206040518083038186803b158015611bd357600080fd5b505afa158015611be7573d6000803e3d6000fd5b505050506040513d601f19601f82011682018060405250810190611c0b91906151f6565b611c159190615780565b90508060ce6000828254611c299190615746565b90915550819050611c39846132a0565b1015611c975760405162461bcd60e51b815260206004820152602760248201527f434f4e544d494e543a2042616c616e636520746f6f206c6f7720666f7220637260448201526632b0ba34b7b71760c91b6064820152608401610f47565b6000606460d65483611ca99190615780565b611cb3919061575e565b60d954909150610100900460ff1615611cf25760cf5460d954611ced9186916001600160a01b0391821691899162010000900416856141df565b611d0c565b60cf54611d0c9085906001600160a01b03168730856141df565b6000606460d35484611d1e9190615780565b611d28919061575e565b60d154909150611d459086906001600160a01b03168830856141df565b6000606460d45485611d579190615780565b611d61919061575e565b60d95490915060ff1615611d9b5760d05460d954611d969188916001600160a01b03918216918b9162010000900416856141df565b611db5565b60d054611db59087906001600160a01b03168930856141df565b6000606460d55486611dc79190615780565b611dd1919061575e565b60d254909150611dee9088906001600160a01b03168a30856141df565b6000818385611dfd888a61579f565b611e07919061579f565b611e11919061579f565b611e1b919061579f565b90508015611e2e57611e2e883083614304565b60c95460405162a6998d60e31b81526001600160a01b0390911690630534cc6890611e61908b908e908e906004016153c8565b600060405180830381600087803b158015611e7b57600080fd5b505af1158015611e8f573d6000803e3d6000fd5b505050507f9972942513a6d471ac125572d271f49ecc9652139451120363f1333713c42c43888a8c51604051611ec793929190615442565b60405180910390a150505050505050505050565b3360008181526034602090815260408083206001600160a01b038716845290915281205490919061167e9082908690611f15908790615746565b613ee2565b6001600160a01b039182166000908152609d6020908152604080832093909416825291909152205490565b6001600160a01b038116600090815260996020526040902054611f7a5760405162461bcd60e51b8152600401610f4790615572565b6001600160a01b0382166000908152609c60205260408120546040516370a0823160e01b81526001600160a01b038516906370a0823190611fbf903090600401615346565b60206040518083038186803b158015611fd757600080fd5b505afa158015611feb573d6000803e3d6000fd5b505050506040513d601f19601f8201168201806040525081019061200f91906151f6565b6120199190615746565b9050600061202c83836116fc8787611f1a565b90508061204b5760405162461bcd60e51b8152600401610f47906155b8565b6001600160a01b038085166000908152609d6020908152604080832093871683529290529081208054839290612082908490615746565b90915550506001600160a01b0384166000908152609c6020526040812080548392906120af908490615746565b909155506120c090508484836144d2565b836001600160a01b03167f3be5b7a71e84ed12875d241991c70855ac5817d847039e17a9d895c1ceb0f18a84836040516120fb92919061535a565b60405180910390a250505050565b60df54339060ff1615156001146121625760405162461bcd60e51b815260206004820152601960248201527f43534854414c4c3a20636173686f75742064697361626c6564000000000000006044820152606401610f47565b6001600160a01b0381166121b05760405162461bcd60e51b815260206004820152601560248201527443534854414c4c3a207a65726f206164647265737360581b6044820152606401610f47565b6001600160a01b038116600090815260dd602052604090205460ff16156122195760405162461bcd60e51b815260206004820152601c60248201527f43534854414c4c3a20626c61636b6c69737465642061646472657373000000006044820152606401610f47565b60c9546040516330cd31af60e11b81526000916001600160a01b03169063619a635e9061224a908590600401615346565b60206040518083038186803b15801561226257600080fd5b505afa158015612276573d6000803e3d6000fd5b505050506040513d601f19601f8201168201806040525081019061229a91906151f6565b9050600081116122ec5760405162461bcd60e51b815260206004820152601960248201527f43534854414c4c3a20726577617264206e6f74207265616479000000000000006044820152606401610f47565b60c95460405163d094fa8d60e01b8152600091829182916001600160a01b03169063d094fa8d90612321908890600401615346565b608060405180830381600087803b15801561233b57600080fd5b505af115801561234f573d6000803e3d6000fd5b505050506040513d601f19601f8201168201806040525081019061237391906152a6565b60d854939750919550935091506000901561267c57606460d854866123989190615780565b6123a2919061575e565b60e054909150600160a01b900460ff16156124855760d15460df5460d95460d854612404936001600160a01b03908116936201000090819004821693600093919004909116906064906123f5908b615780565b6123ff919061575e565b6141df565b60d15460df5460d95460d854612442936001600160a01b03908116936201000090819004821693600193919004909116906064906123f5908a615780565b60d15460df5460d95460d854612480936001600160a01b03908116936201000090819004821693600293919004909116906064906123f59089615780565b612606565b60d15460df546201000090046001600160a01b0390811691161461253c5760d15460df5460d8546124d6926001600160a01b0390811692620100009004169060009030906064906123f5908b615780565b60d15460df5460d854612509926001600160a01b0390811692620100009004169060019030906064906123f5908a615780565b60d15460df5460d854612480926001600160a01b0390811692620100009004169060029030906064906123f59089615780565b6000805160206158ab833981519152600030606460d8548861255e9190615780565b612568919061575e565b6040516125779392919061552c565b60405180910390a16000805160206158ab833981519152600130606460d854876125a19190615780565b6125ab919061575e565b6040516125ba9392919061552c565b60405180910390a16000805160206158ab833981519152600230606460d854866125e49190615780565b6125ee919061575e565b6040516125fd9392919061552c565b60405180910390a15b606460d8546064612617919061579f565b6126219086615780565b61262b919061575e565b9350606460d854606461263e919061579f565b6126489085615780565b612652919061575e565b9250606460d8546064612665919061579f565b61266f9084615780565b612679919061575e565b91505b612686818661579f565b60d1549095506126a0906001600160a01b03168787613e44565b604080516001600160a01b03881681526020810187905290810185905260608101849052608081018390527f6717635faad3367ddfa0564bf3540e74269b0c5dfef7720d5512f309dc1b6c869060a0016110ad565b6065546001600160a01b0316331461271f5760405162461bcd60e51b8152600401610f479061563a565b6001600160a01b0381166127455760405162461bcd60e51b8152600401610f47906154ff565b60cf80546001600160a01b0319166001600160a01b0392909216919091179055565b600054610100900460ff166127825760005460ff1615612786565b303b155b6127e95760405162461bcd60e51b815260206004820152602e60248201527f496e697469616c697a61626c653a20636f6e747261637420697320616c72656160448201526d191e481a5b9a5d1a585b1a5e995960921b6064820152608401610f47565b600054610100900460ff1615801561280b576000805461ffff19166101011790555b6000855111801561281d575060008451115b6128605760405162461bcd60e51b815260206004820152601460248201527320a222291013102120a620a721a29022a92927a960611b6044820152606401610f47565b612868614528565b6128ac604051806040016040528060078152602001663078426c6f636b60c81b81525060405180604001604052806003815260200162183c2160e91b815250614557565b6128b68787614588565b60005b8551811015612923576129118682815181106128d7576128d761584e565b60200260200101518683815181106128f1576128f161584e565b6020026020010151670de0b6b3a764000061290c9190615780565b6145b9565b8061291b8161581d565b9150506128b9565b5060355469d3c21bcecceda1000000146129775760405162461bcd60e51b81526020600482015260156024820152741515130814d5541413164811125191880c48135253605a1b6044820152606401610f47565b60006001600160a01b0316856001815181106129955761299561584e565b60200260200101516001600160a01b0316141580156129e1575060006001600160a01b0316856002815181106129cd576129cd61584e565b60200260200101516001600160a01b031614155b8015612a1a575060006001600160a01b031685600381518110612a0657612a0661584e565b60200260200101516001600160a01b031614155b8015612a53575060006001600160a01b031685600481518110612a3f57612a3f61584e565b60200260200101516001600160a01b031614155b612a915760405162461bcd60e51b815260206004820152600f60248201526e1413d3d30816915493c81193d55391608a1b6044820152606401610f47565b8351855114612ad95760405162461bcd60e51b815260206004820152601460248201527320a222291013102120a620a721a29022a92927a960611b6044820152606401610f47565b600083600081518110612aee57612aee61584e565b6020026020010151118015612b1d5750600083600181518110612b1357612b1361584e565b6020026020010151115b8015612b435750600083600281518110612b3957612b3961584e565b6020026020010151115b8015612b695750600083600381518110612b5f57612b5f61584e565b6020026020010151115b8015612b8f5750600083600481518110612b8557612b8561584e565b6020026020010151115b612bcb5760405162461bcd60e51b815260206004820152600d60248201526c0c094811915154c81193d55391609a1b6044820152606401610f47565b84600181518110612bde57612bde61584e565b602002602001015160cf60006101000a8154816001600160a01b0302191690836001600160a01b0316021790555084600281518110612c1f57612c1f61584e565b602002602001015160d260006101000a8154816001600160a01b0302191690836001600160a01b0316021790555084600381518110612c6057612c6061584e565b602002602001015160d060006101000a8154816001600160a01b0302191690836001600160a01b0316021790555084600481518110612ca157612ca161584e565b602090810291909101015160d180546001600160a01b0319166001600160a01b03909216918217905560df805462010000600160b01b0319166201000090920291909117905582518390600090612cfa57612cfa61584e565b602002602001015160d68190555082600181518110612d1b57612d1b61584e565b602002602001015160d48190555082600281518110612d3c57612d3c61584e565b602002602001015160d38190555082600381518110612d5d57612d5d61584e565b602002602001015160d58190555082600481518110612d7e57612d7e61584e565b602002602001015160d88190555060d45460d65460d55460d354612da29190615746565b612dac9190615746565b612db69190615746565b60d75560d98054606460cb55600a60cc5561ffff196001600160a01b038516620100000281166001600160b01b0319909216919091176101001790915560df805461010192169190911790558015612e14576000805461ff00191690555b50505050505050565b6065546001600160a01b03163314612e475760405162461bcd60e51b8152600401610f479061563a565b6001600160a01b038116612e6d5760405162461bcd60e51b8152600401610f47906154ff565b60df80546001600160a01b03909216620100000262010000600160b01b0319909216919091179055565b60df54339060ff161515600114612ee95760405162461bcd60e51b815260206004820152601660248201527510d4d2150e8810d85cda1bdd5d08111a5cd8589b195960521b6044820152606401610f47565b6001600160a01b038116612f345760405162461bcd60e51b8152602060048201526012602482015271435348543a207a65726f206164647265737360701b6044820152606401610f47565b6001600160a01b038116600090815260dd602052604090205460ff1615612f915760405162461bcd60e51b815260206004820152601160248201527010d4d2150e88189b1858dadb1a5cdd1959607a1b6044820152606401610f47565b60c9546040516305cfb67f60e11b81526000916001600160a01b031690630b9f6cfe90612fc4908590879060040161535a565b60206040518083038186803b158015612fdc57600080fd5b505afa158015612ff0573d6000803e3d6000fd5b505050506040513d601f19601f8201168201806040525081019061301491906151f6565b90506000811161305f5760405162461bcd60e51b8152602060048201526016602482015275435348543a20726577617264206e6f7420726561647960501b6044820152606401610f47565b600061306b818361579f565b60d154909250613085906001600160a01b03168484613e44565b60c95460405163611015b360e11b815260009182916001600160a01b039091169063c2202b66906130bc9088908a9060040161535a565b6040805180830381600087803b1580156130d557600080fd5b505af11580156130e9573d6000803e3d6000fd5b505050506040513d601f19601f8201168201806040525081019061310d919061520f565b60d8549193509150156131eb57606460d8548561312a9190615780565b613134919061575e565b60e054909350600160a01b900460ff161561317e5760d15460df5460d954613179926001600160a01b03908116926201000090819004821692869291900416876141df565b6131eb565b60d15460df546201000090046001600160a01b039081169116146131c15760d15460df54613179916001600160a01b0390811691620100009004168330876141df565b6000805160206158ab8339815191528130856040516131e29392919061552c565b60405180910390a15b7f6df62f67bac1b205a7fb106e3dd59043cdec9d6f2825adf0e0670f3cbcf86ac8858786846040516110ad949392919061546d565b6065546001600160a01b0316331461324a5760405162461bcd60e51b8152600401610f479061563a565b606481111561329b5760405162461bcd60e51b815260206004820152601c60248201527f464545533a20636173686f757420657863656564696e672031303025000000006044820152606401610f47565b60d855565b6001600160a01b031660009081526033602052604090205490565b6065546001600160a01b031633146132e55760405162461bcd60e51b8152600401610f479061563a565b6132ef6000614698565b565b6065546001600160a01b0316331461331b5760405162461bcd60e51b8152600401610f479061563a565b6001600160a01b0381166133415760405162461bcd60e51b8152600401610f47906154ff565b60d080546001600160a01b0319166001600160a01b0392909216919091179055565b6065546001600160a01b0316331461338d5760405162461bcd60e51b8152600401610f479061563a565b60d980549115156101000261ff0019909216919091179055565b60d1546060906001600160a01b03838116911614156133e35750506040805180820190915260078152667265776172647360c81b602082015290565b60cf546001600160a01b038381169116141561341c57505060408051808201909152600781526619195d999d5b9960ca1b602082015290565b60d0546001600160a01b0383811691161415613456575050604080518082019091526008815267747265617375727960c01b602082015290565b60d2546001600160a01b03838116911614156134915750506040805180820190915260098152686c697175696469747960b81b602082015290565b50506040805180820190915260018152605f60f81b602082015290565b6000609b82815481106134c3576134c361584e565b6000918252602090912001546001600160a01b031692915050565b6065546001600160a01b031633146135085760405162461bcd60e51b8152600401610f479061563a565b6001600160a01b0381166135535760405162461bcd60e51b81526020600482015260126024820152712722abafa1a9269d103d32b9379030b2323960711b6044820152606401610f47565b60c980546001600160a01b0319166001600160a01b0392909216919091179055565b6065546001600160a01b0316331461359f5760405162461bcd60e51b8152600401610f479061563a565b60008160d45460d65460d3546135b59190615746565b6135bf9190615746565b6135c99190615746565b905060648111156135ec5760405162461bcd60e51b8152600401610f479061566f565b60d59190915560d755565b6065546001600160a01b031633146136215760405162461bcd60e51b8152600401610f479061563a565b60df80549115156101000261ff0019909216919091179055565b606060378054611121906157e2565b6065546001600160a01b031633146136745760405162461bcd60e51b8152600401610f479061563a565b60008160d65460d55460d35461368a9190615746565b6136949190615746565b61369e9190615746565b905060648111156136c15760405162461bcd60e51b8152600401610f479061566f565b60d49190915560d755565b6040516370a0823160e01b81523390859084906001600160a01b038316906370a08231906136fe908690600401615346565b60206040518083038186803b15801561371657600080fd5b505afa15801561372a573d6000803e3d6000fd5b505050506040513d601f19601f8201168201806040525081019061374e91906151f6565b101561376c5760405162461bcd60e51b8152600401610f4790615603565b60e0546040516323b872dd60e01b81526001600160a01b03808416926323b872dd926137a092879216908990600401615373565b602060405180830381600087803b1580156137ba57600080fd5b505af11580156137ce573d6000803e3d6000fd5b505050506040513d601f19601f820116820180604052508101906137f291906151c0565b5060e0546000906001600160a01b03166374cefd8a848989896114f28a42615746565b6065546001600160a01b0316331461383f5760405162461bcd60e51b8152600401610f479061563a565b60d9805460ff1916911515919091179055565b3360008181526034602090815260408083206001600160a01b0387168452909152812054909190838110156138d75760405162461bcd60e51b815260206004820152602560248201527f45524332303a2064656372656173656420616c6c6f77616e63652062656c6f77604482015264207a65726f60d81b6064820152608401610f47565b6138e48286868403613ee2565b506001949350505050565b60003361167e818585613e44565b6065546001600160a01b031633146139275760405162461bcd60e51b8152600401610f479061563a565b6001600160a01b0381166139735760405162461bcd60e51b81526020600482015260136024820152722722abafaaa9a2219d103d32b9379030b2323960691b6044820152606401610f47565b60d980546001600160a01b03909216620100000262010000600160b01b0319909216919091179055565b6065546001600160a01b031633146139c75760405162461bcd60e51b8152600401610f479061563a565b60df805460ff1916911515919091179055565b6065546001600160a01b03163314613a045760405162461bcd60e51b8152600401610f479061563a565b60e08054911515600160a01b0260ff60a01b19909216919091179055565b6065546001600160a01b03163314613a4c5760405162461bcd60e51b8152600401610f479061563a565b6001600160a01b038116613a9b5760405162461bcd60e51b81526020600482015260166024820152752722abafa62927aaaa22a91d103d32b9379030b2323960511b6044820152606401610f47565b60e080546001600160a01b0319166001600160a01b0392909216919091179055565b6065546001600160a01b03163314613ae75760405162461bcd60e51b8152600401610f479061563a565b6001600160a01b038116613b0d5760405162461bcd60e51b8152600401610f47906154ff565b60d180546001600160a01b0319166001600160a01b0392909216919091179055565b6065546001600160a01b03163314613b595760405162461bcd60e51b8152600401610f479061563a565b613b62306132a0565b811115613bc25760405162461bcd60e51b815260206004820152602860248201527f534156455f4d495353454e543a20746f6b656e732065786365656420616464726044820152672062616c616e636560c01b6064820152608401610f47565b6001600160a01b038216613c185760405162461bcd60e51b815260206004820152601a60248201527f534156455f4d495353454e543a207a65726f5f616464726573730000000000006044820152606401610f47565b613c23308383613e44565b5050565b6001600160a01b03918216600090815260346020908152604080832093909416825291909152205490565b6065546001600160a01b03163314613c7c5760405162461bcd60e51b8152600401610f479061563a565b6001600160a01b038116613ca25760405162461bcd60e51b8152600401610f47906154ff565b60d280546001600160a01b0319166001600160a01b0392909216919091179055565b3383613ccf826132a0565b1015613ced5760405162461bcd60e51b8152600401610f4790615603565b60e054613d059082906001600160a01b031686613e44565b60e0546000906001600160a01b03166388e5249f83888888610f8a8942615746565b6065546001600160a01b03163314613d515760405162461bcd60e51b8152600401610f479061563a565b6001600160a01b038116613db65760405162461bcd60e51b815260206004820152602660248201527f4f776e61626c653a206e6577206f776e657220697320746865207a65726f206160448201526564647265737360d01b6064820152608401610f47565b613dbf81614698565b50565b6065546001600160a01b03163314613dec5760405162461bcd60e51b8152600401610f479061563a565b60008160d45460d55460d354613e029190615746565b613e0c9190615746565b613e169190615746565b90506064811115613e395760405162461bcd60e51b8152600401610f479061566f565b60d69190915560d755565b6001600160a01b038316600090815260dd602052604090205460ff16158015613e8657506001600160a01b038216600090815260dd602052604090205460ff16155b613ed25760405162461bcd60e51b815260206004820152601a60248201527f45524332303a20426c61636b6c697374656420616464726573730000000000006044820152606401610f47565b613edd838383614304565b505050565b6001600160a01b038316613f445760405162461bcd60e51b8152602060048201526024808201527f45524332303a20617070726f76652066726f6d20746865207a65726f206164646044820152637265737360e01b6064820152608401610f47565b6001600160a01b038216613fa55760405162461bcd60e51b815260206004820152602260248201527f45524332303a20617070726f766520746f20746865207a65726f206164647265604482015261737360f01b6064820152608401610f47565b6001600160a01b0383811660008181526034602090815260408083209487168084529482529182902085905590518481527f8c5be1e5ebec7d5bd14f71427d1e84f3dd0314c0f7b2291e5b200ac8c7c3b925910160405180910390a3505050565b6097546001600160a01b038416600090815260996020526040812054909183916140309086615780565b61403a919061575e565b614044919061579f565b949350505050565b8047101561409c5760405162461bcd60e51b815260206004820152601d60248201527f416464726573733a20696e73756666696369656e742062616c616e63650000006044820152606401610f47565b6000826001600160a01b03168260405160006040518083038185875af1925050503d80600081146140e9576040519150601f19603f3d011682016040523d82523d6000602084013e6140ee565b606091505b5050905080613edd5760405162461bcd60e51b815260206004820152603a60248201527f416464726573733a20756e61626c6520746f2073656e642076616c75652c207260448201527f6563697069656e74206d617920686176652072657665727465640000000000006064820152608401610f47565b60006141718484613c27565b905060001981146141d957818110156141cc5760405162461bcd60e51b815260206004820152601d60248201527f45524332303a20696e73756666696369656e7420616c6c6f77616e63650000006044820152606401610f47565b6141d98484848403613ee2565b50505050565b60006141ea856133a7565b90506001600160a01b03831630141561423857614208868684613e44565b6000805160206158ab8339815191528185858560405161422b94939291906154c2565b60405180910390a16142fc565b60e0546142509087906001600160a01b031684613e44565b60e054604051632da63c1160e21b81526000916001600160a01b03169063b698f0449061428590899088908890600401615373565b602060405180830381600087803b15801561429f57600080fd5b505af11580156142b3573d6000803e3d6000fd5b505050506040513d601f19601f820116820180604052508101906142d791906151f6565b90506000805160206158ab833981519152828686846040516115dd94939291906154c2565b505050505050565b6001600160a01b0383166143685760405162461bcd60e51b815260206004820152602560248201527f45524332303a207472616e736665722066726f6d20746865207a65726f206164604482015264647265737360d81b6064820152608401610f47565b6001600160a01b0382166143ca5760405162461bcd60e51b815260206004820152602360248201527f45524332303a207472616e7366657220746f20746865207a65726f206164647260448201526265737360e81b6064820152608401610f47565b6001600160a01b038316600090815260336020526040902054818110156144425760405162461bcd60e51b815260206004820152602660248201527f45524332303a207472616e7366657220616d6f756e7420657863656564732062604482015265616c616e636560d01b6064820152608401610f47565b6001600160a01b03808516600090815260336020526040808220858503905591851681529081208054849290614479908490615746565b92505081905550826001600160a01b0316846001600160a01b03167fddf252ad1be2c89b69c2b068fc378daa952ba7f163c4a11628f55a4df523b3ef846040516144c591815260200190565b60405180910390a36141d9565b613edd8363a9059cbb60e01b84846040516024016144f192919061535a565b60408051601f198184030181529190526020810180516001600160e01b03166001600160e01b0319909316929092179091526146ea565b600054610100900460ff1661454f5760405162461bcd60e51b8152600401610f47906156a6565b6132ef6147bc565b600054610100900460ff1661457e5760405162461bcd60e51b8152600401610f47906156a6565b613c2382826147ec565b600054610100900460ff166145af5760405162461bcd60e51b8152600401610f47906156a6565b613c23828261483a565b6001600160a01b03821661460f5760405162461bcd60e51b815260206004820152601f60248201527f45524332303a206d696e7420746f20746865207a65726f2061646472657373006044820152606401610f47565b80603560008282546146219190615746565b90915550506001600160a01b0382166000908152603360205260408120805483929061464e908490615746565b90915550506040518181526001600160a01b038316906000907fddf252ad1be2c89b69c2b068fc378daa952ba7f163c4a11628f55a4df523b3ef9060200160405180910390a35050565b606580546001600160a01b038381166001600160a01b0319831681179093556040519116919082907f8be0079c531659141344cd1fd0a4f28419497f9722a3daafe3b4186f6b6457e090600090a35050565b600061473f826040518060400160405280602081526020017f5361666545524332303a206c6f772d6c6576656c2063616c6c206661696c6564815250856001600160a01b03166149789092919063ffffffff16565b805190915015613edd578080602001905181019061475d91906151c0565b613edd5760405162461bcd60e51b815260206004820152602a60248201527f5361666545524332303a204552433230206f7065726174696f6e20646964206e6044820152691bdd081cdd58d8d9595960b21b6064820152608401610f47565b600054610100900460ff166147e35760405162461bcd60e51b8152600401610f47906156a6565b6132ef33614698565b600054610100900460ff166148135760405162461bcd60e51b8152600401610f47906156a6565b8151614826906036906020850190614ccf565b508051613edd906037906020840190614ccf565b600054610100900460ff166148615760405162461bcd60e51b8152600401610f47906156a6565b80518251146148cd5760405162461bcd60e51b815260206004820152603260248201527f5061796d656e7453706c69747465723a2070617965657320616e6420736861726044820152710cae640d8cadccee8d040dad2e6dac2e8c6d60731b6064820152608401610f47565b600082511161491e5760405162461bcd60e51b815260206004820152601a60248201527f5061796d656e7453706c69747465723a206e6f207061796565730000000000006044820152606401610f47565b60005b8251811015613edd5761496683828151811061493f5761493f61584e565b60200260200101518383815181106149595761495961584e565b6020026020010151614987565b806149708161581d565b915050614921565b60606140448484600085614b65565b6001600160a01b0382166149f25760405162461bcd60e51b815260206004820152602c60248201527f5061796d656e7453706c69747465723a206163636f756e74206973207468652060448201526b7a65726f206164647265737360a01b6064820152608401610f47565b60008111614a425760405162461bcd60e51b815260206004820152601d60248201527f5061796d656e7453706c69747465723a207368617265732061726520300000006044820152606401610f47565b6001600160a01b03821660009081526099602052604090205415614abc5760405162461bcd60e51b815260206004820152602b60248201527f5061796d656e7453706c69747465723a206163636f756e7420616c726561647960448201526a206861732073686172657360a81b6064820152608401610f47565b609b8054600181019091557fbba9db4cdbea0a37c207bbb83e20f828cd4441c49891101dc94fd20dc8efc3490180546001600160a01b0319166001600160a01b0384169081179091556000908152609960205260409020819055609754614b24908290615746565b6097556040517f40c340f65e17194d14ddddb073d3c9f888e3cb52b5aae0c6c7706b4fbc905fac90614b59908490849061535a565b60405180910390a15050565b606082471015614bc65760405162461bcd60e51b815260206004820152602660248201527f416464726573733a20696e73756666696369656e742062616c616e636520666f6044820152651c8818d85b1b60d21b6064820152608401610f47565b6001600160a01b0385163b614c1d5760405162461bcd60e51b815260206004820152601d60248201527f416464726573733a2063616c6c20746f206e6f6e2d636f6e74726163740000006044820152606401610f47565b600080866001600160a01b03168587604051614c39919061532a565b60006040518083038185875af1925050503d8060008114614c76576040519150601f19603f3d011682016040523d82523d6000602084013e614c7b565b606091505b5091509150614c8b828286614c96565b979650505050505050565b60608315614ca55750816117ce565b825115614cb55782518084602001fd5b8160405162461bcd60e51b8152600401610f4791906154af565b828054614cdb906157e2565b90600052602060002090601f016020900481019282614cfd5760008555614d43565b82601f10614d1657805160ff1916838001178555614d43565b82800160010185558215614d43579182015b82811115614d43578251825591602001919060010190614d28565b50614d4f929150614d53565b5090565b5b80821115614d4f5760008155600101614d54565b8035614d738161587a565b919050565b600082601f830112614d8957600080fd5b81356020614d9e614d9983615722565b6156f1565b80838252828201915082860187848660051b8901011115614dbe57600080fd5b60005b85811015614de6578135614dd48161587a565b84529284019290840190600101614dc1565b5090979650505050505050565b600082601f830112614e0457600080fd5b81356020614e14614d9983615722565b80838252828201915082860187848660051b8901011115614e3457600080fd5b60005b85811015614de657813584529284019290840190600101614e37565b8035614d738161589d565b600060208284031215614e7057600080fd5b81356117ce8161587a565b600060208284031215614e8d57600080fd5b81516117ce8161587a565b60008060408385031215614eab57600080fd5b8235614eb68161587a565b91506020830135614ec68161587a565b809150509250929050565b600080600060608486031215614ee657600080fd5b8335614ef18161587a565b92506020840135614f018161587a565b929592945050506040919091013590565b60008060408385031215614f2557600080fd5b8235614f308161587a565b91506020830135614ec68161588f565b60008060408385031215614f5357600080fd5b8235614f5e8161587a565b946020939093013593505050565b60008060008060808587031215614f8257600080fd5b8435614f8d8161587a565b966020860135965060408601359560600135945092505050565b60008060008060008060c08789031215614fc057600080fd5b863567ffffffffffffffff80821115614fd857600080fd5b614fe48a838b01614d78565b97506020890135915080821115614ffa57600080fd5b6150068a838b01614df3565b9650604089013591508082111561501c57600080fd5b6150288a838b01614d78565b9550606089013591508082111561503e57600080fd5b61504a8a838b01614df3565b9450608089013591508082111561506057600080fd5b5061506d89828a01614df3565b92505061507c60a08801614d68565b90509295509295509295565b600080604080848603121561509c57600080fd5b833567ffffffffffffffff808211156150b457600080fd5b818601915086601f8301126150c857600080fd5b813560206150d8614d9983615722565b8083825282820191508286018b848660051b89010111156150f857600080fd5b60005b858110156151835781358781111561511257600080fd5b8801603f81018e1361512357600080fd5b858101358881111561513757615137615864565b615149601f8201601f191688016156f1565b8181528f8c83850101111561515d57600080fd5b818c840189830137600091810188019190915285525092840192908401906001016150fb565b50508098505050615195818901614e53565b955050505050509250929050565b6000602082840312156151b557600080fd5b81356117ce8161588f565b6000602082840312156151d257600080fd5b81516117ce8161588f565b6000602082840312156151ef57600080fd5b5035919050565b60006020828403121561520857600080fd5b5051919050565b6000806040838503121561522257600080fd5b825191506020830151614ec68161589d565b6000806040838503121561524757600080fd5b50508035926020909101359150565b6000806040838503121561526957600080fd5b505080516020909101519092909150565b60008060006060848603121561528f57600080fd5b505081359360208301359350604090920135919050565b600080600080608085870312156152bc57600080fd5b505082516020840151604085015160609095015191969095509092509050565b600481106152fa57634e487b7160e01b600052602160045260246000fd5b9052565b600081518084526153168160208601602086016157b6565b601f01601f19169290920160200192915050565b6000825161533c8184602087016157b6565b9190910192915050565b6001600160a01b0391909116815260200190565b6001600160a01b03929092168252602082015260400190565b6001600160a01b039384168152919092166020820152604081019190915260600190565b6001600160a01b03958616815293909416602084015260408301919091526060820152608081019190915260a00190565b60006060820160018060a01b0386168352602060608185015281865180845260808601915060808160051b870101935082880160005b8281101561542c57607f1988870301845261541a8683516152fe565b955092840192908401906001016153fe565b50505050508091505061404460408301846152dc565b6001600160a01b03841681526060810161545f60208301856152dc565b826040830152949350505050565b6001600160a01b038516815260208101849052604081018390526080810161549860608301846152dc565b95945050505050565b6020810161168482846152dc565b6020815260006117ce60208301846152fe565b6080815260006154d560808301876152fe565b90506154e460208301866152dc565b6001600160a01b039390931660408201526060015292915050565b6020808252601390820152722aa8222faba0a6261d103d32b9379030b2323960691b604082015260600190565b6080808252600790820152667265776172647360c81b60a082015260c0810161555860208301866152dc565b6001600160a01b0393909316604082015260600152919050565b60208082526026908201527f5061796d656e7453706c69747465723a206163636f756e7420686173206e6f2060408201526573686172657360d01b606082015260800190565b6020808252602b908201527f5061796d656e7453706c69747465723a206163636f756e74206973206e6f742060408201526a191d59481c185e5b595b9d60aa1b606082015260800190565b6020808252601a908201527f535741503a20696e73756666696369656e742062616c616e6365000000000000604082015260600190565b6020808252818101527f4f776e61626c653a2063616c6c6572206973206e6f7420746865206f776e6572604082015260600190565b6020808252601a908201527f464545533a20746f74616c20657863656564696e672031303025000000000000604082015260600190565b6020808252602b908201527f496e697469616c697a61626c653a20636f6e7472616374206973206e6f74206960408201526a6e697469616c697a696e6760a81b606082015260800190565b604051601f8201601f1916810167ffffffffffffffff8111828210171561571a5761571a615864565b604052919050565b600067ffffffffffffffff82111561573c5761573c615864565b5060051b60200190565b6000821982111561575957615759615838565b500190565b60008261577b57634e487b7160e01b600052601260045260246000fd5b500490565b600081600019048311821515161561579a5761579a615838565b500290565b6000828210156157b1576157b1615838565b500390565b60005b838110156157d15781810151838201526020016157b9565b838111156141d95750506000910152565b600181811c908216806157f657607f821691505b6020821081141561581757634e487b7160e01b600052602260045260246000fd5b50919050565b600060001982141561583157615831615838565b5060010190565b634e487b7160e01b600052601160045260246000fd5b634e487b7160e01b600052603260045260246000fd5b634e487b7160e01b600052604160045260246000fd5b6001600160a01b0381168114613dbf57600080fd5b8015158114613dbf57600080fd5b60048110613dbf57600080fdfeae65b8cdcf70197aae9eec6cad9075662a0b1f140940b20a5d60413e1d05e8b8a164736f6c6343000807000a",
  "devdoc": {
    "kind": "dev",
    "methods": {
      "allowance(address,address)": {
        "details": "See {IERC20-allowance}."
      },
      "approve(address,uint256)": {
        "details": "See {IERC20-approve}. NOTE: If `amount` is the maximum `uint256`, the allowance is not updated on `transferFrom`. This is semantically equivalent to an infinite approval. Requirements: - `spender` cannot be the zero address."
      },
      "balanceOf(address)": {
        "details": "See {IERC20-balanceOf}."
      },
      "decimals()": {
        "details": "Returns the number of decimals used to get its user representation. For example, if `decimals` equals `2`, a balance of `505` tokens should be displayed to a user as `5.05` (`505 / 10 ** 2`). Tokens usually opt for a value of 18, imitating the relationship between Ether and Wei. This is the value {ERC20} uses, unless this function is overridden; NOTE: This information is only used for _display_ purposes: it in no way affects any of the arithmetic of the contract, including {IERC20-balanceOf} and {IERC20-transfer}."
      },
      "decreaseAllowance(address,uint256)": {
        "details": "Atomically decreases the allowance granted to `spender` by the caller. This is an alternative to {approve} that can be used as a mitigation for problems described in {IERC20-approve}. Emits an {Approval} event indicating the updated allowance. Requirements: - `spender` cannot be the zero address. - `spender` must have allowance for the caller of at least `subtractedValue`."
      },
      "increaseAllowance(address,uint256)": {
        "details": "Atomically increases the allowance granted to `spender` by the caller. This is an alternative to {approve} that can be used as a mitigation for problems described in {IERC20-approve}. Emits an {Approval} event indicating the updated allowance. Requirements: - `spender` cannot be the zero address."
      },
      "name()": {
        "details": "Returns the name of the token."
      },
      "owner()": {
        "details": "Returns the address of the current owner."
      },
      "payee(uint256)": {
        "details": "Getter for the address of the payee number `index`."
      },
      "release(address)": {
        "details": "Triggers a transfer to `account` of the amount of Ether they are owed, according to their percentage of the total shares and their previous withdrawals."
      },
      "release(address,address)": {
        "details": "Triggers a transfer to `account` of the amount of `token` tokens they are owed, according to their percentage of the total shares and their previous withdrawals. `token` must be the address of an IERC20 contract."
      },
      "released(address)": {
        "details": "Getter for the amount of Ether already released to a payee."
      },
      "released(address,address)": {
        "details": "Getter for the amount of `token` tokens already released to a payee. `token` should be the address of an IERC20 contract."
      },
      "renounceOwnership()": {
        "details": "Leaves the contract without owner. It will not be possible to call `onlyOwner` functions anymore. Can only be called by the current owner. NOTE: Renouncing ownership will leave the contract without an owner, thereby removing any functionality that is only available to the owner."
      },
      "shares(address)": {
        "details": "Getter for the amount of shares held by an account."
      },
      "symbol()": {
        "details": "Returns the symbol of the token, usually a shorter version of the name."
      },
      "totalReleased()": {
        "details": "Getter for the total amount of Ether already released."
      },
      "totalReleased(address)": {
        "details": "Getter for the total amount of `token` already released. `token` should be the address of an IERC20 contract."
      },
      "totalShares()": {
        "details": "Getter for the total shares held by payees."
      },
      "totalSupply()": {
        "details": "See {IERC20-totalSupply}."
      },
      "transfer(address,uint256)": {
        "details": "See {IERC20-transfer}. Requirements: - `to` cannot be the zero address. - the caller must have a balance of at least `amount`."
      },
      "transferFrom(address,address,uint256)": {
        "details": "See {IERC20-transferFrom}. Emits an {Approval} event indicating the updated allowance. This is not required by the EIP. See the note at the beginning of {ERC20}. NOTE: Does not update the allowance if the current allowance is the maximum `uint256`. Requirements: - `from` and `to` cannot be the zero address. - `from` must have a balance of at least `amount`. - the caller must have allowance for ``from``'s tokens of at least `amount`."
      },
      "transferOwnership(address)": {
        "details": "Transfers ownership of the contract to a new account (`newOwner`). Can only be called by the current owner."
      }
    },
    "version": 1
  },
  "userdoc": {
    "kind": "user",
    "methods": {},
    "version": 1
  },
  "storageLayout": {
    "storage": [
      {
        "astId": 598,
        "contract": "contracts/ZeroXBlock.sol:ZeroXBlock",
        "label": "_initialized",
        "offset": 0,
        "slot": "0",
        "type": "t_bool"
      },
      {
        "astId": 601,
        "contract": "contracts/ZeroXBlock.sol:ZeroXBlock",
        "label": "_initializing",
        "offset": 1,
        "slot": "0",
        "type": "t_bool"
      },
      {
        "astId": 1889,
        "contract": "contracts/ZeroXBlock.sol:ZeroXBlock",
        "label": "__gap",
        "offset": 0,
        "slot": "1",
        "type": "t_array(t_uint256)50_storage"
      },
      {
        "astId": 684,
        "contract": "contracts/ZeroXBlock.sol:ZeroXBlock",
        "label": "_balances",
        "offset": 0,
        "slot": "51",
        "type": "t_mapping(t_address,t_uint256)"
      },
      {
        "astId": 690,
        "contract": "contracts/ZeroXBlock.sol:ZeroXBlock",
        "label": "_allowances",
        "offset": 0,
        "slot": "52",
        "type": "t_mapping(t_address,t_mapping(t_address,t_uint256))"
      },
      {
        "astId": 692,
        "contract": "contracts/ZeroXBlock.sol:ZeroXBlock",
        "label": "_totalSupply",
        "offset": 0,
        "slot": "53",
        "type": "t_uint256"
      },
      {
        "astId": 694,
        "contract": "contracts/ZeroXBlock.sol:ZeroXBlock",
        "label": "_name",
        "offset": 0,
        "slot": "54",
        "type": "t_string_storage"
      },
      {
        "astId": 696,
        "contract": "contracts/ZeroXBlock.sol:ZeroXBlock",
        "label": "_symbol",
        "offset": 0,
        "slot": "55",
        "type": "t_string_storage"
      },
      {
        "astId": 1277,
        "contract": "contracts/ZeroXBlock.sol:ZeroXBlock",
        "label": "__gap",
        "offset": 0,
        "slot": "56",
        "type": "t_array(t_uint256)45_storage"
      },
      {
        "astId": 10,
        "contract": "contracts/ZeroXBlock.sol:ZeroXBlock",
        "label": "_owner",
        "offset": 0,
        "slot": "101",
        "type": "t_address"
      },
      {
        "astId": 122,
        "contract": "contracts/ZeroXBlock.sol:ZeroXBlock",
        "label": "__gap",
        "offset": 0,
        "slot": "102",
        "type": "t_array(t_uint256)49_storage"
      },
      {
        "astId": 163,
        "contract": "contracts/ZeroXBlock.sol:ZeroXBlock",
        "label": "_totalShares",
        "offset": 0,
        "slot": "151",
        "type": "t_uint256"
      },
      {
        "astId": 165,
        "contract": "contracts/ZeroXBlock.sol:ZeroXBlock",
        "label": "_totalReleased",
        "offset": 0,
        "slot": "152",
        "type": "t_uint256"
      },
      {
        "astId": 169,
        "contract": "contracts/ZeroXBlock.sol:ZeroXBlock",
        "label": "_shares",
        "offset": 0,
        "slot": "153",
        "type": "t_mapping(t_address,t_uint256)"
      },
      {
        "astId": 173,
        "contract": "contracts/ZeroXBlock.sol:ZeroXBlock",
        "label": "_released",
        "offset": 0,
        "slot": "154",
        "type": "t_mapping(t_address,t_uint256)"
      },
      {
        "astId": 176,
        "contract": "contracts/ZeroXBlock.sol:ZeroXBlock",
        "label": "_payees",
        "offset": 0,
        "slot": "155",
        "type": "t_array(t_address)dyn_storage"
      },
      {
        "astId": 181,
        "contract": "contracts/ZeroXBlock.sol:ZeroXBlock",
        "label": "_erc20TotalReleased",
        "offset": 0,
        "slot": "156",
        "type": "t_mapping(t_contract(IERC20Upgradeable)1356,t_uint256)"
      },
      {
        "astId": 188,
        "contract": "contracts/ZeroXBlock.sol:ZeroXBlock",
        "label": "_erc20Released",
        "offset": 0,
        "slot": "157",
        "type": "t_mapping(t_contract(IERC20Upgradeable)1356,t_mapping(t_address,t_uint256))"
      },
      {
        "astId": 590,
        "contract": "contracts/ZeroXBlock.sol:ZeroXBlock",
        "label": "__gap",
        "offset": 0,
        "slot": "158",
        "type": "t_array(t_uint256)43_storage"
      },
      {
        "astId": 3107,
        "contract": "contracts/ZeroXBlock.sol:ZeroXBlock",
        "label": "_crm",
        "offset": 0,
        "slot": "201",
        "type": "t_contract(CONTRewardManagement)7459"
      },
      {
        "astId": 3110,
        "contract": "contracts/ZeroXBlock.sol:ZeroXBlock",
        "label": "uniswapV2Router",
        "offset": 0,
        "slot": "202",
        "type": "t_contract(IJoeRouter02)12283"
      },
      {
        "astId": 3115,
        "contract": "contracts/ZeroXBlock.sol:ZeroXBlock",
        "label": "ownedContsLimit",
        "offset": 0,
        "slot": "203",
        "type": "t_uint256"
      },
      {
        "astId": 3117,
        "contract": "contracts/ZeroXBlock.sol:ZeroXBlock",
        "label": "mintContLimit",
        "offset": 0,
        "slot": "204",
        "type": "t_uint256"
      },
      {
        "astId": 3119,
        "contract": "contracts/ZeroXBlock.sol:ZeroXBlock",
        "label": "uniswapV2Pair",
        "offset": 0,
        "slot": "205",
        "type": "t_address"
      },
      {
        "astId": 3121,
        "contract": "contracts/ZeroXBlock.sol:ZeroXBlock",
        "label": "totalTokensPaidForMinting",
        "offset": 0,
        "slot": "206",
        "type": "t_uint256"
      },
      {
        "astId": 3123,
        "contract": "contracts/ZeroXBlock.sol:ZeroXBlock",
        "label": "developmentFundPool",
        "offset": 0,
        "slot": "207",
        "type": "t_address"
      },
      {
        "astId": 3125,
        "contract": "contracts/ZeroXBlock.sol:ZeroXBlock",
        "label": "treasuryPool",
        "offset": 0,
        "slot": "208",
        "type": "t_address"
      },
      {
        "astId": 3127,
        "contract": "contracts/ZeroXBlock.sol:ZeroXBlock",
        "label": "rewardsPool",
        "offset": 0,
        "slot": "209",
        "type": "t_address"
      },
      {
        "astId": 3129,
        "contract": "contracts/ZeroXBlock.sol:ZeroXBlock",
        "label": "liquidityPool",
        "offset": 0,
        "slot": "210",
        "type": "t_address"
      },
      {
        "astId": 3131,
        "contract": "contracts/ZeroXBlock.sol:ZeroXBlock",
        "label": "rewardsFee",
        "offset": 0,
        "slot": "211",
        "type": "t_uint256"
      },
      {
        "astId": 3133,
        "contract": "contracts/ZeroXBlock.sol:ZeroXBlock",
        "label": "treasuryFee",
        "offset": 0,
        "slot": "212",
        "type": "t_uint256"
      },
      {
        "astId": 3135,
        "contract": "contracts/ZeroXBlock.sol:ZeroXBlock",
        "label": "liquidityPoolFee",
        "offset": 0,
        "slot": "213",
        "type": "t_uint256"
      },
      {
        "astId": 3137,
        "contract": "contracts/ZeroXBlock.sol:ZeroXBlock",
        "label": "developmentFee",
        "offset": 0,
        "slot": "214",
        "type": "t_uint256"
      },
      {
        "astId": 3139,
        "contract": "contracts/ZeroXBlock.sol:ZeroXBlock",
        "label": "totalFees",
        "offset": 0,
        "slot": "215",
        "type": "t_uint256"
      },
      {
        "astId": 3141,
        "contract": "contracts/ZeroXBlock.sol:ZeroXBlock",
        "label": "cashoutFee",
        "offset": 0,
        "slot": "216",
        "type": "t_uint256"
      },
      {
        "astId": 3143,
        "contract": "contracts/ZeroXBlock.sol:ZeroXBlock",
        "label": "enableAutoSwapTreasury",
        "offset": 0,
        "slot": "217",
        "type": "t_bool"
      },
      {
        "astId": 3145,
        "contract": "contracts/ZeroXBlock.sol:ZeroXBlock",
        "label": "enableAutoSwapDevFund",
        "offset": 1,
        "slot": "217",
        "type": "t_bool"
      },
      {
        "astId": 3147,
        "contract": "contracts/ZeroXBlock.sol:ZeroXBlock",
        "label": "usdcToken",
        "offset": 2,
        "slot": "217",
        "type": "t_address"
      },
      {
        "astId": 3149,
        "contract": "contracts/ZeroXBlock.sol:ZeroXBlock",
        "label": "antiBotEnabled",
        "offset": 22,
        "slot": "217",
        "type": "t_bool"
      },
      {
        "astId": 3151,
        "contract": "contracts/ZeroXBlock.sol:ZeroXBlock",
        "label": "launchBuyLimit",
        "offset": 0,
        "slot": "218",
        "type": "t_uint256"
      },
      {
        "astId": 3153,
        "contract": "contracts/ZeroXBlock.sol:ZeroXBlock",
        "label": "launchBuyTimeout",
        "offset": 0,
        "slot": "219",
        "type": "t_uint256"
      },
      {
        "astId": 3157,
        "contract": "contracts/ZeroXBlock.sol:ZeroXBlock",
        "label": "_lastBuyOnLaunch",
        "offset": 0,
        "slot": "220",
        "type": "t_mapping(t_address,t_uint256)"
      },
      {
        "astId": 3161,
        "contract": "contracts/ZeroXBlock.sol:ZeroXBlock",
        "label": "_isBlacklisted",
        "offset": 0,
        "slot": "221",
        "type": "t_mapping(t_address,t_bool)"
      },
      {
        "astId": 3165,
        "contract": "contracts/ZeroXBlock.sol:ZeroXBlock",
        "label": "automatedMarketMakerPairs",
        "offset": 0,
        "slot": "222",
        "type": "t_mapping(t_address,t_bool)"
      },
      {
        "astId": 3167,
        "contract": "contracts/ZeroXBlock.sol:ZeroXBlock",
        "label": "enableCashout",
        "offset": 0,
        "slot": "223",
        "type": "t_bool"
      },
      {
        "astId": 3169,
        "contract": "contracts/ZeroXBlock.sol:ZeroXBlock",
        "label": "enableMintConts",
        "offset": 1,
        "slot": "223",
        "type": "t_bool"
      },
      {
        "astId": 3171,
        "contract": "contracts/ZeroXBlock.sol:ZeroXBlock",
        "label": "cashoutTaxPool",
        "offset": 2,
        "slot": "223",
        "type": "t_address"
      },
      {
        "astId": 3174,
        "contract": "contracts/ZeroXBlock.sol:ZeroXBlock",
        "label": "_liqRouter",
        "offset": 0,
        "slot": "224",
        "type": "t_contract(LiquidityRouter)10518"
      },
      {
        "astId": 3176,
        "contract": "contracts/ZeroXBlock.sol:ZeroXBlock",
        "label": "enableAutoSwapCashout",
        "offset": 20,
        "slot": "224",
        "type": "t_bool"
      }
    ],
    "types": {
      "t_address": {
        "encoding": "inplace",
        "label": "address",
        "numberOfBytes": "20"
      },
      "t_array(t_address)dyn_storage": {
        "base": "t_address",
        "encoding": "dynamic_array",
        "label": "address[]",
        "numberOfBytes": "32"
      },
      "t_array(t_uint256)43_storage": {
        "base": "t_uint256",
        "encoding": "inplace",
        "label": "uint256[43]",
        "numberOfBytes": "1376"
      },
      "t_array(t_uint256)45_storage": {
        "base": "t_uint256",
        "encoding": "inplace",
        "label": "uint256[45]",
        "numberOfBytes": "1440"
      },
      "t_array(t_uint256)49_storage": {
        "base": "t_uint256",
        "encoding": "inplace",
        "label": "uint256[49]",
        "numberOfBytes": "1568"
      },
      "t_array(t_uint256)50_storage": {
        "base": "t_uint256",
        "encoding": "inplace",
        "label": "uint256[50]",
        "numberOfBytes": "1600"
      },
      "t_bool": {
        "encoding": "inplace",
        "label": "bool",
        "numberOfBytes": "1"
      },
      "t_contract(CONTRewardManagement)7459": {
        "encoding": "inplace",
        "label": "contract CONTRewardManagement",
        "numberOfBytes": "20"
      },
      "t_contract(IERC20Upgradeable)1356": {
        "encoding": "inplace",
        "label": "contract IERC20Upgradeable",
        "numberOfBytes": "20"
      },
      "t_contract(IJoeRouter02)12283": {
        "encoding": "inplace",
        "label": "contract IJoeRouter02",
        "numberOfBytes": "20"
      },
      "t_contract(LiquidityRouter)10518": {
        "encoding": "inplace",
        "label": "contract LiquidityRouter",
        "numberOfBytes": "20"
      },
      "t_mapping(t_address,t_bool)": {
        "encoding": "mapping",
        "key": "t_address",
        "label": "mapping(address => bool)",
        "numberOfBytes": "32",
        "value": "t_bool"
      },
      "t_mapping(t_address,t_mapping(t_address,t_uint256))": {
        "encoding": "mapping",
        "key": "t_address",
        "label": "mapping(address => mapping(address => uint256))",
        "numberOfBytes": "32",
        "value": "t_mapping(t_address,t_uint256)"
      },
      "t_mapping(t_address,t_uint256)": {
        "encoding": "mapping",
        "key": "t_address",
        "label": "mapping(address => uint256)",
        "numberOfBytes": "32",
        "value": "t_uint256"
      },
      "t_mapping(t_contract(IERC20Upgradeable)1356,t_mapping(t_address,t_uint256))": {
        "encoding": "mapping",
        "key": "t_contract(IERC20Upgradeable)1356",
        "label": "mapping(contract IERC20Upgradeable => mapping(address => uint256))",
        "numberOfBytes": "32",
        "value": "t_mapping(t_address,t_uint256)"
      },
      "t_mapping(t_contract(IERC20Upgradeable)1356,t_uint256)": {
        "encoding": "mapping",
        "key": "t_contract(IERC20Upgradeable)1356",
        "label": "mapping(contract IERC20Upgradeable => uint256)",
        "numberOfBytes": "32",
        "value": "t_uint256"
      },
      "t_string_storage": {
        "encoding": "bytes",
        "label": "string",
        "numberOfBytes": "32"
      },
      "t_uint256": {
        "encoding": "inplace",
        "label": "uint256",
        "numberOfBytes": "32"
      }
    }
  }
}