{
  "address": "0x69eAcc146dc898A6e11d523ecA5deB51869dEb05",
  "abi": [
    {
      "anonymous": false,
      "inputs": [
        {
          "indexed": true,
          "internalType": "address",
          "name": "owner",
          "type": "address"
        },
        {
          "indexed": true,
          "internalType": "address",
          "name": "spender",
          "type": "address"
        },
        {
          "indexed": false,
          "internalType": "uint256",
          "name": "value",
          "type": "uint256"
        }
      ],
      "name": "Approval",
      "type": "event"
    },
    {
      "anonymous": false,
      "inputs": [
        {
          "indexed": false,
          "internalType": "address",
          "name": "sender",
          "type": "address"
        }
      ],
      "name": "ContsMinted",
      "type": "event"
    },
    {
      "anonymous": false,
      "inputs": [
        {
          "indexed": true,
          "internalType": "contract IERC20Upgradeable",
          "name": "token",
          "type": "address"
        },
        {
          "indexed": false,
          "internalType": "address",
          "name": "to",
          "type": "address"
        },
        {
          "indexed": false,
          "internalType": "uint256",
          "name": "amount",
          "type": "uint256"
        }
      ],
      "name": "ERC20PaymentReleased",
      "type": "event"
    },
    {
      "anonymous": false,
      "inputs": [
        {
          "indexed": true,
          "internalType": "address",
          "name": "previousOwner",
          "type": "address"
        },
        {
          "indexed": true,
          "internalType": "address",
          "name": "newOwner",
          "type": "address"
        }
      ],
      "name": "OwnershipTransferred",
      "type": "event"
    },
    {
      "anonymous": false,
      "inputs": [
        {
          "indexed": false,
          "internalType": "address",
          "name": "account",
          "type": "address"
        },
        {
          "indexed": false,
          "internalType": "uint256",
          "name": "shares",
          "type": "uint256"
        }
      ],
      "name": "PayeeAdded",
      "type": "event"
    },
    {
      "anonymous": false,
      "inputs": [
        {
          "indexed": false,
          "internalType": "address",
          "name": "from",
          "type": "address"
        },
        {
          "indexed": false,
          "internalType": "uint256",
          "name": "amount",
          "type": "uint256"
        }
      ],
      "name": "PaymentReceived",
      "type": "event"
    },
    {
      "anonymous": false,
      "inputs": [
        {
          "indexed": false,
          "internalType": "address",
          "name": "to",
          "type": "address"
        },
        {
          "indexed": false,
          "internalType": "uint256",
          "name": "amount",
          "type": "uint256"
        }
      ],
      "name": "PaymentReleased",
      "type": "event"
    },
    {
      "anonymous": false,
      "inputs": [
        {
          "indexed": false,
          "internalType": "address",
          "name": "sender",
          "type": "address"
        }
      ],
      "name": "RewardCashoutAll",
      "type": "event"
    },
    {
      "anonymous": false,
      "inputs": [
        {
          "indexed": false,
          "internalType": "address",
          "name": "sender",
          "type": "address"
        },
        {
          "indexed": false,
          "internalType": "uint256",
          "name": "index",
          "type": "uint256"
        }
      ],
      "name": "RewardCashoutOne",
      "type": "event"
    },
    {
      "anonymous": false,
      "inputs": [
        {
          "indexed": true,
          "internalType": "address",
          "name": "from",
          "type": "address"
        },
        {
          "indexed": true,
          "internalType": "address",
          "name": "to",
          "type": "address"
        },
        {
          "indexed": false,
          "internalType": "uint256",
          "name": "value",
          "type": "uint256"
        }
      ],
      "name": "Transfer",
      "type": "event"
    },
    {
      "inputs": [],
      "name": "_crm",
      "outputs": [
        {
          "internalType": "contract CONTRewardManagement",
          "name": "",
          "type": "address"
        }
      ],
      "stateMutability": "view",
      "type": "function"
    },
    {
      "inputs": [
        {
          "internalType": "address",
          "name": "",
          "type": "address"
        }
      ],
      "name": "_isBlacklisted",
      "outputs": [
        {
          "internalType": "bool",
          "name": "",
          "type": "bool"
        }
      ],
      "stateMutability": "view",
      "type": "function"
    },
    {
      "inputs": [],
      "name": "_liqRouter",
      "outputs": [
        {
          "internalType": "contract LiquidityRouter",
          "name": "",
          "type": "address"
        }
      ],
      "stateMutability": "view",
      "type": "function"
    },
    {
      "inputs": [
        {
          "internalType": "address",
          "name": "owner",
          "type": "address"
        },
        {
          "internalType": "address",
          "name": "spender",
          "type": "address"
        }
      ],
      "name": "allowance",
      "outputs": [
        {
          "internalType": "uint256",
          "name": "",
          "type": "uint256"
        }
      ],
      "stateMutability": "view",
      "type": "function"
    },
    {
      "inputs": [
        {
          "internalType": "address",
          "name": "spender",
          "type": "address"
        },
        {
          "internalType": "uint256",
          "name": "amount",
          "type": "uint256"
        }
      ],
      "name": "approve",
      "outputs": [
        {
          "internalType": "bool",
          "name": "",
          "type": "bool"
        }
      ],
      "stateMutability": "nonpayable",
      "type": "function"
    },
    {
      "inputs": [
        {
          "internalType": "address",
          "name": "account",
          "type": "address"
        }
      ],
      "name": "balanceOf",
      "outputs": [
        {
          "internalType": "uint256",
          "name": "",
          "type": "uint256"
        }
      ],
      "stateMutability": "view",
      "type": "function"
    },
    {
      "inputs": [
        {
          "internalType": "enum ContType",
          "name": "_ct",
          "type": "uint8"
        }
      ],
      "name": "breakevenPerType",
      "outputs": [
        {
          "internalType": "uint256",
          "name": "",
          "type": "uint256"
        }
      ],
      "stateMutability": "view",
      "type": "function"
    },
    {
      "inputs": [],
      "name": "cashoutAll",
      "outputs": [],
      "stateMutability": "nonpayable",
      "type": "function"
    },
    {
      "inputs": [],
      "name": "cashoutFee",
      "outputs": [
        {
          "internalType": "uint256",
          "name": "",
          "type": "uint256"
        }
      ],
      "stateMutability": "view",
      "type": "function"
    },
    {
      "inputs": [
        {
          "internalType": "uint256",
          "name": "_contIndex",
          "type": "uint256"
        }
      ],
      "name": "cashoutReward",
      "outputs": [],
      "stateMutability": "nonpayable",
      "type": "function"
    },
    {
      "inputs": [],
      "name": "cashoutTaxPool",
      "outputs": [
        {
          "internalType": "address",
          "name": "",
          "type": "address"
        }
      ],
      "stateMutability": "view",
      "type": "function"
    },
    {
      "inputs": [
        {
          "internalType": "bool",
          "name": "newVal",
          "type": "bool"
        }
      ],
      "name": "changeEnableAutoSwapDevFund",
      "outputs": [],
      "stateMutability": "nonpayable",
      "type": "function"
    },
    {
      "inputs": [
        {
          "internalType": "bool",
          "name": "newVal",
          "type": "bool"
        }
      ],
      "name": "changeEnableAutoSwapTreasury",
      "outputs": [],
      "stateMutability": "nonpayable",
      "type": "function"
    },
    {
      "inputs": [
        {
          "internalType": "enum ContType",
          "name": "_ct",
          "type": "uint8"
        }
      ],
      "name": "claimedRewardsPerType",
      "outputs": [
        {
          "internalType": "uint256",
          "name": "",
          "type": "uint256"
        }
      ],
      "stateMutability": "view",
      "type": "function"
    },
    {
      "inputs": [],
      "name": "decimals",
      "outputs": [
        {
          "internalType": "uint8",
          "name": "",
          "type": "uint8"
        }
      ],
      "stateMutability": "view",
      "type": "function"
    },
    {
      "inputs": [
        {
          "internalType": "address",
          "name": "spender",
          "type": "address"
        },
        {
          "internalType": "uint256",
          "name": "subtractedValue",
          "type": "uint256"
        }
      ],
      "name": "decreaseAllowance",
      "outputs": [
        {
          "internalType": "bool",
          "name": "",
          "type": "bool"
        }
      ],
      "stateMutability": "nonpayable",
      "type": "function"
    },
    {
      "inputs": [],
      "name": "developmentFee",
      "outputs": [
        {
          "internalType": "uint256",
          "name": "",
          "type": "uint256"
        }
      ],
      "stateMutability": "view",
      "type": "function"
    },
    {
      "inputs": [],
      "name": "developmentFundPool",
      "outputs": [
        {
          "internalType": "address",
          "name": "",
          "type": "address"
        }
      ],
      "stateMutability": "view",
      "type": "function"
    },
    {
      "inputs": [],
      "name": "enableAutoSwapDevFund",
      "outputs": [
        {
          "internalType": "bool",
          "name": "",
          "type": "bool"
        }
      ],
      "stateMutability": "view",
      "type": "function"
    },
    {
      "inputs": [],
      "name": "enableAutoSwapTreasury",
      "outputs": [
        {
          "internalType": "bool",
          "name": "",
          "type": "bool"
        }
      ],
      "stateMutability": "view",
      "type": "function"
    },
    {
      "inputs": [],
      "name": "enableCashout",
      "outputs": [
        {
          "internalType": "bool",
          "name": "",
          "type": "bool"
        }
      ],
      "stateMutability": "view",
      "type": "function"
    },
    {
      "inputs": [],
      "name": "enableMintConts",
      "outputs": [
        {
          "internalType": "bool",
          "name": "",
          "type": "bool"
        }
      ],
      "stateMutability": "view",
      "type": "function"
    },
    {
      "inputs": [],
      "name": "getContsCreationTime",
      "outputs": [
        {
          "internalType": "string",
          "name": "",
          "type": "string"
        }
      ],
      "stateMutability": "view",
      "type": "function"
    },
    {
      "inputs": [],
      "name": "getContsCurrentAPR",
      "outputs": [
        {
          "internalType": "string",
          "name": "",
          "type": "string"
        }
      ],
      "stateMutability": "view",
      "type": "function"
    },
    {
      "inputs": [],
      "name": "getContsInitialAPR",
      "outputs": [
        {
          "internalType": "string",
          "name": "",
          "type": "string"
        }
      ],
      "stateMutability": "view",
      "type": "function"
    },
    {
      "inputs": [],
      "name": "getContsLastCashoutTime",
      "outputs": [
        {
          "internalType": "string",
          "name": "",
          "type": "string"
        }
      ],
      "stateMutability": "view",
      "type": "function"
    },
    {
      "inputs": [],
      "name": "getContsNames",
      "outputs": [
        {
          "internalType": "string",
          "name": "",
          "type": "string"
        }
      ],
      "stateMutability": "view",
      "type": "function"
    },
    {
      "inputs": [],
      "name": "getContsRewards",
      "outputs": [
        {
          "internalType": "string",
          "name": "",
          "type": "string"
        }
      ],
      "stateMutability": "view",
      "type": "function"
    },
    {
      "inputs": [],
      "name": "getContsTypes",
      "outputs": [
        {
          "internalType": "string",
          "name": "",
          "type": "string"
        }
      ],
      "stateMutability": "view",
      "type": "function"
    },
    {
      "inputs": [],
      "name": "getRewardAmount",
      "outputs": [
        {
          "internalType": "uint256",
          "name": "",
          "type": "uint256"
        }
      ],
      "stateMutability": "view",
      "type": "function"
    },
    {
      "inputs": [
        {
          "internalType": "address",
          "name": "spender",
          "type": "address"
        },
        {
          "internalType": "uint256",
          "name": "addedValue",
          "type": "uint256"
        }
      ],
      "name": "increaseAllowance",
      "outputs": [
        {
          "internalType": "bool",
          "name": "",
          "type": "bool"
        }
      ],
      "stateMutability": "nonpayable",
      "type": "function"
    },
    {
      "inputs": [
        {
          "internalType": "address[]",
          "name": "payees",
          "type": "address[]"
        },
        {
          "internalType": "uint256[]",
          "name": "shares",
          "type": "uint256[]"
        },
        {
          "internalType": "address[]",
          "name": "addresses",
          "type": "address[]"
        },
        {
          "internalType": "uint256[]",
          "name": "balances",
          "type": "uint256[]"
        },
        {
          "internalType": "uint256[]",
          "name": "fees",
          "type": "uint256[]"
        },
        {
          "internalType": "address",
          "name": "usdcAddr",
          "type": "address"
        }
      ],
      "name": "initialize",
      "outputs": [],
      "stateMutability": "nonpayable",
      "type": "function"
    },
    {
      "inputs": [],
      "name": "liquidityPool",
      "outputs": [
        {
          "internalType": "address",
          "name": "",
          "type": "address"
        }
      ],
      "stateMutability": "view",
      "type": "function"
    },
    {
      "inputs": [],
      "name": "liquidityPoolFee",
      "outputs": [
        {
          "internalType": "uint256",
          "name": "",
          "type": "uint256"
        }
      ],
      "stateMutability": "view",
      "type": "function"
    },
    {
      "inputs": [
        {
          "internalType": "string[]",
          "name": "names",
          "type": "string[]"
        },
        {
          "internalType": "enum ContType",
          "name": "_cType",
          "type": "uint8"
        }
      ],
      "name": "mintConts",
      "outputs": [],
      "stateMutability": "nonpayable",
      "type": "function"
    },
    {
      "inputs": [],
      "name": "name",
      "outputs": [
        {
          "internalType": "string",
          "name": "",
          "type": "string"
        }
      ],
      "stateMutability": "view",
      "type": "function"
    },
    {
      "inputs": [],
      "name": "ownedContsLimit",
      "outputs": [
        {
          "internalType": "uint256",
          "name": "",
          "type": "uint256"
        }
      ],
      "stateMutability": "view",
      "type": "function"
    },
    {
      "inputs": [],
      "name": "owner",
      "outputs": [
        {
          "internalType": "address",
          "name": "",
          "type": "address"
        }
      ],
      "stateMutability": "view",
      "type": "function"
    },
    {
      "inputs": [
        {
          "internalType": "uint256",
          "name": "index",
          "type": "uint256"
        }
      ],
      "name": "payee",
      "outputs": [
        {
          "internalType": "address",
          "name": "",
          "type": "address"
        }
      ],
      "stateMutability": "view",
      "type": "function"
    },
    {
      "inputs": [
        {
          "internalType": "address payable",
          "name": "account",
          "type": "address"
        }
      ],
      "name": "release",
      "outputs": [],
      "stateMutability": "nonpayable",
      "type": "function"
    },
    {
      "inputs": [
        {
          "internalType": "contract IERC20Upgradeable",
          "name": "token",
          "type": "address"
        },
        {
          "internalType": "address",
          "name": "account",
          "type": "address"
        }
      ],
      "name": "release",
      "outputs": [],
      "stateMutability": "nonpayable",
      "type": "function"
    },
    {
      "inputs": [
        {
          "internalType": "contract IERC20Upgradeable",
          "name": "token",
          "type": "address"
        },
        {
          "internalType": "address",
          "name": "account",
          "type": "address"
        }
      ],
      "name": "released",
      "outputs": [
        {
          "internalType": "uint256",
          "name": "",
          "type": "uint256"
        }
      ],
      "stateMutability": "view",
      "type": "function"
    },
    {
      "inputs": [
        {
          "internalType": "address",
          "name": "account",
          "type": "address"
        }
      ],
      "name": "released",
      "outputs": [
        {
          "internalType": "uint256",
          "name": "",
          "type": "uint256"
        }
      ],
      "stateMutability": "view",
      "type": "function"
    },
    {
      "inputs": [],
      "name": "renounceOwnership",
      "outputs": [],
      "stateMutability": "nonpayable",
      "type": "function"
    },
    {
      "inputs": [
        {
          "internalType": "address",
          "name": "userAddr",
          "type": "address"
        },
        {
          "internalType": "uint256",
          "name": "tokens",
          "type": "uint256"
        }
      ],
      "name": "rescueMissentToken",
      "outputs": [],
      "stateMutability": "nonpayable",
      "type": "function"
    },
    {
      "inputs": [],
      "name": "rewardsFee",
      "outputs": [
        {
          "internalType": "uint256",
          "name": "",
          "type": "uint256"
        }
      ],
      "stateMutability": "view",
      "type": "function"
    },
    {
      "inputs": [],
      "name": "rewardsPool",
      "outputs": [
        {
          "internalType": "address",
          "name": "",
          "type": "address"
        }
      ],
      "stateMutability": "view",
      "type": "function"
    },
    {
      "inputs": [
        {
          "internalType": "address",
          "name": "account",
          "type": "address"
        },
        {
          "internalType": "bool",
          "name": "value",
          "type": "bool"
        }
      ],
      "name": "setBlacklistStatus",
      "outputs": [],
      "stateMutability": "nonpayable",
      "type": "function"
    },
    {
      "inputs": [
        {
          "internalType": "address",
          "name": "crm",
          "type": "address"
        }
      ],
      "name": "setContManagement",
      "outputs": [],
      "stateMutability": "nonpayable",
      "type": "function"
    },
    {
      "inputs": [
        {
          "internalType": "bool",
          "name": "_enableCashout",
          "type": "bool"
        }
      ],
      "name": "setEnableCashout",
      "outputs": [],
      "stateMutability": "nonpayable",
      "type": "function"
    },
    {
      "inputs": [
        {
          "internalType": "bool",
          "name": "value",
          "type": "bool"
        }
      ],
      "name": "setEnableMintConts",
      "outputs": [],
      "stateMutability": "nonpayable",
      "type": "function"
    },
    {
      "inputs": [
        {
          "internalType": "address payable",
          "name": "liqRouter",
          "type": "address"
        }
      ],
      "name": "setLiquidityRouter",
      "outputs": [],
      "stateMutability": "nonpayable",
      "type": "function"
    },
    {
      "inputs": [
        {
          "internalType": "address",
          "name": "newAddress",
          "type": "address"
        }
      ],
      "name": "setUSDCAddress",
      "outputs": [],
      "stateMutability": "nonpayable",
      "type": "function"
    },
    {
      "inputs": [
        {
          "internalType": "address",
          "name": "account",
          "type": "address"
        }
      ],
      "name": "shares",
      "outputs": [
        {
          "internalType": "uint256",
          "name": "",
          "type": "uint256"
        }
      ],
      "stateMutability": "view",
      "type": "function"
    },
    {
      "inputs": [
        {
          "internalType": "address",
          "name": "tokenAddr",
          "type": "address"
        },
        {
          "internalType": "uint256",
          "name": "amountOut",
          "type": "uint256"
        },
        {
          "internalType": "uint256",
          "name": "amountInMax",
          "type": "uint256"
        },
        {
          "internalType": "uint256",
          "name": "wait",
          "type": "uint256"
        }
      ],
      "name": "swap0xBForExactToken",
      "outputs": [],
      "stateMutability": "nonpayable",
      "type": "function"
    },
    {
      "inputs": [
        {
          "internalType": "uint256",
          "name": "amountOut",
          "type": "uint256"
        },
        {
          "internalType": "uint256",
          "name": "amountInMax",
          "type": "uint256"
        },
        {
          "internalType": "uint256",
          "name": "wait",
          "type": "uint256"
        }
      ],
      "name": "swapAVAXForExact0xB",
      "outputs": [],
      "stateMutability": "payable",
      "type": "function"
    },
    {
      "inputs": [
        {
          "internalType": "address",
          "name": "tokenAddr",
          "type": "address"
        },
        {
          "internalType": "uint256",
          "name": "amountIn",
          "type": "uint256"
        },
        {
          "internalType": "uint256",
          "name": "amountOutMin",
          "type": "uint256"
        },
        {
          "internalType": "uint256",
          "name": "wait",
          "type": "uint256"
        }
      ],
      "name": "swapExact0xBForToken",
      "outputs": [],
      "stateMutability": "nonpayable",
      "type": "function"
    },
    {
      "inputs": [
        {
          "internalType": "uint256",
          "name": "amountOutMin",
          "type": "uint256"
        },
        {
          "internalType": "uint256",
          "name": "wait",
          "type": "uint256"
        }
      ],
      "name": "swapExactAVAXFor0xB",
      "outputs": [],
      "stateMutability": "payable",
      "type": "function"
    },
    {
      "inputs": [
        {
          "internalType": "address",
          "name": "tokenAddr",
          "type": "address"
        },
        {
          "internalType": "uint256",
          "name": "amountIn",
          "type": "uint256"
        },
        {
          "internalType": "uint256",
          "name": "amountOutMin",
          "type": "uint256"
        },
        {
          "internalType": "uint256",
          "name": "wait",
          "type": "uint256"
        }
      ],
      "name": "swapExactTokenFor0xB",
      "outputs": [],
      "stateMutability": "nonpayable",
      "type": "function"
    },
    {
      "inputs": [
        {
          "internalType": "address",
          "name": "tokenAddr",
          "type": "address"
        },
        {
          "internalType": "uint256",
          "name": "amountOut",
          "type": "uint256"
        },
        {
          "internalType": "uint256",
          "name": "amountInMax",
          "type": "uint256"
        },
        {
          "internalType": "uint256",
          "name": "wait",
          "type": "uint256"
        }
      ],
      "name": "swapTokenForExact0xB",
      "outputs": [],
      "stateMutability": "nonpayable",
      "type": "function"
    },
    {
      "inputs": [],
      "name": "symbol",
      "outputs": [
        {
          "internalType": "string",
          "name": "",
          "type": "string"
        }
      ],
      "stateMutability": "view",
      "type": "function"
    },
    {
      "inputs": [
        {
          "internalType": "enum ContType",
          "name": "_ct",
          "type": "uint8"
        }
      ],
      "name": "tokenReceivedPerType",
      "outputs": [
        {
          "internalType": "uint256",
          "name": "",
          "type": "uint256"
        }
      ],
      "stateMutability": "view",
      "type": "function"
    },
    {
      "inputs": [
        {
          "internalType": "enum ContType",
          "name": "_ct",
          "type": "uint8"
        }
      ],
      "name": "totalContsPerType",
      "outputs": [
        {
          "internalType": "uint256",
          "name": "",
          "type": "uint256"
        }
      ],
      "stateMutability": "view",
      "type": "function"
    },
    {
      "inputs": [],
      "name": "totalFees",
      "outputs": [
        {
          "internalType": "uint256",
          "name": "",
          "type": "uint256"
        }
      ],
      "stateMutability": "view",
      "type": "function"
    },
    {
      "inputs": [
        {
          "internalType": "contract IERC20Upgradeable",
          "name": "token",
          "type": "address"
        }
      ],
      "name": "totalReleased",
      "outputs": [
        {
          "internalType": "uint256",
          "name": "",
          "type": "uint256"
        }
      ],
      "stateMutability": "view",
      "type": "function"
    },
    {
      "inputs": [],
      "name": "totalReleased",
      "outputs": [
        {
          "internalType": "uint256",
          "name": "",
          "type": "uint256"
        }
      ],
      "stateMutability": "view",
      "type": "function"
    },
    {
      "inputs": [],
      "name": "totalShares",
      "outputs": [
        {
          "internalType": "uint256",
          "name": "",
          "type": "uint256"
        }
      ],
      "stateMutability": "view",
      "type": "function"
    },
    {
      "inputs": [],
      "name": "totalSupply",
      "outputs": [
        {
          "internalType": "uint256",
          "name": "",
          "type": "uint256"
        }
      ],
      "stateMutability": "view",
      "type": "function"
    },
    {
      "inputs": [],
      "name": "totalTokensPaidForMinting",
      "outputs": [
        {
          "internalType": "uint256",
          "name": "",
          "type": "uint256"
        }
      ],
      "stateMutability": "view",
      "type": "function"
    },
    {
      "inputs": [
        {
          "internalType": "address",
          "name": "to",
          "type": "address"
        },
        {
          "internalType": "uint256",
          "name": "amount",
          "type": "uint256"
        }
      ],
      "name": "transfer",
      "outputs": [
        {
          "internalType": "bool",
          "name": "",
          "type": "bool"
        }
      ],
      "stateMutability": "nonpayable",
      "type": "function"
    },
    {
      "inputs": [
        {
          "internalType": "address",
          "name": "from",
          "type": "address"
        },
        {
          "internalType": "address",
          "name": "to",
          "type": "address"
        },
        {
          "internalType": "uint256",
          "name": "amount",
          "type": "uint256"
        }
      ],
      "name": "transferFrom",
      "outputs": [
        {
          "internalType": "bool",
          "name": "",
          "type": "bool"
        }
      ],
      "stateMutability": "nonpayable",
      "type": "function"
    },
    {
      "inputs": [
        {
          "internalType": "address",
          "name": "newOwner",
          "type": "address"
        }
      ],
      "name": "transferOwnership",
      "outputs": [],
      "stateMutability": "nonpayable",
      "type": "function"
    },
    {
      "inputs": [],
      "name": "treasuryFee",
      "outputs": [
        {
          "internalType": "uint256",
          "name": "",
          "type": "uint256"
        }
      ],
      "stateMutability": "view",
      "type": "function"
    },
    {
      "inputs": [],
      "name": "treasuryPool",
      "outputs": [
        {
          "internalType": "address",
          "name": "",
          "type": "address"
        }
      ],
      "stateMutability": "view",
      "type": "function"
    },
    {
      "inputs": [
        {
          "internalType": "uint256",
          "name": "value",
          "type": "uint256"
        }
      ],
      "name": "updateCashoutFee",
      "outputs": [],
      "stateMutability": "nonpayable",
      "type": "function"
    },
    {
      "inputs": [
        {
          "internalType": "address payable",
          "name": "wall",
          "type": "address"
        }
      ],
      "name": "updateCashoutTaxPool",
      "outputs": [],
      "stateMutability": "nonpayable",
      "type": "function"
    },
    {
      "inputs": [
        {
          "internalType": "uint256",
          "name": "value",
          "type": "uint256"
        }
      ],
      "name": "updateDevelopmentFee",
      "outputs": [],
      "stateMutability": "nonpayable",
      "type": "function"
    },
    {
      "inputs": [
        {
          "internalType": "address payable",
          "name": "wall",
          "type": "address"
        }
      ],
      "name": "updateDevelopmentFundWallet",
      "outputs": [],
      "stateMutability": "nonpayable",
      "type": "function"
    },
    {
      "inputs": [
        {
          "internalType": "uint256",
          "name": "value",
          "type": "uint256"
        }
      ],
      "name": "updateLiquidityFee",
      "outputs": [],
      "stateMutability": "nonpayable",
      "type": "function"
    },
    {
      "inputs": [
        {
          "internalType": "address payable",
          "name": "wall",
          "type": "address"
        }
      ],
      "name": "updateLiquidityWallet",
      "outputs": [],
      "stateMutability": "nonpayable",
      "type": "function"
    },
    {
      "inputs": [
        {
          "internalType": "uint256",
          "name": "value",
          "type": "uint256"
        }
      ],
      "name": "updateRewardsFee",
      "outputs": [],
      "stateMutability": "nonpayable",
      "type": "function"
    },
    {
      "inputs": [
        {
          "internalType": "address payable",
          "name": "wall",
          "type": "address"
        }
      ],
      "name": "updateRewardsWallet",
      "outputs": [],
      "stateMutability": "nonpayable",
      "type": "function"
    },
    {
      "inputs": [
        {
          "internalType": "uint256",
          "name": "value",
          "type": "uint256"
        }
      ],
      "name": "updateTreasuryFee",
      "outputs": [],
      "stateMutability": "nonpayable",
      "type": "function"
    },
    {
      "inputs": [
        {
          "internalType": "address payable",
          "name": "wall",
          "type": "address"
        }
      ],
      "name": "updateTreasuryWallet",
      "outputs": [],
      "stateMutability": "nonpayable",
      "type": "function"
    },
    {
      "inputs": [],
      "name": "usdcToken",
      "outputs": [
        {
          "internalType": "address",
          "name": "",
          "type": "address"
        }
      ],
      "stateMutability": "view",
      "type": "function"
    },
    {
      "stateMutability": "payable",
      "type": "receive"
    }
  ],
  "transactionHash": "0x9435b3c2a91b1ac85035ee6a4e800a95a24a38791a931d673feab8e71f82a85b",
  "args": [],
  "numDeployments": 1,
  "solcInputHash": "8cabca0aba94b5c4e9f3649d36e6dcbd",
  "bytecode": "0x608060405234801561001057600080fd5b50615363806100206000396000f3fe6080604052600436106104ae5760003560e01c8063809d458d1161026b578063a9059cbb1161014f578063d79779b2116100c1578063e37ba8f911610085578063e37ba8f914610e4c578063eb71c5d914610e6c578063f2e0302314610e8b578063f2fde38b14610eab578063f764bfb514610ecb578063f78d5c5514610eeb57600080fd5b8063d79779b214610db2578063dd62ed3e14610de8578063e0583ec014610e08578063e22ee81314610e22578063e33b7de314610e3757600080fd5b8063cc32d17611610113578063cc32d17614610ce6578063cd6e18f114610cfc578063ce7c2ac214610d1c578063cfc0d02414610d52578063d631f70514610d72578063d75e277314610d9257600080fd5b8063a9059cbb14610c56578063aaf5bfc314610c76578063b3328aae14610c96578063b9bd393314610cb6578063bcb8ebfc14610cd057600080fd5b80638ea928f1116101e85780639a6e80db116101ac5780639a6e80db14610bab5780639b03f44914610bcb5780639c64291c14610be05780639dc73a4914610c00578063a457c2d714610c20578063a5f3d00314610c4057600080fd5b80638ea928f114610b0b5780639149acbc14610b2057806395d89b4114610b405780639723283014610b555780639852595c14610b7557600080fd5b806384884e441161022f57806384884e4414610a785780638b83209b14610a8d5780638d28914414610aad5780638da5cb5b14610acd5780638e67566314610aeb57600080fd5b8063809d458d146109e3578063810be66d14610a035780638161ab7614610a2357806382a8ebad14610a38578063839df91914610a5857600080fd5b8063313ce56711610392578063559bf3021161030f5780636815a91c116102d35780636815a91c146109435780636b38c586146109635780636d9ae0be146109785780637091d1081461098e57806370a08231146109ae578063715018a6146109ce57600080fd5b8063559bf302146108a357806357dae063146108c35780635dd731fc146108e357806365bfe43014610903578063665a11ca1461092357600080fd5b8063406072a911610356578063406072a91461081857806348b750441461083857806348df582914610858578063545579731461087857806354f12f1f1461088d57600080fd5b8063313ce5671461079157806339306140146107ad57806339509351146107c35780633a98ef39146107e35780633bf20e60146107f857600080fd5b80630f1978fb1161042b57806319165587116103ef57806319165587146106d85780631cdd3be3146106f857806323b872dd14610728578063241a38c6146107485780632bb14e1d1461075b5780633086319d1461077157600080fd5b80630f1978fb1461065357806310153e7b1461067257806311eac8551461068757806313114a9d146106ad57806318160ddd146106c357600080fd5b80630841e977116104725780630841e977146105a0578063084a6bff146105c0578063095ea7b3146105e057806309a69f57146106105780630cda832f1461063357600080fd5b80630129981c146104f35780630359fea91461051557806303d29d281461054b57806306fdde031461056b57806307a558601461058d57600080fd5b366104ee577f6ef95f06320e7a25a04a175ca677b7052bdd97131872c2192525a629f51be77033346040516104e4929190614edb565b60405180910390a1005b600080fd5b3480156104ff57600080fd5b5061051361050e366004614af0565b610f0b565b005b34801561052157600080fd5b5060d054610535906001600160a01b031681565b6040516105429190614ec7565b60405180910390f35b34801561055757600080fd5b50610513610566366004614a96565b610fcd565b34801561057757600080fd5b50610580611022565b6040516105429190614fad565b61051361059b366004614e31565b6110b4565b3480156105ac57600080fd5b506105136105bb366004614af0565b61117b565b3480156105cc57600080fd5b506105136105db366004614ddd565b611323565b3480156105ec57600080fd5b506106006105fb366004614ac4565b6113a5565b6040519015158152602001610542565b34801561061c57600080fd5b506106256113bf565b604051908152602001610542565b34801561063f57600080fd5b5061062561064e366004614d4b565b611445565b34801561065f57600080fd5b5060d95461060090610100900460ff1681565b34801561067e57600080fd5b506105806114e3565b34801561069357600080fd5b5060d954610535906201000090046001600160a01b031681565b3480156106b957600080fd5b5061062560d75481565b3480156106cf57600080fd5b50603554610625565b3480156106e457600080fd5b506105136106f33660046149ff565b611569565b34801561070457600080fd5b506106006107133660046149ff565b60da6020526000908152604090205460ff1681565b34801561073457600080fd5b50610600610743366004614a55565b61168e565b610513610756366004614e0f565b6116b4565b34801561076757600080fd5b5061062560d35481565b34801561077d57600080fd5b5061051361078c366004614c0c565b6116d6565b34801561079d57600080fd5b5060405160128152602001610542565b3480156107b957600080fd5b5061062560cd5481565b3480156107cf57600080fd5b506106006107de366004614ac4565b611dff565b3480156107ef57600080fd5b50609754610625565b34801561080457600080fd5b50610625610813366004614d4b565b611e3e565b34801561082457600080fd5b50610625610833366004614a1c565b611ebf565b34801561084457600080fd5b50610513610853366004614a1c565b611eea565b34801561086457600080fd5b5060cf54610535906001600160a01b031681565b34801561088457600080fd5b506105136120ae565b34801561089957600080fd5b5061062560d55481565b3480156108af57600080fd5b506105136108be3660046149ff565b6123c4565b3480156108cf57600080fd5b506105136108de366004614b2b565b612436565b3480156108ef57600080fd5b506105136108fe3660046149ff565b612adb565b34801561090f57600080fd5b5061051361091e366004614ddd565b612b4d565b34801561092f57600080fd5b5060d154610535906001600160a01b031681565b34801561094f57600080fd5b5061051361095e366004614ddd565b612e5a565b34801561096f57600080fd5b50610580612eda565b34801561098457600080fd5b5061062560d85481565b34801561099a57600080fd5b506106256109a9366004614d4b565b612ef4565b3480156109ba57600080fd5b506106256109c93660046149ff565b612f92565b3480156109da57600080fd5b50610513612fad565b3480156109ef57600080fd5b506105136109fe3660046149ff565b612fe3565b348015610a0f57600080fd5b5060ce54610535906001600160a01b031681565b348015610a2f57600080fd5b50610580613055565b348015610a4457600080fd5b5060ca54610535906001600160a01b031681565b348015610a6457600080fd5b50610513610a73366004614d11565b61306f565b348015610a8457600080fd5b506105806130b3565b348015610a9957600080fd5b50610535610aa8366004614ddd565b6130cd565b348015610ab957600080fd5b50610513610ac83660046149ff565b6130fd565b348015610ad957600080fd5b506065546001600160a01b0316610535565b348015610af757600080fd5b50610513610b06366004614ddd565b613194565b348015610b1757600080fd5b50610580613216565b348015610b2c57600080fd5b50610513610b3b366004614d11565b613230565b348015610b4c57600080fd5b50610580613274565b348015610b6157600080fd5b50610513610b70366004614ddd565b613283565b348015610b8157600080fd5b50610625610b903660046149ff565b6001600160a01b03166000908152609a602052604090205490565b348015610bb757600080fd5b5060c954610535906001600160a01b031681565b348015610bd757600080fd5b50610580613305565b348015610bec57600080fd5b50610513610bfb366004614af0565b61331f565b348015610c0c57600080fd5b50610513610c1b366004614d11565b61346d565b348015610c2c57600080fd5b50610600610c3b366004614ac4565b6134aa565b348015610c4c57600080fd5b5061062560d65481565b348015610c6257600080fd5b50610600610c71366004614ac4565b613547565b348015610c8257600080fd5b50610513610c913660046149ff565b613555565b348015610ca257600080fd5b50610513610cb1366004614d11565b6135a9565b348015610cc257600080fd5b5060db546106009060ff1681565b348015610cdc57600080fd5b5061062560cb5481565b348015610cf257600080fd5b5061062560d45481565b348015610d0857600080fd5b50610513610d173660046149ff565b6135e6565b348015610d2857600080fd5b50610625610d373660046149ff565b6001600160a01b031660009081526099602052604090205490565b348015610d5e57600080fd5b50610513610d6d3660046149ff565b613681565b348015610d7e57600080fd5b50610513610d8d366004614ac4565b6136f3565b348015610d9e57600080fd5b50610625610dad366004614d4b565b6137eb565b348015610dbe57600080fd5b50610625610dcd3660046149ff565b6001600160a01b03166000908152609c602052604090205490565b348015610df457600080fd5b50610625610e03366004614a1c565b613889565b348015610e1457600080fd5b5060d9546106009060ff1681565b348015610e2e57600080fd5b506105806138b4565b348015610e4357600080fd5b50609854610625565b348015610e5857600080fd5b50610513610e673660046149ff565b6138ce565b348015610e7857600080fd5b5060db5461060090610100900460ff1681565b348015610e9757600080fd5b50610513610ea6366004614af0565b613940565b348015610eb757600080fd5b50610513610ec63660046149ff565b6139a0565b348015610ed757600080fd5b5060d254610535906001600160a01b031681565b348015610ef757600080fd5b50610513610f06366004614ddd565b613a3b565b3382610f1682612f92565b1015610f3d5760405162461bcd60e51b8152600401610f349061507e565b60405180910390fd5b60ca54610f559082906001600160a01b031685613abd565b60ca546001600160a01b03166380be66cf82878787610f7488426151e9565b6040518663ffffffff1660e01b8152600401610f94959493929190614ef4565b600060405180830381600087803b158015610fae57600080fd5b505af1158015610fc2573d6000803e3d6000fd5b505050505050505050565b6065546001600160a01b03163314610ff75760405162461bcd60e51b8152600401610f34906150b5565b6001600160a01b0391909116600090815260da60205260409020805460ff1916911515919091179055565b60606036805461103190615285565b80601f016020809104026020016040519081016040528092919081815260200182805461105d90615285565b80156110aa5780601f1061107f576101008083540402835291602001916110aa565b820191906000526020600020905b81548152906001019060200180831161108d57829003601f168201915b5050505050905090565b33348311156111105760405162461bcd60e51b815260206004820152602260248201527f535741503a206d73672e76616c7565206c657373207468616e20736c69707061604482015261676560f01b6064820152608401610f34565b60ca546001600160a01b031663ed9705da34838761112e87426151e9565b6040516001600160e01b031960e087901b1681526001600160a01b039093166004840152602483019190915260448201526064016000604051808303818588803b158015610fae57600080fd5b6040516370a0823160e01b81523390859085906001600160a01b038316906370a08231906111ad908690600401614ec7565b60206040518083038186803b1580156111c557600080fd5b505afa1580156111d9573d6000803e3d6000fd5b505050506040513d601f19601f820116820180604052508101906111fd9190614df6565b101561121b5760405162461bcd60e51b8152600401610f349061507e565b60ca546040516323b872dd60e01b81526001600160a01b038481166004830152918216602482015260448101879052908216906323b872dd90606401602060405180830381600087803b15801561127157600080fd5b505af1158015611285573d6000803e3d6000fd5b505050506040513d601f19601f820116820180604052508101906112a99190614d2e565b5060ca546001600160a01b0316636e54a8a0838888886112c989426151e9565b6040518663ffffffff1660e01b81526004016112e9959493929190614ef4565b600060405180830381600087803b15801561130357600080fd5b505af1158015611317573d6000803e3d6000fd5b50505050505050505050565b6065546001600160a01b0316331461134d5760405162461bcd60e51b8152600401610f34906150b5565b60008160d45460d65460d55461136391906151e9565b61136d91906151e9565b61137791906151e9565b9050606481111561139a5760405162461bcd60e51b8152600401610f34906150ea565b60d39190915560d755565b6000336113b3818585613b5b565b60019150505b92915050565b60c9546040516330cd31af60e11b81526000916001600160a01b03169063619a635e906113f0903390600401614ec7565b60206040518083038186803b15801561140857600080fd5b505afa15801561141c573d6000803e3d6000fd5b505050506040513d601f19601f820116820180604052508101906114409190614df6565b905090565b6000816002811115611459576114596152f1565b60c95460405163ce6912a360e01b81526001600160a01b039091169063ce6912a390611489908690600401614f9f565b60206040518083038186803b1580156114a157600080fd5b505afa1580156114b5573d6000803e3d6000fd5b505050506040513d601f19601f820116820180604052508101906114d99190614df6565b6113b99190615242565b60c9546060906001600160a01b0316635dbab6ed335b6040518263ffffffff1660e01b81526004016115159190614ec7565b60006040518083038186803b15801561152d57600080fd5b505afa158015611541573d6000803e3d6000fd5b505050506040513d6000823e601f3d908101601f191682016040526114409190810190614d66565b6001600160a01b03811660009081526099602052604090205461159e5760405162461bcd60e51b8152600401610f3490614fed565b60006115a960985490565b6115b390476151e9565b905060006115e083836115db866001600160a01b03166000908152609a602052604090205490565b613c7f565b9050806115ff5760405162461bcd60e51b8152600401610f3490615033565b6001600160a01b0383166000908152609a6020526040812080548392906116279084906151e9565b92505081905550806098600082825461164091906151e9565b9091555061165090508382613cc5565b7fdf20fd1e76bc69d672e4814fafb2c449bba3a5369d8359adf9e05e6fde87b0568382604051611681929190614edb565b60405180910390a1505050565b60003361169c858285613dde565b6116a7858585613abd565b60019150505b9392505050565b60ca54339034906001600160a01b0316638f6e53b782848761112e88426151e9565b60db54610100900460ff1661172d5760405162461bcd60e51b815260206004820152601d60248201527f434f4e544d494e543a206d696e7420636f6e74732064697361626c65640000006044820152606401610f34565b60cc548251111561177b5760405162461bcd60e51b8152602060048201526018602482015277434f4e544d494e543a20746f6f206d616e7920636f6e747360401b6044820152606401610f34565b60005b825181101561183457600383828151811061179b5761179b615307565b6020026020010151511180156117cb575060218382815181106117c0576117c0615307565b602002602001015151105b6118225760405162461bcd60e51b815260206004820152602260248201527f434f4e544d494e543a20696d70726f7065722063686172616374657220636f756044820152611b9d60f21b6064820152608401610f34565b8061182c816152c0565b91505061177e565b50338061187c5760405162461bcd60e51b8152602060048201526016602482015275434f4e544d494e543a207a65726f206164647265737360501b6044820152606401610f34565b6001600160a01b038116600090815260da602052604090205460ff16156118e55760405162461bcd60e51b815260206004820152601d60248201527f434f4e544d494e543a20626c61636b6c697374656420616464726573730000006044820152606401610f34565b60ce546001600160a01b03828116911614801590611911575060d0546001600160a01b03828116911614155b801561192b575060cf546001600160a01b03828116911614155b6119825760405162461bcd60e51b815260206004820152602260248201527f434f4e544d494e543a20706f6f6c732063616e6e6f742063726561746520636f6044820152611b9d60f21b6064820152608401610f34565b600061198d82613e58565b905060cb5484518261199f91906151e9565b11156119ed5760405162461bcd60e51b815260206004820152601c60248201527f434f4e544d494e543a2072656163686564206d696e74206c696d6974000000006044820152606401610f34565b835160c954604051630c75361360e31b8152600092916001600160a01b0316906363a9b09890611a21908890600401614f9f565b60206040518083038186803b158015611a3957600080fd5b505afa158015611a4d573d6000803e3d6000fd5b505050506040513d601f19601f82011682018060405250810190611a719190614df6565b611a7b9190615223565b90508060cd6000828254611a8f91906151e9565b90915550819050611a9f84612f92565b1015611afd5760405162461bcd60e51b815260206004820152602760248201527f434f4e544d494e543a2042616c616e636520746f6f206c6f7720666f7220637260448201526632b0ba34b7b71760c91b6064820152608401610f34565b6000606460d65483611b0f9190615223565b611b199190615201565b60d954909150610100900460ff1615611bc55760ca54611b449085906001600160a01b031683613e89565b60ca5460ce5460d9546040516388e5249f60e01b81526001600160a01b03938416936388e5249f93611b8e9390821692620100009091049091169086906000904290600401614ef4565b600060405180830381600087803b158015611ba857600080fd5b505af1158015611bbc573d6000803e3d6000fd5b50505050611bdd565b60ce54611bdd9085906001600160a01b031683613e89565b6000606460d35484611bef9190615223565b611bf99190615201565b60d054909150611c149086906001600160a01b031683613e89565b6000606460d45485611c269190615223565b611c309190615201565b60d95490915060ff1615611cd75760ca54611c569087906001600160a01b031683613e89565b60ca5460cf5460d9546040516388e5249f60e01b81526001600160a01b03938416936388e5249f93611ca09390821692620100009091049091169086906000904290600401614ef4565b600060405180830381600087803b158015611cba57600080fd5b505af1158015611cce573d6000803e3d6000fd5b50505050611cef565b60cf54611cef9087906001600160a01b031683613e89565b6000606460d55486611d019190615223565b611d0b9190615201565b9050611d178782614057565b6000818385611d26888a615242565b611d309190615242565b611d3a9190615242565b611d449190615242565b90508015611d5757611d57883083613e89565b60c95460405162a6998d60e31b81526001600160a01b0390911690630534cc6890611d8a908b908e908e90600401614f25565b600060405180830381600087803b158015611da457600080fd5b505af1158015611db8573d6000803e3d6000fd5b505050507f120c2f36321d80f09f9d26f68f1f49b72c1964e118aa788bb9611f47e10c7eac88604051611deb9190614ec7565b60405180910390a150505050505050505050565b3360008181526034602090815260408083206001600160a01b03871684529091528120549091906113b39082908690611e399087906151e9565b613b5b565b60c95460405163ce6912a360e01b81526000916001600160a01b03169063ce6912a390611e6f908590600401614f9f565b60206040518083038186803b158015611e8757600080fd5b505afa158015611e9b573d6000803e3d6000fd5b505050506040513d601f19601f820116820180604052508101906113b99190614df6565b6001600160a01b039182166000908152609d6020908152604080832093909416825291909152205490565b6001600160a01b038116600090815260996020526040902054611f1f5760405162461bcd60e51b8152600401610f3490614fed565b6001600160a01b0382166000908152609c60205260408120546040516370a0823160e01b81526001600160a01b038516906370a0823190611f64903090600401614ec7565b60206040518083038186803b158015611f7c57600080fd5b505afa158015611f90573d6000803e3d6000fd5b505050506040513d601f19601f82011682018060405250810190611fb49190614df6565b611fbe91906151e9565b90506000611fd183836115db8787611ebf565b905080611ff05760405162461bcd60e51b8152600401610f3490615033565b6001600160a01b038085166000908152609d60209081526040808320938716835292905290812080548392906120279084906151e9565b90915550506001600160a01b0384166000908152609c6020526040812080548392906120549084906151e9565b90915550612065905084848361406f565b836001600160a01b03167f3be5b7a71e84ed12875d241991c70855ac5817d847039e17a9d895c1ceb0f18a84836040516120a0929190614edb565b60405180910390a250505050565b60db54339060ff1615156001146121075760405162461bcd60e51b815260206004820152601960248201527f43534854414c4c3a20636173686f75742064697361626c6564000000000000006044820152606401610f34565b6001600160a01b0381166121555760405162461bcd60e51b815260206004820152601560248201527443534854414c4c3a207a65726f206164647265737360581b6044820152606401610f34565b6001600160a01b038116600090815260da602052604090205460ff16156121be5760405162461bcd60e51b815260206004820152601c60248201527f43534854414c4c3a20626c61636b6c69737465642061646472657373000000006044820152606401610f34565b60c9546040516330cd31af60e11b81526000916001600160a01b03169063619a635e906121ef908590600401614ec7565b60206040518083038186803b15801561220757600080fd5b505afa15801561221b573d6000803e3d6000fd5b505050506040513d601f19601f8201168201806040525081019061223f9190614df6565b9050600081116122915760405162461bcd60e51b815260206004820152601960248201527f43534854414c4c3a20726577617264206e6f74207265616479000000000000006044820152606401610f34565b60d854600090156122ee57606460d854836122ac9190615223565b6122b69190615201565b60d25460d0549192506001600160a01b039182169116146122ee5760d05460d2546122ee916001600160a01b03908116911684613abd565b6122f88183615242565b60d054909250612312906001600160a01b03168484613abd565b60c95460405163d094fa8d60e01b81526001600160a01b039091169063d094fa8d90612342908690600401614ec7565b602060405180830381600087803b15801561235c57600080fd5b505af1158015612370573d6000803e3d6000fd5b505050506040513d601f19601f820116820180604052508101906123949190614df6565b507f564112c0ad2fbcae1bed83c58ed5d830128565d634cdc875bb02b065ad242343836040516116819190614ec7565b6065546001600160a01b031633146123ee5760405162461bcd60e51b8152600401610f34906150b5565b6001600160a01b0381166124145760405162461bcd60e51b8152600401610f3490614fc0565b60ce80546001600160a01b0319166001600160a01b0392909216919091179055565b600054610100900460ff166124515760005460ff1615612455565b303b155b6124b85760405162461bcd60e51b815260206004820152602e60248201527f496e697469616c697a61626c653a20636f6e747261637420697320616c72656160448201526d191e481a5b9a5d1a585b1a5e995960921b6064820152608401610f34565b600054610100900460ff161580156124da576000805461ffff19166101011790555b600085511180156124ec575060008451115b61252f5760405162461bcd60e51b815260206004820152601460248201527320a222291013102120a620a721a29022a92927a960611b6044820152606401610f34565b6125376140c5565b61257b604051806040016040528060078152602001663078426c6f636b60c81b81525060405180604001604052806003815260200162183c2160e91b8152506140f4565b6125858787614125565b60006001600160a01b0316856001815181106125a3576125a3615307565b60200260200101516001600160a01b0316141580156125ef575060006001600160a01b0316856002815181106125db576125db615307565b60200260200101516001600160a01b031614155b8015612628575060006001600160a01b03168560038151811061261457612614615307565b60200260200101516001600160a01b031614155b8015612661575060006001600160a01b03168560048151811061264d5761264d615307565b60200260200101516001600160a01b031614155b61269f5760405162461bcd60e51b815260206004820152600f60248201526e1413d3d30816915493c81193d55391608a1b6044820152606401610f34565b846001815181106126b2576126b2615307565b602002602001015160ce60006101000a8154816001600160a01b0302191690836001600160a01b03160217905550846002815181106126f3576126f3615307565b602002602001015160d160006101000a8154816001600160a01b0302191690836001600160a01b031602179055508460038151811061273457612734615307565b602002602001015160cf60006101000a8154816001600160a01b0302191690836001600160a01b031602179055508460048151811061277557612775615307565b602090810291909101015160d080546001600160a01b039092166001600160a01b0319928316811790915560d280549092161790558251600090849082906127bf576127bf615307565b60200260200101511180156127ee57506000836001815181106127e4576127e4615307565b6020026020010151115b8015612814575060008360028151811061280a5761280a615307565b6020026020010151115b801561283a575060008360038151811061283057612830615307565b6020026020010151115b8015612860575060008360048151811061285657612856615307565b6020026020010151115b61289c5760405162461bcd60e51b815260206004820152600d60248201526c0c094811915154c81193d55391609a1b6044820152606401610f34565b826000815181106128af576128af615307565b602002602001015160d681905550826001815181106128d0576128d0615307565b602002602001015160d481905550826002815181106128f1576128f1615307565b602002602001015160d3819055508260038151811061291257612912615307565b602002602001015160d5819055508260048151811061293357612933615307565b602002602001015160d88190555060d45460d65460d55460d35461295791906151e9565b61296191906151e9565b61296b91906151e9565b60d75583518551146129b65760405162461bcd60e51b815260206004820152601460248201527320a222291013102120a620a721a29022a92927a960611b6044820152606401610f34565b60005b8551811015612a2357612a118682815181106129d7576129d7615307565b60200260200101518683815181106129f1576129f1615307565b6020026020010151670de0b6b3a7640000612a0c9190615223565b614156565b80612a1b816152c0565b9150506129b9565b5060355469d3c21bcecceda100000014612a775760405162461bcd60e51b81526020600482015260156024820152741515130814d5541413164811125191880c48135253605a1b6044820152606401610f34565b60d98054606460cb55600a60cc5561ffff196001600160a01b038516620100000281166001600160b01b0319909216919091176101001790915560db805461010192169190911790558015612ad2576000805461ff00191690555b50505050505050565b6065546001600160a01b03163314612b055760405162461bcd60e51b8152600401610f34906150b5565b6001600160a01b038116612b2b5760405162461bcd60e51b8152600401610f3490614fc0565b60d280546001600160a01b0319166001600160a01b0392909216919091179055565b60db54339060ff161515600114612b9f5760405162461bcd60e51b815260206004820152601660248201527510d4d2150e8810d85cda1bdd5d08111a5cd8589b195960521b6044820152606401610f34565b6001600160a01b038116612bea5760405162461bcd60e51b8152602060048201526012602482015271435348543a207a65726f206164647265737360701b6044820152606401610f34565b6001600160a01b038116600090815260da602052604090205460ff1615612c475760405162461bcd60e51b815260206004820152601160248201527010d4d2150e88189b1858dadb1a5cdd1959607a1b6044820152606401610f34565b60c9546040516329b8573160e21b81526000916001600160a01b03169063a6e15cc490612c7a9085908790600401614edb565b60206040518083038186803b158015612c9257600080fd5b505afa158015612ca6573d6000803e3d6000fd5b505050506040513d601f19601f82011682018060405250810190612cca9190614df6565b905060008111612d155760405162461bcd60e51b8152602060048201526016602482015275435348543a20726577617264206e6f7420726561647960501b6044820152606401610f34565b60d85460009015612d7257606460d85483612d309190615223565b612d3a9190615201565b60d25460d0549192506001600160a01b03918216911614612d725760d05460d254612d72916001600160a01b03908116911684613abd565b612d7c8183615242565b60d054909250612d96906001600160a01b03168484613abd565b60c95460405163611015b360e11b81526001600160a01b039091169063c2202b6690612dc89086908890600401614edb565b602060405180830381600087803b158015612de257600080fd5b505af1158015612df6573d6000803e3d6000fd5b505050506040513d601f19601f82011682018060405250810190612e1a9190614df6565b507f39f6d68d140e552a327d43ef814649947d78e76743e169e4f00d61b14f2f846d8385604051612e4c929190614edb565b60405180910390a150505050565b6065546001600160a01b03163314612e845760405162461bcd60e51b8152600401610f34906150b5565b6064811115612ed55760405162461bcd60e51b815260206004820152601c60248201527f464545533a20636173686f757420657863656564696e672031303025000000006044820152606401610f34565b60d855565b60c9546060906001600160a01b03166377ec7826336114f9565b6000816002811115612f0857612f086152f1565b60c95460405163ce6912a360e01b81526001600160a01b039091169063ce6912a390612f38908690600401614f9f565b60206040518083038186803b158015612f5057600080fd5b505afa158015612f64573d6000803e3d6000fd5b505050506040513d601f19601f82011682018060405250810190612f889190614df6565b6113b99190615223565b6001600160a01b031660009081526033602052604090205490565b6065546001600160a01b03163314612fd75760405162461bcd60e51b8152600401610f34906150b5565b612fe16000614235565b565b6065546001600160a01b0316331461300d5760405162461bcd60e51b8152600401610f34906150b5565b6001600160a01b0381166130335760405162461bcd60e51b8152600401610f3490614fc0565b60cf80546001600160a01b0319166001600160a01b0392909216919091179055565b60c9546060906001600160a01b0316638bf14514336114f9565b6065546001600160a01b031633146130995760405162461bcd60e51b8152600401610f34906150b5565b60d980549115156101000261ff0019909216919091179055565b60c9546060906001600160a01b031663f743f319336114f9565b6000609b82815481106130e2576130e2615307565b6000918252602090912001546001600160a01b031692915050565b6065546001600160a01b031633146131275760405162461bcd60e51b8152600401610f34906150b5565b6001600160a01b0381166131725760405162461bcd60e51b81526020600482015260126024820152712722abafa1a9269d103d32b9379030b2323960711b6044820152606401610f34565b60c980546001600160a01b0319166001600160a01b0392909216919091179055565b6065546001600160a01b031633146131be5760405162461bcd60e51b8152600401610f34906150b5565b60008160d45460d65460d3546131d491906151e9565b6131de91906151e9565b6131e891906151e9565b9050606481111561320b5760405162461bcd60e51b8152600401610f34906150ea565b60d59190915560d755565b60c9546060906001600160a01b03166351bf120c336114f9565b6065546001600160a01b0316331461325a5760405162461bcd60e51b8152600401610f34906150b5565b60db80549115156101000261ff0019909216919091179055565b60606037805461103190615285565b6065546001600160a01b031633146132ad5760405162461bcd60e51b8152600401610f34906150b5565b60008160d65460d55460d3546132c391906151e9565b6132cd91906151e9565b6132d791906151e9565b905060648111156132fa5760405162461bcd60e51b8152600401610f34906150ea565b60d49190915560d755565b60c9546060906001600160a01b031663367fd074336114f9565b6040516370a0823160e01b81523390859084906001600160a01b038316906370a0823190613351908690600401614ec7565b60206040518083038186803b15801561336957600080fd5b505afa15801561337d573d6000803e3d6000fd5b505050506040513d601f19601f820116820180604052508101906133a19190614df6565b10156133bf5760405162461bcd60e51b8152600401610f349061507e565b60ca546040516323b872dd60e01b81526001600160a01b038481166004830152918216602482015260448101869052908216906323b872dd90606401602060405180830381600087803b15801561341557600080fd5b505af1158015613429573d6000803e3d6000fd5b505050506040513d601f19601f8201168201806040525081019061344d9190614d2e565b5060ca546001600160a01b03166374cefd8a838888886112c989426151e9565b6065546001600160a01b031633146134975760405162461bcd60e51b8152600401610f34906150b5565b60d9805460ff1916911515919091179055565b3360008181526034602090815260408083206001600160a01b03871684529091528120549091908381101561352f5760405162461bcd60e51b815260206004820152602560248201527f45524332303a2064656372656173656420616c6c6f77616e63652062656c6f77604482015264207a65726f60d81b6064820152608401610f34565b61353c8286868403613b5b565b506001949350505050565b6000336113b3818585613abd565b6065546001600160a01b0316331461357f5760405162461bcd60e51b8152600401610f34906150b5565b60d980546001600160a01b03909216620100000262010000600160b01b0319909216919091179055565b6065546001600160a01b031633146135d35760405162461bcd60e51b8152600401610f34906150b5565b60db805460ff1916911515919091179055565b6065546001600160a01b031633146136105760405162461bcd60e51b8152600401610f34906150b5565b6001600160a01b03811661365f5760405162461bcd60e51b81526020600482015260166024820152752722abafa62927aaaa22a91d103d32b9379030b2323960511b6044820152606401610f34565b60ca80546001600160a01b0319166001600160a01b0392909216919091179055565b6065546001600160a01b031633146136ab5760405162461bcd60e51b8152600401610f34906150b5565b6001600160a01b0381166136d15760405162461bcd60e51b8152600401610f3490614fc0565b60d080546001600160a01b0319166001600160a01b0392909216919091179055565b6065546001600160a01b0316331461371d5760405162461bcd60e51b8152600401610f34906150b5565b61372630612f92565b8111156137865760405162461bcd60e51b815260206004820152602860248201527f534156455f4d495353454e543a20746f6b656e732065786365656420616464726044820152672062616c616e636560c01b6064820152608401610f34565b6001600160a01b0382166137dc5760405162461bcd60e51b815260206004820152601a60248201527f534156455f4d495353454e543a207a65726f5f616464726573730000000000006044820152606401610f34565b6137e7308383613abd565b5050565b60008160028111156137ff576137ff6152f1565b60c95460405163ce6912a360e01b81526001600160a01b039091169063ce6912a39061382f908690600401614f9f565b60206040518083038186803b15801561384757600080fd5b505afa15801561385b573d6000803e3d6000fd5b505050506040513d601f19601f8201168201806040525081019061387f9190614df6565b6113b991906151e9565b6001600160a01b03918216600090815260346020908152604080832093909416825291909152205490565b60c9546060906001600160a01b03166328cceb24336114f9565b6065546001600160a01b031633146138f85760405162461bcd60e51b8152600401610f34906150b5565b6001600160a01b03811661391e5760405162461bcd60e51b8152600401610f3490614fc0565b60d180546001600160a01b0319166001600160a01b0392909216919091179055565b338361394b82612f92565b10156139695760405162461bcd60e51b8152600401610f349061507e565b60ca546139819082906001600160a01b031686613abd565b60ca546001600160a01b03166388e5249f82878787610f7488426151e9565b6065546001600160a01b031633146139ca5760405162461bcd60e51b8152600401610f34906150b5565b6001600160a01b038116613a2f5760405162461bcd60e51b815260206004820152602660248201527f4f776e61626c653a206e6577206f776e657220697320746865207a65726f206160448201526564647265737360d01b6064820152608401610f34565b613a3881614235565b50565b6065546001600160a01b03163314613a655760405162461bcd60e51b8152600401610f34906150b5565b60008160d45460d55460d354613a7b91906151e9565b613a8591906151e9565b613a8f91906151e9565b90506064811115613ab25760405162461bcd60e51b8152600401610f34906150ea565b60d69190915560d755565b6001600160a01b038316600090815260da602052604090205460ff16158015613aff57506001600160a01b038216600090815260da602052604090205460ff16155b613b4b5760405162461bcd60e51b815260206004820152601a60248201527f45524332303a20426c61636b6c697374656420616464726573730000000000006044820152606401610f34565b613b56838383613e89565b505050565b6001600160a01b038316613bbd5760405162461bcd60e51b8152602060048201526024808201527f45524332303a20617070726f76652066726f6d20746865207a65726f206164646044820152637265737360e01b6064820152608401610f34565b6001600160a01b038216613c1e5760405162461bcd60e51b815260206004820152602260248201527f45524332303a20617070726f766520746f20746865207a65726f206164647265604482015261737360f01b6064820152608401610f34565b6001600160a01b0383811660008181526034602090815260408083209487168084529482529182902085905590518481527f8c5be1e5ebec7d5bd14f71427d1e84f3dd0314c0f7b2291e5b200ac8c7c3b925910160405180910390a3505050565b6097546001600160a01b03841660009081526099602052604081205490918391613ca99086615223565b613cb39190615201565b613cbd9190615242565b949350505050565b80471015613d155760405162461bcd60e51b815260206004820152601d60248201527f416464726573733a20696e73756666696369656e742062616c616e63650000006044820152606401610f34565b6000826001600160a01b03168260405160006040518083038185875af1925050503d8060008114613d62576040519150601f19603f3d011682016040523d82523d6000602084013e613d67565b606091505b5050905080613b565760405162461bcd60e51b815260206004820152603a60248201527f416464726573733a20756e61626c6520746f2073656e642076616c75652c207260448201527f6563697069656e74206d617920686176652072657665727465640000000000006064820152608401610f34565b6000613dea8484613889565b90506000198114613e525781811015613e455760405162461bcd60e51b815260206004820152601d60248201527f45524332303a20696e73756666696369656e7420616c6c6f77616e63650000006044820152606401610f34565b613e528484848403613b5b565b50505050565b60c9546040516344fea1b960e01b81526000916001600160a01b0316906344fea1b990611e6f908590600401614ec7565b6001600160a01b038316613eed5760405162461bcd60e51b815260206004820152602560248201527f45524332303a207472616e736665722066726f6d20746865207a65726f206164604482015264647265737360d81b6064820152608401610f34565b6001600160a01b038216613f4f5760405162461bcd60e51b815260206004820152602360248201527f45524332303a207472616e7366657220746f20746865207a65726f206164647260448201526265737360e81b6064820152608401610f34565b6001600160a01b03831660009081526033602052604090205481811015613fc75760405162461bcd60e51b815260206004820152602660248201527f45524332303a207472616e7366657220616d6f756e7420657863656564732062604482015265616c616e636560d01b6064820152608401610f34565b6001600160a01b03808516600090815260336020526040808220858503905591851681529081208054849290613ffe9084906151e9565b92505081905550826001600160a01b0316846001600160a01b03167fddf252ad1be2c89b69c2b068fc378daa952ba7f163c4a11628f55a4df523b3ef8460405161404a91815260200190565b60405180910390a3613e52565b60d1546137e79083906001600160a01b031683613e89565b613b568363a9059cbb60e01b848460405160240161408e929190614edb565b60408051601f198184030181529190526020810180516001600160e01b03166001600160e01b031990931692909217909152614287565b600054610100900460ff166140ec5760405162461bcd60e51b8152600401610f3490615121565b612fe1614359565b600054610100900460ff1661411b5760405162461bcd60e51b8152600401610f3490615121565b6137e78282614389565b600054610100900460ff1661414c5760405162461bcd60e51b8152600401610f3490615121565b6137e782826143d7565b6001600160a01b0382166141ac5760405162461bcd60e51b815260206004820152601f60248201527f45524332303a206d696e7420746f20746865207a65726f2061646472657373006044820152606401610f34565b80603560008282546141be91906151e9565b90915550506001600160a01b038216600090815260336020526040812080548392906141eb9084906151e9565b90915550506040518181526001600160a01b038316906000907fddf252ad1be2c89b69c2b068fc378daa952ba7f163c4a11628f55a4df523b3ef9060200160405180910390a35050565b606580546001600160a01b038381166001600160a01b0319831681179093556040519116919082907f8be0079c531659141344cd1fd0a4f28419497f9722a3daafe3b4186f6b6457e090600090a35050565b60006142dc826040518060400160405280602081526020017f5361666545524332303a206c6f772d6c6576656c2063616c6c206661696c6564815250856001600160a01b03166145159092919063ffffffff16565b805190915015613b5657808060200190518101906142fa9190614d2e565b613b565760405162461bcd60e51b815260206004820152602a60248201527f5361666545524332303a204552433230206f7065726174696f6e20646964206e6044820152691bdd081cdd58d8d9595960b21b6064820152608401610f34565b600054610100900460ff166143805760405162461bcd60e51b8152600401610f3490615121565b612fe133614235565b600054610100900460ff166143b05760405162461bcd60e51b8152600401610f3490615121565b81516143c390603690602085019061486c565b508051613b5690603790602084019061486c565b600054610100900460ff166143fe5760405162461bcd60e51b8152600401610f3490615121565b805182511461446a5760405162461bcd60e51b815260206004820152603260248201527f5061796d656e7453706c69747465723a2070617965657320616e6420736861726044820152710cae640d8cadccee8d040dad2e6dac2e8c6d60731b6064820152608401610f34565b60008251116144bb5760405162461bcd60e51b815260206004820152601a60248201527f5061796d656e7453706c69747465723a206e6f207061796565730000000000006044820152606401610f34565b60005b8251811015613b56576145038382815181106144dc576144dc615307565b60200260200101518383815181106144f6576144f6615307565b6020026020010151614524565b8061450d816152c0565b9150506144be565b6060613cbd8484600085614702565b6001600160a01b03821661458f5760405162461bcd60e51b815260206004820152602c60248201527f5061796d656e7453706c69747465723a206163636f756e74206973207468652060448201526b7a65726f206164647265737360a01b6064820152608401610f34565b600081116145df5760405162461bcd60e51b815260206004820152601d60248201527f5061796d656e7453706c69747465723a207368617265732061726520300000006044820152606401610f34565b6001600160a01b038216600090815260996020526040902054156146595760405162461bcd60e51b815260206004820152602b60248201527f5061796d656e7453706c69747465723a206163636f756e7420616c726561647960448201526a206861732073686172657360a81b6064820152608401610f34565b609b8054600181019091557fbba9db4cdbea0a37c207bbb83e20f828cd4441c49891101dc94fd20dc8efc3490180546001600160a01b0319166001600160a01b03841690811790915560009081526099602052604090208190556097546146c19082906151e9565b6097556040517f40c340f65e17194d14ddddb073d3c9f888e3cb52b5aae0c6c7706b4fbc905fac906146f69084908490614edb565b60405180910390a15050565b6060824710156147635760405162461bcd60e51b815260206004820152602660248201527f416464726573733a20696e73756666696369656e742062616c616e636520666f6044820152651c8818d85b1b60d21b6064820152608401610f34565b6001600160a01b0385163b6147ba5760405162461bcd60e51b815260206004820152601d60248201527f416464726573733a2063616c6c20746f206e6f6e2d636f6e74726163740000006044820152606401610f34565b600080866001600160a01b031685876040516147d69190614eab565b60006040518083038185875af1925050503d8060008114614813576040519150601f19603f3d011682016040523d82523d6000602084013e614818565b606091505b5091509150614828828286614833565b979650505050505050565b606083156148425750816116ad565b8251156148525782518084602001fd5b8160405162461bcd60e51b8152600401610f349190614fad565b82805461487890615285565b90600052602060002090601f01602090048101928261489a57600085556148e0565b82601f106148b357805160ff19168380011785556148e0565b828001600101855582156148e0579182015b828111156148e05782518255916020019190600101906148c5565b506148ec9291506148f0565b5090565b5b808211156148ec57600081556001016148f1565b803561491081615333565b919050565b600082601f83011261492657600080fd5b8135602061493b6149368361519d565b61516c565b80838252828201915082860187848660051b890101111561495b57600080fd5b60005b8581101561498357813561497181615333565b8452928401929084019060010161495e565b5090979650505050505050565b600082601f8301126149a157600080fd5b813560206149b16149368361519d565b80838252828201915082860187848660051b89010111156149d157600080fd5b60005b85811015614983578135845292840192908401906001016149d4565b80356003811061491057600080fd5b600060208284031215614a1157600080fd5b81356116ad81615333565b60008060408385031215614a2f57600080fd5b8235614a3a81615333565b91506020830135614a4a81615333565b809150509250929050565b600080600060608486031215614a6a57600080fd5b8335614a7581615333565b92506020840135614a8581615333565b929592945050506040919091013590565b60008060408385031215614aa957600080fd5b8235614ab481615333565b91506020830135614a4a81615348565b60008060408385031215614ad757600080fd5b8235614ae281615333565b946020939093013593505050565b60008060008060808587031215614b0657600080fd5b8435614b1181615333565b966020860135965060408601359560600135945092505050565b60008060008060008060c08789031215614b4457600080fd5b863567ffffffffffffffff80821115614b5c57600080fd5b614b688a838b01614915565b97506020890135915080821115614b7e57600080fd5b614b8a8a838b01614990565b96506040890135915080821115614ba057600080fd5b614bac8a838b01614915565b95506060890135915080821115614bc257600080fd5b614bce8a838b01614990565b94506080890135915080821115614be457600080fd5b50614bf189828a01614990565b925050614c0060a08801614905565b90509295509295509295565b6000806040808486031215614c2057600080fd5b833567ffffffffffffffff80821115614c3857600080fd5b818601915086601f830112614c4c57600080fd5b81356020614c5c6149368361519d565b8083825282820191508286018b848660051b8901011115614c7c57600080fd5b60005b85811015614cf157813587811115614c9657600080fd5b8801603f81018e13614ca757600080fd5b85810135614cb7614936826151c1565b8181528f8c838501011115614ccb57600080fd5b818c84018983013760009181018801919091528552509284019290840190600101614c7f565b50508098505050614d038189016149f0565b955050505050509250929050565b600060208284031215614d2357600080fd5b81356116ad81615348565b600060208284031215614d4057600080fd5b81516116ad81615348565b600060208284031215614d5d57600080fd5b6116ad826149f0565b600060208284031215614d7857600080fd5b815167ffffffffffffffff811115614d8f57600080fd5b8201601f81018413614da057600080fd5b8051614dae614936826151c1565b818152856020838501011115614dc357600080fd5b614dd4826020830160208601615259565b95945050505050565b600060208284031215614def57600080fd5b5035919050565b600060208284031215614e0857600080fd5b5051919050565b60008060408385031215614e2257600080fd5b50508035926020909101359150565b600080600060608486031215614e4657600080fd5b505081359360208301359350604090920135919050565b60038110614e7b57634e487b7160e01b600052602160045260246000fd5b9052565b60008151808452614e97816020860160208601615259565b601f01601f19169290920160200192915050565b60008251614ebd818460208701615259565b9190910192915050565b6001600160a01b0391909116815260200190565b6001600160a01b03929092168252602082015260400190565b6001600160a01b03958616815293909416602084015260408301919091526060820152608081019190915260a00190565b60006060820160018060a01b0386168352602060608185015281865180845260808601915060808160051b870101935082880160005b82811015614f8957607f19888703018452614f77868351614e7f565b95509284019290840190600101614f5b565b505050505080915050613cbd6040830184614e5d565b602081016113b98284614e5d565b6020815260006116ad6020830184614e7f565b6020808252601390820152722aa8222faba0a6261d103d32b9379030b2323960691b604082015260600190565b60208082526026908201527f5061796d656e7453706c69747465723a206163636f756e7420686173206e6f2060408201526573686172657360d01b606082015260800190565b6020808252602b908201527f5061796d656e7453706c69747465723a206163636f756e74206973206e6f742060408201526a191d59481c185e5b595b9d60aa1b606082015260800190565b6020808252601a908201527f535741503a20696e73756666696369656e742062616c616e6365000000000000604082015260600190565b6020808252818101527f4f776e61626c653a2063616c6c6572206973206e6f7420746865206f776e6572604082015260600190565b6020808252601a908201527f464545533a20746f74616c20657863656564696e672031303025000000000000604082015260600190565b6020808252602b908201527f496e697469616c697a61626c653a20636f6e7472616374206973206e6f74206960408201526a6e697469616c697a696e6760a81b606082015260800190565b604051601f8201601f1916810167ffffffffffffffff811182821017156151955761519561531d565b604052919050565b600067ffffffffffffffff8211156151b7576151b761531d565b5060051b60200190565b600067ffffffffffffffff8211156151db576151db61531d565b50601f01601f191660200190565b600082198211156151fc576151fc6152db565b500190565b60008261521e57634e487b7160e01b600052601260045260246000fd5b500490565b600081600019048311821515161561523d5761523d6152db565b500290565b600082821015615254576152546152db565b500390565b60005b8381101561527457818101518382015260200161525c565b83811115613e525750506000910152565b600181811c9082168061529957607f821691505b602082108114156152ba57634e487b7160e01b600052602260045260246000fd5b50919050565b60006000198214156152d4576152d46152db565b5060010190565b634e487b7160e01b600052601160045260246000fd5b634e487b7160e01b600052602160045260246000fd5b634e487b7160e01b600052603260045260246000fd5b634e487b7160e01b600052604160045260246000fd5b6001600160a01b0381168114613a3857600080fd5b8015158114613a3857600080fdfea164736f6c6343000807000a",
  "devdoc": {
    "kind": "dev",
    "methods": {
      "allowance(address,address)": {
        "details": "See {IERC20-allowance}."
      },
      "approve(address,uint256)": {
        "details": "See {IERC20-approve}. NOTE: If `amount` is the maximum `uint256`, the allowance is not updated on `transferFrom`. This is semantically equivalent to an infinite approval. Requirements: - `spender` cannot be the zero address."
      },
      "balanceOf(address)": {
        "details": "See {IERC20-balanceOf}."
      },
      "decimals()": {
        "details": "Returns the number of decimals used to get its user representation. For example, if `decimals` equals `2`, a balance of `505` tokens should be displayed to a user as `5.05` (`505 / 10 ** 2`). Tokens usually opt for a value of 18, imitating the relationship between Ether and Wei. This is the value {ERC20} uses, unless this function is overridden; NOTE: This information is only used for _display_ purposes: it in no way affects any of the arithmetic of the contract, including {IERC20-balanceOf} and {IERC20-transfer}."
      },
      "decreaseAllowance(address,uint256)": {
        "details": "Atomically decreases the allowance granted to `spender` by the caller. This is an alternative to {approve} that can be used as a mitigation for problems described in {IERC20-approve}. Emits an {Approval} event indicating the updated allowance. Requirements: - `spender` cannot be the zero address. - `spender` must have allowance for the caller of at least `subtractedValue`."
      },
      "increaseAllowance(address,uint256)": {
        "details": "Atomically increases the allowance granted to `spender` by the caller. This is an alternative to {approve} that can be used as a mitigation for problems described in {IERC20-approve}. Emits an {Approval} event indicating the updated allowance. Requirements: - `spender` cannot be the zero address."
      },
      "name()": {
        "details": "Returns the name of the token."
      },
      "owner()": {
        "details": "Returns the address of the current owner."
      },
      "payee(uint256)": {
        "details": "Getter for the address of the payee number `index`."
      },
      "release(address)": {
        "details": "Triggers a transfer to `account` of the amount of Ether they are owed, according to their percentage of the total shares and their previous withdrawals."
      },
      "release(address,address)": {
        "details": "Triggers a transfer to `account` of the amount of `token` tokens they are owed, according to their percentage of the total shares and their previous withdrawals. `token` must be the address of an IERC20 contract."
      },
      "released(address)": {
        "details": "Getter for the amount of Ether already released to a payee."
      },
      "released(address,address)": {
        "details": "Getter for the amount of `token` tokens already released to a payee. `token` should be the address of an IERC20 contract."
      },
      "renounceOwnership()": {
        "details": "Leaves the contract without owner. It will not be possible to call `onlyOwner` functions anymore. Can only be called by the current owner. NOTE: Renouncing ownership will leave the contract without an owner, thereby removing any functionality that is only available to the owner."
      },
      "shares(address)": {
        "details": "Getter for the amount of shares held by an account."
      },
      "symbol()": {
        "details": "Returns the symbol of the token, usually a shorter version of the name."
      },
      "totalReleased()": {
        "details": "Getter for the total amount of Ether already released."
      },
      "totalReleased(address)": {
        "details": "Getter for the total amount of `token` already released. `token` should be the address of an IERC20 contract."
      },
      "totalShares()": {
        "details": "Getter for the total shares held by payees."
      },
      "totalSupply()": {
        "details": "See {IERC20-totalSupply}."
      },
      "transfer(address,uint256)": {
        "details": "See {IERC20-transfer}. Requirements: - `to` cannot be the zero address. - the caller must have a balance of at least `amount`."
      },
      "transferFrom(address,address,uint256)": {
        "details": "See {IERC20-transferFrom}. Emits an {Approval} event indicating the updated allowance. This is not required by the EIP. See the note at the beginning of {ERC20}. NOTE: Does not update the allowance if the current allowance is the maximum `uint256`. Requirements: - `from` and `to` cannot be the zero address. - `from` must have a balance of at least `amount`. - the caller must have allowance for ``from``'s tokens of at least `amount`."
      },
      "transferOwnership(address)": {
        "details": "Transfers ownership of the contract to a new account (`newOwner`). Can only be called by the current owner."
      }
    },
    "version": 1
  },
  "userdoc": {
    "kind": "user",
    "methods": {},
    "version": 1
  },
  "storageLayout": {
    "storage": [
      {
        "astId": 598,
        "contract": "contracts/ZeroXBlock.sol:ZeroXBlock",
        "label": "_initialized",
        "offset": 0,
        "slot": "0",
        "type": "t_bool"
      },
      {
        "astId": 601,
        "contract": "contracts/ZeroXBlock.sol:ZeroXBlock",
        "label": "_initializing",
        "offset": 1,
        "slot": "0",
        "type": "t_bool"
      },
      {
        "astId": 1889,
        "contract": "contracts/ZeroXBlock.sol:ZeroXBlock",
        "label": "__gap",
        "offset": 0,
        "slot": "1",
        "type": "t_array(t_uint256)50_storage"
      },
      {
        "astId": 684,
        "contract": "contracts/ZeroXBlock.sol:ZeroXBlock",
        "label": "_balances",
        "offset": 0,
        "slot": "51",
        "type": "t_mapping(t_address,t_uint256)"
      },
      {
        "astId": 690,
        "contract": "contracts/ZeroXBlock.sol:ZeroXBlock",
        "label": "_allowances",
        "offset": 0,
        "slot": "52",
        "type": "t_mapping(t_address,t_mapping(t_address,t_uint256))"
      },
      {
        "astId": 692,
        "contract": "contracts/ZeroXBlock.sol:ZeroXBlock",
        "label": "_totalSupply",
        "offset": 0,
        "slot": "53",
        "type": "t_uint256"
      },
      {
        "astId": 694,
        "contract": "contracts/ZeroXBlock.sol:ZeroXBlock",
        "label": "_name",
        "offset": 0,
        "slot": "54",
        "type": "t_string_storage"
      },
      {
        "astId": 696,
        "contract": "contracts/ZeroXBlock.sol:ZeroXBlock",
        "label": "_symbol",
        "offset": 0,
        "slot": "55",
        "type": "t_string_storage"
      },
      {
        "astId": 1277,
        "contract": "contracts/ZeroXBlock.sol:ZeroXBlock",
        "label": "__gap",
        "offset": 0,
        "slot": "56",
        "type": "t_array(t_uint256)45_storage"
      },
      {
        "astId": 10,
        "contract": "contracts/ZeroXBlock.sol:ZeroXBlock",
        "label": "_owner",
        "offset": 0,
        "slot": "101",
        "type": "t_address"
      },
      {
        "astId": 122,
        "contract": "contracts/ZeroXBlock.sol:ZeroXBlock",
        "label": "__gap",
        "offset": 0,
        "slot": "102",
        "type": "t_array(t_uint256)49_storage"
      },
      {
        "astId": 163,
        "contract": "contracts/ZeroXBlock.sol:ZeroXBlock",
        "label": "_totalShares",
        "offset": 0,
        "slot": "151",
        "type": "t_uint256"
      },
      {
        "astId": 165,
        "contract": "contracts/ZeroXBlock.sol:ZeroXBlock",
        "label": "_totalReleased",
        "offset": 0,
        "slot": "152",
        "type": "t_uint256"
      },
      {
        "astId": 169,
        "contract": "contracts/ZeroXBlock.sol:ZeroXBlock",
        "label": "_shares",
        "offset": 0,
        "slot": "153",
        "type": "t_mapping(t_address,t_uint256)"
      },
      {
        "astId": 173,
        "contract": "contracts/ZeroXBlock.sol:ZeroXBlock",
        "label": "_released",
        "offset": 0,
        "slot": "154",
        "type": "t_mapping(t_address,t_uint256)"
      },
      {
        "astId": 176,
        "contract": "contracts/ZeroXBlock.sol:ZeroXBlock",
        "label": "_payees",
        "offset": 0,
        "slot": "155",
        "type": "t_array(t_address)dyn_storage"
      },
      {
        "astId": 181,
        "contract": "contracts/ZeroXBlock.sol:ZeroXBlock",
        "label": "_erc20TotalReleased",
        "offset": 0,
        "slot": "156",
        "type": "t_mapping(t_contract(IERC20Upgradeable)1356,t_uint256)"
      },
      {
        "astId": 188,
        "contract": "contracts/ZeroXBlock.sol:ZeroXBlock",
        "label": "_erc20Released",
        "offset": 0,
        "slot": "157",
        "type": "t_mapping(t_contract(IERC20Upgradeable)1356,t_mapping(t_address,t_uint256))"
      },
      {
        "astId": 590,
        "contract": "contracts/ZeroXBlock.sol:ZeroXBlock",
        "label": "__gap",
        "offset": 0,
        "slot": "158",
        "type": "t_array(t_uint256)43_storage"
      },
      {
        "astId": 2584,
        "contract": "contracts/ZeroXBlock.sol:ZeroXBlock",
        "label": "_crm",
        "offset": 0,
        "slot": "201",
        "type": "t_contract(CONTRewardManagement)6373"
      },
      {
        "astId": 2587,
        "contract": "contracts/ZeroXBlock.sol:ZeroXBlock",
        "label": "_liqRouter",
        "offset": 0,
        "slot": "202",
        "type": "t_contract(LiquidityRouter)7629"
      },
      {
        "astId": 2592,
        "contract": "contracts/ZeroXBlock.sol:ZeroXBlock",
        "label": "ownedContsLimit",
        "offset": 0,
        "slot": "203",
        "type": "t_uint256"
      },
      {
        "astId": 2594,
        "contract": "contracts/ZeroXBlock.sol:ZeroXBlock",
        "label": "mintContLimit",
        "offset": 0,
        "slot": "204",
        "type": "t_uint256"
      },
      {
        "astId": 2596,
        "contract": "contracts/ZeroXBlock.sol:ZeroXBlock",
        "label": "totalTokensPaidForMinting",
        "offset": 0,
        "slot": "205",
        "type": "t_uint256"
      },
      {
        "astId": 2598,
        "contract": "contracts/ZeroXBlock.sol:ZeroXBlock",
        "label": "developmentFundPool",
        "offset": 0,
        "slot": "206",
        "type": "t_address"
      },
      {
        "astId": 2600,
        "contract": "contracts/ZeroXBlock.sol:ZeroXBlock",
        "label": "treasuryPool",
        "offset": 0,
        "slot": "207",
        "type": "t_address"
      },
      {
        "astId": 2602,
        "contract": "contracts/ZeroXBlock.sol:ZeroXBlock",
        "label": "rewardsPool",
        "offset": 0,
        "slot": "208",
        "type": "t_address"
      },
      {
        "astId": 2604,
        "contract": "contracts/ZeroXBlock.sol:ZeroXBlock",
        "label": "liquidityPool",
        "offset": 0,
        "slot": "209",
        "type": "t_address"
      },
      {
        "astId": 2606,
        "contract": "contracts/ZeroXBlock.sol:ZeroXBlock",
        "label": "cashoutTaxPool",
        "offset": 0,
        "slot": "210",
        "type": "t_address"
      },
      {
        "astId": 2608,
        "contract": "contracts/ZeroXBlock.sol:ZeroXBlock",
        "label": "rewardsFee",
        "offset": 0,
        "slot": "211",
        "type": "t_uint256"
      },
      {
        "astId": 2610,
        "contract": "contracts/ZeroXBlock.sol:ZeroXBlock",
        "label": "treasuryFee",
        "offset": 0,
        "slot": "212",
        "type": "t_uint256"
      },
      {
        "astId": 2612,
        "contract": "contracts/ZeroXBlock.sol:ZeroXBlock",
        "label": "liquidityPoolFee",
        "offset": 0,
        "slot": "213",
        "type": "t_uint256"
      },
      {
        "astId": 2614,
        "contract": "contracts/ZeroXBlock.sol:ZeroXBlock",
        "label": "developmentFee",
        "offset": 0,
        "slot": "214",
        "type": "t_uint256"
      },
      {
        "astId": 2616,
        "contract": "contracts/ZeroXBlock.sol:ZeroXBlock",
        "label": "totalFees",
        "offset": 0,
        "slot": "215",
        "type": "t_uint256"
      },
      {
        "astId": 2618,
        "contract": "contracts/ZeroXBlock.sol:ZeroXBlock",
        "label": "cashoutFee",
        "offset": 0,
        "slot": "216",
        "type": "t_uint256"
      },
      {
        "astId": 2620,
        "contract": "contracts/ZeroXBlock.sol:ZeroXBlock",
        "label": "enableAutoSwapTreasury",
        "offset": 0,
        "slot": "217",
        "type": "t_bool"
      },
      {
        "astId": 2622,
        "contract": "contracts/ZeroXBlock.sol:ZeroXBlock",
        "label": "enableAutoSwapDevFund",
        "offset": 1,
        "slot": "217",
        "type": "t_bool"
      },
      {
        "astId": 2624,
        "contract": "contracts/ZeroXBlock.sol:ZeroXBlock",
        "label": "usdcToken",
        "offset": 2,
        "slot": "217",
        "type": "t_address"
      },
      {
        "astId": 2628,
        "contract": "contracts/ZeroXBlock.sol:ZeroXBlock",
        "label": "_isBlacklisted",
        "offset": 0,
        "slot": "218",
        "type": "t_mapping(t_address,t_bool)"
      },
      {
        "astId": 2630,
        "contract": "contracts/ZeroXBlock.sol:ZeroXBlock",
        "label": "enableCashout",
        "offset": 0,
        "slot": "219",
        "type": "t_bool"
      },
      {
        "astId": 2632,
        "contract": "contracts/ZeroXBlock.sol:ZeroXBlock",
        "label": "enableMintConts",
        "offset": 1,
        "slot": "219",
        "type": "t_bool"
      }
    ],
    "types": {
      "t_address": {
        "encoding": "inplace",
        "label": "address",
        "numberOfBytes": "20"
      },
      "t_array(t_address)dyn_storage": {
        "base": "t_address",
        "encoding": "dynamic_array",
        "label": "address[]",
        "numberOfBytes": "32"
      },
      "t_array(t_uint256)43_storage": {
        "base": "t_uint256",
        "encoding": "inplace",
        "label": "uint256[43]",
        "numberOfBytes": "1376"
      },
      "t_array(t_uint256)45_storage": {
        "base": "t_uint256",
        "encoding": "inplace",
        "label": "uint256[45]",
        "numberOfBytes": "1440"
      },
      "t_array(t_uint256)49_storage": {
        "base": "t_uint256",
        "encoding": "inplace",
        "label": "uint256[49]",
        "numberOfBytes": "1568"
      },
      "t_array(t_uint256)50_storage": {
        "base": "t_uint256",
        "encoding": "inplace",
        "label": "uint256[50]",
        "numberOfBytes": "1600"
      },
      "t_bool": {
        "encoding": "inplace",
        "label": "bool",
        "numberOfBytes": "1"
      },
      "t_contract(CONTRewardManagement)6373": {
        "encoding": "inplace",
        "label": "contract CONTRewardManagement",
        "numberOfBytes": "20"
      },
      "t_contract(IERC20Upgradeable)1356": {
        "encoding": "inplace",
        "label": "contract IERC20Upgradeable",
        "numberOfBytes": "20"
      },
      "t_contract(LiquidityRouter)7629": {
        "encoding": "inplace",
        "label": "contract LiquidityRouter",
        "numberOfBytes": "20"
      },
      "t_mapping(t_address,t_bool)": {
        "encoding": "mapping",
        "key": "t_address",
        "label": "mapping(address => bool)",
        "numberOfBytes": "32",
        "value": "t_bool"
      },
      "t_mapping(t_address,t_mapping(t_address,t_uint256))": {
        "encoding": "mapping",
        "key": "t_address",
        "label": "mapping(address => mapping(address => uint256))",
        "numberOfBytes": "32",
        "value": "t_mapping(t_address,t_uint256)"
      },
      "t_mapping(t_address,t_uint256)": {
        "encoding": "mapping",
        "key": "t_address",
        "label": "mapping(address => uint256)",
        "numberOfBytes": "32",
        "value": "t_uint256"
      },
      "t_mapping(t_contract(IERC20Upgradeable)1356,t_mapping(t_address,t_uint256))": {
        "encoding": "mapping",
        "key": "t_contract(IERC20Upgradeable)1356",
        "label": "mapping(contract IERC20Upgradeable => mapping(address => uint256))",
        "numberOfBytes": "32",
        "value": "t_mapping(t_address,t_uint256)"
      },
      "t_mapping(t_contract(IERC20Upgradeable)1356,t_uint256)": {
        "encoding": "mapping",
        "key": "t_contract(IERC20Upgradeable)1356",
        "label": "mapping(contract IERC20Upgradeable => uint256)",
        "numberOfBytes": "32",
        "value": "t_uint256"
      },
      "t_string_storage": {
        "encoding": "bytes",
        "label": "string",
        "numberOfBytes": "32"
      },
      "t_uint256": {
        "encoding": "inplace",
        "label": "uint256",
        "numberOfBytes": "32"
      }
    }
  }
}